{
  "address": "0x3E17fd53FcB2Dbd409B92f4860326B8b880e3c28",
  "abi": [
    {
      "inputs": [
        {
          "internalType": "string",
          "name": "name",
          "type": "string"
        },
        {
          "internalType": "string",
          "name": "symbol",
          "type": "string"
        }
      ],
      "stateMutability": "nonpayable",
      "type": "constructor"
    },
    {
      "inputs": [],
      "name": "AccessControlBadConfirmation",
      "type": "error"
    },
    {
      "inputs": [
        {
          "internalType": "address",
          "name": "account",
          "type": "address"
        },
        {
          "internalType": "bytes32",
          "name": "neededRole",
          "type": "bytes32"
        }
      ],
      "name": "AccessControlUnauthorizedAccount",
      "type": "error"
    },
    {
      "inputs": [
        {
          "internalType": "address",
          "name": "spender",
          "type": "address"
        },
        {
          "internalType": "uint256",
          "name": "allowance",
          "type": "uint256"
        },
        {
          "internalType": "uint256",
          "name": "needed",
          "type": "uint256"
        }
      ],
      "name": "ERC20InsufficientAllowance",
      "type": "error"
    },
    {
      "inputs": [
        {
          "internalType": "address",
          "name": "sender",
          "type": "address"
        },
        {
          "internalType": "uint256",
          "name": "balance",
          "type": "uint256"
        },
        {
          "internalType": "uint256",
          "name": "needed",
          "type": "uint256"
        }
      ],
      "name": "ERC20InsufficientBalance",
      "type": "error"
    },
    {
      "inputs": [
        {
          "internalType": "address",
          "name": "approver",
          "type": "address"
        }
      ],
      "name": "ERC20InvalidApprover",
      "type": "error"
    },
    {
      "inputs": [
        {
          "internalType": "address",
          "name": "receiver",
          "type": "address"
        }
      ],
      "name": "ERC20InvalidReceiver",
      "type": "error"
    },
    {
      "inputs": [
        {
          "internalType": "address",
          "name": "sender",
          "type": "address"
        }
      ],
      "name": "ERC20InvalidSender",
      "type": "error"
    },
    {
      "inputs": [
        {
          "internalType": "address",
          "name": "spender",
          "type": "address"
        }
      ],
      "name": "ERC20InvalidSpender",
      "type": "error"
    },
    {
      "inputs": [
        {
          "internalType": "address",
          "name": "vault",
          "type": "address"
        }
      ],
      "name": "InvalidVault",
      "type": "error"
    },
    {
      "inputs": [
        {
          "internalType": "address",
          "name": "account",
          "type": "address"
        }
      ],
      "name": "NotAllowlisted",
      "type": "error"
    },
    {
      "anonymous": false,
      "inputs": [
        {
          "indexed": true,
          "internalType": "address",
          "name": "account",
          "type": "address"
        },
        {
          "indexed": false,
          "internalType": "bool",
          "name": "isAllowlisted",
          "type": "bool"
        }
      ],
      "name": "AllowlistSet",
      "type": "event"
    },
    {
      "anonymous": false,
      "inputs": [
        {
          "indexed": true,
          "internalType": "address",
          "name": "owner",
          "type": "address"
        },
        {
          "indexed": true,
          "internalType": "address",
          "name": "spender",
          "type": "address"
        },
        {
          "indexed": false,
          "internalType": "uint256",
          "name": "value",
          "type": "uint256"
        }
      ],
      "name": "Approval",
      "type": "event"
    },
    {
      "anonymous": false,
      "inputs": [
        {
          "indexed": true,
          "internalType": "bytes32",
          "name": "role",
          "type": "bytes32"
        },
        {
          "indexed": true,
          "internalType": "bytes32",
          "name": "previousAdminRole",
          "type": "bytes32"
        },
        {
          "indexed": true,
          "internalType": "bytes32",
          "name": "newAdminRole",
          "type": "bytes32"
        }
      ],
      "name": "RoleAdminChanged",
      "type": "event"
    },
    {
      "anonymous": false,
      "inputs": [
        {
          "indexed": true,
          "internalType": "bytes32",
          "name": "role",
          "type": "bytes32"
        },
        {
          "indexed": true,
          "internalType": "address",
          "name": "account",
          "type": "address"
        },
        {
          "indexed": true,
          "internalType": "address",
          "name": "sender",
          "type": "address"
        }
      ],
      "name": "RoleGranted",
      "type": "event"
    },
    {
      "anonymous": false,
      "inputs": [
        {
          "indexed": true,
          "internalType": "bytes32",
          "name": "role",
          "type": "bytes32"
        },
        {
          "indexed": true,
          "internalType": "address",
          "name": "account",
          "type": "address"
        },
        {
          "indexed": true,
          "internalType": "address",
          "name": "sender",
          "type": "address"
        }
      ],
      "name": "RoleRevoked",
      "type": "event"
    },
    {
      "anonymous": false,
      "inputs": [
        {
          "indexed": true,
          "internalType": "address",
          "name": "from",
          "type": "address"
        },
        {
          "indexed": true,
          "internalType": "address",
          "name": "to",
          "type": "address"
        },
        {
          "indexed": false,
          "internalType": "uint256",
          "name": "value",
          "type": "uint256"
        }
      ],
      "name": "Transfer",
      "type": "event"
    },
    {
      "inputs": [],
      "name": "AMO_MANAGER_ROLE",
      "outputs": [
        {
          "internalType": "bytes32",
          "name": "",
          "type": "bytes32"
        }
      ],
      "stateMutability": "view",
      "type": "function"
    },
    {
      "inputs": [],
      "name": "DEFAULT_ADMIN_ROLE",
      "outputs": [
        {
          "internalType": "bytes32",
          "name": "",
          "type": "bytes32"
        }
      ],
      "stateMutability": "view",
      "type": "function"
    },
    {
      "inputs": [
        {
          "internalType": "address",
          "name": "owner",
          "type": "address"
        },
        {
          "internalType": "address",
          "name": "spender",
          "type": "address"
        }
      ],
      "name": "allowance",
      "outputs": [
        {
          "internalType": "uint256",
          "name": "",
          "type": "uint256"
        }
      ],
      "stateMutability": "view",
      "type": "function"
    },
    {
      "inputs": [
        {
          "internalType": "address",
          "name": "spender",
          "type": "address"
        },
        {
          "internalType": "uint256",
          "name": "value",
          "type": "uint256"
        }
      ],
      "name": "approve",
      "outputs": [
        {
          "internalType": "bool",
          "name": "",
          "type": "bool"
        }
      ],
      "stateMutability": "nonpayable",
      "type": "function"
    },
    {
      "inputs": [
        {
          "internalType": "address",
          "name": "account",
          "type": "address"
        }
      ],
      "name": "balanceOf",
      "outputs": [
        {
          "internalType": "uint256",
          "name": "",
          "type": "uint256"
        }
      ],
      "stateMutability": "view",
      "type": "function"
    },
    {
      "inputs": [
        {
          "internalType": "uint256",
          "name": "amount",
          "type": "uint256"
        }
      ],
      "name": "burn",
      "outputs": [],
      "stateMutability": "nonpayable",
      "type": "function"
    },
    {
      "inputs": [
        {
          "internalType": "address",
          "name": "vault",
          "type": "address"
        },
        {
          "internalType": "uint256",
          "name": "amount",
          "type": "uint256"
        }
      ],
      "name": "burnFromVault",
      "outputs": [],
      "stateMutability": "nonpayable",
      "type": "function"
    },
    {
      "inputs": [],
      "name": "decimals",
      "outputs": [
        {
          "internalType": "uint8",
          "name": "",
          "type": "uint8"
        }
      ],
      "stateMutability": "view",
      "type": "function"
    },
    {
      "inputs": [],
      "name": "getAllowlist",
      "outputs": [
        {
          "internalType": "address[]",
          "name": "",
          "type": "address[]"
        }
      ],
      "stateMutability": "view",
      "type": "function"
    },
    {
      "inputs": [],
      "name": "getAllowlistLength",
      "outputs": [
        {
          "internalType": "uint256",
          "name": "",
          "type": "uint256"
        }
      ],
      "stateMutability": "view",
      "type": "function"
    },
    {
      "inputs": [
        {
          "internalType": "bytes32",
          "name": "role",
          "type": "bytes32"
        }
      ],
      "name": "getRoleAdmin",
      "outputs": [
        {
          "internalType": "bytes32",
          "name": "",
          "type": "bytes32"
        }
      ],
      "stateMutability": "view",
      "type": "function"
    },
    {
      "inputs": [
        {
          "internalType": "bytes32",
          "name": "role",
          "type": "bytes32"
        },
        {
          "internalType": "address",
          "name": "account",
          "type": "address"
        }
      ],
      "name": "grantRole",
      "outputs": [],
      "stateMutability": "nonpayable",
      "type": "function"
    },
    {
      "inputs": [
        {
          "internalType": "bytes32",
          "name": "role",
          "type": "bytes32"
        },
        {
          "internalType": "address",
          "name": "account",
          "type": "address"
        }
      ],
      "name": "hasRole",
      "outputs": [
        {
          "internalType": "bool",
          "name": "",
          "type": "bool"
        }
      ],
      "stateMutability": "view",
      "type": "function"
    },
    {
      "inputs": [
        {
          "internalType": "address",
          "name": "account",
          "type": "address"
        }
      ],
      "name": "isAllowlisted",
      "outputs": [
        {
          "internalType": "bool",
          "name": "",
          "type": "bool"
        }
      ],
      "stateMutability": "view",
      "type": "function"
    },
    {
      "inputs": [
        {
          "internalType": "address",
          "name": "vault",
          "type": "address"
        },
        {
          "internalType": "uint256",
          "name": "amount",
          "type": "uint256"
        }
      ],
      "name": "mintToVault",
      "outputs": [],
      "stateMutability": "nonpayable",
      "type": "function"
    },
    {
      "inputs": [],
      "name": "name",
      "outputs": [
        {
          "internalType": "string",
          "name": "",
          "type": "string"
        }
      ],
      "stateMutability": "view",
      "type": "function"
    },
    {
      "inputs": [
        {
          "internalType": "bytes32",
          "name": "role",
          "type": "bytes32"
        },
        {
          "internalType": "address",
          "name": "callerConfirmation",
          "type": "address"
        }
      ],
      "name": "renounceRole",
      "outputs": [],
      "stateMutability": "nonpayable",
      "type": "function"
    },
    {
      "inputs": [
        {
          "internalType": "bytes32",
          "name": "role",
          "type": "bytes32"
        },
        {
          "internalType": "address",
          "name": "account",
          "type": "address"
        }
      ],
      "name": "revokeRole",
      "outputs": [],
      "stateMutability": "nonpayable",
      "type": "function"
    },
    {
      "inputs": [
        {
          "internalType": "address",
          "name": "account",
          "type": "address"
        },
        {
          "internalType": "bool",
          "name": "allowed",
          "type": "bool"
        }
      ],
      "name": "setAllowlisted",
      "outputs": [],
      "stateMutability": "nonpayable",
      "type": "function"
    },
    {
      "inputs": [
        {
          "internalType": "bytes4",
          "name": "interfaceId",
          "type": "bytes4"
        }
      ],
      "name": "supportsInterface",
      "outputs": [
        {
          "internalType": "bool",
          "name": "",
          "type": "bool"
        }
      ],
      "stateMutability": "view",
      "type": "function"
    },
    {
      "inputs": [],
      "name": "symbol",
      "outputs": [
        {
          "internalType": "string",
          "name": "",
          "type": "string"
        }
      ],
      "stateMutability": "view",
      "type": "function"
    },
    {
      "inputs": [],
      "name": "totalSupply",
      "outputs": [
        {
          "internalType": "uint256",
          "name": "",
          "type": "uint256"
        }
      ],
      "stateMutability": "view",
      "type": "function"
    },
    {
      "inputs": [
        {
          "internalType": "address",
          "name": "to",
          "type": "address"
        },
        {
          "internalType": "uint256",
          "name": "value",
          "type": "uint256"
        }
      ],
      "name": "transfer",
      "outputs": [
        {
          "internalType": "bool",
          "name": "",
          "type": "bool"
        }
      ],
      "stateMutability": "nonpayable",
      "type": "function"
    },
    {
      "inputs": [
        {
          "internalType": "address",
          "name": "from",
          "type": "address"
        },
        {
          "internalType": "address",
          "name": "to",
          "type": "address"
        },
        {
          "internalType": "uint256",
          "name": "value",
          "type": "uint256"
        }
      ],
      "name": "transferFrom",
      "outputs": [
        {
          "internalType": "bool",
          "name": "",
          "type": "bool"
        }
      ],
      "stateMutability": "nonpayable",
      "type": "function"
    }
  ],
  "transactionHash": "0xaeb42d981013642cba269e0964c3537b8c32dfcbb38e62dcecca975e3fe42690",
  "args": [
    "dTRINITY AMO Receipt",
    "amo-dUSD"
  ],
  "numDeployments": 1,
  "solcInputHash": "194206a022bc445371dea74dd0606d63",
  "bytecode": "0x6080604052346200032957620015c0803803806200001d816200032e565b928339810190604081830312620003295780516001600160401b03908181116200032957836200004f91840162000354565b916020938482015183811162000329576200006b920162000354565b825182811162000229576003918254916001958684811c941680156200031e575b8885101462000308578190601f94858111620002b2575b5088908583116001146200024b576000926200023f575b505060001982861b1c191690861b1783555b8051938411620002295760049586548681811c911680156200021e575b828210146200020957838111620001be575b508092851160011462000150575093839491849260009562000144575b50501b92600019911b1c19161790555b6200013333620003c6565b506040516111679081620004598239f35b01519350388062000118565b92919084601f1981168860005285600020956000905b89838310620001a3575050501062000188575b50505050811b01905562000128565b01519060f884600019921b161c191690553880808062000179565b85870151895590970196948501948893509081019062000166565b87600052816000208480880160051c820192848910620001ff575b0160051c019087905b828110620001f2575050620000fb565b60008155018790620001e2565b92508192620001d9565b602288634e487b7160e01b6000525260246000fd5b90607f1690620000e9565b634e487b7160e01b600052604160045260246000fd5b015190503880620000ba565b90889350601f19831691876000528a6000209260005b8c8282106200029b575050841162000282575b505050811b018355620000cc565b015160001983881b60f8161c1916905538808062000274565b8385015186558c9790950194938401930162000261565b90915085600052886000208580850160051c8201928b8610620002fe575b918a91869594930160051c01915b828110620002ee575050620000a3565b600081558594508a9101620002de565b92508192620002d0565b634e487b7160e01b600052602260045260246000fd5b93607f16936200008c565b600080fd5b6040519190601f01601f191682016001600160401b038111838210176200022957604052565b919080601f84011215620003295782516001600160401b03811162000229576020906200038a601f8201601f191683016200032e565b92818452828287010111620003295760005b818110620003b257508260009394955001015290565b85810183015184820184015282016200039c565b6001600160a01b031660008181527f05b8ccbb9d4d8fb16ea74ce3c29a41f1b461fbdaff4714a0d9a8eb05499746bc602052604081205490919060ff16620004545781805260056020526040822081835260205260408220600160ff1982541617905533917f2f8788117e7eff1d82e926ec794901d17c78024a50270940304540a733656f0d8180a4600190565b509056fe608060408181526004918236101561001657600080fd5b600092833560e01c91826301ffc9a714610aec5750816305a3b80914610aa657816306fdde03146109af578163095ea7b31461090557816318160ddd146108e65781631c83ba4a1461088057816323b872dd14610759578163248a9ca31461072e5781632f2ff15d14610704578163313ce567146106e857816336568abe146106a25781633f4cb246146105a157816342966c68146105785781635b8862dc1461053d57816364d042f01461051e57816370a08231146104e757816391d14854146104a057816395d89b411461039b5781639aa54181146102c7578163a217fddf146102ac578163a9059cbb1461027b578163c5eff3d0146101bc578163d547741f14610178575063dd62ed3e1461012d57600080fd5b3461017457806003193601126101745780602092610149610b3f565b610151610b5a565b6001600160a01b0391821683526001865283832091168252845220549051908152f35b5080fd5b919050346101b857806003193601126101b8576101b491356101af600161019d610b5a565b93838752600560205286200154610c6b565b610df1565b5080f35b8280fd5b8284346102785780600319360112610278579080519182906006549182855260208095018093600684527ff652222313e28459528d920b65115c16c04f3efc82aaedc97be59f3f377c0d3f90845b8181106102645750505081610220910382610bb9565b83519485948186019282875251809352850193925b82811061024457505050500390f35b83516001600160a01b031685528695509381019392810192600101610235565b82548452928801926001928301920161020a565b80fd5b5050346101745780600319360112610174576020906102a561029b610b3f565b6024359033610e68565b5160018152f35b50503461017457816003193601126101745751908152602090f35b919050346101b857806003193601126101b8576102e2610b3f565b906024358015159384820361039757858052600560205282862033875260205260ff83872054161561037a5750916020917fff571df7d74779bb3bc4c418144ed2539441681cec39b558e6639f5faefc0695936000146103625761034e6001600160a01b0383166110c6565b505b519384526001600160a01b031692a280f35b6103746001600160a01b038316610fca565b50610350565b6044908684519163e2517d3f60e01b835233908301526024820152fd5b8580fd5b83833461017457816003193601126101745780519180938054916001908360011c9260018516948515610496575b60209586861081146104835785895290811561045f5750600114610407575b61040387876103f9828c0383610bb9565b5191829182610b70565b0390f35b81529295507f8a35acfbc15ff81a39ae7d344fd709f28e8600b4aa8c65c6b64bfe7fe36bd19b5b82841061044c5750505082610403946103f9928201019486806103e8565b805486850188015292860192810161042e565b60ff19168887015250505050151560051b83010192506103f98261040386806103e8565b634e487b7160e01b845260228352602484fd5b93607f16936103c9565b9050346101b857816003193601126101b8578160209360ff926104c1610b5a565b90358252600586528282206001600160a01b039091168252855220549151911615158152f35b5050346101745760203660031901126101745760209181906001600160a01b0361050f610b3f565b16815280845220549051908152f35b5050346101745781600319360112610174576020906006549051908152f35b505034610174578160031936011261017457602090517fbc4aa291e35c786eceb374be398429586e466107044903c4dff7a8687a5300708152f35b8390346101745760203660031901126101745761059e90610597610bf1565b3533610c91565b80f35b919050346101b857806003193601126101b8576105bc610b3f565b90602435916105c9610bf1565b6001600160a01b03166000818152600760205260409020549093901561068d57831561067857838552600760205281852054156106635760025490838201809211610650575084927fddf252ad1be2c89b69c2b068fc378daa952ba7f163c4a11628f55a4df523b3ef9260209260025585855284835280852082815401905551908152a380f35b634e487b7160e01b865260119052602485fd5b836024925191636f7a527560e01b8352820152fd5b84602492519163ec442f0560e01b8352820152fd5b8360249251916357b980d760e11b8352820152fd5b8383346101745780600319360112610174576106bc610b5a565b90336001600160a01b038316036106d957506101b4919235610df1565b5163334bd91960e11b81528390fd5b5050346101745781600319360112610174576020905160128152f35b919050346101b857806003193601126101b8576101b49135610729600161019d610b5a565b610d71565b9050346101b85760203660031901126101b85781602093600192358152600585522001549051908152f35b9050823461027857606036600319011261027857610775610b3f565b61077d610b5a565b9160443593610799336000526007602052604060002054151590565b15610869576001600160a01b03831680835260016020818152888520338652905287842054929083016107d5575b6020886102a5898989610e68565b86831061083d57811561082657331561080f575082526001602090815286832033845281529186902090859003905582906102a5876107c7565b8751634a1406b160e11b8152908101849052602490fd5b875163e602df0560e01b8152908101849052602490fd5b8751637dc7a0d960e11b8152339181019182526020820193909352604081018790528291506060010390fd5b602490865190636f7a527560e01b82523390820152fd5b9050346101b857816003193601126101b85761089a610b3f565b916108a3610bf1565b6001600160a01b038316600081815260076020526040902054909190156108d1578461059e60243586610c91565b516357b980d760e11b81529182015260249150fd5b5050346101745781600319360112610174576020906002549051908152f35b9050346101b857816003193601126101b85761091f610b3f565b602435903315610998576001600160a01b031691821561098157508083602095338152600187528181208582528752205582519081527f8c5be1e5ebec7d5bd14f71427d1e84f3dd0314c0f7b2291e5b200ac8c7c3b925843392a35160018152f35b8351634a1406b160e11b8152908101859052602490fd5b835163e602df0560e01b8152808401869052602490fd5b919050346101b857826003193601126101b85780519183600354906001908260011c92600181168015610a9c575b6020958686108214610a895750848852908115610a675750600114610a0e575b61040386866103f9828b0383610bb9565b929550600383527fc2575a0e9e593c00f959f8c92f12db2869c3395a3b0502d05e2516446f71f85b5b828410610a545750505082610403946103f99282010194386109fd565b8054868501880152928601928101610a37565b60ff191687860152505050151560051b83010192506103f982610403386109fd565b634e487b7160e01b845260229052602483fd5b93607f16936109dd565b50503461017457602036600319011261017457602090610ae36001600160a01b03610acf610b3f565b166000526007602052604060002054151590565b90519015158152f35b8491346101b85760203660031901126101b8573563ffffffff60e01b81168091036101b85760209250637965db0b60e01b8114908115610b2e575b5015158152f35b6301ffc9a760e01b14905083610b27565b600435906001600160a01b0382168203610b5557565b600080fd5b602435906001600160a01b0382168203610b5557565b6020808252825181830181905290939260005b828110610ba557505060409293506000838284010152601f8019910116010190565b818101860151848201604001528501610b83565b90601f8019910116810190811067ffffffffffffffff821117610bdb57604052565b634e487b7160e01b600052604160045260246000fd5b3360009081527f42796b91cee42e5c122d5ca479b1cf2470b5c7f25cdd85ebc0ce8426a4abaf2a60205260409020547fbc4aa291e35c786eceb374be398429586e466107044903c4dff7a8687a5300709060ff1615610c4d5750565b6044906040519063e2517d3f60e01b82523360048301526024820152fd5b80600052600560205260406000203360005260205260ff6040600020541615610c4d5750565b906001600160a01b038216908115610d585760009282845260076020526040908185205415610d4057838552846020528185205490838210610d0f575091602091817fddf252ad1be2c89b69c2b068fc378daa952ba7f163c4a11628f55a4df523b3ef948688528785520381872055816002540360025551908152a3565b825163391434e360e21b81526001600160a01b03919091166004820152602481019190915260448101839052606490fd5b8151636f7a527560e01b815260048101859052602490fd5b604051634b637e8f60e11b815260006004820152602490fd5b906000918083526005602052604083209160018060a01b03169182845260205260ff60408420541615600014610dec5780835260056020526040832082845260205260408320600160ff198254161790557f2f8788117e7eff1d82e926ec794901d17c78024a50270940304540a733656f0d339380a4600190565b505090565b906000918083526005602052604083209160018060a01b03169182845260205260ff604084205416600014610dec578083526005602052604083208284526020526040832060ff1981541690557ff6391f5c32d9c69d2a47ea670b442974b53935d1edc7fd64eb21e047a839171b339380a4600190565b916001600160a01b03808416928315610d585716928315610f6457600083815260076020526040918282205415610f4c5785825260076020528282205415610f3457848252816020528282205490848210610f03575091808285602095887fddf252ad1be2c89b69c2b068fc378daa952ba7f163c4a11628f55a4df523b3ef98965282875203828220558781522082815401905551908152a3565b835163391434e360e21b81526001600160a01b03919091166004820152602481019190915260448101849052606490fd5b8251636f7a527560e01b815260048101879052602490fd5b8251636f7a527560e01b815260048101869052602490fd5b60405163ec442f0560e01b815260006004820152602490fd5b600654811015610fb45760066000527ff652222313e28459528d920b65115c16c04f3efc82aaedc97be59f3f377c0d3f0190600090565b634e487b7160e01b600052603260045260246000fd5b6000818152600760205260408120549091908015610dec57600019908082018181116110b2576006549083820191821161109e57818103611053575b505050600654801561103f5781019061101e82610f7d565b909182549160031b1b19169055600655815260076020526040812055600190565b634e487b7160e01b84526031600452602484fd5b61108861106261107193610f7d565b90549060031b1c928392610f7d565b819391549060031b91821b91600019901b19161790565b9055845260076020526040842055388080611006565b634e487b7160e01b86526011600452602486fd5b634e487b7160e01b85526011600452602485fd5b60008181526007602052604081205461112c576006546801000000000000000081101561111857908261110461107184600160409601600655610f7d565b905560065492815260076020522055600190565b634e487b7160e01b82526041600452602482fd5b90509056fea26469706673582212204a6ba4f1999afde2663fa88b29c044a16d34726b8f58895440271e670381bd9064736f6c63430008180033",
  "devdoc": {
    "details": "Transfer-restricted ERC20 that only allows allowlisted addresses to send/receive tokens. Used for unified accounting of AMO debt across collateral and stable AMO operations. Token name is \"dTRINITY AMO Receipt\" with symbol \"amo-dUSD\" or chain-specific variant.",
    "errors": {
      "AccessControlBadConfirmation()": [
        {
          "details": "The caller of a function is not the expected one. NOTE: Don't confuse with {AccessControlUnauthorizedAccount}."
        }
      ],
      "AccessControlUnauthorizedAccount(address,bytes32)": [
        {
          "details": "The `account` is missing a role."
        }
      ],
      "ERC20InsufficientAllowance(address,uint256,uint256)": [
        {
          "details": "Indicates a failure with the `spender`’s `allowance`. Used in transfers.",
          "params": {
            "allowance": "Amount of tokens a `spender` is allowed to operate with.",
            "needed": "Minimum amount required to perform a transfer.",
            "spender": "Address that may be allowed to operate on tokens without being their owner."
          }
        }
      ],
      "ERC20InsufficientBalance(address,uint256,uint256)": [
        {
          "details": "Indicates an error related to the current `balance` of a `sender`. Used in transfers.",
          "params": {
            "balance": "Current balance for the interacting account.",
            "needed": "Minimum amount required to perform a transfer.",
            "sender": "Address whose tokens are being transferred."
          }
        }
      ],
      "ERC20InvalidApprover(address)": [
        {
          "details": "Indicates a failure with the `approver` of a token to be approved. Used in approvals.",
          "params": {
            "approver": "Address initiating an approval operation."
          }
        }
      ],
      "ERC20InvalidReceiver(address)": [
        {
          "details": "Indicates a failure with the token `receiver`. Used in transfers.",
          "params": {
            "receiver": "Address to which tokens are being transferred."
          }
        }
      ],
      "ERC20InvalidSender(address)": [
        {
          "details": "Indicates a failure with the token `sender`. Used in transfers.",
          "params": {
            "sender": "Address whose tokens are being transferred."
          }
        }
      ],
      "ERC20InvalidSpender(address)": [
        {
          "details": "Indicates a failure with the `spender` to be approved. Used in approvals.",
          "params": {
            "spender": "Address that may be allowed to operate on tokens without being their owner."
          }
        }
      ]
    },
    "events": {
      "Approval(address,address,uint256)": {
        "details": "Emitted when the allowance of a `spender` for an `owner` is set by a call to {approve}. `value` is the new allowance."
      },
      "RoleAdminChanged(bytes32,bytes32,bytes32)": {
        "details": "Emitted when `newAdminRole` is set as ``role``'s admin role, replacing `previousAdminRole` `DEFAULT_ADMIN_ROLE` is the starting admin for all roles, despite {RoleAdminChanged} not being emitted signaling this."
      },
      "RoleGranted(bytes32,address,address)": {
        "details": "Emitted when `account` is granted `role`. `sender` is the account that originated the contract call, an admin role bearer except when using {AccessControl-_setupRole}."
      },
      "RoleRevoked(bytes32,address,address)": {
        "details": "Emitted when `account` is revoked `role`. `sender` is the account that originated the contract call:   - if using `revokeRole`, it is the admin role bearer   - if using `renounceRole`, it is the role bearer (i.e. `account`)"
      },
      "Transfer(address,address,uint256)": {
        "details": "Emitted when `value` tokens are moved from one account (`from`) to another (`to`). Note that `value` may be zero."
      }
    },
    "kind": "dev",
    "methods": {
      "allowance(address,address)": {
        "details": "See {IERC20-allowance}."
      },
      "approve(address,uint256)": {
        "details": "See {IERC20-approve}. NOTE: If `value` is the maximum `uint256`, the allowance is not updated on `transferFrom`. This is semantically equivalent to an infinite approval. Requirements: - `spender` cannot be the zero address."
      },
      "balanceOf(address)": {
        "details": "See {IERC20-balanceOf}."
      },
      "burn(uint256)": {
        "details": "Only callable by AMO_MANAGER_ROLE. Intended for manager after withdrawing debt tokens",
        "params": {
          "amount": "The amount of tokens to burn"
        }
      },
      "burnFromVault(address,uint256)": {
        "details": "Only callable by AMO_MANAGER_ROLE and vault must be allowlisted",
        "params": {
          "amount": "The amount of tokens to burn",
          "vault": "The vault address to burn tokens from"
        }
      },
      "constructor": {
        "details": "Grants DEFAULT_ADMIN_ROLE to the deployer",
        "params": {
          "name": "The token name (e.g., \"dTRINITY AMO Receipt\")",
          "symbol": "The token symbol (e.g., \"amo-dUSD\")"
        }
      },
      "decimals()": {
        "returns": {
          "_0": "The number of decimals (18)"
        }
      },
      "getAllowlist()": {
        "returns": {
          "_0": "Array of allowlisted addresses"
        }
      },
      "getAllowlistLength()": {
        "returns": {
          "_0": "The count of allowlisted addresses"
        }
      },
      "getRoleAdmin(bytes32)": {
        "details": "Returns the admin role that controls `role`. See {grantRole} and {revokeRole}. To change a role's admin, use {_setRoleAdmin}."
      },
      "grantRole(bytes32,address)": {
        "details": "Grants `role` to `account`. If `account` had not been already granted `role`, emits a {RoleGranted} event. Requirements: - the caller must have ``role``'s admin role. May emit a {RoleGranted} event."
      },
      "hasRole(bytes32,address)": {
        "details": "Returns `true` if `account` has been granted `role`."
      },
      "isAllowlisted(address)": {
        "params": {
          "account": "The address to check"
        },
        "returns": {
          "_0": "Whether the address is allowlisted"
        }
      },
      "mintToVault(address,uint256)": {
        "details": "Only callable by AMO_MANAGER_ROLE and vault must be allowlisted",
        "params": {
          "amount": "The amount of tokens to mint",
          "vault": "The vault address to mint tokens to"
        }
      },
      "name()": {
        "details": "Returns the name of the token."
      },
      "renounceRole(bytes32,address)": {
        "details": "Revokes `role` from the calling account. Roles are often managed via {grantRole} and {revokeRole}: this function's purpose is to provide a mechanism for accounts to lose their privileges if they are compromised (such as when a trusted device is misplaced). If the calling account had been revoked `role`, emits a {RoleRevoked} event. Requirements: - the caller must be `callerConfirmation`. May emit a {RoleRevoked} event."
      },
      "revokeRole(bytes32,address)": {
        "details": "Revokes `role` from `account`. If `account` had been granted `role`, emits a {RoleRevoked} event. Requirements: - the caller must have ``role``'s admin role. May emit a {RoleRevoked} event."
      },
      "setAllowlisted(address,bool)": {
        "details": "Only callable by DEFAULT_ADMIN_ROLE",
        "params": {
          "account": "The address to set allowlist status for",
          "allowed": "Whether the address should be allowlisted"
        }
      },
      "supportsInterface(bytes4)": {
        "details": "See {IERC165-supportsInterface}."
      },
      "symbol()": {
        "details": "Returns the symbol of the token, usually a shorter version of the name."
      },
      "totalSupply()": {
        "details": "See {IERC20-totalSupply}."
      },
      "transfer(address,uint256)": {
        "details": "See {IERC20-transfer}. Requirements: - `to` cannot be the zero address. - the caller must have a balance of at least `value`."
      },
      "transferFrom(address,address,uint256)": {
        "details": "Reverts if msg.sender is not allowlisted",
        "params": {
          "from": "The address to transfer tokens from",
          "to": "The address to transfer tokens to",
          "value": "The amount of tokens to transfer"
        },
        "returns": {
          "_0": "Success boolean"
        }
      }
    },
    "title": "AmoDebtToken",
    "version": 1
  },
  "userdoc": {
    "kind": "user",
    "methods": {
      "burn(uint256)": {
        "notice": "Burns debt tokens held by the caller"
      },
      "burnFromVault(address,uint256)": {
        "notice": "Burns debt tokens from an allowlisted vault"
      },
      "constructor": {
        "notice": "Initializes the AmoDebtToken with name and symbol"
      },
      "decimals()": {
        "notice": "Returns 18 decimals for unified debt accounting"
      },
      "getAllowlist()": {
        "notice": "Returns all allowlisted addresses"
      },
      "getAllowlistLength()": {
        "notice": "Returns the number of allowlisted addresses"
      },
      "isAllowlisted(address)": {
        "notice": "Checks if an address is allowlisted"
      },
      "mintToVault(address,uint256)": {
        "notice": "Mints debt tokens to an allowlisted vault"
      },
      "setAllowlisted(address,bool)": {
        "notice": "Sets the allowlist status for an address"
      },
      "transferFrom(address,address,uint256)": {
        "notice": "Override transferFrom to also check msg.sender allowlist"
      }
    },
    "notice": "ERC20 receipt token for AMO operations with transfer restrictions via allowlist",
    "version": 1
  },
  "storageLayout": {
    "storage": [
      {
        "astId": 538,
        "contract": "contracts/dusd/AmoDebtToken.sol:AmoDebtToken",
        "label": "_balances",
        "offset": 0,
        "slot": "0",
        "type": "t_mapping(t_address,t_uint256)"
      },
      {
        "astId": 544,
        "contract": "contracts/dusd/AmoDebtToken.sol:AmoDebtToken",
        "label": "_allowances",
        "offset": 0,
        "slot": "1",
        "type": "t_mapping(t_address,t_mapping(t_address,t_uint256))"
      },
      {
        "astId": 546,
        "contract": "contracts/dusd/AmoDebtToken.sol:AmoDebtToken",
        "label": "_totalSupply",
        "offset": 0,
        "slot": "2",
        "type": "t_uint256"
      },
      {
        "astId": 548,
        "contract": "contracts/dusd/AmoDebtToken.sol:AmoDebtToken",
        "label": "_name",
        "offset": 0,
        "slot": "3",
        "type": "t_string_storage"
      },
      {
        "astId": 550,
        "contract": "contracts/dusd/AmoDebtToken.sol:AmoDebtToken",
        "label": "_symbol",
        "offset": 0,
        "slot": "4",
        "type": "t_string_storage"
      },
      {
        "astId": 26,
        "contract": "contracts/dusd/AmoDebtToken.sol:AmoDebtToken",
        "label": "_roles",
        "offset": 0,
        "slot": "5",
        "type": "t_mapping(t_bytes32,t_struct(RoleData)21_storage)"
      },
      {
        "astId": 3695,
        "contract": "contracts/dusd/AmoDebtToken.sol:AmoDebtToken",
        "label": "_allowlist",
        "offset": 0,
        "slot": "6",
        "type": "t_struct(AddressSet)3345_storage"
      }
    ],
    "types": {
      "t_address": {
        "encoding": "inplace",
        "label": "address",
        "numberOfBytes": "20"
      },
      "t_array(t_bytes32)dyn_storage": {
        "base": "t_bytes32",
        "encoding": "dynamic_array",
        "label": "bytes32[]",
        "numberOfBytes": "32"
      },
      "t_bool": {
        "encoding": "inplace",
        "label": "bool",
        "numberOfBytes": "1"
      },
      "t_bytes32": {
        "encoding": "inplace",
        "label": "bytes32",
        "numberOfBytes": "32"
      },
      "t_mapping(t_address,t_bool)": {
        "encoding": "mapping",
        "key": "t_address",
        "label": "mapping(address => bool)",
        "numberOfBytes": "32",
        "value": "t_bool"
      },
      "t_mapping(t_address,t_mapping(t_address,t_uint256))": {
        "encoding": "mapping",
        "key": "t_address",
        "label": "mapping(address => mapping(address => uint256))",
        "numberOfBytes": "32",
        "value": "t_mapping(t_address,t_uint256)"
      },
      "t_mapping(t_address,t_uint256)": {
        "encoding": "mapping",
        "key": "t_address",
        "label": "mapping(address => uint256)",
        "numberOfBytes": "32",
        "value": "t_uint256"
      },
      "t_mapping(t_bytes32,t_struct(RoleData)21_storage)": {
        "encoding": "mapping",
        "key": "t_bytes32",
        "label": "mapping(bytes32 => struct AccessControl.RoleData)",
        "numberOfBytes": "32",
        "value": "t_struct(RoleData)21_storage"
      },
      "t_mapping(t_bytes32,t_uint256)": {
        "encoding": "mapping",
        "key": "t_bytes32",
        "label": "mapping(bytes32 => uint256)",
        "numberOfBytes": "32",
        "value": "t_uint256"
      },
      "t_string_storage": {
        "encoding": "bytes",
        "label": "string",
        "numberOfBytes": "32"
      },
      "t_struct(AddressSet)3345_storage": {
        "encoding": "inplace",
        "label": "struct EnumerableSet.AddressSet",
        "members": [
          {
            "astId": 3344,
            "contract": "contracts/dusd/AmoDebtToken.sol:AmoDebtToken",
            "label": "_inner",
            "offset": 0,
            "slot": "0",
            "type": "t_struct(Set)3030_storage"
          }
        ],
        "numberOfBytes": "64"
      },
      "t_struct(RoleData)21_storage": {
        "encoding": "inplace",
        "label": "struct AccessControl.RoleData",
        "members": [
          {
            "astId": 18,
            "contract": "contracts/dusd/AmoDebtToken.sol:AmoDebtToken",
            "label": "hasRole",
            "offset": 0,
            "slot": "0",
            "type": "t_mapping(t_address,t_bool)"
          },
          {
            "astId": 20,
            "contract": "contracts/dusd/AmoDebtToken.sol:AmoDebtToken",
            "label": "adminRole",
            "offset": 0,
            "slot": "1",
            "type": "t_bytes32"
          }
        ],
        "numberOfBytes": "64"
      },
      "t_struct(Set)3030_storage": {
        "encoding": "inplace",
        "label": "struct EnumerableSet.Set",
        "members": [
          {
            "astId": 3025,
            "contract": "contracts/dusd/AmoDebtToken.sol:AmoDebtToken",
            "label": "_values",
            "offset": 0,
            "slot": "0",
            "type": "t_array(t_bytes32)dyn_storage"
          },
          {
            "astId": 3029,
            "contract": "contracts/dusd/AmoDebtToken.sol:AmoDebtToken",
            "label": "_positions",
            "offset": 0,
            "slot": "1",
            "type": "t_mapping(t_bytes32,t_uint256)"
          }
        ],
        "numberOfBytes": "64"
      },
      "t_uint256": {
        "encoding": "inplace",
        "label": "uint256",
        "numberOfBytes": "32"
      }
    }
  }
}