{
  "address": "0x57bBd5026503Bb54CC50A4129c4896cBa40BEBaE",
  "abi": [
    {
      "inputs": [
        {
          "internalType": "contract IPriceOracleGetter",
          "name": "_oracle",
          "type": "address"
        },
        {
          "internalType": "contract AmoDebtToken",
          "name": "_debtToken",
          "type": "address"
        },
        {
          "internalType": "contract IERC20Stablecoin",
          "name": "_dusd",
          "type": "address"
        },
        {
          "internalType": "address",
          "name": "_collateralVault",
          "type": "address"
        }
      ],
      "stateMutability": "nonpayable",
      "type": "constructor"
    },
    {
      "inputs": [],
      "name": "AccessControlBadConfirmation",
      "type": "error"
    },
    {
      "inputs": [
        {
          "internalType": "address",
          "name": "account",
          "type": "address"
        },
        {
          "internalType": "bytes32",
          "name": "neededRole",
          "type": "bytes32"
        }
      ],
      "name": "AccessControlUnauthorizedAccount",
      "type": "error"
    },
    {
      "inputs": [
        {
          "internalType": "address",
          "name": "target",
          "type": "address"
        }
      ],
      "name": "AddressEmptyCode",
      "type": "error"
    },
    {
      "inputs": [
        {
          "internalType": "address",
          "name": "account",
          "type": "address"
        }
      ],
      "name": "AddressInsufficientBalance",
      "type": "error"
    },
    {
      "inputs": [],
      "name": "DebtTokenProhibited",
      "type": "error"
    },
    {
      "inputs": [],
      "name": "FailedInnerCall",
      "type": "error"
    },
    {
      "inputs": [
        {
          "internalType": "uint256",
          "name": "baseCurrencyUnit",
          "type": "uint256"
        }
      ],
      "name": "IncorrectBaseCurrencyUnit",
      "type": "error"
    },
    {
      "inputs": [
        {
          "internalType": "uint256",
          "name": "expected",
          "type": "uint256"
        },
        {
          "internalType": "uint256",
          "name": "actual",
          "type": "uint256"
        }
      ],
      "name": "InvariantViolation",
      "type": "error"
    },
    {
      "inputs": [],
      "name": "MathOverflowedMulDiv",
      "type": "error"
    },
    {
      "inputs": [
        {
          "internalType": "address",
          "name": "asset",
          "type": "address"
        },
        {
          "internalType": "uint256",
          "name": "price",
          "type": "uint256"
        },
        {
          "internalType": "uint256",
          "name": "baseUnit",
          "type": "uint256"
        },
        {
          "internalType": "uint256",
          "name": "maxDeviationBps",
          "type": "uint256"
        }
      ],
      "name": "PegDeviationExceeded",
      "type": "error"
    },
    {
      "inputs": [
        {
          "internalType": "uint256",
          "name": "requested",
          "type": "uint256"
        },
        {
          "internalType": "uint256",
          "name": "maxAllowed",
          "type": "uint256"
        }
      ],
      "name": "PegDeviationOutOfRange",
      "type": "error"
    },
    {
      "inputs": [],
      "name": "PermitFailed",
      "type": "error"
    },
    {
      "inputs": [],
      "name": "ReentrancyGuardReentrantCall",
      "type": "error"
    },
    {
      "inputs": [
        {
          "internalType": "address",
          "name": "token",
          "type": "address"
        }
      ],
      "name": "SafeERC20FailedOperation",
      "type": "error"
    },
    {
      "inputs": [
        {
          "internalType": "uint256",
          "name": "actualDebtBurned",
          "type": "uint256"
        },
        {
          "internalType": "uint256",
          "name": "maxDebtBurned",
          "type": "uint256"
        }
      ],
      "name": "SlippageDebtBurnTooHigh",
      "type": "error"
    },
    {
      "inputs": [
        {
          "internalType": "uint256",
          "name": "actualDebtMinted",
          "type": "uint256"
        },
        {
          "internalType": "uint256",
          "name": "minDebtMinted",
          "type": "uint256"
        }
      ],
      "name": "SlippageDebtMintTooLow",
      "type": "error"
    },
    {
      "inputs": [
        {
          "internalType": "address",
          "name": "wallet",
          "type": "address"
        }
      ],
      "name": "UnsupportedAmoWallet",
      "type": "error"
    },
    {
      "inputs": [
        {
          "internalType": "address",
          "name": "asset",
          "type": "address"
        }
      ],
      "name": "UnsupportedCollateral",
      "type": "error"
    },
    {
      "inputs": [
        {
          "internalType": "address",
          "name": "vault",
          "type": "address"
        }
      ],
      "name": "UnsupportedVault",
      "type": "error"
    },
    {
      "anonymous": false,
      "inputs": [
        {
          "indexed": true,
          "internalType": "address",
          "name": "wallet",
          "type": "address"
        },
        {
          "indexed": false,
          "internalType": "bool",
          "name": "allowed",
          "type": "bool"
        }
      ],
      "name": "AmoWalletAllowedSet",
      "type": "event"
    },
    {
      "anonymous": false,
      "inputs": [
        {
          "indexed": true,
          "internalType": "address",
          "name": "vault",
          "type": "address"
        },
        {
          "indexed": true,
          "internalType": "address",
          "name": "wallet",
          "type": "address"
        },
        {
          "indexed": true,
          "internalType": "address",
          "name": "asset",
          "type": "address"
        },
        {
          "indexed": false,
          "internalType": "uint256",
          "name": "collateralAmount",
          "type": "uint256"
        },
        {
          "indexed": false,
          "internalType": "uint256",
          "name": "debtMinted",
          "type": "uint256"
        }
      ],
      "name": "Borrowed",
      "type": "event"
    },
    {
      "anonymous": false,
      "inputs": [
        {
          "indexed": true,
          "internalType": "address",
          "name": "oldVault",
          "type": "address"
        },
        {
          "indexed": true,
          "internalType": "address",
          "name": "newVault",
          "type": "address"
        }
      ],
      "name": "CollateralVaultSet",
      "type": "event"
    },
    {
      "anonymous": false,
      "inputs": [
        {
          "indexed": true,
          "internalType": "address",
          "name": "newOracle",
          "type": "address"
        }
      ],
      "name": "OracleSet",
      "type": "event"
    },
    {
      "anonymous": false,
      "inputs": [
        {
          "indexed": false,
          "internalType": "uint256",
          "name": "oldDeviationBps",
          "type": "uint256"
        },
        {
          "indexed": false,
          "internalType": "uint256",
          "name": "newDeviationBps",
          "type": "uint256"
        }
      ],
      "name": "PegDeviationBpsSet",
      "type": "event"
    },
    {
      "anonymous": false,
      "inputs": [
        {
          "indexed": true,
          "internalType": "address",
          "name": "vault",
          "type": "address"
        },
        {
          "indexed": true,
          "internalType": "address",
          "name": "wallet",
          "type": "address"
        },
        {
          "indexed": true,
          "internalType": "address",
          "name": "asset",
          "type": "address"
        },
        {
          "indexed": false,
          "internalType": "uint256",
          "name": "collateralAmount",
          "type": "uint256"
        },
        {
          "indexed": false,
          "internalType": "uint256",
          "name": "debtBurned",
          "type": "uint256"
        }
      ],
      "name": "Repaid",
      "type": "event"
    },
    {
      "anonymous": false,
      "inputs": [
        {
          "indexed": true,
          "internalType": "bytes32",
          "name": "role",
          "type": "bytes32"
        },
        {
          "indexed": true,
          "internalType": "bytes32",
          "name": "previousAdminRole",
          "type": "bytes32"
        },
        {
          "indexed": true,
          "internalType": "bytes32",
          "name": "newAdminRole",
          "type": "bytes32"
        }
      ],
      "name": "RoleAdminChanged",
      "type": "event"
    },
    {
      "anonymous": false,
      "inputs": [
        {
          "indexed": true,
          "internalType": "bytes32",
          "name": "role",
          "type": "bytes32"
        },
        {
          "indexed": true,
          "internalType": "address",
          "name": "account",
          "type": "address"
        },
        {
          "indexed": true,
          "internalType": "address",
          "name": "sender",
          "type": "address"
        }
      ],
      "name": "RoleGranted",
      "type": "event"
    },
    {
      "anonymous": false,
      "inputs": [
        {
          "indexed": true,
          "internalType": "bytes32",
          "name": "role",
          "type": "bytes32"
        },
        {
          "indexed": true,
          "internalType": "address",
          "name": "account",
          "type": "address"
        },
        {
          "indexed": true,
          "internalType": "address",
          "name": "sender",
          "type": "address"
        }
      ],
      "name": "RoleRevoked",
      "type": "event"
    },
    {
      "anonymous": false,
      "inputs": [
        {
          "indexed": false,
          "internalType": "uint256",
          "name": "oldTolerance",
          "type": "uint256"
        },
        {
          "indexed": false,
          "internalType": "uint256",
          "name": "newTolerance",
          "type": "uint256"
        }
      ],
      "name": "ToleranceSet",
      "type": "event"
    },
    {
      "inputs": [],
      "name": "AMO_DECREASE_ROLE",
      "outputs": [
        {
          "internalType": "bytes32",
          "name": "",
          "type": "bytes32"
        }
      ],
      "stateMutability": "view",
      "type": "function"
    },
    {
      "inputs": [],
      "name": "AMO_INCREASE_ROLE",
      "outputs": [
        {
          "internalType": "bytes32",
          "name": "",
          "type": "bytes32"
        }
      ],
      "stateMutability": "view",
      "type": "function"
    },
    {
      "inputs": [],
      "name": "DEFAULT_ADMIN_ROLE",
      "outputs": [
        {
          "internalType": "bytes32",
          "name": "",
          "type": "bytes32"
        }
      ],
      "stateMutability": "view",
      "type": "function"
    },
    {
      "inputs": [],
      "name": "baseCurrencyUnit",
      "outputs": [
        {
          "internalType": "uint256",
          "name": "",
          "type": "uint256"
        }
      ],
      "stateMutability": "view",
      "type": "function"
    },
    {
      "inputs": [
        {
          "internalType": "uint256",
          "name": "baseValue",
          "type": "uint256"
        }
      ],
      "name": "baseToDebtUnits",
      "outputs": [
        {
          "internalType": "uint256",
          "name": "",
          "type": "uint256"
        }
      ],
      "stateMutability": "view",
      "type": "function"
    },
    {
      "inputs": [
        {
          "internalType": "address",
          "name": "wallet",
          "type": "address"
        },
        {
          "internalType": "address",
          "name": "asset",
          "type": "address"
        },
        {
          "internalType": "uint256",
          "name": "amount",
          "type": "uint256"
        },
        {
          "internalType": "uint256",
          "name": "minDebtMinted",
          "type": "uint256"
        }
      ],
      "name": "borrowTo",
      "outputs": [],
      "stateMutability": "nonpayable",
      "type": "function"
    },
    {
      "inputs": [],
      "name": "collateralVault",
      "outputs": [
        {
          "internalType": "address",
          "name": "",
          "type": "address"
        }
      ],
      "stateMutability": "view",
      "type": "function"
    },
    {
      "inputs": [],
      "name": "debtToken",
      "outputs": [
        {
          "internalType": "contract AmoDebtToken",
          "name": "",
          "type": "address"
        }
      ],
      "stateMutability": "view",
      "type": "function"
    },
    {
      "inputs": [
        {
          "internalType": "uint256",
          "name": "amount",
          "type": "uint256"
        },
        {
          "internalType": "address",
          "name": "wallet",
          "type": "address"
        }
      ],
      "name": "decreaseAmoSupply",
      "outputs": [],
      "stateMutability": "nonpayable",
      "type": "function"
    },
    {
      "inputs": [],
      "name": "dusd",
      "outputs": [
        {
          "internalType": "contract IERC20Stablecoin",
          "name": "",
          "type": "address"
        }
      ],
      "stateMutability": "view",
      "type": "function"
    },
    {
      "inputs": [
        {
          "internalType": "uint256",
          "name": "dusdAmount",
          "type": "uint256"
        }
      ],
      "name": "dusdAmountToBaseValue",
      "outputs": [
        {
          "internalType": "uint256",
          "name": "",
          "type": "uint256"
        }
      ],
      "stateMutability": "view",
      "type": "function"
    },
    {
      "inputs": [],
      "name": "getAllowedAmoWallets",
      "outputs": [
        {
          "internalType": "address[]",
          "name": "",
          "type": "address[]"
        }
      ],
      "stateMutability": "view",
      "type": "function"
    },
    {
      "inputs": [],
      "name": "getAllowedAmoWalletsLength",
      "outputs": [
        {
          "internalType": "uint256",
          "name": "",
          "type": "uint256"
        }
      ],
      "stateMutability": "view",
      "type": "function"
    },
    {
      "inputs": [
        {
          "internalType": "bytes32",
          "name": "role",
          "type": "bytes32"
        }
      ],
      "name": "getRoleAdmin",
      "outputs": [
        {
          "internalType": "bytes32",
          "name": "",
          "type": "bytes32"
        }
      ],
      "stateMutability": "view",
      "type": "function"
    },
    {
      "inputs": [
        {
          "internalType": "bytes32",
          "name": "role",
          "type": "bytes32"
        },
        {
          "internalType": "address",
          "name": "account",
          "type": "address"
        }
      ],
      "name": "grantRole",
      "outputs": [],
      "stateMutability": "nonpayable",
      "type": "function"
    },
    {
      "inputs": [
        {
          "internalType": "bytes32",
          "name": "role",
          "type": "bytes32"
        },
        {
          "internalType": "address",
          "name": "account",
          "type": "address"
        }
      ],
      "name": "hasRole",
      "outputs": [
        {
          "internalType": "bool",
          "name": "",
          "type": "bool"
        }
      ],
      "stateMutability": "view",
      "type": "function"
    },
    {
      "inputs": [
        {
          "internalType": "uint256",
          "name": "amount",
          "type": "uint256"
        },
        {
          "internalType": "address",
          "name": "wallet",
          "type": "address"
        }
      ],
      "name": "increaseAmoSupply",
      "outputs": [],
      "stateMutability": "nonpayable",
      "type": "function"
    },
    {
      "inputs": [
        {
          "internalType": "address",
          "name": "wallet",
          "type": "address"
        }
      ],
      "name": "isAmoWalletAllowed",
      "outputs": [
        {
          "internalType": "bool",
          "name": "",
          "type": "bool"
        }
      ],
      "stateMutability": "view",
      "type": "function"
    },
    {
      "inputs": [],
      "name": "oracle",
      "outputs": [
        {
          "internalType": "contract IPriceOracleGetter",
          "name": "",
          "type": "address"
        }
      ],
      "stateMutability": "view",
      "type": "function"
    },
    {
      "inputs": [],
      "name": "pegDeviationBps",
      "outputs": [
        {
          "internalType": "uint256",
          "name": "",
          "type": "uint256"
        }
      ],
      "stateMutability": "view",
      "type": "function"
    },
    {
      "inputs": [
        {
          "internalType": "bytes32",
          "name": "role",
          "type": "bytes32"
        },
        {
          "internalType": "address",
          "name": "callerConfirmation",
          "type": "address"
        }
      ],
      "name": "renounceRole",
      "outputs": [],
      "stateMutability": "nonpayable",
      "type": "function"
    },
    {
      "inputs": [
        {
          "internalType": "address",
          "name": "wallet",
          "type": "address"
        },
        {
          "internalType": "address",
          "name": "asset",
          "type": "address"
        },
        {
          "internalType": "uint256",
          "name": "amount",
          "type": "uint256"
        },
        {
          "internalType": "uint256",
          "name": "maxDebtBurned",
          "type": "uint256"
        }
      ],
      "name": "repayFrom",
      "outputs": [],
      "stateMutability": "nonpayable",
      "type": "function"
    },
    {
      "inputs": [
        {
          "internalType": "address",
          "name": "wallet",
          "type": "address"
        },
        {
          "internalType": "address",
          "name": "asset",
          "type": "address"
        },
        {
          "internalType": "uint256",
          "name": "amount",
          "type": "uint256"
        },
        {
          "internalType": "uint256",
          "name": "maxDebtBurned",
          "type": "uint256"
        },
        {
          "internalType": "uint256",
          "name": "deadline",
          "type": "uint256"
        },
        {
          "internalType": "uint8",
          "name": "v",
          "type": "uint8"
        },
        {
          "internalType": "bytes32",
          "name": "r",
          "type": "bytes32"
        },
        {
          "internalType": "bytes32",
          "name": "s",
          "type": "bytes32"
        }
      ],
      "name": "repayWithPermit",
      "outputs": [],
      "stateMutability": "nonpayable",
      "type": "function"
    },
    {
      "inputs": [
        {
          "internalType": "bytes32",
          "name": "role",
          "type": "bytes32"
        },
        {
          "internalType": "address",
          "name": "account",
          "type": "address"
        }
      ],
      "name": "revokeRole",
      "outputs": [],
      "stateMutability": "nonpayable",
      "type": "function"
    },
    {
      "inputs": [
        {
          "internalType": "address",
          "name": "wallet",
          "type": "address"
        },
        {
          "internalType": "bool",
          "name": "allowed",
          "type": "bool"
        }
      ],
      "name": "setAmoWalletAllowed",
      "outputs": [],
      "stateMutability": "nonpayable",
      "type": "function"
    },
    {
      "inputs": [
        {
          "internalType": "uint256",
          "name": "_newBaseCurrencyUnit",
          "type": "uint256"
        }
      ],
      "name": "setBaseCurrencyUnit",
      "outputs": [],
      "stateMutability": "nonpayable",
      "type": "function"
    },
    {
      "inputs": [
        {
          "internalType": "address",
          "name": "newVault",
          "type": "address"
        }
      ],
      "name": "setCollateralVault",
      "outputs": [],
      "stateMutability": "nonpayable",
      "type": "function"
    },
    {
      "inputs": [
        {
          "internalType": "contract IPriceOracleGetter",
          "name": "newOracle",
          "type": "address"
        }
      ],
      "name": "setOracle",
      "outputs": [],
      "stateMutability": "nonpayable",
      "type": "function"
    },
    {
      "inputs": [
        {
          "internalType": "uint256",
          "name": "newPegDeviationBps",
          "type": "uint256"
        }
      ],
      "name": "setPegDeviationBps",
      "outputs": [],
      "stateMutability": "nonpayable",
      "type": "function"
    },
    {
      "inputs": [
        {
          "internalType": "uint256",
          "name": "newTolerance",
          "type": "uint256"
        }
      ],
      "name": "setTolerance",
      "outputs": [],
      "stateMutability": "nonpayable",
      "type": "function"
    },
    {
      "inputs": [
        {
          "internalType": "bytes4",
          "name": "interfaceId",
          "type": "bytes4"
        }
      ],
      "name": "supportsInterface",
      "outputs": [
        {
          "internalType": "bool",
          "name": "",
          "type": "bool"
        }
      ],
      "stateMutability": "view",
      "type": "function"
    },
    {
      "inputs": [],
      "name": "tolerance",
      "outputs": [
        {
          "internalType": "uint256",
          "name": "",
          "type": "uint256"
        }
      ],
      "stateMutability": "view",
      "type": "function"
    },
    {
      "inputs": [],
      "name": "totalDebtSupply",
      "outputs": [
        {
          "internalType": "uint256",
          "name": "",
          "type": "uint256"
        }
      ],
      "stateMutability": "view",
      "type": "function"
    }
  ],
  "transactionHash": "0x0b5b550ea523bd5efc923e969019b3a5f90358fe4d92797434a855935b728796",
  "args": [
    "0xFA7560956807d95DCeF22990DdD92e38DbAf5cDd",
    "0x3E17fd53FcB2Dbd409B92f4860326B8b880e3c28",
    "0x788D96f655735f52c676A133f4dFC53cEC614d4A",
    "0x624E12dE7a97B8cFc1AD1F050a1c9263b1f4FeBC"
  ],
  "numDeployments": 1,
  "solcInputHash": "194206a022bc445371dea74dd0606d63",
  "bytecode": "0x60c060409080825234620001b45760808162002ac28038038091620000258285620001cd565b833981010312620001b45780516001600160a01b039182821691829003620001b45760208101518381168103620001b45784820151918483168303620001b45760600151938416809403620001b4578451638c89b64f60e01b8152602081600481875afa908115620001c25760009162000185575b50600180546001600160a01b03199081169095179055600255620000be3362000207565b50600160035560805260a052600160075561271060085581156200016e576004541617600455620000ef3362000207565b50620000fa62000298565b5161262990816200049982396080518181816101e1015281816102370152818161044c01528181610ccc01528181611083015281816113cc015281816117d001528181611d050152612035015260a0518181816102f101528181610d1f0152818161140b01528181611c30015261200d0152f35b506024915190635e10ffb360e01b82526004820152fd5b90506020813d602011620001b9575b81620001a360209383620001cd565b81010312620001b45751386200009a565b600080fd5b3d915062000194565b86513d6000823e3d90fd5b601f909101601f19168101906001600160401b03821190821017620001f157604052565b634e487b7160e01b600052604160045260246000fd5b6001600160a01b031660008181527fad3228b676f7d3cd4284a5443f17f1962b36e491b30a40b2405849e597ba5fb5602052604081205490919060ff166200029457818052816020526040822081835260205260408220600160ff1982541617905533917f2f8788117e7eff1d82e926ec794901d17c78024a50270940304540a733656f0d8180a4600190565b5090565b6008548015620002ca57620002c89060018060a01b03620002be828260a05116620002f1565b60805116620002f1565b565b50565b91908203918211620002db57565b634e487b7160e01b600052601160045260246000fd5b60025460015460405163b3596f0760e01b81526001600160a01b03938416600482018190529493909160209183916024918391165afa908115620003da576000916200039f575b508181106200038d57826200035983620003538185620002cd565b620003e6565b11620003655750505050565b6084945060405193630907397b60e21b85526004850152602484015260448301526064820152fd5b826200035983620003538482620002cd565b906020823d602011620003d1575b81620003bc60209383620001cd565b81010312620003ce5750513862000338565b80fd5b3d9150620003ad565b6040513d6000823e3d90fd5b620f4240918183029160001984820993838086109503948086039514620004735784831115620004615782910981600003821680920460028082600302188083028203028083028203028083028203028083028203028083028203028092029003029360018380600003040190848311900302920304170290565b60405163227bc15360e01b8152600490fd5b50508092501562000482570490565b634e487b7160e01b600052601260045260246000fdfe608060408181526004918236101561001657600080fd5b600092833560e01c91826301ffc9a714611ad6575081630bece79c14611aae5781631489f10b14611a8e5781631921a00414611a115781631b57927a146119f2578163248a9ca3146119c857816329d1ff7b1461174e5781632f2ff15d1461172457816336568abe146116de5781633c5fd982146116895781633f4c555c1461135357816343ce5ecb14610ffa5781634a0bbabb14610fd85781635e570c8014610c6157816364192f2a14610c3a57816368a806c414610bb35781637a96fa9514610b6d5781637adbf97314610a7c5781637dc0d1d014610a5357816391d1485414610a0e5781639f7aee8314610971578163a217fddf14610956578163ac906e751461091b578163beab6e94146108fc578163caf5a3971461083d578163d2c2e7c014610382578163d547741f1461033f578163dce52dfa14610320578163de1409ce146102dc578163f3bddde1146102bd578163f6300bf51461021057508063f8d89898146101cd5763fe1bf3241461019057600080fd5b346101c957816003193601126101c957602090517f855d04232aa491f9e84353b3958a225d6be593571f1d863256669b6e8229525d8152f35b5080fd5b50346101c957816003193601126101c957517f00000000000000000000000000000000000000000000000000000000000000006001600160a01b03168152602090f35b8383346101c957816003193601126101c95780516318160ddd60e01b8152926020908490817f00000000000000000000000000000000000000000000000000000000000000006001600160a01b03165afa9182156102b25791610278575b6020925051908152f35b90506020823d6020116102aa575b8161029360209383611bb8565b810103126102a557602091519061026e565b600080fd5b3d9150610286565b9051903d90823e3d90fd5b5050346101c957816003193601126101c9576020906002549051908152f35b5050346101c957816003193601126101c957517f00000000000000000000000000000000000000000000000000000000000000006001600160a01b03168152602090f35b5050346101c957816003193601126101c9576020906007549051908152f35b9190503461037e578060031936011261037e5761037a91356103756001610364611b29565b938387528660205286200154611fa9565b6121e6565b5080f35b8280fd5b90503461037e5761010036600319011261037e5761039e611b3f565b6103a6611b29565b9260443560643560a43560ff8116809103610839576103c3611ef1565b6103cb611fcf565b6103d683888761228f565b15610790575b506103e5611ef1565b6103ed611fcf565b6001600160a01b0384811660008181526006602052604090205490969015610779578181541697855192637d35e97760e11b8452808216998a848601526020948581602481855afa90811561076f578d91610742575b501561072b57817f00000000000000000000000000000000000000000000000000000000000000001690818c1461071b5761047c611ff2565b8851998d6306a61f7560e51b95868d52888d8981875afa9c8d1561071157829d6106dc575b508b5163e00cb4a560e01b81528881018c81526001600160a01b03909216602083015291908990839081906040010381875afa9081156106d157906106a2575b6104eb9150611cef565b978089116106865750888e9392610502928f61205f565b82855416803b1561037e57895163627160f360e11b815230818801908152602081018a90526001600160a01b03841660408201529091849183919082908490829060600103925af1801561067c57908391610668575b5050803b156101c95781809160248b5180948193630852cd8d60e31b83528c8b8401525af1801561065e57610646575b5050825416968651918252838284818b5afa91821561063c578b9261060d575b50806105b660075484611cd5565b106105f25750508451938452508201527f54d05ce5149ffe32f556bf78597c93c53f8a03ccaef629c485236f3e7c2229bb9190a4600160035580f35b8651638a21b25f60e01b815292830152602482015260449150fd5b9091508381813d8311610635575b6106258183611bb8565b810103126102a5575190386105a8565b503d61061b565b87513d8d823e3d90fd5b61064f90611b8e565b61065a578a38610588565b8a80fd5b89513d84823e3d90fd5b61067190611b8e565b6101c9578138610558565b8a513d85823e3d90fd5b866044918a8d5192633288636560e01b84528301526024820152fd5b508781813d83116106ca575b6106b88183611bb8565b810103126102a5576104eb90516104e1565b503d6106ae565b8c51903d90823e3d90fd5b8980929d9e508193503d831161070a575b6106f78183611bb8565b810103126102a557519a998e90886104a1565b503d6106ed565b8c513d84823e3d90fd5b885163c908adb560e01b81528590fd5b8751632762993f60e11b81528085018c9052602490fd5b6107629150863d8811610768575b61075a8183611bb8565b810190611cbd565b38610443565b503d610750565b89513d8f823e3d90fd5b84516332184be360e21b8152908101879052602490fd5b876001600160a01b0388811690813b1561037e5760e4888480948c978b51988996879563d505accf60e01b875216908501523060248501528a60448501526084356064850152608484015260c43560a4840152833560c48401525af19182610825575b50506108205761080482878661228f565b15610810575b386103dc565b825163b78cb0dd60e01b81528590fd5b61080a565b61082e90611b8e565b6108395787386107f3565b8780fd5b8284346108f957806003193601126108f9579080519182906005549182855260208095018093600584527f036b6384b5eca791c62761152d0c79bb0604c104a5fb6f4eb0703f3154bb3db090845b8181106108e557505050816108a1910382611bb8565b83519485948186019282875251809352850193925b8281106108c557505050500390f35b83516001600160a01b0316855286955093810193928101926001016108b6565b82548452928801926001928301920161088b565b80fd5b5050346101c957816003193601126101c9576020906005549051908152f35b5050346101c957816003193601126101c957602090517f9d6bad8599e4b9d405228287b23a6b0b8ce3cd1a8a88dd6f33fbba48615b4f558152f35b5050346101c957816003193601126101c95751908152602090f35b5050346101c957806003193601126101c95761098b611b3f565b9060243580151592838203610a0a577f4d1bcba22909ed929b2123a5d5c9a270f58fb0db0ecd28fe603d90eaacb42f2d926020926109c7611e99565b156109f2576109de6001600160a01b038316612525565b505b519384526001600160a01b031692a280f35b610a046001600160a01b038316612429565b506109e0565b8480fd5b90503461037e578160031936011261037e5781602093610a2c611b29565b92358152808552209060018060a01b0316600052825260ff81600020541690519015158152f35b5050346101c957816003193601126101c95760015490516001600160a01b039091168152602090f35b90503461037e57602036600319011261037e5780356001600160a01b0381169290839003610b6957610aac611e99565b8051638c89b64f60e01b8152906020828481875afa918215610b5f578592610b2b575b50600254809203610b16575050600180546001600160a01b03191683179055507f3f32684a32a11dabdbb8c0177de80aa3ae36a004d75210335b49e544e48cd0aa8280a280f35b51639b6812b960e01b81529182015260249150fd5b9091506020813d602011610b57575b81610b4760209383611bb8565b810103126102a557519038610acf565b3d9150610b3a565b81513d87823e3d90fd5b8380fd5b5050346101c95760203660031901126101c957602090610baa6001600160a01b03610b96611b3f565b166000526006602052604060002054151590565b90519015158152f35b90503461037e57602036600319011261037e57610bce611b3f565b90610bd7611e99565b6001600160a01b03918216928315610c24575080546001600160a01b031981168417909155167f2c9b4f5a59006f173f084ddbe758822a07431d43f4ef400a955472ddf8f91d0c8380a380f35b51635e10ffb360e01b8152908101839052602490fd5b8284346108f95760203660031901126108f95750610c5a60209235611cef565b9051908152f35b90503461037e578160031936011261037e57803591610c7e611b29565b90610c87611f4d565b610c8f611fcf565b6001600160a01b0382811660008181526006602052604090205415610fc25750610cb7611ff2565b610cc8610cc386611c1a565b611cef565b90807f00000000000000000000000000000000000000000000000000000000000000001695835196886318160ddd60e01b92838a52602097888b8b81875afa968715610fb8578a9b849b999a9b98610f82575b50867f000000000000000000000000000000000000000000000000000000000000000016968b8b51809b898252818b5afa998a15610f7857859a610f45575b508c5416853b15610a0a578a51631fa6592360e11b81526001600160a01b03909116818e01908152602081019290925290849082908190604001038183895af18015610f3b57908491610f27575b5050853b1561037e5788516340c10f1960e01b81526001600160a01b03909116818c01908152602081019290925290829082908190604001038183895af18015610f1d57918a959493918a93610efd575b50508751948580928582525afa928315610ef3579087918a94610ec2575b508887518094819382525afa958615610eb8578896610e84575b5050610e5292610e47610cc393610e4d93611ce2565b95611ce2565b611c1a565b90610e5d828461225b565b610e6a5784600160035580f35b51638a21b25f60e01b815292830152602482015260449150fd5b908093929650813d8311610eb1575b610e9d8183611bb8565b810103126102a55790519382610e47610e31565b503d610e93565b85513d8a823e3d90fd5b8281939295503d8311610eec575b610eda8183611bb8565b810103126102a5578690519238610e17565b503d610ed0565b86513d8b823e3d90fd5b909250610f0b919550611b8e565b610f19578688938a38610df9565b8880fd5b88513d84823e3d90fd5b610f3090611b8e565b61037e578238610da8565b8a513d86823e3d90fd5b8c80929b508196503d8311610f71575b610f5f8183611bb8565b810103126102a5578c93519838610d5a565b503d610f55565b8b513d87823e3d90fd5b9350965096508882813d8311610fb1575b610f9d8183611bb8565b810103126102a55789968b92519638610d1b565b503d610f93565b88513d85823e3d90fd5b846024918451916332184be360e21b8352820152fd5b8390346101c95760203660031901126101c957610ff3611e99565b3560025580f35b90503461037e5761100a36611b55565b61101695929395611f4d565b61101e611fcf565b60018060a01b039384871695611041876000526006602052604060002054151590565b15610779578581541695855192637d35e97760e11b8452818116998a8486015260209485816024818d5afa90811561076f578d91611336575b501561072b57827f00000000000000000000000000000000000000000000000000000000000000001698898c1461071b57908c9392916110b8611ff2565b89519a6306a61f7560e51b95868d52888d8981865afa9c8d1561132a57819d6112f6575b508b5163e00cb4a560e01b81528089018c81526001600160a01b03871660208201529091908a90839081906040010381875afa9081156112eb57906112bc575b6111269150611cef565b98808a106112a0575090818f9493923b15610a0a578b51631fa6592360e11b81526001600160a01b03909216828901908152602081018b90528591839182908490829060400103925af1801561129657908491611282575b50508386541690813b15610b69578a5163627160f360e11b81526001600160a01b03918216818901908152602081018c90529190931660408201528391839182908490829060600103925af1801561065e5761126e575b5050825416968651918252838284818b5afa91821561063c578b9261123f575b508061120360075484611cd5565b106105f25750508451938452508201527f8d2cf1d80f06f87e6690c4e9bbe4750f3f8affc42dea16d0d82687c849c4f4229190a4600160035580f35b9091508381813d8311611267575b6112578183611bb8565b810103126102a5575190386111f5565b503d61124d565b61127790611b8e565b61065a578a386111d5565b61128b90611b8e565b61037e57823861117e565b8b513d86823e3d90fd5b876044918b8e5192638ce27f3160e01b84528301526024820152fd5b508881813d83116112e4575b6112d28183611bb8565b810103126102a557611126905161111c565b503d6112c8565b8d51903d90823e3d90fd5b809c9d50898092503d8311611323575b6113108183611bb8565b810103126102a55799519a998e846110dc565b503d611306565b508b51903d90823e3d90fd5b61134d9150863d88116107685761075a8183611bb8565b3861107a565b90503461037e578160031936011261037e57803591611370611b29565b611378611ef1565b611380611fcf565b6001600160a01b038181166000818152600660205260409020549192911561167357506113ab611ff2565b6113b7610cc386611c1a565b83516318160ddd60e01b8082529096602093927f00000000000000000000000000000000000000000000000000000000000000008616918a91868b8b81875afa978815611669578a9b8499611633575b50807f00000000000000000000000000000000000000000000000000000000000000001696888b51809d898252818b5afa9b8c15610f7857859c6115fe575b50836114549130908a61205f565b863b15610b69578951630852cd8d60e31b938482528d8201528481602481838c5af18015610f78579085916115ea575b50508b5416803b15610b6957895163627160f360e11b815230818e01908152602081018490526001600160a01b03871660408201529091859183919082908490829060600103925af18015610f3b579084916115d6575b5050833b1561037e5788519182528a820152818160248183875af18015610f1d57918a9594939187936115ba575b50508751948580928582525afa928315610ef3579084918a94611589575b508887518094819382525afa928315610eb8578893611557575b5050610cc391610e47610e4d92610e5295611ce2565b90809350813d8311611582575b61156e8183611bb8565b810103126102a55790519082610e47611541565b503d611564565b8281939295503d83116115b3575b6115a18183611bb8565b810103126102a5578390519238611527565b503d611597565b9092506115c8919550611b8e565b610f19578388938a38611509565b6115df90611b8e565b61037e5782386114db565b6115f390611b8e565b610b69578338611484565b8980929d508196503d831161162c575b6116188183611bb8565b810103126102a5579251998c939083611446565b503d61160e565b9350975098508582813d8311611662575b61164e8183611bb8565b810103126102a55789988b92519738611407565b503d611644565b89513d85823e3d90fd5b846024918551916332184be360e21b8352820152fd5b9190503461037e57602036600319011261037e577f5711bde41b4f4146c2148af54d749f794c7016f066897809f58d83b338bb6e0391356116c8611e99565b600754908060075582519182526020820152a180f35b8383346101c957806003193601126101c9576116f8611b29565b90336001600160a01b03831603611715575061037a9192356121e6565b5163334bd91960e11b81528390fd5b9190503461037e578060031936011261037e5761037a91356117496001610364611b29565b612168565b90503461037e5761175e36611b55565b611769959295611ef1565b611771611fcf565b6001600160a01b0384811660008181526006602052604090205490969015610779578181541697855192637d35e97760e11b8452808216998a848601526020948581602481855afa90811561076f578d916119ab575b501561072b57817f00000000000000000000000000000000000000000000000000000000000000001690818c1461071b57611800611ff2565b8851998d6306a61f7560e51b95868d52888d8981875afa9c8d1561071157829d611978575b508b5163e00cb4a560e01b81528881018c81526001600160a01b03909216602083015291908990839081906040010381875afa9081156106d15790611945575b61186f9150611cef565b9780891161068657506118849189918e61205f565b818454168c813b156108f957895163627160f360e11b815230878201908152602081018a90526001600160a01b03851660408201529092839182908490829060600103925af1801561076f57611932575b50808c913b156101c95781809160248b5180948193630852cd8d60e31b83528c8b8401525af1801561065e57610646575050825416968651918252838284818b5afa91821561063c578b9261060d5750806105b660075484611cd5565b61193e909c919c611b8e565b9a386118d5565b508781813d8311611971575b61195b8183611bb8565b8101031261196d5761186f9051611865565b8e80fd5b503d611951565b9b9c5090888c813d83116119a4575b6119918183611bb8565b810103126108f9579a519b9a9088611825565b503d611987565b6119c29150863d88116107685761075a8183611bb8565b386117c7565b90503461037e57602036600319011261037e57816020936001923581528085522001549051908152f35b5050346101c957816003193601126101c9576020906008549051908152f35b8383346101c95760203660031901126101c9578235611a2e611e99565b620f4240808211611a735750907fa7988e31f84de01a1549a4220748e0900a4584640effc2b72696fb8a4db88a0291600854908060085582519182526020820152a180f35b8491604493519263228a16b560e01b84528301526024820152fd5b8284346108f95760203660031901126108f95750610c5a60209235611c1a565b90503461037e578260031936011261037e575490516001600160a01b03909116815260209150f35b84913461037e57602036600319011261037e573563ffffffff60e01b811680910361037e5760209250637965db0b60e01b8114908115611b18575b5015158152f35b6301ffc9a760e01b14905083611b11565b602435906001600160a01b03821682036102a557565b600435906001600160a01b03821682036102a557565b60809060031901126102a5576001600160a01b039060043582811681036102a5579160243590811681036102a557906044359060643590565b67ffffffffffffffff8111611ba257604052565b634e487b7160e01b600052604160045260246000fd5b90601f8019910116810190811067ffffffffffffffff821117611ba257604052565b908160209103126102a5575160ff811681036102a55790565b60ff16604d8111611c0457600a0a90565b634e487b7160e01b600052601160045260246000fd5b60405163313ce56760e01b8152906020826004817f00000000000000000000000000000000000000000000000000000000000000006001600160a01b03165afa8015611cb157611c7f92600091611c82575b50611c7960025491611bf3565b91611e23565b90565b611ca4915060203d602011611caa575b611c9c8183611bb8565b810190611bda565b38611c6c565b503d611c92565b6040513d6000823e3d90fd5b908160209103126102a5575180151581036102a55790565b91908201809211611c0457565b91908203918211611c0457565b60405163313ce56760e01b8152906020826004817f00000000000000000000000000000000000000000000000000000000000000006001600160a01b03165afa918215611cb157611c7f92611d4c91600091611d55575b50611bf3565b60025491611e23565b611d6e915060203d602011611caa57611c9c8183611bb8565b38611d46565b620f4240918183029160001984820993838086109503948086039514611dff5784831115611ded5782910981600003821680920460028082600302188083028203028083028203028083028203028083028203028083028203028092029003029360018380600003040190848311900302920304170290565b60405163227bc15360e01b8152600490fd5b505080925015611e0d570490565b634e487b7160e01b600052601260045260246000fd5b90918282029160001984820993838086109503948086039514611dff5784831115611ded5782910981600003821680920460028082600302188083028203028083028203028083028203028083028203028083028203028092029003029360018380600003040190848311900302920304170290565b3360009081527fad3228b676f7d3cd4284a5443f17f1962b36e491b30a40b2405849e597ba5fb5602052604081205460ff1615611ed35750565b6044906040519063e2517d3f60e01b82523360048301526024820152fd5b3360009081527f1c025d3a48b273ee95b866673d455ded2354b3fec99fd245da369c419654b09d60205260409020547f9d6bad8599e4b9d405228287b23a6b0b8ce3cd1a8a88dd6f33fbba48615b4f559060ff1615611ed35750565b3360009081527fdd7f85de517f2aa32b3532e7e369f65c4c2e6dcda6cd3ec83972be7965ca7aa060205260409020547f855d04232aa491f9e84353b3958a225d6be593571f1d863256669b6e8229525d9060ff1615611ed35750565b80600052600060205260406000203360005260205260ff6040600020541615611ed35750565b600260035414611fe0576002600355565b604051633ee5aeb560e01b8152600490fd5b600854801561205c5761205a906001600160a01b03612033827f00000000000000000000000000000000000000000000000000000000000000008316612307565b7f000000000000000000000000000000000000000000000000000000000000000016612307565b565b50565b6040516323b872dd60e01b602082019081526001600160a01b039384166024830152938316604482015260648082019590955293845267ffffffffffffffff919060a0850183811186821017611ba2576040521692600080938192519082875af1903d1561215a573d908111612146576040516120fd9392916120ec601f8201601f191660200183611bb8565b8152809260203d92013e5b83612590565b805190811515918261212b575b50506121135750565b60249060405190635274afe760e01b82526004820152fd5b61213e9250602080918301019101611cbd565b15388061210a565b634e487b7160e01b83526041600452602483fd5b506120fd91506060906120f7565b9060009180835282602052604083209160018060a01b03169182845260205260ff604084205416156000146121e157808352826020526040832082845260205260408320600160ff198254161790557f2f8788117e7eff1d82e926ec794901d17c78024a50270940304540a733656f0d339380a4600190565b505090565b9060009180835282602052604083209160018060a01b03169182845260205260ff6040842054166000146121e15780835282602052604083208284526020526040832060ff1981541690557ff6391f5c32d9c69d2a47ea670b442974b53935d1edc7fd64eb21e047a839171b339380a4600190565b906007548161226a8285611cd5565b106122875761227891611cd5565b1061228257600090565b600190565b505050600190565b604051636eb1769f60e11b81526001600160a01b0391821660048201523060248201529160209183916044918391165afa908115611cb1576000916122d5575b50101590565b90506020813d6020116122ff575b816122f060209383611bb8565b810103126102a55751386122cf565b3d91506122e3565b60025460015460405163b3596f0760e01b81526001600160a01b03938416600482018190529493909160209183916024918391165afa908115611cb1576000916123aa575b5081811061239b5782612368836123638185611ce2565b611d74565b116123735750505050565b6084945060405193630907397b60e21b85526004850152602484015260448301526064820152fd5b82612368836123638482611ce2565b906020823d6020116123d4575b816123c460209383611bb8565b810103126108f95750513861234c565b3d91506123b7565b6005548110156124135760056000527f036b6384b5eca791c62761152d0c79bb0604c104a5fb6f4eb0703f3154bb3db00190600090565b634e487b7160e01b600052603260045260246000fd5b60008181526006602052604081205490919080156121e1576000199080820181811161251157600554908382019182116124fd578181036124b2575b505050600554801561249e5781019061247d826123dc565b909182549160031b1b19169055600555815260066020526040812055600190565b634e487b7160e01b84526031600452602484fd5b6124e76124c16124d0936123dc565b90549060031b1c9283926123dc565b819391549060031b91821b91600019901b19161790565b9055845260066020526040842055388080612465565b634e487b7160e01b86526011600452602486fd5b634e487b7160e01b85526011600452602485fd5b60008181526006602052604081205461258b57600554680100000000000000008110156125775790826125636124d0846001604096016005556123dc565b905560055492815260066020522055600190565b634e487b7160e01b82526041600452602482fd5b905090565b906125b757508051156125a557805190602001fd5b604051630a12f52160e11b8152600490fd5b815115806125ea575b6125c8575090565b604051639996b31560e01b81526001600160a01b039091166004820152602490fd5b50803b156125c056fea26469706673582212202e62e583bc18dc20f9744c5c81ce3890899448c72fd07dbcfae5c65755bd74fe64736f6c63430008180033",
  "devdoc": {
    "details": "Provides atomic operations with invariant checks and unified debt token accounting",
    "errors": {
      "AccessControlBadConfirmation()": [
        {
          "details": "The caller of a function is not the expected one. NOTE: Don't confuse with {AccessControlUnauthorizedAccount}."
        }
      ],
      "AccessControlUnauthorizedAccount(address,bytes32)": [
        {
          "details": "The `account` is missing a role."
        }
      ],
      "AddressEmptyCode(address)": [
        {
          "details": "There's no code at `target` (it is not a contract)."
        }
      ],
      "AddressInsufficientBalance(address)": [
        {
          "details": "The ETH balance of the account is not enough to perform the operation."
        }
      ],
      "FailedInnerCall()": [
        {
          "details": "A call to an address target failed. The target may have reverted."
        }
      ],
      "MathOverflowedMulDiv()": [
        {
          "details": "Muldiv operation overflow."
        }
      ],
      "ReentrancyGuardReentrantCall()": [
        {
          "details": "Unauthorized reentrant call."
        }
      ],
      "SafeERC20FailedOperation(address)": [
        {
          "details": "An operation with an ERC20 token failed."
        }
      ]
    },
    "events": {
      "RoleAdminChanged(bytes32,bytes32,bytes32)": {
        "details": "Emitted when `newAdminRole` is set as ``role``'s admin role, replacing `previousAdminRole` `DEFAULT_ADMIN_ROLE` is the starting admin for all roles, despite {RoleAdminChanged} not being emitted signaling this."
      },
      "RoleGranted(bytes32,address,address)": {
        "details": "Emitted when `account` is granted `role`. `sender` is the account that originated the contract call, an admin role bearer except when using {AccessControl-_setupRole}."
      },
      "RoleRevoked(bytes32,address,address)": {
        "details": "Emitted when `account` is revoked `role`. `sender` is the account that originated the contract call:   - if using `revokeRole`, it is the admin role bearer   - if using `renounceRole`, it is the role bearer (i.e. `account`)"
      }
    },
    "kind": "dev",
    "methods": {
      "baseToDebtUnits(uint256)": {
        "params": {
          "baseValue": "The base value to convert"
        },
        "returns": {
          "_0": "The equivalent amount in debt token units"
        }
      },
      "borrowTo(address,address,uint256,uint256)": {
        "details": "Enforces value conservation: vault total value must remain unchanged within tolerance",
        "params": {
          "amount": "The amount of collateral to borrow",
          "asset": "The collateral asset to borrow",
          "minDebtMinted": "Minimum debt token amount expected (slippage protection)",
          "wallet": "The AMO wallet to receive the borrowed collateral"
        }
      },
      "constructor": {
        "params": {
          "_collateralVault": "The single accounting collateral vault address",
          "_debtToken": "The AMO debt token for unified accounting",
          "_dusd": "The dUSD stablecoin token",
          "_oracle": "The oracle for price feeds"
        }
      },
      "decreaseAmoSupply(uint256,address)": {
        "details": "Only callable by AMO_DECREASE_ROLE. Ensures debt burned equals dUSD value",
        "params": {
          "amount": "The amount of dUSD to burn (debt tokens burned will equal this in base value)",
          "wallet": "The AMO wallet to pull dUSD from (must approve manager)"
        }
      },
      "dusdAmountToBaseValue(uint256)": {
        "params": {
          "dusdAmount": "The dUSD amount to convert"
        },
        "returns": {
          "_0": "The equivalent base value"
        }
      },
      "getAllowedAmoWallets()": {
        "returns": {
          "_0": "Array of allowed wallet addresses"
        }
      },
      "getAllowedAmoWalletsLength()": {
        "returns": {
          "_0": "The count of allowed wallets"
        }
      },
      "getRoleAdmin(bytes32)": {
        "details": "Returns the admin role that controls `role`. See {grantRole} and {revokeRole}. To change a role's admin, use {_setRoleAdmin}."
      },
      "grantRole(bytes32,address)": {
        "details": "Grants `role` to `account`. If `account` had not been already granted `role`, emits a {RoleGranted} event. Requirements: - the caller must have ``role``'s admin role. May emit a {RoleGranted} event."
      },
      "hasRole(bytes32,address)": {
        "details": "Returns `true` if `account` has been granted `role`."
      },
      "increaseAmoSupply(uint256,address)": {
        "details": "Only callable by AMO_INCREASE_ROLE. Ensures debt minted equals dUSD value",
        "params": {
          "amount": "The amount of dUSD to mint (debt tokens minted will equal this in base value)",
          "wallet": "The AMO wallet to receive minted dUSD"
        }
      },
      "isAmoWalletAllowed(address)": {
        "params": {
          "wallet": "The wallet address to check"
        },
        "returns": {
          "_0": "Whether the wallet is allowed"
        }
      },
      "renounceRole(bytes32,address)": {
        "details": "Revokes `role` from the calling account. Roles are often managed via {grantRole} and {revokeRole}: this function's purpose is to provide a mechanism for accounts to lose their privileges if they are compromised (such as when a trusted device is misplaced). If the calling account had been revoked `role`, emits a {RoleRevoked} event. Requirements: - the caller must be `callerConfirmation`. May emit a {RoleRevoked} event."
      },
      "repayFrom(address,address,uint256,uint256)": {
        "details": "Enforces value conservation: vault total value must remain unchanged within tolerance",
        "params": {
          "amount": "The amount of collateral to repay",
          "asset": "The collateral asset being repaid",
          "maxDebtBurned": "Maximum debt amount acceptable to burn (slippage protection)",
          "wallet": "The AMO wallet providing the collateral for repayment"
        }
      },
      "repayWithPermit(address,address,uint256,uint256,uint256,uint8,bytes32,bytes32)": {
        "details": "Skips the permit call if allowance already covers the amount."
      },
      "revokeRole(bytes32,address)": {
        "details": "Revokes `role` from `account`. If `account` had been granted `role`, emits a {RoleRevoked} event. Requirements: - the caller must have ``role``'s admin role. May emit a {RoleRevoked} event."
      },
      "setAmoWalletAllowed(address,bool)": {
        "details": "Only callable by DEFAULT_ADMIN_ROLE",
        "params": {
          "allowed": "Whether the wallet should be allowed",
          "wallet": "The AMO wallet address"
        }
      },
      "setBaseCurrencyUnit(uint256)": {
        "details": "Only used if the oracle's base currency unit changes",
        "params": {
          "_newBaseCurrencyUnit": "The new base currency unit to set"
        }
      },
      "setCollateralVault(address)": {
        "details": "Only callable by DEFAULT_ADMIN_ROLE",
        "params": {
          "newVault": "The new collateral vault address"
        }
      },
      "setOracle(address)": {
        "params": {
          "newOracle": "The new oracle to use"
        }
      },
      "setPegDeviationBps(uint256)": {
        "details": "Only callable by DEFAULT_ADMIN_ROLE",
        "params": {
          "newPegDeviationBps": "The new deviation tolerance in basis points"
        }
      },
      "setTolerance(uint256)": {
        "details": "Only callable by DEFAULT_ADMIN_ROLE",
        "params": {
          "newTolerance": "The new tolerance value in base units"
        }
      },
      "supportsInterface(bytes4)": {
        "details": "See {IERC165-supportsInterface}."
      },
      "totalDebtSupply()": {
        "returns": {
          "_0": "The total supply of debt tokens"
        }
      }
    },
    "title": "AmoManagerV2",
    "version": 1
  },
  "userdoc": {
    "kind": "user",
    "methods": {
      "baseToDebtUnits(uint256)": {
        "notice": "Converts base value to debt token units"
      },
      "borrowTo(address,address,uint256,uint256)": {
        "notice": "Borrows collateral from vault to endpoint with invariant checks"
      },
      "constructor": {
        "notice": "Initializes the AmoManagerV2 contract"
      },
      "decreaseAmoSupply(uint256,address)": {
        "notice": "Decreases AMO supply by pulling dUSD from a wallet and burning equal debt tokens atomically"
      },
      "dusdAmountToBaseValue(uint256)": {
        "notice": "Converts dUSD amount to base value"
      },
      "getAllowedAmoWallets()": {
        "notice": "Returns all allowed AMO wallets"
      },
      "getAllowedAmoWalletsLength()": {
        "notice": "Returns the number of allowed AMO wallets"
      },
      "increaseAmoSupply(uint256,address)": {
        "notice": "Increases AMO supply by minting dUSD to a wallet and equal debt tokens to the vault atomically"
      },
      "isAmoWalletAllowed(address)": {
        "notice": "Checks if an AMO wallet is allowed"
      },
      "repayFrom(address,address,uint256,uint256)": {
        "notice": "Repays borrowed collateral from endpoint to vault with invariant checks"
      },
      "repayWithPermit(address,address,uint256,uint256,uint256,uint8,bytes32,bytes32)": {
        "notice": "Repay using EIP-2612 permit for collateral tokens that support it"
      },
      "setAmoWalletAllowed(address,bool)": {
        "notice": "Sets AMO wallet allowed status"
      },
      "setBaseCurrencyUnit(uint256)": {
        "notice": "Updates the base currency unit used for price calculations"
      },
      "setCollateralVault(address)": {
        "notice": "Sets the single accounting collateral vault"
      },
      "setOracle(address)": {
        "notice": "Sets the oracle to use for collateral valuation"
      },
      "setPegDeviationBps(uint256)": {
        "notice": "Sets the maximum allowed peg deviation in basis points"
      },
      "setTolerance(uint256)": {
        "notice": "Sets the tolerance for invariant checks"
      },
      "totalDebtSupply()": {
        "notice": "Returns total debt token supply for telemetry"
      }
    },
    "notice": "Unified AMO operations manager for both stable AMO (dUSD mint/burn) and collateral AMO (borrow/repay)",
    "version": 1
  },
  "storageLayout": {
    "storage": [
      {
        "astId": 26,
        "contract": "contracts/dusd/AmoManagerV2.sol:AmoManagerV2",
        "label": "_roles",
        "offset": 0,
        "slot": "0",
        "type": "t_mapping(t_bytes32,t_struct(RoleData)21_storage)"
      },
      {
        "astId": 6233,
        "contract": "contracts/dusd/AmoManagerV2.sol:AmoManagerV2",
        "label": "oracle",
        "offset": 0,
        "slot": "1",
        "type": "t_contract(IPriceOracleGetter)9514"
      },
      {
        "astId": 6235,
        "contract": "contracts/dusd/AmoManagerV2.sol:AmoManagerV2",
        "label": "baseCurrencyUnit",
        "offset": 0,
        "slot": "2",
        "type": "t_uint256"
      },
      {
        "astId": 1871,
        "contract": "contracts/dusd/AmoManagerV2.sol:AmoManagerV2",
        "label": "_status",
        "offset": 0,
        "slot": "3",
        "type": "t_uint256"
      },
      {
        "astId": 4011,
        "contract": "contracts/dusd/AmoManagerV2.sol:AmoManagerV2",
        "label": "collateralVault",
        "offset": 0,
        "slot": "4",
        "type": "t_address"
      },
      {
        "astId": 4014,
        "contract": "contracts/dusd/AmoManagerV2.sol:AmoManagerV2",
        "label": "_allowedAmoWallets",
        "offset": 0,
        "slot": "5",
        "type": "t_struct(AddressSet)3345_storage"
      },
      {
        "astId": 4016,
        "contract": "contracts/dusd/AmoManagerV2.sol:AmoManagerV2",
        "label": "tolerance",
        "offset": 0,
        "slot": "7",
        "type": "t_uint256"
      },
      {
        "astId": 4018,
        "contract": "contracts/dusd/AmoManagerV2.sol:AmoManagerV2",
        "label": "pegDeviationBps",
        "offset": 0,
        "slot": "8",
        "type": "t_uint256"
      }
    ],
    "types": {
      "t_address": {
        "encoding": "inplace",
        "label": "address",
        "numberOfBytes": "20"
      },
      "t_array(t_bytes32)dyn_storage": {
        "base": "t_bytes32",
        "encoding": "dynamic_array",
        "label": "bytes32[]",
        "numberOfBytes": "32"
      },
      "t_bool": {
        "encoding": "inplace",
        "label": "bool",
        "numberOfBytes": "1"
      },
      "t_bytes32": {
        "encoding": "inplace",
        "label": "bytes32",
        "numberOfBytes": "32"
      },
      "t_contract(IPriceOracleGetter)9514": {
        "encoding": "inplace",
        "label": "contract IPriceOracleGetter",
        "numberOfBytes": "20"
      },
      "t_mapping(t_address,t_bool)": {
        "encoding": "mapping",
        "key": "t_address",
        "label": "mapping(address => bool)",
        "numberOfBytes": "32",
        "value": "t_bool"
      },
      "t_mapping(t_bytes32,t_struct(RoleData)21_storage)": {
        "encoding": "mapping",
        "key": "t_bytes32",
        "label": "mapping(bytes32 => struct AccessControl.RoleData)",
        "numberOfBytes": "32",
        "value": "t_struct(RoleData)21_storage"
      },
      "t_mapping(t_bytes32,t_uint256)": {
        "encoding": "mapping",
        "key": "t_bytes32",
        "label": "mapping(bytes32 => uint256)",
        "numberOfBytes": "32",
        "value": "t_uint256"
      },
      "t_struct(AddressSet)3345_storage": {
        "encoding": "inplace",
        "label": "struct EnumerableSet.AddressSet",
        "members": [
          {
            "astId": 3344,
            "contract": "contracts/dusd/AmoManagerV2.sol:AmoManagerV2",
            "label": "_inner",
            "offset": 0,
            "slot": "0",
            "type": "t_struct(Set)3030_storage"
          }
        ],
        "numberOfBytes": "64"
      },
      "t_struct(RoleData)21_storage": {
        "encoding": "inplace",
        "label": "struct AccessControl.RoleData",
        "members": [
          {
            "astId": 18,
            "contract": "contracts/dusd/AmoManagerV2.sol:AmoManagerV2",
            "label": "hasRole",
            "offset": 0,
            "slot": "0",
            "type": "t_mapping(t_address,t_bool)"
          },
          {
            "astId": 20,
            "contract": "contracts/dusd/AmoManagerV2.sol:AmoManagerV2",
            "label": "adminRole",
            "offset": 0,
            "slot": "1",
            "type": "t_bytes32"
          }
        ],
        "numberOfBytes": "64"
      },
      "t_struct(Set)3030_storage": {
        "encoding": "inplace",
        "label": "struct EnumerableSet.Set",
        "members": [
          {
            "astId": 3025,
            "contract": "contracts/dusd/AmoManagerV2.sol:AmoManagerV2",
            "label": "_values",
            "offset": 0,
            "slot": "0",
            "type": "t_array(t_bytes32)dyn_storage"
          },
          {
            "astId": 3029,
            "contract": "contracts/dusd/AmoManagerV2.sol:AmoManagerV2",
            "label": "_positions",
            "offset": 0,
            "slot": "1",
            "type": "t_mapping(t_bytes32,t_uint256)"
          }
        ],
        "numberOfBytes": "64"
      },
      "t_uint256": {
        "encoding": "inplace",
        "label": "uint256",
        "numberOfBytes": "32"
      }
    }
  }
}