{
  "address": "0x49a0c8030Ca199f6F246517aE689E3cC0775271a",
  "abi": [
    {
      "inputs": [
        {
          "internalType": "address",
          "name": "_dusd",
          "type": "address"
        },
        {
          "internalType": "address",
          "name": "_collateralHolderVault",
          "type": "address"
        },
        {
          "internalType": "contract IPriceOracleGetter",
          "name": "_oracle",
          "type": "address"
        }
      ],
      "stateMutability": "nonpayable",
      "type": "constructor"
    },
    {
      "inputs": [],
      "name": "AccessControlBadConfirmation",
      "type": "error"
    },
    {
      "inputs": [
        {
          "internalType": "address",
          "name": "account",
          "type": "address"
        },
        {
          "internalType": "bytes32",
          "name": "neededRole",
          "type": "bytes32"
        }
      ],
      "name": "AccessControlUnauthorizedAccount",
      "type": "error"
    },
    {
      "inputs": [
        {
          "internalType": "uint256",
          "name": "startingSupply",
          "type": "uint256"
        },
        {
          "internalType": "uint256",
          "name": "endingSupply",
          "type": "uint256"
        }
      ],
      "name": "AmoSupplyInvariantViolation",
      "type": "error"
    },
    {
      "inputs": [
        {
          "internalType": "address",
          "name": "amoVault",
          "type": "address"
        }
      ],
      "name": "AmoVaultAlreadyEnabled",
      "type": "error"
    },
    {
      "inputs": [],
      "name": "CannotTransferDUSD",
      "type": "error"
    },
    {
      "inputs": [
        {
          "internalType": "address",
          "name": "amoVault",
          "type": "address"
        }
      ],
      "name": "InactiveAmoVault",
      "type": "error"
    },
    {
      "inputs": [
        {
          "internalType": "uint256",
          "name": "baseCurrencyUnit",
          "type": "uint256"
        }
      ],
      "name": "IncorrectBaseCurrencyUnit",
      "type": "error"
    },
    {
      "inputs": [
        {
          "internalType": "uint256",
          "name": "takeProfitValueInUsd",
          "type": "uint256"
        },
        {
          "internalType": "int256",
          "name": "availableProfitInUsd",
          "type": "int256"
        }
      ],
      "name": "InsufficientProfits",
      "type": "error"
    },
    {
      "anonymous": false,
      "inputs": [
        {
          "indexed": true,
          "internalType": "address",
          "name": "amoVault",
          "type": "address"
        },
        {
          "indexed": false,
          "internalType": "uint256",
          "name": "dusdAmount",
          "type": "uint256"
        }
      ],
      "name": "AmoAllocated",
      "type": "event"
    },
    {
      "anonymous": false,
      "inputs": [
        {
          "indexed": true,
          "internalType": "address",
          "name": "amoVault",
          "type": "address"
        },
        {
          "indexed": false,
          "internalType": "uint256",
          "name": "dusdAmount",
          "type": "uint256"
        }
      ],
      "name": "AmoDeallocated",
      "type": "event"
    },
    {
      "anonymous": false,
      "inputs": [
        {
          "indexed": true,
          "internalType": "address",
          "name": "amoVault",
          "type": "address"
        },
        {
          "indexed": false,
          "internalType": "bool",
          "name": "isActive",
          "type": "bool"
        }
      ],
      "name": "AmoVaultSet",
      "type": "event"
    },
    {
      "anonymous": false,
      "inputs": [
        {
          "indexed": true,
          "internalType": "address",
          "name": "newOracle",
          "type": "address"
        }
      ],
      "name": "OracleSet",
      "type": "event"
    },
    {
      "anonymous": false,
      "inputs": [
        {
          "indexed": true,
          "internalType": "address",
          "name": "amoVault",
          "type": "address"
        },
        {
          "indexed": false,
          "internalType": "uint256",
          "name": "amount",
          "type": "uint256"
        }
      ],
      "name": "ProfitsWithdrawn",
      "type": "event"
    },
    {
      "anonymous": false,
      "inputs": [
        {
          "indexed": true,
          "internalType": "bytes32",
          "name": "role",
          "type": "bytes32"
        },
        {
          "indexed": true,
          "internalType": "bytes32",
          "name": "previousAdminRole",
          "type": "bytes32"
        },
        {
          "indexed": true,
          "internalType": "bytes32",
          "name": "newAdminRole",
          "type": "bytes32"
        }
      ],
      "name": "RoleAdminChanged",
      "type": "event"
    },
    {
      "anonymous": false,
      "inputs": [
        {
          "indexed": true,
          "internalType": "bytes32",
          "name": "role",
          "type": "bytes32"
        },
        {
          "indexed": true,
          "internalType": "address",
          "name": "account",
          "type": "address"
        },
        {
          "indexed": true,
          "internalType": "address",
          "name": "sender",
          "type": "address"
        }
      ],
      "name": "RoleGranted",
      "type": "event"
    },
    {
      "anonymous": false,
      "inputs": [
        {
          "indexed": true,
          "internalType": "bytes32",
          "name": "role",
          "type": "bytes32"
        },
        {
          "indexed": true,
          "internalType": "address",
          "name": "account",
          "type": "address"
        },
        {
          "indexed": true,
          "internalType": "address",
          "name": "sender",
          "type": "address"
        }
      ],
      "name": "RoleRevoked",
      "type": "event"
    },
    {
      "inputs": [],
      "name": "AMO_ALLOCATOR_ROLE",
      "outputs": [
        {
          "internalType": "bytes32",
          "name": "",
          "type": "bytes32"
        }
      ],
      "stateMutability": "view",
      "type": "function"
    },
    {
      "inputs": [],
      "name": "DEFAULT_ADMIN_ROLE",
      "outputs": [
        {
          "internalType": "bytes32",
          "name": "",
          "type": "bytes32"
        }
      ],
      "stateMutability": "view",
      "type": "function"
    },
    {
      "inputs": [],
      "name": "FEE_COLLECTOR_ROLE",
      "outputs": [
        {
          "internalType": "bytes32",
          "name": "",
          "type": "bytes32"
        }
      ],
      "stateMutability": "view",
      "type": "function"
    },
    {
      "inputs": [],
      "name": "USD_UNIT",
      "outputs": [
        {
          "internalType": "uint256",
          "name": "",
          "type": "uint256"
        }
      ],
      "stateMutability": "view",
      "type": "function"
    },
    {
      "inputs": [
        {
          "internalType": "address",
          "name": "amoVault",
          "type": "address"
        },
        {
          "internalType": "uint256",
          "name": "dusdAmount",
          "type": "uint256"
        }
      ],
      "name": "allocateAmo",
      "outputs": [],
      "stateMutability": "nonpayable",
      "type": "function"
    },
    {
      "inputs": [
        {
          "internalType": "address",
          "name": "amoVault",
          "type": "address"
        }
      ],
      "name": "amoVaultAllocation",
      "outputs": [
        {
          "internalType": "uint256",
          "name": "",
          "type": "uint256"
        }
      ],
      "stateMutability": "view",
      "type": "function"
    },
    {
      "inputs": [],
      "name": "amoVaults",
      "outputs": [
        {
          "internalType": "address[]",
          "name": "",
          "type": "address[]"
        }
      ],
      "stateMutability": "view",
      "type": "function"
    },
    {
      "inputs": [],
      "name": "availableProfitInUsd",
      "outputs": [
        {
          "internalType": "int256",
          "name": "",
          "type": "int256"
        }
      ],
      "stateMutability": "view",
      "type": "function"
    },
    {
      "inputs": [
        {
          "internalType": "address",
          "name": "vaultAddress",
          "type": "address"
        }
      ],
      "name": "availableVaultProfitsInUsd",
      "outputs": [
        {
          "internalType": "int256",
          "name": "",
          "type": "int256"
        }
      ],
      "stateMutability": "view",
      "type": "function"
    },
    {
      "inputs": [],
      "name": "baseCurrencyUnit",
      "outputs": [
        {
          "internalType": "uint256",
          "name": "",
          "type": "uint256"
        }
      ],
      "stateMutability": "view",
      "type": "function"
    },
    {
      "inputs": [],
      "name": "collateralHolderVault",
      "outputs": [
        {
          "internalType": "contract CollateralVault",
          "name": "",
          "type": "address"
        }
      ],
      "stateMutability": "view",
      "type": "function"
    },
    {
      "inputs": [
        {
          "internalType": "address",
          "name": "amoVault",
          "type": "address"
        },
        {
          "internalType": "uint256",
          "name": "dusdAmount",
          "type": "uint256"
        }
      ],
      "name": "deallocateAmo",
      "outputs": [],
      "stateMutability": "nonpayable",
      "type": "function"
    },
    {
      "inputs": [
        {
          "internalType": "uint256",
          "name": "dusdAmount",
          "type": "uint256"
        }
      ],
      "name": "decreaseAmoSupply",
      "outputs": [],
      "stateMutability": "nonpayable",
      "type": "function"
    },
    {
      "inputs": [
        {
          "internalType": "address",
          "name": "amoVault",
          "type": "address"
        }
      ],
      "name": "disableAmoVault",
      "outputs": [],
      "stateMutability": "nonpayable",
      "type": "function"
    },
    {
      "inputs": [],
      "name": "dusd",
      "outputs": [
        {
          "internalType": "contract IERC20Stablecoin",
          "name": "",
          "type": "address"
        }
      ],
      "stateMutability": "view",
      "type": "function"
    },
    {
      "inputs": [
        {
          "internalType": "uint256",
          "name": "dusdAmount",
          "type": "uint256"
        }
      ],
      "name": "dusdAmountToUsdValue",
      "outputs": [
        {
          "internalType": "uint256",
          "name": "",
          "type": "uint256"
        }
      ],
      "stateMutability": "view",
      "type": "function"
    },
    {
      "inputs": [
        {
          "internalType": "address",
          "name": "amoVault",
          "type": "address"
        }
      ],
      "name": "enableAmoVault",
      "outputs": [],
      "stateMutability": "nonpayable",
      "type": "function"
    },
    {
      "inputs": [
        {
          "internalType": "bytes32",
          "name": "role",
          "type": "bytes32"
        }
      ],
      "name": "getRoleAdmin",
      "outputs": [
        {
          "internalType": "bytes32",
          "name": "",
          "type": "bytes32"
        }
      ],
      "stateMutability": "view",
      "type": "function"
    },
    {
      "inputs": [
        {
          "internalType": "bytes32",
          "name": "role",
          "type": "bytes32"
        },
        {
          "internalType": "address",
          "name": "account",
          "type": "address"
        }
      ],
      "name": "grantRole",
      "outputs": [],
      "stateMutability": "nonpayable",
      "type": "function"
    },
    {
      "inputs": [
        {
          "internalType": "bytes32",
          "name": "role",
          "type": "bytes32"
        },
        {
          "internalType": "address",
          "name": "account",
          "type": "address"
        }
      ],
      "name": "hasRole",
      "outputs": [
        {
          "internalType": "bool",
          "name": "",
          "type": "bool"
        }
      ],
      "stateMutability": "view",
      "type": "function"
    },
    {
      "inputs": [
        {
          "internalType": "address",
          "name": "amoVault",
          "type": "address"
        }
      ],
      "name": "isAmoActive",
      "outputs": [
        {
          "internalType": "bool",
          "name": "",
          "type": "bool"
        }
      ],
      "stateMutability": "view",
      "type": "function"
    },
    {
      "inputs": [],
      "name": "oracle",
      "outputs": [
        {
          "internalType": "contract IPriceOracleGetter",
          "name": "",
          "type": "address"
        }
      ],
      "stateMutability": "view",
      "type": "function"
    },
    {
      "inputs": [
        {
          "internalType": "bytes32",
          "name": "role",
          "type": "bytes32"
        },
        {
          "internalType": "address",
          "name": "callerConfirmation",
          "type": "address"
        }
      ],
      "name": "renounceRole",
      "outputs": [],
      "stateMutability": "nonpayable",
      "type": "function"
    },
    {
      "inputs": [
        {
          "internalType": "bytes32",
          "name": "role",
          "type": "bytes32"
        },
        {
          "internalType": "address",
          "name": "account",
          "type": "address"
        }
      ],
      "name": "revokeRole",
      "outputs": [],
      "stateMutability": "nonpayable",
      "type": "function"
    },
    {
      "inputs": [
        {
          "internalType": "uint256",
          "name": "_newBaseCurrencyUnit",
          "type": "uint256"
        }
      ],
      "name": "setBaseCurrencyUnit",
      "outputs": [],
      "stateMutability": "nonpayable",
      "type": "function"
    },
    {
      "inputs": [
        {
          "internalType": "address",
          "name": "_collateralVault",
          "type": "address"
        }
      ],
      "name": "setCollateralVault",
      "outputs": [],
      "stateMutability": "nonpayable",
      "type": "function"
    },
    {
      "inputs": [
        {
          "internalType": "contract IPriceOracleGetter",
          "name": "newOracle",
          "type": "address"
        }
      ],
      "name": "setOracle",
      "outputs": [],
      "stateMutability": "nonpayable",
      "type": "function"
    },
    {
      "inputs": [
        {
          "internalType": "bytes4",
          "name": "interfaceId",
          "type": "bytes4"
        }
      ],
      "name": "supportsInterface",
      "outputs": [
        {
          "internalType": "bool",
          "name": "",
          "type": "bool"
        }
      ],
      "stateMutability": "view",
      "type": "function"
    },
    {
      "inputs": [],
      "name": "totalAllocated",
      "outputs": [
        {
          "internalType": "uint256",
          "name": "",
          "type": "uint256"
        }
      ],
      "stateMutability": "view",
      "type": "function"
    },
    {
      "inputs": [],
      "name": "totalAmoSupply",
      "outputs": [
        {
          "internalType": "uint256",
          "name": "",
          "type": "uint256"
        }
      ],
      "stateMutability": "view",
      "type": "function"
    },
    {
      "inputs": [],
      "name": "totalCollateralValue",
      "outputs": [
        {
          "internalType": "uint256",
          "name": "",
          "type": "uint256"
        }
      ],
      "stateMutability": "view",
      "type": "function"
    },
    {
      "inputs": [
        {
          "internalType": "address",
          "name": "amoVault",
          "type": "address"
        },
        {
          "internalType": "address",
          "name": "token",
          "type": "address"
        },
        {
          "internalType": "uint256",
          "name": "amount",
          "type": "uint256"
        }
      ],
      "name": "transferFromAmoVaultToHoldingVault",
      "outputs": [],
      "stateMutability": "nonpayable",
      "type": "function"
    },
    {
      "inputs": [
        {
          "internalType": "address",
          "name": "amoVault",
          "type": "address"
        },
        {
          "internalType": "address",
          "name": "token",
          "type": "address"
        },
        {
          "internalType": "uint256",
          "name": "amount",
          "type": "uint256"
        }
      ],
      "name": "transferFromHoldingVaultToAmoVault",
      "outputs": [],
      "stateMutability": "nonpayable",
      "type": "function"
    },
    {
      "inputs": [
        {
          "internalType": "uint256",
          "name": "usdValue",
          "type": "uint256"
        }
      ],
      "name": "usdValueToDusdAmount",
      "outputs": [
        {
          "internalType": "uint256",
          "name": "",
          "type": "uint256"
        }
      ],
      "stateMutability": "view",
      "type": "function"
    },
    {
      "inputs": [
        {
          "internalType": "contract AmoVault",
          "name": "amoVault",
          "type": "address"
        },
        {
          "internalType": "address",
          "name": "recipient",
          "type": "address"
        },
        {
          "internalType": "address",
          "name": "takeProfitToken",
          "type": "address"
        },
        {
          "internalType": "uint256",
          "name": "takeProfitAmount",
          "type": "uint256"
        }
      ],
      "name": "withdrawProfits",
      "outputs": [
        {
          "internalType": "uint256",
          "name": "takeProfitValueInUsd",
          "type": "uint256"
        }
      ],
      "stateMutability": "nonpayable",
      "type": "function"
    }
  ],
  "transactionHash": "0x1ba3a1ddfc28016e4c2b62a525ca9599ab118cf2cf5920aca0348fc1c1c3b1ae",
  "args": [
    "0x788D96f655735f52c676A133f4dFC53cEC614d4A",
    "0x624E12dE7a97B8cFc1AD1F050a1c9263b1f4FeBC",
    "0xFA7560956807d95DCeF22990DdD92e38DbAf5cDd"
  ],
  "numDeployments": 1,
  "solcInputHash": "8c1b71c0cb2d431669c790fca2357f85",
  "bytecode": "0x60a060409080825234620001ef5760608162001ef0803803809162000025828562000207565b833981010312620001ef576200003b8162000241565b602091836200004c84830162000241565b9101516001600160a01b039081811690819003620001ef578185938160049660018060a01b0319948560015416176001556305f5e100600255620000903362000256565b50168360075416176007551690600854161760085560015416845192838092638c89b64f60e01b82525afa908115620001fc57600091620001c4575b50608052620000db3362000256565b5060008051602062001eb0833981519152600052600081526001826000200154806000528260002033600052825260ff83600020541615620001a757506200012333620002d6565b5060008051602062001ed083398151915260005260008152600182600020015490816000528260002090336000525260ff826000205416156200018b57506200016c3362000367565b5051611a9c9081620003f48239608051818181610fe101526114f70152f35b604491519063e2517d3f60e01b82523360048301526024820152fd5b60449083519063e2517d3f60e01b82523360048301526024820152fd5b90508181813d8311620001f4575b620001de818362000207565b81010312620001ef575138620000cc565b600080fd5b503d620001d2565b83513d6000823e3d90fd5b601f909101601f19168101906001600160401b038211908210176200022b57604052565b634e487b7160e01b600052604160045260246000fd5b51906001600160a01b0382168203620001ef57565b6001600160a01b031660008181527fad3228b676f7d3cd4284a5443f17f1962b36e491b30a40b2405849e597ba5fb5602052604081205490919060ff16620002d257818052816020526040822081835260205260408220600160ff19825416179055339160008051602062001e908339815191528180a4600190565b5090565b6001600160a01b031660008181527f3e202b319ce29fc3d407c763c9df930d4929e19b1d8f64d08ac659c98dd25ce3602052604081205490919060008051602062001eb08339815191529060ff166200036257808352826020526040832082845260205260408320600160ff1982541617905560008051602062001e90833981519152339380a4600190565b505090565b6001600160a01b031660008181527f92227d48d66cabccdfe59bda1e8cb95f286820615128bd3f8666d1f5ec8b70aa602052604081205490919060008051602062001ed08339815191529060ff166200036257808352826020526040832082845260205260408320600160ff1982541617905560008051602062001e90833981519152339380a460019056fe6040608081526004908136101561001557600080fd5b600091823560e01c8063012f257a146110f557806301ffc9a7146110a057806316611909146110045780631baf72bf14610fc95780631c364f7f14610fa9578063248a9ca314610f805780632a6739a214610ead5780632f2ff15d14610e8457806336568abe14610e3d578063375f52e414610e1d5780633a2e845a14610d615780633c2df49914610d2657806345f7f24914610d075780634a0bbabb14610ce55780634fc6c75314610ae85780635dd26add14610a4f57806362a2a47c14610a1457806368a806c4146109cf57806371f3588d146109a9578063764c42301461088f57806377003194146107f4578063773df151146107d75780637adbf973146106e75780637dc0d1d0146106be57806385b30e181461067857806391d1485414610634578063a217fddf14610619578063d547741f146105db578063de1409ce146105b2578063e67736bf14610589578063ed1f3e4c14610428578063f3bddde114610409578063fab9300e14610255578063fb5b3db7146102245763fdc9a038146101a257600080fd5b829134610220576020366003190112610220576101bd611682565b6007546001600160a01b031691823b1561021b5783926024849284519586938492630852cd8d60e31b84528035908401525af190811561021257506101ff5750f35b610208906112d5565b61020f5780f35b80fd5b513d84823e3d90fd5b505050fd5b5050fd5b5050346102515760203660031901126102515760209061024a610245611274565b611661565b9051908152f35b5080fd5b5082903461025157610266366112a0565b610274959295939193611682565b6007546001600160a01b0396908716858816146103f957868116966102a6886000526004602052604060002054151590565b156103e2578697816008541660208751809263e00cb4a560e01b825281806102e68d8b8d84019092916020906040830194835260018060a01b0316910152565b03915afa9081156103d857899161039a575b509061032f610309610338936114a8565b9161031e836103178361187e565b905061149b565b818c526005602052898c20556118fb565b5060065461149b565b6006556008541690813b1561039657845163627160f360e11b81526001600160a01b039182169481019485526020850193909352909416604083015292849184919082908490829060600103925af190811561021257506101ff5750f35b8680fd5b919850506020813d6020116103d0575b816103b7602093836112ff565b810103126103cb575188979061032f6102f8565b600080fd5b3d91506103aa565b87513d8b823e3d90fd5b8451631c5620f360e31b8152808501899052602490fd5b8351633e1b3a6d60e01b81528390fd5b5050346102515781600319360112610251576020906002549051908152f35b5034610585578160031936011261058557610441611274565b916024359161044e611682565b6104566115e5565b6001600160a01b039485166000818152600460205260409020549095901561056e5760208791610489876103178a61187e565b888452600583528684205561049d886118fb565b506104aa8760065461149b565b60065560075416604486518094819363a9059cbb60e01b83528b898401528a60248401525af1801561056457610535575b506104e46115e5565b9080820361051c575050507f9b8105582b12481c6193ec3b651067ba5c410f1474d24704b0a67f89086da6149160209151908152a280f35b6044935192637614d04360e11b84528301526024820152fd5b6105569060203d60201161055d575b61054e81836112ff565b8101906115cd565b50386104db565b503d610544565b84513d89823e3d90fd5b8351631c5620f360e31b8152808401879052602490fd5b8280fd5b50503461025157816003193601126102515760085490516001600160a01b039091168152602090f35b50503461025157816003193601126102515760075490516001600160a01b039091168152602090f35b509034610585578060031936011261058557610615913561061060016105ff61128a565b938387528660205286200154611736565b611809565b5080f35b50503461025157816003193601126102515751908152602090f35b50346105855781600319360112610585578160209361065161128a565b92358152808552209060018060a01b0316600052825260ff81600020541690519015158152f35b505034610251576020366003190112610251576020906106b56001600160a01b036106a1611274565b166000526004602052604060002054151590565b90519015158152f35b50503461025157816003193601126102515760015490516001600160a01b039091168152602090f35b50346105855760203660031901126105855780356001600160a01b03811692908390036107d3576107166116fc565b8051638c89b64f60e01b8152906020828481875afa9182156107c9578592610795575b50600254809203610780575050600180546001600160a01b03191683179055507f3f32684a32a11dabdbb8c0177de80aa3ae36a004d75210335b49e544e48cd0aa8280a280f35b51639b6812b960e01b81529182015260249150fd5b9091506020813d6020116107c1575b816107b1602093836112ff565b810103126103cb57519038610739565b3d91506107a4565b81513d87823e3d90fd5b8380fd5b50503461025157816003193601126102515760209061024a6115e5565b5090346105855760203660031901126105855761080f611274565b6108176116fc565b6001600160a01b031660008181526004602052604090205490929061087a575060207f2017a03d63122e396be484633b7d9ed729e8fabe2e0587ccd5e42d8bfde8670091838552600582528481812055610870846118fb565b505160018152a280f35b82602492519163ad2a3c3160e01b8352820152fd5b50346105855781600319360112610585576108a8611274565b91602435916108b5611682565b6108bd6115e5565b6001600160a01b039485169486906020906108d78861187e565b90508781610984575b6108ed9150600654611321565b6006556007541660648651809481936323b872dd60e01b83528b898401523060248401528a60448401525af1801561056457610965575b5061092d6115e5565b9080820361051c575050507fc57e1ebcdc3ba533a9852552e139d8119d9599c48177705d00b4100a32c046d89160209151908152a280f35b61097d9060203d60201161055d5761054e81836112ff565b5038610924565b61098d91611321565b88845260058352868420556109a1886118fb565b5038876108e0565b5050346102515760203660031901126102515760209061024a6109ca611274565b61153b565b833461020f57602036600319011261020f576109e9611274565b6109f16116fc565b60018060a01b03166bffffffffffffffffffffffff60a01b600854161760085580f35b505034610251578160031936011261025157602090517f2dca0f5ce7e75a4b43fe2b0d6f5d0b7a2bf92ecf89f8f0aa17b8308b670388218152f35b5091903461025157816003193601126102515760035482805b828110610a79576020858551908152f35b610a828161175c565b506001600160a01b038116600090815260046020526040902054610aaa575b50600101610a68565b610ab69095919561153b565b90828282019283129112908015821691151617610ad557936001610aa1565b634e487b7160e01b825260118652602482fd5b50919034610251576080366003190112610251576001600160a01b03918335838116919082900361020f57610b1b61128a565b60443594851685036103cb57606435907f2dca0f5ce7e75a4b43fe2b0d6f5d0b7a2bf92ecf89f8f0aa17b8308b670388219687600052602097600089528660002033600052895260ff87600020541615610cc85750855163e00cb4a560e01b81528181018481526001600160a01b03891660208201529097908990899081906040010381895afa978815610cbe578598610c8f575b50610bba8661153b565b858113801590610c86575b610c6a5750853b15610c6657865163627160f360e11b81526001600160a01b0393841692810192835260208301949094529091166040820152829082908190606001038183875af18015610c5c57610c48575b50507f124fd12bda4dcb813885ca782fb4ea9350d4f752b1a881cadf8742d8f128bb8e848351858152a251908152f35b610c5282916112d5565b61020f5780610c18565b84513d84823e3d90fd5b8480fd5b826044918a8a5192631d7ed6ef60e11b84528301526024820152fd5b50808913610bc5565b9097508881813d8311610cb7575b610ca781836112ff565b810103126103cb57519638610bb0565b503d610c9d565b87513d87823e3d90fd5b6044925086519163e2517d3f60e01b835233908301526024820152fd5b83823461025157602036600319011261025157610d006116fc565b3560025580f35b5050346102515781600319360112610251576020906006549051908152f35b505034610251578160031936011261025157602090517fc304524b36c64136ce5783ff1658be193c8352a90708830b9863880958c1fddd8152f35b82843461020f578060031936011261020f579080519182906003549182855260208095018093600384527fc2575a0e9e593c00f959f8c92f12db2869c3395a3b0502d05e2516446f71f85b90845b818110610e095750505081610dc59103826112ff565b83519485948186019282875251809352850193925b828110610de957505050500390f35b83516001600160a01b031685528695509381019392810192600101610dda565b825484529288019260019283019201610daf565b50913461020f57602036600319011261020f575061024a602092356114a8565b50919034610251578060031936011261025157610e5861128a565b90336001600160a01b03831603610e755750610615919235611809565b5163334bd91960e11b81528390fd5b5090346105855780600319360112610585576106159135610ea860016105ff61128a565b61178b565b50919034610251578160031936011261025157818093600354945b858110610ed9576020858551908152f35b610ee28161175c565b506001600160a01b0316600081815260046020526040902054610f09575b50600101610ec8565b849591955180916315339cd160e11b8252818560209485935afa918215610f76578592610f46575b5050610f3f9060019261149b565b9490610f00565b90809250813d8311610f6f575b610f5d81836112ff565b810103126103cb575181610f3f610f31565b503d610f53565b86513d87823e3d90fd5b503461058557602036600319011261058557816020936001923581528085522001549051908152f35b50913461020f57602036600319011261020f575061024a602092356113a1565b505034610251578160031936011261025157602090517f00000000000000000000000000000000000000000000000000000000000000008152f35b5090346105855760203660031901126105855761101f611274565b6110276116fc565b6001600160a01b03166000818152600460205260409020549092901561108b575060207f2017a03d63122e396be484633b7d9ed729e8fabe2e0587ccd5e42d8bfde8670091838552600582526000818620556110828461197d565b5051848152a280f35b826024925191631c5620f360e31b8352820152fd5b503461058557602036600319011261058557359063ffffffff60e01b82168092036105855760209250637965db0b60e01b82149182156110e4575b50519015158152f35b6301ffc9a760e01b149150386110db565b50903461058557611105366112a0565b919093611110611682565b6007546001600160a01b039081168682161461126557600854855163e00cb4a560e01b81528084018681526001600160a01b0389166020828101919091528a9796959493909183918516908290819060400103915afa90811561125b5782908792611221575b506111836111b8926114a8565b94169361119a816111938761187e565b9050611321565b8588526005602052888820556111af856118fb565b50600654611321565b6006556008541690823b15610c6657855163627160f360e11b81526001600160a01b03928316918101918252602082019490945295166040860152909384919082908490829060600103925af19081156102125750611215575080f35b61121e906112d5565b80f35b9150506020813d602011611253575b8161123d602093836112ff565b8101031261124f575181611183611176565b8580fd5b3d9150611230565b87513d88823e3d90fd5b508351633e1b3a6d60e01b8152fd5b600435906001600160a01b03821682036103cb57565b602435906001600160a01b03821682036103cb57565b60609060031901126103cb576001600160a01b039060043582811681036103cb579160243590811681036103cb579060443590565b67ffffffffffffffff81116112e957604052565b634e487b7160e01b600052604160045260246000fd5b90601f8019910116810190811067ffffffffffffffff8211176112e957604052565b9190820391821161132e57565b634e487b7160e01b600052601160045260246000fd5b908160209103126103cb575160ff811681036103cb5790565b8181029291811591840414171561132e57565b60ff16604d811161132e57600a0a90565b811561138b570490565b634e487b7160e01b600052601260045260246000fd5b60075460405163313ce56760e01b81526020926001600160a01b03929091908316908481600481855afa93841561146057859160009561146c575b50600154169160246040518094819363b3596f0760e01b835260048301525afa9384156114605760009461142c575b505061141d611429936114239261135d565b91611370565b90611381565b90565b90809450813d8311611459575b61144381836112ff565b810103126103cb5791519161141d61142361140b565b503d611439565b6040513d6000823e3d90fd5b61148d919550823d8411611494575b61148581836112ff565b810190611344565b93386113dc565b503d61147b565b9190820180921161132e57565b60075460405163313ce56760e01b81529190602090839060049082906001600160a01b03165afa908115611460576114ef6114f5926114299460009161151c575b50611370565b9061135d565b7f000000000000000000000000000000000000000000000000000000000000000090611381565b611535915060203d6020116114945761148581836112ff565b386114e9565b6040516306a61f7560e51b8152906020826004816001600160a01b0385165afa91821561146057600092611597575b5061157761157c91611661565b6113a1565b906000828203921281831281169183139015161761132e5790565b90916020823d6020116115c5575b816115b2602093836112ff565b8101031261020f5750519061157761156a565b3d91506115a5565b908160209103126103cb575180151581036103cb5790565b6007546040516370a0823160e01b815230600482015290602090829060249082906001600160a01b03165afa80156114605760009061162d575b61142991506006549061149b565b506020813d602011611659575b81611647602093836112ff565b810103126103cb57611429905161161f565b3d915061163a565b611673906001600160a01b031661187e565b901561167c5790565b50600090565b3360009081527f3e202b319ce29fc3d407c763c9df930d4929e19b1d8f64d08ac659c98dd25ce360205260409020547fc304524b36c64136ce5783ff1658be193c8352a90708830b9863880958c1fddd9060ff16156116de5750565b6044906040519063e2517d3f60e01b82523360048301526024820152fd5b3360009081527fad3228b676f7d3cd4284a5443f17f1962b36e491b30a40b2405849e597ba5fb5602052604081205460ff16156116de5750565b80600052600060205260406000203360005260205260ff60406000205416156116de5750565b611765906118ae565b905460039190911b1c6000818152600560205260409020546001600160a01b0390911691565b9060009180835282602052604083209160018060a01b03169182845260205260ff6040842054161560001461180457808352826020526040832082845260205260408320600160ff198254161790557f2f8788117e7eff1d82e926ec794901d17c78024a50270940304540a733656f0d339380a4600190565b505090565b9060009180835282602052604083209160018060a01b03169182845260205260ff6040842054166000146118045780835282602052604083208284526020526040832060ff1981541690557ff6391f5c32d9c69d2a47ea670b442974b53935d1edc7fd64eb21e047a839171b339380a4600190565b600052600560205260406000205480156000146118a957506004602052604060002054151590600090565b600191565b6003548110156118e55760036000527fc2575a0e9e593c00f959f8c92f12db2869c3395a3b0502d05e2516446f71f85b0190600090565b634e487b7160e01b600052603260045260246000fd5b6000818152600460205260408120546119785760035468010000000000000000811015611964579082611950611939846001604096016003556118ae565b819391549060031b91821b91600019901b19161790565b905560035492815260046020522055600190565b634e487b7160e01b82526041600452602482fd5b905090565b600090808252600490816020526040832054801515600014611a605760001990808201818111611a4d5760035490838201918211611a3a57818103611a07575b50505060035480156119f4578101906119d5826118ae565b909182549160031b1b1916905560035582526020526040812055600190565b634e487b7160e01b855260318452602485fd5b611a25611a16611939936118ae565b90549060031b1c9283926118ae565b905585528360205260408520553880806119bd565b634e487b7160e01b875260118652602487fd5b634e487b7160e01b865260118552602486fd5b5050509056fea26469706673582212208a62ca5db7613b5fc92a4e9bf1a9fb25762c7107fa6e92322607f44b8e2bcbed64736f6c634300081800332f8788117e7eff1d82e926ec794901d17c78024a50270940304540a733656f0dc304524b36c64136ce5783ff1658be193c8352a90708830b9863880958c1fddd2dca0f5ce7e75a4b43fe2b0d6f5d0b7a2bf92ecf89f8f0aa17b8308b67038821",
  "devdoc": {
    "details": "Manages AMOs for dUSD Handles allocation, deallocation, collateral management, and profit management for AMO vaults.",
    "errors": {
      "AccessControlBadConfirmation()": [
        {
          "details": "The caller of a function is not the expected one. NOTE: Don't confuse with {AccessControlUnauthorizedAccount}."
        }
      ],
      "AccessControlUnauthorizedAccount(address,bytes32)": [
        {
          "details": "The `account` is missing a role."
        }
      ]
    },
    "events": {
      "RoleAdminChanged(bytes32,bytes32,bytes32)": {
        "details": "Emitted when `newAdminRole` is set as ``role``'s admin role, replacing `previousAdminRole` `DEFAULT_ADMIN_ROLE` is the starting admin for all roles, despite {RoleAdminChanged} not being emitted signaling this."
      },
      "RoleGranted(bytes32,address,address)": {
        "details": "Emitted when `account` is granted `role`. `sender` is the account that originated the contract call, an admin role bearer except when using {AccessControl-_setupRole}."
      },
      "RoleRevoked(bytes32,address,address)": {
        "details": "Emitted when `account` is revoked `role`. `sender` is the account that originated the contract call:   - if using `revokeRole`, it is the admin role bearer   - if using `renounceRole`, it is the role bearer (i.e. `account`)"
      }
    },
    "kind": "dev",
    "methods": {
      "allocateAmo(address,uint256)": {
        "params": {
          "amoVault": "The address of the AMO vault.",
          "dusdAmount": "The amount of dUSD to allocate."
        }
      },
      "amoVaultAllocation(address)": {
        "params": {
          "amoVault": "The address of the AMO vault."
        },
        "returns": {
          "_0": "The current allocation for the vault."
        }
      },
      "amoVaults()": {
        "returns": {
          "_0": "The list of AMO vault addresses."
        }
      },
      "availableProfitInUsd()": {
        "returns": {
          "_0": "The total available profit in USD."
        }
      },
      "availableVaultProfitsInUsd(address)": {
        "params": {
          "vaultAddress": "The address of the AMO vault to check."
        },
        "returns": {
          "_0": "The available profit in USD (can be negative)."
        }
      },
      "constructor": {
        "params": {
          "_collateralHolderVault": "The address of the collateral holder vault.",
          "_dusd": "The address of the dUSD stablecoin.",
          "_oracle": "The oracle for price feeds."
        }
      },
      "deallocateAmo(address,uint256)": {
        "params": {
          "amoVault": "The address of the AMO vault.",
          "dusdAmount": "The amount of dUSD to deallocate."
        }
      },
      "decreaseAmoSupply(uint256)": {
        "params": {
          "dusdAmount": "The amount of dUSD to burn."
        }
      },
      "disableAmoVault(address)": {
        "params": {
          "amoVault": "The address of the AMO vault."
        }
      },
      "dusdAmountToUsdValue(uint256)": {
        "params": {
          "dusdAmount": "The amount of dUSD tokens to convert."
        },
        "returns": {
          "_0": "The equivalent amount of USD value."
        }
      },
      "enableAmoVault(address)": {
        "params": {
          "amoVault": "The address of the AMO vault."
        }
      },
      "getRoleAdmin(bytes32)": {
        "details": "Returns the admin role that controls `role`. See {grantRole} and {revokeRole}. To change a role's admin, use {_setRoleAdmin}."
      },
      "grantRole(bytes32,address)": {
        "details": "Grants `role` to `account`. If `account` had not been already granted `role`, emits a {RoleGranted} event. Requirements: - the caller must have ``role``'s admin role. May emit a {RoleGranted} event."
      },
      "hasRole(bytes32,address)": {
        "details": "Returns `true` if `account` has been granted `role`."
      },
      "isAmoActive(address)": {
        "params": {
          "amoVault": "The address of the AMO vault to check."
        },
        "returns": {
          "_0": "True if the AMO vault is active, false otherwise."
        }
      },
      "renounceRole(bytes32,address)": {
        "details": "Revokes `role` from the calling account. Roles are often managed via {grantRole} and {revokeRole}: this function's purpose is to provide a mechanism for accounts to lose their privileges if they are compromised (such as when a trusted device is misplaced). If the calling account had been revoked `role`, emits a {RoleRevoked} event. Requirements: - the caller must be `callerConfirmation`. May emit a {RoleRevoked} event."
      },
      "revokeRole(bytes32,address)": {
        "details": "Revokes `role` from `account`. If `account` had been granted `role`, emits a {RoleRevoked} event. Requirements: - the caller must have ``role``'s admin role. May emit a {RoleRevoked} event."
      },
      "setBaseCurrencyUnit(uint256)": {
        "details": "Only used if the oracle's base currency unit changes",
        "params": {
          "_newBaseCurrencyUnit": "The new base currency unit to set"
        }
      },
      "setCollateralVault(address)": {
        "params": {
          "_collateralVault": "The address of the new collateral vault"
        }
      },
      "setOracle(address)": {
        "params": {
          "newOracle": "The new oracle to use"
        }
      },
      "supportsInterface(bytes4)": {
        "details": "See {IERC165-supportsInterface}."
      },
      "totalAmoSupply()": {
        "returns": {
          "_0": "The total AMO supply."
        }
      },
      "totalCollateralValue()": {
        "returns": {
          "_0": "The total collateral value in USD."
        }
      },
      "transferFromAmoVaultToHoldingVault(address,address,uint256)": {
        "params": {
          "amoVault": "The address of the AMO vault.",
          "amount": "The amount of collateral to transfer.",
          "token": "The address of the collateral token to transfer."
        }
      },
      "transferFromHoldingVaultToAmoVault(address,address,uint256)": {
        "params": {
          "amoVault": "The address of the AMO vault.",
          "amount": "The amount of collateral to transfer.",
          "token": "The address of the collateral token to transfer."
        }
      },
      "usdValueToDusdAmount(uint256)": {
        "params": {
          "usdValue": "The amount of USD value to convert."
        },
        "returns": {
          "_0": "The equivalent amount of dUSD tokens."
        }
      },
      "withdrawProfits(address,address,address,uint256)": {
        "params": {
          "amoVault": "The AMO vault from which to withdraw profits.",
          "recipient": "The address to receive the profits.",
          "takeProfitAmount": "The amount of collateral to withdraw.",
          "takeProfitToken": "The collateral token to withdraw."
        },
        "returns": {
          "takeProfitValueInUsd": "The value of the withdrawn profits in USD."
        }
      }
    },
    "title": "AmoManager",
    "version": 1
  },
  "userdoc": {
    "kind": "user",
    "methods": {
      "allocateAmo(address,uint256)": {
        "notice": "Allocates AMO tokens to an AMO vault."
      },
      "amoVaultAllocation(address)": {
        "notice": "Returns the allocation for a specific AMO vault."
      },
      "amoVaults()": {
        "notice": "Returns the list of all AMO vaults."
      },
      "availableProfitInUsd()": {
        "notice": "Returns the total available profit across all AMO vaults in USD."
      },
      "availableVaultProfitsInUsd(address)": {
        "notice": "Returns the available profit for a specific vault in USD."
      },
      "constructor": {
        "notice": "Initializes the AmoManager contract."
      },
      "deallocateAmo(address,uint256)": {
        "notice": "Deallocates AMO tokens from an AMO vault."
      },
      "decreaseAmoSupply(uint256)": {
        "notice": "Decreases the AMO supply by burning dUSD."
      },
      "disableAmoVault(address)": {
        "notice": "Disables an AMO vault."
      },
      "dusdAmountToUsdValue(uint256)": {
        "notice": "Converts an amount of dUSD tokens to an equivalent USD value."
      },
      "enableAmoVault(address)": {
        "notice": "Enables an AMO vault."
      },
      "isAmoActive(address)": {
        "notice": "Checks if an AMO vault is active."
      },
      "setBaseCurrencyUnit(uint256)": {
        "notice": "Updates the base currency unit used for price calculations"
      },
      "setCollateralVault(address)": {
        "notice": "Sets the collateral vault address"
      },
      "setOracle(address)": {
        "notice": "Sets the oracle to use for collateral valuation"
      },
      "totalAmoSupply()": {
        "notice": "Returns the total AMO supply."
      },
      "totalCollateralValue()": {
        "notice": "Returns the total collateral value of all active AMO vaults."
      },
      "transferFromAmoVaultToHoldingVault(address,address,uint256)": {
        "notice": "Transfers collateral from an AMO vault to the holding vault."
      },
      "transferFromHoldingVaultToAmoVault(address,address,uint256)": {
        "notice": "Transfers collateral from the holding vault to an AMO vault."
      },
      "usdValueToDusdAmount(uint256)": {
        "notice": "Converts a USD value to an equivalent amount of dUSD tokens."
      },
      "withdrawProfits(address,address,address,uint256)": {
        "notice": "Withdraws profits from an AMO vault to a recipient."
      }
    },
    "version": 1
  },
  "storageLayout": {
    "storage": [
      {
        "astId": 26,
        "contract": "contracts/dusd/AmoManager.sol:AmoManager",
        "label": "_roles",
        "offset": 0,
        "slot": "0",
        "type": "t_mapping(t_bytes32,t_struct(RoleData)21_storage)"
      },
      {
        "astId": 7017,
        "contract": "contracts/dusd/AmoManager.sol:AmoManager",
        "label": "oracle",
        "offset": 0,
        "slot": "1",
        "type": "t_contract(IPriceOracleGetter)10043"
      },
      {
        "astId": 7019,
        "contract": "contracts/dusd/AmoManager.sol:AmoManager",
        "label": "baseCurrencyUnit",
        "offset": 0,
        "slot": "2",
        "type": "t_uint256"
      },
      {
        "astId": 4088,
        "contract": "contracts/dusd/AmoManager.sol:AmoManager",
        "label": "_amoVaults",
        "offset": 0,
        "slot": "3",
        "type": "t_struct(AddressToUintMap)1876_storage"
      },
      {
        "astId": 4090,
        "contract": "contracts/dusd/AmoManager.sol:AmoManager",
        "label": "totalAllocated",
        "offset": 0,
        "slot": "6",
        "type": "t_uint256"
      },
      {
        "astId": 4093,
        "contract": "contracts/dusd/AmoManager.sol:AmoManager",
        "label": "dusd",
        "offset": 0,
        "slot": "7",
        "type": "t_contract(IERC20Stablecoin)10092"
      },
      {
        "astId": 4096,
        "contract": "contracts/dusd/AmoManager.sol:AmoManager",
        "label": "collateralHolderVault",
        "offset": 0,
        "slot": "8",
        "type": "t_contract(CollateralVault)5660"
      }
    ],
    "types": {
      "t_address": {
        "encoding": "inplace",
        "label": "address",
        "numberOfBytes": "20"
      },
      "t_array(t_bytes32)dyn_storage": {
        "base": "t_bytes32",
        "encoding": "dynamic_array",
        "label": "bytes32[]",
        "numberOfBytes": "32"
      },
      "t_bool": {
        "encoding": "inplace",
        "label": "bool",
        "numberOfBytes": "1"
      },
      "t_bytes32": {
        "encoding": "inplace",
        "label": "bytes32",
        "numberOfBytes": "32"
      },
      "t_contract(CollateralVault)5660": {
        "encoding": "inplace",
        "label": "contract CollateralVault",
        "numberOfBytes": "20"
      },
      "t_contract(IERC20Stablecoin)10092": {
        "encoding": "inplace",
        "label": "contract IERC20Stablecoin",
        "numberOfBytes": "20"
      },
      "t_contract(IPriceOracleGetter)10043": {
        "encoding": "inplace",
        "label": "contract IPriceOracleGetter",
        "numberOfBytes": "20"
      },
      "t_mapping(t_address,t_bool)": {
        "encoding": "mapping",
        "key": "t_address",
        "label": "mapping(address => bool)",
        "numberOfBytes": "32",
        "value": "t_bool"
      },
      "t_mapping(t_bytes32,t_bytes32)": {
        "encoding": "mapping",
        "key": "t_bytes32",
        "label": "mapping(bytes32 => bytes32)",
        "numberOfBytes": "32",
        "value": "t_bytes32"
      },
      "t_mapping(t_bytes32,t_struct(RoleData)21_storage)": {
        "encoding": "mapping",
        "key": "t_bytes32",
        "label": "mapping(bytes32 => struct AccessControl.RoleData)",
        "numberOfBytes": "32",
        "value": "t_struct(RoleData)21_storage"
      },
      "t_mapping(t_bytes32,t_uint256)": {
        "encoding": "mapping",
        "key": "t_bytes32",
        "label": "mapping(bytes32 => uint256)",
        "numberOfBytes": "32",
        "value": "t_uint256"
      },
      "t_struct(AddressToUintMap)1876_storage": {
        "encoding": "inplace",
        "label": "struct EnumerableMap.AddressToUintMap",
        "members": [
          {
            "astId": 1875,
            "contract": "contracts/dusd/AmoManager.sol:AmoManager",
            "label": "_inner",
            "offset": 0,
            "slot": "0",
            "type": "t_struct(Bytes32ToBytes32Map)1218_storage"
          }
        ],
        "numberOfBytes": "96"
      },
      "t_struct(Bytes32Set)2516_storage": {
        "encoding": "inplace",
        "label": "struct EnumerableSet.Bytes32Set",
        "members": [
          {
            "astId": 2515,
            "contract": "contracts/dusd/AmoManager.sol:AmoManager",
            "label": "_inner",
            "offset": 0,
            "slot": "0",
            "type": "t_struct(Set)2322_storage"
          }
        ],
        "numberOfBytes": "64"
      },
      "t_struct(Bytes32ToBytes32Map)1218_storage": {
        "encoding": "inplace",
        "label": "struct EnumerableMap.Bytes32ToBytes32Map",
        "members": [
          {
            "astId": 1213,
            "contract": "contracts/dusd/AmoManager.sol:AmoManager",
            "label": "_keys",
            "offset": 0,
            "slot": "0",
            "type": "t_struct(Bytes32Set)2516_storage"
          },
          {
            "astId": 1217,
            "contract": "contracts/dusd/AmoManager.sol:AmoManager",
            "label": "_values",
            "offset": 0,
            "slot": "2",
            "type": "t_mapping(t_bytes32,t_bytes32)"
          }
        ],
        "numberOfBytes": "96"
      },
      "t_struct(RoleData)21_storage": {
        "encoding": "inplace",
        "label": "struct AccessControl.RoleData",
        "members": [
          {
            "astId": 18,
            "contract": "contracts/dusd/AmoManager.sol:AmoManager",
            "label": "hasRole",
            "offset": 0,
            "slot": "0",
            "type": "t_mapping(t_address,t_bool)"
          },
          {
            "astId": 20,
            "contract": "contracts/dusd/AmoManager.sol:AmoManager",
            "label": "adminRole",
            "offset": 0,
            "slot": "1",
            "type": "t_bytes32"
          }
        ],
        "numberOfBytes": "64"
      },
      "t_struct(Set)2322_storage": {
        "encoding": "inplace",
        "label": "struct EnumerableSet.Set",
        "members": [
          {
            "astId": 2317,
            "contract": "contracts/dusd/AmoManager.sol:AmoManager",
            "label": "_values",
            "offset": 0,
            "slot": "0",
            "type": "t_array(t_bytes32)dyn_storage"
          },
          {
            "astId": 2321,
            "contract": "contracts/dusd/AmoManager.sol:AmoManager",
            "label": "_positions",
            "offset": 0,
            "slot": "1",
            "type": "t_mapping(t_bytes32,t_uint256)"
          }
        ],
        "numberOfBytes": "64"
      },
      "t_uint256": {
        "encoding": "inplace",
        "label": "uint256",
        "numberOfBytes": "32"
      }
    }
  }
}