{
  "address": "0x68E1085A7639e80257f7f159A611Dd944278A24e",
  "abi": [
    {
      "inputs": [
        {
          "internalType": "uint256",
          "name": "_baseCurrencyUnit",
          "type": "uint256"
        }
      ],
      "stateMutability": "nonpayable",
      "type": "constructor"
    },
    {
      "inputs": [],
      "name": "AccessControlBadConfirmation",
      "type": "error"
    },
    {
      "inputs": [
        {
          "internalType": "address",
          "name": "account",
          "type": "address"
        },
        {
          "internalType": "bytes32",
          "name": "neededRole",
          "type": "bytes32"
        }
      ],
      "name": "AccessControlUnauthorizedAccount",
      "type": "error"
    },
    {
      "inputs": [],
      "name": "PriceIsStale",
      "type": "error"
    },
    {
      "inputs": [
        {
          "internalType": "address",
          "name": "asset",
          "type": "address"
        }
      ],
      "name": "ProxyNotSet",
      "type": "error"
    },
    {
      "anonymous": false,
      "inputs": [
        {
          "indexed": true,
          "internalType": "bytes32",
          "name": "role",
          "type": "bytes32"
        },
        {
          "indexed": true,
          "internalType": "bytes32",
          "name": "previousAdminRole",
          "type": "bytes32"
        },
        {
          "indexed": true,
          "internalType": "bytes32",
          "name": "newAdminRole",
          "type": "bytes32"
        }
      ],
      "name": "RoleAdminChanged",
      "type": "event"
    },
    {
      "anonymous": false,
      "inputs": [
        {
          "indexed": true,
          "internalType": "bytes32",
          "name": "role",
          "type": "bytes32"
        },
        {
          "indexed": true,
          "internalType": "address",
          "name": "account",
          "type": "address"
        },
        {
          "indexed": true,
          "internalType": "address",
          "name": "sender",
          "type": "address"
        }
      ],
      "name": "RoleGranted",
      "type": "event"
    },
    {
      "anonymous": false,
      "inputs": [
        {
          "indexed": true,
          "internalType": "bytes32",
          "name": "role",
          "type": "bytes32"
        },
        {
          "indexed": true,
          "internalType": "address",
          "name": "account",
          "type": "address"
        },
        {
          "indexed": true,
          "internalType": "address",
          "name": "sender",
          "type": "address"
        }
      ],
      "name": "RoleRevoked",
      "type": "event"
    },
    {
      "anonymous": false,
      "inputs": [
        {
          "indexed": true,
          "internalType": "address",
          "name": "asset",
          "type": "address"
        }
      ],
      "name": "ThresholdConfigRemoved",
      "type": "event"
    },
    {
      "anonymous": false,
      "inputs": [
        {
          "indexed": true,
          "internalType": "address",
          "name": "asset",
          "type": "address"
        },
        {
          "indexed": false,
          "internalType": "uint256",
          "name": "lowerThresholdInBase",
          "type": "uint256"
        },
        {
          "indexed": false,
          "internalType": "uint256",
          "name": "fixedPriceInBase",
          "type": "uint256"
        }
      ],
      "name": "ThresholdConfigSet",
      "type": "event"
    },
    {
      "inputs": [],
      "name": "API3_BASE_CURRENCY_UNIT",
      "outputs": [
        {
          "internalType": "uint256",
          "name": "",
          "type": "uint256"
        }
      ],
      "stateMutability": "view",
      "type": "function"
    },
    {
      "inputs": [],
      "name": "API3_HEARTBEAT",
      "outputs": [
        {
          "internalType": "uint256",
          "name": "",
          "type": "uint256"
        }
      ],
      "stateMutability": "view",
      "type": "function"
    },
    {
      "inputs": [],
      "name": "BASE_CURRENCY",
      "outputs": [
        {
          "internalType": "address",
          "name": "",
          "type": "address"
        }
      ],
      "stateMutability": "view",
      "type": "function"
    },
    {
      "inputs": [],
      "name": "BASE_CURRENCY_UNIT",
      "outputs": [
        {
          "internalType": "uint256",
          "name": "",
          "type": "uint256"
        }
      ],
      "stateMutability": "view",
      "type": "function"
    },
    {
      "inputs": [],
      "name": "DEFAULT_ADMIN_ROLE",
      "outputs": [
        {
          "internalType": "bytes32",
          "name": "",
          "type": "bytes32"
        }
      ],
      "stateMutability": "view",
      "type": "function"
    },
    {
      "inputs": [],
      "name": "ORACLE_MANAGER_ROLE",
      "outputs": [
        {
          "internalType": "bytes32",
          "name": "",
          "type": "bytes32"
        }
      ],
      "stateMutability": "view",
      "type": "function"
    },
    {
      "inputs": [
        {
          "internalType": "address",
          "name": "",
          "type": "address"
        }
      ],
      "name": "assetThresholds",
      "outputs": [
        {
          "internalType": "uint256",
          "name": "lowerThresholdInBase",
          "type": "uint256"
        },
        {
          "internalType": "uint256",
          "name": "fixedPriceInBase",
          "type": "uint256"
        }
      ],
      "stateMutability": "view",
      "type": "function"
    },
    {
      "inputs": [
        {
          "internalType": "address",
          "name": "",
          "type": "address"
        }
      ],
      "name": "assetToProxy",
      "outputs": [
        {
          "internalType": "contract IProxy",
          "name": "",
          "type": "address"
        }
      ],
      "stateMutability": "view",
      "type": "function"
    },
    {
      "inputs": [
        {
          "internalType": "address",
          "name": "asset",
          "type": "address"
        }
      ],
      "name": "getAssetPrice",
      "outputs": [
        {
          "internalType": "uint256",
          "name": "",
          "type": "uint256"
        }
      ],
      "stateMutability": "view",
      "type": "function"
    },
    {
      "inputs": [
        {
          "internalType": "address",
          "name": "asset",
          "type": "address"
        }
      ],
      "name": "getPriceInfo",
      "outputs": [
        {
          "internalType": "uint256",
          "name": "price",
          "type": "uint256"
        },
        {
          "internalType": "bool",
          "name": "isAlive",
          "type": "bool"
        }
      ],
      "stateMutability": "view",
      "type": "function"
    },
    {
      "inputs": [
        {
          "internalType": "bytes32",
          "name": "role",
          "type": "bytes32"
        }
      ],
      "name": "getRoleAdmin",
      "outputs": [
        {
          "internalType": "bytes32",
          "name": "",
          "type": "bytes32"
        }
      ],
      "stateMutability": "view",
      "type": "function"
    },
    {
      "inputs": [
        {
          "internalType": "bytes32",
          "name": "role",
          "type": "bytes32"
        },
        {
          "internalType": "address",
          "name": "account",
          "type": "address"
        }
      ],
      "name": "grantRole",
      "outputs": [],
      "stateMutability": "nonpayable",
      "type": "function"
    },
    {
      "inputs": [
        {
          "internalType": "bytes32",
          "name": "role",
          "type": "bytes32"
        },
        {
          "internalType": "address",
          "name": "account",
          "type": "address"
        }
      ],
      "name": "hasRole",
      "outputs": [
        {
          "internalType": "bool",
          "name": "",
          "type": "bool"
        }
      ],
      "stateMutability": "view",
      "type": "function"
    },
    {
      "inputs": [],
      "name": "heartbeatStaleTimeLimit",
      "outputs": [
        {
          "internalType": "uint256",
          "name": "",
          "type": "uint256"
        }
      ],
      "stateMutability": "view",
      "type": "function"
    },
    {
      "inputs": [
        {
          "internalType": "address",
          "name": "asset",
          "type": "address"
        }
      ],
      "name": "removeThresholdConfig",
      "outputs": [],
      "stateMutability": "nonpayable",
      "type": "function"
    },
    {
      "inputs": [
        {
          "internalType": "bytes32",
          "name": "role",
          "type": "bytes32"
        },
        {
          "internalType": "address",
          "name": "callerConfirmation",
          "type": "address"
        }
      ],
      "name": "renounceRole",
      "outputs": [],
      "stateMutability": "nonpayable",
      "type": "function"
    },
    {
      "inputs": [
        {
          "internalType": "bytes32",
          "name": "role",
          "type": "bytes32"
        },
        {
          "internalType": "address",
          "name": "account",
          "type": "address"
        }
      ],
      "name": "revokeRole",
      "outputs": [],
      "stateMutability": "nonpayable",
      "type": "function"
    },
    {
      "inputs": [
        {
          "internalType": "uint256",
          "name": "_newHeartbeatStaleTimeLimit",
          "type": "uint256"
        }
      ],
      "name": "setHeartbeatStaleTimeLimit",
      "outputs": [],
      "stateMutability": "nonpayable",
      "type": "function"
    },
    {
      "inputs": [
        {
          "internalType": "address",
          "name": "asset",
          "type": "address"
        },
        {
          "internalType": "address",
          "name": "proxy",
          "type": "address"
        }
      ],
      "name": "setProxy",
      "outputs": [],
      "stateMutability": "nonpayable",
      "type": "function"
    },
    {
      "inputs": [
        {
          "internalType": "address",
          "name": "asset",
          "type": "address"
        },
        {
          "internalType": "uint256",
          "name": "lowerThresholdInBase",
          "type": "uint256"
        },
        {
          "internalType": "uint256",
          "name": "fixedPriceInBase",
          "type": "uint256"
        }
      ],
      "name": "setThresholdConfig",
      "outputs": [],
      "stateMutability": "nonpayable",
      "type": "function"
    },
    {
      "inputs": [
        {
          "internalType": "bytes4",
          "name": "interfaceId",
          "type": "bytes4"
        }
      ],
      "name": "supportsInterface",
      "outputs": [
        {
          "internalType": "bool",
          "name": "",
          "type": "bool"
        }
      ],
      "stateMutability": "view",
      "type": "function"
    }
  ],
  "transactionHash": "0x19ee50e4f92897b459f6883e0bc301c74b76fe32f69e850b496d42cdbceda0fe",
  "args": [
    "100000000"
  ],
  "numDeployments": 1,
  "solcInputHash": "08d5dcc0675f5b659c665bb5e1e5a9ec",
  "bytecode": "0x60a03461007b57601f610c1038819003918201601f19168301916001600160401b038311848410176100805780849260209460405283398101031261007b575161070860015560805261005133610096565b5061005b33610114565b50604051610a3b90816101b5823960805181818161041c01526108550152f35b600080fd5b634e487b7160e01b600052604160045260246000fd5b6001600160a01b031660008181527fad3228b676f7d3cd4284a5443f17f1962b36e491b30a40b2405849e597ba5fb5602052604081205490919060ff1661011057818052816020526040822081835260205260408220600160ff198254161790553391600080516020610bf08339815191528180a4600190565b5090565b6001600160a01b031660008181527ffb8036e0bab3828a1a1cce97396031bc7ea8a361699e1bc9c4844f3aeee78d6e60205260408120549091907fced6982f480260bdd8ad5cb18ff2854f0306d78d904ad6cc107e8f3a0f526c189060ff166101af57808352826020526040832082845260205260408320600160ff19825416179055600080516020610bf0833981519152339380a4600190565b50509056fe608060408181526004918236101561001657600080fd5b600092833560e01c91826301ffc9a71461059757508163042818f914610533578163248a9ca314610509578163276d9959146104ce5781632ecac6fc146104af5781632f2ff15d1461048557816336568abe1461043f5781638c89b64f146104045781638edbf436146103d75781638f7af4211461034b57816391d1485414610305578163a217fddf146102ea578163a794d152146102a8578163a9d4630c14610250578163b3596f0714610208578163bfc69e1c146101cd578163c5efe27c146101ab578163d547741f1461016857508063e19f47001461014e578063fbff771c1461012c5763ffceb4151461010c57600080fd5b3461012857816003193601126101285760209051620151808152f35b5080fd5b503461012857816003193601126101285760209051670de0b6b3a76400008152f35b503461012857816003193601126101285751908152602090f35b919050346101a757806003193601126101a7576101a3913561019e600161018d610605565b938387528660205286200154610695565b610739565b5080f35b8280fd5b839034610128576020366003190112610128576101c661061b565b3560015580f35b505034610128578160031936011261012857602090517fced6982f480260bdd8ad5cb18ff2854f0306d78d904ad6cc107e8f3a0f526c188152f35b82843461024d57602036600319011261024d575061022c6102276105ea565b6107e0565b9190911561023e576020925051908152f35b516342bc305b60e11b81529050fd5b80fd5b50503461012857806003193601126101285761026a6105ea565b610272610605565b9161027b61061b565b6001600160a01b0391821684526002602052832080546001600160a01b0319169290911691909117905580f35b505034610128576020366003190112610128579081906001600160a01b036102ce6105ea565b1681526003602052206001815491015482519182526020820152f35b50503461012857816003193601126101285751908152602090f35b9050346101a757816003193601126101a7578160209360ff92610326610605565b903582528186528282206001600160a01b039091168252855220549151911615158152f35b505034610128576060366003190112610128577fc7f1785f536ea381a57caaf882172a5df51535dc45cf06657813919e3cf535e36103876105ea565b9160243560443561039661061b565b82516103a1816107ae565b82815260016020820196838852818060a01b0316968789526003602052858920925183555191015582519182526020820152a280f35b82843461024d57602036600319011261024d57506103f66102276105ea565b825191825215156020820152f35b505034610128578160031936011261012857602090517f00000000000000000000000000000000000000000000000000000000000000008152f35b838334610128578060031936011261012857610459610605565b90336001600160a01b0383160361047657506101a3919235610739565b5163334bd91960e11b81528390fd5b919050346101a757806003193601126101a7576101a391356104aa600161018d610605565b6106bb565b5050346101285781600319360112610128576020906001549051908152f35b505034610128576020366003190112610128576020916001600160a01b03908290826104f86105ea565b168152600285522054169051908152f35b9050346101a75760203660031901126101a757816020936001923581528085522001549051908152f35b505034610128576020366003190112610128578160016105516105ea565b61055961061b565b818060a01b0316928383526003602052822082815501557fe33ca422cb32fc509d95272b11d42c89c665a8968c21a483226b773e18c072f18280a280f35b8491346101a75760203660031901126101a7573563ffffffff60e01b81168091036101a75760209250637965db0b60e01b81149081156105d9575b5015158152f35b6301ffc9a760e01b149050836105d2565b600435906001600160a01b038216820361060057565b600080fd5b602435906001600160a01b038216820361060057565b3360009081527ffb8036e0bab3828a1a1cce97396031bc7ea8a361699e1bc9c4844f3aeee78d6e60205260409020547fced6982f480260bdd8ad5cb18ff2854f0306d78d904ad6cc107e8f3a0f526c189060ff16156106775750565b6044906040519063e2517d3f60e01b82523360048301526024820152fd5b80600052600060205260406000203360005260205260ff60406000205416156106775750565b9060009180835282602052604083209160018060a01b03169182845260205260ff6040842054161560001461073457808352826020526040832082845260205260408320600160ff198254161790557f2f8788117e7eff1d82e926ec794901d17c78024a50270940304540a733656f0d339380a4600190565b505090565b9060009180835282602052604083209160018060a01b03169182845260205260ff6040842054166000146107345780835282602052604083208284526020526040832060ff1981541690557ff6391f5c32d9c69d2a47ea670b442974b53935d1edc7fd64eb21e047a839171b339380a4600190565b6040810190811067ffffffffffffffff8211176107ca57604052565b634e487b7160e01b600052604160045260246000fd5b6001600160a01b0390811660008181526002602052604080822054909316939092909184156109d957816004958151968780926315f789a960e21b82525afa9485156109cf5784908596610950575b508481601b0b13600014610949576001600160e01b03165b8015801596876108f4575b507f00000000000000000000000000000000000000000000000000000000000000008083029283041417156108e057670de0b6b3a76400009004908594829661089c575b50505050565b839181526003602052209151916108b2836107ae565b6001815491828552015460208401526108cd575b8080610896565b6108d89294506109ef565b9138806108c6565b634e487b7160e01b85526011600452602485fd5b63ffffffff9197501662015180808201918281116109355760015401018091116109215742109538610852565b634e487b7160e01b86526011600452602486fd5b634e487b7160e01b88526011600452602488fd5b5083610847565b955050813d83116109c8575b601f8101601f1916860167ffffffffffffffff8111878210176109b457839187918352810103126109b05784519485601b0b86036109ac57602001519463ffffffff861686036109ac573861082f565b8480fd5b8380fd5b634e487b7160e01b86526041600452602486fd5b503d61095c565b82513d86823e3d90fd5b60249151906326a5df8d60e01b82526004820152fd5b90805182116109fc575090565b6020915001519056fea2646970667358221220d02908414c0a9f932ebbf01c97304284903e0a64c0f900bd6b6d2b849c09918164736f6c634300081400332f8788117e7eff1d82e926ec794901d17c78024a50270940304540a733656f0d",
  "devdoc": {
    "errors": {
      "AccessControlBadConfirmation()": [
        {
          "details": "The caller of a function is not the expected one. NOTE: Don't confuse with {AccessControlUnauthorizedAccount}."
        }
      ],
      "AccessControlUnauthorizedAccount(address,bytes32)": [
        {
          "details": "The `account` is missing a role."
        }
      ]
    },
    "events": {
      "RoleAdminChanged(bytes32,bytes32,bytes32)": {
        "details": "Emitted when `newAdminRole` is set as ``role``'s admin role, replacing `previousAdminRole` `DEFAULT_ADMIN_ROLE` is the starting admin for all roles, despite {RoleAdminChanged} not being emitted signaling this."
      },
      "RoleGranted(bytes32,address,address)": {
        "details": "Emitted when `account` is granted `role`. `sender` is the account that originated the contract call, an admin role bearer except when using {AccessControl-_setupRole}."
      },
      "RoleRevoked(bytes32,address,address)": {
        "details": "Emitted when `account` is revoked `role`. `sender` is the account that originated the contract call:   - if using `revokeRole`, it is the admin role bearer   - if using `renounceRole`, it is the role bearer (i.e. `account`)"
      }
    },
    "kind": "dev",
    "methods": {
      "getAssetPrice(address)": {
        "params": {
          "asset": "The address of the asset"
        },
        "returns": {
          "_0": "The price of the asset"
        }
      },
      "getRoleAdmin(bytes32)": {
        "details": "Returns the admin role that controls `role`. See {grantRole} and {revokeRole}. To change a role's admin, use {_setRoleAdmin}."
      },
      "grantRole(bytes32,address)": {
        "details": "Grants `role` to `account`. If `account` had not been already granted `role`, emits a {RoleGranted} event. Requirements: - the caller must have ``role``'s admin role. May emit a {RoleGranted} event."
      },
      "hasRole(bytes32,address)": {
        "details": "Returns `true` if `account` has been granted `role`."
      },
      "renounceRole(bytes32,address)": {
        "details": "Revokes `role` from the calling account. Roles are often managed via {grantRole} and {revokeRole}: this function's purpose is to provide a mechanism for accounts to lose their privileges if they are compromised (such as when a trusted device is misplaced). If the calling account had been revoked `role`, emits a {RoleRevoked} event. Requirements: - the caller must be `callerConfirmation`. May emit a {RoleRevoked} event."
      },
      "revokeRole(bytes32,address)": {
        "details": "Revokes `role` from `account`. If `account` had been granted `role`, emits a {RoleRevoked} event. Requirements: - the caller must have ``role``'s admin role. May emit a {RoleRevoked} event."
      },
      "supportsInterface(bytes4)": {
        "details": "See {IERC165-supportsInterface}."
      }
    },
    "version": 1
  },
  "userdoc": {
    "kind": "user",
    "methods": {
      "BASE_CURRENCY()": {
        "notice": "Returns the base currency address"
      },
      "BASE_CURRENCY_UNIT()": {
        "notice": "Returns the base currency unit"
      },
      "getAssetPrice(address)": {
        "notice": "Returns the asset price in the base currency"
      }
    },
    "version": 1
  },
  "storageLayout": {
    "storage": [
      {
        "astId": 26,
        "contract": "contracts/oracle_aggregator/wrapper/API3WrapperWithThresholding.sol:API3WrapperWithThresholding",
        "label": "_roles",
        "offset": 0,
        "slot": "0",
        "type": "t_mapping(t_bytes32,t_struct(RoleData)21_storage)"
      },
      {
        "astId": 763,
        "contract": "contracts/oracle_aggregator/wrapper/API3WrapperWithThresholding.sol:API3WrapperWithThresholding",
        "label": "heartbeatStaleTimeLimit",
        "offset": 0,
        "slot": "1",
        "type": "t_uint256"
      },
      {
        "astId": 1950,
        "contract": "contracts/oracle_aggregator/wrapper/API3WrapperWithThresholding.sol:API3WrapperWithThresholding",
        "label": "assetToProxy",
        "offset": 0,
        "slot": "2",
        "type": "t_mapping(t_address,t_contract(IProxy)873)"
      },
      {
        "astId": 2074,
        "contract": "contracts/oracle_aggregator/wrapper/API3WrapperWithThresholding.sol:API3WrapperWithThresholding",
        "label": "assetThresholds",
        "offset": 0,
        "slot": "3",
        "type": "t_mapping(t_address,t_struct(ThresholdConfig)2772_storage)"
      }
    ],
    "types": {
      "t_address": {
        "encoding": "inplace",
        "label": "address",
        "numberOfBytes": "20"
      },
      "t_bool": {
        "encoding": "inplace",
        "label": "bool",
        "numberOfBytes": "1"
      },
      "t_bytes32": {
        "encoding": "inplace",
        "label": "bytes32",
        "numberOfBytes": "32"
      },
      "t_contract(IProxy)873": {
        "encoding": "inplace",
        "label": "contract IProxy",
        "numberOfBytes": "20"
      },
      "t_mapping(t_address,t_bool)": {
        "encoding": "mapping",
        "key": "t_address",
        "label": "mapping(address => bool)",
        "numberOfBytes": "32",
        "value": "t_bool"
      },
      "t_mapping(t_address,t_contract(IProxy)873)": {
        "encoding": "mapping",
        "key": "t_address",
        "label": "mapping(address => contract IProxy)",
        "numberOfBytes": "32",
        "value": "t_contract(IProxy)873"
      },
      "t_mapping(t_address,t_struct(ThresholdConfig)2772_storage)": {
        "encoding": "mapping",
        "key": "t_address",
        "label": "mapping(address => struct ThresholdingUtils.ThresholdConfig)",
        "numberOfBytes": "32",
        "value": "t_struct(ThresholdConfig)2772_storage"
      },
      "t_mapping(t_bytes32,t_struct(RoleData)21_storage)": {
        "encoding": "mapping",
        "key": "t_bytes32",
        "label": "mapping(bytes32 => struct AccessControl.RoleData)",
        "numberOfBytes": "32",
        "value": "t_struct(RoleData)21_storage"
      },
      "t_struct(RoleData)21_storage": {
        "encoding": "inplace",
        "label": "struct AccessControl.RoleData",
        "members": [
          {
            "astId": 18,
            "contract": "contracts/oracle_aggregator/wrapper/API3WrapperWithThresholding.sol:API3WrapperWithThresholding",
            "label": "hasRole",
            "offset": 0,
            "slot": "0",
            "type": "t_mapping(t_address,t_bool)"
          },
          {
            "astId": 20,
            "contract": "contracts/oracle_aggregator/wrapper/API3WrapperWithThresholding.sol:API3WrapperWithThresholding",
            "label": "adminRole",
            "offset": 0,
            "slot": "1",
            "type": "t_bytes32"
          }
        ],
        "numberOfBytes": "64"
      },
      "t_struct(ThresholdConfig)2772_storage": {
        "encoding": "inplace",
        "label": "struct ThresholdingUtils.ThresholdConfig",
        "members": [
          {
            "astId": 2769,
            "contract": "contracts/oracle_aggregator/wrapper/API3WrapperWithThresholding.sol:API3WrapperWithThresholding",
            "label": "lowerThresholdInBase",
            "offset": 0,
            "slot": "0",
            "type": "t_uint256"
          },
          {
            "astId": 2771,
            "contract": "contracts/oracle_aggregator/wrapper/API3WrapperWithThresholding.sol:API3WrapperWithThresholding",
            "label": "fixedPriceInBase",
            "offset": 0,
            "slot": "1",
            "type": "t_uint256"
          }
        ],
        "numberOfBytes": "64"
      },
      "t_uint256": {
        "encoding": "inplace",
        "label": "uint256",
        "numberOfBytes": "32"
      }
    }
  }
}