{
  "address": "0x67c3AD684243430ca1F7F32fe4a64eB223Ad2662",
  "abi": [
    {
      "inputs": [
        {
          "internalType": "address",
          "name": "asset",
          "type": "address"
        },
        {
          "internalType": "uint256",
          "name": "currentATokenSupply",
          "type": "uint256"
        },
        {
          "internalType": "uint256",
          "name": "currentDebtCeiling",
          "type": "uint256"
        },
        {
          "internalType": "uint256",
          "name": "requestedDebtCeiling",
          "type": "uint256"
        }
      ],
      "name": "DebtCeilingMustBeStagedBeforeSeeding",
      "type": "error"
    },
    {
      "inputs": [
        {
          "internalType": "address",
          "name": "asset",
          "type": "address"
        },
        {
          "internalType": "uint256",
          "name": "currentATokenSupply",
          "type": "uint256"
        },
        {
          "internalType": "uint256",
          "name": "requiredATokenSupply",
          "type": "uint256"
        }
      ],
      "name": "InsufficientATokenSupply",
      "type": "error"
    },
    {
      "inputs": [
        {
          "internalType": "address",
          "name": "asset",
          "type": "address"
        }
      ],
      "name": "MinATokenSupplyRequired",
      "type": "error"
    },
    {
      "inputs": [
        {
          "internalType": "address",
          "name": "asset",
          "type": "address"
        }
      ],
      "name": "ReserveAlreadyInitialized",
      "type": "error"
    },
    {
      "inputs": [
        {
          "internalType": "address",
          "name": "asset",
          "type": "address"
        }
      ],
      "name": "ReserveBorrowingAlreadyEnabled",
      "type": "error"
    },
    {
      "inputs": [
        {
          "internalType": "address",
          "name": "asset",
          "type": "address"
        }
      ],
      "name": "ReserveCollateralAlreadyEnabled",
      "type": "error"
    },
    {
      "inputs": [
        {
          "internalType": "address",
          "name": "asset",
          "type": "address"
        }
      ],
      "name": "ReserveFlashLoansAlreadyEnabled",
      "type": "error"
    },
    {
      "inputs": [
        {
          "internalType": "address",
          "name": "asset",
          "type": "address"
        }
      ],
      "name": "ReserveInactive",
      "type": "error"
    },
    {
      "inputs": [
        {
          "internalType": "address",
          "name": "asset",
          "type": "address"
        },
        {
          "internalType": "uint256",
          "name": "currentATokenSupply",
          "type": "uint256"
        }
      ],
      "name": "ReserveMustBeSeedlessToStage",
      "type": "error"
    },
    {
      "inputs": [
        {
          "internalType": "address",
          "name": "asset",
          "type": "address"
        }
      ],
      "name": "ReserveNotInitialized",
      "type": "error"
    },
    {
      "inputs": [
        {
          "internalType": "address",
          "name": "asset",
          "type": "address"
        }
      ],
      "name": "ReservePaused",
      "type": "error"
    },
    {
      "inputs": [
        {
          "internalType": "address",
          "name": "asset",
          "type": "address"
        }
      ],
      "name": "ReserveStableBorrowingAlreadyEnabled",
      "type": "error"
    },
    {
      "inputs": [
        {
          "internalType": "address",
          "name": "asset",
          "type": "address"
        }
      ],
      "name": "StableBorrowingRequiresBorrowing",
      "type": "error"
    },
    {
      "anonymous": false,
      "inputs": [
        {
          "indexed": true,
          "internalType": "address",
          "name": "previousOwner",
          "type": "address"
        },
        {
          "indexed": true,
          "internalType": "address",
          "name": "newOwner",
          "type": "address"
        }
      ],
      "name": "OwnershipTransferred",
      "type": "event"
    },
    {
      "anonymous": false,
      "inputs": [
        {
          "indexed": true,
          "internalType": "address",
          "name": "asset",
          "type": "address"
        },
        {
          "indexed": false,
          "internalType": "uint256",
          "name": "minATokenSupply",
          "type": "uint256"
        },
        {
          "indexed": false,
          "internalType": "bool",
          "name": "borrowingEnabled",
          "type": "bool"
        },
        {
          "indexed": false,
          "internalType": "bool",
          "name": "stableBorrowingEnabled",
          "type": "bool"
        },
        {
          "indexed": false,
          "internalType": "bool",
          "name": "flashLoanEnabled",
          "type": "bool"
        }
      ],
      "name": "ReserveAtomicallyEnabled",
      "type": "event"
    },
    {
      "anonymous": false,
      "inputs": [
        {
          "indexed": true,
          "internalType": "address",
          "name": "asset",
          "type": "address"
        },
        {
          "indexed": false,
          "internalType": "uint256",
          "name": "reserveFactor",
          "type": "uint256"
        },
        {
          "indexed": false,
          "internalType": "uint256",
          "name": "supplyCap",
          "type": "uint256"
        }
      ],
      "name": "ReserveStaged",
      "type": "event"
    },
    {
      "inputs": [
        {
          "internalType": "contract IPool",
          "name": "pool",
          "type": "address"
        },
        {
          "internalType": "contract IPoolConfigurator",
          "name": "configurator",
          "type": "address"
        },
        {
          "components": [
            {
              "internalType": "address",
              "name": "asset",
              "type": "address"
            },
            {
              "internalType": "uint256",
              "name": "baseLTV",
              "type": "uint256"
            },
            {
              "internalType": "uint256",
              "name": "liquidationThreshold",
              "type": "uint256"
            },
            {
              "internalType": "uint256",
              "name": "liquidationBonus",
              "type": "uint256"
            },
            {
              "internalType": "uint256",
              "name": "reserveFactor",
              "type": "uint256"
            },
            {
              "internalType": "uint256",
              "name": "borrowCap",
              "type": "uint256"
            },
            {
              "internalType": "uint256",
              "name": "supplyCap",
              "type": "uint256"
            },
            {
              "internalType": "uint256",
              "name": "debtCeiling",
              "type": "uint256"
            },
            {
              "internalType": "uint256",
              "name": "unbackedMintCap",
              "type": "uint256"
            },
            {
              "internalType": "uint256",
              "name": "liquidationProtocolFee",
              "type": "uint256"
            },
            {
              "internalType": "bool",
              "name": "borrowableInIsolation",
              "type": "bool"
            },
            {
              "internalType": "bool",
              "name": "borrowingEnabled",
              "type": "bool"
            },
            {
              "internalType": "bool",
              "name": "stableBorrowingEnabled",
              "type": "bool"
            },
            {
              "internalType": "bool",
              "name": "flashLoanEnabled",
              "type": "bool"
            },
            {
              "internalType": "uint256",
              "name": "minATokenSupply",
              "type": "uint256"
            }
          ],
          "internalType": "struct AtomicMarketListingHelper.EnableReserveInput[]",
          "name": "inputParams",
          "type": "tuple[]"
        }
      ],
      "name": "enableReserves",
      "outputs": [],
      "stateMutability": "nonpayable",
      "type": "function"
    },
    {
      "inputs": [
        {
          "internalType": "contract IPool",
          "name": "pool",
          "type": "address"
        },
        {
          "internalType": "contract IPoolConfigurator",
          "name": "configurator",
          "type": "address"
        },
        {
          "components": [
            {
              "internalType": "address",
              "name": "aTokenImpl",
              "type": "address"
            },
            {
              "internalType": "address",
              "name": "stableDebtTokenImpl",
              "type": "address"
            },
            {
              "internalType": "address",
              "name": "variableDebtTokenImpl",
              "type": "address"
            },
            {
              "internalType": "uint8",
              "name": "underlyingAssetDecimals",
              "type": "uint8"
            },
            {
              "internalType": "address",
              "name": "interestRateStrategyAddress",
              "type": "address"
            },
            {
              "internalType": "address",
              "name": "underlyingAsset",
              "type": "address"
            },
            {
              "internalType": "address",
              "name": "treasury",
              "type": "address"
            },
            {
              "internalType": "address",
              "name": "incentivesController",
              "type": "address"
            },
            {
              "internalType": "string",
              "name": "aTokenName",
              "type": "string"
            },
            {
              "internalType": "string",
              "name": "aTokenSymbol",
              "type": "string"
            },
            {
              "internalType": "string",
              "name": "variableDebtTokenName",
              "type": "string"
            },
            {
              "internalType": "string",
              "name": "variableDebtTokenSymbol",
              "type": "string"
            },
            {
              "internalType": "string",
              "name": "stableDebtTokenName",
              "type": "string"
            },
            {
              "internalType": "string",
              "name": "stableDebtTokenSymbol",
              "type": "string"
            },
            {
              "internalType": "bytes",
              "name": "params",
              "type": "bytes"
            },
            {
              "internalType": "uint256",
              "name": "reserveFactor",
              "type": "uint256"
            },
            {
              "internalType": "uint256",
              "name": "supplyCap",
              "type": "uint256"
            },
            {
              "internalType": "uint256",
              "name": "debtCeiling",
              "type": "uint256"
            }
          ],
          "internalType": "struct AtomicMarketListingHelper.InitAndStageReserveInput[]",
          "name": "inputParams",
          "type": "tuple[]"
        }
      ],
      "name": "initAndStageReserves",
      "outputs": [],
      "stateMutability": "nonpayable",
      "type": "function"
    },
    {
      "inputs": [],
      "name": "owner",
      "outputs": [
        {
          "internalType": "address",
          "name": "",
          "type": "address"
        }
      ],
      "stateMutability": "view",
      "type": "function"
    },
    {
      "inputs": [],
      "name": "renounceOwnership",
      "outputs": [],
      "stateMutability": "nonpayable",
      "type": "function"
    },
    {
      "inputs": [
        {
          "internalType": "contract IPool",
          "name": "pool",
          "type": "address"
        },
        {
          "internalType": "contract IPoolConfigurator",
          "name": "configurator",
          "type": "address"
        },
        {
          "components": [
            {
              "internalType": "address",
              "name": "asset",
              "type": "address"
            },
            {
              "internalType": "uint256",
              "name": "reserveFactor",
              "type": "uint256"
            },
            {
              "internalType": "uint256",
              "name": "supplyCap",
              "type": "uint256"
            },
            {
              "internalType": "uint256",
              "name": "debtCeiling",
              "type": "uint256"
            }
          ],
          "internalType": "struct AtomicMarketListingHelper.StageReserveInput[]",
          "name": "inputParams",
          "type": "tuple[]"
        }
      ],
      "name": "stageReserves",
      "outputs": [],
      "stateMutability": "nonpayable",
      "type": "function"
    },
    {
      "inputs": [
        {
          "internalType": "address",
          "name": "newOwner",
          "type": "address"
        }
      ],
      "name": "transferOwnership",
      "outputs": [],
      "stateMutability": "nonpayable",
      "type": "function"
    }
  ],
  "transactionHash": "0xc4dc33e2cd3a1e9d9467987dc0ad25ece3e3ebc0feebe0394f726ba33b264fb5",
  "args": [],
  "numDeployments": 1,
  "solcInputHash": "e5914155ab852943ec0b53d19d29bfd4",
  "bytecode": "0x6080806040523461004f57600080546001600160a01b031916339081178255907f8be0079c531659141344cd1fd0a4f28419497f9722a3daafe3b4186f6b6457e08180a36124b490816100558239f35b600080fdfe610260604052600436101561001357600080fd5b6000803560e01c8063715018a6146118aa5780638da5cb5b14611883578063baa875d21461178a578063e1aa0f6714610f62578063f2fde38b14610e9a5763f7de2aa71461006057600080fd5b34610e97576060366003190112610e9757610079611906565b61008161191c565b9060443567ffffffffffffffff808211610e935736602383011215610e93578160040135116108fd573660246101e0836004013502830101116108fd576100d260018060a01b038554163314611932565b83610200525b806004013561020051106100ea578380f35b61010761010261020051836004013560248501611ccb565b6119a3565b602061011e61020051846004013560248601611ccb565b013561024052604061013b61020051846004013560248601611ccb565b0135606061015461020051856004013560248701611ccb565b013590608061016e61020051866004013560248801611ccb565b0135908460a061018961020051836004013560248501611ccb565b013560c06101a261020051846004013560248601611ccb565b013560e06101bb61020051856004013560248701611ccb565b01356101006101d561020051866004013560248801611ccb565b0135906101206101f061020051876004013560248901611ccb565b01359261021461014061020e61020051896004013560248b01611ccb565b01611cdc565b9461023061016061020e610200518a6004013560248c01611ccb565b9861024c61018061020e610200518b6004013560248d01611ccb565b9a6101c06102846102706101a061020e8d6102005190602481600401359101611ccb565b9a6102005190602481600401359101611ccb565b0135996040516102205261029a610220516119e9565b8d60018060a01b0316610220515261024051602061022051015260406102205101526060610220510152608061022051015260a061022051015260c061022051015260e0610220510152610100610220510152610120610220510152151561014061022051015282151561016061022051015283151561018061022051015215156101a06102205101526101c061022051015281151591610e8a575b50610e6857506101c06102205101511580610e18575b610df15761022051516040516335ea6a7560e01b81526001600160a01b039182166004820152906101e0908290602490829087165afa908115610de6578591610db5575b506101008101516001600160a01b031615610d8e57610220515160405163c44b11f760e01b81526001600160a01b039182166004820152906020908290602490829088165afa908115610d83578691610d46575b506103ee81612436565b61042386959294965161ffff9182821692808360101c1692818160201c169260ff808360301c16938360401c169260a81c1690565b50505092909315610d1f57610cf8571591821592610cee575b508115610ce4575b50610cbd57610c9657610c6f576001603f1b815116610c4857610100909201516040516318160ddd60e01b81529290602090849060049082906001600160a01b03165afa928315610c3d578793610c04575b506101c0610220510151808410610bce57505160d41c64ffffffffff1691821580610bbe575b80610bb5575b610b705750908591610b00575b61022051805160208201516040830151606090930151916001600160a01b039081169089163b15610afc57604051637c4e560b60e01b81526001600160a01b039091166004820152602481019190915260448101929092526064820152828180608481010381836001600160a01b038b165af1908115610a79578391610ae8575b5050610220518051608090910151906001600160a01b039081169087163b156108fd57604051634b4e675360e01b81526001600160a01b0390911660048201526024810191909152828180604481010381836001600160a01b038b165af1908115610a79578391610ad4575b505061022051805160c090910151906001600160a01b039081169087163b156108fd5760405163571f03e560e01b81526001600160a01b0390911660048201526024810191909152828180604481010381836001600160a01b038b165af1908115610a79578391610ac0575b505061022051805160a090910151906001600160a01b039081169087163b156108fd5760405163d14a098360e01b81526001600160a01b0390911660048201526024810191909152828180604481010381836001600160a01b038b165af1908115610a79578391610aac575b5050610220518051610140909101516001600160a01b03918216919015159087163b156108fd576040516338ae0cc360e01b8152600481019290925260248201528281604481836001600160a01b038b165af1908115610a79578391610a98575b505061022051805161010090910151906001600160a01b039081169087163b156108fd57604051630a2fac4960e11b81526001600160a01b0390911660048201526024810191909152828180604481010381836001600160a01b038b165af1908115610a79578391610a84575b505061022051805161012090910151906001600160a01b039081169087163b156108fd57604051631369676160e11b81526001600160a01b0390911660048201526024810191909152828180604481010381836001600160a01b038b165af1908115610a79578391610a65575b505060e06102205101518091036109ee575b505061016061022051015161097f575b610180610220510151610910575b6101a061022051015161088e575b60018060a01b036102205151167fc2a6db3737eaf4114e7ccc8b8492bb3e67f8013101690d683d173df9818f70cd60806101c0610220510151610160610220510151151561018061022051015115156101a0610220510151151591604051938452602084015260408301526060820152a260016102005101610200526100d8565b610220515184906001600160a01b039081169085163b1561090c57604051637909f78760e11b81526004810191909152600160248201528181604481836001600160a01b038a165af18015610901576108e9575b505061080d565b6108f290611a06565b6108fd5783386108e2565b8380fd5b6040513d84823e3d90fd5b5080fd5b610220515184906001600160a01b039081169085163b1561090c57604051630453a8d360e51b81526004810191909152600160248201528181604481836001600160a01b038a165af180156109015761096b575b50506107ff565b61097490611a06565b6108fd578338610964565b610220515184906001600160a01b039081169085163b1561090c57604051631a0b3c9960e21b81526004810191909152600160248201528181604481836001600160a01b038a165af18015610901576109da575b50506107f1565b6109e390611a06565b6108fd5783386109d3565b61022051516001600160a01b039081169086163b15610a615760405163aeb4fcc160e01b81526001600160a01b0390911660048201526024810191909152818180604481010381836001600160a01b038a165af1801561090157156107e157610a5690611a06565b6108fd5783386107e1565b8280fd5b610a6e90611a06565b61090c5781386107cf565b6040513d85823e3d90fd5b610a8d90611a06565b61090c578138610762565b610aa190611a06565b61090c5781386106f5565b610ab590611a06565b61090c578138610694565b610ac990611a06565b61090c578138610628565b610add90611a06565b61090c5781386105bc565b610af190611a06565b61090c578138610550565b8580fd5b61022051516001600160a01b039081169086163b15610a61576040516325ba55f160e21b81526004810191909152602481018390528281604481836001600160a01b038b165af1908115610a79578391610b5c575b50506104cf565b610b6590611a06565b61090c578138610b55565b61022051805160e0909101516040516373ab911360e01b81526001600160a01b0390921660048301526024820192909252604481018490526064810191909152608490fd5b508015156104c2565b5060e061022051015115156104bc565b61022051516040516353666d1160e01b81526001600160a01b039091166004820152602481018590526044810191909152606490fd5b9092506020813d602011610c35575b81610c2060209383611a1a565b81010312610c3057519138610496565b600080fd5b3d9150610c13565b6040513d89823e3d90fd5b610220515160405163defcd86960e01b81526001600160a01b039091166004820152602490fd5b6102205151604051630bbf400560e31b81526001600160a01b039091166004820152602490fd5b610220515160405163198dd66560e31b81526001600160a01b039091166004820152602490fd5b610220515160405163c011e7ed60e01b81526001600160a01b039091166004820152602490fd5b9050151538610444565b151591503861043c565b61022051516040516376fbdd4360e01b81526001600160a01b039091166004820152602490fd5b6102205151604051631818692b60e11b81526001600160a01b039091166004820152602490fd5b905060203d602011610d7c575b610d5d8183611a1a565b8101602082820312610d7857610d7291611a77565b386103e4565b8680fd5b503d610d53565b6040513d88823e3d90fd5b610220515160405163035229d760e61b81526001600160a01b039091166004820152602490fd5b610dd991506101e03d6101e011610ddf575b610dd18183611a1a565b810190611ad7565b38610390565b503d610dc7565b6040513d87823e3d90fd5b610220515160405163789507ef60e11b81526001600160a01b039091166004820152602490fd5b50602061022051015115801590610e58575b8015610e47575b8061034c57506101a0610220510151151561034c565b506101606102205101511515610e31565b5060406102205101511515610e2a565b604051638e5d851160e01b81526001600160a01b039091166004820152602490fd5b90501538610336565b8480fd5b80fd5b5034610e97576020366003190112610e97576004356001600160a01b0381811691829003610a61578254908116610ed2338214611932565b8215610f0e5782907f8be0079c531659141344cd1fd0a4f28419497f9722a3daafe3b4186f6b6457e08580a36001600160a01b03191617815580f35b60405162461bcd60e51b815260206004820152602660248201527f4f776e61626c653a206e6577206f776e657220697320746865207a65726f206160448201526564647265737360d01b6064820152608490fd5b5034610e97576060366003190112610e9757610f7c611906565b610f8461191c565b906044356101e05267ffffffffffffffff806101e051116108fd573660236101e0510112156108fd576101e0516004013511610a61573660246101e0516004013560051b6101e051010111610a6157610fe760018060a01b038454163314611932565b610ff76101e05160040135611a3c565b6110046040519182611a1a565b6101e05160040135815261101e6101e05160040135611a3c565b601f1901845b81811061170b575050836101c0525b6101e051600401356101c051106112d6576001600160a01b038316803b15610e935790849060405192839163017da2f360e11b8352602483016020600485015281518091526044840190602060448260051b87010193019186905b82821061118e57505050508383809203925af1801561118357611170575b50825b6101e0516004013581106110c1578380f35b8061116a6110ea60a06110e46001956101e0516004013560246101e05101611a54565b016119a3565b6101e0611101848251600401356024845101611a54565b013561020061111e856101e0516004013560246101e05101611a54565b013561022061113b866101e0516004013560246101e05101611a54565b0135916040519361114b856119b7565b878060a01b031684526020840152604083015260608201528585611ce9565b016110af565b61117c90939193611a06565b91386110ac565b6040513d86823e3d90fd5b888503604319018152835180516001600160a01b03908116875260208281015182168189015260408084015183169089015260608084015160ff169089015260808084015183169089015260a08084015183169089015260c08084015183169089015260e08084015190921691880191909152610100808301516101e0918901829052989a509598509396929591946001949384936112c493909290916112b09161129c9161128891611274916112609161124c9190890190611c8b565b6101208088015190898303908a0152611c8b565b610140808701519088830390890152611c8b565b610160808601519087830390880152611c8b565b610180808501519086830390870152611c8b565b6101a0808401519085830390860152611c8b565b916101c08092015191818403910152611c8b565b9601920192019289959387959361108e565b6112f660a06110e46101c0516101e0516004013560246101e05101611a54565b6040516335ea6a7560e01b81526001600160a01b0382811660048301526101e0908290602490829088165afa908115610d835786916116ea575b5061010001516001600160a01b03166116c8576113616101026101c0516101e0516004013560246101e05101611a54565b61138160206110e46101c0516101e0516004013560246101e05101611a54565b610100526113a560406110e46101c0516101e0516004013560246101e05101611a54565b6101405260606113c66101c0516101e0516004013560246101e05101611a54565b01356101805260ff61018051166101805103610afc576116499161163a61140360806110e46101c0516101e0516004013560246101e05101611a54565b9161142460c06110e46101c0516101e0516004013560246101e05101611a54565b61162b61144760e06110e46101c0516101e0516004013560246101e05101611a54565b61161c6114736114686101c0516101e0516004013560246101e05101611a54565b610100810190611bfd565b919061149e6114936101c0516101e0516004013560246101e05101611a54565b610120810190611bfd565b9390946114ca6114bf6101c0516101e0516004013560246101e05101611a54565b610140810190611bfd565b9890996114f66114eb6101c0516101e0516004013560246101e05101611a54565b610160810190611bfd565b9d909e6115226115176101c0516101e0516004013560246101e05101611a54565b610180810190611bfd565b60805260c0526115516115466101c0516101e0516004013560246101e05101611a54565b6101a0810190611bfd565b6101a052610160526115826115776101c0516101e0516004013560246101e05101611a54565b6101c0810190611bfd565b6101205260e05260405160a05261159a60a0516119e9565b60018060a01b031660a0515260018060a01b036101005116602060a051015260018060a01b036101405116604060a051015260ff6101805116606060a051015260018060a01b0316608060a051015260018060a01b031660a08051015260018060a01b031660c060a051015260018060a01b031660e060a05101523691611c30565b61010060a05101523691611c30565b61012060a05101523691611c30565b61014060a05101523691611c30565b61016060a05101526116603660805160c051611c30565b61018060a0510152611679366101a05161016051611c30565b6101a060a0510152611691366101205160e051611c30565b6101c060a051015260a0516116a96101c05183611c77565b526116b76101c05182611c77565b5060016101c051016101c052611033565b604051636a3c626b60e01b81526001600160a01b039091166004820152602490fd5b61170591506101e03d6101e011610ddf57610dd18183611a1a565b38611330565b60209060405161171a816119e9565b87815287838201528760408201528760608201528760808201528760a08201528760c08201528760e08201526060610100820152606061012082015260606101408201526060610160820152606061018082015260606101a082015260606101c082015282828601015201611024565b5034610e97576060906060600319360112610e97576117a7611906565b916117b061191c565b926044359367ffffffffffffffff91828611610e935736602387011215610e93578560040135928311610e93576024860195602436918560071b010111610e935784546001600160a01b03906118099082163314611932565b855b848110611816578680f35b8061187d61182a610102600194898d61197d565b60208b81611839868c8461197d565b01358b611856878d604061184e83838961197d565b01359561197d565b0135928860405195611867876119b7565b1685528401526040830152898201528686611ce9565b0161180b565b5034610e975780600319360112610e9757546040516001600160a01b039091168152602090f35b5034610e975780600319360112610e97578054816001600160a01b0382166118d3338214611932565b7f8be0079c531659141344cd1fd0a4f28419497f9722a3daafe3b4186f6b6457e08280a36001600160a01b031916815580f35b600435906001600160a01b0382168203610c3057565b602435906001600160a01b0382168203610c3057565b1561193957565b606460405162461bcd60e51b815260206004820152602060248201527f4f776e61626c653a2063616c6c6572206973206e6f7420746865206f776e65726044820152fd5b919081101561198d5760071b0190565b634e487b7160e01b600052603260045260246000fd5b356001600160a01b0381168103610c305790565b6080810190811067ffffffffffffffff8211176119d357604052565b634e487b7160e01b600052604160045260246000fd5b6101e0810190811067ffffffffffffffff8211176119d357604052565b67ffffffffffffffff81116119d357604052565b90601f8019910116810190811067ffffffffffffffff8211176119d357604052565b67ffffffffffffffff81116119d35760051b60200190565b919081101561198d5760051b8101359061023e1981360301821215610c30570190565b9190826020910312610c30576040516020810181811067ffffffffffffffff8211176119d35760405291518252565b51906fffffffffffffffffffffffffffffffff82168203610c3057565b51906001600160a01b0382168203610c3057565b6101e081830312610c3057611af860405192611af2846119e9565b82611a77565b8252611b0660208201611aa6565b6020830152611b1760408201611aa6565b6040830152611b2860608201611aa6565b6060830152611b3960808201611aa6565b6080830152611b4a60a08201611aa6565b60a083015260c081015164ffffffffff81168103610c305760c083015260e081015161ffff81168103610c305760e0830152610100611b8a818301611ac3565b90830152610120611b9c818301611ac3565b90830152610140611bae818301611ac3565b90830152610160611bc0818301611ac3565b90830152610180611bd2818301611aa6565b908301526101a0611be4818301611aa6565b90830152611bf66101c0809201611aa6565b9082015290565b903590601e1981360301821215610c30570180359067ffffffffffffffff8211610c3057602001918136038313610c3057565b92919267ffffffffffffffff82116119d35760405191611c5a601f8201601f191660200184611a1a565b829481845281830111610c30578281602093846000960137010152565b805182101561198d5760209160051b010190565b919082519283825260005b848110611cb7575050826000602080949584010152601f8019910116010190565b602081830181015184830182015201611c96565b919081101561198d576101e0020190565b358015158103610c305790565b82516040516335ea6a7560e01b81526001600160a01b03918216600482015292936101e093909260009216908481602481855afa948515610a79578395612417575b50506101008401516001600160a01b0316156123f357602060018060a01b0384511660246040518094819363c44b11f760e01b835260048301525afa9081156109015782916123b8575b50611d7f81612436565b949397611db3855161ffff9182821692808360101c1692818160201c169260ff808360301c16938360401c169260a81c1690565b509990508893919293519c1561239457612370571591821592612366575b50811561235c575b5061224c575b506121e8575b612184575b6001603f1b825116612120575b640fffffffff8660501c166120bc575b672000000000000000825116612058575b611ff4575b640fffffffff6040850195865191829160741c1603611f83575b5064ffffffffff905160d41c166060840151809103611f12575b5060208301948551809203611ea4575b5050507fb8bedba43d985f7b8d460589ffb01f20be4a0a10a352c1334930f40d58e78d819160409160018060a01b039051169351905182519182526020820152a2565b83516001600160a01b039182169116813b156108fd57604051634b4e675360e01b81526001600160a01b03919091166004820152602481019290925282908290604490829084905af1801561090157611efe575b80611e61565b611f088291611a06565b610e975780611ef8565b83516001600160a01b038781169116813b15610e935760405163aeb4fcc160e01b81526001600160a01b03919091166004820152602481019290925283908290604490829084905af18015610a7957908391611f6f575b50611e51565b611f7890611a06565b61090c578138611f69565b84516001600160a01b038881169116813b15610afc5760405163571f03e560e01b81526001600160a01b03919091166004820152602481019290925284908290604490829084905af1801561118357908491611fe0575b50611e37565b611fe990611a06565b610a61578238611fda565b83516001600160a01b038781169116813b15610e935784916044839260405194859384926325ba55f160e21b845260048401528160248401525af1801561118357908491612044575b5050611e1d565b61204d90611a06565b610a6157823861203d565b84516001600160a01b038881169116813b15610afc5785916044839260405194859384926338ae0cc360e01b845260048401528160248401525af18015610de6579085916120a8575b5050611e18565b6120b190611a06565b6108fd5783386120a1565b84516001600160a01b038881169116813b15610afc57859160448392604051948593849263d14a098360e01b845260048401528160248401525af18015610de65790859161210c575b5050611e07565b61211590611a06565b6108fd578338612105565b84516001600160a01b038881169116813b15610afc578591604483926040519485938492637909f78760e11b845260048401528160248401525af18015610de657908591612170575b5050611df7565b61217990611a06565b6108fd578338612169565b84516001600160a01b038881169116813b15610afc578591604483926040519485938492631a0b3c9960e21b845260048401528160248401525af18015610de6579085916121d4575b5050611dea565b6121dd90611a06565b6108fd5783386121cd565b85516001600160a01b038981169116813b15610d78578691604483926040519485938492630453a8d360e51b845260048401528160248401525af18015610d8357908691612238575b5050611de5565b61224190611a06565b610e93578438612231565b8751610100909101516040516318160ddd60e01b81526001600160a01b0392831692909160209183916004918391165afa90811561235157889161231f575b50806122f757506001600160a01b038a1690813b156122f3578791608483926040519485938492637c4e560b60e01b845260048401528160248401528160448401528160648401525af18015610c3d5715611ddf576122ec90969196611a06565b9438611ddf565b8780fd5b6040516311adb03360e01b81526001600160a01b039290921660048301526024820152604490fd5b90506020813d602011612349575b8161233a60209383611a1a565b810103126122f357513861228b565b3d915061232d565b6040513d8a823e3d90fd5b9050151538611dd9565b1515915038611dd1565b8a516040516376fbdd4360e01b81526001600160a01b039091166004820152602490fd5b8b51604051631818692b60e11b81526001600160a01b039091166004820152602490fd5b905060203d6020116123ec575b6123cf8183611a1a565b810190602081830312610a6157906123e691611a77565b38611d75565b503d6123c5565b825160405163035229d760e61b81526001600160a01b039091166004820152602490fd5b61242e929550803d10610ddf57610dd18183611a1a565b923880611d2b565b5167010000000000000081161515916702000000000000008216151591670400000000000000811615159167100000000000000067080000000000000083161515921615159056fea264697066735822122056a2410cc73cc9ecddf286f63bd5224def05be1c03c34f2ed379388a07c0977464736f6c63430008180033",
  "devdoc": {
    "details": "This helper is intended to close the empty/near-empty market window described in the      dLEND incident materials. It does not replace protocol-level fixes for the broader      dust-supply / liquidity-index inflation class.",
    "kind": "dev",
    "methods": {
      "enableReserves(address,address,(address,uint256,uint256,uint256,uint256,uint256,uint256,uint256,uint256,uint256,bool,bool,bool,bool,uint256)[])": {
        "details": "The reserve must still be in the staged posture: collateral disabled, borrowing disabled,      stable borrowing disabled, and flash loans disabled.",
        "params": {
          "configurator": "The target pool configurator.",
          "inputParams": "Final market parameters and seed-supply floors.",
          "pool": "The target pool."
        }
      },
      "initAndStageReserves(address,address,(address,address,address,uint8,address,address,address,address,string,string,string,string,string,string,bytes,uint256,uint256,uint256)[])": {
        "details": "The helper must hold both ASSET_LISTING_ADMIN_ROLE (or POOL_ADMIN_ROLE) and RISK_ADMIN_ROLE      on the PoolConfigurator before this function is executed.",
        "params": {
          "configurator": "The target pool configurator.",
          "inputParams": "New reserve init params plus safe-stage parameters.",
          "pool": "The target pool."
        }
      },
      "owner()": {
        "details": "Returns the address of the current owner."
      },
      "renounceOwnership()": {
        "details": "Leaves the contract without owner. It will not be possible to call `onlyOwner` functions anymore. Can only be called by the current owner. NOTE: Renouncing ownership will leave the contract without an owner, thereby removing any functionality that is only available to the owner."
      },
      "stageReserves(address,address,(address,uint256,uint256,uint256)[])": {
        "details": "Intended for partially completed rollouts or recovery of interrupted listing flows.      The reserve must not already have supplier liquidity if collateral needs to be disabled.",
        "params": {
          "configurator": "The target pool configurator.",
          "inputParams": "Per-reserve safe-stage parameters.",
          "pool": "The target pool."
        }
      },
      "transferOwnership(address)": {
        "details": "Transfers ownership of the contract to a new account (`newOwner`). Can only be called by the current owner."
      }
    },
    "title": "AtomicMarketListingHelper",
    "version": 1
  },
  "userdoc": {
    "kind": "user",
    "methods": {
      "enableReserves(address,address,(address,uint256,uint256,uint256,uint256,uint256,uint256,uint256,uint256,uint256,bool,bool,bool,bool,uint256)[])": {
        "notice": "Atomically enables staged reserves only after aToken supply exceeds an explicit floor."
      },
      "initAndStageReserves(address,address,(address,address,address,uint8,address,address,address,address,string,string,string,string,string,string,bytes,uint256,uint256,uint256)[])": {
        "notice": "Initializes new reserves and immediately stages them into a safe non-live posture."
      },
      "stageReserves(address,address,(address,uint256,uint256,uint256)[])": {
        "notice": "Stages already-initialized reserves into a safe non-live posture."
      }
    },
    "notice": "Stages new reserves in a safe non-live configuration and atomically enables them only         after the reserve has been seeded above an explicit aToken supply floor.",
    "version": 1
  },
  "storageLayout": {
    "storage": [
      {
        "astId": 574,
        "contract": "contracts/lending/core/deployments/AtomicMarketListingHelper.sol:AtomicMarketListingHelper",
        "label": "_owner",
        "offset": 0,
        "slot": "0",
        "type": "t_address"
      }
    ],
    "types": {
      "t_address": {
        "encoding": "inplace",
        "label": "address",
        "numberOfBytes": "20"
      }
    }
  }
}