{
  "address": "0x624E12dE7a97B8cFc1AD1F050a1c9263b1f4FeBC",
  "abi": [
    {
      "inputs": [
        {
          "internalType": "contract IPriceOracleGetter",
          "name": "oracle",
          "type": "address"
        }
      ],
      "stateMutability": "nonpayable",
      "type": "constructor"
    },
    {
      "inputs": [],
      "name": "AccessControlBadConfirmation",
      "type": "error"
    },
    {
      "inputs": [
        {
          "internalType": "address",
          "name": "account",
          "type": "address"
        },
        {
          "internalType": "bytes32",
          "name": "neededRole",
          "type": "bytes32"
        }
      ],
      "name": "AccessControlUnauthorizedAccount",
      "type": "error"
    },
    {
      "inputs": [
        {
          "internalType": "address",
          "name": "target",
          "type": "address"
        }
      ],
      "name": "AddressEmptyCode",
      "type": "error"
    },
    {
      "inputs": [
        {
          "internalType": "address",
          "name": "account",
          "type": "address"
        }
      ],
      "name": "AddressInsufficientBalance",
      "type": "error"
    },
    {
      "inputs": [
        {
          "internalType": "uint256",
          "name": "requestedAmount",
          "type": "uint256"
        },
        {
          "internalType": "uint256",
          "name": "maxAmount",
          "type": "uint256"
        }
      ],
      "name": "CannotWithdrawMoreValueThanDeposited",
      "type": "error"
    },
    {
      "inputs": [
        {
          "internalType": "address",
          "name": "collateralAsset",
          "type": "address"
        }
      ],
      "name": "CollateralAlreadyAllowed",
      "type": "error"
    },
    {
      "inputs": [
        {
          "internalType": "address",
          "name": "collateralAsset",
          "type": "address"
        }
      ],
      "name": "CollateralNotSupported",
      "type": "error"
    },
    {
      "inputs": [],
      "name": "FailedInnerCall",
      "type": "error"
    },
    {
      "inputs": [
        {
          "internalType": "address",
          "name": "collateralAsset",
          "type": "address"
        }
      ],
      "name": "FailedToAddCollateral",
      "type": "error"
    },
    {
      "inputs": [
        {
          "internalType": "address",
          "name": "collateralAsset",
          "type": "address"
        }
      ],
      "name": "FailedToRemoveCollateral",
      "type": "error"
    },
    {
      "inputs": [
        {
          "internalType": "uint256",
          "name": "baseCurrencyUnit",
          "type": "uint256"
        }
      ],
      "name": "IncorrectBaseCurrencyUnit",
      "type": "error"
    },
    {
      "inputs": [],
      "name": "MustSupportAtLeastOneCollateral",
      "type": "error"
    },
    {
      "inputs": [
        {
          "internalType": "address",
          "name": "collateralAsset",
          "type": "address"
        }
      ],
      "name": "NoOracleSupport",
      "type": "error"
    },
    {
      "inputs": [
        {
          "internalType": "address",
          "name": "token",
          "type": "address"
        }
      ],
      "name": "SafeERC20FailedOperation",
      "type": "error"
    },
    {
      "inputs": [
        {
          "internalType": "uint256",
          "name": "toCollateralAmount",
          "type": "uint256"
        },
        {
          "internalType": "uint256",
          "name": "toMinCollateral",
          "type": "uint256"
        }
      ],
      "name": "ToCollateralAmountBelowMin",
      "type": "error"
    },
    {
      "inputs": [
        {
          "internalType": "address",
          "name": "collateralAsset",
          "type": "address"
        }
      ],
      "name": "UnsupportedCollateral",
      "type": "error"
    },
    {
      "anonymous": false,
      "inputs": [
        {
          "indexed": true,
          "internalType": "address",
          "name": "collateralAsset",
          "type": "address"
        }
      ],
      "name": "CollateralAllowed",
      "type": "event"
    },
    {
      "anonymous": false,
      "inputs": [
        {
          "indexed": true,
          "internalType": "address",
          "name": "collateralAsset",
          "type": "address"
        }
      ],
      "name": "CollateralDisallowed",
      "type": "event"
    },
    {
      "anonymous": false,
      "inputs": [
        {
          "indexed": true,
          "internalType": "address",
          "name": "newOracle",
          "type": "address"
        }
      ],
      "name": "OracleSet",
      "type": "event"
    },
    {
      "anonymous": false,
      "inputs": [
        {
          "indexed": true,
          "internalType": "bytes32",
          "name": "role",
          "type": "bytes32"
        },
        {
          "indexed": true,
          "internalType": "bytes32",
          "name": "previousAdminRole",
          "type": "bytes32"
        },
        {
          "indexed": true,
          "internalType": "bytes32",
          "name": "newAdminRole",
          "type": "bytes32"
        }
      ],
      "name": "RoleAdminChanged",
      "type": "event"
    },
    {
      "anonymous": false,
      "inputs": [
        {
          "indexed": true,
          "internalType": "bytes32",
          "name": "role",
          "type": "bytes32"
        },
        {
          "indexed": true,
          "internalType": "address",
          "name": "account",
          "type": "address"
        },
        {
          "indexed": true,
          "internalType": "address",
          "name": "sender",
          "type": "address"
        }
      ],
      "name": "RoleGranted",
      "type": "event"
    },
    {
      "anonymous": false,
      "inputs": [
        {
          "indexed": true,
          "internalType": "bytes32",
          "name": "role",
          "type": "bytes32"
        },
        {
          "indexed": true,
          "internalType": "address",
          "name": "account",
          "type": "address"
        },
        {
          "indexed": true,
          "internalType": "address",
          "name": "sender",
          "type": "address"
        }
      ],
      "name": "RoleRevoked",
      "type": "event"
    },
    {
      "inputs": [],
      "name": "COLLATERAL_MANAGER_ROLE",
      "outputs": [
        {
          "internalType": "bytes32",
          "name": "",
          "type": "bytes32"
        }
      ],
      "stateMutability": "view",
      "type": "function"
    },
    {
      "inputs": [],
      "name": "COLLATERAL_STRATEGY_ROLE",
      "outputs": [
        {
          "internalType": "bytes32",
          "name": "",
          "type": "bytes32"
        }
      ],
      "stateMutability": "view",
      "type": "function"
    },
    {
      "inputs": [],
      "name": "COLLATERAL_WITHDRAWER_ROLE",
      "outputs": [
        {
          "internalType": "bytes32",
          "name": "",
          "type": "bytes32"
        }
      ],
      "stateMutability": "view",
      "type": "function"
    },
    {
      "inputs": [],
      "name": "DEFAULT_ADMIN_ROLE",
      "outputs": [
        {
          "internalType": "bytes32",
          "name": "",
          "type": "bytes32"
        }
      ],
      "stateMutability": "view",
      "type": "function"
    },
    {
      "inputs": [
        {
          "internalType": "address",
          "name": "collateralAsset",
          "type": "address"
        }
      ],
      "name": "allowCollateral",
      "outputs": [],
      "stateMutability": "nonpayable",
      "type": "function"
    },
    {
      "inputs": [
        {
          "internalType": "uint256",
          "name": "usdValue",
          "type": "uint256"
        },
        {
          "internalType": "address",
          "name": "asset",
          "type": "address"
        }
      ],
      "name": "assetAmountFromValue",
      "outputs": [
        {
          "internalType": "uint256",
          "name": "assetAmount",
          "type": "uint256"
        }
      ],
      "stateMutability": "view",
      "type": "function"
    },
    {
      "inputs": [
        {
          "internalType": "uint256",
          "name": "assetAmount",
          "type": "uint256"
        },
        {
          "internalType": "address",
          "name": "asset",
          "type": "address"
        }
      ],
      "name": "assetValueFromAmount",
      "outputs": [
        {
          "internalType": "uint256",
          "name": "usdValue",
          "type": "uint256"
        }
      ],
      "stateMutability": "view",
      "type": "function"
    },
    {
      "inputs": [],
      "name": "baseCurrencyUnit",
      "outputs": [
        {
          "internalType": "uint256",
          "name": "",
          "type": "uint256"
        }
      ],
      "stateMutability": "view",
      "type": "function"
    },
    {
      "inputs": [
        {
          "internalType": "uint256",
          "name": "collateralAmount",
          "type": "uint256"
        },
        {
          "internalType": "address",
          "name": "collateralAsset",
          "type": "address"
        }
      ],
      "name": "deposit",
      "outputs": [],
      "stateMutability": "nonpayable",
      "type": "function"
    },
    {
      "inputs": [
        {
          "internalType": "address",
          "name": "collateralAsset",
          "type": "address"
        }
      ],
      "name": "disallowCollateral",
      "outputs": [],
      "stateMutability": "nonpayable",
      "type": "function"
    },
    {
      "inputs": [
        {
          "internalType": "uint256",
          "name": "fromCollateralAmount",
          "type": "uint256"
        },
        {
          "internalType": "address",
          "name": "fromCollateral",
          "type": "address"
        },
        {
          "internalType": "uint256",
          "name": "toCollateralAmount",
          "type": "uint256"
        },
        {
          "internalType": "address",
          "name": "toCollateral",
          "type": "address"
        }
      ],
      "name": "exchangeCollateral",
      "outputs": [],
      "stateMutability": "nonpayable",
      "type": "function"
    },
    {
      "inputs": [
        {
          "internalType": "uint256",
          "name": "fromCollateralAmount",
          "type": "uint256"
        },
        {
          "internalType": "address",
          "name": "fromCollateral",
          "type": "address"
        },
        {
          "internalType": "address",
          "name": "toCollateral",
          "type": "address"
        },
        {
          "internalType": "uint256",
          "name": "toMinCollateral",
          "type": "uint256"
        }
      ],
      "name": "exchangeMaxCollateral",
      "outputs": [],
      "stateMutability": "nonpayable",
      "type": "function"
    },
    {
      "inputs": [
        {
          "internalType": "bytes32",
          "name": "role",
          "type": "bytes32"
        }
      ],
      "name": "getRoleAdmin",
      "outputs": [
        {
          "internalType": "bytes32",
          "name": "",
          "type": "bytes32"
        }
      ],
      "stateMutability": "view",
      "type": "function"
    },
    {
      "inputs": [
        {
          "internalType": "bytes32",
          "name": "role",
          "type": "bytes32"
        },
        {
          "internalType": "address",
          "name": "account",
          "type": "address"
        }
      ],
      "name": "grantRole",
      "outputs": [],
      "stateMutability": "nonpayable",
      "type": "function"
    },
    {
      "inputs": [
        {
          "internalType": "bytes32",
          "name": "role",
          "type": "bytes32"
        },
        {
          "internalType": "address",
          "name": "account",
          "type": "address"
        }
      ],
      "name": "hasRole",
      "outputs": [
        {
          "internalType": "bool",
          "name": "",
          "type": "bool"
        }
      ],
      "stateMutability": "view",
      "type": "function"
    },
    {
      "inputs": [
        {
          "internalType": "address",
          "name": "collateralAsset",
          "type": "address"
        }
      ],
      "name": "isCollateralSupported",
      "outputs": [
        {
          "internalType": "bool",
          "name": "",
          "type": "bool"
        }
      ],
      "stateMutability": "view",
      "type": "function"
    },
    {
      "inputs": [],
      "name": "listCollateral",
      "outputs": [
        {
          "internalType": "address[]",
          "name": "",
          "type": "address[]"
        }
      ],
      "stateMutability": "view",
      "type": "function"
    },
    {
      "inputs": [
        {
          "internalType": "uint256",
          "name": "fromCollateralAmount",
          "type": "uint256"
        },
        {
          "internalType": "address",
          "name": "fromCollateral",
          "type": "address"
        },
        {
          "internalType": "address",
          "name": "toCollateral",
          "type": "address"
        }
      ],
      "name": "maxExchangeAmount",
      "outputs": [
        {
          "internalType": "uint256",
          "name": "toCollateralAmount",
          "type": "uint256"
        }
      ],
      "stateMutability": "view",
      "type": "function"
    },
    {
      "inputs": [],
      "name": "oracle",
      "outputs": [
        {
          "internalType": "contract IPriceOracleGetter",
          "name": "",
          "type": "address"
        }
      ],
      "stateMutability": "view",
      "type": "function"
    },
    {
      "inputs": [
        {
          "internalType": "bytes32",
          "name": "role",
          "type": "bytes32"
        },
        {
          "internalType": "address",
          "name": "callerConfirmation",
          "type": "address"
        }
      ],
      "name": "renounceRole",
      "outputs": [],
      "stateMutability": "nonpayable",
      "type": "function"
    },
    {
      "inputs": [
        {
          "internalType": "bytes32",
          "name": "role",
          "type": "bytes32"
        },
        {
          "internalType": "address",
          "name": "account",
          "type": "address"
        }
      ],
      "name": "revokeRole",
      "outputs": [],
      "stateMutability": "nonpayable",
      "type": "function"
    },
    {
      "inputs": [
        {
          "internalType": "uint256",
          "name": "_newBaseCurrencyUnit",
          "type": "uint256"
        }
      ],
      "name": "setBaseCurrencyUnit",
      "outputs": [],
      "stateMutability": "nonpayable",
      "type": "function"
    },
    {
      "inputs": [
        {
          "internalType": "contract IPriceOracleGetter",
          "name": "newOracle",
          "type": "address"
        }
      ],
      "name": "setOracle",
      "outputs": [],
      "stateMutability": "nonpayable",
      "type": "function"
    },
    {
      "inputs": [
        {
          "internalType": "bytes4",
          "name": "interfaceId",
          "type": "bytes4"
        }
      ],
      "name": "supportsInterface",
      "outputs": [
        {
          "internalType": "bool",
          "name": "",
          "type": "bool"
        }
      ],
      "stateMutability": "view",
      "type": "function"
    },
    {
      "inputs": [],
      "name": "totalValue",
      "outputs": [
        {
          "internalType": "uint256",
          "name": "usdValue",
          "type": "uint256"
        }
      ],
      "stateMutability": "view",
      "type": "function"
    },
    {
      "inputs": [
        {
          "internalType": "uint256",
          "name": "collateralAmount",
          "type": "uint256"
        },
        {
          "internalType": "address",
          "name": "collateralAsset",
          "type": "address"
        }
      ],
      "name": "withdraw",
      "outputs": [],
      "stateMutability": "nonpayable",
      "type": "function"
    },
    {
      "inputs": [
        {
          "internalType": "address",
          "name": "recipient",
          "type": "address"
        },
        {
          "internalType": "uint256",
          "name": "collateralAmount",
          "type": "uint256"
        },
        {
          "internalType": "address",
          "name": "collateralAsset",
          "type": "address"
        }
      ],
      "name": "withdrawTo",
      "outputs": [],
      "stateMutability": "nonpayable",
      "type": "function"
    }
  ],
  "transactionHash": "0x6111bb192df7b78f8a780725ce8d6c2870f03a4d2746fb21f16e18ed77e4f2cd",
  "args": [
    "0xFA7560956807d95DCeF22990DdD92e38DbAf5cDd"
  ],
  "numDeployments": 1,
  "solcInputHash": "837d09b24520c4514a08da515a665726",
  "bytecode": "0x6080346200019c57601f62001bc238819003918201601f1916830192916001600160401b03841183851017620001a157808392604095865283396020928391810103126200019c57516001600160a01b038116908190036200019c57600180546001600160a01b0319169190911790556305f5e1006002556200008233620001b7565b506200008e33620001b7565b50600060008051602062001b62833981519152815280825260018382200154808252838220338352835260ff8483205416156200017f5750620000d13362000237565b5060008051602062001b82833981519152815280825260018382200154808252838220338352835260ff8483205416156200017f57508260ff916200011633620002c8565b5060008051602062001ba283398151915281528084526001828220015493848252828220903383525220541615620001635750620001543362000354565b50516117619081620003e18239f35b604491519063e2517d3f60e01b82523360048301526024820152fd5b60449084519063e2517d3f60e01b82523360048301526024820152fd5b600080fd5b634e487b7160e01b600052604160045260246000fd5b6001600160a01b031660008181527fad3228b676f7d3cd4284a5443f17f1962b36e491b30a40b2405849e597ba5fb5602052604081205490919060ff166200023357818052816020526040822081835260205260408220600160ff19825416179055339160008051602062001b428339815191528180a4600190565b5090565b6001600160a01b031660008181527fb56095460044281636dd3a77e227972b73971c7d766b38feb76e4e7f12e8c602602052604081205490919060008051602062001b628339815191529060ff16620002c357808352826020526040832082845260205260408320600160ff1982541617905560008051602062001b42833981519152339380a4600190565b505090565b6001600160a01b031660008181527fc191fc48a308d795605d8380942284aa535eb60ab59dded9d8c4eff77cf3c872602052604081205490919060008051602062001b828339815191529060ff16620002c357808352826020526040832082845260205260408320600160ff1982541617905560008051602062001b42833981519152339380a4600190565b6001600160a01b031660008181527f94449471841a7f40a7871d590913647b573afdadc8e3b552848558acac45c28a602052604081205490919060008051602062001ba28339815191529060ff16620002c357808352826020526040832082845260205260408320600160ff1982541617905560008051602062001b42833981519152339380a460019056fe6040608081526004908136101561001557600080fd5b600091823560e01c908162f714ce14610e1e57816301ffc9a714610dc8578163132c29b214610d8d5781631ee903b614610cd1578163248a9ca314610ca75781632e718ab714610c6c5781632f2ff15d14610c42578163339b551514610be357816336568abe14610b9d57816345daa27b14610b625781634a0bbabb14610b405781635c23ef6e14610a405781636e553f65146109da5781637adbf973146108e95781637dc0d1d0146108c057816383f10777146107a1578163847b39d71461077057816391d148541461072a578163a217fddf1461070f578163a4e2a31e146105df578163c4e2c1e61461059c578163cf07456f146104dd578163d4c3eea014610318578163d547741f146102d9578163e00cb4a5146101b157508063f3bddde1146101935763fa6bd2ee1461014b57600080fd5b3461018f57602036600319011261018f576020906101866001600160a01b03610172610e72565b166000526004602052604060002054151590565b90519015158152f35b5080fd5b503461018f578160031936011261018f576020906002549051908152f35b919050346102d557806003193601126102d5576101cc610e57565b600154825163b3596f0760e01b81526001600160a01b039283168186018190526020959391929091869184916024918391165afa9182156102955783918691889461029f575b50855163313ce56760e01b815294859182905afa928315610295576102559495969361025c575b5061024f91610249913590610f16565b91610eef565b90610f29565b9051908152f35b6102499193509161028561024f93883d8a1161028e575b61027d8183610e9e565b810190610ed6565b93915091610239565b503d610273565b84513d88823e3d90fd5b9250925081813d83116102ce575b6102b78183610e9e565b810103126102ca57848391519238610212565b8580fd5b503d6102ad565b8280fd5b919050346102d557806003193601126102d557610314913561030f60016102fe610e57565b938387528660205286200154611278565b6113c7565b5080f35b919050346102d557826003193601126102d557600380546001805490959485936001600160a01b03928316928592915b858710610359576020898951908152f35b9091929394959781855282897fc2575a0e9e593c00f959f8c92f12db2869c3395a3b0502d05e2516446f71f85b01541688519063b3596f0760e01b825280868301526020602492818185818d5afa9081156104d35789916104a6575b508b5163313ce56760e01b81529282848a81845afa93841561047957908d86928c96610483575b50516370a0823160e01b8152308b82015291849183919082905afa928315610479578a93610441575b5050610249610418939261024f92610f16565b82018092116104305750978901959493929190610348565b634e487b7160e01b86526011855285fd5b9080929350813d8311610472575b6104598183610e9e565b8101031261046e57519061024961024f610405565b8880fd5b503d61044f565b8d513d8c823e3d90fd5b859291965061049e90833d851161028e5761027d8183610e9e565b9590916103dc565b90508181813d83116104cc575b6104bd8183610e9e565b8101031261046e5751386103b5565b503d6104b3565b8c513d8b823e3d90fd5b8284346105995780600319360112610599579080519182906003549182855260208095018093600384527fc2575a0e9e593c00f959f8c92f12db2869c3395a3b0502d05e2516446f71f85b90845b8181106105855750505081610541910382610e9e565b83519485948186019282875251809352850193925b82811061056557505050500390f35b83516001600160a01b031685528695509381019392810192600101610556565b82548452928801926001928301920161052b565b80fd5b8334610599576060366003190112610599576105dc6105b9610e72565b6105c1610e88565b906105ca61110c565b602435916001600160a01b0316611377565b80f35b9050346102d55760203660031901126102d5576105fa610e72565b91610603611186565b6001600160a01b039283166000818152600460205260409020549093906106f95760206024916001541683519283809263b3596f0760e01b825288888301525afa9081156106ef5785916106b9575b50156106a4576106618361165d565b1561068f5750507f500f8acd525a3d9f96ab641587f59e34ef9d02f9397fdd46bb7786273bad16078280a280f35b91602492519163cdb5999560e01b8352820152fd5b916024925191631066c96360e31b8352820152fd5b90506020813d6020116106e7575b816106d460209383610e9e565b810103126106e3575138610652565b8480fd5b3d91506106c7565b82513d87823e3d90fd5b5091602492519163098f893f60e21b8352820152fd5b50503461018f578160031936011261018f5751908152602090f35b9050346102d557816003193601126102d5578160209360ff9261074b610e57565b903582528186528282206001600160a01b039091168252855220549151911615158152f35b8284346105995760603660031901126105995750610255602092610792610e57565b61079a610e88565b9135610f49565b8391503461018f57608036600319011261018f578035926107c0610e57565b906107c9610e88565b91606435936107d66111e2565b6107e1848389610f49565b948086106108a357506107f26111e2565b60018060a01b039283851694610815866000526004602052604060002054151590565b156108675761082590848a610f49565b9081871161084b5750505094610844916105dc9596309133911661131c565b3390611377565b516394d08ba760e01b8152918201869052602482015260449150fd5b815162461bcd60e51b81526020818501526016602482015275155b9cdd5c1c1bdc9d19590818dbdb1b185d195c985b60521b6044820152606490fd5b83516330ff745960e11b8152918201869052602482015260449150fd5b50503461018f578160031936011261018f5760015490516001600160a01b039091168152602090f35b9050346102d55760203660031901126102d55780356001600160a01b03811692908390036109d65761091961123e565b8051638c89b64f60e01b8152906020828481875afa9182156109cc578592610998575b50600254809203610983575050600180546001600160a01b03191683179055507f3f32684a32a11dabdbb8c0177de80aa3ae36a004d75210335b49e544e48cd0aa8280a280f35b51639b6812b960e01b81529182015260249150fd5b9091506020813d6020116109c4575b816109b460209383610e9e565b810103126106e35751903861093c565b3d91506109a7565b81513d87823e3d90fd5b8380fd5b83833461018f578060031936011261018f576001600160a01b036109fc610e57565b1690610a15826000526004602052604060002054151590565b15610a2b57506105dc919235903090339061131c565b51632762993f60e11b81529283015250602490fd5b9050346102d557816003193601126102d557610a5a610e57565b9060018060a01b03938460015416845195869463b3596f0760e01b86521690818486015284602460209889935afa938415610b36579086918395610b05575b50855163313ce56760e01b815291908290859082905afa918215610afa57610ad892610255959492610ad19291610add575b50610eef565b9035610f16565b610f29565b610af49150883d8a1161028e5761027d8183610e9e565b38610acb565b8551903d90823e3d90fd5b8281939296503d8311610b2f575b610b1d8183610e9e565b8101031261018f575192859083610a99565b503d610b13565b85513d84823e3d90fd5b83903461018f57602036600319011261018f57610b5b61123e565b3560025580f35b50503461018f578160031936011261018f57602090517f1f29e81ed8f7ae439f042f6b6767d105e87c4eef908508d5d9e550aef35af6448152f35b83833461018f578060031936011261018f57610bb7610e57565b90336001600160a01b03831603610bd457506103149192356113c7565b5163334bd91960e11b81528390fd5b83833461018f57608036600319011261018f57823592610c01610e57565b604435926001600160a01b036064358181169491939290858103610c3e57610c276111e2565b610815866000526004602052604060002054151590565b8780fd5b919050346102d557806003193601126102d5576103149135610c6760016102fe610e57565b61129e565b50503461018f578160031936011261018f57602090517f85e8f2d6819d6b24108062d87ea08f54651bcb8960d98062d3faf96e7873b8b98152f35b9050346102d55760203660031901126102d557816020936001923581528085522001549051908152f35b9050346102d55760203660031901126102d557610cec610e72565b610cf4611186565b6001600160a01b031660008181526004602052604090205490929015610d785760016003541115610d6b57610d2883611489565b15610d565750507fcebbf63022189259f517d89d98c7c527b44c211d25e443dad13aab2479c7e7b38280a280f35b91602492519163644e3dd760e11b8352820152fd5b516305bc742560e11b8152fd5b916024925191632108722b60e01b8352820152fd5b50503461018f578160031936011261018f57602090517f1a52e20da533a06a1f80a73dba6e5d09cb788f108eae685b8ce6644834e67abe8152f35b9050346102d55760203660031901126102d557359063ffffffff60e01b82168092036102d55760209250637965db0b60e01b8214918215610e0d575b50519015158152f35b6301ffc9a760e01b14915038610e04565b919050346102d55736600319011261018f576105dc90610e3c610e57565b90610e4561110c565b359033906001600160a01b0316611377565b602435906001600160a01b0382168203610e6d57565b600080fd5b600435906001600160a01b0382168203610e6d57565b604435906001600160a01b0382168203610e6d57565b90601f8019910116810190811067ffffffffffffffff821117610ec057604052565b634e487b7160e01b600052604160045260246000fd5b90816020910312610e6d575160ff81168103610e6d5790565b60ff16604d8111610f0057600a0a90565b634e487b7160e01b600052601160045260246000fd5b81810292918115918404141715610f0057565b8115610f33570490565b634e487b7160e01b600052601260045260246000fd5b6001546040805163b3596f0760e01b8082526001600160a01b03958616600483018190529596929594939192918716916020918285602481875afa948515611101576000956110cf575b50906024839289519a8b938492835216958660048301525afa9687156110c457600097611095575b50855194818660048163313ce56760e01b948582525afa95861561108a57600096611069575b508190600488518095819382525afa95861561105f57509161102996959391610ad8959360009561102c575b50509161024f6102496102499361102395610f16565b90610f16565b90565b611023949295506102499361105461024f938361024994903d1061028e5761027d8183610e9e565b96939550935061100d565b513d6000823e3d90fd5b8291965061108390823d841161028e5761027d8183610e9e565b9590610fe1565b87513d6000823e3d90fd5b9080975081813d83116110bd575b6110ad8183610e9e565b81010312610e6d57519538610fbb565b503d6110a3565b86513d6000823e3d90fd5b919094508282813d83116110fa575b6110e88183610e9e565b81010312610e6d579051936024610f93565b503d6110de565b88513d6000823e3d90fd5b3360009081527fc191fc48a308d795605d8380942284aa535eb60ab59dded9d8c4eff77cf3c87260205260409020547f1f29e81ed8f7ae439f042f6b6767d105e87c4eef908508d5d9e550aef35af6449060ff16156111685750565b6044906040519063e2517d3f60e01b82523360048301526024820152fd5b3360009081527fb56095460044281636dd3a77e227972b73971c7d766b38feb76e4e7f12e8c60260205260409020547f85e8f2d6819d6b24108062d87ea08f54651bcb8960d98062d3faf96e7873b8b99060ff16156111685750565b3360009081527f94449471841a7f40a7871d590913647b573afdadc8e3b552848558acac45c28a60205260409020547f1a52e20da533a06a1f80a73dba6e5d09cb788f108eae685b8ce6644834e67abe9060ff16156111685750565b3360009081527fad3228b676f7d3cd4284a5443f17f1962b36e491b30a40b2405849e597ba5fb5602052604081205460ff16156111685750565b80600052600060205260406000203360005260205260ff60406000205416156111685750565b9060009180835282602052604083209160018060a01b03169182845260205260ff6040842054161560001461131757808352826020526040832082845260205260408320600160ff198254161790557f2f8788117e7eff1d82e926ec794901d17c78024a50270940304540a733656f0d339380a4600190565b505090565b6040516323b872dd60e01b60208201526001600160a01b03928316602482015292909116604483015260648083019390935291815260a081019181831067ffffffffffffffff841117610ec05761137592604052611589565b565b60405163a9059cbb60e01b60208201526001600160a01b039092166024830152604480830193909352918152608081019167ffffffffffffffff831182841017610ec05761137592604052611589565b9060009180835282602052604083209160018060a01b03169182845260205260ff6040842054166000146113175780835282602052604083208284526020526040832060ff1981541690557ff6391f5c32d9c69d2a47ea670b442974b53935d1edc7fd64eb21e047a839171b339380a4600190565b6003548110156114735760036000527fc2575a0e9e593c00f959f8c92f12db2869c3395a3b0502d05e2516446f71f85b0190600090565b634e487b7160e01b600052603260045260246000fd5b6000908082526004908160205260408320548015156000146115835760001990808201818111611570576003549083820191821161155d57818103611513575b5050506003548015611500578101906114e18261143c565b909182549160031b1b1916905560035582526020526040812055600190565b634e487b7160e01b855260318452602485fd5b6115486115226115319361143c565b90549060031b1c92839261143c565b819391549060031b91821b91600019901b19161790565b905585528360205260408520553880806114c9565b634e487b7160e01b875260118652602487fd5b634e487b7160e01b865260118552602486fd5b50505090565b60018060a01b031690600080826020829451910182865af13d15611651573d9067ffffffffffffffff821161163d57906115e591604051916115d56020601f19601f8401160184610e9e565b82523d84602084013e5b846116c8565b908151918215159283611615575b5050506115fd5750565b60249060405190635274afe760e01b82526004820152fd5b81929350906020918101031261018f57602001519081159182150361059957503880806115f3565b634e487b7160e01b83526041600452602483fd5b6115e5906060906115df565b6000818152600460205260408120546116c357600354680100000000000000008110156116af57908261169b6115318460016040960160035561143c565b905560035492815260046020522055600190565b634e487b7160e01b82526041600452602482fd5b905090565b906116ef57508051156116dd57805190602001fd5b604051630a12f52160e11b8152600490fd5b81511580611722575b611700575090565b604051639996b31560e01b81526001600160a01b039091166004820152602490fd5b50803b156116f856fea264697066735822122078b5b2a606e69e7a541d57954e0f14c0d72ae3a9be5496d8c7ddbefa29b660a364736f6c634300081800332f8788117e7eff1d82e926ec794901d17c78024a50270940304540a733656f0d85e8f2d6819d6b24108062d87ea08f54651bcb8960d98062d3faf96e7873b8b91f29e81ed8f7ae439f042f6b6767d105e87c4eef908508d5d9e550aef35af6441a52e20da533a06a1f80a73dba6e5d09cb788f108eae685b8ce6644834e67abe",
  "devdoc": {
    "errors": {
      "AccessControlBadConfirmation()": [
        {
          "details": "The caller of a function is not the expected one. NOTE: Don't confuse with {AccessControlUnauthorizedAccount}."
        }
      ],
      "AccessControlUnauthorizedAccount(address,bytes32)": [
        {
          "details": "The `account` is missing a role."
        }
      ],
      "AddressEmptyCode(address)": [
        {
          "details": "There's no code at `target` (it is not a contract)."
        }
      ],
      "AddressInsufficientBalance(address)": [
        {
          "details": "The ETH balance of the account is not enough to perform the operation."
        }
      ],
      "FailedInnerCall()": [
        {
          "details": "A call to an address target failed. The target may have reverted."
        }
      ],
      "SafeERC20FailedOperation(address)": [
        {
          "details": "An operation with an ERC20 token failed."
        }
      ]
    },
    "events": {
      "RoleAdminChanged(bytes32,bytes32,bytes32)": {
        "details": "Emitted when `newAdminRole` is set as ``role``'s admin role, replacing `previousAdminRole` `DEFAULT_ADMIN_ROLE` is the starting admin for all roles, despite {RoleAdminChanged} not being emitted signaling this."
      },
      "RoleGranted(bytes32,address,address)": {
        "details": "Emitted when `account` is granted `role`. `sender` is the account that originated the contract call, an admin role bearer except when using {AccessControl-_setupRole}."
      },
      "RoleRevoked(bytes32,address,address)": {
        "details": "Emitted when `account` is revoked `role`. `sender` is the account that originated the contract call:   - if using `revokeRole`, it is the admin role bearer   - if using `renounceRole`, it is the role bearer (i.e. `account`)"
      }
    },
    "kind": "dev",
    "methods": {
      "allowCollateral(address)": {
        "params": {
          "collateralAsset": "The address of the collateral asset"
        }
      },
      "assetAmountFromValue(uint256,address)": {
        "params": {
          "asset": "The address of the asset",
          "usdValue": "The USD value"
        },
        "returns": {
          "assetAmount": "The amount of the asset"
        }
      },
      "assetValueFromAmount(uint256,address)": {
        "params": {
          "asset": "The address of the asset",
          "assetAmount": "The amount of the asset"
        },
        "returns": {
          "usdValue": "The USD value of the asset"
        }
      },
      "deposit(uint256,address)": {
        "params": {
          "collateralAmount": "The amount of collateral to deposit",
          "collateralAsset": "The address of the collateral asset"
        }
      },
      "disallowCollateral(address)": {
        "details": "Requires at least one collateral asset to remain supported",
        "params": {
          "collateralAsset": "The address of the collateral asset to disallow"
        }
      },
      "exchangeCollateral(uint256,address,uint256,address)": {
        "details": "Ensures the exchange maintains equivalent value using oracle prices",
        "params": {
          "fromCollateral": "Address of the source collateral token",
          "fromCollateralAmount": "Amount of collateral to exchange from",
          "toCollateral": "Address of the destination collateral token",
          "toCollateralAmount": "Amount of collateral to receive"
        }
      },
      "exchangeMaxCollateral(uint256,address,address,uint256)": {
        "details": "Calculates and executes the maximum possible exchange while respecting minimum amount",
        "params": {
          "fromCollateral": "Address of the source collateral token",
          "fromCollateralAmount": "Amount of collateral to exchange from",
          "toCollateral": "Address of the destination collateral token",
          "toMinCollateral": "Minimum amount of destination collateral to receive"
        }
      },
      "getRoleAdmin(bytes32)": {
        "details": "Returns the admin role that controls `role`. See {grantRole} and {revokeRole}. To change a role's admin, use {_setRoleAdmin}."
      },
      "grantRole(bytes32,address)": {
        "details": "Grants `role` to `account`. If `account` had not been already granted `role`, emits a {RoleGranted} event. Requirements: - the caller must have ``role``'s admin role. May emit a {RoleGranted} event."
      },
      "hasRole(bytes32,address)": {
        "details": "Returns `true` if `account` has been granted `role`."
      },
      "isCollateralSupported(address)": {
        "params": {
          "collateralAsset": "The address of the collateral asset to check"
        },
        "returns": {
          "_0": "bool True if the asset is supported, false otherwise"
        }
      },
      "listCollateral()": {
        "returns": {
          "_0": "address[] Array of collateral asset addresses"
        }
      },
      "maxExchangeAmount(uint256,address,address)": {
        "details": "Uses oracle prices and token decimals to maintain equivalent value",
        "params": {
          "fromCollateral": "Address of the source collateral token",
          "fromCollateralAmount": "Amount of source collateral",
          "toCollateral": "Address of the destination collateral token"
        },
        "returns": {
          "toCollateralAmount": "The maximum amount of destination collateral that can be received"
        }
      },
      "renounceRole(bytes32,address)": {
        "details": "Revokes `role` from the calling account. Roles are often managed via {grantRole} and {revokeRole}: this function's purpose is to provide a mechanism for accounts to lose their privileges if they are compromised (such as when a trusted device is misplaced). If the calling account had been revoked `role`, emits a {RoleRevoked} event. Requirements: - the caller must be `callerConfirmation`. May emit a {RoleRevoked} event."
      },
      "revokeRole(bytes32,address)": {
        "details": "Revokes `role` from `account`. If `account` had been granted `role`, emits a {RoleRevoked} event. Requirements: - the caller must have ``role``'s admin role. May emit a {RoleRevoked} event."
      },
      "setBaseCurrencyUnit(uint256)": {
        "details": "Only used if the oracle's base currency unit changes",
        "params": {
          "_newBaseCurrencyUnit": "The new base currency unit to set"
        }
      },
      "setOracle(address)": {
        "params": {
          "newOracle": "The new oracle to use"
        }
      },
      "supportsInterface(bytes4)": {
        "details": "See {IERC165-supportsInterface}."
      },
      "totalValue()": {
        "returns": {
          "usdValue": "The total value of all collateral in USD"
        }
      },
      "withdraw(uint256,address)": {
        "params": {
          "collateralAmount": "The amount of collateral to withdraw",
          "collateralAsset": "The address of the collateral asset"
        }
      },
      "withdrawTo(address,uint256,address)": {
        "params": {
          "collateralAmount": "The amount of collateral to withdraw",
          "collateralAsset": "The address of the collateral asset",
          "recipient": "The address receiving the collateral"
        }
      }
    },
    "title": "CollateralHolderVault",
    "version": 1
  },
  "userdoc": {
    "kind": "user",
    "methods": {
      "allowCollateral(address)": {
        "notice": "Allows a new collateral asset"
      },
      "assetAmountFromValue(uint256,address)": {
        "notice": "Calculates the amount of an asset that corresponds to a given USD value"
      },
      "assetValueFromAmount(uint256,address)": {
        "notice": "Calculates the USD value of a given amount of an asset"
      },
      "deposit(uint256,address)": {
        "notice": "Deposit collateral into the vault"
      },
      "disallowCollateral(address)": {
        "notice": "Disallows a previously supported collateral asset"
      },
      "exchangeCollateral(uint256,address,uint256,address)": {
        "notice": "Exchanges one type of collateral for another"
      },
      "exchangeMaxCollateral(uint256,address,address,uint256)": {
        "notice": "Exchanges collateral for the maximum possible amount of another collateral"
      },
      "isCollateralSupported(address)": {
        "notice": "Checks if a given asset is supported as collateral"
      },
      "listCollateral()": {
        "notice": "Returns a list of all supported collateral assets"
      },
      "maxExchangeAmount(uint256,address,address)": {
        "notice": "Calculates the maximum amount of destination collateral that can be received"
      },
      "setBaseCurrencyUnit(uint256)": {
        "notice": "Updates the base currency unit used for price calculations"
      },
      "setOracle(address)": {
        "notice": "Sets the oracle to use for collateral valuation"
      },
      "totalValue()": {
        "notice": "Calculates the total value of all collateral in the vault"
      },
      "withdraw(uint256,address)": {
        "notice": "Withdraws collateral from the vault"
      },
      "withdrawTo(address,uint256,address)": {
        "notice": "Withdraws collateral from the vault to a specific address"
      }
    },
    "notice": "Implementation of CollateralVault for only holding tokens",
    "version": 1
  },
  "storageLayout": {
    "storage": [
      {
        "astId": 26,
        "contract": "contracts/dusd/CollateralHolderVault.sol:CollateralHolderVault",
        "label": "_roles",
        "offset": 0,
        "slot": "0",
        "type": "t_mapping(t_bytes32,t_struct(RoleData)21_storage)"
      },
      {
        "astId": 7223,
        "contract": "contracts/dusd/CollateralHolderVault.sol:CollateralHolderVault",
        "label": "oracle",
        "offset": 0,
        "slot": "1",
        "type": "t_contract(IPriceOracleGetter)10257"
      },
      {
        "astId": 7225,
        "contract": "contracts/dusd/CollateralHolderVault.sol:CollateralHolderVault",
        "label": "baseCurrencyUnit",
        "offset": 0,
        "slot": "2",
        "type": "t_uint256"
      },
      {
        "astId": 5418,
        "contract": "contracts/dusd/CollateralHolderVault.sol:CollateralHolderVault",
        "label": "_supportedCollaterals",
        "offset": 0,
        "slot": "3",
        "type": "t_struct(AddressSet)2637_storage"
      }
    ],
    "types": {
      "t_address": {
        "encoding": "inplace",
        "label": "address",
        "numberOfBytes": "20"
      },
      "t_array(t_bytes32)dyn_storage": {
        "base": "t_bytes32",
        "encoding": "dynamic_array",
        "label": "bytes32[]",
        "numberOfBytes": "32"
      },
      "t_bool": {
        "encoding": "inplace",
        "label": "bool",
        "numberOfBytes": "1"
      },
      "t_bytes32": {
        "encoding": "inplace",
        "label": "bytes32",
        "numberOfBytes": "32"
      },
      "t_contract(IPriceOracleGetter)10257": {
        "encoding": "inplace",
        "label": "contract IPriceOracleGetter",
        "numberOfBytes": "20"
      },
      "t_mapping(t_address,t_bool)": {
        "encoding": "mapping",
        "key": "t_address",
        "label": "mapping(address => bool)",
        "numberOfBytes": "32",
        "value": "t_bool"
      },
      "t_mapping(t_bytes32,t_struct(RoleData)21_storage)": {
        "encoding": "mapping",
        "key": "t_bytes32",
        "label": "mapping(bytes32 => struct AccessControl.RoleData)",
        "numberOfBytes": "32",
        "value": "t_struct(RoleData)21_storage"
      },
      "t_mapping(t_bytes32,t_uint256)": {
        "encoding": "mapping",
        "key": "t_bytes32",
        "label": "mapping(bytes32 => uint256)",
        "numberOfBytes": "32",
        "value": "t_uint256"
      },
      "t_struct(AddressSet)2637_storage": {
        "encoding": "inplace",
        "label": "struct EnumerableSet.AddressSet",
        "members": [
          {
            "astId": 2636,
            "contract": "contracts/dusd/CollateralHolderVault.sol:CollateralHolderVault",
            "label": "_inner",
            "offset": 0,
            "slot": "0",
            "type": "t_struct(Set)2322_storage"
          }
        ],
        "numberOfBytes": "64"
      },
      "t_struct(RoleData)21_storage": {
        "encoding": "inplace",
        "label": "struct AccessControl.RoleData",
        "members": [
          {
            "astId": 18,
            "contract": "contracts/dusd/CollateralHolderVault.sol:CollateralHolderVault",
            "label": "hasRole",
            "offset": 0,
            "slot": "0",
            "type": "t_mapping(t_address,t_bool)"
          },
          {
            "astId": 20,
            "contract": "contracts/dusd/CollateralHolderVault.sol:CollateralHolderVault",
            "label": "adminRole",
            "offset": 0,
            "slot": "1",
            "type": "t_bytes32"
          }
        ],
        "numberOfBytes": "64"
      },
      "t_struct(Set)2322_storage": {
        "encoding": "inplace",
        "label": "struct EnumerableSet.Set",
        "members": [
          {
            "astId": 2317,
            "contract": "contracts/dusd/CollateralHolderVault.sol:CollateralHolderVault",
            "label": "_values",
            "offset": 0,
            "slot": "0",
            "type": "t_array(t_bytes32)dyn_storage"
          },
          {
            "astId": 2321,
            "contract": "contracts/dusd/CollateralHolderVault.sol:CollateralHolderVault",
            "label": "_positions",
            "offset": 0,
            "slot": "1",
            "type": "t_mapping(t_bytes32,t_uint256)"
          }
        ],
        "numberOfBytes": "64"
      },
      "t_uint256": {
        "encoding": "inplace",
        "label": "uint256",
        "numberOfBytes": "32"
      }
    }
  }
}