{
  "address": "0x09AAE3C4F583B91147EfF57A757f5D26ab14a745",
  "abi": [
    {
      "inputs": [
        {
          "internalType": "uint256",
          "name": "_baseCurrencyUnit",
          "type": "uint256"
        }
      ],
      "stateMutability": "nonpayable",
      "type": "constructor"
    },
    {
      "inputs": [
        {
          "internalType": "address",
          "name": "asset",
          "type": "address"
        }
      ],
      "name": "API3InvalidPrice",
      "type": "error"
    },
    {
      "inputs": [],
      "name": "AccessControlBadConfirmation",
      "type": "error"
    },
    {
      "inputs": [
        {
          "internalType": "address",
          "name": "account",
          "type": "address"
        },
        {
          "internalType": "bytes32",
          "name": "neededRole",
          "type": "bytes32"
        }
      ],
      "name": "AccessControlUnauthorizedAccount",
      "type": "error"
    },
    {
      "inputs": [
        {
          "internalType": "address",
          "name": "asset",
          "type": "address"
        }
      ],
      "name": "AssetNotConfigured",
      "type": "error"
    },
    {
      "inputs": [
        {
          "internalType": "address",
          "name": "pool",
          "type": "address"
        }
      ],
      "name": "InvalidPool",
      "type": "error"
    },
    {
      "inputs": [
        {
          "internalType": "address",
          "name": "pool",
          "type": "address"
        },
        {
          "internalType": "uint256",
          "name": "tokenIndex",
          "type": "uint256"
        }
      ],
      "name": "InvalidTokenIndex",
      "type": "error"
    },
    {
      "inputs": [
        {
          "internalType": "address",
          "name": "asset",
          "type": "address"
        }
      ],
      "name": "PriceIsZero",
      "type": "error"
    },
    {
      "anonymous": false,
      "inputs": [
        {
          "indexed": true,
          "internalType": "address",
          "name": "asset",
          "type": "address"
        }
      ],
      "name": "AssetConfigRemoved",
      "type": "event"
    },
    {
      "anonymous": false,
      "inputs": [
        {
          "indexed": true,
          "internalType": "address",
          "name": "asset",
          "type": "address"
        },
        {
          "indexed": true,
          "internalType": "address",
          "name": "pool",
          "type": "address"
        },
        {
          "indexed": false,
          "internalType": "uint256",
          "name": "tokenIndex",
          "type": "uint256"
        }
      ],
      "name": "AssetConfigSet",
      "type": "event"
    },
    {
      "anonymous": false,
      "inputs": [
        {
          "indexed": true,
          "internalType": "address",
          "name": "asset",
          "type": "address"
        }
      ],
      "name": "CompositeFeedRemoved",
      "type": "event"
    },
    {
      "anonymous": false,
      "inputs": [
        {
          "indexed": true,
          "internalType": "address",
          "name": "asset",
          "type": "address"
        },
        {
          "indexed": true,
          "internalType": "address",
          "name": "api3Asset",
          "type": "address"
        },
        {
          "indexed": true,
          "internalType": "address",
          "name": "api3Wrapper",
          "type": "address"
        },
        {
          "indexed": false,
          "internalType": "uint256",
          "name": "curveLowerThresholdInBase",
          "type": "uint256"
        },
        {
          "indexed": false,
          "internalType": "uint256",
          "name": "curveFixedPriceInBase",
          "type": "uint256"
        },
        {
          "indexed": false,
          "internalType": "uint256",
          "name": "api3LowerThresholdInBase",
          "type": "uint256"
        },
        {
          "indexed": false,
          "internalType": "uint256",
          "name": "api3FixedPriceInBase",
          "type": "uint256"
        }
      ],
      "name": "CompositeFeedSet",
      "type": "event"
    },
    {
      "anonymous": false,
      "inputs": [
        {
          "indexed": true,
          "internalType": "bytes32",
          "name": "role",
          "type": "bytes32"
        },
        {
          "indexed": true,
          "internalType": "bytes32",
          "name": "previousAdminRole",
          "type": "bytes32"
        },
        {
          "indexed": true,
          "internalType": "bytes32",
          "name": "newAdminRole",
          "type": "bytes32"
        }
      ],
      "name": "RoleAdminChanged",
      "type": "event"
    },
    {
      "anonymous": false,
      "inputs": [
        {
          "indexed": true,
          "internalType": "bytes32",
          "name": "role",
          "type": "bytes32"
        },
        {
          "indexed": true,
          "internalType": "address",
          "name": "account",
          "type": "address"
        },
        {
          "indexed": true,
          "internalType": "address",
          "name": "sender",
          "type": "address"
        }
      ],
      "name": "RoleGranted",
      "type": "event"
    },
    {
      "anonymous": false,
      "inputs": [
        {
          "indexed": true,
          "internalType": "bytes32",
          "name": "role",
          "type": "bytes32"
        },
        {
          "indexed": true,
          "internalType": "address",
          "name": "account",
          "type": "address"
        },
        {
          "indexed": true,
          "internalType": "address",
          "name": "sender",
          "type": "address"
        }
      ],
      "name": "RoleRevoked",
      "type": "event"
    },
    {
      "inputs": [],
      "name": "BASE_CURRENCY",
      "outputs": [
        {
          "internalType": "address",
          "name": "",
          "type": "address"
        }
      ],
      "stateMutability": "view",
      "type": "function"
    },
    {
      "inputs": [],
      "name": "BASE_CURRENCY_UNIT",
      "outputs": [
        {
          "internalType": "uint256",
          "name": "",
          "type": "uint256"
        }
      ],
      "stateMutability": "view",
      "type": "function"
    },
    {
      "inputs": [],
      "name": "CURVE_BASE_CURRENCY_UNIT",
      "outputs": [
        {
          "internalType": "uint256",
          "name": "",
          "type": "uint256"
        }
      ],
      "stateMutability": "view",
      "type": "function"
    },
    {
      "inputs": [],
      "name": "CURVE_RATE_PRECISION",
      "outputs": [
        {
          "internalType": "uint256",
          "name": "",
          "type": "uint256"
        }
      ],
      "stateMutability": "view",
      "type": "function"
    },
    {
      "inputs": [],
      "name": "DEFAULT_ADMIN_ROLE",
      "outputs": [
        {
          "internalType": "bytes32",
          "name": "",
          "type": "bytes32"
        }
      ],
      "stateMutability": "view",
      "type": "function"
    },
    {
      "inputs": [],
      "name": "ORACLE_MANAGER_ROLE",
      "outputs": [
        {
          "internalType": "bytes32",
          "name": "",
          "type": "bytes32"
        }
      ],
      "stateMutability": "view",
      "type": "function"
    },
    {
      "inputs": [
        {
          "internalType": "address",
          "name": "",
          "type": "address"
        }
      ],
      "name": "assetConfigs",
      "outputs": [
        {
          "internalType": "address",
          "name": "pool",
          "type": "address"
        },
        {
          "internalType": "uint256",
          "name": "tokenIndex",
          "type": "uint256"
        }
      ],
      "stateMutability": "view",
      "type": "function"
    },
    {
      "inputs": [
        {
          "internalType": "address",
          "name": "",
          "type": "address"
        }
      ],
      "name": "compositeFeeds",
      "outputs": [
        {
          "internalType": "address",
          "name": "api3Asset",
          "type": "address"
        },
        {
          "internalType": "address",
          "name": "api3Wrapper",
          "type": "address"
        },
        {
          "components": [
            {
              "components": [
                {
                  "internalType": "uint256",
                  "name": "lowerThresholdInBase",
                  "type": "uint256"
                },
                {
                  "internalType": "uint256",
                  "name": "fixedPriceInBase",
                  "type": "uint256"
                }
              ],
              "internalType": "struct ThresholdingUtils.ThresholdConfig",
              "name": "primary",
              "type": "tuple"
            },
            {
              "components": [
                {
                  "internalType": "uint256",
                  "name": "lowerThresholdInBase",
                  "type": "uint256"
                },
                {
                  "internalType": "uint256",
                  "name": "fixedPriceInBase",
                  "type": "uint256"
                }
              ],
              "internalType": "struct ThresholdingUtils.ThresholdConfig",
              "name": "secondary",
              "type": "tuple"
            }
          ],
          "internalType": "struct ThresholdingUtils.CompositeThresholdFeed",
          "name": "thresholds",
          "type": "tuple"
        }
      ],
      "stateMutability": "view",
      "type": "function"
    },
    {
      "inputs": [
        {
          "internalType": "address",
          "name": "asset",
          "type": "address"
        }
      ],
      "name": "getAssetPrice",
      "outputs": [
        {
          "internalType": "uint256",
          "name": "",
          "type": "uint256"
        }
      ],
      "stateMutability": "view",
      "type": "function"
    },
    {
      "inputs": [
        {
          "internalType": "address",
          "name": "asset",
          "type": "address"
        }
      ],
      "name": "getPriceInfo",
      "outputs": [
        {
          "internalType": "uint256",
          "name": "price",
          "type": "uint256"
        },
        {
          "internalType": "bool",
          "name": "isAlive",
          "type": "bool"
        }
      ],
      "stateMutability": "view",
      "type": "function"
    },
    {
      "inputs": [
        {
          "internalType": "bytes32",
          "name": "role",
          "type": "bytes32"
        }
      ],
      "name": "getRoleAdmin",
      "outputs": [
        {
          "internalType": "bytes32",
          "name": "",
          "type": "bytes32"
        }
      ],
      "stateMutability": "view",
      "type": "function"
    },
    {
      "inputs": [
        {
          "internalType": "bytes32",
          "name": "role",
          "type": "bytes32"
        },
        {
          "internalType": "address",
          "name": "account",
          "type": "address"
        }
      ],
      "name": "grantRole",
      "outputs": [],
      "stateMutability": "nonpayable",
      "type": "function"
    },
    {
      "inputs": [
        {
          "internalType": "bytes32",
          "name": "role",
          "type": "bytes32"
        },
        {
          "internalType": "address",
          "name": "account",
          "type": "address"
        }
      ],
      "name": "hasRole",
      "outputs": [
        {
          "internalType": "bool",
          "name": "",
          "type": "bool"
        }
      ],
      "stateMutability": "view",
      "type": "function"
    },
    {
      "inputs": [
        {
          "internalType": "address",
          "name": "asset",
          "type": "address"
        }
      ],
      "name": "removeAssetConfig",
      "outputs": [],
      "stateMutability": "nonpayable",
      "type": "function"
    },
    {
      "inputs": [
        {
          "internalType": "address",
          "name": "asset",
          "type": "address"
        }
      ],
      "name": "removeCompositeFeed",
      "outputs": [],
      "stateMutability": "nonpayable",
      "type": "function"
    },
    {
      "inputs": [
        {
          "internalType": "bytes32",
          "name": "role",
          "type": "bytes32"
        },
        {
          "internalType": "address",
          "name": "callerConfirmation",
          "type": "address"
        }
      ],
      "name": "renounceRole",
      "outputs": [],
      "stateMutability": "nonpayable",
      "type": "function"
    },
    {
      "inputs": [
        {
          "internalType": "bytes32",
          "name": "role",
          "type": "bytes32"
        },
        {
          "internalType": "address",
          "name": "account",
          "type": "address"
        }
      ],
      "name": "revokeRole",
      "outputs": [],
      "stateMutability": "nonpayable",
      "type": "function"
    },
    {
      "inputs": [
        {
          "internalType": "address",
          "name": "asset",
          "type": "address"
        },
        {
          "internalType": "address",
          "name": "pool",
          "type": "address"
        }
      ],
      "name": "setAssetConfig",
      "outputs": [],
      "stateMutability": "nonpayable",
      "type": "function"
    },
    {
      "inputs": [
        {
          "internalType": "address",
          "name": "asset",
          "type": "address"
        },
        {
          "internalType": "address",
          "name": "api3Asset",
          "type": "address"
        },
        {
          "internalType": "address",
          "name": "api3Wrapper",
          "type": "address"
        },
        {
          "internalType": "uint256",
          "name": "curveLowerThresholdInBase",
          "type": "uint256"
        },
        {
          "internalType": "uint256",
          "name": "curveFixedPriceInBase",
          "type": "uint256"
        },
        {
          "internalType": "uint256",
          "name": "api3LowerThresholdInBase",
          "type": "uint256"
        },
        {
          "internalType": "uint256",
          "name": "api3FixedPriceInBase",
          "type": "uint256"
        }
      ],
      "name": "setCompositeFeed",
      "outputs": [],
      "stateMutability": "nonpayable",
      "type": "function"
    },
    {
      "inputs": [
        {
          "internalType": "bytes4",
          "name": "interfaceId",
          "type": "bytes4"
        }
      ],
      "name": "supportsInterface",
      "outputs": [
        {
          "internalType": "bool",
          "name": "",
          "type": "bool"
        }
      ],
      "stateMutability": "view",
      "type": "function"
    }
  ],
  "transactionHash": "0x439258877d6b6c09e8f1d0ff47472b5f57bcf4b275558705f316591e5ad2ab0d",
  "args": [
    "100000000"
  ],
  "numDeployments": 1,
  "solcInputHash": "9a15080c776d86cc5905c4eb02b131a8",
  "bytecode": "0x60a03461007557601f6112ec38819003918201601f19168301916001600160401b0383118484101761007a57808492602094604052833981010312610075575160805261004b33610090565b506100553361010e565b5060405161111d90816101af82396080518181816105c20152610d7d0152f35b600080fd5b634e487b7160e01b600052604160045260246000fd5b6001600160a01b031660008181527fad3228b676f7d3cd4284a5443f17f1962b36e491b30a40b2405849e597ba5fb5602052604081205490919060ff1661010a57818052816020526040822081835260205260408220600160ff1982541617905533916000805160206112cc8339815191528180a4600190565b5090565b6001600160a01b031660008181527ffb8036e0bab3828a1a1cce97396031bc7ea8a361699e1bc9c4844f3aeee78d6e60205260408120549091907fced6982f480260bdd8ad5cb18ff2854f0306d78d904ad6cc107e8f3a0f526c189060ff166101a957808352826020526040832082845260205260408320600160ff198254161790556000805160206112cc833981519152339380a4600190565b50509056fe6080604081815260048036101561001557600080fd5b600090813560e01c93846301ffc9a7146109685750836322dd40ef14610102578363248a9ca31461093e5783632f2ff15d1461091657836336568abe146108d1578363519ffff1146108545783637609d7f6146107f457836381a69511146105e55783638c89b64f146105aa5783638edbf4361461057957836391d1485414610533578363a085a793146102ed578363a217fddf146102d2578363b3596f071461027b578363bfc69e1c14610240578363d547741f146101ff57508263e19f4700146101e5578263f667e42814610183578263f99256d51461010757505063fbc12e5c1461010257600080fd5b6109ba565b346101805760208060031936011261017c5780838160c09560018060a01b0395866101306109f8565b168152600283522091610150600287855416976001860154169401610a9c565b9281519687528287015282519081519087015201516060850152015180516080840152015160a0820152f35b5080fd5b80fd5b903461017c57602036600319011261017c578160016101a06109f8565b6101a8610ac8565b818060a01b03169283835281602052822082815501557fecd58386925932344b9d411955c289f1af8401c69c40aa31dfcab72b21759f458280a280f35b903461017c578160031936011261017c5751908152602090f35b823461023c578060031936011261023c57610238913561023360016102226109e2565b938387528660205286200154610b42565b610be6565b5080f35b8280fd5b50903461017c578160031936011261017c57602090517fced6982f480260bdd8ad5cb18ff2854f0306d78d904ad6cc107e8f3a0f526c188152f35b903461018057602036600319011261018057506102966109f8565b61029f81610ca3565b929092156102b1576020838551908152f35b83516349e1879f60e11b81526001600160a01b039092169082015260249150fd5b50903461017c578160031936011261017c5751908152602090f35b823461023c578060031936011261023c576103066109f8565b9061030f6109e2565b93610318610ac8565b6001600160a01b038581169390841561051c578351630293577560e41b815260209190828189818a5afa8591816104e9575b50610366578551630f4c971b60e21b8152808901889052602490fd5b939692949193600119016104d2579384169360001992875b6002811061042a575b5060001984146103fd5750907fe15adf635f0230f04a10c533ae4edc6ee52f6aab68fd00497903ec8ffac72e0a93929160018251916103c583610a0e565b88835285830190858252888b52828752848b209351166bffffffffffffffffffffffff60a01b8454161783555191015551908152a380f35b825163152a07eb60e11b81526001600160a01b038a16918101918252602082018590529081906040010390fd5b835163c661065760e01b815282810182905286816024818c5afa9081156104c857889185918c91610489575b50161461048157600019811461046e5760010161037e565b634e487b7160e01b895260118252602489fd5b935089610387565b925050508681813d83116104c1575b6104a28183610a5c565b810103126104bd575183811681036104bd578388918d610456565b8980fd5b503d610498565b85513d8c823e3d90fd5b8151630f4c971b60e21b8152808401879052602490fd5b9091508381813d8311610515575b6105018183610a5c565b810103126105115751908a61034a565b8580fd5b503d6104f7565b8351630f4c971b60e21b8152808701869052602490fd5b82903461023c578160031936011261023c578160209360ff926105546109e2565b903582528186528282206001600160a01b039091168252855220549151911615158152f35b5034610180576020366003190112610180575061059c6105976109f8565b610ca3565b825191825215156020820152f35b50903461017c578160031936011261017c57602090517f00000000000000000000000000000000000000000000000000000000000000008152f35b3461017c5760e036600319011261017c576105fe6109f8565b906106076109e2565b936044356001600160a01b038181169491859003610511576064359260843560a435928060c43595610637610ac8565b1696878a5260209160018352848b20855161065181610a0e565b84600184845416938484520154910152156107dd5780858b9c9d602482518094819363476dfa1b60e11b8352169e8f888301525afa9081156107d3578d916107a4575b501561078d57918960058286948f8f9c7f850d28bf2d8acb532d6827d537f97debaff0eca8e001f53619215543091448e79d8f998060809f9d849f9d958f9d8f839f8b998551996106e48b610a0e565b8a528a8a01528451916106f683610a0e565b82528982015283519761070889610a0e565b88528888015282519b61071a8d610a40565b8c52878c01958652828c0196875281526002875220985116906bffffffffffffffffffffffff60a01b91828a54161789556001890192511690825416179055518181518051600289015501516003870155015190815190850155015191015582519586528501528301526060820152a480f35b84516314de66af60e31b81528083018b9052602490fd5b6107c49150863d88116107cc575b6107bc8183610a5c565b810190610c5b565b90508d610694565b503d6107b2565b86513d8f823e3d90fd5b8451630f10d83760e11b81528083018a9052602490fd5b5034610180576020366003190112610180576001600160a01b0390610850906001908490846108216109f8565b16815282602052209283541692015492519283928360209093929193604081019460018060a01b031681520152565b0390f35b8193503461017c57602036600319011261017c57600590826108746109f8565b61087c610ac8565b60018060a01b031694858252600260205281209181835581600184015581600284015581600384015582015501557fdabc58d0456c50872fa82879bc9ce7f6a455b4372db632857a62de4abd0996918280a280f35b913461017c578060031936011261017c576108ea6109e2565b90336001600160a01b038316036109075750610238919235610be6565b5163334bd91960e11b81528390fd5b823461023c578060031936011261023c57610238913561093960016102226109e2565b610b68565b82903461023c57602036600319011261023c57816020936001923581528085522001549051908152f35b903461023c57602036600319011261023c573563ffffffff60e01b811680910361023c5760209250637965db0b60e01b81149081156109a9575b5015158152f35b6301ffc9a760e01b149050836109a2565b346109dd5760003660031901126109dd576020604051670de0b6b3a76400008152f35b600080fd5b602435906001600160a01b03821682036109dd57565b600435906001600160a01b03821682036109dd57565b6040810190811067ffffffffffffffff821117610a2a57604052565b634e487b7160e01b600052604160045260246000fd5b6060810190811067ffffffffffffffff821117610a2a57604052565b90601f8019910116810190811067ffffffffffffffff821117610a2a57604052565b90604051610a8b81610a0e565b602060018294805484520154910152565b90604051610aa981610a0e565b6020610ac360028395610abb81610a7e565b855201610a7e565b910152565b3360009081527ffb8036e0bab3828a1a1cce97396031bc7ea8a361699e1bc9c4844f3aeee78d6e60205260409020547fced6982f480260bdd8ad5cb18ff2854f0306d78d904ad6cc107e8f3a0f526c189060ff1615610b245750565b6044906040519063e2517d3f60e01b82523360048301526024820152fd5b80600052600060205260406000203360005260205260ff6040600020541615610b245750565b9060009180835282602052604083209160018060a01b03169182845260205260ff60408420541615600014610be157808352826020526040832082845260205260408320600160ff198254161790557f2f8788117e7eff1d82e926ec794901d17c78024a50270940304540a733656f0d339380a4600190565b505090565b9060009180835282602052604083209160018060a01b03169182845260205260ff604084205416600014610be15780835282602052604083208284526020526040832060ff1981541690557ff6391f5c32d9c69d2a47ea670b442974b53935d1edc7fd64eb21e047a839171b339380a4600190565b91908260409103126109dd576020825192015180151581036109dd5790565b81810292918115918404141715610c8d57565b634e487b7160e01b600052601160045260246000fd5b9060018060a01b03809216600081815260019360209285845260408084208151610ccc81610a0e565b888583541692838352015491878201928352156110b9578490511690805115806000146110b15760ff8a5b16906110195750805160001981019190821161100557835191636872765360e01b835260048301528782602481865afa8015610fc55787908190610fcf575b60049350935b855163fd0684b160e01b815293849182905afa918215610fc5578792610f17575b508151905190818111610edb57505050945b670de0b6b3a7640000610da37f00000000000000000000000000000000000000000000000000000000000000008098610c7a565b04928315610e7e5785526002815281852093825190610dc182610a40565b808654168252610ddf6002828c890154169785850198895201610a9c565b9184810192808452518051610ec8575b50518116958615610ebb57908491511695602482518098819363476dfa1b60e11b835260048301525afa948515610eb15786938796610e8a575b5050829415610e7e575101518051610e4a94939290610e6b575b5050610c7a565b908215610e575750049190565b634e487b7160e01b81526012600452602490fd5b610e769293506110d1565b903880610e43565b50505050509250508190565b8091929650610ea6939450903d106107cc576107bc8183610a5c565b919091933880610e29565b83513d88823e3d90fd5b5050505050925050509190565b610ed4908392976110d1565b9590610def565b811015610f035760051b01860151670de0b6b3a764000091610efc91610c7a565b0494610d6f565b634e487b7160e01b87526032600452602487fd5b9091503d8088833e610f298183610a5c565b81018882820312610fc157815167ffffffffffffffff928382116104bd570181601f82011215610fbd578051928311610fa9578260051b90865193610f708c840186610a5c565b84528a808501928201019283116104bd578a809101915b838310610f9957505050509038610d5d565b82518152918101918b9101610f87565b634e487b7160e01b89526041600452602489fd5b8880fd5b8780fd5b84513d89823e3d90fd5b5050908781813d8311610ffe575b610fe78183610a5c565b81010312610ffa57908660049251610d36565b8680fd5b503d610fdd565b634e487b7160e01b87526011600452602487fd5b600019810190811161100557835190636872765360e01b825260048201528781602481865afa908115610fc5578791611084575b5080156110705790866004926ec097ce7bc90715b34b9f10000000000493610d3c565b634e487b7160e01b87526012600452602487fd5b90508781813d83116110aa575b61109b8183610a5c565b81010312610ffa57513861104d565b503d611091565b60ff87610cf7565b8251630f10d83760e11b815260048101859052602490fd5b90805182116110de575090565b6020915001519056fea26469706673582212202efa0856da573f8c76fffd6de82d33e2260cb5b7b4964b14ce432c0be34cd22464736f6c634300081400332f8788117e7eff1d82e926ec794901d17c78024a50270940304540a733656f0d",
  "devdoc": {
    "details": "Used when Curve pool prices need to be converted using another token's price from API3",
    "errors": {
      "AccessControlBadConfirmation()": [
        {
          "details": "The caller of a function is not the expected one. NOTE: Don't confuse with {AccessControlUnauthorizedAccount}."
        }
      ],
      "AccessControlUnauthorizedAccount(address,bytes32)": [
        {
          "details": "The `account` is missing a role."
        }
      ]
    },
    "events": {
      "RoleAdminChanged(bytes32,bytes32,bytes32)": {
        "details": "Emitted when `newAdminRole` is set as ``role``'s admin role, replacing `previousAdminRole` `DEFAULT_ADMIN_ROLE` is the starting admin for all roles, despite {RoleAdminChanged} not being emitted signaling this."
      },
      "RoleGranted(bytes32,address,address)": {
        "details": "Emitted when `account` is granted `role`. `sender` is the account that originated the contract call, an admin role bearer except when using {AccessControl-_setupRole}."
      },
      "RoleRevoked(bytes32,address,address)": {
        "details": "Emitted when `account` is revoked `role`. `sender` is the account that originated the contract call:   - if using `revokeRole`, it is the admin role bearer   - if using `renounceRole`, it is the role bearer (i.e. `account`)"
      }
    },
    "kind": "dev",
    "methods": {
      "getAssetPrice(address)": {
        "params": {
          "asset": "The address of the asset"
        },
        "returns": {
          "_0": "The price of the asset"
        }
      },
      "getRoleAdmin(bytes32)": {
        "details": "Returns the admin role that controls `role`. See {grantRole} and {revokeRole}. To change a role's admin, use {_setRoleAdmin}."
      },
      "grantRole(bytes32,address)": {
        "details": "Grants `role` to `account`. If `account` had not been already granted `role`, emits a {RoleGranted} event. Requirements: - the caller must have ``role``'s admin role. May emit a {RoleGranted} event."
      },
      "hasRole(bytes32,address)": {
        "details": "Returns `true` if `account` has been granted `role`."
      },
      "removeAssetConfig(address)": {
        "params": {
          "asset": "Asset address"
        }
      },
      "removeCompositeFeed(address)": {
        "params": {
          "asset": "Asset address"
        }
      },
      "renounceRole(bytes32,address)": {
        "details": "Revokes `role` from the calling account. Roles are often managed via {grantRole} and {revokeRole}: this function's purpose is to provide a mechanism for accounts to lose their privileges if they are compromised (such as when a trusted device is misplaced). If the calling account had been revoked `role`, emits a {RoleRevoked} event. Requirements: - the caller must be `callerConfirmation`. May emit a {RoleRevoked} event."
      },
      "revokeRole(bytes32,address)": {
        "details": "Revokes `role` from `account`. If `account` had been granted `role`, emits a {RoleRevoked} event. Requirements: - the caller must have ``role``'s admin role. May emit a {RoleRevoked} event."
      },
      "setAssetConfig(address,address)": {
        "params": {
          "asset": "Asset address",
          "pool": "Curve pool address"
        }
      },
      "supportsInterface(bytes4)": {
        "details": "See {IERC165-supportsInterface}."
      }
    },
    "title": "CurveAPI3CompositeWrapperWithThresholding",
    "version": 1
  },
  "userdoc": {
    "kind": "user",
    "methods": {
      "BASE_CURRENCY()": {
        "notice": "Base currency (address(0) for USD)"
      },
      "BASE_CURRENCY_UNIT()": {
        "notice": "Base currency unit (e.g. 1e18 for USD)"
      },
      "assetConfigs(address)": {
        "notice": "Mapping from asset to pool and token index"
      },
      "compositeFeeds(address)": {
        "notice": "Mapping from asset to composite feed configuration"
      },
      "getAssetPrice(address)": {
        "notice": "Returns the asset price in the base currency"
      },
      "getPriceInfo(address)": {
        "notice": "Get the composite price info for an asset"
      },
      "removeAssetConfig(address)": {
        "notice": "Remove configuration for an asset"
      },
      "removeCompositeFeed(address)": {
        "notice": "Remove composite feed configuration for an asset"
      },
      "setAssetConfig(address,address)": {
        "notice": "Set or update configuration for an asset"
      },
      "setCompositeFeed(address,address,address,uint256,uint256,uint256,uint256)": {
        "notice": "Set or update composite feed configuration for an asset"
      }
    },
    "notice": "Oracle wrapper that combines Curve pool prices with API3 prices and applies thresholding",
    "version": 1
  },
  "storageLayout": {
    "storage": [
      {
        "astId": 26,
        "contract": "contracts/oracle_aggregator/wrapper/CurveAPI3CompositeWrapperWithThresholding.sol:CurveAPI3CompositeWrapperWithThresholding",
        "label": "_roles",
        "offset": 0,
        "slot": "0",
        "type": "t_mapping(t_bytes32,t_struct(RoleData)21_storage)"
      },
      {
        "astId": 2452,
        "contract": "contracts/oracle_aggregator/wrapper/CurveAPI3CompositeWrapperWithThresholding.sol:CurveAPI3CompositeWrapperWithThresholding",
        "label": "assetConfigs",
        "offset": 0,
        "slot": "1",
        "type": "t_mapping(t_address,t_struct(PoolConfig)2457_storage)"
      },
      {
        "astId": 2186,
        "contract": "contracts/oracle_aggregator/wrapper/CurveAPI3CompositeWrapperWithThresholding.sol:CurveAPI3CompositeWrapperWithThresholding",
        "label": "compositeFeeds",
        "offset": 0,
        "slot": "2",
        "type": "t_mapping(t_address,t_struct(CompositeFeed)2180_storage)"
      }
    ],
    "types": {
      "t_address": {
        "encoding": "inplace",
        "label": "address",
        "numberOfBytes": "20"
      },
      "t_bool": {
        "encoding": "inplace",
        "label": "bool",
        "numberOfBytes": "1"
      },
      "t_bytes32": {
        "encoding": "inplace",
        "label": "bytes32",
        "numberOfBytes": "32"
      },
      "t_mapping(t_address,t_bool)": {
        "encoding": "mapping",
        "key": "t_address",
        "label": "mapping(address => bool)",
        "numberOfBytes": "32",
        "value": "t_bool"
      },
      "t_mapping(t_address,t_struct(CompositeFeed)2180_storage)": {
        "encoding": "mapping",
        "key": "t_address",
        "label": "mapping(address => struct CurveAPI3CompositeWrapperWithThresholding.CompositeFeed)",
        "numberOfBytes": "32",
        "value": "t_struct(CompositeFeed)2180_storage"
      },
      "t_mapping(t_address,t_struct(PoolConfig)2457_storage)": {
        "encoding": "mapping",
        "key": "t_address",
        "label": "mapping(address => struct CurveOracleWrapper.PoolConfig)",
        "numberOfBytes": "32",
        "value": "t_struct(PoolConfig)2457_storage"
      },
      "t_mapping(t_bytes32,t_struct(RoleData)21_storage)": {
        "encoding": "mapping",
        "key": "t_bytes32",
        "label": "mapping(bytes32 => struct AccessControl.RoleData)",
        "numberOfBytes": "32",
        "value": "t_struct(RoleData)21_storage"
      },
      "t_struct(CompositeFeed)2180_storage": {
        "encoding": "inplace",
        "label": "struct CurveAPI3CompositeWrapperWithThresholding.CompositeFeed",
        "members": [
          {
            "astId": 2174,
            "contract": "contracts/oracle_aggregator/wrapper/CurveAPI3CompositeWrapperWithThresholding.sol:CurveAPI3CompositeWrapperWithThresholding",
            "label": "api3Asset",
            "offset": 0,
            "slot": "0",
            "type": "t_address"
          },
          {
            "astId": 2176,
            "contract": "contracts/oracle_aggregator/wrapper/CurveAPI3CompositeWrapperWithThresholding.sol:CurveAPI3CompositeWrapperWithThresholding",
            "label": "api3Wrapper",
            "offset": 0,
            "slot": "1",
            "type": "t_address"
          },
          {
            "astId": 2179,
            "contract": "contracts/oracle_aggregator/wrapper/CurveAPI3CompositeWrapperWithThresholding.sol:CurveAPI3CompositeWrapperWithThresholding",
            "label": "thresholds",
            "offset": 0,
            "slot": "2",
            "type": "t_struct(CompositeThresholdFeed)2755_storage"
          }
        ],
        "numberOfBytes": "192"
      },
      "t_struct(CompositeThresholdFeed)2755_storage": {
        "encoding": "inplace",
        "label": "struct ThresholdingUtils.CompositeThresholdFeed",
        "members": [
          {
            "astId": 2751,
            "contract": "contracts/oracle_aggregator/wrapper/CurveAPI3CompositeWrapperWithThresholding.sol:CurveAPI3CompositeWrapperWithThresholding",
            "label": "primary",
            "offset": 0,
            "slot": "0",
            "type": "t_struct(ThresholdConfig)2748_storage"
          },
          {
            "astId": 2754,
            "contract": "contracts/oracle_aggregator/wrapper/CurveAPI3CompositeWrapperWithThresholding.sol:CurveAPI3CompositeWrapperWithThresholding",
            "label": "secondary",
            "offset": 0,
            "slot": "2",
            "type": "t_struct(ThresholdConfig)2748_storage"
          }
        ],
        "numberOfBytes": "128"
      },
      "t_struct(PoolConfig)2457_storage": {
        "encoding": "inplace",
        "label": "struct CurveOracleWrapper.PoolConfig",
        "members": [
          {
            "astId": 2454,
            "contract": "contracts/oracle_aggregator/wrapper/CurveAPI3CompositeWrapperWithThresholding.sol:CurveAPI3CompositeWrapperWithThresholding",
            "label": "pool",
            "offset": 0,
            "slot": "0",
            "type": "t_address"
          },
          {
            "astId": 2456,
            "contract": "contracts/oracle_aggregator/wrapper/CurveAPI3CompositeWrapperWithThresholding.sol:CurveAPI3CompositeWrapperWithThresholding",
            "label": "tokenIndex",
            "offset": 0,
            "slot": "1",
            "type": "t_uint256"
          }
        ],
        "numberOfBytes": "64"
      },
      "t_struct(RoleData)21_storage": {
        "encoding": "inplace",
        "label": "struct AccessControl.RoleData",
        "members": [
          {
            "astId": 18,
            "contract": "contracts/oracle_aggregator/wrapper/CurveAPI3CompositeWrapperWithThresholding.sol:CurveAPI3CompositeWrapperWithThresholding",
            "label": "hasRole",
            "offset": 0,
            "slot": "0",
            "type": "t_mapping(t_address,t_bool)"
          },
          {
            "astId": 20,
            "contract": "contracts/oracle_aggregator/wrapper/CurveAPI3CompositeWrapperWithThresholding.sol:CurveAPI3CompositeWrapperWithThresholding",
            "label": "adminRole",
            "offset": 0,
            "slot": "1",
            "type": "t_bytes32"
          }
        ],
        "numberOfBytes": "64"
      },
      "t_struct(ThresholdConfig)2748_storage": {
        "encoding": "inplace",
        "label": "struct ThresholdingUtils.ThresholdConfig",
        "members": [
          {
            "astId": 2745,
            "contract": "contracts/oracle_aggregator/wrapper/CurveAPI3CompositeWrapperWithThresholding.sol:CurveAPI3CompositeWrapperWithThresholding",
            "label": "lowerThresholdInBase",
            "offset": 0,
            "slot": "0",
            "type": "t_uint256"
          },
          {
            "astId": 2747,
            "contract": "contracts/oracle_aggregator/wrapper/CurveAPI3CompositeWrapperWithThresholding.sol:CurveAPI3CompositeWrapperWithThresholding",
            "label": "fixedPriceInBase",
            "offset": 0,
            "slot": "1",
            "type": "t_uint256"
          }
        ],
        "numberOfBytes": "64"
      },
      "t_uint256": {
        "encoding": "inplace",
        "label": "uint256",
        "numberOfBytes": "32"
      }
    }
  }
}