{
  "address": "0x614914B028A7D1fD4Fab1E5a53a3E2dF000bcB0e",
  "abi": [
    {
      "inputs": [
        {
          "internalType": "address",
          "name": "pool",
          "type": "address"
        }
      ],
      "stateMutability": "nonpayable",
      "type": "constructor"
    },
    {
      "inputs": [],
      "name": "AccessControlBadConfirmation",
      "type": "error"
    },
    {
      "inputs": [
        {
          "internalType": "address",
          "name": "account",
          "type": "address"
        },
        {
          "internalType": "bytes32",
          "name": "neededRole",
          "type": "bytes32"
        }
      ],
      "name": "AccessControlUnauthorizedAccount",
      "type": "error"
    },
    {
      "inputs": [
        {
          "internalType": "address",
          "name": "externalToken",
          "type": "address"
        }
      ],
      "name": "ExternalTokenNotMapped",
      "type": "error"
    },
    {
      "inputs": [
        {
          "internalType": "address",
          "name": "token",
          "type": "address"
        }
      ],
      "name": "InvalidDToken",
      "type": "error"
    },
    {
      "inputs": [
        {
          "internalType": "address",
          "name": "token",
          "type": "address"
        }
      ],
      "name": "InvalidDebtToken",
      "type": "error"
    },
    {
      "anonymous": false,
      "inputs": [
        {
          "indexed": true,
          "internalType": "bytes32",
          "name": "role",
          "type": "bytes32"
        },
        {
          "indexed": true,
          "internalType": "bytes32",
          "name": "previousAdminRole",
          "type": "bytes32"
        },
        {
          "indexed": true,
          "internalType": "bytes32",
          "name": "newAdminRole",
          "type": "bytes32"
        }
      ],
      "name": "RoleAdminChanged",
      "type": "event"
    },
    {
      "anonymous": false,
      "inputs": [
        {
          "indexed": true,
          "internalType": "bytes32",
          "name": "role",
          "type": "bytes32"
        },
        {
          "indexed": true,
          "internalType": "address",
          "name": "account",
          "type": "address"
        },
        {
          "indexed": true,
          "internalType": "address",
          "name": "sender",
          "type": "address"
        }
      ],
      "name": "RoleGranted",
      "type": "event"
    },
    {
      "anonymous": false,
      "inputs": [
        {
          "indexed": true,
          "internalType": "bytes32",
          "name": "role",
          "type": "bytes32"
        },
        {
          "indexed": true,
          "internalType": "address",
          "name": "account",
          "type": "address"
        },
        {
          "indexed": true,
          "internalType": "address",
          "name": "sender",
          "type": "address"
        }
      ],
      "name": "RoleRevoked",
      "type": "event"
    },
    {
      "inputs": [],
      "name": "DEFAULT_ADMIN_ROLE",
      "outputs": [
        {
          "internalType": "bytes32",
          "name": "",
          "type": "bytes32"
        }
      ],
      "stateMutability": "view",
      "type": "function"
    },
    {
      "inputs": [],
      "name": "POOL",
      "outputs": [
        {
          "internalType": "contract IPool",
          "name": "",
          "type": "address"
        }
      ],
      "stateMutability": "view",
      "type": "function"
    },
    {
      "inputs": [
        {
          "internalType": "address[]",
          "name": "sources",
          "type": "address[]"
        },
        {
          "internalType": "address[]",
          "name": "addresses",
          "type": "address[]"
        }
      ],
      "name": "batchTokenBalances",
      "outputs": [
        {
          "internalType": "uint256[]",
          "name": "result",
          "type": "uint256[]"
        }
      ],
      "stateMutability": "view",
      "type": "function"
    },
    {
      "inputs": [
        {
          "internalType": "address",
          "name": "",
          "type": "address"
        }
      ],
      "name": "externalSourceToDToken",
      "outputs": [
        {
          "internalType": "address",
          "name": "",
          "type": "address"
        }
      ],
      "stateMutability": "view",
      "type": "function"
    },
    {
      "inputs": [
        {
          "internalType": "bytes32",
          "name": "role",
          "type": "bytes32"
        }
      ],
      "name": "getRoleAdmin",
      "outputs": [
        {
          "internalType": "bytes32",
          "name": "",
          "type": "bytes32"
        }
      ],
      "stateMutability": "view",
      "type": "function"
    },
    {
      "inputs": [
        {
          "internalType": "bytes32",
          "name": "role",
          "type": "bytes32"
        },
        {
          "internalType": "address",
          "name": "account",
          "type": "address"
        }
      ],
      "name": "grantRole",
      "outputs": [],
      "stateMutability": "nonpayable",
      "type": "function"
    },
    {
      "inputs": [
        {
          "internalType": "bytes32",
          "name": "role",
          "type": "bytes32"
        },
        {
          "internalType": "address",
          "name": "account",
          "type": "address"
        }
      ],
      "name": "hasRole",
      "outputs": [
        {
          "internalType": "bool",
          "name": "",
          "type": "bool"
        }
      ],
      "stateMutability": "view",
      "type": "function"
    },
    {
      "inputs": [
        {
          "internalType": "address",
          "name": "externalToken",
          "type": "address"
        },
        {
          "internalType": "address",
          "name": "dToken",
          "type": "address"
        }
      ],
      "name": "mapExternalSource",
      "outputs": [],
      "stateMutability": "nonpayable",
      "type": "function"
    },
    {
      "inputs": [
        {
          "internalType": "bytes32",
          "name": "role",
          "type": "bytes32"
        },
        {
          "internalType": "address",
          "name": "callerConfirmation",
          "type": "address"
        }
      ],
      "name": "renounceRole",
      "outputs": [],
      "stateMutability": "nonpayable",
      "type": "function"
    },
    {
      "inputs": [
        {
          "internalType": "bytes32",
          "name": "role",
          "type": "bytes32"
        },
        {
          "internalType": "address",
          "name": "account",
          "type": "address"
        }
      ],
      "name": "revokeRole",
      "outputs": [],
      "stateMutability": "nonpayable",
      "type": "function"
    },
    {
      "inputs": [
        {
          "internalType": "bytes4",
          "name": "interfaceId",
          "type": "bytes4"
        }
      ],
      "name": "supportsInterface",
      "outputs": [
        {
          "internalType": "bool",
          "name": "",
          "type": "bool"
        }
      ],
      "stateMutability": "view",
      "type": "function"
    },
    {
      "inputs": [
        {
          "internalType": "address",
          "name": "token",
          "type": "address"
        },
        {
          "internalType": "address[]",
          "name": "addresses",
          "type": "address[]"
        }
      ],
      "name": "tokenBalances",
      "outputs": [
        {
          "internalType": "uint256[]",
          "name": "result",
          "type": "uint256[]"
        }
      ],
      "stateMutability": "view",
      "type": "function"
    }
  ],
  "transactionHash": "0x1bfa519dafcf69784a9d38a0aeadfc5182ad054704a3886237061c3a995d1974",
  "args": [
    "0xD76C827Ee2Ce1E37c37Fc2ce91376812d3c9BCE2"
  ],
  "numDeployments": 1,
  "solcInputHash": "17fd6a2a856f43547b923ac1f8685710",
  "bytecode": "0x60a0346100c857601f61123d38819003918201601f19168301916001600160401b038311848410176100cd578084926020946040528339810103126100c857516001600160a01b038116908190036100c857801561008357608052610063336100e3565b506040516110c99081610174823960805181818161049c01526109180152f35b60405162461bcd60e51b815260206004820152601460248201527f494e56414c49445f504f4f4c5f414444524553530000000000000000000000006044820152606490fd5b600080fd5b634e487b7160e01b600052604160045260246000fd5b6001600160a01b031660008181527fad3228b676f7d3cd4284a5443f17f1962b36e491b30a40b2405849e597ba5fb5602052604081205490919060ff1661016f57818052816020526040822081835260205260408220600160ff1982541617905533917f2f8788117e7eff1d82e926ec794901d17c78024a50270940304540a733656f0d8180a4600190565b509056fe608060408181526004908136101561001657600080fd5b600092833560e01c90816301ffc9a7146105f357508063248a9ca3146105c95780632f2ff15d146105a157806336568abe1461055a5780633ad206cc146105065780634159b10b146104cb5780637535d2461461048757806387d744811461021557806391d14854146101cf578063a217fddf146101b0578063d547741f146101735763e23bd2ad146100a857600080fd5b3461016f578060031936011261016f576100c0610662565b6100c8610647565b908480528460205282852033865260205260ff838620541615610152576001600160a01b0391821693841561011657501683526001602052822080546001600160a01b031916909117905580f35b606490602085519162461bcd60e51b83528201526016602482015275494e56414c49445f44544f4b454e5f4144445245535360501b6044820152fd5b825163e2517d3f60e01b8152338186015260248101869052604490fd5b8280fd5b503461016f578060031936011261016f576101ac91356101a76001610196610647565b938387528660205286200154610f2b565b610fed565b5080f35b8382346101cb57816003193601126101cb5751908152602090f35b5080fd5b50903461016f578160031936011261016f578160209360ff926101f0610647565b903582528186528282206001600160a01b039091168252855220549151911615158152f35b50823461048457816003193601126104845767ffffffffffffffff92803584811161016f5761024790369083016106c8565b916024906024358681116101cb5761026290369085016106c8565b9380511561044b576102748551610774565b9682966020808801985b845181101561043a576001600160a01b038061029a8388610808565b51161561043157868a8c8b848c956102b2888d610808565b511693898051978896630eb481b360e21b885260448801958801528601525180925260648401929185915b8982841061041157505050505081900381305afa87918161037b575b5061030957506001905b0161027e565b9596979899928795929491955b8b51811015610368578c6103358261032e818c610808565b5192610808565b51908101809111610356579060019161034f8f8390610808565b5201610316565b634e487b7160e01b8a5260118c528a8afd5b5092999897969550929093600190610303565b9091503d8089833e61038d8183610678565b81019084818303126104095780519087821161040d57019080601f830112156104095781516103bb816106b0565b926103c888519485610678565b818452868085019260051b8201019283116104055786809101915b8383106103f55750505050908d6102f9565b82518152918101918791016103e3565b8a80fd5b8880fd5b8980fd5b8451821686528e97508896509485019490930192600192909201916102dd565b50600190610303565b8251806104478d82610738565b0390f35b855162461bcd60e51b815260208186015260136024820152721393d7d4d3d55490d154d7d41493d592511151606a1b6044820152606490fd5b80fd5b8382346101cb57816003193601126101cb57517f00000000000000000000000000000000000000000000000000000000000000006001600160a01b03168152602090f35b8382346101cb5760203660031901126101cb576020916001600160a01b03908290826104f5610662565b168152600185522054169051908152f35b50903461016f578160031936011261016f57610520610662565b926024359067ffffffffffffffff821161048457509261054961054f92610447953691016106c8565b90610840565b905191829182610738565b508290346101cb57806003193601126101cb57610575610647565b90336001600160a01b0383160361059257506101ac919235610fed565b5163334bd91960e11b81528390fd5b503461016f578060031936011261016f576101ac91356105c46001610196610647565b610f6f565b50903461016f57602036600319011261016f57816020936001923581528085522001549051908152f35b8490843461016f57602036600319011261016f573563ffffffff60e01b811680910361016f5760209250637965db0b60e01b8114908115610636575b5015158152f35b6301ffc9a760e01b1490508361062f565b602435906001600160a01b038216820361065d57565b600080fd5b600435906001600160a01b038216820361065d57565b90601f8019910116810190811067ffffffffffffffff82111761069a57604052565b634e487b7160e01b600052604160045260246000fd5b67ffffffffffffffff811161069a5760051b60200190565b9080601f8301121561065d5760209082356106e2816106b0565b936106f06040519586610678565b81855260208086019260051b82010192831161065d57602001905b828210610719575050505090565b81356001600160a01b038116810361065d57815290830190830161070b565b602090602060408183019282815285518094520193019160005b828110610760575050505090565b835185529381019392810192600101610752565b9061077e826106b0565b61078b6040519182610678565b828152809261079c601f19916106b0565b0190602036910137565b818102929181159184041417156107b957565b634e487b7160e01b600052601160045260246000fd5b81156107d9570490565b634e487b7160e01b600052601260045260246000fd5b9081602091031261065d575160ff8116810361065d5790565b805182101561081c5760209160051b010190565b634e487b7160e01b600052603260045260246000fd5b604d81116107b957600a0a90565b61084a8251610774565b6001600160a01b0382811660009081526001602052604081205490959116939091908415610f245784955b6040516358b50cef60e11b8152906020826004816001600160a01b038c165afa90918282610ee5575b50506108e5576024868681156108c45750604051906350a7459560e11b82526004820152fd5b604051630d136c1d60e11b81526001600160a01b0390911660048201529050fd5b6040516335ea6a7560e01b81526001600160a01b039182166004820152939592949293906101e0908190839060249082907f0000000000000000000000000000000000000000000000000000000000000000165afa918215610b6657600092610d41575b505061014001516001600160a01b03168015610d20576040516318160ddd60e01b8082526020826004816001600160a01b038d165afa918215610b6657600092610cec575b508115610ce15760209060046040518095819382525afa918215610b6657600092610cad575b5080821015610ca357818103918183116107b957670de0b6b3a76400008302928304670de0b6b3a76400001490821417156107b9576109f2916107cf565b928015610c4f5760405163313ce56760e01b81526020816004816001600160a01b0388165afa908115610b6657600091610c20575b50965b60005b8351811015610c165760008315610b7257506001600160a01b03610a518286610808565b516040516370a0823160e01b8152911660048201526020816024816001600160a01b038a165afa8015610b66578791600091610b29575b50670de0b6b3a764000091610a9c916107a6565b0490601260ff8b161015610ae357601260ff8b168103116107b957610ad2600192610acc60ff8d16601203610832565b906107a6565b610adc828a610808565b5201610a2d565b601260ff8b1611610af7575b600191610ad2565b60ff8a166011198101116107b957600191610b2290610b1c60ff8d1660111901610832565b906107cf565b9150610aef565b91506020823d602011610b5e575b81610b4460209383610678565b810103126104845750518690670de0b6b3a7640000610a88565b3d9150610b37565b6040513d6000823e3d90fd5b6001600160a01b03610b848387610808565b516040516370a0823160e01b8152911660048201526020816024816001600160a01b0388165afa918215610c0a5790818993610bd0575b5050670de0b6b3a764000091610a9c916107a6565b915091506020823d602011610c02575b81610bed60209383610678565b81010312610484575051869081610a9c610bbb565b3d9150610be0565b604051903d90823e3d90fd5b5050505050509150565b610c42915060203d602011610c48575b610c3a8183610678565b8101906107ef565b38610a27565b503d610c30565b60405163313ce56760e01b81526020816004816001600160a01b038c165afa908115610b6657600091610c84575b5096610a2a565b610c9d915060203d602011610c4857610c3a8183610678565b38610c7d565b5093955050505050565b90916020823d602011610cd9575b81610cc860209383610678565b8101031261048457505190386109b4565b3d9150610cbb565b509496505050505050565b90916020823d602011610d18575b81610d0760209383610678565b81010312610484575051903861098e565b3d9150610cfa565b60405163a830a4a160e01b81526001600160a01b0388166004820152602490fd5b909181833d8511610ede575b610d578183610678565b810103928084126101cb576040519367ffffffffffffffff908583810110828488011117610eca5760201361016f578185016102008601109061020086011117610eb657610200840160405282518185015283018352610db960208301611076565b6020840152610dca60408301611076565b6040840152610ddb60608301611076565b6060840152610dec60808301611076565b6080840152610dfd60a08301611076565b60a084015260c082015164ffffffffff811681036101cb5760c084015260e08201519061ffff82168203610484575060e0830152610100610e3f818301611062565b90830152610120610e51818301611062565b90830152610140610e63818301611062565b90830152610160610e75818301611062565b90830152610180610e87818301611076565b908301526101a0610e99818301611076565b90830152610eab6101c0809201611076565b908201523880610949565b634e487b7160e01b82526041600452602482fd5b634e487b7160e01b84526041600452602484fd5b503d610d4d565b909192506020823d602011610f1c575b81610f0260209383610678565b810103126104845750610f1490611062565b90388061089e565b3d9150610ef5565b8395610875565b80600052600060205260406000203360005260205260ff6040600020541615610f515750565b6044906040519063e2517d3f60e01b82523360048301526024820152fd5b9060009180835282602052604083209160018060a01b03169182845260205260ff60408420541615600014610fe857808352826020526040832082845260205260408320600160ff198254161790557f2f8788117e7eff1d82e926ec794901d17c78024a50270940304540a733656f0d339380a4600190565b505090565b9060009180835282602052604083209160018060a01b03169182845260205260ff604084205416600014610fe85780835282602052604083208284526020526040832060ff1981541690557ff6391f5c32d9c69d2a47ea670b442974b53935d1edc7fd64eb21e047a839171b339380a4600190565b51906001600160a01b038216820361065d57565b51906fffffffffffffffffffffffffffffffff8216820361065d5756fea2646970667358221220f9d76413d398e9afe291fa1c6de94cadb12b60fea82478ea49af09dd7566a8e464736f6c63430008180033",
  "devdoc": {
    "author": "dTrinity",
    "details": "The effective balance is the portion of a user's position which is not borrowed against,      calculated as: userBalance * (totalSupply - totalDebt) / totalSupply",
    "errors": {
      "AccessControlBadConfirmation()": [
        {
          "details": "The caller of a function is not the expected one. NOTE: Don't confuse with {AccessControlUnauthorizedAccount}."
        }
      ],
      "AccessControlUnauthorizedAccount(address,bytes32)": [
        {
          "details": "The `account` is missing a role."
        }
      ]
    },
    "events": {
      "RoleAdminChanged(bytes32,bytes32,bytes32)": {
        "details": "Emitted when `newAdminRole` is set as ``role``'s admin role, replacing `previousAdminRole` `DEFAULT_ADMIN_ROLE` is the starting admin for all roles, despite {RoleAdminChanged} not being emitted signaling this."
      },
      "RoleGranted(bytes32,address,address)": {
        "details": "Emitted when `account` is granted `role`. `sender` is the account that originated the contract call, an admin role bearer except when using {AccessControl-_setupRole}."
      },
      "RoleRevoked(bytes32,address,address)": {
        "details": "Emitted when `account` is revoked `role`. `sender` is the account that originated the contract call:   - if using `revokeRole`, it is the admin role bearer   - if using `renounceRole`, it is the role bearer (i.e. `account`)"
      }
    },
    "kind": "dev",
    "methods": {
      "batchTokenBalances(address[],address[])": {
        "params": {
          "addresses": "Array of addresses to check balances for (up to 1000 addresses)",
          "sources": "Array of dLEND token addresses to check balances for"
        },
        "returns": {
          "result": "Array of effective balances (18 decimals) for each address across all sources"
        }
      },
      "constructor": {
        "params": {
          "pool": "The address of the Pool contract"
        }
      },
      "getRoleAdmin(bytes32)": {
        "details": "Returns the admin role that controls `role`. See {grantRole} and {revokeRole}. To change a role's admin, use {_setRoleAdmin}."
      },
      "grantRole(bytes32,address)": {
        "details": "Grants `role` to `account`. If `account` had not been already granted `role`, emits a {RoleGranted} event. Requirements: - the caller must have ``role``'s admin role. May emit a {RoleGranted} event."
      },
      "hasRole(bytes32,address)": {
        "details": "Returns `true` if `account` has been granted `role`."
      },
      "mapExternalSource(address,address)": {
        "params": {
          "dToken": "The address of the corresponding dToken",
          "externalToken": "The address of the external token"
        }
      },
      "renounceRole(bytes32,address)": {
        "details": "Revokes `role` from the calling account. Roles are often managed via {grantRole} and {revokeRole}: this function's purpose is to provide a mechanism for accounts to lose their privileges if they are compromised (such as when a trusted device is misplaced). If the calling account had been revoked `role`, emits a {RoleRevoked} event. Requirements: - the caller must be `callerConfirmation`. May emit a {RoleRevoked} event."
      },
      "revokeRole(bytes32,address)": {
        "details": "Revokes `role` from `account`. If `account` had been granted `role`, emits a {RoleRevoked} event. Requirements: - the caller must have ``role``'s admin role. May emit a {RoleRevoked} event."
      },
      "supportsInterface(bytes4)": {
        "details": "See {IERC165-supportsInterface}."
      },
      "tokenBalances(address,address[])": {
        "params": {
          "addresses": "Array of addresses to check balances for (up to 1000 addresses)",
          "token": "The address of the dLEND token to check balances for"
        },
        "returns": {
          "result": "Array of effective balances (18 decimals) corresponding to the addresses array"
        }
      }
    },
    "title": "dLendBalanceChecker",
    "version": 1
  },
  "userdoc": {
    "errors": {
      "ExternalTokenNotMapped(address)": [
        {
          "notice": "Error thrown when trying to get balances for an external token that isn't mapped to a dToken"
        }
      ],
      "InvalidDToken(address)": [
        {
          "notice": "Error thrown when a token is not a valid dToken"
        }
      ],
      "InvalidDebtToken(address)": [
        {
          "notice": "Error thrown when a debt token is invalid or not found"
        }
      ]
    },
    "kind": "user",
    "methods": {
      "POOL()": {
        "notice": "The Pool contract address"
      },
      "batchTokenBalances(address[],address[])": {
        "notice": "Returns the effective balances for multiple addresses across multiple tokens"
      },
      "externalSourceToDToken(address)": {
        "notice": "Mapping from external token to its corresponding dToken"
      },
      "mapExternalSource(address,address)": {
        "notice": "Maps an external token to its corresponding dToken"
      },
      "tokenBalances(address,address[])": {
        "notice": "Returns the effective balances for multiple addresses for a single token"
      }
    },
    "notice": "Contract for checking effective balances of dLEND tokens",
    "version": 1
  },
  "storageLayout": {
    "storage": [
      {
        "astId": 26,
        "contract": "contracts/dlend/dLendBalanceChecker.sol:dLendBalanceChecker",
        "label": "_roles",
        "offset": 0,
        "slot": "0",
        "type": "t_mapping(t_bytes32,t_struct(RoleData)21_storage)"
      },
      {
        "astId": 483,
        "contract": "contracts/dlend/dLendBalanceChecker.sol:dLendBalanceChecker",
        "label": "externalSourceToDToken",
        "offset": 0,
        "slot": "1",
        "type": "t_mapping(t_address,t_address)"
      }
    ],
    "types": {
      "t_address": {
        "encoding": "inplace",
        "label": "address",
        "numberOfBytes": "20"
      },
      "t_bool": {
        "encoding": "inplace",
        "label": "bool",
        "numberOfBytes": "1"
      },
      "t_bytes32": {
        "encoding": "inplace",
        "label": "bytes32",
        "numberOfBytes": "32"
      },
      "t_mapping(t_address,t_address)": {
        "encoding": "mapping",
        "key": "t_address",
        "label": "mapping(address => address)",
        "numberOfBytes": "32",
        "value": "t_address"
      },
      "t_mapping(t_address,t_bool)": {
        "encoding": "mapping",
        "key": "t_address",
        "label": "mapping(address => bool)",
        "numberOfBytes": "32",
        "value": "t_bool"
      },
      "t_mapping(t_bytes32,t_struct(RoleData)21_storage)": {
        "encoding": "mapping",
        "key": "t_bytes32",
        "label": "mapping(bytes32 => struct AccessControl.RoleData)",
        "numberOfBytes": "32",
        "value": "t_struct(RoleData)21_storage"
      },
      "t_struct(RoleData)21_storage": {
        "encoding": "inplace",
        "label": "struct AccessControl.RoleData",
        "members": [
          {
            "astId": 18,
            "contract": "contracts/dlend/dLendBalanceChecker.sol:dLendBalanceChecker",
            "label": "hasRole",
            "offset": 0,
            "slot": "0",
            "type": "t_mapping(t_address,t_bool)"
          },
          {
            "astId": 20,
            "contract": "contracts/dlend/dLendBalanceChecker.sol:dLendBalanceChecker",
            "label": "adminRole",
            "offset": 0,
            "slot": "1",
            "type": "t_bytes32"
          }
        ],
        "numberOfBytes": "64"
      }
    }
  }
}