{
  "address": "0x2A0F31CeCfd18CCb28e66c7cDdfe3A12Ad1b2768",
  "abi": [
    {
      "inputs": [
        {
          "internalType": "contract IPool",
          "name": "pool",
          "type": "address"
        }
      ],
      "stateMutability": "nonpayable",
      "type": "constructor"
    },
    {
      "anonymous": false,
      "inputs": [
        {
          "indexed": true,
          "internalType": "address",
          "name": "staticAToken",
          "type": "address"
        },
        {
          "indexed": true,
          "internalType": "address",
          "name": "underlying",
          "type": "address"
        }
      ],
      "name": "StaticTokenCreated",
      "type": "event"
    },
    {
      "inputs": [],
      "name": "POOL",
      "outputs": [
        {
          "internalType": "contract IPool",
          "name": "",
          "type": "address"
        }
      ],
      "stateMutability": "view",
      "type": "function"
    },
    {
      "inputs": [
        {
          "internalType": "address[]",
          "name": "underlyings",
          "type": "address[]"
        }
      ],
      "name": "createStaticATokens",
      "outputs": [
        {
          "internalType": "address[]",
          "name": "",
          "type": "address[]"
        }
      ],
      "stateMutability": "nonpayable",
      "type": "function"
    },
    {
      "inputs": [
        {
          "internalType": "address",
          "name": "underlying",
          "type": "address"
        }
      ],
      "name": "getStaticAToken",
      "outputs": [
        {
          "internalType": "address",
          "name": "",
          "type": "address"
        }
      ],
      "stateMutability": "view",
      "type": "function"
    },
    {
      "inputs": [],
      "name": "getStaticATokens",
      "outputs": [
        {
          "internalType": "address[]",
          "name": "",
          "type": "address[]"
        }
      ],
      "stateMutability": "view",
      "type": "function"
    },
    {
      "inputs": [],
      "name": "initialize",
      "outputs": [],
      "stateMutability": "pure",
      "type": "function"
    }
  ],
  "transactionHash": "0x8579bc234e28654c6107c5996e59c1643df3af1f18125a10525f707bda4c6e17",
  "args": [
    "0xD76C827Ee2Ce1E37c37Fc2ce91376812d3c9BCE2"
  ],
  "numDeployments": 1,
  "solcInputHash": "3ab0b7ef278db081e26e71c26b8f317e",
  "bytecode": "0x60a03461007857601f6154e538819003918201601f19168301916001600160401b0383118484101761007d5780849260209460405283398101031261007857516001600160a01b038116810361007857608052604051615451908161009482396080518181816101a3015281816102fa01526104680152f35b600080fd5b634e487b7160e01b600052604160045260246000fdfe608060405260043610156200001357600080fd5b60e060003560e01c90816356d9be6a14620001d2575080637535d246146200018b5780638129fc1c1462000142578063a09aa4a714620000a55763ed5d0f58146200005d57600080fd5b34620000a0576020366003190112620000a0576004356001600160a01b0381811691829003620000a0576020916000526000825260406000205416604051908152f35b600080fd5b34620000a0576000366003190112620000a057604051806001916001549283825260208092019360016000527fb10e2d527612073b26eecdfd717e6a320cf44b4afac2b0732d9fcbe2b7fa0cf6926000905b82821062000123576200011f8662000112818a038262000869565b60405191829182620008bb565b0390f35b84546001600160a01b03168752958601959383019390830190620000f7565b34620000a0576000366003190112620000a05760405162461bcd60e51b815260206004820152600e60248201526d2727afa4a724aa24a0a624ad22a960911b6044820152606490fd5b34620000a0576000366003190112620000a0576040517f00000000000000000000000000000000000000000000000000000000000000006001600160a01b03168152602090f35b34620000a0576020366003190112620000a0576004359067ffffffffffffffff808311620000a05736602384011215620000a05760249260048101356200021981620008a2565b9162000229604051938462000869565b81835285602084019260051b82010190368211620000a0578601915b81831062000847575050508051916200025e83620008a2565b926200026e604051948562000869565b8084526200027f601f1991620008a2565b0136602085013760005b825181101562000837576001600160a01b03620002a7828562000902565b51166000908152602081905260409020546001600160a01b0316806200082057506001600160a01b03620002dc828562000902565b516040516335ea6a7560e01b8152911660048201526101e0808289817f00000000000000000000000000000000000000000000000000000000000000006001600160a01b03165afa908115620005f3576000916200069d575b506101000180519091506001600160a01b031615620006615780516040516306fdde0360e01b8152916001600160a01b0390911690600083600481855afa908115620005f3576004936000926200063e575b50600090620003ce604051936702bb930b83832b2160c51b602086015284602891620003bd815180926020868601910162000960565b810103600881018652018462000869565b516040516395d89b4160e01b815294859182906001600160a01b03165afa928315620005f35760009362000614575b506200043a60405193607760f81b60208601528460219162000429815180926020868601910162000960565b810103600181018652018462000869565b60405192836149fa810110866149fa86011117620005ff57620004b8620004cf9285946149fa62000a2287397f00000000000000000000000000000000000000000000000000000000000000006001600160a01b03166149fa870190815260006020820152604081019190915260a0606082018190520190620009fa565b906149fa8401820360806149fa86010152620009fa565b03906000f08015620005f3576001600160a01b039081169190620004f4828662000902565b511660005260006020526040600020916bffffffffffffffffffffffff60a01b928184825416179055806200052a838862000902565b526001549268010000000000000000841015620005de576001840180600155841015620005c957600160008190527fb10e2d527612073b26eecdfd717e6a320cf44b4afac2b0732d9fcbe2b7fa0cf69094018054909116821790556001600160a01b0362000599838762000902565b5116907f7397831292236fdc8043acf7b9d21183e46fd54f9b06bd34210068f95dd378d6600080a35b0162000289565b88634e487b7160e01b60005260326004526000fd5b88634e487b7160e01b60005260416004526000fd5b6040513d6000823e3d90fd5b89634e487b7160e01b60005260416004526000fd5b620006369193503d806000833e6200062d818362000869565b81019062000985565b9189620003fd565b600091925062000659903d8084833e6200062d818362000869565b919062000387565b60405162461bcd60e51b8152602060048201526015818901527415539111549316525391d7d393d517d31254d51151605a1b6044820152606490fd5b905081813d831162000818575b620006b6818362000869565b810103818112620000a0576040519182019082821086831117620005ff57602013620000a057610200820181811086821117620005ff5760405282518152815262000704602083016200092d565b602082015262000717604083016200092d565b604082015260606200072b8184016200092d565b9082015260806200073e8184016200092d565b9082015260a0620007518184016200092d565b9082015260c0808301519064ffffffffff82168203620000a057820152868201519161ffff83168303620000a057610100928883015282620007958183016200094b565b90830152610120620007a98183016200094b565b90830152610140620007bd8183016200094b565b90830152610160620007d18183016200094b565b90830152610180620007e58183016200092d565b908301526101a0620007f98183016200092d565b908301526200080d6101c08092016200092d565b908201528862000335565b503d620006aa565b9060019162000830828762000902565b52620005c2565b604051806200011f8682620008bb565b82356001600160a01b0381168103620000a05781526020928301920162000245565b90601f8019910116810190811067ffffffffffffffff8211176200088c57604052565b634e487b7160e01b600052604160045260246000fd5b67ffffffffffffffff81116200088c5760051b60200190565b602090602060408183019282815285518094520193019160005b828110620008e4575050505090565b83516001600160a01b031685529381019392810192600101620008d5565b8051821015620009175760209160051b010190565b634e487b7160e01b600052603260045260246000fd5b51906fffffffffffffffffffffffffffffffff82168203620000a057565b51906001600160a01b0382168203620000a057565b60005b838110620009745750506000910152565b818101518382015260200162000963565b602081830312620000a057805167ffffffffffffffff91828211620000a057019082601f83011215620000a05781519081116200088c5760405192620009d6601f8301601f19166020018562000869565b81845260208284010111620000a057620009f7916020808501910162000960565b90565b9060209162000a158151809281855285808601910162000960565b601f01601f191601019056fe60c080604052346200048757620049fa803803809162000020828562000739565b8339810160a082820312620004875781516001600160a01b038116810362000487576020830151916001600160a01b0383168303620004875762000067604085016200075d565b60608501519094906001600160401b0381116200048757826200008c91830162000772565b60808201519092906001600160401b0381116200048757620000af920162000772565b60405163313ce56760e01b8152916020836004816001600160a01b038a165afa9283156200044557600093620006ee575b508051906001600160401b038211620005e25760005490600182811c92168015620006e3575b6020831014620005c15781601f84931162000680575b50602090601f83116001146200060457600092620005f8575b50508160011b916000199060031b1c1916176000555b8051906001600160401b038211620005e257600154600181811c91168015620005d7575b6020821014620005c157601f811162000568575b50602090601f8311600114620004ea5760ff93929160009183620004de575b50508160011b916000199060031b1c1916176001555b600280549190921660ff1990911617905560805260a052600780546001600160a01b03929092166001600160a01b031992831681179091556040516358b50cef60e11b815290602090829060049082905afa908115620004455760009162000495575b50600880546001600160a01b0392831693168317905560805160405163095ea7b360e01b815291166004820152600019602482015290602090829060449082906000905af18015620004455762000451575b5060a0516001600160a01b031680620002fe575b6040516140159081620009a58239608051818181610f89015281816110e8015281816112de0152818161169b01528181611fc4015281816122ae015281816127a8015281816134b7015261368f015260a051818181610b4b0152818161196201528181611e2b015281816125780152818161269301526128ff0152f35b600060018060a01b0360075416602460405180948193636657732f60e01b835260048301525afa908115620004455760009162000377575b5060005b81518110156200036e57600581901b8201602001516001919062000367906001600160a01b0316620007e8565b016200033a565b50503862000281565b3d8083833e62000388818362000739565b81019060208183031262000441578051906001600160401b0382116200043d57019181601f8401121562000426578251926001600160401b03841162000429578360051b9160405194620003e0602085018762000739565b8552602080860193830101938411620004265750602001905b8282106200040b575050503862000336565b602080916200041a846200075d565b815201910190620003f9565b80fd5b634e487b7160e01b82526041600452602482fd5b8380fd5b8280fd5b6040513d6000823e3d90fd5b6020813d6020116200048c575b816200046d6020938362000739565b81010312620004875751801515036200048757386200026d565b600080fd5b3d91506200045e565b90506020813d602011620004d5575b81620004b36020938362000739565b810103126200048757600091620004cc6020926200075d565b9150916200021b565b3d9150620004a4565b015190503880620001a2565b60016000908152600080516020620049da833981519152929190601f198516905b8181106200054f575091600193918560ff9796941062000535575b505050811b01600155620001b8565b015160001960f88460031b161c1916905538808062000526565b929360206001819287860151815501950193016200050b565b6001600052600080516020620049da833981519152601f840160051c81019160208510620005b6575b601f0160051c01905b818110620005a9575062000183565b600081556001016200059a565b909150819062000591565b634e487b7160e01b600052602260045260246000fd5b90607f16906200016f565b634e487b7160e01b600052604160045260246000fd5b01519050388062000135565b60008080529350600080516020620049ba83398151915291905b601f198416851062000664576001945083601f198116106200064a575b505050811b016000556200014b565b015160001960f88460031b161c191690553880806200063b565b818101518355602094850194600190930192909101906200061e565b60008052909150600080516020620049ba833981519152601f840160051c81019160208510620006d8575b90601f859493920160051c01905b818110620006c857506200011c565b60008155849350600101620006b9565b9091508190620006ab565b91607f169162000106565b6020939193813d60201162000730575b816200070d6020938362000739565b810103126200072c57519060ff821682036200042657509138620000e0565b5080fd5b3d9150620006fe565b601f909101601f19168101906001600160401b03821190821017620005e257604052565b51906001600160a01b03821682036200048757565b919080601f84011215620004875782516001600160401b038111620005e25760209060405192620007ad83601f19601f850116018562000739565b818452828287010111620004875760005b818110620007d457508260009394955001015290565b8581018301518482018401528201620007be565b60018060a01b03811690600090828252600a60205260409060ff82842054166200090257620008179062000908565b916009546801000000000000000081101562000429576001810180600955811015620008ee57600982527f6e1540171b6c0c960b71a7020d9f60077f6af931a8bbf590da0223dacf75c7af0180546001600160a01b031916851790558151908183016001600160401b0381118382101762000429578352600182526001600160f01b0384166020808401918252868352600a8152918490209251905160081b60ff191690151560ff161790915590519182527fa8f4dd7e60441ca288d902a295362002a0255a46560b24825821b36716d6fe5b91a2565b634e487b7160e01b82526032600452602482fd5b50505050565b6001600160a01b039081169081156200099d5760a0516007546040805163886fe70b60e01b81529184166004830152602482019490945291839183916044918391165afa91821562000993576000926200096157505090565b90809250813d83116200098b575b6200097b818362000739565b8101031262000487576020015190565b503d6200096f565b513d6000823e3d90fd5b505060009056fe6080604052600436101561001257600080fd5b60003560e01c806301e1d1141461033d57806306fdde031461033857806307a2d13a146102f2578063090edf9a14610333578063095ea7b31461032e5780630a28a4771461032957806318160ddd146103245780632026ffa31461031f57806323b872dd1461031a5780632c4e722e146103155780632f813b0d1461031057806330adf81f1461030b578063313ce567146103065780633644e5151461030157806338d52e0f146102fc578063402d267d146102f75780634cdad506146102f257806360266557146102ed57806360d8fdd8146102e857806363210537146102e35780636e553f65146102de5780636fe0b5a5146102d957806370a08231146102d45780637535d246146102cf5780637ecebe00146102ca57806386894b29146102c55780638d948415146102c05780638daaf5aa146102bb57806394bf804d146102b657806395d89b41146102b1578063a0c1f15e146102ac578063a9059cbb146102a7578063b3d7f6b9146102a2578063b460af941461029d578063ba08765214610298578063bcd1784814610293578063c2b18aa01461028e578063c63d75b614610289578063c6e6f59214610257578063cd086d4514610284578063ce96cb771461027f578063d505accf1461027a578063d905777e14610275578063dd62ed3e14610270578063de9cee981461026b578063e25ec34914610266578063ea9be77c14610261578063ee0fc6d31461025c578063ef8b30f714610257578063f56f4f0f146102525763fa7146101461024d57600080fd5b611ed8565b611e9d565b611926565b611d93565b611d21565b611c0c565b611be5565b611ba0565b611b7e565b6119d4565b611991565b61194c565b611900565b61187a565b611816565b611714565b6115a0565b61157a565b611482565b611459565b6113b2565b611236565b6111fc565b6111c1565b611179565b611117565b6110d2565b611095565b611053565b610efb565b610ec0565b610e99565b610cc3565b6105af565b610c82565b610c59565b610c3e565b610c1d565b610be2565b610ae8565b610acd565b610913565b6108ca565b6107fc565b6107d6565b610747565b61061a565b6104c8565b610352565b600091031261034d57565b600080fd5b3461034d57600036600319011261034d576007546040516370a0823160e01b815230600482015290602090829060249082906001600160a01b03165afa80156103d6576020916000916103a9575b50604051908152f35b6103c99150823d84116103cf575b6103c1818361045e565b810190611ef4565b386103a0565b503d6103b7565b611f03565b90600182811c9216801561040b575b60208310146103f557565b634e487b7160e01b600052602260045260246000fd5b91607f16916103ea565b634e487b7160e01b600052604160045260246000fd5b6001600160401b03811161043e57604052565b610415565b604081019081106001600160401b0382111761043e57604052565b90601f801991011681019081106001600160401b0382111761043e57604052565b6020808252825181830181905290939260005b8281106104b457505060409293506000838284010152601f8019910116010190565b818101860151848201604001528501610492565b3461034d576000806003193601126105ac5760405190808054906104eb826103db565b8085529160209160019182811690811561057f5750600114610528575b610524866105188188038261045e565b6040519182918261047f565b0390f35b80809550527f290decd9548b62a8d60345a988386fc84ba6bc95484008f6362f93160ef3e5635b83851061056c575050505081016020016105188261052438610508565b805486860184015293820193810161054f565b90508695506105249693506020925061051894915060ff191682840152151560051b820101929338610508565b80fd5b3461034d57602036600319011261034d5760206105d56105cd611f97565b6004356139fd565b604051908152f35b6001600160a01b0381160361034d57565b606090600319011261034d576004359060243561060a816105dd565b90604435610617816105dd565b90565b3461034d576105246106c461062e366105ee565b92919061064461063c611f2a565b831515611f47565b61065561064f611f97565b836139fd565b93849261066b610663611f2a565b851515611f47565b60018060a01b039061068781838516948533036106d457612c78565b604080518681526020810192909252918416913391600080516020613f608339815191529190a46007546001600160a01b0316612d45565b612d45565b6040519081529081906020820190565b600086815260056020908152604080832033845290915290205b548260018201610700575b5050612c78565b61070991611f85565b6001600160a01b038216600090815260056020526040902061073f9033905b9060018060a01b0316600052602052604060002090565b5538826106f9565b3461034d57604036600319011261034d57600435610764816105dd565b60243590336000526005602052816107928260406000209060018060a01b0316600052602052604060002090565b556040519182526001600160a01b03169033907f8c5be1e5ebec7d5bd14f71427d1e84f3dd0314c0f7b2291e5b200ac8c7c3b92590602090a3602060405160018152f35b3461034d57602036600319011261034d5760206105d56107f4611f97565b600435613c65565b3461034d57600036600319011261034d576020600354604051908152f35b604051906101e082018281106001600160401b0382111761043e57604052565b6040519061084782610443565b565b6001600160401b03811161043e5760051b60200190565b9080601f8301121561034d57602090823561087a81610849565b93610888604051958661045e565b81855260208086019260051b82010192831161034d57602001905b8282106108b1575050505090565b83809183356108bf816105dd565b8152019101906108a3565b3461034d57604036600319011261034d576004356108e7816105dd565b602435906001600160401b03821161034d5761090a610911923690600401610860565b9033612d94565b005b3461034d57606036600319011261034d57600435610930816105dd565b60243561093c816105dd565b60009160443591906001600160a01b0380821680151591841680151591875b600980548210156109d7578952600080516020613fa08339815191528101546001919086906001600160a01b0316610992816128c7565b916109c7575b86806109bd575b6109ac575b50500161095b565b6109b6918a613b47565b38806109a4565b508585141561099f565b6109d281838b613b47565b610998565b5050600080516020613f80833981519152610a8a88610a7489610a4d8a610a26610a138260018060a01b03166000526005602052604060002090565b3360009081526020919091526040902090565b548560018201610a99575b50506001600160a01b0316600090815260046020526040902090565b610a58848254611f85565b90556001600160a01b0316600090815260046020526040902090565b8054820190556040519081529081906020820190565b0390a360405160018152602090f35b610aa291611f85565b6001600160a01b0382166000908152600560205260409020610ac5903390610728565b558985610a31565b3461034d57600036600319011261034d5760206105d5611f97565b3461034d576000806003193601126105ac57600754610b4791908190610b1e906001600160a01b03165b6001600160a01b031690565b604051636657732f60e01b81526001600160a01b03909116600482015292839081906024820190565b03817f00000000000000000000000000000000000000000000000000000000000000006001600160a01b03165afa9182156103d6578192610bbe575b50805b8251811015610bba5780610bb4610baf610ba2600194876120c7565b516001600160a01b031690565b612fd3565b01610b86565b5080f35b610bdb9192503d8084833e610bd3818361045e565b81019061201c565b9038610b83565b3461034d57600036600319011261034d5760206040517f6e71edae12b1b97f4d1f60370fef10105fa2faae0126114a169c64845d6126c98152f35b3461034d57600036600319011261034d57602060ff60025416604051908152f35b3461034d57600036600319011261034d5760206105d56130c4565b3461034d57600036600319011261034d576008546040516001600160a01b039091168152602090f35b3461034d57602036600319011261034d57610c9e6004356105dd565b60206105d561227f565b8015150361034d57565b60609060c319011261034d5760c490565b3461034d5761012036600319011261034d57610e87600435610ce4816105dd565b602435610cf0816105dd565b6044356064359160843593610d0485610ca8565b610e82610d47610e73610b1260a4358960018a610e2c610e388c8b8d610dee610d2c36610cb2565b99888060a01b0384169d8e610d3f612442565b901515611f47565b610d5b610d5261245f565b42831015611f47565b6001600160a01b038416600090815260066020526040902054809a610d7e6130c4565b9960405197889660208801988993909260e09592989796936101008601997f406ef09971b1bfa50a48ce277d3302602d78c94d58a376e8953b590702de7b31875260018060a01b03809216602088015216604086015260608501526080840152151560a083015260c08201520152565b0391610e02601f199384810183528261045e565b519020604051938491602083019687909160429261190160f01b8352600283015260228201520190565b0390810183528261045e565b5190209101610e598860018060a01b03166000526006602052604060002090565b55610e6382612496565b60206040840135930135916132dc565b14610e7c6124a0565b90611f47565b6133c6565b60408051928352602083019190915290f35b3461034d57602036600319011261034d5760206105d5600435610ebb816105dd565b612506565b3461034d57600036600319011261034d5760206040517f2a83c73b9e01ec0a1b95ff05940d809179668cc004230412d7047ffac3846ce78152f35b3461034d57604036600319011261034d57602435600435610f1b826105dd565b6001600160a01b039082821690610f3361063c6132f4565b610f3b613311565b50610f4f610f4761227f565b821115613582565b610f60610f5a611f97565b82613de1565b92610f6c610663611f2a565b6008546001600160a01b031690610f87833033848616613785565b7f000000000000000000000000000000000000000000000000000000000000000016803b1561034d5760405163e8eda9df60e01b81526001600160a01b0392909216600483015260248201839052306044830152600060648301819052908290608490829084905af180156103d65760209561100a92869261103a575b506137dd565b60408051918252602082018490523391600080516020613fc083398151915291819081015b0390a3604051908152f35b8061104761104d9261042b565b80610342565b38611004565b3461034d57602036600319011261034d57600435611070816105dd565b60018060a01b0316600052600a602052602060ff604060002054166040519015158152f35b3461034d57602036600319011261034d576004356110b2816105dd565b60018060a01b031660005260046020526020604060002054604051908152f35b3461034d57600036600319011261034d576040517f00000000000000000000000000000000000000000000000000000000000000006001600160a01b03168152602090f35b3461034d57602036600319011261034d57600435611134816105dd565b60018060a01b031660005260066020526020604060002054604051908152f35b604090600319011261034d5760043561116c816105dd565b90602435610617816105dd565b3461034d5760206111b561118c36611154565b6001600160a01b039182166000908152600b855260408082209290931681526020919091522090565b5460801c604051908152f35b3461034d57600036600319011261034d5760206040517f406ef09971b1bfa50a48ce277d3302602d78c94d58a376e8953b590702de7b318152f35b3461034d57602036600319011261034d576004356001600160401b03811161034d5761122f610911913690600401610860565b3333612d94565b3461034d57604036600319011261034d57602435600435611256826105dd565b6001600160a01b03908282169061126e61063c6132f4565b801590811591826113aa575b61128690610e7c613311565b906000901561138857506112a361129b6126c7565b8211156135ce565b6112b46112ae611f97565b82613298565b925b6112c161063c611f2a565b6008546001600160a01b0316906112dc853033848616613785565b7f000000000000000000000000000000000000000000000000000000000000000016803b1561034d5760405163e8eda9df60e01b81526001600160a01b0392909216600483015260248201859052306044830152600060648301819052908290608490829084905af180156103d65760209561135e92849261103a57506137dd565b6040805184815260208101929092523391600080516020613fc0833981519152918190810161102f565b92905061139361227f565b506113a461139f611f97565b613dd7565b906112b6565b50600161127a565b3461034d576000806003193601126105ac57604051908060018054906113d7826103db565b808652926020926001811690811561057f575060011461140157610524866105188188038261045e565b9350600184527fb10e2d527612073b26eecdfd717e6a320cf44b4afac2b0732d9fcbe2b7fa0cf65b838510611446575050505081016020016105188261052438610508565b8054868601840152938201938101611429565b3461034d57600036600319011261034d576007546040516001600160a01b039091168152602090f35b3461034d57604036600319011261034d5760043561149f816105dd565b600090602435906001600160a01b038116331515811515855b60098054821015611534578752600080516020613fa08339815191528101546001919084906001600160a01b03166114ef816128c7565b91611524575b848061151a575b611509575b5050016114b8565b6115139188613b47565b3880611501565b50863314156114fc565b61152f818333613b47565b6114f5565b33600090815260046020526040902085908890611552908990610a4d565b8054820190556040519081523390600080516020613f80833981519152908060208101610a8a565b3461034d57602036600319011261034d5760206105d5611598611f97565b600435613298565b3461034d5761169760206115b3366105ee565b6001600160a01b03828116949390916115d56115cd6132f4565b871515611f47565b6115dd613311565b506115e961063c611f2a565b6116056115fd6115f88361277a565b612c6c565b83111561332e565b611616611610611f97565b83613c65565b9561162b87858416938433036116f157612c78565b60408051848152602081018990523391600080516020613f6083398151915291a46008546000906001600160a01b03165b604051631a4ca37b60e21b81526001600160a01b03918216600482015260248101939093529093166044820152948592839182906064820190565b03927f0000000000000000000000000000000000000000000000000000000000000000165af19182156103d6576020926116d45750604051908152f35b6116ea90833d85116103cf576103c1818361045e565b50386103a0565b6001600160a01b03811660009081526005602052604090206106ee903390610728565b3461034d57611697611725366105ee565b6001600160a01b03808316929161173d6106636132f4565b8415938415948561180e575b61175590610e7c613311565b611766611760611f2a565b86611f47565b60009594156117e85760209495506117886117808361277a565b87111561337a565b611799611793611f97565b876139fd565b955b6117af81858516948533036116f157612c78565b6040805188815260208101929092523391600080516020613f608339815191529190a460085484906000906001600160a01b031661165c565b602094506117f86115f88361277a565b50611809611804611f97565b613c40565b61179b565b506001611749565b3461034d57602036600319011261034d5760206105d5600435611838816105dd565b612627565b90815180825260208080930193019160005b82811061185d575050505090565b83516001600160a01b03168552938101939281019260010161184f565b3461034d57600036600319011261034d5760405180600954918281526020809101926009600052600080516020613fa0833981519152916000905b8282106118e057610524856118cc8189038261045e565b60405191829160208352602083019061183d565b83546001600160a01b0316865294850194600193840193909101906118b5565b3461034d57602036600319011261034d5761191c6004356105dd565b60206105d56126c7565b3461034d57602036600319011261034d5760206105d5611944611f97565b600435613de1565b3461034d57600036600319011261034d576040517f00000000000000000000000000000000000000000000000000000000000000006001600160a01b03168152602090f35b3461034d57602036600319011261034d5760206105d56119bb6004356119b6816105dd565b61277a565b6119c3611f97565b906139fd565b60ff81160361034d57565b3461034d5760e036600319011261034d576004356119f1816105dd565b6024356119fd816105dd565b7f8c5be1e5ebec7d5bd14f71427d1e84f3dd0314c0f7b2291e5b200ac8c7c3b92560443592611b34606435611b18608435611a37816119c9565b611a43428410156126f1565b611b24611a4e6130c4565b93888a611ada611a708a60018060a01b03166000526006602052604060002090565b9384549460018601905560405194859360208501958d8791959493909260a09360c08401977f6e71edae12b1b97f4d1f60370fef10105fa2faae0126114a169c64845d6126c98552600180871b038092166020860152166040840152606083015260808201520152565b0391611aee601f199384810183528261045e565b519020604051948591602083019788909160429261190160f01b8352600283015260228201520190565b0390810184528361045e565b60c4359260a435925190206132dc565b9284611b6f8261072860018060a01b0380961697611b55898883161461273d565b6001600160a01b0316600090815260056020526040902090565b556040519485521692602090a3005b3461034d57602036600319011261034d5760206105d56004356119b6816105dd565b3461034d576020611bdc611bb336611154565b6001600160a01b0391821660009081526005855260408082209290931681526020919091522090565b54604051908152f35b3461034d57602036600319011261034d5760206105d5600435611c07816105dd565b6128c7565b3461034d57604036600319011261034d57600435602435611c2c816105dd565b611c3761063c611f2a565b6007546040516370a0823160e01b81523360048201526001600160a01b03918216929190602081602481875afa80156103d65761052495600080516020613fc083398151915292600092611cf4575b5081811115611cec5750915b611cbe83611ca1610f5a611f97565b96611cb5611cad611f2a565b891515611f47565b30903390613785565b611cc885856137dd565b60408051938452602084018690529316923392a36040519081529081906020820190565b905091611c92565b611d0e91925060203d6020116103cf576103c1818361045e565b9038611c86565b61ffff81160361034d57565b3461034d5761020036600319011261034d57600435611d3f816105dd565b60243590611d4c826105dd565b60643591611d5983611d15565b608435611d6581610ca8565b60e03660c319011261034d576060366101a319011261034d57610524936106c49360a4359360443591612a56565b3461034d57606036600319011261034d57600435611db0816105dd565b602435611dbc816105dd565b6044356001600160401b03811161034d57611ddb903690600401610860565b336001600160a01b0384811691821494929392918515611e0c575b5050611e0761091194610e7c612c4f565b612d94565b90945060405190631d36517b60e21b82526004820152602081602481887f0000000000000000000000000000000000000000000000000000000000000000165afa9485156103d65761091195611e0792600091611e6e575b5016331494611df6565b611e90915060203d602011611e96575b611e88818361045e565b810190612c3a565b38611e64565b503d611e7e565b3461034d5760206105d5611eb036611154565b6001600160a01b038216600090815260048552604090205490611ed2816128c7565b92613903565b3461034d57600036600319011261034d57602060405160028152f35b9081602091031261034d575190565b6040513d6000823e3d90fd5b6001600160401b03811161043e57601f01601f191660200190565b60405190611f3782610443565b60018252600760fb1b6020830152565b15611f4f5750565b60405162461bcd60e51b8152908190611f6b906004830161047f565b0390fd5b634e487b7160e01b600052601160045260246000fd5b91908203918211611f9257565b611f6f565b60085460405163d15e005360e01b81526001600160a01b03918216600482015290602090829060249082907f0000000000000000000000000000000000000000000000000000000000000000165afa9081156103d657600091611ff8575090565b610617915060203d6020116103cf576103c1818361045e565b5190610847826105dd565b602090818184031261034d578051906001600160401b03821161034d57019180601f8401121561034d57825161205181610849565b9361205f604051958661045e565b818552838086019260051b82010192831161034d578301905b828210612086575050505090565b8380918351612094816105dd565b815201910190612078565b634e487b7160e01b600052603260045260246000fd5b8051156120c25760200190565b61209f565b80518210156120c25760209160051b010190565b919082602091031261034d57604051602081018181106001600160401b0382111761043e5760405291518252565b51906001600160801b038216820361034d57565b519064ffffffffff8216820361034d57565b519061084782611d15565b6101e08183031261034d5761215761215061081a565b92826120db565b825261216560208201612109565b602083015261217660408201612109565b604083015261218760608201612109565b606083015261219860808201612109565b60808301526121a960a08201612109565b60a08301526121ba60c0820161211d565b60c08301526121cb60e0820161212f565b60e08301526101006121de818301612011565b908301526101206121f0818301612011565b90830152610140612202818301612011565b90830152610160612214818301612011565b90830152610180612226818301612109565b908301526101a0612238818301612109565b9083015261224a6101c0809201612109565b9082015290565b604d8111611f9257600a0a90565b81810292918115918404141715611f9257565b91908201809211611f9257565b6008546040516335ea6a7560e01b81526001600160a01b0391821660048201526101e0918290829060249082907f0000000000000000000000000000000000000000000000000000000000000000165afa9182156103d657600092612415575b5050805151600160381b8116158015612406575b80156123f3575b6123ec5780640fffffffff61231760ff6123219460301c16612251565b9160741c1661225f565b9081156123e4576101008101516004919060209061234990610b12906001600160a01b031681565b60405163b1bf962d60e01b815293849182905afa80156103d6576123a16123a7916123ad946000916123c5575b5061239b61238f6101808601516001600160801b031690565b6001600160801b031690565b90612272565b9161320f565b90613298565b818111156123bc575050600090565b61061791611f85565b6123de915060203d6020116103cf576103c1818361045e565b38612376565b505060001990565b5050600090565b50670200000000000000811615156122fa565b506001603c1b811615156122f3565b6124349250803d1061243b575b61242c818361045e565b81019061213a565b38806122df565b503d612422565b6040519061244f82610443565b60018252603160f81b6020830152565b6040519061246c82610443565b60018252601960f91b6020830152565b61014435610617816119c9565b6101a435610617816119c9565b35610617816119c9565b604051906124ad82610443565b60018252603360f81b6020830152565b604051906124ca82610443565b6001825260203681840137565b916124ef60409295949560608552606085019061183d565b6001600160a01b0391821660208501529416910152565b6001600160a01b03818116801561261f5761251f6124bd565b60075461255090612538906001600160a01b0316610b12565b612541836120b5565b6001600160a01b039091169052565b60405180936370674ab960e01b8252818061257460209889963090600485016124d7565b03917f0000000000000000000000000000000000000000000000000000000000000000165afa9182156103d657600092612600575b506040516370a0823160e01b8152306004820152908390829060249082905afa9081156103d657610617936000926125e3575b5050612272565b6125f99250803d106103cf576103c1818361045e565b38806125dc565b612618919250833d85116103cf576103c1818361045e565b90386125a9565b505050600090565b6001600160a01b039081169081156123ec5761267c6020916126476124bd565b8160075416612655826120b5565b5260006040518096819582946308d8c03760e21b845260806004850152608484019061183d565b9083196024840152306044840152606483015203927f0000000000000000000000000000000000000000000000000000000000000000165af19081156103d657600091611ff8575090565b6126cf61227f565b600019908082146126ed5761061791506126e7611f97565b90613de1565b5090565b156126f857565b60405162461bcd60e51b815260206004820152601760248201527f5045524d49545f444541444c494e455f455850495245440000000000000000006044820152606490fd5b1561274457565b60405162461bcd60e51b815260206004820152600e60248201526d24a72b20a624a22fa9a4a3a722a960911b6044820152606490fd5b6008546040516335ea6a7560e01b81526001600160a01b0391821660048201819052906101e09081816024817f000000000000000000000000000000000000000000000000000000000000000088165afa9182156103d6576000926128aa575b5050805151600160381b81161590811561289a575b506128915761010001516040516370a0823160e01b81526001600160a01b0390911660048201529160209183916024918391165afa9081156103d6576128609161284491600091612872575b506126e7611f97565b6001600160a01b03909216600090815260046020526040902090565b549081811061286d575090565b905090565b61288b915060203d6020116103cf576103c1818361045e565b3861283b565b50505050600090565b6001603c1b9150161515386127ef565b6128c09250803d1061243b5761242c818361045e565b38806127da565b6001600160a01b0390811680156123ec57604090604483600754168351948593849263886fe70b60e01b8452600484015260248301527f0000000000000000000000000000000000000000000000000000000000000000165afa9081156103d657600091612933575090565b90506040813d60401161295d575b8161294e6040938361045e565b8101031261034d576020015190565b3d9150612941565b6040519061297282610443565b60018252600d60fa1b6020830152565b7f2a83c73b9e01ec0a1b95ff05940d809179668cc004230412d7047ffac3846ce781526001600160a01b0391821660208201529181166040830152606082019290925261ffff909216608083015291151560a082015260c081019290925260e08201929092526101e0810192918060c4356129fc816105dd565b1661010083015260e435612a0f816105dd565b16610120820152610104356101408201526101243561016082015260ff61014435612a39816119c9565b16610180820152610164356101a08201526101c061018435910152565b6001600160a01b039581871690612a6b612965565b612a7790831515611f47565b612a7f61245f565b612a8c9042831015611f47565b6001600160a01b03831660009081526006602052604090205490612aae6130c4565b60405191826020810191612ac890868d8d8d8d8d89612982565b0392601f19938481018252612add908261045e565b51902060405161190160f01b6020820190815260228201939093526042810191909152606292830181529091612b13908261045e565b5190206001600160a01b038416600090815260066020526040902090916001019055612b3d612489565b6101e435906101c43590612b50936132dc565b6001600160a01b031614612b626124a0565b612b6b91611f47565b610124359586612b81575b506126ed955061361a565b8515612c20576008546001600160a01b03165b16612b9d61247c565b96813b1561034d5760405163d505accf60e01b81526001600160a01b0384166004820152306024820152610104356044820152606481019190915260ff9790971660848801526101643560a48801526101843560c48801526126ed9690600090829060e490829084905af115612b765780611047612c1a9261042b565b38612b76565b600754612c35906001600160a01b0316610b12565b612b94565b9081602091031261034d5751610617816105dd565b60405190612c5c82610443565b60018252601b60f91b6020830152565b610617906119c3611f97565b60009160005b60098054821015612cd6578452600080516020613fa0833981519152810154600191906001600160a01b03908116612cb5816128c7565b918616612cc5575b505001612c7e565b612ccf9186613b47565b3880612cbd565b50506001600160a01b038216600090815260046020526040902091925090805490828203918211611f9257600093600080516020613f8083398151915292612d409255612d268460035403600355565b6040519384526001600160a01b0316929081906020820190565b0390a3565b60405163a9059cbb60e01b60208201526001600160a01b03909216602483015260448083019390935291815260808101916001600160401b0383118284101761043e5761084792604052613a31565b92919060005b8251811015612fa757612db3610b12610ba283866120c7565b15612f9f57612dc8611c07610ba283866120c7565b90612dfd82612de98860018060a01b03166000526004602052604060002090565b54612df7610ba285896120c7565b89613903565b612e10610b12610b12610ba285896120c7565b6040516370a0823160e01b815230600482015291906020908190849060249082905afa9081156103d6576001958a948992600094612f80575b505082600093808611612f65575b50808511612f50575b508584612e75575b5050505050505b01612d9a565b612f4595612ed1612ef094612ebb610ba2612eeb95612eb5612e99612f349b613ade565b6001600160a01b039097166000908152600b6020526040902090565b936120c7565b60018060a01b0316600052602052604060002090565b906001600160801b0382549181199060801b169116179055565b613ade565b6001600160a01b038a166000908152600b60205260409020612f1990612ebb610ba2888c6120c7565b906001600160801b03166001600160801b0319825416179055565b846106bf610b12610ba2868a6120c7565b853880868185612e68565b809350612f5d9194611f85565b919238612e60565b612f7a915061239b611838610ba28a876120c7565b38612e57565b612f97929450803d106103cf576103c1818361045e565b913880612e49565b600190612e6f565b5050509050565b6009548110156120c2576009600052600080516020613fa08339815191520190600090565b6001600160a01b038181166000818152600a60205260409020549092919060ff166130bf57613001826128c7565b6009546801000000000000000081101561043e577fa8f4dd7e60441ca288d902a295362002a0255a46560b24825821b36716d6fe5b936130ba9361304e8360016106c49501600955612fae565b819291549060031b9189831b921b191617905561309a61306c61083a565b60018152916001600160f01b03851660208401526001600160a01b03166000908152600a6020526040902090565b815160209092015160081b60ff191660ff92151592909216919091179055565b0390a2565b505050565b604051600090600054906130d7826103db565b9283825260209384830193600190866001821691826000146131ef575050600114613198575b505091816131136131929361318495038261045e565b519020604080517f8b73c3c69bb8fe3d512ecc4cf759cc79239f7b179b0ffacaa9a75d522b39400f95810195865260208601929092527fc89efdaa54c0f20c7adf612882df0950f5a951637e0307cdcb4c672f298b8bc69085015246606085015230608085015291829060a0850190565b03601f19810183528261045e565b51902090565b600080805286935091907f290decd9548b62a8d60345a988386fc84ba6bc95484008f6362f93160ef3e5635b8284106131da57505050820101816131136130fd565b805486850186015287949093019281016131c4565b60ff1916875292151560051b8501909201925083915061311390506130fd565b60c081015164ffffffffff16428103613239575060200151610617906001600160801b031661238f565b6001600160801b0360408301511690420390428211611f92576301e13380916132619161225f565b04676765c793fa10079d601b1b908101809111611f925761329261238f60206106179401516001600160801b031690565b90613c05565b90811580156132d4575b6123ec57806132bd676765c793fa10079d601b1b9284613e81565b92096132c65790565b60018101809111611f925790565b5080156132a2565b9161061793916132eb93613c8c565b90929192613d30565b6040519061330182610443565b60018252603560f81b6020830152565b6040519061331e82610443565b60018252603760f81b6020830152565b1561333557565b60405162461bcd60e51b815260206004820152601f60248201527f455243343632363a207769746864726177206d6f7265207468616e206d6178006044820152606490fd5b1561338157565b60405162461bcd60e51b815260206004820152601d60248201527f455243343632363a2072656465656d206d6f7265207468616e206d61780000006044820152606490fd5b949390916001600160a01b0391828416916133ea6133e26132f4565b841515611f47565b8015958615968761357a575b61340290610e7c613311565b61341661340d611f2a565b82841415611f47565b80919660001461353a57505080613521575b613439613433611f97565b866139fd565b9687925b61345187868416938433036116f157612c78565b60408051858152602081018990523391600080516020613f6083398151915291a41561350557600854604051631a4ca37b60e21b81526001600160a01b0391821660048201526024810192909252929092166044830152602090829060649082906000907f0000000000000000000000000000000000000000000000000000000000000000165af180156103d6576134e857509190565b6135009060203d6020116103cf576103c1818361045e565b509190565b60075461351d939192506001600160a01b0316612d45565b9190565b61353561352d8861277a565b86111561337a565b613428565b819891939650613558908361355e575b613552611f97565b90613c65565b9561343d565b61357561356d6115f88561277a565b82111561332e565b61354a565b5080156133f6565b1561358957565b60405162461bcd60e51b815260206004820152601e60248201527f455243343632363a206465706f736974206d6f7265207468616e206d617800006044820152606490fd5b156135d557565b60405162461bcd60e51b815260206004820152601b60248201527f455243343632363a206d696e74206d6f7265207468616e206d617800000000006044820152606490fd5b919493926001600160a01b0380831693929161363f6136376132f4565b861515611f47565b85613648613311565b5061376d575b61365f613659611f97565b89613de1565b809661366c61063c611f2a565b1561373857506008546001600160a01b031661368c893087868516613785565b827f00000000000000000000000000000000000000000000000000000000000000001691823b1561034d5760405163e8eda9df60e01b81526001600160a01b03929092166004830152602482018a905230604483015261ffff166064820152906000908290608490829084905af180156103d657600080516020613fc08339815191529361372092889261103a57506137dd565b60408051888152602081018790529390911692a39190565b600754600080516020613fc083398151915294613720935090613768908b906001600160a01b0316883091613785565b6137dd565b61378061377861227f565b891115613582565b61364e565b6040516323b872dd60e01b60208201526001600160a01b03928316602482015292909116604483015260648083019390935291815260a08101918183106001600160401b0384111761043e5761084792604052613a31565b60009160005b60098054821015613848578452600080516020613fa0833981519152810154600191906001600160a01b0390811661381a816128c7565b918616151580613843575b613832575b5050016137e3565b61383c9186613b47565b388061382a565b613825565b5050915060035490828201809211611f9257612d40600080516020613f8083398151915291613878600094600355565b6001600160a01b03811660009081526004602052604090208054860190556040519485526001600160a01b0316939081906020820190565b604051906138bd82610443565b60018252603960f81b6020830152565b906040516138da81610443565b91546001600160801b038116835260801c6020830152565b60ff16604d8111611f9257600a0a90565b6139f0906106179461398a6139856139cd956107286139348260018060a01b0316600052600a602052604060002090565b9561396b6040519761394589610443565b5497602060ff8a16151591828152019860081c895260016139646138b0565b9114611f47565b6001600160a01b03166000908152600b6020526040902090565b6138cd565b9461399f61399a60025460ff1690565b6138f2565b926139b460208801516001600160801b031690565b966001600160801b03968791516001600160801b031690565b1690816139f757516001600160f81b031690505b6001600160f81b031690613dbd565b9116612272565b506139e1565b9081158015613a14575b6123ec5761061791613e81565b508015613a07565b9081602091031261034d575161061781610ca8565b600080613a7b9260018060a01b03169360208151910182865af13d15613ad6573d90613a5c82611f0f565b91613a6a604051938461045e565b82523d6000602084013e5b83613efc565b8051908115159182613ab4575b5050613a915750565b604051635274afe760e01b81526001600160a01b03919091166004820152602490fd5b613acf925090602080613acb938301019101613a1c565b1590565b3880613a88565b606090613a75565b6001600160801b0390818111613af2571690565b60405162461bcd60e51b815260206004820152602760248201527f53616665436173743a2076616c756520646f65736e27742066697420696e20316044820152663238206269747360c81b6064820152608490fd5b610847926040612f1992613b7f60018060a01b0382169560009287845260046020528585852054918383613b9f575b50505050613ade565b948152600b602052209060018060a01b0316600052602052604060002090565b613bd793613bb093612eeb93613903565b888552600b60209081528686206001600160a01b0389166000908152915260409020612ed1565b38858183613b76565b634e487b7160e01b600052601260045260246000fd5b8115613c00570490565b613be0565b816b019d971e4fe8401e7400000019048111158215171561034d57676765c793fa10079d601b1b91026b019d971e4fe8401e74000000010490565b8015613c0057600090676765c793fa10079d601b1b600009613c5f5790565b50600190565b90613c708183613de1565b918115613c0057676765c793fa10079d601b1b90096132c65790565b91907f7fffffffffffffffffffffffffffffff5d576e7357a4501ddfe92f46681b20a08411613d0457926020929160ff608095604051948552168484015260408301526060820152600092839182805260015afa156103d65780516001600160a01b03811615613cfb57918190565b50809160019190565b50505060009160039190565b60041115613d1a57565b634e487b7160e01b600052602160045260246000fd5b613d3981613d10565b80613d42575050565b613d4b81613d10565b60018103613d655760405163f645eedf60e01b8152600490fd5b613d6e81613d10565b60028103613d8f5760405163fce698f760e01b815260048101839052602490fd5b80613d9b600392613d10565b14613da35750565b6040516335e2f38360e21b81526004810191909152602490fd5b91908215612891578103908111611f9257613bf69161225f565b15613c0057600090565b676765c793fa10079d601b1b918183029160001984820993838086109503948086039514613e745784831115613e625782910981600003821680920460028082600302188083028203028083028203028083028203028083028203028083028203028092029003029360018380600003040190848311900302920304170290565b60405163227bc15360e01b8152600490fd5b5050906106179250613bf6565b908082029060001981840990828083109203918083039214613ee857676765c793fa10079d601b1b9082821115613e62577f2245cd4e1f3755e770b615377cde9082e11ad04b156637b5cd27412a54f5b6b5940990828211900360e51b9103601b1c170290565b5050676765c793fa10079d601b1b91500490565b90613f235750805115613f1157805190602001fd5b604051630a12f52160e11b8152600490fd5b81511580613f56575b613f34575090565b604051639996b31560e01b81526001600160a01b039091166004820152602490fd5b50803b15613f2c56fefbde797d201c681b91056529119e0b02407c7bb96a4a2c75c01fc9667232c8dbddf252ad1be2c89b69c2b068fc378daa952ba7f163c4a11628f55a4df523b3ef6e1540171b6c0c960b71a7020d9f60077f6af931a8bbf590da0223dacf75c7afdcbc1c05240f31ff3ad067ef1ee35ce4997762752e3a095284754544f4c709d7a26469706673582212201eb2b81a2bdbb1e69d0c00691f863002172f09a4e65d7293c104bce7fc1fcaa464736f6c63430008180033290decd9548b62a8d60345a988386fc84ba6bc95484008f6362f93160ef3e563b10e2d527612073b26eecdfd717e6a320cf44b4afac2b0732d9fcbe2b7fa0cf6a2646970667358221220874f5d59f97a28c1e85cd30bc96b091e7d38a36190e20f5e14d1ec9213d2e37064736f6c63430008180033",
  "devdoc": {
    "author": "BGD labs (modified by dTrinity)",
    "kind": "dev",
    "methods": {
      "createStaticATokens(address[])": {
        "params": {
          "underlyings": "the addresses of the underlyings to create."
        },
        "returns": {
          "_0": "address[] addresses of the new staticATokens."
        }
      },
      "getStaticAToken(address)": {
        "params": {
          "underlying": "the address of the underlying."
        },
        "returns": {
          "_0": "address the staticAToken address."
        }
      },
      "getStaticATokens()": {
        "returns": {
          "_0": "address[] list of tokens"
        }
      }
    },
    "title": "StaticATokenFactory",
    "version": 1
  },
  "userdoc": {
    "kind": "user",
    "methods": {
      "createStaticATokens(address[])": {
        "notice": "Creates new staticATokens"
      },
      "getStaticAToken(address)": {
        "notice": "Returns the staticAToken for a given underlying."
      },
      "getStaticATokens()": {
        "notice": "Returns all tokens deployed via this registry."
      }
    },
    "notice": "Factory contract that keeps track of all deployed static aToken wrappers for a specified pool. This registry also acts as a factory, allowing to deploy new static aTokens on demand. There can only be one static aToken per underlying on the registry at a time.",
    "version": 1
  },
  "storageLayout": {
    "storage": [
      {
        "astId": 90036,
        "contract": "contracts/vaults/atoken_wrapper/StaticATokenFactory.sol:StaticATokenFactory",
        "label": "_underlyingToStaticAToken",
        "offset": 0,
        "slot": "0",
        "type": "t_mapping(t_address,t_address)"
      },
      {
        "astId": 90039,
        "contract": "contracts/vaults/atoken_wrapper/StaticATokenFactory.sol:StaticATokenFactory",
        "label": "_staticATokens",
        "offset": 0,
        "slot": "1",
        "type": "t_array(t_address)dyn_storage"
      }
    ],
    "types": {
      "t_address": {
        "encoding": "inplace",
        "label": "address",
        "numberOfBytes": "20"
      },
      "t_array(t_address)dyn_storage": {
        "base": "t_address",
        "encoding": "dynamic_array",
        "label": "address[]",
        "numberOfBytes": "32"
      },
      "t_mapping(t_address,t_address)": {
        "encoding": "mapping",
        "key": "t_address",
        "label": "mapping(address => address)",
        "numberOfBytes": "32",
        "value": "t_address"
      }
    }
  }
}