{
  "address": "0xF2052F08b9C7eC914800dED7f33AD22f200E1955",
  "abi": [
    {
      "inputs": [
        {
          "internalType": "contract IPoolAddressesProvider",
          "name": "addressesProvider",
          "type": "address"
        },
        {
          "internalType": "address",
          "name": "governanceSafe",
          "type": "address"
        }
      ],
      "stateMutability": "nonpayable",
      "type": "constructor"
    },
    {
      "anonymous": false,
      "inputs": [
        {
          "indexed": true,
          "internalType": "address",
          "name": "previousOwner",
          "type": "address"
        },
        {
          "indexed": true,
          "internalType": "address",
          "name": "newOwner",
          "type": "address"
        }
      ],
      "name": "OwnershipTransferred",
      "type": "event"
    },
    {
      "inputs": [],
      "name": "ADDRESSES_PROVIDER",
      "outputs": [
        {
          "internalType": "contract IPoolAddressesProvider",
          "name": "",
          "type": "address"
        }
      ],
      "stateMutability": "view",
      "type": "function"
    },
    {
      "inputs": [
        {
          "internalType": "address",
          "name": "asset",
          "type": "address"
        }
      ],
      "name": "freezeReserve",
      "outputs": [],
      "stateMutability": "nonpayable",
      "type": "function"
    },
    {
      "inputs": [
        {
          "internalType": "address[]",
          "name": "assets",
          "type": "address[]"
        }
      ],
      "name": "freezeReserves",
      "outputs": [],
      "stateMutability": "nonpayable",
      "type": "function"
    },
    {
      "inputs": [],
      "name": "owner",
      "outputs": [
        {
          "internalType": "address",
          "name": "",
          "type": "address"
        }
      ],
      "stateMutability": "view",
      "type": "function"
    },
    {
      "inputs": [],
      "name": "renounceOwnership",
      "outputs": [],
      "stateMutability": "nonpayable",
      "type": "function"
    },
    {
      "inputs": [
        {
          "internalType": "address",
          "name": "newOwner",
          "type": "address"
        }
      ],
      "name": "transferOwnership",
      "outputs": [],
      "stateMutability": "nonpayable",
      "type": "function"
    }
  ],
  "transactionHash": "0x5735e9ab393fdc36bdbf59b9b6748a6f73466a802ea309409577023e19e93f56",
  "args": [
    "0xD9C622d64342B5FaCeef4d366B974AEf6dCB338D",
    "0xA9c3cF89D9B7680cC2433E2A2bf8E2b357a03d65"
  ],
  "numDeployments": 1,
  "solcInputHash": "cb6de3817c46866b5e782470a77c7a58",
  "bytecode": "0x60a03461015757601f61066b38819003918201601f19168301916001600160401b0383118484101761015c5780849260409485528339810103126101575780516001600160a01b0380821692838303610157576020015190811680910361015757600080546040517f8be0079c531659141344cd1fd0a4f28419497f9722a3daafe3b4186f6b6457e09592946001600160a01b0319928316939091903387898180a315610115575083156100dc57608052826040519533908680a33316171790556104f89081610173823960805181818161035b015261041d0152f35b60405162461bcd60e51b8152602060048201526011602482015270222323afa4a72b20a624a22fa7aba722a960791b6044820152606490fd5b62461bcd60e51b815260206004820152601460248201527f4446475f494e56414c49445f50524f56494445520000000000000000000000006044820152606490fd5b600080fd5b634e487b7160e01b600052604160045260246000fdfe6080604081815260048036101561001557600080fd5b600092833560e01c9081630542975c1461034757508063715018a6146102e85780637906658b146101f15780637aca76eb146101635780638da5cb5b146101375763f2fde38b1461006557600080fd5b34610133576020366003190112610133576001600160a01b0381358181169391929084900361012f5784549283169161009f33841461038a565b84156100dd57505082907f8be0079c531659141344cd1fd0a4f28419497f9722a3daafe3b4186f6b6457e08580a36001600160a01b03191617815580f35b906020608492519162461bcd60e51b8352820152602660248201527f4f776e61626c653a206e6577206f776e657220697320746865207a65726f206160448201526564647265737360d01b6064820152fd5b8480fd5b8280fd5b50503461015f578160031936011261015f57905490516001600160a01b039091168152602090f35b5080fd5b509034610133576020366003190112610133578282356001600160a01b03818116918290036101335761019a81845416331461038a565b6101a26103ff565b1693843b156101335760449083855196879485936325ba55f160e21b8552840152600160248401525af19081156101e857506101dc575080f35b6101e5906103d5565b80f35b513d84823e3d90fd5b5034610133576020366003190112610133578035918367ffffffffffffffff9283851161015f573660238601121561015f578481013593841161015f576024936005913660248360051b890101116102e457835491966001600160a01b0393909261025f908516331461038a565b6102676103ff565b841692855b898110610277578680f35b8881841b830101358681168091036102e057853b156102e0578851906325ba55f160e21b82528582015260018a8201528781604481838a5af180156102d65790600192916102c7575b500161026c565b6102d0906103d5565b386102c0565b89513d8a823e3d90fd5b8780fd5b8380fd5b83346103445780600319360112610344578054816001600160a01b03821661031133821461038a565b7f8be0079c531659141344cd1fd0a4f28419497f9722a3daafe3b4186f6b6457e08280a36001600160a01b031916815580f35b80fd5b84903461015f578160031936011261015f577f00000000000000000000000000000000000000000000000000000000000000006001600160a01b03168152602090f35b1561039157565b606460405162461bcd60e51b815260206004820152602060248201527f4f776e61626c653a2063616c6c6572206973206e6f7420746865206f776e65726044820152fd5b67ffffffffffffffff81116103e957604052565b634e487b7160e01b600052604160045260246000fd5b60405163318d6fe560e11b81526001600160a01b03906020816004817f000000000000000000000000000000000000000000000000000000000000000086165afa9081156104b65760009161045357501690565b60203d6020116104af575b601f8101601f1916820167ffffffffffffffff81118382101761049b5760209183916040528101031261015f575190828216820361034457501690565b634e487b7160e01b84526041600452602484fd5b503d61045e565b6040513d6000823e3d90fdfea2646970667358221220654abc96ed4c244eb7e6dc420e60b716fc9765389e4297e28ba9572de03ccc9a64736f6c63430008180033",
  "devdoc": {
    "kind": "dev",
    "methods": {
      "owner()": {
        "details": "Returns the address of the current owner."
      },
      "renounceOwnership()": {
        "details": "Leaves the contract without owner. It will not be possible to call `onlyOwner` functions anymore. Can only be called by the current owner. NOTE: Renouncing ownership will leave the contract without an owner, thereby removing any functionality that is only available to the owner."
      },
      "transferOwnership(address)": {
        "details": "Transfers ownership of the contract to a new account (`newOwner`). Can only be called by the current owner."
      }
    },
    "title": "DlendFreezeGuardian",
    "version": 1
  },
  "userdoc": {
    "kind": "user",
    "methods": {},
    "notice": "Governance-owned helper that can only freeze DLend reserves.",
    "version": 1
  },
  "storageLayout": {
    "storage": [
      {
        "astId": 38713,
        "contract": "contracts/lending/periphery/misc/DlendFreezeGuardian.sol:DlendFreezeGuardian",
        "label": "_owner",
        "offset": 0,
        "slot": "0",
        "type": "t_address"
      }
    ],
    "types": {
      "t_address": {
        "encoding": "inplace",
        "label": "address",
        "numberOfBytes": "20"
      }
    }
  }
}