{
  "address": "0x29fa9FEBd6AD0d3160849871f83e6Ae2363B8044",
  "abi": [
    {
      "inputs": [
        {
          "internalType": "contract IERC3156FlashLender",
          "name": "_flashLender",
          "type": "address"
        },
        {
          "internalType": "contract IOdosRouterV2",
          "name": "_odosRouter",
          "type": "address"
        }
      ],
      "stateMutability": "nonpayable",
      "type": "constructor"
    },
    {
      "inputs": [],
      "name": "AccessControlBadConfirmation",
      "type": "error"
    },
    {
      "inputs": [
        {
          "internalType": "address",
          "name": "account",
          "type": "address"
        },
        {
          "internalType": "bytes32",
          "name": "neededRole",
          "type": "bytes32"
        }
      ],
      "name": "AccessControlUnauthorizedAccount",
      "type": "error"
    },
    {
      "inputs": [
        {
          "internalType": "address",
          "name": "target",
          "type": "address"
        }
      ],
      "name": "AddressEmptyCode",
      "type": "error"
    },
    {
      "inputs": [
        {
          "internalType": "address",
          "name": "account",
          "type": "address"
        }
      ],
      "name": "AddressInsufficientBalance",
      "type": "error"
    },
    {
      "inputs": [
        {
          "internalType": "address",
          "name": "token",
          "type": "address"
        }
      ],
      "name": "CannotRescueRestrictedToken",
      "type": "error"
    },
    {
      "inputs": [
        {
          "internalType": "uint256",
          "name": "debtTokenBalanceBeforeDeposit",
          "type": "uint256"
        },
        {
          "internalType": "uint256",
          "name": "debtTokenBalanceAfterDeposit",
          "type": "uint256"
        }
      ],
      "name": "DebtTokenBalanceNotIncreasedAfterDeposit",
      "type": "error"
    },
    {
      "inputs": [
        {
          "internalType": "uint256",
          "name": "debtTokenReceived",
          "type": "uint256"
        },
        {
          "internalType": "uint256",
          "name": "debtTokenUsed",
          "type": "uint256"
        },
        {
          "internalType": "uint256",
          "name": "flashLoanFee",
          "type": "uint256"
        }
      ],
      "name": "DebtTokenReceivedNotMetUsedAmountWithFlashLoanFee",
      "type": "error"
    },
    {
      "inputs": [],
      "name": "EnforcedPause",
      "type": "error"
    },
    {
      "inputs": [
        {
          "internalType": "uint256",
          "name": "estimatedOverallSlippageBps",
          "type": "uint256"
        }
      ],
      "name": "EstimatedOverallSlippageBpsCannotExceedOneHundredPercent",
      "type": "error"
    },
    {
      "inputs": [
        {
          "internalType": "uint256",
          "name": "currentEstimatedShares",
          "type": "uint256"
        },
        {
          "internalType": "uint256",
          "name": "minOutputShares",
          "type": "uint256"
        }
      ],
      "name": "EstimatedSharesLessThanMinOutputShares",
      "type": "error"
    },
    {
      "inputs": [],
      "name": "ExpectedPause",
      "type": "error"
    },
    {
      "inputs": [],
      "name": "FailedInnerCall",
      "type": "error"
    },
    {
      "inputs": [
        {
          "internalType": "address",
          "name": "flashLender",
          "type": "address"
        },
        {
          "internalType": "address",
          "name": "debtToken",
          "type": "address"
        }
      ],
      "name": "FlashLenderNotSameAsDebtToken",
      "type": "error"
    },
    {
      "inputs": [
        {
          "internalType": "address",
          "name": "currentDebtToken",
          "type": "address"
        },
        {
          "internalType": "address",
          "name": "dLoopCoreDebtToken",
          "type": "address"
        }
      ],
      "name": "IncompatibleDLoopCoreDebtToken",
      "type": "error"
    },
    {
      "inputs": [
        {
          "internalType": "uint256",
          "name": "leveragedCollateralAmount",
          "type": "uint256"
        },
        {
          "internalType": "uint256",
          "name": "assets",
          "type": "uint256"
        }
      ],
      "name": "LeveragedCollateralAmountLessThanAssets",
      "type": "error"
    },
    {
      "inputs": [
        {
          "internalType": "uint256",
          "name": "leveragedCollateralAmount",
          "type": "uint256"
        },
        {
          "internalType": "uint256",
          "name": "depositCollateralAmount",
          "type": "uint256"
        }
      ],
      "name": "LeveragedCollateralAmountLessThanDepositCollateralAmount",
      "type": "error"
    },
    {
      "inputs": [],
      "name": "MathOverflowedMulDiv",
      "type": "error"
    },
    {
      "inputs": [
        {
          "internalType": "uint256",
          "name": "outputTokenBalanceBefore",
          "type": "uint256"
        },
        {
          "internalType": "uint256",
          "name": "outputTokenBalanceAfter",
          "type": "uint256"
        }
      ],
      "name": "OutputTokenBalanceNotIncreasedAfterSwap",
      "type": "error"
    },
    {
      "inputs": [
        {
          "internalType": "uint256",
          "name": "receivedOutputTokenAmount",
          "type": "uint256"
        },
        {
          "internalType": "uint256",
          "name": "amountOut",
          "type": "uint256"
        }
      ],
      "name": "ReceivedOutputTokenAmountNotEqualAmountOut",
      "type": "error"
    },
    {
      "inputs": [
        {
          "internalType": "uint256",
          "name": "receivedShares",
          "type": "uint256"
        },
        {
          "internalType": "uint256",
          "name": "minOutputShares",
          "type": "uint256"
        }
      ],
      "name": "ReceivedSharesNotMetMinReceiveAmount",
      "type": "error"
    },
    {
      "inputs": [],
      "name": "ReentrancyGuardReentrantCall",
      "type": "error"
    },
    {
      "inputs": [
        {
          "internalType": "address",
          "name": "token",
          "type": "address"
        }
      ],
      "name": "SafeERC20FailedOperation",
      "type": "error"
    },
    {
      "inputs": [
        {
          "internalType": "uint256",
          "name": "sharesBeforeDeposit",
          "type": "uint256"
        },
        {
          "internalType": "uint256",
          "name": "sharesAfterDeposit",
          "type": "uint256"
        }
      ],
      "name": "SharesNotIncreasedAfterFlashLoan",
      "type": "error"
    },
    {
      "inputs": [
        {
          "internalType": "uint256",
          "name": "slippageBps",
          "type": "uint256"
        }
      ],
      "name": "SlippageBpsCannotExceedOneHundredPercent",
      "type": "error"
    },
    {
      "inputs": [
        {
          "internalType": "uint256",
          "name": "spentInputTokenAmount",
          "type": "uint256"
        },
        {
          "internalType": "uint256",
          "name": "amountInMaximum",
          "type": "uint256"
        }
      ],
      "name": "SpentInputTokenAmountGreaterThanAmountInMaximum",
      "type": "error"
    },
    {
      "inputs": [
        {
          "internalType": "uint256",
          "name": "spentInputTokenAmount",
          "type": "uint256"
        },
        {
          "internalType": "uint256",
          "name": "returnedAmountIn",
          "type": "uint256"
        }
      ],
      "name": "SpentInputTokenAmountNotEqualReturnedAmountIn",
      "type": "error"
    },
    {
      "inputs": [
        {
          "internalType": "address",
          "name": "initiator",
          "type": "address"
        },
        {
          "internalType": "address",
          "name": "thisContract",
          "type": "address"
        }
      ],
      "name": "UnknownInitiator",
      "type": "error"
    },
    {
      "inputs": [
        {
          "internalType": "address",
          "name": "msgSender",
          "type": "address"
        },
        {
          "internalType": "address",
          "name": "flashLender",
          "type": "address"
        }
      ],
      "name": "UnknownLender",
      "type": "error"
    },
    {
      "anonymous": false,
      "inputs": [
        {
          "indexed": true,
          "internalType": "address",
          "name": "collateralToken",
          "type": "address"
        },
        {
          "indexed": false,
          "internalType": "uint256",
          "name": "amount",
          "type": "uint256"
        },
        {
          "indexed": true,
          "internalType": "address",
          "name": "receiver",
          "type": "address"
        }
      ],
      "name": "LeftoverCollateralTokensTransferred",
      "type": "event"
    },
    {
      "anonymous": false,
      "inputs": [
        {
          "indexed": true,
          "internalType": "address",
          "name": "debtToken",
          "type": "address"
        },
        {
          "indexed": false,
          "internalType": "uint256",
          "name": "amount",
          "type": "uint256"
        },
        {
          "indexed": true,
          "internalType": "address",
          "name": "receiver",
          "type": "address"
        }
      ],
      "name": "LeftoverDebtTokensTransferred",
      "type": "event"
    },
    {
      "anonymous": false,
      "inputs": [
        {
          "indexed": false,
          "internalType": "address",
          "name": "account",
          "type": "address"
        }
      ],
      "name": "Paused",
      "type": "event"
    },
    {
      "anonymous": false,
      "inputs": [
        {
          "indexed": true,
          "internalType": "bytes32",
          "name": "role",
          "type": "bytes32"
        },
        {
          "indexed": true,
          "internalType": "bytes32",
          "name": "previousAdminRole",
          "type": "bytes32"
        },
        {
          "indexed": true,
          "internalType": "bytes32",
          "name": "newAdminRole",
          "type": "bytes32"
        }
      ],
      "name": "RoleAdminChanged",
      "type": "event"
    },
    {
      "anonymous": false,
      "inputs": [
        {
          "indexed": true,
          "internalType": "bytes32",
          "name": "role",
          "type": "bytes32"
        },
        {
          "indexed": true,
          "internalType": "address",
          "name": "account",
          "type": "address"
        },
        {
          "indexed": true,
          "internalType": "address",
          "name": "sender",
          "type": "address"
        }
      ],
      "name": "RoleGranted",
      "type": "event"
    },
    {
      "anonymous": false,
      "inputs": [
        {
          "indexed": true,
          "internalType": "bytes32",
          "name": "role",
          "type": "bytes32"
        },
        {
          "indexed": true,
          "internalType": "address",
          "name": "account",
          "type": "address"
        },
        {
          "indexed": true,
          "internalType": "address",
          "name": "sender",
          "type": "address"
        }
      ],
      "name": "RoleRevoked",
      "type": "event"
    },
    {
      "anonymous": false,
      "inputs": [
        {
          "indexed": false,
          "internalType": "address",
          "name": "account",
          "type": "address"
        }
      ],
      "name": "Unpaused",
      "type": "event"
    },
    {
      "inputs": [],
      "name": "DEFAULT_ADMIN_ROLE",
      "outputs": [
        {
          "internalType": "bytes32",
          "name": "",
          "type": "bytes32"
        }
      ],
      "stateMutability": "view",
      "type": "function"
    },
    {
      "inputs": [],
      "name": "DLOOP_ADMIN_ROLE",
      "outputs": [
        {
          "internalType": "bytes32",
          "name": "",
          "type": "bytes32"
        }
      ],
      "stateMutability": "view",
      "type": "function"
    },
    {
      "inputs": [],
      "name": "FLASHLOAN_CALLBACK",
      "outputs": [
        {
          "internalType": "bytes32",
          "name": "",
          "type": "bytes32"
        }
      ],
      "stateMutability": "view",
      "type": "function"
    },
    {
      "inputs": [],
      "name": "PAUSER_ROLE",
      "outputs": [
        {
          "internalType": "bytes32",
          "name": "",
          "type": "bytes32"
        }
      ],
      "stateMutability": "view",
      "type": "function"
    },
    {
      "inputs": [],
      "name": "RESCUER_ADMIN_ROLE",
      "outputs": [
        {
          "internalType": "bytes32",
          "name": "",
          "type": "bytes32"
        }
      ],
      "stateMutability": "view",
      "type": "function"
    },
    {
      "inputs": [],
      "name": "RESCUER_ROLE",
      "outputs": [
        {
          "internalType": "bytes32",
          "name": "",
          "type": "bytes32"
        }
      ],
      "stateMutability": "view",
      "type": "function"
    },
    {
      "inputs": [
        {
          "internalType": "uint256",
          "name": "depositAmount",
          "type": "uint256"
        },
        {
          "internalType": "uint256",
          "name": "slippageBps",
          "type": "uint256"
        },
        {
          "internalType": "contract DLoopCoreBase",
          "name": "dLoopCore",
          "type": "address"
        }
      ],
      "name": "calculateMinOutputShares",
      "outputs": [
        {
          "internalType": "uint256",
          "name": "",
          "type": "uint256"
        }
      ],
      "stateMutability": "view",
      "type": "function"
    },
    {
      "inputs": [
        {
          "internalType": "uint256",
          "name": "assets",
          "type": "uint256"
        },
        {
          "internalType": "address",
          "name": "receiver",
          "type": "address"
        },
        {
          "internalType": "uint256",
          "name": "minOutputShares",
          "type": "uint256"
        },
        {
          "internalType": "bytes",
          "name": "debtTokenToCollateralSwapData",
          "type": "bytes"
        },
        {
          "internalType": "contract DLoopCoreBase",
          "name": "dLoopCore",
          "type": "address"
        }
      ],
      "name": "deposit",
      "outputs": [
        {
          "internalType": "uint256",
          "name": "shares",
          "type": "uint256"
        }
      ],
      "stateMutability": "nonpayable",
      "type": "function"
    },
    {
      "inputs": [
        {
          "internalType": "uint256",
          "name": "assets",
          "type": "uint256"
        },
        {
          "internalType": "uint256",
          "name": "minOutputShares",
          "type": "uint256"
        },
        {
          "internalType": "contract DLoopCoreBase",
          "name": "dLoopCore",
          "type": "address"
        }
      ],
      "name": "estimateFlashLoanSwapOutputCollateralAmount",
      "outputs": [
        {
          "internalType": "uint256",
          "name": "",
          "type": "uint256"
        }
      ],
      "stateMutability": "view",
      "type": "function"
    },
    {
      "inputs": [],
      "name": "flashLender",
      "outputs": [
        {
          "internalType": "contract IERC3156FlashLender",
          "name": "",
          "type": "address"
        }
      ],
      "stateMutability": "view",
      "type": "function"
    },
    {
      "inputs": [
        {
          "internalType": "bytes32",
          "name": "role",
          "type": "bytes32"
        }
      ],
      "name": "getRoleAdmin",
      "outputs": [
        {
          "internalType": "bytes32",
          "name": "",
          "type": "bytes32"
        }
      ],
      "stateMutability": "view",
      "type": "function"
    },
    {
      "inputs": [
        {
          "internalType": "bytes32",
          "name": "role",
          "type": "bytes32"
        },
        {
          "internalType": "address",
          "name": "account",
          "type": "address"
        }
      ],
      "name": "grantRole",
      "outputs": [],
      "stateMutability": "nonpayable",
      "type": "function"
    },
    {
      "inputs": [
        {
          "internalType": "bytes32",
          "name": "role",
          "type": "bytes32"
        },
        {
          "internalType": "address",
          "name": "account",
          "type": "address"
        }
      ],
      "name": "hasRole",
      "outputs": [
        {
          "internalType": "bool",
          "name": "",
          "type": "bool"
        }
      ],
      "stateMutability": "view",
      "type": "function"
    },
    {
      "inputs": [
        {
          "internalType": "address",
          "name": "",
          "type": "address"
        }
      ],
      "name": "isRescuableToken",
      "outputs": [
        {
          "internalType": "bool",
          "name": "",
          "type": "bool"
        }
      ],
      "stateMutability": "view",
      "type": "function"
    },
    {
      "inputs": [],
      "name": "odosRouter",
      "outputs": [
        {
          "internalType": "contract IOdosRouterV2",
          "name": "",
          "type": "address"
        }
      ],
      "stateMutability": "view",
      "type": "function"
    },
    {
      "inputs": [
        {
          "internalType": "address",
          "name": "initiator",
          "type": "address"
        },
        {
          "internalType": "address",
          "name": "token",
          "type": "address"
        },
        {
          "internalType": "uint256",
          "name": "",
          "type": "uint256"
        },
        {
          "internalType": "uint256",
          "name": "flashLoanFee",
          "type": "uint256"
        },
        {
          "internalType": "bytes",
          "name": "data",
          "type": "bytes"
        }
      ],
      "name": "onFlashLoan",
      "outputs": [
        {
          "internalType": "bytes32",
          "name": "",
          "type": "bytes32"
        }
      ],
      "stateMutability": "nonpayable",
      "type": "function"
    },
    {
      "inputs": [],
      "name": "pause",
      "outputs": [],
      "stateMutability": "nonpayable",
      "type": "function"
    },
    {
      "inputs": [],
      "name": "paused",
      "outputs": [
        {
          "internalType": "bool",
          "name": "",
          "type": "bool"
        }
      ],
      "stateMutability": "view",
      "type": "function"
    },
    {
      "inputs": [
        {
          "internalType": "bytes32",
          "name": "role",
          "type": "bytes32"
        },
        {
          "internalType": "address",
          "name": "callerConfirmation",
          "type": "address"
        }
      ],
      "name": "renounceRole",
      "outputs": [],
      "stateMutability": "nonpayable",
      "type": "function"
    },
    {
      "inputs": [
        {
          "internalType": "address",
          "name": "receiver",
          "type": "address"
        },
        {
          "internalType": "uint256",
          "name": "amount",
          "type": "uint256"
        }
      ],
      "name": "rescueNative",
      "outputs": [],
      "stateMutability": "nonpayable",
      "type": "function"
    },
    {
      "inputs": [
        {
          "internalType": "address",
          "name": "token",
          "type": "address"
        },
        {
          "internalType": "address",
          "name": "receiver",
          "type": "address"
        },
        {
          "internalType": "uint256",
          "name": "amount",
          "type": "uint256"
        }
      ],
      "name": "rescueToken",
      "outputs": [],
      "stateMutability": "nonpayable",
      "type": "function"
    },
    {
      "inputs": [
        {
          "internalType": "bytes32",
          "name": "role",
          "type": "bytes32"
        },
        {
          "internalType": "address",
          "name": "account",
          "type": "address"
        }
      ],
      "name": "revokeRole",
      "outputs": [],
      "stateMutability": "nonpayable",
      "type": "function"
    },
    {
      "inputs": [
        {
          "internalType": "bytes4",
          "name": "interfaceId",
          "type": "bytes4"
        }
      ],
      "name": "supportsInterface",
      "outputs": [
        {
          "internalType": "bool",
          "name": "",
          "type": "bool"
        }
      ],
      "stateMutability": "view",
      "type": "function"
    },
    {
      "inputs": [],
      "name": "unpause",
      "outputs": [],
      "stateMutability": "nonpayable",
      "type": "function"
    }
  ],
  "transactionHash": "0x87570b5e94eedbd5f20c5c27e37aef3072aadf9ffa430823d41b8f30677952e2",
  "args": [
    "0x788D96f655735f52c676A133f4dFC53cEC614d4A",
    "0x56c85a254DD12eE8D9C04049a4ab62769Ce98210"
  ],
  "numDeployments": 1,
  "solcInputHash": "f1dd8911159751c31606071e28c17176",
  "bytecode": "0x60c034620001bd576200279d90601f38839003908101601f19168201906001600160401b03821183831017620001c25780839160409586948552833981010312620001bd5780516001600160a01b03918282168203620001bd57602001519182168203620001bd5760019081805560ff19600254166002556080526000805160206200275d83398151915290600090828252816020528085832001928084549455807fbd79b86ffe0ab8e8776151514217cd7cacd52c909f66475c3af44e129f0b00ff9481868680a46000805160206200277d8339815191528084528287852001908282549255858580a4620000f533620001d8565b50620001013362000269565b506000805160206200273d8339815191529283835282602052838287852001818154915581838680a46000805160206200271d833981519152918284528684200192848454945580a46200015533620002f5565b50620001613362000381565b5060a052516122ef90816200040e82396080518181816102f7015281816106d901528181610772015281816107c3015281816107f90152818161086d01528181610b640152610f8f015260a051818181610d58015261122f0152f35b600080fd5b634e487b7160e01b600052604160045260246000fd5b6001600160a01b031660008181527f9f9e11c3ce0ebbce9a6c4b18e4e8934770504a6e246eaa53358b1243e9871b1b60205260408120549091906000805160206200275d8339815191529060ff166200026457808352826020526040832082845260205260408320600160ff19825416179055600080516020620026fd833981519152339380a4600190565b505090565b6001600160a01b031660008181527ff7c9542c591017a21c74b6f3fab6263c7952fc0aaf9db4c22a2a04ddc7f8674f60205260408120549091906000805160206200277d8339815191529060ff166200026457808352826020526040832082845260205260408320600160ff19825416179055600080516020620026fd833981519152339380a4600190565b6001600160a01b031660008181527f486d1f80445358c0ebf0389403e8d16010b75d17de21bc93f6de9aed8909dbd260205260408120549091906000805160206200273d8339815191529060ff166200026457808352826020526040832082845260205260408320600160ff19825416179055600080516020620026fd833981519152339380a4600190565b6001600160a01b031660008181527f35be12757faf39521ceabc5bcd76ad643125bff13e41131da81a236ed69872a860205260408120549091906000805160206200271d8339815191529060ff166200026457808352826020526040832082845260205260408320600160ff19825416179055600080516020620026fd833981519152339380a460019056fe608080604052600436101561001357600080fd5b60003560e01c90816301ffc9a7146117e6575080631291f79d1461176057806323e30c8b14610f3f578063248a9ca314610f105780632ae1810414610ed55780632f2ff15d14610e9657806336568abe14610e4f5780633f4ba83a14610de55780635c975abb14610dc25780637137254414610d875780638321928d14610d425780638456cb5914610ce857806387438b6a146104585780638b7a6dba1461038f57806391d1485414610342578063a217fddf14610326578063a7714458146102e1578063cabe9fd9146102a6578063cc66363614610254578063d547741f14610213578063dde51e17146101ee578063e5711e8b146101a2578063e63ab1e9146101675763e78a4fe01461012757600080fd5b346101625760003660031901126101625760206040517f8879d5d645eb76dcb2fbe49d1d300cf073cc071082c27a267e488d83d176b4038152f35b600080fd5b346101625760003660031901126101625760206040517f65d7a28e3265b37a6474929f336521b332c1681b933f6cb9f3376673440d862a8152f35b34610162576060366003190112610162576101e86101be611839565b6101c661184f565b6101ce6118bd565b6101d6611f90565b604435916001600160a01b0316611fb3565b60018055005b3461016257602036600319011261016257610207611839565b50602060405160008152f35b346101625760403660031901126101625761025260043561023261184f565b9080600052600060205261024d600160406000200154611993565b611a37565b005b346101625761026e61026536611893565b90829392612169565b8181106102895760209161028191611b45565b604051908152f35b604491604051916346652e4760e11b835260048301526024820152fd5b346101625760003660031901126101625760206040517f6e3aaeed2986e1faf3948bf7432f5c2ebcf5848384724380cff0b38c1bf05ded8152f35b34610162576000366003190112610162576040517f00000000000000000000000000000000000000000000000000000000000000006001600160a01b03168152602090f35b3461016257600036600319011261016257602060405160008152f35b346101625760403660031901126101625761035b61184f565b600435600052600060205260406000209060018060a01b0316600052602052602060ff604060002054166040519015158152f35b346101625761039d36611893565b9091620f4240831161043f576103b582602092611ff1565b6040516363737ac960e11b8152600481019190915291829060249082906001600160a01b03165afa90811561043357600091610401575b6020610281836103fb86611b1e565b90611b52565b90506020813d821161042b575b8161041b60209383611afc565b81010312610162575160206103ec565b3d915061040e565b6040513d6000823e3d90fd5b60405163103b7d4960e11b815260048101849052602490fd5b346101625760a03660031901126101625761047161184f565b60643567ffffffffffffffff811161016257610491903690600401611865565b906084356001600160a01b0381169003610162576104ad611f90565b6104b5611aac565b604051632c805af560e21b81526020816004816084356001600160a01b03165afa90811561043357600091610cc9575b50604051631f1b131360e31b8152926020846004816084356001600160a01b03165afa93841561043357600094610c98575b50610520611c8b565b90610529611c8b565b6001600160a01b0384168084526040516370a0823160e01b815230600482015291929190602090829060249082905afa90811561043357600091610c66575b506020848101919091526001600160a01b0387168084526040516370a0823160e01b8152306004820152929190839060249082905afa801561043357600090610c32575b6106ad925060208401526105f96040516323b872dd60e01b60208201523360248201523060448201526004356064820152606481526105ea81611aca565b6001600160a01b038716611e9d565b61068e61060d608435604435600435612169565b966106436040519161061e83611aca565b6001600160a01b038c16835260043560208401908152604084019a8b52943691611cd7565b9081606082015260018060a01b0360843516608082015260018060a01b039051169251975160405198899460208601526040850152606084015260a0608084015260c0830190611d56565b6001600160a01b036084351660a083015203601f198101865285611afc565b60405163613255ab60e01b81526001600160a01b038681166004830152909490602090869060249082907f0000000000000000000000000000000000000000000000000000000000000000165afa94851561043357600095610bfe575b506040516370a0823160e01b8152306004820152946020866024816084356001600160a01b03165afa95861561043357600096610bca575b50604051633676633960e21b81526001600160a01b038816600482015260248101829052602081806044810103817f00000000000000000000000000000000000000000000000000000000000000006001600160a01b03165afa90811561043357600091610b96575b506107b96107ec9183611d0e565b6001600160a01b037f00000000000000000000000000000000000000000000000000000000000000008116908a16611d7b565b6001600160a01b038781167f000000000000000000000000000000000000000000000000000000000000000090911603610b4d57604051632e7ff4ef60e11b81523060048201526001600160a01b03881660248201526044810191909152608060648201529060209082908190610867906084830190611d56565b038160007f00000000000000000000000000000000000000000000000000000000000000006001600160a01b03165af1801561043357610b1e575b506040516370a0823160e01b8152306004820152926020846024816084356001600160a01b03165afa93841561043357600094610aea575b5084841115610acc576040516370a0823160e01b815230600482015290602090829060249082906001600160a01b03165afa90811561043357600091610a99575b50604083810191909152516370a0823160e01b815230600482015294602090869060249082906001600160a01b03165afa801561043357600090610a65575b6109919550604082015261096e868261224e565b919091610a22575b5050610982858261224e565b9190916109df575b5050611b45565b60443581106109c0576020916109b49082906084356001600160a01b0316611fb3565b60018055604051908152f35b604490604051906330cfb95f60e11b8252600482015281356024820152fd5b516040519182526001600160a01b03868116929116907f21fa991d1ca60543187d2a0de62e5ea0ce1a703a3f0021354ae2f9a75dc0e34d90602090a3848061098a565b516040519182526001600160a01b03878116929116907f858a27e141780954fe5d38ba55127b6c35f8f5904c3a088438a18578d5d71eee90602090a38580610976565b506020853d602011610a91575b81610a7f60209383611afc565b8101031261016257610991945161095a565b3d9150610a72565b90506020813d602011610ac4575b81610ab460209383611afc565b810103126101625751602461091b565b3d9150610aa7565b604485856040519163f51cd51560e01b835260048301526024820152fd5b9093506020813d602011610b16575b81610b0660209383611afc565b81010312610162575192876108da565b3d9150610af9565b610b3f9060203d602011610b46575b610b378183611afc565b810190611d1b565b50866108a2565b503d610b2d565b60405163aaae67a160e01b81526001600160a01b037f00000000000000000000000000000000000000000000000000000000000000008116600483015288166024820152604490fd5b90506020813d602011610bc2575b81610bb160209383611afc565b8101031261016257516107b96107ab565b3d9150610ba4565b9095506020813d602011610bf6575b81610be660209383611afc565b8101031261016257519488610742565b3d9150610bd9565b9094506020813d602011610c2a575b81610c1a60209383611afc565b810103126101625751938761070a565b3d9150610c0d565b506020823d602011610c5e575b81610c4c60209383611afc565b81010312610162576106ad91516105ac565b3d9150610c3f565b90506020813d602011610c90575b81610c8160209383611afc565b81010312610162575188610568565b3d9150610c74565b610cbb91945060203d602011610cc2575b610cb38183611afc565b810190611c6c565b9285610517565b503d610ca9565b610ce2915060203d602011610cc257610cb38183611afc565b846104e5565b3461016257600036600319011261016257610d01611937565b610d09611aac565b600160ff1960025416176002557f62e78cea01bee320cd4e420270b5ea74000d11b0c9f74754ebdbfc544b05a2586020604051338152a1005b34610162576000366003190112610162576040517f00000000000000000000000000000000000000000000000000000000000000006001600160a01b03168152602090f35b346101625760003660031901126101625760206040517fcf6f9f892731e14b8859835f2ff35575f447fb501f46243c4eb8bac19e31a0508152f35b3461016257600036600319011261016257602060ff600254166040519015158152f35b3461016257600036600319011261016257610dfe611937565b60025460ff811615610e3d5760ff19166002557f5db9ee0a495bf2e6ff9c91a7834c1ba4fdd244a5e8aa4e537bd38aeae4b073aa6020604051338152a1005b604051638dfc202b60e01b8152600490fd5b3461016257604036600319011261016257610e6861184f565b336001600160a01b03821603610e845761025290600435611a37565b60405163334bd91960e11b8152600490fd5b3461016257604036600319011261016257610252600435610eb561184f565b90806000526000602052610ed0600160406000200154611993565b6119b9565b346101625760003660031901126101625760206040517f439148f0bbc682ca079e46d6e2c2f0c1e3b820f1a291b069d8882abf8cf18dd98152f35b346101625760203660031901126101625760043560005260006020526020600160406000200154604051908152f35b346101625760a036600319011261016257610f58611839565b610f6061184f565b9067ffffffffffffffff9060843582811161016257610f83903690600401611865565b9091610f8d611aac565b7f00000000000000000000000000000000000000000000000000000000000000006001600160a01b0316338190036117375750306001600160a01b0382160361170e575090610fdd913691611cd7565b9160405192610feb84611aca565b60008452600060208501526000604085015260608085015260006080850152805181019260a08260208601950312610162576020820151916001600160a01b03831683036101625760408101519160608201519160808101519182116101625786603f83830101121561016257602082820101519161106983611cbb565b97611077604051998a611afc565b8389526040848385010101116101625760a09261109d91604060208b0191850101611d33565b01516001600160a01b03811695908690036101625785608088015260608701526040860152602085015260018060a01b0316835260405190632c805af560e21b8252602082600481865afa918215610433576000926116eb575b5060206004929360405193848092631f1b131360e31b82525afa918215610433576000926116ca575b506001600160a01b03828116908216036116a157506040830151602084015180821061168357505061115b6040840151602085015190611b45565b60608401516040516370a0823160e01b8152306004820152909491906020816024816001600160a01b0388165afa90811561043357600091611651575b506040516370a0823160e01b8152306004820152906020826024816001600160a01b038a165afa9182156104335760009261161a575b506040516304ecaec960e31b81526001600160a01b038681166004830152871660248201526044810184905260001960648201523060848201524260a482015261010060c4820152966020908890819061122d90610104830190611d56565b7f00000000000000000000000000000000000000000000000000000000000000006001600160a01b031660e4830152038173B029d67E4eB9D71d2e7140425E7227c5074dd2bA5af4968715610433576000976115e6575b506040516370a0823160e01b8152306004820152906020826024816001600160a01b038a165afa918215610433576000926115b2575b506040516370a0823160e01b8152306004820152916020836024816001600160a01b038c165afa9283156104335760009361157e575b5081811061154a575b50508181111561152d579061130d91611b45565b9080820361150f5750506040516370a0823160e01b8152306004820152926020846024816001600160a01b0387165afa938415610433576000946114da575b5060808201516040830151600093602093909261137692916001600160a01b039182169116611d7b565b6044604060018060a01b036080840151169201516040519485938492636e553f6560e01b845260048401523060248401525af18015610433576114af575b506040516370a0823160e01b815230600482015290602090829060249082906001600160a01b03165afa9081156104335760009161147d575b508181111561145f579061140091611b45565b60643561140d8184611d0e565b821061143d5760206040517f439148f0bbc682ca079e46d6e2c2f0c1e3b820f1a291b069d8882abf8cf18dd98152f35b60649260405192630901cbd360e21b8452600484015260248301526044820152fd5b6044925060405191633780efc760e21b835260048301526024820152fd5b90506020813d6020116114a7575b8161149860209383611afc565b810103126101625751836113ed565b3d915061148b565b602090813d83116114d3575b6114c58183611afc565b8101031261016257836113b4565b503d6114bb565b9093506020813d602011611507575b816114f660209383611afc565b81010312610162575192600061134c565b3d91506114e9565b6044925060405191638919e25360e01b835260048301526024820152fd5b60449250604051916204bb6760e81b835260048301526024820152fd5b61155391611b45565b87810361156057806112f9565b6044908860405191637654e04760e11b835260048301526024820152fd5b9092506020813d6020116115aa575b8161159a60209383611afc565b81010312610162575191896112f0565b3d915061158d565b9091506020813d6020116115de575b816115ce60209383611afc565b81010312610162575190886112ba565b3d91506115c1565b9096506020813d602011611612575b8161160260209383611afc565b8101031261016257519587611284565b3d91506115f5565b9691506020873d602011611649575b8161163660209383611afc565b81010312610162579551909560206111ce565b3d9150611629565b90506020813d60201161167b575b8161166c60209383611afc565b81010312610162575186611198565b3d915061165f565b6044925060405191635195adaf60e11b835260048301526024820152fd5b60405163c7f1118d60e01b81526001600160a01b03918216600482015291166024820152604490fd5b6116e491925060203d602011610cc257610cb38183611afc565b9084611120565b60049250611707602091823d8411610cc257610cb38183611afc565b92506110f7565b604051636705ec4760e11b81526001600160a01b03919091166004820152306024820152604490fd5b604051631a01026f60e01b81523360048201526001600160a01b03919091166024820152604490fd5b3461016257604036600319011261016257611779611839565b602435906117856118bd565b61178d611f90565b8147106117ce576000918291829182916001600160a01b03165af16117b0611f0f565b50156117bc5760018055005b604051630a12f52160e11b8152600490fd5b60405163cd78605960e01b8152306004820152602490fd5b34610162576020366003190112610162576004359063ffffffff60e01b821680920361016257602091637965db0b60e01b8114908115611828575b5015158152f35b6301ffc9a760e01b14905083611821565b600435906001600160a01b038216820361016257565b602435906001600160a01b038216820361016257565b9181601f840112156101625782359167ffffffffffffffff8311610162576020838186019501011161016257565b60609060031901126101625760043590602435906044356001600160a01b03811681036101625790565b3360009081527f35be12757faf39521ceabc5bcd76ad643125bff13e41131da81a236ed69872a860205260409020547fcf6f9f892731e14b8859835f2ff35575f447fb501f46243c4eb8bac19e31a0509060ff16156119195750565b6044906040519063e2517d3f60e01b82523360048301526024820152fd5b3360009081527ff7c9542c591017a21c74b6f3fab6263c7952fc0aaf9db4c22a2a04ddc7f8674f60205260409020547f65d7a28e3265b37a6474929f336521b332c1681b933f6cb9f3376673440d862a9060ff16156119195750565b80600052600060205260406000203360005260205260ff60406000205416156119195750565b9060009180835282602052604083209160018060a01b03169182845260205260ff60408420541615600014611a3257808352826020526040832082845260205260408320600160ff198254161790557f2f8788117e7eff1d82e926ec794901d17c78024a50270940304540a733656f0d339380a4600190565b505090565b9060009180835282602052604083209160018060a01b03169182845260205260ff604084205416600014611a325780835282602052604083208284526020526040832060ff1981541690557ff6391f5c32d9c69d2a47ea670b442974b53935d1edc7fd64eb21e047a839171b339380a4600190565b60ff60025416611ab857565b60405163d93c066560e01b8152600490fd5b60a0810190811067ffffffffffffffff821117611ae657604052565b634e487b7160e01b600052604160045260246000fd5b90601f8019910116810190811067ffffffffffffffff821117611ae657604052565b90620f4240918203918211611b2f57565b634e487b7160e01b600052601160045260246000fd5b91908203918211611b2f57565b908082029060001981840990828083109203918083039214611bc357620f42409082821115611bb1577fde8f6cefed634549b62c77574f722e1ac57e23f24d8fd5cb790fb65668c26139940990828211900360fa1b910360061c170290565b60405163227bc15360e01b8152600490fd5b5050620f424091500490565b620f4240918183029160001984820993838086109503948086039514611c485784831115611bb15782910981600003821680920460028082600302188083028203028083028203028083028203028083028203028083028203028092029003029360018380600003040190848311900302920304170290565b505080925015611c56570490565b634e487b7160e01b600052601260045260246000fd5b9081602091031261016257516001600160a01b03811681036101625790565b604051906060820182811067ffffffffffffffff821117611ae65760405260006040838281528260208201520152565b67ffffffffffffffff8111611ae657601f01601f191660200190565b929192611ce382611cbb565b91611cf16040519384611afc565b829481845281830111610162578281602093846000960137010152565b91908201809211611b2f57565b90816020910312610162575180151581036101625790565b60005b838110611d465750506000910152565b8181015183820152602001611d36565b90602091611d6f81518092818552858086019101611d33565b601f01601f1916010190565b60405163095ea7b360e01b602082018181526001600160a01b038516602484015260448084019690965294825294939092611db7606485611afc565b83516000926001600160a01b039291858416918591829182855af190611ddb611f0f565b82611e6b575b5081611e60575b5015611df8575b50505050509050565b60405196602088015216602486015280604486015260448552608085019085821067ffffffffffffffff831117611e4c5750611e419394611e3c9160405282611e9d565b611e9d565b803880808080611def565b634e487b7160e01b81526041600452602490fd5b90503b151538611de8565b80519192508115918215611e83575b50509038611de1565b611e969250602080918301019101611d1b565b3880611e7a565b600080611ec69260018060a01b03169360208151910182865af1611ebf611f0f565b9083611f3f565b8051908115159182611ef4575b5050611edc5750565b60249060405190635274afe760e01b82526004820152fd5b611f079250602080918301019101611d1b565b153880611ed3565b3d15611f3a573d90611f2082611cbb565b91611f2e6040519384611afc565b82523d6000602084013e565b606090565b90611f5457508051156117bc57805190602001fd5b81511580611f87575b611f65575090565b604051639996b31560e01b81526001600160a01b039091166004820152602490fd5b50803b15611f5d565b600260015414611fa1576002600155565b604051633ee5aeb560e01b8152600490fd5b60405163a9059cbb60e01b60208201526001600160a01b03929092166024830152604480830193909352918152611fef91611e3c606483611afc565b565b6040805163415c506960e01b8082529194936001600160a01b0316916020918281600481875afa90811561215e57600091612131575b506000901561209c57508190600487518095819382525afa948515612092575060009461205f575b50509161205c9192611b52565b90565b81813d831161208b575b6120738183611afc565b810103126120875751925061205c3861204f565b8380fd5b503d612069565b513d6000823e3d90fd5b9282915091600492879596975193848092637aa7c3c160e01b82525afa938415612128575082936120dc575b5050509063ffffffff61205c921690611b52565b9080929350813d8311612121575b6120f48183611afc565b8101031261211d57519063ffffffff8216820361211a575063ffffffff61205c386120c8565b80fd5b5080fd5b503d6120ea565b513d84823e3d90fd5b908382813d8311612157575b6121478183611afc565b8101031261211a57505138612027565b503d61213d565b87513d6000823e3d90fd5b90602061217b84602494969596611ff1565b6040516363737ac960e11b81526004810182905290959093849182906001600160a01b03165afa9182156104335760009261221b575b508082106121fd57906121c76121cc9282611b45565b611bcf565b91620f424083116121e4576103fb61205c9293611b1e565b60405163cc1d13b160e01b815260048101849052602490fd5b60449250604051916303a4989b60e21b835260048301526024820152fd5b90916020823d8211612246575b8161223560209383611afc565b8101031261211a57505190386121b1565b3d9150612228565b919061226360408401516020850151906122a0565b9190938480612297575b61227e575050509050600090600090565b516122939183916001600160a01b0316611fb3565b9190565b5082151561226d565b91908281116122b0576001920390565b5060009150819056fea26469706673582212207c72c0b599d6f48a17989399a0b3fed50dbb20e5312da37b3eb0f466a496dfbd64736f6c634300081400332f8788117e7eff1d82e926ec794901d17c78024a50270940304540a733656f0dcf6f9f892731e14b8859835f2ff35575f447fb501f46243c4eb8bac19e31a0508879d5d645eb76dcb2fbe49d1d300cf073cc071082c27a267e488d83d176b4036e3aaeed2986e1faf3948bf7432f5c2ebcf5848384724380cff0b38c1bf05ded65d7a28e3265b37a6474929f336521b332c1681b933f6cb9f3376673440d862a",
  "deployedBytecode": "0x608080604052600436101561001357600080fd5b60003560e01c90816301ffc9a7146117e6575080631291f79d1461176057806323e30c8b14610f3f578063248a9ca314610f105780632ae1810414610ed55780632f2ff15d14610e9657806336568abe14610e4f5780633f4ba83a14610de55780635c975abb14610dc25780637137254414610d875780638321928d14610d425780638456cb5914610ce857806387438b6a146104585780638b7a6dba1461038f57806391d1485414610342578063a217fddf14610326578063a7714458146102e1578063cabe9fd9146102a6578063cc66363614610254578063d547741f14610213578063dde51e17146101ee578063e5711e8b146101a2578063e63ab1e9146101675763e78a4fe01461012757600080fd5b346101625760003660031901126101625760206040517f8879d5d645eb76dcb2fbe49d1d300cf073cc071082c27a267e488d83d176b4038152f35b600080fd5b346101625760003660031901126101625760206040517f65d7a28e3265b37a6474929f336521b332c1681b933f6cb9f3376673440d862a8152f35b34610162576060366003190112610162576101e86101be611839565b6101c661184f565b6101ce6118bd565b6101d6611f90565b604435916001600160a01b0316611fb3565b60018055005b3461016257602036600319011261016257610207611839565b50602060405160008152f35b346101625760403660031901126101625761025260043561023261184f565b9080600052600060205261024d600160406000200154611993565b611a37565b005b346101625761026e61026536611893565b90829392612169565b8181106102895760209161028191611b45565b604051908152f35b604491604051916346652e4760e11b835260048301526024820152fd5b346101625760003660031901126101625760206040517f6e3aaeed2986e1faf3948bf7432f5c2ebcf5848384724380cff0b38c1bf05ded8152f35b34610162576000366003190112610162576040517f00000000000000000000000000000000000000000000000000000000000000006001600160a01b03168152602090f35b3461016257600036600319011261016257602060405160008152f35b346101625760403660031901126101625761035b61184f565b600435600052600060205260406000209060018060a01b0316600052602052602060ff604060002054166040519015158152f35b346101625761039d36611893565b9091620f4240831161043f576103b582602092611ff1565b6040516363737ac960e11b8152600481019190915291829060249082906001600160a01b03165afa90811561043357600091610401575b6020610281836103fb86611b1e565b90611b52565b90506020813d821161042b575b8161041b60209383611afc565b81010312610162575160206103ec565b3d915061040e565b6040513d6000823e3d90fd5b60405163103b7d4960e11b815260048101849052602490fd5b346101625760a03660031901126101625761047161184f565b60643567ffffffffffffffff811161016257610491903690600401611865565b906084356001600160a01b0381169003610162576104ad611f90565b6104b5611aac565b604051632c805af560e21b81526020816004816084356001600160a01b03165afa90811561043357600091610cc9575b50604051631f1b131360e31b8152926020846004816084356001600160a01b03165afa93841561043357600094610c98575b50610520611c8b565b90610529611c8b565b6001600160a01b0384168084526040516370a0823160e01b815230600482015291929190602090829060249082905afa90811561043357600091610c66575b506020848101919091526001600160a01b0387168084526040516370a0823160e01b8152306004820152929190839060249082905afa801561043357600090610c32575b6106ad925060208401526105f96040516323b872dd60e01b60208201523360248201523060448201526004356064820152606481526105ea81611aca565b6001600160a01b038716611e9d565b61068e61060d608435604435600435612169565b966106436040519161061e83611aca565b6001600160a01b038c16835260043560208401908152604084019a8b52943691611cd7565b9081606082015260018060a01b0360843516608082015260018060a01b039051169251975160405198899460208601526040850152606084015260a0608084015260c0830190611d56565b6001600160a01b036084351660a083015203601f198101865285611afc565b60405163613255ab60e01b81526001600160a01b038681166004830152909490602090869060249082907f0000000000000000000000000000000000000000000000000000000000000000165afa94851561043357600095610bfe575b506040516370a0823160e01b8152306004820152946020866024816084356001600160a01b03165afa95861561043357600096610bca575b50604051633676633960e21b81526001600160a01b038816600482015260248101829052602081806044810103817f00000000000000000000000000000000000000000000000000000000000000006001600160a01b03165afa90811561043357600091610b96575b506107b96107ec9183611d0e565b6001600160a01b037f00000000000000000000000000000000000000000000000000000000000000008116908a16611d7b565b6001600160a01b038781167f000000000000000000000000000000000000000000000000000000000000000090911603610b4d57604051632e7ff4ef60e11b81523060048201526001600160a01b03881660248201526044810191909152608060648201529060209082908190610867906084830190611d56565b038160007f00000000000000000000000000000000000000000000000000000000000000006001600160a01b03165af1801561043357610b1e575b506040516370a0823160e01b8152306004820152926020846024816084356001600160a01b03165afa93841561043357600094610aea575b5084841115610acc576040516370a0823160e01b815230600482015290602090829060249082906001600160a01b03165afa90811561043357600091610a99575b50604083810191909152516370a0823160e01b815230600482015294602090869060249082906001600160a01b03165afa801561043357600090610a65575b6109919550604082015261096e868261224e565b919091610a22575b5050610982858261224e565b9190916109df575b5050611b45565b60443581106109c0576020916109b49082906084356001600160a01b0316611fb3565b60018055604051908152f35b604490604051906330cfb95f60e11b8252600482015281356024820152fd5b516040519182526001600160a01b03868116929116907f21fa991d1ca60543187d2a0de62e5ea0ce1a703a3f0021354ae2f9a75dc0e34d90602090a3848061098a565b516040519182526001600160a01b03878116929116907f858a27e141780954fe5d38ba55127b6c35f8f5904c3a088438a18578d5d71eee90602090a38580610976565b506020853d602011610a91575b81610a7f60209383611afc565b8101031261016257610991945161095a565b3d9150610a72565b90506020813d602011610ac4575b81610ab460209383611afc565b810103126101625751602461091b565b3d9150610aa7565b604485856040519163f51cd51560e01b835260048301526024820152fd5b9093506020813d602011610b16575b81610b0660209383611afc565b81010312610162575192876108da565b3d9150610af9565b610b3f9060203d602011610b46575b610b378183611afc565b810190611d1b565b50866108a2565b503d610b2d565b60405163aaae67a160e01b81526001600160a01b037f00000000000000000000000000000000000000000000000000000000000000008116600483015288166024820152604490fd5b90506020813d602011610bc2575b81610bb160209383611afc565b8101031261016257516107b96107ab565b3d9150610ba4565b9095506020813d602011610bf6575b81610be660209383611afc565b8101031261016257519488610742565b3d9150610bd9565b9094506020813d602011610c2a575b81610c1a60209383611afc565b810103126101625751938761070a565b3d9150610c0d565b506020823d602011610c5e575b81610c4c60209383611afc565b81010312610162576106ad91516105ac565b3d9150610c3f565b90506020813d602011610c90575b81610c8160209383611afc565b81010312610162575188610568565b3d9150610c74565b610cbb91945060203d602011610cc2575b610cb38183611afc565b810190611c6c565b9285610517565b503d610ca9565b610ce2915060203d602011610cc257610cb38183611afc565b846104e5565b3461016257600036600319011261016257610d01611937565b610d09611aac565b600160ff1960025416176002557f62e78cea01bee320cd4e420270b5ea74000d11b0c9f74754ebdbfc544b05a2586020604051338152a1005b34610162576000366003190112610162576040517f00000000000000000000000000000000000000000000000000000000000000006001600160a01b03168152602090f35b346101625760003660031901126101625760206040517fcf6f9f892731e14b8859835f2ff35575f447fb501f46243c4eb8bac19e31a0508152f35b3461016257600036600319011261016257602060ff600254166040519015158152f35b3461016257600036600319011261016257610dfe611937565b60025460ff811615610e3d5760ff19166002557f5db9ee0a495bf2e6ff9c91a7834c1ba4fdd244a5e8aa4e537bd38aeae4b073aa6020604051338152a1005b604051638dfc202b60e01b8152600490fd5b3461016257604036600319011261016257610e6861184f565b336001600160a01b03821603610e845761025290600435611a37565b60405163334bd91960e11b8152600490fd5b3461016257604036600319011261016257610252600435610eb561184f565b90806000526000602052610ed0600160406000200154611993565b6119b9565b346101625760003660031901126101625760206040517f439148f0bbc682ca079e46d6e2c2f0c1e3b820f1a291b069d8882abf8cf18dd98152f35b346101625760203660031901126101625760043560005260006020526020600160406000200154604051908152f35b346101625760a036600319011261016257610f58611839565b610f6061184f565b9067ffffffffffffffff9060843582811161016257610f83903690600401611865565b9091610f8d611aac565b7f00000000000000000000000000000000000000000000000000000000000000006001600160a01b0316338190036117375750306001600160a01b0382160361170e575090610fdd913691611cd7565b9160405192610feb84611aca565b60008452600060208501526000604085015260608085015260006080850152805181019260a08260208601950312610162576020820151916001600160a01b03831683036101625760408101519160608201519160808101519182116101625786603f83830101121561016257602082820101519161106983611cbb565b97611077604051998a611afc565b8389526040848385010101116101625760a09261109d91604060208b0191850101611d33565b01516001600160a01b03811695908690036101625785608088015260608701526040860152602085015260018060a01b0316835260405190632c805af560e21b8252602082600481865afa918215610433576000926116eb575b5060206004929360405193848092631f1b131360e31b82525afa918215610433576000926116ca575b506001600160a01b03828116908216036116a157506040830151602084015180821061168357505061115b6040840151602085015190611b45565b60608401516040516370a0823160e01b8152306004820152909491906020816024816001600160a01b0388165afa90811561043357600091611651575b506040516370a0823160e01b8152306004820152906020826024816001600160a01b038a165afa9182156104335760009261161a575b506040516304ecaec960e31b81526001600160a01b038681166004830152871660248201526044810184905260001960648201523060848201524260a482015261010060c4820152966020908890819061122d90610104830190611d56565b7f00000000000000000000000000000000000000000000000000000000000000006001600160a01b031660e4830152038173__$168f0ae8be226e2ddf0d5d42968ffba1f9$__5af4968715610433576000976115e6575b506040516370a0823160e01b8152306004820152906020826024816001600160a01b038a165afa918215610433576000926115b2575b506040516370a0823160e01b8152306004820152916020836024816001600160a01b038c165afa9283156104335760009361157e575b5081811061154a575b50508181111561152d579061130d91611b45565b9080820361150f5750506040516370a0823160e01b8152306004820152926020846024816001600160a01b0387165afa938415610433576000946114da575b5060808201516040830151600093602093909261137692916001600160a01b039182169116611d7b565b6044604060018060a01b036080840151169201516040519485938492636e553f6560e01b845260048401523060248401525af18015610433576114af575b506040516370a0823160e01b815230600482015290602090829060249082906001600160a01b03165afa9081156104335760009161147d575b508181111561145f579061140091611b45565b60643561140d8184611d0e565b821061143d5760206040517f439148f0bbc682ca079e46d6e2c2f0c1e3b820f1a291b069d8882abf8cf18dd98152f35b60649260405192630901cbd360e21b8452600484015260248301526044820152fd5b6044925060405191633780efc760e21b835260048301526024820152fd5b90506020813d6020116114a7575b8161149860209383611afc565b810103126101625751836113ed565b3d915061148b565b602090813d83116114d3575b6114c58183611afc565b8101031261016257836113b4565b503d6114bb565b9093506020813d602011611507575b816114f660209383611afc565b81010312610162575192600061134c565b3d91506114e9565b6044925060405191638919e25360e01b835260048301526024820152fd5b60449250604051916204bb6760e81b835260048301526024820152fd5b61155391611b45565b87810361156057806112f9565b6044908860405191637654e04760e11b835260048301526024820152fd5b9092506020813d6020116115aa575b8161159a60209383611afc565b81010312610162575191896112f0565b3d915061158d565b9091506020813d6020116115de575b816115ce60209383611afc565b81010312610162575190886112ba565b3d91506115c1565b9096506020813d602011611612575b8161160260209383611afc565b8101031261016257519587611284565b3d91506115f5565b9691506020873d602011611649575b8161163660209383611afc565b81010312610162579551909560206111ce565b3d9150611629565b90506020813d60201161167b575b8161166c60209383611afc565b81010312610162575186611198565b3d915061165f565b6044925060405191635195adaf60e11b835260048301526024820152fd5b60405163c7f1118d60e01b81526001600160a01b03918216600482015291166024820152604490fd5b6116e491925060203d602011610cc257610cb38183611afc565b9084611120565b60049250611707602091823d8411610cc257610cb38183611afc565b92506110f7565b604051636705ec4760e11b81526001600160a01b03919091166004820152306024820152604490fd5b604051631a01026f60e01b81523360048201526001600160a01b03919091166024820152604490fd5b3461016257604036600319011261016257611779611839565b602435906117856118bd565b61178d611f90565b8147106117ce576000918291829182916001600160a01b03165af16117b0611f0f565b50156117bc5760018055005b604051630a12f52160e11b8152600490fd5b60405163cd78605960e01b8152306004820152602490fd5b34610162576020366003190112610162576004359063ffffffff60e01b821680920361016257602091637965db0b60e01b8114908115611828575b5015158152f35b6301ffc9a760e01b14905083611821565b600435906001600160a01b038216820361016257565b602435906001600160a01b038216820361016257565b9181601f840112156101625782359167ffffffffffffffff8311610162576020838186019501011161016257565b60609060031901126101625760043590602435906044356001600160a01b03811681036101625790565b3360009081527f35be12757faf39521ceabc5bcd76ad643125bff13e41131da81a236ed69872a860205260409020547fcf6f9f892731e14b8859835f2ff35575f447fb501f46243c4eb8bac19e31a0509060ff16156119195750565b6044906040519063e2517d3f60e01b82523360048301526024820152fd5b3360009081527ff7c9542c591017a21c74b6f3fab6263c7952fc0aaf9db4c22a2a04ddc7f8674f60205260409020547f65d7a28e3265b37a6474929f336521b332c1681b933f6cb9f3376673440d862a9060ff16156119195750565b80600052600060205260406000203360005260205260ff60406000205416156119195750565b9060009180835282602052604083209160018060a01b03169182845260205260ff60408420541615600014611a3257808352826020526040832082845260205260408320600160ff198254161790557f2f8788117e7eff1d82e926ec794901d17c78024a50270940304540a733656f0d339380a4600190565b505090565b9060009180835282602052604083209160018060a01b03169182845260205260ff604084205416600014611a325780835282602052604083208284526020526040832060ff1981541690557ff6391f5c32d9c69d2a47ea670b442974b53935d1edc7fd64eb21e047a839171b339380a4600190565b60ff60025416611ab857565b60405163d93c066560e01b8152600490fd5b60a0810190811067ffffffffffffffff821117611ae657604052565b634e487b7160e01b600052604160045260246000fd5b90601f8019910116810190811067ffffffffffffffff821117611ae657604052565b90620f4240918203918211611b2f57565b634e487b7160e01b600052601160045260246000fd5b91908203918211611b2f57565b908082029060001981840990828083109203918083039214611bc357620f42409082821115611bb1577fde8f6cefed634549b62c77574f722e1ac57e23f24d8fd5cb790fb65668c26139940990828211900360fa1b910360061c170290565b60405163227bc15360e01b8152600490fd5b5050620f424091500490565b620f4240918183029160001984820993838086109503948086039514611c485784831115611bb15782910981600003821680920460028082600302188083028203028083028203028083028203028083028203028083028203028092029003029360018380600003040190848311900302920304170290565b505080925015611c56570490565b634e487b7160e01b600052601260045260246000fd5b9081602091031261016257516001600160a01b03811681036101625790565b604051906060820182811067ffffffffffffffff821117611ae65760405260006040838281528260208201520152565b67ffffffffffffffff8111611ae657601f01601f191660200190565b929192611ce382611cbb565b91611cf16040519384611afc565b829481845281830111610162578281602093846000960137010152565b91908201809211611b2f57565b90816020910312610162575180151581036101625790565b60005b838110611d465750506000910152565b8181015183820152602001611d36565b90602091611d6f81518092818552858086019101611d33565b601f01601f1916010190565b60405163095ea7b360e01b602082018181526001600160a01b038516602484015260448084019690965294825294939092611db7606485611afc565b83516000926001600160a01b039291858416918591829182855af190611ddb611f0f565b82611e6b575b5081611e60575b5015611df8575b50505050509050565b60405196602088015216602486015280604486015260448552608085019085821067ffffffffffffffff831117611e4c5750611e419394611e3c9160405282611e9d565b611e9d565b803880808080611def565b634e487b7160e01b81526041600452602490fd5b90503b151538611de8565b80519192508115918215611e83575b50509038611de1565b611e969250602080918301019101611d1b565b3880611e7a565b600080611ec69260018060a01b03169360208151910182865af1611ebf611f0f565b9083611f3f565b8051908115159182611ef4575b5050611edc5750565b60249060405190635274afe760e01b82526004820152fd5b611f079250602080918301019101611d1b565b153880611ed3565b3d15611f3a573d90611f2082611cbb565b91611f2e6040519384611afc565b82523d6000602084013e565b606090565b90611f5457508051156117bc57805190602001fd5b81511580611f87575b611f65575090565b604051639996b31560e01b81526001600160a01b039091166004820152602490fd5b50803b15611f5d565b600260015414611fa1576002600155565b604051633ee5aeb560e01b8152600490fd5b60405163a9059cbb60e01b60208201526001600160a01b03929092166024830152604480830193909352918152611fef91611e3c606483611afc565b565b6040805163415c506960e01b8082529194936001600160a01b0316916020918281600481875afa90811561215e57600091612131575b506000901561209c57508190600487518095819382525afa948515612092575060009461205f575b50509161205c9192611b52565b90565b81813d831161208b575b6120738183611afc565b810103126120875751925061205c3861204f565b8380fd5b503d612069565b513d6000823e3d90fd5b9282915091600492879596975193848092637aa7c3c160e01b82525afa938415612128575082936120dc575b5050509063ffffffff61205c921690611b52565b9080929350813d8311612121575b6120f48183611afc565b8101031261211d57519063ffffffff8216820361211a575063ffffffff61205c386120c8565b80fd5b5080fd5b503d6120ea565b513d84823e3d90fd5b908382813d8311612157575b6121478183611afc565b8101031261211a57505138612027565b503d61213d565b87513d6000823e3d90fd5b90602061217b84602494969596611ff1565b6040516363737ac960e11b81526004810182905290959093849182906001600160a01b03165afa9182156104335760009261221b575b508082106121fd57906121c76121cc9282611b45565b611bcf565b91620f424083116121e4576103fb61205c9293611b1e565b60405163cc1d13b160e01b815260048101849052602490fd5b60449250604051916303a4989b60e21b835260048301526024820152fd5b90916020823d8211612246575b8161223560209383611afc565b8101031261211a57505190386121b1565b3d9150612228565b919061226360408401516020850151906122a0565b9190938480612297575b61227e575050509050600090600090565b516122939183916001600160a01b0316611fb3565b9190565b5082151561226d565b91908281116122b0576001920390565b5060009150819056fea26469706673582212207c72c0b599d6f48a17989399a0b3fed50dbb20e5312da37b3eb0f466a496dfbd64736f6c63430008140033",
  "libraries": {
    "OdosSwapLogic": "0xB029d67E4eB9D71d2e7140425E7227c5074dd2bA"
  },
  "devdoc": {
    "details": "Implementation of DLoopDepositorBase with Odos swap functionality",
    "errors": {
      "AccessControlBadConfirmation()": [
        {
          "details": "The caller of a function is not the expected one. NOTE: Don't confuse with {AccessControlUnauthorizedAccount}."
        }
      ],
      "AccessControlUnauthorizedAccount(address,bytes32)": [
        {
          "details": "The `account` is missing a role."
        }
      ],
      "AddressEmptyCode(address)": [
        {
          "details": "There's no code at `target` (it is not a contract)."
        }
      ],
      "AddressInsufficientBalance(address)": [
        {
          "details": "The ETH balance of the account is not enough to perform the operation."
        }
      ],
      "EnforcedPause()": [
        {
          "details": "The operation failed because the contract is paused."
        }
      ],
      "ExpectedPause()": [
        {
          "details": "The operation failed because the contract is not paused."
        }
      ],
      "FailedInnerCall()": [
        {
          "details": "A call to an address target failed. The target may have reverted."
        }
      ],
      "MathOverflowedMulDiv()": [
        {
          "details": "Muldiv operation overflow."
        }
      ],
      "ReentrancyGuardReentrantCall()": [
        {
          "details": "Unauthorized reentrant call."
        }
      ],
      "SafeERC20FailedOperation(address)": [
        {
          "details": "An operation with an ERC20 token failed."
        }
      ]
    },
    "events": {
      "Paused(address)": {
        "details": "Emitted when the pause is triggered by `account`."
      },
      "RoleAdminChanged(bytes32,bytes32,bytes32)": {
        "details": "Emitted when `newAdminRole` is set as ``role``'s admin role, replacing `previousAdminRole` `DEFAULT_ADMIN_ROLE` is the starting admin for all roles, despite {RoleAdminChanged} not being emitted signaling this."
      },
      "RoleGranted(bytes32,address,address)": {
        "details": "Emitted when `account` is granted `role`. `sender` is the account that originated the contract call, an admin role bearer except when using {AccessControl-_setupRole}."
      },
      "RoleRevoked(bytes32,address,address)": {
        "details": "Emitted when `account` is revoked `role`. `sender` is the account that originated the contract call:   - if using `revokeRole`, it is the admin role bearer   - if using `renounceRole`, it is the role bearer (i.e. `account`)"
      },
      "Unpaused(address)": {
        "details": "Emitted when the pause is lifted by `account`."
      }
    },
    "kind": "dev",
    "methods": {
      "calculateMinOutputShares(uint256,uint256,address)": {
        "details": "Calculates the minimum output shares for a given deposit amount and slippage bps",
        "params": {
          "dLoopCore": "Address of the DLoopCore contract",
          "depositAmount": "Amount of collateral token to deposit",
          "slippageBps": "Slippage bps"
        },
        "returns": {
          "_0": "minOutputShares Minimum output shares"
        }
      },
      "constructor": {
        "details": "Constructor for the DLoopDepositorOdos contract",
        "params": {
          "_flashLender": "Address of the flash loan provider",
          "_odosRouter": "Address of the Odos router"
        }
      },
      "deposit(uint256,address,uint256,bytes,address)": {
        "details": "Deposits assets into the core vault with flash loans      - The required collateral token to reeach the leveraged amount will be flash loaned from the flash lender",
        "params": {
          "assets": "Amount of assets to deposit",
          "dLoopCore": "Address of the DLoopCore contract to use",
          "debtTokenToCollateralSwapData": "Swap data from debt token to collateral token",
          "minOutputShares": "Minimum amount of shares to receive (slippage protection)",
          "receiver": "Address to receive the minted shares"
        },
        "returns": {
          "shares": "Amount of shares minted"
        }
      },
      "estimateFlashLoanSwapOutputCollateralAmount(uint256,uint256,address)": {
        "details": "Estimates the amount of collateral token to swap for the flash loan      This method is specific for Odos venue only, as we cannot do exact output swap with Odos wrapper,      thus we can only relies on the quote to make sure the output amount is as expected",
        "params": {
          "assets": "Amount of assets",
          "dLoopCore": "Address of the DLoopCore contract",
          "minOutputShares": "Minimum output shares"
        },
        "returns": {
          "_0": "amount Amount of collateral token to swap for the flash loan"
        }
      },
      "getRoleAdmin(bytes32)": {
        "details": "Returns the admin role that controls `role`. See {grantRole} and {revokeRole}. To change a role's admin, use {_setRoleAdmin}."
      },
      "grantRole(bytes32,address)": {
        "details": "Grants `role` to `account`. If `account` had not been already granted `role`, emits a {RoleGranted} event. Requirements: - the caller must have ``role``'s admin role. May emit a {RoleGranted} event."
      },
      "hasRole(bytes32,address)": {
        "details": "Returns `true` if `account` has been granted `role`."
      },
      "isRescuableToken(address)": {
        "details": "Gets the restricted rescue tokens",
        "returns": {
          "_0": "restrictedTokens Restricted rescue tokens"
        }
      },
      "onFlashLoan(address,address,uint256,uint256,bytes)": {
        "details": "Handles the flash loan execution for leveraged deposits. Only callable by the flash lender.",
        "params": {
          "data": "Additional data passed to the flash loan",
          "flashLoanFee": "Flash loan fee amount",
          "initiator": "Address that initiated the flash loan",
          "token": "Address of the flash-borrowed token"
        },
        "returns": {
          "_0": "bytes32 The flash loan callback success bytes"
        }
      },
      "pause()": {
        "details": "Pauses the contract (exposes the internal pause function of Pausable)"
      },
      "paused()": {
        "details": "Returns true if the contract is paused, and false otherwise."
      },
      "renounceRole(bytes32,address)": {
        "details": "Revokes `role` from the calling account. Roles are often managed via {grantRole} and {revokeRole}: this function's purpose is to provide a mechanism for accounts to lose their privileges if they are compromised (such as when a trusted device is misplaced). If the calling account had been revoked `role`, emits a {RoleRevoked} event. Requirements: - the caller must be `callerConfirmation`. May emit a {RoleRevoked} event."
      },
      "rescueToken(address,address,uint256)": {
        "details": "Rescues tokens accidentally sent to the contract (except for the collateral token and debt token)",
        "params": {
          "amount": "Amount of tokens to rescue",
          "receiver": "Address to receive the rescued tokens",
          "token": "Address of the token to rescue"
        }
      },
      "revokeRole(bytes32,address)": {
        "details": "Revokes `role` from `account`. If `account` had been granted `role`, emits a {RoleRevoked} event. Requirements: - the caller must have ``role``'s admin role. May emit a {RoleRevoked} event."
      },
      "supportsInterface(bytes4)": {
        "details": "See {IERC165-supportsInterface}."
      },
      "unpause()": {
        "details": "Unpauses the contract (exposes the internal unpause function of Pausable)"
      }
    },
    "title": "DLoopDepositorOdos",
    "version": 1
  },
  "userdoc": {
    "kind": "user",
    "methods": {
      "onFlashLoan(address,address,uint256,uint256,bytes)": {
        "notice": "Callback function for flash loans"
      }
    },
    "version": 1
  },
  "storageLayout": {
    "storage": [
      {
        "astId": 193,
        "contract": "contracts/vaults/dLOOP/periphery/venue/odos/DLoopDepositorOdos.sol:DLoopDepositorOdos",
        "label": "_roles",
        "offset": 0,
        "slot": "0",
        "type": "t_mapping(t_bytes32,t_struct(RoleData)188_storage)"
      },
      {
        "astId": 3041,
        "contract": "contracts/vaults/dLOOP/periphery/venue/odos/DLoopDepositorOdos.sol:DLoopDepositorOdos",
        "label": "_status",
        "offset": 0,
        "slot": "1",
        "type": "t_uint256"
      },
      {
        "astId": 2922,
        "contract": "contracts/vaults/dLOOP/periphery/venue/odos/DLoopDepositorOdos.sol:DLoopDepositorOdos",
        "label": "_paused",
        "offset": 0,
        "slot": "2",
        "type": "t_bool"
      }
    ],
    "types": {
      "t_address": {
        "encoding": "inplace",
        "label": "address",
        "numberOfBytes": "20"
      },
      "t_bool": {
        "encoding": "inplace",
        "label": "bool",
        "numberOfBytes": "1"
      },
      "t_bytes32": {
        "encoding": "inplace",
        "label": "bytes32",
        "numberOfBytes": "32"
      },
      "t_mapping(t_address,t_bool)": {
        "encoding": "mapping",
        "key": "t_address",
        "label": "mapping(address => bool)",
        "numberOfBytes": "32",
        "value": "t_bool"
      },
      "t_mapping(t_bytes32,t_struct(RoleData)188_storage)": {
        "encoding": "mapping",
        "key": "t_bytes32",
        "label": "mapping(bytes32 => struct AccessControl.RoleData)",
        "numberOfBytes": "32",
        "value": "t_struct(RoleData)188_storage"
      },
      "t_struct(RoleData)188_storage": {
        "encoding": "inplace",
        "label": "struct AccessControl.RoleData",
        "members": [
          {
            "astId": 185,
            "contract": "contracts/vaults/dLOOP/periphery/venue/odos/DLoopDepositorOdos.sol:DLoopDepositorOdos",
            "label": "hasRole",
            "offset": 0,
            "slot": "0",
            "type": "t_mapping(t_address,t_bool)"
          },
          {
            "astId": 187,
            "contract": "contracts/vaults/dLOOP/periphery/venue/odos/DLoopDepositorOdos.sol:DLoopDepositorOdos",
            "label": "adminRole",
            "offset": 0,
            "slot": "1",
            "type": "t_bytes32"
          }
        ],
        "numberOfBytes": "64"
      },
      "t_uint256": {
        "encoding": "inplace",
        "label": "uint256",
        "numberOfBytes": "32"
      }
    }
  }
}