{
  "address": "0xF224E69C461A2dd3c5F6f6814529c8Cf557A1367",
  "abi": [
    {
      "inputs": [
        {
          "internalType": "address",
          "name": "_dStakeCollateralVault",
          "type": "address"
        },
        {
          "internalType": "address",
          "name": "_dStakeRouter",
          "type": "address"
        },
        {
          "internalType": "address",
          "name": "_dLendRewardsController",
          "type": "address"
        },
        {
          "internalType": "address",
          "name": "_targetStaticATokenWrapper",
          "type": "address"
        },
        {
          "internalType": "address",
          "name": "_dLendAssetToClaimFor",
          "type": "address"
        },
        {
          "internalType": "address",
          "name": "_treasury",
          "type": "address"
        },
        {
          "internalType": "uint256",
          "name": "_maxTreasuryFeeBps",
          "type": "uint256"
        },
        {
          "internalType": "uint256",
          "name": "_initialTreasuryFeeBps",
          "type": "uint256"
        },
        {
          "internalType": "uint256",
          "name": "_initialExchangeThreshold",
          "type": "uint256"
        }
      ],
      "stateMutability": "nonpayable",
      "type": "constructor"
    },
    {
      "inputs": [],
      "name": "AccessControlBadConfirmation",
      "type": "error"
    },
    {
      "inputs": [
        {
          "internalType": "address",
          "name": "account",
          "type": "address"
        },
        {
          "internalType": "bytes32",
          "name": "neededRole",
          "type": "bytes32"
        }
      ],
      "name": "AccessControlUnauthorizedAccount",
      "type": "error"
    },
    {
      "inputs": [],
      "name": "AdapterNotSetForDefaultAsset",
      "type": "error"
    },
    {
      "inputs": [
        {
          "internalType": "address",
          "name": "expected",
          "type": "address"
        },
        {
          "internalType": "address",
          "name": "actual",
          "type": "address"
        }
      ],
      "name": "AdapterReturnedUnexpectedAsset",
      "type": "error"
    },
    {
      "inputs": [
        {
          "internalType": "address",
          "name": "target",
          "type": "address"
        }
      ],
      "name": "AddressEmptyCode",
      "type": "error"
    },
    {
      "inputs": [
        {
          "internalType": "address",
          "name": "account",
          "type": "address"
        }
      ],
      "name": "AddressInsufficientBalance",
      "type": "error"
    },
    {
      "inputs": [],
      "name": "DefaultDepositAssetNotSet",
      "type": "error"
    },
    {
      "inputs": [
        {
          "internalType": "uint256",
          "name": "amount",
          "type": "uint256"
        },
        {
          "internalType": "uint256",
          "name": "threshold",
          "type": "uint256"
        }
      ],
      "name": "ExchangeAmountTooLow",
      "type": "error"
    },
    {
      "inputs": [],
      "name": "FailedInnerCall",
      "type": "error"
    },
    {
      "inputs": [
        {
          "internalType": "address",
          "name": "adapter",
          "type": "address"
        }
      ],
      "name": "InvalidAdapter",
      "type": "error"
    },
    {
      "inputs": [],
      "name": "InvalidRouter",
      "type": "error"
    },
    {
      "inputs": [],
      "name": "MathOverflowedMulDiv",
      "type": "error"
    },
    {
      "inputs": [
        {
          "internalType": "uint256",
          "name": "maxTreasuryFeeBps",
          "type": "uint256"
        }
      ],
      "name": "MaxTreasuryFeeTooHigh",
      "type": "error"
    },
    {
      "inputs": [],
      "name": "ReentrancyGuardReentrantCall",
      "type": "error"
    },
    {
      "inputs": [
        {
          "internalType": "uint256",
          "name": "claimedAmountsLength",
          "type": "uint256"
        },
        {
          "internalType": "uint256",
          "name": "rewardTokensLength",
          "type": "uint256"
        }
      ],
      "name": "RewardAmountsLengthMismatch",
      "type": "error"
    },
    {
      "inputs": [
        {
          "internalType": "address",
          "name": "token",
          "type": "address"
        }
      ],
      "name": "SafeERC20FailedOperation",
      "type": "error"
    },
    {
      "inputs": [
        {
          "internalType": "uint256",
          "name": "treasuryFee",
          "type": "uint256"
        },
        {
          "internalType": "uint256",
          "name": "rewardAmount",
          "type": "uint256"
        }
      ],
      "name": "TreasuryFeeExceedsRewardAmount",
      "type": "error"
    },
    {
      "inputs": [
        {
          "internalType": "uint256",
          "name": "treasuryFeeBps",
          "type": "uint256"
        },
        {
          "internalType": "uint256",
          "name": "maxTreasuryFeeBps",
          "type": "uint256"
        }
      ],
      "name": "TreasuryFeeTooHigh",
      "type": "error"
    },
    {
      "inputs": [],
      "name": "ZeroAddress",
      "type": "error"
    },
    {
      "inputs": [],
      "name": "ZeroExchangeAssetAddress",
      "type": "error"
    },
    {
      "inputs": [],
      "name": "ZeroExchangeThreshold",
      "type": "error"
    },
    {
      "inputs": [],
      "name": "ZeroReceiverAddress",
      "type": "error"
    },
    {
      "inputs": [],
      "name": "ZeroRewardTokens",
      "type": "error"
    },
    {
      "inputs": [],
      "name": "ZeroTreasuryAddress",
      "type": "error"
    },
    {
      "anonymous": false,
      "inputs": [
        {
          "indexed": false,
          "internalType": "address",
          "name": "oldController",
          "type": "address"
        },
        {
          "indexed": false,
          "internalType": "address",
          "name": "newController",
          "type": "address"
        }
      ],
      "name": "DLendRewardsControllerUpdated",
      "type": "event"
    },
    {
      "anonymous": false,
      "inputs": [
        {
          "indexed": true,
          "internalType": "address",
          "name": "vaultAsset",
          "type": "address"
        },
        {
          "indexed": false,
          "internalType": "uint256",
          "name": "vaultAssetAmount",
          "type": "uint256"
        },
        {
          "indexed": false,
          "internalType": "uint256",
          "name": "dStableCompoundedAmount",
          "type": "uint256"
        }
      ],
      "name": "ExchangeAssetProcessed",
      "type": "event"
    },
    {
      "anonymous": false,
      "inputs": [
        {
          "indexed": false,
          "internalType": "uint256",
          "name": "oldExchangeThreshold",
          "type": "uint256"
        },
        {
          "indexed": false,
          "internalType": "uint256",
          "name": "newExchangeThreshold",
          "type": "uint256"
        }
      ],
      "name": "ExchangeThresholdUpdated",
      "type": "event"
    },
    {
      "anonymous": false,
      "inputs": [
        {
          "indexed": false,
          "internalType": "address",
          "name": "exchangeAsset",
          "type": "address"
        },
        {
          "indexed": false,
          "internalType": "uint256",
          "name": "amount",
          "type": "uint256"
        },
        {
          "indexed": false,
          "internalType": "address[]",
          "name": "rewardTokens",
          "type": "address[]"
        }
      ],
      "name": "RewardCompounded",
      "type": "event"
    },
    {
      "anonymous": false,
      "inputs": [
        {
          "indexed": true,
          "internalType": "bytes32",
          "name": "role",
          "type": "bytes32"
        },
        {
          "indexed": true,
          "internalType": "bytes32",
          "name": "previousAdminRole",
          "type": "bytes32"
        },
        {
          "indexed": true,
          "internalType": "bytes32",
          "name": "newAdminRole",
          "type": "bytes32"
        }
      ],
      "name": "RoleAdminChanged",
      "type": "event"
    },
    {
      "anonymous": false,
      "inputs": [
        {
          "indexed": true,
          "internalType": "bytes32",
          "name": "role",
          "type": "bytes32"
        },
        {
          "indexed": true,
          "internalType": "address",
          "name": "account",
          "type": "address"
        },
        {
          "indexed": true,
          "internalType": "address",
          "name": "sender",
          "type": "address"
        }
      ],
      "name": "RoleGranted",
      "type": "event"
    },
    {
      "anonymous": false,
      "inputs": [
        {
          "indexed": true,
          "internalType": "bytes32",
          "name": "role",
          "type": "bytes32"
        },
        {
          "indexed": true,
          "internalType": "address",
          "name": "account",
          "type": "address"
        },
        {
          "indexed": true,
          "internalType": "address",
          "name": "sender",
          "type": "address"
        }
      ],
      "name": "RoleRevoked",
      "type": "event"
    },
    {
      "anonymous": false,
      "inputs": [
        {
          "indexed": false,
          "internalType": "uint256",
          "name": "oldTreasuryFeeBps",
          "type": "uint256"
        },
        {
          "indexed": false,
          "internalType": "uint256",
          "name": "newTreasuryFeeBps",
          "type": "uint256"
        }
      ],
      "name": "TreasuryFeeBpsUpdated",
      "type": "event"
    },
    {
      "anonymous": false,
      "inputs": [
        {
          "indexed": false,
          "internalType": "address",
          "name": "oldTreasury",
          "type": "address"
        },
        {
          "indexed": false,
          "internalType": "address",
          "name": "newTreasury",
          "type": "address"
        }
      ],
      "name": "TreasuryUpdated",
      "type": "event"
    },
    {
      "inputs": [],
      "name": "DEFAULT_ADMIN_ROLE",
      "outputs": [
        {
          "internalType": "bytes32",
          "name": "",
          "type": "bytes32"
        }
      ],
      "stateMutability": "view",
      "type": "function"
    },
    {
      "inputs": [],
      "name": "REWARDS_MANAGER_ROLE",
      "outputs": [
        {
          "internalType": "bytes32",
          "name": "",
          "type": "bytes32"
        }
      ],
      "stateMutability": "view",
      "type": "function"
    },
    {
      "inputs": [
        {
          "internalType": "uint256",
          "name": "amount",
          "type": "uint256"
        },
        {
          "internalType": "address[]",
          "name": "rewardTokens",
          "type": "address[]"
        },
        {
          "internalType": "address",
          "name": "receiver",
          "type": "address"
        }
      ],
      "name": "compoundRewards",
      "outputs": [],
      "stateMutability": "nonpayable",
      "type": "function"
    },
    {
      "inputs": [],
      "name": "dLendAssetToClaimFor",
      "outputs": [
        {
          "internalType": "address",
          "name": "",
          "type": "address"
        }
      ],
      "stateMutability": "view",
      "type": "function"
    },
    {
      "inputs": [],
      "name": "dLendRewardsController",
      "outputs": [
        {
          "internalType": "contract IDLendRewardsController",
          "name": "",
          "type": "address"
        }
      ],
      "stateMutability": "view",
      "type": "function"
    },
    {
      "inputs": [],
      "name": "dStakeCollateralVault",
      "outputs": [
        {
          "internalType": "address",
          "name": "",
          "type": "address"
        }
      ],
      "stateMutability": "view",
      "type": "function"
    },
    {
      "inputs": [],
      "name": "dStakeRouter",
      "outputs": [
        {
          "internalType": "contract DStakeRouterDLend",
          "name": "",
          "type": "address"
        }
      ],
      "stateMutability": "view",
      "type": "function"
    },
    {
      "inputs": [],
      "name": "exchangeAsset",
      "outputs": [
        {
          "internalType": "address",
          "name": "",
          "type": "address"
        }
      ],
      "stateMutability": "view",
      "type": "function"
    },
    {
      "inputs": [],
      "name": "exchangeThreshold",
      "outputs": [
        {
          "internalType": "uint256",
          "name": "",
          "type": "uint256"
        }
      ],
      "stateMutability": "view",
      "type": "function"
    },
    {
      "inputs": [
        {
          "internalType": "bytes32",
          "name": "role",
          "type": "bytes32"
        }
      ],
      "name": "getRoleAdmin",
      "outputs": [
        {
          "internalType": "bytes32",
          "name": "",
          "type": "bytes32"
        }
      ],
      "stateMutability": "view",
      "type": "function"
    },
    {
      "inputs": [
        {
          "internalType": "uint256",
          "name": "amount",
          "type": "uint256"
        }
      ],
      "name": "getTreasuryFee",
      "outputs": [
        {
          "internalType": "uint256",
          "name": "",
          "type": "uint256"
        }
      ],
      "stateMutability": "view",
      "type": "function"
    },
    {
      "inputs": [
        {
          "internalType": "bytes32",
          "name": "role",
          "type": "bytes32"
        },
        {
          "internalType": "address",
          "name": "account",
          "type": "address"
        }
      ],
      "name": "grantRole",
      "outputs": [],
      "stateMutability": "nonpayable",
      "type": "function"
    },
    {
      "inputs": [
        {
          "internalType": "bytes32",
          "name": "role",
          "type": "bytes32"
        },
        {
          "internalType": "address",
          "name": "account",
          "type": "address"
        }
      ],
      "name": "hasRole",
      "outputs": [
        {
          "internalType": "bool",
          "name": "",
          "type": "bool"
        }
      ],
      "stateMutability": "view",
      "type": "function"
    },
    {
      "inputs": [],
      "name": "maxTreasuryFeeBps",
      "outputs": [
        {
          "internalType": "uint256",
          "name": "",
          "type": "uint256"
        }
      ],
      "stateMutability": "view",
      "type": "function"
    },
    {
      "inputs": [
        {
          "internalType": "bytes32",
          "name": "role",
          "type": "bytes32"
        },
        {
          "internalType": "address",
          "name": "callerConfirmation",
          "type": "address"
        }
      ],
      "name": "renounceRole",
      "outputs": [],
      "stateMutability": "nonpayable",
      "type": "function"
    },
    {
      "inputs": [
        {
          "internalType": "bytes32",
          "name": "role",
          "type": "bytes32"
        },
        {
          "internalType": "address",
          "name": "account",
          "type": "address"
        }
      ],
      "name": "revokeRole",
      "outputs": [],
      "stateMutability": "nonpayable",
      "type": "function"
    },
    {
      "inputs": [
        {
          "internalType": "address",
          "name": "_newDLendRewardsController",
          "type": "address"
        }
      ],
      "name": "setDLendRewardsController",
      "outputs": [],
      "stateMutability": "nonpayable",
      "type": "function"
    },
    {
      "inputs": [
        {
          "internalType": "uint256",
          "name": "newExchangeThreshold",
          "type": "uint256"
        }
      ],
      "name": "setExchangeThreshold",
      "outputs": [],
      "stateMutability": "nonpayable",
      "type": "function"
    },
    {
      "inputs": [
        {
          "internalType": "address",
          "name": "newTreasury",
          "type": "address"
        }
      ],
      "name": "setTreasury",
      "outputs": [],
      "stateMutability": "nonpayable",
      "type": "function"
    },
    {
      "inputs": [
        {
          "internalType": "uint256",
          "name": "newTreasuryFeeBps",
          "type": "uint256"
        }
      ],
      "name": "setTreasuryFeeBps",
      "outputs": [],
      "stateMutability": "nonpayable",
      "type": "function"
    },
    {
      "inputs": [
        {
          "internalType": "bytes4",
          "name": "interfaceId",
          "type": "bytes4"
        }
      ],
      "name": "supportsInterface",
      "outputs": [
        {
          "internalType": "bool",
          "name": "",
          "type": "bool"
        }
      ],
      "stateMutability": "view",
      "type": "function"
    },
    {
      "inputs": [],
      "name": "targetStaticATokenWrapper",
      "outputs": [
        {
          "internalType": "address",
          "name": "",
          "type": "address"
        }
      ],
      "stateMutability": "view",
      "type": "function"
    },
    {
      "inputs": [],
      "name": "treasury",
      "outputs": [
        {
          "internalType": "address",
          "name": "",
          "type": "address"
        }
      ],
      "stateMutability": "view",
      "type": "function"
    },
    {
      "inputs": [],
      "name": "treasuryFeeBps",
      "outputs": [
        {
          "internalType": "uint256",
          "name": "",
          "type": "uint256"
        }
      ],
      "stateMutability": "view",
      "type": "function"
    }
  ],
  "transactionHash": "0x9331a9d881490e9d2d5bbe8d92c42ffc16c1ce56c42cec98cb868655abfbf508",
  "args": [
    "0x5432ed4A370718D6904485e2Fc114762C68Cc7BE",
    "0xEfc15efb330112a2c313d5da8f1b29893AD4Cd99",
    "0x0E20D018A1309fED73AbdF2187FC452D1DB77915",
    "0xDf697E9608cD286F83d8F76F33a258aC1a8d2764",
    "0x29d0256fe397F6e442464982C4Cba7670646059b",
    "0xfC2f89F9982BE98A9672CEFc3Ea6dBBdd88bc8e9",
    500,
    100,
    "1000000000000000000"
  ],
  "numDeployments": 1,
  "solcInputHash": "3ab0b7ef278db081e26e71c26b8f317e",
  "bytecode": "0x610140604081815234620002fc578190620019f6803803809162000024828662000315565b843961012092839181010312620002fc5762000040836200034f565b6200004e602085016200034f565b6200005b8386016200034f565b916200006a606087016200034f565b9162000079608088016200034f565b936200008860a089016200034f565b60c089015160e08a01516101009a8b015189516306617c6960e11b8152966001600160a01b0396949093600493888616939290919060208b8781885afa9a8b156200030a5760009b620002c1575b5060018055898b1615620002b1578916998a15620002a157620f424082116200028a578183116200026c5783156200025c57608052600280546001600160a01b0319908116909b17905560a0526003558255620001333362000364565b506200013f33620003e4565b5015801562000251575b801562000246575b80156200023b575b801562000230575b620002225784608051161562000214575090839160c0521660e0521690600554161760055584528252620001953362000364565b50620001a133620003e4565b50519061154f9283620004878439608051838181610516015281816106b2015281816106fa0152611133015260a05183818161046f0152610c76015260c051836104d1015260e051838181610be201526110820152518281816102a701526109b50152518181816107e20152610d780152f35b885163466d7fef60e01b8152fd5b885163d92e233d60e01b8152fd5b508488161562000161565b508487161562000159565b508484161562000151565b508483161562000149565b8d516354a62ce560e01b81528690fd5b508c51636cef961f60e11b8152808601929092526024820152604490fd5b50846024918e519163a7519f3f60e01b8352820152fd5b8d516351dc806d60e11b81528690fd5b8d51631810b12760e21b81528690fd5b909a506020813d60201162000301575b81620002e06020938362000315565b81010312620002fc57620002f4906200034f565b9938620000d6565b600080fd5b3d9150620002d1565b8e513d6000823e3d90fd5b601f909101601f19168101906001600160401b038211908210176200033957604052565b634e487b7160e01b600052604160045260246000fd5b51906001600160a01b0382168203620002fc57565b6001600160a01b031660008181527fad3228b676f7d3cd4284a5443f17f1962b36e491b30a40b2405849e597ba5fb5602052604081205490919060ff16620003e057818052816020526040822081835260205260408220600160ff198254161790553391600080516020620019d68339815191528180a4600190565b5090565b6001600160a01b031660008181527ff6c17da3865d9645546db4630d07c45803fb99f9b61dd452de8de1cd2159d25460205260408120549091907f51785d261c3b3e8c2cfe2d0e108b9ab2b1fb703ff9e9e49aba4ebdc85c36152b9060ff166200048157808352826020526040832082845260205260408320600160ff19825416179055600080516020620019d6833981519152339380a4600190565b50509056fe608080604052600436101561001357600080fd5b60003560e01c90816301ffc9a714610da7575080631f52be6414610d62578063248a9ca314610d335780632f2ff15d14610cf4578063331fb00f14610c5857806336568abe14610c115780633c9f23f014610bcc5780634603be6f146105d057806349b40402146105b257806356d1d4a2146105455780635898ec3b1461050057806358a87913146104bb57806361d027b3146104925780637dd38d9a1461045757806391d148541461040a578063a1b2736a1461031b578063a217fddf146102ff578063acfec690146102d6578063ae37f47914610291578063d547741f14610250578063e0dd245714610215578063e80cfa5e146101f7578063eaff4592146101ce5763f0f442601461012757600080fd5b346101c95760203660031901126101c957610140610e10565b610148610e81565b6001600160a01b0381811680156101b757600280546001600160a01b031981169092179055604080516001600160a01b0393909216831682529190921660208301527f4ab5be82436d353e61ca18726e984e561f5c1cc7c6d38b29d2553c790434705a9190819081015b0390a1005b6040516351dc806d60e11b8152600490fd5b600080fd5b346101c95760203660031901126101c95760206101ef600354600435611373565b604051908152f35b346101c95760003660031901126101c9576020600354604051908152f35b346101c95760003660031901126101c95760206040517f51785d261c3b3e8c2cfe2d0e108b9ab2b1fb703ff9e9e49aba4ebdc85c36152b8152f35b346101c95760403660031901126101c95761028f60043561026f610dfa565b9080600052600060205261028a600160406000200154610efb565b610f9f565b005b346101c95760003660031901126101c9576040517f00000000000000000000000000000000000000000000000000000000000000006001600160a01b03168152602090f35b346101c95760003660031901126101c9576005546040516001600160a01b039091168152602090f35b346101c95760003660031901126101c957602060405160008152f35b346101c95760203660031901126101c957610334610e10565b3360009081527fad3228b676f7d3cd4284a5443f17f1962b36e491b30a40b2405849e597ba5fb5602052604090205460ff16156103eb576001600160a01b0381811680156103d957600580546001600160a01b031981169092179055604080516001600160a01b0393909216831682529190921660208301527fd41ddf0add6cf5f4e7067e117b677c4bf3a6b26973090e908241a081fae54a4b9190819081016101b2565b60405163d92e233d60e01b8152600490fd5b60405163e2517d3f60e01b815233600482015260006024820152604490fd5b346101c95760403660031901126101c957610423610dfa565b600435600052600060205260406000209060018060a01b0316600052602052602060ff604060002054166040519015158152f35b346101c95760003660031901126101c95760206040517f00000000000000000000000000000000000000000000000000000000000000008152f35b346101c95760003660031901126101c9576002546040516001600160a01b039091168152602090f35b346101c95760003660031901126101c9576040517f00000000000000000000000000000000000000000000000000000000000000006001600160a01b03168152602090f35b346101c95760003660031901126101c9576040517f00000000000000000000000000000000000000000000000000000000000000006001600160a01b03168152602090f35b346101c95760203660031901126101c957600435610561610e81565b80156105a05760407f46c287b860f967b39d89a1692e6486d60e4d66ea2cde369816239edaf4e0656991600454908060045582519182526020820152a1005b6040516354a62ce560e01b8152600490fd5b346101c95760003660031901126101c9576020600454604051908152f35b346101c95760603660031901126101c95760243567ffffffffffffffff81116101c957366023820112156101c95767ffffffffffffffff8160040135116101c957366024826004013560051b830101116101c9576044356001600160a01b038116908190036101c957600260015414610bba5760026001556004548060043510610b9a575015610b4457806004013515610b88576040516323b872dd60e01b60208201523360248201523060448201526004356064820152606481528060a081011067ffffffffffffffff60a083011117610b2e5760a081016040526106df907f00000000000000000000000000000000000000000000000000000000000000006001600160a01b03166113f0565b6106ea600435611062565b6040516060810160018060a01b037f000000000000000000000000000000000000000000000000000000000000000016825260043560208301526060604083015282600401359052608081016024830160005b84600401358110610b5657847fc8efbc392b57771291983f003bd32ae9dc5e87ff1388a259b9acf272db4531d885850386a13015610b44576107828160040135611318565b61078f6040519182611014565b6004820135808252601f19906107a490611318565b0136602083013760405180604081011067ffffffffffffffff604083011117610b2e57604081016040526001815260203681830137805115610b18577f00000000000000000000000000000000000000000000000000000000000000006001600160a01b0316602082015260005b836004013581106109135750508051826004013581036108f1575060005b826004013581106108415760018055005b61084b8183610e26565b5161085860035482611373565b8181116108d457600192916108ce916108c4906108a2816001600160a01b0361089161088c8960048e013560248f01610e3a565b610e4a565b16888060a01b036002541690611330565b858060a01b036108bd61088c878b6004013560248d01610e3a565b1692610e5e565b9060443590611330565b01610830565b6044916040519163270c46bf60e01b835260048301526024820152fd5b6044908360405191631aff8a1160e01b83526004830152600401356024820152fd5b6001600160a01b0361093061088c83600488013560248901610e3a565b169081156103d9576040516370a0823160e01b815230600482015291602083602481845afa928315610a8857600093610ae4575b506005546040516333028b9960e01b815260a06004820152855160a4820181905290916001600160a01b031690829060c482019060208901906000905b808210610abf5750506000196024840152507f00000000000000000000000000000000000000000000000000000000000000006001600160a01b0316604483015230606483015260848201859052602092908290039082906000905af18015610a8857610a94575b506020602491604051928380926370a0823160e01b82523060048301525afa908115610a8857600091610a55575b50600192610a4491610e5e565b610a4e8286610e26565b5201610812565b90506020813d602011610a80575b81610a7060209383611014565b810103126101c957516001610a37565b3d9150610a63565b6040513d6000823e3d90fd5b602090813d8311610ab8575b610aaa8183611014565b810103126101c95786610a09565b503d610aa0565b82516001600160a01b03168452869450602093840193909201916001909101906109a1565b9092506020813d602011610b10575b81610b0060209383611014565b810103126101c957519186610964565b3d9150610af3565b634e487b7160e01b600052603260045260246000fd5b634e487b7160e01b600052604160045260246000fd5b6040516313e6c64360e31b8152600490fd5b90918235906001600160a01b03821682036101c9576001600160a01b039091168152602090810192019060010161073d565b604051633ce287ef60e21b8152600490fd5b604490604051906301959e9f60e51b825260043560048301526024820152fd5b604051633ee5aeb560e01b8152600490fd5b346101c95760003660031901126101c9576040517f00000000000000000000000000000000000000000000000000000000000000006001600160a01b03168152602090f35b346101c95760403660031901126101c957610c2a610dfa565b336001600160a01b03821603610c465761028f90600435610f9f565b60405163334bd91960e11b8152600490fd5b346101c95760203660031901126101c957600435610c74610e81565b7f0000000000000000000000000000000000000000000000000000000000000000808211610cd5577f7af7c1a20ca2d95ef775c520be0e875415f760d01d8ab209ad45bfe84839d68e604083600354908060035582519182526020820152a1005b604051636cef961f60e11b815260048101929092526024820152604490fd5b346101c95760403660031901126101c95761028f600435610d13610dfa565b90806000526000602052610d2e600160406000200154610efb565b610f21565b346101c95760203660031901126101c95760043560005260006020526020600160406000200154604051908152f35b346101c95760003660031901126101c9576040517f00000000000000000000000000000000000000000000000000000000000000006001600160a01b03168152602090f35b346101c95760203660031901126101c9576004359063ffffffff60e01b82168092036101c957602091637965db0b60e01b8114908115610de9575b5015158152f35b6301ffc9a760e01b14905083610de2565b602435906001600160a01b03821682036101c957565b600435906001600160a01b03821682036101c957565b8051821015610b185760209160051b010190565b9190811015610b185760051b0190565b356001600160a01b03811681036101c95790565b91908203918211610e6b57565b634e487b7160e01b600052601160045260246000fd5b3360009081527ff6c17da3865d9645546db4630d07c45803fb99f9b61dd452de8de1cd2159d25460205260409020547f51785d261c3b3e8c2cfe2d0e108b9ab2b1fb703ff9e9e49aba4ebdc85c36152b9060ff1615610edd5750565b6044906040519063e2517d3f60e01b82523360048301526024820152fd5b80600052600060205260406000203360005260205260ff6040600020541615610edd5750565b9060009180835282602052604083209160018060a01b03169182845260205260ff60408420541615600014610f9a57808352826020526040832082845260205260408320600160ff198254161790557f2f8788117e7eff1d82e926ec794901d17c78024a50270940304540a733656f0d339380a4600190565b505090565b9060009180835282602052604083209160018060a01b03169182845260205260ff604084205416600014610f9a5780835282602052604083208284526020526040832060ff1981541690557ff6391f5c32d9c69d2a47ea670b442974b53935d1edc7fd64eb21e047a839171b339380a4600190565b90601f8019910116810190811067ffffffffffffffff821117610b2e57604052565b51906001600160a01b03821682036101c957565b908160209103126101c9575180151581036101c95790565b908115611314576040805163e1e6548d60e01b8152926001600160a01b037f0000000000000000000000000000000000000000000000000000000000000000811692916020600481888281895afa978815611309576000986112d2575b508388169586156112c3578260249187519283809263c8232bd760e01b82528b878301525afa90811561123b5760009161128e575b5084811690811561127e57865163095ea7b360e01b81526001600160a01b0390911683820190815260208101869052849082908190604001038160008a7f0000000000000000000000000000000000000000000000000000000000000000165af1801561127357918791600093611246575b5060248251809481936254772560e21b835289888401525af194851561123b5760009182966111fb575b5081169687036111cc5750507f34ae61830bdb58e6775b07f85ca1a832e6ea8a2485a6730c4f2399ddb6b9bf8f949596508351928352820152a2565b8551634ccd3caf60e01b81526001600160a01b03808b1693820193845290911660208301529081906040010390fd5b919095508682813d8311611234575b6112148183611014565b8101031261123157508261122782611036565b9101519438611190565b80fd5b503d61120a565b86513d6000823e3d90fd5b61126590863d881161126c575b61125d8183611014565b81019061104a565b5038611166565b503d611253565b87513d6000823e3d90fd5b8651630de1e8a360e41b81528390fd5b90508281813d83116112bc575b6112a58183611014565b810103126101c9576112b690611036565b386110f4565b503d61129b565b50845163130e394160e01b8152fd5b9097508181813d8311611302575b6112ea8183611014565b810103126101c9576112fb90611036565b96386110bf565b503d6112e0565b85513d6000823e3d90fd5b9050565b67ffffffffffffffff8111610b2e5760051b60200190565b60405163a9059cbb60e01b60208201526001600160a01b039290921660248301526044808301939093529181526113719161136c606483611014565b6113f0565b565b9080820290600019818409908280831092039180830392146113e457620f424090828211156113d2577fde8f6cefed634549b62c77574f722e1ac57e23f24d8fd5cb790fb65668c26139940990828211900360fa1b910360061c170290565b60405163227bc15360e01b8152600490fd5b5050620f424091500490565b60018060a01b031690600080826020829451910182865af13d156114a9573d67ffffffffffffffff81116114955760405161144c93929161143b601f8201601f191660200183611014565b8152809260203d92013e5b836114b6565b805190811515918261147a575b50506114625750565b60249060405190635274afe760e01b82526004820152fd5b61148d925060208091830101910161104a565b153880611459565b634e487b7160e01b83526041600452602483fd5b61144c9150606090611446565b906114dd57508051156114cb57805190602001fd5b604051630a12f52160e11b8152600490fd5b81511580611510575b6114ee575090565b604051639996b31560e01b81526001600160a01b039091166004820152602490fd5b50803b156114e656fea2646970667358221220467dd1bdf7de8630c06bd427c02c38eb31b17735c36a436013fef0b76ed8f0d864736f6c634300081800332f8788117e7eff1d82e926ec794901d17c78024a50270940304540a733656f0d",
  "devdoc": {
    "details": "Implements the RewardClaimable interface.      The caller of `compoundRewards` provides dStable (the exchangeAsset). This contract      then claims specified reward tokens earned by the `targetStaticATokenWrapper`.      The net rewards (after treasury fee) are sent to the receiver specified by the caller.      The initially provided dStable is then converted to the DStakeCollateralVault's      default deposit asset and deposited into the vault.",
    "errors": {
      "AccessControlBadConfirmation()": [
        {
          "details": "The caller of a function is not the expected one. NOTE: Don't confuse with {AccessControlUnauthorizedAccount}."
        }
      ],
      "AccessControlUnauthorizedAccount(address,bytes32)": [
        {
          "details": "The `account` is missing a role."
        }
      ],
      "AddressEmptyCode(address)": [
        {
          "details": "There's no code at `target` (it is not a contract)."
        }
      ],
      "AddressInsufficientBalance(address)": [
        {
          "details": "The ETH balance of the account is not enough to perform the operation."
        }
      ],
      "FailedInnerCall()": [
        {
          "details": "A call to an address target failed. The target may have reverted."
        }
      ],
      "MathOverflowedMulDiv()": [
        {
          "details": "Muldiv operation overflow."
        }
      ],
      "ReentrancyGuardReentrantCall()": [
        {
          "details": "Unauthorized reentrant call."
        }
      ],
      "SafeERC20FailedOperation(address)": [
        {
          "details": "An operation with an ERC20 token failed."
        }
      ]
    },
    "events": {
      "RoleAdminChanged(bytes32,bytes32,bytes32)": {
        "details": "Emitted when `newAdminRole` is set as ``role``'s admin role, replacing `previousAdminRole` `DEFAULT_ADMIN_ROLE` is the starting admin for all roles, despite {RoleAdminChanged} not being emitted signaling this."
      },
      "RoleGranted(bytes32,address,address)": {
        "details": "Emitted when `account` is granted `role`. `sender` is the account that originated the contract call, an admin role bearer except when using {AccessControl-_setupRole}."
      },
      "RoleRevoked(bytes32,address,address)": {
        "details": "Emitted when `account` is revoked `role`. `sender` is the account that originated the contract call:   - if using `revokeRole`, it is the admin role bearer   - if using `renounceRole`, it is the role bearer (i.e. `account`)"
      }
    },
    "kind": "dev",
    "methods": {
      "getRoleAdmin(bytes32)": {
        "details": "Returns the admin role that controls `role`. See {grantRole} and {revokeRole}. To change a role's admin, use {_setRoleAdmin}."
      },
      "getTreasuryFee(uint256)": {
        "details": "Calculates the treasury fee for a given amount",
        "params": {
          "amount": "The amount to calculate the treasury fee for"
        },
        "returns": {
          "_0": "The treasury fee in the same unit as the amount"
        }
      },
      "grantRole(bytes32,address)": {
        "details": "Grants `role` to `account`. If `account` had not been already granted `role`, emits a {RoleGranted} event. Requirements: - the caller must have ``role``'s admin role. May emit a {RoleGranted} event."
      },
      "hasRole(bytes32,address)": {
        "details": "Returns `true` if `account` has been granted `role`."
      },
      "renounceRole(bytes32,address)": {
        "details": "Revokes `role` from the calling account. Roles are often managed via {grantRole} and {revokeRole}: this function's purpose is to provide a mechanism for accounts to lose their privileges if they are compromised (such as when a trusted device is misplaced). If the calling account had been revoked `role`, emits a {RoleRevoked} event. Requirements: - the caller must be `callerConfirmation`. May emit a {RoleRevoked} event."
      },
      "revokeRole(bytes32,address)": {
        "details": "Revokes `role` from `account`. If `account` had been granted `role`, emits a {RoleRevoked} event. Requirements: - the caller must have ``role``'s admin role. May emit a {RoleRevoked} event."
      },
      "setDLendRewardsController(address)": {
        "details": "Only callable by DEFAULT_ADMIN_ROLE.",
        "params": {
          "_newDLendRewardsController": "The address of the new rewards controller."
        }
      },
      "setExchangeThreshold(uint256)": {
        "details": "Sets the minimum threshold for exchange operations",
        "params": {
          "newExchangeThreshold": "New minimum threshold amount"
        }
      },
      "setTreasury(address)": {
        "details": "Sets the treasury address",
        "params": {
          "newTreasury": "The new treasury address"
        }
      },
      "setTreasuryFeeBps(uint256)": {
        "details": "Sets the treasury fee in basis points",
        "params": {
          "newTreasuryFeeBps": "New treasury fee in basis points (100 = 1bps = 0.01%)"
        }
      },
      "supportsInterface(bytes4)": {
        "details": "See {IERC165-supportsInterface}."
      }
    },
    "title": "DStakeRewardManagerDLend",
    "version": 1
  },
  "userdoc": {
    "kind": "user",
    "methods": {
      "compoundRewards(uint256,address[],address)": {
        "notice": "Override to deposit exchangeAsset for wrapper positions before claiming rewards and distribute rewards"
      },
      "setDLendRewardsController(address)": {
        "notice": "Sets the address of the dLEND RewardsController contract."
      }
    },
    "notice": "Manages claiming of dLEND rewards earned by a specific StaticATokenLM wrapper         (associated with a DStakeCollateralVault) and compounds dStable (provided by a caller)         into the DStakeCollateralVault.",
    "version": 1
  },
  "storageLayout": {
    "storage": [
      {
        "astId": 193,
        "contract": "contracts/vaults/dstake/rewards/DStakeRewardManagerDLend.sol:DStakeRewardManagerDLend",
        "label": "_roles",
        "offset": 0,
        "slot": "0",
        "type": "t_mapping(t_bytes32,t_struct(RoleData)188_storage)"
      },
      {
        "astId": 5495,
        "contract": "contracts/vaults/dstake/rewards/DStakeRewardManagerDLend.sol:DStakeRewardManagerDLend",
        "label": "_status",
        "offset": 0,
        "slot": "1",
        "type": "t_uint256"
      },
      {
        "astId": 96505,
        "contract": "contracts/vaults/dstake/rewards/DStakeRewardManagerDLend.sol:DStakeRewardManagerDLend",
        "label": "treasury",
        "offset": 0,
        "slot": "2",
        "type": "t_address"
      },
      {
        "astId": 96507,
        "contract": "contracts/vaults/dstake/rewards/DStakeRewardManagerDLend.sol:DStakeRewardManagerDLend",
        "label": "treasuryFeeBps",
        "offset": 0,
        "slot": "3",
        "type": "t_uint256"
      },
      {
        "astId": 96509,
        "contract": "contracts/vaults/dstake/rewards/DStakeRewardManagerDLend.sol:DStakeRewardManagerDLend",
        "label": "exchangeThreshold",
        "offset": 0,
        "slot": "4",
        "type": "t_uint256"
      },
      {
        "astId": 95912,
        "contract": "contracts/vaults/dstake/rewards/DStakeRewardManagerDLend.sol:DStakeRewardManagerDLend",
        "label": "dLendRewardsController",
        "offset": 0,
        "slot": "5",
        "type": "t_contract(IDLendRewardsController)95897"
      }
    ],
    "types": {
      "t_address": {
        "encoding": "inplace",
        "label": "address",
        "numberOfBytes": "20"
      },
      "t_bool": {
        "encoding": "inplace",
        "label": "bool",
        "numberOfBytes": "1"
      },
      "t_bytes32": {
        "encoding": "inplace",
        "label": "bytes32",
        "numberOfBytes": "32"
      },
      "t_contract(IDLendRewardsController)95897": {
        "encoding": "inplace",
        "label": "contract IDLendRewardsController",
        "numberOfBytes": "20"
      },
      "t_mapping(t_address,t_bool)": {
        "encoding": "mapping",
        "key": "t_address",
        "label": "mapping(address => bool)",
        "numberOfBytes": "32",
        "value": "t_bool"
      },
      "t_mapping(t_bytes32,t_struct(RoleData)188_storage)": {
        "encoding": "mapping",
        "key": "t_bytes32",
        "label": "mapping(bytes32 => struct AccessControl.RoleData)",
        "numberOfBytes": "32",
        "value": "t_struct(RoleData)188_storage"
      },
      "t_struct(RoleData)188_storage": {
        "encoding": "inplace",
        "label": "struct AccessControl.RoleData",
        "members": [
          {
            "astId": 185,
            "contract": "contracts/vaults/dstake/rewards/DStakeRewardManagerDLend.sol:DStakeRewardManagerDLend",
            "label": "hasRole",
            "offset": 0,
            "slot": "0",
            "type": "t_mapping(t_address,t_bool)"
          },
          {
            "astId": 187,
            "contract": "contracts/vaults/dstake/rewards/DStakeRewardManagerDLend.sol:DStakeRewardManagerDLend",
            "label": "adminRole",
            "offset": 0,
            "slot": "1",
            "type": "t_bytes32"
          }
        ],
        "numberOfBytes": "64"
      },
      "t_uint256": {
        "encoding": "inplace",
        "label": "uint256",
        "numberOfBytes": "32"
      }
    }
  }
}