{
  "address": "0x0f51B15939A42bD995Ecd3A2C151dC58621856C6",
  "abi": [
    {
      "inputs": [],
      "stateMutability": "nonpayable",
      "type": "constructor"
    },
    {
      "inputs": [
        {
          "internalType": "uint256",
          "name": "shares",
          "type": "uint256"
        },
        {
          "internalType": "uint256",
          "name": "maxShares",
          "type": "uint256"
        }
      ],
      "name": "ERC4626ExceedsMaxRedeem",
      "type": "error"
    },
    {
      "inputs": [
        {
          "internalType": "uint256",
          "name": "assets",
          "type": "uint256"
        },
        {
          "internalType": "uint256",
          "name": "maxAssets",
          "type": "uint256"
        }
      ],
      "name": "ERC4626ExceedsMaxWithdraw",
      "type": "error"
    },
    {
      "inputs": [
        {
          "internalType": "uint256",
          "name": "feeBps",
          "type": "uint256"
        },
        {
          "internalType": "uint256",
          "name": "maxFeeBps",
          "type": "uint256"
        }
      ],
      "name": "InitialFeeExceedsMaxFee",
      "type": "error"
    },
    {
      "inputs": [
        {
          "internalType": "uint256",
          "name": "feeBps",
          "type": "uint256"
        },
        {
          "internalType": "uint256",
          "name": "maxFeeBps",
          "type": "uint256"
        }
      ],
      "name": "InvalidFeeBps",
      "type": "error"
    },
    {
      "inputs": [],
      "name": "MathOverflowedMulDiv",
      "type": "error"
    },
    {
      "inputs": [],
      "name": "ZeroAddress",
      "type": "error"
    },
    {
      "inputs": [],
      "name": "ZeroShares",
      "type": "error"
    },
    {
      "anonymous": false,
      "inputs": [
        {
          "indexed": true,
          "internalType": "address",
          "name": "owner",
          "type": "address"
        },
        {
          "indexed": true,
          "internalType": "address",
          "name": "spender",
          "type": "address"
        },
        {
          "indexed": false,
          "internalType": "uint256",
          "name": "value",
          "type": "uint256"
        }
      ],
      "name": "Approval",
      "type": "event"
    },
    {
      "anonymous": false,
      "inputs": [
        {
          "indexed": true,
          "internalType": "address",
          "name": "collateralVault",
          "type": "address"
        }
      ],
      "name": "CollateralVaultSet",
      "type": "event"
    },
    {
      "anonymous": false,
      "inputs": [
        {
          "indexed": true,
          "internalType": "address",
          "name": "sender",
          "type": "address"
        },
        {
          "indexed": true,
          "internalType": "address",
          "name": "owner",
          "type": "address"
        },
        {
          "indexed": false,
          "internalType": "uint256",
          "name": "assets",
          "type": "uint256"
        },
        {
          "indexed": false,
          "internalType": "uint256",
          "name": "shares",
          "type": "uint256"
        }
      ],
      "name": "Deposit",
      "type": "event"
    },
    {
      "anonymous": false,
      "inputs": [
        {
          "indexed": false,
          "internalType": "uint8",
          "name": "version",
          "type": "uint8"
        }
      ],
      "name": "Initialized",
      "type": "event"
    },
    {
      "anonymous": false,
      "inputs": [
        {
          "indexed": true,
          "internalType": "bytes32",
          "name": "role",
          "type": "bytes32"
        },
        {
          "indexed": true,
          "internalType": "bytes32",
          "name": "previousAdminRole",
          "type": "bytes32"
        },
        {
          "indexed": true,
          "internalType": "bytes32",
          "name": "newAdminRole",
          "type": "bytes32"
        }
      ],
      "name": "RoleAdminChanged",
      "type": "event"
    },
    {
      "anonymous": false,
      "inputs": [
        {
          "indexed": true,
          "internalType": "bytes32",
          "name": "role",
          "type": "bytes32"
        },
        {
          "indexed": true,
          "internalType": "address",
          "name": "account",
          "type": "address"
        },
        {
          "indexed": true,
          "internalType": "address",
          "name": "sender",
          "type": "address"
        }
      ],
      "name": "RoleGranted",
      "type": "event"
    },
    {
      "anonymous": false,
      "inputs": [
        {
          "indexed": true,
          "internalType": "bytes32",
          "name": "role",
          "type": "bytes32"
        },
        {
          "indexed": true,
          "internalType": "address",
          "name": "account",
          "type": "address"
        },
        {
          "indexed": true,
          "internalType": "address",
          "name": "sender",
          "type": "address"
        }
      ],
      "name": "RoleRevoked",
      "type": "event"
    },
    {
      "anonymous": false,
      "inputs": [
        {
          "indexed": true,
          "internalType": "address",
          "name": "router",
          "type": "address"
        }
      ],
      "name": "RouterSet",
      "type": "event"
    },
    {
      "anonymous": false,
      "inputs": [
        {
          "indexed": true,
          "internalType": "address",
          "name": "from",
          "type": "address"
        },
        {
          "indexed": true,
          "internalType": "address",
          "name": "to",
          "type": "address"
        },
        {
          "indexed": false,
          "internalType": "uint256",
          "name": "value",
          "type": "uint256"
        }
      ],
      "name": "Transfer",
      "type": "event"
    },
    {
      "anonymous": false,
      "inputs": [
        {
          "indexed": true,
          "internalType": "address",
          "name": "sender",
          "type": "address"
        },
        {
          "indexed": true,
          "internalType": "address",
          "name": "receiver",
          "type": "address"
        },
        {
          "indexed": true,
          "internalType": "address",
          "name": "owner",
          "type": "address"
        },
        {
          "indexed": false,
          "internalType": "uint256",
          "name": "assets",
          "type": "uint256"
        },
        {
          "indexed": false,
          "internalType": "uint256",
          "name": "shares",
          "type": "uint256"
        }
      ],
      "name": "Withdraw",
      "type": "event"
    },
    {
      "anonymous": false,
      "inputs": [
        {
          "indexed": true,
          "internalType": "address",
          "name": "owner",
          "type": "address"
        },
        {
          "indexed": true,
          "internalType": "address",
          "name": "receiver",
          "type": "address"
        },
        {
          "indexed": false,
          "internalType": "uint256",
          "name": "feeAmount",
          "type": "uint256"
        }
      ],
      "name": "WithdrawalFee",
      "type": "event"
    },
    {
      "anonymous": false,
      "inputs": [
        {
          "indexed": false,
          "internalType": "uint256",
          "name": "newFeeBps",
          "type": "uint256"
        }
      ],
      "name": "WithdrawalFeeSet",
      "type": "event"
    },
    {
      "inputs": [],
      "name": "DEFAULT_ADMIN_ROLE",
      "outputs": [
        {
          "internalType": "bytes32",
          "name": "",
          "type": "bytes32"
        }
      ],
      "stateMutability": "view",
      "type": "function"
    },
    {
      "inputs": [],
      "name": "FEE_MANAGER_ROLE",
      "outputs": [
        {
          "internalType": "bytes32",
          "name": "",
          "type": "bytes32"
        }
      ],
      "stateMutability": "view",
      "type": "function"
    },
    {
      "inputs": [],
      "name": "MAX_WITHDRAWAL_FEE_BPS",
      "outputs": [
        {
          "internalType": "uint256",
          "name": "",
          "type": "uint256"
        }
      ],
      "stateMutability": "view",
      "type": "function"
    },
    {
      "inputs": [
        {
          "internalType": "address",
          "name": "owner",
          "type": "address"
        },
        {
          "internalType": "address",
          "name": "spender",
          "type": "address"
        }
      ],
      "name": "allowance",
      "outputs": [
        {
          "internalType": "uint256",
          "name": "",
          "type": "uint256"
        }
      ],
      "stateMutability": "view",
      "type": "function"
    },
    {
      "inputs": [
        {
          "internalType": "address",
          "name": "spender",
          "type": "address"
        },
        {
          "internalType": "uint256",
          "name": "amount",
          "type": "uint256"
        }
      ],
      "name": "approve",
      "outputs": [
        {
          "internalType": "bool",
          "name": "",
          "type": "bool"
        }
      ],
      "stateMutability": "nonpayable",
      "type": "function"
    },
    {
      "inputs": [],
      "name": "asset",
      "outputs": [
        {
          "internalType": "address",
          "name": "",
          "type": "address"
        }
      ],
      "stateMutability": "view",
      "type": "function"
    },
    {
      "inputs": [
        {
          "internalType": "address",
          "name": "account",
          "type": "address"
        }
      ],
      "name": "balanceOf",
      "outputs": [
        {
          "internalType": "uint256",
          "name": "",
          "type": "uint256"
        }
      ],
      "stateMutability": "view",
      "type": "function"
    },
    {
      "inputs": [],
      "name": "collateralVault",
      "outputs": [
        {
          "internalType": "contract IDStakeCollateralVault",
          "name": "",
          "type": "address"
        }
      ],
      "stateMutability": "view",
      "type": "function"
    },
    {
      "inputs": [
        {
          "internalType": "uint256",
          "name": "shares",
          "type": "uint256"
        }
      ],
      "name": "convertToAssets",
      "outputs": [
        {
          "internalType": "uint256",
          "name": "",
          "type": "uint256"
        }
      ],
      "stateMutability": "view",
      "type": "function"
    },
    {
      "inputs": [
        {
          "internalType": "uint256",
          "name": "assets",
          "type": "uint256"
        }
      ],
      "name": "convertToShares",
      "outputs": [
        {
          "internalType": "uint256",
          "name": "",
          "type": "uint256"
        }
      ],
      "stateMutability": "view",
      "type": "function"
    },
    {
      "inputs": [],
      "name": "decimals",
      "outputs": [
        {
          "internalType": "uint8",
          "name": "",
          "type": "uint8"
        }
      ],
      "stateMutability": "view",
      "type": "function"
    },
    {
      "inputs": [
        {
          "internalType": "address",
          "name": "spender",
          "type": "address"
        },
        {
          "internalType": "uint256",
          "name": "subtractedValue",
          "type": "uint256"
        }
      ],
      "name": "decreaseAllowance",
      "outputs": [
        {
          "internalType": "bool",
          "name": "",
          "type": "bool"
        }
      ],
      "stateMutability": "nonpayable",
      "type": "function"
    },
    {
      "inputs": [
        {
          "internalType": "uint256",
          "name": "assets",
          "type": "uint256"
        },
        {
          "internalType": "address",
          "name": "receiver",
          "type": "address"
        }
      ],
      "name": "deposit",
      "outputs": [
        {
          "internalType": "uint256",
          "name": "",
          "type": "uint256"
        }
      ],
      "stateMutability": "nonpayable",
      "type": "function"
    },
    {
      "inputs": [
        {
          "internalType": "bytes32",
          "name": "role",
          "type": "bytes32"
        }
      ],
      "name": "getRoleAdmin",
      "outputs": [
        {
          "internalType": "bytes32",
          "name": "",
          "type": "bytes32"
        }
      ],
      "stateMutability": "view",
      "type": "function"
    },
    {
      "inputs": [],
      "name": "getWithdrawalFeeBps",
      "outputs": [
        {
          "internalType": "uint256",
          "name": "",
          "type": "uint256"
        }
      ],
      "stateMutability": "view",
      "type": "function"
    },
    {
      "inputs": [
        {
          "internalType": "bytes32",
          "name": "role",
          "type": "bytes32"
        },
        {
          "internalType": "address",
          "name": "account",
          "type": "address"
        }
      ],
      "name": "grantRole",
      "outputs": [],
      "stateMutability": "nonpayable",
      "type": "function"
    },
    {
      "inputs": [
        {
          "internalType": "bytes32",
          "name": "role",
          "type": "bytes32"
        },
        {
          "internalType": "address",
          "name": "account",
          "type": "address"
        }
      ],
      "name": "hasRole",
      "outputs": [
        {
          "internalType": "bool",
          "name": "",
          "type": "bool"
        }
      ],
      "stateMutability": "view",
      "type": "function"
    },
    {
      "inputs": [
        {
          "internalType": "address",
          "name": "spender",
          "type": "address"
        },
        {
          "internalType": "uint256",
          "name": "addedValue",
          "type": "uint256"
        }
      ],
      "name": "increaseAllowance",
      "outputs": [
        {
          "internalType": "bool",
          "name": "",
          "type": "bool"
        }
      ],
      "stateMutability": "nonpayable",
      "type": "function"
    },
    {
      "inputs": [
        {
          "internalType": "contract IERC20Upgradeable",
          "name": "_dStable",
          "type": "address"
        },
        {
          "internalType": "string",
          "name": "_name",
          "type": "string"
        },
        {
          "internalType": "string",
          "name": "_symbol",
          "type": "string"
        },
        {
          "internalType": "address",
          "name": "_initialAdmin",
          "type": "address"
        },
        {
          "internalType": "address",
          "name": "_initialFeeManager",
          "type": "address"
        }
      ],
      "name": "initialize",
      "outputs": [],
      "stateMutability": "nonpayable",
      "type": "function"
    },
    {
      "inputs": [
        {
          "internalType": "address",
          "name": "",
          "type": "address"
        }
      ],
      "name": "maxDeposit",
      "outputs": [
        {
          "internalType": "uint256",
          "name": "",
          "type": "uint256"
        }
      ],
      "stateMutability": "view",
      "type": "function"
    },
    {
      "inputs": [
        {
          "internalType": "address",
          "name": "",
          "type": "address"
        }
      ],
      "name": "maxMint",
      "outputs": [
        {
          "internalType": "uint256",
          "name": "",
          "type": "uint256"
        }
      ],
      "stateMutability": "view",
      "type": "function"
    },
    {
      "inputs": [
        {
          "internalType": "address",
          "name": "owner",
          "type": "address"
        }
      ],
      "name": "maxRedeem",
      "outputs": [
        {
          "internalType": "uint256",
          "name": "",
          "type": "uint256"
        }
      ],
      "stateMutability": "view",
      "type": "function"
    },
    {
      "inputs": [
        {
          "internalType": "address",
          "name": "owner",
          "type": "address"
        }
      ],
      "name": "maxWithdraw",
      "outputs": [
        {
          "internalType": "uint256",
          "name": "",
          "type": "uint256"
        }
      ],
      "stateMutability": "view",
      "type": "function"
    },
    {
      "inputs": [],
      "name": "maxWithdrawalFeeBps",
      "outputs": [
        {
          "internalType": "uint256",
          "name": "",
          "type": "uint256"
        }
      ],
      "stateMutability": "view",
      "type": "function"
    },
    {
      "inputs": [
        {
          "internalType": "uint256",
          "name": "shares",
          "type": "uint256"
        },
        {
          "internalType": "address",
          "name": "receiver",
          "type": "address"
        }
      ],
      "name": "mint",
      "outputs": [
        {
          "internalType": "uint256",
          "name": "",
          "type": "uint256"
        }
      ],
      "stateMutability": "nonpayable",
      "type": "function"
    },
    {
      "inputs": [],
      "name": "name",
      "outputs": [
        {
          "internalType": "string",
          "name": "",
          "type": "string"
        }
      ],
      "stateMutability": "view",
      "type": "function"
    },
    {
      "inputs": [
        {
          "internalType": "uint256",
          "name": "assets",
          "type": "uint256"
        }
      ],
      "name": "previewDeposit",
      "outputs": [
        {
          "internalType": "uint256",
          "name": "",
          "type": "uint256"
        }
      ],
      "stateMutability": "view",
      "type": "function"
    },
    {
      "inputs": [
        {
          "internalType": "uint256",
          "name": "shares",
          "type": "uint256"
        }
      ],
      "name": "previewMint",
      "outputs": [
        {
          "internalType": "uint256",
          "name": "",
          "type": "uint256"
        }
      ],
      "stateMutability": "view",
      "type": "function"
    },
    {
      "inputs": [
        {
          "internalType": "uint256",
          "name": "shares",
          "type": "uint256"
        }
      ],
      "name": "previewRedeem",
      "outputs": [
        {
          "internalType": "uint256",
          "name": "",
          "type": "uint256"
        }
      ],
      "stateMutability": "view",
      "type": "function"
    },
    {
      "inputs": [
        {
          "internalType": "uint256",
          "name": "assets",
          "type": "uint256"
        }
      ],
      "name": "previewWithdraw",
      "outputs": [
        {
          "internalType": "uint256",
          "name": "",
          "type": "uint256"
        }
      ],
      "stateMutability": "view",
      "type": "function"
    },
    {
      "inputs": [
        {
          "internalType": "uint256",
          "name": "shares",
          "type": "uint256"
        },
        {
          "internalType": "address",
          "name": "receiver",
          "type": "address"
        },
        {
          "internalType": "address",
          "name": "owner",
          "type": "address"
        }
      ],
      "name": "redeem",
      "outputs": [
        {
          "internalType": "uint256",
          "name": "assets",
          "type": "uint256"
        }
      ],
      "stateMutability": "nonpayable",
      "type": "function"
    },
    {
      "inputs": [
        {
          "internalType": "bytes32",
          "name": "role",
          "type": "bytes32"
        },
        {
          "internalType": "address",
          "name": "account",
          "type": "address"
        }
      ],
      "name": "renounceRole",
      "outputs": [],
      "stateMutability": "nonpayable",
      "type": "function"
    },
    {
      "inputs": [
        {
          "internalType": "bytes32",
          "name": "role",
          "type": "bytes32"
        },
        {
          "internalType": "address",
          "name": "account",
          "type": "address"
        }
      ],
      "name": "revokeRole",
      "outputs": [],
      "stateMutability": "nonpayable",
      "type": "function"
    },
    {
      "inputs": [],
      "name": "router",
      "outputs": [
        {
          "internalType": "contract IDStakeRouter",
          "name": "",
          "type": "address"
        }
      ],
      "stateMutability": "view",
      "type": "function"
    },
    {
      "inputs": [
        {
          "internalType": "address",
          "name": "_collateralVault",
          "type": "address"
        }
      ],
      "name": "setCollateralVault",
      "outputs": [],
      "stateMutability": "nonpayable",
      "type": "function"
    },
    {
      "inputs": [
        {
          "internalType": "address",
          "name": "_router",
          "type": "address"
        }
      ],
      "name": "setRouter",
      "outputs": [],
      "stateMutability": "nonpayable",
      "type": "function"
    },
    {
      "inputs": [
        {
          "internalType": "uint256",
          "name": "_feeBps",
          "type": "uint256"
        }
      ],
      "name": "setWithdrawalFee",
      "outputs": [],
      "stateMutability": "nonpayable",
      "type": "function"
    },
    {
      "inputs": [
        {
          "internalType": "bytes4",
          "name": "interfaceId",
          "type": "bytes4"
        }
      ],
      "name": "supportsInterface",
      "outputs": [
        {
          "internalType": "bool",
          "name": "",
          "type": "bool"
        }
      ],
      "stateMutability": "view",
      "type": "function"
    },
    {
      "inputs": [],
      "name": "symbol",
      "outputs": [
        {
          "internalType": "string",
          "name": "",
          "type": "string"
        }
      ],
      "stateMutability": "view",
      "type": "function"
    },
    {
      "inputs": [],
      "name": "totalAssets",
      "outputs": [
        {
          "internalType": "uint256",
          "name": "",
          "type": "uint256"
        }
      ],
      "stateMutability": "view",
      "type": "function"
    },
    {
      "inputs": [],
      "name": "totalSupply",
      "outputs": [
        {
          "internalType": "uint256",
          "name": "",
          "type": "uint256"
        }
      ],
      "stateMutability": "view",
      "type": "function"
    },
    {
      "inputs": [
        {
          "internalType": "address",
          "name": "to",
          "type": "address"
        },
        {
          "internalType": "uint256",
          "name": "amount",
          "type": "uint256"
        }
      ],
      "name": "transfer",
      "outputs": [
        {
          "internalType": "bool",
          "name": "",
          "type": "bool"
        }
      ],
      "stateMutability": "nonpayable",
      "type": "function"
    },
    {
      "inputs": [
        {
          "internalType": "address",
          "name": "from",
          "type": "address"
        },
        {
          "internalType": "address",
          "name": "to",
          "type": "address"
        },
        {
          "internalType": "uint256",
          "name": "amount",
          "type": "uint256"
        }
      ],
      "name": "transferFrom",
      "outputs": [
        {
          "internalType": "bool",
          "name": "",
          "type": "bool"
        }
      ],
      "stateMutability": "nonpayable",
      "type": "function"
    },
    {
      "inputs": [
        {
          "internalType": "uint256",
          "name": "assets",
          "type": "uint256"
        },
        {
          "internalType": "address",
          "name": "receiver",
          "type": "address"
        },
        {
          "internalType": "address",
          "name": "owner",
          "type": "address"
        }
      ],
      "name": "withdraw",
      "outputs": [
        {
          "internalType": "uint256",
          "name": "shares",
          "type": "uint256"
        }
      ],
      "stateMutability": "nonpayable",
      "type": "function"
    },
    {
      "inputs": [],
      "name": "withdrawalFeeBps",
      "outputs": [
        {
          "internalType": "uint256",
          "name": "",
          "type": "uint256"
        }
      ],
      "stateMutability": "view",
      "type": "function"
    }
  ],
  "transactionHash": "0xddf6fd9a0de20bcd118fbb8b51efba801e46ed7844fcb6ea5d4b227638ebaee4",
  "args": [],
  "numDeployments": 1,
  "solcInputHash": "2ee1fc521080dfd2705abb825cf764e5",
  "bytecode": "0x608080604052346100c1576000549060ff8260081c1661006f575060ff80821603610034575b6040516129ea90816100c78239f35b60ff90811916176000557f7f26b83ff96e1f2b6a682f133852f6798a09c465da95921460cefb3847402498602060405160ff8152a138610025565b62461bcd60e51b815260206004820152602760248201527f496e697469616c697a61626c653a20636f6e747261637420697320696e697469604482015266616c697a696e6760c81b6064820152608490fd5b600080fdfe6080604052600436101561001257600080fd5b60003560e01c806301e1d1141461158b57806301ffc9a71461153557806304336bb3146109b057806305db2f41146114fa57806306fdde031461146457806307a2d13a14611446578063095ea7b3146114205780630a28a477146113fa5780630bece79c146113d157806318160ddd146113b35780631bbf12241461046757806323b872dd1461137b578063248a9ca31461134c5780632f2ff15d14611299578063313ce567146111fd57806336568abe1461116b57806338d52e0f1461114257806339509351146110f1578063402d267d146103605780634cdad506146110d057806368a806c4146110675780636cf1dbed14610a015780636e553f65146109ce57806370a082311461028f57806387451437146109b057806391d148541461096357806394bf804d1461093057806395d89b411461085f578063a217fddf14610843578063a457c2d71461079c578063a9059cbb1461076b578063ac1e502514610518578063b3d7f6b9146104fa578063b460af9414610484578063b6783edd14610467578063ba087652146103e0578063c0d7865514610365578063c63d75b614610360578063c6e6f59214610239578063ce96cb7714610311578063d547741f146102d0578063d905777e1461028f578063dd62ed3e1461023e578063ef8b30f7146102395763f887ea401461020b57600080fd5b346102345760003660031901126102345760fd546040516001600160a01b039091168152602090f35b600080fd5b61174d565b34610234576040366003190112610234576102576115f5565b61025f61160b565b9060018060a01b038091166000526034602052604060002091166000526020526020604060002054604051908152f35b346102345760203660031901126102345760206102c86102ad6115f5565b6001600160a01b031660009081526033602052604090205490565b604051908152f35b346102345760403660031901126102345761030f6004356102ef61160b565b908060005260c960205261030a600160406000200154611d7f565b611e8a565b005b34610234576020366003190112610234576001600160a01b036103326115f5565b16600052603360205260206102c861034e604060002054611823565b61035a60fb548261255c565b9061197e565b611621565b346102345760203660031901126102345761037e6115f5565b610386611bb7565b6001600160a01b031680156103ce5760fd80546001600160a01b031916821790557fc6b438e6a8a59579ce6a4406cbd203b740e0d47b458aae6596339bcd40c40d15600080a2005b60405163d92e233d60e01b8152600490fd5b34610234576103ee36611718565b6103f9839293611823565b6001600160a01b038216600090815260336020526040902054909390831161042e576102c892846020959361034e933361227e565b6001600160a01b03821660009081526033602052604090205460449084905b6040519163024a2e0560e61b835260048301526024820152fd5b346102345760003660031901126102345760206040516127108152f35b346102345761049d61049536611718565b92909161198b565b6104a6816124bc565b6001600160a01b03841660009081526033602052604090205490929083116104d7576102c89160209484923361227e565b6001600160a01b038416600090815260336020526040902054604490849061044d565b346102345760203660031901126102345760206102c8600435611851565b3461023457602080600319360112610234576004357f6c0757dc3e6b28b2580c03fd9e96c274acf4f99d91fbec9b418fa1d70604ff1c8060005260c98352604060002033600052835260ff60406000205416156105c857506127108082116105aa577f48dcfdaa10944928da945a9017941a9e4118df541fb7d429104f5372e9eb994f83838060fb55604051908152a1005b604492506040519163080b349760e01b835260048301526024820152fd5b90506105d333612723565b604051906105e082611677565b60428252838201926060368537825115610755576030845382516001906001101561075557607860218501536041905b8082116106fb5750506106b8576106b4936106649361069c9361068d604894604051978576020b1b1b2b9b9a1b7b73a3937b61d1030b1b1b7bab73a1604d1b8a9788015282519283916037890191016115a6565b8401917001034b99036b4b9b9b4b733903937b6329607d1b6037840152518093868401906115a6565b01036028810184520182611693565b60405162461bcd60e51b8152918291600483016115c9565b0390fd5b6064846040519062461bcd60e51b825280600483015260248201527f537472696e67733a20686578206c656e67746820696e73756666696369656e746044820152fd5b9091600f81166010811015610755576f181899199a1a9b1b9c1cb0b131b232b360811b901a61072a8487612712565b5360041c91801561073f576000190190610610565b634e487b7160e01b600052601160045260246000fd5b634e487b7160e01b600052603260045260246000fd5b34610234576040366003190112610234576107916107876115f5565b6024359033611a47565b602060405160018152f35b34610234576040366003190112610234576107b56115f5565b60243590336000526034602052604060002060018060a01b038216600052602052604060002054918083106107f0576107919203903361187c565b60405162461bcd60e51b815260206004820152602560248201527f45524332303a2064656372656173656420616c6c6f77616e63652062656c6f77604482015264207a65726f60d81b6064820152608490fd5b3461023457600036600319011261023457602060405160008152f35b34610234576000366003190112610234576040516000603754610881816117dc565b8084529060209060019081811690811561090657506001146108be575b6108ba856108ae81870382611693565b604051918291826115c9565b0390f35b6037600090815293506000805160206129958339815191525b8385106108f3575050505081016020016108ae826108ba61089e565b80548686018401529382019381016108d7565b8695506108ba969350602092506108ae94915060ff191682840152151560051b820101929361089e565b346102345760403660031901126102345760206004356102c861095161160b565b9161095b81611851565b809333611f78565b346102345760403660031901126102345761097c61160b565b60043560005260c960205260406000209060018060a01b0316600052602052602060ff604060002054166040519015158152f35b3461023457600036600319011261023457602060fb54604051908152f35b346102345760403660031901126102345760206004356102c86109ef61160b565b6109f8836124e7565b92839133611f78565b346102345760a0366003190112610234576001600160a01b0360043580821690036102345760243567ffffffffffffffff811161023457610a469036906004016116d1565b9060443567ffffffffffffffff811161023457610a679036906004016116d1565b90606435818116810361023457608435928284168403610234576000549460ff8660081c16159586809761105a575b8015611043575b15610fe75760ff19811660011760005586610fd5575b50610ace60ff60005460081c16610ac981611f00565b611f00565b80519067ffffffffffffffff8211610ec8578190610aed6036546117dc565b601f8111610f61575b50602090601f8311600114610ee957600092610ede575b50508160011b916000199060031b1c1916176036555b80519067ffffffffffffffff8211610ec8578190610b426037546117dc565b601f8111610e51575b50602090601f8311600114610ddd57600092610dd2575b50508160011b916000199060031b1c1916176037555b610bd660ff60005460081c16610b8d81611f00565b610b9681611f00565b610ba1600435612863565b9015610dca575b60655485600435169160ff60a01b9060a01b16906affffffffffffffffffffff60a81b161717606555611f00565b600060fb557f48dcfdaa10944928da945a9017941a9e4118df541fb7d429104f5372e9eb994f602060405160008152a18160043516158015610dc0575b8015610db6575b6103ce5780821660009081527f81fe90a866a48a634a12852c1be675b683a22307409932a7443b8029347be756602052604090205460ff1615610d4f575b5081811660009081527fa36303cdd0069b298f7bfb1074d3df9cf7c49999d3c4d11d7414189a03c7aaac60205260409020547f6c0757dc3e6b28b2580c03fd9e96c274acf4f99d91fbec9b418fa1d70604ff1c919060ff1615610cf7575b505050610cbf57005b61ff0019600054166000557f7f26b83ff96e1f2b6a682f133852f6798a09c465da95921460cefb3847402498602060405160018152a1005b8160005260c960205260406000208184166000526020526040600020600160ff19825416179055339216907f2f8788117e7eff1d82e926ec794901d17c78024a50270940304540a733656f0d600080a4818080610cb6565b811660008181527f81fe90a866a48a634a12852c1be675b683a22307409932a7443b8029347be75660205260408120805460ff191660011790553391907f2f8788117e7eff1d82e926ec794901d17c78024a50270940304540a733656f0d8180a483610c58565b5081831615610c1a565b5081811615610c13565b506012610ba8565b015190508680610b62565b603760009081526000805160206129958339815191529350601f198516905b818110610e395750908460019594939210610e20575b505050811b01603755610b78565b015160001960f88460031b161c19169055868080610e12565b92936020600181928786015181550195019301610dfc565b9091506037600052601f830160051c600080516020612995833981519152019060208410610eb2575b90601f8493920160051c60008051602061299583398151915201905b818110610ea35750610b4b565b60008155849350600101610e96565b6000805160206129958339815191529150610e7a565b634e487b7160e01b600052604160045260246000fd5b015190508780610b0d565b92506036600052600080516020612975833981519152906000935b601f1984168510610f46576001945083601f19811610610f2d575b505050811b01603655610b23565b015160001960f88460031b161c19169055878080610f1f565b81810151835560209485019460019093019290910190610f04565b9091506036600052601f830160051c6000805160206129758339815191520160208410610fc0575b908392915b601f820160051c600080516020612975833981519152018110610fb15750610af6565b60008155849350600101610f8e565b50600080516020612975833981519152610f89565b61ffff19166101011760005586610ab3565b60405162461bcd60e51b815260206004820152602e60248201527f496e697469616c697a61626c653a20636f6e747261637420697320616c72656160448201526d191e481a5b9a5d1a585b1a5e995960921b6064820152608490fd5b50303b158015610a9d5750600160ff821614610a9d565b50600160ff821610610a96565b34610234576020366003190112610234576110806115f5565b611088611bb7565b6001600160a01b031680156103ce5760fc80546001600160a01b031916821790557fc92ec24b34ad9d3aa14cd5be87b888d7790d40903da5f44c6367b2fb6cdb2083600080a2005b346102345760203660031901126102345760206102c861034e600435611823565b346102345760403660031901126102345761079161110d6115f5565b336000526034602052604060002060018060a01b03821660005260205261113b602435604060002054611816565b903361187c565b34610234576000366003190112610234576065546040516001600160a01b039091168152602090f35b346102345760403660031901126102345761118461160b565b336001600160a01b038216036111a05761030f90600435611e8a565b60405162461bcd60e51b815260206004820152602f60248201527f416363657373436f6e74726f6c3a2063616e206f6e6c792072656e6f756e636560448201526e103937b632b9903337b91039b2b63360891b6064820152608490fd5b346102345760003660031901126102345760655460405163313ce56760e01b815290602090829060049082906001600160a01b03165afa801561128d57600090611250575b60209060ff60405191168152f35b506020813d602011611285575b8161126a60209383611693565b81010312610234575160ff8116810361023457602090611242565b3d915061125d565b6040513d6000823e3d90fd5b34610234576040366003190112610234576004356112b561160b565b8160005260c96020526112cf600160406000200154611d7f565b8160005260c960205260406000209060018060a01b0316908160005260205260ff60406000205416156112fe57005b8160005260c96020526040600020816000526020526040600020600160ff1982541617905533917f2f8788117e7eff1d82e926ec794901d17c78024a50270940304540a733656f0d600080a4005b346102345760203660031901126102345760043560005260c96020526020600160406000200154604051908152f35b34610234576060366003190112610234576107916113976115f5565b61139f61160b565b604435916113ae8333836119af565b611a47565b34610234576000366003190112610234576020603554604051908152f35b346102345760003660031901126102345760fc546040516001600160a01b039091168152602090f35b346102345760203660031901126102345760206102c861141b60043561198b565b6124bc565b346102345760403660031901126102345761079161143c6115f5565b602435903361187c565b346102345760203660031901126102345760206102c8600435611823565b34610234576000366003190112610234576040516000603654611486816117dc565b8084529060209060019081811690811561090657506001146114b2576108ba856108ae81870382611693565b6036600090815293506000805160206129758339815191525b8385106114e7575050505081016020016108ae826108ba61089e565b80548686018401529382019381016114cb565b346102345760003660031901126102345760206040517f6c0757dc3e6b28b2580c03fd9e96c274acf4f99d91fbec9b418fa1d70604ff1c8152f35b346102345760203660031901126102345760043563ffffffff60e01b811680910361023457602090637965db0b60e01b811490811561157a575b506040519015158152f35b6301ffc9a760e01b1490508261156f565b346102345760003660031901126102345760206102c861176b565b60005b8381106115b95750506000910152565b81810151838201526020016115a9565b604091602082526115e981518092816020860152602086860191016115a6565b601f01601f1916010190565b600435906001600160a01b038216820361023457565b602435906001600160a01b038216820361023457565b346102345760203660031901126102345761163a6115f5565b5060206040516000198152f35b67ffffffffffffffff8111610ec857604052565b6040810190811067ffffffffffffffff821117610ec857604052565b6080810190811067ffffffffffffffff821117610ec857604052565b90601f8019910116810190811067ffffffffffffffff821117610ec857604052565b67ffffffffffffffff8111610ec857601f01601f191660200190565b81601f82011215610234578035906116e8826116b5565b926116f66040519485611693565b8284526020838301011161023457816000926020809301838601378301015290565b606090600319011261023457600435906001600160a01b03906024358281168103610234579160443590811681036102345790565b346102345760203660031901126102345760206102c86004356124e7565b60fc546001600160a01b031680156117d65760206004916040519283809263700af38360e11b82525afa90811561128d576000916117a7575090565b90506020813d6020116117ce575b816117c260209383611693565b81010312610234575190565b3d91506117b5565b50600090565b90600182811c9216801561180c575b60208310146117f657565b634e487b7160e01b600052602260045260246000fd5b91607f16916117eb565b9190820180921161073f57565b61182b61176b565b6001810180911161073f57603554906001820180921161073f5761184e9261265f565b90565b61185961176b565b6001810180911161073f57603554906001820180921161073f5761184e92612512565b6001600160a01b0390811691821561192d57169182156118dd5760207f8c5be1e5ebec7d5bd14f71427d1e84f3dd0314c0f7b2291e5b200ac8c7c3b925918360005260348252604060002085600052825280604060002055604051908152a3565b60405162461bcd60e51b815260206004820152602260248201527f45524332303a20617070726f766520746f20746865207a65726f206164647265604482015261737360f01b6064820152608490fd5b60405162461bcd60e51b8152602060048201526024808201527f45524332303a20617070726f76652066726f6d20746865207a65726f206164646044820152637265737360e01b6064820152608490fd5b9190820391821161073f57565b60fb5480156119ab57620f424090810390811161073f5761184e916125d9565b5090565b9060018060a01b03808316600052603460205260406000209082166000526020526040600020549260001984036119e7575b50505050565b808410611a02576119f993039161187c565b388080806119e1565b60405162461bcd60e51b815260206004820152601d60248201527f45524332303a20696e73756666696369656e7420616c6c6f77616e63650000006044820152606490fd5b6001600160a01b03908116918215611b645716918215611b135760008281526033602052604081205491808310611abf57604082827fddf252ad1be2c89b69c2b068fc378daa952ba7f163c4a11628f55a4df523b3ef95876020965260338652038282205586815220818154019055604051908152a3565b60405162461bcd60e51b815260206004820152602660248201527f45524332303a207472616e7366657220616d6f756e7420657863656564732062604482015265616c616e636560d01b6064820152608490fd5b60405162461bcd60e51b815260206004820152602360248201527f45524332303a207472616e7366657220746f20746865207a65726f206164647260448201526265737360e81b6064820152608490fd5b60405162461bcd60e51b815260206004820152602560248201527f45524332303a207472616e736665722066726f6d20746865207a65726f206164604482015264647265737360d81b6064820152608490fd5b3360009081527f81fe90a866a48a634a12852c1be675b683a22307409932a7443b8029347be756602090815260408083205490929060ff1615611bf957505050565b611c0233612723565b83519082611c0f83611677565b60428352848301936060368637835115611d6b576030855383519060019160011015611d6b5790607860218601536041915b818311611cfd57505050611cbb57610664938593611ca593611c966048946106b49951988576020b1b1b2b9b9a1b7b73a3937b61d1030b1b1b7bab73a1604d1b8b9788015282519283916037890191016115a6565b01036028810185520183611693565b5162461bcd60e51b8152918291600483016115c9565b60648486519062461bcd60e51b825280600483015260248201527f537472696e67733a20686578206c656e67746820696e73756666696369656e746044820152fd5b909192600f81166010811015611d57576f181899199a1a9b1b9c1cb0b131b232b360811b901a611d2d8588612712565b5360041c928015611d4357600019019190611c41565b634e487b7160e01b82526011600452602482fd5b634e487b7160e01b83526032600452602483fd5b634e487b7160e01b81526032600452602490fd5b600081815260209060c98252604092838220338352835260ff848320541615611da85750505050565b611db133612723565b845191611dbd83611677565b60428352848301936060368637835115611d6b576030855383519060019160011015611d6b5790607860218601536041915b818311611e4457505050611cbb57610664938593611ca593611c966048946106b49951988576020b1b1b2b9b9a1b7b73a3937b61d1030b1b1b7bab73a1604d1b8b9788015282519283916037890191016115a6565b909192600f81166010811015611d57576f181899199a1a9b1b9c1cb0b131b232b360811b901a611e748588612712565b5360041c928015611d4357600019019190611def565b9060009180835260c9602052604083209160018060a01b03169182845260205260ff604084205416611ebb57505050565b80835260c9602052604083208284526020526040832060ff1981541690557ff6391f5c32d9c69d2a47ea670b442974b53935d1edc7fd64eb21e047a839171b339380a4565b15611f0757565b60405162461bcd60e51b815260206004820152602b60248201527f496e697469616c697a61626c653a20636f6e7472616374206973206e6f74206960448201526a6e697469616c697a696e6760a81b6064820152608490fd5b90816020910312610234575180151581036102345790565b92919092821561226c5760fd546001600160a01b03908116158015612260575b6103ce57806065541694604094855196602092838901986323b872dd60e01b8a5285602497169283888301523060448301528860648301526064825260a082019180831067ffffffffffffffff84111761224b57908291612041938c52611ffe8361165b565b8783527f5361666545524332303a206c6f772d6c6576656c2063616c6c206661696c656460c08201526000809d8192519082855af161203b612833565b916128e3565b805190858215928315612233575b505050156121dd57841691821561219a57878161208f7fdcbc1c05240f31ff3ad067ef1ee35ce4997762752e3a095284754544f4c709d793603554611816565b603555848b5260338652818b20818154019055848b7fddf252ad1be2c89b69c2b068fc378daa952ba7f163c4a11628f55a4df523b3ef888551858152a381519089825286820152a38581836065541660448560fd54168951948593849263095ea7b360e01b845260048401528a8a8401525af1801561219057612162575b505060fd541691823b1561215e579184929183928551968793849263b6b55f2560e01b845260048401525af19182156121545750506121495750565b61215290611647565b565b51903d90823e3d90fd5b8480fd5b8161218192903d10612189575b6121798183611693565b810190611f60565b50388061210d565b503d61216f565b86513d89823e3d90fd5b875162461bcd60e51b815260048101859052601f818801527f45524332303a206d696e7420746f20746865207a65726f2061646472657373006044820152606490fd5b875162461bcd60e51b815260048101859052602a818801527f5361666545524332303a204552433230206f7065726174696f6e20646964206e6044820152691bdd081cdd58d8d9595960b21b6064820152608490fd5b6122439350820181019101611f60565b38858161204f565b88634e487b7160e01b60005260416004526000fd5b508060fc541615611f98565b604051639811e0c760e01b8152600490fd5b90936001600160a01b038084169491939092838116919085908784036124ab575b5050508260fd541615801561249f575b6103ce576122c96122c260fb548461255c565b809361197e565b85156124505760009486865260209460338652604096878120548381106124015783908a8352603389520388822055826035540360355580897fddf252ad1be2c89b69c2b068fc378daa952ba7f163c4a11628f55a4df523b3ef898b51878152a38160fd5416998a3b156123fd5781908951938491632d182be560e21b8352876004840152169b8c60248301528b604483015281835a92606493f19081156123f2575089938995937ffbde797d201c681b91056529119e0b02407c7bb96a4a2c75c01fc9667232c8db938a936123e3575b50825191825288820152a4806123b2575b5050505050565b7f78218b0264705ffc55d5d90ef489f17bfc4791b7314660e867f94f2f0b3a59249251908152a338808080806123ab565b6123ec90611647565b3861239a565b8851903d90823e3d90fd5b5080fd5b885162461bcd60e51b815260048101899052602260248201527f45524332303a206275726e20616d6f756e7420657863656564732062616c616e604482015261636560f01b6064820152608490fd5b60405162461bcd60e51b815260206004820152602160248201527f45524332303a206275726e2066726f6d20746865207a65726f206164647265736044820152607360f81b6064820152608490fd5b508260fc5416156122af565b6124b4926119af565b38848161229f565b6035546001810180911161073f576124d261176b565b906001820180921161073f5761184e92612512565b6035546001810180911161073f576124fd61176b565b906001820180921161073f5761184e9261265f565b919061251f82828561265f565b92821561253c570961252e5790565b6001810180911161073f5790565b634e487b7160e01b600052601260045260246000fd5b811561253c570490565b9080820290600019818409908280831092039180830392146125cd57620f424090828211156125bb577fde8f6cefed634549b62c77574f722e1ac57e23f24d8fd5cb790fb65668c26139940990828211900360fa1b910360061c170290565b60405163227bc15360e01b8152600490fd5b5050620f424091500490565b620f424091818302916000198482099383808610950394808603951461265257848311156125bb5782910981600003821680920460028082600302188083028203028083028203028083028203028083028203028083028203028092029003029360018380600003040190848311900302920304170290565b50509061184e9250612552565b91600019828409928281029283808610950394808603951461265257848311156126d5578291096001821901821680920460028082600302188083028203028083028203028083028203028083028203028083028203028092029003029360018380600003040190848311900302920304170290565b60405162461bcd60e51b81526020600482015260156024820152744d6174683a206d756c446976206f766572666c6f7760581b6044820152606490fd5b908151811015610755570160200190565b604051906060820182811067ffffffffffffffff821117610ec857604052602a8252602082016040368237825115610755576030905381516001906001101561075557607860218401536029905b8082116127c55750506127815790565b606460405162461bcd60e51b815260206004820152602060248201527f537472696e67733a20686578206c656e67746820696e73756666696369656e746044820152fd5b9091600f8116601081101561281e576f181899199a1a9b1b9c1cb0b131b232b360811b901a6127f48486612712565b5360041c918015612809576000190190612771565b60246000634e487b7160e01b81526011600452fd5b60246000634e487b7160e01b81526032600452fd5b3d1561285e573d90612844826116b5565b916128526040519384611693565b82523d6000602084013e565b606090565b90604051602081019063313ce56760e01b8252600481526128838161165b565b5160009384928392916001600160a01b03165afa61289f612833565b90806128d7575b6128b0575b508190565b6020818051810103126128d3576020015160ff81116128ab576001925060ff1690565b8280fd5b506020815110156128a6565b9192901561294557508151156128f7575090565b3b156129005790565b60405162461bcd60e51b815260206004820152601d60248201527f416464726573733a2063616c6c20746f206e6f6e2d636f6e74726163740000006044820152606490fd5b8251909150156129585750805190602001fd5b60405162461bcd60e51b81529081906106b490600483016115c956fe4a11f94e20a93c79f6ec743a1954ec4fc2c08429ae2122118bf234b2185c81b842a7b7dd785cd69714a189dffb3fd7d7174edc9ece837694ce50f7078f7c31aea264697066735822122014aa7b68a262c56736b8de26f4612466d5838f25ea2e0e6b0202ec2902b4624d64736f6c63430008180033",
  "devdoc": {
    "details": "ERC4626-compliant token representing shares in the DStakeCollateralVault.",
    "errors": {
      "MathOverflowedMulDiv()": [
        {
          "details": "Muldiv operation overflow."
        }
      ]
    },
    "events": {
      "Approval(address,address,uint256)": {
        "details": "Emitted when the allowance of a `spender` for an `owner` is set by a call to {approve}. `value` is the new allowance."
      },
      "Initialized(uint8)": {
        "details": "Triggered when the contract has been initialized or reinitialized."
      },
      "RoleAdminChanged(bytes32,bytes32,bytes32)": {
        "details": "Emitted when `newAdminRole` is set as ``role``'s admin role, replacing `previousAdminRole` `DEFAULT_ADMIN_ROLE` is the starting admin for all roles, despite {RoleAdminChanged} not being emitted signaling this. _Available since v3.1._"
      },
      "RoleGranted(bytes32,address,address)": {
        "details": "Emitted when `account` is granted `role`. `sender` is the account that originated the contract call, an admin role bearer except when using {AccessControl-_setupRole}."
      },
      "RoleRevoked(bytes32,address,address)": {
        "details": "Emitted when `account` is revoked `role`. `sender` is the account that originated the contract call:   - if using `revokeRole`, it is the admin role bearer   - if using `renounceRole`, it is the role bearer (i.e. `account`)"
      },
      "Transfer(address,address,uint256)": {
        "details": "Emitted when `value` tokens are moved from one account (`from`) to another (`to`). Note that `value` may be zero."
      }
    },
    "kind": "dev",
    "methods": {
      "allowance(address,address)": {
        "details": "See {IERC20-allowance}."
      },
      "approve(address,uint256)": {
        "details": "See {IERC20-approve}. NOTE: If `amount` is the maximum `uint256`, the allowance is not updated on `transferFrom`. This is semantically equivalent to an infinite approval. Requirements: - `spender` cannot be the zero address."
      },
      "asset()": {
        "details": "See {IERC4626-asset}. "
      },
      "balanceOf(address)": {
        "details": "See {IERC20-balanceOf}."
      },
      "constructor": {
        "custom:oz-upgrades-unsafe-allow": "constructor"
      },
      "convertToAssets(uint256)": {
        "details": "See {IERC4626-convertToAssets}. "
      },
      "convertToShares(uint256)": {
        "details": "See {IERC4626-convertToShares}. "
      },
      "decimals()": {
        "details": "On Fraxtal, dUSD uses 6 decimals, so dSTAKE shares pass through the same decimal configuration."
      },
      "decreaseAllowance(address,uint256)": {
        "details": "Atomically decreases the allowance granted to `spender` by the caller. This is an alternative to {approve} that can be used as a mitigation for problems described in {IERC20-approve}. Emits an {Approval} event indicating the updated allowance. Requirements: - `spender` cannot be the zero address. - `spender` must have allowance for the caller of at least `subtractedValue`."
      },
      "deposit(uint256,address)": {
        "details": "See {IERC4626-deposit}. "
      },
      "getRoleAdmin(bytes32)": {
        "details": "Returns the admin role that controls `role`. See {grantRole} and {revokeRole}. To change a role's admin, use {_setRoleAdmin}."
      },
      "getWithdrawalFeeBps()": {
        "returns": {
          "_0": "The withdrawal fee in basis points."
        }
      },
      "grantRole(bytes32,address)": {
        "details": "Grants `role` to `account`. If `account` had not been already granted `role`, emits a {RoleGranted} event. Requirements: - the caller must have ``role``'s admin role. May emit a {RoleGranted} event."
      },
      "hasRole(bytes32,address)": {
        "details": "Returns `true` if `account` has been granted `role`."
      },
      "increaseAllowance(address,uint256)": {
        "details": "Atomically increases the allowance granted to `spender` by the caller. This is an alternative to {approve} that can be used as a mitigation for problems described in {IERC20-approve}. Emits an {Approval} event indicating the updated allowance. Requirements: - `spender` cannot be the zero address."
      },
      "maxDeposit(address)": {
        "details": "See {IERC4626-maxDeposit}. "
      },
      "maxMint(address)": {
        "details": "See {IERC4626-maxMint}. "
      },
      "maxRedeem(address)": {
        "details": "See {IERC4626-maxRedeem}. "
      },
      "mint(uint256,address)": {
        "details": "See {IERC4626-mint}. As opposed to {deposit}, minting is allowed even if the vault is in a state where the price of a share is zero. In this case, the shares will be minted without requiring any assets to be deposited."
      },
      "name()": {
        "details": "Returns the name of the token."
      },
      "previewDeposit(uint256)": {
        "details": "See {IERC4626-previewDeposit}. "
      },
      "previewMint(uint256)": {
        "details": "See {IERC4626-previewMint}. "
      },
      "previewRedeem(uint256)": {
        "details": "Preview redeem including withdrawal fee."
      },
      "previewWithdraw(uint256)": {
        "details": "Preview withdraw including withdrawal fee.",
        "params": {
          "assets": "The net amount of assets the user wants to receive"
        },
        "returns": {
          "_0": "shares The number of shares that need to be burned"
        }
      },
      "redeem(uint256,address,address)": {
        "details": "Override to ensure the withdrawal fee is deducted only once.      The `shares` parameter is converted to its equivalent gross asset value, then the      internal _withdraw handles fee calculation. The returned value is the net assets      actually received by the `receiver`, matching previewRedeem()."
      },
      "renounceRole(bytes32,address)": {
        "details": "Revokes `role` from the calling account. Roles are often managed via {grantRole} and {revokeRole}: this function's purpose is to provide a mechanism for accounts to lose their privileges if they are compromised (such as when a trusted device is misplaced). If the calling account had been revoked `role`, emits a {RoleRevoked} event. Requirements: - the caller must be `account`. May emit a {RoleRevoked} event."
      },
      "revokeRole(bytes32,address)": {
        "details": "Revokes `role` from `account`. If `account` had been granted `role`, emits a {RoleRevoked} event. Requirements: - the caller must have ``role``'s admin role. May emit a {RoleRevoked} event."
      },
      "setCollateralVault(address)": {
        "details": "Only callable by DEFAULT_ADMIN_ROLE.",
        "params": {
          "_collateralVault": "The address of the new collateral vault contract."
        }
      },
      "setRouter(address)": {
        "details": "Only callable by DEFAULT_ADMIN_ROLE.",
        "params": {
          "_router": "The address of the new router contract."
        }
      },
      "setWithdrawalFee(uint256)": {
        "details": "Requires FEE_MANAGER_ROLE.",
        "params": {
          "_feeBps": "The new withdrawal fee (e.g., 1000 = 0.1%)."
        }
      },
      "supportsInterface(bytes4)": {
        "details": "See {IERC165-supportsInterface}."
      },
      "symbol()": {
        "details": "Returns the symbol of the token, usually a shorter version of the name."
      },
      "totalAssets()": {
        "details": "IMPORTANT: When all vault shares have been redeemed, the router intentionally leaves up to `dustTolerance` (1 wei by default) of wrapper tokens in the `DStakeCollateralVault`. These wrapper tokens continue to accrue yield via an ever-increasing price-per-share. As a result, it is theoretically possible for `totalSupply() == 0` while `totalAssets()` returns a non-zero value. The protocol explicitly accepts that the **first depositor after such a complete withdrawal will receive whatever residual value has accumulated**.  Given the minuscule starting balance ( 1 wei) and slow growth rate, the team judged that the gas cost of enforcing a strict invariant outweighed the negligible windfall. Please keep this in mind if `dustTolerance` is increased to a non-negligible value."
      },
      "totalSupply()": {
        "details": "See {IERC20-totalSupply}."
      },
      "transfer(address,uint256)": {
        "details": "See {IERC20-transfer}. Requirements: - `to` cannot be the zero address. - the caller must have a balance of at least `amount`."
      },
      "transferFrom(address,address,uint256)": {
        "details": "See {IERC20-transferFrom}. Emits an {Approval} event indicating the updated allowance. This is not required by the EIP. See the note at the beginning of {ERC20}. NOTE: Does not update the allowance if the current allowance is the maximum `uint256`. Requirements: - `from` and `to` cannot be the zero address. - `from` must have a balance of at least `amount`. - the caller must have allowance for ``from``'s tokens of at least `amount`."
      },
      "withdraw(uint256,address,address)": {
        "details": "Override to handle withdrawals with fees correctly.      The `assets` parameter is the net amount of assets the user wants to receive."
      }
    },
    "title": "DStakeToken",
    "version": 1
  },
  "userdoc": {
    "kind": "user",
    "methods": {
      "decimals()": {
        "notice": "Override decimals to match the underlying dSTABLE asset decimals (6 on Fraxtal, 18 on other networks)."
      },
      "getWithdrawalFeeBps()": {
        "notice": "Get the current withdrawal fee in basis points."
      },
      "maxWithdraw(address)": {
        "notice": "Returns the maximum NET assets that `owner` can withdraw taking the current         withdrawal fee into account.         OpenZeppelin's reference implementation returns the owner's share balance         converted to assets (i.e. a gross value).  In a fee-charging vault that         exposes `withdraw(netAssets)`, the intuitive expectation is that         `maxWithdraw` already reflects what the user will actually receive after         fees.  We therefore convert the share balance to GROSS assets first and then         subtract the fee."
      },
      "maxWithdrawalFeeBps()": {
        "notice": "Public getter for the maximum withdrawal fee in basis points."
      },
      "setCollateralVault(address)": {
        "notice": "Sets the address of the DStakeCollateralVault contract."
      },
      "setRouter(address)": {
        "notice": "Sets the address of the DStakeRouter contract."
      },
      "setWithdrawalFee(uint256)": {
        "notice": "Sets the withdrawal fee in basis points."
      },
      "withdrawalFeeBps()": {
        "notice": "Public getter for the current withdrawal fee in basis points."
      }
    },
    "version": 1
  },
  "storageLayout": {
    "storage": [
      {
        "astId": 1742,
        "contract": "contracts/vaults/dstake/DStakeToken.sol:DStakeToken",
        "label": "_initialized",
        "offset": 0,
        "slot": "0",
        "type": "t_uint8"
      },
      {
        "astId": 1745,
        "contract": "contracts/vaults/dstake/DStakeToken.sol:DStakeToken",
        "label": "_initializing",
        "offset": 1,
        "slot": "0",
        "type": "t_bool"
      },
      {
        "astId": 4063,
        "contract": "contracts/vaults/dstake/DStakeToken.sol:DStakeToken",
        "label": "__gap",
        "offset": 0,
        "slot": "1",
        "type": "t_array(t_uint256)50_storage"
      },
      {
        "astId": 1924,
        "contract": "contracts/vaults/dstake/DStakeToken.sol:DStakeToken",
        "label": "_balances",
        "offset": 0,
        "slot": "51",
        "type": "t_mapping(t_address,t_uint256)"
      },
      {
        "astId": 1930,
        "contract": "contracts/vaults/dstake/DStakeToken.sol:DStakeToken",
        "label": "_allowances",
        "offset": 0,
        "slot": "52",
        "type": "t_mapping(t_address,t_mapping(t_address,t_uint256))"
      },
      {
        "astId": 1932,
        "contract": "contracts/vaults/dstake/DStakeToken.sol:DStakeToken",
        "label": "_totalSupply",
        "offset": 0,
        "slot": "53",
        "type": "t_uint256"
      },
      {
        "astId": 1934,
        "contract": "contracts/vaults/dstake/DStakeToken.sol:DStakeToken",
        "label": "_name",
        "offset": 0,
        "slot": "54",
        "type": "t_string_storage"
      },
      {
        "astId": 1936,
        "contract": "contracts/vaults/dstake/DStakeToken.sol:DStakeToken",
        "label": "_symbol",
        "offset": 0,
        "slot": "55",
        "type": "t_string_storage"
      },
      {
        "astId": 2516,
        "contract": "contracts/vaults/dstake/DStakeToken.sol:DStakeToken",
        "label": "__gap",
        "offset": 0,
        "slot": "56",
        "type": "t_array(t_uint256)45_storage"
      },
      {
        "astId": 2616,
        "contract": "contracts/vaults/dstake/DStakeToken.sol:DStakeToken",
        "label": "_asset",
        "offset": 0,
        "slot": "101",
        "type": "t_contract(IERC20Upgradeable)2595"
      },
      {
        "astId": 2618,
        "contract": "contracts/vaults/dstake/DStakeToken.sol:DStakeToken",
        "label": "_underlyingDecimals",
        "offset": 20,
        "slot": "101",
        "type": "t_uint8"
      },
      {
        "astId": 3245,
        "contract": "contracts/vaults/dstake/DStakeToken.sol:DStakeToken",
        "label": "__gap",
        "offset": 0,
        "slot": "102",
        "type": "t_array(t_uint256)49_storage"
      },
      {
        "astId": 4337,
        "contract": "contracts/vaults/dstake/DStakeToken.sol:DStakeToken",
        "label": "__gap",
        "offset": 0,
        "slot": "151",
        "type": "t_array(t_uint256)50_storage"
      },
      {
        "astId": 1186,
        "contract": "contracts/vaults/dstake/DStakeToken.sol:DStakeToken",
        "label": "_roles",
        "offset": 0,
        "slot": "201",
        "type": "t_mapping(t_bytes32,t_struct(RoleData)1181_storage)"
      },
      {
        "astId": 1493,
        "contract": "contracts/vaults/dstake/DStakeToken.sol:DStakeToken",
        "label": "__gap",
        "offset": 0,
        "slot": "202",
        "type": "t_array(t_uint256)49_storage"
      },
      {
        "astId": 5356,
        "contract": "contracts/vaults/dstake/DStakeToken.sol:DStakeToken",
        "label": "withdrawalFeeBps_",
        "offset": 0,
        "slot": "251",
        "type": "t_uint256"
      },
      {
        "astId": 5563,
        "contract": "contracts/vaults/dstake/DStakeToken.sol:DStakeToken",
        "label": "collateralVault",
        "offset": 0,
        "slot": "252",
        "type": "t_contract(IDStakeCollateralVault)6223"
      },
      {
        "astId": 5566,
        "contract": "contracts/vaults/dstake/DStakeToken.sol:DStakeToken",
        "label": "router",
        "offset": 0,
        "slot": "253",
        "type": "t_contract(IDStakeRouter)6243"
      }
    ],
    "types": {
      "t_address": {
        "encoding": "inplace",
        "label": "address",
        "numberOfBytes": "20"
      },
      "t_array(t_uint256)45_storage": {
        "base": "t_uint256",
        "encoding": "inplace",
        "label": "uint256[45]",
        "numberOfBytes": "1440"
      },
      "t_array(t_uint256)49_storage": {
        "base": "t_uint256",
        "encoding": "inplace",
        "label": "uint256[49]",
        "numberOfBytes": "1568"
      },
      "t_array(t_uint256)50_storage": {
        "base": "t_uint256",
        "encoding": "inplace",
        "label": "uint256[50]",
        "numberOfBytes": "1600"
      },
      "t_bool": {
        "encoding": "inplace",
        "label": "bool",
        "numberOfBytes": "1"
      },
      "t_bytes32": {
        "encoding": "inplace",
        "label": "bytes32",
        "numberOfBytes": "32"
      },
      "t_contract(IDStakeCollateralVault)6223": {
        "encoding": "inplace",
        "label": "contract IDStakeCollateralVault",
        "numberOfBytes": "20"
      },
      "t_contract(IDStakeRouter)6243": {
        "encoding": "inplace",
        "label": "contract IDStakeRouter",
        "numberOfBytes": "20"
      },
      "t_contract(IERC20Upgradeable)2595": {
        "encoding": "inplace",
        "label": "contract IERC20Upgradeable",
        "numberOfBytes": "20"
      },
      "t_mapping(t_address,t_bool)": {
        "encoding": "mapping",
        "key": "t_address",
        "label": "mapping(address => bool)",
        "numberOfBytes": "32",
        "value": "t_bool"
      },
      "t_mapping(t_address,t_mapping(t_address,t_uint256))": {
        "encoding": "mapping",
        "key": "t_address",
        "label": "mapping(address => mapping(address => uint256))",
        "numberOfBytes": "32",
        "value": "t_mapping(t_address,t_uint256)"
      },
      "t_mapping(t_address,t_uint256)": {
        "encoding": "mapping",
        "key": "t_address",
        "label": "mapping(address => uint256)",
        "numberOfBytes": "32",
        "value": "t_uint256"
      },
      "t_mapping(t_bytes32,t_struct(RoleData)1181_storage)": {
        "encoding": "mapping",
        "key": "t_bytes32",
        "label": "mapping(bytes32 => struct AccessControlUpgradeable.RoleData)",
        "numberOfBytes": "32",
        "value": "t_struct(RoleData)1181_storage"
      },
      "t_string_storage": {
        "encoding": "bytes",
        "label": "string",
        "numberOfBytes": "32"
      },
      "t_struct(RoleData)1181_storage": {
        "encoding": "inplace",
        "label": "struct AccessControlUpgradeable.RoleData",
        "members": [
          {
            "astId": 1178,
            "contract": "contracts/vaults/dstake/DStakeToken.sol:DStakeToken",
            "label": "members",
            "offset": 0,
            "slot": "0",
            "type": "t_mapping(t_address,t_bool)"
          },
          {
            "astId": 1180,
            "contract": "contracts/vaults/dstake/DStakeToken.sol:DStakeToken",
            "label": "adminRole",
            "offset": 0,
            "slot": "1",
            "type": "t_bytes32"
          }
        ],
        "numberOfBytes": "64"
      },
      "t_uint256": {
        "encoding": "inplace",
        "label": "uint256",
        "numberOfBytes": "32"
      },
      "t_uint8": {
        "encoding": "inplace",
        "label": "uint8",
        "numberOfBytes": "1"
      }
    }
  }
}