{
  "address": "0x5432ed4A370718D6904485e2Fc114762C68Cc7BE",
  "abi": [
    {
      "inputs": [
        {
          "internalType": "address",
          "name": "_dStakeVaultShare",
          "type": "address"
        },
        {
          "internalType": "address",
          "name": "_dStableAsset",
          "type": "address"
        }
      ],
      "stateMutability": "nonpayable",
      "type": "constructor"
    },
    {
      "inputs": [],
      "name": "AccessControlBadConfirmation",
      "type": "error"
    },
    {
      "inputs": [
        {
          "internalType": "address",
          "name": "account",
          "type": "address"
        },
        {
          "internalType": "bytes32",
          "name": "neededRole",
          "type": "bytes32"
        }
      ],
      "name": "AccessControlUnauthorizedAccount",
      "type": "error"
    },
    {
      "inputs": [
        {
          "internalType": "address",
          "name": "target",
          "type": "address"
        }
      ],
      "name": "AddressEmptyCode",
      "type": "error"
    },
    {
      "inputs": [
        {
          "internalType": "address",
          "name": "account",
          "type": "address"
        }
      ],
      "name": "AddressInsufficientBalance",
      "type": "error"
    },
    {
      "inputs": [
        {
          "internalType": "address",
          "name": "asset",
          "type": "address"
        }
      ],
      "name": "AssetAlreadySupported",
      "type": "error"
    },
    {
      "inputs": [
        {
          "internalType": "address",
          "name": "asset",
          "type": "address"
        }
      ],
      "name": "AssetNotSupported",
      "type": "error"
    },
    {
      "inputs": [
        {
          "internalType": "address",
          "name": "token",
          "type": "address"
        }
      ],
      "name": "CannotRescueRestrictedToken",
      "type": "error"
    },
    {
      "inputs": [
        {
          "internalType": "address",
          "name": "receiver",
          "type": "address"
        },
        {
          "internalType": "uint256",
          "name": "amount",
          "type": "uint256"
        }
      ],
      "name": "ETHTransferFailed",
      "type": "error"
    },
    {
      "inputs": [],
      "name": "FailedInnerCall",
      "type": "error"
    },
    {
      "inputs": [
        {
          "internalType": "address",
          "name": "asset",
          "type": "address"
        }
      ],
      "name": "NonZeroBalance",
      "type": "error"
    },
    {
      "inputs": [],
      "name": "ReentrancyGuardReentrantCall",
      "type": "error"
    },
    {
      "inputs": [
        {
          "internalType": "address",
          "name": "token",
          "type": "address"
        }
      ],
      "name": "SafeERC20FailedOperation",
      "type": "error"
    },
    {
      "inputs": [],
      "name": "ZeroAddress",
      "type": "error"
    },
    {
      "anonymous": false,
      "inputs": [
        {
          "indexed": true,
          "internalType": "address",
          "name": "receiver",
          "type": "address"
        },
        {
          "indexed": false,
          "internalType": "uint256",
          "name": "amount",
          "type": "uint256"
        }
      ],
      "name": "ETHRescued",
      "type": "event"
    },
    {
      "anonymous": false,
      "inputs": [
        {
          "indexed": true,
          "internalType": "bytes32",
          "name": "role",
          "type": "bytes32"
        },
        {
          "indexed": true,
          "internalType": "bytes32",
          "name": "previousAdminRole",
          "type": "bytes32"
        },
        {
          "indexed": true,
          "internalType": "bytes32",
          "name": "newAdminRole",
          "type": "bytes32"
        }
      ],
      "name": "RoleAdminChanged",
      "type": "event"
    },
    {
      "anonymous": false,
      "inputs": [
        {
          "indexed": true,
          "internalType": "bytes32",
          "name": "role",
          "type": "bytes32"
        },
        {
          "indexed": true,
          "internalType": "address",
          "name": "account",
          "type": "address"
        },
        {
          "indexed": true,
          "internalType": "address",
          "name": "sender",
          "type": "address"
        }
      ],
      "name": "RoleGranted",
      "type": "event"
    },
    {
      "anonymous": false,
      "inputs": [
        {
          "indexed": true,
          "internalType": "bytes32",
          "name": "role",
          "type": "bytes32"
        },
        {
          "indexed": true,
          "internalType": "address",
          "name": "account",
          "type": "address"
        },
        {
          "indexed": true,
          "internalType": "address",
          "name": "sender",
          "type": "address"
        }
      ],
      "name": "RoleRevoked",
      "type": "event"
    },
    {
      "anonymous": false,
      "inputs": [
        {
          "indexed": true,
          "internalType": "address",
          "name": "router",
          "type": "address"
        }
      ],
      "name": "RouterSet",
      "type": "event"
    },
    {
      "anonymous": false,
      "inputs": [
        {
          "indexed": true,
          "internalType": "address",
          "name": "vaultAsset",
          "type": "address"
        }
      ],
      "name": "SupportedAssetAdded",
      "type": "event"
    },
    {
      "anonymous": false,
      "inputs": [
        {
          "indexed": true,
          "internalType": "address",
          "name": "vaultAsset",
          "type": "address"
        }
      ],
      "name": "SupportedAssetRemoved",
      "type": "event"
    },
    {
      "anonymous": false,
      "inputs": [
        {
          "indexed": true,
          "internalType": "address",
          "name": "token",
          "type": "address"
        },
        {
          "indexed": true,
          "internalType": "address",
          "name": "receiver",
          "type": "address"
        },
        {
          "indexed": false,
          "internalType": "uint256",
          "name": "amount",
          "type": "uint256"
        }
      ],
      "name": "TokenRescued",
      "type": "event"
    },
    {
      "inputs": [],
      "name": "DEFAULT_ADMIN_ROLE",
      "outputs": [
        {
          "internalType": "bytes32",
          "name": "",
          "type": "bytes32"
        }
      ],
      "stateMutability": "view",
      "type": "function"
    },
    {
      "inputs": [],
      "name": "ROUTER_ROLE",
      "outputs": [
        {
          "internalType": "bytes32",
          "name": "",
          "type": "bytes32"
        }
      ],
      "stateMutability": "view",
      "type": "function"
    },
    {
      "inputs": [
        {
          "internalType": "address",
          "name": "vaultAsset",
          "type": "address"
        }
      ],
      "name": "addSupportedAsset",
      "outputs": [],
      "stateMutability": "nonpayable",
      "type": "function"
    },
    {
      "inputs": [],
      "name": "dStable",
      "outputs": [
        {
          "internalType": "address",
          "name": "",
          "type": "address"
        }
      ],
      "stateMutability": "view",
      "type": "function"
    },
    {
      "inputs": [],
      "name": "dStakeToken",
      "outputs": [
        {
          "internalType": "address",
          "name": "",
          "type": "address"
        }
      ],
      "stateMutability": "view",
      "type": "function"
    },
    {
      "inputs": [],
      "name": "getRestrictedRescueTokens",
      "outputs": [
        {
          "internalType": "address[]",
          "name": "",
          "type": "address[]"
        }
      ],
      "stateMutability": "view",
      "type": "function"
    },
    {
      "inputs": [
        {
          "internalType": "bytes32",
          "name": "role",
          "type": "bytes32"
        }
      ],
      "name": "getRoleAdmin",
      "outputs": [
        {
          "internalType": "bytes32",
          "name": "",
          "type": "bytes32"
        }
      ],
      "stateMutability": "view",
      "type": "function"
    },
    {
      "inputs": [],
      "name": "getSupportedAssets",
      "outputs": [
        {
          "internalType": "address[]",
          "name": "",
          "type": "address[]"
        }
      ],
      "stateMutability": "view",
      "type": "function"
    },
    {
      "inputs": [
        {
          "internalType": "bytes32",
          "name": "role",
          "type": "bytes32"
        },
        {
          "internalType": "address",
          "name": "account",
          "type": "address"
        }
      ],
      "name": "grantRole",
      "outputs": [],
      "stateMutability": "nonpayable",
      "type": "function"
    },
    {
      "inputs": [
        {
          "internalType": "bytes32",
          "name": "role",
          "type": "bytes32"
        },
        {
          "internalType": "address",
          "name": "account",
          "type": "address"
        }
      ],
      "name": "hasRole",
      "outputs": [
        {
          "internalType": "bool",
          "name": "",
          "type": "bool"
        }
      ],
      "stateMutability": "view",
      "type": "function"
    },
    {
      "inputs": [
        {
          "internalType": "address",
          "name": "vaultAsset",
          "type": "address"
        }
      ],
      "name": "removeSupportedAsset",
      "outputs": [],
      "stateMutability": "nonpayable",
      "type": "function"
    },
    {
      "inputs": [
        {
          "internalType": "bytes32",
          "name": "role",
          "type": "bytes32"
        },
        {
          "internalType": "address",
          "name": "callerConfirmation",
          "type": "address"
        }
      ],
      "name": "renounceRole",
      "outputs": [],
      "stateMutability": "nonpayable",
      "type": "function"
    },
    {
      "inputs": [
        {
          "internalType": "address",
          "name": "receiver",
          "type": "address"
        },
        {
          "internalType": "uint256",
          "name": "amount",
          "type": "uint256"
        }
      ],
      "name": "rescueETH",
      "outputs": [],
      "stateMutability": "nonpayable",
      "type": "function"
    },
    {
      "inputs": [
        {
          "internalType": "address",
          "name": "token",
          "type": "address"
        },
        {
          "internalType": "address",
          "name": "receiver",
          "type": "address"
        },
        {
          "internalType": "uint256",
          "name": "amount",
          "type": "uint256"
        }
      ],
      "name": "rescueToken",
      "outputs": [],
      "stateMutability": "nonpayable",
      "type": "function"
    },
    {
      "inputs": [
        {
          "internalType": "bytes32",
          "name": "role",
          "type": "bytes32"
        },
        {
          "internalType": "address",
          "name": "account",
          "type": "address"
        }
      ],
      "name": "revokeRole",
      "outputs": [],
      "stateMutability": "nonpayable",
      "type": "function"
    },
    {
      "inputs": [],
      "name": "router",
      "outputs": [
        {
          "internalType": "address",
          "name": "",
          "type": "address"
        }
      ],
      "stateMutability": "view",
      "type": "function"
    },
    {
      "inputs": [
        {
          "internalType": "address",
          "name": "vaultAsset",
          "type": "address"
        },
        {
          "internalType": "uint256",
          "name": "amount",
          "type": "uint256"
        },
        {
          "internalType": "address",
          "name": "recipient",
          "type": "address"
        }
      ],
      "name": "sendAsset",
      "outputs": [],
      "stateMutability": "nonpayable",
      "type": "function"
    },
    {
      "inputs": [
        {
          "internalType": "address",
          "name": "_newRouter",
          "type": "address"
        }
      ],
      "name": "setRouter",
      "outputs": [],
      "stateMutability": "nonpayable",
      "type": "function"
    },
    {
      "inputs": [
        {
          "internalType": "uint256",
          "name": "index",
          "type": "uint256"
        }
      ],
      "name": "supportedAssets",
      "outputs": [
        {
          "internalType": "address",
          "name": "",
          "type": "address"
        }
      ],
      "stateMutability": "view",
      "type": "function"
    },
    {
      "inputs": [
        {
          "internalType": "bytes4",
          "name": "interfaceId",
          "type": "bytes4"
        }
      ],
      "name": "supportsInterface",
      "outputs": [
        {
          "internalType": "bool",
          "name": "",
          "type": "bool"
        }
      ],
      "stateMutability": "view",
      "type": "function"
    },
    {
      "inputs": [],
      "name": "totalValueInDStable",
      "outputs": [
        {
          "internalType": "uint256",
          "name": "dStableValue",
          "type": "uint256"
        }
      ],
      "stateMutability": "view",
      "type": "function"
    },
    {
      "stateMutability": "payable",
      "type": "receive"
    }
  ],
  "transactionHash": "0xf2f5fd95df3fb4fc550aa86065a6de51c0d97b838c5e51d00d1508b5fb39c8e0",
  "args": [
    "0x58AcC2600835211Dcb5847c5Fa422791Fd492409",
    "0x788D96f655735f52c676A133f4dFC53cEC614d4A"
  ],
  "numDeployments": 1,
  "solcInputHash": "3ab0b7ef278db081e26e71c26b8f317e",
  "bytecode": "0x60c034620000da57601f6200145638819003918201601f19168301916001600160401b03831184841017620000df578084926040948552833981010312620000da576200005a60206200005283620000f5565b9201620000f5565b60018055906001600160a01b0380821615908115620000ce575b50620000bc5760805260a0526200008b336200010a565b506040516112ba90816200019c8239608051816106a4015260a0518181816102500152818161074701526109ac0152f35b60405163d92e233d60e01b8152600490fd5b90508216153862000074565b600080fd5b634e487b7160e01b600052604160045260246000fd5b51906001600160a01b0382168203620000da57565b6001600160a01b031660008181527fad3228b676f7d3cd4284a5443f17f1962b36e491b30a40b2405849e597ba5fb5602052604081205490919060ff166200019757818052816020526040822081835260205260408220600160ff1982541617905533917f2f8788117e7eff1d82e926ec794901d17c78024a50270940304540a733656f0d8180a4600190565b509056fe60806040818152600480361015610021575b505050361561001f57600080fd5b005b600092833560e01c90816301ffc9a714610a9f57508063099a04e5146109db5780630cc2f8d2146109975780631c46bc6f1461090d578063248a9ca3146108e45780632f2ff15d146108bb57806330d643b51461089257806336568abe1461084b57806338ff92e6146107c6578063500fc434146106d35780635c47df421461068f57806391d148541461064a578063a217fddf1461062f578063c0d7865514610596578063c68dbb3714610560578063d547741f14610522578063e015e7061461031d578063e5406dbf146102f0578063e5711e8b146101e3578063f887ea40146101b65763fac09e870361001157346101b25760203660031901126101b25761012a610af3565b610132610c7b565b6001600160a01b03169182156101a557610159836000526004602052604060002054151590565b61019057505061016881611196565b507f3ebc37c7ad88888fc79c591d53847cf755b23698bc448d2c3f39cce8acbe492b8280a280f35b9160249251916303b6566d60e41b8352820152fd5b5163d92e233d60e01b8152fd5b8280fd5b5050346101df57816003193601126101df5760025490516001600160a01b039091168152602090f35b5080fd5b50346101b25760603660031901126101b2576101fd610af3565b91610206610b0e565b9060443591610213610c23565b61021b610ceb565b6001600160a01b038181169590949086156102e15785169461024a866000526004602052604060002054151590565b6102ca577f00000000000000000000000000000000000000000000000000000000000000001685146102b35750916020916102a7827f4143f7b5cb6ea007914c32b8a3e64cebc051d7f493fa0755454da1e47701e1259587610f35565b51908152a36001805580f35b82516341d6bb6960e01b8152908101859052602490fd5b83516341d6bb6960e01b8152808301879052602490fd5b50825163d92e233d60e01b8152fd5b5050346101df57816003193601126101df576103199061030e611126565b905191829182610b24565b0390f35b50823461051f578060031936011261051f576003805460025492936001600160a01b039391928592851690835b85811061035b576020888a51908152f35b8661036582610fef565b905490841b1c1689519063c8232bd760e01b82528086830152602090602492828185818a5afa90811561051557908b918a916104d7575b501680156104cb578c516370a0823160e01b815230898201529183838681845afa9283156104c1578a9361048e575b508d836103e3575b5050505050506001905b0161034a565b51633171fd4b60e21b81526001600160a01b03909116818a019081526020810193909352949b9491839183918290819060400103915afa918215610484578892610452575b5050820180921161044157509660018a8080808d6103d3565b634e487b7160e01b86526011855285fd5b90809250813d831161047d575b6104698183610b69565b8101031261047957518b80610428565b8680fd5b503d61045f565b8c513d8a823e3d90fd5b9092508381813d83116104ba575b6104a68183610b69565b810103126104b65751918e6103cb565b8980fd5b503d61049c565b8e513d8c823e3d90fd5b505050506001906103dd565b809250848092503d831161050e575b6104f08183610b69565b8101031261050a57518a8116810361050a578a908e61039c565b8880fd5b503d6104e6565b8d513d8b823e3d90fd5b80fd5b5090346101b257806003193601126101b25761055c91356105576001610546610b0e565b938387528660205286200154610cc5565b610ec0565b5080f35b50913461051f57602036600319011261051f575061058060209235610fef565b905491519160018060a01b039160031b1c168152f35b50346101b25760203660031901126101b2576105b0610af3565b906105b9610c23565b6001600160a01b038281169390919084156101a5575050906105e591600254168061061f575b50610d0e565b50600280546001600160a01b031916821790557fc6b438e6a8a59579ce6a4406cbd203b740e0d47b458aae6596339bcd40c40d158280a280f35b61062890610e27565b50386105df565b5050346101df57816003193601126101df5751908152602090f35b50346101b257816003193601126101b2578160209360ff9261066a610b0e565b903582528186528282206001600160a01b039091168252855220549151911615158152f35b5050346101df57816003193601126101df57517f00000000000000000000000000000000000000000000000000000000000000006001600160a01b03168152602090f35b509190346101df57816003193601126101df576106ee611126565b805192600194600185018095116107b35750849061070b85610be1565b9461071885519687610b69565b808652610727601f1991610be1565b01366020870137905b61077b575b6103198484610745855183610bf9565b7f00000000000000000000000000000000000000000000000000000000000000006001600160a01b031690525191829182610b24565b81518110156107ae57849081906001600160a01b0361079a8286610bf9565b51166107a68288610bf9565b520190610730565b610735565b634e487b7160e01b825260119052602490fd5b508290346101df5760603660031901126101df576107e2610af3565b604435906001600160a01b0390818316830361084757610800610c7b565b1691610819836000526004602052604060002054151590565b1561083057509061082d9160243591610f35565b80f35b8451632777a68f60e11b8152908101839052602490fd5b8480fd5b509190346101df57806003193601126101df57610866610b0e565b90336001600160a01b03831603610883575061055c919235610ec0565b5163334bd91960e11b81528390fd5b5050346101df57816003193601126101df57602090516000805160206112658339815191528152f35b5090346101b257806003193601126101b25761055c91356108df6001610546610b0e565b610dae565b50346101b25760203660031901126101b257816020936001923581528085522001549051908152f35b50346101b25760203660031901126101b257610927610af3565b61092f610c7b565b6001600160a01b03166000818152600460205260409020549092901561098257505061095a81611026565b507fd4d3143baa8e1f94a3d57c410b72e62213e8359b01fc752925f64aa59f4053c98280a280f35b916024925191632777a68f60e11b8352820152fd5b5050346101df57816003193601126101df57517f00000000000000000000000000000000000000000000000000000000000000006001600160a01b03168152602090f35b5090346101b257806003193601126101b2576109f5610af3565b9060243591610a02610c23565b610a0a610ceb565b6001600160a01b038116938415610a91578580808087865af1610a2b610ba1565b5015610a645750507fb3579861130e4da8bb7b87c54d2d139937f23bcd6e4ebed9e75d0f78ab1cc1189160209151908152a26001805580f35b8251635e0a829b60e01b81526001600160a01b039092169082019081526020810184905281906040010390fd5b825163d92e233d60e01b8152fd5b925050346101b25760203660031901126101b2573563ffffffff60e01b81168091036101b25760209250637965db0b60e01b8114908115610ae2575b5015158152f35b6301ffc9a760e01b14905038610adb565b600435906001600160a01b0382168203610b0957565b600080fd5b602435906001600160a01b0382168203610b0957565b602090602060408183019282815285518094520193019160005b828110610b4c575050505090565b83516001600160a01b031685529381019392810192600101610b3e565b90601f8019910116810190811067ffffffffffffffff821117610b8b57604052565b634e487b7160e01b600052604160045260246000fd5b3d15610bdc573d9067ffffffffffffffff8211610b8b5760405191610bd0601f8201601f191660200184610b69565b82523d6000602084013e565b606090565b67ffffffffffffffff8111610b8b5760051b60200190565b8051821015610c0d5760209160051b010190565b634e487b7160e01b600052603260045260246000fd5b3360009081527fad3228b676f7d3cd4284a5443f17f1962b36e491b30a40b2405849e597ba5fb5602052604081205460ff1615610c5d5750565b6044906040519063e2517d3f60e01b82523360048301526024820152fd5b3360009081527fb5816a4d525ce17c45785e5fbae4518f6f00ef4e9d31d4d7bb129b76152ed32f60205260409020546000805160206112658339815191529060ff1615610c5d5750565b80600052600060205260406000203360005260205260ff6040600020541615610c5d5750565b600260015414610cfc576002600155565b604051633ee5aeb560e01b8152600490fd5b6001600160a01b031660008181527fb5816a4d525ce17c45785e5fbae4518f6f00ef4e9d31d4d7bb129b76152ed32f60205260408120549091906000805160206112658339815191529060ff16610da957808352826020526040832082845260205260408320600160ff198254161790557f2f8788117e7eff1d82e926ec794901d17c78024a50270940304540a733656f0d339380a4600190565b505090565b9060009180835282602052604083209160018060a01b03169182845260205260ff60408420541615600014610da957808352826020526040832082845260205260408320600160ff198254161790557f2f8788117e7eff1d82e926ec794901d17c78024a50270940304540a733656f0d339380a4600190565b6001600160a01b031660008181527fb5816a4d525ce17c45785e5fbae4518f6f00ef4e9d31d4d7bb129b76152ed32f60205260408120549091906000805160206112658339815191529060ff1615610da95780835282602052604083208284526020526040832060ff1981541690557ff6391f5c32d9c69d2a47ea670b442974b53935d1edc7fd64eb21e047a839171b339380a4600190565b9060009180835282602052604083209160018060a01b03169182845260205260ff604084205416600014610da95780835282602052604083208284526020526040832060ff1981541690557ff6391f5c32d9c69d2a47ea670b442974b53935d1edc7fd64eb21e047a839171b339380a4600190565b60405163a9059cbb60e01b602082019081526001600160a01b03939093166024820152604480820194909452928352610f9790610f73606485610b69565b60018060a01b031692600080938192519082875af1610f90610ba1565b9084611201565b908151918215159283610fc7575b505050610faf5750565b60249060405190635274afe760e01b82526004820152fd5b8192935090602091810103126101df57602001519081159182150361051f5750388080610fa5565b600354811015610c0d5760036000527fc2575a0e9e593c00f959f8c92f12db2869c3395a3b0502d05e2516446f71f85b0190600090565b600090808252600490816020526040832054801515600014611120576000199080820181811161110d57600354908382019182116110fa578181036110b0575b505050600354801561109d5781019061107e82610fef565b909182549160031b1b1916905560035582526020526040812055600190565b634e487b7160e01b855260318452602485fd5b6110e56110bf6110ce93610fef565b90549060031b1c928392610fef565b819391549060031b91821b91600019901b19161790565b90558552836020526040852055388080611066565b634e487b7160e01b875260118652602487fd5b634e487b7160e01b865260118552602486fd5b50505090565b6040519060035480835282602091602082019060036000527fc2575a0e9e593c00f959f8c92f12db2869c3395a3b0502d05e2516446f71f85b936000905b82821061117c5750505061117a92500383610b69565b565b855484526001958601958895509381019390910190611164565b6000818152600460205260408120546111fc57600354680100000000000000008110156111e85790826111d46110ce84600160409601600355610fef565b905560035492815260046020522055600190565b634e487b7160e01b82526041600452602482fd5b905090565b90611228575080511561121657805190602001fd5b604051630a12f52160e11b8152600490fd5b8151158061125b575b611239575090565b604051639996b31560e01b81526001600160a01b039091166004820152602490fd5b50803b1561123156fe7a05a596cb0ce7fdea8a1e1ec73be300bdb35097c944ce1897202f7a13122eb2a264697066735822122057b94794b44a627af1e1354fc28c531bc29adf6bcbdde441e199c654eaec295c64736f6c63430008180033",
  "devdoc": {
    "details": "Calculates the total value of these assets in terms of the underlying dStable asset      using registered adapters. This contract is non-upgradeable but replaceable via      DStakeToken governance.      Uses AccessControl for role-based access control.",
    "errors": {
      "AccessControlBadConfirmation()": [
        {
          "details": "The caller of a function is not the expected one. NOTE: Don't confuse with {AccessControlUnauthorizedAccount}."
        }
      ],
      "AccessControlUnauthorizedAccount(address,bytes32)": [
        {
          "details": "The `account` is missing a role."
        }
      ],
      "AddressEmptyCode(address)": [
        {
          "details": "There's no code at `target` (it is not a contract)."
        }
      ],
      "AddressInsufficientBalance(address)": [
        {
          "details": "The ETH balance of the account is not enough to perform the operation."
        }
      ],
      "FailedInnerCall()": [
        {
          "details": "A call to an address target failed. The target may have reverted."
        }
      ],
      "ReentrancyGuardReentrantCall()": [
        {
          "details": "Unauthorized reentrant call."
        }
      ],
      "SafeERC20FailedOperation(address)": [
        {
          "details": "An operation with an ERC20 token failed."
        }
      ]
    },
    "events": {
      "RoleAdminChanged(bytes32,bytes32,bytes32)": {
        "details": "Emitted when `newAdminRole` is set as ``role``'s admin role, replacing `previousAdminRole` `DEFAULT_ADMIN_ROLE` is the starting admin for all roles, despite {RoleAdminChanged} not being emitted signaling this."
      },
      "RoleGranted(bytes32,address,address)": {
        "details": "Emitted when `account` is granted `role`. `sender` is the account that originated the contract call, an admin role bearer except when using {AccessControl-_setupRole}."
      },
      "RoleRevoked(bytes32,address,address)": {
        "details": "Emitted when `account` is revoked `role`. `sender` is the account that originated the contract call:   - if using `revokeRole`, it is the admin role bearer   - if using `renounceRole`, it is the role bearer (i.e. `account`)"
      },
      "RouterSet(address)": {
        "params": {
          "router": "The address of the new router."
        }
      }
    },
    "kind": "dev",
    "methods": {
      "getRestrictedRescueTokens()": {
        "returns": {
          "_0": "restrictedTokens Array of restricted token addresses"
        }
      },
      "getRoleAdmin(bytes32)": {
        "details": "Returns the admin role that controls `role`. See {grantRole} and {revokeRole}. To change a role's admin, use {_setRoleAdmin}."
      },
      "grantRole(bytes32,address)": {
        "details": "Grants `role` to `account`. If `account` had not been already granted `role`, emits a {RoleGranted} event. Requirements: - the caller must have ``role``'s admin role. May emit a {RoleGranted} event."
      },
      "hasRole(bytes32,address)": {
        "details": "Returns `true` if `account` has been granted `role`."
      },
      "renounceRole(bytes32,address)": {
        "details": "Revokes `role` from the calling account. Roles are often managed via {grantRole} and {revokeRole}: this function's purpose is to provide a mechanism for accounts to lose their privileges if they are compromised (such as when a trusted device is misplaced). If the calling account had been revoked `role`, emits a {RoleRevoked} event. Requirements: - the caller must be `callerConfirmation`. May emit a {RoleRevoked} event."
      },
      "rescueETH(address,uint256)": {
        "params": {
          "amount": "Amount of ETH to rescue",
          "receiver": "Address to receive the rescued ETH"
        }
      },
      "rescueToken(address,address,uint256)": {
        "details": "Cannot rescue supported vault assets or the dStable token",
        "params": {
          "amount": "Amount of tokens to rescue",
          "receiver": "Address to receive the rescued tokens",
          "token": "Address of the token to rescue"
        }
      },
      "revokeRole(bytes32,address)": {
        "details": "Revokes `role` from `account`. If `account` had been granted `role`, emits a {RoleRevoked} event. Requirements: - the caller must have ``role``'s admin role. May emit a {RoleRevoked} event."
      },
      "sendAsset(address,uint256,address)": {
        "details": "Only callable by the registered router (ROUTER_ROLE)."
      },
      "supportsInterface(bytes4)": {
        "details": "See {IERC165-supportsInterface}."
      },
      "totalValueInDStable()": {
        "details": "This is typically called by the DStakeToken's `totalAssets()` function.",
        "returns": {
          "dStableValue": "The total value of managed assets in terms of the dStable asset."
        }
      }
    },
    "stateVariables": {
      "dStable": {
        "return": "The address of the dStable asset.",
        "returns": {
          "_0": "The address of the dStable asset."
        }
      }
    },
    "title": "DStakeCollateralVault",
    "version": 1
  },
  "userdoc": {
    "events": {
      "RouterSet(address)": {
        "notice": "Emitted when the router address is set."
      },
      "SupportedAssetAdded(address)": {
        "notice": "Emitted when a new vault asset is added to the supported list."
      },
      "SupportedAssetRemoved(address)": {
        "notice": "Emitted when a vault asset is removed from the supported list."
      }
    },
    "kind": "user",
    "methods": {
      "addSupportedAsset(address)": {
        "notice": "Adds a new supported vault asset. Can only be invoked by the router."
      },
      "dStable()": {
        "notice": "Returns the address of the underlying dStable asset the vault operates with."
      },
      "dStakeToken()": {
        "notice": "The DStakeToken contract address this vault serves."
      },
      "getRestrictedRescueTokens()": {
        "notice": "Returns the list of tokens that cannot be rescued"
      },
      "getSupportedAssets()": {
        "notice": "Returns the entire list of supported vault assets. Useful for UIs & off-chain tooling."
      },
      "removeSupportedAsset(address)": {
        "notice": "Removes a supported vault asset. Can only be invoked by the router."
      },
      "rescueETH(address,uint256)": {
        "notice": "Rescues ETH accidentally sent to the contract"
      },
      "rescueToken(address,address,uint256)": {
        "notice": "Rescues tokens accidentally sent to the contract"
      },
      "router()": {
        "notice": "The DStakeRouter contract address allowed to interact."
      },
      "sendAsset(address,uint256,address)": {
        "notice": "Transfers `amount` of `vaultAsset` from this vault to `recipient`."
      },
      "setRouter(address)": {
        "notice": "Sets the router address. Grants ROUTER_ROLE to new router and         revokes it from the previous router."
      },
      "supportedAssets(uint256)": {
        "notice": "Returns the vault asset at `index` from the internal supported set.         Kept for backwards-compatibility with the previous public array getter."
      },
      "totalValueInDStable()": {
        "notice": "Calculates the total value of all managed `vault assets` held by the vault,         denominated in the underlying dStable asset."
      }
    },
    "notice": "Holds various yield-bearing/convertible ERC20 tokens (`vault assets`) managed by dSTAKE.",
    "version": 1
  },
  "storageLayout": {
    "storage": [
      {
        "astId": 193,
        "contract": "contracts/vaults/dstake/DStakeCollateralVault.sol:DStakeCollateralVault",
        "label": "_roles",
        "offset": 0,
        "slot": "0",
        "type": "t_mapping(t_bytes32,t_struct(RoleData)188_storage)"
      },
      {
        "astId": 5495,
        "contract": "contracts/vaults/dstake/DStakeCollateralVault.sol:DStakeCollateralVault",
        "label": "_status",
        "offset": 0,
        "slot": "1",
        "type": "t_uint256"
      },
      {
        "astId": 93009,
        "contract": "contracts/vaults/dstake/DStakeCollateralVault.sol:DStakeCollateralVault",
        "label": "router",
        "offset": 0,
        "slot": "2",
        "type": "t_address"
      },
      {
        "astId": 93012,
        "contract": "contracts/vaults/dstake/DStakeCollateralVault.sol:DStakeCollateralVault",
        "label": "_supportedAssets",
        "offset": 0,
        "slot": "3",
        "type": "t_struct(AddressSet)8554_storage"
      }
    ],
    "types": {
      "t_address": {
        "encoding": "inplace",
        "label": "address",
        "numberOfBytes": "20"
      },
      "t_array(t_bytes32)dyn_storage": {
        "base": "t_bytes32",
        "encoding": "dynamic_array",
        "label": "bytes32[]",
        "numberOfBytes": "32"
      },
      "t_bool": {
        "encoding": "inplace",
        "label": "bool",
        "numberOfBytes": "1"
      },
      "t_bytes32": {
        "encoding": "inplace",
        "label": "bytes32",
        "numberOfBytes": "32"
      },
      "t_mapping(t_address,t_bool)": {
        "encoding": "mapping",
        "key": "t_address",
        "label": "mapping(address => bool)",
        "numberOfBytes": "32",
        "value": "t_bool"
      },
      "t_mapping(t_bytes32,t_struct(RoleData)188_storage)": {
        "encoding": "mapping",
        "key": "t_bytes32",
        "label": "mapping(bytes32 => struct AccessControl.RoleData)",
        "numberOfBytes": "32",
        "value": "t_struct(RoleData)188_storage"
      },
      "t_mapping(t_bytes32,t_uint256)": {
        "encoding": "mapping",
        "key": "t_bytes32",
        "label": "mapping(bytes32 => uint256)",
        "numberOfBytes": "32",
        "value": "t_uint256"
      },
      "t_struct(AddressSet)8554_storage": {
        "encoding": "inplace",
        "label": "struct EnumerableSet.AddressSet",
        "members": [
          {
            "astId": 8553,
            "contract": "contracts/vaults/dstake/DStakeCollateralVault.sol:DStakeCollateralVault",
            "label": "_inner",
            "offset": 0,
            "slot": "0",
            "type": "t_struct(Set)8239_storage"
          }
        ],
        "numberOfBytes": "64"
      },
      "t_struct(RoleData)188_storage": {
        "encoding": "inplace",
        "label": "struct AccessControl.RoleData",
        "members": [
          {
            "astId": 185,
            "contract": "contracts/vaults/dstake/DStakeCollateralVault.sol:DStakeCollateralVault",
            "label": "hasRole",
            "offset": 0,
            "slot": "0",
            "type": "t_mapping(t_address,t_bool)"
          },
          {
            "astId": 187,
            "contract": "contracts/vaults/dstake/DStakeCollateralVault.sol:DStakeCollateralVault",
            "label": "adminRole",
            "offset": 0,
            "slot": "1",
            "type": "t_bytes32"
          }
        ],
        "numberOfBytes": "64"
      },
      "t_struct(Set)8239_storage": {
        "encoding": "inplace",
        "label": "struct EnumerableSet.Set",
        "members": [
          {
            "astId": 8234,
            "contract": "contracts/vaults/dstake/DStakeCollateralVault.sol:DStakeCollateralVault",
            "label": "_values",
            "offset": 0,
            "slot": "0",
            "type": "t_array(t_bytes32)dyn_storage"
          },
          {
            "astId": 8238,
            "contract": "contracts/vaults/dstake/DStakeCollateralVault.sol:DStakeCollateralVault",
            "label": "_positions",
            "offset": 0,
            "slot": "1",
            "type": "t_mapping(t_bytes32,t_uint256)"
          }
        ],
        "numberOfBytes": "64"
      },
      "t_uint256": {
        "encoding": "inplace",
        "label": "uint256",
        "numberOfBytes": "32"
      }
    }
  }
}