{
  "address": "0x7a2949ef4595Bc27fF5ec6e3889F51fCE42Ab7d9",
  "abi": [
    {
      "inputs": [
        {
          "internalType": "address",
          "name": "initialAdmin",
          "type": "address"
        },
        {
          "internalType": "address",
          "name": "_vaultToken",
          "type": "address"
        }
      ],
      "stateMutability": "nonpayable",
      "type": "constructor"
    },
    {
      "inputs": [],
      "name": "AccessControlBadConfirmation",
      "type": "error"
    },
    {
      "inputs": [
        {
          "internalType": "address",
          "name": "account",
          "type": "address"
        },
        {
          "internalType": "bytes32",
          "name": "neededRole",
          "type": "bytes32"
        }
      ],
      "name": "AccessControlUnauthorizedAccount",
      "type": "error"
    },
    {
      "inputs": [
        {
          "internalType": "address",
          "name": "externalToken",
          "type": "address"
        }
      ],
      "name": "ExternalTokenNotMapped",
      "type": "error"
    },
    {
      "inputs": [
        {
          "internalType": "address",
          "name": "addr",
          "type": "address"
        }
      ],
      "name": "InvalidAddress",
      "type": "error"
    },
    {
      "inputs": [
        {
          "internalType": "address",
          "name": "token",
          "type": "address"
        }
      ],
      "name": "InvalidERC4626Token",
      "type": "error"
    },
    {
      "inputs": [],
      "name": "NoSourcesProvided",
      "type": "error"
    },
    {
      "anonymous": false,
      "inputs": [
        {
          "indexed": true,
          "internalType": "bytes32",
          "name": "role",
          "type": "bytes32"
        },
        {
          "indexed": true,
          "internalType": "bytes32",
          "name": "previousAdminRole",
          "type": "bytes32"
        },
        {
          "indexed": true,
          "internalType": "bytes32",
          "name": "newAdminRole",
          "type": "bytes32"
        }
      ],
      "name": "RoleAdminChanged",
      "type": "event"
    },
    {
      "anonymous": false,
      "inputs": [
        {
          "indexed": true,
          "internalType": "bytes32",
          "name": "role",
          "type": "bytes32"
        },
        {
          "indexed": true,
          "internalType": "address",
          "name": "account",
          "type": "address"
        },
        {
          "indexed": true,
          "internalType": "address",
          "name": "sender",
          "type": "address"
        }
      ],
      "name": "RoleGranted",
      "type": "event"
    },
    {
      "anonymous": false,
      "inputs": [
        {
          "indexed": true,
          "internalType": "bytes32",
          "name": "role",
          "type": "bytes32"
        },
        {
          "indexed": true,
          "internalType": "address",
          "name": "account",
          "type": "address"
        },
        {
          "indexed": true,
          "internalType": "address",
          "name": "sender",
          "type": "address"
        }
      ],
      "name": "RoleRevoked",
      "type": "event"
    },
    {
      "inputs": [],
      "name": "DEFAULT_ADMIN_ROLE",
      "outputs": [
        {
          "internalType": "bytes32",
          "name": "",
          "type": "bytes32"
        }
      ],
      "stateMutability": "view",
      "type": "function"
    },
    {
      "inputs": [],
      "name": "VAULT_TOKEN",
      "outputs": [
        {
          "internalType": "address",
          "name": "",
          "type": "address"
        }
      ],
      "stateMutability": "view",
      "type": "function"
    },
    {
      "inputs": [
        {
          "internalType": "address[]",
          "name": "sources",
          "type": "address[]"
        },
        {
          "internalType": "address[]",
          "name": "addresses",
          "type": "address[]"
        }
      ],
      "name": "batchTokenBalances",
      "outputs": [
        {
          "internalType": "uint256[]",
          "name": "result",
          "type": "uint256[]"
        }
      ],
      "stateMutability": "view",
      "type": "function"
    },
    {
      "inputs": [
        {
          "internalType": "address",
          "name": "vaultToken",
          "type": "address"
        },
        {
          "internalType": "uint256",
          "name": "assets",
          "type": "uint256"
        }
      ],
      "name": "convertAssetsToShares",
      "outputs": [
        {
          "internalType": "uint256",
          "name": "",
          "type": "uint256"
        }
      ],
      "stateMutability": "view",
      "type": "function"
    },
    {
      "inputs": [
        {
          "internalType": "address",
          "name": "vaultToken",
          "type": "address"
        },
        {
          "internalType": "uint256",
          "name": "shares",
          "type": "uint256"
        }
      ],
      "name": "convertSharesToAssets",
      "outputs": [
        {
          "internalType": "uint256",
          "name": "",
          "type": "uint256"
        }
      ],
      "stateMutability": "view",
      "type": "function"
    },
    {
      "inputs": [
        {
          "internalType": "address",
          "name": "",
          "type": "address"
        }
      ],
      "name": "externalSourceToInternalToken",
      "outputs": [
        {
          "internalType": "address",
          "name": "",
          "type": "address"
        }
      ],
      "stateMutability": "view",
      "type": "function"
    },
    {
      "inputs": [
        {
          "internalType": "address",
          "name": "externalToken",
          "type": "address"
        }
      ],
      "name": "getMappedToken",
      "outputs": [
        {
          "internalType": "address",
          "name": "",
          "type": "address"
        }
      ],
      "stateMutability": "view",
      "type": "function"
    },
    {
      "inputs": [
        {
          "internalType": "bytes32",
          "name": "role",
          "type": "bytes32"
        }
      ],
      "name": "getRoleAdmin",
      "outputs": [
        {
          "internalType": "bytes32",
          "name": "",
          "type": "bytes32"
        }
      ],
      "stateMutability": "view",
      "type": "function"
    },
    {
      "inputs": [
        {
          "internalType": "address",
          "name": "vaultToken",
          "type": "address"
        }
      ],
      "name": "getTotalAssets",
      "outputs": [
        {
          "internalType": "uint256",
          "name": "",
          "type": "uint256"
        }
      ],
      "stateMutability": "view",
      "type": "function"
    },
    {
      "inputs": [
        {
          "internalType": "address",
          "name": "vaultToken",
          "type": "address"
        }
      ],
      "name": "getTotalSupply",
      "outputs": [
        {
          "internalType": "uint256",
          "name": "",
          "type": "uint256"
        }
      ],
      "stateMutability": "view",
      "type": "function"
    },
    {
      "inputs": [
        {
          "internalType": "address",
          "name": "vaultToken",
          "type": "address"
        }
      ],
      "name": "getUnderlyingAsset",
      "outputs": [
        {
          "internalType": "address",
          "name": "",
          "type": "address"
        }
      ],
      "stateMutability": "view",
      "type": "function"
    },
    {
      "inputs": [
        {
          "internalType": "bytes32",
          "name": "role",
          "type": "bytes32"
        },
        {
          "internalType": "address",
          "name": "account",
          "type": "address"
        }
      ],
      "name": "grantRole",
      "outputs": [],
      "stateMutability": "nonpayable",
      "type": "function"
    },
    {
      "inputs": [
        {
          "internalType": "bytes32",
          "name": "role",
          "type": "bytes32"
        },
        {
          "internalType": "address",
          "name": "account",
          "type": "address"
        }
      ],
      "name": "hasRole",
      "outputs": [
        {
          "internalType": "bool",
          "name": "",
          "type": "bool"
        }
      ],
      "stateMutability": "view",
      "type": "function"
    },
    {
      "inputs": [
        {
          "internalType": "address",
          "name": "token",
          "type": "address"
        }
      ],
      "name": "isExternalToken",
      "outputs": [
        {
          "internalType": "bool",
          "name": "",
          "type": "bool"
        }
      ],
      "stateMutability": "view",
      "type": "function"
    },
    {
      "inputs": [
        {
          "internalType": "address",
          "name": "externalToken",
          "type": "address"
        },
        {
          "internalType": "address",
          "name": "internalToken",
          "type": "address"
        }
      ],
      "name": "mapExternalSource",
      "outputs": [],
      "stateMutability": "nonpayable",
      "type": "function"
    },
    {
      "inputs": [
        {
          "internalType": "address",
          "name": "externalToken",
          "type": "address"
        }
      ],
      "name": "removeExternalSource",
      "outputs": [],
      "stateMutability": "nonpayable",
      "type": "function"
    },
    {
      "inputs": [
        {
          "internalType": "bytes32",
          "name": "role",
          "type": "bytes32"
        },
        {
          "internalType": "address",
          "name": "callerConfirmation",
          "type": "address"
        }
      ],
      "name": "renounceRole",
      "outputs": [],
      "stateMutability": "nonpayable",
      "type": "function"
    },
    {
      "inputs": [
        {
          "internalType": "bytes32",
          "name": "role",
          "type": "bytes32"
        },
        {
          "internalType": "address",
          "name": "account",
          "type": "address"
        }
      ],
      "name": "revokeRole",
      "outputs": [],
      "stateMutability": "nonpayable",
      "type": "function"
    },
    {
      "inputs": [
        {
          "internalType": "bytes4",
          "name": "interfaceId",
          "type": "bytes4"
        }
      ],
      "name": "supportsInterface",
      "outputs": [
        {
          "internalType": "bool",
          "name": "",
          "type": "bool"
        }
      ],
      "stateMutability": "view",
      "type": "function"
    },
    {
      "inputs": [
        {
          "internalType": "address",
          "name": "token",
          "type": "address"
        },
        {
          "internalType": "address[]",
          "name": "addresses",
          "type": "address[]"
        }
      ],
      "name": "tokenBalances",
      "outputs": [
        {
          "internalType": "uint256[]",
          "name": "result",
          "type": "uint256[]"
        }
      ],
      "stateMutability": "view",
      "type": "function"
    },
    {
      "inputs": [],
      "name": "vaultToken",
      "outputs": [
        {
          "internalType": "address",
          "name": "",
          "type": "address"
        }
      ],
      "stateMutability": "view",
      "type": "function"
    }
  ],
  "transactionHash": "0x5dfb454025528a5693c48557312d41444a7c7bdcfa95437960d9adc0df669f2f",
  "args": [
    "0x0f5e3D9AEe7Ab5fDa909Af1ef147D98a7f4B3022",
    "0x58AcC2600835211Dcb5847c5Fa422791Fd492409"
  ],
  "numDeployments": 1,
  "solcInputHash": "d62c8ff58e40293465342291efbda183",
  "bytecode": "0x60a0346100e1576111ae90601f38839003908101601f19168201906001600160401b038211838310176100e657808391604095869485528339810103126100e157610055602061004e836100fc565b92016100fc565b906001600160a01b0380821680156100ca575082169182156100b25760805261007d90610110565b506000818152600160205282902080546001600160a01b03191690911790555161100d90816101a1823960805181610ca90152f35b8351634726455360e11b815260048101849052602490fd5b602490855190634726455360e11b82526004820152fd5b600080fd5b634e487b7160e01b600052604160045260246000fd5b51906001600160a01b03821682036100e157565b6001600160a01b031660008181527fad3228b676f7d3cd4284a5443f17f1962b36e491b30a40b2405849e597ba5fb5602052604081205490919060ff1661019c57818052816020526040822081835260205260408220600160ff1982541617905533917f2f8788117e7eff1d82e926ec794901d17c78024a50270940304540a733656f0d8180a4600190565b509056fe608060408181526004918236101561001657600080fd5b600092833560e01c91826301ffc9a714610b135750816312e4653d14610ab8578163248a9ca314610a8e5781632f2ff15d14610a6457816336568abe14610a1e5781633ad206cc1461074d5781634499d14b1461065c5781636674b85f146106af57816368da10ae14610661578163703bafd51461065c5781637688a47d146103db57816387d74481146104165781638c4ec2e3146103db57816391d1485414610395578163a217fddf1461037a578163d2de728d14610325578163d547741f146102e6578163e23bd2ad14610272578163e8689daa146101e6578163ead6d29514610154575063ed7d5c351461010c57600080fd5b3461015057602036600319011261015057610125610b66565b61012d610d53565b6001600160a01b031682526001602052812080546001600160a01b031916905580f35b5080fd5b83833461015057602092836003193601126101e257836001600160a01b0361017a610b66565b168351928380926278744560e21b82525afa9283156101d75780936101a2575b505051908152f35b909192508382813d83116101d0575b6101bb8183610b97565b810103126101cd57505190838061019a565b80fd5b503d6101b1565b8251903d90823e3d90fd5b8280fd5b919050346101e25760203660031901126101e2576001600160a01b039060208261020e610b66565b168251948580926338d52e0f60e01b82525afa9283156102685760209493610239575b505191168152f35b61025a919350843d8611610261575b6102528183610b97565b810190610d34565b9138610231565b503d610248565b81513d86823e3d90fd5b919050346101e257806003193601126101e25761028d610b66565b610295610b81565b9061029e610d53565b6001600160a01b039182169384156102cf57501683526001602052822080546001600160a01b031916909117905580f35b8351634726455360e11b8152908101859052602490fd5b919050346101e257806003193601126101e257610321913561031c600161030b610b81565b938387528660205286200154610dab565b610e4f565b5080f35b50503461015057602036600319011261015057602091906001600160a01b03818161034e610b66565b16938481526001865220541691821515928361036f575b5050519015158152f35b141591503880610365565b50503461015057816003193601126101505751908152602090f35b9050346101e257816003193601126101e2578160209360ff926103b6610b81565b903582528186528282206001600160a01b039091168252855220549151911615158152f35b505034610150576020366003190112610150576020916001600160a01b0390829082610405610b66565b168152600185522054169051908152f35b8284346101cd57816003193601126101cd5767ffffffffffffffff9280358481116101e2576104489036908301610be7565b91602490602435868111610150576104639036908501610be7565b9380511561064c576104758551610cd8565b9682966020808801985b845181101561063b576001600160a01b038061049b8388610d0a565b51161561063257868a8c8b848c956104b3888d610d0a565b511693898051978896630eb481b360e21b885260448801958801528601525180925260648401929185915b8982841061061257505050505081900381305afa87918161057c575b5061050a57506001905b0161047f565b9596979899928795929491955b8b51811015610569578c6105368261052f818c610d0a565b5192610d0a565b5190810180911161055757906001916105508f8390610d0a565b5201610517565b634e487b7160e01b8a5260118c528a8afd5b5092999897969550929093600190610504565b9091503d8089833e61058e8183610b97565b810190848183031261060a5780519087821161060e57019080601f8301121561060a5781516105bc81610bcf565b926105c988519485610b97565b818452868085019260051b8201019283116106065786809101915b8383106105f65750505050908d6104fa565b82518152918101918791016105e4565b8a80fd5b8880fd5b8980fd5b8451821686528e97508896509485019490930192600192909201916104de565b50600190610504565b8251806106488d82610c57565b0390f35b8551636234893160e11b81528490fd5b610c93565b83833461015057602092836003193601126101e257836001600160a01b03610687610b66565b168351928380926318160ddd60e01b82525afa9283156101d75780936101a257505051908152f35b919050346101e257806003193601126101e25760206106cc610b66565b82516303d1689d60e11b8152602480359582019590955293849182906001600160a01b03165afa91821561074357839261070b575b6020838351908152f35b9091506020813d60201161073b575b8161072760209383610b97565b810103126101e25760209250519038610701565b3d915061071a565b81513d85823e3d90fd5b905082346101cd57826003193601126101cd57610768610b66565b92602493843567ffffffffffffffff8111610a1a5761078a9036908601610be7565b6107948151610cd8565b918460018060a01b0392838316945b8151881015610a0b57908493929189956107bd8a84610d0a565b5116988784528b6020600181528a8881882054169c8d9a8b15159b8c610a00575b8c156109f857945b8b861693516338d52e0f60e01b815285818481885afa90816109db575b5061083757908f8f8f8f1561082457505163662ca37360e11b815291820152fd5b9051630d136c1d60e11b81529283015250fd5b849596989a9c97999b9f508e94929394886000146108f557516370a0823160e01b8152918201939093529250908290818d5afa9182156108eb5788926108b8575b50600194936108999391505b156108af575061089388610ec4565b90610f63565b6108a38285610d0a565b520196939291906107a3565b61089390610ec4565b90809250813d83116108e4575b6108cf8183610b97565b810103126108e05751816001610878565b8680fd5b503d6108c5565b8b513d8a823e3d90fd5b519384926370a0823160e01b845283015281855afa9081156109d1578f908f908b936109a0575b508d831561098b5790859392915194859384926303d1689d60e11b84528301525afa9182156108eb57889261095c575b5060019493610899939150610884565b90809250813d8311610984575b6109738183610b97565b810103126108e0575181600161094c565b503d610969565b50505050505060019291610899918791610884565b925050508281813d83116109ca575b6109b98183610b97565b8101031261060a57518e8e3861091c565b503d6109af565b8c513d8b823e3d90fd5b6109f190873d8911610261576102528183610b97565b5038610803565b5089946107e6565b8d8114159c506107de565b61064890875191829182610c57565b8380fd5b838334610150578060031936011261015057610a38610b81565b90336001600160a01b03831603610a555750610321919235610e4f565b5163334bd91960e11b81528390fd5b919050346101e257806003193601126101e2576103219135610a89600161030b610b81565b610dd1565b9050346101e25760203660031901126101e257816020936001923581528085522001549051908152f35b919050346101e257806003193601126101e2576020610ad5610b66565b82516363737ac960e11b8152602480359582019590955293849182906001600160a01b03165afa91821561074357839261070b576020838351908152f35b8491346101e25760203660031901126101e2573563ffffffff60e01b81168091036101e25760209250637965db0b60e01b8114908115610b55575b5015158152f35b6301ffc9a760e01b14905083610b4e565b600435906001600160a01b0382168203610b7c57565b600080fd5b602435906001600160a01b0382168203610b7c57565b90601f8019910116810190811067ffffffffffffffff821117610bb957604052565b634e487b7160e01b600052604160045260246000fd5b67ffffffffffffffff8111610bb95760051b60200190565b9080601f83011215610b7c576020908235610c0181610bcf565b93610c0f6040519586610b97565b81855260208086019260051b820101928311610b7c57602001905b828210610c38575050505090565b81356001600160a01b0381168103610b7c578152908301908301610c2a565b602090602060408183019282815285518094520193019160005b828110610c7f575050505090565b835185529381019392810192600101610c71565b34610b7c576000366003190112610b7c576040517f00000000000000000000000000000000000000000000000000000000000000006001600160a01b03168152602090f35b90610ce282610bcf565b610cef6040519182610b97565b8281528092610d00601f1991610bcf565b0190602036910137565b8051821015610d1e5760209160051b010190565b634e487b7160e01b600052603260045260246000fd5b90816020910312610b7c57516001600160a01b0381168103610b7c5790565b3360009081527fad3228b676f7d3cd4284a5443f17f1962b36e491b30a40b2405849e597ba5fb5602052604081205460ff1615610d8d5750565b6044906040519063e2517d3f60e01b82523360048301526024820152fd5b80600052600060205260406000203360005260205260ff6040600020541615610d8d5750565b9060009180835282602052604083209160018060a01b03169182845260205260ff60408420541615600014610e4a57808352826020526040832082845260205260408320600160ff198254161790557f2f8788117e7eff1d82e926ec794901d17c78024a50270940304540a733656f0d339380a4600190565b505090565b9060009180835282602052604083209160018060a01b03169182845260205260ff604084205416600014610e4a5780835282602052604083208284526020526040832060ff1981541690557ff6391f5c32d9c69d2a47ea670b442974b53935d1edc7fd64eb21e047a839171b339380a4600190565b60405163313ce56760e01b815290602090829060049082906001600160a01b03165afa8091600091610f03575b5090610efd5750601290565b60ff1690565b6020813d602011610f37575b81610f1c60209383610b97565b8101031261015057519060ff821682036101cd575038610ef1565b3d9150610f0f565b604d8111610f4d57600a0a90565b634e487b7160e01b600052601160045260246000fd5b906012811015610f955760120360128111610f4d57610f8190610f3f565b90818102918183041490151715610f4d5790565b60128111610fa1575090565b6011198101908111610f4d57610fb690610f3f565b908115610fc1570490565b634e487b7160e01b600052601260045260246000fdfea26469706673582212202476e25212a7291ebf932735f471a8530fbdf78b9b2b8a584151769e01c5acec64736f6c63430008180033",
  "devdoc": {
    "author": "dTrinity",
    "details": "For ERC4626 tokens, the balance is calculated by converting shares to underlying assets      using the ERC4626 convertToAssets() function. No debt calculation is needed      since ERC4626 tokens represent direct vault shares.",
    "errors": {
      "AccessControlBadConfirmation()": [
        {
          "details": "The caller of a function is not the expected one. NOTE: Don't confuse with {AccessControlUnauthorizedAccount}."
        }
      ],
      "AccessControlUnauthorizedAccount(address,bytes32)": [
        {
          "details": "The `account` is missing a role."
        }
      ]
    },
    "events": {
      "RoleAdminChanged(bytes32,bytes32,bytes32)": {
        "details": "Emitted when `newAdminRole` is set as ``role``'s admin role, replacing `previousAdminRole` `DEFAULT_ADMIN_ROLE` is the starting admin for all roles, despite {RoleAdminChanged} not being emitted signaling this."
      },
      "RoleGranted(bytes32,address,address)": {
        "details": "Emitted when `account` is granted `role`. `sender` is the account that originated the contract call, an admin role bearer except when using {AccessControl-_setupRole}."
      },
      "RoleRevoked(bytes32,address,address)": {
        "details": "Emitted when `account` is revoked `role`. `sender` is the account that originated the contract call:   - if using `revokeRole`, it is the admin role bearer   - if using `renounceRole`, it is the role bearer (i.e. `account`)"
      }
    },
    "kind": "dev",
    "methods": {
      "batchTokenBalances(address[],address[])": {
        "params": {
          "addresses": "Array of addresses to check balances for (up to 1000 addresses)",
          "sources": "Array of token addresses to check balances for"
        },
        "returns": {
          "result": "Array of effective balances (18 decimals) for each address across all sources"
        }
      },
      "constructor": {
        "params": {
          "_vaultToken": "The address of the primary vault token (ERC4626 vault)",
          "initialAdmin": "The address that will be granted the DEFAULT_ADMIN_ROLE"
        }
      },
      "convertAssetsToShares(address,uint256)": {
        "params": {
          "assets": "The amount of assets to convert",
          "vaultToken": "The vault token address"
        },
        "returns": {
          "_0": "The equivalent amount of shares"
        }
      },
      "convertSharesToAssets(address,uint256)": {
        "params": {
          "shares": "The amount of shares to convert",
          "vaultToken": "The vault token address"
        },
        "returns": {
          "_0": "The equivalent amount of underlying assets"
        }
      },
      "getMappedToken(address)": {
        "params": {
          "externalToken": "The external token address"
        },
        "returns": {
          "_0": "The mapped internal token address (address(0) if not mapped)"
        }
      },
      "getRoleAdmin(bytes32)": {
        "details": "Returns the admin role that controls `role`. See {grantRole} and {revokeRole}. To change a role's admin, use {_setRoleAdmin}."
      },
      "getTotalAssets(address)": {
        "params": {
          "vaultToken": "The vault token address"
        },
        "returns": {
          "_0": "The total amount of underlying assets managed by the vault"
        }
      },
      "getTotalSupply(address)": {
        "params": {
          "vaultToken": "The vault token address"
        },
        "returns": {
          "_0": "The total supply of vault shares"
        }
      },
      "getUnderlyingAsset(address)": {
        "params": {
          "vaultToken": "The vault token address"
        },
        "returns": {
          "_0": "The underlying asset address"
        }
      },
      "grantRole(bytes32,address)": {
        "details": "Grants `role` to `account`. If `account` had not been already granted `role`, emits a {RoleGranted} event. Requirements: - the caller must have ``role``'s admin role. May emit a {RoleGranted} event."
      },
      "hasRole(bytes32,address)": {
        "details": "Returns `true` if `account` has been granted `role`."
      },
      "isExternalToken(address)": {
        "params": {
          "token": "The token address to check"
        },
        "returns": {
          "_0": "True if the token is mapped as an external source"
        }
      },
      "mapExternalSource(address,address)": {
        "params": {
          "externalToken": "The address of the external token",
          "internalToken": "The address of the corresponding internal token"
        }
      },
      "removeExternalSource(address)": {
        "params": {
          "externalToken": "The address of the external token to remove"
        }
      },
      "renounceRole(bytes32,address)": {
        "details": "Revokes `role` from the calling account. Roles are often managed via {grantRole} and {revokeRole}: this function's purpose is to provide a mechanism for accounts to lose their privileges if they are compromised (such as when a trusted device is misplaced). If the calling account had been revoked `role`, emits a {RoleRevoked} event. Requirements: - the caller must be `callerConfirmation`. May emit a {RoleRevoked} event."
      },
      "revokeRole(bytes32,address)": {
        "details": "Revokes `role` from `account`. If `account` had been granted `role`, emits a {RoleRevoked} event. Requirements: - the caller must have ``role``'s admin role. May emit a {RoleRevoked} event."
      },
      "supportsInterface(bytes4)": {
        "details": "See {IERC165-supportsInterface}."
      },
      "tokenBalances(address,address[])": {
        "params": {
          "addresses": "Array of addresses to check balances for (up to 1000 addresses)",
          "token": "The address of the token to check balances for"
        },
        "returns": {
          "result": "Array of effective balances (18 decimals) corresponding to the addresses array"
        }
      },
      "vaultToken()": {
        "returns": {
          "_0": "The vault token address"
        }
      }
    },
    "title": "ERC4626BalanceChecker",
    "version": 1
  },
  "userdoc": {
    "errors": {
      "ExternalTokenNotMapped(address)": [
        {
          "notice": "Error thrown when trying to get balances for an external token that isn't mapped"
        }
      ],
      "InvalidAddress(address)": [
        {
          "notice": "Error thrown when an invalid address is provided"
        }
      ],
      "InvalidERC4626Token(address)": [
        {
          "notice": "Error thrown when a token is not a valid ERC4626 vault"
        }
      ],
      "NoSourcesProvided()": [
        {
          "notice": "Error thrown when no sources are provided to batch functions"
        }
      ]
    },
    "kind": "user",
    "methods": {
      "VAULT_TOKEN()": {
        "notice": "The primary vault token address (ERC4626 vault)"
      },
      "batchTokenBalances(address[],address[])": {
        "notice": "Returns the effective balances for multiple addresses across multiple tokens"
      },
      "convertAssetsToShares(address,uint256)": {
        "notice": "Convert underlying asset amount to vault shares"
      },
      "convertSharesToAssets(address,uint256)": {
        "notice": "Convert vault shares to underlying asset amount"
      },
      "externalSourceToInternalToken(address)": {
        "notice": "Mapping from external token to its corresponding internal token"
      },
      "getMappedToken(address)": {
        "notice": "Gets the mapped internal token for an external token"
      },
      "getTotalAssets(address)": {
        "notice": "Get the total assets managed by a vault"
      },
      "getTotalSupply(address)": {
        "notice": "Get the total supply of vault shares"
      },
      "getUnderlyingAsset(address)": {
        "notice": "Get the underlying asset address for a given vault token"
      },
      "isExternalToken(address)": {
        "notice": "Checks if a token is mapped as an external source"
      },
      "mapExternalSource(address,address)": {
        "notice": "Maps an external token to its corresponding internal token"
      },
      "removeExternalSource(address)": {
        "notice": "Removes an external token mapping"
      },
      "tokenBalances(address,address[])": {
        "notice": "Returns the effective balances for multiple addresses for a single token"
      },
      "vaultToken()": {
        "notice": "Get the vault token address"
      }
    },
    "notice": "Contract for checking balances of ERC4626 vault tokens",
    "version": 1
  },
  "storageLayout": {
    "storage": [
      {
        "astId": 26,
        "contract": "contracts/fxtl_balance_checkers/implementations/ERC4626BalanceChecker.sol:ERC4626BalanceChecker",
        "label": "_roles",
        "offset": 0,
        "slot": "0",
        "type": "t_mapping(t_bytes32,t_struct(RoleData)21_storage)"
      },
      {
        "astId": 582,
        "contract": "contracts/fxtl_balance_checkers/implementations/ERC4626BalanceChecker.sol:ERC4626BalanceChecker",
        "label": "externalSourceToInternalToken",
        "offset": 0,
        "slot": "1",
        "type": "t_mapping(t_address,t_address)"
      }
    ],
    "types": {
      "t_address": {
        "encoding": "inplace",
        "label": "address",
        "numberOfBytes": "20"
      },
      "t_bool": {
        "encoding": "inplace",
        "label": "bool",
        "numberOfBytes": "1"
      },
      "t_bytes32": {
        "encoding": "inplace",
        "label": "bytes32",
        "numberOfBytes": "32"
      },
      "t_mapping(t_address,t_address)": {
        "encoding": "mapping",
        "key": "t_address",
        "label": "mapping(address => address)",
        "numberOfBytes": "32",
        "value": "t_address"
      },
      "t_mapping(t_address,t_bool)": {
        "encoding": "mapping",
        "key": "t_address",
        "label": "mapping(address => bool)",
        "numberOfBytes": "32",
        "value": "t_bool"
      },
      "t_mapping(t_bytes32,t_struct(RoleData)21_storage)": {
        "encoding": "mapping",
        "key": "t_bytes32",
        "label": "mapping(bytes32 => struct AccessControl.RoleData)",
        "numberOfBytes": "32",
        "value": "t_struct(RoleData)21_storage"
      },
      "t_struct(RoleData)21_storage": {
        "encoding": "inplace",
        "label": "struct AccessControl.RoleData",
        "members": [
          {
            "astId": 18,
            "contract": "contracts/fxtl_balance_checkers/implementations/ERC4626BalanceChecker.sol:ERC4626BalanceChecker",
            "label": "hasRole",
            "offset": 0,
            "slot": "0",
            "type": "t_mapping(t_address,t_bool)"
          },
          {
            "astId": 20,
            "contract": "contracts/fxtl_balance_checkers/implementations/ERC4626BalanceChecker.sol:ERC4626BalanceChecker",
            "label": "adminRole",
            "offset": 0,
            "slot": "1",
            "type": "t_bytes32"
          }
        ],
        "numberOfBytes": "64"
      }
    }
  }
}