{
  "address": "0x09c418A9d8027EF890a91cCDFCe3C14D055E44dd",
  "abi": [
    {
      "inputs": [
        {
          "internalType": "address",
          "name": "initialAdmin",
          "type": "address"
        },
        {
          "internalType": "address",
          "name": "_vaultToken",
          "type": "address"
        }
      ],
      "stateMutability": "nonpayable",
      "type": "constructor"
    },
    {
      "inputs": [],
      "name": "AccessControlBadConfirmation",
      "type": "error"
    },
    {
      "inputs": [
        {
          "internalType": "address",
          "name": "account",
          "type": "address"
        },
        {
          "internalType": "bytes32",
          "name": "neededRole",
          "type": "bytes32"
        }
      ],
      "name": "AccessControlUnauthorizedAccount",
      "type": "error"
    },
    {
      "inputs": [
        {
          "internalType": "address",
          "name": "externalToken",
          "type": "address"
        }
      ],
      "name": "ExternalTokenNotMapped",
      "type": "error"
    },
    {
      "inputs": [
        {
          "internalType": "address",
          "name": "addr",
          "type": "address"
        }
      ],
      "name": "InvalidAddress",
      "type": "error"
    },
    {
      "inputs": [
        {
          "internalType": "address",
          "name": "token",
          "type": "address"
        }
      ],
      "name": "InvalidERC4626Token",
      "type": "error"
    },
    {
      "inputs": [],
      "name": "NoSourcesProvided",
      "type": "error"
    },
    {
      "anonymous": false,
      "inputs": [
        {
          "indexed": true,
          "internalType": "bytes32",
          "name": "role",
          "type": "bytes32"
        },
        {
          "indexed": true,
          "internalType": "bytes32",
          "name": "previousAdminRole",
          "type": "bytes32"
        },
        {
          "indexed": true,
          "internalType": "bytes32",
          "name": "newAdminRole",
          "type": "bytes32"
        }
      ],
      "name": "RoleAdminChanged",
      "type": "event"
    },
    {
      "anonymous": false,
      "inputs": [
        {
          "indexed": true,
          "internalType": "bytes32",
          "name": "role",
          "type": "bytes32"
        },
        {
          "indexed": true,
          "internalType": "address",
          "name": "account",
          "type": "address"
        },
        {
          "indexed": true,
          "internalType": "address",
          "name": "sender",
          "type": "address"
        }
      ],
      "name": "RoleGranted",
      "type": "event"
    },
    {
      "anonymous": false,
      "inputs": [
        {
          "indexed": true,
          "internalType": "bytes32",
          "name": "role",
          "type": "bytes32"
        },
        {
          "indexed": true,
          "internalType": "address",
          "name": "account",
          "type": "address"
        },
        {
          "indexed": true,
          "internalType": "address",
          "name": "sender",
          "type": "address"
        }
      ],
      "name": "RoleRevoked",
      "type": "event"
    },
    {
      "inputs": [],
      "name": "DEFAULT_ADMIN_ROLE",
      "outputs": [
        {
          "internalType": "bytes32",
          "name": "",
          "type": "bytes32"
        }
      ],
      "stateMutability": "view",
      "type": "function"
    },
    {
      "inputs": [],
      "name": "MAX_ADDRESSES",
      "outputs": [
        {
          "internalType": "uint256",
          "name": "",
          "type": "uint256"
        }
      ],
      "stateMutability": "view",
      "type": "function"
    },
    {
      "inputs": [],
      "name": "VAULT_TOKEN",
      "outputs": [
        {
          "internalType": "address",
          "name": "",
          "type": "address"
        }
      ],
      "stateMutability": "view",
      "type": "function"
    },
    {
      "inputs": [
        {
          "internalType": "address[]",
          "name": "sources",
          "type": "address[]"
        },
        {
          "internalType": "address[]",
          "name": "addresses",
          "type": "address[]"
        }
      ],
      "name": "batchTokenBalances",
      "outputs": [
        {
          "internalType": "uint256[]",
          "name": "result",
          "type": "uint256[]"
        }
      ],
      "stateMutability": "view",
      "type": "function"
    },
    {
      "inputs": [
        {
          "internalType": "address",
          "name": "vaultToken",
          "type": "address"
        },
        {
          "internalType": "uint256",
          "name": "assets",
          "type": "uint256"
        }
      ],
      "name": "convertAssetsToShares",
      "outputs": [
        {
          "internalType": "uint256",
          "name": "",
          "type": "uint256"
        }
      ],
      "stateMutability": "view",
      "type": "function"
    },
    {
      "inputs": [
        {
          "internalType": "address",
          "name": "vaultToken",
          "type": "address"
        },
        {
          "internalType": "uint256",
          "name": "shares",
          "type": "uint256"
        }
      ],
      "name": "convertSharesToAssets",
      "outputs": [
        {
          "internalType": "uint256",
          "name": "",
          "type": "uint256"
        }
      ],
      "stateMutability": "view",
      "type": "function"
    },
    {
      "inputs": [
        {
          "internalType": "address",
          "name": "",
          "type": "address"
        }
      ],
      "name": "externalSourceToInternalToken",
      "outputs": [
        {
          "internalType": "address",
          "name": "",
          "type": "address"
        }
      ],
      "stateMutability": "view",
      "type": "function"
    },
    {
      "inputs": [
        {
          "internalType": "address",
          "name": "externalToken",
          "type": "address"
        }
      ],
      "name": "getMappedToken",
      "outputs": [
        {
          "internalType": "address",
          "name": "",
          "type": "address"
        }
      ],
      "stateMutability": "view",
      "type": "function"
    },
    {
      "inputs": [
        {
          "internalType": "bytes32",
          "name": "role",
          "type": "bytes32"
        }
      ],
      "name": "getRoleAdmin",
      "outputs": [
        {
          "internalType": "bytes32",
          "name": "",
          "type": "bytes32"
        }
      ],
      "stateMutability": "view",
      "type": "function"
    },
    {
      "inputs": [
        {
          "internalType": "address",
          "name": "vaultToken",
          "type": "address"
        }
      ],
      "name": "getTotalAssets",
      "outputs": [
        {
          "internalType": "uint256",
          "name": "",
          "type": "uint256"
        }
      ],
      "stateMutability": "view",
      "type": "function"
    },
    {
      "inputs": [
        {
          "internalType": "address",
          "name": "vaultToken",
          "type": "address"
        }
      ],
      "name": "getTotalSupply",
      "outputs": [
        {
          "internalType": "uint256",
          "name": "",
          "type": "uint256"
        }
      ],
      "stateMutability": "view",
      "type": "function"
    },
    {
      "inputs": [
        {
          "internalType": "address",
          "name": "vaultToken",
          "type": "address"
        }
      ],
      "name": "getUnderlyingAsset",
      "outputs": [
        {
          "internalType": "address",
          "name": "",
          "type": "address"
        }
      ],
      "stateMutability": "view",
      "type": "function"
    },
    {
      "inputs": [
        {
          "internalType": "bytes32",
          "name": "role",
          "type": "bytes32"
        },
        {
          "internalType": "address",
          "name": "account",
          "type": "address"
        }
      ],
      "name": "grantRole",
      "outputs": [],
      "stateMutability": "nonpayable",
      "type": "function"
    },
    {
      "inputs": [
        {
          "internalType": "bytes32",
          "name": "role",
          "type": "bytes32"
        },
        {
          "internalType": "address",
          "name": "account",
          "type": "address"
        }
      ],
      "name": "hasRole",
      "outputs": [
        {
          "internalType": "bool",
          "name": "",
          "type": "bool"
        }
      ],
      "stateMutability": "view",
      "type": "function"
    },
    {
      "inputs": [
        {
          "internalType": "address",
          "name": "token",
          "type": "address"
        }
      ],
      "name": "isExternalToken",
      "outputs": [
        {
          "internalType": "bool",
          "name": "",
          "type": "bool"
        }
      ],
      "stateMutability": "view",
      "type": "function"
    },
    {
      "inputs": [
        {
          "internalType": "address",
          "name": "externalToken",
          "type": "address"
        },
        {
          "internalType": "address",
          "name": "internalToken",
          "type": "address"
        }
      ],
      "name": "mapExternalSource",
      "outputs": [],
      "stateMutability": "nonpayable",
      "type": "function"
    },
    {
      "inputs": [
        {
          "internalType": "address",
          "name": "externalToken",
          "type": "address"
        }
      ],
      "name": "removeExternalSource",
      "outputs": [],
      "stateMutability": "nonpayable",
      "type": "function"
    },
    {
      "inputs": [
        {
          "internalType": "bytes32",
          "name": "role",
          "type": "bytes32"
        },
        {
          "internalType": "address",
          "name": "callerConfirmation",
          "type": "address"
        }
      ],
      "name": "renounceRole",
      "outputs": [],
      "stateMutability": "nonpayable",
      "type": "function"
    },
    {
      "inputs": [
        {
          "internalType": "bytes32",
          "name": "role",
          "type": "bytes32"
        },
        {
          "internalType": "address",
          "name": "account",
          "type": "address"
        }
      ],
      "name": "revokeRole",
      "outputs": [],
      "stateMutability": "nonpayable",
      "type": "function"
    },
    {
      "inputs": [
        {
          "internalType": "bytes4",
          "name": "interfaceId",
          "type": "bytes4"
        }
      ],
      "name": "supportsInterface",
      "outputs": [
        {
          "internalType": "bool",
          "name": "",
          "type": "bool"
        }
      ],
      "stateMutability": "view",
      "type": "function"
    },
    {
      "inputs": [
        {
          "internalType": "address",
          "name": "token",
          "type": "address"
        },
        {
          "internalType": "address[]",
          "name": "addresses",
          "type": "address[]"
        }
      ],
      "name": "tokenBalances",
      "outputs": [
        {
          "internalType": "uint256[]",
          "name": "result",
          "type": "uint256[]"
        }
      ],
      "stateMutability": "view",
      "type": "function"
    },
    {
      "inputs": [],
      "name": "vaultToken",
      "outputs": [
        {
          "internalType": "address",
          "name": "",
          "type": "address"
        }
      ],
      "stateMutability": "view",
      "type": "function"
    }
  ],
  "transactionHash": "0xebb57d1f63ef50a812a0074dbbf0cbfc667073681841a35d269472164ca6ac23",
  "args": [
    "0x0f5e3D9AEe7Ab5fDa909Af1ef147D98a7f4B3022",
    "0x58AcC2600835211Dcb5847c5Fa422791Fd492409"
  ],
  "numDeployments": 1,
  "solcInputHash": "bafde7e70357f32a71ffb0c5c9aaaa3d",
  "bytecode": "0x60a0346100e15761122e90601f38839003908101601f19168201906001600160401b038211838310176100e657808391604095869485528339810103126100e157610055602061004e836100fc565b92016100fc565b906001600160a01b0380821680156100ca575082169182156100b25760805261007d90610110565b506000818152600160205282902080546001600160a01b03191690911790555161108d90816101a1823960805181610ce30152f35b8351634726455360e11b815260048101849052602490fd5b602490855190634726455360e11b82526004820152fd5b600080fd5b634e487b7160e01b600052604160045260246000fd5b51906001600160a01b03821682036100e157565b6001600160a01b031660008181527fad3228b676f7d3cd4284a5443f17f1962b36e491b30a40b2405849e597ba5fb5602052604081205490919060ff1661019c57818052816020526040822081835260205260408220600160ff1982541617905533917f2f8788117e7eff1d82e926ec794901d17c78024a50270940304540a733656f0d8180a4600190565b509056fe608060408181526004918236101561001657600080fd5b600092833560e01c91826301ffc9a714610b4d5750816312e4653d14610af2578163248a9ca314610ac85781632f2ff15d14610a9e57816336568abe14610a585781633ad206cc1461077e5781634499d14b14610670578163634da787146107615781636674b85f146106c357816368da10ae14610675578163703bafd5146106705781637688a47d146103e657816387d74481146104215781638c4ec2e3146103e657816391d14854146103a0578163a217fddf14610385578163d2de728d14610330578163d547741f146102f1578163e23bd2ad1461027d578163e8689daa146101f1578163ead6d2951461015f575063ed7d5c351461011757600080fd5b3461015b57602036600319011261015b57610130610ba0565b610138610d8d565b6001600160a01b031682526001602052812080546001600160a01b031916905580f35b5080fd5b83833461015b57602092836003193601126101ed57836001600160a01b03610185610ba0565b168351928380926278744560e21b82525afa9283156101e25780936101ad575b505051908152f35b909192508382813d83116101db575b6101c68183610bd1565b810103126101d85750519083806101a5565b80fd5b503d6101bc565b8251903d90823e3d90fd5b8280fd5b919050346101ed5760203660031901126101ed576001600160a01b0390602082610219610ba0565b168251948580926338d52e0f60e01b82525afa9283156102735760209493610244575b505191168152f35b610265919350843d861161026c575b61025d8183610bd1565b810190610d6e565b913861023c565b503d610253565b81513d86823e3d90fd5b919050346101ed57806003193601126101ed57610298610ba0565b6102a0610bbb565b906102a9610d8d565b6001600160a01b039182169384156102da57501683526001602052822080546001600160a01b031916909117905580f35b8351634726455360e11b8152908101859052602490fd5b919050346101ed57806003193601126101ed5761032c91356103276001610316610bbb565b938387528660205286200154610de5565b610e89565b5080f35b50503461015b57602036600319011261015b57602091906001600160a01b038181610359610ba0565b16938481526001865220541691821515928361037a575b5050519015158152f35b141591503880610370565b50503461015b578160031936011261015b5751908152602090f35b9050346101ed57816003193601126101ed578160209360ff926103c1610bbb565b903582528186528282206001600160a01b039091168252855220549151911615158152f35b50503461015b57602036600319011261015b576020916001600160a01b0390829082610410610ba0565b168152600185522054169051908152f35b8284346101d857816003193601126101d85767ffffffffffffffff9280358481116101ed576104539036908301610c21565b9160249060243586811161015b5761046e9036908501610c21565b938051156106605761047f85610efe565b6104898551610d12565b9682966020808801985b845181101561064f576001600160a01b03806104af8388610d44565b51161561064657868a8c8b848c956104c7888d610d44565b511693898051978896630eb481b360e21b885260448801958801528601525180925260648401929185915b8982841061062657505050505081900381305afa879181610590575b5061051e57506001905b01610493565b9596979899928795929491955b8b5181101561057d578c61054a82610543818c610d44565b5192610d44565b5190810180911161056b57906001916105648f8390610d44565b520161052b565b634e487b7160e01b8a5260118c528a8afd5b5092999897969550929093600190610518565b9091503d8089833e6105a28183610bd1565b810190848183031261061e5780519087821161062257019080601f8301121561061e5781516105d081610c09565b926105dd88519485610bd1565b818452868085019260051b82010192831161061a5786809101915b83831061060a5750505050908d61050e565b82518152918101918791016105f8565b8a80fd5b8880fd5b8980fd5b8451821686528e97508896509485019490930192600192909201916104f2565b50600190610518565b82518061065c8d82610c91565b0390f35b8551636234893160e11b81528490fd5b610ccd565b83833461015b57602092836003193601126101ed57836001600160a01b0361069b610ba0565b168351928380926318160ddd60e01b82525afa9283156101e25780936101ad57505051908152f35b919050346101ed57806003193601126101ed5760206106e0610ba0565b82516303d1689d60e11b8152602480359582019590955293849182906001600160a01b03165afa91821561075757839261071f575b6020838351908152f35b9091506020813d60201161074f575b8161073b60209383610bd1565b810103126101ed5760209250519038610715565b3d915061072e565b81513d85823e3d90fd5b50503461015b578160031936011261015b57602090516103e88152f35b905082346101d857826003193601126101d857610799610ba0565b92602493843567ffffffffffffffff8111610a54576107bb9036908601610c21565b6107c481610efe565b6107ce8151610d12565b918460018060a01b0392838316945b8151881015610a4557908493929189956107f78a84610d44565b5116988784528b6020600181528a8881882054169c8d9a8b15159b8c610a3a575b8c15610a3257945b8b861693516338d52e0f60e01b815285818481885afa9081610a15575b5061087157908f8f8f8f1561085e57505163662ca37360e11b815291820152fd5b9051630d136c1d60e11b81529283015250fd5b849596989a9c97999b9f508e949293948860001461092f57516370a0823160e01b8152918201939093529250908290818d5afa9182156109255788926108f2575b50600194936108d39391505b156108e957506108cd88610f44565b90610fe3565b6108dd8285610d44565b520196939291906107dd565b6108cd90610f44565b90809250813d831161091e575b6109098183610bd1565b8101031261091a57518160016108b2565b8680fd5b503d6108ff565b8b513d8a823e3d90fd5b519384926370a0823160e01b845283015281855afa908115610a0b578f908f908b936109da575b508d83156109c55790859392915194859384926303d1689d60e11b84528301525afa918215610925578892610996575b50600194936108d39391506108be565b90809250813d83116109be575b6109ad8183610bd1565b8101031261091a5751816001610986565b503d6109a3565b505050505050600192916108d39187916108be565b925050508281813d8311610a04575b6109f38183610bd1565b8101031261061e57518e8e38610956565b503d6109e9565b8c513d8b823e3d90fd5b610a2b90873d891161026c5761025d8183610bd1565b503861083d565b508994610820565b8d8114159c50610818565b61065c90875191829182610c91565b8380fd5b83833461015b578060031936011261015b57610a72610bbb565b90336001600160a01b03831603610a8f575061032c919235610e89565b5163334bd91960e11b81528390fd5b919050346101ed57806003193601126101ed5761032c9135610ac36001610316610bbb565b610e0b565b9050346101ed5760203660031901126101ed57816020936001923581528085522001549051908152f35b919050346101ed57806003193601126101ed576020610b0f610ba0565b82516363737ac960e11b8152602480359582019590955293849182906001600160a01b03165afa91821561075757839261071f576020838351908152f35b8491346101ed5760203660031901126101ed573563ffffffff60e01b81168091036101ed5760209250637965db0b60e01b8114908115610b8f575b5015158152f35b6301ffc9a760e01b14905083610b88565b600435906001600160a01b0382168203610bb657565b600080fd5b602435906001600160a01b0382168203610bb657565b90601f8019910116810190811067ffffffffffffffff821117610bf357604052565b634e487b7160e01b600052604160045260246000fd5b67ffffffffffffffff8111610bf35760051b60200190565b9080601f83011215610bb6576020908235610c3b81610c09565b93610c496040519586610bd1565b81855260208086019260051b820101928311610bb657602001905b828210610c72575050505090565b81356001600160a01b0381168103610bb6578152908301908301610c64565b602090602060408183019282815285518094520193019160005b828110610cb9575050505090565b835185529381019392810192600101610cab565b34610bb6576000366003190112610bb6576040517f00000000000000000000000000000000000000000000000000000000000000006001600160a01b03168152602090f35b90610d1c82610c09565b610d296040519182610bd1565b8281528092610d3a601f1991610c09565b0190602036910137565b8051821015610d585760209160051b010190565b634e487b7160e01b600052603260045260246000fd5b90816020910312610bb657516001600160a01b0381168103610bb65790565b3360009081527fad3228b676f7d3cd4284a5443f17f1962b36e491b30a40b2405849e597ba5fb5602052604081205460ff1615610dc75750565b6044906040519063e2517d3f60e01b82523360048301526024820152fd5b80600052600060205260406000203360005260205260ff6040600020541615610dc75750565b9060009180835282602052604083209160018060a01b03169182845260205260ff60408420541615600014610e8457808352826020526040832082845260205260408320600160ff198254161790557f2f8788117e7eff1d82e926ec794901d17c78024a50270940304540a733656f0d339380a4600190565b505090565b9060009180835282602052604083209160018060a01b03169182845260205260ff604084205416600014610e845780835282602052604083208284526020526040832060ff1981541690557ff6391f5c32d9c69d2a47ea670b442974b53935d1edc7fd64eb21e047a839171b339380a4600190565b6103e8905111610f0a57565b60405162461bcd60e51b8152602060048201526012602482015271544f4f5f4d414e595f41444452455353455360701b6044820152606490fd5b60405163313ce56760e01b815290602090829060049082906001600160a01b03165afa8091600091610f83575b5090610f7d5750601290565b60ff1690565b6020813d602011610fb7575b81610f9c60209383610bd1565b8101031261015b57519060ff821682036101d8575038610f71565b3d9150610f8f565b604d8111610fcd57600a0a90565b634e487b7160e01b600052601160045260246000fd5b9060128110156110155760120360128111610fcd5761100190610fbf565b90818102918183041490151715610fcd5790565b60128111611021575090565b6011198101908111610fcd5761103690610fbf565b908115611041570490565b634e487b7160e01b600052601260045260246000fdfea264697066735822122009318bca50e65b5340e47af7ea86a5a4c7e39b866c2226cdbc77e45213c46f7a64736f6c63430008180033",
  "devdoc": {
    "author": "dTrinity",
    "details": "For ERC4626 tokens, the balance is calculated by converting shares to underlying assets      using the ERC4626 convertToAssets() function. No debt calculation is needed      since ERC4626 tokens represent direct vault shares.",
    "errors": {
      "AccessControlBadConfirmation()": [
        {
          "details": "The caller of a function is not the expected one. NOTE: Don't confuse with {AccessControlUnauthorizedAccount}."
        }
      ],
      "AccessControlUnauthorizedAccount(address,bytes32)": [
        {
          "details": "The `account` is missing a role."
        }
      ]
    },
    "events": {
      "RoleAdminChanged(bytes32,bytes32,bytes32)": {
        "details": "Emitted when `newAdminRole` is set as ``role``'s admin role, replacing `previousAdminRole` `DEFAULT_ADMIN_ROLE` is the starting admin for all roles, despite {RoleAdminChanged} not being emitted signaling this."
      },
      "RoleGranted(bytes32,address,address)": {
        "details": "Emitted when `account` is granted `role`. `sender` is the account that originated the contract call, an admin role bearer except when using {AccessControl-_setupRole}."
      },
      "RoleRevoked(bytes32,address,address)": {
        "details": "Emitted when `account` is revoked `role`. `sender` is the account that originated the contract call:   - if using `revokeRole`, it is the admin role bearer   - if using `renounceRole`, it is the role bearer (i.e. `account`)"
      }
    },
    "kind": "dev",
    "methods": {
      "batchTokenBalances(address[],address[])": {
        "params": {
          "addresses": "Array of addresses to check balances for (up to 1000 addresses)",
          "sources": "Array of token addresses to check balances for"
        },
        "returns": {
          "result": "Array of effective balances (18 decimals) for each address across all sources"
        }
      },
      "constructor": {
        "params": {
          "_vaultToken": "The address of the primary vault token (ERC4626 vault)",
          "initialAdmin": "The address that will be granted the DEFAULT_ADMIN_ROLE"
        }
      },
      "convertAssetsToShares(address,uint256)": {
        "params": {
          "assets": "The amount of assets to convert",
          "vaultToken": "The vault token address"
        },
        "returns": {
          "_0": "The equivalent amount of shares"
        }
      },
      "convertSharesToAssets(address,uint256)": {
        "params": {
          "shares": "The amount of shares to convert",
          "vaultToken": "The vault token address"
        },
        "returns": {
          "_0": "The equivalent amount of underlying assets"
        }
      },
      "getMappedToken(address)": {
        "params": {
          "externalToken": "The external token address"
        },
        "returns": {
          "_0": "The mapped internal token address (address(0) if not mapped)"
        }
      },
      "getRoleAdmin(bytes32)": {
        "details": "Returns the admin role that controls `role`. See {grantRole} and {revokeRole}. To change a role's admin, use {_setRoleAdmin}."
      },
      "getTotalAssets(address)": {
        "params": {
          "vaultToken": "The vault token address"
        },
        "returns": {
          "_0": "The total amount of underlying assets managed by the vault"
        }
      },
      "getTotalSupply(address)": {
        "params": {
          "vaultToken": "The vault token address"
        },
        "returns": {
          "_0": "The total supply of vault shares"
        }
      },
      "getUnderlyingAsset(address)": {
        "params": {
          "vaultToken": "The vault token address"
        },
        "returns": {
          "_0": "The underlying asset address"
        }
      },
      "grantRole(bytes32,address)": {
        "details": "Grants `role` to `account`. If `account` had not been already granted `role`, emits a {RoleGranted} event. Requirements: - the caller must have ``role``'s admin role. May emit a {RoleGranted} event."
      },
      "hasRole(bytes32,address)": {
        "details": "Returns `true` if `account` has been granted `role`."
      },
      "isExternalToken(address)": {
        "params": {
          "token": "The token address to check"
        },
        "returns": {
          "_0": "True if the token is mapped as an external source"
        }
      },
      "mapExternalSource(address,address)": {
        "params": {
          "externalToken": "The address of the external token",
          "internalToken": "The address of the corresponding internal token"
        }
      },
      "removeExternalSource(address)": {
        "params": {
          "externalToken": "The address of the external token to remove"
        }
      },
      "renounceRole(bytes32,address)": {
        "details": "Revokes `role` from the calling account. Roles are often managed via {grantRole} and {revokeRole}: this function's purpose is to provide a mechanism for accounts to lose their privileges if they are compromised (such as when a trusted device is misplaced). If the calling account had been revoked `role`, emits a {RoleRevoked} event. Requirements: - the caller must be `callerConfirmation`. May emit a {RoleRevoked} event."
      },
      "revokeRole(bytes32,address)": {
        "details": "Revokes `role` from `account`. If `account` had been granted `role`, emits a {RoleRevoked} event. Requirements: - the caller must have ``role``'s admin role. May emit a {RoleRevoked} event."
      },
      "supportsInterface(bytes4)": {
        "details": "See {IERC165-supportsInterface}."
      },
      "tokenBalances(address,address[])": {
        "params": {
          "addresses": "Array of addresses to check balances for (up to 1000 addresses)",
          "token": "The address of the token to check balances for"
        },
        "returns": {
          "result": "Array of effective balances (18 decimals) corresponding to the addresses array"
        }
      },
      "vaultToken()": {
        "returns": {
          "_0": "The vault token address"
        }
      }
    },
    "title": "ERC4626BalanceChecker",
    "version": 1
  },
  "userdoc": {
    "errors": {
      "ExternalTokenNotMapped(address)": [
        {
          "notice": "Error thrown when trying to get balances for an external token that isn't mapped"
        }
      ],
      "InvalidAddress(address)": [
        {
          "notice": "Error thrown when an invalid address is provided"
        }
      ],
      "InvalidERC4626Token(address)": [
        {
          "notice": "Error thrown when a token is not a valid ERC4626 vault"
        }
      ],
      "NoSourcesProvided()": [
        {
          "notice": "Error thrown when no sources are provided to batch functions"
        }
      ]
    },
    "kind": "user",
    "methods": {
      "MAX_ADDRESSES()": {
        "notice": "Maximum number of addresses that can be processed in a single batch"
      },
      "VAULT_TOKEN()": {
        "notice": "The primary vault token address (ERC4626 vault)"
      },
      "batchTokenBalances(address[],address[])": {
        "notice": "Returns the effective balances for multiple addresses across multiple tokens"
      },
      "convertAssetsToShares(address,uint256)": {
        "notice": "Convert underlying asset amount to vault shares"
      },
      "convertSharesToAssets(address,uint256)": {
        "notice": "Convert vault shares to underlying asset amount"
      },
      "externalSourceToInternalToken(address)": {
        "notice": "Mapping from external token to its corresponding internal token"
      },
      "getMappedToken(address)": {
        "notice": "Gets the mapped internal token for an external token"
      },
      "getTotalAssets(address)": {
        "notice": "Get the total assets managed by a vault"
      },
      "getTotalSupply(address)": {
        "notice": "Get the total supply of vault shares"
      },
      "getUnderlyingAsset(address)": {
        "notice": "Get the underlying asset address for a given vault token"
      },
      "isExternalToken(address)": {
        "notice": "Checks if a token is mapped as an external source"
      },
      "mapExternalSource(address,address)": {
        "notice": "Maps an external token to its corresponding internal token"
      },
      "removeExternalSource(address)": {
        "notice": "Removes an external token mapping"
      },
      "tokenBalances(address,address[])": {
        "notice": "Returns the effective balances for multiple addresses for a single token"
      },
      "vaultToken()": {
        "notice": "Get the vault token address"
      }
    },
    "notice": "Contract for checking balances of ERC4626 vault tokens",
    "version": 1
  },
  "storageLayout": {
    "storage": [
      {
        "astId": 193,
        "contract": "contracts/fxtl_balance_checkers/implementations/ERC4626BalanceChecker.sol:ERC4626BalanceChecker",
        "label": "_roles",
        "offset": 0,
        "slot": "0",
        "type": "t_mapping(t_bytes32,t_struct(RoleData)188_storage)"
      },
      {
        "astId": 32648,
        "contract": "contracts/fxtl_balance_checkers/implementations/ERC4626BalanceChecker.sol:ERC4626BalanceChecker",
        "label": "externalSourceToInternalToken",
        "offset": 0,
        "slot": "1",
        "type": "t_mapping(t_address,t_address)"
      }
    ],
    "types": {
      "t_address": {
        "encoding": "inplace",
        "label": "address",
        "numberOfBytes": "20"
      },
      "t_bool": {
        "encoding": "inplace",
        "label": "bool",
        "numberOfBytes": "1"
      },
      "t_bytes32": {
        "encoding": "inplace",
        "label": "bytes32",
        "numberOfBytes": "32"
      },
      "t_mapping(t_address,t_address)": {
        "encoding": "mapping",
        "key": "t_address",
        "label": "mapping(address => address)",
        "numberOfBytes": "32",
        "value": "t_address"
      },
      "t_mapping(t_address,t_bool)": {
        "encoding": "mapping",
        "key": "t_address",
        "label": "mapping(address => bool)",
        "numberOfBytes": "32",
        "value": "t_bool"
      },
      "t_mapping(t_bytes32,t_struct(RoleData)188_storage)": {
        "encoding": "mapping",
        "key": "t_bytes32",
        "label": "mapping(bytes32 => struct AccessControl.RoleData)",
        "numberOfBytes": "32",
        "value": "t_struct(RoleData)188_storage"
      },
      "t_struct(RoleData)188_storage": {
        "encoding": "inplace",
        "label": "struct AccessControl.RoleData",
        "members": [
          {
            "astId": 185,
            "contract": "contracts/fxtl_balance_checkers/implementations/ERC4626BalanceChecker.sol:ERC4626BalanceChecker",
            "label": "hasRole",
            "offset": 0,
            "slot": "0",
            "type": "t_mapping(t_address,t_bool)"
          },
          {
            "astId": 187,
            "contract": "contracts/fxtl_balance_checkers/implementations/ERC4626BalanceChecker.sol:ERC4626BalanceChecker",
            "label": "adminRole",
            "offset": 0,
            "slot": "1",
            "type": "t_bytes32"
          }
        ],
        "numberOfBytes": "64"
      }
    }
  }
}