{
  "address": "0x52946E17a1eB64b518Ed78F4e434359f0Da71A70",
  "abi": [
    {
      "inputs": [
        {
          "internalType": "contract IERC3156FlashLender",
          "name": "_flashMinter",
          "type": "address"
        },
        {
          "internalType": "contract ILendingPoolAddressesProvider",
          "name": "_addressesProvider",
          "type": "address"
        },
        {
          "internalType": "contract ILendingPool",
          "name": "_liquidateLender",
          "type": "address"
        },
        {
          "internalType": "contract IAToken",
          "name": "_aDUSD",
          "type": "address"
        },
        {
          "internalType": "uint256",
          "name": "_slippageTolerance",
          "type": "uint256"
        },
        {
          "internalType": "contract IOdosRouterV2",
          "name": "_odosRouter",
          "type": "address"
        }
      ],
      "stateMutability": "nonpayable",
      "type": "constructor"
    },
    {
      "inputs": [
        {
          "internalType": "uint256",
          "name": "expected",
          "type": "uint256"
        },
        {
          "internalType": "uint256",
          "name": "actual",
          "type": "uint256"
        }
      ],
      "name": "InsufficientOutput",
      "type": "error"
    },
    {
      "inputs": [
        {
          "internalType": "uint256",
          "name": "value",
          "type": "uint256"
        }
      ],
      "name": "InvalidSlippageTolerance",
      "type": "error"
    },
    {
      "inputs": [],
      "name": "NoProfitableLiquidation",
      "type": "error"
    },
    {
      "inputs": [
        {
          "internalType": "address",
          "name": "borrowedToken",
          "type": "address"
        },
        {
          "internalType": "string",
          "name": "symbol",
          "type": "string"
        }
      ],
      "name": "NotSupportingNonDUSD",
      "type": "error"
    },
    {
      "inputs": [],
      "name": "OnlyLiquidator",
      "type": "error"
    },
    {
      "inputs": [],
      "name": "SwapFailed",
      "type": "error"
    },
    {
      "inputs": [],
      "name": "UnknownInitiator",
      "type": "error"
    },
    {
      "inputs": [],
      "name": "UnknownLender",
      "type": "error"
    },
    {
      "anonymous": false,
      "inputs": [
        {
          "indexed": true,
          "internalType": "address",
          "name": "initiator",
          "type": "address"
        },
        {
          "indexed": false,
          "internalType": "uint256",
          "name": "amount",
          "type": "uint256"
        }
      ],
      "name": "FlashLoan",
      "type": "event"
    },
    {
      "anonymous": false,
      "inputs": [
        {
          "indexed": true,
          "internalType": "address",
          "name": "liquidator",
          "type": "address"
        },
        {
          "indexed": false,
          "internalType": "address",
          "name": "borrower",
          "type": "address"
        },
        {
          "indexed": true,
          "internalType": "address",
          "name": "poolTokenBorrowedAddress",
          "type": "address"
        },
        {
          "indexed": true,
          "internalType": "address",
          "name": "poolTokenCollateralAddress",
          "type": "address"
        },
        {
          "indexed": false,
          "internalType": "uint256",
          "name": "amount",
          "type": "uint256"
        },
        {
          "indexed": false,
          "internalType": "uint256",
          "name": "seized",
          "type": "uint256"
        },
        {
          "indexed": false,
          "internalType": "bool",
          "name": "usingFlashLoan",
          "type": "bool"
        }
      ],
      "name": "Liquidated",
      "type": "event"
    },
    {
      "anonymous": false,
      "inputs": [
        {
          "indexed": true,
          "internalType": "address",
          "name": "_liquidatorAdded",
          "type": "address"
        }
      ],
      "name": "LiquidatorAdded",
      "type": "event"
    },
    {
      "anonymous": false,
      "inputs": [
        {
          "indexed": true,
          "internalType": "address",
          "name": "_liquidatorRemoved",
          "type": "address"
        }
      ],
      "name": "LiquidatorRemoved",
      "type": "event"
    },
    {
      "anonymous": false,
      "inputs": [
        {
          "indexed": true,
          "internalType": "address",
          "name": "previousOwner",
          "type": "address"
        },
        {
          "indexed": true,
          "internalType": "address",
          "name": "newOwner",
          "type": "address"
        }
      ],
      "name": "OwnershipTransferred",
      "type": "event"
    },
    {
      "anonymous": false,
      "inputs": [
        {
          "indexed": false,
          "internalType": "uint256",
          "name": "newTolerance",
          "type": "uint256"
        }
      ],
      "name": "SlippageToleranceSet",
      "type": "event"
    },
    {
      "anonymous": false,
      "inputs": [
        {
          "indexed": true,
          "internalType": "address",
          "name": "sender",
          "type": "address"
        },
        {
          "indexed": true,
          "internalType": "address",
          "name": "receiver",
          "type": "address"
        },
        {
          "indexed": true,
          "internalType": "address",
          "name": "underlyingAddress",
          "type": "address"
        },
        {
          "indexed": false,
          "internalType": "uint256",
          "name": "amount",
          "type": "uint256"
        }
      ],
      "name": "Withdrawn",
      "type": "event"
    },
    {
      "inputs": [],
      "name": "DUSD_DECIMALS",
      "outputs": [
        {
          "internalType": "uint256",
          "name": "",
          "type": "uint256"
        }
      ],
      "stateMutability": "view",
      "type": "function"
    },
    {
      "inputs": [],
      "name": "FLASHLOAN_CALLBACK",
      "outputs": [
        {
          "internalType": "bytes32",
          "name": "",
          "type": "bytes32"
        }
      ],
      "stateMutability": "view",
      "type": "function"
    },
    {
      "inputs": [],
      "name": "aDUSD",
      "outputs": [
        {
          "internalType": "contract IAToken",
          "name": "",
          "type": "address"
        }
      ],
      "stateMutability": "view",
      "type": "function"
    },
    {
      "inputs": [
        {
          "internalType": "address",
          "name": "_newLiquidator",
          "type": "address"
        }
      ],
      "name": "addLiquidator",
      "outputs": [],
      "stateMutability": "nonpayable",
      "type": "function"
    },
    {
      "inputs": [],
      "name": "addressesProvider",
      "outputs": [
        {
          "internalType": "contract ILendingPoolAddressesProvider",
          "name": "",
          "type": "address"
        }
      ],
      "stateMutability": "view",
      "type": "function"
    },
    {
      "inputs": [],
      "name": "dusd",
      "outputs": [
        {
          "internalType": "contract ERC20",
          "name": "",
          "type": "address"
        }
      ],
      "stateMutability": "view",
      "type": "function"
    },
    {
      "inputs": [],
      "name": "flashMinter",
      "outputs": [
        {
          "internalType": "contract IERC3156FlashLender",
          "name": "",
          "type": "address"
        }
      ],
      "stateMutability": "view",
      "type": "function"
    },
    {
      "inputs": [
        {
          "internalType": "address",
          "name": "_collateralUnderlying",
          "type": "address"
        },
        {
          "internalType": "bool",
          "name": "_isUnstakeCollateralToken",
          "type": "bool"
        }
      ],
      "name": "getActualCollateralToken",
      "outputs": [
        {
          "internalType": "address",
          "name": "actualCollateralToken_",
          "type": "address"
        },
        {
          "internalType": "address",
          "name": "proxyContract_",
          "type": "address"
        }
      ],
      "stateMutability": "view",
      "type": "function"
    },
    {
      "inputs": [
        {
          "internalType": "address",
          "name": "_collateralUnderlying",
          "type": "address"
        }
      ],
      "name": "getProxyContract",
      "outputs": [
        {
          "internalType": "address",
          "name": "",
          "type": "address"
        }
      ],
      "stateMutability": "view",
      "type": "function"
    },
    {
      "inputs": [
        {
          "internalType": "address",
          "name": "",
          "type": "address"
        }
      ],
      "name": "isLiquidator",
      "outputs": [
        {
          "internalType": "bool",
          "name": "",
          "type": "bool"
        }
      ],
      "stateMutability": "view",
      "type": "function"
    },
    {
      "inputs": [
        {
          "internalType": "address",
          "name": "_poolTokenBorrowedAddress",
          "type": "address"
        },
        {
          "internalType": "address",
          "name": "_poolTokenCollateralAddress",
          "type": "address"
        },
        {
          "internalType": "address",
          "name": "_borrower",
          "type": "address"
        },
        {
          "internalType": "uint256",
          "name": "_repayAmount",
          "type": "uint256"
        },
        {
          "internalType": "bool",
          "name": "_stakeTokens",
          "type": "bool"
        },
        {
          "internalType": "bool",
          "name": "_isUnstakeCollateralToken",
          "type": "bool"
        },
        {
          "internalType": "bytes",
          "name": "_swapData",
          "type": "bytes"
        }
      ],
      "name": "liquidate",
      "outputs": [],
      "stateMutability": "nonpayable",
      "type": "function"
    },
    {
      "inputs": [],
      "name": "liquidateLender",
      "outputs": [
        {
          "internalType": "contract ILendingPool",
          "name": "",
          "type": "address"
        }
      ],
      "stateMutability": "view",
      "type": "function"
    },
    {
      "inputs": [],
      "name": "odosRouter",
      "outputs": [
        {
          "internalType": "contract IOdosRouterV2",
          "name": "",
          "type": "address"
        }
      ],
      "stateMutability": "view",
      "type": "function"
    },
    {
      "inputs": [
        {
          "internalType": "address",
          "name": "_initiator",
          "type": "address"
        },
        {
          "internalType": "address",
          "name": "",
          "type": "address"
        },
        {
          "internalType": "uint256",
          "name": "",
          "type": "uint256"
        },
        {
          "internalType": "uint256",
          "name": "",
          "type": "uint256"
        },
        {
          "internalType": "bytes",
          "name": "data",
          "type": "bytes"
        }
      ],
      "name": "onFlashLoan",
      "outputs": [
        {
          "internalType": "bytes32",
          "name": "",
          "type": "bytes32"
        }
      ],
      "stateMutability": "nonpayable",
      "type": "function"
    },
    {
      "inputs": [],
      "name": "owner",
      "outputs": [
        {
          "internalType": "address",
          "name": "",
          "type": "address"
        }
      ],
      "stateMutability": "view",
      "type": "function"
    },
    {
      "inputs": [
        {
          "internalType": "address",
          "name": "_collateralERC4626Token",
          "type": "address"
        },
        {
          "internalType": "uint256",
          "name": "_amount",
          "type": "uint256"
        },
        {
          "internalType": "address",
          "name": "_recipient",
          "type": "address"
        }
      ],
      "name": "redeemERC4626Token",
      "outputs": [
        {
          "internalType": "uint256",
          "name": "",
          "type": "uint256"
        }
      ],
      "stateMutability": "nonpayable",
      "type": "function"
    },
    {
      "inputs": [
        {
          "internalType": "address",
          "name": "_liquidatorToRemove",
          "type": "address"
        }
      ],
      "name": "removeLiquidator",
      "outputs": [],
      "stateMutability": "nonpayable",
      "type": "function"
    },
    {
      "inputs": [],
      "name": "renounceOwnership",
      "outputs": [],
      "stateMutability": "nonpayable",
      "type": "function"
    },
    {
      "inputs": [
        {
          "internalType": "address",
          "name": "_collateralUnderlying",
          "type": "address"
        },
        {
          "internalType": "address",
          "name": "_proxyContract",
          "type": "address"
        }
      ],
      "name": "setProxyContract",
      "outputs": [],
      "stateMutability": "nonpayable",
      "type": "function"
    },
    {
      "inputs": [
        {
          "internalType": "uint256",
          "name": "_newTolerance",
          "type": "uint256"
        }
      ],
      "name": "setSlippageTolerance",
      "outputs": [],
      "stateMutability": "nonpayable",
      "type": "function"
    },
    {
      "inputs": [],
      "name": "slippageTolerance",
      "outputs": [
        {
          "internalType": "uint256",
          "name": "",
          "type": "uint256"
        }
      ],
      "stateMutability": "view",
      "type": "function"
    },
    {
      "inputs": [
        {
          "internalType": "address",
          "name": "newOwner",
          "type": "address"
        }
      ],
      "name": "transferOwnership",
      "outputs": [],
      "stateMutability": "nonpayable",
      "type": "function"
    },
    {
      "inputs": [
        {
          "internalType": "address",
          "name": "_underlyingAddress",
          "type": "address"
        },
        {
          "internalType": "address",
          "name": "_receiver",
          "type": "address"
        },
        {
          "internalType": "uint256",
          "name": "_amount",
          "type": "uint256"
        }
      ],
      "name": "withdraw",
      "outputs": [],
      "stateMutability": "nonpayable",
      "type": "function"
    }
  ],
  "transactionHash": "0x21b19e979146df610c374f92649764b341f20b02231fccab70c5fc7ca3585ca8",
  "args": [
    "0x788D96f655735f52c676A133f4dFC53cEC614d4A",
    "0xD9C622d64342B5FaCeef4d366B974AEf6dCB338D",
    "0xD76C827Ee2Ce1E37c37Fc2ce91376812d3c9BCE2",
    "0x29d0256fe397F6e442464982C4Cba7670646059b",
    500000,
    "0x56c85a254DD12eE8D9C04049a4ab62769Ce98210"
  ],
  "numDeployments": 1,
  "solcInputHash": "20ff408f655da67d47f547567fdb02d4",
  "bytecode": "0x61016060409080825234620002d95760c081620024058038038091620000268285620002de565b833981010312620002d95780516001600160a01b03929091908383168303620002d957602080830151928584168403620002d95782810151958087168703620002d95760608201519681881695868903620002d95760a06080850151940151968388168803620002d957859260049160009b8c9460018655600154933360018060a01b03198616176001558b519d8e9788968b3391167f8be0079c531659141344cd1fd0a4f28419497f9722a3daafe3b4186f6b6457e08380a333815260028a528d8120600160ff198254161790557fb0a258c58bd721bcb64542ee0e4e4c843ae58242f908c0681ad82d40d688f1fa339180a260805260a05260c05260e0526358b50cef60e11b82525afa8015620002cf5787906200028b575b600496501695826101009780895285519788809263313ce56760e01b82525afa9586156200027f57819662000225575b505090600080516020620023e58339815191529160ff61012096168652806003558351908152a161014091825251916120cc9384620003198539608051848181610a8901528181611313015281816115420152611694015260a0518481816102bd0152610f83015260c051848181610a440152611ba9015260e05184610438015251838181610bd3015281816112d1015281816115100152611976015251826104e301525181818161051c0152611f770152f35b909195508281813d831162000277575b620002418183620002de565b810103126200027357519060ff8216820362000270575093600080516020620023e58339815191523862000171565b80fd5b5080fd5b503d62000235565b508351903d90823e3d90fd5b50948281813d8311620002c7575b620002a58183620002de565b81010312620002c35751948086168603620002c35760049562000141565b8680fd5b503d62000299565b84513d89823e3d90fd5b600080fd5b601f909101601f19168101906001600160401b038211908210176200030257604052565b634e487b7160e01b600052604160045260246000fdfe6080604052600436101561001257600080fd5b60003560e01c8063117da1ee1461018757806323e30c8b146101825780632a6b0c241461017d5780632ae18104146101785780634c4e7f6f14610173578063506864791461016e578063529a356f146101695780636333b56914610164578063715018a61461015f57806373d190db1461015a5780638321928d14610155578063845a9f78146101505780638da5cb5b1461014b57806398776288146101465780639922595514610141578063c72c4d101461013c578063cd955ace14610137578063d03153aa14610132578063d9caed121461012d578063de1409ce14610128578063efb7440014610123578063f2fde38b1461011e5763fc4fdd3d1461011957600080fd5b610d14565b610c78565b610c02565b610bbd565b610ad6565b610ab8565b610a73565b610a2e565b61073b565b6105ca565b6105a1565b610555565b610506565b6104cb565b610467565b610422565b6103e0565b6103a0565b610327565b6102ec565b6102a7565b610219565b34610203576020366003190112610203576004356101b060018060a01b03600154163314610d4d565b620f424081116101eb576020817f84cb977e2a9a6a9b1fc0d73c4b02cd51695c09eb0d3008d61019a7c0a7406c4c92600355604051908152a1005b6024906040519063295eaa3d60e01b82526004820152fd5b600080fd5b6001600160a01b0381160361020357565b346102035760a03660031901126102035760043561023681610208565b610241602435610208565b60843567ffffffffffffffff808211610203573660238301121561020357816004013590811161020357366024828401011161020357610298926024610288930190611689565b6040519081529081906020820190565b0390f35b600091031261020357565b34610203576000366003190112610203576040517f00000000000000000000000000000000000000000000000000000000000000006001600160a01b03168152602090f35b346102035760003660031901126102035760206040517f439148f0bbc682ca079e46d6e2c2f0c1e3b820f1a291b069d8882abf8cf18dd98152f35b346102035760203660031901126102035760043561034481610208565b6001546001600160a01b03919061035e9083163314610d4d565b166000818152600260205260408120805460ff19166001179055907fb0a258c58bd721bcb64542ee0e4e4c843ae58242f908c0681ad82d40d688f1fa8280a280f35b346102035760603660031901126102035760206103d86004356103c281610208565b604435906103cf82610208565b60243590610dfc565b604051908152f35b34610203576020366003190112610203576004356103fd81610208565b60018060a01b03166000526002602052602060ff604060002054166040519015158152f35b34610203576000366003190112610203576040517f00000000000000000000000000000000000000000000000000000000000000006001600160a01b03168152602090f35b34610203576000806003193601126104c85760015481906001600160a01b03811690610494338314610d4d565b6001600160a01b0319166001557f8be0079c531659141344cd1fd0a4f28419497f9722a3daafe3b4186f6b6457e08280a380f35b80fd5b346102035760003660031901126102035760206040517f00000000000000000000000000000000000000000000000000000000000000008152f35b34610203576000366003190112610203576040517f00000000000000000000000000000000000000000000000000000000000000006001600160a01b03168152602090f35b8015150361020357565b3461020357604036600319011261020357604061058960043561057781610208565b602435906105848261054b565b611efb565b82516001600160a01b03928316815291166020820152f35b34610203576000366003190112610203576001546040516001600160a01b039091168152602090f35b34610203576040366003190112610203576004356105e781610208565b602435906105f482610208565b6001546001600160a01b0391829161060f9083163314610d4d565b166000526004602052604060002091166bffffffffffffffffffffffff60a01b825416179055600080f35b634e487b7160e01b600052604160045260246000fd5b67ffffffffffffffff811161066457604052565b61063a565b610120810190811067ffffffffffffffff82111761066457604052565b90601f8019910116810190811067ffffffffffffffff82111761066457604052565b60405190610100820182811067ffffffffffffffff82111761066457604052565b604051906106d682610669565b565b67ffffffffffffffff811161066457601f01601f191660200190565b81601f820112156102035780359061070b826106d8565b926107196040519485610686565b8284526020838301011161020357816000926020809301838601378301015290565b346102035760e03660031901126102035760043561075881610208565b60243561076481610208565b6044359161077183610208565b608435906064356107818361054b565b60a4359461078e8661054b565b60c43567ffffffffffffffff8111610203576107ae9036906004016106f4565b60009660028854146109e957600288556107c787611626565b926107d186611626565b956107ec6107dd6106a8565b6001600160a01b039096168652565b6001600160a01b03968716602086018181529988166040870190815291881660608701908152336080880190815293891660a0880190815260c0880189815286151560e08a0152999b998d9994959094919390929190610853905b6001600160a01b031690565b6040516370a0823160e01b815230600482015290602090829060249082905afa9081156109e4578f916109b6575b50106108c35750505050505050610899919250610f21565b915b156108af575b836108ac6001600055565b80f35b6108bb92339116610e9e565b3880806108a1565b9193959750919395516108db9060018060a01b031690565b6001600160a01b031697516001600160a01b03166001600160a01b031694516001600160a01b03166001600160a01b031690516001600160a01b03166001600160a01b031691516001600160a01b031692516001600160a01b03169351946109416106c9565b6001600160a01b0390991689526001600160a01b031660208901526001600160a01b031660408801526001600160a01b031660608701526001600160a01b031660808601526001600160a01b031660a085015260c0840152151560e08301526101008201526109af906112af565b909161089b565b6109d7915060203d81116109dd575b6109cf8183610686565b810190610de1565b38610881565b503d6109c5565b610df0565b60405162461bcd60e51b815260206004820152601f60248201527f5265656e7472616e637947756172643a207265656e7472616e742063616c6c006044820152606490fd5b34610203576000366003190112610203576040517f00000000000000000000000000000000000000000000000000000000000000006001600160a01b03168152602090f35b34610203576000366003190112610203576040517f00000000000000000000000000000000000000000000000000000000000000006001600160a01b03168152602090f35b34610203576000366003190112610203576020600354604051908152f35b3461020357606036600319011261020357600435610af381610208565b602435610aff81610208565b6044359160018060a01b038091610b1b82600154163314610d4d565b6040516370a0823160e01b8152306004820152911693602082602481885afa9081156109e4577fa4195c37c2947bbe89165f03e320b6903116f0b10d8cfdb522330f7ce6f9fa2492600092610b9d575b5081811115610b955750915b610b82838587610e9e565b60405192835292909216913391602090a4005b905091610b77565b610bb691925060203d81116109dd576109cf8183610686565b9038610b6b565b34610203576000366003190112610203576040517f00000000000000000000000000000000000000000000000000000000000000006001600160a01b03168152602090f35b3461020357602036600319011261020357600435610c1f81610208565b6001546001600160a01b039190610c399083163314610d4d565b166000818152600260205260408120805460ff19169055907f06091797105e9997e06a57873c81a60a419050caf1d0ffedacc53ffc767f84f58280a280f35b3461020357602036600319011261020357600435610c9581610208565b6001546001600160a01b0390610cae9082163314610d4d565b811615610cc057610cbe90610d98565b005b60405162461bcd60e51b815260206004820152602660248201527f4f776e61626c653a206e6577206f776e657220697320746865207a65726f206160448201526564647265737360d01b6064820152608490fd5b34610203576020366003190112610203576020610d3b600435610d3681610208565b610e5f565b6040516001600160a01b039091168152f35b15610d5457565b606460405162461bcd60e51b815260206004820152602060248201527f4f776e61626c653a2063616c6c6572206973206e6f7420746865206f776e65726044820152fd5b600180546001600160a01b039283166001600160a01b0319821681179092559091167f8be0079c531659141344cd1fd0a4f28419497f9722a3daafe3b4186f6b6457e0600080a3565b90816020910312610203575190565b6040513d6000823e3d90fd5b606460209260006040519586948593635d043b2960e11b8552600485015260018060a01b038092168060248601526044850152165af19081156109e457600091610e44575090565b610e5c915060203d81116109dd576109cf8183610686565b90565b6001600160a01b038181166000908152600460205260409020541680610e83575090565b905090565b634e487b7160e01b600052601160045260246000fd5b600091826044926020956040519363a9059cbb60e01b8552600485015260248401525af13d15601f3d1160016000511416171615610ed857565b60405162461bcd60e51b815260206004820152600f60248201526e1514905394d1915497d19052531151608a1b6044820152606490fd5b91908203918211610f1c57565b610e88565b8051909190610f38906001600160a01b0316610847565b6040516370a0823160e01b808252306004830152936020928390839060249082905afa9182156109e457600092611174575b50808301516001600160a01b03169160018060a01b03807f00000000000000000000000000000000000000000000000000000000000000001696610fb560c085019589875191611193565b6040840195610fd8610847610fd36108478a5160018060a01b031690565b611626565b946060810195610ff7610847610fd36108478a5160018060a01b031690565b60a083018051909c919291906001600160a01b0316908a5193813b156102035760405162a718a960e01b81526001600160a01b0394851660048201529084166024820152919092166044820152606481019290925260006084830181905290829060a490829084905af180156109e4578392611084926108479261115b575b50516001600160a01b031690565b604051938452306004850152839060249082905afa9384156109e4576108476110f46110e66110f4937fe96c57864e490909fadd8ddc506e391bc4946ed905e39f7e71321861c798d3e698611102976108479760009261113e575b5050610f0f565b9b516001600160a01b031690565b96516001600160a01b031690565b9351604080516001600160a01b03909516855260208501919091528301879052600060608401529283169390921691339180608081015b0390a4565b6111549250803d106109dd576109cf8183610686565b38806110df565b8061116861116e92610650565b8061029c565b38611076565b61118c919250833d85116109dd576109cf8183610686565b9038610f6a565b600091826044926020956040519363095ea7b360e01b8552600485015260248401525af13d15601f3d11600160005114161716156111cd57565b60405162461bcd60e51b815260206004820152600e60248201526d1054141493d59157d1905253115160921b6044820152606490fd5b90620f4240918201809211610f1c57565b91908201809211610f1c57565b908160209103126102035751610e5c8161054b565b60005b8381106112495750506000910152565b8181015183820152602001611239565b9060209161127281518092818552858086019101611236565b601f01601f1916010190565b6001600160a01b039182168152911660208201526040810191909152608060608201819052610e5c92910190611259565b906112b982611576565b906112c26114f9565b604051633676633960e21b81527f00000000000000000000000000000000000000000000000000000000000000006001600160a01b03818116600484018190526024840185905293969095602094937f00000000000000000000000000000000000000000000000000000000000000008816939192908681604481885afa9283156109e4578561136261138895611368946000916114dc575b508d611214565b91611193565b80516113829060e0906001600160a01b0316920151151590565b90611efb565b506040516370a0823160e01b80825230600483015291978816928682602481875afa9485156109e4578a88936000976114b6575b5060006113e396979860405197889586948593632e7ff4ef60e11b8552306004860161127e565b03925af19182156109e4578592611489575b5060405190815230600482015291829060249082905afa9283156109e45760009361146a575b5050808211156114605761142e91610f0f565b925b60405190815233907f134bde118562a60dcf2d8c52965f586e25cf88a371592e44b78c4aa03bcbac8490602090a2565b5050600092611430565b611481929350803d106109dd576109cf8183610686565b90388061141b565b6114a890833d85116114af575b6114a08183610686565b810190611221565b50386113f5565b503d611496565b6113e39697506114d4600091863d88116109dd576109cf8183610686565b9796506113bc565b6114f391508b3d8d116109dd576109cf8183610686565b3861135b565b60405163613255ab60e01b81526001600160a01b037f000000000000000000000000000000000000000000000000000000000000000081166004830152602090829060249082907f0000000000000000000000000000000000000000000000000000000000000000165afa9081156109e457600091610e44575090565b610e5c60018060a01b03916116038382511691846020820151169480604083015116918160608201511691806080830151169060a08301511660c08301519160e084015115159461010080950151966040519b8c9a60208c015260408b015260608a0152608089015260a088015260c087015260e086015284015261012080840152610140830190611259565b03601f198101835282610686565b908160209103126102035751610e5c81610208565b6040516358b50cef60e11b81526001600160a01b03916020908290600490829086165afa9081156109e45760009161165d57501690565b61167e915060203d8111611682575b6116768183610686565b810190611611565b1690565b503d61166c565b6001600160a01b03907f0000000000000000000000000000000000000000000000000000000000000000821633036117da5781309116036117c857604051926116d184610669565b60008085528260208601918083528660408101968288526060820197838952846080840199858b5260a0850197868952828060c088019789895260e08101998a52610100019b60608d5287019581611729888a6117ec565b50505050509095166001600160a01b03169097529592166001600160a01b03169052166001600160a01b03169052166001600160a01b03168a5261176c916117ec565b909c529a15159097529894935061178292505050565b52166001600160a01b03169052166001600160a01b031690526117a490611961565b7f439148f0bbc682ca079e46d6e2c2f0c1e3b820f1a291b069d8882abf8cf18dd990565b604051634ac321c360e11b8152600490fd5b604051631e4a393d60e31b8152600490fd5b916101208383031261020357823561180381610208565b92602081013561181281610208565b92604082013561182181610208565b92606083013561183081610208565b92608081013561183f81610208565b9260a082013561184e81610208565b9260c08301359260e08101356118638161054b565b9261010082013567ffffffffffffffff811161020357610e5c92016106f4565b6020818303126102035780519067ffffffffffffffff8211610203570181601f820112156102035780516118b6816106d8565b926118c46040519485610686565b8184526020828401011161020357610e5c9160208085019101611236565b6001600160a01b039091168152604060208201819052610e5c92910190611259565b90816020910312610203575160ff811681036102035790565b60ff16604d8111610f1c57600a0a90565b81810292918115918404141715610f1c57565b811561194b570490565b634e487b7160e01b600052601260045260246000fd5b602081810180516001600160a01b03908116807f000000000000000000000000000000000000000000000000000000000000000083168103611e8f57505083516001600160a01b03166001600160a01b031682519091906001600160a01b03166001600160a01b031660408681018051909792949291906001600160a01b03166001600160a01b03166060830180519198909790916001600160a01b03166001600160a01b03166080850180519098906001600160a01b031660a087018051909c919891906001600160a01b03169860c08901998a519160e08b01968751611a4890151590565b94611a516106a8565b6001600160a01b0390971687526001600160a01b03909716868b01908152966001600160a01b0316868c01526001600160a01b031660608601526001600160a01b031660808501526001600160a01b031660a084015260c0830152151560e0820152611abc90610f21565b83519096906001600160a01b031681516001600160a01b0316908a808316911603611b77575b50505050505090611139918480611b456110e6611b37611b297fe96c57864e490909fadd8ddc506e391bc4946ed905e39f7e71321861c798d3e69b5160018060a01b031690565b9c516001600160a01b031690565b9a516001600160a01b031690565b95519251968796169a169816968460609194936001936080830196858060a01b03168352602083015260408201520152565b611b8990611382859998979951151590565b935190938791611dfb575b508551631f94a27560e31b81529088826004817f00000000000000000000000000000000000000000000000000000000000000008f165afa9182156109e4578b928391600091611dde575b5016908751908a8260048163313ce56760e01b978882528b165afa9182156109e457611c1d92611c1791600091611dc1575b5061191d565b9061192e565b8651885163b3596f0760e01b8082526001600160a01b0390921660048201529091908b81602481875afa80156109e4578c92611c6192600092611da2575b5061192e565b89519283526001600160a01b03881660048401529192839060249082905afa9081156109e457611ca2611cb092610847928d95600092611d83575b50611941565b95516001600160a01b031690565b91600488518094819382525afa9788156109e4577fe96c57864e490909fadd8ddc506e391bc4946ed905e39f7e71321861c798d3e69b611d498c9788978d6110e6976101006111399f611ca2611d35611d2a611b459e611d24611d3e95611b379f611b299f600092611d56575b505061191d565b90611941565b611c17600354611203565b620f4240900490565b910151915192611f60565b509b505085969750611ae2565b611d759250803d10611d7c575b611d6d8183610686565b810190611904565b3880611d1d565b503d611d63565b611d9b919250863d88116109dd576109cf8183610686565b9038611c9c565b611dba919250843d86116109dd576109cf8183610686565b9038611c5b565b611dd891508d803d10611d7c57611d6d8183610686565b38611c11565b611df591508b3d8d11611682576116768183610686565b38611bdf565b8251600092508990611e4c90611e1b90610847906001600160a01b031681565b895163095ea7b360e01b81526001600160a01b0385166004820152602481018c905294859283919082906044820190565b03925af19081156109e457600492611e6c92611e72575b50883091610dfc565b90611b94565b611e88908b3d8d116114af576114a08183610686565b5038611e63565b906000600492604051938480926395d89b4160e01b82525afa9182156109e457600092611ed8575b50611ed4604051928392635620c2dd60e01b8452600484016118e2565b0390fd5b611ef491923d8091833e611eec8183610686565b810190611883565b9082611eb7565b6000929115611f5c57611f0f919250610e5f565b6040516338d52e0f60e01b81529091906020816004816001600160a01b0387165afa9081156109e457600091611f4457509190565b611f5c915060203d8111611682576116768183610686565b9190565b60405163095ea7b360e01b81526001600160a01b037f000000000000000000000000000000000000000000000000000000000000000081166004830181905260248301979097529495929360209391928490849060449082906000908b165af19182156109e4576000938493612049575b50828583519301915af1611fe3612066565b901561202c5701519280841061200b5790612002610e5c939285610f0f565b91339116610e9e565b604051630583371760e31b8152600481019190915260248101849052604490fd5b805191826120465760405163081ceff360e41b8152600490fd5b01fd5b61205f90863d88116114af576114a08183610686565b5038611fd1565b3d15612091573d90612077826106d8565b916120856040519384610686565b82523d6000602084013e565b60609056fea2646970667358221220e11c5145183a3cc7b3b205c292a3504289f0f42982537dc0050ef510c83c08e064736f6c6343000814003384cb977e2a9a6a9b1fc0d73c4b02cd51695c09eb0d3008d61019a7c0a7406c4c",
  "devdoc": {
    "kind": "dev",
    "methods": {
      "getActualCollateralToken(address,bool)": {
        "details": "Get the actual collateral token address",
        "params": {
          "_collateralUnderlying": "The underlying collateral token address",
          "_isUnstakeCollateralToken": "Whether the collateral token is unstaked"
        },
        "returns": {
          "actualCollateralToken_": "The actual collateral token address",
          "proxyContract_": "The proxy contract address"
        }
      },
      "onFlashLoan(address,address,uint256,uint256,bytes)": {
        "details": "ERC-3156 Flash loan callback"
      },
      "owner()": {
        "details": "Returns the address of the current owner."
      },
      "renounceOwnership()": {
        "details": "Leaves the contract without owner. It will not be possible to call `onlyOwner` functions anymore. Can only be called by the current owner. NOTE: Renouncing ownership will leave the contract without an owner, thereby removing any functionality that is only available to the owner."
      },
      "transferOwnership(address)": {
        "details": "Transfers ownership of the contract to a new account (`newOwner`). Can only be called by the current owner."
      }
    },
    "version": 1
  },
  "userdoc": {
    "errors": {
      "InsufficientOutput(uint256,uint256)": [
        {
          "notice": "Custom error when actual output amount is less than expected"
        }
      ],
      "SwapFailed()": [
        {
          "notice": "Custom error for failed swap with no revert reason"
        }
      ]
    },
    "kind": "user",
    "methods": {},
    "version": 1
  },
  "storageLayout": {
    "storage": [
      {
        "astId": 115,
        "contract": "contracts/lending_liquidator/aave-v3/FlashMintLiquidatorAaveBorrowRepayOdos.sol:FlashMintLiquidatorAaveBorrowRepayOdos",
        "label": "_status",
        "offset": 0,
        "slot": "0",
        "type": "t_uint256"
      },
      {
        "astId": 7,
        "contract": "contracts/lending_liquidator/aave-v3/FlashMintLiquidatorAaveBorrowRepayOdos.sol:FlashMintLiquidatorAaveBorrowRepayOdos",
        "label": "_owner",
        "offset": 0,
        "slot": "1",
        "type": "t_address"
      },
      {
        "astId": 10390,
        "contract": "contracts/lending_liquidator/aave-v3/FlashMintLiquidatorAaveBorrowRepayOdos.sol:FlashMintLiquidatorAaveBorrowRepayOdos",
        "label": "isLiquidator",
        "offset": 0,
        "slot": "2",
        "type": "t_mapping(t_address,t_bool)"
      },
      {
        "astId": 9237,
        "contract": "contracts/lending_liquidator/aave-v3/FlashMintLiquidatorAaveBorrowRepayOdos.sol:FlashMintLiquidatorAaveBorrowRepayOdos",
        "label": "slippageTolerance",
        "offset": 0,
        "slot": "3",
        "type": "t_uint256"
      },
      {
        "astId": 9251,
        "contract": "contracts/lending_liquidator/aave-v3/FlashMintLiquidatorAaveBorrowRepayOdos.sol:FlashMintLiquidatorAaveBorrowRepayOdos",
        "label": "proxyContractMap",
        "offset": 0,
        "slot": "4",
        "type": "t_mapping(t_address,t_address)"
      }
    ],
    "types": {
      "t_address": {
        "encoding": "inplace",
        "label": "address",
        "numberOfBytes": "20"
      },
      "t_bool": {
        "encoding": "inplace",
        "label": "bool",
        "numberOfBytes": "1"
      },
      "t_mapping(t_address,t_address)": {
        "encoding": "mapping",
        "key": "t_address",
        "label": "mapping(address => address)",
        "numberOfBytes": "32",
        "value": "t_address"
      },
      "t_mapping(t_address,t_bool)": {
        "encoding": "mapping",
        "key": "t_address",
        "label": "mapping(address => bool)",
        "numberOfBytes": "32",
        "value": "t_bool"
      },
      "t_uint256": {
        "encoding": "inplace",
        "label": "uint256",
        "numberOfBytes": "32"
      }
    }
  }
}