{
  "address": "0x5E1CE4FAFE4272e4f7FE3d7CbBC6C43D5ff165FA",
  "abi": [
    {
      "inputs": [
        {
          "internalType": "contract IERC3156FlashLender",
          "name": "_flashMinter",
          "type": "address"
        },
        {
          "internalType": "contract ILendingPoolAddressesProvider",
          "name": "_addressesProvider",
          "type": "address"
        },
        {
          "internalType": "contract ILendingPool",
          "name": "_liquidateLender",
          "type": "address"
        },
        {
          "internalType": "contract IAToken",
          "name": "_aDUSD",
          "type": "address"
        },
        {
          "internalType": "uint256",
          "name": "_slippageTolerance",
          "type": "uint256"
        },
        {
          "internalType": "contract ICurveRouterNgPoolsOnlyV1",
          "name": "_curveRouter",
          "type": "address"
        },
        {
          "internalType": "uint256",
          "name": "_maxSlippageSurplusSwapBps",
          "type": "uint256"
        },
        {
          "components": [
            {
              "internalType": "address",
              "name": "inputToken",
              "type": "address"
            },
            {
              "internalType": "address",
              "name": "outputToken",
              "type": "address"
            },
            {
              "components": [
                {
                  "internalType": "address[11]",
                  "name": "route",
                  "type": "address[11]"
                },
                {
                  "internalType": "uint256[4][5]",
                  "name": "swapParams",
                  "type": "uint256[4][5]"
                },
                {
                  "internalType": "uint256",
                  "name": "swapSlippageBufferBps",
                  "type": "uint256"
                }
              ],
              "internalType": "struct CurveHelper.CurveSwapExtraParams",
              "name": "swapExtraParams",
              "type": "tuple"
            },
            {
              "components": [
                {
                  "internalType": "address[11]",
                  "name": "route",
                  "type": "address[11]"
                },
                {
                  "internalType": "uint256[4][5]",
                  "name": "swapParams",
                  "type": "uint256[4][5]"
                },
                {
                  "internalType": "uint256",
                  "name": "swapSlippageBufferBps",
                  "type": "uint256"
                }
              ],
              "internalType": "struct CurveHelper.CurveSwapExtraParams",
              "name": "reverseSwapExtraParams",
              "type": "tuple"
            }
          ],
          "internalType": "struct FlashMintLiquidatorAaveBorrowRepayCurve.CurveSwapExtraParamsDefaultConfig[]",
          "name": "_defaultSwapParamsList",
          "type": "tuple[]"
        }
      ],
      "stateMutability": "nonpayable",
      "type": "constructor"
    },
    {
      "inputs": [
        {
          "internalType": "address",
          "name": "inputToken",
          "type": "address"
        },
        {
          "internalType": "address",
          "name": "outputToken",
          "type": "address"
        },
        {
          "internalType": "string",
          "name": "key",
          "type": "string"
        }
      ],
      "name": "DuplicateKeyForSwapExtraParams",
      "type": "error"
    },
    {
      "inputs": [
        {
          "internalType": "address",
          "name": "tokenIn",
          "type": "address"
        },
        {
          "internalType": "address[11]",
          "name": "route",
          "type": "address[11]"
        }
      ],
      "name": "InvalidInputTokenInRoute",
      "type": "error"
    },
    {
      "inputs": [
        {
          "internalType": "uint256",
          "name": "value",
          "type": "uint256"
        }
      ],
      "name": "InvalidSlippageTolerance",
      "type": "error"
    },
    {
      "inputs": [],
      "name": "NoProfitableLiquidation",
      "type": "error"
    },
    {
      "inputs": [
        {
          "internalType": "address",
          "name": "inputToken",
          "type": "address"
        },
        {
          "internalType": "address",
          "name": "outputToken",
          "type": "address"
        },
        {
          "internalType": "string",
          "name": "key",
          "type": "string"
        }
      ],
      "name": "NotFoundKeyForSwapExtraParams",
      "type": "error"
    },
    {
      "inputs": [
        {
          "internalType": "address",
          "name": "_inputToken",
          "type": "address"
        },
        {
          "internalType": "address",
          "name": "_outputToken",
          "type": "address"
        },
        {
          "internalType": "bytes",
          "name": "_swapData",
          "type": "bytes"
        }
      ],
      "name": "NotSupportedCustomSwapData",
      "type": "error"
    },
    {
      "inputs": [
        {
          "internalType": "address",
          "name": "borrowedToken",
          "type": "address"
        },
        {
          "internalType": "string",
          "name": "symbol",
          "type": "string"
        }
      ],
      "name": "NotSupportingNonDUSD",
      "type": "error"
    },
    {
      "inputs": [],
      "name": "OnlyLiquidator",
      "type": "error"
    },
    {
      "inputs": [
        {
          "internalType": "uint256",
          "name": "value",
          "type": "uint256"
        },
        {
          "internalType": "uint256",
          "name": "length",
          "type": "uint256"
        }
      ],
      "name": "StringsInsufficientHexLength",
      "type": "error"
    },
    {
      "inputs": [],
      "name": "UnknownInitiator",
      "type": "error"
    },
    {
      "inputs": [],
      "name": "UnknownLender",
      "type": "error"
    },
    {
      "anonymous": false,
      "inputs": [
        {
          "indexed": true,
          "internalType": "address",
          "name": "initiator",
          "type": "address"
        },
        {
          "indexed": false,
          "internalType": "uint256",
          "name": "amount",
          "type": "uint256"
        }
      ],
      "name": "FlashLoan",
      "type": "event"
    },
    {
      "anonymous": false,
      "inputs": [
        {
          "indexed": true,
          "internalType": "address",
          "name": "liquidator",
          "type": "address"
        },
        {
          "indexed": false,
          "internalType": "address",
          "name": "borrower",
          "type": "address"
        },
        {
          "indexed": true,
          "internalType": "address",
          "name": "poolTokenBorrowedAddress",
          "type": "address"
        },
        {
          "indexed": true,
          "internalType": "address",
          "name": "poolTokenCollateralAddress",
          "type": "address"
        },
        {
          "indexed": false,
          "internalType": "uint256",
          "name": "amount",
          "type": "uint256"
        },
        {
          "indexed": false,
          "internalType": "uint256",
          "name": "seized",
          "type": "uint256"
        },
        {
          "indexed": false,
          "internalType": "bool",
          "name": "usingFlashLoan",
          "type": "bool"
        }
      ],
      "name": "Liquidated",
      "type": "event"
    },
    {
      "anonymous": false,
      "inputs": [
        {
          "indexed": true,
          "internalType": "address",
          "name": "_liquidatorAdded",
          "type": "address"
        }
      ],
      "name": "LiquidatorAdded",
      "type": "event"
    },
    {
      "anonymous": false,
      "inputs": [
        {
          "indexed": true,
          "internalType": "address",
          "name": "_liquidatorRemoved",
          "type": "address"
        }
      ],
      "name": "LiquidatorRemoved",
      "type": "event"
    },
    {
      "anonymous": false,
      "inputs": [
        {
          "indexed": true,
          "internalType": "address",
          "name": "previousOwner",
          "type": "address"
        },
        {
          "indexed": true,
          "internalType": "address",
          "name": "newOwner",
          "type": "address"
        }
      ],
      "name": "OwnershipTransferred",
      "type": "event"
    },
    {
      "anonymous": false,
      "inputs": [
        {
          "indexed": false,
          "internalType": "uint256",
          "name": "newTolerance",
          "type": "uint256"
        }
      ],
      "name": "SlippageToleranceSet",
      "type": "event"
    },
    {
      "anonymous": false,
      "inputs": [
        {
          "indexed": true,
          "internalType": "address",
          "name": "sender",
          "type": "address"
        },
        {
          "indexed": true,
          "internalType": "address",
          "name": "receiver",
          "type": "address"
        },
        {
          "indexed": true,
          "internalType": "address",
          "name": "underlyingAddress",
          "type": "address"
        },
        {
          "indexed": false,
          "internalType": "uint256",
          "name": "amount",
          "type": "uint256"
        }
      ],
      "name": "Withdrawn",
      "type": "event"
    },
    {
      "inputs": [],
      "name": "DUSD_DECIMALS",
      "outputs": [
        {
          "internalType": "uint256",
          "name": "",
          "type": "uint256"
        }
      ],
      "stateMutability": "view",
      "type": "function"
    },
    {
      "inputs": [],
      "name": "FLASHLOAN_CALLBACK",
      "outputs": [
        {
          "internalType": "bytes32",
          "name": "",
          "type": "bytes32"
        }
      ],
      "stateMutability": "view",
      "type": "function"
    },
    {
      "inputs": [],
      "name": "aDUSD",
      "outputs": [
        {
          "internalType": "contract IAToken",
          "name": "",
          "type": "address"
        }
      ],
      "stateMutability": "view",
      "type": "function"
    },
    {
      "inputs": [
        {
          "internalType": "address",
          "name": "_newLiquidator",
          "type": "address"
        }
      ],
      "name": "addLiquidator",
      "outputs": [],
      "stateMutability": "nonpayable",
      "type": "function"
    },
    {
      "inputs": [],
      "name": "addressesProvider",
      "outputs": [
        {
          "internalType": "contract ILendingPoolAddressesProvider",
          "name": "",
          "type": "address"
        }
      ],
      "stateMutability": "view",
      "type": "function"
    },
    {
      "inputs": [],
      "name": "curveRouter",
      "outputs": [
        {
          "internalType": "contract ICurveRouterNgPoolsOnlyV1",
          "name": "",
          "type": "address"
        }
      ],
      "stateMutability": "view",
      "type": "function"
    },
    {
      "inputs": [
        {
          "internalType": "string",
          "name": "",
          "type": "string"
        }
      ],
      "name": "defaultSwapParams",
      "outputs": [
        {
          "internalType": "uint256",
          "name": "swapSlippageBufferBps",
          "type": "uint256"
        }
      ],
      "stateMutability": "view",
      "type": "function"
    },
    {
      "inputs": [],
      "name": "dusd",
      "outputs": [
        {
          "internalType": "contract ERC20",
          "name": "",
          "type": "address"
        }
      ],
      "stateMutability": "view",
      "type": "function"
    },
    {
      "inputs": [],
      "name": "flashMinter",
      "outputs": [
        {
          "internalType": "contract IERC3156FlashLender",
          "name": "",
          "type": "address"
        }
      ],
      "stateMutability": "view",
      "type": "function"
    },
    {
      "inputs": [
        {
          "internalType": "address",
          "name": "_collateralUnderlying",
          "type": "address"
        },
        {
          "internalType": "bool",
          "name": "_isUnstakeCollateralToken",
          "type": "bool"
        }
      ],
      "name": "getActualCollateralToken",
      "outputs": [
        {
          "internalType": "address",
          "name": "actualCollateralToken_",
          "type": "address"
        },
        {
          "internalType": "address",
          "name": "proxyContract_",
          "type": "address"
        }
      ],
      "stateMutability": "view",
      "type": "function"
    },
    {
      "inputs": [
        {
          "internalType": "address",
          "name": "_collateralUnderlying",
          "type": "address"
        }
      ],
      "name": "getProxyContract",
      "outputs": [
        {
          "internalType": "address",
          "name": "",
          "type": "address"
        }
      ],
      "stateMutability": "view",
      "type": "function"
    },
    {
      "inputs": [
        {
          "internalType": "address",
          "name": "",
          "type": "address"
        }
      ],
      "name": "isLiquidator",
      "outputs": [
        {
          "internalType": "bool",
          "name": "",
          "type": "bool"
        }
      ],
      "stateMutability": "view",
      "type": "function"
    },
    {
      "inputs": [
        {
          "internalType": "string",
          "name": "",
          "type": "string"
        }
      ],
      "name": "isSwapParamsSet",
      "outputs": [
        {
          "internalType": "bool",
          "name": "",
          "type": "bool"
        }
      ],
      "stateMutability": "view",
      "type": "function"
    },
    {
      "inputs": [
        {
          "internalType": "address",
          "name": "_poolTokenBorrowedAddress",
          "type": "address"
        },
        {
          "internalType": "address",
          "name": "_poolTokenCollateralAddress",
          "type": "address"
        },
        {
          "internalType": "address",
          "name": "_borrower",
          "type": "address"
        },
        {
          "internalType": "uint256",
          "name": "_repayAmount",
          "type": "uint256"
        },
        {
          "internalType": "bool",
          "name": "_stakeTokens",
          "type": "bool"
        },
        {
          "internalType": "bool",
          "name": "_isUnstakeCollateralToken",
          "type": "bool"
        },
        {
          "internalType": "bytes",
          "name": "_swapData",
          "type": "bytes"
        }
      ],
      "name": "liquidate",
      "outputs": [],
      "stateMutability": "nonpayable",
      "type": "function"
    },
    {
      "inputs": [],
      "name": "liquidateLender",
      "outputs": [
        {
          "internalType": "contract ILendingPool",
          "name": "",
          "type": "address"
        }
      ],
      "stateMutability": "view",
      "type": "function"
    },
    {
      "inputs": [],
      "name": "maxSlippageSurplusSwapBps",
      "outputs": [
        {
          "internalType": "uint256",
          "name": "",
          "type": "uint256"
        }
      ],
      "stateMutability": "view",
      "type": "function"
    },
    {
      "inputs": [
        {
          "internalType": "address",
          "name": "_initiator",
          "type": "address"
        },
        {
          "internalType": "address",
          "name": "",
          "type": "address"
        },
        {
          "internalType": "uint256",
          "name": "",
          "type": "uint256"
        },
        {
          "internalType": "uint256",
          "name": "",
          "type": "uint256"
        },
        {
          "internalType": "bytes",
          "name": "data",
          "type": "bytes"
        }
      ],
      "name": "onFlashLoan",
      "outputs": [
        {
          "internalType": "bytes32",
          "name": "",
          "type": "bytes32"
        }
      ],
      "stateMutability": "nonpayable",
      "type": "function"
    },
    {
      "inputs": [],
      "name": "owner",
      "outputs": [
        {
          "internalType": "address",
          "name": "",
          "type": "address"
        }
      ],
      "stateMutability": "view",
      "type": "function"
    },
    {
      "inputs": [
        {
          "internalType": "address",
          "name": "_collateralERC4626Token",
          "type": "address"
        },
        {
          "internalType": "uint256",
          "name": "_amount",
          "type": "uint256"
        },
        {
          "internalType": "address",
          "name": "_recipient",
          "type": "address"
        }
      ],
      "name": "redeemERC4626Token",
      "outputs": [
        {
          "internalType": "uint256",
          "name": "",
          "type": "uint256"
        }
      ],
      "stateMutability": "nonpayable",
      "type": "function"
    },
    {
      "inputs": [
        {
          "internalType": "address",
          "name": "_liquidatorToRemove",
          "type": "address"
        }
      ],
      "name": "removeLiquidator",
      "outputs": [],
      "stateMutability": "nonpayable",
      "type": "function"
    },
    {
      "inputs": [],
      "name": "renounceOwnership",
      "outputs": [],
      "stateMutability": "nonpayable",
      "type": "function"
    },
    {
      "inputs": [
        {
          "internalType": "address",
          "name": "_collateralUnderlying",
          "type": "address"
        },
        {
          "internalType": "address",
          "name": "_proxyContract",
          "type": "address"
        }
      ],
      "name": "setProxyContract",
      "outputs": [],
      "stateMutability": "nonpayable",
      "type": "function"
    },
    {
      "inputs": [
        {
          "internalType": "uint256",
          "name": "_newTolerance",
          "type": "uint256"
        }
      ],
      "name": "setSlippageTolerance",
      "outputs": [],
      "stateMutability": "nonpayable",
      "type": "function"
    },
    {
      "inputs": [
        {
          "components": [
            {
              "internalType": "address",
              "name": "inputToken",
              "type": "address"
            },
            {
              "internalType": "address",
              "name": "outputToken",
              "type": "address"
            },
            {
              "components": [
                {
                  "internalType": "address[11]",
                  "name": "route",
                  "type": "address[11]"
                },
                {
                  "internalType": "uint256[4][5]",
                  "name": "swapParams",
                  "type": "uint256[4][5]"
                },
                {
                  "internalType": "uint256",
                  "name": "swapSlippageBufferBps",
                  "type": "uint256"
                }
              ],
              "internalType": "struct CurveHelper.CurveSwapExtraParams",
              "name": "swapExtraParams",
              "type": "tuple"
            },
            {
              "components": [
                {
                  "internalType": "address[11]",
                  "name": "route",
                  "type": "address[11]"
                },
                {
                  "internalType": "uint256[4][5]",
                  "name": "swapParams",
                  "type": "uint256[4][5]"
                },
                {
                  "internalType": "uint256",
                  "name": "swapSlippageBufferBps",
                  "type": "uint256"
                }
              ],
              "internalType": "struct CurveHelper.CurveSwapExtraParams",
              "name": "reverseSwapExtraParams",
              "type": "tuple"
            }
          ],
          "internalType": "struct FlashMintLiquidatorAaveBorrowRepayCurve.CurveSwapExtraParamsDefaultConfig",
          "name": "_swapExtraParamsConfig",
          "type": "tuple"
        }
      ],
      "name": "setSwapExtraParams",
      "outputs": [],
      "stateMutability": "nonpayable",
      "type": "function"
    },
    {
      "inputs": [],
      "name": "slippageTolerance",
      "outputs": [
        {
          "internalType": "uint256",
          "name": "",
          "type": "uint256"
        }
      ],
      "stateMutability": "view",
      "type": "function"
    },
    {
      "inputs": [
        {
          "internalType": "address",
          "name": "newOwner",
          "type": "address"
        }
      ],
      "name": "transferOwnership",
      "outputs": [],
      "stateMutability": "nonpayable",
      "type": "function"
    },
    {
      "inputs": [
        {
          "internalType": "address",
          "name": "_underlyingAddress",
          "type": "address"
        },
        {
          "internalType": "address",
          "name": "_receiver",
          "type": "address"
        },
        {
          "internalType": "uint256",
          "name": "_amount",
          "type": "uint256"
        }
      ],
      "name": "withdraw",
      "outputs": [],
      "stateMutability": "nonpayable",
      "type": "function"
    }
  ],
  "transactionHash": "0x784faeacf2cd51c003ff2d1775002c8c98faac54df70cc610e003a0e2cb3e8eb",
  "args": [
    "0x788D96f655735f52c676A133f4dFC53cEC614d4A",
    "0xD9C622d64342B5FaCeef4d366B974AEf6dCB338D",
    "0xD76C827Ee2Ce1E37c37Fc2ce91376812d3c9BCE2",
    "0x29d0256fe397F6e442464982C4Cba7670646059b",
    500000,
    "0x9f2Fa7709B30c75047980a0d70A106728f0Ef2db",
    200000,
    [
      {
        "inputToken": "0x788D96f655735f52c676A133f4dFC53cEC614d4A",
        "outputToken": "0xFC00000000000000000000000000000000000006",
        "swapExtraParams": {
          "route": [
            "0x788D96f655735f52c676A133f4dFC53cEC614d4A",
            "0x9ca648d2f51098941688db9a0beb1dadc2d1b357",
            "0xfc00000000000000000000000000000000000001",
            "0xa0d3911349e701a1f49c1ba2dda34b4ce9636569",
            "0xFC00000000000000000000000000000000000006",
            "0x0000000000000000000000000000000000000000",
            "0x0000000000000000000000000000000000000000",
            "0x0000000000000000000000000000000000000000",
            "0x0000000000000000000000000000000000000000",
            "0x0000000000000000000000000000000000000000",
            "0x0000000000000000000000000000000000000000"
          ],
          "swapParams": [
            [
              1,
              0,
              1,
              10
            ],
            [
              0,
              1,
              1,
              30
            ],
            [
              0,
              0,
              0,
              0
            ],
            [
              0,
              0,
              0,
              0
            ],
            [
              0,
              0,
              0,
              0
            ]
          ],
          "swapSlippageBufferBps": 50000
        },
        "reverseSwapExtraParams": {
          "route": [
            "0xFC00000000000000000000000000000000000006",
            "0xa0d3911349e701a1f49c1ba2dda34b4ce9636569",
            "0xfc00000000000000000000000000000000000001",
            "0x9ca648d2f51098941688db9a0beb1dadc2d1b357",
            "0x788D96f655735f52c676A133f4dFC53cEC614d4A",
            "0x0000000000000000000000000000000000000000",
            "0x0000000000000000000000000000000000000000",
            "0x0000000000000000000000000000000000000000",
            "0x0000000000000000000000000000000000000000",
            "0x0000000000000000000000000000000000000000",
            "0x0000000000000000000000000000000000000000"
          ],
          "swapParams": [
            [
              1,
              0,
              1,
              30
            ],
            [
              0,
              1,
              1,
              10
            ],
            [
              0,
              0,
              0,
              0
            ],
            [
              0,
              0,
              0,
              0
            ],
            [
              0,
              0,
              0,
              0
            ]
          ],
          "swapSlippageBufferBps": 50000
        }
      },
      {
        "inputToken": "0x788D96f655735f52c676A133f4dFC53cEC614d4A",
        "outputToken": "0xFC00000000000000000000000000000000000005",
        "swapExtraParams": {
          "route": [
            "0x788D96f655735f52c676A133f4dFC53cEC614d4A",
            "0x9ca648d2f51098941688db9a0beb1dadc2d1b357",
            "0xfc00000000000000000000000000000000000001",
            "0xa0d3911349e701a1f49c1ba2dda34b4ce9636569",
            "0xFC00000000000000000000000000000000000006",
            "0xf2f426fe123de7b769b2d4f8c911512f065225d3",
            "0xFC00000000000000000000000000000000000005",
            "0x0000000000000000000000000000000000000000",
            "0x0000000000000000000000000000000000000000",
            "0x0000000000000000000000000000000000000000",
            "0x0000000000000000000000000000000000000000"
          ],
          "swapParams": [
            [
              1,
              0,
              1,
              10
            ],
            [
              0,
              1,
              1,
              30
            ],
            [
              0,
              1,
              1,
              10
            ],
            [
              0,
              0,
              0,
              0
            ],
            [
              0,
              0,
              0,
              0
            ]
          ],
          "swapSlippageBufferBps": 50000
        },
        "reverseSwapExtraParams": {
          "route": [
            "0xFC00000000000000000000000000000000000005",
            "0xf2f426fe123de7b769b2d4f8c911512f065225d3",
            "0xFC00000000000000000000000000000000000006",
            "0xa0d3911349e701a1f49c1ba2dda34b4ce9636569",
            "0xfc00000000000000000000000000000000000001",
            "0x9ca648d2f51098941688db9a0beb1dadc2d1b357",
            "0x788D96f655735f52c676A133f4dFC53cEC614d4A",
            "0x0000000000000000000000000000000000000000",
            "0x0000000000000000000000000000000000000000",
            "0x0000000000000000000000000000000000000000",
            "0x0000000000000000000000000000000000000000"
          ],
          "swapParams": [
            [
              1,
              0,
              1,
              10
            ],
            [
              1,
              0,
              1,
              30
            ],
            [
              0,
              1,
              1,
              10
            ],
            [
              0,
              0,
              0,
              0
            ],
            [
              0,
              0,
              0,
              0
            ]
          ],
          "swapSlippageBufferBps": 50000
        }
      },
      {
        "inputToken": "0x788D96f655735f52c676A133f4dFC53cEC614d4A",
        "outputToken": "0x211Cc4DD073734dA055fbF44a2b4667d5E5fE5d2",
        "swapExtraParams": {
          "route": [
            "0x788D96f655735f52c676A133f4dFC53cEC614d4A",
            "0x9ca648d2f51098941688db9a0beb1dadc2d1b357",
            "0xfc00000000000000000000000000000000000001",
            "0x8b4e5263e8d6cc0bbf31edf14491fc6077b88229",
            "0x211Cc4DD073734dA055fbF44a2b4667d5E5fE5d2",
            "0x0000000000000000000000000000000000000000",
            "0x0000000000000000000000000000000000000000",
            "0x0000000000000000000000000000000000000000",
            "0x0000000000000000000000000000000000000000",
            "0x0000000000000000000000000000000000000000",
            "0x0000000000000000000000000000000000000000"
          ],
          "swapParams": [
            [
              1,
              0,
              1,
              10
            ],
            [
              0,
              1,
              1,
              10
            ],
            [
              0,
              0,
              0,
              0
            ],
            [
              0,
              0,
              0,
              0
            ],
            [
              0,
              0,
              0,
              0
            ]
          ],
          "swapSlippageBufferBps": 50000
        },
        "reverseSwapExtraParams": {
          "route": [
            "0x211Cc4DD073734dA055fbF44a2b4667d5E5fE5d2",
            "0x8b4e5263e8d6cc0bbf31edf14491fc6077b88229",
            "0xfc00000000000000000000000000000000000001",
            "0x9ca648d2f51098941688db9a0beb1dadc2d1b357",
            "0x788D96f655735f52c676A133f4dFC53cEC614d4A",
            "0x0000000000000000000000000000000000000000",
            "0x0000000000000000000000000000000000000000",
            "0x0000000000000000000000000000000000000000",
            "0x0000000000000000000000000000000000000000",
            "0x0000000000000000000000000000000000000000",
            "0x0000000000000000000000000000000000000000"
          ],
          "swapParams": [
            [
              1,
              0,
              1,
              10
            ],
            [
              0,
              1,
              1,
              10
            ],
            [
              0,
              0,
              0,
              0
            ],
            [
              0,
              0,
              0,
              0
            ],
            [
              0,
              0,
              0,
              0
            ]
          ],
          "swapSlippageBufferBps": 50000
        }
      },
      {
        "inputToken": "0x788D96f655735f52c676A133f4dFC53cEC614d4A",
        "outputToken": "0xfc00000000000000000000000000000000000008",
        "swapExtraParams": {
          "route": [
            "0x788D96f655735f52c676A133f4dFC53cEC614d4A",
            "0x9ca648d2f51098941688db9a0beb1dadc2d1b357",
            "0xfc00000000000000000000000000000000000001",
            "0xa0d3911349e701a1f49c1ba2dda34b4ce9636569",
            "0xFC00000000000000000000000000000000000006",
            "0xf2f426fe123de7b769b2d4f8c911512f065225d3",
            "0xFC00000000000000000000000000000000000005",
            "0xacdc85afcd8b83eb171affcbe29fad204f6ae45c",
            "0xfc00000000000000000000000000000000000008",
            "0x0000000000000000000000000000000000000000",
            "0x0000000000000000000000000000000000000000"
          ],
          "swapParams": [
            [
              1,
              0,
              1,
              10
            ],
            [
              0,
              1,
              1,
              30
            ],
            [
              0,
              1,
              1,
              10
            ],
            [
              0,
              1,
              1,
              20
            ],
            [
              0,
              0,
              0,
              0
            ]
          ],
          "swapSlippageBufferBps": 50000
        },
        "reverseSwapExtraParams": {
          "route": [
            "0xfc00000000000000000000000000000000000008",
            "0xacdc85afcd8b83eb171affcbe29fad204f6ae45c",
            "0xFC00000000000000000000000000000000000005",
            "0xf2f426fe123de7b769b2d4f8c911512f065225d3",
            "0xFC00000000000000000000000000000000000006",
            "0xa0d3911349e701a1f49c1ba2dda34b4ce9636569",
            "0xfc00000000000000000000000000000000000001",
            "0x9ca648d2f51098941688db9a0beb1dadc2d1b357",
            "0x788D96f655735f52c676A133f4dFC53cEC614d4A",
            "0x0000000000000000000000000000000000000000",
            "0x0000000000000000000000000000000000000000"
          ],
          "swapParams": [
            [
              1,
              0,
              1,
              20
            ],
            [
              1,
              0,
              1,
              10
            ],
            [
              1,
              0,
              1,
              30
            ],
            [
              0,
              1,
              1,
              10
            ],
            [
              0,
              0,
              0,
              0
            ]
          ],
          "swapSlippageBufferBps": 50000
        }
      },
      {
        "inputToken": "0x788D96f655735f52c676A133f4dFC53cEC614d4A",
        "outputToken": "0xfc00000000000000000000000000000000000001",
        "swapExtraParams": {
          "route": [
            "0x788D96f655735f52c676A133f4dFC53cEC614d4A",
            "0xf16f226baa419d9dc9d92c040ccbc8c0e25f36d7",
            "0x211Cc4DD073734dA055fbF44a2b4667d5E5fE5d2",
            "0x8b4e5263e8d6cc0bbf31edf14491fc6077b88229",
            "0xfc00000000000000000000000000000000000001",
            "0x0000000000000000000000000000000000000000",
            "0x0000000000000000000000000000000000000000",
            "0x0000000000000000000000000000000000000000",
            "0x0000000000000000000000000000000000000000",
            "0x0000000000000000000000000000000000000000",
            "0x0000000000000000000000000000000000000000"
          ],
          "swapParams": [
            [
              0,
              1,
              1,
              10
            ],
            [
              1,
              0,
              1,
              10
            ],
            [
              0,
              0,
              0,
              0
            ],
            [
              0,
              0,
              0,
              0
            ],
            [
              0,
              0,
              0,
              0
            ]
          ],
          "swapSlippageBufferBps": 50000
        },
        "reverseSwapExtraParams": {
          "route": [
            "0xfc00000000000000000000000000000000000001",
            "0x9ca648d2f51098941688db9a0beb1dadc2d1b357",
            "0x788D96f655735f52c676A133f4dFC53cEC614d4A",
            "0x0000000000000000000000000000000000000000",
            "0x0000000000000000000000000000000000000000",
            "0x0000000000000000000000000000000000000000",
            "0x0000000000000000000000000000000000000000",
            "0x0000000000000000000000000000000000000000",
            "0x0000000000000000000000000000000000000000",
            "0x0000000000000000000000000000000000000000",
            "0x0000000000000000000000000000000000000000"
          ],
          "swapParams": [
            [
              0,
              1,
              1,
              10
            ],
            [
              0,
              0,
              0,
              0
            ],
            [
              0,
              0,
              0,
              0
            ],
            [
              0,
              0,
              0,
              0
            ],
            [
              0,
              0,
              0,
              0
            ]
          ],
          "swapSlippageBufferBps": 50000
        }
      },
      {
        "inputToken": "0x788D96f655735f52c676A133f4dFC53cEC614d4A",
        "outputToken": "0xf1e2b576af4c6a7ee966b14c810b772391e92153",
        "swapExtraParams": {
          "route": [
            "0x788D96f655735f52c676A133f4dFC53cEC614d4A",
            "0x9ca648d2f51098941688db9a0beb1dadc2d1b357",
            "0xfc00000000000000000000000000000000000001",
            "0xee454138083b9b9714cac3c7cf12560248d76d6b",
            "0xf1e2b576af4c6a7ee966b14c810b772391e92153",
            "0x0000000000000000000000000000000000000000",
            "0x0000000000000000000000000000000000000000",
            "0x0000000000000000000000000000000000000000",
            "0x0000000000000000000000000000000000000000",
            "0x0000000000000000000000000000000000000000",
            "0x0000000000000000000000000000000000000000"
          ],
          "swapParams": [
            [
              1,
              0,
              1,
              10
            ],
            [
              0,
              1,
              1,
              10
            ],
            [
              0,
              0,
              0,
              0
            ],
            [
              0,
              0,
              0,
              0
            ],
            [
              0,
              0,
              0,
              0
            ]
          ],
          "swapSlippageBufferBps": 50000
        },
        "reverseSwapExtraParams": {
          "route": [
            "0xf1e2b576af4c6a7ee966b14c810b772391e92153",
            "0xee454138083b9b9714cac3c7cf12560248d76d6b",
            "0xfc00000000000000000000000000000000000001",
            "0x9ca648d2f51098941688db9a0beb1dadc2d1b357",
            "0x788D96f655735f52c676A133f4dFC53cEC614d4A",
            "0x0000000000000000000000000000000000000000",
            "0x0000000000000000000000000000000000000000",
            "0x0000000000000000000000000000000000000000",
            "0x0000000000000000000000000000000000000000",
            "0x0000000000000000000000000000000000000000",
            "0x0000000000000000000000000000000000000000"
          ],
          "swapParams": [
            [
              1,
              0,
              1,
              10
            ],
            [
              0,
              1,
              1,
              10
            ],
            [
              0,
              0,
              0,
              0
            ],
            [
              0,
              0,
              0,
              0
            ],
            [
              0,
              0,
              0,
              0
            ]
          ],
          "swapSlippageBufferBps": 50000
        }
      }
    ]
  ],
  "numDeployments": 32,
  "solcInputHash": "6c894a0a10e14aabba5ea8424263a33c",
  "bytecode": "0x6101808060405234620006d6576200375980380380916200002182856200080f565b8339610100828281010312620006d65781516001600160a01b0381168103620006d65760208301516001600160a01b0381168103620006d65760408401516001600160a01b0381168103620006d6576060850151926001600160a01b0384168403620006d657608086015160a0870151949093906001600160a01b0386168603620006d65760c088015160e0890151989097906001600160401b038a11620006d657818101601f8b8301011215620006d657808a0151906001600160401b038211620007dd576040519a620000fd60208460051b018d6200080f565b828c5260208c019084830160206108408602838601010111620006d65790602082840101915b60206108408602828601010183106200073757505050505050602092916004916001600055600154913360018060a01b03198416176001556040519687958694339060018060a01b03167f8be0079c531659141344cd1fd0a4f28419497f9722a3daafe3b4186f6b6457e0600080a333600052600288526040600020600160ff19825416179055337fb0a258c58bd721bcb64542ee0e4e4c843ae58242f908c0681ad82d40d688f1fa600080a260805260a05260c05260e08190526358b50cef60e11b82526001600160a01b03165afa908115620006e457600091620006f0575b506001600160a01b031661010081905260405163313ce56760e01b815290602090829060049082905afa908115620006e4576000916200068d575b50600080516020620037398339815191529160ff602092166101205280600355604051908152a16001600160a01b0316610140526101605260005b8151811015620005eb57620002c06001600160a01b036200029c838562000978565b5151166001600160a01b036020620002b5858762000978565b510151169062000a0e565b60ff6040516020818451620002d98183858901620009a3565b81016006815203019020541662000599576040516020818351620003018183858801620009a3565b81016006815203019020600160ff1982541617905562000342602060406200032a858762000978565b510151928160405193828580945193849201620009a3565b8101600581520301902090805160005b600b81106200057b5750506020810151600b8301906000905b600582106200053c5750505060400151601f9190910155620003be6001600160a01b0360206200039c848662000978565b510151166001600160a01b03620003b4848662000978565b5151169062000a0e565b60ff6040516020818451620003d78183858901620009a3565b810160068152030190205416620004e6576040516020818351620003ff8183858801620009a3565b81016006815203019020600160ff1982541617905562000428602060606200032a858762000978565b8101600581520301902090805160005b600b8110620004c85750506020810151600b83016000915b600583106200048f575050506040601f910151910155600019811462000479576001016200027a565b634e487b7160e01b600052601160045260246000fd5b805160005b60048110620004b3575050600460206001920192019201919062000450565b60019060208351930192818601550162000494565b81516001600160a01b03168185015560209091019060010162000438565b9162000538906200051a6001600160a01b03602062000506868562000978565b51015116936001600160a01b039262000978565b515116926040519384936372b8027f60e01b855260048501620009c8565b0390fd5b809695965160005b600481106200056657505060046020600192019301910190919594956200036b565b60019060208351930192818701550162000544565b81516001600160a01b03168185015560209091019060010162000352565b9162000538906020620005cc6001600160a01b03620005b9868562000978565b515116946001600160a01b039362000978565b51015116926040519384936372b8027f60e01b855260048501620009c8565b604051612b25908162000c148239608051818181610c90015281816117ab015281816119da0152611b2c015260a0518181816102fc015261143e015260c051818181610c4b015261203f015260e051816106de015261010051818181610e1f01528181611769015281816119a80152611e0c01526101205181610789015261014051818181610cd501526128d20152610160518181816105aa01526128b00152f35b90506020813d602011620006db575b81620006ab602093836200080f565b81010312620006d6575160ff81168103620006d657600080516020620037398339815191526200023f565b600080fd5b3d91506200069c565b6040513d6000823e3d90fd5b90506020813d6020116200072e575b816200070e602093836200080f565b81010312620006d65760206200072660049262000833565b915062000204565b3d9150620006ff565b610840838786010312620006d6576040516080810192906001600160401b03841181851017620007c85760206108409283928296604052620007798862000833565b81526200078883890162000833565b838201526200079d8b8a0160408a0162000848565b6040820152620007b48b8a016104408a0162000848565b606082015281520194019392505062000123565b60246000634e487b7160e01b81526041600452fd5b634e487b7160e01b600052604160045260246000fd5b606081019081106001600160401b03821117620007dd57604052565b601f909101601f19168101906001600160401b03821190821017620007dd57604052565b51906001600160a01b0382168203620006d657565b919061040083820312620006d657604080519160608301906001600160401b0380831185841017620007dd578496601f91838383011215620006d6576101c0870185811082821117620007dd57865284610160830195858711620006d65783905b8782106200095d57505087528361017f83011215620006d65785519360a0850185811083821117620007dd5787526103e085930195818711620006d657925b86841062000900575050505050602084015251910152565b818585011215620006d6578751608080820182811086821117620007c8578a5281908601848111620006d65786915b8183106200094c57505050816020916080935201930192620008e8565b82518152602092830192016200092f565b602080916200096c8462000833565b815201910190620008a9565b80518210156200098d5760209160051b010190565b634e487b7160e01b600052603260045260246000fd5b60005b838110620009b75750506000910152565b8181015183820152602001620009a6565b91906080939160018060a01b0380921684521660208301526060604083015262000a028151809281606086015260208686019101620009a3565b601f01601f1916010190565b604080516001600160a01b0392831693909284929162000a2e85620007f3565b602a85526020850193833686378551156200098d57603085538551966001978810156200098d576078602188015360295b88811162000bba575062000b9c57501691829180519262000a8084620007f3565b602a84526020840194823687378451156200098d576030865384518810156200098d576078602186015360295b88811162000b2b575062000b0e57509262000ae2959262000afc62000b0b9693602196519889955180926020880190620009a3565b840191602d60f81b602084015251809387840190620009a3565b0103908101845201826200080f565b90565b604491519063e22e27eb60e01b8252600482015260146024820152fd5b90600f8116601081101562000b87576f181899199a1a9b1b9c1cb0b131b232b360811b901a62000b5c838862000c01565b5360041c90801562000b72576000190162000aad565b60246000634e487b7160e01b81526011600452fd5b60246000634e487b7160e01b81526032600452fd5b60449084519063e22e27eb60e01b8252600482015260146024820152fd5b90600f8116601081101562000b87576f181899199a1a9b1b9c1cb0b131b232b360811b901a62000beb838a62000c01565b5360041c90801562000b72576000190162000a5f565b9081518110156200098d57016020019056fe6080604052600436101561001257600080fd5b60003560e01c8063117da1ee146101c757806323e30c8b146101c25780632a6b0c24146101bd5780632ae18104146101b85780632b4481ca146101b3578063313c9b8d146101ae5780634c4e7f6f146101a957806350686479146101a4578063529a356f1461019f5780636333b5691461019a578063715018a61461019557806373d190db1461019057806382e9dd9e1461018b578063845a9f78146101865780638da5cb5b14610181578063987762881461017c5780639922595514610177578063c72c4d1014610172578063cd955ace1461016d578063cda90b8814610168578063d03153aa14610163578063d9caed121461015e578063de1409ce14610159578063efb7440014610154578063f2fde38b1461014f578063f5a586631461014a5763fc4fdd3d1461014557600080fd5b6111d2565b6110f2565b610ec4565b610e4e565b610e09565b610d22565b610d04565b610cbf565b610c7a565b610c35565b6108da565b61084f565b610826565b6107da565b6107ac565b610771565b61070d565b6106c8565b610686565b610646565b6105cd565b610592565b61056c565b61032b565b6102e6565b610259565b34610243576020366003190112610243576004356101f060018060a01b0360015416331461120b565b620f4240811161022b576020817f84cb977e2a9a6a9b1fc0d73c4b02cd51695c09eb0d3008d61019a7c0a7406c4c92600355604051908152a1005b6024906040519063295eaa3d60e01b82526004820152fd5b600080fd5b6001600160a01b0381160361024357565b346102435760a03660031901126102435760043561027681610248565b610281602435610248565b6084356001600160401b038082116102435736602383011215610243578160040135908111610243573660248284010111610243576102d79260246102c7930190611b21565b6040519081529081906020820190565b0390f35b600091031261024357565b34610243576000366003190112610243576040517f00000000000000000000000000000000000000000000000000000000000000006001600160a01b03168152602090f35b346102435760003660031901126102435760206040517f439148f0bbc682ca079e46d6e2c2f0c1e3b820f1a291b069d8882abf8cf18dd98152f35b634e487b7160e01b600052604160045260246000fd5b606081019081106001600160401b0382111761039757604052565b610366565b6001600160401b03811161039757604052565b61012081019081106001600160401b0382111761039757604052565b60a081019081106001600160401b0382111761039757604052565b608081019081106001600160401b0382111761039757604052565b61016081019081106001600160401b0382111761039757604052565b90601f801991011681019081106001600160401b0382111761039757604052565b6040519061010082018281106001600160401b0382111761039757604052565b6040519061046b826103af565b565b6001600160401b03811161039757601f01601f191660200190565b9291926104948261046d565b916104a2604051938461041d565b829481845281830111610243578281602093846000960137010152565b602060031982011261024357600435906001600160401b0382116102435780602383011215610243578160246104fa93600401359101610488565b90565b60005b8381106105105750506000910152565b8181015183820152602001610500565b60206105399181604051938285809451938492016104fd565b8101600681520301902090565b602061055f9181604051938285809451938492016104fd565b8101600581520301902090565b3461024357602060ff610586610581366104bf565b610520565b54166040519015158152f35b346102435760003660031901126102435760206040517f00000000000000000000000000000000000000000000000000000000000000008152f35b34610243576020366003190112610243576004356105ea81610248565b6001546001600160a01b039190610604908316331461120b565b166000818152600260205260408120805460ff19166001179055907fb0a258c58bd721bcb64542ee0e4e4c843ae58242f908c0681ad82d40d688f1fa8280a280f35b3461024357606036600319011261024357602061067e60043561066881610248565b6044359061067582610248565b602435906112ba565b604051908152f35b34610243576020366003190112610243576004356106a381610248565b60018060a01b03166000526002602052602060ff604060002054166040519015158152f35b34610243576000366003190112610243576040517f00000000000000000000000000000000000000000000000000000000000000006001600160a01b03168152602090f35b346102435760008060031936011261076e5760015481906001600160a01b0381169061073a33831461120b565b6001600160a01b0319166001557f8be0079c531659141344cd1fd0a4f28419497f9722a3daafe3b4186f6b6457e08280a380f35b80fd5b346102435760003660031901126102435760206040517f00000000000000000000000000000000000000000000000000000000000000008152f35b34610243576020601f6107c66107c1366104bf565b610546565b0154604051908152f35b8015150361024357565b3461024357604036600319011261024357604061080e6004356107fc81610248565b60243590610809826107d0565b612391565b82516001600160a01b03928316815291166020820152f35b34610243576000366003190112610243576001546040516001600160a01b039091168152602090f35b346102435760403660031901126102435760043561086c81610248565b6024359061087982610248565b6001546001600160a01b03918291610894908316331461120b565b166000526004602052604060002091166bffffffffffffffffffffffff60a01b825416179055600080f35b9080601f83011215610243578160206104fa93359101610488565b346102435760e0366003190112610243576004356108f781610248565b60243561090381610248565b6044359161091083610248565b6064359261091f6084356107d0565b61092a60a4356107d0565b60c4356001600160401b038111610243576109499036906004016108bf565b91600260005414610bf0576002600055336000526020916002835260ff6040600020541615610bde576109db6109f2926109cb61098588611abe565b976109bb61099284611abe565b6109ac61099d61043e565b6001600160a01b03909c168c52565b6001600160a01b03168a890152565b6001600160a01b03166040890152565b6001600160a01b03166060870152565b3360808601525b6001600160a01b031660a0850152565b60c0830184905260a435151560e08401528281015160009490610a25906001600160a01b03165b6001600160a01b031690565b6040516370a0823160e01b8152306004820152908390829060249082905afa908115610bd957600091610bac575b5010610a94575050610a64906113dc565b60843515610a79575b610a776001600055565b005b610a8d9133906001600160a01b0316611359565b3880610a6d565b8251610ba69450610b8c90610ab1906001600160a01b0316610a19565b828501519094906109e290610ace906001600160a01b0316610a19565b6040830151610b7c90610ae9906001600160a01b0316610a19565b6060850151610b6c90610b04906001600160a01b0316610a19565b6080870151909290610b5c906001600160a01b031660a089015190969060c0906001600160a01b03169901519a610b4b610b3c61045e565b6001600160a01b03909f168f52565b6001600160a01b03909116908d0152565b6001600160a01b031660408b0152565b6001600160a01b03166060890152565b6001600160a01b03166080870152565b60c083015260a435151560e0830152610100820152611747565b90610a64565b610bcc9150833d8511610bd2575b610bc4818361041d565b81019061129f565b38610a53565b503d610bba565b6112ae565b6040516399b01c4760e01b8152600490fd5b60405162461bcd60e51b815260206004820152601f60248201527f5265656e7472616e637947756172643a207265656e7472616e742063616c6c006044820152606490fd5b34610243576000366003190112610243576040517f00000000000000000000000000000000000000000000000000000000000000006001600160a01b03168152602090f35b34610243576000366003190112610243576040517f00000000000000000000000000000000000000000000000000000000000000006001600160a01b03168152602090f35b34610243576000366003190112610243576040517f00000000000000000000000000000000000000000000000000000000000000006001600160a01b03168152602090f35b34610243576000366003190112610243576020600354604051908152f35b3461024357606036600319011261024357600435610d3f81610248565b602435610d4b81610248565b6044359160018060a01b038091610d678260015416331461120b565b6040516370a0823160e01b8152306004820152911693602082602481885afa908115610bd9577fa4195c37c2947bbe89165f03e320b6903116f0b10d8cfdb522330f7ce6f9fa2492600092610de9575b5081811115610de15750915b610dce838587611359565b60405192835292909216913391602090a4005b905091610dc3565b610e0291925060203d8111610bd257610bc4818361041d565b9038610db7565b34610243576000366003190112610243576040517f00000000000000000000000000000000000000000000000000000000000000006001600160a01b03168152602090f35b3461024357602036600319011261024357600435610e6b81610248565b6001546001600160a01b039190610e85908316331461120b565b166000818152600260205260408120805460ff19169055907f06091797105e9997e06a57873c81a60a419050caf1d0ffedacc53ffc767f84f58280a280f35b3461024357602036600319011261024357600435610ee181610248565b6001546001600160a01b0390610efa908216331461120b565b811615610f0a57610a7790611256565b60405162461bcd60e51b815260206004820152602660248201527f4f776e61626c653a206e6577206f776e657220697320746865207a65726f206160448201526564647265737360d01b6064820152608490fd5b806105c3121561024357604090815191610f77836103cb565b8261082491838311610243576105a4915b838310610f9757505050505090565b84601f84011215610243578151610fad816103e6565b80608085018781116102435785915b818310610fd757505050816020916080935201920191610f88565b8235815260209283019201610fbc565b806101c3121561024357604090815191611000836103cb565b8261042491838311610243576101a4915b83831061102057505050505090565b84601f84011215610243578151611036816103e6565b80608085018781116102435785915b81831061106057505050816020916080935201920191611011565b8235815260209283019201611045565b90610400610443198301126102435760405161108b8161037c565b8092806104631215610243576040516110a381610401565b6105a48183821161024357610444905b8282106110d85750505082526110c890610f5e565b6020820152604061082435910152565b6020809183356110e781610248565b8152019101906110b3565b34610243576108403660031901126102435760408051608081018181106001600160401b0382111761039757825260043561112c81610248565b81526024359161113b83610248565b602092838301526104006043193601126102435780519061115b8261037c565b366063121561024357805161116f81610401565b6101a481368211610243576044905b8282106111b9575050508252610a779361119736610fe7565b9083015261042435818301528201526111af36611070565b60608201526123f6565b87809183356111c781610248565b81520191019061117e565b346102435760203660031901126102435760206111f96004356111f481610248565b61131a565b6040516001600160a01b039091168152f35b1561121257565b606460405162461bcd60e51b815260206004820152602060248201527f4f776e61626c653a2063616c6c6572206973206e6f7420746865206f776e65726044820152fd5b600180546001600160a01b039283166001600160a01b0319821681179092559091167f8be0079c531659141344cd1fd0a4f28419497f9722a3daafe3b4186f6b6457e0600080a3565b90816020910312610243575190565b6040513d6000823e3d90fd5b606460209260006040519586948593635d043b2960e11b8552600485015260018060a01b038092168060248601526044850152165af1908115610bd957600091611302575090565b6104fa915060203d8111610bd257610bc4818361041d565b6001600160a01b03818116600090815260046020526040902054168061133e575090565b905090565b634e487b7160e01b600052601160045260246000fd5b600091826044926020956040519363a9059cbb60e01b8552600485015260248401525af13d15601f3d116001600051141617161561139357565b60405162461bcd60e51b815260206004820152600f60248201526e1514905394d1915497d19052531151608a1b6044820152606490fd5b919082039182116113d757565b611343565b80519091906113f3906001600160a01b0316610a19565b6040516370a0823160e01b808252306004830152936020928390839060249082905afa918215610bd95760009261162f575b50808301516001600160a01b03169160018060a01b03807f0000000000000000000000000000000000000000000000000000000000000000169661147060c08501958987519161164e565b6040840195611493610a1961148e610a198a5160018060a01b031690565b611abe565b9460608101956114b2610a1961148e610a198a5160018060a01b031690565b60a083018051909c919291906001600160a01b0316908a5193813b156102435760405162a718a960e01b81526001600160a01b0394851660048201529084166024820152919092166044820152606481019290925260006084830181905290829060a490829084905af18015610bd957839261153f92610a1992611616575b50516001600160a01b031690565b604051938452306004850152839060249082905afa938415610bd957610a196115af6115a16115af937fe96c57864e490909fadd8ddc506e391bc4946ed905e39f7e71321861c798d3e6986115bd97610a19976000926115f9575b50506113ca565b9b516001600160a01b031690565b96516001600160a01b031690565b9351604080516001600160a01b03909516855260208501919091528301879052600060608401529283169390921691339180608081015b0390a4565b61160f9250803d10610bd257610bc4818361041d565b388061159a565b806116236116299261039c565b806102db565b38611531565b611647919250833d8511610bd257610bc4818361041d565b9038611425565b600091826044926020956040519363095ea7b360e01b8552600485015260248401525af13d15601f3d116001600051141617161561168857565b60405162461bcd60e51b815260206004820152600e60248201526d1054141493d59157d1905253115160921b6044820152606490fd5b90620f42409182018092116113d757565b919082018092116113d757565b9081602091031261024357516104fa816107d0565b9060209161170a815180928185528580860191016104fd565b601f01601f1916010190565b6001600160a01b0391821681529116602082015260408101919091526080606082018190526104fa929101906116f1565b9061175182611a0e565b9061175a611991565b604051633676633960e21b81527f00000000000000000000000000000000000000000000000000000000000000006001600160a01b03818116600484018190526024840185905293969095602094937f00000000000000000000000000000000000000000000000000000000000000008816939192908681604481885afa928315610bd957856117fa6118209561180094600091611974575b508d6116cf565b9161164e565b805161181a9060e0906001600160a01b0316920151151590565b90612391565b506040516370a0823160e01b80825230600483015291978816928682602481875afa948515610bd9578a889360009761194e575b50600061187b96979860405197889586948593632e7ff4ef60e11b85523060048601611716565b03925af1918215610bd9578592611921575b5060405190815230600482015291829060249082905afa928315610bd957600093611902575b5050808211156118f8576118c6916113ca565b925b60405190815233907f134bde118562a60dcf2d8c52965f586e25cf88a371592e44b78c4aa03bcbac8490602090a2565b50506000926118c8565b611919929350803d10610bd257610bc4818361041d565b9038806118b3565b61194090833d8511611947575b611938818361041d565b8101906116dc565b503861188d565b503d61192e565b61187b96975061196c600091863d8811610bd257610bc4818361041d565b979650611854565b61198b91508b3d8d11610bd257610bc4818361041d565b386117f3565b60405163613255ab60e01b81526001600160a01b037f000000000000000000000000000000000000000000000000000000000000000081166004830152602090829060249082907f0000000000000000000000000000000000000000000000000000000000000000165afa908115610bd957600091611302575090565b6104fa60018060a01b0391611a9b8382511691846020820151169480604083015116918160608201511691806080830151169060a08301511660c08301519160e084015115159461010080950151966040519b8c9a60208c015260408b015260608a0152608089015260a088015260c087015260e0860152840152610120808401526101408301906116f1565b03601f19810183528261041d565b9081602091031261024357516104fa81610248565b6040516358b50cef60e11b81526001600160a01b03916020908290600490829086165afa908115610bd957600091611af557501690565b611b16915060203d8111611b1a575b611b0e818361041d565b810190611aa9565b1690565b503d611b04565b6001600160a01b03907f000000000000000000000000000000000000000000000000000000000000000082163303611c72578130911603611c605760405192611b69846103af565b60008085528260208601918083528660408101968288526060820197838952846080840199858b5260a0850197868952828060c088019789895260e08101998a52610100019b60608d5287019581611bc1888a611c84565b50505050509095166001600160a01b03169097529592166001600160a01b03169052166001600160a01b03169052166001600160a01b03168a52611c0491611c84565b909c529a151590975298949350611c1a92505050565b52166001600160a01b03169052166001600160a01b03169052611c3c90611df7565b7f439148f0bbc682ca079e46d6e2c2f0c1e3b820f1a291b069d8882abf8cf18dd990565b604051634ac321c360e11b8152600490fd5b604051631e4a393d60e31b8152600490fd5b9161012083830312610243578235611c9b81610248565b926020810135611caa81610248565b926040820135611cb981610248565b926060830135611cc881610248565b926080810135611cd781610248565b9260a0820135611ce681610248565b9260c08301359260e0810135611cfb816107d0565b926101008201356001600160401b038111610243576104fa92016108bf565b602081830312610243578051906001600160401b038211610243570181601f82011215610243578051611d4c8161046d565b92611d5a604051948561041d565b81845260208284010111610243576104fa91602080850191016104fd565b6001600160a01b0390911681526040602082018190526104fa929101906116f1565b90816020910312610243575160ff811681036102435790565b60ff16604d81116113d757600a0a90565b818102929181159184041417156113d757565b8115611de1570490565b634e487b7160e01b600052601260045260246000fd5b602081810180516001600160a01b03908116807f00000000000000000000000000000000000000000000000000000000000000008316810361232557505083516001600160a01b03166001600160a01b031682519091906001600160a01b03166001600160a01b031660408681018051909792949291906001600160a01b03166001600160a01b03166060830180519198909790916001600160a01b03166001600160a01b03166080850180519098906001600160a01b031660a087018051909c919891906001600160a01b03169860c08901998a519160e08b01968751611ede90151590565b94611ee761043e565b6001600160a01b0390971687526001600160a01b03909716868b01908152966001600160a01b0316868c01526001600160a01b031660608601526001600160a01b031660808501526001600160a01b031660a084015260c0830152151560e0820152611f52906113dc565b83519096906001600160a01b031681516001600160a01b0316908a80831691160361200d575b505050505050906115f4918480611fdb6115a1611fcd611fbf7fe96c57864e490909fadd8ddc506e391bc4946ed905e39f7e71321861c798d3e69b5160018060a01b031690565b9c516001600160a01b031690565b9a516001600160a01b031690565b95519251968796169a169816968460609194936001936080830196858060a01b03168352602083015260408201520152565b61201f9061181a859998979951151590565b935190938791612291575b508551631f94a27560e31b81529088826004817f00000000000000000000000000000000000000000000000000000000000000008f165afa918215610bd9578b928391600091612274575b5016908751908a8260048163313ce56760e01b978882528b165afa918215610bd9576120b3926120ad91600091612257575b50611db3565b90611dc4565b8651885163b3596f0760e01b8082526001600160a01b0390921660048201529091908b81602481875afa8015610bd9578c926120f792600092612238575b50611dc4565b89519283526001600160a01b03881660048401529192839060249082905afa908115610bd95761213861214692610a19928d95600092612219575b50611dd7565b95516001600160a01b031690565b91600488518094819382525afa978815610bd9577fe96c57864e490909fadd8ddc506e391bc4946ed905e39f7e71321861c798d3e69b6121df8c9788978d6115a1976101006115f49f6121386121cb6121c0611fdb9e6121ba6121d495611fcd9f611fbf9f6000926121ec575b5050611db3565b90611dd7565b6120ad6003546116be565b620f4240900490565b910151915192612844565b509b505085969750611f78565b61220b9250803d10612212575b612203818361041d565b810190611d9a565b38806121b3565b503d6121f9565b612231919250863d8811610bd257610bc4818361041d565b9038612132565b612250919250843d8611610bd257610bc4818361041d565b90386120f1565b61226e91508d803d1061221257612203818361041d565b386120a7565b61228b91508b3d8d11611b1a57611b0e818361041d565b38612075565b82516000925089906122e2906122b190610a19906001600160a01b031681565b895163095ea7b360e01b81526001600160a01b0385166004820152602481018c905294859283919082906044820190565b03925af1908115610bd95760049261230292612308575b508830916112ba565b9061202a565b61231e908b3d8d1161194757611938818361041d565b50386122f9565b906000600492604051938480926395d89b4160e01b82525afa918215610bd95760009261236e575b5061236a604051928392635620c2dd60e01b845260048401611d78565b0390fd5b61238a91923d8091833e612382818361041d565b810190611d1a565b908261234d565b60009291156123f2576123a591925061131a565b6040516338d52e0f60e01b81529091906020816004816001600160a01b0387165afa908115610bd9576000916123da57509190565b6123f2915060203d8111611b1a57611b0e818361041d565b9190565b9060018060a01b039160019261241081855416331461120b565b80825116906020612428818501938385511690612573565b9561243287610520565b8160ff1982541617905561244a604086015197610546565b92875160005b600b81106124cc57505050506124946124c793606093601f60408a6124826124a59761046b9c9d0151600b86016124df565b0151910155516001600160a01b031690565b84516001600160a01b031690612573565b926124bf6124b285610520565b805460ff19166001179055565b015191610546565b612529565b8151831686820155908401908301612450565b9060009081905b600582106124f45750505050565b8051835b6004811061251557505060046020600192019401910190926124e6565b6001906020835193019281880155016124f8565b90805160005b600b811061255657505060408161254f6020601f940151600b86016124df565b0151910155565b81516001600160a01b03168185015560209091019060010161252f565b6104fa90602190612599906001600160a01b0390612592908216612652565b9416612652565b9260405193816125b38693518092602080870191016104fd565b8201602d60f81b60208201526125d282518093602087850191016104fd565b0103600181018452018261041d565b604051906125ee8261037c565b602a82526040366020840137565b634e487b7160e01b600052603260045260246000fd5b80511561261f5760200190565b6125fc565b80516001101561261f5760210190565b90815181101561261f570160200190565b80156113d7576000190190565b8061265b6125e1565b91603061266784612612565b53607861267384612624565b5360295b600181116126a95750612688575090565b60405163e22e27eb60e01b8152600481019190915260146024820152604490fd5b90600f811690601082101561261f576126e6916f181899199a1a9b1b9c1cb0b131b232b360811b901a6126dc8487612634565b5360041c91612645565b612677565b6001600160a01b039182168152911660208201526060604082018190526104fa929101906116f1565b6001600160a01b039182168152610180810193926020916000919083015b600b8310612741575050505050565b838060019287855116815201920192019190612732565b6000915b600b831061276957505050565b81516001600160a01b03168152600192909201916020918201910161275c565b9060009182915b6005831061279e5750505050565b815184825b600482106127c1575050506020608060019201920192019190612790565b6001908351815260208091019301910190916127a3565b959261084097946128186128239261280d61282e969e9d9c99959e6108608c019f60018060a01b03168c5260208c0190612758565b6101808a0190612789565b610400880190612758565b610560860190612789565b6107e08401526108008301526108208201520152565b9291939093805161294157506128648361285e8682612a32565b95612a32565b84518051919490916001600160a01b0390811690821603612925575050906128fa60209392855192858701519360408787519701519801516040519889978897633fff811360e01b89527f0000000000000000000000000000000000000000000000000000000000000000947f000000000000000000000000000000000000000000000000000000000000000060048b016127d8565b038173EB609695017Aa8597FA9B3db276EC639783351D45af4908115610bd957600091611302575090565b61236a60405192839263cb709ddd60e01b845260048401612714565b604051630f3537b560e31b815290819061236a908787600485016126eb565b90604080519061296f8261037c565b819381518082906000905b600b8210612a125750505061298e81610401565b8352815160a081018181106001600160401b03821117610397578352600b82016000825b600582106129cb575050506020840152601f0154910152565b8551600084825b600483106129fc575050506020600192826129ee6004946103e6565b8152019301910190916129b2565b60016020819284548152019201920191906129d2565b82546001600160a01b03168152600192830192919091019060200161297a565b906040918251612a418161037c565b8351612a4c81610401565b6101603682378152838051612a60816103cb565b60005b60a08110612acf575060208301526000910152612a808282612573565b92612a9b612a97612a9086610520565b5460ff1690565b1590565b612ab357505050612aae6104fa91610546565b612960565b5162acf2cf60e51b815291829161236a918591600485016126eb565b6020919251612add816103e6565b60803682378184015201908591612a6356fea2646970667358221220b65f7675a0a04186802461ecf7b6c364b42bd31e3fcc575fc2da722f1ff3e40464736f6c6343000814003384cb977e2a9a6a9b1fc0d73c4b02cd51695c09eb0d3008d61019a7c0a7406c4c",
  "deployedBytecode": "0x6080604052600436101561001257600080fd5b60003560e01c8063117da1ee146101c757806323e30c8b146101c25780632a6b0c24146101bd5780632ae18104146101b85780632b4481ca146101b3578063313c9b8d146101ae5780634c4e7f6f146101a957806350686479146101a4578063529a356f1461019f5780636333b5691461019a578063715018a61461019557806373d190db1461019057806382e9dd9e1461018b578063845a9f78146101865780638da5cb5b14610181578063987762881461017c5780639922595514610177578063c72c4d1014610172578063cd955ace1461016d578063cda90b8814610168578063d03153aa14610163578063d9caed121461015e578063de1409ce14610159578063efb7440014610154578063f2fde38b1461014f578063f5a586631461014a5763fc4fdd3d1461014557600080fd5b6111d2565b6110f2565b610ec4565b610e4e565b610e09565b610d22565b610d04565b610cbf565b610c7a565b610c35565b6108da565b61084f565b610826565b6107da565b6107ac565b610771565b61070d565b6106c8565b610686565b610646565b6105cd565b610592565b61056c565b61032b565b6102e6565b610259565b34610243576020366003190112610243576004356101f060018060a01b0360015416331461120b565b620f4240811161022b576020817f84cb977e2a9a6a9b1fc0d73c4b02cd51695c09eb0d3008d61019a7c0a7406c4c92600355604051908152a1005b6024906040519063295eaa3d60e01b82526004820152fd5b600080fd5b6001600160a01b0381160361024357565b346102435760a03660031901126102435760043561027681610248565b610281602435610248565b6084356001600160401b038082116102435736602383011215610243578160040135908111610243573660248284010111610243576102d79260246102c7930190611b21565b6040519081529081906020820190565b0390f35b600091031261024357565b34610243576000366003190112610243576040517f00000000000000000000000000000000000000000000000000000000000000006001600160a01b03168152602090f35b346102435760003660031901126102435760206040517f439148f0bbc682ca079e46d6e2c2f0c1e3b820f1a291b069d8882abf8cf18dd98152f35b634e487b7160e01b600052604160045260246000fd5b606081019081106001600160401b0382111761039757604052565b610366565b6001600160401b03811161039757604052565b61012081019081106001600160401b0382111761039757604052565b60a081019081106001600160401b0382111761039757604052565b608081019081106001600160401b0382111761039757604052565b61016081019081106001600160401b0382111761039757604052565b90601f801991011681019081106001600160401b0382111761039757604052565b6040519061010082018281106001600160401b0382111761039757604052565b6040519061046b826103af565b565b6001600160401b03811161039757601f01601f191660200190565b9291926104948261046d565b916104a2604051938461041d565b829481845281830111610243578281602093846000960137010152565b602060031982011261024357600435906001600160401b0382116102435780602383011215610243578160246104fa93600401359101610488565b90565b60005b8381106105105750506000910152565b8181015183820152602001610500565b60206105399181604051938285809451938492016104fd565b8101600681520301902090565b602061055f9181604051938285809451938492016104fd565b8101600581520301902090565b3461024357602060ff610586610581366104bf565b610520565b54166040519015158152f35b346102435760003660031901126102435760206040517f00000000000000000000000000000000000000000000000000000000000000008152f35b34610243576020366003190112610243576004356105ea81610248565b6001546001600160a01b039190610604908316331461120b565b166000818152600260205260408120805460ff19166001179055907fb0a258c58bd721bcb64542ee0e4e4c843ae58242f908c0681ad82d40d688f1fa8280a280f35b3461024357606036600319011261024357602061067e60043561066881610248565b6044359061067582610248565b602435906112ba565b604051908152f35b34610243576020366003190112610243576004356106a381610248565b60018060a01b03166000526002602052602060ff604060002054166040519015158152f35b34610243576000366003190112610243576040517f00000000000000000000000000000000000000000000000000000000000000006001600160a01b03168152602090f35b346102435760008060031936011261076e5760015481906001600160a01b0381169061073a33831461120b565b6001600160a01b0319166001557f8be0079c531659141344cd1fd0a4f28419497f9722a3daafe3b4186f6b6457e08280a380f35b80fd5b346102435760003660031901126102435760206040517f00000000000000000000000000000000000000000000000000000000000000008152f35b34610243576020601f6107c66107c1366104bf565b610546565b0154604051908152f35b8015150361024357565b3461024357604036600319011261024357604061080e6004356107fc81610248565b60243590610809826107d0565b612391565b82516001600160a01b03928316815291166020820152f35b34610243576000366003190112610243576001546040516001600160a01b039091168152602090f35b346102435760403660031901126102435760043561086c81610248565b6024359061087982610248565b6001546001600160a01b03918291610894908316331461120b565b166000526004602052604060002091166bffffffffffffffffffffffff60a01b825416179055600080f35b9080601f83011215610243578160206104fa93359101610488565b346102435760e0366003190112610243576004356108f781610248565b60243561090381610248565b6044359161091083610248565b6064359261091f6084356107d0565b61092a60a4356107d0565b60c4356001600160401b038111610243576109499036906004016108bf565b91600260005414610bf0576002600055336000526020916002835260ff6040600020541615610bde576109db6109f2926109cb61098588611abe565b976109bb61099284611abe565b6109ac61099d61043e565b6001600160a01b03909c168c52565b6001600160a01b03168a890152565b6001600160a01b03166040890152565b6001600160a01b03166060870152565b3360808601525b6001600160a01b031660a0850152565b60c0830184905260a435151560e08401528281015160009490610a25906001600160a01b03165b6001600160a01b031690565b6040516370a0823160e01b8152306004820152908390829060249082905afa908115610bd957600091610bac575b5010610a94575050610a64906113dc565b60843515610a79575b610a776001600055565b005b610a8d9133906001600160a01b0316611359565b3880610a6d565b8251610ba69450610b8c90610ab1906001600160a01b0316610a19565b828501519094906109e290610ace906001600160a01b0316610a19565b6040830151610b7c90610ae9906001600160a01b0316610a19565b6060850151610b6c90610b04906001600160a01b0316610a19565b6080870151909290610b5c906001600160a01b031660a089015190969060c0906001600160a01b03169901519a610b4b610b3c61045e565b6001600160a01b03909f168f52565b6001600160a01b03909116908d0152565b6001600160a01b031660408b0152565b6001600160a01b03166060890152565b6001600160a01b03166080870152565b60c083015260a435151560e0830152610100820152611747565b90610a64565b610bcc9150833d8511610bd2575b610bc4818361041d565b81019061129f565b38610a53565b503d610bba565b6112ae565b6040516399b01c4760e01b8152600490fd5b60405162461bcd60e51b815260206004820152601f60248201527f5265656e7472616e637947756172643a207265656e7472616e742063616c6c006044820152606490fd5b34610243576000366003190112610243576040517f00000000000000000000000000000000000000000000000000000000000000006001600160a01b03168152602090f35b34610243576000366003190112610243576040517f00000000000000000000000000000000000000000000000000000000000000006001600160a01b03168152602090f35b34610243576000366003190112610243576040517f00000000000000000000000000000000000000000000000000000000000000006001600160a01b03168152602090f35b34610243576000366003190112610243576020600354604051908152f35b3461024357606036600319011261024357600435610d3f81610248565b602435610d4b81610248565b6044359160018060a01b038091610d678260015416331461120b565b6040516370a0823160e01b8152306004820152911693602082602481885afa908115610bd9577fa4195c37c2947bbe89165f03e320b6903116f0b10d8cfdb522330f7ce6f9fa2492600092610de9575b5081811115610de15750915b610dce838587611359565b60405192835292909216913391602090a4005b905091610dc3565b610e0291925060203d8111610bd257610bc4818361041d565b9038610db7565b34610243576000366003190112610243576040517f00000000000000000000000000000000000000000000000000000000000000006001600160a01b03168152602090f35b3461024357602036600319011261024357600435610e6b81610248565b6001546001600160a01b039190610e85908316331461120b565b166000818152600260205260408120805460ff19169055907f06091797105e9997e06a57873c81a60a419050caf1d0ffedacc53ffc767f84f58280a280f35b3461024357602036600319011261024357600435610ee181610248565b6001546001600160a01b0390610efa908216331461120b565b811615610f0a57610a7790611256565b60405162461bcd60e51b815260206004820152602660248201527f4f776e61626c653a206e6577206f776e657220697320746865207a65726f206160448201526564647265737360d01b6064820152608490fd5b806105c3121561024357604090815191610f77836103cb565b8261082491838311610243576105a4915b838310610f9757505050505090565b84601f84011215610243578151610fad816103e6565b80608085018781116102435785915b818310610fd757505050816020916080935201920191610f88565b8235815260209283019201610fbc565b806101c3121561024357604090815191611000836103cb565b8261042491838311610243576101a4915b83831061102057505050505090565b84601f84011215610243578151611036816103e6565b80608085018781116102435785915b81831061106057505050816020916080935201920191611011565b8235815260209283019201611045565b90610400610443198301126102435760405161108b8161037c565b8092806104631215610243576040516110a381610401565b6105a48183821161024357610444905b8282106110d85750505082526110c890610f5e565b6020820152604061082435910152565b6020809183356110e781610248565b8152019101906110b3565b34610243576108403660031901126102435760408051608081018181106001600160401b0382111761039757825260043561112c81610248565b81526024359161113b83610248565b602092838301526104006043193601126102435780519061115b8261037c565b366063121561024357805161116f81610401565b6101a481368211610243576044905b8282106111b9575050508252610a779361119736610fe7565b9083015261042435818301528201526111af36611070565b60608201526123f6565b87809183356111c781610248565b81520191019061117e565b346102435760203660031901126102435760206111f96004356111f481610248565b61131a565b6040516001600160a01b039091168152f35b1561121257565b606460405162461bcd60e51b815260206004820152602060248201527f4f776e61626c653a2063616c6c6572206973206e6f7420746865206f776e65726044820152fd5b600180546001600160a01b039283166001600160a01b0319821681179092559091167f8be0079c531659141344cd1fd0a4f28419497f9722a3daafe3b4186f6b6457e0600080a3565b90816020910312610243575190565b6040513d6000823e3d90fd5b606460209260006040519586948593635d043b2960e11b8552600485015260018060a01b038092168060248601526044850152165af1908115610bd957600091611302575090565b6104fa915060203d8111610bd257610bc4818361041d565b6001600160a01b03818116600090815260046020526040902054168061133e575090565b905090565b634e487b7160e01b600052601160045260246000fd5b600091826044926020956040519363a9059cbb60e01b8552600485015260248401525af13d15601f3d116001600051141617161561139357565b60405162461bcd60e51b815260206004820152600f60248201526e1514905394d1915497d19052531151608a1b6044820152606490fd5b919082039182116113d757565b611343565b80519091906113f3906001600160a01b0316610a19565b6040516370a0823160e01b808252306004830152936020928390839060249082905afa918215610bd95760009261162f575b50808301516001600160a01b03169160018060a01b03807f0000000000000000000000000000000000000000000000000000000000000000169661147060c08501958987519161164e565b6040840195611493610a1961148e610a198a5160018060a01b031690565b611abe565b9460608101956114b2610a1961148e610a198a5160018060a01b031690565b60a083018051909c919291906001600160a01b0316908a5193813b156102435760405162a718a960e01b81526001600160a01b0394851660048201529084166024820152919092166044820152606481019290925260006084830181905290829060a490829084905af18015610bd957839261153f92610a1992611616575b50516001600160a01b031690565b604051938452306004850152839060249082905afa938415610bd957610a196115af6115a16115af937fe96c57864e490909fadd8ddc506e391bc4946ed905e39f7e71321861c798d3e6986115bd97610a19976000926115f9575b50506113ca565b9b516001600160a01b031690565b96516001600160a01b031690565b9351604080516001600160a01b03909516855260208501919091528301879052600060608401529283169390921691339180608081015b0390a4565b61160f9250803d10610bd257610bc4818361041d565b388061159a565b806116236116299261039c565b806102db565b38611531565b611647919250833d8511610bd257610bc4818361041d565b9038611425565b600091826044926020956040519363095ea7b360e01b8552600485015260248401525af13d15601f3d116001600051141617161561168857565b60405162461bcd60e51b815260206004820152600e60248201526d1054141493d59157d1905253115160921b6044820152606490fd5b90620f42409182018092116113d757565b919082018092116113d757565b9081602091031261024357516104fa816107d0565b9060209161170a815180928185528580860191016104fd565b601f01601f1916010190565b6001600160a01b0391821681529116602082015260408101919091526080606082018190526104fa929101906116f1565b9061175182611a0e565b9061175a611991565b604051633676633960e21b81527f00000000000000000000000000000000000000000000000000000000000000006001600160a01b03818116600484018190526024840185905293969095602094937f00000000000000000000000000000000000000000000000000000000000000008816939192908681604481885afa928315610bd957856117fa6118209561180094600091611974575b508d6116cf565b9161164e565b805161181a9060e0906001600160a01b0316920151151590565b90612391565b506040516370a0823160e01b80825230600483015291978816928682602481875afa948515610bd9578a889360009761194e575b50600061187b96979860405197889586948593632e7ff4ef60e11b85523060048601611716565b03925af1918215610bd9578592611921575b5060405190815230600482015291829060249082905afa928315610bd957600093611902575b5050808211156118f8576118c6916113ca565b925b60405190815233907f134bde118562a60dcf2d8c52965f586e25cf88a371592e44b78c4aa03bcbac8490602090a2565b50506000926118c8565b611919929350803d10610bd257610bc4818361041d565b9038806118b3565b61194090833d8511611947575b611938818361041d565b8101906116dc565b503861188d565b503d61192e565b61187b96975061196c600091863d8811610bd257610bc4818361041d565b979650611854565b61198b91508b3d8d11610bd257610bc4818361041d565b386117f3565b60405163613255ab60e01b81526001600160a01b037f000000000000000000000000000000000000000000000000000000000000000081166004830152602090829060249082907f0000000000000000000000000000000000000000000000000000000000000000165afa908115610bd957600091611302575090565b6104fa60018060a01b0391611a9b8382511691846020820151169480604083015116918160608201511691806080830151169060a08301511660c08301519160e084015115159461010080950151966040519b8c9a60208c015260408b015260608a0152608089015260a088015260c087015260e0860152840152610120808401526101408301906116f1565b03601f19810183528261041d565b9081602091031261024357516104fa81610248565b6040516358b50cef60e11b81526001600160a01b03916020908290600490829086165afa908115610bd957600091611af557501690565b611b16915060203d8111611b1a575b611b0e818361041d565b810190611aa9565b1690565b503d611b04565b6001600160a01b03907f000000000000000000000000000000000000000000000000000000000000000082163303611c72578130911603611c605760405192611b69846103af565b60008085528260208601918083528660408101968288526060820197838952846080840199858b5260a0850197868952828060c088019789895260e08101998a52610100019b60608d5287019581611bc1888a611c84565b50505050509095166001600160a01b03169097529592166001600160a01b03169052166001600160a01b03169052166001600160a01b03168a52611c0491611c84565b909c529a151590975298949350611c1a92505050565b52166001600160a01b03169052166001600160a01b03169052611c3c90611df7565b7f439148f0bbc682ca079e46d6e2c2f0c1e3b820f1a291b069d8882abf8cf18dd990565b604051634ac321c360e11b8152600490fd5b604051631e4a393d60e31b8152600490fd5b9161012083830312610243578235611c9b81610248565b926020810135611caa81610248565b926040820135611cb981610248565b926060830135611cc881610248565b926080810135611cd781610248565b9260a0820135611ce681610248565b9260c08301359260e0810135611cfb816107d0565b926101008201356001600160401b038111610243576104fa92016108bf565b602081830312610243578051906001600160401b038211610243570181601f82011215610243578051611d4c8161046d565b92611d5a604051948561041d565b81845260208284010111610243576104fa91602080850191016104fd565b6001600160a01b0390911681526040602082018190526104fa929101906116f1565b90816020910312610243575160ff811681036102435790565b60ff16604d81116113d757600a0a90565b818102929181159184041417156113d757565b8115611de1570490565b634e487b7160e01b600052601260045260246000fd5b602081810180516001600160a01b03908116807f00000000000000000000000000000000000000000000000000000000000000008316810361232557505083516001600160a01b03166001600160a01b031682519091906001600160a01b03166001600160a01b031660408681018051909792949291906001600160a01b03166001600160a01b03166060830180519198909790916001600160a01b03166001600160a01b03166080850180519098906001600160a01b031660a087018051909c919891906001600160a01b03169860c08901998a519160e08b01968751611ede90151590565b94611ee761043e565b6001600160a01b0390971687526001600160a01b03909716868b01908152966001600160a01b0316868c01526001600160a01b031660608601526001600160a01b031660808501526001600160a01b031660a084015260c0830152151560e0820152611f52906113dc565b83519096906001600160a01b031681516001600160a01b0316908a80831691160361200d575b505050505050906115f4918480611fdb6115a1611fcd611fbf7fe96c57864e490909fadd8ddc506e391bc4946ed905e39f7e71321861c798d3e69b5160018060a01b031690565b9c516001600160a01b031690565b9a516001600160a01b031690565b95519251968796169a169816968460609194936001936080830196858060a01b03168352602083015260408201520152565b61201f9061181a859998979951151590565b935190938791612291575b508551631f94a27560e31b81529088826004817f00000000000000000000000000000000000000000000000000000000000000008f165afa918215610bd9578b928391600091612274575b5016908751908a8260048163313ce56760e01b978882528b165afa918215610bd9576120b3926120ad91600091612257575b50611db3565b90611dc4565b8651885163b3596f0760e01b8082526001600160a01b0390921660048201529091908b81602481875afa8015610bd9578c926120f792600092612238575b50611dc4565b89519283526001600160a01b03881660048401529192839060249082905afa908115610bd95761213861214692610a19928d95600092612219575b50611dd7565b95516001600160a01b031690565b91600488518094819382525afa978815610bd9577fe96c57864e490909fadd8ddc506e391bc4946ed905e39f7e71321861c798d3e69b6121df8c9788978d6115a1976101006115f49f6121386121cb6121c0611fdb9e6121ba6121d495611fcd9f611fbf9f6000926121ec575b5050611db3565b90611dd7565b6120ad6003546116be565b620f4240900490565b910151915192612844565b509b505085969750611f78565b61220b9250803d10612212575b612203818361041d565b810190611d9a565b38806121b3565b503d6121f9565b612231919250863d8811610bd257610bc4818361041d565b9038612132565b612250919250843d8611610bd257610bc4818361041d565b90386120f1565b61226e91508d803d1061221257612203818361041d565b386120a7565b61228b91508b3d8d11611b1a57611b0e818361041d565b38612075565b82516000925089906122e2906122b190610a19906001600160a01b031681565b895163095ea7b360e01b81526001600160a01b0385166004820152602481018c905294859283919082906044820190565b03925af1908115610bd95760049261230292612308575b508830916112ba565b9061202a565b61231e908b3d8d1161194757611938818361041d565b50386122f9565b906000600492604051938480926395d89b4160e01b82525afa918215610bd95760009261236e575b5061236a604051928392635620c2dd60e01b845260048401611d78565b0390fd5b61238a91923d8091833e612382818361041d565b810190611d1a565b908261234d565b60009291156123f2576123a591925061131a565b6040516338d52e0f60e01b81529091906020816004816001600160a01b0387165afa908115610bd9576000916123da57509190565b6123f2915060203d8111611b1a57611b0e818361041d565b9190565b9060018060a01b039160019261241081855416331461120b565b80825116906020612428818501938385511690612573565b9561243287610520565b8160ff1982541617905561244a604086015197610546565b92875160005b600b81106124cc57505050506124946124c793606093601f60408a6124826124a59761046b9c9d0151600b86016124df565b0151910155516001600160a01b031690565b84516001600160a01b031690612573565b926124bf6124b285610520565b805460ff19166001179055565b015191610546565b612529565b8151831686820155908401908301612450565b9060009081905b600582106124f45750505050565b8051835b6004811061251557505060046020600192019401910190926124e6565b6001906020835193019281880155016124f8565b90805160005b600b811061255657505060408161254f6020601f940151600b86016124df565b0151910155565b81516001600160a01b03168185015560209091019060010161252f565b6104fa90602190612599906001600160a01b0390612592908216612652565b9416612652565b9260405193816125b38693518092602080870191016104fd565b8201602d60f81b60208201526125d282518093602087850191016104fd565b0103600181018452018261041d565b604051906125ee8261037c565b602a82526040366020840137565b634e487b7160e01b600052603260045260246000fd5b80511561261f5760200190565b6125fc565b80516001101561261f5760210190565b90815181101561261f570160200190565b80156113d7576000190190565b8061265b6125e1565b91603061266784612612565b53607861267384612624565b5360295b600181116126a95750612688575090565b60405163e22e27eb60e01b8152600481019190915260146024820152604490fd5b90600f811690601082101561261f576126e6916f181899199a1a9b1b9c1cb0b131b232b360811b901a6126dc8487612634565b5360041c91612645565b612677565b6001600160a01b039182168152911660208201526060604082018190526104fa929101906116f1565b6001600160a01b039182168152610180810193926020916000919083015b600b8310612741575050505050565b838060019287855116815201920192019190612732565b6000915b600b831061276957505050565b81516001600160a01b03168152600192909201916020918201910161275c565b9060009182915b6005831061279e5750505050565b815184825b600482106127c1575050506020608060019201920192019190612790565b6001908351815260208091019301910190916127a3565b959261084097946128186128239261280d61282e969e9d9c99959e6108608c019f60018060a01b03168c5260208c0190612758565b6101808a0190612789565b610400880190612758565b610560860190612789565b6107e08401526108008301526108208201520152565b9291939093805161294157506128648361285e8682612a32565b95612a32565b84518051919490916001600160a01b0390811690821603612925575050906128fa60209392855192858701519360408787519701519801516040519889978897633fff811360e01b89527f0000000000000000000000000000000000000000000000000000000000000000947f000000000000000000000000000000000000000000000000000000000000000060048b016127d8565b038173__$e2517e438dd7117781925bdc00e57cd357$__5af4908115610bd957600091611302575090565b61236a60405192839263cb709ddd60e01b845260048401612714565b604051630f3537b560e31b815290819061236a908787600485016126eb565b90604080519061296f8261037c565b819381518082906000905b600b8210612a125750505061298e81610401565b8352815160a081018181106001600160401b03821117610397578352600b82016000825b600582106129cb575050506020840152601f0154910152565b8551600084825b600483106129fc575050506020600192826129ee6004946103e6565b8152019301910190916129b2565b60016020819284548152019201920191906129d2565b82546001600160a01b03168152600192830192919091019060200161297a565b906040918251612a418161037c565b8351612a4c81610401565b6101603682378152838051612a60816103cb565b60005b60a08110612acf575060208301526000910152612a808282612573565b92612a9b612a97612a9086610520565b5460ff1690565b1590565b612ab357505050612aae6104fa91610546565b612960565b5162acf2cf60e51b815291829161236a918591600485016126eb565b6020919251612add816103e6565b60803682378184015201908591612a6356fea2646970667358221220b65f7675a0a04186802461ecf7b6c364b42bd31e3fcc575fc2da722f1ff3e40464736f6c63430008140033",
  "libraries": {
    "CurveHelper": "0xEB609695017Aa8597FA9B3db276EC639783351D4"
  },
  "devdoc": {
    "errors": {
      "StringsInsufficientHexLength(uint256,uint256)": [
        {
          "details": "The `value` string doesn't fit in the specified `length`."
        }
      ]
    },
    "kind": "dev",
    "methods": {
      "getActualCollateralToken(address,bool)": {
        "details": "Get the actual collateral token address",
        "params": {
          "_collateralUnderlying": "The underlying collateral token address",
          "_isUnstakeCollateralToken": "Whether the collateral token is unstaked"
        },
        "returns": {
          "actualCollateralToken_": "The actual collateral token address",
          "proxyContract_": "The proxy contract address"
        }
      },
      "onFlashLoan(address,address,uint256,uint256,bytes)": {
        "details": "ERC-3156 Flash loan callback"
      },
      "owner()": {
        "details": "Returns the address of the current owner."
      },
      "renounceOwnership()": {
        "details": "Leaves the contract without owner. It will not be possible to call `onlyOwner` functions anymore. Can only be called by the current owner. NOTE: Renouncing ownership will leave the contract without an owner, thereby removing any functionality that is only available to the owner."
      },
      "transferOwnership(address)": {
        "details": "Transfers ownership of the contract to a new account (`newOwner`). Can only be called by the current owner."
      }
    },
    "version": 1
  },
  "userdoc": {
    "kind": "user",
    "methods": {},
    "version": 1
  },
  "storageLayout": {
    "storage": [
      {
        "astId": 115,
        "contract": "contracts/lending_liquidator/aave-v3/FlashMintLiquidatorAaveBorrowRepayCurve.sol:FlashMintLiquidatorAaveBorrowRepayCurve",
        "label": "_status",
        "offset": 0,
        "slot": "0",
        "type": "t_uint256"
      },
      {
        "astId": 7,
        "contract": "contracts/lending_liquidator/aave-v3/FlashMintLiquidatorAaveBorrowRepayCurve.sol:FlashMintLiquidatorAaveBorrowRepayCurve",
        "label": "_owner",
        "offset": 0,
        "slot": "1",
        "type": "t_address"
      },
      {
        "astId": 10210,
        "contract": "contracts/lending_liquidator/aave-v3/FlashMintLiquidatorAaveBorrowRepayCurve.sol:FlashMintLiquidatorAaveBorrowRepayCurve",
        "label": "isLiquidator",
        "offset": 0,
        "slot": "2",
        "type": "t_mapping(t_address,t_bool)"
      },
      {
        "astId": 9149,
        "contract": "contracts/lending_liquidator/aave-v3/FlashMintLiquidatorAaveBorrowRepayCurve.sol:FlashMintLiquidatorAaveBorrowRepayCurve",
        "label": "slippageTolerance",
        "offset": 0,
        "slot": "3",
        "type": "t_uint256"
      },
      {
        "astId": 9163,
        "contract": "contracts/lending_liquidator/aave-v3/FlashMintLiquidatorAaveBorrowRepayCurve.sol:FlashMintLiquidatorAaveBorrowRepayCurve",
        "label": "proxyContractMap",
        "offset": 0,
        "slot": "4",
        "type": "t_mapping(t_address,t_address)"
      },
      {
        "astId": 9732,
        "contract": "contracts/lending_liquidator/aave-v3/FlashMintLiquidatorAaveBorrowRepayCurve.sol:FlashMintLiquidatorAaveBorrowRepayCurve",
        "label": "defaultSwapParams",
        "offset": 0,
        "slot": "5",
        "type": "t_mapping(t_string_memory_ptr,t_struct(CurveSwapExtraParams)4488_storage)"
      },
      {
        "astId": 9736,
        "contract": "contracts/lending_liquidator/aave-v3/FlashMintLiquidatorAaveBorrowRepayCurve.sol:FlashMintLiquidatorAaveBorrowRepayCurve",
        "label": "isSwapParamsSet",
        "offset": 0,
        "slot": "6",
        "type": "t_mapping(t_string_memory_ptr,t_bool)"
      }
    ],
    "types": {
      "t_address": {
        "encoding": "inplace",
        "label": "address",
        "numberOfBytes": "20"
      },
      "t_array(t_address)11_storage": {
        "base": "t_address",
        "encoding": "inplace",
        "label": "address[11]",
        "numberOfBytes": "352"
      },
      "t_array(t_array(t_uint256)4_storage)5_storage": {
        "base": "t_array(t_uint256)4_storage",
        "encoding": "inplace",
        "label": "uint256[4][5]",
        "numberOfBytes": "640"
      },
      "t_array(t_uint256)4_storage": {
        "base": "t_uint256",
        "encoding": "inplace",
        "label": "uint256[4]",
        "numberOfBytes": "128"
      },
      "t_bool": {
        "encoding": "inplace",
        "label": "bool",
        "numberOfBytes": "1"
      },
      "t_mapping(t_address,t_address)": {
        "encoding": "mapping",
        "key": "t_address",
        "label": "mapping(address => address)",
        "numberOfBytes": "32",
        "value": "t_address"
      },
      "t_mapping(t_address,t_bool)": {
        "encoding": "mapping",
        "key": "t_address",
        "label": "mapping(address => bool)",
        "numberOfBytes": "32",
        "value": "t_bool"
      },
      "t_mapping(t_string_memory_ptr,t_bool)": {
        "encoding": "mapping",
        "key": "t_string_memory_ptr",
        "label": "mapping(string => bool)",
        "numberOfBytes": "32",
        "value": "t_bool"
      },
      "t_mapping(t_string_memory_ptr,t_struct(CurveSwapExtraParams)4488_storage)": {
        "encoding": "mapping",
        "key": "t_string_memory_ptr",
        "label": "mapping(string => struct CurveHelper.CurveSwapExtraParams)",
        "numberOfBytes": "32",
        "value": "t_struct(CurveSwapExtraParams)4488_storage"
      },
      "t_string_memory_ptr": {
        "encoding": "bytes",
        "label": "string",
        "numberOfBytes": "32"
      },
      "t_struct(CurveSwapExtraParams)4488_storage": {
        "encoding": "inplace",
        "label": "struct CurveHelper.CurveSwapExtraParams",
        "members": [
          {
            "astId": 4479,
            "contract": "contracts/lending_liquidator/aave-v3/FlashMintLiquidatorAaveBorrowRepayCurve.sol:FlashMintLiquidatorAaveBorrowRepayCurve",
            "label": "route",
            "offset": 0,
            "slot": "0",
            "type": "t_array(t_address)11_storage"
          },
          {
            "astId": 4485,
            "contract": "contracts/lending_liquidator/aave-v3/FlashMintLiquidatorAaveBorrowRepayCurve.sol:FlashMintLiquidatorAaveBorrowRepayCurve",
            "label": "swapParams",
            "offset": 0,
            "slot": "11",
            "type": "t_array(t_array(t_uint256)4_storage)5_storage"
          },
          {
            "astId": 4487,
            "contract": "contracts/lending_liquidator/aave-v3/FlashMintLiquidatorAaveBorrowRepayCurve.sol:FlashMintLiquidatorAaveBorrowRepayCurve",
            "label": "swapSlippageBufferBps",
            "offset": 0,
            "slot": "31",
            "type": "t_uint256"
          }
        ],
        "numberOfBytes": "1024"
      },
      "t_uint256": {
        "encoding": "inplace",
        "label": "uint256",
        "numberOfBytes": "32"
      }
    }
  }
}