{
  "address": "0x8e5031c6B88f18786Aa038C4f291724d0c4Abc2a",
  "abi": [
    {
      "inputs": [
        {
          "internalType": "uint256",
          "name": "_pricePeg",
          "type": "uint256"
        },
        {
          "internalType": "uint256",
          "name": "_baseCurrencyUnit",
          "type": "uint256"
        }
      ],
      "stateMutability": "nonpayable",
      "type": "constructor"
    },
    {
      "inputs": [],
      "name": "BASE_CURRENCY",
      "outputs": [
        {
          "internalType": "address",
          "name": "",
          "type": "address"
        }
      ],
      "stateMutability": "view",
      "type": "function"
    },
    {
      "inputs": [],
      "name": "BASE_CURRENCY_UNIT",
      "outputs": [
        {
          "internalType": "uint256",
          "name": "",
          "type": "uint256"
        }
      ],
      "stateMutability": "view",
      "type": "function"
    },
    {
      "inputs": [
        {
          "internalType": "address",
          "name": "",
          "type": "address"
        }
      ],
      "name": "getAssetPrice",
      "outputs": [
        {
          "internalType": "uint256",
          "name": "",
          "type": "uint256"
        }
      ],
      "stateMutability": "view",
      "type": "function"
    },
    {
      "inputs": [
        {
          "internalType": "address",
          "name": "",
          "type": "address"
        }
      ],
      "name": "getPriceInfo",
      "outputs": [
        {
          "internalType": "uint256",
          "name": "price",
          "type": "uint256"
        },
        {
          "internalType": "bool",
          "name": "isAlive",
          "type": "bool"
        }
      ],
      "stateMutability": "view",
      "type": "function"
    },
    {
      "inputs": [],
      "name": "pricePeg",
      "outputs": [
        {
          "internalType": "uint256",
          "name": "",
          "type": "uint256"
        }
      ],
      "stateMutability": "view",
      "type": "function"
    }
  ],
  "transactionHash": "0x138e7bf7307a7c5a1a9b7979d3b8aae0d1770479d3aa9ce9704b7f930b61cac2",
  "args": [
    100000000,
    "100000000"
  ],
  "numDeployments": 1,
  "solcInputHash": "83c36c8a0c533a01ab5370c60abc31e8",
  "bytecode": "0x60a03461006f57601f61023138819003918201601f19168301916001600160401b0383118484101761007457808492604094855283398101031261006f5760208151910151906080526000556040516101a6908161008b823960805181818160a00152818160ed015261014d0152f35b600080fd5b634e487b7160e01b600052604160045260246000fdfe60806040818152600436101561001457600080fd5b600091823560e01c9081636af8ecae14610136575080638c89b64f1461011a5780638edbf436146100c3578063b3596f07146100765763e19f47001461005957600080fd5b3461007257816003193601126100725751908152602090f35b5080fd5b5034610072576020366003190112610072576004356001600160a01b0381160361007257602090517f00000000000000000000000000000000000000000000000000000000000000008152f35b509034610117576020366003190112610117576004356001600160a01b03811603610117575080517f0000000000000000000000000000000000000000000000000000000000000000815260016020820152f35b80fd5b5034610072578160031936011261007257602091549051908152f35b8390346100725781600319360112610072576020907f00000000000000000000000000000000000000000000000000000000000000008152f3fea26469706673582212208c476232eaaa2fa4dbfd10c74e25dca6203f620719ecfa1f8918aa21c2e1640764736f6c63430008140033",
  "devdoc": {
    "kind": "dev",
    "methods": {
      "getAssetPrice(address)": {
        "details": "Get the price of an asset"
      },
      "getPriceInfo(address)": {
        "details": "Get the price info of an asset"
      }
    },
    "stateVariables": {
      "BASE_CURRENCY": {
        "details": "Address 0x0 is reserved for USD as base currency.",
        "return": "Returns the base currency address.",
        "returns": {
          "_0": "Returns the base currency address."
        }
      },
      "BASE_CURRENCY_UNIT": {
        "details": "1 ether for ETH, 1e8 for USD.",
        "return": "Returns the base currency unit.",
        "returns": {
          "_0": "Returns the base currency unit."
        }
      }
    },
    "version": 1
  },
  "userdoc": {
    "kind": "user",
    "methods": {
      "BASE_CURRENCY()": {
        "notice": "Returns the base currency address"
      },
      "BASE_CURRENCY_UNIT()": {
        "notice": "Returns the base currency unit"
      }
    },
    "version": 1
  },
  "storageLayout": {
    "storage": [
      {
        "astId": 10959,
        "contract": "contracts/oracle_aggregator/wrapper/HardPegOracleWrapper.sol:HardPegOracleWrapper",
        "label": "BASE_CURRENCY_UNIT",
        "offset": 0,
        "slot": "0",
        "type": "t_uint256"
      }
    ],
    "types": {
      "t_uint256": {
        "encoding": "inplace",
        "label": "uint256",
        "numberOfBytes": "32"
      }
    }
  }
}