{
  "address": "0xd95f1cFD9559B6e4D75488938DE161a147F9FbCa",
  "abi": [
    {
      "inputs": [
        {
          "internalType": "address",
          "name": "_collateralVault",
          "type": "address"
        },
        {
          "internalType": "address",
          "name": "_dusd",
          "type": "address"
        },
        {
          "internalType": "contract IPriceOracleGetter",
          "name": "oracle",
          "type": "address"
        },
        {
          "internalType": "address",
          "name": "_amoManager",
          "type": "address"
        }
      ],
      "stateMutability": "nonpayable",
      "type": "constructor"
    },
    {
      "inputs": [],
      "name": "AccessControlBadConfirmation",
      "type": "error"
    },
    {
      "inputs": [
        {
          "internalType": "address",
          "name": "account",
          "type": "address"
        },
        {
          "internalType": "bytes32",
          "name": "neededRole",
          "type": "bytes32"
        }
      ],
      "name": "AccessControlUnauthorizedAccount",
      "type": "error"
    },
    {
      "inputs": [
        {
          "internalType": "address",
          "name": "target",
          "type": "address"
        }
      ],
      "name": "AddressEmptyCode",
      "type": "error"
    },
    {
      "inputs": [
        {
          "internalType": "address",
          "name": "account",
          "type": "address"
        }
      ],
      "name": "AddressInsufficientBalance",
      "type": "error"
    },
    {
      "inputs": [
        {
          "internalType": "address",
          "name": "asset",
          "type": "address"
        }
      ],
      "name": "AssetMintingPaused",
      "type": "error"
    },
    {
      "inputs": [],
      "name": "EnforcedPause",
      "type": "error"
    },
    {
      "inputs": [],
      "name": "ExpectedPause",
      "type": "error"
    },
    {
      "inputs": [],
      "name": "FailedInnerCall",
      "type": "error"
    },
    {
      "inputs": [
        {
          "internalType": "uint256",
          "name": "baseCurrencyUnit",
          "type": "uint256"
        }
      ],
      "name": "IncorrectBaseCurrencyUnit",
      "type": "error"
    },
    {
      "inputs": [
        {
          "internalType": "uint256",
          "name": "collateralInDusd",
          "type": "uint256"
        },
        {
          "internalType": "uint256",
          "name": "circulatingDusd",
          "type": "uint256"
        }
      ],
      "name": "IssuanceSurpassesExcessCollateral",
      "type": "error"
    },
    {
      "inputs": [],
      "name": "MathOverflowedMulDiv",
      "type": "error"
    },
    {
      "inputs": [
        {
          "internalType": "uint256",
          "name": "circulatingDusdBefore",
          "type": "uint256"
        },
        {
          "internalType": "uint256",
          "name": "circulatingDusdAfter",
          "type": "uint256"
        }
      ],
      "name": "MintingToAmoShouldNotIncreaseSupply",
      "type": "error"
    },
    {
      "inputs": [],
      "name": "ReentrancyGuardReentrantCall",
      "type": "error"
    },
    {
      "inputs": [
        {
          "internalType": "address",
          "name": "token",
          "type": "address"
        }
      ],
      "name": "SafeERC20FailedOperation",
      "type": "error"
    },
    {
      "inputs": [
        {
          "internalType": "uint256",
          "name": "minDUsd",
          "type": "uint256"
        },
        {
          "internalType": "uint256",
          "name": "dusdAmount",
          "type": "uint256"
        }
      ],
      "name": "SlippageTooHigh",
      "type": "error"
    },
    {
      "inputs": [
        {
          "internalType": "address",
          "name": "collateralAsset",
          "type": "address"
        }
      ],
      "name": "UnsupportedCollateral",
      "type": "error"
    },
    {
      "anonymous": false,
      "inputs": [
        {
          "indexed": true,
          "internalType": "address",
          "name": "amoManager",
          "type": "address"
        }
      ],
      "name": "AmoManagerSet",
      "type": "event"
    },
    {
      "anonymous": false,
      "inputs": [
        {
          "indexed": true,
          "internalType": "address",
          "name": "asset",
          "type": "address"
        },
        {
          "indexed": false,
          "internalType": "bool",
          "name": "paused",
          "type": "bool"
        }
      ],
      "name": "AssetMintingPauseUpdated",
      "type": "event"
    },
    {
      "anonymous": false,
      "inputs": [
        {
          "indexed": true,
          "internalType": "address",
          "name": "collateralVault",
          "type": "address"
        }
      ],
      "name": "CollateralVaultSet",
      "type": "event"
    },
    {
      "anonymous": false,
      "inputs": [
        {
          "indexed": true,
          "internalType": "address",
          "name": "newOracle",
          "type": "address"
        }
      ],
      "name": "OracleSet",
      "type": "event"
    },
    {
      "anonymous": false,
      "inputs": [
        {
          "indexed": false,
          "internalType": "address",
          "name": "account",
          "type": "address"
        }
      ],
      "name": "Paused",
      "type": "event"
    },
    {
      "anonymous": false,
      "inputs": [
        {
          "indexed": true,
          "internalType": "bytes32",
          "name": "role",
          "type": "bytes32"
        },
        {
          "indexed": true,
          "internalType": "bytes32",
          "name": "previousAdminRole",
          "type": "bytes32"
        },
        {
          "indexed": true,
          "internalType": "bytes32",
          "name": "newAdminRole",
          "type": "bytes32"
        }
      ],
      "name": "RoleAdminChanged",
      "type": "event"
    },
    {
      "anonymous": false,
      "inputs": [
        {
          "indexed": true,
          "internalType": "bytes32",
          "name": "role",
          "type": "bytes32"
        },
        {
          "indexed": true,
          "internalType": "address",
          "name": "account",
          "type": "address"
        },
        {
          "indexed": true,
          "internalType": "address",
          "name": "sender",
          "type": "address"
        }
      ],
      "name": "RoleGranted",
      "type": "event"
    },
    {
      "anonymous": false,
      "inputs": [
        {
          "indexed": true,
          "internalType": "bytes32",
          "name": "role",
          "type": "bytes32"
        },
        {
          "indexed": true,
          "internalType": "address",
          "name": "account",
          "type": "address"
        },
        {
          "indexed": true,
          "internalType": "address",
          "name": "sender",
          "type": "address"
        }
      ],
      "name": "RoleRevoked",
      "type": "event"
    },
    {
      "anonymous": false,
      "inputs": [
        {
          "indexed": false,
          "internalType": "address",
          "name": "account",
          "type": "address"
        }
      ],
      "name": "Unpaused",
      "type": "event"
    },
    {
      "inputs": [],
      "name": "AMO_MANAGER_ROLE",
      "outputs": [
        {
          "internalType": "bytes32",
          "name": "",
          "type": "bytes32"
        }
      ],
      "stateMutability": "view",
      "type": "function"
    },
    {
      "inputs": [],
      "name": "DEFAULT_ADMIN_ROLE",
      "outputs": [
        {
          "internalType": "bytes32",
          "name": "",
          "type": "bytes32"
        }
      ],
      "stateMutability": "view",
      "type": "function"
    },
    {
      "inputs": [],
      "name": "INCENTIVES_MANAGER_ROLE",
      "outputs": [
        {
          "internalType": "bytes32",
          "name": "",
          "type": "bytes32"
        }
      ],
      "stateMutability": "view",
      "type": "function"
    },
    {
      "inputs": [],
      "name": "PAUSER_ROLE",
      "outputs": [
        {
          "internalType": "bytes32",
          "name": "",
          "type": "bytes32"
        }
      ],
      "stateMutability": "view",
      "type": "function"
    },
    {
      "inputs": [],
      "name": "amoManager",
      "outputs": [
        {
          "internalType": "contract AmoManager",
          "name": "",
          "type": "address"
        }
      ],
      "stateMutability": "view",
      "type": "function"
    },
    {
      "inputs": [
        {
          "internalType": "address",
          "name": "",
          "type": "address"
        }
      ],
      "name": "assetMintingPaused",
      "outputs": [
        {
          "internalType": "bool",
          "name": "",
          "type": "bool"
        }
      ],
      "stateMutability": "view",
      "type": "function"
    },
    {
      "inputs": [],
      "name": "baseCurrencyUnit",
      "outputs": [
        {
          "internalType": "uint256",
          "name": "",
          "type": "uint256"
        }
      ],
      "stateMutability": "view",
      "type": "function"
    },
    {
      "inputs": [
        {
          "internalType": "uint256",
          "name": "baseValue",
          "type": "uint256"
        }
      ],
      "name": "baseValueToDusdAmount",
      "outputs": [
        {
          "internalType": "uint256",
          "name": "",
          "type": "uint256"
        }
      ],
      "stateMutability": "view",
      "type": "function"
    },
    {
      "inputs": [],
      "name": "circulatingDusd",
      "outputs": [
        {
          "internalType": "uint256",
          "name": "",
          "type": "uint256"
        }
      ],
      "stateMutability": "view",
      "type": "function"
    },
    {
      "inputs": [],
      "name": "collateralInDusd",
      "outputs": [
        {
          "internalType": "uint256",
          "name": "",
          "type": "uint256"
        }
      ],
      "stateMutability": "view",
      "type": "function"
    },
    {
      "inputs": [],
      "name": "collateralVault",
      "outputs": [
        {
          "internalType": "contract CollateralVault",
          "name": "",
          "type": "address"
        }
      ],
      "stateMutability": "view",
      "type": "function"
    },
    {
      "inputs": [],
      "name": "dusd",
      "outputs": [
        {
          "internalType": "contract IERC20Stablecoin",
          "name": "",
          "type": "address"
        }
      ],
      "stateMutability": "view",
      "type": "function"
    },
    {
      "inputs": [],
      "name": "dusdDecimals",
      "outputs": [
        {
          "internalType": "uint8",
          "name": "",
          "type": "uint8"
        }
      ],
      "stateMutability": "view",
      "type": "function"
    },
    {
      "inputs": [
        {
          "internalType": "bytes32",
          "name": "role",
          "type": "bytes32"
        }
      ],
      "name": "getRoleAdmin",
      "outputs": [
        {
          "internalType": "bytes32",
          "name": "",
          "type": "bytes32"
        }
      ],
      "stateMutability": "view",
      "type": "function"
    },
    {
      "inputs": [
        {
          "internalType": "bytes32",
          "name": "role",
          "type": "bytes32"
        },
        {
          "internalType": "address",
          "name": "account",
          "type": "address"
        }
      ],
      "name": "grantRole",
      "outputs": [],
      "stateMutability": "nonpayable",
      "type": "function"
    },
    {
      "inputs": [
        {
          "internalType": "bytes32",
          "name": "role",
          "type": "bytes32"
        },
        {
          "internalType": "address",
          "name": "account",
          "type": "address"
        }
      ],
      "name": "hasRole",
      "outputs": [
        {
          "internalType": "bool",
          "name": "",
          "type": "bool"
        }
      ],
      "stateMutability": "view",
      "type": "function"
    },
    {
      "inputs": [
        {
          "internalType": "uint256",
          "name": "dusdAmount",
          "type": "uint256"
        }
      ],
      "name": "increaseAmoSupply",
      "outputs": [],
      "stateMutability": "nonpayable",
      "type": "function"
    },
    {
      "inputs": [
        {
          "internalType": "address",
          "name": "asset",
          "type": "address"
        }
      ],
      "name": "isAssetMintingEnabled",
      "outputs": [
        {
          "internalType": "bool",
          "name": "",
          "type": "bool"
        }
      ],
      "stateMutability": "view",
      "type": "function"
    },
    {
      "inputs": [
        {
          "internalType": "uint256",
          "name": "collateralAmount",
          "type": "uint256"
        },
        {
          "internalType": "address",
          "name": "collateralAsset",
          "type": "address"
        },
        {
          "internalType": "uint256",
          "name": "minDUsd",
          "type": "uint256"
        }
      ],
      "name": "issue",
      "outputs": [],
      "stateMutability": "nonpayable",
      "type": "function"
    },
    {
      "inputs": [
        {
          "internalType": "address",
          "name": "receiver",
          "type": "address"
        },
        {
          "internalType": "uint256",
          "name": "dusdAmount",
          "type": "uint256"
        }
      ],
      "name": "issueUsingExcessCollateral",
      "outputs": [],
      "stateMutability": "nonpayable",
      "type": "function"
    },
    {
      "inputs": [],
      "name": "oracle",
      "outputs": [
        {
          "internalType": "contract IPriceOracleGetter",
          "name": "",
          "type": "address"
        }
      ],
      "stateMutability": "view",
      "type": "function"
    },
    {
      "inputs": [],
      "name": "pauseMinting",
      "outputs": [],
      "stateMutability": "nonpayable",
      "type": "function"
    },
    {
      "inputs": [],
      "name": "paused",
      "outputs": [
        {
          "internalType": "bool",
          "name": "",
          "type": "bool"
        }
      ],
      "stateMutability": "view",
      "type": "function"
    },
    {
      "inputs": [
        {
          "internalType": "bytes32",
          "name": "role",
          "type": "bytes32"
        },
        {
          "internalType": "address",
          "name": "callerConfirmation",
          "type": "address"
        }
      ],
      "name": "renounceRole",
      "outputs": [],
      "stateMutability": "nonpayable",
      "type": "function"
    },
    {
      "inputs": [
        {
          "internalType": "bytes32",
          "name": "role",
          "type": "bytes32"
        },
        {
          "internalType": "address",
          "name": "account",
          "type": "address"
        }
      ],
      "name": "revokeRole",
      "outputs": [],
      "stateMutability": "nonpayable",
      "type": "function"
    },
    {
      "inputs": [
        {
          "internalType": "address",
          "name": "_amoManager",
          "type": "address"
        }
      ],
      "name": "setAmoManager",
      "outputs": [],
      "stateMutability": "nonpayable",
      "type": "function"
    },
    {
      "inputs": [
        {
          "internalType": "address",
          "name": "asset",
          "type": "address"
        },
        {
          "internalType": "bool",
          "name": "paused",
          "type": "bool"
        }
      ],
      "name": "setAssetMintingPause",
      "outputs": [],
      "stateMutability": "nonpayable",
      "type": "function"
    },
    {
      "inputs": [
        {
          "internalType": "uint256",
          "name": "_newBaseCurrencyUnit",
          "type": "uint256"
        }
      ],
      "name": "setBaseCurrencyUnit",
      "outputs": [],
      "stateMutability": "nonpayable",
      "type": "function"
    },
    {
      "inputs": [
        {
          "internalType": "address",
          "name": "_collateralVault",
          "type": "address"
        }
      ],
      "name": "setCollateralVault",
      "outputs": [],
      "stateMutability": "nonpayable",
      "type": "function"
    },
    {
      "inputs": [
        {
          "internalType": "contract IPriceOracleGetter",
          "name": "newOracle",
          "type": "address"
        }
      ],
      "name": "setOracle",
      "outputs": [],
      "stateMutability": "nonpayable",
      "type": "function"
    },
    {
      "inputs": [
        {
          "internalType": "bytes4",
          "name": "interfaceId",
          "type": "bytes4"
        }
      ],
      "name": "supportsInterface",
      "outputs": [
        {
          "internalType": "bool",
          "name": "",
          "type": "bool"
        }
      ],
      "stateMutability": "view",
      "type": "function"
    },
    {
      "inputs": [],
      "name": "unpauseMinting",
      "outputs": [],
      "stateMutability": "nonpayable",
      "type": "function"
    }
  ],
  "transactionHash": "0xbf55232b8beb70449fa8a8596745b27f1d58ec4140a14d12c8d72059bfc62a72",
  "args": [
    "0x624E12dE7a97B8cFc1AD1F050a1c9263b1f4FeBC",
    "0x788D96f655735f52c676A133f4dFC53cEC614d4A",
    "0xFA7560956807d95DCeF22990DdD92e38DbAf5cDd",
    "0x49a0c8030Ca199f6F246517aE689E3cC0775271a"
  ],
  "numDeployments": 1,
  "solcInputHash": "7380433260061c6444fb1fe04befd785",
  "bytecode": "0x60a0604090808252346200031a5760808162001d28803803809162000025828562000332565b8339810103126200031a576200003b816200036c565b906020906200004c8282016200036c565b818501516001600160a01b038082169390918490036200031a5760606200007491016200036c565b8651638c89b64f60e01b815260049686828981895afa94851562000327578792600096620002e9575b509084929160018060a01b031996600198888a5416178955600255620000c33362000381565b5060038890558954600580548916938616939093179092556001600160a81b0319909116600891821b610100600160a81b031617808a558a5163313ce56760e01b81529384928b928492911c165afa908115620002de5760009162000299575b50608052169060065416176006556200013c3362000381565b507fbc4aa291e35c786eceb374be398429586e466107044903c4dff7a8687a5300706000526000825280846000200154806000528460002033600052835260ff856000205416156200027b5750620001943362000401565b507f5e1c59076ed40a2f2d7578e32a78795e357500600174cc5627a8953d155117226000526000825280846000200154806000528460002033600052835260ff856000205416156200027b5750620001ec33620004a3565b5060008051602062001d088339815191526000526000825283600020015490816000528360002090336000525260ff83600020541615620002605782620002333362000540565b505161171b9081620005cd823960805181818161082e0152818161087101528181610a1d015261123c0152f35b604492519163e2517d3f60e01b835233908301526024820152fd5b845163e2517d3f60e01b815233818601526024810191909152604490fd5b8681813d8311620002d6575b620002b1818362000332565b81010312620002d257519060ff82168203620002cf57503862000123565b80fd5b5080fd5b503d620002a5565b88513d6000823e3d90fd5b838193949297503d83116200031f575b62000305818362000332565b810103126200031a575193869190846200009d565b600080fd5b503d620002f9565b89513d6000823e3d90fd5b601f909101601f19168101906001600160401b038211908210176200035657604052565b634e487b7160e01b600052604160045260246000fd5b51906001600160a01b03821682036200031a57565b6001600160a01b031660008181527fad3228b676f7d3cd4284a5443f17f1962b36e491b30a40b2405849e597ba5fb5602052604081205490919060ff16620003fd57818052816020526040822081835260205260408220600160ff19825416179055339160008051602062001ce88339815191528180a4600190565b5090565b6001600160a01b031660008181527fb4e978eb1f17c73554a1f8756605f820ff335cf1d951e33a14aae148be785b3560205260408120549091907fbc4aa291e35c786eceb374be398429586e466107044903c4dff7a8687a5300709060ff166200049e57808352826020526040832082845260205260408320600160ff1982541617905560008051602062001ce8833981519152339380a4600190565b505090565b6001600160a01b031660008181527f208ae9e64e9ba55a56e2d6d47e04a023559b118ccb25802ecbf309139c5ef96c60205260408120549091907f5e1c59076ed40a2f2d7578e32a78795e357500600174cc5627a8953d155117229060ff166200049e57808352826020526040832082845260205260408320600160ff1982541617905560008051602062001ce8833981519152339380a4600190565b6001600160a01b031660008181527ff7c9542c591017a21c74b6f3fab6263c7952fc0aaf9db4c22a2a04ddc7f8674f602052604081205490919060008051602062001d088339815191529060ff166200049e57808352826020526040832082845260205260408320600160ff1982541617905560008051602062001ce8833981519152339380a460019056fe608060408181526004918236101561001657600080fd5b600092833560e01c91826301ffc9a714610f96575081630bece79c14610f6d578163248a9ca314610f435781632abcdf6814610e2c5781632f2ff15d14610e0257816336568abe14610dbc578163369ecbd514610cc45781633ffa884c1461091c578163426c0ab8146108ff57816344eab154146108c15781634a0bbabb1461089f5781634ac5410a1461085257816352816b68146108145781635b8862dc146107eb5781635c975abb146107c857816368a806c41461075d5781637adbf973146106675781637dc0d1d01461063e57816391d14854146105f95781639866f320146105be5781639a0e29371461058f5781639d4cc8d3146104ab578163a217fddf14610490578163ae20032214610429578163b22fb67d14610405578163d547741f146103c6578163da8fbf2a1461036c578163de1409ce14610340578163e63ab1e914610305578163e797c589146101ce57508063f3bddde1146101b05763f817f7d01461018557600080fd5b346101ac57816003193601126101ac5760065490516001600160a01b039091168152602090f35b5080fd5b50346101ac57816003193601126101ac576020906002549051908152f35b919050346102d957806003193601126102d9576101e9610fff565b7f5e1c59076ed40a2f2d7578e32a78795e357500600174cc5627a8953d15511722806000526000602052826000203360005260205260ff836000205416156102e757508390610236611371565b835460081c6001600160a01b0316803b156102d95783516340c10f1960e01b81526001600160a01b0390921685830190815260243560208201528391839182908490829060400103925af180156102dd576102c5575b50506102966110a0565b9061029f6111fe565b908282106102ab578480f35b516379f1a2a760e01b815292830152602482015260449150fd5b6102ce90611015565b6102d957823861028c565b8280fd5b83513d84823e3d90fd5b825163e2517d3f60e01b815233818601526024810191909152604490fd5b5050346101ac57816003193601126101ac57602090517f65d7a28e3265b37a6474929f336521b332c1681b933f6cb9f3376673440d862a8152f35b9050346102d957826003193601126102d95754905160089190911c6001600160a01b0316815260209150f35b9050346102d957826003193601126102d9577f62e78cea01bee320cd4e420270b5ea74000d11b0c9f74754ebdbfc544b05a258916020916103ab611297565b6103b3611371565b805460ff1916600117905551338152a180f35b919050346102d957806003193601126102d95761040191356103fc60016103eb610fe9565b93838752866020528620015461134b565b611541565b5080f35b5050346101ac57816003193601126101ac576020906104226111fe565b9051908152f35b9050346102d957826003193601126102d957610443611297565b805460ff8116156104815760ff19169055513381527f5db9ee0a495bf2e6ff9c91a7834c1ba4fdd244a5e8aa4e537bd38aeae4b073aa90602090a180f35b509051638dfc202b60e01b8152fd5b5050346101ac57816003193601126101ac5751908152602090f35b5050346101ac5760203660031901126101ac576104c6610fff565b6104ce611311565b6006549160018060a01b039081841691831680946bffffffffffffffffffffffff60a01b16176006556105256000805160206116c683398151915293848752866020526105206001848920015461134b565b61138f565b5081151580610585575b61055e575b5050507fc1ed2a2e76938d5535836b1406331936bd2440c622b1314c8459f98a5065577b8280a280f35b60016105779161057c948752866020528620015461134b565b6114a8565b50388080610534565b508382141561052f565b5050346101ac5760203660031901126101ac576020906105b56105b0610fff565b61117d565b90519015158152f35b5050346101ac57816003193601126101ac57602090517f5e1c59076ed40a2f2d7578e32a78795e357500600174cc5627a8953d155117228152f35b9050346102d957816003193601126102d95781602093610617610fe9565b92358152808552209060018060a01b0316600052825260ff81600020541690519015158152f35b5050346101ac57816003193601126101ac5760015490516001600160a01b039091168152602090f35b9050346102d95760203660031901126102d95780356001600160a01b038116929083900361075957610697611311565b8051638c89b64f60e01b8152906020828481875afa91821561074f578592610716575b50600254809203610701575050600180546001600160a01b03191683179055507f3f32684a32a11dabdbb8c0177de80aa3ae36a004d75210335b49e544e48cd0aa8280a280f35b51639b6812b960e01b81529182015260249150fd5b9091506020813d602011610747575b816107326020938361103f565b81010312610742575190386106ba565b600080fd5b3d9150610725565b81513d87823e3d90fd5b8380fd5b83346107c55760203660031901126107c557610777610fff565b61077f611311565b600580546001600160a01b0319166001600160a01b039290921691821790557fc92ec24b34ad9d3aa14cd5be87b888d7790d40903da5f44c6367b2fb6cdb20838280a280f35b80fd5b8284346107c557806003193601126107c5575060ff602092541690519015158152f35b5050346101ac57816003193601126101ac57602090516000805160206116c68339815191528152f35b5050346101ac57816003193601126101ac576020905160ff7f0000000000000000000000000000000000000000000000000000000000000000168152f35b8284346107c55760203660031901126107c557506104226020926108957f0000000000000000000000000000000000000000000000000000000000000000611079565b60025491356115b6565b8390346101ac5760203660031901126101ac576108ba611311565b3560025580f35b5050346101ac5760203660031901126101ac5760209160ff9082906001600160a01b036108ec610fff565b1681526007855220541690519015158152f35b5050346101ac57816003193601126101ac576020906104226110a0565b8383346101ac5760603660031901126101ac5782359061093a610fe9565b9360443592600260035414610cb5576002600355610956611371565b6005548351637d35e97760e11b81526001600160a01b039788168482018190526024989390926020929085169083818c81855afa908115610c53578a91610c88575b5015610c72578389526007835260ff878a205416610c5d57865163313ce56760e01b815283818881885afa908115610c53578a91610c18575b508a8487600154168a519283809263b3596f0760e01b82528a8d8301525afa908115610c0e5784908c92610bdc575b5090610a1891610a12610a4a94611079565b916115b6565b610a417f0000000000000000000000000000000000000000000000000000000000000000611079565b600254916115b6565b97808910610bc15750865191838301916323b872dd60e01b8352338c850152604484015260648301526064825260a082019167ffffffffffffffff9281811084821117610bad57885251899182919082875af13d15610ba0573d918211610b8e5790610ad591875191610ac685601f19601f840116018461103f565b82523d8a8584013e5b84611662565b8051918215159283610b75575b505050610b605750849550815460081c1692833b15610b5c5782516340c10f1960e01b815233928101928352602083019190915292849184919082908490829060400103925af1908115610b535750610b3f575b50600160035580f35b610b4890611015565b6107c5578082610b36565b513d84823e3d90fd5b8480fd5b905085925191635274afe760e01b8352820152fd5b610b859350820181019101611061565b15888080610ae2565b634e487b7160e01b8952604186528989fd5b610ad59150606090610acf565b8b604189634e487b7160e01b600052526000fd5b86898c6044938b5193633b5d56ed60e11b8552840152820152fd5b809250868092503d8311610c07575b610bf5818361103f565b81010312610742575183610a4a610a00565b503d610beb565b89513d8d823e3d90fd5b90508381813d8311610c4c575b610c2f818361103f565b81010312610c48575160ff81168103610c48578b6109d1565b8980fd5b503d610c25565b88513d8c823e3d90fd5b86516260f4e760e01b81528087018590528a90fd5b8651632762993f60e11b81528087018590528a90fd5b610ca89150843d8611610cae575b610ca0818361103f565b810190611061565b8b610998565b503d610c96565b509051633ee5aeb560e01b8152fd5b9050346102d957816003193601126102d957610cde610fff565b9160243591821515809303610b5c57610cf5611297565b6005548251637d35e97760e11b81526001600160a01b0395861683820181905295909160209183916024918391165afa908115610db2578691610d93575b5015610d7e57507f6a3f78a37af68267ecb1a43ebdb9a1efb82ceb0f25ab9d945d85ce216406d87d916020918486526007835280862060ff1981541660ff841617905551908152a280f35b836024925191632762993f60e11b8352820152fd5b610dac915060203d602011610cae57610ca0818361103f565b38610d33565b83513d88823e3d90fd5b8383346101ac57806003193601126101ac57610dd6610fe9565b90336001600160a01b03831603610df35750610401919235611541565b5163334bd91960e11b81528390fd5b919050346102d957806003193601126102d9576104019135610e2760016103eb610fe9565b61142f565b919050346102d95760203660031901126102d9576000805160206116c68339815191528084528360205281842033855260205260ff828520541615610f275750610e74611371565b610e7c6110a0565b8254600654859160081c6001600160a01b039081169116813b156102d95784516340c10f1960e01b81526001600160a01b0390911686820190815286356020820152909291839182908490829060400103925af18015610f1d57610f0a575b50610ee46110a0565b91818303610ef0578480f35b5163353d06cf60e21b815292830152602482015260449150fd5b610f1690949194611015565b9238610edb565b83513d87823e3d90fd5b60449291519163e2517d3f60e01b835233908301526024820152fd5b9050346102d95760203660031901126102d957816020936001923581528085522001549051908152f35b5050346101ac57816003193601126101ac5760055490516001600160a01b039091168152602090f35b8491346102d95760203660031901126102d9573563ffffffff60e01b81168091036102d95760209250637965db0b60e01b8114908115610fd8575b5015158152f35b6301ffc9a760e01b14905083610fd1565b602435906001600160a01b038216820361074257565b600435906001600160a01b038216820361074257565b67ffffffffffffffff811161102957604052565b634e487b7160e01b600052604160045260246000fd5b90601f8019910116810190811067ffffffffffffffff82111761102957604052565b90816020910312610742575180151581036107425790565b60ff16604d811161108a57600a0a90565b634e487b7160e01b600052601160045260246000fd5b600480546040516318160ddd60e01b8152916020916001600160a01b03918391859190829060081c85165afa9283156111425760009361114e575b5081600491600654166040519283809263773df15160e01b82525afa91821561114257600092611114575b5050810390811161108a5790565b90809250813d831161113b575b61112b818361103f565b8101031261074257513880611106565b503d611121565b6040513d6000823e3d90fd5b9092508181813d8311611176575b611166818361103f565b81010312610742575191816110db565b503d61115c565b600554604051637d35e97760e11b81526001600160a01b039283166004820181905292909160209183916024918391165afa908115611142576000916111df575b50156111d957600052600760205260ff604060002054161590565b50600090565b6111f8915060203d602011610cae57610ca0818361103f565b386111be565b6005546040516306a61f7560e51b815290602090829060049082906001600160a01b03165afa801561114257600090611263575b6112609150610a417f0000000000000000000000000000000000000000000000000000000000000000611079565b90565b506020813d60201161128f575b8161127d6020938361103f565b81010312610742576112609051611232565b3d9150611270565b3360009081527ff7c9542c591017a21c74b6f3fab6263c7952fc0aaf9db4c22a2a04ddc7f8674f60205260409020547f65d7a28e3265b37a6474929f336521b332c1681b933f6cb9f3376673440d862a9060ff16156112f35750565b6044906040519063e2517d3f60e01b82523360048301526024820152fd5b3360009081527fad3228b676f7d3cd4284a5443f17f1962b36e491b30a40b2405849e597ba5fb5602052604081205460ff16156112f35750565b80600052600060205260406000203360005260205260ff60406000205416156112f35750565b60ff6004541661137d57565b60405163d93c066560e01b8152600490fd5b6001600160a01b031660008181527fb4e978eb1f17c73554a1f8756605f820ff335cf1d951e33a14aae148be785b3560205260408120549091906000805160206116c68339815191529060ff1661142a57808352826020526040832082845260205260408320600160ff198254161790557f2f8788117e7eff1d82e926ec794901d17c78024a50270940304540a733656f0d339380a4600190565b505090565b9060009180835282602052604083209160018060a01b03169182845260205260ff6040842054161560001461142a57808352826020526040832082845260205260408320600160ff198254161790557f2f8788117e7eff1d82e926ec794901d17c78024a50270940304540a733656f0d339380a4600190565b6001600160a01b031660008181527fb4e978eb1f17c73554a1f8756605f820ff335cf1d951e33a14aae148be785b3560205260408120549091906000805160206116c68339815191529060ff161561142a5780835282602052604083208284526020526040832060ff1981541690557ff6391f5c32d9c69d2a47ea670b442974b53935d1edc7fd64eb21e047a839171b339380a4600190565b9060009180835282602052604083209160018060a01b03169182845260205260ff60408420541660001461142a5780835282602052604083208284526020526040832060ff1981541690557ff6391f5c32d9c69d2a47ea670b442974b53935d1edc7fd64eb21e047a839171b339380a4600190565b9091828202916000198482099383808610950394808603951461163e578483111561162c5782910981600003821680920460028082600302188083028203028083028203028083028203028083028203028083028203028092029003029360018380600003040190848311900302920304170290565b60405163227bc15360e01b8152600490fd5b50508092501561164c570490565b634e487b7160e01b600052601260045260246000fd5b90611689575080511561167757805190602001fd5b604051630a12f52160e11b8152600490fd5b815115806116bc575b61169a575090565b604051639996b31560e01b81526001600160a01b039091166004820152602490fd5b50803b1561169256febc4aa291e35c786eceb374be398429586e466107044903c4dff7a8687a530070a264697066735822122082301cf235dac7325e1d9210797e5e9fe0e47d36969d6878a922c84cb61ac98064736f6c634300081800332f8788117e7eff1d82e926ec794901d17c78024a50270940304540a733656f0d65d7a28e3265b37a6474929f336521b332c1681b933f6cb9f3376673440d862a",
  "devdoc": {
    "errors": {
      "AccessControlBadConfirmation()": [
        {
          "details": "The caller of a function is not the expected one. NOTE: Don't confuse with {AccessControlUnauthorizedAccount}."
        }
      ],
      "AccessControlUnauthorizedAccount(address,bytes32)": [
        {
          "details": "The `account` is missing a role."
        }
      ],
      "AddressEmptyCode(address)": [
        {
          "details": "There's no code at `target` (it is not a contract)."
        }
      ],
      "AddressInsufficientBalance(address)": [
        {
          "details": "The ETH balance of the account is not enough to perform the operation."
        }
      ],
      "EnforcedPause()": [
        {
          "details": "The operation failed because the contract is paused."
        }
      ],
      "ExpectedPause()": [
        {
          "details": "The operation failed because the contract is not paused."
        }
      ],
      "FailedInnerCall()": [
        {
          "details": "A call to an address target failed. The target may have reverted."
        }
      ],
      "MathOverflowedMulDiv()": [
        {
          "details": "Muldiv operation overflow."
        }
      ],
      "ReentrancyGuardReentrantCall()": [
        {
          "details": "Unauthorized reentrant call."
        }
      ],
      "SafeERC20FailedOperation(address)": [
        {
          "details": "An operation with an ERC20 token failed."
        }
      ]
    },
    "events": {
      "Paused(address)": {
        "details": "Emitted when the pause is triggered by `account`."
      },
      "RoleAdminChanged(bytes32,bytes32,bytes32)": {
        "details": "Emitted when `newAdminRole` is set as ``role``'s admin role, replacing `previousAdminRole` `DEFAULT_ADMIN_ROLE` is the starting admin for all roles, despite {RoleAdminChanged} not being emitted signaling this."
      },
      "RoleGranted(bytes32,address,address)": {
        "details": "Emitted when `account` is granted `role`. `sender` is the account that originated the contract call, an admin role bearer except when using {AccessControl-_setupRole}."
      },
      "RoleRevoked(bytes32,address,address)": {
        "details": "Emitted when `account` is revoked `role`. `sender` is the account that originated the contract call:   - if using `revokeRole`, it is the admin role bearer   - if using `renounceRole`, it is the role bearer (i.e. `account`)"
      },
      "Unpaused(address)": {
        "details": "Emitted when the pause is lifted by `account`."
      }
    },
    "kind": "dev",
    "methods": {
      "baseValueToDusdAmount(uint256)": {
        "params": {
          "baseValue": "The amount of base value to convert"
        },
        "returns": {
          "_0": "The equivalent amount of dUSD tokens"
        }
      },
      "circulatingDusd()": {
        "returns": {
          "_0": "The amount of dUSD tokens that are not held by the AMO Manager"
        }
      },
      "collateralInDusd()": {
        "returns": {
          "_0": "The amount of dUSD tokens equivalent to the collateral value"
        }
      },
      "constructor": {
        "params": {
          "_amoManager": "The address of the AMO Manager",
          "_collateralVault": "The address of the collateral vault",
          "_dusd": "The address of the dUSD stablecoin",
          "oracle": "The address of the price oracle"
        }
      },
      "getRoleAdmin(bytes32)": {
        "details": "Returns the admin role that controls `role`. See {grantRole} and {revokeRole}. To change a role's admin, use {_setRoleAdmin}."
      },
      "grantRole(bytes32,address)": {
        "details": "Grants `role` to `account`. If `account` had not been already granted `role`, emits a {RoleGranted} event. Requirements: - the caller must have ``role``'s admin role. May emit a {RoleGranted} event."
      },
      "hasRole(bytes32,address)": {
        "details": "Returns `true` if `account` has been granted `role`."
      },
      "increaseAmoSupply(uint256)": {
        "params": {
          "dusdAmount": "The amount of dUSD to mint and send to the AMO Manager"
        }
      },
      "isAssetMintingEnabled(address)": {
        "details": "Asset must be supported by the collateral vault and not paused by issuer"
      },
      "issue(uint256,address,uint256)": {
        "params": {
          "collateralAmount": "The amount of collateral to deposit",
          "collateralAsset": "The address of the collateral asset",
          "minDUsd": "The minimum amount of dUSD to receive, used for slippage protection"
        }
      },
      "issueUsingExcessCollateral(address,uint256)": {
        "params": {
          "dusdAmount": "The amount of dUSD to mint",
          "receiver": "The address to receive the minted dUSD tokens"
        }
      },
      "paused()": {
        "details": "Returns true if the contract is paused, and false otherwise."
      },
      "renounceRole(bytes32,address)": {
        "details": "Revokes `role` from the calling account. Roles are often managed via {grantRole} and {revokeRole}: this function's purpose is to provide a mechanism for accounts to lose their privileges if they are compromised (such as when a trusted device is misplaced). If the calling account had been revoked `role`, emits a {RoleRevoked} event. Requirements: - the caller must be `callerConfirmation`. May emit a {RoleRevoked} event."
      },
      "revokeRole(bytes32,address)": {
        "details": "Revokes `role` from `account`. If `account` had been granted `role`, emits a {RoleRevoked} event. Requirements: - the caller must have ``role``'s admin role. May emit a {RoleRevoked} event."
      },
      "setAmoManager(address)": {
        "params": {
          "_amoManager": "The address of the AMO Manager"
        }
      },
      "setAssetMintingPause(address,bool)": {
        "params": {
          "asset": "The collateral asset address",
          "paused": "True to pause minting; false to enable"
        }
      },
      "setBaseCurrencyUnit(uint256)": {
        "details": "Only used if the oracle's base currency unit changes",
        "params": {
          "_newBaseCurrencyUnit": "The new base currency unit to set"
        }
      },
      "setCollateralVault(address)": {
        "params": {
          "_collateralVault": "The address of the collateral vault"
        }
      },
      "setOracle(address)": {
        "params": {
          "newOracle": "The new oracle to use"
        }
      },
      "supportsInterface(bytes4)": {
        "details": "See {IERC165-supportsInterface}."
      }
    },
    "title": "IssuerV2",
    "version": 1
  },
  "userdoc": {
    "kind": "user",
    "methods": {
      "baseValueToDusdAmount(uint256)": {
        "notice": "Converts a base value to an equivalent amount of dUSD tokens"
      },
      "circulatingDusd()": {
        "notice": "Calculates the circulating supply of dUSD tokens"
      },
      "collateralInDusd()": {
        "notice": "Calculates the collateral value in dUSD tokens"
      },
      "constructor": {
        "notice": "Initializes the IssuerV2 contract with core dependencies"
      },
      "increaseAmoSupply(uint256)": {
        "notice": "Increases the AMO supply by minting new dUSD tokens"
      },
      "isAssetMintingEnabled(address)": {
        "notice": "Returns whether `asset` is currently enabled for minting by the issuer"
      },
      "issue(uint256,address,uint256)": {
        "notice": "Issues dUSD tokens in exchange for collateral from the caller"
      },
      "issueUsingExcessCollateral(address,uint256)": {
        "notice": "Issues dUSD tokens using excess collateral in the system"
      },
      "pauseMinting()": {
        "notice": "Pause all minting operations"
      },
      "setAmoManager(address)": {
        "notice": "Sets the AMO Manager address"
      },
      "setAssetMintingPause(address,bool)": {
        "notice": "Set minting pause override for a specific collateral asset"
      },
      "setBaseCurrencyUnit(uint256)": {
        "notice": "Updates the base currency unit used for price calculations"
      },
      "setCollateralVault(address)": {
        "notice": "Sets the collateral vault address"
      },
      "setOracle(address)": {
        "notice": "Sets the oracle to use for collateral valuation"
      },
      "unpauseMinting()": {
        "notice": "Unpause all minting operations"
      }
    },
    "notice": "Extended issuer responsible for issuing dUSD tokens with asset-level minting overrides and global pause",
    "version": 1
  },
  "storageLayout": {
    "storage": [
      {
        "astId": 26,
        "contract": "contracts/dusd/IssuerV2.sol:IssuerV2",
        "label": "_roles",
        "offset": 0,
        "slot": "0",
        "type": "t_mapping(t_bytes32,t_struct(RoleData)21_storage)"
      },
      {
        "astId": 6243,
        "contract": "contracts/dusd/IssuerV2.sol:IssuerV2",
        "label": "oracle",
        "offset": 0,
        "slot": "1",
        "type": "t_contract(IPriceOracleGetter)7432"
      },
      {
        "astId": 6245,
        "contract": "contracts/dusd/IssuerV2.sol:IssuerV2",
        "label": "baseCurrencyUnit",
        "offset": 0,
        "slot": "2",
        "type": "t_uint256"
      },
      {
        "astId": 1219,
        "contract": "contracts/dusd/IssuerV2.sol:IssuerV2",
        "label": "_status",
        "offset": 0,
        "slot": "3",
        "type": "t_uint256"
      },
      {
        "astId": 1100,
        "contract": "contracts/dusd/IssuerV2.sol:IssuerV2",
        "label": "_paused",
        "offset": 0,
        "slot": "4",
        "type": "t_bool"
      },
      {
        "astId": 5715,
        "contract": "contracts/dusd/IssuerV2.sol:IssuerV2",
        "label": "dusd",
        "offset": 1,
        "slot": "4",
        "type": "t_contract(IERC20Stablecoin)7481"
      },
      {
        "astId": 5720,
        "contract": "contracts/dusd/IssuerV2.sol:IssuerV2",
        "label": "collateralVault",
        "offset": 0,
        "slot": "5",
        "type": "t_contract(CollateralVault)5686"
      },
      {
        "astId": 5723,
        "contract": "contracts/dusd/IssuerV2.sol:IssuerV2",
        "label": "amoManager",
        "offset": 0,
        "slot": "6",
        "type": "t_contract(AmoManager)4954"
      },
      {
        "astId": 5778,
        "contract": "contracts/dusd/IssuerV2.sol:IssuerV2",
        "label": "assetMintingPaused",
        "offset": 0,
        "slot": "7",
        "type": "t_mapping(t_address,t_bool)"
      }
    ],
    "types": {
      "t_address": {
        "encoding": "inplace",
        "label": "address",
        "numberOfBytes": "20"
      },
      "t_bool": {
        "encoding": "inplace",
        "label": "bool",
        "numberOfBytes": "1"
      },
      "t_bytes32": {
        "encoding": "inplace",
        "label": "bytes32",
        "numberOfBytes": "32"
      },
      "t_contract(AmoManager)4954": {
        "encoding": "inplace",
        "label": "contract AmoManager",
        "numberOfBytes": "20"
      },
      "t_contract(CollateralVault)5686": {
        "encoding": "inplace",
        "label": "contract CollateralVault",
        "numberOfBytes": "20"
      },
      "t_contract(IERC20Stablecoin)7481": {
        "encoding": "inplace",
        "label": "contract IERC20Stablecoin",
        "numberOfBytes": "20"
      },
      "t_contract(IPriceOracleGetter)7432": {
        "encoding": "inplace",
        "label": "contract IPriceOracleGetter",
        "numberOfBytes": "20"
      },
      "t_mapping(t_address,t_bool)": {
        "encoding": "mapping",
        "key": "t_address",
        "label": "mapping(address => bool)",
        "numberOfBytes": "32",
        "value": "t_bool"
      },
      "t_mapping(t_bytes32,t_struct(RoleData)21_storage)": {
        "encoding": "mapping",
        "key": "t_bytes32",
        "label": "mapping(bytes32 => struct AccessControl.RoleData)",
        "numberOfBytes": "32",
        "value": "t_struct(RoleData)21_storage"
      },
      "t_struct(RoleData)21_storage": {
        "encoding": "inplace",
        "label": "struct AccessControl.RoleData",
        "members": [
          {
            "astId": 18,
            "contract": "contracts/dusd/IssuerV2.sol:IssuerV2",
            "label": "hasRole",
            "offset": 0,
            "slot": "0",
            "type": "t_mapping(t_address,t_bool)"
          },
          {
            "astId": 20,
            "contract": "contracts/dusd/IssuerV2.sol:IssuerV2",
            "label": "adminRole",
            "offset": 0,
            "slot": "1",
            "type": "t_bytes32"
          }
        ],
        "numberOfBytes": "64"
      },
      "t_uint256": {
        "encoding": "inplace",
        "label": "uint256",
        "numberOfBytes": "32"
      }
    }
  }
}