{
  "address": "0x9E8d871077BB496e388FD48F659CeDD6d0AbDC3A",
  "abi": [
    {
      "inputs": [
        {
          "internalType": "address",
          "name": "_collateralVault",
          "type": "address"
        },
        {
          "internalType": "address",
          "name": "_dusd",
          "type": "address"
        },
        {
          "internalType": "contract IPriceOracleGetter",
          "name": "oracle",
          "type": "address"
        }
      ],
      "stateMutability": "nonpayable",
      "type": "constructor"
    },
    {
      "inputs": [],
      "name": "AccessControlBadConfirmation",
      "type": "error"
    },
    {
      "inputs": [
        {
          "internalType": "address",
          "name": "account",
          "type": "address"
        },
        {
          "internalType": "bytes32",
          "name": "neededRole",
          "type": "bytes32"
        }
      ],
      "name": "AccessControlUnauthorizedAccount",
      "type": "error"
    },
    {
      "inputs": [
        {
          "internalType": "address",
          "name": "target",
          "type": "address"
        }
      ],
      "name": "AddressEmptyCode",
      "type": "error"
    },
    {
      "inputs": [
        {
          "internalType": "address",
          "name": "account",
          "type": "address"
        }
      ],
      "name": "AddressInsufficientBalance",
      "type": "error"
    },
    {
      "inputs": [
        {
          "internalType": "address",
          "name": "asset",
          "type": "address"
        },
        {
          "internalType": "uint256",
          "name": "cap",
          "type": "uint256"
        },
        {
          "internalType": "uint256",
          "name": "projectedBalance",
          "type": "uint256"
        }
      ],
      "name": "AssetDepositCapExceeded",
      "type": "error"
    },
    {
      "inputs": [
        {
          "internalType": "address",
          "name": "asset",
          "type": "address"
        }
      ],
      "name": "AssetMintingPaused",
      "type": "error"
    },
    {
      "inputs": [],
      "name": "CannotBeZeroAddress",
      "type": "error"
    },
    {
      "inputs": [],
      "name": "EnforcedPause",
      "type": "error"
    },
    {
      "inputs": [],
      "name": "ExpectedPause",
      "type": "error"
    },
    {
      "inputs": [],
      "name": "FailedInnerCall",
      "type": "error"
    },
    {
      "inputs": [
        {
          "internalType": "uint256",
          "name": "baseCurrencyUnit",
          "type": "uint256"
        }
      ],
      "name": "IncorrectBaseCurrencyUnit",
      "type": "error"
    },
    {
      "inputs": [
        {
          "internalType": "uint256",
          "name": "collateralInDusd",
          "type": "uint256"
        },
        {
          "internalType": "uint256",
          "name": "totalDusd",
          "type": "uint256"
        }
      ],
      "name": "IssuanceSurpassesCollateral",
      "type": "error"
    },
    {
      "inputs": [],
      "name": "MathOverflowedMulDiv",
      "type": "error"
    },
    {
      "inputs": [],
      "name": "ReentrancyGuardReentrantCall",
      "type": "error"
    },
    {
      "inputs": [
        {
          "internalType": "address",
          "name": "token",
          "type": "address"
        }
      ],
      "name": "SafeERC20FailedOperation",
      "type": "error"
    },
    {
      "inputs": [
        {
          "internalType": "uint256",
          "name": "minDUsd",
          "type": "uint256"
        },
        {
          "internalType": "uint256",
          "name": "dusdAmount",
          "type": "uint256"
        }
      ],
      "name": "SlippageTooHigh",
      "type": "error"
    },
    {
      "inputs": [
        {
          "internalType": "address",
          "name": "collateralAsset",
          "type": "address"
        }
      ],
      "name": "UnsupportedCollateral",
      "type": "error"
    },
    {
      "anonymous": false,
      "inputs": [
        {
          "indexed": true,
          "internalType": "address",
          "name": "asset",
          "type": "address"
        },
        {
          "indexed": false,
          "internalType": "uint256",
          "name": "cap",
          "type": "uint256"
        }
      ],
      "name": "AssetDepositCapUpdated",
      "type": "event"
    },
    {
      "anonymous": false,
      "inputs": [
        {
          "indexed": true,
          "internalType": "address",
          "name": "asset",
          "type": "address"
        },
        {
          "indexed": false,
          "internalType": "bool",
          "name": "paused",
          "type": "bool"
        }
      ],
      "name": "AssetMintingPauseUpdated",
      "type": "event"
    },
    {
      "anonymous": false,
      "inputs": [
        {
          "indexed": true,
          "internalType": "address",
          "name": "collateralVault",
          "type": "address"
        }
      ],
      "name": "CollateralVaultSet",
      "type": "event"
    },
    {
      "anonymous": false,
      "inputs": [
        {
          "indexed": true,
          "internalType": "address",
          "name": "newOracle",
          "type": "address"
        }
      ],
      "name": "OracleSet",
      "type": "event"
    },
    {
      "anonymous": false,
      "inputs": [
        {
          "indexed": false,
          "internalType": "address",
          "name": "account",
          "type": "address"
        }
      ],
      "name": "Paused",
      "type": "event"
    },
    {
      "anonymous": false,
      "inputs": [
        {
          "indexed": true,
          "internalType": "bytes32",
          "name": "role",
          "type": "bytes32"
        },
        {
          "indexed": true,
          "internalType": "bytes32",
          "name": "previousAdminRole",
          "type": "bytes32"
        },
        {
          "indexed": true,
          "internalType": "bytes32",
          "name": "newAdminRole",
          "type": "bytes32"
        }
      ],
      "name": "RoleAdminChanged",
      "type": "event"
    },
    {
      "anonymous": false,
      "inputs": [
        {
          "indexed": true,
          "internalType": "bytes32",
          "name": "role",
          "type": "bytes32"
        },
        {
          "indexed": true,
          "internalType": "address",
          "name": "account",
          "type": "address"
        },
        {
          "indexed": true,
          "internalType": "address",
          "name": "sender",
          "type": "address"
        }
      ],
      "name": "RoleGranted",
      "type": "event"
    },
    {
      "anonymous": false,
      "inputs": [
        {
          "indexed": true,
          "internalType": "bytes32",
          "name": "role",
          "type": "bytes32"
        },
        {
          "indexed": true,
          "internalType": "address",
          "name": "account",
          "type": "address"
        },
        {
          "indexed": true,
          "internalType": "address",
          "name": "sender",
          "type": "address"
        }
      ],
      "name": "RoleRevoked",
      "type": "event"
    },
    {
      "anonymous": false,
      "inputs": [
        {
          "indexed": false,
          "internalType": "address",
          "name": "account",
          "type": "address"
        }
      ],
      "name": "Unpaused",
      "type": "event"
    },
    {
      "inputs": [],
      "name": "DEFAULT_ADMIN_ROLE",
      "outputs": [
        {
          "internalType": "bytes32",
          "name": "",
          "type": "bytes32"
        }
      ],
      "stateMutability": "view",
      "type": "function"
    },
    {
      "inputs": [],
      "name": "INCENTIVES_MANAGER_ROLE",
      "outputs": [
        {
          "internalType": "bytes32",
          "name": "",
          "type": "bytes32"
        }
      ],
      "stateMutability": "view",
      "type": "function"
    },
    {
      "inputs": [],
      "name": "PAUSER_ROLE",
      "outputs": [
        {
          "internalType": "bytes32",
          "name": "",
          "type": "bytes32"
        }
      ],
      "stateMutability": "view",
      "type": "function"
    },
    {
      "inputs": [
        {
          "internalType": "address",
          "name": "",
          "type": "address"
        }
      ],
      "name": "assetDepositCap",
      "outputs": [
        {
          "internalType": "uint256",
          "name": "",
          "type": "uint256"
        }
      ],
      "stateMutability": "view",
      "type": "function"
    },
    {
      "inputs": [
        {
          "internalType": "address",
          "name": "",
          "type": "address"
        }
      ],
      "name": "assetMintingPaused",
      "outputs": [
        {
          "internalType": "bool",
          "name": "",
          "type": "bool"
        }
      ],
      "stateMutability": "view",
      "type": "function"
    },
    {
      "inputs": [],
      "name": "baseCurrencyUnit",
      "outputs": [
        {
          "internalType": "uint256",
          "name": "",
          "type": "uint256"
        }
      ],
      "stateMutability": "view",
      "type": "function"
    },
    {
      "inputs": [
        {
          "internalType": "uint256",
          "name": "baseValue",
          "type": "uint256"
        }
      ],
      "name": "baseValueToDusdAmount",
      "outputs": [
        {
          "internalType": "uint256",
          "name": "",
          "type": "uint256"
        }
      ],
      "stateMutability": "view",
      "type": "function"
    },
    {
      "inputs": [],
      "name": "collateralInDusd",
      "outputs": [
        {
          "internalType": "uint256",
          "name": "",
          "type": "uint256"
        }
      ],
      "stateMutability": "view",
      "type": "function"
    },
    {
      "inputs": [],
      "name": "collateralVault",
      "outputs": [
        {
          "internalType": "contract CollateralVault",
          "name": "",
          "type": "address"
        }
      ],
      "stateMutability": "view",
      "type": "function"
    },
    {
      "inputs": [],
      "name": "dusd",
      "outputs": [
        {
          "internalType": "contract IERC20Stablecoin",
          "name": "",
          "type": "address"
        }
      ],
      "stateMutability": "view",
      "type": "function"
    },
    {
      "inputs": [],
      "name": "dusdDecimals",
      "outputs": [
        {
          "internalType": "uint8",
          "name": "",
          "type": "uint8"
        }
      ],
      "stateMutability": "view",
      "type": "function"
    },
    {
      "inputs": [
        {
          "internalType": "bytes32",
          "name": "role",
          "type": "bytes32"
        }
      ],
      "name": "getRoleAdmin",
      "outputs": [
        {
          "internalType": "bytes32",
          "name": "",
          "type": "bytes32"
        }
      ],
      "stateMutability": "view",
      "type": "function"
    },
    {
      "inputs": [
        {
          "internalType": "bytes32",
          "name": "role",
          "type": "bytes32"
        },
        {
          "internalType": "address",
          "name": "account",
          "type": "address"
        }
      ],
      "name": "grantRole",
      "outputs": [],
      "stateMutability": "nonpayable",
      "type": "function"
    },
    {
      "inputs": [
        {
          "internalType": "bytes32",
          "name": "role",
          "type": "bytes32"
        },
        {
          "internalType": "address",
          "name": "account",
          "type": "address"
        }
      ],
      "name": "hasRole",
      "outputs": [
        {
          "internalType": "bool",
          "name": "",
          "type": "bool"
        }
      ],
      "stateMutability": "view",
      "type": "function"
    },
    {
      "inputs": [
        {
          "internalType": "address",
          "name": "asset",
          "type": "address"
        }
      ],
      "name": "isAssetMintingEnabled",
      "outputs": [
        {
          "internalType": "bool",
          "name": "",
          "type": "bool"
        }
      ],
      "stateMutability": "view",
      "type": "function"
    },
    {
      "inputs": [
        {
          "internalType": "uint256",
          "name": "collateralAmount",
          "type": "uint256"
        },
        {
          "internalType": "address",
          "name": "collateralAsset",
          "type": "address"
        },
        {
          "internalType": "uint256",
          "name": "minDUsd",
          "type": "uint256"
        }
      ],
      "name": "issue",
      "outputs": [],
      "stateMutability": "nonpayable",
      "type": "function"
    },
    {
      "inputs": [
        {
          "internalType": "address",
          "name": "receiver",
          "type": "address"
        },
        {
          "internalType": "uint256",
          "name": "dusdAmount",
          "type": "uint256"
        }
      ],
      "name": "issueUsingExcessCollateral",
      "outputs": [],
      "stateMutability": "nonpayable",
      "type": "function"
    },
    {
      "inputs": [],
      "name": "oracle",
      "outputs": [
        {
          "internalType": "contract IPriceOracleGetter",
          "name": "",
          "type": "address"
        }
      ],
      "stateMutability": "view",
      "type": "function"
    },
    {
      "inputs": [],
      "name": "pauseMinting",
      "outputs": [],
      "stateMutability": "nonpayable",
      "type": "function"
    },
    {
      "inputs": [],
      "name": "paused",
      "outputs": [
        {
          "internalType": "bool",
          "name": "",
          "type": "bool"
        }
      ],
      "stateMutability": "view",
      "type": "function"
    },
    {
      "inputs": [
        {
          "internalType": "bytes32",
          "name": "role",
          "type": "bytes32"
        },
        {
          "internalType": "address",
          "name": "callerConfirmation",
          "type": "address"
        }
      ],
      "name": "renounceRole",
      "outputs": [],
      "stateMutability": "nonpayable",
      "type": "function"
    },
    {
      "inputs": [
        {
          "internalType": "bytes32",
          "name": "role",
          "type": "bytes32"
        },
        {
          "internalType": "address",
          "name": "account",
          "type": "address"
        }
      ],
      "name": "revokeRole",
      "outputs": [],
      "stateMutability": "nonpayable",
      "type": "function"
    },
    {
      "inputs": [
        {
          "internalType": "address",
          "name": "asset",
          "type": "address"
        },
        {
          "internalType": "uint256",
          "name": "cap",
          "type": "uint256"
        }
      ],
      "name": "setAssetDepositCap",
      "outputs": [],
      "stateMutability": "nonpayable",
      "type": "function"
    },
    {
      "inputs": [
        {
          "internalType": "address",
          "name": "asset",
          "type": "address"
        },
        {
          "internalType": "bool",
          "name": "paused",
          "type": "bool"
        }
      ],
      "name": "setAssetMintingPause",
      "outputs": [],
      "stateMutability": "nonpayable",
      "type": "function"
    },
    {
      "inputs": [
        {
          "internalType": "uint256",
          "name": "_newBaseCurrencyUnit",
          "type": "uint256"
        }
      ],
      "name": "setBaseCurrencyUnit",
      "outputs": [],
      "stateMutability": "nonpayable",
      "type": "function"
    },
    {
      "inputs": [
        {
          "internalType": "address",
          "name": "_collateralVault",
          "type": "address"
        }
      ],
      "name": "setCollateralVault",
      "outputs": [],
      "stateMutability": "nonpayable",
      "type": "function"
    },
    {
      "inputs": [
        {
          "internalType": "contract IPriceOracleGetter",
          "name": "newOracle",
          "type": "address"
        }
      ],
      "name": "setOracle",
      "outputs": [],
      "stateMutability": "nonpayable",
      "type": "function"
    },
    {
      "inputs": [
        {
          "internalType": "bytes4",
          "name": "interfaceId",
          "type": "bytes4"
        }
      ],
      "name": "supportsInterface",
      "outputs": [
        {
          "internalType": "bool",
          "name": "",
          "type": "bool"
        }
      ],
      "stateMutability": "view",
      "type": "function"
    },
    {
      "inputs": [],
      "name": "unpauseMinting",
      "outputs": [],
      "stateMutability": "nonpayable",
      "type": "function"
    }
  ],
  "transactionHash": "0xaeae83b775ebb3e3e94e2949231e6bcc1b66967b4e609b62103c730201835469",
  "args": [
    "0x624E12dE7a97B8cFc1AD1F050a1c9263b1f4FeBC",
    "0x788D96f655735f52c676A133f4dFC53cEC614d4A",
    "0xFA7560956807d95DCeF22990DdD92e38DbAf5cDd"
  ],
  "numDeployments": 1,
  "solcInputHash": "194206a022bc445371dea74dd0606d63",
  "bytecode": "0x60a060409080825234620002da5760608162001a37803803809162000025828562000303565b833981010312620002da576200003b816200033d565b90602090836200004d8383016200033d565b9101516001600160a01b038082169490929091859003620002da578415620002f2578551638c89b64f60e01b81526004959085818881855afa908115620002e757600091620002af575b50600180546001600160a01b03199081169093179055600255620000bb3362000352565b50600160035583865493169081158015620002a4575b62000294576005805490911690911790556001600160a81b0319909116600891821b610100600160a81b031617808555855163313ce56760e01b81529284928492879284929190911c165afa908115620002895760009162000244575b506080526200013d3362000352565b507f5e1c59076ed40a2f2d7578e32a78795e357500600174cc5627a8953d15511722600052600081526001836000200154806000528360002033600052825260ff846000205416156200022757506200019633620003d2565b5060008051602062001a1783398151915260005260008152600183600020015490816000528360002090336000525260ff836000205416156200020c5782620001df3362000474565b50516114f69081620005018239608051818181610886015281816108c901528181610a37015261116b0152f35b604492519163e2517d3f60e01b835233908301526024820152fd5b9050604492519163e2517d3f60e01b835233908301526024820152fd5b8281813d831162000281575b6200025c818362000303565b810103126200027d57519060ff821682036200027a5750386200012e565b80fd5b5080fd5b503d62000250565b84513d6000823e3d90fd5b8751631e7d738760e21b81528790fd5b5084831615620000d1565b90508581813d8311620002df575b620002c9818362000303565b81010312620002da57513862000097565b600080fd5b503d620002bd565b88513d6000823e3d90fd5b8551631e7d738760e21b8152600490fd5b601f909101601f19168101906001600160401b038211908210176200032757604052565b634e487b7160e01b600052604160045260246000fd5b51906001600160a01b0382168203620002da57565b6001600160a01b031660008181527fad3228b676f7d3cd4284a5443f17f1962b36e491b30a40b2405849e597ba5fb5602052604081205490919060ff16620003ce57818052816020526040822081835260205260408220600160ff198254161790553391600080516020620019f78339815191528180a4600190565b5090565b6001600160a01b031660008181527f208ae9e64e9ba55a56e2d6d47e04a023559b118ccb25802ecbf309139c5ef96c60205260408120549091907f5e1c59076ed40a2f2d7578e32a78795e357500600174cc5627a8953d155117229060ff166200046f57808352826020526040832082845260205260408320600160ff19825416179055600080516020620019f7833981519152339380a4600190565b505090565b6001600160a01b031660008181527ff7c9542c591017a21c74b6f3fab6263c7952fc0aaf9db4c22a2a04ddc7f8674f602052604081205490919060008051602062001a178339815191529060ff166200046f57808352826020526040832082845260205260408320600160ff19825416179055600080516020620019f7833981519152339380a460019056fe608060408181526004918236101561001657600080fd5b600092833560e01c91826301ffc9a714610f89575081630bece79c14610f60578163248a9ca314610f365781632f2ff15d14610f0c57816336568abe14610ec6578163369ecbd514610ded5781633ffa884c1461095757816344eab154146109195781634a0bbabb146108f75781634ac5410a146108aa57816352816b681461086c5781635c975abb1461084657816362fe75151461075357816368a806c4146106d85781637adbf973146105e75781637dc0d1d0146105be57816391d14854146105795781639866f3201461053e5781639a0e29371461050f578163a217fddf146104f4578163ae2003221461048d578163b22fb67d14610469578163cfb3025d14610431578163d547741f146103f2578163da8fbf2a14610398578163de1409ce1461036c578163e63ab1e914610331578163e797c58914610185575063f3bddde11461016457600080fd5b346101815781600319360112610181576020906002549051908152f35b5080fd5b9190503461030f578060031936011261030f576101a0610ff2565b907f5e1c59076ed40a2f2d7578e32a78795e357500600174cc5627a8953d155117229182600052602092600084528260002033600052845260ff8360002054161561031357506101ee611393565b83546001600160a01b0391869160081c8316803b1561030f5784516340c10f1960e01b81526001600160a01b0390921682880190815260243560208201528391839182908490829060400103925af18015610305579186939186936102e5575b5050825460081c168351928380926318160ddd60e01b82525afa9283156102db5785936102a6575b505061028061112d565b9082821061028c578480f35b51630ac5893960e41b815292830152602482015260449150fd5b9080929350813d83116102d4575b6102be8183611032565b810103126102cf5751903880610276565b600080fd5b503d6102b4565b82513d87823e3d90fd5b9092506102f3919350611008565b61030157828491863861024e565b8480fd5b84513d84823e3d90fd5b8280fd5b825163e2517d3f60e01b815233818701526024810191909152604490fd5b505034610181578160031936011261018157602090517f65d7a28e3265b37a6474929f336521b332c1681b933f6cb9f3376673440d862a8152f35b90503461030f578260031936011261030f5754905160089190911c6001600160a01b0316815260209150f35b90503461030f578260031936011261030f577f62e78cea01bee320cd4e420270b5ea74000d11b0c9f74754ebdbfc544b05a258916020916103d76111c6565b6103df611393565b805460ff1916600117905551338152a180f35b9190503461030f578060031936011261030f5761042d91356104286001610417610fdc565b93838752866020528620015461127a565b61131e565b5080f35b5050346101815760203660031901126101815760209181906001600160a01b03610459610ff2565b1681526007845220549051908152f35b50503461018157816003193601126101815760209061048661112d565b9051908152f35b90503461030f578260031936011261030f576104a76111c6565b805460ff8116156104e55760ff19169055513381527f5db9ee0a495bf2e6ff9c91a7834c1ba4fdd244a5e8aa4e537bd38aeae4b073aa90602090a180f35b509051638dfc202b60e01b8152fd5b50503461018157816003193601126101815751908152602090f35b50503461018157602036600319011261018157602090610535610530610ff2565b6110a0565b90519015158152f35b505034610181578160031936011261018157602090517f5e1c59076ed40a2f2d7578e32a78795e357500600174cc5627a8953d155117228152f35b90503461030f578160031936011261030f5781602093610597610fdc565b92358152808552209060018060a01b0316600052825260ff81600020541690519015158152f35b50503461018157816003193601126101815760015490516001600160a01b039091168152602090f35b90503461030f57602036600319011261030f5780356001600160a01b03811692908390036106d457610617611240565b8051638c89b64f60e01b8152906020828481875afa9182156106ca578592610696575b50600254809203610681575050600180546001600160a01b03191683179055507f3f32684a32a11dabdbb8c0177de80aa3ae36a004d75210335b49e544e48cd0aa8280a280f35b51639b6812b960e01b81529182015260249150fd5b9091506020813d6020116106c2575b816106b260209383611032565b810103126102cf5751903861063a565b3d91506106a5565b81513d87823e3d90fd5b8380fd5b90503461030f57602036600319011261030f576106f3610ff2565b6106fb611240565b6001600160a01b0316918215610746575050600580546001600160a01b031916821790557fc92ec24b34ad9d3aa14cd5be87b888d7790d40903da5f44c6367b2fb6cdb20838280a280f35b51631e7d738760e21b8152fd5b90503461030f578160031936011261030f5761076d610ff2565b916024359161077a611240565b6005548251637d35e97760e11b81526001600160a01b0395861683820181905295909160209183916024918391165afa90811561083c57869161080d575b50156107f857507f5387e6a5124b81176e75dfc12d0aefc58a92d5f4eb99686d8dc187aa791e43659160209184865260078352818187205551908152a280f35b836024925191632762993f60e11b8352820152fd5b61082f915060203d602011610835575b6108278183611032565b810190611054565b386107b8565b503d61081d565b83513d88823e3d90fd5b8284346108695780600319360112610869575060ff602092541690519015158152f35b80fd5b5050346101815781600319360112610181576020905160ff7f0000000000000000000000000000000000000000000000000000000000000000168152f35b82843461086957602036600319011261086957506104866020926108ed7f000000000000000000000000000000000000000000000000000000000000000061108f565b60025491356113b1565b83903461018157602036600319011261018157610912611240565b3560025580f35b5050346101815760203660031901126101815760209160ff9082906001600160a01b03610944610ff2565b1681526006855220541690519015158152f35b90503461030f57606036600319011261030f57803591610975610fdc565b60443590610981611393565b600260035414610dde576002600355610999816110a0565b15610dbf576001600160a01b0390811680875260076020908152848820549092919080610d18575b50845163313ce56760e01b81529683888881855afa8015610d0e5784959697988a91610ccf575b50836001541688519586809263b3596f0760e01b8252868d83015260249889915afa908115610cc55783908c92610c8f575b5090610a3291610a2c610a649461108f565b916113b1565b610a5b7f000000000000000000000000000000000000000000000000000000000000000061108f565b600254916113b1565b95808710610c7457508260055416875191868301916323b872dd60e01b83523387850152604484015260648301526064825260a082019167ffffffffffffffff9281811084821117610c62578952518a9182919082865af13d15610c55573d918211610c435790610af491885191610ae588601f19601f8401160184611032565b82523d8b8884013e5b8361145d565b805190858215159283610c2a575b505050610c155750855460081c16918451906318160ddd60e01b825280828881875afa908115610c0b579085918991610bd4575b50610b41925061106c565b90610b4a61112d565b828110610bb957505050908185923b1561030f5783516340c10f1960e01b8152339581019586526020860192909252909384919082908490829060400103925af1908115610bb05750610ba1575b50600160035580f35b610baa90611008565b38610b98565b513d84823e3d90fd5b918691604493875193630ac5893960e41b8552840152820152fd5b8092508391503d8311610c04575b610bec8183611032565b81010312610c005783610b41915138610b36565b8680fd5b503d610be2565b86513d8a823e3d90fd5b869150855191635274afe760e01b8352820152fd5b610c3a9350820181019101611054565b15388581610b02565b634e487b7160e01b8a5260418952848afd5b610af49150606090610aee565b634e487b7160e01b8c5260418b52868cfd5b8887866044938b5193633b5d56ed60e11b8552840152820152fd5b809250888092503d8311610cbe575b610ca88183611032565b81010312610cba575182610a64610a1a565b8a80fd5b503d610c9e565b89513d8d823e3d90fd5b8581939692503d8311610d07575b610ce78183611032565b81010312610d0357519260ff84168403610d03578493386109e8565b8880fd5b503d610cdd565b86513d8b823e3d90fd5b60055486516370a0823160e01b8152908416888201528481602481865afa8015610db55789908b90610d80575b610d4f925061106c565b90808211610d5d57506109c1565b86516396545f3560e01b8152808901939093526024830152604482015260649150fd5b50508481813d8311610dae575b610d978183611032565b81010312610daa5788610d4f9151610d45565b8980fd5b503d610d8d565b87513d8c823e3d90fd5b82516260f4e760e01b81526001600160a01b0390911681850152602490fd5b505051633ee5aeb560e01b8152fd5b90503461030f578160031936011261030f57610e07610ff2565b916024359182151580930361030157610e1e6111c6565b6005548251637d35e97760e11b81526001600160a01b0395861683820181905295909160209183916024918391165afa90811561083c578691610ea7575b50156107f857507f6a3f78a37af68267ecb1a43ebdb9a1efb82ceb0f25ab9d945d85ce216406d87d916020918486526006835280862060ff1981541660ff841617905551908152a280f35b610ec0915060203d602011610835576108278183611032565b38610e5c565b838334610181578060031936011261018157610ee0610fdc565b90336001600160a01b03831603610efd575061042d91923561131e565b5163334bd91960e11b81528390fd5b9190503461030f578060031936011261030f5761042d9135610f316001610417610fdc565b6112a0565b90503461030f57602036600319011261030f57816020936001923581528085522001549051908152f35b50503461018157816003193601126101815760055490516001600160a01b039091168152602090f35b84913461030f57602036600319011261030f573563ffffffff60e01b811680910361030f5760209250637965db0b60e01b8114908115610fcb575b5015158152f35b6301ffc9a760e01b14905083610fc4565b602435906001600160a01b03821682036102cf57565b600435906001600160a01b03821682036102cf57565b67ffffffffffffffff811161101c57604052565b634e487b7160e01b600052604160045260246000fd5b90601f8019910116810190811067ffffffffffffffff82111761101c57604052565b908160209103126102cf575180151581036102cf5790565b9190820180921161107957565b634e487b7160e01b600052601160045260246000fd5b60ff16604d811161107957600a0a90565b600554604051637d35e97760e11b81526001600160a01b039283166004820181905292909160209183916024918391165afa90811561112157600091611102575b50156110fc57600052600660205260ff604060002054161590565b50600090565b61111b915060203d602011610835576108278183611032565b386110e1565b6040513d6000823e3d90fd5b6005546040516306a61f7560e51b815290602090829060049082906001600160a01b03165afa801561112157600090611192575b61118f9150610a5b7f000000000000000000000000000000000000000000000000000000000000000061108f565b90565b506020813d6020116111be575b816111ac60209383611032565b810103126102cf5761118f9051611161565b3d915061119f565b3360009081527ff7c9542c591017a21c74b6f3fab6263c7952fc0aaf9db4c22a2a04ddc7f8674f60205260409020547f65d7a28e3265b37a6474929f336521b332c1681b933f6cb9f3376673440d862a9060ff16156112225750565b6044906040519063e2517d3f60e01b82523360048301526024820152fd5b3360009081527fad3228b676f7d3cd4284a5443f17f1962b36e491b30a40b2405849e597ba5fb5602052604081205460ff16156112225750565b80600052600060205260406000203360005260205260ff60406000205416156112225750565b9060009180835282602052604083209160018060a01b03169182845260205260ff6040842054161560001461131957808352826020526040832082845260205260408320600160ff198254161790557f2f8788117e7eff1d82e926ec794901d17c78024a50270940304540a733656f0d339380a4600190565b505090565b9060009180835282602052604083209160018060a01b03169182845260205260ff6040842054166000146113195780835282602052604083208284526020526040832060ff1981541690557ff6391f5c32d9c69d2a47ea670b442974b53935d1edc7fd64eb21e047a839171b339380a4600190565b60ff6004541661139f57565b60405163d93c066560e01b8152600490fd5b9091828202916000198482099383808610950394808603951461143957848311156114275782910981600003821680920460028082600302188083028203028083028203028083028203028083028203028083028203028092029003029360018380600003040190848311900302920304170290565b60405163227bc15360e01b8152600490fd5b505080925015611447570490565b634e487b7160e01b600052601260045260246000fd5b90611484575080511561147257805190602001fd5b604051630a12f52160e11b8152600490fd5b815115806114b7575b611495575090565b604051639996b31560e01b81526001600160a01b039091166004820152602490fd5b50803b1561148d56fea26469706673582212205079fe9ccf5810710dee05c22e29760855869ba00e6ba013fc4ab6d54d0b1d6864736f6c634300081800332f8788117e7eff1d82e926ec794901d17c78024a50270940304540a733656f0d65d7a28e3265b37a6474929f336521b332c1681b933f6cb9f3376673440d862a",
  "devdoc": {
    "errors": {
      "AccessControlBadConfirmation()": [
        {
          "details": "The caller of a function is not the expected one. NOTE: Don't confuse with {AccessControlUnauthorizedAccount}."
        }
      ],
      "AccessControlUnauthorizedAccount(address,bytes32)": [
        {
          "details": "The `account` is missing a role."
        }
      ],
      "AddressEmptyCode(address)": [
        {
          "details": "There's no code at `target` (it is not a contract)."
        }
      ],
      "AddressInsufficientBalance(address)": [
        {
          "details": "The ETH balance of the account is not enough to perform the operation."
        }
      ],
      "EnforcedPause()": [
        {
          "details": "The operation failed because the contract is paused."
        }
      ],
      "ExpectedPause()": [
        {
          "details": "The operation failed because the contract is not paused."
        }
      ],
      "FailedInnerCall()": [
        {
          "details": "A call to an address target failed. The target may have reverted."
        }
      ],
      "MathOverflowedMulDiv()": [
        {
          "details": "Muldiv operation overflow."
        }
      ],
      "ReentrancyGuardReentrantCall()": [
        {
          "details": "Unauthorized reentrant call."
        }
      ],
      "SafeERC20FailedOperation(address)": [
        {
          "details": "An operation with an ERC20 token failed."
        }
      ]
    },
    "events": {
      "Paused(address)": {
        "details": "Emitted when the pause is triggered by `account`."
      },
      "RoleAdminChanged(bytes32,bytes32,bytes32)": {
        "details": "Emitted when `newAdminRole` is set as ``role``'s admin role, replacing `previousAdminRole` `DEFAULT_ADMIN_ROLE` is the starting admin for all roles, despite {RoleAdminChanged} not being emitted signaling this."
      },
      "RoleGranted(bytes32,address,address)": {
        "details": "Emitted when `account` is granted `role`. `sender` is the account that originated the contract call, an admin role bearer except when using {AccessControl-_setupRole}."
      },
      "RoleRevoked(bytes32,address,address)": {
        "details": "Emitted when `account` is revoked `role`. `sender` is the account that originated the contract call:   - if using `revokeRole`, it is the admin role bearer   - if using `renounceRole`, it is the role bearer (i.e. `account`)"
      },
      "Unpaused(address)": {
        "details": "Emitted when the pause is lifted by `account`."
      }
    },
    "kind": "dev",
    "methods": {
      "baseValueToDusdAmount(uint256)": {
        "params": {
          "baseValue": "The amount of base value to convert"
        },
        "returns": {
          "_0": "The equivalent amount of dUSD tokens"
        }
      },
      "collateralInDusd()": {
        "returns": {
          "_0": "The amount of dUSD tokens equivalent to the collateral value"
        }
      },
      "constructor": {
        "params": {
          "_collateralVault": "The address of the collateral vault",
          "_dusd": "The address of the dUSD stablecoin",
          "oracle": "The address of the price oracle"
        }
      },
      "getRoleAdmin(bytes32)": {
        "details": "Returns the admin role that controls `role`. See {grantRole} and {revokeRole}. To change a role's admin, use {_setRoleAdmin}."
      },
      "grantRole(bytes32,address)": {
        "details": "Grants `role` to `account`. If `account` had not been already granted `role`, emits a {RoleGranted} event. Requirements: - the caller must have ``role``'s admin role. May emit a {RoleGranted} event."
      },
      "hasRole(bytes32,address)": {
        "details": "Returns `true` if `account` has been granted `role`."
      },
      "isAssetMintingEnabled(address)": {
        "details": "Asset must be supported by the collateral vault and not paused by issuer"
      },
      "issue(uint256,address,uint256)": {
        "params": {
          "collateralAmount": "The amount of collateral to deposit",
          "collateralAsset": "The address of the collateral asset being deposited",
          "minDUsd": "The minimum amount of dUSD the caller expects (slippage guard)"
        }
      },
      "issueUsingExcessCollateral(address,uint256)": {
        "params": {
          "dusdAmount": "The amount of dUSD to mint",
          "receiver": "The address to receive the minted dUSD tokens"
        }
      },
      "paused()": {
        "details": "Returns true if the contract is paused, and false otherwise."
      },
      "renounceRole(bytes32,address)": {
        "details": "Revokes `role` from the calling account. Roles are often managed via {grantRole} and {revokeRole}: this function's purpose is to provide a mechanism for accounts to lose their privileges if they are compromised (such as when a trusted device is misplaced). If the calling account had been revoked `role`, emits a {RoleRevoked} event. Requirements: - the caller must be `callerConfirmation`. May emit a {RoleRevoked} event."
      },
      "revokeRole(bytes32,address)": {
        "details": "Revokes `role` from `account`. If `account` had been granted `role`, emits a {RoleRevoked} event. Requirements: - the caller must have ``role``'s admin role. May emit a {RoleRevoked} event."
      },
      "setAssetDepositCap(address,uint256)": {
        "details": "Cap is denominated in the asset's native decimals; a value of 0 removes the cap",
        "params": {
          "asset": "The collateral asset address",
          "cap": "The maximum allowable balance for this asset at the collateral vault"
        }
      },
      "setAssetMintingPause(address,bool)": {
        "params": {
          "asset": "The collateral asset address",
          "paused": "True to pause minting; false to enable"
        }
      },
      "setBaseCurrencyUnit(uint256)": {
        "details": "Only used if the oracle's base currency unit changes",
        "params": {
          "_newBaseCurrencyUnit": "The new base currency unit to set"
        }
      },
      "setCollateralVault(address)": {
        "params": {
          "_collateralVault": "The address of the collateral vault"
        }
      },
      "setOracle(address)": {
        "params": {
          "newOracle": "The new oracle to use"
        }
      },
      "supportsInterface(bytes4)": {
        "details": "See {IERC165-supportsInterface}."
      }
    },
    "title": "IssuerV2_2",
    "version": 1
  },
  "userdoc": {
    "kind": "user",
    "methods": {
      "baseValueToDusdAmount(uint256)": {
        "notice": "Converts a base value to an equivalent amount of dUSD tokens"
      },
      "collateralInDusd()": {
        "notice": "Calculates the collateral value in dUSD tokens"
      },
      "constructor": {
        "notice": "Initializes the IssuerV2_2 contract with core dependencies"
      },
      "isAssetMintingEnabled(address)": {
        "notice": "Returns whether `asset` is currently enabled for minting by the issuer"
      },
      "issue(uint256,address,uint256)": {
        "notice": "Issues dUSD tokens in exchange for collateral from the caller"
      },
      "issueUsingExcessCollateral(address,uint256)": {
        "notice": "Issues dUSD tokens using excess collateral in the system"
      },
      "pauseMinting()": {
        "notice": "Pause all minting operations"
      },
      "setAssetDepositCap(address,uint256)": {
        "notice": "Sets the deposit cap for a collateral asset"
      },
      "setAssetMintingPause(address,bool)": {
        "notice": "Set minting pause override for a specific collateral asset"
      },
      "setBaseCurrencyUnit(uint256)": {
        "notice": "Updates the base currency unit used for price calculations"
      },
      "setCollateralVault(address)": {
        "notice": "Sets the collateral vault address"
      },
      "setOracle(address)": {
        "notice": "Sets the oracle to use for collateral valuation"
      },
      "unpauseMinting()": {
        "notice": "Unpause all minting operations"
      }
    },
    "notice": "Issuer responsible for minting dUSD tokens with asset-level controls and collateral backing checks",
    "version": 1
  },
  "storageLayout": {
    "storage": [
      {
        "astId": 26,
        "contract": "contracts/dusd/IssuerV2_2.sol:IssuerV2_2",
        "label": "_roles",
        "offset": 0,
        "slot": "0",
        "type": "t_mapping(t_bytes32,t_struct(RoleData)21_storage)"
      },
      {
        "astId": 6233,
        "contract": "contracts/dusd/IssuerV2_2.sol:IssuerV2_2",
        "label": "oracle",
        "offset": 0,
        "slot": "1",
        "type": "t_contract(IPriceOracleGetter)9514"
      },
      {
        "astId": 6235,
        "contract": "contracts/dusd/IssuerV2_2.sol:IssuerV2_2",
        "label": "baseCurrencyUnit",
        "offset": 0,
        "slot": "2",
        "type": "t_uint256"
      },
      {
        "astId": 1871,
        "contract": "contracts/dusd/IssuerV2_2.sol:IssuerV2_2",
        "label": "_status",
        "offset": 0,
        "slot": "3",
        "type": "t_uint256"
      },
      {
        "astId": 1752,
        "contract": "contracts/dusd/IssuerV2_2.sol:IssuerV2_2",
        "label": "_paused",
        "offset": 0,
        "slot": "4",
        "type": "t_bool"
      },
      {
        "astId": 5662,
        "contract": "contracts/dusd/IssuerV2_2.sol:IssuerV2_2",
        "label": "dusd",
        "offset": 1,
        "slot": "4",
        "type": "t_contract(IERC20Stablecoin)13934"
      },
      {
        "astId": 5667,
        "contract": "contracts/dusd/IssuerV2_2.sol:IssuerV2_2",
        "label": "collateralVault",
        "offset": 0,
        "slot": "5",
        "type": "t_contract(CollateralVault)5634"
      },
      {
        "astId": 5723,
        "contract": "contracts/dusd/IssuerV2_2.sol:IssuerV2_2",
        "label": "assetMintingPaused",
        "offset": 0,
        "slot": "6",
        "type": "t_mapping(t_address,t_bool)"
      },
      {
        "astId": 5727,
        "contract": "contracts/dusd/IssuerV2_2.sol:IssuerV2_2",
        "label": "assetDepositCap",
        "offset": 0,
        "slot": "7",
        "type": "t_mapping(t_address,t_uint256)"
      }
    ],
    "types": {
      "t_address": {
        "encoding": "inplace",
        "label": "address",
        "numberOfBytes": "20"
      },
      "t_bool": {
        "encoding": "inplace",
        "label": "bool",
        "numberOfBytes": "1"
      },
      "t_bytes32": {
        "encoding": "inplace",
        "label": "bytes32",
        "numberOfBytes": "32"
      },
      "t_contract(CollateralVault)5634": {
        "encoding": "inplace",
        "label": "contract CollateralVault",
        "numberOfBytes": "20"
      },
      "t_contract(IERC20Stablecoin)13934": {
        "encoding": "inplace",
        "label": "contract IERC20Stablecoin",
        "numberOfBytes": "20"
      },
      "t_contract(IPriceOracleGetter)9514": {
        "encoding": "inplace",
        "label": "contract IPriceOracleGetter",
        "numberOfBytes": "20"
      },
      "t_mapping(t_address,t_bool)": {
        "encoding": "mapping",
        "key": "t_address",
        "label": "mapping(address => bool)",
        "numberOfBytes": "32",
        "value": "t_bool"
      },
      "t_mapping(t_address,t_uint256)": {
        "encoding": "mapping",
        "key": "t_address",
        "label": "mapping(address => uint256)",
        "numberOfBytes": "32",
        "value": "t_uint256"
      },
      "t_mapping(t_bytes32,t_struct(RoleData)21_storage)": {
        "encoding": "mapping",
        "key": "t_bytes32",
        "label": "mapping(bytes32 => struct AccessControl.RoleData)",
        "numberOfBytes": "32",
        "value": "t_struct(RoleData)21_storage"
      },
      "t_struct(RoleData)21_storage": {
        "encoding": "inplace",
        "label": "struct AccessControl.RoleData",
        "members": [
          {
            "astId": 18,
            "contract": "contracts/dusd/IssuerV2_2.sol:IssuerV2_2",
            "label": "hasRole",
            "offset": 0,
            "slot": "0",
            "type": "t_mapping(t_address,t_bool)"
          },
          {
            "astId": 20,
            "contract": "contracts/dusd/IssuerV2_2.sol:IssuerV2_2",
            "label": "adminRole",
            "offset": 0,
            "slot": "1",
            "type": "t_bytes32"
          }
        ],
        "numberOfBytes": "64"
      },
      "t_uint256": {
        "encoding": "inplace",
        "label": "uint256",
        "numberOfBytes": "32"
      }
    }
  }
}