{
  "address": "0xFA7560956807d95DCeF22990DdD92e38DbAf5cDd",
  "abi": [
    {
      "inputs": [
        {
          "internalType": "uint256",
          "name": "_baseCurrencyUnit",
          "type": "uint256"
        }
      ],
      "stateMutability": "nonpayable",
      "type": "constructor"
    },
    {
      "inputs": [],
      "name": "AccessControlBadConfirmation",
      "type": "error"
    },
    {
      "inputs": [
        {
          "internalType": "address",
          "name": "account",
          "type": "address"
        },
        {
          "internalType": "bytes32",
          "name": "neededRole",
          "type": "bytes32"
        }
      ],
      "name": "AccessControlUnauthorizedAccount",
      "type": "error"
    },
    {
      "inputs": [
        {
          "internalType": "address",
          "name": "asset",
          "type": "address"
        }
      ],
      "name": "OracleNotSet",
      "type": "error"
    },
    {
      "inputs": [
        {
          "internalType": "address",
          "name": "asset",
          "type": "address"
        }
      ],
      "name": "PriceNotAlive",
      "type": "error"
    },
    {
      "inputs": [
        {
          "internalType": "address",
          "name": "asset",
          "type": "address"
        },
        {
          "internalType": "address",
          "name": "oracle",
          "type": "address"
        },
        {
          "internalType": "uint256",
          "name": "expectedBaseUnit",
          "type": "uint256"
        },
        {
          "internalType": "uint256",
          "name": "oracleBaseUnit",
          "type": "uint256"
        }
      ],
      "name": "UnexpectedBaseUnit",
      "type": "error"
    },
    {
      "anonymous": false,
      "inputs": [
        {
          "indexed": true,
          "internalType": "address",
          "name": "asset",
          "type": "address"
        },
        {
          "indexed": true,
          "internalType": "address",
          "name": "oracle",
          "type": "address"
        }
      ],
      "name": "OracleUpdated",
      "type": "event"
    },
    {
      "anonymous": false,
      "inputs": [
        {
          "indexed": true,
          "internalType": "bytes32",
          "name": "role",
          "type": "bytes32"
        },
        {
          "indexed": true,
          "internalType": "bytes32",
          "name": "previousAdminRole",
          "type": "bytes32"
        },
        {
          "indexed": true,
          "internalType": "bytes32",
          "name": "newAdminRole",
          "type": "bytes32"
        }
      ],
      "name": "RoleAdminChanged",
      "type": "event"
    },
    {
      "anonymous": false,
      "inputs": [
        {
          "indexed": true,
          "internalType": "bytes32",
          "name": "role",
          "type": "bytes32"
        },
        {
          "indexed": true,
          "internalType": "address",
          "name": "account",
          "type": "address"
        },
        {
          "indexed": true,
          "internalType": "address",
          "name": "sender",
          "type": "address"
        }
      ],
      "name": "RoleGranted",
      "type": "event"
    },
    {
      "anonymous": false,
      "inputs": [
        {
          "indexed": true,
          "internalType": "bytes32",
          "name": "role",
          "type": "bytes32"
        },
        {
          "indexed": true,
          "internalType": "address",
          "name": "account",
          "type": "address"
        },
        {
          "indexed": true,
          "internalType": "address",
          "name": "sender",
          "type": "address"
        }
      ],
      "name": "RoleRevoked",
      "type": "event"
    },
    {
      "inputs": [],
      "name": "BASE_CURRENCY",
      "outputs": [
        {
          "internalType": "address",
          "name": "",
          "type": "address"
        }
      ],
      "stateMutability": "pure",
      "type": "function"
    },
    {
      "inputs": [],
      "name": "BASE_CURRENCY_UNIT",
      "outputs": [
        {
          "internalType": "uint256",
          "name": "",
          "type": "uint256"
        }
      ],
      "stateMutability": "view",
      "type": "function"
    },
    {
      "inputs": [],
      "name": "BASE_CURRENCY_USD",
      "outputs": [
        {
          "internalType": "address",
          "name": "",
          "type": "address"
        }
      ],
      "stateMutability": "view",
      "type": "function"
    },
    {
      "inputs": [],
      "name": "DEFAULT_ADMIN_ROLE",
      "outputs": [
        {
          "internalType": "bytes32",
          "name": "",
          "type": "bytes32"
        }
      ],
      "stateMutability": "view",
      "type": "function"
    },
    {
      "inputs": [],
      "name": "ORACLE_MANAGER_ROLE",
      "outputs": [
        {
          "internalType": "bytes32",
          "name": "",
          "type": "bytes32"
        }
      ],
      "stateMutability": "view",
      "type": "function"
    },
    {
      "inputs": [
        {
          "internalType": "address",
          "name": "",
          "type": "address"
        }
      ],
      "name": "assetOracles",
      "outputs": [
        {
          "internalType": "address",
          "name": "",
          "type": "address"
        }
      ],
      "stateMutability": "view",
      "type": "function"
    },
    {
      "inputs": [],
      "name": "baseCurrencyUnit",
      "outputs": [
        {
          "internalType": "uint256",
          "name": "",
          "type": "uint256"
        }
      ],
      "stateMutability": "view",
      "type": "function"
    },
    {
      "inputs": [
        {
          "internalType": "address",
          "name": "asset",
          "type": "address"
        }
      ],
      "name": "getAssetPrice",
      "outputs": [
        {
          "internalType": "uint256",
          "name": "",
          "type": "uint256"
        }
      ],
      "stateMutability": "view",
      "type": "function"
    },
    {
      "inputs": [
        {
          "internalType": "address",
          "name": "asset",
          "type": "address"
        }
      ],
      "name": "getPriceInfo",
      "outputs": [
        {
          "internalType": "uint256",
          "name": "price",
          "type": "uint256"
        },
        {
          "internalType": "bool",
          "name": "isAlive",
          "type": "bool"
        }
      ],
      "stateMutability": "view",
      "type": "function"
    },
    {
      "inputs": [
        {
          "internalType": "bytes32",
          "name": "role",
          "type": "bytes32"
        }
      ],
      "name": "getRoleAdmin",
      "outputs": [
        {
          "internalType": "bytes32",
          "name": "",
          "type": "bytes32"
        }
      ],
      "stateMutability": "view",
      "type": "function"
    },
    {
      "inputs": [
        {
          "internalType": "bytes32",
          "name": "role",
          "type": "bytes32"
        },
        {
          "internalType": "address",
          "name": "account",
          "type": "address"
        }
      ],
      "name": "grantRole",
      "outputs": [],
      "stateMutability": "nonpayable",
      "type": "function"
    },
    {
      "inputs": [
        {
          "internalType": "bytes32",
          "name": "role",
          "type": "bytes32"
        },
        {
          "internalType": "address",
          "name": "account",
          "type": "address"
        }
      ],
      "name": "hasRole",
      "outputs": [
        {
          "internalType": "bool",
          "name": "",
          "type": "bool"
        }
      ],
      "stateMutability": "view",
      "type": "function"
    },
    {
      "inputs": [
        {
          "internalType": "address",
          "name": "asset",
          "type": "address"
        }
      ],
      "name": "removeOracle",
      "outputs": [],
      "stateMutability": "nonpayable",
      "type": "function"
    },
    {
      "inputs": [
        {
          "internalType": "bytes32",
          "name": "role",
          "type": "bytes32"
        },
        {
          "internalType": "address",
          "name": "callerConfirmation",
          "type": "address"
        }
      ],
      "name": "renounceRole",
      "outputs": [],
      "stateMutability": "nonpayable",
      "type": "function"
    },
    {
      "inputs": [
        {
          "internalType": "bytes32",
          "name": "role",
          "type": "bytes32"
        },
        {
          "internalType": "address",
          "name": "account",
          "type": "address"
        }
      ],
      "name": "revokeRole",
      "outputs": [],
      "stateMutability": "nonpayable",
      "type": "function"
    },
    {
      "inputs": [
        {
          "internalType": "address",
          "name": "asset",
          "type": "address"
        },
        {
          "internalType": "address",
          "name": "oracle",
          "type": "address"
        }
      ],
      "name": "setOracle",
      "outputs": [],
      "stateMutability": "nonpayable",
      "type": "function"
    },
    {
      "inputs": [
        {
          "internalType": "bytes4",
          "name": "interfaceId",
          "type": "bytes4"
        }
      ],
      "name": "supportsInterface",
      "outputs": [
        {
          "internalType": "bool",
          "name": "",
          "type": "bool"
        }
      ],
      "stateMutability": "view",
      "type": "function"
    }
  ],
  "transactionHash": "0x9897a21969c49da1ac3a258f5f6a984c775a64a129f631ab9fb8530b6a8a0bc4",
  "args": [
    "100000000"
  ],
  "numDeployments": 1,
  "solcInputHash": "83c36c8a0c533a01ab5370c60abc31e8",
  "bytecode": "0x60a03461007557601f610a3438819003918201601f19168301916001600160401b0383118484101761007a57808492602094604052833981010312610075575160805261004b33610090565b506100553361010e565b5060405161086590816101af823960805181818161033c01526105830152f35b600080fd5b634e487b7160e01b600052604160045260246000fd5b6001600160a01b031660008181527fad3228b676f7d3cd4284a5443f17f1962b36e491b30a40b2405849e597ba5fb5602052604081205490919060ff1661010a57818052816020526040822081835260205260408220600160ff198254161790553391600080516020610a148339815191528180a4600190565b5090565b6001600160a01b031660008181527ffb8036e0bab3828a1a1cce97396031bc7ea8a361699e1bc9c4844f3aeee78d6e60205260408120549091907fced6982f480260bdd8ad5cb18ff2854f0306d78d904ad6cc107e8f3a0f526c189060ff166101a957808352826020526040832082845260205260408320600160ff19825416179055600080516020610a14833981519152339380a4600190565b50509056fe608060408181526004918236101561001657600080fd5b600092833560e01c91826301ffc9a7146104e757508163248a9ca3146104bd5781632b663986146104825781632f2ff15d1461045857816336568abe146104125781635c38eb3a146102df5781638c89b64f1461014f5781638edbf436146102ad57816391d1485414610267578163a217fddf146101b5578163b3596f071461020b578163bfc69e1c146101d0578163cb7f8fd9146101b5578163d547741f1461017257508063e19f470014610154578063f3bddde11461014f5763fdc85fc4146100e057600080fd5b81903461014c57602036600319011261014c576100fb61053a565b6101036105a6565b6001600160a01b0316808352600160205290822080546001600160a01b03191690557f078c3b417dadf69374a59793b829c52001247130433427049317bde56607b1b78280a380f35b50fd5b61056b565b503461016e578160031936011261016e5751908152602090f35b5080fd5b919050346101b157806003193601126101b1576101ad91356101a86001610197610555565b938387528660205286200154610620565b6106c4565b5080f35b8280fd5b50503461016e578160031936011261016e5751908152602090f35b50503461016e578160031936011261016e57602090517fced6982f480260bdd8ad5cb18ff2854f0306d78d904ad6cc107e8f3a0f526c188152f35b90508234610264576020366003190112610264575061022861053a565b61023181610771565b92909215610243576020838551908152f35b835163118297e560e01b81526001600160a01b039092169082015260249150fd5b80fd5b9050346101b157816003193601126101b1578160209360ff92610288610555565b903582528186528282206001600160a01b039091168252855220549151911615158152f35b82843461026457602036600319011261026457506102d16102cc61053a565b610771565b825191825215156020820152f35b919050346101b157806003193601126101b1576102fa61053a565b610302610555565b9061030b6105a6565b8251638c89b64f60e01b81526001600160a01b03928316946020828281895afa9182156104085787926103d1575b507f0000000000000000000000000000000000000000000000000000000000000000908183036103a95750505016808452600160205290832080546001600160a01b031916831790557f078c3b417dadf69374a59793b829c52001247130433427049317bde56607b1b78380a380f35b869060849587519563ef09a31360e01b87521690850152602484015260448301526064820152fd5b9091506020813d8211610400575b816103ec60209383610739565b810103126103fc57519038610339565b8680fd5b3d91506103df565b85513d89823e3d90fd5b83833461016e578060031936011261016e5761042c610555565b90336001600160a01b0383160361044957506101ad9192356106c4565b5163334bd91960e11b81528390fd5b919050346101b157806003193601126101b1576101ad913561047d6001610197610555565b610646565b50503461016e57602036600319011261016e576020916001600160a01b03908290826104ac61053a565b168152600185522054169051908152f35b9050346101b15760203660031901126101b157816020936001923581528085522001549051908152f35b8491346101b15760203660031901126101b1573563ffffffff60e01b81168091036101b15760209250637965db0b60e01b8114908115610529575b5015158152f35b6301ffc9a760e01b14905083610522565b600435906001600160a01b038216820361055057565b600080fd5b602435906001600160a01b038216820361055057565b346105505760003660031901126105505760206040517f00000000000000000000000000000000000000000000000000000000000000008152f35b3360009081527ffb8036e0bab3828a1a1cce97396031bc7ea8a361699e1bc9c4844f3aeee78d6e60205260409020547fced6982f480260bdd8ad5cb18ff2854f0306d78d904ad6cc107e8f3a0f526c189060ff16156106025750565b6044906040519063e2517d3f60e01b82523360048301526024820152fd5b80600052600060205260406000203360005260205260ff60406000205416156106025750565b9060009180835282602052604083209160018060a01b03169182845260205260ff604084205416156000146106bf57808352826020526040832082845260205260408320600160ff198254161790557f2f8788117e7eff1d82e926ec794901d17c78024a50270940304540a733656f0d339380a4600190565b505090565b9060009180835282602052604083209160018060a01b03169182845260205260ff6040842054166000146106bf5780835282602052604083208284526020526040832060ff1981541690557ff6391f5c32d9c69d2a47ea670b442974b53935d1edc7fd64eb21e047a839171b339380a4600190565b90601f8019910116810190811067ffffffffffffffff82111761075b57604052565b634e487b7160e01b600052604160045260246000fd5b6001600160a01b03908116600081815260016020526040808220549093169392918415610818578290602482518097819363476dfa1b60e11b835260048301525afa93841561080c57819282956107ca575b5050509190565b809295508193503d8311610805575b6107e38183610739565b810103126101b1576020815191015192831515840361026457503880806107c3565b503d6107d9565b509051903d90823e3d90fd5b602490835190634bf9754b60e11b82526004820152fdfea2646970667358221220c28e5a017d550618271466d6b6f8b92a54e348c828eb97ea0f44d2c92930405b64736f6c634300081400332f8788117e7eff1d82e926ec794901d17c78024a50270940304540a733656f0d",
  "devdoc": {
    "details": "Implements IPriceOracleGetter for compatibility with Aave",
    "errors": {
      "AccessControlBadConfirmation()": [
        {
          "details": "The caller of a function is not the expected one. NOTE: Don't confuse with {AccessControlUnauthorizedAccount}."
        }
      ],
      "AccessControlUnauthorizedAccount(address,bytes32)": [
        {
          "details": "The `account` is missing a role."
        }
      ]
    },
    "events": {
      "RoleAdminChanged(bytes32,bytes32,bytes32)": {
        "details": "Emitted when `newAdminRole` is set as ``role``'s admin role, replacing `previousAdminRole` `DEFAULT_ADMIN_ROLE` is the starting admin for all roles, despite {RoleAdminChanged} not being emitted signaling this."
      },
      "RoleGranted(bytes32,address,address)": {
        "details": "Emitted when `account` is granted `role`. `sender` is the account that originated the contract call, an admin role bearer except when using {AccessControl-_setupRole}."
      },
      "RoleRevoked(bytes32,address,address)": {
        "details": "Emitted when `account` is revoked `role`. `sender` is the account that originated the contract call:   - if using `revokeRole`, it is the admin role bearer   - if using `renounceRole`, it is the role bearer (i.e. `account`)"
      }
    },
    "kind": "dev",
    "methods": {
      "BASE_CURRENCY()": {
        "returns": {
          "_0": "Address representing USD"
        }
      },
      "BASE_CURRENCY_UNIT()": {
        "returns": {
          "_0": "Base currency unit (10^priceDecimals)"
        }
      },
      "constructor": {
        "params": {
          "_baseCurrencyUnit": "Number of decimal places for price values"
        }
      },
      "getAssetPrice(address)": {
        "params": {
          "asset": "Address of the asset"
        },
        "returns": {
          "_0": "Price of the asset"
        }
      },
      "getPriceInfo(address)": {
        "params": {
          "asset": "Address of the asset"
        },
        "returns": {
          "isAlive": "Whether the price is considered valid",
          "price": "Price of the asset"
        }
      },
      "getRoleAdmin(bytes32)": {
        "details": "Returns the admin role that controls `role`. See {grantRole} and {revokeRole}. To change a role's admin, use {_setRoleAdmin}."
      },
      "grantRole(bytes32,address)": {
        "details": "Grants `role` to `account`. If `account` had not been already granted `role`, emits a {RoleGranted} event. Requirements: - the caller must have ``role``'s admin role. May emit a {RoleGranted} event."
      },
      "hasRole(bytes32,address)": {
        "details": "Returns `true` if `account` has been granted `role`."
      },
      "removeOracle(address)": {
        "params": {
          "asset": "Address of the asset"
        }
      },
      "renounceRole(bytes32,address)": {
        "details": "Revokes `role` from the calling account. Roles are often managed via {grantRole} and {revokeRole}: this function's purpose is to provide a mechanism for accounts to lose their privileges if they are compromised (such as when a trusted device is misplaced). If the calling account had been revoked `role`, emits a {RoleRevoked} event. Requirements: - the caller must be `callerConfirmation`. May emit a {RoleRevoked} event."
      },
      "revokeRole(bytes32,address)": {
        "details": "Revokes `role` from `account`. If `account` had been granted `role`, emits a {RoleRevoked} event. Requirements: - the caller must have ``role``'s admin role. May emit a {RoleRevoked} event."
      },
      "setOracle(address,address)": {
        "params": {
          "asset": "Address of the asset",
          "oracle": "Address of the oracle for the asset"
        }
      },
      "supportsInterface(bytes4)": {
        "details": "See {IERC165-supportsInterface}."
      }
    },
    "title": "OracleAggregator",
    "version": 1
  },
  "userdoc": {
    "kind": "user",
    "methods": {
      "BASE_CURRENCY()": {
        "notice": "Returns the base currency (USD)"
      },
      "BASE_CURRENCY_UNIT()": {
        "notice": "Returns the base currency unit"
      },
      "BASE_CURRENCY_USD()": {
        "notice": "Address representing USD as the base currency"
      },
      "ORACLE_MANAGER_ROLE()": {
        "notice": "Role for managing oracles"
      },
      "assetOracles(address)": {
        "notice": "Mapping from asset address to oracle address"
      },
      "baseCurrencyUnit()": {
        "notice": "1 Unit of base currency (10^priceDecimals) (e.g. 1 USD)"
      },
      "constructor": {
        "notice": "Constructor to initialize the OracleAggregator"
      },
      "getAssetPrice(address)": {
        "notice": "Gets the price of an asset"
      },
      "getPriceInfo(address)": {
        "notice": "Gets the price info of an asset"
      },
      "removeOracle(address)": {
        "notice": "Removes the oracle for a specific asset"
      },
      "setOracle(address,address)": {
        "notice": "Sets the oracle for a specific asset"
      }
    },
    "notice": "Aggregates price data from multiple oracles",
    "version": 1
  },
  "storageLayout": {
    "storage": [
      {
        "astId": 193,
        "contract": "contracts/oracle_aggregator/OracleAggregator.sol:OracleAggregator",
        "label": "_roles",
        "offset": 0,
        "slot": "0",
        "type": "t_mapping(t_bytes32,t_struct(RoleData)188_storage)"
      },
      {
        "astId": 9842,
        "contract": "contracts/oracle_aggregator/OracleAggregator.sol:OracleAggregator",
        "label": "assetOracles",
        "offset": 0,
        "slot": "1",
        "type": "t_mapping(t_address,t_address)"
      }
    ],
    "types": {
      "t_address": {
        "encoding": "inplace",
        "label": "address",
        "numberOfBytes": "20"
      },
      "t_bool": {
        "encoding": "inplace",
        "label": "bool",
        "numberOfBytes": "1"
      },
      "t_bytes32": {
        "encoding": "inplace",
        "label": "bytes32",
        "numberOfBytes": "32"
      },
      "t_mapping(t_address,t_address)": {
        "encoding": "mapping",
        "key": "t_address",
        "label": "mapping(address => address)",
        "numberOfBytes": "32",
        "value": "t_address"
      },
      "t_mapping(t_address,t_bool)": {
        "encoding": "mapping",
        "key": "t_address",
        "label": "mapping(address => bool)",
        "numberOfBytes": "32",
        "value": "t_bool"
      },
      "t_mapping(t_bytes32,t_struct(RoleData)188_storage)": {
        "encoding": "mapping",
        "key": "t_bytes32",
        "label": "mapping(bytes32 => struct AccessControl.RoleData)",
        "numberOfBytes": "32",
        "value": "t_struct(RoleData)188_storage"
      },
      "t_struct(RoleData)188_storage": {
        "encoding": "inplace",
        "label": "struct AccessControl.RoleData",
        "members": [
          {
            "astId": 185,
            "contract": "contracts/oracle_aggregator/OracleAggregator.sol:OracleAggregator",
            "label": "hasRole",
            "offset": 0,
            "slot": "0",
            "type": "t_mapping(t_address,t_bool)"
          },
          {
            "astId": 187,
            "contract": "contracts/oracle_aggregator/OracleAggregator.sol:OracleAggregator",
            "label": "adminRole",
            "offset": 0,
            "slot": "1",
            "type": "t_bytes32"
          }
        ],
        "numberOfBytes": "64"
      }
    }
  }
}