{
  "address": "0xFbEb5541a7C2c2FdD5c76A01D8601380E12f7878",
  "abi": [
    {
      "inputs": [
        {
          "internalType": "address",
          "name": "owner",
          "type": "address"
        }
      ],
      "stateMutability": "nonpayable",
      "type": "constructor"
    },
    {
      "anonymous": false,
      "inputs": [
        {
          "indexed": true,
          "internalType": "address",
          "name": "addressesProvider",
          "type": "address"
        },
        {
          "indexed": true,
          "internalType": "uint256",
          "name": "id",
          "type": "uint256"
        }
      ],
      "name": "AddressesProviderRegistered",
      "type": "event"
    },
    {
      "anonymous": false,
      "inputs": [
        {
          "indexed": true,
          "internalType": "address",
          "name": "addressesProvider",
          "type": "address"
        },
        {
          "indexed": true,
          "internalType": "uint256",
          "name": "id",
          "type": "uint256"
        }
      ],
      "name": "AddressesProviderUnregistered",
      "type": "event"
    },
    {
      "anonymous": false,
      "inputs": [
        {
          "indexed": true,
          "internalType": "address",
          "name": "previousOwner",
          "type": "address"
        },
        {
          "indexed": true,
          "internalType": "address",
          "name": "newOwner",
          "type": "address"
        }
      ],
      "name": "OwnershipTransferred",
      "type": "event"
    },
    {
      "inputs": [
        {
          "internalType": "uint256",
          "name": "id",
          "type": "uint256"
        }
      ],
      "name": "getAddressesProviderAddressById",
      "outputs": [
        {
          "internalType": "address",
          "name": "",
          "type": "address"
        }
      ],
      "stateMutability": "view",
      "type": "function"
    },
    {
      "inputs": [
        {
          "internalType": "address",
          "name": "addressesProvider",
          "type": "address"
        }
      ],
      "name": "getAddressesProviderIdByAddress",
      "outputs": [
        {
          "internalType": "uint256",
          "name": "",
          "type": "uint256"
        }
      ],
      "stateMutability": "view",
      "type": "function"
    },
    {
      "inputs": [],
      "name": "getAddressesProvidersList",
      "outputs": [
        {
          "internalType": "address[]",
          "name": "",
          "type": "address[]"
        }
      ],
      "stateMutability": "view",
      "type": "function"
    },
    {
      "inputs": [],
      "name": "owner",
      "outputs": [
        {
          "internalType": "address",
          "name": "",
          "type": "address"
        }
      ],
      "stateMutability": "view",
      "type": "function"
    },
    {
      "inputs": [
        {
          "internalType": "address",
          "name": "provider",
          "type": "address"
        },
        {
          "internalType": "uint256",
          "name": "id",
          "type": "uint256"
        }
      ],
      "name": "registerAddressesProvider",
      "outputs": [],
      "stateMutability": "nonpayable",
      "type": "function"
    },
    {
      "inputs": [],
      "name": "renounceOwnership",
      "outputs": [],
      "stateMutability": "nonpayable",
      "type": "function"
    },
    {
      "inputs": [
        {
          "internalType": "address",
          "name": "newOwner",
          "type": "address"
        }
      ],
      "name": "transferOwnership",
      "outputs": [],
      "stateMutability": "nonpayable",
      "type": "function"
    },
    {
      "inputs": [
        {
          "internalType": "address",
          "name": "provider",
          "type": "address"
        }
      ],
      "name": "unregisterAddressesProvider",
      "outputs": [],
      "stateMutability": "nonpayable",
      "type": "function"
    }
  ],
  "transactionHash": "0xdb9173125ac97d975200004429abc902f8f3053207725243752094e8783bc9c3",
  "args": [
    "0x0f5e3D9AEe7Ab5fDa909Af1ef147D98a7f4B3022"
  ],
  "numDeployments": 1,
  "solcInputHash": "8ed37bb5fee79f55dbb8814c36c24c8d",
  "bytecode": "0x60803461010157601f6108a838819003918201601f19168301916001600160401b038311848410176101065780849260209460405283398101031261010157516001600160a01b0381169081900361010157600080547f8be0079c531659141344cd1fd0a4f28419497f9722a3daafe3b4186f6b6457e092906001600160a01b0319908116903384868180a382156100ad57826040519533908680a333161717905561078b908161011d8239f35b60405162461bcd60e51b815260206004820152602660248201527f4f776e61626c653a206e6577206f776e657220697320746865207a65726f206160448201526564647265737360d01b6064820152608490fd5b600080fd5b634e487b7160e01b600052604160045260246000fdfe6040608081526004908136101561001557600080fd5b600091823560e01c80630de2670714610496578063365ccbbf146103a657806357dc056614610374578063715018a6146103155780638da5cb5b146102ed578063d0267be7146102b1578063d258191e146101425763f2fde38b1461007957600080fd5b3461013e57602036600319011261013e57610092610609565b8354916001600160a01b03808416926100ac338514610624565b169384156100ec57505082907f8be0079c531659141344cd1fd0a4f28419497f9722a3daafe3b4186f6b6457e08580a36001600160a01b03191617815580f35b906020608492519162461bcd60e51b8352820152602660248201527f4f776e61626c653a206e6577206f776e657220697320746865207a65726f206160448201526564647265737360d01b6064820152fd5b8280fd5b50903461013e578060031936011261013e5761015c610609565b602435928060018060a01b03610176818854163314610624565b8451906101828261066f565b600182526101c8600760fb1b6101a160209482868201528a15156106a1565b888a526002845282888b205416158851916101bb8361066f565b60018352858301526106a1565b841694858852600182526101f981892054158251906101e68261066f565b60028252611c1b60f11b858301526106a1565b85885260018252868189205586885260028252808820866bffffffffffffffffffffffff60a01b825416179055600354938492878a52528720556801000000000000000082101561029e5750906102598260016102779401600355610708565b90919060018060a01b038084549260031b9316831b921b1916179055565b7fc2e7cc813550ef0e7126cc0571281850ce5df2e9c400acf3589c38e4627f85f18380a380f35b634e487b7160e01b865260419052602485fd5b5050346102e95760203660031901126102e95760209181906001600160a01b036102d9610609565b1681526001845220549051908152f35b5080fd5b5050346102e957816003193601126102e957905490516001600160a01b039091168152602090f35b83346103715780600319360112610371578054816001600160a01b03821661033e338214610624565b7f8be0079c531659141344cd1fd0a4f28419497f9722a3daafe3b4186f6b6457e08280a36001600160a01b031916815580f35b80fd5b503461013e57602036600319011261013e5735825260026020908152918190205490516001600160a01b039091168152f35b509134610371578060031936011261037157815180916003549384835260208093018095600384527fc2575a0e9e593c00f959f8c92f12db2869c3395a3b0502d05e2516446f71f85b90845b868282106104795750505050849003601f01601f191684019567ffffffffffffffff871185881017610466575085815282865292518583018190528594938501939290915b82811061044657505050500390f35b83516001600160a01b031685528695509381019392810192600101610437565b634e487b7160e01b835260419052602482fd5b83546001600160a01b0316855290930192600192830192016103f2565b503461013e57602080600319360112610605576104b1610609565b84546001600160a01b03929183916104cc9083163314610624565b1692838652600182526104fc8587205415158651906104ea8261066f565b60018252603760f81b858301526106a1565b838652600182528486205494858752600283528087206bffffffffffffffffffffffff60a01b815416905584875260018352868181205581835280872090878254925560035493600019948581019081116105f257908682869386106105c3575b5050505050506003549081156105b05750019061057982610708565b909182549160031b1b191690556003557f254723080701bde71d562cad0e967cef23d86bb27ee842c190a2596820f3b2418380a380f35b634e487b7160e01b875260319052602486fd5b6105cc90610708565b90549060031b1c166105e18161025987610708565b8a525287205538808281868161055d565b634e487b7160e01b8a526011855260248afd5b8380fd5b600435906001600160a01b038216820361061f57565b600080fd5b1561062b57565b606460405162461bcd60e51b815260206004820152602060248201527f4f776e61626c653a2063616c6c6572206973206e6f7420746865206f776e65726044820152fd5b6040810190811067ffffffffffffffff82111761068b57604052565b634e487b7160e01b600052604160045260246000fd5b156106a95750565b6040519062461bcd60e51b82528160208060048301528251908160248401526000935b8285106106ef575050604492506000838284010152601f80199101168101030190fd5b84810182015186860160440152938101938593506106cc565b60035481101561073f5760036000527fc2575a0e9e593c00f959f8c92f12db2869c3395a3b0502d05e2516446f71f85b0190600090565b634e487b7160e01b600052603260045260246000fdfea26469706673582212201b810f9e03e0ec08fa461c25b6d164a6d10b020c9aca5d7e1985f3271e17e13d64736f6c63430008180033",
  "devdoc": {
    "author": "Aave",
    "details": "Used for indexing purposes of Aave protocol's markets. The id assigned to a PoolAddressesProvider refers to the market it is connected with, for example with `1` for the Aave main market and `2` for the next created.",
    "events": {
      "AddressesProviderRegistered(address,uint256)": {
        "details": "Emitted when a new AddressesProvider is registered.",
        "params": {
          "addressesProvider": "The address of the registered PoolAddressesProvider",
          "id": "The id of the registered PoolAddressesProvider"
        }
      },
      "AddressesProviderUnregistered(address,uint256)": {
        "details": "Emitted when an AddressesProvider is unregistered.",
        "params": {
          "addressesProvider": "The address of the unregistered PoolAddressesProvider",
          "id": "The id of the unregistered PoolAddressesProvider"
        }
      }
    },
    "kind": "dev",
    "methods": {
      "constructor": {
        "details": "Constructor.",
        "params": {
          "owner": "The owner address of this contract."
        }
      },
      "getAddressesProviderAddressById(uint256)": {
        "params": {
          "id": "The id of the market"
        },
        "returns": {
          "_0": "The address of the PoolAddressesProvider with the given id or zero address if it is not registered"
        }
      },
      "getAddressesProviderIdByAddress(address)": {
        "params": {
          "addressesProvider": "The address of the PoolAddressesProvider"
        },
        "returns": {
          "_0": "The id of the PoolAddressesProvider or 0 if is not registered"
        }
      },
      "getAddressesProvidersList()": {
        "returns": {
          "_0": "The list of addresses providers"
        }
      },
      "owner()": {
        "details": "Returns the address of the current owner."
      },
      "registerAddressesProvider(address,uint256)": {
        "details": "The PoolAddressesProvider must not already be registered in the registryThe id must not be used by an already registered PoolAddressesProvider",
        "params": {
          "id": "The id for the new PoolAddressesProvider, referring to the market it belongs to",
          "provider": "The address of the new PoolAddressesProvider"
        }
      },
      "renounceOwnership()": {
        "details": "Leaves the contract without owner. It will not be possible to call `onlyOwner` functions anymore. Can only be called by the current owner. NOTE: Renouncing ownership will leave the contract without an owner, thereby removing any functionality that is only available to the owner."
      },
      "transferOwnership(address)": {
        "details": "Transfers ownership of the contract to a new account (`newOwner`). Can only be called by the current owner."
      },
      "unregisterAddressesProvider(address)": {
        "params": {
          "provider": "The PoolAddressesProvider address"
        }
      }
    },
    "title": "PoolAddressesProviderRegistry",
    "version": 1
  },
  "userdoc": {
    "kind": "user",
    "methods": {
      "getAddressesProviderAddressById(uint256)": {
        "notice": "Returns the address of a registered PoolAddressesProvider"
      },
      "getAddressesProviderIdByAddress(address)": {
        "notice": "Returns the id of a registered PoolAddressesProvider"
      },
      "getAddressesProvidersList()": {
        "notice": "Returns the list of registered addresses providers"
      },
      "registerAddressesProvider(address,uint256)": {
        "notice": "Registers an addresses provider"
      },
      "unregisterAddressesProvider(address)": {
        "notice": "Removes an addresses provider from the list of registered addresses providers"
      }
    },
    "notice": "Main registry of PoolAddressesProvider of Aave markets.",
    "version": 1
  },
  "storageLayout": {
    "storage": [
      {
        "astId": 27408,
        "contract": "contracts/lending/core/protocol/configuration/PoolAddressesProviderRegistry.sol:PoolAddressesProviderRegistry",
        "label": "_owner",
        "offset": 0,
        "slot": "0",
        "type": "t_address"
      },
      {
        "astId": 37817,
        "contract": "contracts/lending/core/protocol/configuration/PoolAddressesProviderRegistry.sol:PoolAddressesProviderRegistry",
        "label": "_addressesProviderToId",
        "offset": 0,
        "slot": "1",
        "type": "t_mapping(t_address,t_uint256)"
      },
      {
        "astId": 37821,
        "contract": "contracts/lending/core/protocol/configuration/PoolAddressesProviderRegistry.sol:PoolAddressesProviderRegistry",
        "label": "_idToAddressesProvider",
        "offset": 0,
        "slot": "2",
        "type": "t_mapping(t_uint256,t_address)"
      },
      {
        "astId": 37824,
        "contract": "contracts/lending/core/protocol/configuration/PoolAddressesProviderRegistry.sol:PoolAddressesProviderRegistry",
        "label": "_addressesProvidersList",
        "offset": 0,
        "slot": "3",
        "type": "t_array(t_address)dyn_storage"
      },
      {
        "astId": 37828,
        "contract": "contracts/lending/core/protocol/configuration/PoolAddressesProviderRegistry.sol:PoolAddressesProviderRegistry",
        "label": "_addressesProvidersIndexes",
        "offset": 0,
        "slot": "4",
        "type": "t_mapping(t_address,t_uint256)"
      }
    ],
    "types": {
      "t_address": {
        "encoding": "inplace",
        "label": "address",
        "numberOfBytes": "20"
      },
      "t_array(t_address)dyn_storage": {
        "base": "t_address",
        "encoding": "dynamic_array",
        "label": "address[]",
        "numberOfBytes": "32"
      },
      "t_mapping(t_address,t_uint256)": {
        "encoding": "mapping",
        "key": "t_address",
        "label": "mapping(address => uint256)",
        "numberOfBytes": "32",
        "value": "t_uint256"
      },
      "t_mapping(t_uint256,t_address)": {
        "encoding": "mapping",
        "key": "t_uint256",
        "label": "mapping(uint256 => address)",
        "numberOfBytes": "32",
        "value": "t_address"
      },
      "t_uint256": {
        "encoding": "inplace",
        "label": "uint256",
        "numberOfBytes": "32"
      }
    }
  }
}