{
  "address": "0x85C7287Fc53a06EC7995Db5AE6f2610200Ec0F85",
  "abi": [
    {
      "inputs": [
        {
          "internalType": "address",
          "name": "tokenAddress",
          "type": "address"
        }
      ],
      "name": "InvalidRebasingTokenAddress",
      "type": "error"
    },
    {
      "inputs": [
        {
          "internalType": "address",
          "name": "tokenAddress",
          "type": "address"
        }
      ],
      "name": "MetadataFetchFailed",
      "type": "error"
    },
    {
      "inputs": [
        {
          "internalType": "address",
          "name": "rebasingTokenAddress",
          "type": "address"
        }
      ],
      "name": "WrapperAlreadyExists",
      "type": "error"
    },
    {
      "anonymous": false,
      "inputs": [
        {
          "indexed": true,
          "internalType": "address",
          "name": "rebasingToken",
          "type": "address"
        },
        {
          "indexed": true,
          "internalType": "address",
          "name": "wrapper",
          "type": "address"
        },
        {
          "indexed": false,
          "internalType": "string",
          "name": "name",
          "type": "string"
        },
        {
          "indexed": false,
          "internalType": "string",
          "name": "symbol",
          "type": "string"
        }
      ],
      "name": "WrapperCreated",
      "type": "event"
    },
    {
      "inputs": [
        {
          "internalType": "address",
          "name": "rebasingToken",
          "type": "address"
        }
      ],
      "name": "createWrapper",
      "outputs": [
        {
          "internalType": "address",
          "name": "",
          "type": "address"
        }
      ],
      "stateMutability": "nonpayable",
      "type": "function"
    },
    {
      "inputs": [
        {
          "internalType": "address",
          "name": "",
          "type": "address"
        }
      ],
      "name": "wrapperByRebasingToken",
      "outputs": [
        {
          "internalType": "address",
          "name": "",
          "type": "address"
        }
      ],
      "stateMutability": "view",
      "type": "function"
    }
  ],
  "transactionHash": "0x10aa0a15ef5c70037abd0ca1fc94a3d50ee90ffd753a2e223a86fbc04b0cfe60",
  "args": [],
  "numDeployments": 1,
  "solcInputHash": "b19694004a83761ea26f3bbb470ba26a",
  "bytecode": "0x6080806040523461001657611a4c908161001c8239f35b600080fdfe608060408181526004803610156200001657600080fd5b600092833560e01c908163a7c4f0ef1462000081575063c00a2fca146200003c57600080fd5b346200007d5760203660031901126200007d576001600160a01b039035818116908190036200007957838391602095528085522054169051908152f35b8380fd5b8280fd5b919290503462000079576020938460031936011262000328576001600160a01b03843581811694908590036200007d578415620003135750838252818652808383205416620002fc5782516306fdde0360e01b815282818781885afa839181620002dc575b506200010357835163cb14bda160e01b8152808701869052602490fd5b9083516395d89b4160e01b815283818881895afa849181620002b3575b506200013d57845163cb14bda160e01b8152808801879052602490fd5b95919294939591620001846028885180966702bb930b83832b2160c51b8c830152620001738c8251928391868601910162000364565b81010360088101875201856200032b565b620001bd602188518095607760f81b8c830152620001ac8c8251928391868601910162000364565b81010360018101865201846200032b565b8651906115ec8083019183831067ffffffffffffffff841117620002a05750829162000210916200042b843987815260608b82015262000201606082018862000403565b908a8183039101528562000403565b039086f080156200029657926200028d7f1f33a798dbb84fe93afa2552f4455ec4e5886a23b7d73e63317c6e9b08b3fdc9936200027f9389989796169887878b9952808c5220876bffffffffffffffffffffffff60a01b82541617905587519384938985528985019062000403565b908382038b85015262000403565b0390a351908152f35b86513d87823e3d90fd5b634e487b7160e01b895260419052602488fd5b620002d49192503d8087833e620002cb81836200032b565b81019062000389565b903862000120565b620002f49192503d8086833e620002cb81836200032b565b9038620000e6565b50505163a02494a560e01b81529182015260249150fd5b632849897960e11b8152858101859052602490fd5b80fd5b90601f8019910116810190811067ffffffffffffffff8211176200034e57604052565b634e487b7160e01b600052604160045260246000fd5b60005b838110620003785750506000910152565b818101518382015260200162000367565b602081830312620003fe57805167ffffffffffffffff91828211620003fe57019082601f83011215620003fe5781519081116200034e5760405192620003da601f8301601f1916602001856200032b565b81845260208284010111620003fe57620003fb916020808501910162000364565b90565b600080fd5b906020916200041e8151809281855285808601910162000364565b601f01601f191601019056fe60c080604052346200038257620015ec803803809162000020828562000387565b8339810190606081830312620003825780516001600160a01b0381169290839003620003825760208281015190926001600160401b03918281116200038257836200006d918301620003c7565b9260408201518381116200038257620000879201620003c7565b825182811162000282576003918254916001958684811c9416801562000377575b8885101462000361578190601f948581116200030b575b508890858311600114620002a45760009262000298575b505060001982861b1c191690861b1783555b8051938411620002825760049586548681811c9116801562000277575b82821014620002625783811162000217575b5080928511600114620001a957509383949184926000956200019d575b50501b92600019911b1c19161790555b6200014f8162000431565b901562000194575b60a0526080526040516110f49081620004f8823960805181818161051101528181610ae901528181610c7e0152610e2a015260a051816105560152f35b50601262000157565b01519350388062000134565b92919084601f1981168860005285600020956000905b89838310620001fc5750505010620001e1575b50505050811b01905562000144565b01519060f884600019921b161c1916905538808080620001d2565b858701518955909701969485019488935090810190620001bf565b87600052816000208480880160051c82019284891062000258575b0160051c019087905b8281106200024b57505062000117565b600081550187906200023b565b9250819262000232565b602288634e487b7160e01b6000525260246000fd5b90607f169062000105565b634e487b7160e01b600052604160045260246000fd5b015190503880620000d6565b90889350601f19831691876000528a6000209260005b8c828210620002f45750508411620002db575b505050811b018355620000e8565b015160001983881b60f8161c19169055388080620002cd565b8385015186558c97909501949384019301620002ba565b90915085600052886000208580850160051c8201928b861062000357575b918a91869594930160051c01915b82811062000347575050620000bf565b600081558594508a910162000337565b9250819262000329565b634e487b7160e01b600052602260045260246000fd5b93607f1693620000a8565b600080fd5b601f909101601f19168101906001600160401b038211908210176200028257604052565b6001600160401b0381116200028257601f01601f191660200190565b919080601f840112156200038257825190620003e382620003ab565b91620003f3604051938462000387565b808352602091828287010111620003825760005b8181106200041d57508260009394955001015290565b858101830151848201840152820162000407565b6040805163313ce56760e01b60208201908152600482529293929181016001600160401b0381118282101762000282576040525160009384928392916001600160a01b03165afa3d15620004ee573d906200048c82620003ab565b916200049c604051938462000387565b82523d84602084013e5b80620004e1575b620004b8575b508190565b602081805181010312620004dd576020015160ff8111620004b3576001925060ff1690565b8280fd5b50602081511015620004ad565b606090620004a656fe6040608081526004908136101561001557600080fd5b600090813560e01c92836301e1d114146107b057836306fdde03146106bd57836307a2d13a146104f8578363095ea7b3146106155783630a28a477146105f657836318160ddd146105d857836323b872dd1461059c578363313ce5671461054057836338d52e0f146104fd578363402d267d146102005783634cdad506146104f85783636e553f65146104c557836370a08231146104a557836394bf804d1461046e57836395d89b411461036b578363a9059cbb1461033b578363b3d7f6b91461031c578363b460af9414610290578363ba0876521461020557508263c63d75b614610200578263c6e6f59214610138578263ce96cb77146101c9578263d905777e14610188578263dd62ed3e1461013d57505063ef8b30f71461013857600080fd5b6108c7565b3461018457806003193601126101845780602092610159610840565b610161610856565b6001600160a01b0391821683526001865283832091168252845220549051908152f35b5080fd5b34610184576020366003190112610184576020906101c26101a7610840565b6001600160a01b031660009081526020819052604090205490565b9051908152f35b34610184576020366003190112610184576020916101c29082906001600160a01b036101f3610840565b1681528085522054610bf9565b61086c565b823461028d57829061021636610892565b6001600160a01b038116845260208490529590922054909493908086116102585750508361025291610249602096610bf9565b94859133610d41565b51908152f35b9251632e52afbb60e21b81526001600160a01b0390941690840190815260208101949094525060408301529081906060010390fd5b80fd5b829034610184576102c59183916102a636610892565b6001600160a01b03811685526020859052969093205490959490610bf9565b8086116102e757505061025290846102de602096610b5f565b94859233610d41565b9251633fa733bb60e21b81526001600160a01b0390941690840190815260208101949094525060408301529081906060010390fd5b913461028d57602036600319011261028d57506101c260209235610bce565b503461018457806003193601126101845760209061036461035a610840565b602435903361091d565b5160018152f35b925034610184578160031936011261018457805191809380549160019083821c92828516948515610464575b60209586861081146104515785895290811561042d57506001146103d5575b6103d187876103c7828c03836108e5565b51918291826107cc565b0390f35b81529295507f8a35acfbc15ff81a39ae7d344fd709f28e8600b4aa8c65c6b64bfe7fe36bd19b5b82841061041a57505050826103d1946103c7928201019438806103b6565b80548685018801529286019281016103fc565b60ff19168887015250505050151560051b83010192506103c7826103d138806103b6565b634e487b7160e01b845260228352602484fd5b93607f1693610397565b346104a157816003193601126104a15760209250359061025261048f610856565b9261049981610bce565b809433610c24565b8280fd5b5034610184576020366003190112610184576020906101c26101a7610840565b346104a157816003193601126104a1576020925035906102526104e6610856565b6104ef84610ba3565b93849133610c24565b610815565b5034610184578160031936011261018457517f00000000000000000000000000000000000000000000000000000000000000006001600160a01b03168152602090f35b92503461018457816003193601126101845760ff7f0000000000000000000000000000000000000000000000000000000000000000169160ff8311610589576020838351908152f35b634e487b7160e01b815260118452602490fd5b5034610184576060366003190112610184576020906103646105bc610840565b6105c4610856565b604435916105d38333836109fb565b61091d565b50346101845781600319360112610184576020906002549051908152f35b913461028d57602036600319011261028d57506101c260209235610b5f565b346104a157816003193601126104a15761062d610840565b6024359033156106a6576001600160a01b031691821561068f57508083602095338152600187528181208582528752205582519081527f8c5be1e5ebec7d5bd14f71427d1e84f3dd0314c0f7b2291e5b200ac8c7c3b925843392a35160018152f35b8351634a1406b160e11b8152908101859052602490fd5b835163e602df0560e01b8152808401869052602490fd5b90346104a157826003193601126104a157805191836003549060019082821c9282811680156107a6575b602095868610821461079357508488529081156107715750600114610718575b6103d186866103c7828b03836108e5565b929550600383527fc2575a0e9e593c00f959f8c92f12db2869c3395a3b0502d05e2516446f71f85b5b82841061075e57505050826103d1946103c7928201019486610707565b8054868501880152928601928101610741565b60ff191687860152505050151560051b83010192506103c7826103d186610707565b634e487b7160e01b845260229052602483fd5b93607f16936106e7565b50346101845781600319360112610184576020906101c2610ace565b6020808252825181830181905290939260005b82811061080157505060409293506000838284010152601f8019910116010190565b8181018601518482016040015285016107df565b3461083b57602036600319011261083b576020610833600435610bf9565b604051908152f35b600080fd5b600435906001600160a01b038216820361083b57565b602435906001600160a01b038216820361083b57565b3461083b57602036600319011261083b57610885610840565b5060206040516000198152f35b606090600319011261083b57600435906001600160a01b0390602435828116810361083b5791604435908116810361083b5790565b3461083b57602036600319011261083b576020610833600435610ba3565b90601f8019910116810190811067ffffffffffffffff82111761090757604052565b634e487b7160e01b600052604160045260246000fd5b916001600160a01b038084169283156109e257169283156109c95760009083825281602052604082205490838210610997575091604082827fddf252ad1be2c89b69c2b068fc378daa952ba7f163c4a11628f55a4df523b3ef958760209652828652038282205586815220818154019055604051908152a3565b60405163391434e360e21b81526001600160a01b03919091166004820152602481019190915260448101839052606490fd5b60405163ec442f0560e01b815260006004820152602490fd5b604051634b637e8f60e11b815260006004820152602490fd5b9160018060a01b038093169160009383855260016020526040938486209183169182875260205284862054926000198403610a3a575b50505050505050565b848410610a9e57508015610a86578115610a6e57855260016020528385209085526020520391205538808080808080610a31565b8451634a1406b160e11b815260048101879052602490fd5b845163e602df0560e01b815260048101879052602490fd5b8551637dc7a0d960e11b81526001600160a01b039190911660048201526024810184905260448101859052606490fd5b6040516370a0823160e01b81523060048201526020816024817f00000000000000000000000000000000000000000000000000000000000000006001600160a01b03165afa908115610b5357600091610b25575090565b906020823d8211610b4b575b81610b3e602093836108e5565b8101031261028d57505190565b3d9150610b31565b6040513d6000823e3d90fd5b60025460018101809111610b8d57610b75610ace565b9060018201809211610b8d57610b8a92610fe8565b90565b634e487b7160e01b600052601160045260246000fd5b60025460018101809111610b8d57610bb9610ace565b9060018201809211610b8d57610b8a92611028565b610bd6610ace565b60018101809111610b8d576002549060018201809211610b8d57610b8a92610fe8565b610c01610ace565b60018101809111610b8d576002549060018201809211610b8d57610b8a92611028565b604080516323b872dd60e01b60208201526001600160a01b0392831660248201819052306044830152606480830187905282529495939192919060a081019067ffffffffffffffff82118183101761090757610ca29185527f0000000000000000000000000000000000000000000000000000000000000000610eb1565b16938415610d295760025492808401809411610b8d577fdcbc1c05240f31ff3ad067ef1ee35ce4997762752e3a095284754544f4c709d793600255856000526000602052826000208181540190558560007fddf252ad1be2c89b69c2b068fc378daa952ba7f163c4a11628f55a4df523b3ef60208651858152a382519182526020820152a3565b815163ec442f0560e01b815260006004820152602490fd5b6001600160a01b038084169590948583169493909282888703610ea0575b505086156109e257600095878752866020526040948588205490848210610e6f57508390898952886020520385882055826002540360025586887fddf252ad1be2c89b69c2b068fc378daa952ba7f163c4a11628f55a4df523b3ef60208851878152a384519163a9059cbb60e01b6020840152169586602483015283604483015260448252608082019082821067ffffffffffffffff831117610e5b575084939291610e4e917ffbde797d201c681b91056529119e0b02407c7bb96a4a2c75c01fc9667232c8db96527f0000000000000000000000000000000000000000000000000000000000000000610eb1565b82519182526020820152a4565b634e487b7160e01b81526041600452602490fd5b865163391434e360e21b81526001600160a01b03919091166004820152602481019190915260448101849052606490fd5b610eaa91866109fb565b3882610d5f565b60018060a01b031690600080826020829451910182865af13d15610f79573d9067ffffffffffffffff8211610f655790610f0d9160405191610efd6020601f19601f84011601846108e5565b82523d84602084013e5b84610f85565b908151918215159283610f3d575b505050610f255750565b60249060405190635274afe760e01b82526004820152fd5b81929350906020918101031261018457602001519081159182150361028d5750388080610f1b565b634e487b7160e01b83526041600452602483fd5b610f0d90606090610f07565b90610fac5750805115610f9a57805190602001fd5b604051630a12f52160e11b8152600490fd5b81511580610fdf575b610fbd575090565b604051639996b31560e01b81526001600160a01b039091166004820152602490fd5b50803b15610fb5565b9190610ff5828285611028565b92821561101257096110045790565b60018101809111610b8d5790565b634e487b7160e01b600052601260045260246000fd5b909182820291600019848209938380861095039480860395146110b0578483111561109e5782910981600003821680920460028082600302188083028203028083028203028083028203028083028203028083028203028092029003029360018380600003040190848311900302920304170290565b60405163227bc15360e01b8152600490fd5b50508092501561101257049056fea2646970667358221220392e97899f415b0627590429703249192c5299510b97afc1d8b756c14da97f8a64736f6c63430008140033a264697066735822122014135e4ada7843ea36d127e86bf9467296a202f4ae0fb1fb5bf92918f8dc3efe64736f6c63430008140033",
  "devdoc": {
    "details": "Factory contract for creating RebasingTokenWrapper instances. Allows permissionless creation.",
    "kind": "dev",
    "methods": {
      "createWrapper(address)": {
        "details": "Creates a new wrapper for a rebasing token. Name and symbol are generated automatically.",
        "params": {
          "rebasingToken": "The address of the rebasing token to wrap."
        },
        "returns": {
          "_0": "The address of the created wrapper."
        }
      }
    },
    "title": "RebasingTokenWrapperFactory",
    "version": 1
  },
  "userdoc": {
    "kind": "user",
    "methods": {},
    "version": 1
  },
  "storageLayout": {
    "storage": [
      {
        "astId": 3316,
        "contract": "contracts/token/RebasingTokenWrapper.sol:RebasingTokenWrapperFactory",
        "label": "wrapperByRebasingToken",
        "offset": 0,
        "slot": "0",
        "type": "t_mapping(t_address,t_address)"
      }
    ],
    "types": {
      "t_address": {
        "encoding": "inplace",
        "label": "address",
        "numberOfBytes": "20"
      },
      "t_mapping(t_address,t_address)": {
        "encoding": "mapping",
        "key": "t_address",
        "label": "mapping(address => address)",
        "numberOfBytes": "32",
        "value": "t_address"
      }
    }
  }
}