{
  "address": "0xACD97c7d23A0534d79439B8d065D6D9D772Ec949",
  "abi": [
    {
      "inputs": [
        {
          "internalType": "address",
          "name": "_collateralVault",
          "type": "address"
        },
        {
          "internalType": "address",
          "name": "_dusd",
          "type": "address"
        },
        {
          "internalType": "contract IPriceOracleGetter",
          "name": "_oracle",
          "type": "address"
        },
        {
          "internalType": "address",
          "name": "_initialFeeReceiver",
          "type": "address"
        },
        {
          "internalType": "uint256",
          "name": "_initialRedemptionFeeBps",
          "type": "uint256"
        }
      ],
      "stateMutability": "nonpayable",
      "type": "constructor"
    },
    {
      "inputs": [],
      "name": "AccessControlBadConfirmation",
      "type": "error"
    },
    {
      "inputs": [
        {
          "internalType": "address",
          "name": "account",
          "type": "address"
        },
        {
          "internalType": "bytes32",
          "name": "neededRole",
          "type": "bytes32"
        }
      ],
      "name": "AccessControlUnauthorizedAccount",
      "type": "error"
    },
    {
      "inputs": [
        {
          "internalType": "address",
          "name": "asset",
          "type": "address"
        }
      ],
      "name": "AssetRedemptionPaused",
      "type": "error"
    },
    {
      "inputs": [],
      "name": "CannotBeZeroAddress",
      "type": "error"
    },
    {
      "inputs": [
        {
          "internalType": "address",
          "name": "recipient",
          "type": "address"
        },
        {
          "internalType": "uint256",
          "name": "amount",
          "type": "uint256"
        },
        {
          "internalType": "address",
          "name": "token",
          "type": "address"
        }
      ],
      "name": "CollateralTransferFailed",
      "type": "error"
    },
    {
      "inputs": [],
      "name": "DUsdTransferFailed",
      "type": "error"
    },
    {
      "inputs": [],
      "name": "EnforcedPause",
      "type": "error"
    },
    {
      "inputs": [],
      "name": "ExpectedPause",
      "type": "error"
    },
    {
      "inputs": [
        {
          "internalType": "uint256",
          "name": "requestedFeeBps",
          "type": "uint256"
        },
        {
          "internalType": "uint256",
          "name": "maxFeeBps",
          "type": "uint256"
        }
      ],
      "name": "FeeTooHigh",
      "type": "error"
    },
    {
      "inputs": [
        {
          "internalType": "uint256",
          "name": "baseCurrencyUnit",
          "type": "uint256"
        }
      ],
      "name": "IncorrectBaseCurrencyUnit",
      "type": "error"
    },
    {
      "inputs": [],
      "name": "MathOverflowedMulDiv",
      "type": "error"
    },
    {
      "inputs": [],
      "name": "ReentrancyGuardReentrantCall",
      "type": "error"
    },
    {
      "inputs": [
        {
          "internalType": "uint256",
          "name": "actualCollateral",
          "type": "uint256"
        },
        {
          "internalType": "uint256",
          "name": "minCollateral",
          "type": "uint256"
        }
      ],
      "name": "SlippageTooHigh",
      "type": "error"
    },
    {
      "inputs": [
        {
          "internalType": "address",
          "name": "collateralAsset",
          "type": "address"
        }
      ],
      "name": "UnsupportedCollateral",
      "type": "error"
    },
    {
      "anonymous": false,
      "inputs": [
        {
          "indexed": true,
          "internalType": "address",
          "name": "asset",
          "type": "address"
        },
        {
          "indexed": false,
          "internalType": "bool",
          "name": "paused",
          "type": "bool"
        }
      ],
      "name": "AssetRedemptionPauseUpdated",
      "type": "event"
    },
    {
      "anonymous": false,
      "inputs": [
        {
          "indexed": true,
          "internalType": "address",
          "name": "collateralAsset",
          "type": "address"
        },
        {
          "indexed": false,
          "internalType": "uint256",
          "name": "oldFeeBps",
          "type": "uint256"
        },
        {
          "indexed": false,
          "internalType": "uint256",
          "name": "newFeeBps",
          "type": "uint256"
        }
      ],
      "name": "CollateralRedemptionFeeUpdated",
      "type": "event"
    },
    {
      "anonymous": false,
      "inputs": [
        {
          "indexed": true,
          "internalType": "address",
          "name": "collateralVault",
          "type": "address"
        }
      ],
      "name": "CollateralVaultSet",
      "type": "event"
    },
    {
      "anonymous": false,
      "inputs": [
        {
          "indexed": false,
          "internalType": "uint256",
          "name": "oldFeeBps",
          "type": "uint256"
        },
        {
          "indexed": false,
          "internalType": "uint256",
          "name": "newFeeBps",
          "type": "uint256"
        }
      ],
      "name": "DefaultRedemptionFeeUpdated",
      "type": "event"
    },
    {
      "anonymous": false,
      "inputs": [
        {
          "indexed": true,
          "internalType": "address",
          "name": "oldFeeReceiver",
          "type": "address"
        },
        {
          "indexed": true,
          "internalType": "address",
          "name": "newFeeReceiver",
          "type": "address"
        }
      ],
      "name": "FeeReceiverUpdated",
      "type": "event"
    },
    {
      "anonymous": false,
      "inputs": [
        {
          "indexed": true,
          "internalType": "address",
          "name": "newOracle",
          "type": "address"
        }
      ],
      "name": "OracleSet",
      "type": "event"
    },
    {
      "anonymous": false,
      "inputs": [
        {
          "indexed": false,
          "internalType": "address",
          "name": "account",
          "type": "address"
        }
      ],
      "name": "Paused",
      "type": "event"
    },
    {
      "anonymous": false,
      "inputs": [
        {
          "indexed": true,
          "internalType": "address",
          "name": "redeemer",
          "type": "address"
        },
        {
          "indexed": true,
          "internalType": "address",
          "name": "collateralAsset",
          "type": "address"
        },
        {
          "indexed": false,
          "internalType": "uint256",
          "name": "dusdAmount",
          "type": "uint256"
        },
        {
          "indexed": false,
          "internalType": "uint256",
          "name": "collateralAmountToRedeemer",
          "type": "uint256"
        },
        {
          "indexed": false,
          "internalType": "uint256",
          "name": "feeAmountCollateral",
          "type": "uint256"
        }
      ],
      "name": "Redemption",
      "type": "event"
    },
    {
      "anonymous": false,
      "inputs": [
        {
          "indexed": true,
          "internalType": "bytes32",
          "name": "role",
          "type": "bytes32"
        },
        {
          "indexed": true,
          "internalType": "bytes32",
          "name": "previousAdminRole",
          "type": "bytes32"
        },
        {
          "indexed": true,
          "internalType": "bytes32",
          "name": "newAdminRole",
          "type": "bytes32"
        }
      ],
      "name": "RoleAdminChanged",
      "type": "event"
    },
    {
      "anonymous": false,
      "inputs": [
        {
          "indexed": true,
          "internalType": "bytes32",
          "name": "role",
          "type": "bytes32"
        },
        {
          "indexed": true,
          "internalType": "address",
          "name": "account",
          "type": "address"
        },
        {
          "indexed": true,
          "internalType": "address",
          "name": "sender",
          "type": "address"
        }
      ],
      "name": "RoleGranted",
      "type": "event"
    },
    {
      "anonymous": false,
      "inputs": [
        {
          "indexed": true,
          "internalType": "bytes32",
          "name": "role",
          "type": "bytes32"
        },
        {
          "indexed": true,
          "internalType": "address",
          "name": "account",
          "type": "address"
        },
        {
          "indexed": true,
          "internalType": "address",
          "name": "sender",
          "type": "address"
        }
      ],
      "name": "RoleRevoked",
      "type": "event"
    },
    {
      "anonymous": false,
      "inputs": [
        {
          "indexed": false,
          "internalType": "address",
          "name": "account",
          "type": "address"
        }
      ],
      "name": "Unpaused",
      "type": "event"
    },
    {
      "inputs": [],
      "name": "DEFAULT_ADMIN_ROLE",
      "outputs": [
        {
          "internalType": "bytes32",
          "name": "",
          "type": "bytes32"
        }
      ],
      "stateMutability": "view",
      "type": "function"
    },
    {
      "inputs": [],
      "name": "MAX_FEE_BPS",
      "outputs": [
        {
          "internalType": "uint256",
          "name": "",
          "type": "uint256"
        }
      ],
      "stateMutability": "view",
      "type": "function"
    },
    {
      "inputs": [],
      "name": "PAUSER_ROLE",
      "outputs": [
        {
          "internalType": "bytes32",
          "name": "",
          "type": "bytes32"
        }
      ],
      "stateMutability": "view",
      "type": "function"
    },
    {
      "inputs": [],
      "name": "REDEMPTION_MANAGER_ROLE",
      "outputs": [
        {
          "internalType": "bytes32",
          "name": "",
          "type": "bytes32"
        }
      ],
      "stateMutability": "view",
      "type": "function"
    },
    {
      "inputs": [
        {
          "internalType": "address",
          "name": "",
          "type": "address"
        }
      ],
      "name": "assetRedemptionPaused",
      "outputs": [
        {
          "internalType": "bool",
          "name": "",
          "type": "bool"
        }
      ],
      "stateMutability": "view",
      "type": "function"
    },
    {
      "inputs": [],
      "name": "baseCurrencyUnit",
      "outputs": [
        {
          "internalType": "uint256",
          "name": "",
          "type": "uint256"
        }
      ],
      "stateMutability": "view",
      "type": "function"
    },
    {
      "inputs": [
        {
          "internalType": "address",
          "name": "_collateralAsset",
          "type": "address"
        }
      ],
      "name": "clearCollateralRedemptionFee",
      "outputs": [],
      "stateMutability": "nonpayable",
      "type": "function"
    },
    {
      "inputs": [
        {
          "internalType": "address",
          "name": "",
          "type": "address"
        }
      ],
      "name": "collateralRedemptionFeeBps",
      "outputs": [
        {
          "internalType": "uint256",
          "name": "",
          "type": "uint256"
        }
      ],
      "stateMutability": "view",
      "type": "function"
    },
    {
      "inputs": [],
      "name": "collateralVault",
      "outputs": [
        {
          "internalType": "contract CollateralVault",
          "name": "",
          "type": "address"
        }
      ],
      "stateMutability": "view",
      "type": "function"
    },
    {
      "inputs": [],
      "name": "defaultRedemptionFeeBps",
      "outputs": [
        {
          "internalType": "uint256",
          "name": "",
          "type": "uint256"
        }
      ],
      "stateMutability": "view",
      "type": "function"
    },
    {
      "inputs": [],
      "name": "dusd",
      "outputs": [
        {
          "internalType": "contract IERC20Stablecoin",
          "name": "",
          "type": "address"
        }
      ],
      "stateMutability": "view",
      "type": "function"
    },
    {
      "inputs": [
        {
          "internalType": "uint256",
          "name": "dusdAmount",
          "type": "uint256"
        }
      ],
      "name": "dusdAmountToBaseValue",
      "outputs": [
        {
          "internalType": "uint256",
          "name": "",
          "type": "uint256"
        }
      ],
      "stateMutability": "view",
      "type": "function"
    },
    {
      "inputs": [],
      "name": "dusdDecimals",
      "outputs": [
        {
          "internalType": "uint8",
          "name": "",
          "type": "uint8"
        }
      ],
      "stateMutability": "view",
      "type": "function"
    },
    {
      "inputs": [],
      "name": "feeReceiver",
      "outputs": [
        {
          "internalType": "address",
          "name": "",
          "type": "address"
        }
      ],
      "stateMutability": "view",
      "type": "function"
    },
    {
      "inputs": [
        {
          "internalType": "bytes32",
          "name": "role",
          "type": "bytes32"
        }
      ],
      "name": "getRoleAdmin",
      "outputs": [
        {
          "internalType": "bytes32",
          "name": "",
          "type": "bytes32"
        }
      ],
      "stateMutability": "view",
      "type": "function"
    },
    {
      "inputs": [
        {
          "internalType": "bytes32",
          "name": "role",
          "type": "bytes32"
        },
        {
          "internalType": "address",
          "name": "account",
          "type": "address"
        }
      ],
      "name": "grantRole",
      "outputs": [],
      "stateMutability": "nonpayable",
      "type": "function"
    },
    {
      "inputs": [
        {
          "internalType": "bytes32",
          "name": "role",
          "type": "bytes32"
        },
        {
          "internalType": "address",
          "name": "account",
          "type": "address"
        }
      ],
      "name": "hasRole",
      "outputs": [
        {
          "internalType": "bool",
          "name": "",
          "type": "bool"
        }
      ],
      "stateMutability": "view",
      "type": "function"
    },
    {
      "inputs": [
        {
          "internalType": "address",
          "name": "asset",
          "type": "address"
        }
      ],
      "name": "isAssetRedemptionEnabled",
      "outputs": [
        {
          "internalType": "bool",
          "name": "",
          "type": "bool"
        }
      ],
      "stateMutability": "view",
      "type": "function"
    },
    {
      "inputs": [
        {
          "internalType": "address",
          "name": "",
          "type": "address"
        }
      ],
      "name": "isCollateralFeeOverridden",
      "outputs": [
        {
          "internalType": "bool",
          "name": "",
          "type": "bool"
        }
      ],
      "stateMutability": "view",
      "type": "function"
    },
    {
      "inputs": [],
      "name": "oracle",
      "outputs": [
        {
          "internalType": "contract IPriceOracleGetter",
          "name": "",
          "type": "address"
        }
      ],
      "stateMutability": "view",
      "type": "function"
    },
    {
      "inputs": [],
      "name": "pauseRedemption",
      "outputs": [],
      "stateMutability": "nonpayable",
      "type": "function"
    },
    {
      "inputs": [],
      "name": "paused",
      "outputs": [
        {
          "internalType": "bool",
          "name": "",
          "type": "bool"
        }
      ],
      "stateMutability": "view",
      "type": "function"
    },
    {
      "inputs": [
        {
          "internalType": "uint256",
          "name": "dusdAmount",
          "type": "uint256"
        },
        {
          "internalType": "address",
          "name": "collateralAsset",
          "type": "address"
        },
        {
          "internalType": "uint256",
          "name": "minNetCollateral",
          "type": "uint256"
        }
      ],
      "name": "redeem",
      "outputs": [],
      "stateMutability": "nonpayable",
      "type": "function"
    },
    {
      "inputs": [
        {
          "internalType": "uint256",
          "name": "dusdAmount",
          "type": "uint256"
        },
        {
          "internalType": "address",
          "name": "collateralAsset",
          "type": "address"
        },
        {
          "internalType": "uint256",
          "name": "minCollateral",
          "type": "uint256"
        }
      ],
      "name": "redeemAsProtocol",
      "outputs": [],
      "stateMutability": "nonpayable",
      "type": "function"
    },
    {
      "inputs": [
        {
          "internalType": "bytes32",
          "name": "role",
          "type": "bytes32"
        },
        {
          "internalType": "address",
          "name": "callerConfirmation",
          "type": "address"
        }
      ],
      "name": "renounceRole",
      "outputs": [],
      "stateMutability": "nonpayable",
      "type": "function"
    },
    {
      "inputs": [
        {
          "internalType": "bytes32",
          "name": "role",
          "type": "bytes32"
        },
        {
          "internalType": "address",
          "name": "account",
          "type": "address"
        }
      ],
      "name": "revokeRole",
      "outputs": [],
      "stateMutability": "nonpayable",
      "type": "function"
    },
    {
      "inputs": [
        {
          "internalType": "address",
          "name": "asset",
          "type": "address"
        },
        {
          "internalType": "bool",
          "name": "paused",
          "type": "bool"
        }
      ],
      "name": "setAssetRedemptionPause",
      "outputs": [],
      "stateMutability": "nonpayable",
      "type": "function"
    },
    {
      "inputs": [
        {
          "internalType": "uint256",
          "name": "_newBaseCurrencyUnit",
          "type": "uint256"
        }
      ],
      "name": "setBaseCurrencyUnit",
      "outputs": [],
      "stateMutability": "nonpayable",
      "type": "function"
    },
    {
      "inputs": [
        {
          "internalType": "address",
          "name": "_collateralAsset",
          "type": "address"
        },
        {
          "internalType": "uint256",
          "name": "_newFeeBps",
          "type": "uint256"
        }
      ],
      "name": "setCollateralRedemptionFee",
      "outputs": [],
      "stateMutability": "nonpayable",
      "type": "function"
    },
    {
      "inputs": [
        {
          "internalType": "address",
          "name": "_collateralVault",
          "type": "address"
        }
      ],
      "name": "setCollateralVault",
      "outputs": [],
      "stateMutability": "nonpayable",
      "type": "function"
    },
    {
      "inputs": [
        {
          "internalType": "uint256",
          "name": "_newFeeBps",
          "type": "uint256"
        }
      ],
      "name": "setDefaultRedemptionFee",
      "outputs": [],
      "stateMutability": "nonpayable",
      "type": "function"
    },
    {
      "inputs": [
        {
          "internalType": "address",
          "name": "_newFeeReceiver",
          "type": "address"
        }
      ],
      "name": "setFeeReceiver",
      "outputs": [],
      "stateMutability": "nonpayable",
      "type": "function"
    },
    {
      "inputs": [
        {
          "internalType": "contract IPriceOracleGetter",
          "name": "newOracle",
          "type": "address"
        }
      ],
      "name": "setOracle",
      "outputs": [],
      "stateMutability": "nonpayable",
      "type": "function"
    },
    {
      "inputs": [
        {
          "internalType": "bytes4",
          "name": "interfaceId",
          "type": "bytes4"
        }
      ],
      "name": "supportsInterface",
      "outputs": [
        {
          "internalType": "bool",
          "name": "",
          "type": "bool"
        }
      ],
      "stateMutability": "view",
      "type": "function"
    },
    {
      "inputs": [],
      "name": "unpauseRedemption",
      "outputs": [],
      "stateMutability": "nonpayable",
      "type": "function"
    }
  ],
  "transactionHash": "0x1f4ea09607997480543cc6bae93e4964765f1545b2946bf5c1f70570afea9ec5",
  "args": [
    "0x624E12dE7a97B8cFc1AD1F050a1c9263b1f4FeBC",
    "0x788D96f655735f52c676A133f4dFC53cEC614d4A",
    "0xFA7560956807d95DCeF22990DdD92e38DbAf5cDd",
    "0xfC2f89F9982BE98A9672CEFc3Ea6dBBdd88bc8e9",
    4000
  ],
  "numDeployments": 1,
  "solcInputHash": "7380433260061c6444fb1fe04befd785",
  "bytecode": "0x60c060409080825234620003625760a08162001d2280380380916200002582856200037a565b83398101031262000362576200003b81620003b4565b60206200004a818401620003b4565b838501516001600160a01b038082169592949291869003620003625760806200007660608401620003b4565b92015194875192638c89b64f60e01b8452600494868587818c5afa9485156200036f5760009562000335575b50839060018060a01b0319958a876001541617600155600255620000c633620003c9565b5060ff1960035416600355600187551697881590811562000329575b81156200031f575b506200030f5782169687156200030f5761c35080608052808811620002f35750918591849386956006541617600655168083600554161760055588519384809263313ce56760e01b82525afa8015620002e85786926000916200029c575b5060a0526007541617600755826008556200016333620003c9565b5060008051602062001d02833981519152600052600082526001856000200154806000528560002033600052835260ff866000205416156200027f5750620001ab3362000449565b5060008051602062001ce2833981519152600052600082526001856000200154806000528560002033600052835260ff866000205416156200027f57857f261a1976409379837155987d2c6a5667d9473be9504ab5387b4dc8ff65da6eb2818787876200021833620004da565b5083519260007fa92ff4390fe6943f0b30e8fe715dde86f85ab79b2b2c640a10fc094cc4036cc88180a360008352820152a15161175b90816200056782396080518181816102b9015281816106dd01526109ba015260a051818181610bff015261115d0152f35b6044925085519163e2517d3f60e01b835233908301526024820152fd5b909192508481813d8311620002e0575b620002b881836200037a565b81010312620002dc57519060ff82168203620002d957509085913862000148565b80fd5b5080fd5b503d620002ac565b87513d6000823e3d90fd5b85604491898c51926373ab893560e11b84528301526024820152fd5b8851631e7d738760e21b81528590fd5b90501538620000ea565b838516159150620000e2565b9094508681813d831162000367575b6200035081836200037a565b810103126200036257519383620000a2565b600080fd5b503d62000344565b8a513d6000823e3d90fd5b601f909101601f19168101906001600160401b038211908210176200039e57604052565b634e487b7160e01b600052604160045260246000fd5b51906001600160a01b03821682036200036257565b6001600160a01b031660008181527fad3228b676f7d3cd4284a5443f17f1962b36e491b30a40b2405849e597ba5fb5602052604081205490919060ff166200044557818052816020526040822081835260205260408220600160ff19825416179055339160008051602062001cc28339815191528180a4600190565b5090565b6001600160a01b031660008181527f44fc73d2262b57a66d75404c7d11906326ef0260bbf18c0d8a6b3309e74a0523602052604081205490919060008051602062001d028339815191529060ff16620004d557808352826020526040832082845260205260408320600160ff1982541617905560008051602062001cc2833981519152339380a4600190565b505090565b6001600160a01b031660008181527ff7c9542c591017a21c74b6f3fab6263c7952fc0aaf9db4c22a2a04ddc7f8674f602052604081205490919060008051602062001ce28339815191529060ff16620004d557808352826020526040832082845260205260408320600160ff1982541617905560008051602062001cc2833981519152339380a460019056fe608060408181526004918236101561001657600080fd5b600092833560e01c91826301ffc9a7146110a7575081630bece79c1461107e5781631489f10b1461105457816314aa112214610e2e5781631cd7ec9214610e0f5781631d9f78bb14610dd75781631ee7b5b114610cdf578163248a9ca314610cb55781632f2ff15d14610c8b57816336568abe14610c455781634a0bbabb14610c2357816352816b6814610be55781635c975abb14610bc157816368a806c414610b535781637adbf97314610a5e5781637dc0d1d014610a3557816387c0d8e81461099b5781638ade91ec146109605781638d044c06146108f657816391d14854146108b057816392bccb80146108555781639e3a4a8d146107c1578163a217fddf146107a6578163b3f006741461077d578163bfc1a7ad1461073f578163d547741f14610700578163d55be8c6146106c5578163d878016114610400578163dadf4890146103c2578163de1409ce14610399578163e63ab1e91461035e578163ef8fa40f14610280578163efdcd974146101f557508063f0bf7603146101c75763f3bddde1146101a657600080fd5b346101c357816003193601126101c3576020906002549051908152f35b5080fd5b50346101c35760203660031901126101c3576020906101ec6101e76110fa565b611210565b90519015158152f35b90503461027c57602036600319011261027c576102106110fa565b9061021961142e565b6001600160a01b0391821692831561026f575050600754826bffffffffffffffffffffffff60a01b821617600755167fa92ff4390fe6943f0b30e8fe715dde86f85ab79b2b2c640a10fc094cc4036cc88380a380f35b51631e7d738760e21b8152fd5b8280fd5b9190503461027c578060031936011261027c5761029b6110fa565b602435906102a761142e565b6001600160a01b0316928315610350577f0000000000000000000000000000000000000000000000000000000000000000808311610336575050907ff57528c54dc2b58b410fa6141e1c2923da55bf8a7193244e8d60ad07c5e5db7e918385526009602052818520908082549255600a602052828620600160ff1982541617905582519182526020820152a280f35b6044928451926373ab893560e11b84528301526024820152fd5b8251631e7d738760e21b8152fd5b5050346101c357816003193601126101c357602090517f65d7a28e3265b37a6474929f336521b332c1681b933f6cb9f3376673440d862a8152f35b5050346101c357816003193601126101c35760055490516001600160a01b039091168152602090f35b5050346101c35760203660031901126101c35760209160ff9082906001600160a01b036103ed6110fa565b168152600a855220541690519015158152f35b839150346101c3576104113661112b565b61041c92919261148e565b6104246114ac565b6006548651637d35e97760e11b81526001600160a01b03858116878301819052602099909690939092908216908a81602481855afa9081156106bb578a9161068e575b501561067757868952600b8a5260ff848a205416610660579089836104c0949361049089611155565b8751632e11f7b760e11b8152808d019182526001600160a01b039093166020820152919586928391829160400190565b03915afa928315610656578993610623575b50868952600a8a528389205460ff161561061a5760098a5283892054945b899580610607575b508584039384116105f4578084106105d85750610517838388336114cf565b84610558575b50506001969782519485528401528201527f4f808f68134f8b72b842a276c2b37b03415d4992c65a94fcee50d33201915b9960603392a35580f35b80600654169060075416813b156105d457845163627160f360e11b81526001600160a01b03918216818b01908152602081018890529190931660408201528991839182908490829060600103925af180156105ca576105b8575b8061051d565b966105c46001986111ac565b966105b2565b83513d8a823e3d90fd5b8980fd5b8860449185875192633b5d56ed60e11b84528301526024820152fd5b634e487b7160e01b8a526011895260248afd5b6106139196508461129d565b948b6104f8565b600854946104f0565b9092508981813d831161064f575b61063b81836111d6565b8101031261064b5751918a6104d2565b8880fd5b503d610631565b84513d8b823e3d90fd5b8351632572cfc960e01b8152808901889052602490fd5b8351632762993f60e11b8152808901889052602490fd5b6106ae91508b3d8d116106b4575b6106a681836111d6565b8101906111f8565b8b610467565b503d61069c565b85513d8c823e3d90fd5b5050346101c357816003193601126101c357602090517f00000000000000000000000000000000000000000000000000000000000000008152f35b9190503461027c578060031936011261027c5761073b91356107366001610725611115565b938387528660205286200154611468565b6116b0565b5080f35b5050346101c35760203660031901126101c35760209160ff9082906001600160a01b0361076a6110fa565b168152600b855220541690519015158152f35b5050346101c357816003193601126101c35760075490516001600160a01b039091168152602090f35b5050346101c357816003193601126101c35751908152602090f35b9190503461027c57602036600319011261027c576107dd6110fa565b6107e561142e565b6001600160a01b031691821561084757507ff57528c54dc2b58b410fa6141e1c2923da55bf8a7193244e8d60ad07c5e5db7e9082845260096020528084208481549155600a60205281852060ff1981541690558151908152846020820152a280f35b9051631e7d738760e21b8152fd5b5050346101c357816003193601126101c35760207f62e78cea01bee320cd4e420270b5ea74000d11b0c9f74754ebdbfc544b05a258916108936113b4565b61089b61148e565b600160ff19600354161760035551338152a180f35b90503461027c578160031936011261027c578160209360ff926108d1611115565b903582528186528282206001600160a01b039091168252855220549151911615158152f35b90503461027c578260031936011261027c576109106113b4565b6003549060ff821615610952575060ff1916600355513381527f5db9ee0a495bf2e6ff9c91a7834c1ba4fdd244a5e8aa4e537bd38aeae4b073aa90602090a180f35b8251638dfc202b60e01b8152fd5b5050346101c357816003193601126101c357602090517fe5bea7d829f723a95a0c83a655765be37702fa584514c1e2a20867d04b58478e8152f35b8383346101c35760203660031901126101c35782356109b861142e565b7f0000000000000000000000000000000000000000000000000000000000000000808211610a1a5750907f261a1976409379837155987d2c6a5667d9473be9504ab5387b4dc8ff65da6eb291600854908060085582519182526020820152a180f35b849160449351926373ab893560e11b84528301526024820152fd5b5050346101c357816003193601126101c35760015490516001600160a01b039091168152602090f35b90503461027c57602036600319011261027c5780356001600160a01b0381169290839003610b4f57610a8e61142e565b8051638c89b64f60e01b8152906020828481875afa918215610b45578592610b0d575b50600254809203610af8575050600180546001600160a01b03191683179055507f3f32684a32a11dabdbb8c0177de80aa3ae36a004d75210335b49e544e48cd0aa8280a280f35b51639b6812b960e01b81529182015260249150fd5b9091506020813d602011610b3d575b81610b29602093836111d6565b81010312610b3957519038610ab1565b8480fd5b3d9150610b1c565b81513d87823e3d90fd5b8380fd5b90503461027c57602036600319011261027c57610b6e6110fa565b610b7661142e565b6001600160a01b031691821561026f575050600680546001600160a01b031916821790557fc92ec24b34ad9d3aa14cd5be87b888d7790d40903da5f44c6367b2fb6cdb20838280a280f35b5050346101c357816003193601126101c35760209060ff6003541690519015158152f35b5050346101c357816003193601126101c3576020905160ff7f0000000000000000000000000000000000000000000000000000000000000000168152f35b8390346101c35760203660031901126101c357610c3e61142e565b3560025580f35b8383346101c357806003193601126101c357610c5f611115565b90336001600160a01b03831603610c7c575061073b9192356116b0565b5163334bd91960e11b81528390fd5b9190503461027c578060031936011261027c5761073b9135610cb06001610725611115565b611632565b90503461027c57602036600319011261027c57816020936001923581528085522001549051908152f35b90503461027c578160031936011261027c57610cf96110fa565b9160243591821515809303610b3957610d106113b4565b6006548251637d35e97760e11b81526001600160a01b0395861683820181905295909160209183916024918391165afa908115610dcd578691610dae575b5015610d9957507f01d774681571daccc62c7ccbd83c73634d22d9ee3ddd1df3fe988d5e3153b44591602091848652600b835280862060ff1981541660ff841617905551908152a280f35b836024925191632762993f60e11b8352820152fd5b610dc7915060203d6020116106b4576106a681836111d6565b38610d4e565b83513d88823e3d90fd5b5050346101c35760203660031901126101c35760209181906001600160a01b03610dff6110fa565b1681526009845220549051908152f35b5050346101c357816003193601126101c3576020906008549051908152f35b839150346101c357610e3f3661112b565b91907fe5bea7d829f723a95a0c83a655765be37702fa584514c1e2a20867d04b58478e90818652602091868352878720338852835260ff8888205416156110365750610e8961148e565b610e916114ac565b6006548751637d35e97760e11b81526001600160a01b03838116888301819052969216908481602481855afa90811561102c57899161100f575b5015610ff857858852600b845260ff8989205416610fe157908383610f25959493610ef588611155565b8c51632e11f7b760e11b8152808c019182526001600160a01b039093166020820152919687928391829160400190565b03915afa938415610fd7578894610fa4575b50808410610f88575091869791610f53826001999587336114cf565b82519485528401528201527f4f808f68134f8b72b842a276c2b37b03415d4992c65a94fcee50d33201915b9960603392a35580f35b86604491858b5192633b5d56ed60e11b84528301526024820152fd5b9093508281813d8311610fd0575b610fbc81836111d6565b81010312610fcc57519289610f37565b8780fd5b503d610fb2565b89513d8a823e3d90fd5b8851632572cfc960e01b8152808801879052602490fd5b8851632762993f60e11b8152808801879052602490fd5b6110269150853d87116106b4576106a681836111d6565b8a610ecb565b8a513d8b823e3d90fd5b875163e2517d3f60e01b815233818801526024810191909152604490fd5b82843461107b57602036600319011261107b575061107460209235611155565b9051908152f35b80fd5b5050346101c357816003193601126101c35760065490516001600160a01b039091168152602090f35b84913461027c57602036600319011261027c573563ffffffff60e01b811680910361027c5760209250637965db0b60e01b81149081156110e9575b5015158152f35b6301ffc9a760e01b149050836110e2565b600435906001600160a01b038216820361111057565b600080fd5b602435906001600160a01b038216820361111057565b606090600319011261111057600435906024356001600160a01b0381168103611110579060443590565b6002549060ff7f00000000000000000000000000000000000000000000000000000000000000001691604d83116111965761119392600a0a9161131a565b90565b634e487b7160e01b600052601160045260246000fd5b67ffffffffffffffff81116111c057604052565b634e487b7160e01b600052604160045260246000fd5b90601f8019910116810190811067ffffffffffffffff8211176111c057604052565b90816020910312611110575180151581036111105790565b600654604051637d35e97760e11b81526001600160a01b039283166004820181905292909160209183916024918391165afa90811561129157600091611272575b501561126c57600052600b60205260ff604060002054161590565b50600090565b61128b915060203d6020116106b4576106a681836111d6565b38611251565b6040513d6000823e3d90fd5b90808202906000198184099082808310920391808303921461130e57620f424090828211156112fc577fde8f6cefed634549b62c77574f722e1ac57e23f24d8fd5cb790fb65668c26139940990828211900360fa1b910360061c170290565b60405163227bc15360e01b8152600490fd5b5050620f424091500490565b9091828202916000198482099383808610950394808603951461139057848311156112fc5782910981600003821680920460028082600302188083028203028083028203028083028203028083028203028083028203028092029003029360018380600003040190848311900302920304170290565b50508092501561139e570490565b634e487b7160e01b600052601260045260246000fd5b3360009081527ff7c9542c591017a21c74b6f3fab6263c7952fc0aaf9db4c22a2a04ddc7f8674f60205260409020547f65d7a28e3265b37a6474929f336521b332c1681b933f6cb9f3376673440d862a9060ff16156114105750565b6044906040519063e2517d3f60e01b82523360048301526024820152fd5b3360009081527fad3228b676f7d3cd4284a5443f17f1962b36e491b30a40b2405849e597ba5fb5602052604081205460ff16156114105750565b80600052600060205260406000203360005260205260ff60406000205416156114105750565b60ff6003541661149a57565b60405163d93c066560e01b8152600490fd5b6002600454146114bd576002600455565b604051633ee5aeb560e01b8152600490fd5b600554604080516323b872dd60e01b81526001600160a01b03808516600483015230602483015260448201869052600097929695929390929190602090829060649082908c9088165af1908115611628578891611609575b50156115f857816005541690813b15610fcc5787916024839289519485938492630852cd8d60e31b845260048401525af180156115ee576115db575b506006541691823b156115d757845163627160f360e11b81526001600160a01b039182166004820152602481019290925292909216604483015290919083908390606490829084905af19081156115ce57506115bd575050565b6115c782916111ac565b61107b5750565b513d84823e3d90fd5b8580fd5b6115e7909691966111ac565b9438611563565b86513d89823e3d90fd5b8551639e44786b60e01b8152600490fd5b611622915060203d6020116106b4576106a681836111d6565b38611527565b87513d8a823e3d90fd5b9060009180835282602052604083209160018060a01b03169182845260205260ff604084205416156000146116ab57808352826020526040832082845260205260408320600160ff198254161790557f2f8788117e7eff1d82e926ec794901d17c78024a50270940304540a733656f0d339380a4600190565b505090565b9060009180835282602052604083209160018060a01b03169182845260205260ff6040842054166000146116ab5780835282602052604083208284526020526040832060ff1981541690557ff6391f5c32d9c69d2a47ea670b442974b53935d1edc7fd64eb21e047a839171b339380a460019056fea26469706673582212208bf675a574ea67713c248896cde6935aa61a4ab4c6e9f167b0e50e8a4f75642e64736f6c634300081800332f8788117e7eff1d82e926ec794901d17c78024a50270940304540a733656f0d65d7a28e3265b37a6474929f336521b332c1681b933f6cb9f3376673440d862ae5bea7d829f723a95a0c83a655765be37702fa584514c1e2a20867d04b58478e",
  "devdoc": {
    "errors": {
      "AccessControlBadConfirmation()": [
        {
          "details": "The caller of a function is not the expected one. NOTE: Don't confuse with {AccessControlUnauthorizedAccount}."
        }
      ],
      "AccessControlUnauthorizedAccount(address,bytes32)": [
        {
          "details": "The `account` is missing a role."
        }
      ],
      "EnforcedPause()": [
        {
          "details": "The operation failed because the contract is paused."
        }
      ],
      "ExpectedPause()": [
        {
          "details": "The operation failed because the contract is not paused."
        }
      ],
      "MathOverflowedMulDiv()": [
        {
          "details": "Muldiv operation overflow."
        }
      ],
      "ReentrancyGuardReentrantCall()": [
        {
          "details": "Unauthorized reentrant call."
        }
      ]
    },
    "events": {
      "Paused(address)": {
        "details": "Emitted when the pause is triggered by `account`."
      },
      "RoleAdminChanged(bytes32,bytes32,bytes32)": {
        "details": "Emitted when `newAdminRole` is set as ``role``'s admin role, replacing `previousAdminRole` `DEFAULT_ADMIN_ROLE` is the starting admin for all roles, despite {RoleAdminChanged} not being emitted signaling this."
      },
      "RoleGranted(bytes32,address,address)": {
        "details": "Emitted when `account` is granted `role`. `sender` is the account that originated the contract call, an admin role bearer except when using {AccessControl-_setupRole}."
      },
      "RoleRevoked(bytes32,address,address)": {
        "details": "Emitted when `account` is revoked `role`. `sender` is the account that originated the contract call:   - if using `revokeRole`, it is the admin role bearer   - if using `renounceRole`, it is the role bearer (i.e. `account`)"
      },
      "Unpaused(address)": {
        "details": "Emitted when the pause is lifted by `account`."
      }
    },
    "kind": "dev",
    "methods": {
      "clearCollateralRedemptionFee(address)": {
        "params": {
          "_collateralAsset": "The collateral asset for which to clear the override"
        }
      },
      "constructor": {
        "params": {
          "_collateralVault": "The address of the collateral vault",
          "_dusd": "The address of the dUSD stablecoin",
          "_initialFeeReceiver": "The initial address to receive redemption fees",
          "_initialRedemptionFeeBps": "The initial redemption fee in basis points",
          "_oracle": "The address of the price oracle"
        }
      },
      "getRoleAdmin(bytes32)": {
        "details": "Returns the admin role that controls `role`. See {grantRole} and {revokeRole}. To change a role's admin, use {_setRoleAdmin}."
      },
      "grantRole(bytes32,address)": {
        "details": "Grants `role` to `account`. If `account` had not been already granted `role`, emits a {RoleGranted} event. Requirements: - the caller must have ``role``'s admin role. May emit a {RoleGranted} event."
      },
      "hasRole(bytes32,address)": {
        "details": "Returns `true` if `account` has been granted `role`."
      },
      "paused()": {
        "details": "Returns true if the contract is paused, and false otherwise."
      },
      "renounceRole(bytes32,address)": {
        "details": "Revokes `role` from the calling account. Roles are often managed via {grantRole} and {revokeRole}: this function's purpose is to provide a mechanism for accounts to lose their privileges if they are compromised (such as when a trusted device is misplaced). If the calling account had been revoked `role`, emits a {RoleRevoked} event. Requirements: - the caller must be `callerConfirmation`. May emit a {RoleRevoked} event."
      },
      "revokeRole(bytes32,address)": {
        "details": "Revokes `role` from `account`. If `account` had been granted `role`, emits a {RoleRevoked} event. Requirements: - the caller must have ``role``'s admin role. May emit a {RoleRevoked} event."
      },
      "setBaseCurrencyUnit(uint256)": {
        "details": "Only used if the oracle's base currency unit changes",
        "params": {
          "_newBaseCurrencyUnit": "The new base currency unit to set"
        }
      },
      "setOracle(address)": {
        "params": {
          "newOracle": "The new oracle to use"
        }
      },
      "supportsInterface(bytes4)": {
        "details": "See {IERC165-supportsInterface}."
      }
    },
    "title": "RedeemerV2",
    "version": 1
  },
  "userdoc": {
    "kind": "user",
    "methods": {
      "clearCollateralRedemptionFee(address)": {
        "notice": "Clears a per-asset fee override so the default fee applies again"
      },
      "constructor": {
        "notice": "Initializes the RedeemerV2 contract"
      },
      "setBaseCurrencyUnit(uint256)": {
        "notice": "Updates the base currency unit used for price calculations"
      },
      "setOracle(address)": {
        "notice": "Sets the oracle to use for collateral valuation"
      }
    },
    "notice": "Extended Redeemer with global pause and per-asset redemption pause controls",
    "version": 1
  },
  "storageLayout": {
    "storage": [
      {
        "astId": 26,
        "contract": "contracts/dusd/RedeemerV2.sol:RedeemerV2",
        "label": "_roles",
        "offset": 0,
        "slot": "0",
        "type": "t_mapping(t_bytes32,t_struct(RoleData)21_storage)"
      },
      {
        "astId": 6243,
        "contract": "contracts/dusd/RedeemerV2.sol:RedeemerV2",
        "label": "oracle",
        "offset": 0,
        "slot": "1",
        "type": "t_contract(IPriceOracleGetter)7432"
      },
      {
        "astId": 6245,
        "contract": "contracts/dusd/RedeemerV2.sol:RedeemerV2",
        "label": "baseCurrencyUnit",
        "offset": 0,
        "slot": "2",
        "type": "t_uint256"
      },
      {
        "astId": 1100,
        "contract": "contracts/dusd/RedeemerV2.sol:RedeemerV2",
        "label": "_paused",
        "offset": 0,
        "slot": "3",
        "type": "t_bool"
      },
      {
        "astId": 1219,
        "contract": "contracts/dusd/RedeemerV2.sol:RedeemerV2",
        "label": "_status",
        "offset": 0,
        "slot": "4",
        "type": "t_uint256"
      },
      {
        "astId": 6350,
        "contract": "contracts/dusd/RedeemerV2.sol:RedeemerV2",
        "label": "dusd",
        "offset": 0,
        "slot": "5",
        "type": "t_contract(IERC20Stablecoin)7481"
      },
      {
        "astId": 6355,
        "contract": "contracts/dusd/RedeemerV2.sol:RedeemerV2",
        "label": "collateralVault",
        "offset": 0,
        "slot": "6",
        "type": "t_contract(CollateralVault)5686"
      },
      {
        "astId": 6357,
        "contract": "contracts/dusd/RedeemerV2.sol:RedeemerV2",
        "label": "feeReceiver",
        "offset": 0,
        "slot": "7",
        "type": "t_address"
      },
      {
        "astId": 6359,
        "contract": "contracts/dusd/RedeemerV2.sol:RedeemerV2",
        "label": "defaultRedemptionFeeBps",
        "offset": 0,
        "slot": "8",
        "type": "t_uint256"
      },
      {
        "astId": 6363,
        "contract": "contracts/dusd/RedeemerV2.sol:RedeemerV2",
        "label": "collateralRedemptionFeeBps",
        "offset": 0,
        "slot": "9",
        "type": "t_mapping(t_address,t_uint256)"
      },
      {
        "astId": 6367,
        "contract": "contracts/dusd/RedeemerV2.sol:RedeemerV2",
        "label": "isCollateralFeeOverridden",
        "offset": 0,
        "slot": "10",
        "type": "t_mapping(t_address,t_bool)"
      },
      {
        "astId": 6451,
        "contract": "contracts/dusd/RedeemerV2.sol:RedeemerV2",
        "label": "assetRedemptionPaused",
        "offset": 0,
        "slot": "11",
        "type": "t_mapping(t_address,t_bool)"
      }
    ],
    "types": {
      "t_address": {
        "encoding": "inplace",
        "label": "address",
        "numberOfBytes": "20"
      },
      "t_bool": {
        "encoding": "inplace",
        "label": "bool",
        "numberOfBytes": "1"
      },
      "t_bytes32": {
        "encoding": "inplace",
        "label": "bytes32",
        "numberOfBytes": "32"
      },
      "t_contract(CollateralVault)5686": {
        "encoding": "inplace",
        "label": "contract CollateralVault",
        "numberOfBytes": "20"
      },
      "t_contract(IERC20Stablecoin)7481": {
        "encoding": "inplace",
        "label": "contract IERC20Stablecoin",
        "numberOfBytes": "20"
      },
      "t_contract(IPriceOracleGetter)7432": {
        "encoding": "inplace",
        "label": "contract IPriceOracleGetter",
        "numberOfBytes": "20"
      },
      "t_mapping(t_address,t_bool)": {
        "encoding": "mapping",
        "key": "t_address",
        "label": "mapping(address => bool)",
        "numberOfBytes": "32",
        "value": "t_bool"
      },
      "t_mapping(t_address,t_uint256)": {
        "encoding": "mapping",
        "key": "t_address",
        "label": "mapping(address => uint256)",
        "numberOfBytes": "32",
        "value": "t_uint256"
      },
      "t_mapping(t_bytes32,t_struct(RoleData)21_storage)": {
        "encoding": "mapping",
        "key": "t_bytes32",
        "label": "mapping(bytes32 => struct AccessControl.RoleData)",
        "numberOfBytes": "32",
        "value": "t_struct(RoleData)21_storage"
      },
      "t_struct(RoleData)21_storage": {
        "encoding": "inplace",
        "label": "struct AccessControl.RoleData",
        "members": [
          {
            "astId": 18,
            "contract": "contracts/dusd/RedeemerV2.sol:RedeemerV2",
            "label": "hasRole",
            "offset": 0,
            "slot": "0",
            "type": "t_mapping(t_address,t_bool)"
          },
          {
            "astId": 20,
            "contract": "contracts/dusd/RedeemerV2.sol:RedeemerV2",
            "label": "adminRole",
            "offset": 0,
            "slot": "1",
            "type": "t_bytes32"
          }
        ],
        "numberOfBytes": "64"
      },
      "t_uint256": {
        "encoding": "inplace",
        "label": "uint256",
        "numberOfBytes": "32"
      }
    }
  }
}