{
  "address": "0xaDC41c9B12620A7C53cc52d94d7D6b08FeF2a470",
  "abi": [
    {
      "anonymous": false,
      "inputs": [
        {
          "indexed": true,
          "internalType": "uint256",
          "name": "streamId",
          "type": "uint256"
        },
        {
          "indexed": true,
          "internalType": "address",
          "name": "sender",
          "type": "address"
        },
        {
          "indexed": true,
          "internalType": "address",
          "name": "recipient",
          "type": "address"
        },
        {
          "indexed": false,
          "internalType": "uint256",
          "name": "senderBalance",
          "type": "uint256"
        },
        {
          "indexed": false,
          "internalType": "uint256",
          "name": "recipientBalance",
          "type": "uint256"
        }
      ],
      "name": "CancelStream",
      "type": "event"
    },
    {
      "anonymous": false,
      "inputs": [
        {
          "indexed": true,
          "internalType": "uint256",
          "name": "streamId",
          "type": "uint256"
        },
        {
          "indexed": true,
          "internalType": "address",
          "name": "sender",
          "type": "address"
        },
        {
          "indexed": true,
          "internalType": "address",
          "name": "recipient",
          "type": "address"
        },
        {
          "indexed": false,
          "internalType": "uint256",
          "name": "deposit",
          "type": "uint256"
        },
        {
          "indexed": false,
          "internalType": "address",
          "name": "tokenAddress",
          "type": "address"
        },
        {
          "indexed": false,
          "internalType": "uint256",
          "name": "startTime",
          "type": "uint256"
        },
        {
          "indexed": false,
          "internalType": "uint256",
          "name": "stopTime",
          "type": "uint256"
        }
      ],
      "name": "CreateStream",
      "type": "event"
    },
    {
      "anonymous": false,
      "inputs": [
        {
          "indexed": true,
          "internalType": "address",
          "name": "fundsAdmin",
          "type": "address"
        }
      ],
      "name": "NewFundsAdmin",
      "type": "event"
    },
    {
      "anonymous": false,
      "inputs": [
        {
          "indexed": true,
          "internalType": "uint256",
          "name": "streamId",
          "type": "uint256"
        },
        {
          "indexed": true,
          "internalType": "address",
          "name": "recipient",
          "type": "address"
        },
        {
          "indexed": false,
          "internalType": "uint256",
          "name": "amount",
          "type": "uint256"
        }
      ],
      "name": "WithdrawFromStream",
      "type": "event"
    },
    {
      "inputs": [],
      "name": "ETH_MOCK_ADDRESS",
      "outputs": [
        {
          "internalType": "address",
          "name": "",
          "type": "address"
        }
      ],
      "stateMutability": "view",
      "type": "function"
    },
    {
      "inputs": [],
      "name": "REVISION",
      "outputs": [
        {
          "internalType": "uint256",
          "name": "",
          "type": "uint256"
        }
      ],
      "stateMutability": "view",
      "type": "function"
    },
    {
      "inputs": [
        {
          "internalType": "contract IERC20",
          "name": "token",
          "type": "address"
        },
        {
          "internalType": "address",
          "name": "recipient",
          "type": "address"
        },
        {
          "internalType": "uint256",
          "name": "amount",
          "type": "uint256"
        }
      ],
      "name": "approve",
      "outputs": [],
      "stateMutability": "nonpayable",
      "type": "function"
    },
    {
      "inputs": [
        {
          "internalType": "uint256",
          "name": "streamId",
          "type": "uint256"
        },
        {
          "internalType": "address",
          "name": "who",
          "type": "address"
        }
      ],
      "name": "balanceOf",
      "outputs": [
        {
          "internalType": "uint256",
          "name": "balance",
          "type": "uint256"
        }
      ],
      "stateMutability": "view",
      "type": "function"
    },
    {
      "inputs": [
        {
          "internalType": "uint256",
          "name": "streamId",
          "type": "uint256"
        }
      ],
      "name": "cancelStream",
      "outputs": [
        {
          "internalType": "bool",
          "name": "",
          "type": "bool"
        }
      ],
      "stateMutability": "nonpayable",
      "type": "function"
    },
    {
      "inputs": [
        {
          "internalType": "address",
          "name": "recipient",
          "type": "address"
        },
        {
          "internalType": "uint256",
          "name": "deposit",
          "type": "uint256"
        },
        {
          "internalType": "address",
          "name": "tokenAddress",
          "type": "address"
        },
        {
          "internalType": "uint256",
          "name": "startTime",
          "type": "uint256"
        },
        {
          "internalType": "uint256",
          "name": "stopTime",
          "type": "uint256"
        }
      ],
      "name": "createStream",
      "outputs": [
        {
          "internalType": "uint256",
          "name": "",
          "type": "uint256"
        }
      ],
      "stateMutability": "nonpayable",
      "type": "function"
    },
    {
      "inputs": [
        {
          "internalType": "uint256",
          "name": "streamId",
          "type": "uint256"
        }
      ],
      "name": "deltaOf",
      "outputs": [
        {
          "internalType": "uint256",
          "name": "delta",
          "type": "uint256"
        }
      ],
      "stateMutability": "view",
      "type": "function"
    },
    {
      "inputs": [],
      "name": "getFundsAdmin",
      "outputs": [
        {
          "internalType": "address",
          "name": "",
          "type": "address"
        }
      ],
      "stateMutability": "view",
      "type": "function"
    },
    {
      "inputs": [],
      "name": "getNextStreamId",
      "outputs": [
        {
          "internalType": "uint256",
          "name": "",
          "type": "uint256"
        }
      ],
      "stateMutability": "view",
      "type": "function"
    },
    {
      "inputs": [
        {
          "internalType": "uint256",
          "name": "streamId",
          "type": "uint256"
        }
      ],
      "name": "getStream",
      "outputs": [
        {
          "internalType": "address",
          "name": "sender",
          "type": "address"
        },
        {
          "internalType": "address",
          "name": "recipient",
          "type": "address"
        },
        {
          "internalType": "uint256",
          "name": "deposit",
          "type": "uint256"
        },
        {
          "internalType": "address",
          "name": "tokenAddress",
          "type": "address"
        },
        {
          "internalType": "uint256",
          "name": "startTime",
          "type": "uint256"
        },
        {
          "internalType": "uint256",
          "name": "stopTime",
          "type": "uint256"
        },
        {
          "internalType": "uint256",
          "name": "remainingBalance",
          "type": "uint256"
        },
        {
          "internalType": "uint256",
          "name": "ratePerSecond",
          "type": "uint256"
        }
      ],
      "stateMutability": "view",
      "type": "function"
    },
    {
      "inputs": [
        {
          "internalType": "address",
          "name": "fundsAdmin",
          "type": "address"
        }
      ],
      "name": "initialize",
      "outputs": [],
      "stateMutability": "nonpayable",
      "type": "function"
    },
    {
      "inputs": [
        {
          "internalType": "contract IERC20",
          "name": "token",
          "type": "address"
        },
        {
          "internalType": "address",
          "name": "recipient",
          "type": "address"
        },
        {
          "internalType": "uint256",
          "name": "amount",
          "type": "uint256"
        }
      ],
      "name": "transfer",
      "outputs": [],
      "stateMutability": "nonpayable",
      "type": "function"
    },
    {
      "inputs": [
        {
          "internalType": "uint256",
          "name": "streamId",
          "type": "uint256"
        },
        {
          "internalType": "uint256",
          "name": "amount",
          "type": "uint256"
        }
      ],
      "name": "withdrawFromStream",
      "outputs": [
        {
          "internalType": "bool",
          "name": "",
          "type": "bool"
        }
      ],
      "stateMutability": "nonpayable",
      "type": "function"
    },
    {
      "stateMutability": "payable",
      "type": "receive"
    }
  ],
  "transactionHash": "0x4a1caf360c8642cd8807ace4159000a946e5b7eb73305c55ec70fb7b78480f2e",
  "args": [],
  "numDeployments": 1,
  "solcInputHash": "8ed37bb5fee79f55dbb8814c36c24c8d",
  "bytecode": "0x6080806040523461001f576000805560016034556117a490816100258239f35b600080fdfe6080604052600436101561001b575b361561001957600080fd5b005b60003560e01c806306bc2ee0146100eb5780630932f92b146100e65780633656eec2146100e157806351ee886b146100dc5780636db9241b146100d75780637a9b2c6c146100d2578063894e9a0d146100cd578063a82ccd4d146100c8578063beabacc8146100c3578063c4d66de8146100be578063cc1b4bf6146100b9578063dde43cba146100b45763e1f21c670361000e57610b83565b610b67565b6108ff565b610828565b6106bf565b610675565b610550565b61038d565b6101a9565b61017a565b610148565b610119565b34610114576000366003190112610114576033546040516001600160a01b039091168152602090f35b600080fd5b34610114576000366003190112610114576020603554604051908152f35b6001600160a01b0381160361011457565b3461011457604036600319011261011457602061017260243561016a81610137565b600435610cd8565b604051908152f35b3461011457600036600319011261011457602060405173eeeeeeeeeeeeeeeeeeeeeeeeeeeeeeeeeeeeeeee8152f35b346101145760203660031901126101145761028e6004356101cf60026034541415610f4e565b600260345560009080825260366020526101f560ff600760408520015460a01c16610c94565b7fca3e6079b726e7728802a0537949e2d1c7762304fa641fb06eb56daf2ba8c6b9610248604060018060a01b0394856033541633148015610374575b61023a90610f9a565b848152603660205220610d7f565b9260c084019361033961031a61030c61027061026a895160018060a01b031690565b88610cd8565b976102f66102ea60e061029460a089019d8e5160018060a01b031690565b8c610cd8565b976102dc6102ac8d6000526036602052604060002090565b60076000918281558260018201558260028201558260038201558260048201558260058201558260068201550155565b01516001600160a01b031690565b6001600160a01b031690565b8580610356575b5050516001600160a01b031690565b97516001600160a01b031690565b9183604051948594169816968360209093929193604081019481520152565b0390a46103466001603455565b60405160018152602090f35b0390f35b8b5161036d92906001600160a01b03165b906114a8565b38856102fd565b5084815260366020528181206005015486163314610231565b346101145760408060031936011261011457600435602435906103b560026034541415610f4e565b60026034558060005260366020526103d960ff600785600020015460a01c16610c94565b6033546001600160a01b0390811633148015610535575b6103f990610f9a565b61040483151561100c565b82610419836000526036602052604060002090565b61042290610d7f565b60a0810180519093919083906001600160a01b03166104419087610cd8565b101561044c90611049565b82878201519061045b91610e61565b61046f866000526036602052604060002090565b60020155610487856000526036602052604060002090565b6002015415936104e4610502946104d46102ea60e06104f1967f36c3ab437e6a424ed25dc4bfdeb62706aa06558660fab2dab229d2555adaf89c9a6105195701516001600160a01b031690565b83516001600160a01b0316610367565b516001600160a01b031690565b865195865216939081906020820190565b0390a361050f6001603455565b5160018152602090f35b6105306102ac8d6000526036602052604060002090565b6102dc565b506000828152603660205284902060050154811633146103f0565b346101145760203660031901126101145760043580600052603660205261058460ff60076040600020015460a01c16610c94565b60008181526036602052604090206006810154600582015482546001600160a01b039182169491909216926103529291906105c990600701546001600160a01b031690565b60036105df836000526036602052604060002090565b015460046105f7846000526036602052604060002090565b01549160016106286002610615876000526036602052604060002090565b0154956000526036602052604060002090565b015494604051988998899491909897969360e0969361010087019a60018060a01b03938480921689521660208801526040870152166060850152608084015260a083015260c08201520152565b346101145760203660031901126101145760206101726004356110a1565b6060906003190112610114576004356106ab81610137565b906024356106b881610137565b9060443590565b34610114576106cd36610693565b60335490926001600160a01b0392916106e990841633146111a0565b8282169283156107ec57811673eeeeeeeeeeeeeeeeeeeeeeeeeeeeeeeeeeeeeeee036107e157505081471061079c57600080809381935af16107296114e1565b501561073157005b60405162461bcd60e51b815260206004820152603a60248201527f416464726573733a20756e61626c6520746f2073656e642076616c75652c207260448201527f6563697069656e74206d617920686176652072657665727465640000000000006064820152608490fd5b60405162461bcd60e51b815260206004820152601d60248201527f416464726573733a20696e73756666696369656e742062616c616e63650000006044820152606490fd5b6100199392506114a8565b60405162461bcd60e51b81526020600482015260146024820152731253959053125117cc1617d49150d2541251539560621b6044820152606490fd5b346101145760203660031901126101145760043561084581610137565b6000908154600111156108a35760018255620186a0603555603380546001600160a01b0319166001600160a01b039290921691821790557f1ab77a654795da4cfe37c33188e862203ade9a5c7f1a9d4957669b3ccbec9e118280a280f35b60405162461bcd60e51b815260206004820152602e60248201527f436f6e747261637420696e7374616e63652068617320616c726561647920626560448201526d195b881a5b9a5d1a585b1a5e995960921b6064820152608490fd5b346101145760a036600319011261011457610352610a4260043561092281610137565b6024356044359161093283610137565b7f7b01d409597969366dc268d7f957a990d1ca3d3449baf8fb45db67351aecfe7860643560843594610b5460018060a01b03610973816033541633146111a0565b8516966109818815156111e2565b61098d3089141561122e565b6109993389141561127a565b6109a48715156112bd565b6109b0428510156112fb565b6109bb848211611351565b610b1260206109c861139d565b6109e06109d58886610e61565b8083528b10156113c7565b6109f46109ee82518c611429565b15611438565b6109ff81518b61148f565b91829101526035549a8b98610a12610d5e565b8b81526020810193909352604083018b905260608301889052608083018590526001600160a01b031660a0830152565b3060c08201526001600160a01b03851660e08201526001610100820152610a73886000526036602052604060002090565b815181556020820151600182015560408201516002820155606082015160038201556080820151600482015560a0808301516005830180546001600160a01b039283166001600160a01b03199182161790915560c08501516006850180549184169190921617905560e08401516007909301805461010090950151939091166001600160a81b031990941693909317911515901b60ff60a01b16179055565b610b25610b20603554611499565b603555565b604080519788526001600160a01b03909316602088015291860192909252606085015230939081906080820190565b0390a46040519081529081906020820190565b3461011457600036600319011261011457602060405160018152f35b3461011457610b9136610693565b6033546001600160a01b0393919290610bad90851633146111a0565b8215938415610c09575b50610c0490610bc86100199561153c565b60405163095ea7b360e01b60208201526001600160a01b039091166024820152604481019390935282606481015b03601f198101845283610d3c565b61161e565b604051636eb1769f60e11b81523060048201526001600160a01b038316602482015294506020908590604490829086165afa908115610c8f57610bc8610c049261001996600091610c60575b501595505090610bb7565b610c82915060203d602011610c88575b610c7a8183610d3c565b810190611521565b38610c55565b503d610c70565b611530565b15610c9b57565b60405162461bcd60e51b81526020600482015260156024820152741cdd1c99585b48191bd95cc81b9bdd08195e1a5cdd605a1b6044820152606490fd5b90610d0291806000526036602052610cfd60ff60076040600020015460a01c16610c94565b610e6e565b90565b634e487b7160e01b600052604160045260246000fd5b6040810190811067ffffffffffffffff821117610d3757604052565b610d05565b90601f8019910116810190811067ffffffffffffffff821117610d3757604052565b60405190610120820182811067ffffffffffffffff821117610d3757604052565b90610e0160ff6007610d8f610d5e565b855481526001860154602082015260028601546040820152600386015460608201526004860154608082015260058601546001600160a01b031660a08201529460068101546001600160a01b031660c087015201546001600160a01b03811660e086015260a01c161515610100840152565b565b604051906060820182811067ffffffffffffffff821117610d375760405260006040838281528260208201520152565b634e487b7160e01b600052601160045260246000fd5b81810292918115918404141715610e5c57565b610e33565b91908203918211610e5c57565b610e8a610e85826000526036602052604060002090565b610d7f565b91610eaa610e9f610e99610e03565b936110a1565b602085015190610e49565b82528251926040810193845190818111610f2b575b505060a0810151610ed8906001600160a01b03166102ea565b6001600160a01b03909216918214610f235760c00151610f00906001600160a01b03166102ea565b14610f0c575050600090565b610f1b60409251825190610e61565b918291015290565b505090505190565b610f4591610f3891610e61565b8060208601528451610e61565b83523880610ebf565b15610f5557565b60405162461bcd60e51b815260206004820152601f60248201527f5265656e7472616e637947756172643a207265656e7472616e742063616c6c006044820152606490fd5b15610fa157565b60405162461bcd60e51b815260206004820152603c60248201527f63616c6c6572206973206e6f74207468652066756e64732061646d696e206f7260448201527f2074686520726563697069656e74206f66207468652073747265616d000000006064820152608490fd5b1561101357565b60405162461bcd60e51b815260206004820152600e60248201526d616d6f756e74206973207a65726f60901b6044820152606490fd5b1561105057565b60405162461bcd60e51b8152602060048201526024808201527f616d6f756e7420657863656564732074686520617661696c61626c652062616c604482015263616e636560e01b6064820152608490fd5b610d02908060005260366020526110c560ff60076040600020015460a01c16610c94565b600052603660205260406000206110da610d5e565b81548152600182015460208201526002820154604082015261116b6003830154916060810192835261010060ff60076004870154966080850197885261113c61112c600583015460018060a01b031690565b6001600160a01b031660a0870152565b60068101546001600160a01b031660c086015201546001600160a01b03811660e085015260a01c161515910152565b80519182421115611198578051421061118c57610d02925051905190610e61565b5050610d029042610e61565b505050600090565b156111a757565b60405162461bcd60e51b815260206004820152601360248201527227a7262cafa12cafa32aa72229afa0a226a4a760691b6044820152606490fd5b156111e957565b60405162461bcd60e51b815260206004820152601a60248201527f73747265616d20746f20746865207a65726f20616464726573730000000000006044820152606490fd5b1561123557565b60405162461bcd60e51b815260206004820152601d60248201527f73747265616d20746f2074686520636f6e747261637420697473656c660000006044820152606490fd5b1561128157565b60405162461bcd60e51b815260206004820152601460248201527339ba3932b0b6903a37903a34329031b0b63632b960611b6044820152606490fd5b156112c457565b60405162461bcd60e51b815260206004820152600f60248201526e6465706f736974206973207a65726f60881b6044820152606490fd5b1561130257565b60405162461bcd60e51b815260206004820152602160248201527f73746172742074696d65206265666f726520626c6f636b2e74696d657374616d6044820152600760fc1b6064820152608490fd5b1561135857565b60405162461bcd60e51b815260206004820152601f60248201527f73746f702074696d65206265666f7265207468652073746172742074696d65006044820152606490fd5b604051906040820182811067ffffffffffffffff821117610d375760405260006020838281520152565b156113ce57565b60405162461bcd60e51b815260206004820152601f60248201527f6465706f73697420736d616c6c6572207468616e2074696d652064656c7461006044820152606490fd5b634e487b7160e01b600052601260045260246000fd5b8115611433570690565b611413565b1561143f57565b60405162461bcd60e51b815260206004820152602260248201527f6465706f736974206e6f74206d756c7469706c65206f662074696d652064656c604482015261746160f01b6064820152608490fd5b8115611433570490565b6000198114610e5c5760010190565b60405163a9059cbb60e01b60208201526001600160a01b0390921660248301526044820192909252610e0191610c048260648101610bf6565b3d1561151c573d9067ffffffffffffffff8211610d375760405191611510601f8201601f191660200184610d3c565b82523d6000602084013e565b606090565b90816020910312610114575190565b6040513d6000823e3d90fd5b1561154357565b60405162461bcd60e51b815260206004820152603660248201527f5361666545524332303a20617070726f76652066726f6d206e6f6e2d7a65726f60448201527520746f206e6f6e2d7a65726f20616c6c6f77616e636560501b6064820152608490fd5b90816020910312610114575180151581036101145790565b156115c657565b60405162461bcd60e51b815260206004820152602a60248201527f5361666545524332303a204552433230206f7065726174696f6e20646964206e6044820152691bdd081cdd58d8d9595960b21b6064820152608490fd5b6040516001600160a01b03919091169161163782610d1b565b6020928383527f5361666545524332303a206c6f772d6c6576656c2063616c6c206661696c656484840152803b156116ae57600082819282876116899796519301915af16116836114e1565b906116f3565b8051908161169657505050565b82610e01936116a99383010191016115a7565b6115bf565b60405162461bcd60e51b815260048101859052601d60248201527f416464726573733a2063616c6c20746f206e6f6e2d636f6e74726163740000006044820152606490fd5b909190156116ff575090565b81511561170f5750805190602001fd5b6040519062461bcd60e51b82528160208060048301528251908160248401526000935b828510611755575050604492506000838284010152601f80199101168101030190fd5b848101820151868601604401529381019385935061173256fea2646970667358221220a3aa1d566ac0ae15054f03ec788636e1ef830e5b96176fcaa505c0aea3f4feb564736f6c63430008180033",
  "devdoc": {
    "author": "BGD Labs*",
    "events": {
      "NewFundsAdmin(address)": {
        "params": {
          "fundsAdmin": "The new funds admin*"
        }
      }
    },
    "kind": "dev",
    "methods": {
      "approve(address,address,uint256)": {
        "details": "Function for the funds admin to give ERC20 allowance to other parties",
        "params": {
          "amount": "Allowance to approve*",
          "recipient": "Allowance's recipient",
          "token": "The address of the token to give allowance from"
        }
      },
      "balanceOf(uint256,address)": {
        "details": "Throws if the id does not point to a valid stream.",
        "params": {
          "streamId": "The id of the stream for which to query the balance.",
          "who": "The address for which to query the balance."
        }
      },
      "cancelStream(uint256)": {
        "details": "Throws if the id does not point to a valid stream.  Throws if the caller is not the funds admin or the recipient of the stream.  Throws if there is a token transfer failure.",
        "params": {
          "streamId": "The id of the stream to cancel."
        }
      },
      "createStream(address,uint256,address,uint256,uint256)": {
        "details": "Throws if the recipient is the zero address, the contract itself or the caller.  Throws if the deposit is 0.  Throws if the start time is before `block.timestamp`.  Throws if the stop time is before the start time.  Throws if the duration calculation has a math error.  Throws if the deposit is smaller than the duration.  Throws if the deposit is not a multiple of the duration.  Throws if the rate calculation has a math error.  Throws if the next stream id calculation has a math error.  Throws if the contract is not allowed to transfer enough tokens.  Throws if there is a token transfer failure.",
        "params": {
          "deposit": "The amount of money to be streamed.",
          "recipient": "The address towards which the money is streamed.",
          "startTime": "The unix timestamp for when the stream starts.",
          "stopTime": "The unix timestamp for when the stream stops.",
          "tokenAddress": "The ERC20 token to use as streaming currency."
        }
      },
      "deltaOf(uint256)": {
        "details": "Throws if the id does not point to a valid stream.",
        "params": {
          "streamId": "The id of the stream for which to query the delta."
        }
      },
      "getFundsAdmin()": {
        "returns": {
          "_0": "address The address of the funds admin*"
        }
      },
      "getStream(uint256)": {
        "details": "Throws if the id does not point to a valid stream.",
        "params": {
          "streamId": "The id of the stream to query."
        }
      },
      "transfer(address,address,uint256)": {
        "params": {
          "amount": "Amount to transfer*",
          "recipient": "Transfer's recipient",
          "token": "The address of the token to transfer"
        }
      },
      "withdrawFromStream(uint256,uint256)": {
        "details": "Throws if the id does not point to a valid stream.  Throws if the caller is not the funds admin or the recipient of the stream.  Throws if the amount exceeds the available balance.  Throws if there is a token transfer failure.",
        "params": {
          "amount": "The amount of tokens to withdraw.",
          "streamId": "The id of the stream to withdraw tokens from."
        }
      }
    },
    "title": "AaveEcosystemReserve v2",
    "version": 1
  },
  "userdoc": {
    "events": {
      "NewFundsAdmin(address)": {
        "notice": "Emitted when the funds admin changes"
      }
    },
    "kind": "user",
    "methods": {
      "ETH_MOCK_ADDRESS()": {
        "notice": "Returns the mock ETH reference address"
      },
      "balanceOf(uint256,address)": {
        "notice": "Returns the available funds for the given stream id and address.Returns the total funds allocated to `who` as uint256."
      },
      "cancelStream(uint256)": {
        "notice": "Cancels the stream and transfers the tokens back on a pro rata basis.Returns bool true=success, otherwise false."
      },
      "createStream(address,uint256,address,uint256,uint256)": {
        "notice": "Creates a new stream funded by this contracts itself and paid towards `recipient`.Returns the uint256 id of the newly created stream."
      },
      "deltaOf(uint256)": {
        "notice": "Returns either the delta in seconds between `block.timestamp` and `startTime` or  between `stopTime` and `startTime, whichever is smaller. If `block.timestamp` is before  `startTime`, it returns 0.Returns the time delta in seconds."
      },
      "getFundsAdmin()": {
        "notice": "Return the funds admin, only entity to be able to interact with this contract (controller of reserve)"
      },
      "getNextStreamId()": {
        "notice": "Returns the next available stream idReturns the stream id."
      },
      "getStream(uint256)": {
        "notice": "Returns the stream with all its properties.Returns the stream object."
      },
      "transfer(address,address,uint256)": {
        "notice": "Function for the funds admin to transfer ERC20 tokens to other parties"
      },
      "withdrawFromStream(uint256,uint256)": {
        "notice": "Withdraws from the contract to the recipient's account."
      }
    },
    "notice": "Stores ERC20 tokens of an ecosystem reserve, adding streaming capabilities. Modification of Sablier https://github.com/sablierhq/sablier/blob/develop/packages/protocol/contracts/Sablier.sol Original can be found also deployed on https://etherscan.io/address/0xCD18eAa163733Da39c232722cBC4E8940b1D8888 Modifications: - Sablier \"pulls\" the funds from the creator of the stream at creation. In the Aave case, we already have the funds. - Anybody can create streams on Sablier. Here, only the funds admin (Aave governance via controller) can - Adapted codebase to Solidity 0.8.11, mainly removing SafeMath and CarefulMath to use native safe math - Same as with creation, on Sablier the `sender` and `recipient` can cancel a stream. Here, only fund admin and recipient",
    "version": 1
  },
  "storageLayout": {
    "storage": [
      {
        "astId": 75829,
        "contract": "contracts/lending/periphery/treasury/AaveEcosystemReserveV2.sol:AaveEcosystemReserveV2",
        "label": "lastInitializedRevision",
        "offset": 0,
        "slot": "0",
        "type": "t_uint256"
      },
      {
        "astId": 75860,
        "contract": "contracts/lending/periphery/treasury/AaveEcosystemReserveV2.sol:AaveEcosystemReserveV2",
        "label": "______gap",
        "offset": 0,
        "slot": "1",
        "type": "t_array(t_uint256)50_storage"
      },
      {
        "astId": 74637,
        "contract": "contracts/lending/periphery/treasury/AaveEcosystemReserveV2.sol:AaveEcosystemReserveV2",
        "label": "_fundsAdmin",
        "offset": 0,
        "slot": "51",
        "type": "t_address"
      },
      {
        "astId": 75567,
        "contract": "contracts/lending/periphery/treasury/AaveEcosystemReserveV2.sol:AaveEcosystemReserveV2",
        "label": "_status",
        "offset": 0,
        "slot": "52",
        "type": "t_uint256"
      },
      {
        "astId": 73988,
        "contract": "contracts/lending/periphery/treasury/AaveEcosystemReserveV2.sol:AaveEcosystemReserveV2",
        "label": "_nextStreamId",
        "offset": 0,
        "slot": "53",
        "type": "t_uint256"
      },
      {
        "astId": 73994,
        "contract": "contracts/lending/periphery/treasury/AaveEcosystemReserveV2.sol:AaveEcosystemReserveV2",
        "label": "_streams",
        "offset": 0,
        "slot": "54",
        "type": "t_mapping(t_uint256,t_struct(Stream)75158_storage)"
      }
    ],
    "types": {
      "t_address": {
        "encoding": "inplace",
        "label": "address",
        "numberOfBytes": "20"
      },
      "t_array(t_uint256)50_storage": {
        "base": "t_uint256",
        "encoding": "inplace",
        "label": "uint256[50]",
        "numberOfBytes": "1600"
      },
      "t_bool": {
        "encoding": "inplace",
        "label": "bool",
        "numberOfBytes": "1"
      },
      "t_mapping(t_uint256,t_struct(Stream)75158_storage)": {
        "encoding": "mapping",
        "key": "t_uint256",
        "label": "mapping(uint256 => struct IStreamable.Stream)",
        "numberOfBytes": "32",
        "value": "t_struct(Stream)75158_storage"
      },
      "t_struct(Stream)75158_storage": {
        "encoding": "inplace",
        "label": "struct IStreamable.Stream",
        "members": [
          {
            "astId": 75141,
            "contract": "contracts/lending/periphery/treasury/AaveEcosystemReserveV2.sol:AaveEcosystemReserveV2",
            "label": "deposit",
            "offset": 0,
            "slot": "0",
            "type": "t_uint256"
          },
          {
            "astId": 75143,
            "contract": "contracts/lending/periphery/treasury/AaveEcosystemReserveV2.sol:AaveEcosystemReserveV2",
            "label": "ratePerSecond",
            "offset": 0,
            "slot": "1",
            "type": "t_uint256"
          },
          {
            "astId": 75145,
            "contract": "contracts/lending/periphery/treasury/AaveEcosystemReserveV2.sol:AaveEcosystemReserveV2",
            "label": "remainingBalance",
            "offset": 0,
            "slot": "2",
            "type": "t_uint256"
          },
          {
            "astId": 75147,
            "contract": "contracts/lending/periphery/treasury/AaveEcosystemReserveV2.sol:AaveEcosystemReserveV2",
            "label": "startTime",
            "offset": 0,
            "slot": "3",
            "type": "t_uint256"
          },
          {
            "astId": 75149,
            "contract": "contracts/lending/periphery/treasury/AaveEcosystemReserveV2.sol:AaveEcosystemReserveV2",
            "label": "stopTime",
            "offset": 0,
            "slot": "4",
            "type": "t_uint256"
          },
          {
            "astId": 75151,
            "contract": "contracts/lending/periphery/treasury/AaveEcosystemReserveV2.sol:AaveEcosystemReserveV2",
            "label": "recipient",
            "offset": 0,
            "slot": "5",
            "type": "t_address"
          },
          {
            "astId": 75153,
            "contract": "contracts/lending/periphery/treasury/AaveEcosystemReserveV2.sol:AaveEcosystemReserveV2",
            "label": "sender",
            "offset": 0,
            "slot": "6",
            "type": "t_address"
          },
          {
            "astId": 75155,
            "contract": "contracts/lending/periphery/treasury/AaveEcosystemReserveV2.sol:AaveEcosystemReserveV2",
            "label": "tokenAddress",
            "offset": 0,
            "slot": "7",
            "type": "t_address"
          },
          {
            "astId": 75157,
            "contract": "contracts/lending/periphery/treasury/AaveEcosystemReserveV2.sol:AaveEcosystemReserveV2",
            "label": "isEntity",
            "offset": 20,
            "slot": "7",
            "type": "t_bool"
          }
        ],
        "numberOfBytes": "256"
      },
      "t_uint256": {
        "encoding": "inplace",
        "label": "uint256",
        "numberOfBytes": "32"
      }
    }
  }
}