{
  "address": "0x21bD81b33D4B04B94bd30C6f015484E830b68830",
  "abi": [
    {
      "inputs": [
        {
          "internalType": "contract IPoolAddressesProvider",
          "name": "provider",
          "type": "address"
        },
        {
          "internalType": "address",
          "name": "user",
          "type": "address"
        }
      ],
      "name": "getFullReservesIncentiveData",
      "outputs": [
        {
          "components": [
            {
              "internalType": "address",
              "name": "underlyingAsset",
              "type": "address"
            },
            {
              "components": [
                {
                  "internalType": "address",
                  "name": "tokenAddress",
                  "type": "address"
                },
                {
                  "internalType": "address",
                  "name": "incentiveControllerAddress",
                  "type": "address"
                },
                {
                  "components": [
                    {
                      "internalType": "string",
                      "name": "rewardTokenSymbol",
                      "type": "string"
                    },
                    {
                      "internalType": "address",
                      "name": "rewardTokenAddress",
                      "type": "address"
                    },
                    {
                      "internalType": "address",
                      "name": "rewardOracleAddress",
                      "type": "address"
                    },
                    {
                      "internalType": "uint256",
                      "name": "emissionPerSecond",
                      "type": "uint256"
                    },
                    {
                      "internalType": "uint256",
                      "name": "incentivesLastUpdateTimestamp",
                      "type": "uint256"
                    },
                    {
                      "internalType": "uint256",
                      "name": "tokenIncentivesIndex",
                      "type": "uint256"
                    },
                    {
                      "internalType": "uint256",
                      "name": "emissionEndTimestamp",
                      "type": "uint256"
                    },
                    {
                      "internalType": "int256",
                      "name": "rewardPriceFeed",
                      "type": "int256"
                    },
                    {
                      "internalType": "uint8",
                      "name": "rewardTokenDecimals",
                      "type": "uint8"
                    },
                    {
                      "internalType": "uint8",
                      "name": "precision",
                      "type": "uint8"
                    },
                    {
                      "internalType": "uint8",
                      "name": "priceFeedDecimals",
                      "type": "uint8"
                    }
                  ],
                  "internalType": "struct IUiIncentiveDataProviderV3.RewardInfo[]",
                  "name": "rewardsTokenInformation",
                  "type": "tuple[]"
                }
              ],
              "internalType": "struct IUiIncentiveDataProviderV3.IncentiveData",
              "name": "aIncentiveData",
              "type": "tuple"
            },
            {
              "components": [
                {
                  "internalType": "address",
                  "name": "tokenAddress",
                  "type": "address"
                },
                {
                  "internalType": "address",
                  "name": "incentiveControllerAddress",
                  "type": "address"
                },
                {
                  "components": [
                    {
                      "internalType": "string",
                      "name": "rewardTokenSymbol",
                      "type": "string"
                    },
                    {
                      "internalType": "address",
                      "name": "rewardTokenAddress",
                      "type": "address"
                    },
                    {
                      "internalType": "address",
                      "name": "rewardOracleAddress",
                      "type": "address"
                    },
                    {
                      "internalType": "uint256",
                      "name": "emissionPerSecond",
                      "type": "uint256"
                    },
                    {
                      "internalType": "uint256",
                      "name": "incentivesLastUpdateTimestamp",
                      "type": "uint256"
                    },
                    {
                      "internalType": "uint256",
                      "name": "tokenIncentivesIndex",
                      "type": "uint256"
                    },
                    {
                      "internalType": "uint256",
                      "name": "emissionEndTimestamp",
                      "type": "uint256"
                    },
                    {
                      "internalType": "int256",
                      "name": "rewardPriceFeed",
                      "type": "int256"
                    },
                    {
                      "internalType": "uint8",
                      "name": "rewardTokenDecimals",
                      "type": "uint8"
                    },
                    {
                      "internalType": "uint8",
                      "name": "precision",
                      "type": "uint8"
                    },
                    {
                      "internalType": "uint8",
                      "name": "priceFeedDecimals",
                      "type": "uint8"
                    }
                  ],
                  "internalType": "struct IUiIncentiveDataProviderV3.RewardInfo[]",
                  "name": "rewardsTokenInformation",
                  "type": "tuple[]"
                }
              ],
              "internalType": "struct IUiIncentiveDataProviderV3.IncentiveData",
              "name": "vIncentiveData",
              "type": "tuple"
            },
            {
              "components": [
                {
                  "internalType": "address",
                  "name": "tokenAddress",
                  "type": "address"
                },
                {
                  "internalType": "address",
                  "name": "incentiveControllerAddress",
                  "type": "address"
                },
                {
                  "components": [
                    {
                      "internalType": "string",
                      "name": "rewardTokenSymbol",
                      "type": "string"
                    },
                    {
                      "internalType": "address",
                      "name": "rewardTokenAddress",
                      "type": "address"
                    },
                    {
                      "internalType": "address",
                      "name": "rewardOracleAddress",
                      "type": "address"
                    },
                    {
                      "internalType": "uint256",
                      "name": "emissionPerSecond",
                      "type": "uint256"
                    },
                    {
                      "internalType": "uint256",
                      "name": "incentivesLastUpdateTimestamp",
                      "type": "uint256"
                    },
                    {
                      "internalType": "uint256",
                      "name": "tokenIncentivesIndex",
                      "type": "uint256"
                    },
                    {
                      "internalType": "uint256",
                      "name": "emissionEndTimestamp",
                      "type": "uint256"
                    },
                    {
                      "internalType": "int256",
                      "name": "rewardPriceFeed",
                      "type": "int256"
                    },
                    {
                      "internalType": "uint8",
                      "name": "rewardTokenDecimals",
                      "type": "uint8"
                    },
                    {
                      "internalType": "uint8",
                      "name": "precision",
                      "type": "uint8"
                    },
                    {
                      "internalType": "uint8",
                      "name": "priceFeedDecimals",
                      "type": "uint8"
                    }
                  ],
                  "internalType": "struct IUiIncentiveDataProviderV3.RewardInfo[]",
                  "name": "rewardsTokenInformation",
                  "type": "tuple[]"
                }
              ],
              "internalType": "struct IUiIncentiveDataProviderV3.IncentiveData",
              "name": "sIncentiveData",
              "type": "tuple"
            }
          ],
          "internalType": "struct IUiIncentiveDataProviderV3.AggregatedReserveIncentiveData[]",
          "name": "",
          "type": "tuple[]"
        },
        {
          "components": [
            {
              "internalType": "address",
              "name": "underlyingAsset",
              "type": "address"
            },
            {
              "components": [
                {
                  "internalType": "address",
                  "name": "tokenAddress",
                  "type": "address"
                },
                {
                  "internalType": "address",
                  "name": "incentiveControllerAddress",
                  "type": "address"
                },
                {
                  "components": [
                    {
                      "internalType": "string",
                      "name": "rewardTokenSymbol",
                      "type": "string"
                    },
                    {
                      "internalType": "address",
                      "name": "rewardOracleAddress",
                      "type": "address"
                    },
                    {
                      "internalType": "address",
                      "name": "rewardTokenAddress",
                      "type": "address"
                    },
                    {
                      "internalType": "uint256",
                      "name": "userUnclaimedRewards",
                      "type": "uint256"
                    },
                    {
                      "internalType": "uint256",
                      "name": "tokenIncentivesUserIndex",
                      "type": "uint256"
                    },
                    {
                      "internalType": "int256",
                      "name": "rewardPriceFeed",
                      "type": "int256"
                    },
                    {
                      "internalType": "uint8",
                      "name": "priceFeedDecimals",
                      "type": "uint8"
                    },
                    {
                      "internalType": "uint8",
                      "name": "rewardTokenDecimals",
                      "type": "uint8"
                    }
                  ],
                  "internalType": "struct IUiIncentiveDataProviderV3.UserRewardInfo[]",
                  "name": "userRewardsInformation",
                  "type": "tuple[]"
                }
              ],
              "internalType": "struct IUiIncentiveDataProviderV3.UserIncentiveData",
              "name": "aTokenIncentivesUserData",
              "type": "tuple"
            },
            {
              "components": [
                {
                  "internalType": "address",
                  "name": "tokenAddress",
                  "type": "address"
                },
                {
                  "internalType": "address",
                  "name": "incentiveControllerAddress",
                  "type": "address"
                },
                {
                  "components": [
                    {
                      "internalType": "string",
                      "name": "rewardTokenSymbol",
                      "type": "string"
                    },
                    {
                      "internalType": "address",
                      "name": "rewardOracleAddress",
                      "type": "address"
                    },
                    {
                      "internalType": "address",
                      "name": "rewardTokenAddress",
                      "type": "address"
                    },
                    {
                      "internalType": "uint256",
                      "name": "userUnclaimedRewards",
                      "type": "uint256"
                    },
                    {
                      "internalType": "uint256",
                      "name": "tokenIncentivesUserIndex",
                      "type": "uint256"
                    },
                    {
                      "internalType": "int256",
                      "name": "rewardPriceFeed",
                      "type": "int256"
                    },
                    {
                      "internalType": "uint8",
                      "name": "priceFeedDecimals",
                      "type": "uint8"
                    },
                    {
                      "internalType": "uint8",
                      "name": "rewardTokenDecimals",
                      "type": "uint8"
                    }
                  ],
                  "internalType": "struct IUiIncentiveDataProviderV3.UserRewardInfo[]",
                  "name": "userRewardsInformation",
                  "type": "tuple[]"
                }
              ],
              "internalType": "struct IUiIncentiveDataProviderV3.UserIncentiveData",
              "name": "vTokenIncentivesUserData",
              "type": "tuple"
            },
            {
              "components": [
                {
                  "internalType": "address",
                  "name": "tokenAddress",
                  "type": "address"
                },
                {
                  "internalType": "address",
                  "name": "incentiveControllerAddress",
                  "type": "address"
                },
                {
                  "components": [
                    {
                      "internalType": "string",
                      "name": "rewardTokenSymbol",
                      "type": "string"
                    },
                    {
                      "internalType": "address",
                      "name": "rewardOracleAddress",
                      "type": "address"
                    },
                    {
                      "internalType": "address",
                      "name": "rewardTokenAddress",
                      "type": "address"
                    },
                    {
                      "internalType": "uint256",
                      "name": "userUnclaimedRewards",
                      "type": "uint256"
                    },
                    {
                      "internalType": "uint256",
                      "name": "tokenIncentivesUserIndex",
                      "type": "uint256"
                    },
                    {
                      "internalType": "int256",
                      "name": "rewardPriceFeed",
                      "type": "int256"
                    },
                    {
                      "internalType": "uint8",
                      "name": "priceFeedDecimals",
                      "type": "uint8"
                    },
                    {
                      "internalType": "uint8",
                      "name": "rewardTokenDecimals",
                      "type": "uint8"
                    }
                  ],
                  "internalType": "struct IUiIncentiveDataProviderV3.UserRewardInfo[]",
                  "name": "userRewardsInformation",
                  "type": "tuple[]"
                }
              ],
              "internalType": "struct IUiIncentiveDataProviderV3.UserIncentiveData",
              "name": "sTokenIncentivesUserData",
              "type": "tuple"
            }
          ],
          "internalType": "struct IUiIncentiveDataProviderV3.UserReserveIncentiveData[]",
          "name": "",
          "type": "tuple[]"
        }
      ],
      "stateMutability": "view",
      "type": "function"
    },
    {
      "inputs": [
        {
          "internalType": "contract IPoolAddressesProvider",
          "name": "provider",
          "type": "address"
        }
      ],
      "name": "getReservesIncentivesData",
      "outputs": [
        {
          "components": [
            {
              "internalType": "address",
              "name": "underlyingAsset",
              "type": "address"
            },
            {
              "components": [
                {
                  "internalType": "address",
                  "name": "tokenAddress",
                  "type": "address"
                },
                {
                  "internalType": "address",
                  "name": "incentiveControllerAddress",
                  "type": "address"
                },
                {
                  "components": [
                    {
                      "internalType": "string",
                      "name": "rewardTokenSymbol",
                      "type": "string"
                    },
                    {
                      "internalType": "address",
                      "name": "rewardTokenAddress",
                      "type": "address"
                    },
                    {
                      "internalType": "address",
                      "name": "rewardOracleAddress",
                      "type": "address"
                    },
                    {
                      "internalType": "uint256",
                      "name": "emissionPerSecond",
                      "type": "uint256"
                    },
                    {
                      "internalType": "uint256",
                      "name": "incentivesLastUpdateTimestamp",
                      "type": "uint256"
                    },
                    {
                      "internalType": "uint256",
                      "name": "tokenIncentivesIndex",
                      "type": "uint256"
                    },
                    {
                      "internalType": "uint256",
                      "name": "emissionEndTimestamp",
                      "type": "uint256"
                    },
                    {
                      "internalType": "int256",
                      "name": "rewardPriceFeed",
                      "type": "int256"
                    },
                    {
                      "internalType": "uint8",
                      "name": "rewardTokenDecimals",
                      "type": "uint8"
                    },
                    {
                      "internalType": "uint8",
                      "name": "precision",
                      "type": "uint8"
                    },
                    {
                      "internalType": "uint8",
                      "name": "priceFeedDecimals",
                      "type": "uint8"
                    }
                  ],
                  "internalType": "struct IUiIncentiveDataProviderV3.RewardInfo[]",
                  "name": "rewardsTokenInformation",
                  "type": "tuple[]"
                }
              ],
              "internalType": "struct IUiIncentiveDataProviderV3.IncentiveData",
              "name": "aIncentiveData",
              "type": "tuple"
            },
            {
              "components": [
                {
                  "internalType": "address",
                  "name": "tokenAddress",
                  "type": "address"
                },
                {
                  "internalType": "address",
                  "name": "incentiveControllerAddress",
                  "type": "address"
                },
                {
                  "components": [
                    {
                      "internalType": "string",
                      "name": "rewardTokenSymbol",
                      "type": "string"
                    },
                    {
                      "internalType": "address",
                      "name": "rewardTokenAddress",
                      "type": "address"
                    },
                    {
                      "internalType": "address",
                      "name": "rewardOracleAddress",
                      "type": "address"
                    },
                    {
                      "internalType": "uint256",
                      "name": "emissionPerSecond",
                      "type": "uint256"
                    },
                    {
                      "internalType": "uint256",
                      "name": "incentivesLastUpdateTimestamp",
                      "type": "uint256"
                    },
                    {
                      "internalType": "uint256",
                      "name": "tokenIncentivesIndex",
                      "type": "uint256"
                    },
                    {
                      "internalType": "uint256",
                      "name": "emissionEndTimestamp",
                      "type": "uint256"
                    },
                    {
                      "internalType": "int256",
                      "name": "rewardPriceFeed",
                      "type": "int256"
                    },
                    {
                      "internalType": "uint8",
                      "name": "rewardTokenDecimals",
                      "type": "uint8"
                    },
                    {
                      "internalType": "uint8",
                      "name": "precision",
                      "type": "uint8"
                    },
                    {
                      "internalType": "uint8",
                      "name": "priceFeedDecimals",
                      "type": "uint8"
                    }
                  ],
                  "internalType": "struct IUiIncentiveDataProviderV3.RewardInfo[]",
                  "name": "rewardsTokenInformation",
                  "type": "tuple[]"
                }
              ],
              "internalType": "struct IUiIncentiveDataProviderV3.IncentiveData",
              "name": "vIncentiveData",
              "type": "tuple"
            },
            {
              "components": [
                {
                  "internalType": "address",
                  "name": "tokenAddress",
                  "type": "address"
                },
                {
                  "internalType": "address",
                  "name": "incentiveControllerAddress",
                  "type": "address"
                },
                {
                  "components": [
                    {
                      "internalType": "string",
                      "name": "rewardTokenSymbol",
                      "type": "string"
                    },
                    {
                      "internalType": "address",
                      "name": "rewardTokenAddress",
                      "type": "address"
                    },
                    {
                      "internalType": "address",
                      "name": "rewardOracleAddress",
                      "type": "address"
                    },
                    {
                      "internalType": "uint256",
                      "name": "emissionPerSecond",
                      "type": "uint256"
                    },
                    {
                      "internalType": "uint256",
                      "name": "incentivesLastUpdateTimestamp",
                      "type": "uint256"
                    },
                    {
                      "internalType": "uint256",
                      "name": "tokenIncentivesIndex",
                      "type": "uint256"
                    },
                    {
                      "internalType": "uint256",
                      "name": "emissionEndTimestamp",
                      "type": "uint256"
                    },
                    {
                      "internalType": "int256",
                      "name": "rewardPriceFeed",
                      "type": "int256"
                    },
                    {
                      "internalType": "uint8",
                      "name": "rewardTokenDecimals",
                      "type": "uint8"
                    },
                    {
                      "internalType": "uint8",
                      "name": "precision",
                      "type": "uint8"
                    },
                    {
                      "internalType": "uint8",
                      "name": "priceFeedDecimals",
                      "type": "uint8"
                    }
                  ],
                  "internalType": "struct IUiIncentiveDataProviderV3.RewardInfo[]",
                  "name": "rewardsTokenInformation",
                  "type": "tuple[]"
                }
              ],
              "internalType": "struct IUiIncentiveDataProviderV3.IncentiveData",
              "name": "sIncentiveData",
              "type": "tuple"
            }
          ],
          "internalType": "struct IUiIncentiveDataProviderV3.AggregatedReserveIncentiveData[]",
          "name": "",
          "type": "tuple[]"
        }
      ],
      "stateMutability": "view",
      "type": "function"
    },
    {
      "inputs": [
        {
          "internalType": "contract IPoolAddressesProvider",
          "name": "provider",
          "type": "address"
        },
        {
          "internalType": "address",
          "name": "user",
          "type": "address"
        }
      ],
      "name": "getUserReservesIncentivesData",
      "outputs": [
        {
          "components": [
            {
              "internalType": "address",
              "name": "underlyingAsset",
              "type": "address"
            },
            {
              "components": [
                {
                  "internalType": "address",
                  "name": "tokenAddress",
                  "type": "address"
                },
                {
                  "internalType": "address",
                  "name": "incentiveControllerAddress",
                  "type": "address"
                },
                {
                  "components": [
                    {
                      "internalType": "string",
                      "name": "rewardTokenSymbol",
                      "type": "string"
                    },
                    {
                      "internalType": "address",
                      "name": "rewardOracleAddress",
                      "type": "address"
                    },
                    {
                      "internalType": "address",
                      "name": "rewardTokenAddress",
                      "type": "address"
                    },
                    {
                      "internalType": "uint256",
                      "name": "userUnclaimedRewards",
                      "type": "uint256"
                    },
                    {
                      "internalType": "uint256",
                      "name": "tokenIncentivesUserIndex",
                      "type": "uint256"
                    },
                    {
                      "internalType": "int256",
                      "name": "rewardPriceFeed",
                      "type": "int256"
                    },
                    {
                      "internalType": "uint8",
                      "name": "priceFeedDecimals",
                      "type": "uint8"
                    },
                    {
                      "internalType": "uint8",
                      "name": "rewardTokenDecimals",
                      "type": "uint8"
                    }
                  ],
                  "internalType": "struct IUiIncentiveDataProviderV3.UserRewardInfo[]",
                  "name": "userRewardsInformation",
                  "type": "tuple[]"
                }
              ],
              "internalType": "struct IUiIncentiveDataProviderV3.UserIncentiveData",
              "name": "aTokenIncentivesUserData",
              "type": "tuple"
            },
            {
              "components": [
                {
                  "internalType": "address",
                  "name": "tokenAddress",
                  "type": "address"
                },
                {
                  "internalType": "address",
                  "name": "incentiveControllerAddress",
                  "type": "address"
                },
                {
                  "components": [
                    {
                      "internalType": "string",
                      "name": "rewardTokenSymbol",
                      "type": "string"
                    },
                    {
                      "internalType": "address",
                      "name": "rewardOracleAddress",
                      "type": "address"
                    },
                    {
                      "internalType": "address",
                      "name": "rewardTokenAddress",
                      "type": "address"
                    },
                    {
                      "internalType": "uint256",
                      "name": "userUnclaimedRewards",
                      "type": "uint256"
                    },
                    {
                      "internalType": "uint256",
                      "name": "tokenIncentivesUserIndex",
                      "type": "uint256"
                    },
                    {
                      "internalType": "int256",
                      "name": "rewardPriceFeed",
                      "type": "int256"
                    },
                    {
                      "internalType": "uint8",
                      "name": "priceFeedDecimals",
                      "type": "uint8"
                    },
                    {
                      "internalType": "uint8",
                      "name": "rewardTokenDecimals",
                      "type": "uint8"
                    }
                  ],
                  "internalType": "struct IUiIncentiveDataProviderV3.UserRewardInfo[]",
                  "name": "userRewardsInformation",
                  "type": "tuple[]"
                }
              ],
              "internalType": "struct IUiIncentiveDataProviderV3.UserIncentiveData",
              "name": "vTokenIncentivesUserData",
              "type": "tuple"
            },
            {
              "components": [
                {
                  "internalType": "address",
                  "name": "tokenAddress",
                  "type": "address"
                },
                {
                  "internalType": "address",
                  "name": "incentiveControllerAddress",
                  "type": "address"
                },
                {
                  "components": [
                    {
                      "internalType": "string",
                      "name": "rewardTokenSymbol",
                      "type": "string"
                    },
                    {
                      "internalType": "address",
                      "name": "rewardOracleAddress",
                      "type": "address"
                    },
                    {
                      "internalType": "address",
                      "name": "rewardTokenAddress",
                      "type": "address"
                    },
                    {
                      "internalType": "uint256",
                      "name": "userUnclaimedRewards",
                      "type": "uint256"
                    },
                    {
                      "internalType": "uint256",
                      "name": "tokenIncentivesUserIndex",
                      "type": "uint256"
                    },
                    {
                      "internalType": "int256",
                      "name": "rewardPriceFeed",
                      "type": "int256"
                    },
                    {
                      "internalType": "uint8",
                      "name": "priceFeedDecimals",
                      "type": "uint8"
                    },
                    {
                      "internalType": "uint8",
                      "name": "rewardTokenDecimals",
                      "type": "uint8"
                    }
                  ],
                  "internalType": "struct IUiIncentiveDataProviderV3.UserRewardInfo[]",
                  "name": "userRewardsInformation",
                  "type": "tuple[]"
                }
              ],
              "internalType": "struct IUiIncentiveDataProviderV3.UserIncentiveData",
              "name": "sTokenIncentivesUserData",
              "type": "tuple"
            }
          ],
          "internalType": "struct IUiIncentiveDataProviderV3.UserReserveIncentiveData[]",
          "name": "",
          "type": "tuple[]"
        }
      ],
      "stateMutability": "view",
      "type": "function"
    }
  ],
  "transactionHash": "0x1890621d0a675a76b5734f1eb8b1220793b47c3fe23ca73ae863eaab1085a787",
  "args": [],
  "numDeployments": 1,
  "solcInputHash": "8ed37bb5fee79f55dbb8814c36c24c8d",
  "bytecode": "0x6080806040523461001657612ae8908161001c8239f35b600080fdfe604060808152600436101561001357600080fd5b600090813560e01c806347637536146100bf578063799bdcf5146100905763976fafc51461004057600080fd5b3461008c57602036600319011261008c57600435916001600160a01b038316830361008957506100726100859261091f565b905191829160208352602083019061029a565b0390f35b80fd5b5080fd5b503461008c57610085906100ac6100a636610107565b90611a0a565b905191829160208352602083019061042e565b503461008c576100e6906100856100d536610107565b6100e082959261091f565b94611a0a565b6100f9835194848695865285019061029a565b90838203602085015261042e565b6040906003190112610138576001600160a01b03906004358281168103610138579160243590811681036101385790565b600080fd5b60005b8381106101505750506000910152565b8181015183820152602001610140565b906020916101798151809281855285808601910161013d565b601f01601f1916010190565b90606080820160018060a01b0391828551168452602090838287015116828601526040809601519560606040870152865180945260809460808701918460808760051b8a01019901966000945b8786106101e6575050505050505050505090565b9091929394959697989a9987806001928e607f199082030189528c5190610217610160835190808452830190610160565b9189848201511684830152898982015116898301528681015187830152878101518883015260a0808201519083015260c0808201519083015260e08082015190830152610100808201519060ff809216908401526101208181840151169084015261014080920151169101529b019601960194979695939291909a98999a6101d2565b908082519081815260208091019281808460051b8301019501936000915b8483106102c85750505050505090565b909192939495848061032c600193601f198682030187528a516103196103066080888060a01b03845116855286840151908088870152850190610185565b6040808401519085830390860152610185565b9160608092015191818403910152610185565b98019301930191949392906102b8565b90606080820160018060a01b0391828551168452602090838287015116828601526040809601519560606040870152865180945260809460808701918460808760051b8a01019901966000945b87861061039d575050505050505050505090565b9091929394959697989a9987806001928e607f199082030189528c51906103ce610100835190808452830190610160565b9189848201511684830152898982015116898301528681015187830152878101518883015260a0808201519083015260c0808201519060ff8092169084015260e080920151169101529b019601960194979695939291909a98999a610389565b908082519081815260208091019281808460051b8301019501936000915b84831061045c5750505050505090565b90919293949584806104c0600193601f198682030187528a516104ad61049a6080888060a01b0384511685528684015190808887015285019061033c565b604080840151908583039086015261033c565b916060809201519181840391015261033c565b980193019301919493929061044c565b6060810190811067ffffffffffffffff8211176104ec57604052565b634e487b7160e01b600052604160045260246000fd5b6080810190811067ffffffffffffffff8211176104ec57604052565b90601f8019910116810190811067ffffffffffffffff8211176104ec57604052565b51906001600160a01b038216820361013857565b67ffffffffffffffff81116104ec5760051b60200190565b60209081818403126101385780519067ffffffffffffffff821161013857019180601f840112156101385782516105a281610554565b936105b0604051958661051e565b818552838086019260051b820101928311610138578301905b8282106105d7575050505090565b8380916105e384610540565b8152019101906105c9565b604051906105fb826104d0565b606060408360008152600060208201520152565b80518210156106235760209160051b010190565b634e487b7160e01b600052603260045260246000fd5b51906fffffffffffffffffffffffffffffffff8216820361013857565b6101e091819003828112610138576040519283019067ffffffffffffffff90848310828411176104ec57602013610138576102008401908111828210176104ec576040528151815282526106ac60208201610639565b60208301526106bd60408201610639565b60408301526106ce60608201610639565b60608301526106df60808201610639565b60808301526106f060a08201610639565b60a083015260c081015164ffffffffff811681036101385760c083015260e081015161ffff811681036101385760e0830152610100610730818301610540565b90830152610120610742818301610540565b90830152610140610754818301610540565b90830152610160610766818301610540565b90830152610180610778818301610639565b908301526101a061078a818301610639565b9083015261079c6101c0809201610639565b9082015290565b9081602091031261013857516001600160a01b03811681036101385790565b60405190610160820182811067ffffffffffffffff8211176104ec5760405281606081526101406000918260208201528260408201528260608201528260808201528260a08201528260c08201528260e082015282610100820152826101208201520152565b9061083282610554565b61083f604051918261051e565b8281528092610850601f1991610554565b019060005b82811061086157505050565b60209061086c6107c2565b82828501015201610855565b9190826080910312610138578151916020810151916060604083015192015190565b90816020910312610138575160ff811681036101385790565b60208183031261013857805167ffffffffffffffff9182821161013857019082601f830112156101385781519081116104ec57604051926108fe601f8301601f19166020018561051e565b818452602082840101116101385761091c916020808501910161013d565b90565b60405163026b1d5f60e01b81529190602090839060049082906001600160a01b03165afa918215610eac5760009261192d575b506040516334651b6f60e21b81526000816004816001600160a01b0387165afa908115610eac57600091611914575b50919082519261099084610554565b9361099e604051958661051e565b8085526109ad601f1991610554565b0160005b8181106118c55750506000935b81518510156118bd576109d1858261060f565b51946001600160a01b036109e5828561060f565b511686526001600160a01b036109fb828561060f565b516040516335ea6a7560e01b8152911660048201526101e0969087816024816001600160a01b038b165afa978815610eac5760009861188e575b50506101008701516040516375d2641360e01b815290602090829060049082906001600160a01b03165afa908115610eac5760009161186f575b5060606001600160a01b038216611467575b61010089015160405192906001600160a01b0316610a9e846104d0565b835260018060a01b03166020830152604082015260208201526004602060018060a01b036101408a015116604051928380926375d2641360e01b82525afa908115610eac57600091611448575b5060606001600160a01b03821661103c575b610140890151604051600494939092916001600160a01b0316610b1f846104d0565b835260018060a01b0316602083015260408201526040820152602060018060a01b036101208a015116604051938480926375d2641360e01b82525afa918215610eac5760009261100b575b506060976001600160a01b038316610bc7575b610120015160405197989697959694956001959093606093926001600160a01b0316610ba8866104d0565b8552868060a01b031660208501526040840152015201939291906109be565b93919497509560018060a01b03610120850151169560405196636657732f60e01b8852600488015260008760248160018060a01b038a165afa968715610eac57600097610fe8575b50610c1a8751610828565b9860005b8851811015610fd957610c2f6107c2565b610c8560806001600160a01b03610c46858e61060f565b5116602084018190526101208b0151604051630fdfe97560e31b81526001600160a01b0391821660048201529116602482015291829081906044820190565b03816001600160a01b038e165afa8015610eac57600091829183918491610fa6575b5060c08501526080840152606083015260a0820152610120880151604051634f7eb7b960e11b81526001600160a01b03918216600482015290602090829060249082908e165afa8015610eac5760ff91600091610f87575b501661012082015260208082015160405163313ce56760e01b81529190829060049082906001600160a01b03165afa8015610eac5760ff91600091610f58575b501661010082015260208101516040516395d89b4160e01b815290600090829060049082906001600160a01b03165afa908115610eac57600091610f37575b508152602080820151604051630150bdfb60e51b81526001600160a01b0391821660048201529190829060249082908e165afa908115610eac57600091610ef8575b506001600160a01b031660408281018290525162e19f4760e81b815290602090829060049082905afa908115610eac57600091610eb8575b50610e0460ff91612a5b565b16610140820152604080820151602080840151925163b3596f0760e01b81526001600160a01b03938416600482015292909183916024918391165afa8015610eac578d91600091610e77575b50838392610e659260e060019796015261060f565b52610e70818d61060f565b5001610c1e565b91506020823d602011610ea4575b81610e926020938361051e565b810103126100895750518c9083610e50565b3d9150610e85565b6040513d6000823e3d90fd5b906020823d602011610ef0575b81610ed26020938361051e565b810103126100895750610e04610ee960ff92610540565b9150610df8565b3d9150610ec5565b906020823d602011610f2f575b81610f126020938361051e565b8101031261008957506020610f28600492610540565b9150610dc0565b3d9150610f05565b610f52913d8091833e610f4a818361051e565b8101906108b3565b38610d7e565b610f7a915060203d602011610f80575b610f72818361051e565b81019061089a565b38610d3f565b503d610f68565b610fa0915060203d602011610f8057610f72818361051e565b38610cff565b92505050610fcc915060803d608011610fd2575b610fc4818361051e565b810190610878565b38610ca7565b503d610fba565b50919790965090949193610b7d565b61100491973d8091833e610ffc818361051e565b81019061056c565b9538610c0f565b61102e91925060203d602011611035575b611026818361051e565b8101906107a3565b9038610b6a565b503d61101c565b50939692909560018060a01b03610140850151169560405196636657732f60e01b8852600488015260008760248160018060a01b038a165afa968715610eac5760009761142d575b5061108f8751610828565b9860005b885181101561141a576110a46107c2565b6110fa60806001600160a01b036110bb858e61060f565b5116602084018190526101408b0151604051630fdfe97560e31b81526001600160a01b0391821660048201529116602482015291829081906044820190565b03816001600160a01b038e165afa8015610eac576000918291839184916113f7575b5060c08501526080840152606083015260a0820152610140880151604051634f7eb7b960e11b81526001600160a01b03918216600482015290602090829060249082908e165afa8015610eac5760ff916000916113d8575b501661012082015260208082015160405163313ce56760e01b81529190829060049082906001600160a01b03165afa8015610eac5760ff916000916113b9575b501661010082015260208101516040516395d89b4160e01b815290600090829060049082906001600160a01b03165afa908115610eac576000916113a0575b508152602080820151604051630150bdfb60e51b81526001600160a01b0391821660048201529190829060249082908e165afa908115610eac57600091611361575b506001600160a01b031660408281018290525162e19f4760e81b815290602090829060049082905afa908115610eac57600091611321575b5061127960ff91612a5b565b16610140820152604080820151602080840151925163b3596f0760e01b81526001600160a01b03938416600482015292909183916024918391165afa8015610eac578d916000916112ec575b508383926112da9260e060019796015261060f565b526112e5818d61060f565b5001611093565b91506020823d602011611319575b816113076020938361051e565b810103126100895750518c90836112c5565b3d91506112fa565b906020823d602011611359575b8161133b6020938361051e565b81010312610089575061127961135260ff92610540565b915061126d565b3d915061132e565b906020823d602011611398575b8161137b6020938361051e565b8101031261008957506020611391600492610540565b9150611235565b3d915061136e565b6113b3913d8091833e610f4a818361051e565b386111f3565b6113d2915060203d602011610f8057610f72818361051e565b386111b4565b6113f1915060203d602011610f8057610f72818361051e565b38611174565b92505050611414915060803d608011610fd257610fc4818361051e565b3861111c565b5094989197909650939491939190610afd565b61144191973d8091833e610ffc818361051e565b9538611084565b611461915060203d60201161103557611026818361051e565b38610aeb565b50939692909560018060a01b03610100850151169560405196636657732f60e01b8852600488015260008760248160018060a01b038a165afa968715610eac57600097611854575b506114ba8751610828565b9860005b8851811015611845576114cf6107c2565b61152560806001600160a01b036114e6858e61060f565b5116602084018190526101008b0151604051630fdfe97560e31b81526001600160a01b0391821660048201529116602482015291829081906044820190565b03816001600160a01b038e165afa8015610eac57600091829183918491611822575b5060c08501526080840152606083015260a0820152610100880151604051634f7eb7b960e11b81526001600160a01b03918216600482015290602090829060249082908e165afa8015610eac5760ff91600091611803575b501661012082015260208082015160405163313ce56760e01b81529190829060049082906001600160a01b03165afa8015610eac5760ff916000916117e4575b501661010082015260208101516040516395d89b4160e01b815290600090829060049082906001600160a01b03165afa908115610eac576000916117cb575b508152602080820151604051630150bdfb60e51b81526001600160a01b0391821660048201529190829060249082908e165afa908115610eac5760009161178c575b506001600160a01b031660408281018290525162e19f4760e81b815290602090829060049082905afa908115610eac5760009161174c575b506116a460ff91612a5b565b16610140820152604080820151602080840151925163b3596f0760e01b81526001600160a01b03938416600482015292909183916024918391165afa8015610eac578d91600091611717575b508383926117059260e060019796015261060f565b52611710818d61060f565b50016114be565b91506020823d602011611744575b816117326020938361051e565b810103126100895750518c90836116f0565b3d9150611725565b906020823d602011611784575b816117666020938361051e565b8101031261008957506116a461177d60ff92610540565b9150611698565b3d9150611759565b906020823d6020116117c3575b816117a66020938361051e565b81010312610089575060206117bc600492610540565b9150611660565b3d9150611799565b6117de913d8091833e610f4a818361051e565b3861161e565b6117fd915060203d602011610f8057610f72818361051e565b386115df565b61181c915060203d602011610f8057610f72818361051e565b3861159f565b9250505061183f915060803d608011610fd257610fc4818361051e565b38611547565b50959197929498909650610a81565b61186891973d8091833e610ffc818361051e565b95386114af565b611888915060203d60201161103557611026818361051e565b38610a6f565b6118ae929850803d106118b6575b6118a6818361051e565b810190610656565b953880610a35565b503d61189c565b925050915090565b60209060409693949596516118d981610502565b600081526118e56105ee565b838201526118f16105ee565b60408201526118fe6105ee565b60608201528282860101520194939291946109b1565b611927913d8091833e610ffc818361051e565b38610981565b9091506020813d602011611961575b816119496020938361051e565b810103126101385761195a90610540565b9038610952565b3d915061193c565b60405190610100820182811067ffffffffffffffff8211176104ec57604052816060815260e06000918260208201528260408201528260608201528260808201528260a08201528260c08201520152565b906119c482610554565b6119d1604051918261051e565b82815280926119e2601f1991610554565b019060005b8281106119f357505050565b6020906119fe611969565b828285010152016119e7565b60405163026b1d5f60e01b815290602090829060049082906001600160a01b03165afa908115610eac57600091612a21575b506040516334651b6f60e21b8152906000826004816001600160a01b0385165afa918215610eac57600092612a06575b5060006001600160a01b03841615612a0057508151925b611a8c84610554565b93611a9a604051958661051e565b808552611aa9601f1991610554565b0160005b8181106129bb57505060005b83518110156129b4576001600160a01b03611ad4828661060f565b516040516335ea6a7560e01b8152911660048201526101e09081816024816001600160a01b0389165afa918215610eac57600092612997575b506001600160a01b039050611b22838761060f565b5116611b2e838861060f565b51526101008101516040516375d2641360e01b815290602090829060049082906001600160a01b03165afa908115610eac57600091612978575b506001600160a01b03811661251a575b506101408101516040516375d2641360e01b815290602090829060049082906001600160a01b03165afa908115610eac576000916124fb575b506001600160a01b038116612096575b506101208101516040516375d2641360e01b81529190602090839060049082906001600160a01b03165afa918215610eac57600092612075575b506001600160a01b038216611c15575b5050600101611ab9565b610120810151604051636657732f60e01b81526001600160a01b0391821660048201529698929591939290600090889060249082908a165afa968715610eac5760009761205a575b50611c6887516119ba565b9860005b885181101561200857611c7d611969565b6001600160a01b03611c8f838c61060f565b51166040828101829052610120890151905163299faa1560e11b81526001600160a01b038b81166004830152918216602482015291166044820152602081806064810103816001600160a01b038e165afa908115610eac57600091611fd6575b5060808201526040808201519051632c08906360e21b81526001600160a01b038a811660048301529091166024820152602081806044810103816001600160a01b038e165afa908115610eac57600091611fa4575b506060820152604080820151905163313ce56760e01b815290602090829060049082906001600160a01b03165afa8015610eac5760ff91600091611f85575b501660e082015260408082015190516395d89b4160e01b815290600090829060049082906001600160a01b03165afa908115610eac57600091611f6c575b5081526040808201519051630150bdfb60e51b81526001600160a01b03918216600482015290602090829060249082908e165afa908115610eac57600091611f2d575b506001600160a01b0316602082810182905260405162e19f4760e81b815291829060049082905afa908115610eac57600091611eed575b50611e4760ff91612a5b565b1660c0820152602080820151604080840151905163b3596f0760e01b81526001600160a01b039182166004820152929183916024918391165afa8015610eac578d91600091611eb8575b50838392611ea69260a060019796015261060f565b52611eb1818d61060f565b5001611c6c565b91506020823d602011611ee5575b81611ed36020938361051e565b810103126100895750518c9083611e91565b3d9150611ec6565b906020823d602011611f25575b81611f076020938361051e565b810103126100895750611e47611f1e60ff92610540565b9150611e3b565b3d9150611efa565b906020823d602011611f64575b81611f476020938361051e565b8101031261008957506020611f5d600492610540565b9150611e04565b3d9150611f3a565b611f7f913d8091833e610f4a818361051e565b38611dc1565b611f9e915060203d602011610f8057610f72818361051e565b38611d83565b906020823d602011611fce575b81611fbe6020938361051e565b8101031261008957505138611d44565b3d9150611fb1565b906020823d602011612000575b81611ff06020938361051e565b8101031261008957505138611cef565b3d9150611fe3565b50610120909401516040519199949750919560019491926001600160a01b0316612031846104d0565b8352848060a01b0316602083015260408201526060612050838961060f565b5101529038611c0b565b61206e91973d8091833e610ffc818361051e565b9538611c5d565b61208f91925060203d60201161103557611026818361051e565b9038611bfb565b610140820151604051636657732f60e01b81526001600160a01b039182166004820152969891959293929190600090889060249082908a165afa968715610eac576000976124e0575b506120ea87516119ba565b9860005b885181101561248a576120ff611969565b6001600160a01b03612111838c61060f565b51166040828101829052610140890151905163299faa1560e11b81526001600160a01b038b81166004830152918216602482015291166044820152602081806064810103816001600160a01b038e165afa908115610eac57600091612458575b5060808201526040808201519051632c08906360e21b81526001600160a01b038a811660048301529091166024820152602081806044810103816001600160a01b038e165afa908115610eac57600091612426575b506060820152604080820151905163313ce56760e01b815290602090829060049082906001600160a01b03165afa8015610eac5760ff91600091612407575b501660e082015260408082015190516395d89b4160e01b815290600090829060049082906001600160a01b03165afa908115610eac576000916123ee575b5081526040808201519051630150bdfb60e51b81526001600160a01b03918216600482015290602090829060249082908e165afa908115610eac576000916123af575b506001600160a01b0316602082810182905260405162e19f4760e81b815291829060049082905afa908115610eac5760009161236f575b506122c960ff91612a5b565b1660c0820152602080820151604080840151905163b3596f0760e01b81526001600160a01b039182166004820152929183916024918391165afa8015610eac578d9160009161233a575b508383926123289260a060019796015261060f565b52612333818d61060f565b50016120ee565b91506020823d602011612367575b816123556020938361051e565b810103126100895750518c9083612313565b3d9150612348565b906020823d6020116123a7575b816123896020938361051e565b8101031261008957506122c96123a060ff92610540565b91506122bd565b3d915061237c565b906020823d6020116123e6575b816123c96020938361051e565b81010312610089575060206123df600492610540565b9150612286565b3d91506123bc565b612401913d8091833e610f4a818361051e565b38612243565b612420915060203d602011610f8057610f72818361051e565b38612205565b906020823d602011612450575b816124406020938361051e565b81010312610089575051386121c6565b3d9150612433565b906020823d602011612482575b816124726020938361051e565b8101031261008957505138612171565b3d9150612465565b50610140850151604051929a9198509296939460049490936001600160a01b03166124b4846104d0565b83526001600160a01b031660208301526040808301919091526124d7858a61060f565b51015290611bc1565b6124f491973d8091833e610ffc818361051e565b95386120df565b612514915060203d60201161103557611026818361051e565b38611bb1565b610100820151604051636657732f60e01b81526001600160a01b039182166004820152969891959293929190600090889060249082908a165afa968715610eac5760009761295d575b5061256e87516119ba565b9860005b885181101561290e57612583611969565b6001600160a01b03612595838c61060f565b51166040828101829052610100890151905163299faa1560e11b81526001600160a01b038b81166004830152918216602482015291166044820152602081806064810103816001600160a01b038e165afa908115610eac576000916128dc575b5060808201526040808201519051632c08906360e21b81526001600160a01b038a811660048301529091166024820152602081806044810103816001600160a01b038e165afa908115610eac576000916128aa575b506060820152604080820151905163313ce56760e01b815290602090829060049082906001600160a01b03165afa8015610eac5760ff9160009161288b575b501660e082015260408082015190516395d89b4160e01b815290600090829060049082906001600160a01b03165afa908115610eac57600091612872575b5081526040808201519051630150bdfb60e51b81526001600160a01b03918216600482015290602090829060249082908e165afa908115610eac57600091612833575b506001600160a01b0316602082810182905260405162e19f4760e81b815291829060049082905afa908115610eac576000916127f3575b5061274d60ff91612a5b565b1660c0820152602080820151604080840151905163b3596f0760e01b81526001600160a01b039182166004820152929183916024918391165afa8015610eac578d916000916127be575b508383926127ac9260a060019796015261060f565b526127b7818d61060f565b5001612572565b91506020823d6020116127eb575b816127d96020938361051e565b810103126100895750518c9083612797565b3d91506127cc565b906020823d60201161282b575b8161280d6020938361051e565b81010312610089575061274d61282460ff92610540565b9150612741565b3d9150612800565b906020823d60201161286a575b8161284d6020938361051e565b8101031261008957506020612863600492610540565b915061270a565b3d9150612840565b612885913d8091833e610f4a818361051e565b386126c7565b6128a4915060203d602011610f8057610f72818361051e565b38612689565b906020823d6020116128d4575b816128c46020938361051e565b810103126100895750513861264a565b3d91506128b7565b906020823d602011612906575b816128f66020938361051e565b81010312610089575051386125f5565b3d91506128e9565b5096509794909492919260018060a01b03610100840151169160405192612934846104d0565b835260018060a01b0316602083015260408201526020612954848961060f565b51015238611b78565b61297191973d8091833e610ffc818361051e565b9538612563565b612991915060203d60201161103557611026818361051e565b38611b68565b6129ad9250803d106118b6576118a6818361051e565b3880611b0d565b5050505090565b6020906040516129ca81610502565b600081526129d66105ee565b838201526129e26105ee565b60408201526129ef6105ee565b606082015282828901015201611aad565b92611a83565b612a1a91923d8091833e610ffc818361051e565b9038611a6c565b90506020813d602011612a53575b81612a3c6020938361051e565b8101031261013857612a4d90610540565b38611a3c565b3d9150612a2f565b6001600160a01b0316612a6d57600890565b60405162461bcd60e51b815260206004820152601e60248201527f426173652063757272656e637920756e6974206d7573742062652055534400006044820152606490fdfea2646970667358221220a7f1f11e8c9f70d572e9e6a6622cd0780a1bc21332f2582eee40e4376a02082164736f6c63430008180033",
  "devdoc": {
    "kind": "dev",
    "methods": {},
    "version": 1
  },
  "userdoc": {
    "kind": "user",
    "methods": {},
    "version": 1
  },
  "storageLayout": {
    "storage": [],
    "types": null
  }
}