{
  "address": "0xE284a74c661AD0ff6fC7C07e180BBbDA8ED3Eabc",
  "abi": [
    {
      "inputs": [
        {
          "internalType": "contract IEACAggregatorProxy",
          "name": "_networkBaseTokenPriceInUsdProxyAggregator",
          "type": "address"
        },
        {
          "internalType": "contract IEACAggregatorProxy",
          "name": "_marketReferenceCurrencyPriceInUsdProxyAggregator",
          "type": "address"
        }
      ],
      "stateMutability": "nonpayable",
      "type": "constructor"
    },
    {
      "inputs": [],
      "name": "ETH_CURRENCY_UNIT",
      "outputs": [
        {
          "internalType": "uint256",
          "name": "",
          "type": "uint256"
        }
      ],
      "stateMutability": "view",
      "type": "function"
    },
    {
      "inputs": [],
      "name": "MKR_ADDRESS",
      "outputs": [
        {
          "internalType": "address",
          "name": "",
          "type": "address"
        }
      ],
      "stateMutability": "view",
      "type": "function"
    },
    {
      "inputs": [
        {
          "internalType": "bytes32",
          "name": "_bytes32",
          "type": "bytes32"
        }
      ],
      "name": "bytes32ToString",
      "outputs": [
        {
          "internalType": "string",
          "name": "",
          "type": "string"
        }
      ],
      "stateMutability": "pure",
      "type": "function"
    },
    {
      "inputs": [
        {
          "internalType": "contract IPoolAddressesProvider",
          "name": "provider",
          "type": "address"
        }
      ],
      "name": "getReservesData",
      "outputs": [
        {
          "components": [
            {
              "internalType": "address",
              "name": "underlyingAsset",
              "type": "address"
            },
            {
              "internalType": "string",
              "name": "name",
              "type": "string"
            },
            {
              "internalType": "string",
              "name": "symbol",
              "type": "string"
            },
            {
              "internalType": "uint256",
              "name": "decimals",
              "type": "uint256"
            },
            {
              "internalType": "uint256",
              "name": "baseLTVasCollateral",
              "type": "uint256"
            },
            {
              "internalType": "uint256",
              "name": "reserveLiquidationThreshold",
              "type": "uint256"
            },
            {
              "internalType": "uint256",
              "name": "reserveLiquidationBonus",
              "type": "uint256"
            },
            {
              "internalType": "uint256",
              "name": "reserveFactor",
              "type": "uint256"
            },
            {
              "internalType": "bool",
              "name": "usageAsCollateralEnabled",
              "type": "bool"
            },
            {
              "internalType": "bool",
              "name": "borrowingEnabled",
              "type": "bool"
            },
            {
              "internalType": "bool",
              "name": "stableBorrowRateEnabled",
              "type": "bool"
            },
            {
              "internalType": "bool",
              "name": "isActive",
              "type": "bool"
            },
            {
              "internalType": "bool",
              "name": "isFrozen",
              "type": "bool"
            },
            {
              "internalType": "uint128",
              "name": "liquidityIndex",
              "type": "uint128"
            },
            {
              "internalType": "uint128",
              "name": "variableBorrowIndex",
              "type": "uint128"
            },
            {
              "internalType": "uint128",
              "name": "liquidityRate",
              "type": "uint128"
            },
            {
              "internalType": "uint128",
              "name": "variableBorrowRate",
              "type": "uint128"
            },
            {
              "internalType": "uint128",
              "name": "stableBorrowRate",
              "type": "uint128"
            },
            {
              "internalType": "uint40",
              "name": "lastUpdateTimestamp",
              "type": "uint40"
            },
            {
              "internalType": "address",
              "name": "aTokenAddress",
              "type": "address"
            },
            {
              "internalType": "address",
              "name": "stableDebtTokenAddress",
              "type": "address"
            },
            {
              "internalType": "address",
              "name": "variableDebtTokenAddress",
              "type": "address"
            },
            {
              "internalType": "address",
              "name": "interestRateStrategyAddress",
              "type": "address"
            },
            {
              "internalType": "uint256",
              "name": "availableLiquidity",
              "type": "uint256"
            },
            {
              "internalType": "uint256",
              "name": "totalPrincipalStableDebt",
              "type": "uint256"
            },
            {
              "internalType": "uint256",
              "name": "averageStableRate",
              "type": "uint256"
            },
            {
              "internalType": "uint256",
              "name": "stableDebtLastUpdateTimestamp",
              "type": "uint256"
            },
            {
              "internalType": "uint256",
              "name": "totalScaledVariableDebt",
              "type": "uint256"
            },
            {
              "internalType": "uint256",
              "name": "priceInMarketReferenceCurrency",
              "type": "uint256"
            },
            {
              "internalType": "address",
              "name": "priceOracle",
              "type": "address"
            },
            {
              "internalType": "uint256",
              "name": "variableRateSlope1",
              "type": "uint256"
            },
            {
              "internalType": "uint256",
              "name": "variableRateSlope2",
              "type": "uint256"
            },
            {
              "internalType": "uint256",
              "name": "stableRateSlope1",
              "type": "uint256"
            },
            {
              "internalType": "uint256",
              "name": "stableRateSlope2",
              "type": "uint256"
            },
            {
              "internalType": "uint256",
              "name": "baseStableBorrowRate",
              "type": "uint256"
            },
            {
              "internalType": "uint256",
              "name": "baseVariableBorrowRate",
              "type": "uint256"
            },
            {
              "internalType": "uint256",
              "name": "optimalUsageRatio",
              "type": "uint256"
            },
            {
              "internalType": "bool",
              "name": "isPaused",
              "type": "bool"
            },
            {
              "internalType": "bool",
              "name": "isSiloedBorrowing",
              "type": "bool"
            },
            {
              "internalType": "uint128",
              "name": "accruedToTreasury",
              "type": "uint128"
            },
            {
              "internalType": "uint128",
              "name": "unbacked",
              "type": "uint128"
            },
            {
              "internalType": "uint128",
              "name": "isolationModeTotalDebt",
              "type": "uint128"
            },
            {
              "internalType": "bool",
              "name": "flashLoanEnabled",
              "type": "bool"
            },
            {
              "internalType": "uint256",
              "name": "debtCeiling",
              "type": "uint256"
            },
            {
              "internalType": "uint256",
              "name": "debtCeilingDecimals",
              "type": "uint256"
            },
            {
              "internalType": "uint8",
              "name": "eModeCategoryId",
              "type": "uint8"
            },
            {
              "internalType": "uint256",
              "name": "borrowCap",
              "type": "uint256"
            },
            {
              "internalType": "uint256",
              "name": "supplyCap",
              "type": "uint256"
            },
            {
              "internalType": "uint16",
              "name": "eModeLtv",
              "type": "uint16"
            },
            {
              "internalType": "uint16",
              "name": "eModeLiquidationThreshold",
              "type": "uint16"
            },
            {
              "internalType": "uint16",
              "name": "eModeLiquidationBonus",
              "type": "uint16"
            },
            {
              "internalType": "address",
              "name": "eModePriceSource",
              "type": "address"
            },
            {
              "internalType": "string",
              "name": "eModeLabel",
              "type": "string"
            },
            {
              "internalType": "bool",
              "name": "borrowableInIsolation",
              "type": "bool"
            }
          ],
          "internalType": "struct IUiPoolDataProviderV3.AggregatedReserveData[]",
          "name": "",
          "type": "tuple[]"
        },
        {
          "components": [
            {
              "internalType": "uint256",
              "name": "marketReferenceCurrencyUnit",
              "type": "uint256"
            },
            {
              "internalType": "int256",
              "name": "marketReferenceCurrencyPriceInUsd",
              "type": "int256"
            },
            {
              "internalType": "int256",
              "name": "networkBaseTokenPriceInUsd",
              "type": "int256"
            },
            {
              "internalType": "uint8",
              "name": "networkBaseTokenPriceDecimals",
              "type": "uint8"
            }
          ],
          "internalType": "struct IUiPoolDataProviderV3.BaseCurrencyInfo",
          "name": "",
          "type": "tuple"
        }
      ],
      "stateMutability": "view",
      "type": "function"
    },
    {
      "inputs": [
        {
          "internalType": "contract IPoolAddressesProvider",
          "name": "provider",
          "type": "address"
        }
      ],
      "name": "getReservesList",
      "outputs": [
        {
          "internalType": "address[]",
          "name": "",
          "type": "address[]"
        }
      ],
      "stateMutability": "view",
      "type": "function"
    },
    {
      "inputs": [
        {
          "internalType": "contract IPoolAddressesProvider",
          "name": "provider",
          "type": "address"
        },
        {
          "internalType": "address",
          "name": "user",
          "type": "address"
        }
      ],
      "name": "getUserReservesData",
      "outputs": [
        {
          "components": [
            {
              "internalType": "address",
              "name": "underlyingAsset",
              "type": "address"
            },
            {
              "internalType": "uint256",
              "name": "scaledATokenBalance",
              "type": "uint256"
            },
            {
              "internalType": "bool",
              "name": "usageAsCollateralEnabledOnUser",
              "type": "bool"
            },
            {
              "internalType": "uint256",
              "name": "stableBorrowRate",
              "type": "uint256"
            },
            {
              "internalType": "uint256",
              "name": "scaledVariableDebt",
              "type": "uint256"
            },
            {
              "internalType": "uint256",
              "name": "principalStableDebt",
              "type": "uint256"
            },
            {
              "internalType": "uint256",
              "name": "stableBorrowLastUpdateTimestamp",
              "type": "uint256"
            }
          ],
          "internalType": "struct IUiPoolDataProviderV3.UserReserveData[]",
          "name": "",
          "type": "tuple[]"
        },
        {
          "internalType": "uint8",
          "name": "",
          "type": "uint8"
        }
      ],
      "stateMutability": "view",
      "type": "function"
    },
    {
      "inputs": [],
      "name": "marketReferenceCurrencyPriceInUsdProxyAggregator",
      "outputs": [
        {
          "internalType": "contract IEACAggregatorProxy",
          "name": "",
          "type": "address"
        }
      ],
      "stateMutability": "view",
      "type": "function"
    },
    {
      "inputs": [],
      "name": "networkBaseTokenPriceInUsdProxyAggregator",
      "outputs": [
        {
          "internalType": "contract IEACAggregatorProxy",
          "name": "",
          "type": "address"
        }
      ],
      "stateMutability": "view",
      "type": "function"
    }
  ],
  "transactionHash": "0xd69b859e56481c3da7ef236197db39b1b98ee8d255a5dac130c22936851f422b",
  "args": [
    "0x89e60b56efD70a1D4FBBaE947bC33cae41e37A72",
    "0x89e60b56efD70a1D4FBBaE947bC33cae41e37A72"
  ],
  "numDeployments": 1,
  "solcInputHash": "8ed37bb5fee79f55dbb8814c36c24c8d",
  "bytecode": "0x60c0346200009157601f6200253738819003918201601f19168301916001600160401b038311848410176200009657808492604094855283398101031262000091576200005a60206200005283620000ac565b9201620000ac565b9060805260a0526040516124759081620000c28239608051818181610e320152611eb5015260a051818181610f0901526116500152f35b600080fd5b634e487b7160e01b600052604160045260246000fd5b51906001600160a01b0382168203620000915756fe608080604052600436101561001357600080fd5b60003560e01c9081630496f53a14611ee4575080633c1740ed14611e9f57806351974cc0146117ec578063586c1442146116e5578063825ffd92146116b65780639201de551461167f578063d22cf68a1461163a5763ec489c211461007757600080fd5b3461094957602036600319011261094957610090611f05565b61009861230f565b50604051631f94a27560e31b81526001600160a01b039190911690602081600481855afa90811561096457600091611600575b5060405163026b1d5f60e01b815290602082600481865afa918215610964576000926115c1575b506020600492936040519384809263e860accb60e01b82525afa91821561096457600092611585575b506040516334651b6f60e21b8152906000826004816001600160a01b0388165afa91821561096457600092611560575b5081519261017161015b85611f99565b946101696040519687611f63565b808652611f99565b601f190160005b81811061139057505060005b8351811015610e17576101978186612062565b51906001600160a01b036101ab8287612062565b51168083526040516335ea6a7560e01b81526004810191909152916101e080846024816001600160a01b038d165afa93841561096457600094610de8575b506020848101516001600160801b039081166101a0850152606086015181166101c08501526040808701518216938501939093526080860151811661020085015260a08601511661022084015260c085015164ffffffffff166102408401526101008501516001600160a01b03908116610260850152610120860151811661028085015261014086015181166102a085015261016086015181166102c08501528351925163b3596f0760e01b81529281166004840152829060249082908a165afa90811561096457600091610db6575b506103808201528051604051630495f95f60e51b81526001600160a01b03918216600482015290602090829060249082908a165afa90811561096457600091610d7c575b506001600160a01b039081166103a083015281516102608301516040516370a0823160e01b815290831660048201529160209183916024918391165afa90811561096457600091610d4a575b506102e0820152610280810151604051630f2ee86760e31b815290608090829060049082906001600160a01b03165afa90811561096457600091600091600091610cfb575b5064ffffffffff166103408401526103208301526103008201526102a081015160405163b1bf962d60e01b815290602090829060049082906001600160a01b03165afa90811561096457600091610cc9575b5061036082015280516001600160a01b0316739f8f72aa9304c8b593d555f12ef6589cc3a579a28103610c23575080516040516395d89b4160e01b815290602090829060049082906001600160a01b03165afa801561096457600090610bf0575b82516040516306fdde0360e01b81529250602090839060049082906001600160a01b03165afa91821561096457600092610bba575b509061048461048e92612232565b6040840152612232565b60208201525b8251926004845161ffff8160401c1660e085015260ff8160301c16606085015261ffff8160201c1660c085015261ffff8160101c1660a085015261ffff8116608085015261ffff811615156101008501526701000000000000008651671000000000000000811615156104a0870152670800000000000000811615156101408701526704000000000000008116151561012087015267020000000000000081161515610180870152161515610160850152602060018060a01b036102c0860151166040519384809263059a14d160e11b82525afa80600091610b85575b60049350610b79575b506102c084015160405163f420240960e01b81529260209184919082906001600160a01b03165afa80600091610b44575b60049350610b38575b506102c084015160405163d5cd739160e01b81529260209184919082906001600160a01b03165afa80600091610b03575b60049350610af7575b506102c0840151604051630538cb6960e21b81529260209184919082906001600160a01b03165afa80600091610ac2575b60049350610ab6575b506102c084015160405163566bc34360e11b81529260209184919082906001600160a01b03165afa80600091610a81575b60049350610a75575b506102c08401516040516334762ca560e01b81529260209184919082906001600160a01b03165afa80600091610a40575b60049350610a34575b506102c0840151604051632a61b2e360e11b81529260209184919082906001600160a01b03165afa806000916109ff575b60ff93506109f3575b5060a81c166105a0830152835160d41c64ffffffffff166105608301526040516369b169e160e01b81526020816004816001600160a01b038a165afa908115610964576000916109c1575b506105808301528351640fffffffff607482901c81166105e085015260509190911c166105c083015281516040516335fb4fbd60e21b81526001600160a01b0391821660048201529190602090839060249082908a165afa809260009161097d575b5090610180916001600160801b03931560001461097057506107a36123b0565b5060016105408501525b85516740000000000000001615156104c08501526101a081015183166105008501526101c081015183166105208501520151166104e08201526105a0810151604051636c6f6ae160e01b815260ff9091166004820152926000846024816001600160a01b038d165afa93841561096457600094610885575b506001603d1b6106a09160808661ffff600198511661060087015261ffff60208201511661062087015261ffff604082015116610640870152878060a01b0360608201511661066087015201516106808501525116151591015201610184565b93503d806000863e6108978186611f63565b840160208582031261094957845167ffffffffffffffff9586821161094957019160a083830312610949576040519560a087018781108282111761094e576040526108e1846120b2565b87526108ef602085016120b2565b6020880152610900604085016120b2565b604088015261091160608501611f85565b606088015260808401519081116109495760019661093b6001603d1b946080936106a09701612345565b828201529650509150610825565b600080fd5b634e487b7160e01b600052604160045260246000fd5b6040513d6000823e3d90fd5b15156105408501526107ad565b90506020813d6020116109b9575b8161099860209383611f63565b81010312610949575190811515820361094957906001600160801b03610783565b3d915061098b565b90506020813d6020116109eb575b816109dc60209383611f63565b81010312610949575138610721565b3d91506109cf565b610480850152386106d6565b90506020833d602011610a2c575b81610a1a60209383611f63565b810103126109495760ff9251906106cd565b3d9150610a0d565b6104608501523861069c565b90506020833d602011610a6d575b81610a5b60209383611f63565b81010312610949576004925190610693565b3d9150610a4e565b61044085015238610662565b90506020833d602011610aae575b81610a9c60209383611f63565b81010312610949576004925190610659565b3d9150610a8f565b61042085015238610628565b90506020833d602011610aef575b81610add60209383611f63565b8101031261094957600492519061061f565b3d9150610ad0565b610400850152386105ee565b90506020833d602011610b30575b81610b1e60209383611f63565b810103126109495760049251906105e5565b3d9150610b11565b6103e0850152386105b4565b90506020833d602011610b71575b81610b5f60209383611f63565b810103126109495760049251906105ab565b3d9150610b52565b6103c08501523861057a565b90506020833d602011610bb2575b81610ba060209383611f63565b81010312610949576004925190610571565b3d9150610b93565b91506020823d602011610be8575b81610bd560209383611f63565b8101031261094957905190610484610476565b3d9150610bc8565b506020813d602011610c1b575b81610c0a60209383611f63565b810103126109495760049051610441565b3d9150610bfd565b6000600491604051928380926395d89b4160e01b82525afa90811561096457600091610cae575b5060408201526004600060018060a01b03835116604051928380926306fdde0360e01b82525afa90811561096457600091610c8b575b506020820152610494565b610ca891503d806000833e610ca08183611f63565b81019061238a565b38610c80565b610cc391503d806000833e610ca08183611f63565b38610c4a565b90506020813d602011610cf3575b81610ce460209383611f63565b810103126109495751386103e0565b3d9150610cd7565b925050506080813d608011610d42575b81610d1860809383611f63565b8101031261094957805164ffffffffff610d396060604085015194016120a0565b9192919061038e565b3d9150610d0b565b90506020813d602011610d74575b81610d6560209383611f63565b81010312610949575138610349565b3d9150610d58565b90506020813d602011610dae575b81610d9760209383611f63565b8101031261094957610da890611f85565b386102fd565b3d9150610d8a565b90506020813d602011610de0575b81610dd160209383611f63565b810103126109495751386102b9565b3d9150610dc4565b81610e099295503d8611610e10575b610e018183611f63565b8101906120c1565b92386101e9565b503d610df7565b8483610e2161230f565b6040516350d25bcd60e01b815290927f00000000000000000000000000000000000000000000000000000000000000006001600160a01b0316929091602081600481875afa9081156109645760009161135d575b5060049360209160408701526040519485809263313ce56760e01b82525afa9283156109645760009361131e575b5060ff9283166060850152604051638c89b64f60e01b815290602090829060049082906001600160a01b03165afa600091816112ea575b506112dd5750610ee86123b0565b50670de0b6b3a764000083526040516350d25bcd60e01b81526020816004817f00000000000000000000000000000000000000000000000000000000000000006001600160a01b03165afa908115610964576000916112ab575b5060208401525b6040519160a09060a084019060a08552835180925260c080860190602060c08560051b8901019601946000935b858510610fab5788808960ff60608e805160208601526020810151604086015260408101518286015201511660808301520390f35b9091929394959660208060019260bf198c82030188528a519061128d610fff610fed6106c0888060a01b03865116855286860151908088870152850190611f3e565b60408501518482036040860152611f3e565b60608401516060840152608080850151908401528884015189840152898401518a84015260e084015160e084015261010080850151151590840152610120808501511515908401526101408085015115159084015261016080850151151590840152610180808501511515908401526101a080850151906001600160801b03809216908501526101c0818187015116908501526101e081818701511690850152610200818187015116908501526102208181870151169085015261024064ffffffffff818701511690850152610260888060a01b03818701511690850152610280888060a01b038187015116908501526102a0888060a01b038187015116908501526102c0888060a01b038187015116908501526102e08086015190850152610300808601519085015261032080860151908501526103408086015190850152610360808601519085015261038080860151908501526103a0888060a01b038187015116908501526103c080860151908501526103e08086015190850152610400808601519085015261042080860151908501526104408086015190850152610460808601519085015261048080860151908501526104a0808601511515908501526104c0808601511515908501526104e081818701511690850152610500818187015116908501526105209081860151169084015261054080850151151590840152610560808501519084015261058080850151908401526105a0888186015116908401526105c080850151908401526105e08085015190840152610600808501519061ffff809216908501526106208181870151169085015261064090818601511690840152610660878060a01b03818601511690840152610680808501519084830390850152611f3e565b916106a0809101511515910152990195019501939594929190610f76565b90506020813d6020116112d5575b816112c660209383611f63565b81010312610949575184610f42565b3d91506112b9565b8084526020840152610f49565b9091506020813d602011611316575b8161130660209383611f63565b8101031261094957519085610eda565b3d91506112f9565b9092506020813d602011611355575b8161133a60209383611f63565b81010312610949575160ff8116810361094957916020610ea3565b3d915061132d565b90506020813d602011611388575b8161137860209383611f63565b8101031261094957516004610e75565b3d915061136b565b604051906106c082019180831067ffffffffffffffff84111761094e57602092604052600081526060808483015280604083015260008183015260006080830152600060a0830152600060c0830152600060e08301526000610100830152600061012083015260006101408301526000610160830152600061018083015260006101a083015260006101c083015260006101e08301526000610200830152600061022083015260006102408301526000610260830152600061028083015260006102a083015260006102c083015260006102e08301526000610300830152600061032083015260006103408301526000610360830152600061038083015260006103a083015260006103c083015260006103e08301526000610400830152600061042083015260006104408301526000610460830152600061048083015260006104a083015260006104c083015260006104e08301526000610500830152600061052083015260006105408301526000610560830152600061058083015260006105a083015260006105c083015260006105e0830152600061060083015260006106208301526000610640830152600061066083015261068082015260006106a082015282828901015201610178565b61157e9192503d806000833e6115768183611f63565b810190611fb1565b903861014b565b9091506020813d6020116115b9575b816115a160209383611f63565b81010312610949576115b290611f85565b903861011b565b3d9150611594565b91506020823d6020116115f8575b816115dc60209383611f63565b810103126109495760206115f1600493611f85565b92506100f2565b3d91506115cf565b90506020813d602011611632575b8161161b60209383611f63565b810103126109495761162c90611f85565b386100cb565b3d915061160e565b34610949576000366003190112610949576040517f00000000000000000000000000000000000000000000000000000000000000006001600160a01b03168152602090f35b34610949576020366003190112610949576116b261169e600435612232565b604051918291602083526020830190611f3e565b0390f35b34610949576000366003190112610949576020604051739f8f72aa9304c8b593d555f12ef6589cc3a579a28152f35b3461094957602080600319360112610949576001600160a01b03906004818361170c611f05565b166040519283809263026b1d5f60e01b82525afa80156109645783916000916117b2575b506000906004604051809481936334651b6f60e21b8352165afa90811561096457600091611797575b50604051918083018184528251809152816040850193019160005b8281106117815785850386f35b8351871685529381019392810192600101611774565b6117ac91503d806000833e6115768183611f63565b83611759565b809250838092503d83116117e5575b6117cb8183611f63565b810103126109495760006117df8492611f85565b90611730565b503d6117c1565b3461094957604036600319011261094957611805611f05565b602435906001600160a01b03821682036109495760405163026b1d5f60e01b815290602090829060049082906001600160a01b03165afa90811561096457600091611e65575b506040516334651b6f60e21b81526000816004816001600160a01b0386165afa90811561096457600091611e4a575b50604051634417a58360e01b81526001600160a01b0384811660048301529092906020908490602490829085165afa92831561096457600093611e0f575b5060405163eddf1b7960e01b81526001600160a01b0385811660048301529093906020908590602490829086165afa93841561096457600094611ddb575b506001600160a01b03851615611dd3578251925b61191661015b85611f99565b601f190160005b818110611d7857505060005b8151811015611cdf576001600160a01b036119448284612062565b516040516335ea6a7560e01b8152911660048201526101e09081816024816001600160a01b038a165afa91821561096457600092611cc2575b506001600160a01b0390506119928385612062565b511661199e8388612062565b5152610100810151604051630ed1279f60e11b81526001600160a01b038a81166004830152909160209183916024918391165afa90811561096457600091611c90575b5060206119ee8489612062565b51015260808210611a06611a006123e0565b8261240f565b8451611a376001928386811b938185011c1615156040611a26888d612062565b510152611a316123e0565b9061240f565b8551901c16611a4a575b50600101611929565b610140810151604051630ed1279f60e11b81526001600160a01b038a8116600483015290929160209184916024918391165afa801561096457600090611c5c575b61012092506080611a9c858a612062565b51015201805160405163631a6fd560e11b81526001600160a01b038a81166004830152929392909160209183916024918391165afa90811561096457600091611c2a575b5060a09081611aef848a612062565b510152611afc8288612062565b510151611b0a575b90611a41565b815160405163e78c9b3b60e01b81526001600160a01b038a81166004830152909160209183916024918391165afa90811561096457600091611bf7575b506024926020916060611b5a858b612062565b51015251604051631e739ae360e21b81526001600160a01b038b811660048301529094859290918391165afa91821561096457600092611bb4575b5064ffffffffff6001921660c0611bac8389612062565b510152611b04565b91506020823d602011611bef575b81611bcf60209383611f63565b810103126109495764ffffffffff611be86001936120a0565b9250611b95565b3d9150611bc2565b90506020813d602011611c22575b81611c1260209383611f63565b8101031261094957516024611b47565b3d9150611c05565b90506020813d602011611c54575b81611c4560209383611f63565b81010312610949575189611ae0565b3d9150611c38565b506020823d602011611c88575b81611c7660209383611f63565b81010312610949576101209151611a8b565b3d9150611c69565b90506020813d602011611cba575b81611cab60209383611f63565b810103126109495751896119e1565b3d9150611c9e565b611cd89250803d10610e1057610e018183611f63565b888061197d565b858560405190604082019260408352815180945260609360206060850193019060005b818110611d185760ff8416602087015285850386f35b825180516001600160a01b031686526020818101518188015260408083015115159088015288820151898801526080808301519088015260a0808301519088015260c0918201519187019190915260e09095019490920191600101611d02565b6040519060e082019180831067ffffffffffffffff84111761094e5760209260405260008152600083820152600060408201526000606082015260006080820152600060a0820152600060c08201528282890101520161191d565b60009261190a565b9093506020813d602011611e07575b81611df760209383611f63565b81010312610949575192856118f6565b3d9150611dea565b90925060203d602011611e43575b611e278183611f63565b810160208282031261094957611e3c91612033565b91846118b8565b503d611e1d565b611e5f91503d806000833e6115768183611f63565b8361187a565b90506020813d602011611e97575b81611e8060209383611f63565b8101031261094957611e9190611f85565b8261184b565b3d9150611e73565b34610949576000366003190112610949576040517f00000000000000000000000000000000000000000000000000000000000000006001600160a01b03168152602090f35b346109495760003660031901126109495780670de0b6b3a764000060209252f35b600435906001600160a01b038216820361094957565b60005b838110611f2e5750506000910152565b8181015183820152602001611f1e565b90602091611f5781518092818552858086019101611f1b565b601f01601f1916010190565b90601f8019910116810190811067ffffffffffffffff82111761094e57604052565b51906001600160a01b038216820361094957565b67ffffffffffffffff811161094e5760051b60200190565b60209081818403126109495780519067ffffffffffffffff821161094957019180601f84011215610949578251611fe781611f99565b93611ff56040519586611f63565b818552838086019260051b820101928311610949578301905b82821061201c575050505090565b83809161202884611f85565b81520191019061200e565b9190826020910312610949576040516020810181811067ffffffffffffffff82111761094e5760405291518252565b80518210156120765760209160051b010190565b634e487b7160e01b600052603260045260246000fd5b51906001600160801b038216820361094957565b519064ffffffffff8216820361094957565b519061ffff8216820361094957565b6101e0918282820312610949576040519283019083821067ffffffffffffffff83111761094e576120f59160405282612033565b82526121036020820161208c565b60208301526121146040820161208c565b60408301526121256060820161208c565b60608301526121366080820161208c565b608083015261214760a0820161208c565b60a083015261215860c082016120a0565b60c083015261216960e082016120b2565b60e083015261010061217c818301611f85565b9083015261012061218e818301611f85565b908301526101406121a0818301611f85565b908301526101606121b2818301611f85565b908301526101806121c481830161208c565b908301526101a06121d681830161208c565b908301526121e86101c080920161208c565b9082015290565b60ff1660ff81146122005760010190565b634e487b7160e01b600052601160045260246000fd5b67ffffffffffffffff811161094e57601f01601f191660200190565b9060005b60ff81166020811090816122f1575b501561225957612254906121ef565b612236565b9060ff8092169061228261226c83612216565b9261227a6040519485611f63565b808452612216565b60209190601f1901368484013760005b8085169083821080806122d5575b156122ca5715612076578451821015612076578184886122c5941a91870101536121ef565b612292565b505050935050905090565b156120765787831a60f81b6001600160f81b03191615156122a0565b90156120765783901a60f81b6001600160f81b031916151538612245565b604051906080820182811067ffffffffffffffff82111761094e5760405260006060838281528260208201528260408201520152565b81601f8201121561094957805161235b81612216565b926123696040519485611f63565b81845260208284010111610949576123879160208085019101611f1b565b90565b9060208282031261094957815167ffffffffffffffff8111610949576123879201612345565b3d156123db573d906123c182612216565b916123cf6040519384611f63565b82523d6000602084013e565b606090565b604051906040820182811067ffffffffffffffff82111761094e5760405260028252610dcd60f21b6020830152565b156124175750565b60405162461bcd60e51b81526020600482015290819061243b906024830190611f3e565b0390fdfea2646970667358221220349bc596deec0799f16267a600631a9d4f60ea384c88af5df779a129accea6c764736f6c63430008180033",
  "devdoc": {
    "kind": "dev",
    "methods": {},
    "version": 1
  },
  "userdoc": {
    "kind": "user",
    "methods": {},
    "version": 1
  },
  "storageLayout": {
    "storage": [],
    "types": null
  }
}