{
  "address": "0xcED414797155D79FcE11bF3d11f36B1b31860e08",
  "abi": [
    {
      "inputs": [
        {
          "internalType": "address",
          "name": "_dStable",
          "type": "address"
        },
        {
          "internalType": "address",
          "name": "_wrappedDLendToken",
          "type": "address"
        },
        {
          "internalType": "address",
          "name": "_collateralVault",
          "type": "address"
        }
      ],
      "stateMutability": "nonpayable",
      "type": "constructor"
    },
    {
      "inputs": [
        {
          "internalType": "address",
          "name": "target",
          "type": "address"
        }
      ],
      "name": "AddressEmptyCode",
      "type": "error"
    },
    {
      "inputs": [
        {
          "internalType": "address",
          "name": "account",
          "type": "address"
        }
      ],
      "name": "AddressInsufficientBalance",
      "type": "error"
    },
    {
      "inputs": [],
      "name": "FailedInnerCall",
      "type": "error"
    },
    {
      "inputs": [
        {
          "internalType": "string",
          "name": "message",
          "type": "string"
        }
      ],
      "name": "InconsistentState",
      "type": "error"
    },
    {
      "inputs": [],
      "name": "InvalidAmount",
      "type": "error"
    },
    {
      "inputs": [
        {
          "internalType": "address",
          "name": "token",
          "type": "address"
        }
      ],
      "name": "SafeERC20FailedOperation",
      "type": "error"
    },
    {
      "inputs": [],
      "name": "ZeroAddress",
      "type": "error"
    },
    {
      "inputs": [
        {
          "internalType": "address",
          "name": "_vaultAsset",
          "type": "address"
        },
        {
          "internalType": "uint256",
          "name": "vaultAssetAmount",
          "type": "uint256"
        }
      ],
      "name": "assetValueInDStable",
      "outputs": [
        {
          "internalType": "uint256",
          "name": "dStableValue",
          "type": "uint256"
        }
      ],
      "stateMutability": "view",
      "type": "function"
    },
    {
      "inputs": [],
      "name": "collateralVault",
      "outputs": [
        {
          "internalType": "address",
          "name": "",
          "type": "address"
        }
      ],
      "stateMutability": "view",
      "type": "function"
    },
    {
      "inputs": [
        {
          "internalType": "uint256",
          "name": "vaultAssetAmount",
          "type": "uint256"
        }
      ],
      "name": "convertFromVaultAsset",
      "outputs": [
        {
          "internalType": "uint256",
          "name": "dStableAmount",
          "type": "uint256"
        }
      ],
      "stateMutability": "nonpayable",
      "type": "function"
    },
    {
      "inputs": [
        {
          "internalType": "uint256",
          "name": "dStableAmount",
          "type": "uint256"
        }
      ],
      "name": "convertToVaultAsset",
      "outputs": [
        {
          "internalType": "address",
          "name": "_vaultAsset",
          "type": "address"
        },
        {
          "internalType": "uint256",
          "name": "vaultAssetAmount",
          "type": "uint256"
        }
      ],
      "stateMutability": "nonpayable",
      "type": "function"
    },
    {
      "inputs": [],
      "name": "dStable",
      "outputs": [
        {
          "internalType": "address",
          "name": "",
          "type": "address"
        }
      ],
      "stateMutability": "view",
      "type": "function"
    },
    {
      "inputs": [
        {
          "internalType": "uint256",
          "name": "vaultAssetAmount",
          "type": "uint256"
        }
      ],
      "name": "previewConvertFromVaultAsset",
      "outputs": [
        {
          "internalType": "uint256",
          "name": "dStableAmount",
          "type": "uint256"
        }
      ],
      "stateMutability": "view",
      "type": "function"
    },
    {
      "inputs": [
        {
          "internalType": "uint256",
          "name": "dStableAmount",
          "type": "uint256"
        }
      ],
      "name": "previewConvertToVaultAsset",
      "outputs": [
        {
          "internalType": "address",
          "name": "_vaultAsset",
          "type": "address"
        },
        {
          "internalType": "uint256",
          "name": "vaultAssetAmount",
          "type": "uint256"
        }
      ],
      "stateMutability": "view",
      "type": "function"
    },
    {
      "inputs": [],
      "name": "vaultAsset",
      "outputs": [
        {
          "internalType": "address",
          "name": "",
          "type": "address"
        }
      ],
      "stateMutability": "view",
      "type": "function"
    },
    {
      "inputs": [],
      "name": "wrappedDLendToken",
      "outputs": [
        {
          "internalType": "contract IStaticATokenLM",
          "name": "",
          "type": "address"
        }
      ],
      "stateMutability": "view",
      "type": "function"
    }
  ],
  "transactionHash": "0x53569f486179504e0bf45f5759ddbbd6e8ae6128966415adaad863df938f7746",
  "args": [
    "0x788D96f655735f52c676A133f4dFC53cEC614d4A",
    "0xDf697E9608cD286F83d8F76F33a258aC1a8d2764",
    "0x5432ed4A370718D6904485e2Fc114762C68Cc7BE"
  ],
  "numDeployments": 1,
  "solcInputHash": "3ab0b7ef278db081e26e71c26b8f317e",
  "bytecode": "0x60e06040908082523461018057606081610a8b803803809161002182856101bc565b83398101031261018057610034816101f5565b60209161004d846100468584016101f5565b92016101f5565b6001600160a01b0383811693909290841580156101b2575b80156101a8575b610197579183869260049460805216908160a05260c0528651928380926338d52e0f60e01b82525afa90811561018c57600091610152575b501603610104575051610881908161020a823960805181818161046101526104fe015260a05181818160af0152818161018e0152818161022d015281816103360152818161041d015261053a015260c0518181816104a501526105a40152f35b6084915190633b0e6a4960e11b82526004820152602260248201527f53746174696341546f6b656e4c4d20756e6465726c79696e67206d69736d61746044820152610c6d60f31b6064820152fd5b90508381813d8311610185575b61016981836101bc565b810103126101805761017a906101f5565b386100a4565b600080fd5b503d61015f565b85513d6000823e3d90fd5b865163d92e233d60e01b8152600490fd5b508383161561006c565b5083821615610065565b601f909101601f19168101906001600160401b038211908210176101df57604052565b634e487b7160e01b600052604160045260246000fd5b51906001600160a01b03821682036101805756fe608060408181526004908136101561001657600080fd5b600092833560e01c9081630151dc94146104d4575080630bece79c146104905780630cc2f8d21461044c57806331f06078146104085780634ab9e16b14610408578063a11fdeee14610312578063c5c7f52c14610204578063e0e5c1ab1461015c5763ef2d3a0c1461008757600080fd5b3461015857602036600319011261015857805163ef8b30f760e01b81528235928101929092527f00000000000000000000000000000000000000000000000000000000000000006001600160a01b031691602081602481865afa93841561014d578094610111575b5050516001600160a01b039190911681526020810191909152604090f35b0390f35b909193506020823d602011610145575b8161012e6020938361068a565b810103126101425750519161010d386100ef565b80fd5b3d9150610121565b8251903d90823e3d90fd5b8280fd5b50829034610200576020928360031936011261015857815163266d6a8360e11b815281359181019190915283816024817f00000000000000000000000000000000000000000000000000000000000000006001600160a01b03165afa92831561014d5780936101ce575b505051908152f35b909192508382813d83116101f9575b6101e7818361068a565b810103126101425750519083806101c6565b503d6101dd565b5080fd5b503461015857806003193601126101585781356001600160a01b03818116939184900361030e577f0000000000000000000000000000000000000000000000000000000000000000168093036102cb57602090602483518095819363266d6a8360e11b83528335908301525afa9182156102c1578392610289575b6020838351908152f35b9091506020813d6020116102b9575b816102a56020938361068a565b81010312610158576020925051903861027f565b3d9150610298565b81513d85823e3d90fd5b60206064925191633b0e6a4960e11b8352820152601d60248201527f496e636f7272656374207661756c7420617373657420616464726573730000006044820152fd5b8480fd5b50829034610200576020928360031936011261015857803580156103f957839085907f00000000000000000000000000000000000000000000000000000000000000006001600160a01b03169060649061036e813033866106df565b86519485938492635d043b2960e11b8452888401523360248401523060448401525af19384156103ee5780946103bc575b505082156103ae575051908152f35b905163162908e360e11b8152fd5b909193508482813d83116103e7575b6103d5818361068a565b8101031261014257505191848061039f565b503d6103cb565b8351903d90823e3d90fd5b50905163162908e360e11b8152fd5b838234610200578160031936011261020057517f00000000000000000000000000000000000000000000000000000000000000006001600160a01b03168152602090f35b838234610200578160031936011261020057517f00000000000000000000000000000000000000000000000000000000000000006001600160a01b03168152602090f35b838234610200578160031936011261020057517f00000000000000000000000000000000000000000000000000000000000000006001600160a01b03168152602090f35b92905034610686576020938460031936011261014257813593841561067857506001600160a01b037f000000000000000000000000000000000000000000000000000000000000000081169461052c813033896106df565b845163095ea7b360e01b81527f000000000000000000000000000000000000000000000000000000000000000083166001600160a01b038116868301908152602081018490529097899183919082908890829060400103925af1801561066e57610641575b508451636e553f6560e01b8152938401527f0000000000000000000000000000000000000000000000000000000000000000166024830152848260448184885af1948515610635578195610600575b505090516001600160a01b03929092168252506020810191909152604090f35b909180939550813d831161062e575b610619818361068a565b810103126101425750519161010d38806105e0565b503d61060f565b508251903d90823e3d90fd5b61066090883d8a11610667575b610658818361068a565b8101906106c2565b5038610591565b503d61064e565b86513d86823e3d90fd5b63162908e360e11b81529050fd5b8380fd5b90601f8019910116810190811067ffffffffffffffff8211176106ac57604052565b634e487b7160e01b600052604160045260246000fd5b908160209103126106da575180151581036106da5790565b600080fd5b6040516323b872dd60e01b602082019081526001600160a01b039384166024830152938316604482015260648082019590955293845267ffffffffffffffff919060a08501838111868210176106ac576040521692600080938192519082875af1903d156107da573d9081116107c65760405161077d93929161076c601f8201601f19166020018361068a565b8152809260203d92013e5b836107e8565b80519081151591826107ab575b50506107935750565b60249060405190635274afe760e01b82526004820152fd5b6107be92506020809183010191016106c2565b15388061078a565b634e487b7160e01b83526041600452602483fd5b5061077d9150606090610777565b9061080f57508051156107fd57805190602001fd5b604051630a12f52160e11b8152600490fd5b81511580610842575b610820575090565b604051639996b31560e01b81526001600160a01b039091166004820152602490fd5b50803b1561081856fea2646970667358221220f2eb950d01cad40549817ebfe173919e6dcbee3832f9ea2c33d4ac483e95e77764736f6c63430008180033",
  "devdoc": {
    "details": "Implements the IDStableConversionAdapter interface.      Interacts with a specific StaticATokenLM contract provided at deployment.",
    "errors": {
      "AddressEmptyCode(address)": [
        {
          "details": "There's no code at `target` (it is not a contract)."
        }
      ],
      "AddressInsufficientBalance(address)": [
        {
          "details": "The ETH balance of the account is not enough to perform the operation."
        }
      ],
      "FailedInnerCall()": [
        {
          "details": "A call to an address target failed. The target may have reverted."
        }
      ],
      "SafeERC20FailedOperation(address)": [
        {
          "details": "An operation with an ERC20 token failed."
        }
      ]
    },
    "kind": "dev",
    "methods": {
      "assetValueInDStable(address,uint256)": {
        "details": "Uses StaticATokenLM's previewRedeem function to get the underlying value (dStable).",
        "params": {
          "vaultAsset": "The address of the vault asset token (should match getVaultAsset()). Included for explicitness.",
          "vaultAssetAmount": "The amount of the `vaultAsset` to value."
        },
        "returns": {
          "dStableValue": "The equivalent value in the dStable asset."
        }
      },
      "constructor": {
        "params": {
          "_collateralVault": "The address of the DStakeCollateralVault",
          "_dStable": "The address of the dSTABLE asset (e.g., dUSD)",
          "_wrappedDLendToken": "The address of the wrapped dLEND token (StaticATokenLM, e.g., wddUSD)"
        }
      },
      "convertFromVaultAsset(uint256)": {
        "details": "Converts wrappedDLendToken -> dStable by withdrawing from StaticATokenLM.      The StaticATokenLM contract sends the dStable directly to msg.sender.",
        "params": {
          "vaultAssetAmount": "The amount of `vaultAsset` to convert."
        },
        "returns": {
          "dStableAmount": "The amount of dStable asset sent to the caller."
        }
      },
      "convertToVaultAsset(uint256)": {
        "details": "Converts dStable -> wrappedDLendToken by depositing into StaticATokenLM.      The StaticATokenLM contract MUST be pre-approved to spend dStable held by this adapter.      The StaticATokenLM contract mints the wrappedDLendToken directly to the collateralVault.",
        "params": {
          "dStableAmount": "The amount of dStable asset to convert."
        },
        "returns": {
          "_vaultAsset": "The address of the specific `vault asset` token managed by this adapter.",
          "vaultAssetAmount": "The amount of `vaultAsset` generated from the conversion."
        }
      },
      "previewConvertFromVaultAsset(uint256)": {
        "details": "Preview the result of converting a given wrappedDLendToken amount to dSTABLE.",
        "params": {
          "vaultAssetAmount": "The amount of `vaultAsset` to preview conversion for."
        },
        "returns": {
          "dStableAmount": "The amount of dStable asset that would be received."
        }
      },
      "previewConvertToVaultAsset(uint256)": {
        "details": "Preview the result of converting a given dSTABLE amount to wrappedDLendToken.",
        "params": {
          "dStableAmount": "The amount of dStable asset to preview conversion for."
        },
        "returns": {
          "_vaultAsset": "The address of the specific `vault asset` token managed by this adapter.",
          "vaultAssetAmount": "The amount of `vaultAsset` that would be received."
        }
      },
      "vaultAsset()": {
        "returns": {
          "_0": "The address of the `vault asset`."
        }
      }
    },
    "title": "WrappedDLendConversionAdapter",
    "version": 1
  },
  "userdoc": {
    "kind": "user",
    "methods": {
      "assetValueInDStable(address,uint256)": {
        "notice": "Calculates the value of a given amount of the specific `vaultAsset` managed by this adapter         in terms of the dStable asset."
      },
      "convertFromVaultAsset(uint256)": {
        "notice": "Converts a specific amount of `vaultAsset` back into the dStable asset."
      },
      "convertToVaultAsset(uint256)": {
        "notice": "Converts a specified amount of the dStable asset into the specific `vaultAsset`         managed by this adapter."
      },
      "previewConvertFromVaultAsset(uint256)": {
        "notice": "Preview the result of converting a given vaultAsset amount to dStable (without state change)."
      },
      "previewConvertToVaultAsset(uint256)": {
        "notice": "Preview the result of converting a given dStable amount to vaultAsset (without state change)."
      },
      "vaultAsset()": {
        "notice": "Returns the address of the specific `vault asset` token managed by this adapter."
      }
    },
    "notice": "Adapter for converting between a dSTABLE asset (like dUSD) and a specific wrapped dLEND aToken         (like wddUSD, implemented via StaticATokenLM). The wrapped dLEND token address must be provided at deployment.",
    "version": 1
  },
  "storageLayout": {
    "storage": [],
    "types": null
  }
}