{
  "address": "0xcDC44b2ed2cA272fDBe287833732f0dcC4732061",
  "abi": [
    {
      "inputs": [
        {
          "internalType": "contract IPoolAddressesProvider",
          "name": "provider",
          "type": "address"
        },
        {
          "internalType": "address[]",
          "name": "assets",
          "type": "address[]"
        },
        {
          "internalType": "address[]",
          "name": "sources",
          "type": "address[]"
        },
        {
          "internalType": "address",
          "name": "fallbackOracle",
          "type": "address"
        },
        {
          "internalType": "address",
          "name": "baseCurrency",
          "type": "address"
        },
        {
          "internalType": "uint256",
          "name": "baseCurrencyUnit",
          "type": "uint256"
        }
      ],
      "stateMutability": "nonpayable",
      "type": "constructor"
    },
    {
      "anonymous": false,
      "inputs": [
        {
          "indexed": true,
          "internalType": "address",
          "name": "asset",
          "type": "address"
        },
        {
          "indexed": true,
          "internalType": "address",
          "name": "source",
          "type": "address"
        }
      ],
      "name": "AssetSourceUpdated",
      "type": "event"
    },
    {
      "anonymous": false,
      "inputs": [
        {
          "indexed": true,
          "internalType": "address",
          "name": "baseCurrency",
          "type": "address"
        },
        {
          "indexed": false,
          "internalType": "uint256",
          "name": "baseCurrencyUnit",
          "type": "uint256"
        }
      ],
      "name": "BaseCurrencySet",
      "type": "event"
    },
    {
      "anonymous": false,
      "inputs": [
        {
          "indexed": true,
          "internalType": "address",
          "name": "fallbackOracle",
          "type": "address"
        }
      ],
      "name": "FallbackOracleUpdated",
      "type": "event"
    },
    {
      "inputs": [],
      "name": "ADDRESSES_PROVIDER",
      "outputs": [
        {
          "internalType": "contract IPoolAddressesProvider",
          "name": "",
          "type": "address"
        }
      ],
      "stateMutability": "view",
      "type": "function"
    },
    {
      "inputs": [],
      "name": "BASE_CURRENCY",
      "outputs": [
        {
          "internalType": "address",
          "name": "",
          "type": "address"
        }
      ],
      "stateMutability": "view",
      "type": "function"
    },
    {
      "inputs": [],
      "name": "BASE_CURRENCY_UNIT",
      "outputs": [
        {
          "internalType": "uint256",
          "name": "",
          "type": "uint256"
        }
      ],
      "stateMutability": "view",
      "type": "function"
    },
    {
      "inputs": [
        {
          "internalType": "address",
          "name": "asset",
          "type": "address"
        }
      ],
      "name": "getAssetPrice",
      "outputs": [
        {
          "internalType": "uint256",
          "name": "",
          "type": "uint256"
        }
      ],
      "stateMutability": "view",
      "type": "function"
    },
    {
      "inputs": [
        {
          "internalType": "address[]",
          "name": "assets",
          "type": "address[]"
        }
      ],
      "name": "getAssetsPrices",
      "outputs": [
        {
          "internalType": "uint256[]",
          "name": "",
          "type": "uint256[]"
        }
      ],
      "stateMutability": "view",
      "type": "function"
    },
    {
      "inputs": [],
      "name": "getFallbackOracle",
      "outputs": [
        {
          "internalType": "address",
          "name": "",
          "type": "address"
        }
      ],
      "stateMutability": "view",
      "type": "function"
    },
    {
      "inputs": [
        {
          "internalType": "address",
          "name": "asset",
          "type": "address"
        }
      ],
      "name": "getSourceOfAsset",
      "outputs": [
        {
          "internalType": "address",
          "name": "",
          "type": "address"
        }
      ],
      "stateMutability": "view",
      "type": "function"
    },
    {
      "inputs": [
        {
          "internalType": "address[]",
          "name": "assets",
          "type": "address[]"
        },
        {
          "internalType": "address[]",
          "name": "sources",
          "type": "address[]"
        }
      ],
      "name": "setAssetSources",
      "outputs": [],
      "stateMutability": "nonpayable",
      "type": "function"
    },
    {
      "inputs": [
        {
          "internalType": "address",
          "name": "fallbackOracle",
          "type": "address"
        }
      ],
      "name": "setFallbackOracle",
      "outputs": [],
      "stateMutability": "nonpayable",
      "type": "function"
    }
  ],
  "transactionHash": "0x51064167903b9efd9fe102e22dc3138701be97d53d4a3cf4b3a917e3ddc6d2a3",
  "args": [
    "0xC691F14942B37668C9904b701E3118A133611b3c",
    [
      "0xFC00000000000000000000000000000000000006"
    ],
    [
      "0x2fB93C42D7727C6A69B66943008C26Ec7701eAd1"
    ],
    "0xa741BA2830cbF7A3432D96A6e188af0132792Cb9",
    "0x0000000000000000000000000000000000000000",
    "100000000"
  ],
  "numDeployments": 1,
  "solcInputHash": "4b59f954f292d89ebc153fc8cee4013e",
  "bytecode": "0x60e0604090808252346200038857620013498038038091620000228285620003d7565b8339810160c08282031262000388578151916001600160a01b0390818416840362000388576020818101519093906001600160401b03908181116200038857826200006f91850162000410565b91878401519082821162000388576200008a91850162000410565b846200009960608601620003fb565b60a0620000a960808801620003fb565b960151986080528560a0528860c052169260018060a01b0319600194808260015416176001558a518b638c89b64f60e01b918281528b81600481875afa9081156200039557600091620003a0575b5060c051149181519081528b81600481875afa801562000395578c9160009162000358575b5060516c0292922a721acafaaa724aa1d1609d1b93620001d1959362000146620001cb946200053c565b90620001bb6200015860c0516200053c565b9284519889957f416176654f7261636c653a20494e434f4e53495354454e545f424153455f4355858801528601526200019b8151809285604d8901910162000487565b84019163010109e960e51b604d8401528351938491878501910162000487565b01036031810185520183620003d7565b620004ac565b7fce7a780d33665b1ea097af5f155e3821b809ecbaa839d3b33aa83ba28168cefb600080a28151835114938a518b8101918183109083111762000342578699989796956200022f928d5260028252611b9b60f11b8a830152620004ac565b6000975b620002ac575b505050507fe27c4c1372396a3d15a9922f74f9dfc7c72b1ad6d63868470787249c356454c1935085519485521692a251610c8b9081620006be82396080518181816105c10152610987015260a051818181609b0152610755015260c0518181816103750152818161042f01526107840152f35b81518810156200033c57838887620002c98398999a9b8762000511565b511689620002d8838762000511565b511660005260008b528c600020908482541617905588620002fa828662000511565b51168962000309838862000511565b5116907f22c5b7b2d8561d39f7f210b6b326a1aa69f15311163082308ac4877db6339dc1600080a3019796959462000233565b62000239565b634e487b7160e01b600052604160045260246000fd5b92505081813d83116200038d575b620003728183620003d7565b810103126200038857518c908b9060516200011c565b600080fd5b503d62000366565b82513d6000823e3d90fd5b8092508c8092503d8311620003cf575b620003bc8183620003d7565b8101031262000388578c905138620000f7565b503d620003b0565b601f909101601f19168101906001600160401b038211908210176200034257604052565b51906001600160a01b03821682036200038857565b81601f8201121562000388578051916020916001600160401b03841162000342578360051b90604051946200044885840187620003d7565b8552838086019282010192831162000388578301905b8282106200046d575050505090565b8380916200047b84620003fb565b8152019101906200045e565b60005b8381106200049b5750506000910152565b81810151838201526020016200048a565b15620004b55750565b6044604051809262461bcd60e51b825260206004830152620004e7815180928160248601526020868601910162000487565b601f01601f19168101030190fd5b6001600160401b0381116200034257601f01601f191660200190565b8051821015620005265760209160051b010190565b634e487b7160e01b600052603260045260246000fd5b806000917a184f03e93ff9f4daa797ed6e38ed64bf6a1f01000000000000000080821015620006ae575b506d04ee2d6d415b85acef8100000000808310156200069e575b50662386f26fc10000808310156200068e575b506305f5e100808310156200067e575b50612710808310156200066e575b5060648210156200065d575b600a8092101562000652575b6001908160216001860195620005df87620004f5565b96620005ef6040519889620003d7565b80885262000600601f1991620004f5565b01366020890137860101905b62000619575b5050505090565b600019019083906f181899199a1a9b1b9c1cb0b131b232b360811b8282061a8353049182156200064c579190826200060c565b62000612565b9160010191620005c9565b9190606460029104910191620005bd565b60049193920491019138620005b1565b60089193920491019138620005a3565b6010919392049101913862000593565b6020919392049101913862000580565b6040935081049150386200056656fe608060408181526004918236101561001657600080fd5b600092833560e01c9182630542975c146105ad57508163170aee73146103c15781636210308c146103985781638c89b64f1461035d57816392bf2be0146103235781639d23d9f21461022e578163abfd5310146100fa57508063b3596f07146100ce5763e19f47001461008857600080fd5b346100ca57816003193601126100ca57517f00000000000000000000000000000000000000000000000000000000000000006001600160a01b03168152602090f35b5080fd5b50346100ca5760203660031901126100ca576020906100f36100ee6105f0565b610730565b9051908152f35b82843461022b578160031936011261022b5767ffffffffffffffff9280358481116102275761012c903690830161060b565b9190946024359081116102235761014d610167939261015f9236910161060b565b969092610158610963565b36916106d2565b9436916106d2565b8351815114610191845161017a8161063c565b60028152602092611b9b60f11b602083015261091d565b825b855181101561021f576001906001600160a01b03806101b283876106a8565b5116816101bf848b6106a8565b5116875286855287872080546001600160a01b0319169091179055806101e5838a6106a8565b5116906101f283876106a8565b5116907f22c5b7b2d8561d39f7f210b6b326a1aa69f15311163082308ac4877db6339dc18780a301610193565b8380f35b8380fd5b8280fd5b80fd5b839150346100ca576020908160031936011261022757803567ffffffffffffffff8111610223576102648592859236910161060b565b61027081939293610690565b9061027d8551928361066e565b80825261028981610690565b8287019490601f1901368637835b8281106102dc5750505083519485948186019282875251809352850193925b8281106102c557505050500390f35b8351855286955093810193928101926001016102b6565b9596949592949392600581901b8201356001600160a01b038116810361031f5790610308600192610730565b61031282896106a8565b5201969594929396610297565b8480fd5b5050346100ca5760203660031901126100ca576020916001600160a01b039082908261034d6105f0565b1681528085522054169051908152f35b5050346100ca57816003193601126100ca57602090517f00000000000000000000000000000000000000000000000000000000000000008152f35b5050346100ca57816003193601126100ca5760015490516001600160a01b039091168152602090f35b90503461022757602080600319360112610223576103dd6105f0565b6103e5610963565b60018060a01b031692836bffffffffffffffffffffffff60a01b6001541617600155805191638c89b64f60e01b9384845281848281895afa93841561057457879461057e575b50817f0000000000000000000000000000000000000000000000000000000000000000958451928391825281895afa908115610574578791610538575b50605161051195936c0292922a721acafaaa724aa1d1609d1b959361048f61050b94610aec565b906104fc61049c88610aec565b928451998a957f416176654f7261636c653a20494e434f4e53495354454e545f424153455f4355858801528601526104dd8151809285604d890191016108fa565b84019163010109e960e51b604d840152835193849187850191016108fa565b0103603181018652018461066e565b1461091d565b7fce7a780d33665b1ea097af5f155e3821b809ecbaa839d3b33aa83ba28168cefb8280a280f35b9492939180915085813d831161056d575b610553818361066e565b8101031261056957935191939092916051610468565b8680fd5b503d610549565b83513d89823e3d90fd5b9093508181813d83116105a6575b610596818361066e565b810103126105695751923861042b565b503d61058c565b8490346100ca57816003193601126100ca577f00000000000000000000000000000000000000000000000000000000000000006001600160a01b03168152602090f35b600435906001600160a01b038216820361060657565b600080fd5b9181601f840112156106065782359167ffffffffffffffff8311610606576020808501948460051b01011161060657565b6040810190811067ffffffffffffffff82111761065857604052565b634e487b7160e01b600052604160045260246000fd5b90601f8019910116810190811067ffffffffffffffff82111761065857604052565b67ffffffffffffffff81116106585760051b60200190565b80518210156106bc5760209160051b010190565b634e487b7160e01b600052603260045260246000fd5b92916106dd82610690565b916106eb604051938461066e565b829481845260208094019160051b810192831161060657905b8282106107115750505050565b81356001600160a01b0381168103610606578152908301908301610704565b6001600160a01b039081166000818152602081815260408083205485169490939291907f0000000000000000000000000000000000000000000000000000000000000000811684036107a6575050505050507f000000000000000000000000000000000000000000000000000000000000000090565b85610820578192939495506001541693602486518096819363b3596f0760e01b835260048301525afa938415610815575081936107e4575b50505090565b9091809350813d831161080e575b6107fc818361066e565b8101031261022b5750513880806107de565b503d6107f2565b51913d9150823e3d90fd5b816004968651978880926350d25bcd60e01b82525afa9586156108bc57839661088d575b508286131561085557505050505090565b8192939495506001541693602486518096819363b3596f0760e01b835260048301525afa938415610815575081936107e45750505090565b9095508181813d83116108b5575b6108a5818361066e565b8101031261022757519438610844565b503d61089b565b85513d85823e3d90fd5b90816020910312610606575180151581036106065790565b67ffffffffffffffff811161065857601f01601f191660200190565b60005b83811061090d5750506000910152565b81810151838201526020016108fd565b156109255750565b6044604051809262461bcd60e51b82526020600483015261095581518092816024860152602086860191016108fa565b601f01601f19168101030190fd5b6040805163383e6b8b60e11b81529091906020906001600160a01b039082816004817f000000000000000000000000000000000000000000000000000000000000000086165afa908115610aab57600091610ab6575b508451629f719760e51b815233600482015291168282602481845afa918215610aab57600092610a8c575b508115610a10575b50603560f81b610a0e93945192610a028461063c565b6001845283015261091d565b565b8451637be53ca160e01b815233600482015291508290829060249082905afa908115610a8157610a0e939491603560f81b91600091610a54575b50919493506109ec565b610a749150843d8611610a7a575b610a6c818361066e565b8101906108c6565b38610a4a565b503d610a62565b84513d6000823e3d90fd5b610aa4919250833d8511610a7a57610a6c818361066e565b90386109e4565b85513d6000823e3d90fd5b8381813d8311610ae5575b610acb818361066e565b810103126100ca575190828216820361022b5750386109b9565b503d610ac1565b806000917a184f03e93ff9f4daa797ed6e38ed64bf6a1f01000000000000000080821015610c47575b506d04ee2d6d415b85acef810000000080831015610c38575b50662386f26fc1000080831015610c29575b506305f5e10080831015610c1a575b5061271080831015610c0b575b506064821015610bfb575b600a80921015610bf1575b6001908160216001860195610b86876108de565b96610b94604051988961066e565b808852610ba3601f19916108de565b01366020890137860101905b610bbb575b5050505090565b600019019083906f181899199a1a9b1b9c1cb0b131b232b360811b8282061a835304918215610bec57919082610baf565b610bb4565b9160010191610b72565b9190606460029104910191610b67565b60049193920491019138610b5c565b60089193920491019138610b4f565b60109193920491019138610b40565b60209193920491019138610b2e565b604093508104915038610b1556fea2646970667358221220b0090f3d97d631637f6a58b71a37c2993e5bac55a5b0efee20280231b1fc3f6364736f6c63430008180033",
  "devdoc": {
    "author": "Aave",
    "events": {
      "AssetSourceUpdated(address,address)": {
        "details": "Emitted after the price source of an asset is updated",
        "params": {
          "asset": "The address of the asset",
          "source": "The price source of the asset"
        }
      },
      "BaseCurrencySet(address,uint256)": {
        "details": "Emitted after the base currency is set",
        "params": {
          "baseCurrency": "The base currency of used for price quotes",
          "baseCurrencyUnit": "The unit of the base currency"
        }
      },
      "FallbackOracleUpdated(address)": {
        "details": "Emitted after the address of fallback oracle is updated",
        "params": {
          "fallbackOracle": "The address of the fallback oracle"
        }
      }
    },
    "kind": "dev",
    "methods": {
      "constructor": {
        "params": {
          "assets": "The addresses of the assets",
          "baseCurrency": "The base currency used for the price quotes. If USD is used, base currency is 0x0",
          "baseCurrencyUnit": "The unit of the base currency",
          "fallbackOracle": "The address of the fallback oracle to use if the data of an        aggregator is not consistent",
          "provider": "The address of the new PoolAddressesProvider",
          "sources": "The address of the source of each asset"
        }
      },
      "getAssetPrice(address)": {
        "params": {
          "asset": "The address of the asset"
        },
        "returns": {
          "_0": "The price of the asset"
        }
      },
      "getAssetsPrices(address[])": {
        "params": {
          "assets": "The list of assets addresses"
        },
        "returns": {
          "_0": "The prices of the given assets"
        }
      },
      "getFallbackOracle()": {
        "returns": {
          "_0": "The address of the fallback oracle"
        }
      },
      "getSourceOfAsset(address)": {
        "params": {
          "asset": "The address of the asset"
        },
        "returns": {
          "_0": "The address of the source"
        }
      },
      "setAssetSources(address[],address[])": {
        "params": {
          "assets": "The addresses of the assets",
          "sources": "The addresses of the price sources"
        }
      },
      "setFallbackOracle(address)": {
        "params": {
          "fallbackOracle": "The address of the fallback oracle"
        }
      }
    },
    "stateVariables": {
      "ADDRESSES_PROVIDER": {
        "return": "The address of the PoolAddressesProvider contract",
        "returns": {
          "_0": "The address of the PoolAddressesProvider contract"
        }
      },
      "BASE_CURRENCY": {
        "details": "Address 0x0 is reserved for USD as base currency.",
        "return": "Returns the base currency address.",
        "returns": {
          "_0": "Returns the base currency address."
        }
      },
      "BASE_CURRENCY_UNIT": {
        "details": "1 ether for ETH, 1e8 for USD.",
        "return": "Returns the base currency unit.",
        "returns": {
          "_0": "Returns the base currency unit."
        }
      }
    },
    "title": "AaveOracle",
    "version": 1
  },
  "userdoc": {
    "kind": "user",
    "methods": {
      "ADDRESSES_PROVIDER()": {
        "notice": "Returns the PoolAddressesProvider"
      },
      "BASE_CURRENCY()": {
        "notice": "Returns the base currency address"
      },
      "BASE_CURRENCY_UNIT()": {
        "notice": "Returns the base currency unit"
      },
      "constructor": {
        "notice": "Constructor"
      },
      "getAssetPrice(address)": {
        "notice": "Returns the asset price in the base currency"
      },
      "getAssetsPrices(address[])": {
        "notice": "Returns a list of prices from a list of assets addresses"
      },
      "getFallbackOracle()": {
        "notice": "Returns the address of the fallback oracle"
      },
      "getSourceOfAsset(address)": {
        "notice": "Returns the address of the source for an asset address"
      },
      "setAssetSources(address[],address[])": {
        "notice": "Sets or replaces price sources of assets"
      },
      "setFallbackOracle(address)": {
        "notice": "Sets the fallback oracle"
      }
    },
    "notice": "Contract to get asset prices, manage price sources and update the fallback oracle - Use of Chainlink Aggregators as first source of price - If the returned price by a Chainlink aggregator is <= 0, the call is forwarded to a fallback oracle - Owned by the Aave governance",
    "version": 1
  },
  "storageLayout": {
    "storage": [
      {
        "astId": 8547,
        "contract": "contracts/lending/core/misc/AaveOracle.sol:AaveOracle",
        "label": "assetsSources",
        "offset": 0,
        "slot": "0",
        "type": "t_mapping(t_address,t_contract(AggregatorInterface)8035)"
      },
      {
        "astId": 8550,
        "contract": "contracts/lending/core/misc/AaveOracle.sol:AaveOracle",
        "label": "_fallbackOracle",
        "offset": 0,
        "slot": "1",
        "type": "t_contract(IPriceOracleGetter)8521"
      }
    ],
    "types": {
      "t_address": {
        "encoding": "inplace",
        "label": "address",
        "numberOfBytes": "20"
      },
      "t_contract(AggregatorInterface)8035": {
        "encoding": "inplace",
        "label": "contract AggregatorInterface",
        "numberOfBytes": "20"
      },
      "t_contract(IPriceOracleGetter)8521": {
        "encoding": "inplace",
        "label": "contract IPriceOracleGetter",
        "numberOfBytes": "20"
      },
      "t_mapping(t_address,t_contract(AggregatorInterface)8035)": {
        "encoding": "mapping",
        "key": "t_address",
        "label": "mapping(address => contract AggregatorInterface)",
        "numberOfBytes": "32",
        "value": "t_contract(AggregatorInterface)8035"
      }
    }
  }
}