{
  "address": "0x50D1842f427c73Dc5a9897016CB4D589324832Bc",
  "abi": [
    {
      "inputs": [
        {
          "internalType": "contract IPoolAddressesProvider",
          "name": "provider",
          "type": "address"
        }
      ],
      "stateMutability": "nonpayable",
      "type": "constructor"
    },
    {
      "anonymous": false,
      "inputs": [
        {
          "indexed": true,
          "internalType": "bytes32",
          "name": "role",
          "type": "bytes32"
        },
        {
          "indexed": true,
          "internalType": "bytes32",
          "name": "previousAdminRole",
          "type": "bytes32"
        },
        {
          "indexed": true,
          "internalType": "bytes32",
          "name": "newAdminRole",
          "type": "bytes32"
        }
      ],
      "name": "RoleAdminChanged",
      "type": "event"
    },
    {
      "anonymous": false,
      "inputs": [
        {
          "indexed": true,
          "internalType": "bytes32",
          "name": "role",
          "type": "bytes32"
        },
        {
          "indexed": true,
          "internalType": "address",
          "name": "account",
          "type": "address"
        },
        {
          "indexed": true,
          "internalType": "address",
          "name": "sender",
          "type": "address"
        }
      ],
      "name": "RoleGranted",
      "type": "event"
    },
    {
      "anonymous": false,
      "inputs": [
        {
          "indexed": true,
          "internalType": "bytes32",
          "name": "role",
          "type": "bytes32"
        },
        {
          "indexed": true,
          "internalType": "address",
          "name": "account",
          "type": "address"
        },
        {
          "indexed": true,
          "internalType": "address",
          "name": "sender",
          "type": "address"
        }
      ],
      "name": "RoleRevoked",
      "type": "event"
    },
    {
      "inputs": [],
      "name": "ADDRESSES_PROVIDER",
      "outputs": [
        {
          "internalType": "contract IPoolAddressesProvider",
          "name": "",
          "type": "address"
        }
      ],
      "stateMutability": "view",
      "type": "function"
    },
    {
      "inputs": [],
      "name": "ASSET_LISTING_ADMIN_ROLE",
      "outputs": [
        {
          "internalType": "bytes32",
          "name": "",
          "type": "bytes32"
        }
      ],
      "stateMutability": "view",
      "type": "function"
    },
    {
      "inputs": [],
      "name": "BRIDGE_ROLE",
      "outputs": [
        {
          "internalType": "bytes32",
          "name": "",
          "type": "bytes32"
        }
      ],
      "stateMutability": "view",
      "type": "function"
    },
    {
      "inputs": [],
      "name": "DEFAULT_ADMIN_ROLE",
      "outputs": [
        {
          "internalType": "bytes32",
          "name": "",
          "type": "bytes32"
        }
      ],
      "stateMutability": "view",
      "type": "function"
    },
    {
      "inputs": [],
      "name": "EMERGENCY_ADMIN_ROLE",
      "outputs": [
        {
          "internalType": "bytes32",
          "name": "",
          "type": "bytes32"
        }
      ],
      "stateMutability": "view",
      "type": "function"
    },
    {
      "inputs": [],
      "name": "FLASH_BORROWER_ROLE",
      "outputs": [
        {
          "internalType": "bytes32",
          "name": "",
          "type": "bytes32"
        }
      ],
      "stateMutability": "view",
      "type": "function"
    },
    {
      "inputs": [],
      "name": "POOL_ADMIN_ROLE",
      "outputs": [
        {
          "internalType": "bytes32",
          "name": "",
          "type": "bytes32"
        }
      ],
      "stateMutability": "view",
      "type": "function"
    },
    {
      "inputs": [],
      "name": "RISK_ADMIN_ROLE",
      "outputs": [
        {
          "internalType": "bytes32",
          "name": "",
          "type": "bytes32"
        }
      ],
      "stateMutability": "view",
      "type": "function"
    },
    {
      "inputs": [
        {
          "internalType": "address",
          "name": "admin",
          "type": "address"
        }
      ],
      "name": "addAssetListingAdmin",
      "outputs": [],
      "stateMutability": "nonpayable",
      "type": "function"
    },
    {
      "inputs": [
        {
          "internalType": "address",
          "name": "bridge",
          "type": "address"
        }
      ],
      "name": "addBridge",
      "outputs": [],
      "stateMutability": "nonpayable",
      "type": "function"
    },
    {
      "inputs": [
        {
          "internalType": "address",
          "name": "admin",
          "type": "address"
        }
      ],
      "name": "addEmergencyAdmin",
      "outputs": [],
      "stateMutability": "nonpayable",
      "type": "function"
    },
    {
      "inputs": [
        {
          "internalType": "address",
          "name": "borrower",
          "type": "address"
        }
      ],
      "name": "addFlashBorrower",
      "outputs": [],
      "stateMutability": "nonpayable",
      "type": "function"
    },
    {
      "inputs": [
        {
          "internalType": "address",
          "name": "admin",
          "type": "address"
        }
      ],
      "name": "addPoolAdmin",
      "outputs": [],
      "stateMutability": "nonpayable",
      "type": "function"
    },
    {
      "inputs": [
        {
          "internalType": "address",
          "name": "admin",
          "type": "address"
        }
      ],
      "name": "addRiskAdmin",
      "outputs": [],
      "stateMutability": "nonpayable",
      "type": "function"
    },
    {
      "inputs": [
        {
          "internalType": "bytes32",
          "name": "role",
          "type": "bytes32"
        }
      ],
      "name": "getRoleAdmin",
      "outputs": [
        {
          "internalType": "bytes32",
          "name": "",
          "type": "bytes32"
        }
      ],
      "stateMutability": "view",
      "type": "function"
    },
    {
      "inputs": [
        {
          "internalType": "bytes32",
          "name": "role",
          "type": "bytes32"
        },
        {
          "internalType": "address",
          "name": "account",
          "type": "address"
        }
      ],
      "name": "grantRole",
      "outputs": [],
      "stateMutability": "nonpayable",
      "type": "function"
    },
    {
      "inputs": [
        {
          "internalType": "bytes32",
          "name": "role",
          "type": "bytes32"
        },
        {
          "internalType": "address",
          "name": "account",
          "type": "address"
        }
      ],
      "name": "hasRole",
      "outputs": [
        {
          "internalType": "bool",
          "name": "",
          "type": "bool"
        }
      ],
      "stateMutability": "view",
      "type": "function"
    },
    {
      "inputs": [
        {
          "internalType": "address",
          "name": "admin",
          "type": "address"
        }
      ],
      "name": "isAssetListingAdmin",
      "outputs": [
        {
          "internalType": "bool",
          "name": "",
          "type": "bool"
        }
      ],
      "stateMutability": "view",
      "type": "function"
    },
    {
      "inputs": [
        {
          "internalType": "address",
          "name": "bridge",
          "type": "address"
        }
      ],
      "name": "isBridge",
      "outputs": [
        {
          "internalType": "bool",
          "name": "",
          "type": "bool"
        }
      ],
      "stateMutability": "view",
      "type": "function"
    },
    {
      "inputs": [
        {
          "internalType": "address",
          "name": "admin",
          "type": "address"
        }
      ],
      "name": "isEmergencyAdmin",
      "outputs": [
        {
          "internalType": "bool",
          "name": "",
          "type": "bool"
        }
      ],
      "stateMutability": "view",
      "type": "function"
    },
    {
      "inputs": [
        {
          "internalType": "address",
          "name": "borrower",
          "type": "address"
        }
      ],
      "name": "isFlashBorrower",
      "outputs": [
        {
          "internalType": "bool",
          "name": "",
          "type": "bool"
        }
      ],
      "stateMutability": "view",
      "type": "function"
    },
    {
      "inputs": [
        {
          "internalType": "address",
          "name": "admin",
          "type": "address"
        }
      ],
      "name": "isPoolAdmin",
      "outputs": [
        {
          "internalType": "bool",
          "name": "",
          "type": "bool"
        }
      ],
      "stateMutability": "view",
      "type": "function"
    },
    {
      "inputs": [
        {
          "internalType": "address",
          "name": "admin",
          "type": "address"
        }
      ],
      "name": "isRiskAdmin",
      "outputs": [
        {
          "internalType": "bool",
          "name": "",
          "type": "bool"
        }
      ],
      "stateMutability": "view",
      "type": "function"
    },
    {
      "inputs": [
        {
          "internalType": "address",
          "name": "admin",
          "type": "address"
        }
      ],
      "name": "removeAssetListingAdmin",
      "outputs": [],
      "stateMutability": "nonpayable",
      "type": "function"
    },
    {
      "inputs": [
        {
          "internalType": "address",
          "name": "bridge",
          "type": "address"
        }
      ],
      "name": "removeBridge",
      "outputs": [],
      "stateMutability": "nonpayable",
      "type": "function"
    },
    {
      "inputs": [
        {
          "internalType": "address",
          "name": "admin",
          "type": "address"
        }
      ],
      "name": "removeEmergencyAdmin",
      "outputs": [],
      "stateMutability": "nonpayable",
      "type": "function"
    },
    {
      "inputs": [
        {
          "internalType": "address",
          "name": "borrower",
          "type": "address"
        }
      ],
      "name": "removeFlashBorrower",
      "outputs": [],
      "stateMutability": "nonpayable",
      "type": "function"
    },
    {
      "inputs": [
        {
          "internalType": "address",
          "name": "admin",
          "type": "address"
        }
      ],
      "name": "removePoolAdmin",
      "outputs": [],
      "stateMutability": "nonpayable",
      "type": "function"
    },
    {
      "inputs": [
        {
          "internalType": "address",
          "name": "admin",
          "type": "address"
        }
      ],
      "name": "removeRiskAdmin",
      "outputs": [],
      "stateMutability": "nonpayable",
      "type": "function"
    },
    {
      "inputs": [
        {
          "internalType": "bytes32",
          "name": "role",
          "type": "bytes32"
        },
        {
          "internalType": "address",
          "name": "account",
          "type": "address"
        }
      ],
      "name": "renounceRole",
      "outputs": [],
      "stateMutability": "nonpayable",
      "type": "function"
    },
    {
      "inputs": [
        {
          "internalType": "bytes32",
          "name": "role",
          "type": "bytes32"
        },
        {
          "internalType": "address",
          "name": "account",
          "type": "address"
        }
      ],
      "name": "revokeRole",
      "outputs": [],
      "stateMutability": "nonpayable",
      "type": "function"
    },
    {
      "inputs": [
        {
          "internalType": "bytes32",
          "name": "role",
          "type": "bytes32"
        },
        {
          "internalType": "bytes32",
          "name": "adminRole",
          "type": "bytes32"
        }
      ],
      "name": "setRoleAdmin",
      "outputs": [],
      "stateMutability": "nonpayable",
      "type": "function"
    },
    {
      "inputs": [
        {
          "internalType": "bytes4",
          "name": "interfaceId",
          "type": "bytes4"
        }
      ],
      "name": "supportsInterface",
      "outputs": [
        {
          "internalType": "bool",
          "name": "",
          "type": "bool"
        }
      ],
      "stateMutability": "view",
      "type": "function"
    }
  ],
  "transactionHash": "0x116b89e2c2488744501f5311acbe2d6e094823fdc4e75fe2fac4525b8ea0f1f6",
  "args": [
    "0xC691F14942B37668C9904b701E3118A133611b3c"
  ],
  "numDeployments": 1,
  "solcInputHash": "4a6a3ab49a41002471a76f77fc4e04dd",
  "bytecode": "0x60a060409080825234620001f75780620014ba8038038091620000238285620001fc565b8339602092839181010312620001f757516001600160a01b039081811690818103620001f7576080528351630399c5e360e21b8152908390829060049082905afa908115620001ec57600091620001a8575b508351911691908084016001600160401b03811182821017620001925784526002815261373560f01b82820152821562000134575060008052600081528260002082600052815260ff83600020541615620000e3575b8251611299908162000221823960805181610cbf0152f35b60008052600081528260002090826000525281600020600160ff19825416179055339060007f2f8788117e7eff1d82e926ec794901d17c78024a50270940304540a733656f0d8180a43880620000cb565b8351809262461bcd60e51b82528060048301528251908160248401526000935b82851062000178575050604492506000838284010152601f80199101168101030190fd5b848101820151868601604401529381019385935062000154565b634e487b7160e01b600052604160045260246000fd5b8381813d8311620001e4575b620001c08183620001fc565b81010312620001e05751908282168203620001dd57503862000075565b80fd5b5080fd5b503d620001b4565b84513d6000823e3d90fd5b600080fd5b601f909101601f19168101906001600160401b03821190821017620001925760405256fe608060408181526004918236101561001657600080fd5b600092833560e01c91826301ffc9a714610d335750816304df017d14610cee5781630542975c14610caa57816313ee32e014610c57578163179efb0914610c125781631e4e0091146109c657816322650caf14610981578163248a9ca3146109575781632500f2b614610904578163253cf980146108bf5781632f2ff15d1461081457816336568abe146107825781633c5a08e51461073d5781634f16b425146107145781635577b7a9146106eb5781635b9a94e4146106a6578163674b5e4d146106535781636e76fc8f1461062a578163726600ce146105d757816378bb0a43146105ae5781637a9a93f4146105695781637be53ca11461051657816391d14854146104d05781639712fdf81461048b5781639a2b96f7146104465781639ac9d80b1461038e578163a217fddf14610373578163a21bce151461032e578163b5bfddea14610305578163b8f6dba7146102dc578163d547741f1461029c57508063f83695cb146101e55763fa50f2971461019057600080fd5b346101e15760203660031901126101e15760ff816020936101af610d86565b60008051602061124483398151915282528186528282206001600160a01b039091168252855220549151911615158152f35b5080fd5b50346101e1576020908160031936011261029857610201610d86565b906000805160206111a483398151915292838552848152610229600183872001543390610e2e565b8385528481528185206001600160a01b039093168086529281528185205460ff16610252578480f35b83855284815281852083865290528320805460ff1916905533917ff6391f5c32d9c69d2a47ea670b442974b53935d1edc7fd64eb21e047a839171b8480a4388080808480f35b8280fd5b919050346102985780600319360112610298576102d991356102d460016102c1610da1565b9383875286602052862001543390610e2e565b610ff8565b80f35b5050346101e157816003193601126101e157602090516000805160206111a48339815191528152f35b5050346101e157816003193601126101e157602090516000805160206112048339815191528152f35b5050346101e157602090816003193601126102985761034b610d86565b906000805160206111e483398151915292838552848152610229600183872001543390610e2e565b5050346101e157816003193601126101e15751908152602090f35b5050346101e15760209081600319360112610298576103ab610d86565b90600080516020611244833981519152928385528481526103d3600183872001543390610e2e565b8385528481528185206001600160a01b039093168086529281528185205460ff16156103fd578480f35b83855284815281852083865290528320805460ff1916600117905533917f2f8788117e7eff1d82e926ec794901d17c78024a50270940304540a733656f0d8480a4388080808480f35b5050346101e1576020908160031936011261029857610463610d86565b906000805160206111e4833981519152928385528481526103d3600183872001543390610e2e565b5050346101e15760209081600319360112610298576104a8610d86565b90600080516020611204833981519152928385528481526103d3600183872001543390610e2e565b9050346102985781600319360112610298578160209360ff926104f1610da1565b903582528186528282206001600160a01b039091168252855220549151911615158152f35b5050346101e15760203660031901126101e15760ff81602093610537610d86565b6000805160206111a483398151915282528186528282206001600160a01b039091168252855220549151911615158152f35b5050346101e1576020908160031936011261029857610586610d86565b9060008051602061122483398151915292838552848152610229600183872001543390610e2e565b5050346101e157816003193601126101e157602090516000805160206111e48339815191528152f35b5050346101e15760203660031901126101e15760ff816020936105f8610d86565b60008051602061120483398151915282528186528282206001600160a01b039091168252855220549151911615158152f35b5050346101e157816003193601126101e157602090516000805160206112248339815191528152f35b5050346101e15760203660031901126101e15760ff81602093610674610d86565b6000805160206111c483398151915282528186528282206001600160a01b039091168252855220549151911615158152f35b5050346101e15760209081600319360112610298576106c3610d86565b906000805160206111c4833981519152928385528481526103d3600183872001543390610e2e565b5050346101e157816003193601126101e157602090516000805160206112448339815191528152f35b5050346101e157816003193601126101e157602090516000805160206111c48339815191528152f35b5050346101e157602090816003193601126102985761075a610d86565b906000805160206111c483398151915292838552848152610229600183872001543390610e2e565b839150346101e157826003193601126101e15761079d610da1565b90336001600160a01b038316036107b957906102d99135610ff8565b608490602085519162461bcd60e51b8352820152602f60248201527f416363657373436f6e74726f6c3a2063616e206f6e6c792072656e6f756e636560448201526e103937b632b9903337b91039b2b63360891b6064820152fd5b9050346102985781600319360112610298573590610830610da1565b9082845283602052610849600182862001543390610e2e565b82845260208481528185206001600160a01b039093168086529290528084205460ff1615610875578380f35b828452836020528084208285526020528320600160ff1982541617905533917f2f8788117e7eff1d82e926ec794901d17c78024a50270940304540a733656f0d8480a43880808380f35b5050346101e15760209081600319360112610298576108dc610d86565b9060008051602061124483398151915292838552848152610229600183872001543390610e2e565b5050346101e15760203660031901126101e15760ff81602093610925610d86565b60008051602061122483398151915282528186528282206001600160a01b039091168252855220549151911615158152f35b90503461029857602036600319011261029857816020936001923581528085522001549051908152f35b5050346101e157602090816003193601126102985761099e610d86565b906000805160206111a4833981519152928385528481526103d3600183872001543390610e2e565b919050346102985780600319360112610298578135906024803593858052602091868352838720338852835260ff848820541615610a395750509084600192848252528420019082825492557fbd79b86ffe0ab8e8776151514217cd7cacd52c909f66475c3af44e129f0b00ff8480a480f35b8387610a4433611093565b82519082610a5183610dda565b60428352878301936060368637835115610c00576030855383519060019160011015610bee5790607860218601536041915b818311610b8557505050610b455783610b16604889610b379660449a9996610b07610ade9776020b1b1b2b9b9a1b7b73a3937b61d1030b1b1b7bab73a1604d1b9b5198858a9687019d8e528251928391603789019101610db7565b8401917001034b99036b4b9b9b4b733903937b6329607d1b603784015251809386840190610db7565b01036028810185520183610e0c565b5196879562461bcd60e51b8752860152519283809286015285850190610db7565b601f01601f19168101030190fd5b60648688878188519362461bcd60e51b85528401528201527f537472696e67733a20686578206c656e67746820696e73756666696369656e746044820152fd5b909192600f81166010811015610bdc576f181899199a1a9b1b9c1cb0b131b232b360811b901a610bb5858861106c565b53891c928015610bca57600019019190610a83565b634e487b7160e01b825260118a528882fd5b634e487b7160e01b835260328b528983fd5b634e487b7160e01b8152603289528790fd5b634e487b7160e01b8152603288528690fd5b5050346101e1576020908160031936011261029857610c2f610d86565b90600080516020611224833981519152928385528481526103d3600183872001543390610e2e565b5050346101e15760203660031901126101e15760ff81602093610c78610d86565b6000805160206111e483398151915282528186528282206001600160a01b039091168252855220549151911615158152f35b5050346101e157816003193601126101e157517f00000000000000000000000000000000000000000000000000000000000000006001600160a01b03168152602090f35b5050346101e1576020908160031936011261029857610d0b610d86565b9060008051602061120483398151915292838552848152610229600183872001543390610e2e565b849134610298576020366003190112610298573563ffffffff60e01b81168091036102985760209250637965db0b60e01b8114908115610d75575b5015158152f35b6301ffc9a760e01b14905083610d6e565b600435906001600160a01b0382168203610d9c57565b600080fd5b602435906001600160a01b0382168203610d9c57565b60005b838110610dca5750506000910152565b8181015183820152602001610dba565b6080810190811067ffffffffffffffff821117610df657604052565b634e487b7160e01b600052604160045260246000fd5b90601f8019910116810190811067ffffffffffffffff821117610df657604052565b6000908082526020908282526040938484209060018060a01b031690818552835260ff858520541615610e62575050505050565b610e6b90611093565b90845190610e7882610dda565b60428252838201946060368737825115610fe4576030865382519060019160011015610fe45790607860218501536041915b818311610f7657505050610f345784610f106048610b37936044979851988991610f018984019876020b1b1b2b9b9a1b7b73a3937b61d1030b1b1b7bab73a1604d1b8a52610ade815180928d603789019101610db7565b01036028810189520187610e0c565b5194859362461bcd60e51b8552600485015251809281602486015285850190610db7565b60648386519062461bcd60e51b825280600483015260248201527f537472696e67733a20686578206c656e67746820696e73756666696369656e746044820152fd5b909192600f81166010811015610fd0576f181899199a1a9b1b9c1cb0b131b232b360811b901a610fa6858761106c565b5360041c928015610fbc57600019019190610eaa565b634e487b7160e01b82526011600452602482fd5b634e487b7160e01b83526032600452602483fd5b634e487b7160e01b81526032600452602490fd5b9060009180835282602052604083209160018060a01b03169182845260205260ff60408420541661102857505050565b80835282602052604083208284526020526040832060ff1981541690557ff6391f5c32d9c69d2a47ea670b442974b53935d1edc7fd64eb21e047a839171b339380a4565b90815181101561107d570160200190565b634e487b7160e01b600052603260045260246000fd5b604051906060820182811067ffffffffffffffff821117610df657604052602a825260208201604036823782511561107d576030905381516001906001101561107d57607860218401536029905b8082116111355750506110f15790565b606460405162461bcd60e51b815260206004820152602060248201527f537472696e67733a20686578206c656e67746820696e73756666696369656e746044820152fd5b9091600f8116601081101561118e576f181899199a1a9b1b9c1cb0b131b232b360811b901a611164848661106c565b5360041c9180156111795760001901906110e1565b60246000634e487b7160e01b81526011600452fd5b60246000634e487b7160e01b81526032600452fdfe12ad05bde78c5ab75238ce885307f96ecd482bb402ef831f99e7018a0f169b7b8aa855a911518ecfbe5bc3088c8f3dda7badf130faaf8ace33fdc33828e1816719c860a63258efbd0ecb7d55c626237bf5c2044c26c073390b74f0c13c85743308fb31c3e81624356c3314088aa971b73bcc82d22bc3e3b184b4593077ae32785c91514091af31f62f596a314af7d5be40146b2f2355969392f055e12e0982fb939b8dfb57ecef2aea54a93a15e86768b9d4089f1ba61c245e6ec980695f4ca4a26469706673582212200532c694ab8abdaac6ec084d595c599e10fd84f5207af75d3c062911ecc4ae8964736f6c63430008180033",
  "devdoc": {
    "author": "Aave",
    "events": {
      "RoleAdminChanged(bytes32,bytes32,bytes32)": {
        "details": "Emitted when `newAdminRole` is set as ``role``'s admin role, replacing `previousAdminRole` `DEFAULT_ADMIN_ROLE` is the starting admin for all roles, despite {RoleAdminChanged} not being emitted signaling this. _Available since v3.1._"
      },
      "RoleGranted(bytes32,address,address)": {
        "details": "Emitted when `account` is granted `role`. `sender` is the account that originated the contract call, an admin role bearer except when using {AccessControl-_setupRole}."
      },
      "RoleRevoked(bytes32,address,address)": {
        "details": "Emitted when `account` is revoked `role`. `sender` is the account that originated the contract call:   - if using `revokeRole`, it is the admin role bearer   - if using `renounceRole`, it is the role bearer (i.e. `account`)"
      }
    },
    "kind": "dev",
    "methods": {
      "addAssetListingAdmin(address)": {
        "params": {
          "admin": "The address of the new admin"
        }
      },
      "addBridge(address)": {
        "params": {
          "bridge": "The address of the new Bridge"
        }
      },
      "addEmergencyAdmin(address)": {
        "params": {
          "admin": "The address of the new admin"
        }
      },
      "addFlashBorrower(address)": {
        "params": {
          "borrower": "The address of the new FlashBorrower"
        }
      },
      "addPoolAdmin(address)": {
        "params": {
          "admin": "The address of the new admin"
        }
      },
      "addRiskAdmin(address)": {
        "params": {
          "admin": "The address of the new admin"
        }
      },
      "constructor": {
        "details": "ConstructorThe ACL admin should be initialized at the addressesProvider beforehand",
        "params": {
          "provider": "The address of the PoolAddressesProvider"
        }
      },
      "getRoleAdmin(bytes32)": {
        "details": "Returns the admin role that controls `role`. See {grantRole} and {revokeRole}. To change a role's admin, use {_setRoleAdmin}."
      },
      "grantRole(bytes32,address)": {
        "details": "Grants `role` to `account`. If `account` had not been already granted `role`, emits a {RoleGranted} event. Requirements: - the caller must have ``role``'s admin role."
      },
      "hasRole(bytes32,address)": {
        "details": "Returns `true` if `account` has been granted `role`."
      },
      "isAssetListingAdmin(address)": {
        "params": {
          "admin": "The address to check"
        },
        "returns": {
          "_0": "True if the given address is AssetListingAdmin, false otherwise"
        }
      },
      "isBridge(address)": {
        "params": {
          "bridge": "The address to check"
        },
        "returns": {
          "_0": "True if the given address is Bridge, false otherwise"
        }
      },
      "isEmergencyAdmin(address)": {
        "params": {
          "admin": "The address to check"
        },
        "returns": {
          "_0": "True if the given address is EmergencyAdmin, false otherwise"
        }
      },
      "isFlashBorrower(address)": {
        "params": {
          "borrower": "The address to check"
        },
        "returns": {
          "_0": "True if the given address is FlashBorrower, false otherwise"
        }
      },
      "isPoolAdmin(address)": {
        "params": {
          "admin": "The address to check"
        },
        "returns": {
          "_0": "True if the given address is PoolAdmin, false otherwise"
        }
      },
      "isRiskAdmin(address)": {
        "params": {
          "admin": "The address to check"
        },
        "returns": {
          "_0": "True if the given address is RiskAdmin, false otherwise"
        }
      },
      "removeAssetListingAdmin(address)": {
        "params": {
          "admin": "The address of the admin to remove"
        }
      },
      "removeBridge(address)": {
        "params": {
          "bridge": "The address of the bridge to remove"
        }
      },
      "removeEmergencyAdmin(address)": {
        "params": {
          "admin": "The address of the admin to remove"
        }
      },
      "removeFlashBorrower(address)": {
        "params": {
          "borrower": "The address of the FlashBorrower to remove"
        }
      },
      "removePoolAdmin(address)": {
        "params": {
          "admin": "The address of the admin to remove"
        }
      },
      "removeRiskAdmin(address)": {
        "params": {
          "admin": "The address of the admin to remove"
        }
      },
      "renounceRole(bytes32,address)": {
        "details": "Revokes `role` from the calling account. Roles are often managed via {grantRole} and {revokeRole}: this function's purpose is to provide a mechanism for accounts to lose their privileges if they are compromised (such as when a trusted device is misplaced). If the calling account had been granted `role`, emits a {RoleRevoked} event. Requirements: - the caller must be `account`."
      },
      "revokeRole(bytes32,address)": {
        "details": "Revokes `role` from `account`. If `account` had been granted `role`, emits a {RoleRevoked} event. Requirements: - the caller must have ``role``'s admin role."
      },
      "setRoleAdmin(bytes32,bytes32)": {
        "details": "By default the admin role for all roles is `DEFAULT_ADMIN_ROLE`.",
        "params": {
          "adminRole": "The admin role",
          "role": "The role to be managed by the admin role"
        }
      },
      "supportsInterface(bytes4)": {
        "details": "See {IERC165-supportsInterface}."
      }
    },
    "stateVariables": {
      "ADDRESSES_PROVIDER": {
        "return": "The address of the PoolAddressesProvider",
        "returns": {
          "_0": "The address of the PoolAddressesProvider"
        }
      },
      "ASSET_LISTING_ADMIN_ROLE": {
        "return": "The id of the AssetListingAdmin role",
        "returns": {
          "_0": "The id of the AssetListingAdmin role"
        }
      },
      "BRIDGE_ROLE": {
        "return": "The id of the Bridge role",
        "returns": {
          "_0": "The id of the Bridge role"
        }
      },
      "EMERGENCY_ADMIN_ROLE": {
        "return": "The id of the EmergencyAdmin role",
        "returns": {
          "_0": "The id of the EmergencyAdmin role"
        }
      },
      "FLASH_BORROWER_ROLE": {
        "return": "The id of the FlashBorrower role",
        "returns": {
          "_0": "The id of the FlashBorrower role"
        }
      },
      "POOL_ADMIN_ROLE": {
        "return": "The id of the PoolAdmin role",
        "returns": {
          "_0": "The id of the PoolAdmin role"
        }
      },
      "RISK_ADMIN_ROLE": {
        "return": "The id of the RiskAdmin role",
        "returns": {
          "_0": "The id of the RiskAdmin role"
        }
      }
    },
    "title": "ACLManager",
    "version": 1
  },
  "userdoc": {
    "kind": "user",
    "methods": {
      "ADDRESSES_PROVIDER()": {
        "notice": "Returns the contract address of the PoolAddressesProvider"
      },
      "ASSET_LISTING_ADMIN_ROLE()": {
        "notice": "Returns the identifier of the AssetListingAdmin role"
      },
      "BRIDGE_ROLE()": {
        "notice": "Returns the identifier of the Bridge role"
      },
      "EMERGENCY_ADMIN_ROLE()": {
        "notice": "Returns the identifier of the EmergencyAdmin role"
      },
      "FLASH_BORROWER_ROLE()": {
        "notice": "Returns the identifier of the FlashBorrower role"
      },
      "POOL_ADMIN_ROLE()": {
        "notice": "Returns the identifier of the PoolAdmin role"
      },
      "RISK_ADMIN_ROLE()": {
        "notice": "Returns the identifier of the RiskAdmin role"
      },
      "addAssetListingAdmin(address)": {
        "notice": "Adds a new admin as AssetListingAdmin"
      },
      "addBridge(address)": {
        "notice": "Adds a new address as Bridge"
      },
      "addEmergencyAdmin(address)": {
        "notice": "Adds a new admin as EmergencyAdmin"
      },
      "addFlashBorrower(address)": {
        "notice": "Adds a new address as FlashBorrower"
      },
      "addPoolAdmin(address)": {
        "notice": "Adds a new admin as PoolAdmin"
      },
      "addRiskAdmin(address)": {
        "notice": "Adds a new admin as RiskAdmin"
      },
      "isAssetListingAdmin(address)": {
        "notice": "Returns true if the address is AssetListingAdmin, false otherwise"
      },
      "isBridge(address)": {
        "notice": "Returns true if the address is Bridge, false otherwise"
      },
      "isEmergencyAdmin(address)": {
        "notice": "Returns true if the address is EmergencyAdmin, false otherwise"
      },
      "isFlashBorrower(address)": {
        "notice": "Returns true if the address is FlashBorrower, false otherwise"
      },
      "isPoolAdmin(address)": {
        "notice": "Returns true if the address is PoolAdmin, false otherwise"
      },
      "isRiskAdmin(address)": {
        "notice": "Returns true if the address is RiskAdmin, false otherwise"
      },
      "removeAssetListingAdmin(address)": {
        "notice": "Removes an admin as AssetListingAdmin"
      },
      "removeBridge(address)": {
        "notice": "Removes an address as Bridge"
      },
      "removeEmergencyAdmin(address)": {
        "notice": "Removes an admin as EmergencyAdmin"
      },
      "removeFlashBorrower(address)": {
        "notice": "Removes an address as FlashBorrower"
      },
      "removePoolAdmin(address)": {
        "notice": "Removes an admin as PoolAdmin"
      },
      "removeRiskAdmin(address)": {
        "notice": "Removes an admin as RiskAdmin"
      },
      "setRoleAdmin(bytes32,bytes32)": {
        "notice": "Set the role as admin of a specific role."
      }
    },
    "notice": "Access Control List Manager. Main registry of system roles and permissions.",
    "version": 1
  },
  "storageLayout": {
    "storage": [
      {
        "astId": 10121,
        "contract": "contracts/lending/core/protocol/configuration/ACLManager.sol:ACLManager",
        "label": "_roles",
        "offset": 0,
        "slot": "0",
        "type": "t_mapping(t_bytes32,t_struct(RoleData)10116_storage)"
      }
    ],
    "types": {
      "t_address": {
        "encoding": "inplace",
        "label": "address",
        "numberOfBytes": "20"
      },
      "t_bool": {
        "encoding": "inplace",
        "label": "bool",
        "numberOfBytes": "1"
      },
      "t_bytes32": {
        "encoding": "inplace",
        "label": "bytes32",
        "numberOfBytes": "32"
      },
      "t_mapping(t_address,t_bool)": {
        "encoding": "mapping",
        "key": "t_address",
        "label": "mapping(address => bool)",
        "numberOfBytes": "32",
        "value": "t_bool"
      },
      "t_mapping(t_bytes32,t_struct(RoleData)10116_storage)": {
        "encoding": "mapping",
        "key": "t_bytes32",
        "label": "mapping(bytes32 => struct AccessControl.RoleData)",
        "numberOfBytes": "32",
        "value": "t_struct(RoleData)10116_storage"
      },
      "t_struct(RoleData)10116_storage": {
        "encoding": "inplace",
        "label": "struct AccessControl.RoleData",
        "members": [
          {
            "astId": 10113,
            "contract": "contracts/lending/core/protocol/configuration/ACLManager.sol:ACLManager",
            "label": "members",
            "offset": 0,
            "slot": "0",
            "type": "t_mapping(t_address,t_bool)"
          },
          {
            "astId": 10115,
            "contract": "contracts/lending/core/protocol/configuration/ACLManager.sol:ACLManager",
            "label": "adminRole",
            "offset": 0,
            "slot": "1",
            "type": "t_bytes32"
          }
        ],
        "numberOfBytes": "64"
      }
    }
  }
}