{
  "address": "0x4691DE44984cB01821DF993A0Bc2E5cE2f34cEf3",
  "abi": [
    {
      "inputs": [
        {
          "internalType": "uint256",
          "name": "_baseCurrencyUnit",
          "type": "uint256"
        }
      ],
      "stateMutability": "nonpayable",
      "type": "constructor"
    },
    {
      "inputs": [],
      "name": "AccessControlBadConfirmation",
      "type": "error"
    },
    {
      "inputs": [
        {
          "internalType": "address",
          "name": "account",
          "type": "address"
        },
        {
          "internalType": "bytes32",
          "name": "neededRole",
          "type": "bytes32"
        }
      ],
      "name": "AccessControlUnauthorizedAccount",
      "type": "error"
    },
    {
      "inputs": [
        {
          "internalType": "address",
          "name": "asset",
          "type": "address"
        }
      ],
      "name": "FeedNotSet",
      "type": "error"
    },
    {
      "inputs": [],
      "name": "PriceIsStale",
      "type": "error"
    },
    {
      "anonymous": false,
      "inputs": [
        {
          "indexed": true,
          "internalType": "address",
          "name": "asset",
          "type": "address"
        },
        {
          "indexed": false,
          "internalType": "address",
          "name": "proxy1",
          "type": "address"
        },
        {
          "indexed": false,
          "internalType": "address",
          "name": "proxy2",
          "type": "address"
        },
        {
          "indexed": false,
          "internalType": "uint256",
          "name": "lowerThresholdInBase1",
          "type": "uint256"
        },
        {
          "indexed": false,
          "internalType": "uint256",
          "name": "fixedPriceInBase1",
          "type": "uint256"
        },
        {
          "indexed": false,
          "internalType": "uint256",
          "name": "lowerThresholdInBase2",
          "type": "uint256"
        },
        {
          "indexed": false,
          "internalType": "uint256",
          "name": "fixedPriceInBase2",
          "type": "uint256"
        }
      ],
      "name": "CompositeFeedAdded",
      "type": "event"
    },
    {
      "anonymous": false,
      "inputs": [
        {
          "indexed": true,
          "internalType": "address",
          "name": "asset",
          "type": "address"
        }
      ],
      "name": "CompositeFeedRemoved",
      "type": "event"
    },
    {
      "anonymous": false,
      "inputs": [
        {
          "indexed": true,
          "internalType": "address",
          "name": "asset",
          "type": "address"
        },
        {
          "indexed": false,
          "internalType": "uint256",
          "name": "lowerThresholdInBase1",
          "type": "uint256"
        },
        {
          "indexed": false,
          "internalType": "uint256",
          "name": "fixedPriceInBase1",
          "type": "uint256"
        },
        {
          "indexed": false,
          "internalType": "uint256",
          "name": "lowerThresholdInBase2",
          "type": "uint256"
        },
        {
          "indexed": false,
          "internalType": "uint256",
          "name": "fixedPriceInBase2",
          "type": "uint256"
        }
      ],
      "name": "CompositeFeedUpdated",
      "type": "event"
    },
    {
      "anonymous": false,
      "inputs": [
        {
          "indexed": true,
          "internalType": "bytes32",
          "name": "role",
          "type": "bytes32"
        },
        {
          "indexed": true,
          "internalType": "bytes32",
          "name": "previousAdminRole",
          "type": "bytes32"
        },
        {
          "indexed": true,
          "internalType": "bytes32",
          "name": "newAdminRole",
          "type": "bytes32"
        }
      ],
      "name": "RoleAdminChanged",
      "type": "event"
    },
    {
      "anonymous": false,
      "inputs": [
        {
          "indexed": true,
          "internalType": "bytes32",
          "name": "role",
          "type": "bytes32"
        },
        {
          "indexed": true,
          "internalType": "address",
          "name": "account",
          "type": "address"
        },
        {
          "indexed": true,
          "internalType": "address",
          "name": "sender",
          "type": "address"
        }
      ],
      "name": "RoleGranted",
      "type": "event"
    },
    {
      "anonymous": false,
      "inputs": [
        {
          "indexed": true,
          "internalType": "bytes32",
          "name": "role",
          "type": "bytes32"
        },
        {
          "indexed": true,
          "internalType": "address",
          "name": "account",
          "type": "address"
        },
        {
          "indexed": true,
          "internalType": "address",
          "name": "sender",
          "type": "address"
        }
      ],
      "name": "RoleRevoked",
      "type": "event"
    },
    {
      "inputs": [],
      "name": "API3_BASE_CURRENCY_UNIT",
      "outputs": [
        {
          "internalType": "uint256",
          "name": "",
          "type": "uint256"
        }
      ],
      "stateMutability": "view",
      "type": "function"
    },
    {
      "inputs": [],
      "name": "API3_HEARTBEAT",
      "outputs": [
        {
          "internalType": "uint256",
          "name": "",
          "type": "uint256"
        }
      ],
      "stateMutability": "view",
      "type": "function"
    },
    {
      "inputs": [],
      "name": "BASE_CURRENCY",
      "outputs": [
        {
          "internalType": "address",
          "name": "",
          "type": "address"
        }
      ],
      "stateMutability": "view",
      "type": "function"
    },
    {
      "inputs": [],
      "name": "BASE_CURRENCY_UNIT",
      "outputs": [
        {
          "internalType": "uint256",
          "name": "",
          "type": "uint256"
        }
      ],
      "stateMutability": "view",
      "type": "function"
    },
    {
      "inputs": [],
      "name": "DEFAULT_ADMIN_ROLE",
      "outputs": [
        {
          "internalType": "bytes32",
          "name": "",
          "type": "bytes32"
        }
      ],
      "stateMutability": "view",
      "type": "function"
    },
    {
      "inputs": [],
      "name": "ORACLE_MANAGER_ROLE",
      "outputs": [
        {
          "internalType": "bytes32",
          "name": "",
          "type": "bytes32"
        }
      ],
      "stateMutability": "view",
      "type": "function"
    },
    {
      "inputs": [
        {
          "internalType": "address",
          "name": "asset",
          "type": "address"
        },
        {
          "internalType": "address",
          "name": "proxy1",
          "type": "address"
        },
        {
          "internalType": "address",
          "name": "proxy2",
          "type": "address"
        },
        {
          "internalType": "uint256",
          "name": "lowerThresholdInBase1",
          "type": "uint256"
        },
        {
          "internalType": "uint256",
          "name": "fixedPriceInBase1",
          "type": "uint256"
        },
        {
          "internalType": "uint256",
          "name": "lowerThresholdInBase2",
          "type": "uint256"
        },
        {
          "internalType": "uint256",
          "name": "fixedPriceInBase2",
          "type": "uint256"
        }
      ],
      "name": "addCompositeFeed",
      "outputs": [],
      "stateMutability": "nonpayable",
      "type": "function"
    },
    {
      "inputs": [
        {
          "internalType": "address",
          "name": "",
          "type": "address"
        }
      ],
      "name": "compositeFeeds",
      "outputs": [
        {
          "internalType": "address",
          "name": "proxy1",
          "type": "address"
        },
        {
          "internalType": "address",
          "name": "proxy2",
          "type": "address"
        },
        {
          "components": [
            {
              "internalType": "uint256",
              "name": "lowerThresholdInBase",
              "type": "uint256"
            },
            {
              "internalType": "uint256",
              "name": "fixedPriceInBase",
              "type": "uint256"
            }
          ],
          "internalType": "struct ThresholdingUtils.ThresholdConfig",
          "name": "primaryThreshold",
          "type": "tuple"
        },
        {
          "components": [
            {
              "internalType": "uint256",
              "name": "lowerThresholdInBase",
              "type": "uint256"
            },
            {
              "internalType": "uint256",
              "name": "fixedPriceInBase",
              "type": "uint256"
            }
          ],
          "internalType": "struct ThresholdingUtils.ThresholdConfig",
          "name": "secondaryThreshold",
          "type": "tuple"
        }
      ],
      "stateMutability": "view",
      "type": "function"
    },
    {
      "inputs": [
        {
          "internalType": "address",
          "name": "asset",
          "type": "address"
        }
      ],
      "name": "getAssetPrice",
      "outputs": [
        {
          "internalType": "uint256",
          "name": "",
          "type": "uint256"
        }
      ],
      "stateMutability": "view",
      "type": "function"
    },
    {
      "inputs": [
        {
          "internalType": "address",
          "name": "asset",
          "type": "address"
        }
      ],
      "name": "getPriceInfo",
      "outputs": [
        {
          "internalType": "uint256",
          "name": "price",
          "type": "uint256"
        },
        {
          "internalType": "bool",
          "name": "isAlive",
          "type": "bool"
        }
      ],
      "stateMutability": "view",
      "type": "function"
    },
    {
      "inputs": [
        {
          "internalType": "bytes32",
          "name": "role",
          "type": "bytes32"
        }
      ],
      "name": "getRoleAdmin",
      "outputs": [
        {
          "internalType": "bytes32",
          "name": "",
          "type": "bytes32"
        }
      ],
      "stateMutability": "view",
      "type": "function"
    },
    {
      "inputs": [
        {
          "internalType": "bytes32",
          "name": "role",
          "type": "bytes32"
        },
        {
          "internalType": "address",
          "name": "account",
          "type": "address"
        }
      ],
      "name": "grantRole",
      "outputs": [],
      "stateMutability": "nonpayable",
      "type": "function"
    },
    {
      "inputs": [
        {
          "internalType": "bytes32",
          "name": "role",
          "type": "bytes32"
        },
        {
          "internalType": "address",
          "name": "account",
          "type": "address"
        }
      ],
      "name": "hasRole",
      "outputs": [
        {
          "internalType": "bool",
          "name": "",
          "type": "bool"
        }
      ],
      "stateMutability": "view",
      "type": "function"
    },
    {
      "inputs": [],
      "name": "heartbeatStaleTimeLimit",
      "outputs": [
        {
          "internalType": "uint256",
          "name": "",
          "type": "uint256"
        }
      ],
      "stateMutability": "view",
      "type": "function"
    },
    {
      "inputs": [
        {
          "internalType": "address",
          "name": "asset",
          "type": "address"
        }
      ],
      "name": "removeCompositeFeed",
      "outputs": [],
      "stateMutability": "nonpayable",
      "type": "function"
    },
    {
      "inputs": [
        {
          "internalType": "bytes32",
          "name": "role",
          "type": "bytes32"
        },
        {
          "internalType": "address",
          "name": "callerConfirmation",
          "type": "address"
        }
      ],
      "name": "renounceRole",
      "outputs": [],
      "stateMutability": "nonpayable",
      "type": "function"
    },
    {
      "inputs": [
        {
          "internalType": "bytes32",
          "name": "role",
          "type": "bytes32"
        },
        {
          "internalType": "address",
          "name": "account",
          "type": "address"
        }
      ],
      "name": "revokeRole",
      "outputs": [],
      "stateMutability": "nonpayable",
      "type": "function"
    },
    {
      "inputs": [
        {
          "internalType": "uint256",
          "name": "_newHeartbeatStaleTimeLimit",
          "type": "uint256"
        }
      ],
      "name": "setHeartbeatStaleTimeLimit",
      "outputs": [],
      "stateMutability": "nonpayable",
      "type": "function"
    },
    {
      "inputs": [
        {
          "internalType": "bytes4",
          "name": "interfaceId",
          "type": "bytes4"
        }
      ],
      "name": "supportsInterface",
      "outputs": [
        {
          "internalType": "bool",
          "name": "",
          "type": "bool"
        }
      ],
      "stateMutability": "view",
      "type": "function"
    },
    {
      "inputs": [
        {
          "internalType": "address",
          "name": "asset",
          "type": "address"
        },
        {
          "internalType": "uint256",
          "name": "lowerThresholdInBase1",
          "type": "uint256"
        },
        {
          "internalType": "uint256",
          "name": "fixedPriceInBase1",
          "type": "uint256"
        },
        {
          "internalType": "uint256",
          "name": "lowerThresholdInBase2",
          "type": "uint256"
        },
        {
          "internalType": "uint256",
          "name": "fixedPriceInBase2",
          "type": "uint256"
        }
      ],
      "name": "updateCompositeFeed",
      "outputs": [],
      "stateMutability": "nonpayable",
      "type": "function"
    }
  ],
  "transactionHash": "0xce99064ab30b99787e38aee5f69ae62a71c10dbc0490c91cd7ed274fb9eddba2",
  "args": [
    "100000000"
  ],
  "numDeployments": 2,
  "solcInputHash": "08d5dcc0675f5b659c665bb5e1e5a9ec",
  "bytecode": "0x60a03461008f57601f610f3838819003918201601f19168301916001600160401b038311848410176100945780849260209460405283398101031261008f5751610708600155608052610051336100aa565b5061005b33610128565b50610065336100aa565b5061006f33610128565b50604051610d4f90816101c982396080518181816104d40152610b2a0152f35b600080fd5b634e487b7160e01b600052604160045260246000fd5b6001600160a01b031660008181527fad3228b676f7d3cd4284a5443f17f1962b36e491b30a40b2405849e597ba5fb5602052604081205490919060ff1661012457818052816020526040822081835260205260408220600160ff198254161790553391600080516020610f188339815191528180a4600190565b5090565b6001600160a01b031660008181527ffb8036e0bab3828a1a1cce97396031bc7ea8a361699e1bc9c4844f3aeee78d6e60205260408120549091907fced6982f480260bdd8ad5cb18ff2854f0306d78d904ad6cc107e8f3a0f526c189060ff166101c357808352826020526040832082845260205260408320600160ff19825416179055600080516020610f18833981519152339380a4600190565b50509056fe608080604052600436101561001357600080fd5b60003560e01c90816301ffc9a7146107235750806304dea65114610648578063248a9ca3146106195780632ecac6fc146105fb5780632f2ff15d146105bc57806336568abe14610575578063519ffff1146104f75780638c89b64f146104bc5780638edbf436146104905780638f5997151461030c57806391d14854146102bf578063a217fddf146101c3578063b3596f071461027c578063bfc69e1c14610241578063c5efe27c14610220578063d547741f146101df578063e19f4700146101c3578063f99256d514610141578063fbff771c1461011e5763ffceb415146100fb57600080fd5b34610119576000366003190112610119576020604051620151808152f35b600080fd5b34610119576000366003190112610119576020604051670de0b6b3a76400008152f35b346101195760203660031901126101195760c06001600160a01b0380610165610776565b166000526002602052602060406000208183825416936001830154169161019a600461019360028401610812565b9201610812565b9260405195865282860152805160408601520151606084015280516080840152015160a0820152f35b3461011957600036600319011261011957602060405160008152f35b346101195760403660031901126101195761021e6004356101fe61078c565b908060005260006020526102196001604060002001546108aa565b61094e565b005b3461011957602036600319011261011957610239610830565b600435600155005b346101195760003660031901126101195760206040517fced6982f480260bdd8ad5cb18ff2854f0306d78d904ad6cc107e8f3a0f526c188152f35b346101195760203660031901126101195761029d610298610776565b610a27565b156102ad57602090604051908152f35b6040516342bc305b60e11b8152600490fd5b34610119576040366003190112610119576102d861078c565b600435600052600060205260406000209060018060a01b0316600052602052602060ff604060002054166040519015158152f35b346101195760e036600319011261011957610325610776565b61032d61078c565b906044356001600160a01b0381168103610119577f8af3f37e726b4aaf30de76bd00359c9166bf6b9a01e457c3d4557df631227eed9160c09161036e610830565b60405161037a816107a2565b60643581526084356020820152604051610393816107a2565b60a435815260c4356020820152604051916103ad836107d4565b60018060a01b038816835260018060a01b03841660208401526040830152606082015260018060a01b038316600052600260205260056020606060406000209360018060a01b038151166bffffffffffffffffffffffff60a01b9081875416178655600186019060018060a01b03858401511690825416179055826040820151805160028801550151600386015501518051600485015501519101556040519460018060a01b0316855260018060a01b031660208501526064356040850152608435606085015260a435608085015260c43560a085015260018060a01b031692a2005b346101195760203660031901126101195760406104ae610298610776565b825191825215156020820152f35b346101195760003660031901126101195760206040517f00000000000000000000000000000000000000000000000000000000000000008152f35b3461011957602036600319011261011957610510610776565b610518610830565b60018060a01b0316806000526002602052600060056040822082815582600182015582600282015582600382015582600482015501557fdabc58d0456c50872fa82879bc9ce7f6a455b4372db632857a62de4abd099691600080a2005b346101195760403660031901126101195761058e61078c565b336001600160a01b038216036105aa5761021e9060043561094e565b60405163334bd91960e11b8152600490fd5b346101195760403660031901126101195761021e6004356105db61078c565b908060005260006020526105f66001604060002001546108aa565b6108d0565b34610119576000366003190112610119576020600154604051908152f35b346101195760203660031901126101195760043560005260006020526020600160406000200154604051908152f35b346101195760a036600319011261011957610661610776565b602435608435606435604435610675610830565b6001600160a01b039485166000818152600260205260409020805491969091811615908115610714575b506106fb579183916080946005858860027fbdebb389cb3e5b0a7c038b900aeea5b6e265e74efd0de50488c3574a4d7861d59a9801558360038201558460048201550155604051938452602084015260408301526060820152a2005b604051630dcaf86b60e01b815260048101879052602490fd5b9050600182015416158761069f565b34610119576020366003190112610119576004359063ffffffff60e01b821680920361011957602091637965db0b60e01b8114908115610765575b5015158152f35b6301ffc9a760e01b1490508361075e565b600435906001600160a01b038216820361011957565b602435906001600160a01b038216820361011957565b6040810190811067ffffffffffffffff8211176107be57604052565b634e487b7160e01b600052604160045260246000fd5b6080810190811067ffffffffffffffff8211176107be57604052565b90601f8019910116810190811067ffffffffffffffff8211176107be57604052565b9060405161081f816107a2565b602060018294805484520154910152565b3360009081527ffb8036e0bab3828a1a1cce97396031bc7ea8a361699e1bc9c4844f3aeee78d6e60205260409020547fced6982f480260bdd8ad5cb18ff2854f0306d78d904ad6cc107e8f3a0f526c189060ff161561088c5750565b6044906040519063e2517d3f60e01b82523360048301526024820152fd5b80600052600060205260406000203360005260205260ff604060002054161561088c5750565b9060009180835282602052604083209160018060a01b03169182845260205260ff6040842054161560001461094957808352826020526040832082845260205260408320600160ff198254161790557f2f8788117e7eff1d82e926ec794901d17c78024a50270940304540a733656f0d339380a4600190565b505090565b9060009180835282602052604083209160018060a01b03169182845260205260ff6040842054166000146109495780835282602052604083208284526020526040832060ff1981541690557ff6391f5c32d9c69d2a47ea670b442974b53935d1edc7fd64eb21e047a839171b339380a4600190565b919082604091031261011957815180601b0b81036101195760209092015163ffffffff811681036101195790565b81810292918115918404141715610a0457565b634e487b7160e01b600052601160045260246000fd5b91908201809211610a0457565b6001600160a01b039081166000818152600260205260408082208151949594909291610a52826107d4565b868454168252866001850154169460208301958652610a7360028601610812565b92828101938452610a876004809701610812565b916060820192835289825116158015610cf8575b610ce257508890511697825190838288816315f789a960e21b9d8e82525afa978815610cd85786928799610cb3575b50908491511699878251809c819382525afa988915610ca9578593869a610c66575b505091610b689391610b81938681601b0b13600014610c5e576001600160e01b0316915b8681601b0b13600014610c56576001600160e01b0316915b7f000000000000000000000000000000000000000000000000000000000000000095868092610b61670de0b6b3a76400009485926109f1565b04946109f1565b0492518051610c45575b50518051610c34575b506109f1565b8115610c215704948515159384610be3575b5083610ba0575b50505090565b63ffffffff919293501691620151808301809311610bd0575050600154610bc691610a1a565b4210388080610b9a565b634e487b7160e01b825260119052602490fd5b63ffffffff91945016620151808101809111610c0e57600154610c0591610a1a565b42109238610b93565b506011602492634e487b7160e01b835252fd5b634e487b7160e01b835260128452602483fd5b610c3e9192610d03565b9038610b7b565b610c4f9192610d03565b9038610b72565b508591610b28565b508591610b10565b610b689593929a50610b8194509081610c9392903d10610ca2575b610c8b81836107f0565b8101906109c3565b91909199919381939550610aec565b503d610c81565b83513d87823e3d90fd5b610ccf91995085809394503d8411610ca257610c8b81836107f0565b98909291610aca565b84513d88823e3d90fd5b86602491855191630dcaf86b60e01b8352820152fd5b508988511615610a9b565b9080518211610d10575090565b6020915001519056fea264697066735822122097ba07b5b5f7f63edd4410fecb1aa7a15484647c272053c29d0e1bd02d23d36564736f6c634300081400332f8788117e7eff1d82e926ec794901d17c78024a50270940304540a733656f0d",
  "devdoc": {
    "errors": {
      "AccessControlBadConfirmation()": [
        {
          "details": "The caller of a function is not the expected one. NOTE: Don't confuse with {AccessControlUnauthorizedAccount}."
        }
      ],
      "AccessControlUnauthorizedAccount(address,bytes32)": [
        {
          "details": "The `account` is missing a role."
        }
      ]
    },
    "events": {
      "RoleAdminChanged(bytes32,bytes32,bytes32)": {
        "details": "Emitted when `newAdminRole` is set as ``role``'s admin role, replacing `previousAdminRole` `DEFAULT_ADMIN_ROLE` is the starting admin for all roles, despite {RoleAdminChanged} not being emitted signaling this."
      },
      "RoleGranted(bytes32,address,address)": {
        "details": "Emitted when `account` is granted `role`. `sender` is the account that originated the contract call, an admin role bearer except when using {AccessControl-_setupRole}."
      },
      "RoleRevoked(bytes32,address,address)": {
        "details": "Emitted when `account` is revoked `role`. `sender` is the account that originated the contract call:   - if using `revokeRole`, it is the admin role bearer   - if using `renounceRole`, it is the role bearer (i.e. `account`)"
      }
    },
    "kind": "dev",
    "methods": {
      "getAssetPrice(address)": {
        "params": {
          "asset": "The address of the asset"
        },
        "returns": {
          "_0": "The price of the asset"
        }
      },
      "getRoleAdmin(bytes32)": {
        "details": "Returns the admin role that controls `role`. See {grantRole} and {revokeRole}. To change a role's admin, use {_setRoleAdmin}."
      },
      "grantRole(bytes32,address)": {
        "details": "Grants `role` to `account`. If `account` had not been already granted `role`, emits a {RoleGranted} event. Requirements: - the caller must have ``role``'s admin role. May emit a {RoleGranted} event."
      },
      "hasRole(bytes32,address)": {
        "details": "Returns `true` if `account` has been granted `role`."
      },
      "renounceRole(bytes32,address)": {
        "details": "Revokes `role` from the calling account. Roles are often managed via {grantRole} and {revokeRole}: this function's purpose is to provide a mechanism for accounts to lose their privileges if they are compromised (such as when a trusted device is misplaced). If the calling account had been revoked `role`, emits a {RoleRevoked} event. Requirements: - the caller must be `callerConfirmation`. May emit a {RoleRevoked} event."
      },
      "revokeRole(bytes32,address)": {
        "details": "Revokes `role` from `account`. If `account` had been granted `role`, emits a {RoleRevoked} event. Requirements: - the caller must have ``role``'s admin role. May emit a {RoleRevoked} event."
      },
      "supportsInterface(bytes4)": {
        "details": "See {IERC165-supportsInterface}."
      }
    },
    "version": 1
  },
  "userdoc": {
    "kind": "user",
    "methods": {
      "BASE_CURRENCY()": {
        "notice": "Returns the base currency address"
      },
      "BASE_CURRENCY_UNIT()": {
        "notice": "Returns the base currency unit"
      },
      "getAssetPrice(address)": {
        "notice": "Returns the asset price in the base currency"
      }
    },
    "version": 1
  },
  "storageLayout": {
    "storage": [
      {
        "astId": 26,
        "contract": "contracts/oracle_aggregator/wrapper/API3CompositeWrapperWithThresholding.sol:API3CompositeWrapperWithThresholding",
        "label": "_roles",
        "offset": 0,
        "slot": "0",
        "type": "t_mapping(t_bytes32,t_struct(RoleData)21_storage)"
      },
      {
        "astId": 763,
        "contract": "contracts/oracle_aggregator/wrapper/API3CompositeWrapperWithThresholding.sol:API3CompositeWrapperWithThresholding",
        "label": "heartbeatStaleTimeLimit",
        "offset": 0,
        "slot": "1",
        "type": "t_uint256"
      },
      {
        "astId": 1537,
        "contract": "contracts/oracle_aggregator/wrapper/API3CompositeWrapperWithThresholding.sol:API3CompositeWrapperWithThresholding",
        "label": "compositeFeeds",
        "offset": 0,
        "slot": "2",
        "type": "t_mapping(t_address,t_struct(CompositeFeed)1532_storage)"
      }
    ],
    "types": {
      "t_address": {
        "encoding": "inplace",
        "label": "address",
        "numberOfBytes": "20"
      },
      "t_bool": {
        "encoding": "inplace",
        "label": "bool",
        "numberOfBytes": "1"
      },
      "t_bytes32": {
        "encoding": "inplace",
        "label": "bytes32",
        "numberOfBytes": "32"
      },
      "t_mapping(t_address,t_bool)": {
        "encoding": "mapping",
        "key": "t_address",
        "label": "mapping(address => bool)",
        "numberOfBytes": "32",
        "value": "t_bool"
      },
      "t_mapping(t_address,t_struct(CompositeFeed)1532_storage)": {
        "encoding": "mapping",
        "key": "t_address",
        "label": "mapping(address => struct API3CompositeWrapperWithThresholding.CompositeFeed)",
        "numberOfBytes": "32",
        "value": "t_struct(CompositeFeed)1532_storage"
      },
      "t_mapping(t_bytes32,t_struct(RoleData)21_storage)": {
        "encoding": "mapping",
        "key": "t_bytes32",
        "label": "mapping(bytes32 => struct AccessControl.RoleData)",
        "numberOfBytes": "32",
        "value": "t_struct(RoleData)21_storage"
      },
      "t_struct(CompositeFeed)1532_storage": {
        "encoding": "inplace",
        "label": "struct API3CompositeWrapperWithThresholding.CompositeFeed",
        "members": [
          {
            "astId": 1523,
            "contract": "contracts/oracle_aggregator/wrapper/API3CompositeWrapperWithThresholding.sol:API3CompositeWrapperWithThresholding",
            "label": "proxy1",
            "offset": 0,
            "slot": "0",
            "type": "t_address"
          },
          {
            "astId": 1525,
            "contract": "contracts/oracle_aggregator/wrapper/API3CompositeWrapperWithThresholding.sol:API3CompositeWrapperWithThresholding",
            "label": "proxy2",
            "offset": 0,
            "slot": "1",
            "type": "t_address"
          },
          {
            "astId": 1528,
            "contract": "contracts/oracle_aggregator/wrapper/API3CompositeWrapperWithThresholding.sol:API3CompositeWrapperWithThresholding",
            "label": "primaryThreshold",
            "offset": 0,
            "slot": "2",
            "type": "t_struct(ThresholdConfig)2772_storage"
          },
          {
            "astId": 1531,
            "contract": "contracts/oracle_aggregator/wrapper/API3CompositeWrapperWithThresholding.sol:API3CompositeWrapperWithThresholding",
            "label": "secondaryThreshold",
            "offset": 0,
            "slot": "4",
            "type": "t_struct(ThresholdConfig)2772_storage"
          }
        ],
        "numberOfBytes": "192"
      },
      "t_struct(RoleData)21_storage": {
        "encoding": "inplace",
        "label": "struct AccessControl.RoleData",
        "members": [
          {
            "astId": 18,
            "contract": "contracts/oracle_aggregator/wrapper/API3CompositeWrapperWithThresholding.sol:API3CompositeWrapperWithThresholding",
            "label": "hasRole",
            "offset": 0,
            "slot": "0",
            "type": "t_mapping(t_address,t_bool)"
          },
          {
            "astId": 20,
            "contract": "contracts/oracle_aggregator/wrapper/API3CompositeWrapperWithThresholding.sol:API3CompositeWrapperWithThresholding",
            "label": "adminRole",
            "offset": 0,
            "slot": "1",
            "type": "t_bytes32"
          }
        ],
        "numberOfBytes": "64"
      },
      "t_struct(ThresholdConfig)2772_storage": {
        "encoding": "inplace",
        "label": "struct ThresholdingUtils.ThresholdConfig",
        "members": [
          {
            "astId": 2769,
            "contract": "contracts/oracle_aggregator/wrapper/API3CompositeWrapperWithThresholding.sol:API3CompositeWrapperWithThresholding",
            "label": "lowerThresholdInBase",
            "offset": 0,
            "slot": "0",
            "type": "t_uint256"
          },
          {
            "astId": 2771,
            "contract": "contracts/oracle_aggregator/wrapper/API3CompositeWrapperWithThresholding.sol:API3CompositeWrapperWithThresholding",
            "label": "fixedPriceInBase",
            "offset": 0,
            "slot": "1",
            "type": "t_uint256"
          }
        ],
        "numberOfBytes": "64"
      },
      "t_uint256": {
        "encoding": "inplace",
        "label": "uint256",
        "numberOfBytes": "32"
      }
    }
  }
}