{
  "address": "0x00Af168D213CBa1214dB4FBF1986aA3E2182DD4D",
  "abi": [
    {
      "inputs": [
        {
          "internalType": "uint256",
          "name": "_baseCurrencyUnit",
          "type": "uint256"
        }
      ],
      "stateMutability": "nonpayable",
      "type": "constructor"
    },
    {
      "inputs": [],
      "name": "AccessControlBadConfirmation",
      "type": "error"
    },
    {
      "inputs": [
        {
          "internalType": "address",
          "name": "account",
          "type": "address"
        },
        {
          "internalType": "bytes32",
          "name": "neededRole",
          "type": "bytes32"
        }
      ],
      "name": "AccessControlUnauthorizedAccount",
      "type": "error"
    },
    {
      "inputs": [
        {
          "internalType": "address",
          "name": "asset",
          "type": "address"
        }
      ],
      "name": "FeedNotSet",
      "type": "error"
    },
    {
      "inputs": [],
      "name": "PriceIsStale",
      "type": "error"
    },
    {
      "anonymous": false,
      "inputs": [
        {
          "indexed": true,
          "internalType": "address",
          "name": "asset",
          "type": "address"
        },
        {
          "indexed": false,
          "internalType": "address",
          "name": "proxy1",
          "type": "address"
        },
        {
          "indexed": false,
          "internalType": "address",
          "name": "proxy2",
          "type": "address"
        },
        {
          "indexed": false,
          "internalType": "uint256",
          "name": "lowerThresholdInBase1",
          "type": "uint256"
        },
        {
          "indexed": false,
          "internalType": "uint256",
          "name": "fixedPriceInBase1",
          "type": "uint256"
        },
        {
          "indexed": false,
          "internalType": "uint256",
          "name": "lowerThresholdInBase2",
          "type": "uint256"
        },
        {
          "indexed": false,
          "internalType": "uint256",
          "name": "fixedPriceInBase2",
          "type": "uint256"
        }
      ],
      "name": "CompositeFeedAdded",
      "type": "event"
    },
    {
      "anonymous": false,
      "inputs": [
        {
          "indexed": true,
          "internalType": "address",
          "name": "asset",
          "type": "address"
        }
      ],
      "name": "CompositeFeedRemoved",
      "type": "event"
    },
    {
      "anonymous": false,
      "inputs": [
        {
          "indexed": true,
          "internalType": "address",
          "name": "asset",
          "type": "address"
        },
        {
          "indexed": false,
          "internalType": "uint256",
          "name": "lowerThresholdInBase1",
          "type": "uint256"
        },
        {
          "indexed": false,
          "internalType": "uint256",
          "name": "fixedPriceInBase1",
          "type": "uint256"
        },
        {
          "indexed": false,
          "internalType": "uint256",
          "name": "lowerThresholdInBase2",
          "type": "uint256"
        },
        {
          "indexed": false,
          "internalType": "uint256",
          "name": "fixedPriceInBase2",
          "type": "uint256"
        }
      ],
      "name": "CompositeFeedUpdated",
      "type": "event"
    },
    {
      "anonymous": false,
      "inputs": [
        {
          "indexed": true,
          "internalType": "bytes32",
          "name": "role",
          "type": "bytes32"
        },
        {
          "indexed": true,
          "internalType": "bytes32",
          "name": "previousAdminRole",
          "type": "bytes32"
        },
        {
          "indexed": true,
          "internalType": "bytes32",
          "name": "newAdminRole",
          "type": "bytes32"
        }
      ],
      "name": "RoleAdminChanged",
      "type": "event"
    },
    {
      "anonymous": false,
      "inputs": [
        {
          "indexed": true,
          "internalType": "bytes32",
          "name": "role",
          "type": "bytes32"
        },
        {
          "indexed": true,
          "internalType": "address",
          "name": "account",
          "type": "address"
        },
        {
          "indexed": true,
          "internalType": "address",
          "name": "sender",
          "type": "address"
        }
      ],
      "name": "RoleGranted",
      "type": "event"
    },
    {
      "anonymous": false,
      "inputs": [
        {
          "indexed": true,
          "internalType": "bytes32",
          "name": "role",
          "type": "bytes32"
        },
        {
          "indexed": true,
          "internalType": "address",
          "name": "account",
          "type": "address"
        },
        {
          "indexed": true,
          "internalType": "address",
          "name": "sender",
          "type": "address"
        }
      ],
      "name": "RoleRevoked",
      "type": "event"
    },
    {
      "inputs": [],
      "name": "API3_BASE_CURRENCY_UNIT",
      "outputs": [
        {
          "internalType": "uint256",
          "name": "",
          "type": "uint256"
        }
      ],
      "stateMutability": "view",
      "type": "function"
    },
    {
      "inputs": [],
      "name": "API3_HEARTBEAT",
      "outputs": [
        {
          "internalType": "uint256",
          "name": "",
          "type": "uint256"
        }
      ],
      "stateMutability": "view",
      "type": "function"
    },
    {
      "inputs": [],
      "name": "BASE_CURRENCY",
      "outputs": [
        {
          "internalType": "address",
          "name": "",
          "type": "address"
        }
      ],
      "stateMutability": "view",
      "type": "function"
    },
    {
      "inputs": [],
      "name": "BASE_CURRENCY_UNIT",
      "outputs": [
        {
          "internalType": "uint256",
          "name": "",
          "type": "uint256"
        }
      ],
      "stateMutability": "view",
      "type": "function"
    },
    {
      "inputs": [],
      "name": "DEFAULT_ADMIN_ROLE",
      "outputs": [
        {
          "internalType": "bytes32",
          "name": "",
          "type": "bytes32"
        }
      ],
      "stateMutability": "view",
      "type": "function"
    },
    {
      "inputs": [],
      "name": "ORACLE_MANAGER_ROLE",
      "outputs": [
        {
          "internalType": "bytes32",
          "name": "",
          "type": "bytes32"
        }
      ],
      "stateMutability": "view",
      "type": "function"
    },
    {
      "inputs": [
        {
          "internalType": "address",
          "name": "asset",
          "type": "address"
        },
        {
          "internalType": "address",
          "name": "proxy1",
          "type": "address"
        },
        {
          "internalType": "address",
          "name": "proxy2",
          "type": "address"
        },
        {
          "internalType": "uint256",
          "name": "lowerThresholdInBase1",
          "type": "uint256"
        },
        {
          "internalType": "uint256",
          "name": "fixedPriceInBase1",
          "type": "uint256"
        },
        {
          "internalType": "uint256",
          "name": "lowerThresholdInBase2",
          "type": "uint256"
        },
        {
          "internalType": "uint256",
          "name": "fixedPriceInBase2",
          "type": "uint256"
        }
      ],
      "name": "addCompositeFeed",
      "outputs": [],
      "stateMutability": "nonpayable",
      "type": "function"
    },
    {
      "inputs": [
        {
          "internalType": "address",
          "name": "",
          "type": "address"
        }
      ],
      "name": "compositeFeeds",
      "outputs": [
        {
          "internalType": "address",
          "name": "proxy1",
          "type": "address"
        },
        {
          "internalType": "address",
          "name": "proxy2",
          "type": "address"
        },
        {
          "internalType": "uint256",
          "name": "lowerThresholdInBase1",
          "type": "uint256"
        },
        {
          "internalType": "uint256",
          "name": "fixedPriceInBase1",
          "type": "uint256"
        },
        {
          "internalType": "uint256",
          "name": "lowerThresholdInBase2",
          "type": "uint256"
        },
        {
          "internalType": "uint256",
          "name": "fixedPriceInBase2",
          "type": "uint256"
        }
      ],
      "stateMutability": "view",
      "type": "function"
    },
    {
      "inputs": [
        {
          "internalType": "address",
          "name": "asset",
          "type": "address"
        }
      ],
      "name": "getAssetPrice",
      "outputs": [
        {
          "internalType": "uint256",
          "name": "",
          "type": "uint256"
        }
      ],
      "stateMutability": "view",
      "type": "function"
    },
    {
      "inputs": [
        {
          "internalType": "address",
          "name": "asset",
          "type": "address"
        }
      ],
      "name": "getPriceInfo",
      "outputs": [
        {
          "internalType": "uint256",
          "name": "price",
          "type": "uint256"
        },
        {
          "internalType": "bool",
          "name": "isAlive",
          "type": "bool"
        }
      ],
      "stateMutability": "view",
      "type": "function"
    },
    {
      "inputs": [
        {
          "internalType": "bytes32",
          "name": "role",
          "type": "bytes32"
        }
      ],
      "name": "getRoleAdmin",
      "outputs": [
        {
          "internalType": "bytes32",
          "name": "",
          "type": "bytes32"
        }
      ],
      "stateMutability": "view",
      "type": "function"
    },
    {
      "inputs": [
        {
          "internalType": "bytes32",
          "name": "role",
          "type": "bytes32"
        },
        {
          "internalType": "address",
          "name": "account",
          "type": "address"
        }
      ],
      "name": "grantRole",
      "outputs": [],
      "stateMutability": "nonpayable",
      "type": "function"
    },
    {
      "inputs": [
        {
          "internalType": "bytes32",
          "name": "role",
          "type": "bytes32"
        },
        {
          "internalType": "address",
          "name": "account",
          "type": "address"
        }
      ],
      "name": "hasRole",
      "outputs": [
        {
          "internalType": "bool",
          "name": "",
          "type": "bool"
        }
      ],
      "stateMutability": "view",
      "type": "function"
    },
    {
      "inputs": [],
      "name": "heartbeatStaleTimeLimit",
      "outputs": [
        {
          "internalType": "uint256",
          "name": "",
          "type": "uint256"
        }
      ],
      "stateMutability": "view",
      "type": "function"
    },
    {
      "inputs": [
        {
          "internalType": "address",
          "name": "asset",
          "type": "address"
        }
      ],
      "name": "removeCompositeFeed",
      "outputs": [],
      "stateMutability": "nonpayable",
      "type": "function"
    },
    {
      "inputs": [
        {
          "internalType": "bytes32",
          "name": "role",
          "type": "bytes32"
        },
        {
          "internalType": "address",
          "name": "callerConfirmation",
          "type": "address"
        }
      ],
      "name": "renounceRole",
      "outputs": [],
      "stateMutability": "nonpayable",
      "type": "function"
    },
    {
      "inputs": [
        {
          "internalType": "bytes32",
          "name": "role",
          "type": "bytes32"
        },
        {
          "internalType": "address",
          "name": "account",
          "type": "address"
        }
      ],
      "name": "revokeRole",
      "outputs": [],
      "stateMutability": "nonpayable",
      "type": "function"
    },
    {
      "inputs": [
        {
          "internalType": "uint256",
          "name": "_newHeartbeatStaleTimeLimit",
          "type": "uint256"
        }
      ],
      "name": "setHeartbeatStaleTimeLimit",
      "outputs": [],
      "stateMutability": "nonpayable",
      "type": "function"
    },
    {
      "inputs": [
        {
          "internalType": "bytes4",
          "name": "interfaceId",
          "type": "bytes4"
        }
      ],
      "name": "supportsInterface",
      "outputs": [
        {
          "internalType": "bool",
          "name": "",
          "type": "bool"
        }
      ],
      "stateMutability": "view",
      "type": "function"
    },
    {
      "inputs": [
        {
          "internalType": "address",
          "name": "asset",
          "type": "address"
        },
        {
          "internalType": "uint256",
          "name": "lowerThresholdInBase1",
          "type": "uint256"
        },
        {
          "internalType": "uint256",
          "name": "fixedPriceInBase1",
          "type": "uint256"
        },
        {
          "internalType": "uint256",
          "name": "lowerThresholdInBase2",
          "type": "uint256"
        },
        {
          "internalType": "uint256",
          "name": "fixedPriceInBase2",
          "type": "uint256"
        }
      ],
      "name": "updateCompositeFeed",
      "outputs": [],
      "stateMutability": "nonpayable",
      "type": "function"
    }
  ],
  "transactionHash": "0xdfb6d024f5b1c3621fb530c7790cdcfb3a8c486254084d0682136dc5ed90cc95",
  "args": [
    "100000000"
  ],
  "numDeployments": 1,
  "solcInputHash": "65375786c18a7663ff9bec250991068a",
  "bytecode": "0x60a03461008f57601f610eee38819003918201601f19168301916001600160401b038311848410176100945780849260209460405283398101031261008f5751610708600155608052610051336100aa565b5061005b33610128565b50610065336100aa565b5061006f33610128565b50604051610d0590816101c982396080518181816104d60152610af70152f35b600080fd5b634e487b7160e01b600052604160045260246000fd5b6001600160a01b031660008181527fad3228b676f7d3cd4284a5443f17f1962b36e491b30a40b2405849e597ba5fb5602052604081205490919060ff1661012457818052816020526040822081835260205260408220600160ff198254161790553391600080516020610ece8339815191528180a4600190565b5090565b6001600160a01b031660008181527ffb8036e0bab3828a1a1cce97396031bc7ea8a361699e1bc9c4844f3aeee78d6e60205260408120549091907fced6982f480260bdd8ad5cb18ff2854f0306d78d904ad6cc107e8f3a0f526c189060ff166101c357808352826020526040832082845260205260408320600160ff19825416179055600080516020610ece833981519152339380a4600190565b50509056fe608080604052600436101561001357600080fd5b60003560e01c90816301ffc9a7146107255750806304dea6511461064a578063248a9ca31461061b5780632ecac6fc146105fd5780632f2ff15d146105be57806336568abe14610577578063519ffff1146104f95780638c89b64f146104be5780638edbf436146104925780638f5997151461031e57806391d14854146102d1578063a217fddf146101d5578063b3596f071461028e578063bfc69e1c14610253578063c5efe27c14610232578063d547741f146101f1578063e19f4700146101d5578063f99256d514610141578063fbff771c1461011e5763ffceb415146100fb57600080fd5b34610119576000366003190112610119576020604051620151808152f35b600080fd5b34610119576000366003190112610119576020604051670de0b6b3a76400008152f35b34610119576020366003190112610119576001600160a01b0380610163610778565b1660005260026020526040600020906101d181835416916001840154169260028101549060038101546005600483015492015492604051968796879260a09491979695929760c0850198600180881b0380921686521660208501526040840152606083015260808201520152565b0390f35b3461011957600036600319011261011957602060405160008152f35b346101195760403660031901126101195761023060043561021061078e565b9080600052600060205261022b60016040600020015461081e565b6108c2565b005b346101195760203660031901126101195761024b6107a4565b600435600155005b346101195760003660031901126101195760206040517fced6982f480260bdd8ad5cb18ff2854f0306d78d904ad6cc107e8f3a0f526c188152f35b34610119576020366003190112610119576102af6102aa610778565b6109ef565b156102bf57602090604051908152f35b6040516342bc305b60e11b8152600490fd5b34610119576040366003190112610119576102ea61078e565b600435600052600060205260406000209060018060a01b0316600052602052602060ff604060002054166040519015158152f35b346101195760e036600319011261011957610337610778565b61033f61078e565b906044356001600160a01b03811690819003610119577f8af3f37e726b4aaf30de76bd00359c9166bf6b9a01e457c3d4557df631227eed9161048d916103836107a4565b6040519061039082610937565b60018060a01b038616825260208201526064356040820152608435606082015260a435608082015260c43560a082015260018060a01b0382166000526002602052600560a0604060002092600180831b038151166bffffffffffffffffffffffff831b90818654161785556001850190600180851b0360208401511690825416179055604081015160028501556060810151600385015560808101516004850155015191015560405191829160018060a01b03169460c4359060a43590608435906064359060443590879260a09491979695929760c0850198600180881b0380921686521660208501526040840152606083015260808201520152565b0390a2005b346101195760203660031901126101195760406104b06102aa610778565b825191825215156020820152f35b346101195760003660031901126101195760206040517f00000000000000000000000000000000000000000000000000000000000000008152f35b3461011957602036600319011261011957610512610778565b61051a6107a4565b60018060a01b0316806000526002602052600060056040822082815582600182015582600282015582600382015582600482015501557fdabc58d0456c50872fa82879bc9ce7f6a455b4372db632857a62de4abd099691600080a2005b346101195760403660031901126101195761059061078e565b336001600160a01b038216036105ac57610230906004356108c2565b60405163334bd91960e11b8152600490fd5b34610119576040366003190112610119576102306004356105dd61078e565b908060005260006020526105f860016040600020015461081e565b610844565b34610119576000366003190112610119576020600154604051908152f35b346101195760203660031901126101195760043560005260006020526020600160406000200154604051908152f35b346101195760a036600319011261011957610663610778565b6024356084356064356044356106776107a4565b6001600160a01b039485166000818152600260205260409020805491969091811615908115610716575b506106fd579183916080946005858860027fbdebb389cb3e5b0a7c038b900aeea5b6e265e74efd0de50488c3574a4d7861d59a9801558360038201558460048201550155604051938452602084015260408301526060820152a2005b604051630dcaf86b60e01b815260048101879052602490fd5b905060018201541615876106a1565b34610119576020366003190112610119576004359063ffffffff60e01b821680920361011957602091637965db0b60e01b8114908115610767575b5015158152f35b6301ffc9a760e01b14905083610760565b600435906001600160a01b038216820361011957565b602435906001600160a01b038216820361011957565b3360009081527ffb8036e0bab3828a1a1cce97396031bc7ea8a361699e1bc9c4844f3aeee78d6e60205260409020547fced6982f480260bdd8ad5cb18ff2854f0306d78d904ad6cc107e8f3a0f526c189060ff16156108005750565b6044906040519063e2517d3f60e01b82523360048301526024820152fd5b80600052600060205260406000203360005260205260ff60406000205416156108005750565b9060009180835282602052604083209160018060a01b03169182845260205260ff604084205416156000146108bd57808352826020526040832082845260205260408320600160ff198254161790557f2f8788117e7eff1d82e926ec794901d17c78024a50270940304540a733656f0d339380a4600190565b505090565b9060009180835282602052604083209160018060a01b03169182845260205260ff6040842054166000146108bd5780835282602052604083208284526020526040832060ff1981541690557ff6391f5c32d9c69d2a47ea670b442974b53935d1edc7fd64eb21e047a839171b339380a4600190565b60c0810190811067ffffffffffffffff82111761095357604052565b634e487b7160e01b600052604160045260246000fd5b90601f8019910116810190811067ffffffffffffffff82111761095357604052565b919082604091031261011957815180601b0b81036101195760209092015163ffffffff811681036101195790565b818102929181159184041417156109cc57565b634e487b7160e01b600052601160045260246000fd5b919082039182116109cc57565b6001600160a01b0390811660008181526002602052604080822081519495949291610a1984610937565b868254168085528760018401541694602081019686885260028501548483015260038501546060830152600496600588870154966080850197885201549360a0840194855215908115610cb5575b50610c9f57508890511697825190838288816315f789a960e21b9d8e82525afa978815610c955786928799610c70575b50908491511699878251809c819382525afa988915610c66578593869a610c23575b505091610b359391610b46938681601b0b13600014610c1b576001600160e01b0316915b8681601b0b13600014610c13576001600160e01b0316915b7f000000000000000000000000000000000000000000000000000000000000000095868092610b2e670de0b6b3a76400009485926109b9565b04946109b9565b0492519081610bfd575b50506109b9565b8115610bea5704948515159384610baa575b5083610b65575b50505090565b610b789192935063ffffffff16426109e2565b906001549262015180938401809411610b975750501115388080610b5f565b634e487b7160e01b825260119052602490fd5b610bbc91945063ffffffff16426109e2565b6001549062015180918201809211610bd75711159238610b58565b634e487b7160e01b835260118452602483fd5b634e487b7160e01b835260128452602483fd5b90610c0b9293915191610cbe565b903880610b3f565b508591610af5565b508591610add565b610b359593929a50610b4694509081610c5092903d10610c5f575b610c488183610969565b81019061098b565b91909199919381939550610ab9565b503d610c3e565b83513d87823e3d90fd5b610c8c91995085809394503d8411610c5f57610c488183610969565b98909291610a97565b84513d88823e3d90fd5b86602491855191630dcaf86b60e01b8352820152fd5b90501538610a67565b91908211610cca575090565b90509056fea26469706673582212208388576efb9e7576159464f54e1ec2a4a26930ffc15e1d32d0bb3e7b6bd2450a64736f6c634300081400332f8788117e7eff1d82e926ec794901d17c78024a50270940304540a733656f0d",
  "devdoc": {
    "errors": {
      "AccessControlBadConfirmation()": [
        {
          "details": "The caller of a function is not the expected one. NOTE: Don't confuse with {AccessControlUnauthorizedAccount}."
        }
      ],
      "AccessControlUnauthorizedAccount(address,bytes32)": [
        {
          "details": "The `account` is missing a role."
        }
      ]
    },
    "events": {
      "RoleAdminChanged(bytes32,bytes32,bytes32)": {
        "details": "Emitted when `newAdminRole` is set as ``role``'s admin role, replacing `previousAdminRole` `DEFAULT_ADMIN_ROLE` is the starting admin for all roles, despite {RoleAdminChanged} not being emitted signaling this."
      },
      "RoleGranted(bytes32,address,address)": {
        "details": "Emitted when `account` is granted `role`. `sender` is the account that originated the contract call, an admin role bearer except when using {AccessControl-_setupRole}."
      },
      "RoleRevoked(bytes32,address,address)": {
        "details": "Emitted when `account` is revoked `role`. `sender` is the account that originated the contract call:   - if using `revokeRole`, it is the admin role bearer   - if using `renounceRole`, it is the role bearer (i.e. `account`)"
      }
    },
    "kind": "dev",
    "methods": {
      "getAssetPrice(address)": {
        "params": {
          "asset": "The address of the asset"
        },
        "returns": {
          "_0": "The price of the asset"
        }
      },
      "getRoleAdmin(bytes32)": {
        "details": "Returns the admin role that controls `role`. See {grantRole} and {revokeRole}. To change a role's admin, use {_setRoleAdmin}."
      },
      "grantRole(bytes32,address)": {
        "details": "Grants `role` to `account`. If `account` had not been already granted `role`, emits a {RoleGranted} event. Requirements: - the caller must have ``role``'s admin role. May emit a {RoleGranted} event."
      },
      "hasRole(bytes32,address)": {
        "details": "Returns `true` if `account` has been granted `role`."
      },
      "renounceRole(bytes32,address)": {
        "details": "Revokes `role` from the calling account. Roles are often managed via {grantRole} and {revokeRole}: this function's purpose is to provide a mechanism for accounts to lose their privileges if they are compromised (such as when a trusted device is misplaced). If the calling account had been revoked `role`, emits a {RoleRevoked} event. Requirements: - the caller must be `callerConfirmation`. May emit a {RoleRevoked} event."
      },
      "revokeRole(bytes32,address)": {
        "details": "Revokes `role` from `account`. If `account` had been granted `role`, emits a {RoleRevoked} event. Requirements: - the caller must have ``role``'s admin role. May emit a {RoleRevoked} event."
      },
      "supportsInterface(bytes4)": {
        "details": "See {IERC165-supportsInterface}."
      }
    },
    "version": 1
  },
  "userdoc": {
    "kind": "user",
    "methods": {
      "BASE_CURRENCY()": {
        "notice": "Returns the base currency address"
      },
      "BASE_CURRENCY_UNIT()": {
        "notice": "Returns the base currency unit"
      },
      "getAssetPrice(address)": {
        "notice": "Returns the asset price in the base currency"
      }
    },
    "version": 1
  },
  "storageLayout": {
    "storage": [
      {
        "astId": 193,
        "contract": "contracts/oracle_aggregator/wrapper/API3CompositeWrapperWithThresholding.sol:API3CompositeWrapperWithThresholding",
        "label": "_roles",
        "offset": 0,
        "slot": "0",
        "type": "t_mapping(t_bytes32,t_struct(RoleData)188_storage)"
      },
      {
        "astId": 11311,
        "contract": "contracts/oracle_aggregator/wrapper/API3CompositeWrapperWithThresholding.sol:API3CompositeWrapperWithThresholding",
        "label": "heartbeatStaleTimeLimit",
        "offset": 0,
        "slot": "1",
        "type": "t_uint256"
      },
      {
        "astId": 11447,
        "contract": "contracts/oracle_aggregator/wrapper/API3CompositeWrapperWithThresholding.sol:API3CompositeWrapperWithThresholding",
        "label": "compositeFeeds",
        "offset": 0,
        "slot": "2",
        "type": "t_mapping(t_address,t_struct(CompositeFeed)11442_storage)"
      }
    ],
    "types": {
      "t_address": {
        "encoding": "inplace",
        "label": "address",
        "numberOfBytes": "20"
      },
      "t_bool": {
        "encoding": "inplace",
        "label": "bool",
        "numberOfBytes": "1"
      },
      "t_bytes32": {
        "encoding": "inplace",
        "label": "bytes32",
        "numberOfBytes": "32"
      },
      "t_mapping(t_address,t_bool)": {
        "encoding": "mapping",
        "key": "t_address",
        "label": "mapping(address => bool)",
        "numberOfBytes": "32",
        "value": "t_bool"
      },
      "t_mapping(t_address,t_struct(CompositeFeed)11442_storage)": {
        "encoding": "mapping",
        "key": "t_address",
        "label": "mapping(address => struct API3CompositeWrapperWithThresholding.CompositeFeed)",
        "numberOfBytes": "32",
        "value": "t_struct(CompositeFeed)11442_storage"
      },
      "t_mapping(t_bytes32,t_struct(RoleData)188_storage)": {
        "encoding": "mapping",
        "key": "t_bytes32",
        "label": "mapping(bytes32 => struct AccessControl.RoleData)",
        "numberOfBytes": "32",
        "value": "t_struct(RoleData)188_storage"
      },
      "t_struct(CompositeFeed)11442_storage": {
        "encoding": "inplace",
        "label": "struct API3CompositeWrapperWithThresholding.CompositeFeed",
        "members": [
          {
            "astId": 11431,
            "contract": "contracts/oracle_aggregator/wrapper/API3CompositeWrapperWithThresholding.sol:API3CompositeWrapperWithThresholding",
            "label": "proxy1",
            "offset": 0,
            "slot": "0",
            "type": "t_address"
          },
          {
            "astId": 11433,
            "contract": "contracts/oracle_aggregator/wrapper/API3CompositeWrapperWithThresholding.sol:API3CompositeWrapperWithThresholding",
            "label": "proxy2",
            "offset": 0,
            "slot": "1",
            "type": "t_address"
          },
          {
            "astId": 11435,
            "contract": "contracts/oracle_aggregator/wrapper/API3CompositeWrapperWithThresholding.sol:API3CompositeWrapperWithThresholding",
            "label": "lowerThresholdInBase1",
            "offset": 0,
            "slot": "2",
            "type": "t_uint256"
          },
          {
            "astId": 11437,
            "contract": "contracts/oracle_aggregator/wrapper/API3CompositeWrapperWithThresholding.sol:API3CompositeWrapperWithThresholding",
            "label": "fixedPriceInBase1",
            "offset": 0,
            "slot": "3",
            "type": "t_uint256"
          },
          {
            "astId": 11439,
            "contract": "contracts/oracle_aggregator/wrapper/API3CompositeWrapperWithThresholding.sol:API3CompositeWrapperWithThresholding",
            "label": "lowerThresholdInBase2",
            "offset": 0,
            "slot": "4",
            "type": "t_uint256"
          },
          {
            "astId": 11441,
            "contract": "contracts/oracle_aggregator/wrapper/API3CompositeWrapperWithThresholding.sol:API3CompositeWrapperWithThresholding",
            "label": "fixedPriceInBase2",
            "offset": 0,
            "slot": "5",
            "type": "t_uint256"
          }
        ],
        "numberOfBytes": "192"
      },
      "t_struct(RoleData)188_storage": {
        "encoding": "inplace",
        "label": "struct AccessControl.RoleData",
        "members": [
          {
            "astId": 185,
            "contract": "contracts/oracle_aggregator/wrapper/API3CompositeWrapperWithThresholding.sol:API3CompositeWrapperWithThresholding",
            "label": "hasRole",
            "offset": 0,
            "slot": "0",
            "type": "t_mapping(t_address,t_bool)"
          },
          {
            "astId": 187,
            "contract": "contracts/oracle_aggregator/wrapper/API3CompositeWrapperWithThresholding.sol:API3CompositeWrapperWithThresholding",
            "label": "adminRole",
            "offset": 0,
            "slot": "1",
            "type": "t_bytes32"
          }
        ],
        "numberOfBytes": "64"
      },
      "t_uint256": {
        "encoding": "inplace",
        "label": "uint256",
        "numberOfBytes": "32"
      }
    }
  }
}