{
  "address": "0xa280dFB7fA12de8E348D63Ec3F0495348A336C66",
  "abi": [
    {
      "inputs": [
        {
          "internalType": "address",
          "name": "target",
          "type": "address"
        }
      ],
      "name": "AddressEmptyCode",
      "type": "error"
    },
    {
      "inputs": [
        {
          "internalType": "address",
          "name": "account",
          "type": "address"
        }
      ],
      "name": "AddressInsufficientBalance",
      "type": "error"
    },
    {
      "inputs": [
        {
          "internalType": "address",
          "name": "inputToken",
          "type": "address"
        },
        {
          "internalType": "address",
          "name": "outputToken",
          "type": "address"
        },
        {
          "internalType": "string",
          "name": "key",
          "type": "string"
        }
      ],
      "name": "DuplicateKeyForSwapExtraParams",
      "type": "error"
    },
    {
      "inputs": [],
      "name": "FailedInnerCall",
      "type": "error"
    },
    {
      "inputs": [
        {
          "internalType": "address",
          "name": "tokenIn",
          "type": "address"
        },
        {
          "internalType": "address[11]",
          "name": "route",
          "type": "address[11]"
        }
      ],
      "name": "InvalidInputTokenInRoute",
      "type": "error"
    },
    {
      "inputs": [
        {
          "internalType": "address",
          "name": "inputToken",
          "type": "address"
        },
        {
          "internalType": "address",
          "name": "outputToken",
          "type": "address"
        },
        {
          "internalType": "string",
          "name": "key",
          "type": "string"
        }
      ],
      "name": "NotFoundKeyForSwapExtraParams",
      "type": "error"
    },
    {
      "inputs": [
        {
          "internalType": "address",
          "name": "_inputToken",
          "type": "address"
        },
        {
          "internalType": "address",
          "name": "_outputToken",
          "type": "address"
        },
        {
          "internalType": "bytes",
          "name": "_swapData",
          "type": "bytes"
        }
      ],
      "name": "NotSupportedCustomSwapData",
      "type": "error"
    },
    {
      "inputs": [
        {
          "internalType": "address",
          "name": "token",
          "type": "address"
        }
      ],
      "name": "SafeERC20FailedOperation",
      "type": "error"
    },
    {
      "inputs": [
        {
          "internalType": "uint256",
          "name": "value",
          "type": "uint256"
        },
        {
          "internalType": "uint256",
          "name": "length",
          "type": "uint256"
        }
      ],
      "name": "StringsInsufficientHexLength",
      "type": "error"
    },
    {
      "inputs": [
        {
          "internalType": "address",
          "name": "inputToken",
          "type": "address"
        },
        {
          "internalType": "address",
          "name": "outputToken",
          "type": "address"
        }
      ],
      "name": "getSwapExtraParamsKey",
      "outputs": [
        {
          "internalType": "string",
          "name": "",
          "type": "string"
        }
      ],
      "stateMutability": "pure",
      "type": "function"
    }
  ],
  "transactionHash": "0xc0fe01e879df8aada75819d5cc0f6df0c02b9415487e463d35f49240c069847f",
  "args": [],
  "numDeployments": 1,
  "solcInputHash": "c5bdcb9de6a27bcda5a00bc2d8dce9a2",
  "bytecode": "0x6080806040523461001c5761142690816100228239308160070152f35b600080fdfe6080604052307f000000000000000000000000000000000000000000000000000000000000000014600436101561003557600080fd5b60003560e01c806333df00aa146109285780639227b7d0146108a557806397adea0414610865578063a0023c6c1461044e5763d5f395081461007657600080fd5b6103c857366003190161088081126103c857610840136103c85760405161009c81610d05565b6004356001600160a01b03811681036103c85781526024356001600160a01b03811681036103c8576020820152610400806043193601126103c857604051906100e482610ce9565b36606312156103c8576040516100f981610d21565b806101a4913683116103c8576044905b8382106104365750508352366101c312156103c85760405161012a81610d3e565b80610424923684116103c857905b8382106103e5575050602084015235604083015260408301918252610443193601126103c85760405161016a81610ce9565b3661046312156103c85760405161018081610d21565b806105a4913683116103c857610444905b8382106103cd5750508252366105c312156103c8576040516101b281610d3e565b80610824923684116103c857905b838210610377575050602083015235604082015260608301526102216101fc60018060a01b0384511660018060a01b036020860151169061108e565b9161020a610864358461103c565b805460ff191660011790555191610844359061103c565b90805160005b600b811061035a5750506020810151600b8301906000905b600582106103245750505060400151601f91909101556020810151815161029f91606091610279916001600160a01b03918216911661108e565b92610287610864358561103c565b805460ff19166001179055015191610844359061103c565b90805160005b600b81106103075750506020810151600b8301906000905b600582106102d1576040840151601f860155005b805160005b600481106102f357505060046020600192019301910190916102bd565b6001906020835193019281870155016102d6565b81516001600160a01b0316818501556020909101906001016102a5565b805160005b60048110610346575050600460206001920193019101909161023f565b600190602083519301928187015501610329565b81516001600160a01b031681850155602090910190600101610227565b36601f830112156103c85760405161038e81610d05565b80608084013681116103c85784915b8183106103b8575050508160209160809352019101906101c0565b823581526020928301920161039d565b600080fd5b602080916103da84610da8565b815201910190610191565b36601f830112156103c8576040516103fc81610d05565b80608084013681116103c85784915b81831061042657505050816020916080935201910190610138565b823581526020928301920161040b565b6020809161044384610da8565b815201910190610109565b506103c8576101403660031901126103c857610468610d7c565b610470610d92565b6001600160a01b0360a43581811692908381036103c85760c4359267ffffffffffffffff84116103c857366023850112156103c8578360040135956104b487610f4a565b6104c16040519182610d5a565b878152602497368982890101116103c85788968160009260209b8c9301838601378301015260e435908382168092036103c85761010435926101243591805161082e575090848061052393169716938761051d83838884611273565b95611273565b82518481511687036107e9575060405163095ea7b360e01b81526001600160a01b038316600482015260643560248201819052969091908a90839060449082906000905af190811561077f5788926105d5926107bc575b506105ca8551916105bf8d6105b4818a01519184519401519560408b0151986040519a633fff811360e01b8c5260048c01528a0190610f7e565b610184880190610eb3565b610404860190610f7e565b610564840190610eb3565b6107e4820152608435610804820152604435948561082483015261084482015273C32F2a476e7591089D3e222F19fE588197B797aF91888261086481865af497881561077f57899260009961078b575b503003610636575b50604051878152f35b516040516336aff3e760e11b815292839161016491839161065b906004840190610f7e565b5af490811561077f57600091610747575b506040805163a9059cbb60e01b8982019081526001600160a01b03909516878201908152602081019690965291909216936106f293600093849391926106bd9183910103601f198101835282610d5a565b519082865af13d1561073f573d906106d482610f4a565b916106e26040519384610d5a565b82523d60008884013e5b83610faf565b805190858215159283610726575b50505061071157808080868161062d565b60405190635274afe760e01b82526004820152fd5b6107369350820181019101610f66565b15388581610700565b6060906106ec565b90508681813d8311610778575b61075e8183610d5a565b810103126103c8575181811681036103c8576106f261066c565b503d610754565b6040513d6000823e3d90fd5b838194929a503d83116107b5575b6107a38183610d5a565b810103126103c8578891519738610625565b503d610799565b6107db908c8d3d106107e2575b6107d38183610d5a565b810190610f66565b503861057a565b503d6107c9565b60405163cb709ddd60e01b8152600481018890529085908b90600090848c015b600b83106108175761018486fd5b838060019287855116815201920192019190610809565b604051630f3537b560e31b81529186166004830152878616828a0152606060448301528190610861906064830190610f25565b0390fd5b60403660031901126103c8576108a161088d61087f610d7c565b610887610d92565b9061108e565b604051918291602083526020830190610f25565b0390f35b60803660031901126103c8576108d26108bc610d7c565b6108c4610d92565b906064359160443591611273565b6040518151600090825b600b831061090857610400846040876108fe6020820151610160850190610eb3565b01516103e0820152f35b81516001600160a01b0316815260019290920191602091820191016108dc565b506103c85760603660031901126103c85760043567ffffffffffffffff8082116103c857366023830112156103c8578160040135908111610cd35761097460208260051b016080610d5a565b6080819052602491610840918202810183019060a0903683116103c8578401905b828210610c70578460005b608051811015610c6e576109e26001600160a01b036109c0836080611012565b5151166001600160a01b0360206109d8856080611012565b510151169061108e565b60ff6109f06044358361103c565b5416610c1e57610a026044358261103c565b805460ff19166001179055610a296040610a1d846080611012565b5101519184359061103c565b90805160005b600b8110610c015750506020810151600b8301906000905b60058210610bcb5750505060400151601f9190910155610a956001600160a01b036020610a75846080611012565b510151166001600160a01b03610a8c846080611012565b5151169061108e565b60ff610aa36044358361103c565b5416610b7c57610ab56044358261103c565b805460ff19166001179055610ad06060610a1d846080611012565b90805160005b600b8110610b5f5750506020810151600b8301906000905b60058210610b29575050506040601f9101519101556000198114610b14576001016109a0565b50634e487b7160e01b60009081526011600452fd5b805160005b60048110610b4b5750506004602060019201930191019091610aee565b600190602083519301928187015501610b2e565b81516001600160a01b031681850155602090910190600101610ad6565b906108616001600160a01b036020610b95846080611012565b51015116916001600160a01b0390610bae906080611012565b515116926040519384936372b8027f60e01b855260048501611062565b805160005b60048110610bed5750506004602060019201930191019091610a47565b600190602083519301928187015501610bd0565b81516001600160a01b031681850155602090910190600101610a2f565b906108616001600160a01b03610c35836080611012565b515116916001600160a01b0390602090610c50906080611012565b51015116926040519384936372b8027f60e01b855260048501611062565b005b83823603126103c85760208491604051610c8981610d05565b610c9285610da8565b8152610c9f838601610da8565b83820152610cb03660408701610dbc565b6040820152610cc3366104408701610dbc565b6060820152815201910190610995565b634e487b7160e01b600052604160045260246000fd5b6060810190811067ffffffffffffffff821117610cd357604052565b6080810190811067ffffffffffffffff821117610cd357604052565b610160810190811067ffffffffffffffff821117610cd357604052565b60a0810190811067ffffffffffffffff821117610cd357604052565b90601f8019910116810190811067ffffffffffffffff821117610cd357604052565b600435906001600160a01b03821682036103c857565b602435906001600160a01b03821682036103c857565b35906001600160a01b03821682036103c857565b9190610400838203126103c8576040805191610dd783610ce9565b8294601f918083830112156103c857835192610df284610d21565b836101608401948386116103c85784905b868210610e9b57505086528161017f840112156103c857845192610e2684610d3e565b6103e0849101948386116103c857905b858210610e4c5750505050602084015235910152565b8383830112156103c8578651610e6181610d05565b80608084018681116103c85784915b818310610e8b57505050816020916080935201910190610e36565b8235815260209283019201610e70565b60208091610ea884610da8565b815201910190610e03565b9060009182915b60058310610ec85750505050565b815184825b60048210610eeb575050506020608060019201920192019190610eba565b600190835181526020809101930191019091610ecd565b60005b838110610f155750506000910152565b8181015183820152602001610f05565b90602091610f3e81518092818552858086019101610f02565b601f01601f1916010190565b67ffffffffffffffff8111610cd357601f01601f191660200190565b908160209103126103c8575180151581036103c85790565b6000915b600b8310610f8f57505050565b81516001600160a01b031681526001929092019160209182019101610f82565b90610fd65750805115610fc457805190602001fd5b604051630a12f52160e11b8152600490fd5b81511580611009575b610fe7575090565b604051639996b31560e01b81526001600160a01b039091166004820152602490fd5b50803b15610fdf565b80518210156110265760209160051b010190565b634e487b7160e01b600052603260045260246000fd5b602090611056928260405194838680955193849201610f02565b82019081520301902090565b6001600160a01b0391821681529116602082015260606040820181905261108b92910190610f25565b90565b604080516001600160a01b039283169390928492916110ac85610ce9565b602a85526020850193833686378551156110265760308553855196600197881015611026576078602188015360295b88811161122057506112025750169182918051926110f884610ce9565b602a845260208401948236873784511561102657603086538451881015611026576078602186015360295b8881116111965750611179575092611152959261116b61108b9693602196519889955180926020880190610f02565b840191602d60f81b602084015251809387840190610f02565b010390810184520182610d5a565b604491519063e22e27eb60e01b8252600482015260146024820152fd5b90600f811660108110156111ed576f181899199a1a9b1b9c1cb0b131b232b360811b901a6111c48388611262565b5360041c9080156111d85760001901611123565b60246000634e487b7160e01b81526011600452fd5b60246000634e487b7160e01b81526032600452fd5b60449084519063e22e27eb60e01b8252600482015260146024820152fd5b90600f811660108110156111ed576f181899199a1a9b1b9c1cb0b131b232b360811b901a61124e838a611262565b5360041c9080156111d857600019016110db565b908151811015611026570160200190565b9291909160409283519461128686610ce9565b845161129181610d21565b61016036823786528451956112a587610d3e565b8560005b60a081106113d2575060009160209889820152015260ff6112d46112cd848461108e565b948561103c565b5416156113b7575050906112e79161103c565b8151926112f384610ce9565b825182600083835b600b8310611397575050505061131081610d21565b845282519060a0820182811067ffffffffffffffff821117610cd3578452600b83016000835b6005821061134f57505050840152601f01549082015290565b83875180856000915b60048310611381575050509060019282611373600494610d05565b815201930191019091611336565b8154815288946001938401939092019101611358565b83546001600160a01b0316815260019384019392909201918591016112fb565b61086183865193849362acf2cf60e51b855260048501611062565b602091516113df81610d05565b6080368237818a01520186906112a956fea26469706673582212200e33307cb54fdd5ac338505c96da9a1f612101bb6df17bb705fc2b0976e102d464736f6c63430008140033",
  "deployedBytecode": "0x6080604052307f000000000000000000000000000000000000000000000000000000000000000014600436101561003557600080fd5b60003560e01c806333df00aa146109285780639227b7d0146108a557806397adea0414610865578063a0023c6c1461044e5763d5f395081461007657600080fd5b6103c857366003190161088081126103c857610840136103c85760405161009c81610d05565b6004356001600160a01b03811681036103c85781526024356001600160a01b03811681036103c8576020820152610400806043193601126103c857604051906100e482610ce9565b36606312156103c8576040516100f981610d21565b806101a4913683116103c8576044905b8382106104365750508352366101c312156103c85760405161012a81610d3e565b80610424923684116103c857905b8382106103e5575050602084015235604083015260408301918252610443193601126103c85760405161016a81610ce9565b3661046312156103c85760405161018081610d21565b806105a4913683116103c857610444905b8382106103cd5750508252366105c312156103c8576040516101b281610d3e565b80610824923684116103c857905b838210610377575050602083015235604082015260608301526102216101fc60018060a01b0384511660018060a01b036020860151169061108e565b9161020a610864358461103c565b805460ff191660011790555191610844359061103c565b90805160005b600b811061035a5750506020810151600b8301906000905b600582106103245750505060400151601f91909101556020810151815161029f91606091610279916001600160a01b03918216911661108e565b92610287610864358561103c565b805460ff19166001179055015191610844359061103c565b90805160005b600b81106103075750506020810151600b8301906000905b600582106102d1576040840151601f860155005b805160005b600481106102f357505060046020600192019301910190916102bd565b6001906020835193019281870155016102d6565b81516001600160a01b0316818501556020909101906001016102a5565b805160005b60048110610346575050600460206001920193019101909161023f565b600190602083519301928187015501610329565b81516001600160a01b031681850155602090910190600101610227565b36601f830112156103c85760405161038e81610d05565b80608084013681116103c85784915b8183106103b8575050508160209160809352019101906101c0565b823581526020928301920161039d565b600080fd5b602080916103da84610da8565b815201910190610191565b36601f830112156103c8576040516103fc81610d05565b80608084013681116103c85784915b81831061042657505050816020916080935201910190610138565b823581526020928301920161040b565b6020809161044384610da8565b815201910190610109565b506103c8576101403660031901126103c857610468610d7c565b610470610d92565b6001600160a01b0360a43581811692908381036103c85760c4359267ffffffffffffffff84116103c857366023850112156103c8578360040135956104b487610f4a565b6104c16040519182610d5a565b878152602497368982890101116103c85788968160009260209b8c9301838601378301015260e435908382168092036103c85761010435926101243591805161082e575090848061052393169716938761051d83838884611273565b95611273565b82518481511687036107e9575060405163095ea7b360e01b81526001600160a01b038316600482015260643560248201819052969091908a90839060449082906000905af190811561077f5788926105d5926107bc575b506105ca8551916105bf8d6105b4818a01519184519401519560408b0151986040519a633fff811360e01b8c5260048c01528a0190610f7e565b610184880190610eb3565b610404860190610f7e565b610564840190610eb3565b6107e4820152608435610804820152604435948561082483015261084482015273__$e2517e438dd7117781925bdc00e57cd357$__91888261086481865af497881561077f57899260009961078b575b503003610636575b50604051878152f35b516040516336aff3e760e11b815292839161016491839161065b906004840190610f7e565b5af490811561077f57600091610747575b506040805163a9059cbb60e01b8982019081526001600160a01b03909516878201908152602081019690965291909216936106f293600093849391926106bd9183910103601f198101835282610d5a565b519082865af13d1561073f573d906106d482610f4a565b916106e26040519384610d5a565b82523d60008884013e5b83610faf565b805190858215159283610726575b50505061071157808080868161062d565b60405190635274afe760e01b82526004820152fd5b6107369350820181019101610f66565b15388581610700565b6060906106ec565b90508681813d8311610778575b61075e8183610d5a565b810103126103c8575181811681036103c8576106f261066c565b503d610754565b6040513d6000823e3d90fd5b838194929a503d83116107b5575b6107a38183610d5a565b810103126103c8578891519738610625565b503d610799565b6107db908c8d3d106107e2575b6107d38183610d5a565b810190610f66565b503861057a565b503d6107c9565b60405163cb709ddd60e01b8152600481018890529085908b90600090848c015b600b83106108175761018486fd5b838060019287855116815201920192019190610809565b604051630f3537b560e31b81529186166004830152878616828a0152606060448301528190610861906064830190610f25565b0390fd5b60403660031901126103c8576108a161088d61087f610d7c565b610887610d92565b9061108e565b604051918291602083526020830190610f25565b0390f35b60803660031901126103c8576108d26108bc610d7c565b6108c4610d92565b906064359160443591611273565b6040518151600090825b600b831061090857610400846040876108fe6020820151610160850190610eb3565b01516103e0820152f35b81516001600160a01b0316815260019290920191602091820191016108dc565b506103c85760603660031901126103c85760043567ffffffffffffffff8082116103c857366023830112156103c8578160040135908111610cd35761097460208260051b016080610d5a565b6080819052602491610840918202810183019060a0903683116103c8578401905b828210610c70578460005b608051811015610c6e576109e26001600160a01b036109c0836080611012565b5151166001600160a01b0360206109d8856080611012565b510151169061108e565b60ff6109f06044358361103c565b5416610c1e57610a026044358261103c565b805460ff19166001179055610a296040610a1d846080611012565b5101519184359061103c565b90805160005b600b8110610c015750506020810151600b8301906000905b60058210610bcb5750505060400151601f9190910155610a956001600160a01b036020610a75846080611012565b510151166001600160a01b03610a8c846080611012565b5151169061108e565b60ff610aa36044358361103c565b5416610b7c57610ab56044358261103c565b805460ff19166001179055610ad06060610a1d846080611012565b90805160005b600b8110610b5f5750506020810151600b8301906000905b60058210610b29575050506040601f9101519101556000198114610b14576001016109a0565b50634e487b7160e01b60009081526011600452fd5b805160005b60048110610b4b5750506004602060019201930191019091610aee565b600190602083519301928187015501610b2e565b81516001600160a01b031681850155602090910190600101610ad6565b906108616001600160a01b036020610b95846080611012565b51015116916001600160a01b0390610bae906080611012565b515116926040519384936372b8027f60e01b855260048501611062565b805160005b60048110610bed5750506004602060019201930191019091610a47565b600190602083519301928187015501610bd0565b81516001600160a01b031681850155602090910190600101610a2f565b906108616001600160a01b03610c35836080611012565b515116916001600160a01b0390602090610c50906080611012565b51015116926040519384936372b8027f60e01b855260048501611062565b005b83823603126103c85760208491604051610c8981610d05565b610c9285610da8565b8152610c9f838601610da8565b83820152610cb03660408701610dbc565b6040820152610cc3366104408701610dbc565b6060820152815201910190610995565b634e487b7160e01b600052604160045260246000fd5b6060810190811067ffffffffffffffff821117610cd357604052565b6080810190811067ffffffffffffffff821117610cd357604052565b610160810190811067ffffffffffffffff821117610cd357604052565b60a0810190811067ffffffffffffffff821117610cd357604052565b90601f8019910116810190811067ffffffffffffffff821117610cd357604052565b600435906001600160a01b03821682036103c857565b602435906001600160a01b03821682036103c857565b35906001600160a01b03821682036103c857565b9190610400838203126103c8576040805191610dd783610ce9565b8294601f918083830112156103c857835192610df284610d21565b836101608401948386116103c85784905b868210610e9b57505086528161017f840112156103c857845192610e2684610d3e565b6103e0849101948386116103c857905b858210610e4c5750505050602084015235910152565b8383830112156103c8578651610e6181610d05565b80608084018681116103c85784915b818310610e8b57505050816020916080935201910190610e36565b8235815260209283019201610e70565b60208091610ea884610da8565b815201910190610e03565b9060009182915b60058310610ec85750505050565b815184825b60048210610eeb575050506020608060019201920192019190610eba565b600190835181526020809101930191019091610ecd565b60005b838110610f155750506000910152565b8181015183820152602001610f05565b90602091610f3e81518092818552858086019101610f02565b601f01601f1916010190565b67ffffffffffffffff8111610cd357601f01601f191660200190565b908160209103126103c8575180151581036103c85790565b6000915b600b8310610f8f57505050565b81516001600160a01b031681526001929092019160209182019101610f82565b90610fd65750805115610fc457805190602001fd5b604051630a12f52160e11b8152600490fd5b81511580611009575b610fe7575090565b604051639996b31560e01b81526001600160a01b039091166004820152602490fd5b50803b15610fdf565b80518210156110265760209160051b010190565b634e487b7160e01b600052603260045260246000fd5b602090611056928260405194838680955193849201610f02565b82019081520301902090565b6001600160a01b0391821681529116602082015260606040820181905261108b92910190610f25565b90565b604080516001600160a01b039283169390928492916110ac85610ce9565b602a85526020850193833686378551156110265760308553855196600197881015611026576078602188015360295b88811161122057506112025750169182918051926110f884610ce9565b602a845260208401948236873784511561102657603086538451881015611026576078602186015360295b8881116111965750611179575092611152959261116b61108b9693602196519889955180926020880190610f02565b840191602d60f81b602084015251809387840190610f02565b010390810184520182610d5a565b604491519063e22e27eb60e01b8252600482015260146024820152fd5b90600f811660108110156111ed576f181899199a1a9b1b9c1cb0b131b232b360811b901a6111c48388611262565b5360041c9080156111d85760001901611123565b60246000634e487b7160e01b81526011600452fd5b60246000634e487b7160e01b81526032600452fd5b60449084519063e22e27eb60e01b8252600482015260146024820152fd5b90600f811660108110156111ed576f181899199a1a9b1b9c1cb0b131b232b360811b901a61124e838a611262565b5360041c9080156111d857600019016110db565b908151811015611026570160200190565b9291909160409283519461128686610ce9565b845161129181610d21565b61016036823786528451956112a587610d3e565b8560005b60a081106113d2575060009160209889820152015260ff6112d46112cd848461108e565b948561103c565b5416156113b7575050906112e79161103c565b8151926112f384610ce9565b825182600083835b600b8310611397575050505061131081610d21565b845282519060a0820182811067ffffffffffffffff821117610cd3578452600b83016000835b6005821061134f57505050840152601f01549082015290565b83875180856000915b60048310611381575050509060019282611373600494610d05565b815201930191019091611336565b8154815288946001938401939092019101611358565b83546001600160a01b0316815260019384019392909201918591016112fb565b61086183865193849362acf2cf60e51b855260048501611062565b602091516113df81610d05565b6080368237818a01520186906112a956fea26469706673582212200e33307cb54fdd5ac338505c96da9a1f612101bb6df17bb705fc2b0976e102d464736f6c63430008140033",
  "libraries": {
    "CurveHelper": "0xC32F2a476e7591089D3e222F19fE588197B797aF"
  },
  "devdoc": {
    "details": "Library for common Curve-related functions used in dLOOP contracts",
    "errors": {
      "AddressEmptyCode(address)": [
        {
          "details": "There's no code at `target` (it is not a contract)."
        }
      ],
      "AddressInsufficientBalance(address)": [
        {
          "details": "The ETH balance of the account is not enough to perform the operation."
        }
      ],
      "FailedInnerCall()": [
        {
          "details": "A call to an address target failed. The target may have reverted."
        }
      ],
      "NotSupportedCustomSwapData(address,address,bytes)": [
        {
          "details": "Error thrown when custom swap data is provided but not supported"
        }
      ],
      "SafeERC20FailedOperation(address)": [
        {
          "details": "An operation with an ERC20 token failed."
        }
      ],
      "StringsInsufficientHexLength(uint256,uint256)": [
        {
          "details": "The `value` string doesn't fit in the specified `length`."
        }
      ]
    },
    "kind": "dev",
    "methods": {
      "getSwapExtraParams(address,address,mapping(string => CurveHelper.CurveSwapExtraParams) storage,mapping(string => bool) storage)": {
        "details": "Gets the swap parameters for a token pair",
        "params": {
          "defaultSwapParams": "Mapping of default swap parameters",
          "inputToken": "Address of the input token",
          "isSwapParamsSet": "Mapping indicating if swap parameters are set",
          "outputToken": "Address of the output token"
        },
        "returns": {
          "_0": "CurveHelper.CurveSwapExtraParams The swap parameters"
        }
      },
      "getSwapExtraParamsKey(address,address)": {
        "details": "Gets the key for swap parameters based on input and output tokens",
        "params": {
          "inputToken": "Address of the input token",
          "outputToken": "Address of the output token"
        },
        "returns": {
          "_0": "string The key for the swap parameters"
        }
      },
      "initializeDefaultSwapParams(CurveSwapLogic.CurveSwapExtraParamsDefaultConfig[],mapping(string => CurveHelper.CurveSwapExtraParams) storage,mapping(string => bool) storage)": {
        "details": "Initialize default swap parameters for a list of token pairs",
        "params": {
          "defaultSwapParams": "Mapping to store default swap parameters",
          "defaultSwapParamsList": "List of default swap parameters",
          "isSwapParamsSet": "Mapping to track which parameters are set"
        }
      },
      "setSwapExtraParams(CurveSwapLogic.CurveSwapExtraParamsDefaultConfig,mapping(string => CurveHelper.CurveSwapExtraParams) storage,mapping(string => bool) storage)": {
        "details": "Sets swap parameters for a token pair",
        "params": {
          "defaultSwapParams": "Mapping to store swap parameters",
          "isSwapParamsSet": "Mapping to track which parameters are set",
          "swapExtraParamsConfig": "Configuration for the swap parameters"
        }
      },
      "swapExactOutput(ERC20,ERC20,uint256,uint256,uint256,address,bytes,ICurveRouterNgPoolsOnlyV1,mapping(string => CurveHelper.CurveSwapExtraParams) storage,mapping(string => bool) storage)": {
        "details": "Swaps an exact amount of output tokens for input tokens using Curve protocol",
        "params": {
          "amountInMaximum": "Maximum amount of input tokens to spend",
          "amountOut": "Exact amount of output tokens to receive",
          "curveRouter": "Curve router to use for the swap",
          "defaultSwapParams": "Mapping of default swap parameters",
          "extraData": "Additional data for the swap (not supported)",
          "inputToken": "Input token to be swapped",
          "isSwapParamsSet": "Mapping indicating if swap parameters are set",
          "maxSlippageSurplusSwapBps": "Maximum slippage surplus swap",
          "outputToken": "Output token to receive",
          "receiver": "Address to receive the output tokens"
        },
        "returns": {
          "_0": "uint256 Amount of input tokens used"
        }
      }
    },
    "title": "CurveSwapLogic",
    "version": 1
  },
  "userdoc": {
    "kind": "user",
    "methods": {},
    "version": 1
  },
  "storageLayout": {
    "storage": [],
    "types": null
  }
}