{
  "address": "0xa993551401377FeAd33AcAE6533DC7d39079b3d8",
  "abi": [
    {
      "inputs": [
        {
          "internalType": "contract IPoolAddressesProvider",
          "name": "addressesProvider",
          "type": "address"
        },
        {
          "internalType": "address",
          "name": "pool",
          "type": "address"
        },
        {
          "internalType": "contract ICurveRouterNgPoolsOnlyV1",
          "name": "swapRouter",
          "type": "address"
        },
        {
          "internalType": "address",
          "name": "owner",
          "type": "address"
        }
      ],
      "stateMutability": "nonpayable",
      "type": "constructor"
    },
    {
      "inputs": [
        {
          "internalType": "address",
          "name": "caller",
          "type": "address"
        },
        {
          "internalType": "address",
          "name": "pool",
          "type": "address"
        }
      ],
      "name": "CallerMustBePool",
      "type": "error"
    },
    {
      "inputs": [
        {
          "internalType": "address",
          "name": "initiator",
          "type": "address"
        },
        {
          "internalType": "address",
          "name": "expectedInitiator",
          "type": "address"
        }
      ],
      "name": "InitiatorMustBeThis",
      "type": "error"
    },
    {
      "inputs": [
        {
          "internalType": "uint256",
          "name": "balance",
          "type": "uint256"
        },
        {
          "internalType": "uint256",
          "name": "required",
          "type": "uint256"
        }
      ],
      "name": "InsufficientBalanceBeforeSwap",
      "type": "error"
    },
    {
      "inputs": [
        {
          "internalType": "uint256",
          "name": "received",
          "type": "uint256"
        },
        {
          "internalType": "uint256",
          "name": "required",
          "type": "uint256"
        }
      ],
      "name": "InsufficientOutputAmount",
      "type": "error"
    },
    {
      "anonymous": false,
      "inputs": [
        {
          "indexed": true,
          "internalType": "address",
          "name": "fromAsset",
          "type": "address"
        },
        {
          "indexed": true,
          "internalType": "address",
          "name": "toAsset",
          "type": "address"
        },
        {
          "indexed": false,
          "internalType": "uint256",
          "name": "amountSold",
          "type": "uint256"
        },
        {
          "indexed": false,
          "internalType": "uint256",
          "name": "receivedAmount",
          "type": "uint256"
        }
      ],
      "name": "Bought",
      "type": "event"
    },
    {
      "anonymous": false,
      "inputs": [
        {
          "indexed": true,
          "internalType": "address",
          "name": "previousOwner",
          "type": "address"
        },
        {
          "indexed": true,
          "internalType": "address",
          "name": "newOwner",
          "type": "address"
        }
      ],
      "name": "OwnershipTransferred",
      "type": "event"
    },
    {
      "anonymous": false,
      "inputs": [
        {
          "indexed": true,
          "internalType": "address",
          "name": "fromAsset",
          "type": "address"
        },
        {
          "indexed": true,
          "internalType": "address",
          "name": "toAsset",
          "type": "address"
        },
        {
          "indexed": false,
          "internalType": "uint256",
          "name": "fromAmount",
          "type": "uint256"
        },
        {
          "indexed": false,
          "internalType": "uint256",
          "name": "receivedAmount",
          "type": "uint256"
        }
      ],
      "name": "Swapped",
      "type": "event"
    },
    {
      "inputs": [],
      "name": "ADDRESSES_PROVIDER",
      "outputs": [
        {
          "internalType": "contract IPoolAddressesProvider",
          "name": "",
          "type": "address"
        }
      ],
      "stateMutability": "view",
      "type": "function"
    },
    {
      "inputs": [],
      "name": "POOL",
      "outputs": [
        {
          "internalType": "contract IPool",
          "name": "",
          "type": "address"
        }
      ],
      "stateMutability": "view",
      "type": "function"
    },
    {
      "inputs": [],
      "name": "REFERRER",
      "outputs": [
        {
          "internalType": "uint16",
          "name": "",
          "type": "uint16"
        }
      ],
      "stateMutability": "view",
      "type": "function"
    },
    {
      "inputs": [
        {
          "internalType": "address[]",
          "name": "assets",
          "type": "address[]"
        },
        {
          "internalType": "uint256[]",
          "name": "amounts",
          "type": "uint256[]"
        },
        {
          "internalType": "uint256[]",
          "name": "premiums",
          "type": "uint256[]"
        },
        {
          "internalType": "address",
          "name": "initiator",
          "type": "address"
        },
        {
          "internalType": "bytes",
          "name": "params",
          "type": "bytes"
        }
      ],
      "name": "executeOperation",
      "outputs": [
        {
          "internalType": "bool",
          "name": "",
          "type": "bool"
        }
      ],
      "stateMutability": "nonpayable",
      "type": "function"
    },
    {
      "inputs": [],
      "name": "owner",
      "outputs": [
        {
          "internalType": "address",
          "name": "",
          "type": "address"
        }
      ],
      "stateMutability": "view",
      "type": "function"
    },
    {
      "inputs": [],
      "name": "renounceOwnership",
      "outputs": [],
      "stateMutability": "nonpayable",
      "type": "function"
    },
    {
      "inputs": [
        {
          "internalType": "contract IERC20",
          "name": "token",
          "type": "address"
        }
      ],
      "name": "rescueTokens",
      "outputs": [],
      "stateMutability": "nonpayable",
      "type": "function"
    },
    {
      "inputs": [
        {
          "components": [
            {
              "internalType": "address",
              "name": "collateralAsset",
              "type": "address"
            },
            {
              "internalType": "uint256",
              "name": "collateralAmountToSwap",
              "type": "uint256"
            },
            {
              "internalType": "address",
              "name": "newCollateralAsset",
              "type": "address"
            },
            {
              "internalType": "uint256",
              "name": "newCollateralAmount",
              "type": "uint256"
            },
            {
              "internalType": "address",
              "name": "user",
              "type": "address"
            },
            {
              "internalType": "bool",
              "name": "withFlashLoan",
              "type": "bool"
            },
            {
              "internalType": "address[11]",
              "name": "route",
              "type": "address[11]"
            },
            {
              "internalType": "uint256[4][5]",
              "name": "swapParams",
              "type": "uint256[4][5]"
            }
          ],
          "internalType": "struct ICurveLiquiditySwapAdapter.LiquiditySwapParams",
          "name": "liquiditySwapParams",
          "type": "tuple"
        },
        {
          "components": [
            {
              "internalType": "contract IERC20WithPermit",
              "name": "aToken",
              "type": "address"
            },
            {
              "internalType": "uint256",
              "name": "value",
              "type": "uint256"
            },
            {
              "internalType": "uint256",
              "name": "deadline",
              "type": "uint256"
            },
            {
              "internalType": "uint8",
              "name": "v",
              "type": "uint8"
            },
            {
              "internalType": "bytes32",
              "name": "r",
              "type": "bytes32"
            },
            {
              "internalType": "bytes32",
              "name": "s",
              "type": "bytes32"
            }
          ],
          "internalType": "struct IBaseCurveAdapter.PermitInput",
          "name": "collateralATokenPermit",
          "type": "tuple"
        }
      ],
      "name": "swapLiquidity",
      "outputs": [],
      "stateMutability": "nonpayable",
      "type": "function"
    },
    {
      "inputs": [],
      "name": "swapRouter",
      "outputs": [
        {
          "internalType": "contract ICurveRouterNgPoolsOnlyV1",
          "name": "",
          "type": "address"
        }
      ],
      "stateMutability": "view",
      "type": "function"
    },
    {
      "inputs": [
        {
          "internalType": "address",
          "name": "newOwner",
          "type": "address"
        }
      ],
      "name": "transferOwnership",
      "outputs": [],
      "stateMutability": "nonpayable",
      "type": "function"
    }
  ],
  "transactionHash": "0x243c8af33ec1ba97fc7633ee17d770566dfe09bd98afe6cb4b486c20de67af77",
  "args": [
    "0xC691F14942B37668C9904b701E3118A133611b3c",
    "0xa7e750C73DE7d19f06D956d704A39fdDfE99D9ea",
    "0xF66c3Ef85BceafaEcE9171E25Eee2972b10e1958",
    "0x53Ae1433Ab4563d7D5a84d27524784837259f105"
  ],
  "numDeployments": 1,
  "solcInputHash": "f00a3bff6ef7632fe264d485660833a0",
  "bytecode": "0x60e060405234620000cc576080620024ac80380380916200002082620000e7565b60e03912620000cc576200007060e0516200003b8162000154565b610100516200004a8162000154565b61012051906200005a8262000154565b61014051926200006a8462000154565b6200022d565b604051611cb89081620007d48239608051816101df015260a05181818161028101528181610a1501528181610c990152818161105d01528181611114015281816112640152611a16015260c05181818161044f0152610f210152f35b600080fd5b634e487b7160e01b600052604160045260246000fd5b60e0601f91909101601f19168101906001600160401b038211908210176200010e57604052565b620000d1565b604081019081106001600160401b038211176200010e57604052565b601f909101601f19168101906001600160401b038211908210176200010e57604052565b6001600160a01b03811603620000cc57565b906020908183820312620000cc5782516001600160401b0393848211620000cc570181601f82011215620000cc5780519384116200010e578360051b9060405194620001b58584018762000130565b85528380860192820101928311620000cc578301905b828210620001da575050505090565b8380918351620001ea8162000154565b815201910190620001cb565b6040513d6000823e3d90fd5b8051821015620002175760209160051b010190565b634e487b7160e01b600052603260045260246000fd5b600080546001600160a01b031916339081178255600494919290836000805160206200248c8339815191528180a360805260a09260018060a01b031660a05260c052620002806001946001805562000361565b60a0518190620002a0906001600160a01b03165b6001600160a01b031690565b6040516334651b6f60e21b815294859182905afa9081156200035b578493819262000332575b50925b620002d5575b50505050565b80518310156200032c578383620003246200030762000294620002fa85988762000202565b516001600160a01b031690565b85516200031d906001600160a01b031662000294565b90620004da565b0192620002c9565b620002cf565b620003539192503d8084833e6200034a818362000130565b81019062000166565b9038620002c6565b620001f6565b6000546001600160a01b039081169190338303620004135781168015620003bf57620003bd926000805160206200248c833981519152600080a3600080546001600160a01b0319166001600160a01b0392909216919091179055565b565b60405162461bcd60e51b815260206004820152602660248201527f4f776e61626c653a206e6577206f776e657220697320746865207a65726f206160448201526564647265737360d01b6064820152608490fd5b606460405162461bcd60e51b815260206004820152602060248201527f4f776e61626c653a2063616c6c6572206973206e6f7420746865206f776e65726044820152fd5b90816020910312620000cc575190565b156200046f57565b60405162461bcd60e51b815260206004820152603660248201527f5361666545524332303a20617070726f76652066726f6d206e6f6e2d7a65726f60448201527f20746f206e6f6e2d7a65726f20616c6c6f77616e6365000000000000000000006064820152608490fd5b604051636eb1769f60e11b81523060048201526001600160a01b0383811660248301529091906020908390604490829085165afa80156200035b57620003bd93620005396200057a926200056b9560009162000580575b501562000467565b60405163095ea7b360e01b60208201526001600160a01b03909116602482015260001960448201529283906064820190565b03601f19810184528362000130565b62000630565b620005a7915060203d602011620005ae575b6200059e818362000130565b81019062000457565b3862000531565b503d62000592565b90816020910312620000cc57518015158103620000cc5790565b15620005d857565b60405162461bcd60e51b815260206004820152602a60248201527f5361666545524332303a204552433230206f7065726174696f6e20646964206e6044820152691bdd081cdd58d8d9595960b21b6064820152608490fd5b6040516001600160a01b0391909116916200064b8262000114565b6020928383527f5361666545524332303a206c6f772d6c6576656c2063616c6c206661696c656484840152803b15620006cc5760008281928287620006a29796519301915af16200069b62000711565b9062000754565b80519081620006b057505050565b82620003bd93620006c6938301019101620005b6565b620005d0565b60405162461bcd60e51b815260048101859052601d60248201527f416464726573733a2063616c6c20746f206e6f6e2d636f6e74726163740000006044820152606490fd5b3d156200074f573d906001600160401b0382116200010e576040519162000743601f8201601f19166020018462000130565b82523d6000602084013e565b606090565b9091901562000761575090565b815115620007725750805190602001fd5b6040519062461bcd60e51b82528160208060048301528251908160248401526000935b828510620007b9575050604492506000838284010152601f80199101168101030190fd5b84810182015186860160440152938101938593506200079556fe6080604052600436101561001257600080fd5b6000803560e01c908162ae3bf8146100b9575080630542975c146100b4578063715018a6146100af5780637535d246146100aa5780638da5cb5b146100a5578063920f5c84146100a0578063c05603741461009b578063c31c9c0714610096578063e1722943146100915763f2fde38b1461008c57600080fd5b610adf565b610964565b610439565b61041c565b61036a565b6102b0565b61026b565b61020e565b6101c9565b346101a55760203660031901126101a55760246004356100d8816101a8565b82546001600160a01b0390811691906020906100f5338514610bbe565b6040516370a0823160e01b8152306004820152948591829085165afa9182156101a05761016893859361016b575b5060405163a9059cbb60e01b60208201526001600160a01b039091166024820152604481019290925261016382606481015b03601f198101845283610519565b6116c9565b80f35b6101639193506101929060203d602011610199575b61018a8183610519565b810190610c09565b9290610123565b503d610180565b610c18565b80fd5b6001600160a01b038116036101b957565b600080fd5b60009103126101b957565b346101b95760003660031901126101b9576040517f00000000000000000000000000000000000000000000000000000000000000006001600160a01b03168152602090f35b346101b9576000806003193601126101a5578054816001600160a01b038216610238338214610bbe565b7f8be0079c531659141344cd1fd0a4f28419497f9722a3daafe3b4186f6b6457e08280a36001600160a01b031916815580f35b346101b95760003660031901126101b9576040517f00000000000000000000000000000000000000000000000000000000000000006001600160a01b03168152602090f35b346101b95760003660031901126101b9576000546040516001600160a01b039091168152602090f35b9181601f840112156101b9578235916001600160401b0383116101b9576020808501948460051b0101116101b957565b60043590610316826101a8565b565b60443590610316826101a8565b60843590610316826101a8565b3590610316826101a8565b9181601f840112156101b9578235916001600160401b0383116101b957602083818601950101116101b957565b346101b95760a03660031901126101b9576001600160401b036004358181116101b95761039b9036906004016102d9565b6024929192358281116101b9576103b69036906004016102d9565b6044949194358481116101b9576103d19036906004016102d9565b90606435926103df846101a8565b6084359687116101b957610418976103fe61040698369060040161033d565b979096610c87565b60405190151581529081906020820190565b0390f35b346101b95760003660031901126101b957602060405161abcc8152f35b346101b95760003660031901126101b9576040517f00000000000000000000000000000000000000000000000000000000000000006001600160a01b03168152602090f35b634e487b7160e01b600052604160045260246000fd5b6001600160401b0381116104a757604052565b61047e565b61016081019081106001600160401b038211176104a757604052565b60a081019081106001600160401b038211176104a757604052565b608081019081106001600160401b038211176104a757604052565b604081019081106001600160401b038211176104a757604052565b90601f801991011681019081106001600160401b038211176104a757604052565b6040519061010082018281106001600160401b038211176104a757604052565b604051906101e082018281106001600160401b038211176104a757604052565b801515036101b957565b60a435906103168261057a565b35906103168261057a565b8060e312156101b957604051906105b2826104ac565b816102249182116101b95760c4905b8282106105ce5750505090565b6020809183356105dd816101a8565b8152019101906105c1565b9080601f830112156101b95760405191610601836104ac565b829061016081019283116101b957905b82821061061e5750505090565b60208091833561062d816101a8565b815201910190610611565b8061024312156101b95760409060405191610652836104c8565b826104a4918383116101b957610224915b83831061067257505050505090565b84601f840112156101b9578151610688816104e3565b80608085018781116101b95785915b8183106106b257505050816020916080935201920191610663565b8235815260209283019201610697565b90601f9181601f820112156101b957604092604051936106e1856104c8565b84916102808401938585116101b957925b8484106107025750505050505090565b8582850112156101b9578251610717816104e3565b80608086018881116101b95786915b818310610741575050508160209160809352019301926106f2565b8235815260209283019201610726565b60c0906104a31901126101b9576040519060c082018281106001600160401b038211176104a757604052816104a435610789816101a8565b81526104c43560208201526104e43560408201526105043560ff811681036101b957606082015261052435608082015260a061054435910152565b91908260c09103126101b95760405160c081018181106001600160401b038211176104a757604052809280356107f9816101a8565b82526020810135602083015260408101356040830152606081013560ff811681036101b95760a09182916060850152608081013560808501520135910152565b90600319820161056081126101b9576104a0136101b9576108be61085b61053a565b610863610309565b81526024356020820152610875610318565b6040820152606435606082015261088a610325565b6080820152610897610584565b60a08201526108a58461059c565b60c08201526108b384610638565b60e082015292610751565b90565b91908281039061056082126101b9576104a08092126101b9576108be916108e661053a565b6108ef86610332565b81526020860135602082015261090760408701610332565b60408201526060860135606082015261092260808701610332565b608082015261093360a08701610591565b60a08201526109458360c088016105e8565b60c08201526109588361022088016106c2565b60e082015294016107c4565b346101b95761097236610839565b90600260015414610a9a57600260015560a08101516109a25790610995916115e7565b505b6109a060018055565b005b6109b96101559260405193849184602084016113da565b6109c161149c565b81516109e8906001600160a01b03166109d9836114b6565b6001600160a01b039091169052565b60206109f261149c565b9201516109fe836114b6565b52610a0761149c565b6000610a12826114b6565b527f00000000000000000000000000000000000000000000000000000000000000006001600160a01b031690813b156101b95760008094610a6c6040519788968795869463ab9c4b5d60e01b865230923060048801611537565b03925af180156101a057610a81575b50610997565b80610a8e610a9492610494565b806101be565b38610a7b565b60405162461bcd60e51b815260206004820152601f60248201527f5265656e7472616e637947756172643a207265656e7472616e742063616c6c006044820152606490fd5b346101b95760203660031901126101b957600435610afc816101a8565b6000546001600160a01b039081169190610b17338414610bbe565b81168015610b6a576109a0927f8be0079c531659141344cd1fd0a4f28419497f9722a3daafe3b4186f6b6457e0600080a360018060a01b03166bffffffffffffffffffffffff60a01b6000541617600055565b60405162461bcd60e51b815260206004820152602660248201527f4f776e61626c653a206e6577206f776e657220697320746865207a65726f206160448201526564647265737360d01b6064820152608490fd5b15610bc557565b606460405162461bcd60e51b815260206004820152602060248201527f4f776e61626c653a2063616c6c6572206973206e6f7420746865206f776e65726044820152fd5b908160209103126101b9575190565b6040513d6000823e3d90fd5b634e487b7160e01b600052603260045260246000fd5b9015610c435790565b610c24565b356108be816101a8565b634e487b7160e01b600052601160045260246000fd5b91908203918211610c7557565b610c52565b91908201809211610c7557565b9690949592919760018060a01b0393847f000000000000000000000000000000000000000000000000000000000000000016803303610de957503085821603610dbc5750610dab93610d82610d17610d0e610db79c9b9996610d08610d03610cfb89610db19f9d9a99610da59a01906108c1565b9a909d610c3a565b610c48565b9c610c3a565b35978895610c3a565b35976080610d8f610d698d60408501968d610d51610d4a610d3e8b5160018060a01b031690565b6001600160a01b031690565b918c610c68565b60608801519160c08901519360e08a01519516610ecf565b8551909590610d829087906001600160a01b0316611040565b516001600160a01b031690565b910180519093906001600160a01b031691611106565b87611188565b50610c7a565b90611040565b600190565b60405163fdbc12a560e01b81526001600160a01b03919091166004820152306024820152604490fd5b0390fd5b6040516303c3463f60e31b81523360048201526001600160a01b03919091166024820152604490fd5b906000916000915b60058310610e285750505050565b815184825b60048210610e4b575050506020608060019201920192019190610e1a565b600190835181526020809101930191019091610e2d565b9391959492909561044085019685906000915b600b8310610eaf5750505090610e95610420949392610160870190610e12565b6103e08501526104008401526001600160a01b0316910152565b81516001600160a01b031681526001929092019160209182019101610e75565b6040516370a0823160e01b815230600482015293969592946001600160a01b0391821694919360209283816024818a5afa9081156101a057600091611023575b508781106110025750888391886000887f00000000000000000000000000000000000000000000000000000000000000001692610f4d83858d6118a4565b610f6f60405197889687958694633f51256760e21b8652309360048701610e62565b03925af19182156101a057600092610fe5575b50508096808210610fc657506040805195865260208601919091529116927fbf77fd13a39d14dc0da779342c14105c38d9a5d0c60f2caa22f5fd1d5525416d9190a3565b60405163d28d3eb560e01b815260048101929092526024820152604490fd5b610ffb9250803d106101995761018a8183610519565b3880610f82565b60405163b6554a4960e01b8152600481019190915260248101889052604490fd5b61103a9150843d86116101995761018a8183610519565b38610f0f565b604051636eb1769f60e11b81523060048201526001600160a01b037f000000000000000000000000000000000000000000000000000000000000000081166024830181905292169290602081604481875afa9081156101a0576000916110e7575b50106110ab575050565b610316916110e260405163095ea7b360e01b602082015283602482015260006044820152604481526110dc816104e3565b826116c9565b611809565b611100915060203d6020116101995761018a8183610519565b386110a1565b9091906001600160a01b03907f0000000000000000000000000000000000000000000000000000000000000000821690813b156101b9576000608492848296604051988997889663617ba03760e01b8852166004870152602486015216604484015261abcc60648401525af180156101a05761117f5750565b61031690610494565b926040810151806112f1575b505061119f836119e8565b6040516370a0823160e01b8082523060048301526020966001600160a01b0393841696955092935090918683602481895afa9485156101a05787936000966112cc575b50906111f091309088611bc1565b60405190815230600482015293849060249082905afa9081156101a05761122685936112609360009687916112af575b50610c68565b604051631a4ca37b60e21b81526001600160a01b039097166004880152602487018190523060448801529593849283919082906064820190565b03927f0000000000000000000000000000000000000000000000000000000000000000165af180156101a05761129557505090565b816112ab92903d106101995761018a8183610519565b5090565b6112c69150863d88116101995761018a8183610519565b38611220565b6111f0929196506112e990853d87116101995761018a8183610519565b9590916111e2565b8151611305906001600160a01b0316610d3e565b9060208301519161131a606085015160ff1690565b9160a06080860151950151823b156101b95760405163d505accf60e01b81526001600160a01b03881660048201523060248201526044810195909552606485019190915260ff92909216608484015260a483019390935260c482015290600090829060e490829084905af180156101a057611396575b80611194565b80610a8e6113a392610494565b38611390565b6000915b600b83106113ba57505050565b81516001600160a01b0316815260019290920191602091820191016113ad565b916104a061031692949361145960e061056083019760018060a01b038082511685526020820151602086015280604083015116604086015260608201516060860152608082015116608085015261143a60a082015160a086019015159052565b61144c60c082015160c08601906113a9565b0151610220830190610e12565b019060a08091600180831b038151168452602081015160208501526040810151604085015260ff6060820151166060850152608081015160808501520151910152565b604051906114a9826104fe565b6001825260203681840137565b805115610c435760200190565b90815180825260208080930193019160005b8281106114e3575050505090565b8351855293810193928101926001016114d5565b919082519283825260005b848110611523575050826000602080949584010152601f8019910116010190565b602081830181015184830182015201611502565b969593929060e0880160018060a01b038092168952602060e060208b0152845180925260206101008b019501926000905b8382106115ce575050505050926115b86115a66115c5946115988560c0988c6040816103169d9a039101526114c3565b908a820360608c01526114c3565b6001600160a01b039093166080890152565b86820360a08801526114f7565b930161abcc9052565b8451811687529582019593820193600190910190611568565b906108be9060018060a01b03928361163a6116148284511694608085019584875116602087015191611188565b9282815116906040810194848651169060608301519160e060c085015194015194610ecf565b948261164a878381965116611040565b511692511691611106565b908160209103126101b957516108be8161057a565b1561167157565b60405162461bcd60e51b815260206004820152602a60248201527f5361666545524332303a204552433230206f7065726174696f6e20646964206e6044820152691bdd081cdd58d8d9595960b21b6064820152608490fd5b6040516001600160a01b0391909116916116e2826104fe565b6020928383527f5361666545524332303a206c6f772d6c6576656c2063616c6c206661696c656484840152803b1561175957600082819282876117349796519301915af161172e611c03565b90611c42565b8051908161174157505050565b8261031693611754938301019101611655565b61166a565b60405162461bcd60e51b815260048101859052601d60248201527f416464726573733a2063616c6c20746f206e6f6e2d636f6e74726163740000006044820152606490fd5b156117a557565b60405162461bcd60e51b815260206004820152603660248201527f5361666545524332303a20617070726f76652066726f6d206e6f6e2d7a65726f60448201527520746f206e6f6e2d7a65726f20616c6c6f77616e636560501b6064820152608490fd5b604051636eb1769f60e11b81523060048201526001600160a01b038381166024830152909291906020846044818585165afa9384156101a0576103169461185991600091611885575b501561179e565b6040519263095ea7b360e01b6020850152166024830152600019604483015260448252610163826104e3565b61189e915060203d6020116101995761018a8183610519565b38611852565b919091811580156118f2575b610316936118c06101639261179e565b60405163095ea7b360e01b60208201526001600160a01b03909116602482015260448101939093528260648101610155565b50604051636eb1769f60e11b81523060048201526001600160a01b038416602482015292602084806044810103816001600160a01b0386165afa9081156101a0576118c06101639261031696600091611952575b501592505093506118b0565b61196b915060203d6020116101995761018a8183610519565b38611946565b91908260209103126101b957604051602081018181106001600160401b038211176104a75760405291518252565b51906fffffffffffffffffffffffffffffffff821682036101b957565b519064ffffffffff821682036101b957565b519061ffff821682036101b957565b5190610316826101a8565b6040516335ea6a7560e01b81526001600160a01b03918216600482015291906101e0908190849060249082907f0000000000000000000000000000000000000000000000000000000000000000165afa9283156101a057600093611a87575b50506101408201516001600160a01b0316610120830151909190611a8190610100906001600160a01b03169401516001600160a01b031690565b91929190565b909192823d8411611bba575b611a9d8184610519565b820192828403126101a55750611abb611ab461055a565b9282611971565b8252611ac96020820161199f565b6020830152611ada6040820161199f565b6040830152611aeb6060820161199f565b6060830152611afc6080820161199f565b6080830152611b0d60a0820161199f565b60a0830152611b1e60c082016119bc565b60c0830152611b2f60e082016119ce565b60e0830152610100611b428183016119dd565b90830152610120611b548183016119dd565b90830152610140611b668183016119dd565b90830152610160611b788183016119dd565b90830152610180611b8a81830161199f565b908301526101a0611b9c81830161199f565b90830152611bae6101c080920161199f565b90820152903880611a47565b503d611a93565b6040516323b872dd60e01b60208201526001600160a01b03928316602482015292909116604483015260648083019390935291815261031691610163826104c8565b3d15611c3d573d906001600160401b0382116104a75760405191611c31601f8201601f191660200184610519565b82523d6000602084013e565b606090565b90919015611c4e575090565b815115611c5e5750805190602001fd5b60405162461bcd60e51b815260206004820152908190610de59060248301906114f756fea2646970667358221220e7fe9a4aeeb3fa55f6d3ad50f6a73279dcbbcffcd427ce44dcd81edf9f695aea64736f6c634300081800338be0079c531659141344cd1fd0a4f28419497f9722a3daafe3b4186f6b6457e0",
  "devdoc": {
    "events": {
      "Bought(address,address,uint256,uint256)": {
        "details": "Emitted after a buy of an asset is made",
        "params": {
          "amountSold": "The amount of asset provided for the buy",
          "fromAsset": "The address of the asset provided in exchange",
          "receivedAmount": "The amount of asset bought",
          "toAsset": "The address of the asset bought"
        }
      },
      "Swapped(address,address,uint256,uint256)": {
        "details": "Emitted after a sell of an asset is made",
        "params": {
          "fromAmount": "The amount of asset sold",
          "fromAsset": "The address of the asset sold",
          "receivedAmount": "The amount received from the sell",
          "toAsset": "The address of the asset received in exchange"
        }
      }
    },
    "kind": "dev",
    "methods": {
      "executeOperation(address[],uint256[],uint256[],address,bytes)": {
        "details": "Executes the collateral swap after receiving the flash-borrowed assetsWorkflow: 1. Sell flash-borrowed asset for new collateral asset 2. Supply new collateral asset 3. Pull aToken collateral from user and withdraw from Pool 4. Repay flashloan",
        "params": {
          "amounts": "The amounts of the flash-borrowed assets",
          "assets": "The addresses of the flash-borrowed assets",
          "initiator": "The address of the flashloan initiator",
          "params": "The byte-encoded params passed when initiating the flashloan",
          "premiums": "The premiums of the flash-borrowed assets"
        },
        "returns": {
          "_0": "True if the execution of the operation succeeds, false otherwise"
        }
      },
      "owner()": {
        "details": "Returns the address of the current owner."
      },
      "renounceOwnership()": {
        "details": "Leaves the contract without owner. It will not be possible to call `onlyOwner` functions anymore. Can only be called by the current owner. NOTE: Renouncing ownership will leave the contract without an owner, thereby removing any functionality that is only available to the owner."
      },
      "rescueTokens(address)": {
        "details": "Emergency rescue for token stucked on this contract, as failsafe mechanism - Funds should never remain in this contract more time than during transactions - Only callable by the owner"
      },
      "swapLiquidity((address,uint256,address,uint256,address,bool,address[11],uint256[4][5]),(address,uint256,uint256,uint8,bytes32,bytes32))": {
        "params": {
          "collateralATokenPermit": "optional permit for collateral aToken",
          "liquiditySwapParams": "struct describing the liquidity swap"
        }
      },
      "transferOwnership(address)": {
        "details": "Transfers ownership of the contract to a new account (`newOwner`). Can only be called by the current owner."
      }
    },
    "title": "CurveLiquiditySwapAdapter",
    "version": 1
  },
  "userdoc": {
    "kind": "user",
    "methods": {
      "ADDRESSES_PROVIDER()": {
        "notice": "The address of the Aave PoolAddressesProvider contract"
      },
      "POOL()": {
        "notice": "The address of the Aave Pool contract"
      },
      "swapLiquidity((address,uint256,address,uint256,address,bool,address[11],uint256[4][5]),(address,uint256,uint256,uint8,bytes32,bytes32))": {
        "notice": "Swaps liquidity(collateral) from one asset to another"
      },
      "swapRouter()": {
        "notice": "The address of the Curve RouterNG"
      }
    },
    "notice": "Adapter to swap liquidity using Curve",
    "version": 1
  },
  "storageLayout": {
    "storage": [
      {
        "astId": 533,
        "contract": "contracts/lending/periphery/adapters/curve/CurveLiquiditySwapAdapter.sol:CurveLiquiditySwapAdapter",
        "label": "_owner",
        "offset": 0,
        "slot": "0",
        "type": "t_address"
      },
      {
        "astId": 5136,
        "contract": "contracts/lending/periphery/adapters/curve/CurveLiquiditySwapAdapter.sol:CurveLiquiditySwapAdapter",
        "label": "_status",
        "offset": 0,
        "slot": "1",
        "type": "t_uint256"
      }
    ],
    "types": {
      "t_address": {
        "encoding": "inplace",
        "label": "address",
        "numberOfBytes": "20"
      },
      "t_uint256": {
        "encoding": "inplace",
        "label": "uint256",
        "numberOfBytes": "32"
      }
    }
  }
}