{
  "address": "0x0884970b1A2133b61D4eC90a1C2aCE300DCDe14E",
  "abi": [
    {
      "inputs": [
        {
          "internalType": "uint256",
          "name": "_baseCurrencyUnit",
          "type": "uint256"
        }
      ],
      "stateMutability": "nonpayable",
      "type": "constructor"
    },
    {
      "inputs": [
        {
          "internalType": "address",
          "name": "asset",
          "type": "address"
        }
      ],
      "name": "API3InvalidPrice",
      "type": "error"
    },
    {
      "inputs": [],
      "name": "AccessControlBadConfirmation",
      "type": "error"
    },
    {
      "inputs": [
        {
          "internalType": "address",
          "name": "account",
          "type": "address"
        },
        {
          "internalType": "bytes32",
          "name": "neededRole",
          "type": "bytes32"
        }
      ],
      "name": "AccessControlUnauthorizedAccount",
      "type": "error"
    },
    {
      "inputs": [
        {
          "internalType": "address",
          "name": "asset",
          "type": "address"
        }
      ],
      "name": "AssetNotConfigured",
      "type": "error"
    },
    {
      "inputs": [
        {
          "internalType": "address",
          "name": "pool",
          "type": "address"
        }
      ],
      "name": "InvalidPool",
      "type": "error"
    },
    {
      "inputs": [
        {
          "internalType": "address",
          "name": "pool",
          "type": "address"
        },
        {
          "internalType": "uint256",
          "name": "tokenIndex",
          "type": "uint256"
        }
      ],
      "name": "InvalidTokenIndex",
      "type": "error"
    },
    {
      "inputs": [
        {
          "internalType": "address",
          "name": "asset",
          "type": "address"
        }
      ],
      "name": "PriceIsZero",
      "type": "error"
    },
    {
      "anonymous": false,
      "inputs": [
        {
          "indexed": true,
          "internalType": "address",
          "name": "asset",
          "type": "address"
        }
      ],
      "name": "AssetConfigRemoved",
      "type": "event"
    },
    {
      "anonymous": false,
      "inputs": [
        {
          "indexed": true,
          "internalType": "address",
          "name": "asset",
          "type": "address"
        },
        {
          "indexed": true,
          "internalType": "address",
          "name": "pool",
          "type": "address"
        },
        {
          "indexed": false,
          "internalType": "uint256",
          "name": "tokenIndex",
          "type": "uint256"
        }
      ],
      "name": "AssetConfigSet",
      "type": "event"
    },
    {
      "anonymous": false,
      "inputs": [
        {
          "indexed": true,
          "internalType": "address",
          "name": "asset",
          "type": "address"
        }
      ],
      "name": "CompositeFeedRemoved",
      "type": "event"
    },
    {
      "anonymous": false,
      "inputs": [
        {
          "indexed": true,
          "internalType": "address",
          "name": "asset",
          "type": "address"
        },
        {
          "indexed": true,
          "internalType": "address",
          "name": "api3Asset",
          "type": "address"
        },
        {
          "indexed": true,
          "internalType": "address",
          "name": "api3Proxy",
          "type": "address"
        },
        {
          "indexed": false,
          "internalType": "uint256",
          "name": "curveLowerThresholdInBase",
          "type": "uint256"
        },
        {
          "indexed": false,
          "internalType": "uint256",
          "name": "curveFixedPriceInBase",
          "type": "uint256"
        },
        {
          "indexed": false,
          "internalType": "uint256",
          "name": "api3LowerThresholdInBase",
          "type": "uint256"
        },
        {
          "indexed": false,
          "internalType": "uint256",
          "name": "api3FixedPriceInBase",
          "type": "uint256"
        }
      ],
      "name": "CompositeFeedSet",
      "type": "event"
    },
    {
      "anonymous": false,
      "inputs": [
        {
          "indexed": true,
          "internalType": "bytes32",
          "name": "role",
          "type": "bytes32"
        },
        {
          "indexed": true,
          "internalType": "bytes32",
          "name": "previousAdminRole",
          "type": "bytes32"
        },
        {
          "indexed": true,
          "internalType": "bytes32",
          "name": "newAdminRole",
          "type": "bytes32"
        }
      ],
      "name": "RoleAdminChanged",
      "type": "event"
    },
    {
      "anonymous": false,
      "inputs": [
        {
          "indexed": true,
          "internalType": "bytes32",
          "name": "role",
          "type": "bytes32"
        },
        {
          "indexed": true,
          "internalType": "address",
          "name": "account",
          "type": "address"
        },
        {
          "indexed": true,
          "internalType": "address",
          "name": "sender",
          "type": "address"
        }
      ],
      "name": "RoleGranted",
      "type": "event"
    },
    {
      "anonymous": false,
      "inputs": [
        {
          "indexed": true,
          "internalType": "bytes32",
          "name": "role",
          "type": "bytes32"
        },
        {
          "indexed": true,
          "internalType": "address",
          "name": "account",
          "type": "address"
        },
        {
          "indexed": true,
          "internalType": "address",
          "name": "sender",
          "type": "address"
        }
      ],
      "name": "RoleRevoked",
      "type": "event"
    },
    {
      "inputs": [],
      "name": "API3_HEARTBEAT",
      "outputs": [
        {
          "internalType": "uint32",
          "name": "",
          "type": "uint32"
        }
      ],
      "stateMutability": "view",
      "type": "function"
    },
    {
      "inputs": [],
      "name": "BASE_CURRENCY",
      "outputs": [
        {
          "internalType": "address",
          "name": "",
          "type": "address"
        }
      ],
      "stateMutability": "view",
      "type": "function"
    },
    {
      "inputs": [],
      "name": "BASE_CURRENCY_UNIT",
      "outputs": [
        {
          "internalType": "uint256",
          "name": "",
          "type": "uint256"
        }
      ],
      "stateMutability": "view",
      "type": "function"
    },
    {
      "inputs": [],
      "name": "CURVE_BASE_CURRENCY_UNIT",
      "outputs": [
        {
          "internalType": "uint256",
          "name": "",
          "type": "uint256"
        }
      ],
      "stateMutability": "view",
      "type": "function"
    },
    {
      "inputs": [],
      "name": "CURVE_RATE_PRECISION",
      "outputs": [
        {
          "internalType": "uint256",
          "name": "",
          "type": "uint256"
        }
      ],
      "stateMutability": "view",
      "type": "function"
    },
    {
      "inputs": [],
      "name": "DEFAULT_ADMIN_ROLE",
      "outputs": [
        {
          "internalType": "bytes32",
          "name": "",
          "type": "bytes32"
        }
      ],
      "stateMutability": "view",
      "type": "function"
    },
    {
      "inputs": [],
      "name": "ORACLE_MANAGER_ROLE",
      "outputs": [
        {
          "internalType": "bytes32",
          "name": "",
          "type": "bytes32"
        }
      ],
      "stateMutability": "view",
      "type": "function"
    },
    {
      "inputs": [
        {
          "internalType": "address",
          "name": "",
          "type": "address"
        }
      ],
      "name": "assetConfigs",
      "outputs": [
        {
          "internalType": "address",
          "name": "pool",
          "type": "address"
        },
        {
          "internalType": "uint256",
          "name": "tokenIndex",
          "type": "uint256"
        }
      ],
      "stateMutability": "view",
      "type": "function"
    },
    {
      "inputs": [
        {
          "internalType": "address",
          "name": "",
          "type": "address"
        }
      ],
      "name": "compositeFeeds",
      "outputs": [
        {
          "internalType": "address",
          "name": "api3Asset",
          "type": "address"
        },
        {
          "internalType": "address",
          "name": "api3Proxy",
          "type": "address"
        },
        {
          "components": [
            {
              "internalType": "uint256",
              "name": "lowerThresholdInBase",
              "type": "uint256"
            },
            {
              "internalType": "uint256",
              "name": "fixedPriceInBase",
              "type": "uint256"
            }
          ],
          "internalType": "struct ThresholdingUtils.ThresholdConfig",
          "name": "curveThreshold",
          "type": "tuple"
        },
        {
          "components": [
            {
              "internalType": "uint256",
              "name": "lowerThresholdInBase",
              "type": "uint256"
            },
            {
              "internalType": "uint256",
              "name": "fixedPriceInBase",
              "type": "uint256"
            }
          ],
          "internalType": "struct ThresholdingUtils.ThresholdConfig",
          "name": "api3Threshold",
          "type": "tuple"
        }
      ],
      "stateMutability": "view",
      "type": "function"
    },
    {
      "inputs": [
        {
          "internalType": "address",
          "name": "asset",
          "type": "address"
        }
      ],
      "name": "getAssetPrice",
      "outputs": [
        {
          "internalType": "uint256",
          "name": "",
          "type": "uint256"
        }
      ],
      "stateMutability": "view",
      "type": "function"
    },
    {
      "inputs": [
        {
          "internalType": "address",
          "name": "asset",
          "type": "address"
        }
      ],
      "name": "getPriceInfo",
      "outputs": [
        {
          "internalType": "uint256",
          "name": "priceInBase",
          "type": "uint256"
        },
        {
          "internalType": "bool",
          "name": "isAlive",
          "type": "bool"
        }
      ],
      "stateMutability": "view",
      "type": "function"
    },
    {
      "inputs": [
        {
          "internalType": "bytes32",
          "name": "role",
          "type": "bytes32"
        }
      ],
      "name": "getRoleAdmin",
      "outputs": [
        {
          "internalType": "bytes32",
          "name": "",
          "type": "bytes32"
        }
      ],
      "stateMutability": "view",
      "type": "function"
    },
    {
      "inputs": [
        {
          "internalType": "bytes32",
          "name": "role",
          "type": "bytes32"
        },
        {
          "internalType": "address",
          "name": "account",
          "type": "address"
        }
      ],
      "name": "grantRole",
      "outputs": [],
      "stateMutability": "nonpayable",
      "type": "function"
    },
    {
      "inputs": [
        {
          "internalType": "bytes32",
          "name": "role",
          "type": "bytes32"
        },
        {
          "internalType": "address",
          "name": "account",
          "type": "address"
        }
      ],
      "name": "hasRole",
      "outputs": [
        {
          "internalType": "bool",
          "name": "",
          "type": "bool"
        }
      ],
      "stateMutability": "view",
      "type": "function"
    },
    {
      "inputs": [],
      "name": "heartbeatStaleTimeLimit",
      "outputs": [
        {
          "internalType": "uint32",
          "name": "",
          "type": "uint32"
        }
      ],
      "stateMutability": "view",
      "type": "function"
    },
    {
      "inputs": [
        {
          "internalType": "address",
          "name": "asset",
          "type": "address"
        }
      ],
      "name": "removeAssetConfig",
      "outputs": [],
      "stateMutability": "nonpayable",
      "type": "function"
    },
    {
      "inputs": [
        {
          "internalType": "address",
          "name": "asset",
          "type": "address"
        }
      ],
      "name": "removeCompositeFeed",
      "outputs": [],
      "stateMutability": "nonpayable",
      "type": "function"
    },
    {
      "inputs": [
        {
          "internalType": "bytes32",
          "name": "role",
          "type": "bytes32"
        },
        {
          "internalType": "address",
          "name": "callerConfirmation",
          "type": "address"
        }
      ],
      "name": "renounceRole",
      "outputs": [],
      "stateMutability": "nonpayable",
      "type": "function"
    },
    {
      "inputs": [
        {
          "internalType": "bytes32",
          "name": "role",
          "type": "bytes32"
        },
        {
          "internalType": "address",
          "name": "account",
          "type": "address"
        }
      ],
      "name": "revokeRole",
      "outputs": [],
      "stateMutability": "nonpayable",
      "type": "function"
    },
    {
      "inputs": [
        {
          "internalType": "address",
          "name": "asset",
          "type": "address"
        },
        {
          "internalType": "address",
          "name": "pool",
          "type": "address"
        }
      ],
      "name": "setAssetConfig",
      "outputs": [],
      "stateMutability": "nonpayable",
      "type": "function"
    },
    {
      "inputs": [
        {
          "internalType": "address",
          "name": "asset",
          "type": "address"
        },
        {
          "internalType": "address",
          "name": "api3Asset",
          "type": "address"
        },
        {
          "internalType": "address",
          "name": "api3Proxy",
          "type": "address"
        },
        {
          "internalType": "uint256",
          "name": "curveLowerThresholdInBase",
          "type": "uint256"
        },
        {
          "internalType": "uint256",
          "name": "curveFixedPriceInBase",
          "type": "uint256"
        },
        {
          "internalType": "uint256",
          "name": "api3LowerThresholdInBase",
          "type": "uint256"
        },
        {
          "internalType": "uint256",
          "name": "api3FixedPriceInBase",
          "type": "uint256"
        }
      ],
      "name": "setCompositeFeed",
      "outputs": [],
      "stateMutability": "nonpayable",
      "type": "function"
    },
    {
      "inputs": [
        {
          "internalType": "bytes4",
          "name": "interfaceId",
          "type": "bytes4"
        }
      ],
      "name": "supportsInterface",
      "outputs": [
        {
          "internalType": "bool",
          "name": "",
          "type": "bool"
        }
      ],
      "stateMutability": "view",
      "type": "function"
    }
  ],
  "transactionHash": "0x8af22e26f0b68409f60046b39c8dded4c836721656900056042c927b098b38af",
  "args": [
    "100000000"
  ],
  "numDeployments": 1,
  "solcInputHash": "6193e074a98bf41fb0dae67a941000d1",
  "bytecode": "0x60a03461008657601f61144a38819003918201601f19168301916001600160401b0383118484101761008b57808492602094604052833981010312610086575160805261004b336100a1565b506100553361011f565b50610e1063ffffffff19600254161760025560405161126a90816101c082396080518181816105f10152610e580152f35b600080fd5b634e487b7160e01b600052604160045260246000fd5b6001600160a01b031660008181527fad3228b676f7d3cd4284a5443f17f1962b36e491b30a40b2405849e597ba5fb5602052604081205490919060ff1661011b57818052816020526040822081835260205260408220600160ff19825416179055339160008051602061142a8339815191528180a4600190565b5090565b6001600160a01b031660008181527ffb8036e0bab3828a1a1cce97396031bc7ea8a361699e1bc9c4844f3aeee78d6e60205260408120549091907fced6982f480260bdd8ad5cb18ff2854f0306d78d904ad6cc107e8f3a0f526c189060ff166101ba57808352826020526040832082845260205260408320600160ff1982541617905560008051602061142a833981519152339380a4600190565b50509056fe608080604052600436101561001357600080fd5b60003560e01c90816301ffc9a714610a515750806322dd40ef14610134578063248a9ca314610a225780632ecac6fc146109fe5780632f2ff15d146109bf57806336568abe14610978578063519ffff1146108fa5780637609d7f6146108a957806381a69511146106145780638c89b64f146105d95780638edbf436146105a857806391d148541461055b578063a085a79314610311578063a217fddf14610222578063b3596f07146102ba578063bfc69e1c1461027f578063d547741f1461023e578063e19f470014610222578063f667e428146101bb578063f99256d514610139578063fbc12e5c146101345763ffceb4151461011157600080fd5b3461012f57600036600319011261012f576020604051620151808152f35b600080fd5b610aa4565b3461012f57602036600319011261012f5760c06001600160a01b038061015d610add565b1660005260036020526020604060002081838254169360018301541691610192600461018b60028401610b63565b9201610b63565b9260405195865282860152805160408601520151606084015280516080840152015160a0820152f35b3461012f57602036600319011261012f576101d4610add565b6101dc610b81565b6001600160a01b031660008181526001602081905260408220828155018190557fecd58386925932344b9d411955c289f1af8401c69c40aa31dfcab72b21759f459080a2005b3461012f57600036600319011261012f57602060405160008152f35b3461012f57604036600319011261012f5761027d60043561025d610ac7565b90806000526000602052610278600160406000200154610bfb565b610c9f565b005b3461012f57600036600319011261012f5760206040517fced6982f480260bdd8ad5cb18ff2854f0306d78d904ad6cc107e8f3a0f526c188152f35b3461012f57602036600319011261012f576102d3610add565b6102dc81610d84565b919091156102ef57602082604051908152f35b6040516349e1879f60e11b81526001600160a01b039091166004820152602490fd5b3461012f57604036600319011261012f5761032a610add565b610332610ac7565b9061033b610b81565b6001600160a01b0382811692831561054257604051630293577560e41b8152602092908381600481895afa60009181610513575b5061038d57604051630f4c971b60e21b815260048101879052602490fd5b6002036104fa57928316926000199160005b6002811061044e575b5060001983146104225750907fe15adf635f0230f04a10c533ae4edc6ee52f6aab68fd00497903ec8ffac72e0a92916001604051916103e683610af3565b878352848301908482528760005282865260406000209351166bffffffffffffffffffffffff60a01b84541617835551910155604051908152a3005b60405163152a07eb60e11b81526001600160a01b03919091166004820152602481019290925250604490fd5b60405163c661065760e01b81526004810182905285816024818b5afa9081156104ee57879185916000916104b3575b5016146104ab5760001981146104955760010161039f565b634e487b7160e01b600052601160045260246000fd5b9250866103a8565b925050508581813d83116104e7575b6104cc8183610b41565b8101031261012f5751838116810361012f578387918a61047d565b503d6104c2565b6040513d6000823e3d90fd5b604051630f4c971b60e21b815260048101869052602490fd5b9091508481813d831161053b575b61052b8183610b41565b8101031261012f5751908761036f565b503d610521565b604051630f4c971b60e21b815260048101859052602490fd5b3461012f57604036600319011261012f57610574610ac7565b600435600052600060205260406000209060018060a01b0316600052602052602060ff604060002054166040519015158152f35b3461012f57602036600319011261012f5760406105cb6105c6610add565b610d84565b825191825215156020820152f35b3461012f57600036600319011261012f5760206040517f00000000000000000000000000000000000000000000000000000000000000008152f35b3461012f5760e036600319011261012f5761062d610add565b610635610ac7565b906044356001600160a01b038116810361012f57610651610b81565b60018060a01b0382166000526001602052604060002060405161067381610af3565b60206001808060a01b038454169384845201549101521561088857604080516315f789a960e21b815290816004816001600160a01b0386165afa9081156104ee57600090600092610855575b50600090601b0b139081159161082c575b5061080b576040516106e181610af3565b60643581526084356020820152600560206040516106fe81610af3565b60a435815260c43582820152816040519461071886610b25565b60018060a01b038916865281860160018060a01b0388168152604087019182526060870193845260018060a01b0389166000526003835260406000209660018060a01b039051166bffffffffffffffffffffffff60a01b9081895416178855600188019160018060a01b0390511690825416179055518051600287015501516003850155518051600485015501519101557f850d28bf2d8acb532d6827d537f97debaff0eca8e001f53619215543091448e76080604051926064358452608435602085015260a435604085015260c435606085015260018060a01b03169460018060a01b03169360018060a01b031692a4005b6040516314de66af60e31b81526001600160a01b0384166004820152602490fd5b6108369150610d42565b61084a63ffffffff91826002541690610d59565b4291161115846106d0565b6000925061087b915060403d604011610881575b6108738183610b41565b810190610d14565b916106bf565b503d610869565b604051630f10d83760e11b81526001600160a01b0383166004820152602490fd5b3461012f57602036600319011261012f576001600160a01b03806108cb610add565b1660009081526001602081815260409283902080549201548351949092166001600160a01b0316845283015290f35b3461012f57602036600319011261012f57610913610add565b61091b610b81565b60018060a01b0316806000526003602052600060056040822082815582600182015582600282015582600382015582600482015501557fdabc58d0456c50872fa82879bc9ce7f6a455b4372db632857a62de4abd099691600080a2005b3461012f57604036600319011261012f57610991610ac7565b336001600160a01b038216036109ad5761027d90600435610c9f565b60405163334bd91960e11b8152600490fd5b3461012f57604036600319011261012f5761027d6004356109de610ac7565b908060005260006020526109f9600160406000200154610bfb565b610c21565b3461012f57600036600319011261012f57602063ffffffff60025416604051908152f35b3461012f57602036600319011261012f5760043560005260006020526020600160406000200154604051908152f35b3461012f57602036600319011261012f576004359063ffffffff60e01b821680920361012f57602091637965db0b60e01b8114908115610a93575b5015158152f35b6301ffc9a760e01b14905083610a8c565b3461012f57600036600319011261012f576020604051670de0b6b3a76400008152f35b602435906001600160a01b038216820361012f57565b600435906001600160a01b038216820361012f57565b6040810190811067ffffffffffffffff821117610b0f57604052565b634e487b7160e01b600052604160045260246000fd5b6080810190811067ffffffffffffffff821117610b0f57604052565b90601f8019910116810190811067ffffffffffffffff821117610b0f57604052565b90604051610b7081610af3565b602060018294805484520154910152565b3360009081527ffb8036e0bab3828a1a1cce97396031bc7ea8a361699e1bc9c4844f3aeee78d6e60205260409020547fced6982f480260bdd8ad5cb18ff2854f0306d78d904ad6cc107e8f3a0f526c189060ff1615610bdd5750565b6044906040519063e2517d3f60e01b82523360048301526024820152fd5b80600052600060205260406000203360005260205260ff6040600020541615610bdd5750565b9060009180835282602052604083209160018060a01b03169182845260205260ff60408420541615600014610c9a57808352826020526040832082845260205260408320600160ff198254161790557f2f8788117e7eff1d82e926ec794901d17c78024a50270940304540a733656f0d339380a4600190565b505090565b9060009180835282602052604083209160018060a01b03169182845260205260ff604084205416600014610c9a5780835282602052604083208284526020526040832060ff1981541690557ff6391f5c32d9c69d2a47ea670b442974b53935d1edc7fd64eb21e047a839171b339380a4600190565b919082604091031261012f57815180601b0b810361012f5760209092015163ffffffff8116810361012f5790565b906201518063ffffffff8093160191821161049557565b91909163ffffffff8080941691160191821161049557565b8181029291811591840414171561049557565b60018060a01b03809116916000918383526001926020848152604095868320968051610daf81610af3565b87868a5416998a8352015498848201998a5215611206578590511697805115806000146111fe5760ff895b169061116357508051600019810199908a1161114f57825199636872765360e01b8b5260048b0152848a602481845afa8015611145578690611111575b869798999a50915b83519788809363fd0684b160e01b825260049a8b915afa918215611107578792611056575b50815190519081811161101b57505050905b7f0000000000000000000000000000000000000000000000000000000000000000968792610e8e670de0b6b3a7640000948592610d71565b0493841561100d57865260038552818620948251610eab81610b25565b828754168152828c88015416918101918252610eda89610ecd60028a01610b63565b98868401998a5201610b63565b9660608201978852518051610ffa575b5051821615610fed575182516315f789a960e21b815291839183918a918391165afa908115610fe35786928792610fc2575b50508582601b0b139081610f9a575b5015610f8e57610f5c93929190610f4c9088906001600160e01b0316610d71565b0491518051610f7d575b50610d71565b918315610f6a575050049190565b634e487b7160e01b825260129052602490fd5b610f87919261121e565b9038610f56565b50505050935050508190565b610fa49150610d42565b610fb863ffffffff91826002541690610d59565b4291161138610f2b565b610fdc935080919250903d10610881576108738183610b41565b3880610f1c565b82513d88823e3d90fd5b5050505093505050509190565b6110069084929761121e565b9590610eea565b505050505050935050508190565b8110156110435760051b01840151670de0b6b3a76400009161103c91610d71565b0490610e56565b634e487b7160e01b875260328852602487fd5b9091503d8088833e6110688183610b41565b8101868282031261110357815167ffffffffffffffff928382116110e8570181601f820112156110ff5780519283116110ec578260051b908651936110af8a840186610b41565b845288808501928201019283116110e85788809101915b8383106110d857505050509038610e44565b82518152918101918991016110c6565b8980fd5b634e487b7160e01b895260418a52602489fd5b8880fd5b8780fd5b84513d89823e3d90fd5b50848a813d831161113e575b6111278183610b41565b8101031261113a57985197988998610e17565b8580fd5b503d61111d565b83513d88823e3d90fd5b634e487b7160e01b86526011600452602486fd5b600019810199908a1161114f57825199636872765360e01b8b5260048b0152848a602481845afa998a1561114557869a6111cf575b5089156111bb5785969798996ec097ce7bc90715b34b9f10000000000491610e1f565b634e487b7160e01b86526012600452602486fd5b9099508481813d83116111f7575b6111e78183610b41565b8101031261113a57519838611198565b503d6111dd565b60ff86610dda565b8151630f10d83760e11b815260048101849052602490fd5b908051821161122b575090565b6020915001519056fea26469706673582212204229ee23bf16241261683918880c83344dddeec14278f5efe427ff3df032833f64736f6c634300081400332f8788117e7eff1d82e926ec794901d17c78024a50270940304540a733656f0d",
  "devdoc": {
    "details": "Used when Curve pool prices need to be converted using another token's price from API3",
    "errors": {
      "AccessControlBadConfirmation()": [
        {
          "details": "The caller of a function is not the expected one. NOTE: Don't confuse with {AccessControlUnauthorizedAccount}."
        }
      ],
      "AccessControlUnauthorizedAccount(address,bytes32)": [
        {
          "details": "The `account` is missing a role."
        }
      ]
    },
    "events": {
      "RoleAdminChanged(bytes32,bytes32,bytes32)": {
        "details": "Emitted when `newAdminRole` is set as ``role``'s admin role, replacing `previousAdminRole` `DEFAULT_ADMIN_ROLE` is the starting admin for all roles, despite {RoleAdminChanged} not being emitted signaling this."
      },
      "RoleGranted(bytes32,address,address)": {
        "details": "Emitted when `account` is granted `role`. `sender` is the account that originated the contract call, an admin role bearer except when using {AccessControl-_setupRole}."
      },
      "RoleRevoked(bytes32,address,address)": {
        "details": "Emitted when `account` is revoked `role`. `sender` is the account that originated the contract call:   - if using `revokeRole`, it is the admin role bearer   - if using `renounceRole`, it is the role bearer (i.e. `account`)"
      }
    },
    "kind": "dev",
    "methods": {
      "getAssetPrice(address)": {
        "params": {
          "asset": "The address of the asset"
        },
        "returns": {
          "_0": "The price of the asset"
        }
      },
      "getRoleAdmin(bytes32)": {
        "details": "Returns the admin role that controls `role`. See {grantRole} and {revokeRole}. To change a role's admin, use {_setRoleAdmin}."
      },
      "grantRole(bytes32,address)": {
        "details": "Grants `role` to `account`. If `account` had not been already granted `role`, emits a {RoleGranted} event. Requirements: - the caller must have ``role``'s admin role. May emit a {RoleGranted} event."
      },
      "hasRole(bytes32,address)": {
        "details": "Returns `true` if `account` has been granted `role`."
      },
      "removeAssetConfig(address)": {
        "params": {
          "asset": "Asset address"
        }
      },
      "removeCompositeFeed(address)": {
        "params": {
          "asset": "Asset address"
        }
      },
      "renounceRole(bytes32,address)": {
        "details": "Revokes `role` from the calling account. Roles are often managed via {grantRole} and {revokeRole}: this function's purpose is to provide a mechanism for accounts to lose their privileges if they are compromised (such as when a trusted device is misplaced). If the calling account had been revoked `role`, emits a {RoleRevoked} event. Requirements: - the caller must be `callerConfirmation`. May emit a {RoleRevoked} event."
      },
      "revokeRole(bytes32,address)": {
        "details": "Revokes `role` from `account`. If `account` had been granted `role`, emits a {RoleRevoked} event. Requirements: - the caller must have ``role``'s admin role. May emit a {RoleRevoked} event."
      },
      "setAssetConfig(address,address)": {
        "params": {
          "asset": "Asset address",
          "pool": "Curve pool address"
        }
      },
      "supportsInterface(bytes4)": {
        "details": "See {IERC165-supportsInterface}."
      }
    },
    "title": "CurveAPI3CompositeWrapperWithThresholding",
    "version": 1
  },
  "userdoc": {
    "kind": "user",
    "methods": {
      "BASE_CURRENCY()": {
        "notice": "Base currency (address(0) for USD)"
      },
      "BASE_CURRENCY_UNIT()": {
        "notice": "Base currency unit (e.g. 1e8 if using Aave's oracle decimals)"
      },
      "assetConfigs(address)": {
        "notice": "Mapping from asset to pool and token index"
      },
      "compositeFeeds(address)": {
        "notice": "Mapping from asset to composite feed configuration"
      },
      "getAssetPrice(address)": {
        "notice": "Returns the asset price in the base currency"
      },
      "getPriceInfo(address)": {
        "notice": "Get the composite price info for an asset"
      },
      "removeAssetConfig(address)": {
        "notice": "Remove configuration for an asset"
      },
      "removeCompositeFeed(address)": {
        "notice": "Remove composite feed configuration for an asset"
      },
      "setAssetConfig(address,address)": {
        "notice": "Set or update configuration for an asset"
      },
      "setCompositeFeed(address,address,address,uint256,uint256,uint256,uint256)": {
        "notice": "Set or update composite feed configuration for an asset"
      }
    },
    "notice": "Oracle wrapper that combines Curve pool prices with API3 prices and applies thresholding",
    "version": 1
  },
  "storageLayout": {
    "storage": [
      {
        "astId": 26,
        "contract": "contracts/oracle_aggregator/wrapper/CurveAPI3CompositeWrapperWithThresholding.sol:CurveAPI3CompositeWrapperWithThresholding",
        "label": "_roles",
        "offset": 0,
        "slot": "0",
        "type": "t_mapping(t_bytes32,t_struct(RoleData)21_storage)"
      },
      {
        "astId": 1576,
        "contract": "contracts/oracle_aggregator/wrapper/CurveAPI3CompositeWrapperWithThresholding.sol:CurveAPI3CompositeWrapperWithThresholding",
        "label": "assetConfigs",
        "offset": 0,
        "slot": "1",
        "type": "t_mapping(t_address,t_struct(PoolConfig)1581_storage)"
      },
      {
        "astId": 1258,
        "contract": "contracts/oracle_aggregator/wrapper/CurveAPI3CompositeWrapperWithThresholding.sol:CurveAPI3CompositeWrapperWithThresholding",
        "label": "heartbeatStaleTimeLimit",
        "offset": 0,
        "slot": "2",
        "type": "t_uint32"
      },
      {
        "astId": 1279,
        "contract": "contracts/oracle_aggregator/wrapper/CurveAPI3CompositeWrapperWithThresholding.sol:CurveAPI3CompositeWrapperWithThresholding",
        "label": "compositeFeeds",
        "offset": 0,
        "slot": "3",
        "type": "t_mapping(t_address,t_struct(CompositeFeed)1273_storage)"
      }
    ],
    "types": {
      "t_address": {
        "encoding": "inplace",
        "label": "address",
        "numberOfBytes": "20"
      },
      "t_bool": {
        "encoding": "inplace",
        "label": "bool",
        "numberOfBytes": "1"
      },
      "t_bytes32": {
        "encoding": "inplace",
        "label": "bytes32",
        "numberOfBytes": "32"
      },
      "t_mapping(t_address,t_bool)": {
        "encoding": "mapping",
        "key": "t_address",
        "label": "mapping(address => bool)",
        "numberOfBytes": "32",
        "value": "t_bool"
      },
      "t_mapping(t_address,t_struct(CompositeFeed)1273_storage)": {
        "encoding": "mapping",
        "key": "t_address",
        "label": "mapping(address => struct CurveAPI3CompositeWrapperWithThresholding.CompositeFeed)",
        "numberOfBytes": "32",
        "value": "t_struct(CompositeFeed)1273_storage"
      },
      "t_mapping(t_address,t_struct(PoolConfig)1581_storage)": {
        "encoding": "mapping",
        "key": "t_address",
        "label": "mapping(address => struct CurveOracleWrapper.PoolConfig)",
        "numberOfBytes": "32",
        "value": "t_struct(PoolConfig)1581_storage"
      },
      "t_mapping(t_bytes32,t_struct(RoleData)21_storage)": {
        "encoding": "mapping",
        "key": "t_bytes32",
        "label": "mapping(bytes32 => struct AccessControl.RoleData)",
        "numberOfBytes": "32",
        "value": "t_struct(RoleData)21_storage"
      },
      "t_struct(CompositeFeed)1273_storage": {
        "encoding": "inplace",
        "label": "struct CurveAPI3CompositeWrapperWithThresholding.CompositeFeed",
        "members": [
          {
            "astId": 1264,
            "contract": "contracts/oracle_aggregator/wrapper/CurveAPI3CompositeWrapperWithThresholding.sol:CurveAPI3CompositeWrapperWithThresholding",
            "label": "api3Asset",
            "offset": 0,
            "slot": "0",
            "type": "t_address"
          },
          {
            "astId": 1266,
            "contract": "contracts/oracle_aggregator/wrapper/CurveAPI3CompositeWrapperWithThresholding.sol:CurveAPI3CompositeWrapperWithThresholding",
            "label": "api3Proxy",
            "offset": 0,
            "slot": "1",
            "type": "t_address"
          },
          {
            "astId": 1269,
            "contract": "contracts/oracle_aggregator/wrapper/CurveAPI3CompositeWrapperWithThresholding.sol:CurveAPI3CompositeWrapperWithThresholding",
            "label": "curveThreshold",
            "offset": 0,
            "slot": "2",
            "type": "t_struct(ThresholdConfig)1872_storage"
          },
          {
            "astId": 1272,
            "contract": "contracts/oracle_aggregator/wrapper/CurveAPI3CompositeWrapperWithThresholding.sol:CurveAPI3CompositeWrapperWithThresholding",
            "label": "api3Threshold",
            "offset": 0,
            "slot": "4",
            "type": "t_struct(ThresholdConfig)1872_storage"
          }
        ],
        "numberOfBytes": "192"
      },
      "t_struct(PoolConfig)1581_storage": {
        "encoding": "inplace",
        "label": "struct CurveOracleWrapper.PoolConfig",
        "members": [
          {
            "astId": 1578,
            "contract": "contracts/oracle_aggregator/wrapper/CurveAPI3CompositeWrapperWithThresholding.sol:CurveAPI3CompositeWrapperWithThresholding",
            "label": "pool",
            "offset": 0,
            "slot": "0",
            "type": "t_address"
          },
          {
            "astId": 1580,
            "contract": "contracts/oracle_aggregator/wrapper/CurveAPI3CompositeWrapperWithThresholding.sol:CurveAPI3CompositeWrapperWithThresholding",
            "label": "tokenIndex",
            "offset": 0,
            "slot": "1",
            "type": "t_uint256"
          }
        ],
        "numberOfBytes": "64"
      },
      "t_struct(RoleData)21_storage": {
        "encoding": "inplace",
        "label": "struct AccessControl.RoleData",
        "members": [
          {
            "astId": 18,
            "contract": "contracts/oracle_aggregator/wrapper/CurveAPI3CompositeWrapperWithThresholding.sol:CurveAPI3CompositeWrapperWithThresholding",
            "label": "hasRole",
            "offset": 0,
            "slot": "0",
            "type": "t_mapping(t_address,t_bool)"
          },
          {
            "astId": 20,
            "contract": "contracts/oracle_aggregator/wrapper/CurveAPI3CompositeWrapperWithThresholding.sol:CurveAPI3CompositeWrapperWithThresholding",
            "label": "adminRole",
            "offset": 0,
            "slot": "1",
            "type": "t_bytes32"
          }
        ],
        "numberOfBytes": "64"
      },
      "t_struct(ThresholdConfig)1872_storage": {
        "encoding": "inplace",
        "label": "struct ThresholdingUtils.ThresholdConfig",
        "members": [
          {
            "astId": 1869,
            "contract": "contracts/oracle_aggregator/wrapper/CurveAPI3CompositeWrapperWithThresholding.sol:CurveAPI3CompositeWrapperWithThresholding",
            "label": "lowerThresholdInBase",
            "offset": 0,
            "slot": "0",
            "type": "t_uint256"
          },
          {
            "astId": 1871,
            "contract": "contracts/oracle_aggregator/wrapper/CurveAPI3CompositeWrapperWithThresholding.sol:CurveAPI3CompositeWrapperWithThresholding",
            "label": "fixedPriceInBase",
            "offset": 0,
            "slot": "1",
            "type": "t_uint256"
          }
        ],
        "numberOfBytes": "64"
      },
      "t_uint256": {
        "encoding": "inplace",
        "label": "uint256",
        "numberOfBytes": "32"
      },
      "t_uint32": {
        "encoding": "inplace",
        "label": "uint32",
        "numberOfBytes": "4"
      }
    }
  }
}