{
  "address": "0x46d8743D3fF667a11B95BC24BD974A6a8E163599",
  "abi": [
    {
      "inputs": [
        {
          "internalType": "address",
          "name": "_dusd",
          "type": "address"
        },
        {
          "internalType": "address",
          "name": "_amoManager",
          "type": "address"
        },
        {
          "internalType": "contract IPriceOracleGetter",
          "name": "_oracle",
          "type": "address"
        },
        {
          "internalType": "contract ICurveRouterNgPoolsOnlyV1",
          "name": "_router",
          "type": "address"
        },
        {
          "internalType": "address",
          "name": "_admin",
          "type": "address"
        },
        {
          "internalType": "address",
          "name": "_collateralWithdrawer",
          "type": "address"
        },
        {
          "internalType": "address",
          "name": "_recoverer",
          "type": "address"
        },
        {
          "internalType": "address",
          "name": "_amoTrader",
          "type": "address"
        }
      ],
      "stateMutability": "nonpayable",
      "type": "constructor"
    },
    {
      "inputs": [],
      "name": "AccessControlBadConfirmation",
      "type": "error"
    },
    {
      "inputs": [
        {
          "internalType": "address",
          "name": "account",
          "type": "address"
        },
        {
          "internalType": "bytes32",
          "name": "neededRole",
          "type": "bytes32"
        }
      ],
      "name": "AccessControlUnauthorizedAccount",
      "type": "error"
    },
    {
      "inputs": [
        {
          "internalType": "address",
          "name": "target",
          "type": "address"
        }
      ],
      "name": "AddressEmptyCode",
      "type": "error"
    },
    {
      "inputs": [
        {
          "internalType": "address",
          "name": "account",
          "type": "address"
        }
      ],
      "name": "AddressInsufficientBalance",
      "type": "error"
    },
    {
      "inputs": [
        {
          "internalType": "address",
          "name": "token",
          "type": "address"
        }
      ],
      "name": "CannotRecoverVaultToken",
      "type": "error"
    },
    {
      "inputs": [
        {
          "internalType": "address",
          "name": "collateralAsset",
          "type": "address"
        }
      ],
      "name": "CollateralAlreadyAllowed",
      "type": "error"
    },
    {
      "inputs": [
        {
          "internalType": "address",
          "name": "collateralAsset",
          "type": "address"
        }
      ],
      "name": "CollateralNotSupported",
      "type": "error"
    },
    {
      "inputs": [],
      "name": "FailedInnerCall",
      "type": "error"
    },
    {
      "inputs": [
        {
          "internalType": "address",
          "name": "collateralAsset",
          "type": "address"
        }
      ],
      "name": "FailedToAddCollateral",
      "type": "error"
    },
    {
      "inputs": [
        {
          "internalType": "address",
          "name": "collateralAsset",
          "type": "address"
        }
      ],
      "name": "FailedToRemoveCollateral",
      "type": "error"
    },
    {
      "inputs": [
        {
          "internalType": "uint256",
          "name": "baseCurrencyUnit",
          "type": "uint256"
        }
      ],
      "name": "IncorrectBaseCurrencyUnit",
      "type": "error"
    },
    {
      "inputs": [],
      "name": "InvalidAmoManager",
      "type": "error"
    },
    {
      "inputs": [],
      "name": "MustSupportAtLeastOneCollateral",
      "type": "error"
    },
    {
      "inputs": [
        {
          "internalType": "address",
          "name": "collateralAsset",
          "type": "address"
        }
      ],
      "name": "NoOracleSupport",
      "type": "error"
    },
    {
      "inputs": [],
      "name": "ReentrancyGuardReentrantCall",
      "type": "error"
    },
    {
      "inputs": [
        {
          "internalType": "address",
          "name": "token",
          "type": "address"
        }
      ],
      "name": "SafeERC20FailedOperation",
      "type": "error"
    },
    {
      "inputs": [
        {
          "internalType": "address",
          "name": "token",
          "type": "address"
        }
      ],
      "name": "TokenNotAllowedAsCollateral",
      "type": "error"
    },
    {
      "inputs": [
        {
          "internalType": "address",
          "name": "collateralAsset",
          "type": "address"
        }
      ],
      "name": "UnsupportedCollateral",
      "type": "error"
    },
    {
      "anonymous": false,
      "inputs": [
        {
          "indexed": true,
          "internalType": "address",
          "name": "collateralAsset",
          "type": "address"
        }
      ],
      "name": "CollateralAllowed",
      "type": "event"
    },
    {
      "anonymous": false,
      "inputs": [
        {
          "indexed": true,
          "internalType": "address",
          "name": "collateralAsset",
          "type": "address"
        }
      ],
      "name": "CollateralDisallowed",
      "type": "event"
    },
    {
      "anonymous": false,
      "inputs": [
        {
          "indexed": true,
          "internalType": "address",
          "name": "newOracle",
          "type": "address"
        }
      ],
      "name": "OracleSet",
      "type": "event"
    },
    {
      "anonymous": false,
      "inputs": [
        {
          "indexed": true,
          "internalType": "bytes32",
          "name": "role",
          "type": "bytes32"
        },
        {
          "indexed": true,
          "internalType": "bytes32",
          "name": "previousAdminRole",
          "type": "bytes32"
        },
        {
          "indexed": true,
          "internalType": "bytes32",
          "name": "newAdminRole",
          "type": "bytes32"
        }
      ],
      "name": "RoleAdminChanged",
      "type": "event"
    },
    {
      "anonymous": false,
      "inputs": [
        {
          "indexed": true,
          "internalType": "bytes32",
          "name": "role",
          "type": "bytes32"
        },
        {
          "indexed": true,
          "internalType": "address",
          "name": "account",
          "type": "address"
        },
        {
          "indexed": true,
          "internalType": "address",
          "name": "sender",
          "type": "address"
        }
      ],
      "name": "RoleGranted",
      "type": "event"
    },
    {
      "anonymous": false,
      "inputs": [
        {
          "indexed": true,
          "internalType": "bytes32",
          "name": "role",
          "type": "bytes32"
        },
        {
          "indexed": true,
          "internalType": "address",
          "name": "account",
          "type": "address"
        },
        {
          "indexed": true,
          "internalType": "address",
          "name": "sender",
          "type": "address"
        }
      ],
      "name": "RoleRevoked",
      "type": "event"
    },
    {
      "inputs": [],
      "name": "AMO_TRADER_ROLE",
      "outputs": [
        {
          "internalType": "bytes32",
          "name": "",
          "type": "bytes32"
        }
      ],
      "stateMutability": "view",
      "type": "function"
    },
    {
      "inputs": [],
      "name": "COLLATERAL_MANAGER_ROLE",
      "outputs": [
        {
          "internalType": "bytes32",
          "name": "",
          "type": "bytes32"
        }
      ],
      "stateMutability": "view",
      "type": "function"
    },
    {
      "inputs": [],
      "name": "COLLATERAL_STRATEGY_ROLE",
      "outputs": [
        {
          "internalType": "bytes32",
          "name": "",
          "type": "bytes32"
        }
      ],
      "stateMutability": "view",
      "type": "function"
    },
    {
      "inputs": [],
      "name": "COLLATERAL_WITHDRAWER_ROLE",
      "outputs": [
        {
          "internalType": "bytes32",
          "name": "",
          "type": "bytes32"
        }
      ],
      "stateMutability": "view",
      "type": "function"
    },
    {
      "inputs": [],
      "name": "DEFAULT_ADMIN_ROLE",
      "outputs": [
        {
          "internalType": "bytes32",
          "name": "",
          "type": "bytes32"
        }
      ],
      "stateMutability": "view",
      "type": "function"
    },
    {
      "inputs": [],
      "name": "RECOVERER_ROLE",
      "outputs": [
        {
          "internalType": "bytes32",
          "name": "",
          "type": "bytes32"
        }
      ],
      "stateMutability": "view",
      "type": "function"
    },
    {
      "inputs": [
        {
          "internalType": "address",
          "name": "poolAddress",
          "type": "address"
        },
        {
          "internalType": "uint256[]",
          "name": "amounts",
          "type": "uint256[]"
        },
        {
          "internalType": "uint256",
          "name": "minMintAmount",
          "type": "uint256"
        }
      ],
      "name": "addLiquidity",
      "outputs": [
        {
          "internalType": "uint256",
          "name": "",
          "type": "uint256"
        }
      ],
      "stateMutability": "nonpayable",
      "type": "function"
    },
    {
      "inputs": [
        {
          "internalType": "address",
          "name": "collateralAsset",
          "type": "address"
        }
      ],
      "name": "allowCollateral",
      "outputs": [],
      "stateMutability": "nonpayable",
      "type": "function"
    },
    {
      "inputs": [
        {
          "internalType": "address[]",
          "name": "tokens",
          "type": "address[]"
        }
      ],
      "name": "allowCollaterals",
      "outputs": [],
      "stateMutability": "nonpayable",
      "type": "function"
    },
    {
      "inputs": [],
      "name": "amoManager",
      "outputs": [
        {
          "internalType": "contract AmoManager",
          "name": "",
          "type": "address"
        }
      ],
      "stateMutability": "view",
      "type": "function"
    },
    {
      "inputs": [],
      "name": "approveAmoManager",
      "outputs": [],
      "stateMutability": "nonpayable",
      "type": "function"
    },
    {
      "inputs": [
        {
          "internalType": "uint256",
          "name": "usdValue",
          "type": "uint256"
        },
        {
          "internalType": "address",
          "name": "asset",
          "type": "address"
        }
      ],
      "name": "assetAmountFromValue",
      "outputs": [
        {
          "internalType": "uint256",
          "name": "assetAmount",
          "type": "uint256"
        }
      ],
      "stateMutability": "view",
      "type": "function"
    },
    {
      "inputs": [
        {
          "internalType": "uint256",
          "name": "assetAmount",
          "type": "uint256"
        },
        {
          "internalType": "address",
          "name": "asset",
          "type": "address"
        }
      ],
      "name": "assetValueFromAmount",
      "outputs": [
        {
          "internalType": "uint256",
          "name": "usdValue",
          "type": "uint256"
        }
      ],
      "stateMutability": "view",
      "type": "function"
    },
    {
      "inputs": [],
      "name": "baseCurrencyUnit",
      "outputs": [
        {
          "internalType": "uint256",
          "name": "",
          "type": "uint256"
        }
      ],
      "stateMutability": "view",
      "type": "function"
    },
    {
      "inputs": [
        {
          "internalType": "uint256",
          "name": "collateralAmount",
          "type": "uint256"
        },
        {
          "internalType": "address",
          "name": "collateralAsset",
          "type": "address"
        }
      ],
      "name": "deposit",
      "outputs": [],
      "stateMutability": "nonpayable",
      "type": "function"
    },
    {
      "inputs": [
        {
          "internalType": "address",
          "name": "depositer",
          "type": "address"
        },
        {
          "internalType": "uint256",
          "name": "collateralAmount",
          "type": "uint256"
        },
        {
          "internalType": "address",
          "name": "collateralAsset",
          "type": "address"
        }
      ],
      "name": "depositFrom",
      "outputs": [],
      "stateMutability": "nonpayable",
      "type": "function"
    },
    {
      "inputs": [
        {
          "internalType": "address",
          "name": "collateralAsset",
          "type": "address"
        }
      ],
      "name": "disallowCollateral",
      "outputs": [],
      "stateMutability": "nonpayable",
      "type": "function"
    },
    {
      "inputs": [
        {
          "internalType": "address[]",
          "name": "tokens",
          "type": "address[]"
        }
      ],
      "name": "disallowCollaterals",
      "outputs": [],
      "stateMutability": "nonpayable",
      "type": "function"
    },
    {
      "inputs": [],
      "name": "dusd",
      "outputs": [
        {
          "internalType": "contract IERC20Stablecoin",
          "name": "",
          "type": "address"
        }
      ],
      "stateMutability": "view",
      "type": "function"
    },
    {
      "inputs": [],
      "name": "dusdDecimals",
      "outputs": [
        {
          "internalType": "uint8",
          "name": "",
          "type": "uint8"
        }
      ],
      "stateMutability": "view",
      "type": "function"
    },
    {
      "inputs": [],
      "name": "getAllLpTokens",
      "outputs": [
        {
          "internalType": "address[]",
          "name": "",
          "type": "address[]"
        }
      ],
      "stateMutability": "view",
      "type": "function"
    },
    {
      "inputs": [
        {
          "internalType": "address[11]",
          "name": "route",
          "type": "address[11]"
        },
        {
          "internalType": "uint256[4][5]",
          "name": "swapParams",
          "type": "uint256[4][5]"
        },
        {
          "internalType": "uint256",
          "name": "amountOut",
          "type": "uint256"
        }
      ],
      "name": "getExpectedInput",
      "outputs": [
        {
          "internalType": "uint256",
          "name": "",
          "type": "uint256"
        }
      ],
      "stateMutability": "view",
      "type": "function"
    },
    {
      "inputs": [
        {
          "internalType": "address[11]",
          "name": "route",
          "type": "address[11]"
        },
        {
          "internalType": "uint256[4][5]",
          "name": "swapParams",
          "type": "uint256[4][5]"
        },
        {
          "internalType": "uint256",
          "name": "amountIn",
          "type": "uint256"
        }
      ],
      "name": "getExpectedOutput",
      "outputs": [
        {
          "internalType": "uint256",
          "name": "",
          "type": "uint256"
        }
      ],
      "stateMutability": "view",
      "type": "function"
    },
    {
      "inputs": [],
      "name": "getLpTokenCount",
      "outputs": [
        {
          "internalType": "uint256",
          "name": "",
          "type": "uint256"
        }
      ],
      "stateMutability": "view",
      "type": "function"
    },
    {
      "inputs": [
        {
          "internalType": "bytes32",
          "name": "role",
          "type": "bytes32"
        }
      ],
      "name": "getRoleAdmin",
      "outputs": [
        {
          "internalType": "bytes32",
          "name": "",
          "type": "bytes32"
        }
      ],
      "stateMutability": "view",
      "type": "function"
    },
    {
      "inputs": [
        {
          "internalType": "bytes32",
          "name": "role",
          "type": "bytes32"
        },
        {
          "internalType": "address",
          "name": "account",
          "type": "address"
        }
      ],
      "name": "grantRole",
      "outputs": [],
      "stateMutability": "nonpayable",
      "type": "function"
    },
    {
      "inputs": [
        {
          "internalType": "address",
          "name": "lpToken",
          "type": "address"
        }
      ],
      "name": "hasLpToken",
      "outputs": [
        {
          "internalType": "bool",
          "name": "",
          "type": "bool"
        }
      ],
      "stateMutability": "view",
      "type": "function"
    },
    {
      "inputs": [
        {
          "internalType": "bytes32",
          "name": "role",
          "type": "bytes32"
        },
        {
          "internalType": "address",
          "name": "account",
          "type": "address"
        }
      ],
      "name": "hasRole",
      "outputs": [
        {
          "internalType": "bool",
          "name": "",
          "type": "bool"
        }
      ],
      "stateMutability": "view",
      "type": "function"
    },
    {
      "inputs": [
        {
          "internalType": "address",
          "name": "collateralAsset",
          "type": "address"
        }
      ],
      "name": "isCollateralSupported",
      "outputs": [
        {
          "internalType": "bool",
          "name": "",
          "type": "bool"
        }
      ],
      "stateMutability": "view",
      "type": "function"
    },
    {
      "inputs": [],
      "name": "listCollateral",
      "outputs": [
        {
          "internalType": "address[]",
          "name": "",
          "type": "address[]"
        }
      ],
      "stateMutability": "view",
      "type": "function"
    },
    {
      "inputs": [],
      "name": "oracle",
      "outputs": [
        {
          "internalType": "contract IPriceOracleGetter",
          "name": "",
          "type": "address"
        }
      ],
      "stateMutability": "view",
      "type": "function"
    },
    {
      "inputs": [
        {
          "internalType": "address",
          "name": "token",
          "type": "address"
        },
        {
          "internalType": "address",
          "name": "to",
          "type": "address"
        },
        {
          "internalType": "uint256",
          "name": "amount",
          "type": "uint256"
        }
      ],
      "name": "recoverERC20",
      "outputs": [],
      "stateMutability": "nonpayable",
      "type": "function"
    },
    {
      "inputs": [
        {
          "internalType": "address",
          "name": "to",
          "type": "address"
        },
        {
          "internalType": "uint256",
          "name": "amount",
          "type": "uint256"
        }
      ],
      "name": "recoverETH",
      "outputs": [],
      "stateMutability": "nonpayable",
      "type": "function"
    },
    {
      "inputs": [
        {
          "internalType": "address",
          "name": "poolAddress",
          "type": "address"
        },
        {
          "internalType": "uint256",
          "name": "lpTokenAmount",
          "type": "uint256"
        },
        {
          "internalType": "uint256[]",
          "name": "minAmounts",
          "type": "uint256[]"
        }
      ],
      "name": "removeLiquidity",
      "outputs": [
        {
          "internalType": "uint256[]",
          "name": "",
          "type": "uint256[]"
        }
      ],
      "stateMutability": "nonpayable",
      "type": "function"
    },
    {
      "inputs": [
        {
          "internalType": "address",
          "name": "poolAddress",
          "type": "address"
        },
        {
          "internalType": "uint256[]",
          "name": "amounts",
          "type": "uint256[]"
        },
        {
          "internalType": "uint256",
          "name": "maxBurnAmount",
          "type": "uint256"
        }
      ],
      "name": "removeLiquidityImbalance",
      "outputs": [
        {
          "internalType": "uint256",
          "name": "",
          "type": "uint256"
        }
      ],
      "stateMutability": "nonpayable",
      "type": "function"
    },
    {
      "inputs": [
        {
          "internalType": "address",
          "name": "poolAddress",
          "type": "address"
        },
        {
          "internalType": "uint256",
          "name": "lpTokenAmount",
          "type": "uint256"
        },
        {
          "internalType": "int128",
          "name": "i",
          "type": "int128"
        },
        {
          "internalType": "uint256",
          "name": "minAmount",
          "type": "uint256"
        }
      ],
      "name": "removeLiquidityOneCoin",
      "outputs": [
        {
          "internalType": "uint256",
          "name": "",
          "type": "uint256"
        }
      ],
      "stateMutability": "nonpayable",
      "type": "function"
    },
    {
      "inputs": [
        {
          "internalType": "bytes32",
          "name": "role",
          "type": "bytes32"
        },
        {
          "internalType": "address",
          "name": "callerConfirmation",
          "type": "address"
        }
      ],
      "name": "renounceRole",
      "outputs": [],
      "stateMutability": "nonpayable",
      "type": "function"
    },
    {
      "inputs": [
        {
          "internalType": "bytes32",
          "name": "role",
          "type": "bytes32"
        },
        {
          "internalType": "address",
          "name": "account",
          "type": "address"
        }
      ],
      "name": "revokeRole",
      "outputs": [],
      "stateMutability": "nonpayable",
      "type": "function"
    },
    {
      "inputs": [],
      "name": "router",
      "outputs": [
        {
          "internalType": "contract ICurveRouterNgPoolsOnlyV1",
          "name": "",
          "type": "address"
        }
      ],
      "stateMutability": "view",
      "type": "function"
    },
    {
      "inputs": [
        {
          "internalType": "address",
          "name": "_newAmoManager",
          "type": "address"
        }
      ],
      "name": "setAmoManager",
      "outputs": [],
      "stateMutability": "nonpayable",
      "type": "function"
    },
    {
      "inputs": [
        {
          "internalType": "uint256",
          "name": "_newBaseCurrencyUnit",
          "type": "uint256"
        }
      ],
      "name": "setBaseCurrencyUnit",
      "outputs": [],
      "stateMutability": "nonpayable",
      "type": "function"
    },
    {
      "inputs": [
        {
          "internalType": "contract IPriceOracleGetter",
          "name": "newOracle",
          "type": "address"
        }
      ],
      "name": "setOracle",
      "outputs": [],
      "stateMutability": "nonpayable",
      "type": "function"
    },
    {
      "inputs": [
        {
          "internalType": "bytes4",
          "name": "interfaceId",
          "type": "bytes4"
        }
      ],
      "name": "supportsInterface",
      "outputs": [
        {
          "internalType": "bool",
          "name": "",
          "type": "bool"
        }
      ],
      "stateMutability": "view",
      "type": "function"
    },
    {
      "inputs": [
        {
          "internalType": "address[11]",
          "name": "route",
          "type": "address[11]"
        },
        {
          "internalType": "uint256[4][5]",
          "name": "swapParams",
          "type": "uint256[4][5]"
        },
        {
          "internalType": "uint256",
          "name": "amountIn",
          "type": "uint256"
        },
        {
          "internalType": "uint256",
          "name": "minAmountOut",
          "type": "uint256"
        }
      ],
      "name": "swapExactIn",
      "outputs": [
        {
          "internalType": "uint256",
          "name": "",
          "type": "uint256"
        }
      ],
      "stateMutability": "nonpayable",
      "type": "function"
    },
    {
      "inputs": [],
      "name": "totalCollateralValue",
      "outputs": [
        {
          "internalType": "uint256",
          "name": "",
          "type": "uint256"
        }
      ],
      "stateMutability": "view",
      "type": "function"
    },
    {
      "inputs": [],
      "name": "totalDusdValue",
      "outputs": [
        {
          "internalType": "uint256",
          "name": "",
          "type": "uint256"
        }
      ],
      "stateMutability": "view",
      "type": "function"
    },
    {
      "inputs": [],
      "name": "totalValue",
      "outputs": [
        {
          "internalType": "uint256",
          "name": "",
          "type": "uint256"
        }
      ],
      "stateMutability": "view",
      "type": "function"
    },
    {
      "inputs": [
        {
          "internalType": "uint256",
          "name": "collateralAmount",
          "type": "uint256"
        },
        {
          "internalType": "address",
          "name": "collateralAsset",
          "type": "address"
        }
      ],
      "name": "withdraw",
      "outputs": [],
      "stateMutability": "nonpayable",
      "type": "function"
    },
    {
      "inputs": [
        {
          "internalType": "address",
          "name": "recipient",
          "type": "address"
        },
        {
          "internalType": "uint256",
          "name": "collateralAmount",
          "type": "uint256"
        },
        {
          "internalType": "address",
          "name": "collateralAsset",
          "type": "address"
        }
      ],
      "name": "withdrawTo",
      "outputs": [],
      "stateMutability": "nonpayable",
      "type": "function"
    }
  ],
  "transactionHash": "0x12355aff885d9358de302c13e02214c1cb83817f67c04fc3decdbaf1be87ec5f",
  "args": [
    "0x4D6E79013212F10A026A1FB0b926C9Fd0432b96c",
    "0xf2828638927F0e084c588Dde5a4856ce35DC5E7e",
    "0xa741BA2830cbF7A3432D96A6e188af0132792Cb9",
    "0xF66c3Ef85BceafaEcE9171E25Eee2972b10e1958",
    "0x53Ae1433Ab4563d7D5a84d27524784837259f105",
    "0x53Ae1433Ab4563d7D5a84d27524784837259f105",
    "0x53Ae1433Ab4563d7D5a84d27524784837259f105",
    "0x53Ae1433Ab4563d7D5a84d27524784837259f105"
  ],
  "numDeployments": 1,
  "solcInputHash": "f1d62b78e1f20504cae5997f17d5723f",
  "bytecode": "0x60e0604081815234620003f857610100826200361e8038038091620000258285620003fd565b833981010312620003f8576200003b8262000437565b60206200004a81850162000437565b838501519094906001600160a01b039081811690819003620003f8576060830151928284168403620003f857620000846080820162000437565b956200009360a0830162000437565b90620000b060e0620000a860c0860162000437565b940162000437565b600180546001600160a01b031990811690961790556305f5e10060025597620000d9336200044c565b50620000e5336200044c565b506000809b6000805160206200359e8339815191528252818a526200011060018d842001546200079e565b6200011b33620004cc565b5060048a8d8a600080516020620035be8339815191529788875286845262000149600184892001546200079e565b62000154336200055d565b50600080516020620035fe83398151915287528684526200017b600184892001546200079e565b6200018633620005e9565b506001600555169081608052519283809263313ce56760e01b82525afa908115620003ee5789939162000399575b5096620001db92620001f896959492620002259960a052169060065416176006556200044c565b508a52898752620001f260018a8c2001546200079e565b6200055d565b50600080516020620035de83398151915288528785526200021f6001888a2001546200079e565b62000675565b50858052858352848620338752835260ff8587205416156200037b57608051600654865163095ea7b360e01b815290831660048201526000196024820152918491839160449183918b91165af1801562000371576200032f575b508385620002c69596620002c09460019460c0527fc9d160ddf8721202a3f3e2bd663b1fdb5675930469632a500038010be1a191dc8252522001546200079e565b62000701565b5051612d9a9081620007e482396080518181816108270152818161096b01528181610c9301528181610f1f015281816112d601528181611b09015261262d015260a05181611462015260c0518181816102950152818161079b01528181611cfe0152611d9f0152f35b8281813d831162000369575b620003478183620003fd565b81010312620003655751801515036200036157386200027f565b8480fd5b8580fd5b503d6200033b565b85513d88823e3d90fd5b845163e2517d3f60e01b815233600482015260248101879052604490fd5b809293508b809250969594963d8311620003e6575b620003ba8183620003fd565b81010312620003e257519360ff85168503620003e2579293919291879190620001db620001b4565b8c80fd5b503d620003ae565b8d513d85823e3d90fd5b600080fd5b601f909101601f19168101906001600160401b038211908210176200042157604052565b634e487b7160e01b600052604160045260246000fd5b51906001600160a01b0382168203620003f857565b6001600160a01b031660008181527fad3228b676f7d3cd4284a5443f17f1962b36e491b30a40b2405849e597ba5fb5602052604081205490919060ff16620004c857818052816020526040822081835260205260408220600160ff1982541617905533916000805160206200357e8339815191528180a4600190565b5090565b6001600160a01b031660008181527fb56095460044281636dd3a77e227972b73971c7d766b38feb76e4e7f12e8c60260205260408120549091906000805160206200359e8339815191529060ff166200055857808352826020526040832082845260205260408320600160ff198254161790556000805160206200357e833981519152339380a4600190565b505090565b6001600160a01b031660008181527fc191fc48a308d795605d8380942284aa535eb60ab59dded9d8c4eff77cf3c8726020526040812054909190600080516020620035be8339815191529060ff166200055857808352826020526040832082845260205260408320600160ff198254161790556000805160206200357e833981519152339380a4600190565b6001600160a01b031660008181527f94449471841a7f40a7871d590913647b573afdadc8e3b552848558acac45c28a6020526040812054909190600080516020620035fe8339815191529060ff166200055857808352826020526040832082845260205260408320600160ff198254161790556000805160206200357e833981519152339380a4600190565b6001600160a01b031660008181527fa921dec465a2db617c1283eb3fd0c7be03ef4a04bbcfeba0659a6baa62f900016020526040812054909190600080516020620035de8339815191529060ff166200055857808352826020526040832082845260205260408320600160ff198254161790556000805160206200357e833981519152339380a4600190565b6001600160a01b031660008181527f35981844e2f7014ed33b54358b929d550bdab17164e935e079ba150ceda75ff860205260408120549091907fc9d160ddf8721202a3f3e2bd663b1fdb5675930469632a500038010be1a191dc9060ff166200055857808352826020526040832082845260205260408320600160ff198254161790556000805160206200357e833981519152339380a4600190565b80600052600060205260406000203360005260205260ff6040600020541615620007c55750565b6044906040519063e2517d3f60e01b82523360048301526024820152fdfe6080604052600436101561001257600080fd5b60003560e01c8062f714ce14611e3f57806301fd155d14611ca857806301ffc9a714611c525780630ee209c114611b915780631171bda914611ac2578063132c29b214611a875780631ee903b6146119c757806321fccb48146117ac578063248a9ca31461177d5780632a6739a2146116af5780632e718ab7146116745780632f2ff15d1461163557806336568abe146115ee5780633e0c0629146115745780633f8634811461155d57806345daa27b146115225780634a0bbabb146115015780634f5f32991461148657806352816b68146114485780635433a7661461140c5780635c23ef6e1461131c5780635c5088e4146112855780636e553f65146112605780637adbf9731461117e5780637dc0d1d01461115557806391d14854146111085780639377e63a146110025780639d4cc8d314610ee9578063a217fddf14610ecd578063a4e2a31e14610dbd578063acf1c94814610d82578063bea151fb14610d52578063c4e2c1e614610d28578063c7bee63d14610c6d578063c83abb8514610a2a578063cf07456f146109fe578063d4c3eea014610897578063d547741f14610856578063de1409ce14610811578063de5eaee614610767578063de777a7f146105f2578063e00cb4a5146104dc578063e1121672146104a1578063eb0bc1ec14610483578063f20c333c1461030b578063f3bddde1146102ed578063f817f7d0146102c4578063f887ea401461027f5763fa6bd2ee1461023657600080fd5b3461027a57602036600319011261027a5760206102706001600160a01b0361025c611e8d565b166000526004602052604060002054151590565b6040519015158152f35b600080fd5b3461027a57600036600319011261027a576040517f00000000000000000000000000000000000000000000000000000000000000006001600160a01b03168152602090f35b3461027a57600036600319011261027a576006546040516001600160a01b039091168152602090f35b3461027a57600036600319011261027a576020600254604051908152f35b3461027a5760208060031936011261027a5760043567ffffffffffffffff811161027a5761033d903690600401611eb7565b90610346612267565b60005b82811061035257005b610365610360828585612021565b611fd3565b61036d612267565b6001600160a01b0390811660008181526004602052604090205490919061046a578590600154166040519182809263b3596f0760e01b825285600483015260249485915afa90811561045e57600091610431575b501561041b576103d082612c58565b156104055750906001917f500f8acd525a3d9f96ab641587f59e34ef9d02f9397fdd46bb7786273bad1607600080a201610349565b906040519063cdb5999560e01b82526004820152fd5b9060405190631066c96360e31b82526004820152fd5b90508681813d8311610457575b6104488183611fe7565b8101031261027a5751876103c1565b503d61043e565b6040513d6000823e3d90fd5b60405163098f893f60e21b815260048101839052602490fd5b3461027a57600036600319011261027a576020600754604051908152f35b3461027a57600036600319011261027a5760206040517fc9d160ddf8721202a3f3e2bd663b1fdb5675930469632a500038010be1a191dc8152f35b3461027a57604036600319011261027a576104f5611e77565b60015460405163b3596f0760e01b81526001600160a01b039283166004820181905260209391929091849184916024918391165afa90811561045e5783906000926105c2575b60405163313ce56760e01b81529350839060049082905afa90811561045e576105839260009261058b575b5061057761057d91600435906120eb565b916120da565b906120fe565b604051908152f35b61057d9192506105b361057791863d88116105bb575b6105ab8183611fe7565b8101906120c1565b929150610566565b503d6105a1565b915082813d83116105eb575b6105d88183611fe7565b8101031261027a5782600492519161053b565b503d6105ce565b3461027a5761060036611ee8565b80939261060b61220b565b60405163095ea7b360e01b81526001600160a01b03949094166004850181905260248501959095526020949285856044816000885af192831561045e5761067795879461073a575b506040519586938493637706db7560e01b8552604060048601526044850191612066565b90602483015203816000855af191821561045e5760009261070b575b506040516370a0823160e01b81523060048201528381602481855afa90811561045e576000916106de575b50156106ce575b50604051908152f35b6106d790612b0d565b50826106c5565b90508381813d8311610704575b6106f58183611fe7565b8101031261027a5751846106be565b503d6106eb565b9091508281813d8311610733575b6107238183611fe7565b8101031261027a57519083610693565b503d610719565b61075990853d8711610760575b6107518183611fe7565b810190612009565b5087610653565b503d610747565b3461027a57602061077736611fa9565b929161079760405194859384936308f109c360e11b85526004850161211e565b03817f00000000000000000000000000000000000000000000000000000000000000006001600160a01b03165afa801561045e576000906107de575b602090604051908152f35b506020813d602011610809575b816107f860209383611fe7565b8101031261027a57602090516107d3565b3d91506107eb565b3461027a57600036600319011261027a576040517f00000000000000000000000000000000000000000000000000000000000000006001600160a01b03168152602090f35b3461027a57604036600319011261027a57610895600435610875611e77565b90806000526000602052610890600160406000200154612359565b6127f5565b005b3461027a57600036600319011261027a5760006108b2612ca5565b6000915b8151831015610956576001600160a01b036108d1848461208a565b5116604051906370a0823160e01b82523060048301526020918281602481855afa92831561045e57600093610921575b505091610913610919926001946123c2565b9061209e565b9201916108b6565b908094929350813d831161094f575b61093a8183611fe7565b8101031261027a579151906109136001610901565b503d610930565b6040516370a0823160e01b81523060048201527f00000000000000000000000000000000000000000000000000000000000000006001600160a01b0316602082602481845afa91821561045e576000926109c9575b60206105836109be8661091387876123c2565b6109136109136124a1565b91506020823d6020116109f6575b816109e460209383611fe7565b8101031261027a5790519060206109ab565b3d91506109d7565b3461027a57600036600319011261027a57610a26610a1a612ca5565b60405191829182611f64565b0390f35b3461027a57606036600319011261027a57610a43611e8d565b6024359067ffffffffffffffff60443581811161027a57610a68903690600401611eb7565b919092610a7361220b565b60405163095ea7b360e01b81526001600160a01b0391909116600482018190526024820186905260209590939086836044816000895af192831561045e57600093610c50575b50610ae5604051968793849363350376e360e21b85526004850152604060248501526044840191612066565b038183865af192831561045e57600093610bae575b50506040516370a0823160e01b81523060048201528381602481855afa90811561045e57600091610b81575b5015610b71575b50906040519181839283018184528251809152816040850193019160005b828110610b5a57505050500390f35b835185528695509381019392810192600101610b4b565b610b7a90612b0d565b5082610b2d565b90508381813d8311610ba7575b610b988183611fe7565b8101031261027a575184610b26565b503d610b8e565b909192503d806000833e610bc28183611fe7565b810190848183031261027a5780519083821161027a570181601f8201121561027a578051928311610c3a578260051b60405193610c0187830186611fe7565b8452858085019183010192831161027a5785809201905b838210610c2b5750505050908380610afa565b81518152908201908201610c18565b634e487b7160e01b600052604160045260246000fd5b610c6690883d8a11610760576107518183611fe7565b5087610ab9565b3461027a57600036600319011261027a576040516370a0823160e01b81523060048201527f00000000000000000000000000000000000000000000000000000000000000006001600160a01b0316602082602481845afa91821561045e57600092610cf2575b6020610583610ce285856123c2565b610cea6124a1565b91905061209e565b91506020823d602011610d20575b81610d0d60209383611fe7565b8101031261027a57905190610ce2610cd3565b3d9150610d00565b3461027a57610895610d3936611f30565b610d44929192612191565b6001600160a01b031661237f565b3461027a576020610d6236611fa9565b92916107976040519485938493637b5e2c7b60e01b85526004850161211e565b3461027a57600036600319011261027a5760206040517fb3e25b5404b87e5a838579cb5d7481d61ad96ee284d38ec1e97c07ba64e7f6fc8152f35b3461027a57602036600319011261027a57610dd6611e8d565b610dde612267565b6001600160a01b0390811660008181526004602052604090205490919061046a576020602491600154166040519283809263b3596f0760e01b82528660048301525afa90811561045e57600091610e9b575b5015610e8357610e3f81612c58565b15610e6b577f500f8acd525a3d9f96ab641587f59e34ef9d02f9397fdd46bb7786273bad1607600080a2005b6024906040519063cdb5999560e01b82526004820152fd5b60249060405190631066c96360e31b82526004820152fd5b90506020813d602011610ec5575b81610eb660209383611fe7565b8101031261027a575182610e30565b3d9150610ea9565b3461027a57600036600319011261027a57602060405160008152f35b3461027a5760208060031936011261027a57610f03611e8d565b610f0b61231f565b6001600160a01b039081168015610ff057817f0000000000000000000000000000000000000000000000000000000000000000169160065416906040519163095ea7b360e01b9081845260048401526000602484015284836044816000885af190811561045e578593604492610fd3575b50600680546001600160a01b03191684179055610f9761231f565b6000604051958694859384526004840152811960248401525af1801561045e57610fbd57005b8161089592903d10610760576107518183611fe7565b610fe990853d8711610760576107518183611fe7565b5086610f7c565b6040516314e632d960e11b8152600490fd5b3461027a57608036600319011261027a5761101b611e8d565b602435906044359081600f0b80920361027a57829161103861220b565b60405163095ea7b360e01b81526001600160a01b03929092166004830181905260248301949094526020939184816044816000875af1801561045e576110eb575b5060405192630d2680e960e11b845260048401526024830152606435604483015282826064816000855af191821561045e5760009261070b57506040516370a0823160e01b81523060048201528381602481855afa90811561045e576000916106de5750156106ce5750604051908152f35b61110190853d8711610760576107518183611fe7565b5084611079565b3461027a57604036600319011261027a57611121611e77565b600435600052600060205260406000209060018060a01b0316600052602052602060ff604060002054166040519015158152f35b3461027a57600036600319011261027a576001546040516001600160a01b039091168152602090f35b3461027a57602036600319011261027a576004356001600160a01b0381169081900361027a576111ac61231f565b604051638c89b64f60e01b8152602081600481855afa90811561045e5760009161122e575b506002548091036112165750600180546001600160a01b031916821790557f3f32684a32a11dabdbb8c0177de80aa3ae36a004d75210335b49e544e48cd0aa600080a2005b60249060405190639b6812b960e01b82526004820152fd5b90506020813d602011611258575b8161124960209383611fe7565b8101031261027a5751826111d1565b3d915061123c565b3461027a57604036600319011261027a5761089561127c611e77565b600435336128aa565b3461027a57600036600319011261027a5761129e61231f565b60065460405163095ea7b360e01b81526001600160a01b039182166004820152600019602482015290602090829060449082906000907f0000000000000000000000000000000000000000000000000000000000000000165af1801561045e5761130457005b6108959060203d602011610760576107518183611fe7565b3461027a57604036600319011261027a57611335611e77565b60015460405163b3596f0760e01b81526001600160a01b039283166004820181905260209391929091849184916024918391165afa90811561045e5783906000926113dc575b60405163313ce56760e01b81529350839060049082905afa801561045e576113b26113ba91610583946000916113bf575b506120da565b6004356120eb565b6120fe565b6113d69150863d88116105bb576105ab8183611fe7565b866113ac565b915082813d8311611405575b6113f28183611fe7565b8101031261027a5782600492519161137b565b503d6113e8565b3461027a57602036600319011261027a576001600160a01b0361142d611e8d565b16600052600860205260206040600020541515604051908152f35b3461027a57600036600319011261027a57602060405160ff7f0000000000000000000000000000000000000000000000000000000000000000168152f35b3461027a57600036600319011261027a57604051806007549182815260208091019260076000527fa66cc928b5edb82af9bd49922954155ab7b0942694bea4ce44661d9a8736c688916000905b8282106114ea57610a2685610a1a81890382611fe7565b8354865294850194600193840193909101906114d3565b3461027a57602036600319011261027a5761151a61231f565b600435600255005b3461027a57600036600319011261027a5760206040517f1f29e81ed8f7ae439f042f6b6767d105e87c4eef908508d5d9e550aef35af6448152f35b3461027a5761089561156e36611f30565b916128aa565b3461027a57604036600319011261027a5761158d611e8d565b602435906115996122c3565b8147106115d6576000918291829182916001600160a01b03165af16115bc61286a565b50156115c457005b604051630a12f52160e11b8152600490fd5b60405163cd78605960e01b8152306004820152602490fd5b3461027a57604036600319011261027a57611607611e77565b336001600160a01b0382160361162357610895906004356127f5565b60405163334bd91960e11b8152600490fd5b3461027a57604036600319011261027a57610895600435611654611e77565b9080600052600060205261166f600160406000200154612359565b612777565b3461027a57600036600319011261027a5760206040517f85e8f2d6819d6b24108062d87ea08f54651bcb8960d98062d3faf96e7873b8b98152f35b3461027a57600036600319011261027a5760006116ca612ca5565b6000915b8151831015611768576001600160a01b036116e9848461208a565b5116604051906370a0823160e01b82523060048301526020918281602481855afa92831561045e57600093611733575b50509161091361172b926001946123c2565b9201916116ce565b908094929350813d8311611761575b61174c8183611fe7565b8101031261027a579151906109136001611719565b503d611742565b6105836020916117766124a1565b509061209e565b3461027a57602036600319011261027a5760043560005260006020526020600160406000200154604051908152f35b3461027a576117ba36611ee8565b91906117c461220b565b604051630293577560e41b81526020946001600160a01b038181169592909187826004818a5afa91821561045e57600092611998575b5095949290918794926000975b8189106118905750505061183995506040519586938493635b96faef60e11b8552604060048601526044850191612066565b90602483015203816000855af191821561045e5760009261185f575b506106c590612bf2565b9091508281813d8311611889575b6118778183611fe7565b8101031261027a5751906106c5611855565b503d61186d565b91939550919395966040519063c661065760e01b825280600483015289826024818c5afa91821561045e5785928b9160009161196b575b506118d3838a8c612021565b356118ed575b505060019150019695939188959391611807565b611930906118fc848b8d612021565b60405163095ea7b360e01b81526001600160a01b038816600482015290356024820152948592839160009183906044820190565b0393165af191821561045e5760019261194e575b85928b91506118d9565b611964908b3d8d11610760576107518183611fe7565b508a611944565b61198b9150823d8411611991575b6119838183611fe7565b810190612047565b8c6118c7565b503d611979565b9091508781813d83116119c0575b6119b08183611fe7565b8101031261027a575190886117fa565b503d6119a6565b3461027a57602036600319011261027a576119e0611e8d565b6119e8612267565b6001600160a01b031660008181526004602052604090205415611a6f5760016003541115611a5d57611a1981612a0d565b15611a45577fcebbf63022189259f517d89d98c7c527b44c211d25e443dad13aab2479c7e7b3600080a2005b6024906040519063644e3dd760e11b82526004820152fd5b6040516305bc742560e11b8152600490fd5b60249060405190632108722b60e01b82526004820152fd5b3461027a57600036600319011261027a5760206040517f1a52e20da533a06a1f80a73dba6e5d09cb788f108eae685b8ce6644834e67abe8152f35b3461027a57606036600319011261027a57611adb611e8d565b611ae3611e77565b90611aec6122c3565b600260055414611b7f5760026005556001600160a01b03908116907f00000000000000000000000000000000000000000000000000000000000000001681148015611b62575b611b4a57611b43916044359161237f565b6001600555005b60249060405190638415be8960e01b82526004820152fd5b50611b7a816000526004602052604060002054151590565b611b32565b604051633ee5aeb560e01b8152600490fd5b3461027a57602036600319011261027a5760043567ffffffffffffffff811161027a57611bc2903690600401611eb7565b90611bcb612267565b60005b828110611bd757005b611be5610360828585612021565b611bed612267565b6001600160a01b031660008181526004602052604090205415611a6f5760016003541115611a5d57611c1e81612a0d565b15611a4557906001917fcebbf63022189259f517d89d98c7c527b44c211d25e443dad13aab2479c7e7b3600080a201611bce565b3461027a57602036600319011261027a5760043563ffffffff60e01b811680910361027a57602090637965db0b60e01b8114908115611c97575b506040519015158152f35b6301ffc9a760e01b14905082611c8c565b3461027a5761042036600319011261027a57366101641161027a57366103e41161027a57611cd461220b565b6004356001600160a01b038116810361027a5760405163095ea7b360e01b81526001600160a01b037f0000000000000000000000000000000000000000000000000000000000000000811660048301526103e4356024830152909160209183916044918391600091165af1801561045e57611e20575b50604051633f51256760e21b8152600460008183015b600b8210611df8578360006101648083015b60058310611de1576103e480359085015261040480359085015230610424850152836020816104448160007f00000000000000000000000000000000000000000000000000000000000000006001600160a01b03165af1801561045e576000906107de57602090604051908152f35b600190608081818581943701920192019190611d72565b60019060209081906001600160a01b03611e1187611ea3565b16815201930191019091611d60565b611e389060203d602011610760576107518183611fe7565b5080611d4a565b3461027a57604036600319011261027a57610895611e5b611e77565b611e63612191565b6004359033906001600160a01b031661237f565b602435906001600160a01b038216820361027a57565b600435906001600160a01b038216820361027a57565b35906001600160a01b038216820361027a57565b9181601f8401121561027a5782359167ffffffffffffffff831161027a576020808501948460051b01011161027a57565b90606060031983011261027a576004356001600160a01b038116810361027a57916024359067ffffffffffffffff821161027a57611f2891600401611eb7565b909160443590565b606090600319011261027a576001600160a01b03600435818116810361027a579160243591604435908116810361027a5790565b602090602060408183019282815285518094520193019160005b828110611f8c575050505090565b83516001600160a01b031685529381019392810192600101611f7e565b61040060031982011261027a576101649181831161027a576004926103e492831161027a57913590565b356001600160a01b038116810361027a5790565b90601f8019910116810190811067ffffffffffffffff821117610c3a57604052565b9081602091031261027a5751801515810361027a5790565b91908110156120315760051b0190565b634e487b7160e01b600052603260045260246000fd5b9081602091031261027a57516001600160a01b038116810361027a5790565b81835290916001600160fb1b03831161027a5760209260051b809284830137010190565b80518210156120315760209160051b010190565b919082018092116120ab57565b634e487b7160e01b600052601160045260246000fd5b9081602091031261027a575160ff8116810361027a5790565b60ff16604d81116120ab57600a0a90565b818102929181159184041417156120ab57565b8115612108570490565b634e487b7160e01b600052601260045260246000fd5b61040081019493929091600090835b600b831061216b575050506101608201906000915b60058310612154575050506103e00152565b600190608081818581943701920192019190612142565b6001906001600160a01b0361217f84611ea3565b1681529201916020918201910161212d565b3360009081527fc191fc48a308d795605d8380942284aa535eb60ab59dded9d8c4eff77cf3c87260205260409020547f1f29e81ed8f7ae439f042f6b6767d105e87c4eef908508d5d9e550aef35af6449060ff16156121ed5750565b6044906040519063e2517d3f60e01b82523360048301526024820152fd5b3360009081527f35981844e2f7014ed33b54358b929d550bdab17164e935e079ba150ceda75ff860205260409020547fc9d160ddf8721202a3f3e2bd663b1fdb5675930469632a500038010be1a191dc9060ff16156121ed5750565b3360009081527fb56095460044281636dd3a77e227972b73971c7d766b38feb76e4e7f12e8c60260205260409020547f85e8f2d6819d6b24108062d87ea08f54651bcb8960d98062d3faf96e7873b8b99060ff16156121ed5750565b3360009081527fa921dec465a2db617c1283eb3fd0c7be03ef4a04bbcfeba0659a6baa62f9000160205260409020547fb3e25b5404b87e5a838579cb5d7481d61ad96ee284d38ec1e97c07ba64e7f6fc9060ff16156121ed5750565b3360009081527fad3228b676f7d3cd4284a5443f17f1962b36e491b30a40b2405849e597ba5fb5602052604081205460ff16156121ed5750565b80600052600060205260406000203360005260205260ff60406000205416156121ed5750565b60405163a9059cbb60e01b60208201526001600160a01b039290921660248301526044808301939093529181526123c0916123bb606483611fe7565b61292d565b565b60015460405163b3596f0760e01b81526001600160a01b0392831660048201819052929091602091829184916024918391165afa91821561045e57600092612470575b50806004936040519485809263313ce56760e01b82525afa801561045e5761243b9360ff92600092612453575b505016926120eb565b604d82116120ab5761245091600a0a906120fe565b90565b6124699250803d106105bb576105ab8183611fe7565b3880612432565b9291508083813d831161249a575b6124888183611fe7565b8101031261027a579151909180612405565b503d61247e565b6000906000916007546000905b8082106124bb5750509190565b600760009081527fa66cc928b5edb82af9bd49922954155ab7b0942694bea4ce44661d9a8736c6888301546040516370a0823160e01b815230600482015293969492939192839290916001600160a01b0316602082602481845afa91821561045e57600092612743575b506040516318160ddd60e01b815290602082600481845afa91821561045e5760009261270f575b50604051630293577560e41b815290602082600481845afa91821561045e576000926126db575b509291906000935b8185106125a55750505050509161259761259d9260019461209e565b9461209e565b9401906124ae565b90919293966040519063c661065760e01b8252886004830152602082602481865afa91821561045e576000926126ba575b50604051634903b0d160e01b8152600481018a9052602081602481875afa90811561045e5786918891600091612680575b50916113ba6126199261261f946120eb565b836123c2565b916001600160a01b039081167f00000000000000000000000000000000000000000000000000000000000000009091160361266c576001916126609161209e565b975b019392919061257b565b979660019161267a9161209e565b96612662565b925050506020813d6020116126b2575b8161269d60209383611fe7565b8101031261027a5751859087906113ba612607565b3d9150612690565b6126d491925060203d602011611991576119838183611fe7565b90386125d6565b9091506020813d602011612707575b816126f760209383611fe7565b8101031261027a57519038612573565b3d91506126ea565b9091506020813d60201161273b575b8161272b60209383611fe7565b8101031261027a5751903861254c565b3d915061271e565b9091506020813d60201161276f575b8161275f60209383611fe7565b8101031261027a57519038612525565b3d9150612752565b9060009180835282602052604083209160018060a01b03169182845260205260ff604084205416156000146127f057808352826020526040832082845260205260408320600160ff198254161790557f2f8788117e7eff1d82e926ec794901d17c78024a50270940304540a733656f0d339380a4600190565b505090565b9060009180835282602052604083209160018060a01b03169182845260205260ff6040842054166000146127f05780835282602052604083208284526020526040832060ff1981541690557ff6391f5c32d9c69d2a47ea670b442974b53935d1edc7fd64eb21e047a839171b339380a4600190565b3d156128a5573d9067ffffffffffffffff8211610c3a5760405191612899601f8201601f191660200184611fe7565b82523d6000602084013e565b606090565b9060018060a01b03809316928360005260046020526040600020541561291457604051926323b872dd60e01b602085015216602483015230604483015260648201526064815260a081019181831067ffffffffffffffff841117610c3a576123c09260405261292d565b604051632762993f60e11b815260048101859052602490fd5b6000806129569260018060a01b03169360208151910182865af161294f61286a565b9083612d13565b8051908115159182612984575b505061296c5750565b60249060405190635274afe760e01b82526004820152fd5b6129979250602080918301019101612009565b153880612963565b6003548110156120315760036000527fc2575a0e9e593c00f959f8c92f12db2869c3395a3b0502d05e2516446f71f85b0190600090565b6007548110156120315760076000527fa66cc928b5edb82af9bd49922954155ab7b0942694bea4ce44661d9a8736c6880190600090565b600090808252600490816020526040832054801515600014612b075760001990808201818111612af45760035490838201918211612ae157818103612a97575b5050506003548015612a8457810190612a658261299f565b909182549160031b1b1916905560035582526020526040812055600190565b634e487b7160e01b855260318452602485fd5b612acc612aa6612ab59361299f565b90549060031b1c92839261299f565b819391549060031b91821b91600019901b19161790565b90558552836020526040852055388080612a4d565b634e487b7160e01b875260118652602487fd5b634e487b7160e01b865260118552602486fd5b50505090565b60008181526008602052604081205490919080156127f05760001990808201818111612bde5760075490838201918211612bca57818103612b96575b5050506007548015612b8257810190612b61826129d6565b909182549160031b1b19169055600755815260086020526040812055600190565b634e487b7160e01b84526031600452602484fd5b612bb4612ba5612ab5936129d6565b90549060031b1c9283926129d6565b9055845260086020526040842055388080612b49565b634e487b7160e01b86526011600452602486fd5b634e487b7160e01b85526011600452602485fd5b600081815260086020526040812054612c5357600754600160401b811015612c3f579082612c2b612ab5846001604096016007556129d6565b905560075492815260086020522055600190565b634e487b7160e01b82526041600452602482fd5b905090565b600081815260046020526040812054612c5357600354600160401b811015612c3f579082612c91612ab58460016040960160035561299f565b905560035492815260046020522055600190565b6040519060035480835282602091602082019060036000527fc2575a0e9e593c00f959f8c92f12db2869c3395a3b0502d05e2516446f71f85b936000905b828210612cf9575050506123c092500383611fe7565b855484526001958601958895509381019390910190612ce3565b90612d2857508051156115c457805190602001fd5b81511580612d5b575b612d39575090565b604051639996b31560e01b81526001600160a01b039091166004820152602490fd5b50803b15612d3156fea2646970667358221220d1cc63bdbff580c47b2cd30033e73fdd4c5b031e4074b0fb6720674db015d07b64736f6c634300081800332f8788117e7eff1d82e926ec794901d17c78024a50270940304540a733656f0d85e8f2d6819d6b24108062d87ea08f54651bcb8960d98062d3faf96e7873b8b91f29e81ed8f7ae439f042f6b6767d105e87c4eef908508d5d9e550aef35af644b3e25b5404b87e5a838579cb5d7481d61ad96ee284d38ec1e97c07ba64e7f6fc1a52e20da533a06a1f80a73dba6e5d09cb788f108eae685b8ce6644834e67abe",
  "devdoc": {
    "errors": {
      "AccessControlBadConfirmation()": [
        {
          "details": "The caller of a function is not the expected one. NOTE: Don't confuse with {AccessControlUnauthorizedAccount}."
        }
      ],
      "AccessControlUnauthorizedAccount(address,bytes32)": [
        {
          "details": "The `account` is missing a role."
        }
      ],
      "AddressEmptyCode(address)": [
        {
          "details": "There's no code at `target` (it is not a contract)."
        }
      ],
      "AddressInsufficientBalance(address)": [
        {
          "details": "The ETH balance of the account is not enough to perform the operation."
        }
      ],
      "FailedInnerCall()": [
        {
          "details": "A call to an address target failed. The target may have reverted."
        }
      ],
      "ReentrancyGuardReentrantCall()": [
        {
          "details": "Unauthorized reentrant call."
        }
      ],
      "SafeERC20FailedOperation(address)": [
        {
          "details": "An operation with an ERC20 token failed."
        }
      ]
    },
    "events": {
      "RoleAdminChanged(bytes32,bytes32,bytes32)": {
        "details": "Emitted when `newAdminRole` is set as ``role``'s admin role, replacing `previousAdminRole` `DEFAULT_ADMIN_ROLE` is the starting admin for all roles, despite {RoleAdminChanged} not being emitted signaling this."
      },
      "RoleGranted(bytes32,address,address)": {
        "details": "Emitted when `account` is granted `role`. `sender` is the account that originated the contract call, an admin role bearer except when using {AccessControl-_setupRole}."
      },
      "RoleRevoked(bytes32,address,address)": {
        "details": "Emitted when `account` is revoked `role`. `sender` is the account that originated the contract call:   - if using `revokeRole`, it is the admin role bearer   - if using `renounceRole`, it is the role bearer (i.e. `account`)"
      }
    },
    "kind": "dev",
    "methods": {
      "addLiquidity(address,uint256[],uint256)": {
        "details": "Adds liquidity to a Curve pool.",
        "params": {
          "amounts": "The amounts of tokens to add as liquidity",
          "minMintAmount": "The minimum amount of LP tokens to receive",
          "poolAddress": "The address of the Curve pool"
        },
        "returns": {
          "_0": "The amount of LP tokens received"
        }
      },
      "allowCollateral(address)": {
        "params": {
          "collateralAsset": "The address of the collateral asset"
        }
      },
      "allowCollaterals(address[])": {
        "details": "Helper for allowing multiple collateral tokens.",
        "params": {
          "tokens": "An array of token addresses to be added as collateral."
        }
      },
      "approveAmoManager()": {
        "details": "Only callable by the contract owner or an account with the DEFAULT_ADMIN_ROLE"
      },
      "assetAmountFromValue(uint256,address)": {
        "params": {
          "asset": "The address of the asset",
          "usdValue": "The USD value"
        },
        "returns": {
          "assetAmount": "The amount of the asset"
        }
      },
      "assetValueFromAmount(uint256,address)": {
        "params": {
          "asset": "The address of the asset",
          "assetAmount": "The amount of the asset"
        },
        "returns": {
          "usdValue": "The USD value of the asset"
        }
      },
      "constructor": {
        "params": {
          "_admin": "Address of the admin",
          "_amoManager": "Address of the AMO manager",
          "_amoTrader": "Address allowed to perform AMO trading operations",
          "_collateralWithdrawer": "Address allowed to withdraw collateral",
          "_dusd": "Address of the DUSD token",
          "_oracle": "Address of the price oracle",
          "_recoverer": "Address allowed to recover tokens",
          "_router": "Address of the Curve Router NG"
        }
      },
      "deposit(uint256,address)": {
        "params": {
          "collateralAmount": "The amount of collateral to deposit",
          "collateralAsset": "The address of the collateral asset"
        }
      },
      "depositFrom(address,uint256,address)": {
        "params": {
          "collateralAmount": "The amount of collateral to deposit",
          "collateralAsset": "The address of the collateral asset",
          "depositer": "The address providing the collateral"
        }
      },
      "disallowCollateral(address)": {
        "details": "Requires at least one collateral asset to remain supported",
        "params": {
          "collateralAsset": "The address of the collateral asset to disallow"
        }
      },
      "disallowCollaterals(address[])": {
        "details": "Helper for disallowing multiple collateral tokens.",
        "params": {
          "tokens": "An array of token addresses to be removed from collateral."
        }
      },
      "getAllLpTokens()": {
        "returns": {
          "_0": "An array of all LP token addresses."
        }
      },
      "getExpectedInput(address[11],uint256[4][5],uint256)": {
        "params": {
          "amountOut": "The desired amount of output tokens",
          "route": "Array of token addresses representing the swap path",
          "swapParams": "Array of swap parameters for each hop"
        },
        "returns": {
          "_0": "uint256 The expected amount of input tokens required"
        }
      },
      "getExpectedOutput(address[11],uint256[4][5],uint256)": {
        "params": {
          "amountIn": "The amount of input tokens",
          "route": "Array of token addresses representing the swap path",
          "swapParams": "Array of swap parameters for each hop"
        },
        "returns": {
          "_0": "uint256 The expected amount of output tokens"
        }
      },
      "getLpTokenCount()": {
        "returns": {
          "_0": "The number of LP tokens."
        }
      },
      "getRoleAdmin(bytes32)": {
        "details": "Returns the admin role that controls `role`. See {grantRole} and {revokeRole}. To change a role's admin, use {_setRoleAdmin}."
      },
      "grantRole(bytes32,address)": {
        "details": "Grants `role` to `account`. If `account` had not been already granted `role`, emits a {RoleGranted} event. Requirements: - the caller must have ``role``'s admin role. May emit a {RoleGranted} event."
      },
      "hasLpToken(address)": {
        "params": {
          "lpToken": "The LP token address to check."
        },
        "returns": {
          "_0": "True if the LP token is in the set, false otherwise."
        }
      },
      "hasRole(bytes32,address)": {
        "details": "Returns `true` if `account` has been granted `role`."
      },
      "isCollateralSupported(address)": {
        "params": {
          "collateralAsset": "The address of the collateral asset to check"
        },
        "returns": {
          "_0": "bool True if the asset is supported, false otherwise"
        }
      },
      "listCollateral()": {
        "returns": {
          "_0": "address[] Array of collateral asset addresses"
        }
      },
      "recoverERC20(address,address,uint256)": {
        "params": {
          "amount": "The amount of tokens to recover",
          "to": "The address to send the tokens to",
          "token": "The address of the token to recover"
        }
      },
      "recoverETH(address,uint256)": {
        "params": {
          "amount": "The amount of ETH to recover",
          "to": "The address to send the ETH to"
        }
      },
      "removeLiquidity(address,uint256,uint256[])": {
        "details": "Removes liquidity from a Curve pool.",
        "params": {
          "lpTokenAmount": "The amount of LP tokens to burn",
          "minAmounts": "The minimum amounts of tokens to receive",
          "poolAddress": "The address of the Curve pool"
        },
        "returns": {
          "_0": "The amounts of tokens received"
        }
      },
      "removeLiquidityImbalance(address,uint256[],uint256)": {
        "details": "Removes liquidity from a Curve pool imbalanced.",
        "params": {
          "amounts": "The amounts of tokens to withdraw",
          "maxBurnAmount": "The maximum amount of LP tokens to burn",
          "poolAddress": "The address of the Curve pool"
        },
        "returns": {
          "_0": "The actual amount of LP tokens burned"
        }
      },
      "removeLiquidityOneCoin(address,uint256,int128,uint256)": {
        "details": "Removes liquidity from a Curve pool in a single coin.",
        "params": {
          "i": "The index of the coin to receive",
          "lpTokenAmount": "The amount of LP tokens to burn",
          "minAmount": "The minimum amount of tokens to receive",
          "poolAddress": "The address of the Curve pool"
        },
        "returns": {
          "_0": "The amount of tokens received"
        }
      },
      "renounceRole(bytes32,address)": {
        "details": "Revokes `role` from the calling account. Roles are often managed via {grantRole} and {revokeRole}: this function's purpose is to provide a mechanism for accounts to lose their privileges if they are compromised (such as when a trusted device is misplaced). If the calling account had been revoked `role`, emits a {RoleRevoked} event. Requirements: - the caller must be `callerConfirmation`. May emit a {RoleRevoked} event."
      },
      "revokeRole(bytes32,address)": {
        "details": "Revokes `role` from `account`. If `account` had been granted `role`, emits a {RoleRevoked} event. Requirements: - the caller must have ``role``'s admin role. May emit a {RoleRevoked} event."
      },
      "setAmoManager(address)": {
        "details": "Only callable by an account with the DEFAULT_ADMIN_ROLE",
        "params": {
          "_newAmoManager": "The address of the new AmoManager"
        }
      },
      "setBaseCurrencyUnit(uint256)": {
        "details": "Only used if the oracle's base currency unit changes",
        "params": {
          "_newBaseCurrencyUnit": "The new base currency unit to set"
        }
      },
      "setOracle(address)": {
        "params": {
          "newOracle": "The new oracle to use"
        }
      },
      "supportsInterface(bytes4)": {
        "details": "See {IERC165-supportsInterface}."
      },
      "swapExactIn(address[11],uint256[4][5],uint256,uint256)": {
        "params": {
          "amountIn": "The exact amount of input tokens to swap",
          "minAmountOut": "The minimum amount of output tokens to receive",
          "route": "Array of token addresses representing the swap path",
          "swapParams": "Array of swap parameters for each hop"
        },
        "returns": {
          "_0": "uint256 The amount of output tokens received"
        }
      },
      "totalCollateralValue()": {
        "details": "Calculates the total collateral value of the vault.",
        "returns": {
          "_0": "The total collateral value in BASE_CURRENCY_UNIT."
        }
      },
      "totalDusdValue()": {
        "returns": {
          "_0": "The total value of dUSD in the vault, denominated in the base value (e.g., USD)"
        }
      },
      "totalValue()": {
        "returns": {
          "_0": "The total value of the vault, denominated in the base value (e.g., USD)"
        }
      },
      "withdraw(uint256,address)": {
        "params": {
          "collateralAmount": "The amount of collateral to withdraw",
          "collateralAsset": "The address of the collateral asset"
        }
      },
      "withdrawTo(address,uint256,address)": {
        "params": {
          "collateralAmount": "The amount of collateral to withdraw",
          "collateralAsset": "The address of the collateral asset",
          "recipient": "The address receiving the collateral"
        }
      }
    },
    "title": "CurveStableSwapNGAmoVault",
    "version": 1
  },
  "userdoc": {
    "kind": "user",
    "methods": {
      "allowCollateral(address)": {
        "notice": "Allows a new collateral asset"
      },
      "approveAmoManager()": {
        "notice": "Approves the AmoManager to spend dUSD on behalf of this contract"
      },
      "assetAmountFromValue(uint256,address)": {
        "notice": "Calculates the amount of an asset that corresponds to a given USD value"
      },
      "assetValueFromAmount(uint256,address)": {
        "notice": "Calculates the USD value of a given amount of an asset"
      },
      "constructor": {
        "notice": "Initializes the CurveStableSwapNGAmoVault"
      },
      "deposit(uint256,address)": {
        "notice": "Deposit collateral into the vault"
      },
      "depositFrom(address,uint256,address)": {
        "notice": "Deposit collateral into the vault from a specific address"
      },
      "disallowCollateral(address)": {
        "notice": "Disallows a previously supported collateral asset"
      },
      "getAllLpTokens()": {
        "notice": "Returns a list of all LP token addresses."
      },
      "getExpectedInput(address[11],uint256[4][5],uint256)": {
        "notice": "Gets the expected input amount for a desired output amount"
      },
      "getExpectedOutput(address[11],uint256[4][5],uint256)": {
        "notice": "Gets the expected output amount for a swap with exact input"
      },
      "getLpTokenCount()": {
        "notice": "Returns the number of LP token positions."
      },
      "hasLpToken(address)": {
        "notice": "Checks if the given LP token is in the set."
      },
      "isCollateralSupported(address)": {
        "notice": "Checks if a given asset is supported as collateral"
      },
      "listCollateral()": {
        "notice": "Returns a list of all supported collateral assets"
      },
      "recoverERC20(address,address,uint256)": {
        "notice": "Recovers ERC20 tokens accidentally sent to the contract"
      },
      "recoverETH(address,uint256)": {
        "notice": "Recovers ETH accidentally sent to the contract"
      },
      "setAmoManager(address)": {
        "notice": "Sets a new AmoManager address"
      },
      "setBaseCurrencyUnit(uint256)": {
        "notice": "Updates the base currency unit used for price calculations"
      },
      "setOracle(address)": {
        "notice": "Sets the oracle to use for collateral valuation"
      },
      "swapExactIn(address[11],uint256[4][5],uint256,uint256)": {
        "notice": "Executes a swap with exact input amount on Curve"
      },
      "totalDusdValue()": {
        "notice": "Calculates the total value of dUSD in the vault"
      },
      "totalValue()": {
        "notice": "Calculates the total value of the vault"
      },
      "withdraw(uint256,address)": {
        "notice": "Withdraws collateral from the vault"
      },
      "withdrawTo(address,uint256,address)": {
        "notice": "Withdraws collateral from the vault to a specific address"
      }
    },
    "notice": "Implementation of AmoVault for Curve StableSwap NG pools",
    "version": 1
  },
  "storageLayout": {
    "storage": [
      {
        "astId": 26,
        "contract": "contracts/dusd/CurveStableSwapNGAmoVault.sol:CurveStableSwapNGAmoVault",
        "label": "_roles",
        "offset": 0,
        "slot": "0",
        "type": "t_mapping(t_bytes32,t_struct(RoleData)21_storage)"
      },
      {
        "astId": 6203,
        "contract": "contracts/dusd/CurveStableSwapNGAmoVault.sol:CurveStableSwapNGAmoVault",
        "label": "oracle",
        "offset": 0,
        "slot": "1",
        "type": "t_contract(IPriceOracleGetter)6309"
      },
      {
        "astId": 6205,
        "contract": "contracts/dusd/CurveStableSwapNGAmoVault.sol:CurveStableSwapNGAmoVault",
        "label": "baseCurrencyUnit",
        "offset": 0,
        "slot": "2",
        "type": "t_uint256"
      },
      {
        "astId": 4754,
        "contract": "contracts/dusd/CurveStableSwapNGAmoVault.sol:CurveStableSwapNGAmoVault",
        "label": "_supportedCollaterals",
        "offset": 0,
        "slot": "3",
        "type": "t_struct(AddressSet)2637_storage"
      },
      {
        "astId": 1102,
        "contract": "contracts/dusd/CurveStableSwapNGAmoVault.sol:CurveStableSwapNGAmoVault",
        "label": "_status",
        "offset": 0,
        "slot": "5",
        "type": "t_uint256"
      },
      {
        "astId": 4526,
        "contract": "contracts/dusd/CurveStableSwapNGAmoVault.sol:CurveStableSwapNGAmoVault",
        "label": "amoManager",
        "offset": 0,
        "slot": "6",
        "type": "t_contract(AmoManager)4470"
      },
      {
        "astId": 5262,
        "contract": "contracts/dusd/CurveStableSwapNGAmoVault.sol:CurveStableSwapNGAmoVault",
        "label": "_lpTokens",
        "offset": 0,
        "slot": "7",
        "type": "t_struct(AddressSet)2637_storage"
      }
    ],
    "types": {
      "t_address": {
        "encoding": "inplace",
        "label": "address",
        "numberOfBytes": "20"
      },
      "t_array(t_bytes32)dyn_storage": {
        "base": "t_bytes32",
        "encoding": "dynamic_array",
        "label": "bytes32[]",
        "numberOfBytes": "32"
      },
      "t_bool": {
        "encoding": "inplace",
        "label": "bool",
        "numberOfBytes": "1"
      },
      "t_bytes32": {
        "encoding": "inplace",
        "label": "bytes32",
        "numberOfBytes": "32"
      },
      "t_contract(AmoManager)4470": {
        "encoding": "inplace",
        "label": "contract AmoManager",
        "numberOfBytes": "20"
      },
      "t_contract(IPriceOracleGetter)6309": {
        "encoding": "inplace",
        "label": "contract IPriceOracleGetter",
        "numberOfBytes": "20"
      },
      "t_mapping(t_address,t_bool)": {
        "encoding": "mapping",
        "key": "t_address",
        "label": "mapping(address => bool)",
        "numberOfBytes": "32",
        "value": "t_bool"
      },
      "t_mapping(t_bytes32,t_struct(RoleData)21_storage)": {
        "encoding": "mapping",
        "key": "t_bytes32",
        "label": "mapping(bytes32 => struct AccessControl.RoleData)",
        "numberOfBytes": "32",
        "value": "t_struct(RoleData)21_storage"
      },
      "t_mapping(t_bytes32,t_uint256)": {
        "encoding": "mapping",
        "key": "t_bytes32",
        "label": "mapping(bytes32 => uint256)",
        "numberOfBytes": "32",
        "value": "t_uint256"
      },
      "t_struct(AddressSet)2637_storage": {
        "encoding": "inplace",
        "label": "struct EnumerableSet.AddressSet",
        "members": [
          {
            "astId": 2636,
            "contract": "contracts/dusd/CurveStableSwapNGAmoVault.sol:CurveStableSwapNGAmoVault",
            "label": "_inner",
            "offset": 0,
            "slot": "0",
            "type": "t_struct(Set)2322_storage"
          }
        ],
        "numberOfBytes": "64"
      },
      "t_struct(RoleData)21_storage": {
        "encoding": "inplace",
        "label": "struct AccessControl.RoleData",
        "members": [
          {
            "astId": 18,
            "contract": "contracts/dusd/CurveStableSwapNGAmoVault.sol:CurveStableSwapNGAmoVault",
            "label": "hasRole",
            "offset": 0,
            "slot": "0",
            "type": "t_mapping(t_address,t_bool)"
          },
          {
            "astId": 20,
            "contract": "contracts/dusd/CurveStableSwapNGAmoVault.sol:CurveStableSwapNGAmoVault",
            "label": "adminRole",
            "offset": 0,
            "slot": "1",
            "type": "t_bytes32"
          }
        ],
        "numberOfBytes": "64"
      },
      "t_struct(Set)2322_storage": {
        "encoding": "inplace",
        "label": "struct EnumerableSet.Set",
        "members": [
          {
            "astId": 2317,
            "contract": "contracts/dusd/CurveStableSwapNGAmoVault.sol:CurveStableSwapNGAmoVault",
            "label": "_values",
            "offset": 0,
            "slot": "0",
            "type": "t_array(t_bytes32)dyn_storage"
          },
          {
            "astId": 2321,
            "contract": "contracts/dusd/CurveStableSwapNGAmoVault.sol:CurveStableSwapNGAmoVault",
            "label": "_positions",
            "offset": 0,
            "slot": "1",
            "type": "t_mapping(t_bytes32,t_uint256)"
          }
        ],
        "numberOfBytes": "64"
      },
      "t_uint256": {
        "encoding": "inplace",
        "label": "uint256",
        "numberOfBytes": "32"
      }
    }
  }
}