{
  "address": "0xC32F2a476e7591089D3e222F19fE588197B797aF",
  "abi": [
    {
      "inputs": [
        {
          "internalType": "uint256",
          "name": "amountIn",
          "type": "uint256"
        },
        {
          "internalType": "uint256",
          "name": "maxAmountIn",
          "type": "uint256"
        }
      ],
      "name": "InputAmountExceedsMaximum",
      "type": "error"
    },
    {
      "inputs": [
        {
          "internalType": "bytes",
          "name": "data",
          "type": "bytes"
        }
      ],
      "name": "decodeCurveSwapExtraParams",
      "outputs": [
        {
          "components": [
            {
              "internalType": "address[11]",
              "name": "route",
              "type": "address[11]"
            },
            {
              "internalType": "uint256[4][5]",
              "name": "swapParams",
              "type": "uint256[4][5]"
            },
            {
              "internalType": "uint256",
              "name": "swapSlippageBufferBps",
              "type": "uint256"
            }
          ],
          "internalType": "struct CurveHelper.CurveSwapExtraParams",
          "name": "_swapExtraParams",
          "type": "tuple"
        }
      ],
      "stateMutability": "pure",
      "type": "function"
    },
    {
      "inputs": [
        {
          "internalType": "address[11]",
          "name": "route",
          "type": "address[11]"
        }
      ],
      "name": "getLastTokenInRoute",
      "outputs": [
        {
          "internalType": "address",
          "name": "",
          "type": "address"
        }
      ],
      "stateMutability": "pure",
      "type": "function"
    }
  ],
  "transactionHash": "0x8970d5eafb283f7bc47b77c276042e7b396fc48feb9ca4cc594397b1170831b3",
  "args": [],
  "numDeployments": 1,
  "solcInputHash": "c5bdcb9de6a27bcda5a00bc2d8dce9a2",
  "bytecode": "0x6080806040523461001d57610c9690816100238239308161038b0152f35b600080fdfe60806040908082526004908136101561001757600080fd5b600090813560e01c9081633fff811314610384575080636d5fe7ce146103085763fd47dd581461004657600080fd5b602090816003193601126103055782359167ffffffffffffffff9384841161030157366023850112156103015783810135948086116102ee57865196601f96610097818901601f191686018a6105f4565b8089528489019636602483830101116102ea5781879260248893018a378a0101528051906060820192828410908411176102d7578281526100d783610589565b610160928336823782528482019181516100f0816105bc565b86885b60a081106102bb5750508352818101978789528a518b01998b888c019b6104009d8e9103126102b7578b603f820112156102b75784519b6101338d610589565b8c61018083019482861161028c57905b8582106102945750508061019f83011215610290578551939291908e610168866105bc565b8592019381851161028c57908e9695949392919a999a915b84831061021a5750505050518a528452525196878587915b600b83106101fa575050505051918601919084925b600584106101c157888888516103e0820152f35b8483518288905b8582106101e3575050506080600192019301930192916101ad565b9280839460019394518152019301910187926101c8565b83516001600160a01b031681529281019260019290920191879101610198565b90838382949596979899509c9b9c01121561028c57875161023a816105d8565b806080850184811161028857918e9286949294905b808210610270575050608093508152019201908e96959493929a999a610180565b919381939581925181520192018f939194929461024f565b8f80fd5b8c80fd5b8a80fd5b81516001600160a01b03811681036102b3578152908b01908b01610143565b8d80fd5b8980fd5b84516102c6816105d8565b6080368237818401520187906100f3565b634e487b7160e01b865260418452602486fd5b8680fd5b634e487b7160e01b845260418252602484fd5b8280fd5b80fd5b5082906101603660031901126103055736602312156103055781519261032d84610589565b83916101649136831161038057925b8284106103605760208561034f88610660565b90516001600160a01b039091168152f35b83356001600160a01b03811681036103015781526020938401930161033c565b5080fd5b84915083307f00000000000000000000000000000000000000000000000000000000000000001461056c5761086036600319011261056c576001600160a01b039390358481168103610380573660431215610380576103e283610589565b6101849183368411610380576024905b848210610570575050366101a3121561030557845195610411876105bc565b866104049436861161056c57905b85821061051c5750503661042312156103805785519061043e82610589565b81906105649536871161051857915b8683106104ff575050503661058312156103805785519161046d836105bc565b826107e49536871161030157905b8682106104ab576020896104a48c8b8b8b8b8b61084435956108243595610804359535946107cc565b9051908152f35b36601f830112156103015788516104c1816105d8565b80608084013681116104fb5784915b8183106104eb5750505081602091608093520191019061047b565b82358152602092830192016104d0565b8580fd5b823582811681036104fb5781526020928301920161044d565b8480fd5b36601f8301121561056c578751610532816105d8565b80608084013681116102ea5784915b81831061055c5750505081602091608093520191019061041f565b8235815260209283019201610541565b8380fd5b8135888116810361056c578152602091820191016103f2565b610160810190811067ffffffffffffffff8211176105a657604052565b634e487b7160e01b600052604160045260246000fd5b60a0810190811067ffffffffffffffff8211176105a657604052565b6080810190811067ffffffffffffffff8211176105a657604052565b90601f8019910116810190811067ffffffffffffffff8211176105a657604052565b9190820391821161062357565b634e487b7160e01b600052601160045260246000fd5b90600b81101561064a5760051b0190565b634e487b7160e01b600052603260045260246000fd5b90600a5b6001600160a01b03806106778386610639565b51166106a25750801561068d5760001901610664565b60246000634e487b7160e01b81526011600452fd5b9192906106ae91610639565b511690565b6000915b600b83106106c457505050565b81516001600160a01b0316815260019290920191602091820191016106b7565b9060009182915b600583106106f95750505050565b815184825b6004821061071c5750505060206080600192019201920191906106eb565b6001908351815260208091019301910190916106fe565b6107576103e09295949361074c836104008101986106b3565b6101608301906106e4565b0152565b8181029291811591840414171561062357565b90816020910312610786575180151581036107865790565b600080fd5b9390959491926107b2610420946107a78761044081019a6106b3565b6101608701906106e4565b6103e08501526104008401526001600160a01b0316910152565b8151604051637b5e2c7b60e01b81526001600160a01b03909116989297949694959194919392916020828061080686888e60048501610733565b03816001600160a01b038a165afa9182156109ca57600092610c2c575b50620f4240019081620f42401161062357620f4240916108429161075b565b046040516370a0823160e01b81523060048201526020816024818d5afa9081156109ca57600091610bfa575b50808211610bf2575b50898111610bd4576040516370a0823160e01b81523060048201529960208b6024818d5afa9a8b156109ca5760009b610b9f575b5060405163095ea7b360e01b8082526001600160a01b03881660048301526024820192909252909392919060208160448160008f5af180156109ca578a926020928592610b82575b506109166040519485938493633f51256760e21b998a865230936004870161078b565b038160006001600160a01b038b165af19081156109ca57600091610b4e575b509061094091610616565b94856109d6575b50505050505050506020602491604051928380926370a0823160e01b82523060048301525afa9081156109ca57600091610998575b50818110156109915761098e91610616565b90565b5050600090565b906020823d6020116109c2575b816109b2602093836105f4565b810103126103055750513861097c565b3d91506109a5565b6040513d6000823e3d90fd5b6040516308f109c360e11b815290602082806109f78a898d60048501610733565b03816001600160a01b038a165afa9182156109ca57600092610b1a575b50620f424003620f4240811161062357610a34620f42409160209361075b565b04976001600160a01b0390610a4890610660565b6040519485526001600160a01b03871660048601526024850188905284916044918391600091165af180156109ca57602096600093610a9e92610aed575b5060405198899788968795865230936004870161078b565b03926001600160a01b03165af180156109ca57610ac2575b80808080808080610947565b602090813d8311610ae6575b610ad881836105f4565b810103126107865738610ab6565b503d610ace565b610b0c90893d8b11610b13575b610b0481836105f4565b81019061076e565b5038610a86565b503d610afa565b90916020823d602011610b46575b81610b35602093836105f4565b810103126103055750519038610a14565b3d9150610b28565b906020823d602011610b7a575b81610b68602093836105f4565b81010312610305575051610940610935565b3d9150610b5b565b610b9890843d8611610b1357610b0481836105f4565b50386108f3565b909a6020823d602011610bcc575b81610bba602093836105f4565b810103126103055750519960006108ab565b3d9150610bad565b6044908a604051916334398dcf60e01b835260048301526024820152fd5b905038610877565b906020823d602011610c24575b81610c14602093836105f4565b810103126103055750513861086e565b3d9150610c07565b90916020823d602011610c58575b81610c47602093836105f4565b810103126103055750519038610823565b3d9150610c3a56fea26469706673582212200032fda758825f3367722947d71ecffef25967cc85edb6707891c84ddb699ffd64736f6c63430008140033",
  "devdoc": {
    "kind": "dev",
    "methods": {},
    "version": 1
  },
  "userdoc": {
    "kind": "user",
    "methods": {
      "getLastTokenInRoute(address[11])": {
        "notice": "Get the last non-zero token in the route"
      }
    },
    "version": 1
  },
  "storageLayout": {
    "storage": [],
    "types": null
  }
}