{
  "address": "0xd05a3e8d7d39b5Ce0AC6A849e359CC895F32Bd61",
  "abi": [
    {
      "inputs": [
        {
          "internalType": "address",
          "name": "pool",
          "type": "address"
        }
      ],
      "stateMutability": "nonpayable",
      "type": "constructor"
    },
    {
      "inputs": [],
      "name": "AccessControlBadConfirmation",
      "type": "error"
    },
    {
      "inputs": [
        {
          "internalType": "address",
          "name": "account",
          "type": "address"
        },
        {
          "internalType": "bytes32",
          "name": "neededRole",
          "type": "bytes32"
        }
      ],
      "name": "AccessControlUnauthorizedAccount",
      "type": "error"
    },
    {
      "anonymous": false,
      "inputs": [
        {
          "indexed": true,
          "internalType": "bytes32",
          "name": "role",
          "type": "bytes32"
        },
        {
          "indexed": true,
          "internalType": "bytes32",
          "name": "previousAdminRole",
          "type": "bytes32"
        },
        {
          "indexed": true,
          "internalType": "bytes32",
          "name": "newAdminRole",
          "type": "bytes32"
        }
      ],
      "name": "RoleAdminChanged",
      "type": "event"
    },
    {
      "anonymous": false,
      "inputs": [
        {
          "indexed": true,
          "internalType": "bytes32",
          "name": "role",
          "type": "bytes32"
        },
        {
          "indexed": true,
          "internalType": "address",
          "name": "account",
          "type": "address"
        },
        {
          "indexed": true,
          "internalType": "address",
          "name": "sender",
          "type": "address"
        }
      ],
      "name": "RoleGranted",
      "type": "event"
    },
    {
      "anonymous": false,
      "inputs": [
        {
          "indexed": true,
          "internalType": "bytes32",
          "name": "role",
          "type": "bytes32"
        },
        {
          "indexed": true,
          "internalType": "address",
          "name": "account",
          "type": "address"
        },
        {
          "indexed": true,
          "internalType": "address",
          "name": "sender",
          "type": "address"
        }
      ],
      "name": "RoleRevoked",
      "type": "event"
    },
    {
      "inputs": [],
      "name": "DEFAULT_ADMIN_ROLE",
      "outputs": [
        {
          "internalType": "bytes32",
          "name": "",
          "type": "bytes32"
        }
      ],
      "stateMutability": "view",
      "type": "function"
    },
    {
      "inputs": [],
      "name": "POOL",
      "outputs": [
        {
          "internalType": "contract IPool",
          "name": "",
          "type": "address"
        }
      ],
      "stateMutability": "view",
      "type": "function"
    },
    {
      "inputs": [
        {
          "internalType": "address[]",
          "name": "sources",
          "type": "address[]"
        },
        {
          "internalType": "address[]",
          "name": "addresses",
          "type": "address[]"
        }
      ],
      "name": "batchTokenBalances",
      "outputs": [
        {
          "internalType": "uint256[]",
          "name": "result",
          "type": "uint256[]"
        }
      ],
      "stateMutability": "view",
      "type": "function"
    },
    {
      "inputs": [
        {
          "internalType": "address",
          "name": "",
          "type": "address"
        }
      ],
      "name": "externalSourceToDToken",
      "outputs": [
        {
          "internalType": "address",
          "name": "",
          "type": "address"
        }
      ],
      "stateMutability": "view",
      "type": "function"
    },
    {
      "inputs": [
        {
          "internalType": "bytes32",
          "name": "role",
          "type": "bytes32"
        }
      ],
      "name": "getRoleAdmin",
      "outputs": [
        {
          "internalType": "bytes32",
          "name": "",
          "type": "bytes32"
        }
      ],
      "stateMutability": "view",
      "type": "function"
    },
    {
      "inputs": [
        {
          "internalType": "bytes32",
          "name": "role",
          "type": "bytes32"
        },
        {
          "internalType": "address",
          "name": "account",
          "type": "address"
        }
      ],
      "name": "grantRole",
      "outputs": [],
      "stateMutability": "nonpayable",
      "type": "function"
    },
    {
      "inputs": [
        {
          "internalType": "bytes32",
          "name": "role",
          "type": "bytes32"
        },
        {
          "internalType": "address",
          "name": "account",
          "type": "address"
        }
      ],
      "name": "hasRole",
      "outputs": [
        {
          "internalType": "bool",
          "name": "",
          "type": "bool"
        }
      ],
      "stateMutability": "view",
      "type": "function"
    },
    {
      "inputs": [
        {
          "internalType": "address",
          "name": "externalToken",
          "type": "address"
        },
        {
          "internalType": "address",
          "name": "dToken",
          "type": "address"
        }
      ],
      "name": "mapExternalSource",
      "outputs": [],
      "stateMutability": "nonpayable",
      "type": "function"
    },
    {
      "inputs": [
        {
          "internalType": "bytes32",
          "name": "role",
          "type": "bytes32"
        },
        {
          "internalType": "address",
          "name": "callerConfirmation",
          "type": "address"
        }
      ],
      "name": "renounceRole",
      "outputs": [],
      "stateMutability": "nonpayable",
      "type": "function"
    },
    {
      "inputs": [
        {
          "internalType": "bytes32",
          "name": "role",
          "type": "bytes32"
        },
        {
          "internalType": "address",
          "name": "account",
          "type": "address"
        }
      ],
      "name": "revokeRole",
      "outputs": [],
      "stateMutability": "nonpayable",
      "type": "function"
    },
    {
      "inputs": [
        {
          "internalType": "bytes4",
          "name": "interfaceId",
          "type": "bytes4"
        }
      ],
      "name": "supportsInterface",
      "outputs": [
        {
          "internalType": "bool",
          "name": "",
          "type": "bool"
        }
      ],
      "stateMutability": "view",
      "type": "function"
    },
    {
      "inputs": [
        {
          "internalType": "address",
          "name": "token",
          "type": "address"
        },
        {
          "internalType": "address[]",
          "name": "addresses",
          "type": "address[]"
        }
      ],
      "name": "tokenBalances",
      "outputs": [
        {
          "internalType": "uint256[]",
          "name": "result",
          "type": "uint256[]"
        }
      ],
      "stateMutability": "view",
      "type": "function"
    }
  ],
  "transactionHash": "0x22fc5a7ed14a914449f27f5aa14c94482525019ff49cce23a1c1a2c02c1af5b4",
  "args": [
    "0xa7e750C73DE7d19f06D956d704A39fdDfE99D9ea"
  ],
  "numDeployments": 1,
  "solcInputHash": "3c0e8ba762ff337a350bd26cf5835c71",
  "bytecode": "0x60a0346100dd57601f6114d138819003918201601f19168301916001600160401b038311848410176100e2578084926020946040528339810103126100dd57516001600160a01b038116908190036100dd57801561009857608052610063336100f8565b50604051611348908161018982396080518181816103ab0152818161078f01528181610887015281816109bf0152610f550152f35b60405162461bcd60e51b815260206004820152601460248201527f494e56414c49445f504f4f4c5f414444524553530000000000000000000000006044820152606490fd5b600080fd5b634e487b7160e01b600052604160045260246000fd5b6001600160a01b031660008181527fad3228b676f7d3cd4284a5443f17f1962b36e491b30a40b2405849e597ba5fb5602052604081205490919060ff1661018457818052816020526040822081835260205260408220600160ff1982541617905533917f2f8788117e7eff1d82e926ec794901d17c78024a50270940304540a733656f0d8180a4600190565b509056fe608080604052600436101561001357600080fd5b60003560e01c90816301ffc9a714610b3057508063248a9ca314610b015780632f2ff15d14610ac257806336568abe14610a7b5780633ad206cc14610a295780634159b10b146109ee5780637535d246146109a957806387d744811461023b57806391d14854146101ee578063a217fddf146101d2578063d547741f146101915763e23bd2ad146100a357600080fd5b3461018c57604036600319011261018c576100bc610b99565b6100c4610b83565b3360009081527fad3228b676f7d3cd4284a5443f17f1962b36e491b30a40b2405849e597ba5fb5602052604090205460ff161561016d576001600160a01b0390811691821561012f5716600090815260016020526040902080546001600160a01b0319169091179055005b60405162461bcd60e51b8152602060048201526016602482015275494e56414c49445f44544f4b454e5f4144445245535360501b6044820152606490fd5b60405163e2517d3f60e01b815233600482015260006024820152604490fd5b600080fd5b3461018c57604036600319011261018c576101d06004356101b0610b83565b908060005260006020526101cb6001604060002001546111db565b61129d565b005b3461018c57600036600319011261018c57602060405160008152f35b3461018c57604036600319011261018c57610207610b83565b600435600052600060205260406000209060018060a01b0316600052602052602060ff604060002054166040519015158152f35b3461018c57604036600319011261018c5767ffffffffffffffff60043581811161018c5761026d903690600401610bff565b9060243590811161018c57610286903690600401610bff565b9080511561096e57906102998151610cab565b916000915b815183101561095c576001600160a01b036102b98484610e9b565b5116906000806000841561094e576040516358b50cef60e11b808252906000906020816004818b5afa60009181610912575b50610909575060005b61085a575b506001600160a01b0384161561070c575b6001600160a01b038416156105b5576040516318160ddd60e01b8152916020836004816001600160a01b0389165afa928315610539576000936106d8575b5082156106c857831561065d57506040519081526020816004816001600160a01b0388165afa90811561053957600091610623575b506040516335ea6a7560e01b81526001600160a01b039182166004820152906101e0908190839060249082907f0000000000000000000000000000000000000000000000000000000000000000165afa8015610539576004926020926000926105f6575b5050610140015160405163b1bf962d60e01b815292839182906001600160a01b03165afa908115610539576000916105c4575b505b818110156105b5576104289082610e5b565b90670de0b6b3a7640000820291808304670de0b6b3a764000014901517156104e65761045391610e7b565b9460005b84518110156105a1578215610545576001600160a01b036104788287610e9b565b516040516370a0823160e01b8152911660048201526020816024818a5afa80156105395788916000916104fc575b50670de0b6b3a7640000916104ba91610e68565b04906104c6818b610e9b565b519180830183116104e657600192016104df828c610e9b565b5201610457565b634e487b7160e01b600052601160045260246000fd5b9150506020813d602011610531575b8161051860209383610baf565b8101031261018c57518790670de0b6b3a76400006104a6565b3d915061050b565b6040513d6000823e3d90fd5b6001600160a01b036105578287610e9b565b516040516370a0823160e01b8152911660048201526020816024816001600160a01b0389165afa80156105395788916000916104fc5750670de0b6b3a7640000916104ba91610e68565b50959294505050600191505b01919061029e565b505050509192600191506105ad565b90506020813d6020116105ee575b816105df60209383610baf565b8101031261018c575189610414565b3d91506105d2565b6106159250803d1061061c575b61060d8183610baf565b810190610d0e565b8b806103e1565b503d610603565b90506020813d602011610655575b8161063e60209383610baf565b8101031261018c5761064f90610cdd565b8961037d565b3d9150610631565b60405163b1bf962d60e01b81529150602090829060049082906001600160a01b03165afa90811561053957600091610696575b50610416565b90506020813d6020116106c0575b816106b160209383610baf565b8101031261018c575189610690565b3d91506106a4565b50505050509192600191506105ad565b9092506020813d602011610704575b816106f460209383610baf565b8101031261018c5751918a610348565b3d91506106e7565b6000868152600160208190526040909120546001600160a01b031680610734575b505061030a565b6000604051848152602081600481865afa6000918161081e575b50610816575060005b610762575b5061072d565b6040516335ea6a7560e01b81526001600160a01b039182166004820152906101e0908190839060249082907f0000000000000000000000000000000000000000000000000000000000000000165afa9182916000936107f7575b50501561075c576101008101516001600160a01b031682900361075c5761014001519095509093506001600160a01b0316915089808061075c565b61080e929350803d1061061c5761060d8183610baf565b908d806107bc565b905082610757565b9091506020813d602011610852575b8161083a60209383610baf565b8101031261018c5761084b90610cdd565b908e61074e565b3d915061082d565b6040516335ea6a7560e01b81526001600160a01b039182166004820152906101e0908190839060249082907f0000000000000000000000000000000000000000000000000000000000000000165afa9182916000936108ea575b5050156102f9576101008101516001600160a01b03168790036102f95761014001518694506001600160a01b03169150896102f9565b610901929350803d1061061c5761060d8183610baf565b908b806108b4565b905060016102f4565b9091506020813d602011610946575b8161092e60209383610baf565b8101031261018c5761093f90610cdd565b908c6102eb565b3d9150610921565b5050509192600191506105ad565b6040518061096a8682610c6f565b0390f35b60405162461bcd60e51b81526020600482015260136024820152721393d7d4d3d55490d154d7d41493d592511151606a1b6044820152606490fd5b3461018c57600036600319011261018c576040517f00000000000000000000000000000000000000000000000000000000000000006001600160a01b03168152602090f35b3461018c57602036600319011261018c5760206001600160a01b0380610a12610b99565b166000526001825260406000205416604051908152f35b3461018c57604036600319011261018c57610a42610b99565b60243567ffffffffffffffff811161018c5761096a91610a69610a6f923690600401610bff565b90610ec5565b60405191829182610c6f565b3461018c57604036600319011261018c57610a94610b83565b336001600160a01b03821603610ab0576101d09060043561129d565b60405163334bd91960e11b8152600490fd5b3461018c57604036600319011261018c576101d0600435610ae1610b83565b90806000526000602052610afc6001604060002001546111db565b61121f565b3461018c57602036600319011261018c5760043560005260006020526020600160406000200154604051908152f35b3461018c57602036600319011261018c576004359063ffffffff60e01b821680920361018c57602091637965db0b60e01b8114908115610b72575b5015158152f35b6301ffc9a760e01b14905083610b6b565b602435906001600160a01b038216820361018c57565b600435906001600160a01b038216820361018c57565b90601f8019910116810190811067ffffffffffffffff821117610bd157604052565b634e487b7160e01b600052604160045260246000fd5b67ffffffffffffffff8111610bd15760051b60200190565b9080601f8301121561018c576020908235610c1981610be7565b93610c276040519586610baf565b81855260208086019260051b82010192831161018c57602001905b828210610c50575050505090565b81356001600160a01b038116810361018c578152908301908301610c42565b602090602060408183019282815285518094520193019160005b828110610c97575050505090565b835185529381019392810192600101610c89565b90610cb582610be7565b610cc26040519182610baf565b8281528092610cd3601f1991610be7565b0190602036910137565b51906001600160a01b038216820361018c57565b51906fffffffffffffffffffffffffffffffff8216820361018c57565b6101e09181900382811261018c576040519283019067ffffffffffffffff9084831082841117610bd15760201361018c57610200840190811182821017610bd157604052815181528252610d6460208201610cf1565b6020830152610d7560408201610cf1565b6040830152610d8660608201610cf1565b6060830152610d9760808201610cf1565b6080830152610da860a08201610cf1565b60a083015260c081015164ffffffffff8116810361018c5760c083015260e081015161ffff8116810361018c5760e0830152610100610de8818301610cdd565b90830152610120610dfa818301610cdd565b90830152610140610e0c818301610cdd565b90830152610160610e1e818301610cdd565b90830152610180610e30818301610cf1565b908301526101a0610e42818301610cf1565b90830152610e546101c0809201610cf1565b9082015290565b919082039182116104e657565b818102929181159184041417156104e657565b8115610e85570490565b634e487b7160e01b600052601260045260246000fd5b8051821015610eaf5760209160051b010190565b634e487b7160e01b600052603260045260246000fd5b90610ed08151610cab565b918060009260018060a01b03809216928385526001936020600181528460409381858a205416806111d3575b501680156111c85783516358b50cef60e11b81526004989083818b81865afa82918161118d575b50610f35575050505050505050505090565b85516335ea6a7560e01b8152908816818b0152989a986101e080826024817f00000000000000000000000000000000000000000000000000000000000000008d165afa928315611182578d949386938b936101409392611165575b50500151169186519c8d80926318160ddd60e01b82525afa9a8b1561112b5760009b611136575b508a156110f1578287918387518094819363b1bf962d60e01b8352165afa90811561112b576000916110fe575b508a8110156110f157610ff7908b610e5b565b95670de0b6b3a764000096878102908082048914901517156110dc57889b61101e91610e7b565b9560009b5b611036575b505050505050505050909150565b80518c10156110d7578161104a8d83610e9b565b5187516370a0823160e01b81529116848201528481602481895afa9081156110cc5760009161109c575b508c8c6110928c9d9e9f8c61108b8f968e90610e68565b0492610e9b565b52019b9a99611023565b908582813d83116110c5575b6110b28183610baf565b810103126110c25750518c611074565b80fd5b503d6110a8565b87513d6000823e3d90fd5b611028565b601183634e487b7160e01b6000525260246000fd5b5050505050505050915090565b90508281813d8311611124575b6111158183610baf565b8101031261018c575138610fe4565b503d61110b565b85513d6000823e3d90fd5b909a8382813d831161115e575b61114d8183610baf565b810103126110c25750519938610fb7565b503d611143565b61117b9250803d1061061c5761060d8183610baf565b3880610f90565b8751903d90823e3d90fd5b9091508481813d83116111c1575b6111a58183610baf565b810103126111bd576111b690610cdd565b9038610f23565b8280fd5b503d61119b565b505050505050505090565b905038610efc565b80600052600060205260406000203360005260205260ff60406000205416156112015750565b6044906040519063e2517d3f60e01b82523360048301526024820152fd5b9060009180835282602052604083209160018060a01b03169182845260205260ff6040842054161560001461129857808352826020526040832082845260205260408320600160ff198254161790557f2f8788117e7eff1d82e926ec794901d17c78024a50270940304540a733656f0d339380a4600190565b505090565b9060009180835282602052604083209160018060a01b03169182845260205260ff6040842054166000146112985780835282602052604083208284526020526040832060ff1981541690557ff6391f5c32d9c69d2a47ea670b442974b53935d1edc7fd64eb21e047a839171b339380a460019056fea26469706673582212203f20ad2b70c0e3e9b889d443cac692513d8a0d62d65b5a7776dea7b5101afc9564736f6c63430008180033",
  "devdoc": {
    "author": "dTrinity",
    "details": "The effective balance is the portion of a user's position which is not borrowed against,      calculated as: userBalance * (totalSupply - totalDebt) / totalSupply",
    "errors": {
      "AccessControlBadConfirmation()": [
        {
          "details": "The caller of a function is not the expected one. NOTE: Don't confuse with {AccessControlUnauthorizedAccount}."
        }
      ],
      "AccessControlUnauthorizedAccount(address,bytes32)": [
        {
          "details": "The `account` is missing a role."
        }
      ]
    },
    "events": {
      "RoleAdminChanged(bytes32,bytes32,bytes32)": {
        "details": "Emitted when `newAdminRole` is set as ``role``'s admin role, replacing `previousAdminRole` `DEFAULT_ADMIN_ROLE` is the starting admin for all roles, despite {RoleAdminChanged} not being emitted signaling this."
      },
      "RoleGranted(bytes32,address,address)": {
        "details": "Emitted when `account` is granted `role`. `sender` is the account that originated the contract call, an admin role bearer except when using {AccessControl-_setupRole}."
      },
      "RoleRevoked(bytes32,address,address)": {
        "details": "Emitted when `account` is revoked `role`. `sender` is the account that originated the contract call:   - if using `revokeRole`, it is the admin role bearer   - if using `renounceRole`, it is the role bearer (i.e. `account`)"
      }
    },
    "kind": "dev",
    "methods": {
      "batchTokenBalances(address[],address[])": {
        "params": {
          "addresses": "Array of addresses to check balances for (up to 1000 addresses)",
          "sources": "Array of dLEND token addresses to check balances for"
        },
        "returns": {
          "result": "Array of effective balances (18 decimals) for each address across all sources"
        }
      },
      "constructor": {
        "params": {
          "pool": "The address of the Pool contract"
        }
      },
      "getRoleAdmin(bytes32)": {
        "details": "Returns the admin role that controls `role`. See {grantRole} and {revokeRole}. To change a role's admin, use {_setRoleAdmin}."
      },
      "grantRole(bytes32,address)": {
        "details": "Grants `role` to `account`. If `account` had not been already granted `role`, emits a {RoleGranted} event. Requirements: - the caller must have ``role``'s admin role. May emit a {RoleGranted} event."
      },
      "hasRole(bytes32,address)": {
        "details": "Returns `true` if `account` has been granted `role`."
      },
      "mapExternalSource(address,address)": {
        "params": {
          "dToken": "The address of the corresponding dToken",
          "externalToken": "The address of the external token"
        }
      },
      "renounceRole(bytes32,address)": {
        "details": "Revokes `role` from the calling account. Roles are often managed via {grantRole} and {revokeRole}: this function's purpose is to provide a mechanism for accounts to lose their privileges if they are compromised (such as when a trusted device is misplaced). If the calling account had been revoked `role`, emits a {RoleRevoked} event. Requirements: - the caller must be `callerConfirmation`. May emit a {RoleRevoked} event."
      },
      "revokeRole(bytes32,address)": {
        "details": "Revokes `role` from `account`. If `account` had been granted `role`, emits a {RoleRevoked} event. Requirements: - the caller must have ``role``'s admin role. May emit a {RoleRevoked} event."
      },
      "supportsInterface(bytes4)": {
        "details": "See {IERC165-supportsInterface}."
      },
      "tokenBalances(address,address[])": {
        "params": {
          "addresses": "Array of addresses to check balances for (up to 1000 addresses)",
          "token": "The address of the dLEND token to check balances for"
        },
        "returns": {
          "result": "Array of effective balances (18 decimals) corresponding to the addresses array"
        }
      }
    },
    "title": "dLendBalanceChecker",
    "version": 1
  },
  "userdoc": {
    "kind": "user",
    "methods": {
      "POOL()": {
        "notice": "The Pool contract address"
      },
      "batchTokenBalances(address[],address[])": {
        "notice": "Returns the effective balances for multiple addresses across multiple tokens"
      },
      "externalSourceToDToken(address)": {
        "notice": "Mapping from external token to its corresponding dToken"
      },
      "mapExternalSource(address,address)": {
        "notice": "Maps an external token to its corresponding dToken"
      },
      "tokenBalances(address,address[])": {
        "notice": "Returns the effective balances for multiple addresses for a single token"
      }
    },
    "notice": "Contract for checking effective balances of dLEND tokens",
    "version": 1
  },
  "storageLayout": {
    "storage": [
      {
        "astId": 26,
        "contract": "contracts/dlend/dLendBalanceChecker.sol:dLendBalanceChecker",
        "label": "_roles",
        "offset": 0,
        "slot": "0",
        "type": "t_mapping(t_bytes32,t_struct(RoleData)21_storage)"
      },
      {
        "astId": 472,
        "contract": "contracts/dlend/dLendBalanceChecker.sol:dLendBalanceChecker",
        "label": "externalSourceToDToken",
        "offset": 0,
        "slot": "1",
        "type": "t_mapping(t_address,t_address)"
      }
    ],
    "types": {
      "t_address": {
        "encoding": "inplace",
        "label": "address",
        "numberOfBytes": "20"
      },
      "t_bool": {
        "encoding": "inplace",
        "label": "bool",
        "numberOfBytes": "1"
      },
      "t_bytes32": {
        "encoding": "inplace",
        "label": "bytes32",
        "numberOfBytes": "32"
      },
      "t_mapping(t_address,t_address)": {
        "encoding": "mapping",
        "key": "t_address",
        "label": "mapping(address => address)",
        "numberOfBytes": "32",
        "value": "t_address"
      },
      "t_mapping(t_address,t_bool)": {
        "encoding": "mapping",
        "key": "t_address",
        "label": "mapping(address => bool)",
        "numberOfBytes": "32",
        "value": "t_bool"
      },
      "t_mapping(t_bytes32,t_struct(RoleData)21_storage)": {
        "encoding": "mapping",
        "key": "t_bytes32",
        "label": "mapping(bytes32 => struct AccessControl.RoleData)",
        "numberOfBytes": "32",
        "value": "t_struct(RoleData)21_storage"
      },
      "t_struct(RoleData)21_storage": {
        "encoding": "inplace",
        "label": "struct AccessControl.RoleData",
        "members": [
          {
            "astId": 18,
            "contract": "contracts/dlend/dLendBalanceChecker.sol:dLendBalanceChecker",
            "label": "hasRole",
            "offset": 0,
            "slot": "0",
            "type": "t_mapping(t_address,t_bool)"
          },
          {
            "astId": 20,
            "contract": "contracts/dlend/dLendBalanceChecker.sol:dLendBalanceChecker",
            "label": "adminRole",
            "offset": 0,
            "slot": "1",
            "type": "t_bytes32"
          }
        ],
        "numberOfBytes": "64"
      }
    }
  }
}