{
  "address": "0xD515eb614De9348eF6802ea84695C1975db7D377",
  "abi": [
    {
      "inputs": [
        {
          "internalType": "contract ERC20",
          "name": "_underlyingAsset",
          "type": "address"
        },
        {
          "internalType": "contract ERC20",
          "name": "_dStable",
          "type": "address"
        },
        {
          "internalType": "contract IERC3156FlashLender",
          "name": "_flashLender",
          "type": "address"
        },
        {
          "internalType": "contract DLoopCoreBase",
          "name": "_dLoopCore",
          "type": "address"
        },
        {
          "internalType": "contract ISwapRouter",
          "name": "_swapRouter",
          "type": "address"
        },
        {
          "internalType": "bytes",
          "name": "_defaultDSTABLEToUnderlyingSwapPath",
          "type": "bytes"
        },
        {
          "internalType": "bytes",
          "name": "_defaultUnderlyingToDSTABLESwapPath",
          "type": "bytes"
        },
        {
          "internalType": "uint256",
          "name": "_swapSlippageTolerance",
          "type": "uint256"
        }
      ],
      "stateMutability": "nonpayable",
      "type": "constructor"
    },
    {
      "inputs": [
        {
          "internalType": "address",
          "name": "target",
          "type": "address"
        }
      ],
      "name": "AddressEmptyCode",
      "type": "error"
    },
    {
      "inputs": [
        {
          "internalType": "address",
          "name": "account",
          "type": "address"
        }
      ],
      "name": "AddressInsufficientBalance",
      "type": "error"
    },
    {
      "inputs": [],
      "name": "FailedInnerCall",
      "type": "error"
    },
    {
      "inputs": [
        {
          "internalType": "uint256",
          "name": "received",
          "type": "uint256"
        },
        {
          "internalType": "uint256",
          "name": "expected",
          "type": "uint256"
        }
      ],
      "name": "InsufficientOutput",
      "type": "error"
    },
    {
      "inputs": [
        {
          "internalType": "address",
          "name": "owner",
          "type": "address"
        }
      ],
      "name": "OwnableInvalidOwner",
      "type": "error"
    },
    {
      "inputs": [
        {
          "internalType": "address",
          "name": "account",
          "type": "address"
        }
      ],
      "name": "OwnableUnauthorizedAccount",
      "type": "error"
    },
    {
      "inputs": [
        {
          "internalType": "address",
          "name": "token",
          "type": "address"
        }
      ],
      "name": "SafeERC20FailedOperation",
      "type": "error"
    },
    {
      "inputs": [
        {
          "internalType": "uint256",
          "name": "sharesBeforeWithdraw",
          "type": "uint256"
        },
        {
          "internalType": "uint256",
          "name": "sharesAfterWithdraw",
          "type": "uint256"
        }
      ],
      "name": "SharesNotDecreasedAfterFlashLoan",
      "type": "error"
    },
    {
      "inputs": [
        {
          "internalType": "uint256",
          "name": "underlyingAssetBalanceBefore",
          "type": "uint256"
        },
        {
          "internalType": "uint256",
          "name": "underlyingAssetBalanceAfter",
          "type": "uint256"
        }
      ],
      "name": "UnexpectedDecreaseInUnderlyingAsset",
      "type": "error"
    },
    {
      "inputs": [
        {
          "internalType": "uint256",
          "name": "dStableBalanceBefore",
          "type": "uint256"
        },
        {
          "internalType": "uint256",
          "name": "dStableBalanceAfter",
          "type": "uint256"
        }
      ],
      "name": "UnexpectedIncreaseInDStable",
      "type": "error"
    },
    {
      "inputs": [],
      "name": "UnknownInitiator",
      "type": "error"
    },
    {
      "inputs": [],
      "name": "UnknownLender",
      "type": "error"
    },
    {
      "inputs": [],
      "name": "UnknownToken",
      "type": "error"
    },
    {
      "anonymous": false,
      "inputs": [
        {
          "indexed": true,
          "internalType": "address",
          "name": "previousOwner",
          "type": "address"
        },
        {
          "indexed": true,
          "internalType": "address",
          "name": "newOwner",
          "type": "address"
        }
      ],
      "name": "OwnershipTransferred",
      "type": "event"
    },
    {
      "inputs": [],
      "name": "DEFAULT_DSTABLE_TO_UNDERLYING_SWAP_PATH",
      "outputs": [
        {
          "internalType": "bytes",
          "name": "",
          "type": "bytes"
        }
      ],
      "stateMutability": "view",
      "type": "function"
    },
    {
      "inputs": [],
      "name": "DEFAULT_UNDERLYING_TO_DSTABLE_SWAP_PATH",
      "outputs": [
        {
          "internalType": "bytes",
          "name": "",
          "type": "bytes"
        }
      ],
      "stateMutability": "view",
      "type": "function"
    },
    {
      "inputs": [],
      "name": "FLASHLOAN_CALLBACK",
      "outputs": [
        {
          "internalType": "bytes32",
          "name": "",
          "type": "bytes32"
        }
      ],
      "stateMutability": "view",
      "type": "function"
    },
    {
      "inputs": [],
      "name": "TARGET_LEVERAGE_BPS",
      "outputs": [
        {
          "internalType": "uint32",
          "name": "",
          "type": "uint32"
        }
      ],
      "stateMutability": "view",
      "type": "function"
    },
    {
      "inputs": [],
      "name": "dLoopCore",
      "outputs": [
        {
          "internalType": "contract DLoopCoreBase",
          "name": "",
          "type": "address"
        }
      ],
      "stateMutability": "view",
      "type": "function"
    },
    {
      "inputs": [],
      "name": "dStable",
      "outputs": [
        {
          "internalType": "contract ERC20",
          "name": "",
          "type": "address"
        }
      ],
      "stateMutability": "view",
      "type": "function"
    },
    {
      "inputs": [],
      "name": "flashLender",
      "outputs": [
        {
          "internalType": "contract IERC3156FlashLender",
          "name": "",
          "type": "address"
        }
      ],
      "stateMutability": "view",
      "type": "function"
    },
    {
      "inputs": [
        {
          "internalType": "address",
          "name": "initiator",
          "type": "address"
        },
        {
          "internalType": "address",
          "name": "token",
          "type": "address"
        },
        {
          "internalType": "uint256",
          "name": "",
          "type": "uint256"
        },
        {
          "internalType": "uint256",
          "name": "",
          "type": "uint256"
        },
        {
          "internalType": "bytes",
          "name": "data",
          "type": "bytes"
        }
      ],
      "name": "onFlashLoan",
      "outputs": [
        {
          "internalType": "bytes32",
          "name": "",
          "type": "bytes32"
        }
      ],
      "stateMutability": "nonpayable",
      "type": "function"
    },
    {
      "inputs": [],
      "name": "owner",
      "outputs": [
        {
          "internalType": "address",
          "name": "",
          "type": "address"
        }
      ],
      "stateMutability": "view",
      "type": "function"
    },
    {
      "inputs": [
        {
          "internalType": "uint256",
          "name": "shares",
          "type": "uint256"
        },
        {
          "internalType": "address",
          "name": "receiver",
          "type": "address"
        },
        {
          "internalType": "address",
          "name": "owner",
          "type": "address"
        },
        {
          "internalType": "uint256",
          "name": "slippageTolerance",
          "type": "uint256"
        },
        {
          "internalType": "uint256",
          "name": "minReceiveAmount",
          "type": "uint256"
        },
        {
          "internalType": "bytes",
          "name": "underlyingToDStableSwapData",
          "type": "bytes"
        }
      ],
      "name": "redeem",
      "outputs": [
        {
          "internalType": "uint256",
          "name": "assets",
          "type": "uint256"
        }
      ],
      "stateMutability": "nonpayable",
      "type": "function"
    },
    {
      "inputs": [],
      "name": "renounceOwnership",
      "outputs": [],
      "stateMutability": "nonpayable",
      "type": "function"
    },
    {
      "inputs": [
        {
          "internalType": "address",
          "name": "token",
          "type": "address"
        },
        {
          "internalType": "address",
          "name": "receiver",
          "type": "address"
        }
      ],
      "name": "rescueToken",
      "outputs": [],
      "stateMutability": "nonpayable",
      "type": "function"
    },
    {
      "inputs": [],
      "name": "swapRouter",
      "outputs": [
        {
          "internalType": "contract ISwapRouter",
          "name": "",
          "type": "address"
        }
      ],
      "stateMutability": "view",
      "type": "function"
    },
    {
      "inputs": [
        {
          "internalType": "address",
          "name": "newOwner",
          "type": "address"
        }
      ],
      "name": "transferOwnership",
      "outputs": [],
      "stateMutability": "nonpayable",
      "type": "function"
    },
    {
      "inputs": [],
      "name": "underlyingAsset",
      "outputs": [
        {
          "internalType": "contract ERC20",
          "name": "",
          "type": "address"
        }
      ],
      "stateMutability": "view",
      "type": "function"
    },
    {
      "inputs": [
        {
          "internalType": "uint256",
          "name": "assets",
          "type": "uint256"
        },
        {
          "internalType": "address",
          "name": "receiver",
          "type": "address"
        },
        {
          "internalType": "address",
          "name": "owner",
          "type": "address"
        },
        {
          "internalType": "uint256",
          "name": "slippageTolerance",
          "type": "uint256"
        },
        {
          "internalType": "uint256",
          "name": "minReceiveAmount",
          "type": "uint256"
        },
        {
          "internalType": "bytes",
          "name": "underlyingToDStableSwapData",
          "type": "bytes"
        }
      ],
      "name": "withdraw",
      "outputs": [
        {
          "internalType": "uint256",
          "name": "shares",
          "type": "uint256"
        }
      ],
      "stateMutability": "nonpayable",
      "type": "function"
    }
  ],
  "transactionHash": "0x067e62cd45539a30cb27d0068397009b174d52dc2f241dae84baf5bc437fe888",
  "args": [
    "0x0Dbf64462FEC588df32FC5C9941421F7d93e0Fb3",
    "0x4D6E79013212F10A026A1FB0b926C9Fd0432b96c",
    "0x4D6E79013212F10A026A1FB0b926C9Fd0432b96c",
    "0x64474f3447911DcA644E62A8EED3c422C5B7eFef",
    "0x86fa24508003ee40FBC34385047b665c0Ec9DC55",
    "0x0dbf64462fec588df32fc5c9941421f7d93e0fb3000bb84d6e79013212f10a026a1fb0b926c9fd0432b96c",
    "0x4d6e79013212f10a026a1fb0b926c9fd0432b96c000bb80dbf64462fec588df32fc5c9941421f7d93e0fb3",
    50000
  ],
  "numDeployments": 1,
  "solcInputHash": "37312f1923b08d406aa64339ff67e9c2",
  "bytecode": "0x61014060408181523462000546576200226480380380916200002282866200054b565b84398201906101009283818403126200054657620000408162000585565b9260206200005081840162000585565b848401519093906001600160a01b03808216820362000546576060830151818116908181036200054657608085015199838b168b03620005465760a08601516001600160401b039890898111620005465781620000af9189016200059a565b9860c0880151908111620005465760e091620000cd9189016200059a565b9601519433156200052e5760008054336001600160a01b03198216811783558d519c929a9998978d978b97899791969095919490939192167f8be0079c531659141344cd1fd0a4f28419497f9722a3daafe3b4186f6b6457e08e80a360e05260a05260c0528d526375ba52c960e01b82526004998a915afa90811562000524578591620004df575b5060805260019081556101209788529383855b620003a5575b50508383905b6200026c575b8651611bc790898b836200069d8439608051838181610429015261167d015260a0518381816102a3015281816106f90152611713015260c05183818161048a015281816108b0015281816109bf01528181610a9701528181610b4d01528181610bba01528181610cc50152610e1b015260e051838181610742015281816108fd01528181610a1501528181610ad301528181610c3401528181610ced01528181610df20152818161126001526117360152518281816102e8015281816103480152818161097501528181610b0501528181610bec015281816115ff0152611af40152518181816101780152610d470152f35b81518110156200039f5762000282818362000637565b51600390815462000293816200065f565b680100000000000000008110156200038c57601f918282111562000335576002620002c291018086556200065f565b8082101562000322579087620003009695949392106000146200030757811690039160ff81935b8454921b9260f81c831b921b191617905562000611565b8462000174565b929060ff90828a5280898b208660051c0195169003620002e9565b634e487b7160e01b895260328b52602489fd5b906200030095949360ff60f81b16891a9281601f146200036d579060029103841b9260ff908116841b931b1991011617905562000611565b5050829160419389528789209160ff19169060ff161790555562000611565b634e487b7160e01b885260418a52602488fd5b6200017a565b8151811015620004d957620003bb818362000637565b516002908154620003cc816200065f565b68010000000000000000811015620004c657601f918a838311156200046c575084620003fc91018086556200065f565b808210156200045957918a96959391896200043b9694106000146200044357811690035b60ff83549160031b9260f81c831b921b191617905562000611565b909162000168565b928a5280898b208460051c019316900362000420565b634e487b7160e01b8a5260328c5260248afd5b969593916200043b95939260ff60f81b168b1a9281601f14620004a7579084910360031b9260ff908116841b931b1991011617905562000611565b505082916041938b52898b209160ff19169060ff161790555562000611565b634e487b7160e01b895260418b52602489fd5b6200016e565b90508381813d83116200051c575b620004f981836200054b565b8101031262000518575163ffffffff8116810362000518573862000155565b8480fd5b503d620004ed565b88513d87823e3d90fd5b8a51631e4fbdf760e01b815260006004820152602490fd5b600080fd5b601f909101601f19168101906001600160401b038211908210176200056f57604052565b634e487b7160e01b600052604160045260246000fd5b51906001600160a01b03821682036200054657565b919080601f8401121562000546578251906001600160401b0382116200056f5760405191602091620005d6601f8301601f19168401856200054b565b818452828287010111620005465760005b818110620005fd57508260009394955001015290565b8581018301518482018401528201620005e7565b6000198114620006215760010190565b634e487b7160e01b600052601160045260246000fd5b90815181101562000649570160200190565b634e487b7160e01b600052603260045260246000fd5b90600182811c9216801562000691575b60208310146200067b57565b634e487b7160e01b600052602260045260246000fd5b91607f16916200066f56fe608080604052600436101561001357600080fd5b60003560e01c9081630cc2f8d21461124d5750806323e30c8b146106975780632ae181041461065c57806334f07bb0146105b65780634707d00014610512578063715018a6146104b95780637158da7c1461047457806371b9ac8b1461044d57806375ba52c91461040c5780638da5cb5b146103e35780639c9b904014610317578063a104a32f146102d2578063a77144581461028d578063afde0f83146101a7578063c31c9c07146101625763f2fde38b146100cf57600080fd5b3461015d57602036600319011261015d576100e861128f565b6100f0611453565b6001600160a01b0390811690811561014457600054826bffffffffffffffffffffffff60a01b821617600055167f8be0079c531659141344cd1fd0a4f28419497f9722a3daafe3b4186f6b6457e0600080a3005b604051631e4fbdf760e01b815260006004820152602490fd5b600080fd5b3461015d57600036600319011261015d576040517f00000000000000000000000000000000000000000000000000000000000000006001600160a01b03168152602090f35b3461015d57600036600319011261015d5760405160006003546101c9816112bb565b80845290600190818116908115610266575060011461020b575b610207846101f381860382611327565b60405191829160208352602083019061136c565b0390f35b6003600090815292507fc2575a0e9e593c00f959f8c92f12db2869c3395a3b0502d05e2516446f71f85b5b82841061024e5750505081016020016101f3826101e3565b80546020858701810191909152909301928101610236565b60ff191660208087019190915292151560051b850190920192506101f391508390506101e3565b3461015d57600036600319011261015d576040517f00000000000000000000000000000000000000000000000000000000000000006001600160a01b03168152602090f35b3461015d57600036600319011261015d576040517f00000000000000000000000000000000000000000000000000000000000000006001600160a01b03168152602090f35b3461015d57610325366113e4565b6040516363737ac960e11b815260048101969096529294939091906020856024817f00000000000000000000000000000000000000000000000000000000000000006001600160a01b03165afa9485156103d75760009561039b575b5090602095610392949392866115e1565b50604051908152f35b9392919094506020843d82116103cf575b816103b960209383611327565b8101031261015d57925193919290916020610381565b3d91506103ac565b6040513d6000823e3d90fd5b3461015d57600036600319011261015d576000546040516001600160a01b039091168152602090f35b3461015d57600036600319011261015d57602060405163ffffffff7f0000000000000000000000000000000000000000000000000000000000000000168152f35b3461015d57602061046c610460366113e4565b949390939291926115e1565b604051908152f35b3461015d57600036600319011261015d576040517f00000000000000000000000000000000000000000000000000000000000000006001600160a01b03168152602090f35b3461015d57600036600319011261015d576104d2611453565b600080546001600160a01b0319811682556001600160a01b03167f8be0079c531659141344cd1fd0a4f28419497f9722a3daafe3b4186f6b6457e08280a3005b3461015d57604036600319011261015d5761052b61128f565b6105336112a5565b9061053c611453565b6040516370a0823160e01b8152306004820152916001600160a01b039190911690602083602481855afa9182156103d757600092610581575b61057f935061147f565b005b91506020833d82116105ae575b8161059b60209383611327565b8101031261015d5761057f925191610575565b3d915061058e565b3461015d57600036600319011261015d5760405160006002546105d8816112bb565b80845290600190818116908115610266575060011461060157610207846101f381860382611327565b6002600090815292507f405787fa12a823e0f2b7631cc41b3ba8828b3321ca811111fa75cd3aa3bb5ace5b8284106106445750505081016020016101f3826101e3565b8054602085870181019190915290930192810161062c565b3461015d57600036600319011261015d5760206040517f439148f0bbc682ca079e46d6e2c2f0c1e3b820f1a291b069d8882abf8cf18dd98152f35b3461015d5760a036600319011261015d576106b061128f565b6106b86112a5565b6084359067ffffffffffffffff821161015d573660238301121561015d5781600401359267ffffffffffffffff841161015d57366024858501011161015d577f00000000000000000000000000000000000000000000000000000000000000006001600160a01b0316330361123b57306001600160a01b0390911603611229576001600160a01b037f00000000000000000000000000000000000000000000000000000000000000008116911603611217576107789160243692016113ad565b60405190610785826112f5565b6000825260006020830152600060408301526000606083015260006080830152600060a0830152606060c0830152805181019060e08183031261015d576107ce60208201611b7d565b916107db60408301611b7d565b9160608101519160808201519160a08101519160c08201519160e08101519067ffffffffffffffff821161015d5760208301603f83830101121561015d576020828201015190602061082c83611391565b9461083a6040519687611327565b8386520160408385840101011161015d57604061085d9360208601920101611349565b60c088015260a0870152608086015260608501526040808501919091526001600160a01b039182166020808601919091529282168452516370a0823160e01b8152306004820152929190839060249082907f0000000000000000000000000000000000000000000000000000000000000000165afa9182156103d7576000926111e3575b506040516370a0823160e01b81523060048201526020816024817f00000000000000000000000000000000000000000000000000000000000000006001600160a01b03165afa9081156103d7576000916111b1575b50604082015160018060a01b0383511660405191635d043b2960e11b835260048301523060248301526044820152602081606481600060018060a01b037f0000000000000000000000000000000000000000000000000000000000000000165af180156103d757611186575b506040516370a0823160e01b8152306004820152926020846024817f00000000000000000000000000000000000000000000000000000000000000006001600160a01b03165afa9384156103d757600094611152575b506040516370a0823160e01b8152306004820152936020856024817f00000000000000000000000000000000000000000000000000000000000000006001600160a01b03165afa9485156103d75760009561111e575b50828511611100578181106110e257610a719291610a6b91611b46565b93611b46565b9160a08201518082106110c457506020820151610abc91906001600160a01b03908116907f00000000000000000000000000000000000000000000000000000000000000001661147f565b6040516363880e0960e11b81526001600160a01b037f000000000000000000000000000000000000000000000000000000000000000081166004830152602090829060249082907f0000000000000000000000000000000000000000000000000000000000000000165afa9081156103d757600091611092575b5060405163313ce56760e01b8152906020826004817f00000000000000000000000000000000000000000000000000000000000000006001600160a01b03165afa9081156103d757610b97610b9d92610ba394600091611031575b50611b6c565b906115ce565b836115ce565b6040516363880e0960e11b81526001600160a01b037f000000000000000000000000000000000000000000000000000000000000000081166004830152602090829060249082907f0000000000000000000000000000000000000000000000000000000000000000165afa9081156103d757600091611060575b5060405163313ce56760e01b8152906020826004817f00000000000000000000000000000000000000000000000000000000000000006001600160a01b03165afa9182156103d757610c7a92610b97916000916110315750611b6c565b90811561101b57608083015191620f42409283019081841161100557610ca092046115ce565b048015610fc85760c09190910151604051632df26f9f60e11b81526001600160a01b037f0000000000000000000000000000000000000000000000000000000000000000811660048301527f0000000000000000000000000000000000000000000000000000000000000000166024820152604481019390935260648301919091523060848301524260a483015261018060c4830152610d459061018483019061136c565b7f00000000000000000000000000000000000000000000000000000000000000006001600160a01b031660e483015281810360031901610104830152600254600091839190610d93826112bb565b908181526001928381169081600014610fa75750600114610f44575b50506003198284030161012483015260009260035491610dce836112bb565b80835292818116908115610f225750600114610ebf575b5050506001600160a01b037f000000000000000000000000000000000000000000000000000000000000000081166101448301527f000000000000000000000000000000000000000000000000000000000000000016610164820152602091819003817329dd1854e8Af4E81bD136eab4C8c1CF56bA90c2C5af480156103d757610e94575b60206040517f439148f0bbc682ca079e46d6e2c2f0c1e3b820f1a291b069d8882abf8cf18dd98152f35b602090813d8311610eb8575b610eaa8183611327565b8101031261015d5780610e6a565b503d610ea0565b9190935060036000527fc2575a0e9e593c00f959f8c92f12db2869c3395a3b0502d05e2516446f71f85b916000925b828410610f075750505060208291819401019285610de5565b80546020858801810191909152879550909301928101610eee565b60209650869392508594915060ff191683830152151560051b01019285610de5565b909291935060026000527f405787fa12a823e0f2b7631cc41b3ba8828b3321ca811111fa75cd3aa3bb5ace90846000925b858410610f8d57505060209293500101918480610daf565b602092945080548385870101520191019091848693610f75565b9050602093955060ff929192191683830152151560051b0101918480610daf565b60405162461bcd60e51b81526020600482015260156024820152746d6178496e206973206e6f7420706f73697469766560581b6044820152606490fd5b634e487b7160e01b600052601160045260246000fd5b634e487b7160e01b600052601260045260246000fd5b611053915060203d602011611059575b61104b8183611327565b810190611b53565b87610b91565b503d611041565b90506020813d60201161108a575b8161107b60209383611327565b8101031261015d575184610c1d565b3d915061106e565b90506020813d6020116110bc575b816110ad60209383611327565b8101031261015d575183610b36565b3d91506110a0565b6044925060405191630583371760e31b835260048301526024820152fd5b6044925060405191636e9b3f0360e11b835260048301526024820152fd5b60448386604051916306c0820760e21b835260048301526024820152fd5b9094506020813d60201161114a575b8161113a60209383611327565b8101031261015d57519385610a4e565b3d915061112d565b9093506020813d60201161117e575b8161116e60209383611327565b8101031261015d575192846109f8565b3d9150611161565b602090813d83116111aa575b61119c8183611327565b8101031261015d57836109a2565b503d611192565b90506020813d6020116111db575b816111cc60209383611327565b8101031261015d575183610936565b3d91506111bf565b9091506020813d60201161120f575b816111ff60209383611327565b8101031261015d575190826108e1565b3d91506111f2565b604051638698bf3760e01b8152600490fd5b604051634ac321c360e11b8152600490fd5b604051631e4a393d60e31b8152600490fd5b3461015d57600036600319011261015d577f00000000000000000000000000000000000000000000000000000000000000006001600160a01b03168152602090f35b600435906001600160a01b038216820361015d57565b602435906001600160a01b038216820361015d57565b90600182811c921680156112eb575b60208310146112d557565b634e487b7160e01b600052602260045260246000fd5b91607f16916112ca565b60e0810190811067ffffffffffffffff82111761131157604052565b634e487b7160e01b600052604160045260246000fd5b90601f8019910116810190811067ffffffffffffffff82111761131157604052565b60005b83811061135c5750506000910152565b818101518382015260200161134c565b9060209161138581518092818552858086019101611349565b601f01601f1916010190565b67ffffffffffffffff811161131157601f01601f191660200190565b9291926113b982611391565b916113c76040519384611327565b82948184528183011161015d578281602093846000960137010152565b9060c060031983011261015d57600435916001600160a01b0391602435838116810361015d5792604435908116810361015d5791606435916084359160a4359067ffffffffffffffff821161015d578060238301121561015d57816024611450936004013591016113ad565b90565b6000546001600160a01b0316330361146757565b60405163118cdaa760e01b8152336004820152602490fd5b60405163a9059cbb60e01b602082019081526001600160a01b03939093166024820152604480820194909452928352611502916000918291906114c3606487611327565b60018060a01b031694519082865af13d1561154b573d906114e382611391565b916114f16040519384611327565b82523d6000602084013e5b8361156b565b8051908115159182611530575b50506115185750565b60249060405190635274afe760e01b82526004820152fd5b6115439250602080918301019101611553565b15388061150f565b6060906114fc565b9081602091031261015d5751801515810361015d5790565b90611592575080511561158057805190602001fd5b604051630a12f52160e11b8152600490fd5b815115806115c5575b6115a3575090565b604051639996b31560e01b81526001600160a01b039091166004820152602490fd5b50803b1561159b565b8181029291811591840414171561100557565b939594909392916001600160a01b0391908216338103611ad0575b827f000000000000000000000000000000000000000000000000000000000000000016906040928351998a966303d1689d60e11b8852600499898b8a01526020998a60249a8b818a5afa9d8e15611a4d5760009e611a92575b5093611710938b938f9e9f93878b8560c08f8d9c8d91620f42406116a36117029d63ffffffff7f000000000000000000000000000000000000000000000000000000000000000016906115ce565b04978651936116b1856112f5565b84521694858d8401528201528560608201528660808201528760a082015201528c51998a988901528c8801526060870152608086015260a085015260c084015260e08084015261010083019061136c565b03601f198101835282611327565b847f000000000000000000000000000000000000000000000000000000000000000016947f00000000000000000000000000000000000000000000000000000000000000001684519063613255ab60e01b8252808a830152888289818a5afa918215611a8757600092611a58575b508551966370a0823160e01b93848952858c8a01528a898b818a5afa988915611a4d57600099611a0c575b508751633676633960e21b81526001600160a01b038416818e01908152602081018690528c90829081906040010381865afa9081156119c0576000916119df575b5084018085116119cb57885163095ea7b360e01b81526001600160a01b038416818f019081526020810192909252908c908290819060400103816000885af19081156119c0576000916119a3575b501561194f57908960008d61187a8e96958c5198899788968795632e7ff4ef60e11b87523090870152850152604484015260806064840152608483019061136c565b03925af1801561194457918791899493611917575b508551948593849283528b8301525afa94851561190c576000956118d8575b5050818410156118c057505050505090565b51632b9e770560e11b81529384015282015260449150fd5b8181969293963d8311611905575b6118f08183611327565b810103126119025750519238806118ae565b80fd5b503d6118e6565b82513d6000823e3d90fd5b61193690853d871161193d575b61192e8183611327565b810190611553565b503861188f565b503d611924565b85513d6000823e3d90fd5b875162461bcd60e51b8152808d018c90526029818c01527f617070726f7665206661696c656420666f7220666c617368206c656e64657220604482015268696e2072656465656d60b81b6064820152608490fd5b6119ba91508c8d3d1061193d5761192e8183611327565b38611838565b89513d6000823e3d90fd5b8a60118e634e487b7160e01b600052526000fd5b908c82813d8311611a05575b6119f58183611327565b81010312611902575051386117ea565b503d6119eb565b8b809b9a9f9e9d9c82903d8311611a46575b611a288183611327565b81010312611a4257519c9d509a9b999a98999798836117a9565b8e80fd5b503d611a1e565b88513d6000823e3d90fd5b90918982813d8311611a80575b611a6f8183611327565b81010312611902575051903861177e565b503d611a65565b86513d6000823e3d90fd5b9094939d8b82819c9b9e9d3d8311611ac9575b611aaf8183611327565b810103126119025750519c999a9899979897929385611655565b503d611aa5565b60405163095ea7b360e01b81523060048201526024810186905260208160448160007f000000000000000000000000000000000000000000000000000000000000000089165af180156103d757611b28575b506115fc565b611b3f9060203d811161193d5761192e8183611327565b5038611b22565b9190820391821161100557565b9081602091031261015d575160ff8116810361015d5790565b60ff16604d811161100557600a0a90565b51906001600160a01b038216820361015d5756fea2646970667358221220ee315b04836493abe4cccb20d457e733c0db0b1263c6b2e513efdadd81bb5a2064736f6c63430008140033",
  "deployedBytecode": "0x608080604052600436101561001357600080fd5b60003560e01c9081630cc2f8d21461124d5750806323e30c8b146106975780632ae181041461065c57806334f07bb0146105b65780634707d00014610512578063715018a6146104b95780637158da7c1461047457806371b9ac8b1461044d57806375ba52c91461040c5780638da5cb5b146103e35780639c9b904014610317578063a104a32f146102d2578063a77144581461028d578063afde0f83146101a7578063c31c9c07146101625763f2fde38b146100cf57600080fd5b3461015d57602036600319011261015d576100e861128f565b6100f0611453565b6001600160a01b0390811690811561014457600054826bffffffffffffffffffffffff60a01b821617600055167f8be0079c531659141344cd1fd0a4f28419497f9722a3daafe3b4186f6b6457e0600080a3005b604051631e4fbdf760e01b815260006004820152602490fd5b600080fd5b3461015d57600036600319011261015d576040517f00000000000000000000000000000000000000000000000000000000000000006001600160a01b03168152602090f35b3461015d57600036600319011261015d5760405160006003546101c9816112bb565b80845290600190818116908115610266575060011461020b575b610207846101f381860382611327565b60405191829160208352602083019061136c565b0390f35b6003600090815292507fc2575a0e9e593c00f959f8c92f12db2869c3395a3b0502d05e2516446f71f85b5b82841061024e5750505081016020016101f3826101e3565b80546020858701810191909152909301928101610236565b60ff191660208087019190915292151560051b850190920192506101f391508390506101e3565b3461015d57600036600319011261015d576040517f00000000000000000000000000000000000000000000000000000000000000006001600160a01b03168152602090f35b3461015d57600036600319011261015d576040517f00000000000000000000000000000000000000000000000000000000000000006001600160a01b03168152602090f35b3461015d57610325366113e4565b6040516363737ac960e11b815260048101969096529294939091906020856024817f00000000000000000000000000000000000000000000000000000000000000006001600160a01b03165afa9485156103d75760009561039b575b5090602095610392949392866115e1565b50604051908152f35b9392919094506020843d82116103cf575b816103b960209383611327565b8101031261015d57925193919290916020610381565b3d91506103ac565b6040513d6000823e3d90fd5b3461015d57600036600319011261015d576000546040516001600160a01b039091168152602090f35b3461015d57600036600319011261015d57602060405163ffffffff7f0000000000000000000000000000000000000000000000000000000000000000168152f35b3461015d57602061046c610460366113e4565b949390939291926115e1565b604051908152f35b3461015d57600036600319011261015d576040517f00000000000000000000000000000000000000000000000000000000000000006001600160a01b03168152602090f35b3461015d57600036600319011261015d576104d2611453565b600080546001600160a01b0319811682556001600160a01b03167f8be0079c531659141344cd1fd0a4f28419497f9722a3daafe3b4186f6b6457e08280a3005b3461015d57604036600319011261015d5761052b61128f565b6105336112a5565b9061053c611453565b6040516370a0823160e01b8152306004820152916001600160a01b039190911690602083602481855afa9182156103d757600092610581575b61057f935061147f565b005b91506020833d82116105ae575b8161059b60209383611327565b8101031261015d5761057f925191610575565b3d915061058e565b3461015d57600036600319011261015d5760405160006002546105d8816112bb565b80845290600190818116908115610266575060011461060157610207846101f381860382611327565b6002600090815292507f405787fa12a823e0f2b7631cc41b3ba8828b3321ca811111fa75cd3aa3bb5ace5b8284106106445750505081016020016101f3826101e3565b8054602085870181019190915290930192810161062c565b3461015d57600036600319011261015d5760206040517f439148f0bbc682ca079e46d6e2c2f0c1e3b820f1a291b069d8882abf8cf18dd98152f35b3461015d5760a036600319011261015d576106b061128f565b6106b86112a5565b6084359067ffffffffffffffff821161015d573660238301121561015d5781600401359267ffffffffffffffff841161015d57366024858501011161015d577f00000000000000000000000000000000000000000000000000000000000000006001600160a01b0316330361123b57306001600160a01b0390911603611229576001600160a01b037f00000000000000000000000000000000000000000000000000000000000000008116911603611217576107789160243692016113ad565b60405190610785826112f5565b6000825260006020830152600060408301526000606083015260006080830152600060a0830152606060c0830152805181019060e08183031261015d576107ce60208201611b7d565b916107db60408301611b7d565b9160608101519160808201519160a08101519160c08201519160e08101519067ffffffffffffffff821161015d5760208301603f83830101121561015d576020828201015190602061082c83611391565b9461083a6040519687611327565b8386520160408385840101011161015d57604061085d9360208601920101611349565b60c088015260a0870152608086015260608501526040808501919091526001600160a01b039182166020808601919091529282168452516370a0823160e01b8152306004820152929190839060249082907f0000000000000000000000000000000000000000000000000000000000000000165afa9182156103d7576000926111e3575b506040516370a0823160e01b81523060048201526020816024817f00000000000000000000000000000000000000000000000000000000000000006001600160a01b03165afa9081156103d7576000916111b1575b50604082015160018060a01b0383511660405191635d043b2960e11b835260048301523060248301526044820152602081606481600060018060a01b037f0000000000000000000000000000000000000000000000000000000000000000165af180156103d757611186575b506040516370a0823160e01b8152306004820152926020846024817f00000000000000000000000000000000000000000000000000000000000000006001600160a01b03165afa9384156103d757600094611152575b506040516370a0823160e01b8152306004820152936020856024817f00000000000000000000000000000000000000000000000000000000000000006001600160a01b03165afa9485156103d75760009561111e575b50828511611100578181106110e257610a719291610a6b91611b46565b93611b46565b9160a08201518082106110c457506020820151610abc91906001600160a01b03908116907f00000000000000000000000000000000000000000000000000000000000000001661147f565b6040516363880e0960e11b81526001600160a01b037f000000000000000000000000000000000000000000000000000000000000000081166004830152602090829060249082907f0000000000000000000000000000000000000000000000000000000000000000165afa9081156103d757600091611092575b5060405163313ce56760e01b8152906020826004817f00000000000000000000000000000000000000000000000000000000000000006001600160a01b03165afa9081156103d757610b97610b9d92610ba394600091611031575b50611b6c565b906115ce565b836115ce565b6040516363880e0960e11b81526001600160a01b037f000000000000000000000000000000000000000000000000000000000000000081166004830152602090829060249082907f0000000000000000000000000000000000000000000000000000000000000000165afa9081156103d757600091611060575b5060405163313ce56760e01b8152906020826004817f00000000000000000000000000000000000000000000000000000000000000006001600160a01b03165afa9182156103d757610c7a92610b97916000916110315750611b6c565b90811561101b57608083015191620f42409283019081841161100557610ca092046115ce565b048015610fc85760c09190910151604051632df26f9f60e11b81526001600160a01b037f0000000000000000000000000000000000000000000000000000000000000000811660048301527f0000000000000000000000000000000000000000000000000000000000000000166024820152604481019390935260648301919091523060848301524260a483015261018060c4830152610d459061018483019061136c565b7f00000000000000000000000000000000000000000000000000000000000000006001600160a01b031660e483015281810360031901610104830152600254600091839190610d93826112bb565b908181526001928381169081600014610fa75750600114610f44575b50506003198284030161012483015260009260035491610dce836112bb565b80835292818116908115610f225750600114610ebf575b5050506001600160a01b037f000000000000000000000000000000000000000000000000000000000000000081166101448301527f0000000000000000000000000000000000000000000000000000000000000000166101648201526020918190038173__$a0a04c66fcc257ca25507f38a2a78666f7$__5af480156103d757610e94575b60206040517f439148f0bbc682ca079e46d6e2c2f0c1e3b820f1a291b069d8882abf8cf18dd98152f35b602090813d8311610eb8575b610eaa8183611327565b8101031261015d5780610e6a565b503d610ea0565b9190935060036000527fc2575a0e9e593c00f959f8c92f12db2869c3395a3b0502d05e2516446f71f85b916000925b828410610f075750505060208291819401019285610de5565b80546020858801810191909152879550909301928101610eee565b60209650869392508594915060ff191683830152151560051b01019285610de5565b909291935060026000527f405787fa12a823e0f2b7631cc41b3ba8828b3321ca811111fa75cd3aa3bb5ace90846000925b858410610f8d57505060209293500101918480610daf565b602092945080548385870101520191019091848693610f75565b9050602093955060ff929192191683830152151560051b0101918480610daf565b60405162461bcd60e51b81526020600482015260156024820152746d6178496e206973206e6f7420706f73697469766560581b6044820152606490fd5b634e487b7160e01b600052601160045260246000fd5b634e487b7160e01b600052601260045260246000fd5b611053915060203d602011611059575b61104b8183611327565b810190611b53565b87610b91565b503d611041565b90506020813d60201161108a575b8161107b60209383611327565b8101031261015d575184610c1d565b3d915061106e565b90506020813d6020116110bc575b816110ad60209383611327565b8101031261015d575183610b36565b3d91506110a0565b6044925060405191630583371760e31b835260048301526024820152fd5b6044925060405191636e9b3f0360e11b835260048301526024820152fd5b60448386604051916306c0820760e21b835260048301526024820152fd5b9094506020813d60201161114a575b8161113a60209383611327565b8101031261015d57519385610a4e565b3d915061112d565b9093506020813d60201161117e575b8161116e60209383611327565b8101031261015d575192846109f8565b3d9150611161565b602090813d83116111aa575b61119c8183611327565b8101031261015d57836109a2565b503d611192565b90506020813d6020116111db575b816111cc60209383611327565b8101031261015d575183610936565b3d91506111bf565b9091506020813d60201161120f575b816111ff60209383611327565b8101031261015d575190826108e1565b3d91506111f2565b604051638698bf3760e01b8152600490fd5b604051634ac321c360e11b8152600490fd5b604051631e4a393d60e31b8152600490fd5b3461015d57600036600319011261015d577f00000000000000000000000000000000000000000000000000000000000000006001600160a01b03168152602090f35b600435906001600160a01b038216820361015d57565b602435906001600160a01b038216820361015d57565b90600182811c921680156112eb575b60208310146112d557565b634e487b7160e01b600052602260045260246000fd5b91607f16916112ca565b60e0810190811067ffffffffffffffff82111761131157604052565b634e487b7160e01b600052604160045260246000fd5b90601f8019910116810190811067ffffffffffffffff82111761131157604052565b60005b83811061135c5750506000910152565b818101518382015260200161134c565b9060209161138581518092818552858086019101611349565b601f01601f1916010190565b67ffffffffffffffff811161131157601f01601f191660200190565b9291926113b982611391565b916113c76040519384611327565b82948184528183011161015d578281602093846000960137010152565b9060c060031983011261015d57600435916001600160a01b0391602435838116810361015d5792604435908116810361015d5791606435916084359160a4359067ffffffffffffffff821161015d578060238301121561015d57816024611450936004013591016113ad565b90565b6000546001600160a01b0316330361146757565b60405163118cdaa760e01b8152336004820152602490fd5b60405163a9059cbb60e01b602082019081526001600160a01b03939093166024820152604480820194909452928352611502916000918291906114c3606487611327565b60018060a01b031694519082865af13d1561154b573d906114e382611391565b916114f16040519384611327565b82523d6000602084013e5b8361156b565b8051908115159182611530575b50506115185750565b60249060405190635274afe760e01b82526004820152fd5b6115439250602080918301019101611553565b15388061150f565b6060906114fc565b9081602091031261015d5751801515810361015d5790565b90611592575080511561158057805190602001fd5b604051630a12f52160e11b8152600490fd5b815115806115c5575b6115a3575090565b604051639996b31560e01b81526001600160a01b039091166004820152602490fd5b50803b1561159b565b8181029291811591840414171561100557565b939594909392916001600160a01b0391908216338103611ad0575b827f000000000000000000000000000000000000000000000000000000000000000016906040928351998a966303d1689d60e11b8852600499898b8a01526020998a60249a8b818a5afa9d8e15611a4d5760009e611a92575b5093611710938b938f9e9f93878b8560c08f8d9c8d91620f42406116a36117029d63ffffffff7f000000000000000000000000000000000000000000000000000000000000000016906115ce565b04978651936116b1856112f5565b84521694858d8401528201528560608201528660808201528760a082015201528c51998a988901528c8801526060870152608086015260a085015260c084015260e08084015261010083019061136c565b03601f198101835282611327565b847f000000000000000000000000000000000000000000000000000000000000000016947f00000000000000000000000000000000000000000000000000000000000000001684519063613255ab60e01b8252808a830152888289818a5afa918215611a8757600092611a58575b508551966370a0823160e01b93848952858c8a01528a898b818a5afa988915611a4d57600099611a0c575b508751633676633960e21b81526001600160a01b038416818e01908152602081018690528c90829081906040010381865afa9081156119c0576000916119df575b5084018085116119cb57885163095ea7b360e01b81526001600160a01b038416818f019081526020810192909252908c908290819060400103816000885af19081156119c0576000916119a3575b501561194f57908960008d61187a8e96958c5198899788968795632e7ff4ef60e11b87523090870152850152604484015260806064840152608483019061136c565b03925af1801561194457918791899493611917575b508551948593849283528b8301525afa94851561190c576000956118d8575b5050818410156118c057505050505090565b51632b9e770560e11b81529384015282015260449150fd5b8181969293963d8311611905575b6118f08183611327565b810103126119025750519238806118ae565b80fd5b503d6118e6565b82513d6000823e3d90fd5b61193690853d871161193d575b61192e8183611327565b810190611553565b503861188f565b503d611924565b85513d6000823e3d90fd5b875162461bcd60e51b8152808d018c90526029818c01527f617070726f7665206661696c656420666f7220666c617368206c656e64657220604482015268696e2072656465656d60b81b6064820152608490fd5b6119ba91508c8d3d1061193d5761192e8183611327565b38611838565b89513d6000823e3d90fd5b8a60118e634e487b7160e01b600052526000fd5b908c82813d8311611a05575b6119f58183611327565b81010312611902575051386117ea565b503d6119eb565b8b809b9a9f9e9d9c82903d8311611a46575b611a288183611327565b81010312611a4257519c9d509a9b999a98999798836117a9565b8e80fd5b503d611a1e565b88513d6000823e3d90fd5b90918982813d8311611a80575b611a6f8183611327565b81010312611902575051903861177e565b503d611a65565b86513d6000823e3d90fd5b9094939d8b82819c9b9e9d3d8311611ac9575b611aaf8183611327565b810103126119025750519c999a9899979897929385611655565b503d611aa5565b60405163095ea7b360e01b81523060048201526024810186905260208160448160007f000000000000000000000000000000000000000000000000000000000000000089165af180156103d757611b28575b506115fc565b611b3f9060203d811161193d5761192e8183611327565b5038611b22565b9190820391821161100557565b9081602091031261015d575160ff8116810361015d5790565b60ff16604d811161100557600a0a90565b51906001600160a01b038216820361015d5756fea2646970667358221220ee315b04836493abe4cccb20d457e733c0db0b1263c6b2e513efdadd81bb5a2064736f6c63430008140033",
  "libraries": {
    "UniswapV3SwapLogic": "0x29dd1854e8Af4E81bD136eab4C8c1CF56bA90c2C"
  },
  "devdoc": {
    "details": "Implementation of DLoopWithdrawerBase with Uniswap V3 swap functionality",
    "errors": {
      "AddressEmptyCode(address)": [
        {
          "details": "There's no code at `target` (it is not a contract)."
        }
      ],
      "AddressInsufficientBalance(address)": [
        {
          "details": "The ETH balance of the account is not enough to perform the operation."
        }
      ],
      "FailedInnerCall()": [
        {
          "details": "A call to an address target failed. The target may have reverted."
        }
      ],
      "OwnableInvalidOwner(address)": [
        {
          "details": "The owner is not a valid owner account. (eg. `address(0)`)"
        }
      ],
      "OwnableUnauthorizedAccount(address)": [
        {
          "details": "The caller account is not authorized to perform an operation."
        }
      ],
      "SafeERC20FailedOperation(address)": [
        {
          "details": "An operation with an ERC20 token failed."
        }
      ]
    },
    "kind": "dev",
    "methods": {
      "constructor": {
        "details": "Constructor for the DLoopWithdrawerUniswapV3 contract",
        "params": {
          "_dLoopCore": "Address of the dLoopCore contract",
          "_dStable": "Address of the dStable token",
          "_defaultDSTABLEToUnderlyingSwapPath": "Default swap path from dStable to underlying asset",
          "_defaultUnderlyingToDSTABLESwapPath": "Default swap path from underlying asset to dStable",
          "_flashLender": "Address of the flash loan provider",
          "_swapRouter": "Address of the Uniswap V3 swap router",
          "_swapSlippageTolerance": "Swap slippage tolerance in basis points",
          "_underlyingAsset": "Address of the underlying asset"
        }
      },
      "onFlashLoan(address,address,uint256,uint256,bytes)": {
        "details": "Callback function for flash loans",
        "params": {
          "data": "Encoded flash loan parameters",
          "initiator": "Address that initiated the flash loan",
          "token": "Address of the flash-borrowed token"
        },
        "returns": {
          "_0": "bytes32 The flash loan callback success bytes"
        }
      },
      "owner()": {
        "details": "Returns the address of the current owner."
      },
      "redeem(uint256,address,address,uint256,uint256,bytes)": {
        "details": "Redeems shares from the core vault",
        "params": {
          "minReceiveAmount": "Minimum amount of assets to receive",
          "owner": "Address that owns the shares",
          "receiver": "Address to receive the assets",
          "shares": "Amount of shares to redeem",
          "slippageTolerance": "Slippage tolerance for the swap",
          "underlyingToDStableSwapData": "Swap data from underlying asset to dStable"
        },
        "returns": {
          "assets": "Amount of assets redeemed"
        }
      },
      "renounceOwnership()": {
        "details": "Leaves the contract without owner. It will not be possible to call `onlyOwner` functions. Can only be called by the current owner. NOTE: Renouncing ownership will leave the contract without an owner, thereby disabling any functionality that is only available to the owner."
      },
      "rescueToken(address,address)": {
        "details": "Rescues tokens accidentally sent to the contract",
        "params": {
          "receiver": "Address to receive the rescued tokens",
          "token": "Address of the token to rescue"
        }
      },
      "transferOwnership(address)": {
        "details": "Transfers ownership of the contract to a new account (`newOwner`). Can only be called by the current owner."
      },
      "withdraw(uint256,address,address,uint256,uint256,bytes)": {
        "details": "Withdraws assets from the core vault",
        "params": {
          "assets": "Amount of assets to withdraw",
          "minReceiveAmount": "Minimum amount of assets to receive",
          "owner": "Address that owns the shares",
          "receiver": "Address to receive the assets",
          "slippageTolerance": "Slippage tolerance for the swap",
          "underlyingToDStableSwapData": "Swap data from underlying asset to dStable"
        },
        "returns": {
          "shares": "Amount of shares burned"
        }
      }
    },
    "title": "DLoopWithdrawerUniswapV3",
    "version": 1
  },
  "userdoc": {
    "kind": "user",
    "methods": {},
    "version": 1
  },
  "storageLayout": {
    "storage": [
      {
        "astId": 175,
        "contract": "contracts/vault/dLOOP/periphery/venue/uniswap-v3/DLoopWithdrawerUniswapV3.sol:DLoopWithdrawerUniswapV3",
        "label": "_owner",
        "offset": 0,
        "slot": "0",
        "type": "t_address"
      },
      {
        "astId": 16058,
        "contract": "contracts/vault/dLOOP/periphery/venue/uniswap-v3/DLoopWithdrawerUniswapV3.sol:DLoopWithdrawerUniswapV3",
        "label": "_defaultSwapSlippageTolerance",
        "offset": 0,
        "slot": "1",
        "type": "t_uint256"
      },
      {
        "astId": 18039,
        "contract": "contracts/vault/dLOOP/periphery/venue/uniswap-v3/DLoopWithdrawerUniswapV3.sol:DLoopWithdrawerUniswapV3",
        "label": "DEFAULT_DSTABLE_TO_UNDERLYING_SWAP_PATH",
        "offset": 0,
        "slot": "2",
        "type": "t_bytes_storage"
      },
      {
        "astId": 18041,
        "contract": "contracts/vault/dLOOP/periphery/venue/uniswap-v3/DLoopWithdrawerUniswapV3.sol:DLoopWithdrawerUniswapV3",
        "label": "DEFAULT_UNDERLYING_TO_DSTABLE_SWAP_PATH",
        "offset": 0,
        "slot": "3",
        "type": "t_bytes_storage"
      }
    ],
    "types": {
      "t_address": {
        "encoding": "inplace",
        "label": "address",
        "numberOfBytes": "20"
      },
      "t_bytes_storage": {
        "encoding": "bytes",
        "label": "bytes",
        "numberOfBytes": "32"
      },
      "t_uint256": {
        "encoding": "inplace",
        "label": "uint256",
        "numberOfBytes": "32"
      }
    }
  }
}