{
  "address": "0xEf2704817A48771a809300AE4B699edE7BB70d3D",
  "abi": [
    {
      "inputs": [
        {
          "internalType": "contract IERC3156FlashLender",
          "name": "_flashLender",
          "type": "address"
        },
        {
          "internalType": "contract ISwapRouter",
          "name": "_swapRouter",
          "type": "address"
        }
      ],
      "stateMutability": "nonpayable",
      "type": "constructor"
    },
    {
      "inputs": [
        {
          "internalType": "address",
          "name": "target",
          "type": "address"
        }
      ],
      "name": "AddressEmptyCode",
      "type": "error"
    },
    {
      "inputs": [
        {
          "internalType": "address",
          "name": "account",
          "type": "address"
        }
      ],
      "name": "AddressInsufficientBalance",
      "type": "error"
    },
    {
      "inputs": [],
      "name": "FailedInnerCall",
      "type": "error"
    },
    {
      "inputs": [
        {
          "internalType": "address",
          "name": "owner",
          "type": "address"
        }
      ],
      "name": "OwnableInvalidOwner",
      "type": "error"
    },
    {
      "inputs": [
        {
          "internalType": "address",
          "name": "account",
          "type": "address"
        }
      ],
      "name": "OwnableUnauthorizedAccount",
      "type": "error"
    },
    {
      "inputs": [
        {
          "internalType": "address",
          "name": "token",
          "type": "address"
        }
      ],
      "name": "SafeERC20FailedOperation",
      "type": "error"
    },
    {
      "inputs": [
        {
          "internalType": "uint256",
          "name": "sharesBeforeDeposit",
          "type": "uint256"
        },
        {
          "internalType": "uint256",
          "name": "sharesAfterDeposit",
          "type": "uint256"
        }
      ],
      "name": "SharesNotIncreasedAfterFlashLoan",
      "type": "error"
    },
    {
      "inputs": [
        {
          "internalType": "address",
          "name": "initiator",
          "type": "address"
        },
        {
          "internalType": "address",
          "name": "thisContract",
          "type": "address"
        }
      ],
      "name": "UnknownInitiator",
      "type": "error"
    },
    {
      "inputs": [
        {
          "internalType": "address",
          "name": "msgSender",
          "type": "address"
        },
        {
          "internalType": "address",
          "name": "flashLender",
          "type": "address"
        }
      ],
      "name": "UnknownLender",
      "type": "error"
    },
    {
      "inputs": [
        {
          "internalType": "address",
          "name": "token",
          "type": "address"
        },
        {
          "internalType": "address",
          "name": "dStable",
          "type": "address"
        }
      ],
      "name": "UnknownToken",
      "type": "error"
    },
    {
      "anonymous": false,
      "inputs": [
        {
          "indexed": true,
          "internalType": "address",
          "name": "previousOwner",
          "type": "address"
        },
        {
          "indexed": true,
          "internalType": "address",
          "name": "newOwner",
          "type": "address"
        }
      ],
      "name": "OwnershipTransferred",
      "type": "event"
    },
    {
      "inputs": [],
      "name": "FLASHLOAN_CALLBACK",
      "outputs": [
        {
          "internalType": "bytes32",
          "name": "",
          "type": "bytes32"
        }
      ],
      "stateMutability": "view",
      "type": "function"
    },
    {
      "inputs": [
        {
          "internalType": "uint256",
          "name": "assets",
          "type": "uint256"
        },
        {
          "internalType": "address",
          "name": "receiver",
          "type": "address"
        },
        {
          "internalType": "uint256",
          "name": "slippageTolerance",
          "type": "uint256"
        },
        {
          "internalType": "bytes",
          "name": "dStableToUnderlyingSwapData",
          "type": "bytes"
        },
        {
          "internalType": "contract DLoopCoreBase",
          "name": "dLoopCore",
          "type": "address"
        }
      ],
      "name": "deposit",
      "outputs": [
        {
          "internalType": "uint256",
          "name": "shares",
          "type": "uint256"
        }
      ],
      "stateMutability": "nonpayable",
      "type": "function"
    },
    {
      "inputs": [],
      "name": "flashLender",
      "outputs": [
        {
          "internalType": "contract IERC3156FlashLender",
          "name": "",
          "type": "address"
        }
      ],
      "stateMutability": "view",
      "type": "function"
    },
    {
      "inputs": [
        {
          "internalType": "uint256",
          "name": "shares",
          "type": "uint256"
        },
        {
          "internalType": "address",
          "name": "receiver",
          "type": "address"
        },
        {
          "internalType": "uint256",
          "name": "slippageTolerance",
          "type": "uint256"
        },
        {
          "internalType": "bytes",
          "name": "dStableToUnderlyingSwapData",
          "type": "bytes"
        },
        {
          "internalType": "contract DLoopCoreBase",
          "name": "dLoopCore",
          "type": "address"
        }
      ],
      "name": "mint",
      "outputs": [
        {
          "internalType": "uint256",
          "name": "assets",
          "type": "uint256"
        }
      ],
      "stateMutability": "nonpayable",
      "type": "function"
    },
    {
      "inputs": [
        {
          "internalType": "address",
          "name": "initiator",
          "type": "address"
        },
        {
          "internalType": "address",
          "name": "token",
          "type": "address"
        },
        {
          "internalType": "uint256",
          "name": "",
          "type": "uint256"
        },
        {
          "internalType": "uint256",
          "name": "",
          "type": "uint256"
        },
        {
          "internalType": "bytes",
          "name": "data",
          "type": "bytes"
        }
      ],
      "name": "onFlashLoan",
      "outputs": [
        {
          "internalType": "bytes32",
          "name": "",
          "type": "bytes32"
        }
      ],
      "stateMutability": "nonpayable",
      "type": "function"
    },
    {
      "inputs": [],
      "name": "owner",
      "outputs": [
        {
          "internalType": "address",
          "name": "",
          "type": "address"
        }
      ],
      "stateMutability": "view",
      "type": "function"
    },
    {
      "inputs": [],
      "name": "renounceOwnership",
      "outputs": [],
      "stateMutability": "nonpayable",
      "type": "function"
    },
    {
      "inputs": [
        {
          "internalType": "address",
          "name": "token",
          "type": "address"
        },
        {
          "internalType": "address",
          "name": "receiver",
          "type": "address"
        }
      ],
      "name": "rescueToken",
      "outputs": [],
      "stateMutability": "nonpayable",
      "type": "function"
    },
    {
      "inputs": [],
      "name": "swapRouter",
      "outputs": [
        {
          "internalType": "contract ISwapRouter",
          "name": "",
          "type": "address"
        }
      ],
      "stateMutability": "view",
      "type": "function"
    },
    {
      "inputs": [
        {
          "internalType": "address",
          "name": "newOwner",
          "type": "address"
        }
      ],
      "name": "transferOwnership",
      "outputs": [],
      "stateMutability": "nonpayable",
      "type": "function"
    }
  ],
  "transactionHash": "0x665e676695f13a4873803900cbfda858d7c78bf803173c87d1deb34878f1bc97",
  "args": [
    "0x4D6E79013212F10A026A1FB0b926C9Fd0432b96c",
    "0x86fa24508003ee40FBC34385047b665c0Ec9DC55"
  ],
  "numDeployments": 2,
  "solcInputHash": "69d5fac83e7a80653808a51bdadd602f",
  "bytecode": "0x60c0346100f557601f61139d38819003918201601f19168301916001600160401b038311848410176100fa5780849260409485528339810103126100f55780516001600160a01b039182821682036100f557602001519082821682036100f55733156100dc576000543360018060a01b0319821617600055604051933391167f8be0079c531659141344cd1fd0a4f28419497f9722a3daafe3b4186f6b6457e0600080a360805260a05261128c908161011182396080518181816102210152818161046a0152610f84015260a05181818161013601526107e70152f35b604051631e4fbdf760e01b815260006004820152602490fd5b600080fd5b634e487b7160e01b600052604160045260246000fdfe608080604052600436101561001357600080fd5b60003560e01c90816323e30c8b1461040c575080632ae18104146103d15780634707d000146102f6578063715018a61461029d57806387438b6a146102795780638da5cb5b14610250578063a77144581461020b578063a77787dc14610165578063c31c9c07146101205763f2fde38b1461008d57600080fd5b3461011b57602036600319011261011b576100a6610b39565b6100ae610c76565b6001600160a01b0390811690811561010257600054826bffffffffffffffffffffffff60a01b821617600055167f8be0079c531659141344cd1fd0a4f28419497f9722a3daafe3b4186f6b6457e0600080a3005b604051631e4fbdf760e01b815260006004820152602490fd5b600080fd5b3461011b57600036600319011261011b576040517f00000000000000000000000000000000000000000000000000000000000000006001600160a01b03168152602090f35b3461011b5761017336610c0c565b6040516303d1689d60e11b815260048101959095529193926020846024816001600160a01b0387165afa9384156101ff576000946101c5575b50906020946101bc939285610e2c565b50604051908152f35b92919093506020833d82116101f7575b816101e260209383610b97565b8101031261011b5791519290919060206101ac565b3d91506101d5565b6040513d6000823e3d90fd5b3461011b57600036600319011261011b576040517f00000000000000000000000000000000000000000000000000000000000000006001600160a01b03168152602090f35b3461011b57600036600319011261011b576000546040516001600160a01b039091168152602090f35b3461011b57602061029561028c36610c0c565b93929092610e2c565b604051908152f35b3461011b57600036600319011261011b576102b6610c76565b600080546001600160a01b0319811682556001600160a01b03167f8be0079c531659141344cd1fd0a4f28419497f9722a3daafe3b4186f6b6457e08280a3005b3461011b57604036600319011261011b5761030f610b39565b610317610b4f565b90610320610c76565b6040516370a0823160e01b8152306004820152906001600160a01b0316602082602481845afa9182156101ff5760009261039a575b5060405163a9059cbb60e01b60208201526001600160a01b039390931660248401526044808401929092529082526103989190610393606483610b97565b610cba565b005b9291506020833d82116103c9575b816103b560209383610b97565b8101031261011b5791519091610393610355565b3d91506103a8565b3461011b57600036600319011261011b5760206040517f439148f0bbc682ca079e46d6e2c2f0c1e3b820f1a291b069d8882abf8cf18dd98152f35b3461011b5760a036600319011261011b57610425610b39565b9061042e610b4f565b906084359067ffffffffffffffff9384831161011b573660238401121561011b5782600401359185831161011b57366024848601011161011b577f00000000000000000000000000000000000000000000000000000000000000006001600160a01b031633819003610b16575050306001600160a01b03821603610aed5750906104bc916024369201610bd5565b91604051906104ca82610b65565b6000825260006020830152600060408301526000606083015260606080830152600060a0830152835184019360c08186031261011b576020810151916001600160a01b038316830361011b5760408201519160608101519160808201519160a081015191821161011b5760208901603f83830101121561011b576020828201015191602061055784610bb9565b9a6105656040519c8d610b97565b848c520160408483850101011161011b5760c09261058c91604060208d0191850101610dd7565b0151966001600160a01b038816880361011b5760018060a01b03881660a0870152608086015260608501526040840152602083015260018060a01b0316815260405191631c56369f60e21b835260208360048160018060a01b0388165afa9283156101ff57600093610acc575b506040516306617c6960e11b8152906020826004816001600160a01b0389165afa9182156101ff57600092610a9b575b506001600160a01b0382811690821603610a7257506106516040830151602084015190610e1f565b6040516363880e0960e11b81526001600160a01b038581166004830152919291602090829060249082908a165afa9081156101ff57600091610a40575b5060405163313ce56760e01b8152906020826004816001600160a01b0387165afa9081156101ff576106cf6106d5926106db946000916109df575b50611232565b90611243565b83611243565b6040516363880e0960e11b81526001600160a01b038381166004830152602090829060249082908b165afa9081156101ff57600091610a0e575b5060405163313ce56760e01b8152906020826004816001600160a01b038b165afa9182156101ff57610752926106cf916000916109df5750611232565b9081156109c957606085015191620f4240928301908184116109b3576107789204611243565b0491821561097657608084015160405163155882bd60e31b81526001600160a01b0393841660048201529286166024840152604483019190915260648201929092523060848201524260a482015261010060c482015290602090829081906107e590610104830190610dfa565b7f00000000000000000000000000000000000000000000000000000000000000006001600160a01b031660e4830152038173EbfC106b5b5EDeA84FBA7CC019016c460015EE5b5af480156101ff5761094b575b50604081810151905163095ea7b360e01b81526001600160a01b03858116600483015260248201929092529260209184916044918391600091165af19182156101ff5760209261091e575b50808201519051604051636e553f6560e01b815260048101929092526001600160a01b039081166024830152909283916044918391600091165af180156101ff576108f3575b60206040517f439148f0bbc682ca079e46d6e2c2f0c1e3b820f1a291b069d8882abf8cf18dd98152f35b602090813d8311610917575b6109098183610b97565b8101031261011b57806108c9565b503d6108ff565b61093d90833d8511610944575b6109358183610b97565b810190610ca2565b5083610883565b503d61092b565b602090813d831161096f575b6109618183610b97565b8101031261011b5783610838565b503d610957565b60405162461bcd60e51b81526020600482015260156024820152746d6178496e206973206e6f7420706f73697469766560581b6044820152606490fd5b634e487b7160e01b600052601160045260246000fd5b634e487b7160e01b600052601260045260246000fd5b610a01915060203d602011610a07575b6109f98183610b97565b810190611219565b8a6106c9565b503d6109ef565b90506020813d602011610a38575b81610a2960209383610b97565b8101031261011b575187610715565b3d9150610a1c565b90506020813d602011610a6a575b81610a5b60209383610b97565b8101031261011b57518661068e565b3d9150610a4e565b604051633a559e9f60e21b81526001600160a01b03918216600482015291166024820152604490fd5b610abe91925060203d602011610ac5575b610ab68183610b97565b810190610db8565b9085610629565b503d610aac565b610ae691935060203d602011610ac557610ab68183610b97565b91846105f9565b604051636705ec4760e11b81526001600160a01b03919091166004820152306024820152604490fd5b631a01026f60e01b82523360048301526001600160a01b03166024820152604490fd5b600435906001600160a01b038216820361011b57565b602435906001600160a01b038216820361011b57565b60c0810190811067ffffffffffffffff821117610b8157604052565b634e487b7160e01b600052604160045260246000fd5b90601f8019910116810190811067ffffffffffffffff821117610b8157604052565b67ffffffffffffffff8111610b8157601f01601f191660200190565b929192610be182610bb9565b91610bef6040519384610b97565b82948184528183011161011b578281602093846000960137010152565b9060a060031983011261011b57600435916001600160a01b03602435818116810361011b5792604435926064359067ffffffffffffffff821161011b578060238301121561011b57816024610c6693600401359101610bd5565b91608435908116810361011b5790565b6000546001600160a01b03163303610c8a57565b60405163118cdaa760e01b8152336004820152602490fd5b9081602091031261011b5751801515810361011b5790565b600080610d049260018060a01b03169360208151910182865af13d15610d4d573d90610ce582610bb9565b91610cf36040519384610b97565b82523d6000602084013e5b83610d55565b8051908115159182610d32575b5050610d1a5750565b60249060405190635274afe760e01b82526004820152fd5b610d459250602080918301019101610ca2565b153880610d11565b606090610cfe565b90610d7c5750805115610d6a57805190602001fd5b604051630a12f52160e11b8152600490fd5b81511580610daf575b610d8d575090565b604051639996b31560e01b81526001600160a01b039091166004820152602490fd5b50803b15610d85565b9081602091031261011b57516001600160a01b038116810361011b5790565b60005b838110610dea5750506000910152565b8181015183820152602001610dda565b90602091610e1381518092818552858086019101610dd7565b601f01601f1916010190565b919082039182116109b357565b60408051631c56369f60e21b81526001600160a01b0396602096600496929593949189169392909188878981885afa96871561116e576000976111fa575b5085516323b872dd60e01b8a82015260249733898301523060448301528260648301526064825260a0820182811067ffffffffffffffff8211176111e6578852610eb691908c16610cba565b85516348631af960e01b81528881018290529389858981895afa9485156111db5791868b94928d8a9795600099611198575b5092610f49949260a08a93610f5d9998968b5191610f0583610b65565b169b8c9b8c8352858b84015282015285606082015286608082015201528a519788968701528a8601526060850152608084015260c060a084015260e0830190610dfa565b8560c083015203601f198101835282610b97565b83516306617c6960e11b81529787898881875afa9889156110fa57600099611179575b50807f000000000000000000000000000000000000000000000000000000000000000016981684519063613255ab60e01b82528088830152888288818d5afa91821561116e5760009261113f575b508551996370a0823160e01b93848c52858a8d01528a8c8a818a5afa9b8c156111345760009c611105575b50908860008b6110368e96958c5198899788968795632e7ff4ef60e11b875230908701528501526044840152608060648401526084830190610dfa565b03925af180156110fa579186918994936110dd575b50855194859384928352898301525afa9485156110d25760009561109e575b505084841115611084575050509061108191610e1f565b90565b908460449492519363f51cd51560e01b8552840152820152fd5b8181969293963d83116110cb575b6110b68183610b97565b810103126110c857505192388061106a565b80fd5b503d6110ac565b82513d6000823e3d90fd5b6110f390853d8711610944576109358183610b97565b503861104b565b85513d6000823e3d90fd5b909b8b82813d831161112d575b61111c8183610b97565b810103126110c85750519a88610ff9565b503d611112565b88513d6000823e3d90fd5b90918982813d8311611167575b6111568183610b97565b810103126110c85750519038610fce565b503d61114c565b86513d6000823e3d90fd5b611191919950883d8a11610ac557610ab68183610b97565b9738610f80565b9496925050969193955082813d83116111d4575b6111b68183610b97565b810103126110c85750519386938a939092909187908d610f49610ee8565b503d6111ac565b87513d6000823e3d90fd5b8960418c634e487b7160e01b600052526000fd5b611212919750893d8b11610ac557610ab68183610b97565b9538610e6a565b9081602091031261011b575160ff8116810361011b5790565b60ff16604d81116109b357600a0a90565b818102929181159184041417156109b35756fea264697066735822122015befffd3dc48bfa8efa7f78564eca8790d54969be68163c1e5e8eef5fa557af64736f6c63430008140033",
  "deployedBytecode": "0x608080604052600436101561001357600080fd5b60003560e01c90816323e30c8b1461040c575080632ae18104146103d15780634707d000146102f6578063715018a61461029d57806387438b6a146102795780638da5cb5b14610250578063a77144581461020b578063a77787dc14610165578063c31c9c07146101205763f2fde38b1461008d57600080fd5b3461011b57602036600319011261011b576100a6610b39565b6100ae610c76565b6001600160a01b0390811690811561010257600054826bffffffffffffffffffffffff60a01b821617600055167f8be0079c531659141344cd1fd0a4f28419497f9722a3daafe3b4186f6b6457e0600080a3005b604051631e4fbdf760e01b815260006004820152602490fd5b600080fd5b3461011b57600036600319011261011b576040517f00000000000000000000000000000000000000000000000000000000000000006001600160a01b03168152602090f35b3461011b5761017336610c0c565b6040516303d1689d60e11b815260048101959095529193926020846024816001600160a01b0387165afa9384156101ff576000946101c5575b50906020946101bc939285610e2c565b50604051908152f35b92919093506020833d82116101f7575b816101e260209383610b97565b8101031261011b5791519290919060206101ac565b3d91506101d5565b6040513d6000823e3d90fd5b3461011b57600036600319011261011b576040517f00000000000000000000000000000000000000000000000000000000000000006001600160a01b03168152602090f35b3461011b57600036600319011261011b576000546040516001600160a01b039091168152602090f35b3461011b57602061029561028c36610c0c565b93929092610e2c565b604051908152f35b3461011b57600036600319011261011b576102b6610c76565b600080546001600160a01b0319811682556001600160a01b03167f8be0079c531659141344cd1fd0a4f28419497f9722a3daafe3b4186f6b6457e08280a3005b3461011b57604036600319011261011b5761030f610b39565b610317610b4f565b90610320610c76565b6040516370a0823160e01b8152306004820152906001600160a01b0316602082602481845afa9182156101ff5760009261039a575b5060405163a9059cbb60e01b60208201526001600160a01b039390931660248401526044808401929092529082526103989190610393606483610b97565b610cba565b005b9291506020833d82116103c9575b816103b560209383610b97565b8101031261011b5791519091610393610355565b3d91506103a8565b3461011b57600036600319011261011b5760206040517f439148f0bbc682ca079e46d6e2c2f0c1e3b820f1a291b069d8882abf8cf18dd98152f35b3461011b5760a036600319011261011b57610425610b39565b9061042e610b4f565b906084359067ffffffffffffffff9384831161011b573660238401121561011b5782600401359185831161011b57366024848601011161011b577f00000000000000000000000000000000000000000000000000000000000000006001600160a01b031633819003610b16575050306001600160a01b03821603610aed5750906104bc916024369201610bd5565b91604051906104ca82610b65565b6000825260006020830152600060408301526000606083015260606080830152600060a0830152835184019360c08186031261011b576020810151916001600160a01b038316830361011b5760408201519160608101519160808201519160a081015191821161011b5760208901603f83830101121561011b576020828201015191602061055784610bb9565b9a6105656040519c8d610b97565b848c520160408483850101011161011b5760c09261058c91604060208d0191850101610dd7565b0151966001600160a01b038816880361011b5760018060a01b03881660a0870152608086015260608501526040840152602083015260018060a01b0316815260405191631c56369f60e21b835260208360048160018060a01b0388165afa9283156101ff57600093610acc575b506040516306617c6960e11b8152906020826004816001600160a01b0389165afa9182156101ff57600092610a9b575b506001600160a01b0382811690821603610a7257506106516040830151602084015190610e1f565b6040516363880e0960e11b81526001600160a01b038581166004830152919291602090829060249082908a165afa9081156101ff57600091610a40575b5060405163313ce56760e01b8152906020826004816001600160a01b0387165afa9081156101ff576106cf6106d5926106db946000916109df575b50611232565b90611243565b83611243565b6040516363880e0960e11b81526001600160a01b038381166004830152602090829060249082908b165afa9081156101ff57600091610a0e575b5060405163313ce56760e01b8152906020826004816001600160a01b038b165afa9182156101ff57610752926106cf916000916109df5750611232565b9081156109c957606085015191620f4240928301908184116109b3576107789204611243565b0491821561097657608084015160405163155882bd60e31b81526001600160a01b0393841660048201529286166024840152604483019190915260648201929092523060848201524260a482015261010060c482015290602090829081906107e590610104830190610dfa565b7f00000000000000000000000000000000000000000000000000000000000000006001600160a01b031660e4830152038173__$a0a04c66fcc257ca25507f38a2a78666f7$__5af480156101ff5761094b575b50604081810151905163095ea7b360e01b81526001600160a01b03858116600483015260248201929092529260209184916044918391600091165af19182156101ff5760209261091e575b50808201519051604051636e553f6560e01b815260048101929092526001600160a01b039081166024830152909283916044918391600091165af180156101ff576108f3575b60206040517f439148f0bbc682ca079e46d6e2c2f0c1e3b820f1a291b069d8882abf8cf18dd98152f35b602090813d8311610917575b6109098183610b97565b8101031261011b57806108c9565b503d6108ff565b61093d90833d8511610944575b6109358183610b97565b810190610ca2565b5083610883565b503d61092b565b602090813d831161096f575b6109618183610b97565b8101031261011b5783610838565b503d610957565b60405162461bcd60e51b81526020600482015260156024820152746d6178496e206973206e6f7420706f73697469766560581b6044820152606490fd5b634e487b7160e01b600052601160045260246000fd5b634e487b7160e01b600052601260045260246000fd5b610a01915060203d602011610a07575b6109f98183610b97565b810190611219565b8a6106c9565b503d6109ef565b90506020813d602011610a38575b81610a2960209383610b97565b8101031261011b575187610715565b3d9150610a1c565b90506020813d602011610a6a575b81610a5b60209383610b97565b8101031261011b57518661068e565b3d9150610a4e565b604051633a559e9f60e21b81526001600160a01b03918216600482015291166024820152604490fd5b610abe91925060203d602011610ac5575b610ab68183610b97565b810190610db8565b9085610629565b503d610aac565b610ae691935060203d602011610ac557610ab68183610b97565b91846105f9565b604051636705ec4760e11b81526001600160a01b03919091166004820152306024820152604490fd5b631a01026f60e01b82523360048301526001600160a01b03166024820152604490fd5b600435906001600160a01b038216820361011b57565b602435906001600160a01b038216820361011b57565b60c0810190811067ffffffffffffffff821117610b8157604052565b634e487b7160e01b600052604160045260246000fd5b90601f8019910116810190811067ffffffffffffffff821117610b8157604052565b67ffffffffffffffff8111610b8157601f01601f191660200190565b929192610be182610bb9565b91610bef6040519384610b97565b82948184528183011161011b578281602093846000960137010152565b9060a060031983011261011b57600435916001600160a01b03602435818116810361011b5792604435926064359067ffffffffffffffff821161011b578060238301121561011b57816024610c6693600401359101610bd5565b91608435908116810361011b5790565b6000546001600160a01b03163303610c8a57565b60405163118cdaa760e01b8152336004820152602490fd5b9081602091031261011b5751801515810361011b5790565b600080610d049260018060a01b03169360208151910182865af13d15610d4d573d90610ce582610bb9565b91610cf36040519384610b97565b82523d6000602084013e5b83610d55565b8051908115159182610d32575b5050610d1a5750565b60249060405190635274afe760e01b82526004820152fd5b610d459250602080918301019101610ca2565b153880610d11565b606090610cfe565b90610d7c5750805115610d6a57805190602001fd5b604051630a12f52160e11b8152600490fd5b81511580610daf575b610d8d575090565b604051639996b31560e01b81526001600160a01b039091166004820152602490fd5b50803b15610d85565b9081602091031261011b57516001600160a01b038116810361011b5790565b60005b838110610dea5750506000910152565b8181015183820152602001610dda565b90602091610e1381518092818552858086019101610dd7565b601f01601f1916010190565b919082039182116109b357565b60408051631c56369f60e21b81526001600160a01b0396602096600496929593949189169392909188878981885afa96871561116e576000976111fa575b5085516323b872dd60e01b8a82015260249733898301523060448301528260648301526064825260a0820182811067ffffffffffffffff8211176111e6578852610eb691908c16610cba565b85516348631af960e01b81528881018290529389858981895afa9485156111db5791868b94928d8a9795600099611198575b5092610f49949260a08a93610f5d9998968b5191610f0583610b65565b169b8c9b8c8352858b84015282015285606082015286608082015201528a519788968701528a8601526060850152608084015260c060a084015260e0830190610dfa565b8560c083015203601f198101835282610b97565b83516306617c6960e11b81529787898881875afa9889156110fa57600099611179575b50807f000000000000000000000000000000000000000000000000000000000000000016981684519063613255ab60e01b82528088830152888288818d5afa91821561116e5760009261113f575b508551996370a0823160e01b93848c52858a8d01528a8c8a818a5afa9b8c156111345760009c611105575b50908860008b6110368e96958c5198899788968795632e7ff4ef60e11b875230908701528501526044840152608060648401526084830190610dfa565b03925af180156110fa579186918994936110dd575b50855194859384928352898301525afa9485156110d25760009561109e575b505084841115611084575050509061108191610e1f565b90565b908460449492519363f51cd51560e01b8552840152820152fd5b8181969293963d83116110cb575b6110b68183610b97565b810103126110c857505192388061106a565b80fd5b503d6110ac565b82513d6000823e3d90fd5b6110f390853d8711610944576109358183610b97565b503861104b565b85513d6000823e3d90fd5b909b8b82813d831161112d575b61111c8183610b97565b810103126110c85750519a88610ff9565b503d611112565b88513d6000823e3d90fd5b90918982813d8311611167575b6111568183610b97565b810103126110c85750519038610fce565b503d61114c565b86513d6000823e3d90fd5b611191919950883d8a11610ac557610ab68183610b97565b9738610f80565b9496925050969193955082813d83116111d4575b6111b68183610b97565b810103126110c85750519386938a939092909187908d610f49610ee8565b503d6111ac565b87513d6000823e3d90fd5b8960418c634e487b7160e01b600052526000fd5b611212919750893d8b11610ac557610ab68183610b97565b9538610e6a565b9081602091031261011b575160ff8116810361011b5790565b60ff16604d81116109b357600a0a90565b818102929181159184041417156109b35756fea264697066735822122015befffd3dc48bfa8efa7f78564eca8790d54969be68163c1e5e8eef5fa557af64736f6c63430008140033",
  "libraries": {
    "UniswapV3SwapLogic": "0xEbfC106b5b5EDeA84FBA7CC019016c460015EE5b"
  },
  "devdoc": {
    "details": "Implementation of DLoopDepositorBase with Uniswap V3 swap functionality",
    "errors": {
      "AddressEmptyCode(address)": [
        {
          "details": "There's no code at `target` (it is not a contract)."
        }
      ],
      "AddressInsufficientBalance(address)": [
        {
          "details": "The ETH balance of the account is not enough to perform the operation."
        }
      ],
      "FailedInnerCall()": [
        {
          "details": "A call to an address target failed. The target may have reverted."
        }
      ],
      "OwnableInvalidOwner(address)": [
        {
          "details": "The owner is not a valid owner account. (eg. `address(0)`)"
        }
      ],
      "OwnableUnauthorizedAccount(address)": [
        {
          "details": "The caller account is not authorized to perform an operation."
        }
      ],
      "SafeERC20FailedOperation(address)": [
        {
          "details": "An operation with an ERC20 token failed."
        }
      ]
    },
    "kind": "dev",
    "methods": {
      "constructor": {
        "details": "Constructor for the DLoopDepositorUniswapV3 contract",
        "params": {
          "_flashLender": "Address of the flash loan provider",
          "_swapRouter": "Address of the Uniswap V3 swap router"
        }
      },
      "deposit(uint256,address,uint256,bytes,address)": {
        "details": "Deposits assets into the core vault",
        "params": {
          "assets": "Amount of assets to deposit",
          "dLoopCore": "Address of the DLoopCore contract to use",
          "dStableToUnderlyingSwapData": "Swap data from dStable to underlying asset",
          "receiver": "Address to receive the minted shares",
          "slippageTolerance": "Slippage tolerance for the swap"
        },
        "returns": {
          "shares": "Amount of shares minted"
        }
      },
      "mint(uint256,address,uint256,bytes,address)": {
        "details": "Mints shares to the receiver by depositing assets to the core vault",
        "params": {
          "dLoopCore": "Address of the DLoopCore contract to use",
          "dStableToUnderlyingSwapData": "Swap data from dStable to underlying asset",
          "receiver": "Address to receive the minted shares",
          "shares": "Amount of shares to mint",
          "slippageTolerance": "Slippage tolerance for the swap"
        },
        "returns": {
          "assets": "Amount of assets deposited"
        }
      },
      "onFlashLoan(address,address,uint256,uint256,bytes)": {
        "details": "Callback function for flash loans",
        "params": {
          "data": "Additional data passed to the flash loan",
          "initiator": "Address that initiated the flash loan",
          "token": "Address of the flash-borrowed token"
        },
        "returns": {
          "_0": "bytes32 The flash loan callback success bytes"
        }
      },
      "owner()": {
        "details": "Returns the address of the current owner."
      },
      "renounceOwnership()": {
        "details": "Leaves the contract without owner. It will not be possible to call `onlyOwner` functions. Can only be called by the current owner. NOTE: Renouncing ownership will leave the contract without an owner, thereby disabling any functionality that is only available to the owner."
      },
      "rescueToken(address,address)": {
        "details": "Rescues tokens accidentally sent to the contract",
        "params": {
          "receiver": "Address to receive the rescued tokens",
          "token": "Address of the token to rescue"
        }
      },
      "transferOwnership(address)": {
        "details": "Transfers ownership of the contract to a new account (`newOwner`). Can only be called by the current owner."
      }
    },
    "title": "DLoopDepositorUniswapV3",
    "version": 1
  },
  "userdoc": {
    "kind": "user",
    "methods": {},
    "version": 1
  },
  "storageLayout": {
    "storage": [
      {
        "astId": 554,
        "contract": "contracts/vault/dLOOP/periphery/venue/uniswap-v3/DLoopDepositorUniswapV3.sol:DLoopDepositorUniswapV3",
        "label": "_owner",
        "offset": 0,
        "slot": "0",
        "type": "t_address"
      }
    ],
    "types": {
      "t_address": {
        "encoding": "inplace",
        "label": "address",
        "numberOfBytes": "20"
      }
    }
  }
}