{
  "address": "0x27eef07a9aCAA87bA7a5c04F8237BEAd164829D0",
  "abi": [
    {
      "inputs": [
        {
          "internalType": "string",
          "name": "_name",
          "type": "string"
        },
        {
          "internalType": "string",
          "name": "_symbol",
          "type": "string"
        },
        {
          "internalType": "contract ERC20",
          "name": "_underlyingAsset",
          "type": "address"
        },
        {
          "internalType": "contract ERC20",
          "name": "_dusd",
          "type": "address"
        },
        {
          "internalType": "contract IERC3156FlashLender",
          "name": "_flashLender",
          "type": "address"
        },
        {
          "internalType": "contract ISwapRouter",
          "name": "_swapRouter",
          "type": "address"
        },
        {
          "internalType": "bytes",
          "name": "_defaultDUSDToUnderlyingSwapPath",
          "type": "bytes"
        },
        {
          "internalType": "bytes",
          "name": "_defaultUnderlyingToDUSDSwapPath",
          "type": "bytes"
        },
        {
          "internalType": "contract IPoolAddressesProvider",
          "name": "_lendingPoolAddressesProvider",
          "type": "address"
        },
        {
          "internalType": "uint32",
          "name": "_targetLeverageBps",
          "type": "uint32"
        },
        {
          "internalType": "uint256",
          "name": "_swapSlippageTolerance",
          "type": "uint256"
        },
        {
          "internalType": "uint256",
          "name": "_maxSubsidyBps",
          "type": "uint256"
        },
        {
          "internalType": "uint256",
          "name": "_minimumUnderlyingAssetAmount",
          "type": "uint256"
        },
        {
          "internalType": "uint256",
          "name": "_minimumSharesAmount",
          "type": "uint256"
        }
      ],
      "stateMutability": "nonpayable",
      "type": "constructor"
    },
    {
      "inputs": [
        {
          "internalType": "address",
          "name": "target",
          "type": "address"
        }
      ],
      "name": "AddressEmptyCode",
      "type": "error"
    },
    {
      "inputs": [
        {
          "internalType": "address",
          "name": "account",
          "type": "address"
        }
      ],
      "name": "AddressInsufficientBalance",
      "type": "error"
    },
    {
      "inputs": [
        {
          "internalType": "uint256",
          "name": "assetPrice",
          "type": "uint256"
        },
        {
          "internalType": "uint256",
          "name": "minPrice",
          "type": "uint256"
        }
      ],
      "name": "BelowMinPrice",
      "type": "error"
    },
    {
      "inputs": [
        {
          "internalType": "uint256",
          "name": "totalCollateralBase",
          "type": "uint256"
        },
        {
          "internalType": "uint256",
          "name": "totalDebtBase",
          "type": "uint256"
        }
      ],
      "name": "CollateralLessThanDebt",
      "type": "error"
    },
    {
      "inputs": [
        {
          "internalType": "uint256",
          "name": "newLeverageBps",
          "type": "uint256"
        },
        {
          "internalType": "uint256",
          "name": "targetLeverageBps",
          "type": "uint256"
        },
        {
          "internalType": "uint256",
          "name": "currentLeverageBps",
          "type": "uint256"
        }
      ],
      "name": "DecreaseLeverageOutOfRange",
      "type": "error"
    },
    {
      "inputs": [
        {
          "internalType": "uint256",
          "name": "currentBalance",
          "type": "uint256"
        },
        {
          "internalType": "uint256",
          "name": "newTotalAssets",
          "type": "uint256"
        }
      ],
      "name": "DepositInsufficientToSupply",
      "type": "error"
    },
    {
      "inputs": [
        {
          "internalType": "address",
          "name": "spender",
          "type": "address"
        },
        {
          "internalType": "uint256",
          "name": "allowance",
          "type": "uint256"
        },
        {
          "internalType": "uint256",
          "name": "needed",
          "type": "uint256"
        }
      ],
      "name": "ERC20InsufficientAllowance",
      "type": "error"
    },
    {
      "inputs": [
        {
          "internalType": "address",
          "name": "sender",
          "type": "address"
        },
        {
          "internalType": "uint256",
          "name": "balance",
          "type": "uint256"
        },
        {
          "internalType": "uint256",
          "name": "needed",
          "type": "uint256"
        }
      ],
      "name": "ERC20InsufficientBalance",
      "type": "error"
    },
    {
      "inputs": [
        {
          "internalType": "address",
          "name": "approver",
          "type": "address"
        }
      ],
      "name": "ERC20InvalidApprover",
      "type": "error"
    },
    {
      "inputs": [
        {
          "internalType": "address",
          "name": "receiver",
          "type": "address"
        }
      ],
      "name": "ERC20InvalidReceiver",
      "type": "error"
    },
    {
      "inputs": [
        {
          "internalType": "address",
          "name": "sender",
          "type": "address"
        }
      ],
      "name": "ERC20InvalidSender",
      "type": "error"
    },
    {
      "inputs": [
        {
          "internalType": "address",
          "name": "spender",
          "type": "address"
        }
      ],
      "name": "ERC20InvalidSpender",
      "type": "error"
    },
    {
      "inputs": [
        {
          "internalType": "address",
          "name": "receiver",
          "type": "address"
        },
        {
          "internalType": "uint256",
          "name": "assets",
          "type": "uint256"
        },
        {
          "internalType": "uint256",
          "name": "max",
          "type": "uint256"
        }
      ],
      "name": "ERC4626ExceededMaxDeposit",
      "type": "error"
    },
    {
      "inputs": [
        {
          "internalType": "address",
          "name": "receiver",
          "type": "address"
        },
        {
          "internalType": "uint256",
          "name": "shares",
          "type": "uint256"
        },
        {
          "internalType": "uint256",
          "name": "max",
          "type": "uint256"
        }
      ],
      "name": "ERC4626ExceededMaxMint",
      "type": "error"
    },
    {
      "inputs": [
        {
          "internalType": "address",
          "name": "owner",
          "type": "address"
        },
        {
          "internalType": "uint256",
          "name": "shares",
          "type": "uint256"
        },
        {
          "internalType": "uint256",
          "name": "max",
          "type": "uint256"
        }
      ],
      "name": "ERC4626ExceededMaxRedeem",
      "type": "error"
    },
    {
      "inputs": [
        {
          "internalType": "address",
          "name": "owner",
          "type": "address"
        },
        {
          "internalType": "uint256",
          "name": "assets",
          "type": "uint256"
        },
        {
          "internalType": "uint256",
          "name": "max",
          "type": "uint256"
        }
      ],
      "name": "ERC4626ExceededMaxWithdraw",
      "type": "error"
    },
    {
      "inputs": [
        {
          "internalType": "uint256",
          "name": "assetPrice",
          "type": "uint256"
        },
        {
          "internalType": "uint256",
          "name": "maxPrice",
          "type": "uint256"
        }
      ],
      "name": "ExceedMaxPrice",
      "type": "error"
    },
    {
      "inputs": [],
      "name": "FailedInnerCall",
      "type": "error"
    },
    {
      "inputs": [
        {
          "internalType": "uint256",
          "name": "newLeverageBps",
          "type": "uint256"
        },
        {
          "internalType": "uint256",
          "name": "targetLeverageBps",
          "type": "uint256"
        },
        {
          "internalType": "uint256",
          "name": "currentLeverageBps",
          "type": "uint256"
        }
      ],
      "name": "IncreaseLeverageOutOfRange",
      "type": "error"
    },
    {
      "inputs": [
        {
          "internalType": "address",
          "name": "token",
          "type": "address"
        },
        {
          "internalType": "uint256",
          "name": "estimatedInputAmount",
          "type": "uint256"
        },
        {
          "internalType": "uint256",
          "name": "currentBalance",
          "type": "uint256"
        }
      ],
      "name": "InsufficientInputAmount",
      "type": "error"
    },
    {
      "inputs": [
        {
          "internalType": "address",
          "name": "owner",
          "type": "address"
        },
        {
          "internalType": "uint256",
          "name": "sharesToRedeem",
          "type": "uint256"
        },
        {
          "internalType": "uint256",
          "name": "shareBalance",
          "type": "uint256"
        }
      ],
      "name": "InsufficientShareBalanceToRedeem",
      "type": "error"
    },
    {
      "inputs": [
        {
          "internalType": "address",
          "name": "inputToken",
          "type": "address"
        },
        {
          "internalType": "address",
          "name": "outputToken",
          "type": "address"
        }
      ],
      "name": "InvalidInputOutputTokens",
      "type": "error"
    },
    {
      "inputs": [
        {
          "internalType": "address",
          "name": "token",
          "type": "address"
        },
        {
          "internalType": "uint256",
          "name": "maxWithdrawUnderlyingBeforeRepay",
          "type": "uint256"
        },
        {
          "internalType": "uint256",
          "name": "maxWithdrawUnderlyingAfterRepay",
          "type": "uint256"
        }
      ],
      "name": "InvalidMaxWithdrawAfterRepay",
      "type": "error"
    },
    {
      "inputs": [
        {
          "internalType": "uint256",
          "name": "totalAssets",
          "type": "uint256"
        },
        {
          "internalType": "uint256",
          "name": "totalSupply",
          "type": "uint256"
        }
      ],
      "name": "InvalidTotalSupplyAndAssets",
      "type": "error"
    },
    {
      "inputs": [],
      "name": "MathOverflowedMulDiv",
      "type": "error"
    },
    {
      "inputs": [
        {
          "internalType": "address",
          "name": "owner",
          "type": "address"
        }
      ],
      "name": "OwnableInvalidOwner",
      "type": "error"
    },
    {
      "inputs": [
        {
          "internalType": "address",
          "name": "account",
          "type": "address"
        }
      ],
      "name": "OwnableUnauthorizedAccount",
      "type": "error"
    },
    {
      "inputs": [
        {
          "internalType": "uint256",
          "name": "assets",
          "type": "uint256"
        },
        {
          "internalType": "uint256",
          "name": "minAssets",
          "type": "uint256"
        }
      ],
      "name": "RemainingAssetsBelowMinimum",
      "type": "error"
    },
    {
      "inputs": [
        {
          "internalType": "address",
          "name": "token",
          "type": "address"
        }
      ],
      "name": "SafeERC20FailedOperation",
      "type": "error"
    },
    {
      "inputs": [
        {
          "internalType": "uint256",
          "name": "shares",
          "type": "uint256"
        },
        {
          "internalType": "uint256",
          "name": "minimumAmount",
          "type": "uint256"
        }
      ],
      "name": "SharesLessThanMinimumAmount",
      "type": "error"
    },
    {
      "inputs": [
        {
          "internalType": "uint256",
          "name": "currentLeverageBps",
          "type": "uint256"
        },
        {
          "internalType": "uint256",
          "name": "lowerBoundTargetLeverageBps",
          "type": "uint256"
        },
        {
          "internalType": "uint256",
          "name": "upperBoundTargetLeverageBps",
          "type": "uint256"
        }
      ],
      "name": "TooImbalanced",
      "type": "error"
    },
    {
      "inputs": [
        {
          "internalType": "uint256",
          "name": "assets",
          "type": "uint256"
        },
        {
          "internalType": "uint256",
          "name": "minimumAmount",
          "type": "uint256"
        }
      ],
      "name": "UnderlyingAssetLessThanMinimumAmount",
      "type": "error"
    },
    {
      "inputs": [
        {
          "internalType": "uint256",
          "name": "principalBefore",
          "type": "uint256"
        },
        {
          "internalType": "uint256",
          "name": "principalAfter",
          "type": "uint256"
        }
      ],
      "name": "UnexpectedLossOfPrincipal",
      "type": "error"
    },
    {
      "inputs": [],
      "name": "UnknownInitiator",
      "type": "error"
    },
    {
      "inputs": [],
      "name": "UnknownLender",
      "type": "error"
    },
    {
      "inputs": [],
      "name": "UnknownToken",
      "type": "error"
    },
    {
      "inputs": [
        {
          "internalType": "address",
          "name": "token",
          "type": "address"
        },
        {
          "internalType": "uint256",
          "name": "assetToRemoveFromLending",
          "type": "uint256"
        },
        {
          "internalType": "uint256",
          "name": "withdrawableAmount",
          "type": "uint256"
        }
      ],
      "name": "WithdrawableIsLessThanRequired",
      "type": "error"
    },
    {
      "anonymous": false,
      "inputs": [
        {
          "indexed": true,
          "internalType": "address",
          "name": "owner",
          "type": "address"
        },
        {
          "indexed": true,
          "internalType": "address",
          "name": "spender",
          "type": "address"
        },
        {
          "indexed": false,
          "internalType": "uint256",
          "name": "value",
          "type": "uint256"
        }
      ],
      "name": "Approval",
      "type": "event"
    },
    {
      "anonymous": false,
      "inputs": [
        {
          "indexed": true,
          "internalType": "address",
          "name": "sender",
          "type": "address"
        },
        {
          "indexed": true,
          "internalType": "address",
          "name": "owner",
          "type": "address"
        },
        {
          "indexed": false,
          "internalType": "uint256",
          "name": "assets",
          "type": "uint256"
        },
        {
          "indexed": false,
          "internalType": "uint256",
          "name": "shares",
          "type": "uint256"
        }
      ],
      "name": "Deposit",
      "type": "event"
    },
    {
      "anonymous": false,
      "inputs": [
        {
          "indexed": true,
          "internalType": "address",
          "name": "previousOwner",
          "type": "address"
        },
        {
          "indexed": true,
          "internalType": "address",
          "name": "newOwner",
          "type": "address"
        }
      ],
      "name": "OwnershipTransferred",
      "type": "event"
    },
    {
      "anonymous": false,
      "inputs": [
        {
          "indexed": true,
          "internalType": "address",
          "name": "from",
          "type": "address"
        },
        {
          "indexed": true,
          "internalType": "address",
          "name": "to",
          "type": "address"
        },
        {
          "indexed": false,
          "internalType": "uint256",
          "name": "value",
          "type": "uint256"
        }
      ],
      "name": "Transfer",
      "type": "event"
    },
    {
      "anonymous": false,
      "inputs": [
        {
          "indexed": true,
          "internalType": "address",
          "name": "sender",
          "type": "address"
        },
        {
          "indexed": true,
          "internalType": "address",
          "name": "receiver",
          "type": "address"
        },
        {
          "indexed": true,
          "internalType": "address",
          "name": "owner",
          "type": "address"
        },
        {
          "indexed": false,
          "internalType": "uint256",
          "name": "assets",
          "type": "uint256"
        },
        {
          "indexed": false,
          "internalType": "uint256",
          "name": "shares",
          "type": "uint256"
        }
      ],
      "name": "Withdraw",
      "type": "event"
    },
    {
      "inputs": [],
      "name": "DEFAULT_DUSD_TO_UNDERLYING_SWAP_PATH",
      "outputs": [
        {
          "internalType": "bytes",
          "name": "",
          "type": "bytes"
        }
      ],
      "stateMutability": "view",
      "type": "function"
    },
    {
      "inputs": [],
      "name": "DEFAULT_UNDERLYING_TO_DUSD_SWAP_PATH",
      "outputs": [
        {
          "internalType": "bytes",
          "name": "",
          "type": "bytes"
        }
      ],
      "stateMutability": "view",
      "type": "function"
    },
    {
      "inputs": [],
      "name": "FLASHLOAN_CALLBACK",
      "outputs": [
        {
          "internalType": "bytes32",
          "name": "",
          "type": "bytes32"
        }
      ],
      "stateMutability": "view",
      "type": "function"
    },
    {
      "inputs": [],
      "name": "LOWER_BOUND_TARGET_LEVERAGE_BPS",
      "outputs": [
        {
          "internalType": "uint32",
          "name": "",
          "type": "uint32"
        }
      ],
      "stateMutability": "view",
      "type": "function"
    },
    {
      "inputs": [],
      "name": "TARGET_LEVERAGE_BPS",
      "outputs": [
        {
          "internalType": "uint32",
          "name": "",
          "type": "uint32"
        }
      ],
      "stateMutability": "view",
      "type": "function"
    },
    {
      "inputs": [],
      "name": "UPPER_BOUND_TARGET_LEVERAGE_BPS",
      "outputs": [
        {
          "internalType": "uint32",
          "name": "",
          "type": "uint32"
        }
      ],
      "stateMutability": "view",
      "type": "function"
    },
    {
      "inputs": [],
      "name": "VARIABLE_LENDING_INTERST_RATE_MODE",
      "outputs": [
        {
          "internalType": "uint256",
          "name": "",
          "type": "uint256"
        }
      ],
      "stateMutability": "view",
      "type": "function"
    },
    {
      "inputs": [
        {
          "internalType": "address",
          "name": "owner",
          "type": "address"
        },
        {
          "internalType": "address",
          "name": "spender",
          "type": "address"
        }
      ],
      "name": "allowance",
      "outputs": [
        {
          "internalType": "uint256",
          "name": "",
          "type": "uint256"
        }
      ],
      "stateMutability": "view",
      "type": "function"
    },
    {
      "inputs": [
        {
          "internalType": "address",
          "name": "spender",
          "type": "address"
        },
        {
          "internalType": "uint256",
          "name": "value",
          "type": "uint256"
        }
      ],
      "name": "approve",
      "outputs": [
        {
          "internalType": "bool",
          "name": "",
          "type": "bool"
        }
      ],
      "stateMutability": "nonpayable",
      "type": "function"
    },
    {
      "inputs": [],
      "name": "asset",
      "outputs": [
        {
          "internalType": "address",
          "name": "",
          "type": "address"
        }
      ],
      "stateMutability": "view",
      "type": "function"
    },
    {
      "inputs": [
        {
          "internalType": "address",
          "name": "account",
          "type": "address"
        }
      ],
      "name": "balanceOf",
      "outputs": [
        {
          "internalType": "uint256",
          "name": "",
          "type": "uint256"
        }
      ],
      "stateMutability": "view",
      "type": "function"
    },
    {
      "inputs": [],
      "name": "checkIsTooImbalanced",
      "outputs": [],
      "stateMutability": "view",
      "type": "function"
    },
    {
      "inputs": [
        {
          "internalType": "uint256",
          "name": "shares",
          "type": "uint256"
        }
      ],
      "name": "convertToAssets",
      "outputs": [
        {
          "internalType": "uint256",
          "name": "",
          "type": "uint256"
        }
      ],
      "stateMutability": "view",
      "type": "function"
    },
    {
      "inputs": [
        {
          "internalType": "uint256",
          "name": "assets",
          "type": "uint256"
        }
      ],
      "name": "convertToShares",
      "outputs": [
        {
          "internalType": "uint256",
          "name": "",
          "type": "uint256"
        }
      ],
      "stateMutability": "view",
      "type": "function"
    },
    {
      "inputs": [],
      "name": "decimals",
      "outputs": [
        {
          "internalType": "uint8",
          "name": "",
          "type": "uint8"
        }
      ],
      "stateMutability": "view",
      "type": "function"
    },
    {
      "inputs": [
        {
          "internalType": "uint256",
          "name": "dusdAmount",
          "type": "uint256"
        },
        {
          "internalType": "uint256",
          "name": "maxPriceInBase",
          "type": "uint256"
        }
      ],
      "name": "decreaseLeverage",
      "outputs": [],
      "stateMutability": "nonpayable",
      "type": "function"
    },
    {
      "inputs": [
        {
          "internalType": "uint256",
          "name": "assets",
          "type": "uint256"
        },
        {
          "internalType": "address",
          "name": "receiver",
          "type": "address"
        }
      ],
      "name": "deposit",
      "outputs": [
        {
          "internalType": "uint256",
          "name": "shares",
          "type": "uint256"
        }
      ],
      "stateMutability": "nonpayable",
      "type": "function"
    },
    {
      "inputs": [
        {
          "internalType": "uint256",
          "name": "assets",
          "type": "uint256"
        },
        {
          "internalType": "address",
          "name": "receiver",
          "type": "address"
        },
        {
          "internalType": "uint256",
          "name": "slippageTolerance",
          "type": "uint256"
        },
        {
          "internalType": "bytes",
          "name": "dusdToUnderlyingSwapData",
          "type": "bytes"
        }
      ],
      "name": "depositWith",
      "outputs": [
        {
          "internalType": "uint256",
          "name": "shares",
          "type": "uint256"
        }
      ],
      "stateMutability": "nonpayable",
      "type": "function"
    },
    {
      "inputs": [],
      "name": "dusd",
      "outputs": [
        {
          "internalType": "contract ERC20",
          "name": "",
          "type": "address"
        }
      ],
      "stateMutability": "view",
      "type": "function"
    },
    {
      "inputs": [],
      "name": "flashLender",
      "outputs": [
        {
          "internalType": "contract IERC3156FlashLender",
          "name": "",
          "type": "address"
        }
      ],
      "stateMutability": "view",
      "type": "function"
    },
    {
      "inputs": [],
      "name": "getCurrentLeverageBps",
      "outputs": [
        {
          "internalType": "uint256",
          "name": "",
          "type": "uint256"
        }
      ],
      "stateMutability": "view",
      "type": "function"
    },
    {
      "inputs": [
        {
          "internalType": "address",
          "name": "tokenAddress",
          "type": "address"
        }
      ],
      "name": "getDTokenBalance",
      "outputs": [
        {
          "internalType": "uint256",
          "name": "",
          "type": "uint256"
        }
      ],
      "stateMutability": "view",
      "type": "function"
    },
    {
      "inputs": [],
      "name": "getDUSDAddress",
      "outputs": [
        {
          "internalType": "address",
          "name": "",
          "type": "address"
        }
      ],
      "stateMutability": "view",
      "type": "function"
    },
    {
      "inputs": [],
      "name": "getDefaultMaxSubsidyBps",
      "outputs": [
        {
          "internalType": "uint256",
          "name": "",
          "type": "uint256"
        }
      ],
      "stateMutability": "view",
      "type": "function"
    },
    {
      "inputs": [],
      "name": "getDefaultSwapSlippageTolerance",
      "outputs": [
        {
          "internalType": "uint256",
          "name": "",
          "type": "uint256"
        }
      ],
      "stateMutability": "view",
      "type": "function"
    },
    {
      "inputs": [],
      "name": "getLendingPoolAddress",
      "outputs": [
        {
          "internalType": "address",
          "name": "",
          "type": "address"
        }
      ],
      "stateMutability": "view",
      "type": "function"
    },
    {
      "inputs": [],
      "name": "getOracleAddress",
      "outputs": [
        {
          "internalType": "address",
          "name": "",
          "type": "address"
        }
      ],
      "stateMutability": "view",
      "type": "function"
    },
    {
      "inputs": [],
      "name": "getUnderlyingAssetAddress",
      "outputs": [
        {
          "internalType": "address",
          "name": "",
          "type": "address"
        }
      ],
      "stateMutability": "view",
      "type": "function"
    },
    {
      "inputs": [
        {
          "internalType": "uint256",
          "name": "assetAmount",
          "type": "uint256"
        },
        {
          "internalType": "uint256",
          "name": "minPriceInBase",
          "type": "uint256"
        }
      ],
      "name": "increaseLeverage",
      "outputs": [],
      "stateMutability": "nonpayable",
      "type": "function"
    },
    {
      "inputs": [],
      "name": "isTooImbalanced",
      "outputs": [
        {
          "internalType": "bool",
          "name": "",
          "type": "bool"
        }
      ],
      "stateMutability": "view",
      "type": "function"
    },
    {
      "inputs": [],
      "name": "lendingPoolAddressesProvider",
      "outputs": [
        {
          "internalType": "contract IPoolAddressesProvider",
          "name": "",
          "type": "address"
        }
      ],
      "stateMutability": "view",
      "type": "function"
    },
    {
      "inputs": [
        {
          "internalType": "address",
          "name": "_user",
          "type": "address"
        }
      ],
      "name": "maxDeposit",
      "outputs": [
        {
          "internalType": "uint256",
          "name": "",
          "type": "uint256"
        }
      ],
      "stateMutability": "view",
      "type": "function"
    },
    {
      "inputs": [
        {
          "internalType": "address",
          "name": "_user",
          "type": "address"
        }
      ],
      "name": "maxMint",
      "outputs": [
        {
          "internalType": "uint256",
          "name": "",
          "type": "uint256"
        }
      ],
      "stateMutability": "view",
      "type": "function"
    },
    {
      "inputs": [
        {
          "internalType": "address",
          "name": "_user",
          "type": "address"
        }
      ],
      "name": "maxRedeem",
      "outputs": [
        {
          "internalType": "uint256",
          "name": "",
          "type": "uint256"
        }
      ],
      "stateMutability": "view",
      "type": "function"
    },
    {
      "inputs": [
        {
          "internalType": "address",
          "name": "_user",
          "type": "address"
        }
      ],
      "name": "maxWithdraw",
      "outputs": [
        {
          "internalType": "uint256",
          "name": "",
          "type": "uint256"
        }
      ],
      "stateMutability": "view",
      "type": "function"
    },
    {
      "inputs": [
        {
          "internalType": "uint256",
          "name": "shares",
          "type": "uint256"
        },
        {
          "internalType": "address",
          "name": "receiver",
          "type": "address"
        }
      ],
      "name": "mint",
      "outputs": [
        {
          "internalType": "uint256",
          "name": "assets",
          "type": "uint256"
        }
      ],
      "stateMutability": "nonpayable",
      "type": "function"
    },
    {
      "inputs": [
        {
          "internalType": "uint256",
          "name": "shares",
          "type": "uint256"
        },
        {
          "internalType": "address",
          "name": "receiver",
          "type": "address"
        },
        {
          "internalType": "uint256",
          "name": "slippageTolerance",
          "type": "uint256"
        },
        {
          "internalType": "bytes",
          "name": "dusdToUnderlyingSwapData",
          "type": "bytes"
        }
      ],
      "name": "mintWith",
      "outputs": [
        {
          "internalType": "uint256",
          "name": "assets",
          "type": "uint256"
        }
      ],
      "stateMutability": "nonpayable",
      "type": "function"
    },
    {
      "inputs": [],
      "name": "name",
      "outputs": [
        {
          "internalType": "string",
          "name": "",
          "type": "string"
        }
      ],
      "stateMutability": "view",
      "type": "function"
    },
    {
      "inputs": [
        {
          "internalType": "address",
          "name": "initiator",
          "type": "address"
        },
        {
          "internalType": "address",
          "name": "token",
          "type": "address"
        },
        {
          "internalType": "uint256",
          "name": "",
          "type": "uint256"
        },
        {
          "internalType": "uint256",
          "name": "",
          "type": "uint256"
        },
        {
          "internalType": "bytes",
          "name": "data",
          "type": "bytes"
        }
      ],
      "name": "onFlashLoan",
      "outputs": [
        {
          "internalType": "bytes32",
          "name": "",
          "type": "bytes32"
        }
      ],
      "stateMutability": "nonpayable",
      "type": "function"
    },
    {
      "inputs": [],
      "name": "owner",
      "outputs": [
        {
          "internalType": "address",
          "name": "",
          "type": "address"
        }
      ],
      "stateMutability": "view",
      "type": "function"
    },
    {
      "inputs": [
        {
          "internalType": "uint256",
          "name": "assets",
          "type": "uint256"
        }
      ],
      "name": "previewDeposit",
      "outputs": [
        {
          "internalType": "uint256",
          "name": "",
          "type": "uint256"
        }
      ],
      "stateMutability": "view",
      "type": "function"
    },
    {
      "inputs": [
        {
          "internalType": "uint256",
          "name": "shares",
          "type": "uint256"
        }
      ],
      "name": "previewMint",
      "outputs": [
        {
          "internalType": "uint256",
          "name": "",
          "type": "uint256"
        }
      ],
      "stateMutability": "view",
      "type": "function"
    },
    {
      "inputs": [
        {
          "internalType": "uint256",
          "name": "shares",
          "type": "uint256"
        }
      ],
      "name": "previewRedeem",
      "outputs": [
        {
          "internalType": "uint256",
          "name": "",
          "type": "uint256"
        }
      ],
      "stateMutability": "view",
      "type": "function"
    },
    {
      "inputs": [
        {
          "internalType": "uint256",
          "name": "assets",
          "type": "uint256"
        }
      ],
      "name": "previewWithdraw",
      "outputs": [
        {
          "internalType": "uint256",
          "name": "",
          "type": "uint256"
        }
      ],
      "stateMutability": "view",
      "type": "function"
    },
    {
      "inputs": [
        {
          "internalType": "uint256",
          "name": "shares",
          "type": "uint256"
        },
        {
          "internalType": "address",
          "name": "receiver",
          "type": "address"
        },
        {
          "internalType": "address",
          "name": "owner",
          "type": "address"
        }
      ],
      "name": "redeem",
      "outputs": [
        {
          "internalType": "uint256",
          "name": "assets",
          "type": "uint256"
        }
      ],
      "stateMutability": "nonpayable",
      "type": "function"
    },
    {
      "inputs": [
        {
          "internalType": "uint256",
          "name": "shares",
          "type": "uint256"
        },
        {
          "internalType": "address",
          "name": "receiver",
          "type": "address"
        },
        {
          "internalType": "address",
          "name": "owner",
          "type": "address"
        },
        {
          "internalType": "uint256",
          "name": "swapSlippageTolerance",
          "type": "uint256"
        },
        {
          "internalType": "uint256",
          "name": "minReceiveAmount",
          "type": "uint256"
        },
        {
          "internalType": "bytes",
          "name": "underlyingToDUSDSwapData",
          "type": "bytes"
        }
      ],
      "name": "redeemWith",
      "outputs": [
        {
          "internalType": "uint256",
          "name": "assets",
          "type": "uint256"
        }
      ],
      "stateMutability": "nonpayable",
      "type": "function"
    },
    {
      "inputs": [],
      "name": "renounceOwnership",
      "outputs": [],
      "stateMutability": "nonpayable",
      "type": "function"
    },
    {
      "inputs": [
        {
          "internalType": "address",
          "name": "token",
          "type": "address"
        },
        {
          "internalType": "address",
          "name": "receiver",
          "type": "address"
        }
      ],
      "name": "rescueToken",
      "outputs": [],
      "stateMutability": "nonpayable",
      "type": "function"
    },
    {
      "inputs": [
        {
          "internalType": "uint256",
          "name": "_swapSlippageTolerance",
          "type": "uint256"
        }
      ],
      "name": "setDefaultSwapSlippageTolerance",
      "outputs": [],
      "stateMutability": "nonpayable",
      "type": "function"
    },
    {
      "inputs": [
        {
          "internalType": "uint256",
          "name": "_maxSubsidyBps",
          "type": "uint256"
        }
      ],
      "name": "setMaxSubsidyBps",
      "outputs": [],
      "stateMutability": "nonpayable",
      "type": "function"
    },
    {
      "inputs": [],
      "name": "sharesMinimumAmount",
      "outputs": [
        {
          "internalType": "uint256",
          "name": "",
          "type": "uint256"
        }
      ],
      "stateMutability": "view",
      "type": "function"
    },
    {
      "inputs": [],
      "name": "swapRouter",
      "outputs": [
        {
          "internalType": "contract ISwapRouter",
          "name": "",
          "type": "address"
        }
      ],
      "stateMutability": "view",
      "type": "function"
    },
    {
      "inputs": [],
      "name": "symbol",
      "outputs": [
        {
          "internalType": "string",
          "name": "",
          "type": "string"
        }
      ],
      "stateMutability": "view",
      "type": "function"
    },
    {
      "inputs": [],
      "name": "totalAssets",
      "outputs": [
        {
          "internalType": "uint256",
          "name": "",
          "type": "uint256"
        }
      ],
      "stateMutability": "view",
      "type": "function"
    },
    {
      "inputs": [],
      "name": "totalSupply",
      "outputs": [
        {
          "internalType": "uint256",
          "name": "",
          "type": "uint256"
        }
      ],
      "stateMutability": "view",
      "type": "function"
    },
    {
      "inputs": [
        {
          "internalType": "address",
          "name": "to",
          "type": "address"
        },
        {
          "internalType": "uint256",
          "name": "value",
          "type": "uint256"
        }
      ],
      "name": "transfer",
      "outputs": [
        {
          "internalType": "bool",
          "name": "",
          "type": "bool"
        }
      ],
      "stateMutability": "nonpayable",
      "type": "function"
    },
    {
      "inputs": [
        {
          "internalType": "address",
          "name": "from",
          "type": "address"
        },
        {
          "internalType": "address",
          "name": "to",
          "type": "address"
        },
        {
          "internalType": "uint256",
          "name": "value",
          "type": "uint256"
        }
      ],
      "name": "transferFrom",
      "outputs": [
        {
          "internalType": "bool",
          "name": "",
          "type": "bool"
        }
      ],
      "stateMutability": "nonpayable",
      "type": "function"
    },
    {
      "inputs": [
        {
          "internalType": "address",
          "name": "newOwner",
          "type": "address"
        }
      ],
      "name": "transferOwnership",
      "outputs": [],
      "stateMutability": "nonpayable",
      "type": "function"
    },
    {
      "inputs": [],
      "name": "underlyingAsset",
      "outputs": [
        {
          "internalType": "contract ERC20",
          "name": "",
          "type": "address"
        }
      ],
      "stateMutability": "view",
      "type": "function"
    },
    {
      "inputs": [],
      "name": "underlyingAssetMinimumAmount",
      "outputs": [
        {
          "internalType": "uint256",
          "name": "",
          "type": "uint256"
        }
      ],
      "stateMutability": "view",
      "type": "function"
    },
    {
      "inputs": [
        {
          "internalType": "uint256",
          "name": "assets",
          "type": "uint256"
        },
        {
          "internalType": "address",
          "name": "receiver",
          "type": "address"
        },
        {
          "internalType": "address",
          "name": "owner",
          "type": "address"
        }
      ],
      "name": "withdraw",
      "outputs": [
        {
          "internalType": "uint256",
          "name": "shares",
          "type": "uint256"
        }
      ],
      "stateMutability": "nonpayable",
      "type": "function"
    },
    {
      "inputs": [
        {
          "internalType": "uint256",
          "name": "assets",
          "type": "uint256"
        },
        {
          "internalType": "address",
          "name": "receiver",
          "type": "address"
        },
        {
          "internalType": "address",
          "name": "owner",
          "type": "address"
        },
        {
          "internalType": "uint256",
          "name": "swapSlippageTolerance",
          "type": "uint256"
        },
        {
          "internalType": "uint256",
          "name": "minReceiveAmount",
          "type": "uint256"
        },
        {
          "internalType": "bytes",
          "name": "underlyingToDUSDSwapData",
          "type": "bytes"
        }
      ],
      "name": "withdrawWith",
      "outputs": [
        {
          "internalType": "uint256",
          "name": "shares",
          "type": "uint256"
        }
      ],
      "stateMutability": "nonpayable",
      "type": "function"
    }
  ],
  "transactionHash": "0xe1033d97e6a8142eb5a5091f9c1d3f0195c16c7b840d26b05ba1fe371d8eff86",
  "args": [
    "dLOOP 3X sFRAX",
    "3XsFRAX",
    "0x0Dbf64462FEC588df32FC5C9941421F7d93e0Fb3",
    "0x4D6E79013212F10A026A1FB0b926C9Fd0432b96c",
    "0x4D6E79013212F10A026A1FB0b926C9Fd0432b96c",
    "0x86fa24508003ee40FBC34385047b665c0Ec9DC55",
    "0x0dbf64462fec588df32fc5c9941421f7d93e0fb3000bb84d6e79013212f10a026a1fb0b926c9fd0432b96c",
    "0x4d6e79013212f10a026a1fb0b926c9fd0432b96c000bb80dbf64462fec588df32fc5c9941421f7d93e0fb3",
    "0xC691F14942B37668C9904b701E3118A133611b3c",
    3000000,
    50000,
    20000,
    "100000000000000",
    "100000000000000"
  ],
  "numDeployments": 2,
  "solcInputHash": "3708d8e5f3b9d68381a488789470e686",
  "bytecode": "0x6102006040523462000a9c576200613d8038038091620000228261020062000aa1565b61020039610200016101c061020082031262000a9c57610200516001600160401b03811162000a9c57816200005b916102000162000ae1565b610220516001600160401b03811162000a9c57826200007e916102000162000ae1565b6200008b61024062000b4b565b916200009961026062000b4b565b6102805192906001600160a01b038416840362000a9c576102a051936001600160a01b038516850362000a9c576102c0516001600160401b03811162000a9c5787620000e9916102000162000ae1565b6102e05190976001600160401b03821162000a9c576200010d916102000162000ae1565b6103005190966001600160a01b038216820362000a9c57610320519163ffffffff8316830362000a9c576103405161036051610380516103a0518a51909a9199929893979392916001600160401b038211620007405781906200017260035462000b60565b601f811162000a49575b50602090601f8311600114620009ba57600092620009ae575b50508160011b916000199060031b1c1916176003555b8051906001600160401b03821162000740578190620001cc60045462000b60565b601f81116200095b575b50602090601f8311600114620008cc57600092620008c0575b50508160011b916000199060031b1c1916176004555b6001600160a01b0384166200021a8162000bb6565b9015620008b7575b60a05260805233156200089e5760058054336001600160a01b0319821681179092556001600160a01b03167f8be0079c531659141344cd1fd0a4f28419497f9722a3daafe3b4186f6b6457e0600080a361018052610120526101405261016052620f424063ffffffff82161062000833578060c052637fffffff8160011c1660e05260011b6401fffffffe811663fffffffe8216036200081d5763fffffffe16610100526006556007556101a0526101c0526101e090815282516001600160401b0381116200074057620002f860085462000b60565b601f8111620007db575b506020601f821160011462000762578192939460009262000756575b50508160011b916000199060031b1c1916176008555b81516001600160401b03811162000740576200035260095462000b60565b601f8111620006e1575b50602092601f82116001146200067657928192936000926200066a575b50508160011b916000199060031b1c1916176009555b6040516154a0918262000c7d8339608051826115d4015260a05182611618015260c051828181610ef4015281816112ff015281816129ed01528181613a7c01528181613e2d0152818161451f0152614b0c015260e0518281816114a80152818161362b01526136b6015261010051828181610c650152818161365d01526136dd015261012051828181610abb0152818161178501528181613b5401528181613ea301528181613fda015281816140320152818161410c01528181614595015281816146b201526147940152610140518281816108d201528181614ba30152614c2e01526101605182818161098e01528181610d7d01528181611339015281816118fe01528181611a1b01528181611a9001528181611af001528181611b7f01528181611be101528181611f2601528181611f6d01528181612081015281816121c80152818161222a015281816122e901528181612353015281816124120152818161249e015281816125110152818161262b0152818161267c0152818161289301528181612ee9015281816134df015281816138d001528181613f510152818161417e015281816141dc01528181614629015281816148060152818161489101528181614d4201528181614dc60152818161511c015261521401526101805182818161072b01528181610dda015281816117ce0152818161195a015281816119c401528181611ab101528181611c5a01528181611fc801528181612029015281816120fb0152818161215601528181612291015281816123aa0152818161247d0152818161297401528181613b2a01528181613e6a01528181613f9a01528181614079015281816140d40152818161455c01528181614672015281816147010152818161475c015261502b01526101a0518281816128490152818161386301528181613df001526144e201526101c0518281816108540152818161388c01528181613d9d015261448f01525181818161088d01526152550152f35b01519050388062000379565b601f19821693600960005260206000209160005b868110620006c85750836001959610620006ae575b505050811b016009556200038f565b015160001960f88460031b161c191690553880806200069f565b919260206001819286850151815501940192016200068a565b60096000526200072e907f6e1540171b6c0c960b71a7020d9f60077f6af931a8bbf590da0223dacf75c7af601f840160051c8101916020851062000735575b601f0160051c019062000b9d565b386200035c565b909150819062000720565b634e487b7160e01b600052604160045260246000fd5b0151905038806200031e565b600860009081526000805160206200611d8339815191529190601f198416905b818110620007c257509583600195969710620007a8575b505050811b0160085562000334565b015160001960f88460031b161c1916905538808062000799565b9192602060018192868b01518155019401920162000782565b600860005262000816906000805160206200611d833981519152601f840160051c810191602085106200073557601f0160051c019062000b9d565b3862000302565b634e487b7160e01b600052601160045260246000fd5b60405162461bcd60e51b815260206004820152603560248201527f546172676574206c65766572616765206d757374206265206174206c6561737460448201527f203130302520696e20626173697320706f696e747300000000000000000000006064820152608490fd5b604051631e4fbdf760e01b815260006004820152602490fd5b50601262000222565b015190503880620001ef565b6004600090815293507f8a35acfbc15ff81a39ae7d344fd709f28e8600b4aa8c65c6b64bfe7fe36bd19b91905b601f19841685106200093f576001945083601f1981161062000925575b505050811b0160045562000205565b015160001960f88460031b161c1916905538808062000916565b81810151835560209485019460019093019290910190620008f9565b6004600052620009a7907f8a35acfbc15ff81a39ae7d344fd709f28e8600b4aa8c65c6b64bfe7fe36bd19b601f850160051c810191602086106200073557601f0160051c019062000b9d565b38620001d6565b01519050388062000195565b6003600090815293507fc2575a0e9e593c00f959f8c92f12db2869c3395a3b0502d05e2516446f71f85b91905b601f198416851062000a2d576001945083601f1981161062000a13575b505050811b01600355620001ab565b015160001960f88460031b161c1916905538808062000a04565b81810151835560209485019460019093019290910190620009e7565b600360005262000a95907fc2575a0e9e593c00f959f8c92f12db2869c3395a3b0502d05e2516446f71f85b601f850160051c810191602086106200073557601f0160051c019062000b9d565b386200017c565b600080fd5b601f909101601f19168101906001600160401b038211908210176200074057604052565b6001600160401b0381116200074057601f01601f191660200190565b919080601f8401121562000a9c5782519062000afd8262000ac5565b9162000b0d604051938462000aa1565b80835260209182828701011162000a9c5760005b81811062000b3757508260009394955001015290565b858101830151848201840152820162000b21565b51906001600160a01b038216820362000a9c57565b90600182811c9216801562000b92575b602083101462000b7c57565b634e487b7160e01b600052602260045260246000fd5b91607f169162000b70565b81811062000ba9575050565b6000815560010162000b9d565b6040805163313ce56760e01b60208201908152600482529293929181016001600160401b0381118282101762000740576040525160009384928392916001600160a01b03165afa3d1562000c73573d9062000c118262000ac5565b9162000c21604051938462000aa1565b82523d84602084013e5b8062000c66575b62000c3d575b508190565b60208180518101031262000c62576020015160ff811162000c38576001925060ff1690565b8280fd5b5060208151101562000c32565b60609062000c2b56fe6080604052600436101561001257600080fd5b6000803560e01c806301e1d11414612ed157806306fdde0314612e0057806307a2d13a14611486578063095ea7b314612d4d5780630a28a47714612d2e5780630f90e61814612d15578063160a8f3514612cf557806318160ddd14612cd75780631dc8d8181461286c5780631e3eaccc14610715578063214718c41461283157806323b872dd146127f857806323e30c8b1461172157806328e7b3f21461169b5780632ae1810414611660578063313ce5671461160357806338d52e0f146115be578063402d267d14610817578063415c5069146115a35780634707d000146114f657806348eb8a4a146114cc578063497a42371461148b5780634cdad506146114865780635b3f05491461146a5780635f36a742146114475780636e553f651461140057806370a08231146113c6578063715018a6146113685780637158da7c1461132357806375ba52c9146112e257806375f712f1146112c4578063776efe4714610d585780638571774a14610cb25780638da5cb5b14610c89578063946f754714610c4857806394bf804d14610c0057806395d89b4114610b5a578063991404a414610b30578063a0a9452614610b0d578063a54bddd814610aea578063a771445814610aa5578063a9059cbb14610a73578063a9f1a79814610a4e578063b05e077d14610a27578063b18b78dd146109fb578063b3d7f6b914610977578063b460af941461093c578063ba08765214610901578063bba00ba5146108bc578063c31c9c0714610877578063c3849cd51461083c578063c63d75b614610817578063c6e6f5921461062a578063ce96cb77146107f3578063d905777e146107c7578063dd62ed3e14610778578063dde35bfd1461075a578063de1409ce14610715578063eb6547031461062f578063ef8b30f71461062a578063f2fde38b1461059a5763f6d48ae2146102c757600080fd5b3461059757602080600319360112610593576102e1612f7d565b916040516102ee81613023565b6040516102fa8161303f565b828152815281838201528160408201528160608201528160808201528160a08201528160c08201528160e08201526101009382858301526101209483868401526101409284848201526101609085828201526101809386858301526101a08781840152876101c08094015260018060a01b0395869485610378614c10565b166040519687956335ea6a7560e01b87521660048601528460246101e09889935afa988915610588578b9c8b9c9a610426575b5050505050505050602493015116604051928380926370a0823160e01b82523060048301525afa91821561041a57916103e8575b50604051908152f35b90508181813d8311610413575b6103ff818361305a565b8101031261040e5751386103df565b600080fd5b503d6103f5565b604051903d90823e3d90fd5b9193959799509193868197999b503d8a11610581575b610446818361305a565b81010397881261057d578b6040519861045e8a613023565b1261057d5760405161046f8161303f565b8651815288526104808c8701614c64565b8c89015261049060408701614c64565b60408901526104a160608701614c64565b60608901526104b260808701614c64565b60808901526104c360a08701614c64565b60a089015260c086015164ffffffffff811681036105795760c089015260e086015161ffff811681036105795793879591938997938e9b99956105689760e060249f9d01526105138b8701614b71565b8b8b0152610522818701614b71565b908a0152610531818601614b71565b90890152610540818501614b71565b9088015261054f818401614c64565b9087015261055e818301614c64565b9086015201614c64565b9082015293388080808080806103ab565b8b80fd5b8a80fd5b503d61043c565b6040513d8c823e3d90fd5b5080fd5b80fd5b5034610597576020366003190112610597576105b4612f7d565b6105bc613224565b6001600160a01b0390811690811561061157600554826bffffffffffffffffffffffff60a01b821617600555167f8be0079c531659141344cd1fd0a4f28419497f9722a3daafe3b4186f6b6457e0600080a380f35b604051631e4fbdf760e01b815260048101849052602490fd5b613206565b5034610597578060031936011261059757604051600060095461065181613197565b808452906001908181169081156106ee5750600114610693575b61068f8461067b8186038261305a565b604051918291602083526020830190612f3a565b0390f35b6009600090815292507f6e1540171b6c0c960b71a7020d9f60077f6af931a8bbf590da0223dacf75c7af5b8284106106d657505050810160200161067b8261066b565b805460208587018101919091529093019281016106be565b60ff191660208087019190915292151560051b8501909201925061067b915083905061066b565b50346105975780600319360112610597576040517f00000000000000000000000000000000000000000000000000000000000000006001600160a01b03168152602090f35b50346105975780600319360112610597576020600754604051908152f35b503461059757604036600319011261059757610792612f7d565b604061079c612f93565b9260018060a01b03809316815260016020522091166000526020526020604060002054604051908152f35b50346105975760203660031901126105975760206107eb6107e6612f7d565b614fb9565b604051908152f35b50346105975760203660031901126105975760206107eb610812612f7d565b614f86565b503461059757602036600319011261059757610831612f7d565b5060206107eb614f6f565b503461059757806003193601126105975760206040517f00000000000000000000000000000000000000000000000000000000000000008152f35b50346105975780600319360112610597576040517f00000000000000000000000000000000000000000000000000000000000000006001600160a01b03168152602090f35b50346105975780600319360112610597576040517f00000000000000000000000000000000000000000000000000000000000000006001600160a01b03168152602090f35b5034610597576020906103df610916366131d1565b600694929454916040519361092a8561303f565b8452610935866134da565b9586613d94565b5034610597576020906103df610951366131d1565b60069492945491604051936109658561303f565b845261097086614db8565b8096613d94565b5034610597576020366003190112610597576109bc7f00000000000000000000000000000000000000000000000000000000000000006001600160a01b031630614e1a565b600181018091116109e55760025490600182018092116109e5576020916107eb91600435613530565b634e487b7160e01b600052601160045260246000fd5b503461059757806003193601126105975760206001600160a01b03610a1e614b85565b16604051908152f35b50346105975760206107eb610a3b366130dd565b91610a478495946134da565b948561385d565b50346105975780600319360112610597576020610a6961360f565b6040519015158152f35b503461059757604036600319011261059757610a9a610a90612f7d565b6024359033613250565b602060405160018152f35b50346105975780600319360112610597576040517f00000000000000000000000000000000000000000000000000000000000000006001600160a01b03168152602090f35b503461059757602036600319011261059757610b04613224565b60043560065580f35b503461059757602036600319011261059757610b27613224565b60043560075580f35b50346105975760206103df610b443661313d565b93610b53869796949294614db8565b8097614487565b50346105975780600319360112610597576040516000600454610b7c81613197565b808452906001908181169081156106ee5750600114610ba55761068f8461067b8186038261305a565b6004600090815292507f8a35acfbc15ff81a39ae7d344fd709f28e8600b4aa8c65c6b64bfe7fe36bd19b5b828410610be857505050810160200161067b8261066b565b80546020858701810191909152909301928101610bd0565b5034610597576040366003190112610597576020906107eb60043591610c24612f93565b92610c2e816134da565b936006549160405193610c408561303f565b84528561385d565b5034610597578060031936011261059757602060405163ffffffff7f0000000000000000000000000000000000000000000000000000000000000000168152f35b50346105975780600319360112610597576005546040516001600160a01b039091168152602090f35b50346105975780600319360112610597576040516000600854610cd481613197565b808452906001908181169081156106ee5750600114610cfd5761068f8461067b8186038261305a565b6008600090815292507ff3f7a9fe364faab93b216da50a3214154f22a0a2b415b23a84c8169e8b636ee35b828410610d4057505050810160200161067b8261066b565b80546020858701810191909152909301928101610d28565b503461059757610d6736613127565b6001600160a01b039081610d79614b85565b16827f000000000000000000000000000000000000000000000000000000000000000016936040519063b3596f0760e01b928383528660048401526020948584602481855afa9384156112b957899461128a575b5080841161126c575084867f0000000000000000000000000000000000000000000000000000000000000000169460246040518094819382528860048301525afa801561112257889061123d575b610e26915082613a20565b60405163313ce56760e01b80825294918682600481865afa91821561058857610e6092610e5a918c91611226575b506134c9565b90613570565b91602460c088610e6e614c10565b1660405192838092632fe4a15f60e21b82523060048301525afa938415610588578a918b956111e4575b5090610e5a610ee992610ee4620f4240610ec1610ebb610eb6614b02565b61331c565b84613a20565b0497610edf89610ed9610ed48289613d6e565b613a08565b96613d6e565b613d6e565b61332d565b610ef1614c81565b907f00000000000000000000000000000000000000000000000000000000000000009163ffffffff8316821080156111da575b6111aa57505050610f37813033856139b0565b610f76868289610f45614c10565b60405163095ea7b360e01b815291166001600160a01b03166004820152602481019190915291829081906044820190565b03818d875af1908115610588578a9161117d575b501561112d57610fe691869188610f9f614c10565b60405163573ade8160e01b81526001600160a01b039094166004850152602484019290925260026044840152306064840152919384929091169082908c9082906084820190565b03925af19081156111225785916110f9575b50506040519283528383600481895afa9081156110ee5761102661102c92611031958a916110c157506134c9565b90613a20565b613570565b9161103a614c10565b604051631a4ca37b60e21b81526001600160a01b038616600482015260248101859052306044820152918391839160649183918a91165af180156110b65761108d575b505061108a913390613704565b80f35b813d83116110af575b6110a0818361305a565b8101031261040e57388061107d565b503d611096565b6040513d87823e3d90fd5b6110e19150873d89116110e7575b6110d9818361305a565b810190613d7b565b38610e54565b503d6110cf565b6040513d89823e3d90fd5b813d831161111b575b61110c818361305a565b8101031261040e578338610ff8565b503d611102565b6040513d8a823e3d90fd5b60405162461bcd60e51b8152600481018790526034602482015260008051602061542b833981519152604482015273696e206465637265617365206c6576657261676560601b6064820152608490fd5b61119d9150873d89116111a3575b611195818361305a565b810190613747565b38610f8a565b503d61118b565b604051636a3f633560e11b8152600481019290925263ffffffff9290921660248201526044810191909152606490fd5b5080821015610f24565b610e5a919550610ee9925061120f9060c03d811161121f575b611207818361305a565b810190614ad4565b5050505091909195919250610e98565b503d6111fd565b6110e19150893d8b116110e7576110d9818361305a565b508481813d8311611265575b611253818361305a565b8101031261040e57610e269051610e1b565b503d611249565b8360449160405191631ecf7b4160e01b835260048301526024820152fd5b9093508581813d83116112b2575b6112a2818361305a565b8101031261040e57519238610dcd565b503d611298565b6040513d8b823e3d90fd5b50346105975780600319360112610597576020600654604051908152f35b5034610597578060031936011261059757602060405163ffffffff7f0000000000000000000000000000000000000000000000000000000000000000168152f35b50346105975780600319360112610597576040517f00000000000000000000000000000000000000000000000000000000000000006001600160a01b03168152602090f35b5034610597578060031936011261059757611381613224565b600580546001600160a01b031981169091556000906001600160a01b03167f8be0079c531659141344cd1fd0a4f28419497f9722a3daafe3b4186f6b6457e08280a380f35b50346105975760203660031901126105975760206107eb6113e5612f7d565b6001600160a01b031660009081526020819052604090205490565b5034610597576040366003190112610597576020906107eb60043591611424612f93565b60065490604051926114358461303f565b835261144085614db8565b809561385d565b503461059757806003193601126105975760206001600160a01b03610a1e614c10565b5034610597578060031936011261059757602060405160028152f35b612f5f565b5034610597578060031936011261059757602060405163ffffffff7f0000000000000000000000000000000000000000000000000000000000000000168152f35b50346105975760206103df6114e03661313d565b936114ef8697969492946134da565b9687614487565b503461059757604036600319011261059757611510612f7d565b611518612f93565b90611521613224565b6040516370a0823160e01b8152306004820152916001600160a01b039190911690602083602481855afa918215611598578492611563575b61108a9350613704565b91506020833d8211611590575b8161157d6020938361305a565b8101031261040e5761108a925191611559565b3d9150611570565b6040513d86823e3d90fd5b503461059757806003193601126105975760206107eb614c81565b50346105975780600319360112610597576040517f00000000000000000000000000000000000000000000000000000000000000006001600160a01b03168152602090f35b503461059757806003193601126105975760ff7f0000000000000000000000000000000000000000000000000000000000000000169060ff821161164c57602082604051908152f35b634e487b7160e01b81526011600452602490fd5b503461059757806003193601126105975760206040517f439148f0bbc682ca079e46d6e2c2f0c1e3b820f1a291b069d8882abf8cf18dd98152f35b50346105975780600319360112610597576040516338d52e0f60e01b815290602082600481305afa90811561041a5780916116e5575b6040516001600160a01b0383168152602090f35b90506020823d8211611719575b816116ff6020938361305a565b810103126105975750611713602091614b71565b386116d1565b3d91506116f2565b50346105975760a03660031901126105975761173b612f7d565b611743612f93565b90608435906001600160401b038211611ea25736602383011215611ea25781600401356001600160401b0381116127be5782019260248401913683116127b2577f00000000000000000000000000000000000000000000000000000000000000006001600160a01b031633036127e657306001600160a01b03909116036127d4576001600160a01b037f000000000000000000000000000000000000000000000000000000000000000081169116036127c2576040519161180383612fd2565b84835260408160208501956060875203126127be576024810135918215158093036127b2576044820135906001600160401b0382116127ba57602461184b9285940101613096565b808552925215611ea65750516040519061186482613008565b82825282602083015282604083015260608083015280518101608082820312611ea2576020820151916040810151916060820151916080810151916001600160401b038311611e9e576118be926020809201920101614a92565b60608501526040840152602083015281526118d7614b85565b6118e76020830151835190613d6e565b60405163b3596f0760e01b81526001600160a01b037f0000000000000000000000000000000000000000000000000000000000000000811660048301529192916020908290602490829086165afa9081156110b6578591611e6c575b5060405163313ce56760e01b8152906020826004817f00000000000000000000000000000000000000000000000000000000000000006001600160a01b03165afa918215611e18576119a76020926110266024956119ad948b91611e5557506134c9565b85613a20565b60405163b3596f0760e01b81526001600160a01b037f00000000000000000000000000000000000000000000000000000000000000008116600483015291949093849290918391165afa9081156110b6578591611e23575b5060405163313ce56760e01b81526020816004817f00000000000000000000000000000000000000000000000000000000000000006001600160a01b03165afa928315611e1857610e5a611a7893611026620f424096611a6b958b91611dff57506134c9565b611026604086015161331c565b04908115611dc257611ad591606084015191429130917f00000000000000000000000000000000000000000000000000000000000000007f0000000000000000000000000000000000000000000000000000000000000000614fe0565b6040516370a0823160e01b81523060048201526020816024817f00000000000000000000000000000000000000000000000000000000000000006001600160a01b03165afa908115611598578491611d90575b506020830151808210611d7257506001600160a01b039050611b48614c10565b60208481015160405163095ea7b360e01b81526001600160a01b0394909316938416600484015260248301528180604481010381887f00000000000000000000000000000000000000000000000000000000000000006001600160a01b03165af19081156110b6578591611d53575b5015611d0d57602084930151813b15611d085760405163617ba03760e01b81526001600160a01b037f0000000000000000000000000000000000000000000000000000000000000000166004820152602481019190915230604482015260006064820152838160848183865af1908115611598578491611cf4575b5050803b15611cf05760a48392604051948593849263a415bcad60e01b845260018060a01b037f00000000000000000000000000000000000000000000000000000000000000001660048501526024840152600260448401528160648401523060848401525af18015611ce557611cd1575b50505b60206040517f439148f0bbc682ca079e46d6e2c2f0c1e3b820f1a291b069d8882abf8cf18dd98152f35b611cdb8291612fa9565b6105975780611ca4565b6040513d84823e3d90fd5b5050fd5b611cfd90612fa9565b611cf0578238611c32565b505050fd5b60405162461bcd60e51b815260206004820152602a602482015260008051602061542b8339815191526044820152691a5b8819195c1bdcda5d60b21b6064820152608490fd5b611d6c915060203d6020116111a357611195818361305a565b38611bb7565b6044925060405191635e13771960e01b835260048301526024820152fd5b90506020813d602011611dba575b81611dab6020938361305a565b8101031261040e575138611b28565b3d9150611d9e565b60405162461bcd60e51b81526020600482015260156024820152746d6178496e206973206e6f7420706f73697469766560581b6044820152606490fd5b6110e1915060203d6020116110e7576110d9818361305a565b6040513d88823e3d90fd5b90506020813d602011611e4d575b81611e3e6020938361305a565b8101031261040e575138611a05565b3d9150611e31565b6110e19150863d88116110e7576110d9818361305a565b90506020813d602011611e96575b81611e876020938361305a565b8101031261040e575138611943565b3d9150611e7a565b8780fd5b8380fd5b604051929150611eb583612fed565b81835281602084015260606040840152805181016060828203126127b6576020820151916040810151916060820151906001600160401b0382116127b257611f04926020918201920101614a92565b604085015260208401528252611f18614c10565b90611f21614b85565b611f547f00000000000000000000000000000000000000000000000000000000000000006001600160a01b031630614e1a565b845160405163b3596f0760e01b81526001600160a01b037f0000000000000000000000000000000000000000000000000000000000000000811660048301529295926020908290602490829088165afa9081156110b6578591612780575b5060405163313ce56760e01b81526020816004817f00000000000000000000000000000000000000000000000000000000000000006001600160a01b03165afa908115611e1857916110266110269261201295948991611dff57506134c9565b60405163b3596f0760e01b81526001600160a01b037f0000000000000000000000000000000000000000000000000000000000000000811660048301526020908290602490829088165afa9081156110b657859161274e575b5060405163313ce56760e01b81526020816004817f00000000000000000000000000000000000000000000000000000000000000006001600160a01b03165afa908115611e185791611026610e5a926120cb95948991611dff57506134c9565b60405163095ea7b360e01b81526001600160a01b03831660048201526024810182905260208180604481010381887f00000000000000000000000000000000000000000000000000000000000000006001600160a01b03165af19081156110b657859161272f575b50156126ea576121a5946020612147614c81565b60405163573ade8160e01b81527f00000000000000000000000000000000000000000000000000000000000000006001600160a01b031660048201526024810194909452600260448501523060648501529296879081906084820190565b0381886001600160a01b0388165af19586156110b65785966126b6575b506121f67f00000000000000000000000000000000000000000000000000000000000000006001600160a01b031630614e1a565b9080821061266557906122099291614a29565b85518082106126145750604051631a4ca37b60e21b81526001600160a01b037f000000000000000000000000000000000000000000000000000000000000000081166004830152602482019290925230604482015291602091839160649183918891165af180156125ac576125e9575b5060405163b3596f0760e01b81526001600160a01b037f0000000000000000000000000000000000000000000000000000000000000000811660048301526020908290602490829086165afa9081156125ac5783916125b7575b5060405163313ce56760e01b81526020816004817f00000000000000000000000000000000000000000000000000000000000000006001600160a01b03165afa9081156115985761233660249361102660209461233c948991611e5557506134c9565b86613a20565b60405163b3596f0760e01b81526001600160a01b037f00000000000000000000000000000000000000000000000000000000000000008116600483015291949093849290918391165afa9081156125ac57839161257a575b5060405163313ce56760e01b81526020816004817f00000000000000000000000000000000000000000000000000000000000000006001600160a01b03165afa9081156115985791611026610e5a926123f495948791611dff57506134c9565b6040516370a0823160e01b81523060048201529091906020816024817f00000000000000000000000000000000000000000000000000000000000000006001600160a01b03165afa91821561041a5791612548575b508181106124fa5750612467620f424091611026602086015161331c565b0480156124c85760406124c293015191429130917f00000000000000000000000000000000000000000000000000000000000000007f0000000000000000000000000000000000000000000000000000000000000000614fe0565b50611ca7565b60405162461bcd60e51b815260206004820152600a60248201526906d6178496e20697320360b41b6044820152606490fd5b604051630b722aef60e21b81526001600160a01b037f000000000000000000000000000000000000000000000000000000000000000016600482015260248101929092526044820152606490fd5b90506020813d602011612572575b816125636020938361305a565b8101031261040e575138612449565b3d9150612556565b90506020813d6020116125a4575b816125956020938361305a565b8101031261040e575138612394565b3d9150612588565b6040513d85823e3d90fd5b90506020813d6020116125e1575b816125d26020938361305a565b8101031261040e5751386122d3565b3d91506125c5565b602090813d831161260d575b6125ff818361305a565b8101031261040e5738612279565b503d6125f5565b6040516311d7238d60e21b81526001600160a01b037f000000000000000000000000000000000000000000000000000000000000000016600482015260248101919091526044810191909152606490fd5b604051637d9ebd0360e01b81526001600160a01b037f000000000000000000000000000000000000000000000000000000000000000016600482015260248101919091526044810191909152606490fd5b9095506020813d6020116126e2575b816126d26020938361305a565b8101031261040e575194386121c2565b3d91506126c5565b60405162461bcd60e51b8152602060048201526029602482015260008051602061542b833981519152604482015268696e2072656465656d60b81b6064820152608490fd5b612748915060203d6020116111a357611195818361305a565b38612133565b90506020813d602011612778575b816127696020938361305a565b8101031261040e57513861206b565b3d915061275c565b90506020813d6020116127aa575b8161279b6020938361305a565b8101031261040e575138611fb2565b3d915061278e565b8580fd5b8280fd5b8680fd5b8480fd5b604051638698bf3760e01b8152600490fd5b604051634ac321c360e11b8152600490fd5b604051631e4a393d60e31b8152600490fd5b503461059757606036600319011261059757610a9a612815612f7d565b61281d612f93565b6044359161282c8333836133f6565b613250565b503461059757806003193601126105975760206040517f00000000000000000000000000000000000000000000000000000000000000008152f35b50346105975761287b36613127565b906001600160a01b03908161288e614b85565b1692827f0000000000000000000000000000000000000000000000000000000000000000169160405163b3596f0760e01b928382528460048301526020826024818a5afa918215611122578892612ca3575b50808210612c8557506128f39082613a20565b60405163313ce56760e01b815290602082600481885afa9182156111225761292592610e5a918a91611dff57506134c9565b92602460c086612933614c10565b1660405192838092632fe4a15f60e21b82523060048301525afa80156111225788918991612c61575b50612965614b02565b6040519586526020866024818b7f0000000000000000000000000000000000000000000000000000000000000000169c8d60048301525afa958615610588578a96612c21575b50610edf96610edf6129e29493620f42406129cb6119a7610e5a9661331c565b0499836129dc610ed48d968961332d565b9661332d565b6129ea614c81565b907f00000000000000000000000000000000000000000000000000000000000000009163ffffffff831682118015612c17575b612be757505050612a30823033846139b0565b612a3f60208387610f45614c10565b03818b865af1908115611122578891612bc8575b5015612b7857869085612a64614c10565b16803b156127b65760405163617ba03760e01b81526001600160a01b03929092166004830152602482019390935230604482015260006064820152918290608490829084905af18015611e1857612b63575b5060405163313ce56760e01b81528592909190602083600481895afa9081156115985761102661102c92612af0958791611dff57506134c9565b91612af9614c10565b16803b156105935781809160a46040518094819363a415bcad60e01b8352896004840152886024840152600260448401528160648401523060848401525af18015611ce557612b4f57505061108a913390613704565b612b5890612fa9565b6127b657823861107d565b612b709095919295612fa9565b939038612ab6565b60405162461bcd60e51b8152602060048201526034602482015260008051602061542b833981519152604482015273696e20696e637265617365206c6576657261676560601b6064820152608490fd5b612be1915060203d6020116111a357611195818361305a565b38612a53565b604051630262805f60e11b8152600481019290925263ffffffff9290921660248201526044810191909152606490fd5b5080821115612a1d565b92919095506020833d602011612c59575b81612c3f6020938361305a565b81010312612c5557915194909190610edf6129ab565b8980fd5b3d9150612c32565b9050612c7b915060c03d811161121f57611207818361305a565b505050503861295c565b6044925060405191636f3acc2360e11b835260048301526024820152fd5b9091506020813d602011612ccf575b81612cbf6020938361305a565b81010312611e9e575190386128e0565b3d9150612cb2565b50346105975780600319360112610597576020600254604051908152f35b50346105975760206107eb612d09366130dd565b91611440849594614db8565b503461059757806003193601126105975761108a613683565b50346105975760203660031901126105975760206107eb600435614d34565b503461059757604036600319011261059757612d67612f7d565b602435903315612de7576001600160a01b0316918215612dcf5760408291338152600160205281812085825260205220556040519081527f8c5be1e5ebec7d5bd14f71427d1e84f3dd0314c0f7b2291e5b200ac8c7c3b92560203392a3602060405160018152f35b60249060405190634a1406b160e11b82526004820152fd5b60405163e602df0560e01b815260048101849052602490fd5b50346105975780600319360112610597576040519080600354612e2281613197565b80855291600191808316908115612ea75750600114612e4c575b61068f8561067b8187038261305a565b9250600383527fc2575a0e9e593c00f959f8c92f12db2869c3395a3b0502d05e2516446f71f85b5b828410612e8f57505050810160200161067b8261068f612e3c565b80546020858701810191909152909301928101612e74565b86955061068f9693506020925061067b94915060ff191682840152151560051b8201019293612e3c565b503461059757806003193601126105975760206107eb7f00000000000000000000000000000000000000000000000000000000000000006001600160a01b031630614e1a565b60005b838110612f2a5750506000910152565b8181015183820152602001612f1a565b90602091612f5381518092818552858086019101612f17565b601f01601f1916010190565b3461040e57602036600319011261040e5760206107eb6004356134da565b600435906001600160a01b038216820361040e57565b602435906001600160a01b038216820361040e57565b6001600160401b038111612fbc57604052565b634e487b7160e01b600052604160045260246000fd5b604081019081106001600160401b03821117612fbc57604052565b606081019081106001600160401b03821117612fbc57604052565b608081019081106001600160401b03821117612fbc57604052565b6101e081019081106001600160401b03821117612fbc57604052565b602081019081106001600160401b03821117612fbc57604052565b90601f801991011681019081106001600160401b03821117612fbc57604052565b6001600160401b038111612fbc57601f01601f191660200190565b81601f8201121561040e578035906130ad8261307b565b926130bb604051948561305a565b8284526020838301011161040e57816000926020809301838601378301015290565b90608060031983011261040e57600435916024356001600160a01b038116810361040e579160443591606435906001600160401b03821161040e5761312491600401613096565b90565b604090600319011261040e576004359060243590565b9060c060031983011261040e57600435916001600160a01b0391602435838116810361040e5792604435908116810361040e5791606435916084359160a435906001600160401b03821161040e5761312491600401613096565b90600182811c921680156131c7575b60208310146131b157565b634e487b7160e01b600052602260045260246000fd5b91607f16916131a6565b606090600319011261040e57600435906001600160a01b0390602435828116810361040e5791604435908116810361040e5790565b3461040e57602036600319011261040e5760206107eb600435614db8565b6005546001600160a01b0316330361323857565b60405163118cdaa760e01b8152336004820152602490fd5b916001600160a01b0380841692831561330357169283156132ea57600090838252816020526040822054908382106132b85750916040828260008051602061544b833981519152958760209652828652038282205586815220818154019055604051908152a3565b60405163391434e360e21b81526001600160a01b03919091166004820152602481019190915260448101839052606490fd5b60405163ec442f0560e01b815260006004820152602490fd5b604051634b637e8f60e11b815260006004820152602490fd5b90620f42409182018092116109e557565b919082018092116109e557565b9091906001600160a01b0381169081613384575060008051602061544b83398151915260208461336f6000959660025461332d565b6002555b8060025403600255604051908152a3565b926000828152806020526040812054948286106133c557508181604060008051602061544b8339815191529460009798876020965283865203912055613373565b60405163391434e360e21b81526001600160a01b039190911660048201526024810186905260448101839052606490fd5b9160018060a01b038093169160009383855260016020526040938486209183169182875260205284862054926000198403613435575b50505050505050565b848410613499575080156134815781156134695785526001602052838520908552602052039120553880808080808061342c565b8451634a1406b160e11b815260048101879052602490fd5b845163e602df0560e01b815260048101879052602490fd5b8551637dc7a0d960e11b81526001600160a01b039190911660048201526024810184905260448101859052606490fd5b60ff16604d81116109e557600a0a90565b61350d7f00000000000000000000000000000000000000000000000000000000000000006001600160a01b031630614e1a565b600181018091116109e55760025490600182018092116109e5576131249261357a565b919061353d82828561357a565b92821561355a570961354c5790565b600181018091116109e55790565b634e487b7160e01b600052601260045260246000fd5b811561355a570490565b9091828202916000198482099383808610950394808603951461360257848311156135f05782910981600003821680920460028082600302188083028203028083028203028083028203028083028203028083028203028092029003029360018380600003040190848311900302920304170290565b60405163227bc15360e01b8152600490fd5b5050906131249250613570565b613617614c81565b8015159081613624575090565b63ffffffff7f0000000000000000000000000000000000000000000000000000000000000000811682109250821561365b57505090565b7f00000000000000000000000000000000000000000000000000000000000000001610905090565b61368b61360f565b61369157565b606461369b614c81565b6040519063391f5eb560e01b8252600482015263ffffffff807f00000000000000000000000000000000000000000000000000000000000000001660248301527f0000000000000000000000000000000000000000000000000000000000000000166044820152fd5b60405163a9059cbb60e01b60208201526001600160a01b039290921660248301526044808301939093529181526137459161374060648361305a565b61375f565b565b9081602091031261040e5751801515810361040e5790565b6000806137a99260018060a01b03169360208151910182865af13d156137f2573d9061378a8261307b565b91613798604051938461305a565b82523d6000602084013e5b836137fa565b80519081151591826137d7575b50506137bf5750565b60249060405190635274afe760e01b82526004820152fd5b6137ea9250602080918301019101613747565b1538806137b6565b6060906137a3565b90613821575080511561380f57805190602001fd5b604051630a12f52160e11b8152600490fd5b81511580613854575b613832575090565b604051639996b31560e01b81526001600160a01b039091166004820152602490fd5b50803b1561382a565b929190937f000000000000000000000000000000000000000000000000000000000000000080851061399257507f000000000000000000000000000000000000000000000000000000000000000080861061397557506138fc906138bf613683565b6001600160a01b03936138f68630337f000000000000000000000000000000000000000000000000000000000000000089166139b0565b85613a64565b169182156132ea576139108160025461332d565b600255826000526000602052604060002081815401905582600060008051602061544b8339815191526020604051858152a360405191825260208201527fdcbc1c05240f31ff3ad067ef1ee35ce4997762752e3a095284754544f4c709d760403392a3565b856044916040519162f13f0f60e41b835260048301526024820152fd5b8460449160405191632610d1fb60e21b835260048301526024820152fd5b6040516323b872dd60e01b60208201526001600160a01b03928316602482015292909116604483015260648083019390935291815260a08101918183106001600160401b03841117612fbc576137459260405261375f565b90620f4240918281029281840414901517156109e557565b818102929181159184041417156109e557565b6001600160a01b03918216815291166020820152604081019190915260806060820181905261312492910190612f3a565b613b1490929192613afb620f4240613aa263ffffffff7f00000000000000000000000000000000000000000000000000000000000000001684613a20565b0491613aed604095865197613ab689613008565b83895281606060209a888c820152838b820152015287519586948a86015288850152606084015260808084015260a0830190612f3a565b03601f19810183528261305a565b825190613b0782612fd2565b6001825284820152614a67565b815163613255ab60e01b81526001600160a01b037f00000000000000000000000000000000000000000000000000000000000000008116600483018190527f000000000000000000000000000000000000000000000000000000000000000090911691908582602481865afa918215613d6357600092613d34575b508451633676633960e21b81526001600160a01b0382166004820152602481018390528681604481875afa908115613cf957908791600091613d04575b5090613bdb613c0a928561332d565b875163095ea7b360e01b81526001600160a01b0387166004820152602481019190915291829081906044820190565b03816000865af1908115613cf957600091613cdc575b5015613c85579184939160008794613c4e975197889586948593632e7ff4ef60e11b85523060048601613a33565b03925af1908115613c7b5750613c62575050565b81613c7892903d106111a357611195818361305a565b50565b513d6000823e3d90fd5b845162461bcd60e51b815260048101879052602a60248201527f617070726f7665206661696c656420666f7220666c617368206c656e646572206044820152691a5b8819195c1bdcda5d60b21b6064820152608490fd5b613cf39150873d89116111a357611195818361305a565b38613c20565b86513d6000823e3d90fd5b9182813d8311613d2d575b613d19818361305a565b810103126105975750518690613bdb613bcc565b503d613d0f565b90918682813d8311613d5c575b613d4b818361305a565b810103126105975750519038613b8f565b503d613d41565b85513d6000823e3d90fd5b919082039182116109e557565b9081602091031261040e575160ff8116810361040e5790565b909594939291937f000000000000000000000000000000000000000000000000000000000000000080881061446a5750336001600160a01b0384160361445a575b6001600160a01b0383161561330357613dee878461333a565b7f000000000000000000000000000000000000000000000000000000000000000080831061443c5750613e1f613683565b620f4240613e5363ffffffff7f00000000000000000000000000000000000000000000000000000000000000001684613a20565b60405163613255ab60e01b81526001600160a01b037f00000000000000000000000000000000000000000000000000000000000000008116600483015290939290910490602090849060249082907f0000000000000000000000000000000000000000000000000000000000000000165afa9283156142ce57600093614406575b5090613f1a613f35928260408051613eeb81612fed565b8381528a60208201520152613aed60405193849260208401528960408401526060808401526080830190612f3a565b60405190613f2782612fd2565b600082526020820152614a67565b6040516370a0823160e01b8152306004820152916020836024817f00000000000000000000000000000000000000000000000000000000000000006001600160a01b03165afa9283156142ce576000936143d2575b50604051633676633960e21b81527f00000000000000000000000000000000000000000000000000000000000000006001600160a01b0316600482015260248101829052602081806044810103817f00000000000000000000000000000000000000000000000000000000000000006001600160a01b03165afa9081156142ce5760009161439f575b506020614023614073928461332d565b60405163095ea7b360e01b81527f00000000000000000000000000000000000000000000000000000000000000006001600160a01b03166004820152602481019190915291829081906044820190565b038160007f00000000000000000000000000000000000000000000000000000000000000006001600160a01b03165af19081156142ce57600091614380575b501561432957604051632e7ff4ef60e11b8152916020918391829161410691907f00000000000000000000000000000000000000000000000000000000000000006001600160a01b03163060048601613a33565b038160007f00000000000000000000000000000000000000000000000000000000000000006001600160a01b03165af180156142ce5761430a575b506001600160a01b0383166000908152602081905260409020548781106142da57506040516370a0823160e01b81523060048201526020816024817f00000000000000000000000000000000000000000000000000000000000000006001600160a01b03165afa9081156142ce5760009161429c575b5081811061427e57906141c991613d6e565b92818411614250575b50614209905082847f00000000000000000000000000000000000000000000000000000000000000006001600160a01b0316613704565b8194604051928352602083015260018060a01b03169160018060a01b0316907ffbde797d201c681b91056529119e0b02407c7bb96a4a2c75c01fc9667232c8db60403392a4565b61425f82614276939495613d6e565b906040519161426d8361303f565b60008352613a64565b9038806141d2565b6044925060405191630cbb578960e31b835260048301526024820152fd5b906020823d6020116142c6575b816142b66020938361305a565b81010312610597575051386141b7565b3d91506142a9565b6040513d6000823e3d90fd5b604051631bb4880160e11b81526001600160a01b0385166004820152602481018990526044810191909152606490fd5b6143229060203d6020116111a357611195818361305a565b5038614141565b60405162461bcd60e51b815260206004820152602960248201527f617070726f7665206661696c656420666f7220666c617368206c656e64657220604482015268696e2072656465656d60b81b6064820152608490fd5b614399915060203d6020116111a357611195818361305a565b386140b2565b906020823d6020116143ca575b816143b96020938361305a565b810103126105975750516020614013565b3d91506143ac565b90926020823d6020116143fe575b816143ed6020938361305a565b810103126105975750519138613f8a565b3d91506143e0565b90926020823d602011614434575b816144216020938361305a565b8101031261059757505191613f1a613ed4565b3d9150614414565b8260449160405191632610d1fb60e21b835260048301526024820152fd5b6144658733856133f6565b613dd5565b876044916040519162f13f0f60e41b835260048301526024820152fd5b9596929093967f00000000000000000000000000000000000000000000000000000000000000008086106139755750336001600160a01b03831603614a19575b6001600160a01b03821615613303576144e0858361333a565b7f00000000000000000000000000000000000000000000000000000000000000008088106149fb5750614511613683565b620f424061454563ffffffff7f00000000000000000000000000000000000000000000000000000000000000001689613a20565b60405163613255ab60e01b81526001600160a01b037f00000000000000000000000000000000000000000000000000000000000000008116600483015290939290910490602090849060249082907f0000000000000000000000000000000000000000000000000000000000000000165afa9283156142ce576000936149c5575b5090613f1a61460d928260408d8151906145df82612fed565b84825260208201520152613aed60405193849260208401528d60408401526060808401526080830190612f3a565b6040516370a0823160e01b8152306004820152916020836024817f00000000000000000000000000000000000000000000000000000000000000006001600160a01b03165afa9283156142ce57600093614991575b50604051633676633960e21b81527f00000000000000000000000000000000000000000000000000000000000000006001600160a01b0316600482015260248101829052602081806044810103817f00000000000000000000000000000000000000000000000000000000000000006001600160a01b03165afa9081156142ce5760009161495e575b5060206140236146fb928461332d565b038160007f00000000000000000000000000000000000000000000000000000000000000006001600160a01b03165af19081156142ce5760009161493f575b501561432957604051632e7ff4ef60e11b8152916020918391829161478e91907f00000000000000000000000000000000000000000000000000000000000000006001600160a01b03163060048601613a33565b038160007f00000000000000000000000000000000000000000000000000000000000000006001600160a01b03165af180156142ce57614920575b506001600160a01b0382166000908152602081905260409020548581106148f057506040516370a0823160e01b81523060048201526020816024817f00000000000000000000000000000000000000000000000000000000000000006001600160a01b03165afa9081156142ce576000916148be575b5081811061427e579061485191613d6e565b9585871015614878576044878760405191630a38061160e21b835260048301526024820152fd5b80929550869497919396116142505750614209905082847f00000000000000000000000000000000000000000000000000000000000000006001600160a01b0316613704565b906020823d6020116148e8575b816148d86020938361305a565b810103126105975750513861483f565b3d91506148cb565b604051631bb4880160e11b81526001600160a01b0384166004820152602481018790526044810191909152606490fd5b6149389060203d6020116111a357611195818361305a565b50386147c9565b614958915060203d6020116111a357611195818361305a565b3861473a565b906020823d602011614989575b816149786020938361305a565b8101031261059757505160206146eb565b3d915061496b565b90926020823d6020116149bd575b816149ac6020938361305a565b810103126105975750519138614662565b3d915061499f565b90926020823d6020116149f3575b816149e06020938361305a565b8101031261059757505191613f1a6145c6565b3d91506149d3565b8760449160405191632610d1fb60e21b835260048301526024820152fd5b614a248533846133f6565b6144c7565b614a3291613d6e565b620f4240821115614a5f5781614a4791613a20565b90620f423f1981019081116109e55761312491613570565b505060001990565b61312460208251151592015191613aed60405193849260208401526040808401526060830190612f3a565b81601f8201121561040e578051614aa88161307b565b92614ab6604051948561305a565b8184526020828401011161040e576131249160208085019101612f17565b91908260c091031261040e5781519160208101519160408201519160608101519160a0608083015192015190565b614b0a614c81565b7f000000000000000000000000000000000000000000000000000000000000000063ffffffff1680821115614b5c5761102c610ed482614b4994613d6e565b600754808211614b57575090565b905090565b61102c610ed4614b6c9383613d6e565b614b49565b51906001600160a01b038216820361040e57565b604051631f94a27560e31b81526001600160a01b03906020816004817f000000000000000000000000000000000000000000000000000000000000000086165afa9081156142ce57600091614bd957501690565b906020823d8211614c08575b81614bf26020938361305a565b810103126105975750614c0490614b71565b1690565b3d9150614be5565b60405163026b1d5f60e01b81526001600160a01b03906020816004817f000000000000000000000000000000000000000000000000000000000000000086165afa9081156142ce57600091614bd957501690565b51906fffffffffffffffffffffffffffffffff8216820361040e57565b602460c06001600160a01b03614c95614c10565b1660405192838092632fe4a15f60e21b82523060048301525afa9081156142ce576000908192614d0f575b50818110614cf2578015614ceb57818114614a5f57610e5a61312492614ce583613a08565b92613d6e565b5050600090565b604491604051916378ea417b60e11b835260048301526024820152fd5b9050614d29915060c03d811161121f57611207818361305a565b505050509038614cc0565b6002548015614db457614d707f00000000000000000000000000000000000000000000000000000000000000006001600160a01b031630614e1a565b908115614d9657600181018091116109e557600182018092116109e55761312492613530565b604492506040519163287036a960e21b835260048301526024820152fd5b5090565b6002548015614db457614df47f00000000000000000000000000000000000000000000000000000000000000006001600160a01b031630614e1a565b908115614d9657600181018091116109e557600182018092116109e5576131249261357a565b6001600160a01b03919082614e2d614c10565b169160c084602460409485519687938492632fe4a15f60e21b84521660048301525afa8015614f64576000938491614f3c575b5084614e6a614b85565b1693835195869363b3596f0760e01b8552169485600485015283602460209586935afa958615614f3157600096614f00575b5091614eab8192600494613d6e565b9484519384809263313ce56760e01b82525afa928315613c7b575061102c9261312495949261102692600092614ee3575b50506134c9565b614ef99250803d106110e7576110d9818361305a565b3880614edc565b90958382813d8311614f2a575b614f17818361305a565b8101031261059757505194614eab614e9c565b503d614f0d565b84513d6000823e3d90fd5b9050614f5791935060c03d811161121f57611207818361305a565b5050505092909238614e60565b82513d6000823e3d90fd5b614f7761360f565b614f815760001990565b600090565b614f8e61360f565b614fb3576001600160a01b0316600090815260208190526040902054613124906134da565b50600090565b614fc161360f565b614fb3576001600160a01b031660009081526020819052604090205490565b94939291909580511560001461501257506131249561500c906001600160a01b0390811690871661501d565b9461523d565b94613124965061523d565b6001600160a01b03908116917f0000000000000000000000000000000000000000000000000000000000000000821683811480615210575b1561511957505050506040516000816008549161507183613197565b808352926001908181169081156150f75750600114615098575b506131249250038261305a565b6008600090815291507ff3f7a9fe364faab93b216da50a3214154f22a0a2b415b23a84c8169e8b636ee35b8483106150dc575061312493505081016020013861508b565b819350908160209254838589010152019101909184926150c3565b90506020925061312494915060ff191682840152151560051b8201013861508b565b827f00000000000000000000000000000000000000000000000000000000000000001684149081615204575b5061516957604493506040519263ee4caf3d60e01b84526004840152166024820152fd5b5050506040516000816009549161517f83613197565b808352926001908181169081156150f757506001146151a557506131249250038261305a565b6009600090815291507f6e1540171b6c0c960b71a7020d9f60077f6af931a8bbf590da0223dacf75c7af5b8483106151e9575061312493505081016020013861508b565b819350908160209254838589010152019101909184926151d0565b90508282161438615145565b50827f00000000000000000000000000000000000000000000000000000000000000001683831614615055565b6040805163095ea7b360e01b81526001600160a01b037f0000000000000000000000000000000000000000000000000000000000000000811660048301819052602483018790529298600097602097929694959194909390918890829060449082908d908c165af1908115615420578991615403575b50156153ad5789519360a085018581106001600160401b038211176153995792889796959261532a95928b958e52845287898501931683528c84019b8c5260608401908152608084019182528c519b8c9889978896631e51809360e31b88528c60048901525160a0602489015260c4880190612f3a565b94511660448601525160648501525160848401525160a483015203925af193841561538e5750819361535d575b50505090565b9091809350813d8311615387575b615375818361305a565b81010312610597575051388080615357565b503d61536b565b51913d9150823e3d90fd5b634e487b7160e01b8a52604160045260248afd5b895162461bcd60e51b815260048101889052602960248201527f617070726f7665206661696c656420666f72207377617020726f7574657220696044820152681b8819195c1bdcda5d60ba1b6064820152608490fd5b61541a9150883d8a116111a357611195818361305a565b386152b3565b8b513d8b823e3d90fdfe617070726f7665206661696c656420666f72206c656e64696e6720706f6f6c20ddf252ad1be2c89b69c2b068fc378daa952ba7f163c4a11628f55a4df523b3efa264697066735822122025308a686f4ccf55795cff4544fc0395b9aedbf20d3c6f2e2c0eda79fabfb32364736f6c63430008140033f3f7a9fe364faab93b216da50a3214154f22a0a2b415b23a84c8169e8b636ee3",
  "devdoc": {
    "details": "A leveraged vault contract with Uniswap V3 swap-specific logic",
    "errors": {
      "AddressEmptyCode(address)": [
        {
          "details": "There's no code at `target` (it is not a contract)."
        }
      ],
      "AddressInsufficientBalance(address)": [
        {
          "details": "The ETH balance of the account is not enough to perform the operation."
        }
      ],
      "ERC20InsufficientAllowance(address,uint256,uint256)": [
        {
          "details": "Indicates a failure with the `spender`s `allowance`. Used in transfers.",
          "params": {
            "allowance": "Amount of tokens a `spender` is allowed to operate with.",
            "needed": "Minimum amount required to perform a transfer.",
            "spender": "Address that may be allowed to operate on tokens without being their owner."
          }
        }
      ],
      "ERC20InsufficientBalance(address,uint256,uint256)": [
        {
          "details": "Indicates an error related to the current `balance` of a `sender`. Used in transfers.",
          "params": {
            "balance": "Current balance for the interacting account.",
            "needed": "Minimum amount required to perform a transfer.",
            "sender": "Address whose tokens are being transferred."
          }
        }
      ],
      "ERC20InvalidApprover(address)": [
        {
          "details": "Indicates a failure with the `approver` of a token to be approved. Used in approvals.",
          "params": {
            "approver": "Address initiating an approval operation."
          }
        }
      ],
      "ERC20InvalidReceiver(address)": [
        {
          "details": "Indicates a failure with the token `receiver`. Used in transfers.",
          "params": {
            "receiver": "Address to which tokens are being transferred."
          }
        }
      ],
      "ERC20InvalidSender(address)": [
        {
          "details": "Indicates a failure with the token `sender`. Used in transfers.",
          "params": {
            "sender": "Address whose tokens are being transferred."
          }
        }
      ],
      "ERC20InvalidSpender(address)": [
        {
          "details": "Indicates a failure with the `spender` to be approved. Used in approvals.",
          "params": {
            "spender": "Address that may be allowed to operate on tokens without being their owner."
          }
        }
      ],
      "ERC4626ExceededMaxDeposit(address,uint256,uint256)": [
        {
          "details": "Attempted to deposit more assets than the max amount for `receiver`."
        }
      ],
      "ERC4626ExceededMaxMint(address,uint256,uint256)": [
        {
          "details": "Attempted to mint more shares than the max amount for `receiver`."
        }
      ],
      "ERC4626ExceededMaxRedeem(address,uint256,uint256)": [
        {
          "details": "Attempted to redeem more shares than the max amount for `receiver`."
        }
      ],
      "ERC4626ExceededMaxWithdraw(address,uint256,uint256)": [
        {
          "details": "Attempted to withdraw more assets than the max amount for `receiver`."
        }
      ],
      "FailedInnerCall()": [
        {
          "details": "A call to an address target failed. The target may have reverted."
        }
      ],
      "MathOverflowedMulDiv()": [
        {
          "details": "Muldiv operation overflow."
        }
      ],
      "OwnableInvalidOwner(address)": [
        {
          "details": "The owner is not a valid owner account. (eg. `address(0)`)"
        }
      ],
      "OwnableUnauthorizedAccount(address)": [
        {
          "details": "The caller account is not authorized to perform an operation."
        }
      ],
      "SafeERC20FailedOperation(address)": [
        {
          "details": "An operation with an ERC20 token failed."
        }
      ]
    },
    "events": {
      "Approval(address,address,uint256)": {
        "details": "Emitted when the allowance of a `spender` for an `owner` is set by a call to {approve}. `value` is the new allowance."
      },
      "Transfer(address,address,uint256)": {
        "details": "Emitted when `value` tokens are moved from one account (`from`) to another (`to`). Note that `value` may be zero."
      }
    },
    "kind": "dev",
    "methods": {
      "allowance(address,address)": {
        "details": "See {IERC20-allowance}."
      },
      "approve(address,uint256)": {
        "details": "See {IERC20-approve}. NOTE: If `value` is the maximum `uint256`, the allowance is not updated on `transferFrom`. This is semantically equivalent to an infinite approval. Requirements: - `spender` cannot be the zero address."
      },
      "asset()": {
        "details": "See {IERC4626-asset}. "
      },
      "balanceOf(address)": {
        "details": "See {IERC20-balanceOf}."
      },
      "checkIsTooImbalanced()": {
        "details": "Checks if the current leverage is too imbalanced and reverts if it is"
      },
      "constructor": {
        "details": "Constructor for the DLoopVaultUniswapV3 contract",
        "params": {
          "_defaultDUSDToUnderlyingSwapPath": "Default swap path from dUSD to underlying asset",
          "_defaultUnderlyingToDUSDSwapPath": "Default swap path from underlying asset to dUSD",
          "_dusd": "Address of the dUSD token",
          "_flashLender": "Address of the flash loan provider",
          "_lendingPoolAddressesProvider": "Address of the lending pool addresses provider",
          "_maxSubsidyBps": "Maximum subsidy in basis points",
          "_minimumSharesAmount": "Minimum amount of shares (avoid inflation attack)",
          "_minimumUnderlyingAssetAmount": "Minimum amount of underlying asset (avoid inflation attack)",
          "_name": "Name of the vault token",
          "_swapRouter": "Address of the swap router",
          "_swapSlippageTolerance": "Swap slippage tolerance in basis points",
          "_symbol": "Symbol of the vault token",
          "_targetLeverageBps": "Target leverage in basis points",
          "_underlyingAsset": "Address of the underlying asset"
        }
      },
      "convertToAssets(uint256)": {
        "details": "See {IERC4626-convertToAssets}. "
      },
      "convertToShares(uint256)": {
        "details": "See {IERC4626-convertToShares}. "
      },
      "decimals()": {
        "details": "Decimals are computed by adding the decimal offset on top of the underlying asset's decimals. This \"original\" value is cached during construction of the vault contract. If this read operation fails (e.g., the asset has not been created yet), a default of 18 is used to represent the underlying asset's decimals. See {IERC20Metadata-decimals}."
      },
      "deposit(uint256,address)": {
        "details": "Deposits assets into the vault",
        "params": {
          "assets": "Amount of assets to deposit",
          "receiver": "Address to receive the minted shares"
        },
        "returns": {
          "shares": "Amount of shares minted"
        }
      },
      "depositWith(uint256,address,uint256,bytes)": {
        "details": "Deposits assets into the vault with custom parameters",
        "params": {
          "assets": "Amount of assets to deposit",
          "dusdToUnderlyingSwapData": "Swap data from dUSD to underlying asset",
          "receiver": "Address to receive the minted shares",
          "slippageTolerance": "Slippage tolerance for the swap"
        },
        "returns": {
          "shares": "Amount of shares minted"
        }
      },
      "isTooImbalanced()": {
        "details": "Returns whether the current leverage is too imbalanced",
        "returns": {
          "_0": "bool True if leverage is too imbalanced, false otherwise"
        }
      },
      "mint(uint256,address)": {
        "details": "Mints shares to the receiver by depositing assets",
        "params": {
          "receiver": "Address to receive the minted shares",
          "shares": "Amount of shares to mint"
        },
        "returns": {
          "assets": "Amount of assets deposited"
        }
      },
      "mintWith(uint256,address,uint256,bytes)": {
        "details": "Mints shares to the receiver by depositing assets with custom parameters",
        "params": {
          "dusdToUnderlyingSwapData": "Swap data from dUSD to underlying asset",
          "receiver": "Address to receive the minted shares",
          "shares": "Amount of shares to mint",
          "slippageTolerance": "Slippage tolerance for the swap"
        },
        "returns": {
          "assets": "Amount of assets deposited"
        }
      },
      "name()": {
        "details": "Returns the name of the token."
      },
      "onFlashLoan(address,address,uint256,uint256,bytes)": {
        "details": "Callback function for flash loans",
        "params": {
          "data": "Additional data passed to the flash loan",
          "initiator": "Address that initiated the flash loan",
          "token": "Address of the flash-borrowed token"
        },
        "returns": {
          "_0": "bytes32 The flash loan callback success bytes"
        }
      },
      "owner()": {
        "details": "Returns the address of the current owner."
      },
      "previewDeposit(uint256)": {
        "details": "See {IERC4626-previewDeposit}. "
      },
      "previewMint(uint256)": {
        "details": "See {IERC4626-previewMint}. "
      },
      "previewRedeem(uint256)": {
        "details": "See {IERC4626-previewRedeem}. "
      },
      "previewWithdraw(uint256)": {
        "details": "See {IERC4626-previewWithdraw}. "
      },
      "redeem(uint256,address,address)": {
        "details": "Redeems shares from the vault",
        "params": {
          "owner": "Address that owns the shares",
          "receiver": "Address to receive the assets",
          "shares": "Amount of shares to redeem"
        },
        "returns": {
          "assets": "Amount of assets redeemed"
        }
      },
      "redeemWith(uint256,address,address,uint256,uint256,bytes)": {
        "details": "Redeems shares from the vault with custom parameters",
        "params": {
          "minReceiveAmount": "Minimum amount of assets to receive",
          "owner": "Address that owns the shares",
          "receiver": "Address to receive the assets",
          "shares": "Amount of shares to redeem",
          "swapSlippageTolerance": "Slippage tolerance for the swap",
          "underlyingToDUSDSwapData": "Swap data from underlying asset to DUSD"
        },
        "returns": {
          "assets": "Amount of assets redeemed"
        }
      },
      "renounceOwnership()": {
        "details": "Leaves the contract without owner. It will not be possible to call `onlyOwner` functions. Can only be called by the current owner. NOTE: Renouncing ownership will leave the contract without an owner, thereby disabling any functionality that is only available to the owner."
      },
      "rescueToken(address,address)": {
        "details": "Rescues tokens accidentally sent to the contract",
        "params": {
          "receiver": "Address to receive the rescued tokens",
          "token": "Address of the token to rescue"
        }
      },
      "setDefaultSwapSlippageTolerance(uint256)": {
        "details": "Sets the default swap slippage tolerance",
        "params": {
          "_swapSlippageTolerance": "New default swap slippage tolerance"
        }
      },
      "setMaxSubsidyBps(uint256)": {
        "details": "Sets the maximum subsidy in basis points",
        "params": {
          "_maxSubsidyBps": "New maximum subsidy in basis points"
        }
      },
      "symbol()": {
        "details": "Returns the symbol of the token, usually a shorter version of the name."
      },
      "totalAssets()": {
        "details": "See {IERC4626-totalAssets}. "
      },
      "totalSupply()": {
        "details": "See {IERC20-totalSupply}."
      },
      "transfer(address,uint256)": {
        "details": "See {IERC20-transfer}. Requirements: - `to` cannot be the zero address. - the caller must have a balance of at least `value`."
      },
      "transferFrom(address,address,uint256)": {
        "details": "See {IERC20-transferFrom}. Emits an {Approval} event indicating the updated allowance. This is not required by the EIP. See the note at the beginning of {ERC20}. NOTE: Does not update the allowance if the current allowance is the maximum `uint256`. Requirements: - `from` and `to` cannot be the zero address. - `from` must have a balance of at least `value`. - the caller must have allowance for ``from``'s tokens of at least `value`."
      },
      "transferOwnership(address)": {
        "details": "Transfers ownership of the contract to a new account (`newOwner`). Can only be called by the current owner."
      },
      "withdraw(uint256,address,address)": {
        "details": "Withdraws assets from the vault",
        "params": {
          "assets": "Amount of assets to withdraw",
          "owner": "Address that owns the shares",
          "receiver": "Address to receive the assets"
        },
        "returns": {
          "shares": "Amount of shares burned"
        }
      },
      "withdrawWith(uint256,address,address,uint256,uint256,bytes)": {
        "details": "Withdraws assets from the vault with custom parameters",
        "params": {
          "assets": "Amount of assets to withdraw",
          "minReceiveAmount": "Minimum amount of assets to receive",
          "owner": "Address that owns the shares",
          "receiver": "Address to receive the assets",
          "swapSlippageTolerance": "Slippage tolerance for the swap",
          "underlyingToDUSDSwapData": "Swap data from underlying asset to dUSD"
        },
        "returns": {
          "shares": "Amount of shares burned"
        }
      }
    },
    "title": "DLoopVaultUniswapV3",
    "version": 1
  },
  "userdoc": {
    "kind": "user",
    "methods": {},
    "version": 1
  },
  "storageLayout": {
    "storage": [
      {
        "astId": 477,
        "contract": "contracts/vault/DLoopVaultUniswapV3.sol:DLoopVaultUniswapV3",
        "label": "_balances",
        "offset": 0,
        "slot": "0",
        "type": "t_mapping(t_address,t_uint256)"
      },
      {
        "astId": 483,
        "contract": "contracts/vault/DLoopVaultUniswapV3.sol:DLoopVaultUniswapV3",
        "label": "_allowances",
        "offset": 0,
        "slot": "1",
        "type": "t_mapping(t_address,t_mapping(t_address,t_uint256))"
      },
      {
        "astId": 485,
        "contract": "contracts/vault/DLoopVaultUniswapV3.sol:DLoopVaultUniswapV3",
        "label": "_totalSupply",
        "offset": 0,
        "slot": "2",
        "type": "t_uint256"
      },
      {
        "astId": 487,
        "contract": "contracts/vault/DLoopVaultUniswapV3.sol:DLoopVaultUniswapV3",
        "label": "_name",
        "offset": 0,
        "slot": "3",
        "type": "t_string_storage"
      },
      {
        "astId": 489,
        "contract": "contracts/vault/DLoopVaultUniswapV3.sol:DLoopVaultUniswapV3",
        "label": "_symbol",
        "offset": 0,
        "slot": "4",
        "type": "t_string_storage"
      },
      {
        "astId": 8,
        "contract": "contracts/vault/DLoopVaultUniswapV3.sol:DLoopVaultUniswapV3",
        "label": "_owner",
        "offset": 0,
        "slot": "5",
        "type": "t_address"
      },
      {
        "astId": 5376,
        "contract": "contracts/vault/DLoopVaultUniswapV3.sol:DLoopVaultUniswapV3",
        "label": "_defaultSwapSlippageTolerance",
        "offset": 0,
        "slot": "6",
        "type": "t_uint256"
      },
      {
        "astId": 5394,
        "contract": "contracts/vault/DLoopVaultUniswapV3.sol:DLoopVaultUniswapV3",
        "label": "_defaultMaxSubsidyBps",
        "offset": 0,
        "slot": "7",
        "type": "t_uint256"
      },
      {
        "astId": 8504,
        "contract": "contracts/vault/DLoopVaultUniswapV3.sol:DLoopVaultUniswapV3",
        "label": "DEFAULT_DUSD_TO_UNDERLYING_SWAP_PATH",
        "offset": 0,
        "slot": "8",
        "type": "t_bytes_storage"
      },
      {
        "astId": 8506,
        "contract": "contracts/vault/DLoopVaultUniswapV3.sol:DLoopVaultUniswapV3",
        "label": "DEFAULT_UNDERLYING_TO_DUSD_SWAP_PATH",
        "offset": 0,
        "slot": "9",
        "type": "t_bytes_storage"
      }
    ],
    "types": {
      "t_address": {
        "encoding": "inplace",
        "label": "address",
        "numberOfBytes": "20"
      },
      "t_bytes_storage": {
        "encoding": "bytes",
        "label": "bytes",
        "numberOfBytes": "32"
      },
      "t_mapping(t_address,t_mapping(t_address,t_uint256))": {
        "encoding": "mapping",
        "key": "t_address",
        "label": "mapping(address => mapping(address => uint256))",
        "numberOfBytes": "32",
        "value": "t_mapping(t_address,t_uint256)"
      },
      "t_mapping(t_address,t_uint256)": {
        "encoding": "mapping",
        "key": "t_address",
        "label": "mapping(address => uint256)",
        "numberOfBytes": "32",
        "value": "t_uint256"
      },
      "t_string_storage": {
        "encoding": "bytes",
        "label": "string",
        "numberOfBytes": "32"
      },
      "t_uint256": {
        "encoding": "inplace",
        "label": "uint256",
        "numberOfBytes": "32"
      }
    }
  }
}