{
  "address": "0x899a5F28E6ad1a1af3C9AC635687cb17392b14B5",
  "abi": [
    {
      "inputs": [
        {
          "internalType": "contract ERC20",
          "name": "_underlyingAsset",
          "type": "address"
        },
        {
          "internalType": "contract ERC20",
          "name": "_dStable",
          "type": "address"
        },
        {
          "internalType": "contract IERC3156FlashLender",
          "name": "_flashLender",
          "type": "address"
        },
        {
          "internalType": "contract DLoopCoreBase",
          "name": "_dLoopCore",
          "type": "address"
        },
        {
          "internalType": "contract ICurveRouterNgPoolsOnlyV1",
          "name": "_curveRouter",
          "type": "address"
        },
        {
          "internalType": "uint256",
          "name": "_swapSlippageTolerance",
          "type": "uint256"
        },
        {
          "internalType": "uint256",
          "name": "_maxSlippageSurplusSwapBps",
          "type": "uint256"
        },
        {
          "components": [
            {
              "internalType": "address",
              "name": "inputToken",
              "type": "address"
            },
            {
              "internalType": "address",
              "name": "outputToken",
              "type": "address"
            },
            {
              "components": [
                {
                  "internalType": "address[11]",
                  "name": "route",
                  "type": "address[11]"
                },
                {
                  "internalType": "uint256[4][5]",
                  "name": "swapParams",
                  "type": "uint256[4][5]"
                },
                {
                  "internalType": "uint256",
                  "name": "swapSlippageBufferBps",
                  "type": "uint256"
                }
              ],
              "internalType": "struct CurveHelper.CurveSwapExtraParams",
              "name": "swapExtraParams",
              "type": "tuple"
            },
            {
              "components": [
                {
                  "internalType": "address[11]",
                  "name": "route",
                  "type": "address[11]"
                },
                {
                  "internalType": "uint256[4][5]",
                  "name": "swapParams",
                  "type": "uint256[4][5]"
                },
                {
                  "internalType": "uint256",
                  "name": "swapSlippageBufferBps",
                  "type": "uint256"
                }
              ],
              "internalType": "struct CurveHelper.CurveSwapExtraParams",
              "name": "reverseSwapExtraParams",
              "type": "tuple"
            }
          ],
          "internalType": "struct CurveSwapLogic.CurveSwapExtraParamsDefaultConfig[]",
          "name": "_defaultSwapParamsList",
          "type": "tuple[]"
        }
      ],
      "stateMutability": "nonpayable",
      "type": "constructor"
    },
    {
      "inputs": [
        {
          "internalType": "address",
          "name": "target",
          "type": "address"
        }
      ],
      "name": "AddressEmptyCode",
      "type": "error"
    },
    {
      "inputs": [
        {
          "internalType": "address",
          "name": "account",
          "type": "address"
        }
      ],
      "name": "AddressInsufficientBalance",
      "type": "error"
    },
    {
      "inputs": [],
      "name": "FailedInnerCall",
      "type": "error"
    },
    {
      "inputs": [
        {
          "internalType": "address",
          "name": "owner",
          "type": "address"
        }
      ],
      "name": "OwnableInvalidOwner",
      "type": "error"
    },
    {
      "inputs": [
        {
          "internalType": "address",
          "name": "account",
          "type": "address"
        }
      ],
      "name": "OwnableUnauthorizedAccount",
      "type": "error"
    },
    {
      "inputs": [
        {
          "internalType": "address",
          "name": "token",
          "type": "address"
        }
      ],
      "name": "SafeERC20FailedOperation",
      "type": "error"
    },
    {
      "inputs": [
        {
          "internalType": "uint256",
          "name": "sharesBeforeDeposit",
          "type": "uint256"
        },
        {
          "internalType": "uint256",
          "name": "sharesAfterDeposit",
          "type": "uint256"
        }
      ],
      "name": "SharesNotIncreasedAfterFlashLoan",
      "type": "error"
    },
    {
      "inputs": [],
      "name": "UnknownInitiator",
      "type": "error"
    },
    {
      "inputs": [],
      "name": "UnknownLender",
      "type": "error"
    },
    {
      "inputs": [],
      "name": "UnknownToken",
      "type": "error"
    },
    {
      "anonymous": false,
      "inputs": [
        {
          "indexed": true,
          "internalType": "address",
          "name": "previousOwner",
          "type": "address"
        },
        {
          "indexed": true,
          "internalType": "address",
          "name": "newOwner",
          "type": "address"
        }
      ],
      "name": "OwnershipTransferred",
      "type": "event"
    },
    {
      "inputs": [],
      "name": "FLASHLOAN_CALLBACK",
      "outputs": [
        {
          "internalType": "bytes32",
          "name": "",
          "type": "bytes32"
        }
      ],
      "stateMutability": "view",
      "type": "function"
    },
    {
      "inputs": [],
      "name": "curveRouter",
      "outputs": [
        {
          "internalType": "contract ICurveRouterNgPoolsOnlyV1",
          "name": "",
          "type": "address"
        }
      ],
      "stateMutability": "view",
      "type": "function"
    },
    {
      "inputs": [],
      "name": "dLoopCore",
      "outputs": [
        {
          "internalType": "contract DLoopCoreBase",
          "name": "",
          "type": "address"
        }
      ],
      "stateMutability": "view",
      "type": "function"
    },
    {
      "inputs": [],
      "name": "dStable",
      "outputs": [
        {
          "internalType": "contract ERC20",
          "name": "",
          "type": "address"
        }
      ],
      "stateMutability": "view",
      "type": "function"
    },
    {
      "inputs": [
        {
          "internalType": "string",
          "name": "",
          "type": "string"
        }
      ],
      "name": "defaultSwapParams",
      "outputs": [
        {
          "internalType": "uint256",
          "name": "swapSlippageBufferBps",
          "type": "uint256"
        }
      ],
      "stateMutability": "view",
      "type": "function"
    },
    {
      "inputs": [
        {
          "internalType": "uint256",
          "name": "assets",
          "type": "uint256"
        },
        {
          "internalType": "address",
          "name": "receiver",
          "type": "address"
        },
        {
          "internalType": "uint256",
          "name": "slippageTolerance",
          "type": "uint256"
        },
        {
          "internalType": "bytes",
          "name": "dStableToUnderlyingSwapData",
          "type": "bytes"
        }
      ],
      "name": "deposit",
      "outputs": [
        {
          "internalType": "uint256",
          "name": "shares",
          "type": "uint256"
        }
      ],
      "stateMutability": "nonpayable",
      "type": "function"
    },
    {
      "inputs": [],
      "name": "flashLender",
      "outputs": [
        {
          "internalType": "contract IERC3156FlashLender",
          "name": "",
          "type": "address"
        }
      ],
      "stateMutability": "view",
      "type": "function"
    },
    {
      "inputs": [
        {
          "internalType": "string",
          "name": "",
          "type": "string"
        }
      ],
      "name": "isSwapParamsSet",
      "outputs": [
        {
          "internalType": "bool",
          "name": "",
          "type": "bool"
        }
      ],
      "stateMutability": "view",
      "type": "function"
    },
    {
      "inputs": [],
      "name": "maxSlippageSurplusSwapBps",
      "outputs": [
        {
          "internalType": "uint256",
          "name": "",
          "type": "uint256"
        }
      ],
      "stateMutability": "view",
      "type": "function"
    },
    {
      "inputs": [
        {
          "internalType": "uint256",
          "name": "shares",
          "type": "uint256"
        },
        {
          "internalType": "address",
          "name": "receiver",
          "type": "address"
        },
        {
          "internalType": "uint256",
          "name": "slippageTolerance",
          "type": "uint256"
        },
        {
          "internalType": "bytes",
          "name": "dStableToUnderlyingSwapData",
          "type": "bytes"
        }
      ],
      "name": "mint",
      "outputs": [
        {
          "internalType": "uint256",
          "name": "assets",
          "type": "uint256"
        }
      ],
      "stateMutability": "nonpayable",
      "type": "function"
    },
    {
      "inputs": [
        {
          "internalType": "address",
          "name": "initiator",
          "type": "address"
        },
        {
          "internalType": "address",
          "name": "token",
          "type": "address"
        },
        {
          "internalType": "uint256",
          "name": "",
          "type": "uint256"
        },
        {
          "internalType": "uint256",
          "name": "",
          "type": "uint256"
        },
        {
          "internalType": "bytes",
          "name": "data",
          "type": "bytes"
        }
      ],
      "name": "onFlashLoan",
      "outputs": [
        {
          "internalType": "bytes32",
          "name": "",
          "type": "bytes32"
        }
      ],
      "stateMutability": "nonpayable",
      "type": "function"
    },
    {
      "inputs": [],
      "name": "owner",
      "outputs": [
        {
          "internalType": "address",
          "name": "",
          "type": "address"
        }
      ],
      "stateMutability": "view",
      "type": "function"
    },
    {
      "inputs": [],
      "name": "renounceOwnership",
      "outputs": [],
      "stateMutability": "nonpayable",
      "type": "function"
    },
    {
      "inputs": [
        {
          "internalType": "address",
          "name": "token",
          "type": "address"
        },
        {
          "internalType": "address",
          "name": "receiver",
          "type": "address"
        }
      ],
      "name": "rescueToken",
      "outputs": [],
      "stateMutability": "nonpayable",
      "type": "function"
    },
    {
      "inputs": [
        {
          "components": [
            {
              "internalType": "address",
              "name": "inputToken",
              "type": "address"
            },
            {
              "internalType": "address",
              "name": "outputToken",
              "type": "address"
            },
            {
              "components": [
                {
                  "internalType": "address[11]",
                  "name": "route",
                  "type": "address[11]"
                },
                {
                  "internalType": "uint256[4][5]",
                  "name": "swapParams",
                  "type": "uint256[4][5]"
                },
                {
                  "internalType": "uint256",
                  "name": "swapSlippageBufferBps",
                  "type": "uint256"
                }
              ],
              "internalType": "struct CurveHelper.CurveSwapExtraParams",
              "name": "swapExtraParams",
              "type": "tuple"
            },
            {
              "components": [
                {
                  "internalType": "address[11]",
                  "name": "route",
                  "type": "address[11]"
                },
                {
                  "internalType": "uint256[4][5]",
                  "name": "swapParams",
                  "type": "uint256[4][5]"
                },
                {
                  "internalType": "uint256",
                  "name": "swapSlippageBufferBps",
                  "type": "uint256"
                }
              ],
              "internalType": "struct CurveHelper.CurveSwapExtraParams",
              "name": "reverseSwapExtraParams",
              "type": "tuple"
            }
          ],
          "internalType": "struct CurveSwapLogic.CurveSwapExtraParamsDefaultConfig",
          "name": "_swapExtraParamsConfig",
          "type": "tuple"
        }
      ],
      "name": "setSwapExtraParams",
      "outputs": [],
      "stateMutability": "nonpayable",
      "type": "function"
    },
    {
      "inputs": [
        {
          "internalType": "address",
          "name": "newOwner",
          "type": "address"
        }
      ],
      "name": "transferOwnership",
      "outputs": [],
      "stateMutability": "nonpayable",
      "type": "function"
    },
    {
      "inputs": [],
      "name": "underlyingAsset",
      "outputs": [
        {
          "internalType": "contract ERC20",
          "name": "",
          "type": "address"
        }
      ],
      "stateMutability": "view",
      "type": "function"
    }
  ],
  "transactionHash": "0x7af03802fb303fa6d55d6f7445cc84342b44a5df8ea674f67c0073293a0801f2",
  "args": [
    "0x0Dbf64462FEC588df32FC5C9941421F7d93e0Fb3",
    "0x4D6E79013212F10A026A1FB0b926C9Fd0432b96c",
    "0x4D6E79013212F10A026A1FB0b926C9Fd0432b96c",
    "0x64474f3447911DcA644E62A8EED3c422C5B7eFef",
    "0xF66c3Ef85BceafaEcE9171E25Eee2972b10e1958",
    200000,
    200000,
    [
      {
        "inputToken": "0x4D6E79013212F10A026A1FB0b926C9Fd0432b96c",
        "outputToken": "0x0Dbf64462FEC588df32FC5C9941421F7d93e0Fb3",
        "swapExtraParams": {
          "route": [
            "0x4D6E79013212F10A026A1FB0b926C9Fd0432b96c",
            "0x93f785642837e082ff95bB69E64e5B6967857c74",
            "0x2CAb811d351B4eF492D8C197E09939F1C9f54330",
            "0x6a7173EA306983f3721Cc9A3c6EA7f0a3a2f3c13",
            "0x0Dbf64462FEC588df32FC5C9941421F7d93e0Fb3",
            "0x0000000000000000000000000000000000000000",
            "0x0000000000000000000000000000000000000000",
            "0x0000000000000000000000000000000000000000",
            "0x0000000000000000000000000000000000000000",
            "0x0000000000000000000000000000000000000000",
            "0x0000000000000000000000000000000000000000"
          ],
          "swapParams": [
            [
              0,
              1,
              1,
              2
            ],
            [
              0,
              1,
              1,
              2
            ],
            [
              0,
              0,
              0,
              0
            ],
            [
              0,
              0,
              0,
              0
            ],
            [
              0,
              0,
              0,
              0
            ]
          ],
          "swapSlippageBufferBps": 500000
        },
        "reverseSwapExtraParams": {
          "route": [
            "0x0Dbf64462FEC588df32FC5C9941421F7d93e0Fb3",
            "0x6a7173EA306983f3721Cc9A3c6EA7f0a3a2f3c13",
            "0x2CAb811d351B4eF492D8C197E09939F1C9f54330",
            "0x93f785642837e082ff95bB69E64e5B6967857c74",
            "0x4D6E79013212F10A026A1FB0b926C9Fd0432b96c",
            "0x0000000000000000000000000000000000000000",
            "0x0000000000000000000000000000000000000000",
            "0x0000000000000000000000000000000000000000",
            "0x0000000000000000000000000000000000000000",
            "0x0000000000000000000000000000000000000000",
            "0x0000000000000000000000000000000000000000"
          ],
          "swapParams": [
            [
              1,
              0,
              1,
              2
            ],
            [
              1,
              0,
              1,
              2
            ],
            [
              0,
              0,
              0,
              0
            ],
            [
              0,
              0,
              0,
              0
            ],
            [
              0,
              0,
              0,
              0
            ]
          ],
          "swapSlippageBufferBps": 500000
        }
      }
    ]
  ],
  "numDeployments": 1,
  "solcInputHash": "2d1bff231d9c5ddb6fe0f19f244c2cfb",
  "bytecode": "0x61014080604052346200037c5762001f43803803809162000021828562000440565b83396101008282810103126200037c576200003c8262000464565b916200004b6020820162000464565b6040820151939092906001600160a01b03851685036200037c5760608301516001600160a01b03811681036200037c576080840151906001600160a01b03821682036200037c5760a08501519260c08601519760e08701519560018060401b0387116200037c57808801601f888a010112156200037c57878701516001600160401b038111620002f75760405198620000eb60208360051b018b62000440565b818a5260208a018099848301602061084086028386010101116200037c5790602082840101915b60206108408602828601010183106200039a575050505050503315620003815760008054336001600160a01b03198216811783556040519a9290916001600160a01b0316907f8be0079c531659141344cd1fd0a4f28419497f9722a3daafe3b4186f6b6457e09080a360c05260805260a05260e052600191825561010052610120948552733BbD619EB2DB0d14f724FD6ee333Cc616c49054992833b156200037c576319ef805560e11b8552606060048601525160648501819052928492909160848401919060005b868110620003195750505060009350828091600260248301526003604483015203915af480156200030d57620002de575b506040516118fe91826200064583396080518281816105ac0152818161090f015261159a015260a05182818161069b01528181610a8e01528181610bec01528181610ca401528181610ddd01526114b2015260c05182818161095801528181610b0701528181610b7301528181610c7c015281816110b701526115bd015260e051828181610503015281816105f101528181610ac001528181610ba501528181610d9b01528181610e4b01526114db0152610100518281816104a30152610cff0152518181816108270152610d3d0152f35b6001600160401b038111620002f757604052386200020c565b634e487b7160e01b600052604160045260246000fd5b6040513d6000823e3d90fd5b9194506020610840829597946200036b6060895160018060a01b03815116845260018060a01b038682015116868501526200035d60408201516040860190620005a9565b0151610440830190620005a9565b0195019101928694929593620001db565b600080fd5b604051631e4fbdf760e01b815260006004820152602490fd5b6108408387860103126200037c576040516080810192906001600160401b038411818510176200042b5760206108409283928296604052620003dc8862000464565b8152620003eb83890162000464565b83820152620004008b8a0160408a0162000479565b6040820152620004178b8a016104408a0162000479565b606082015281520194019392505062000112565b60246000634e487b7160e01b81526041600452fd5b601f909101601f19168101906001600160401b03821190821017620002f757604052565b51906001600160a01b03821682036200037c57565b9190610400838203126200037c57604080519160608301906001600160401b0380831185841017620002f7578496601f918383830112156200037c576101c0870185811082821117620002f7578652846101608301958587116200037c5783905b8782106200058e57505087528361017f830112156200037c5785519360a0850185811083821117620002f75787526103e0859301958187116200037c57925b86841062000531575050505050602084015251910152565b8185850112156200037c5787516080808201828110868211176200042b578a52819086018481116200037c5786915b8183106200057d5750505081602091608093520193019262000519565b825181526020928301920162000560565b602080916200059d8462000464565b815201910190620004da565b8051600090835b600b8310620006235750505060208181015190600061016085015b60058210620005e5575050505060406103e0910151910152565b82845182906000915b600483106200060c57505050608060019201940191019092620005cb565b8151815286936001909301929182019101620005ee565b81516001600160a01b031681526001929092019160209182019101620005b056fe608080604052600436101561001357600080fd5b600090813560e01c9081630cc2f8d2146110a3575080631423feba1461107e57806323e30c8b146108b25780632ae18104146108775780632b4481ca1461084a578063313c9b8d1461080f5780634707d00014610724578063715018a6146106ca5780637158da7c1461068557806382e9dd9e146106475780638da5cb5b14610620578063a104a32f146105db578063a771445814610596578063c77b66c2146104d2578063cda90b881461048d578063f2fde38b146104075763f5a58663146100dc57600080fd5b3461040457610840366003190112610404576040516080919067ffffffffffffffff838201818111838210176103f0576040526101176110e6565b8252610121611101565b916020808201938452610400938460431936011261038457604051946101468661115d565b36606312156103805760405161015b81611179565b806101a49136831161037c57856044915b8483106103d8575050508752366101c312156103605760405161018e8161112b565b806104249236841161035c57905b83821061038857505084880152356040870152604084019586526104431936011261038457604051916101ce8361115d565b36610463121561038057604051906101e582611179565b816105a49236841161037c5782610444915b858310610364575050508452366105c31215610360576040519061021a8261112b565b816108249336851161035c57905b84821061030857505088995084989697980152356040830152606083019182526102506112e2565b733BbD619EB2DB0d14f724FD6ee333Cc616c490549803b15610304576102b6610884936102aa604051998a978896631abe72a160e31b885260018060a01b0380925116600489015251166024870152516044860190611833565b51610444840190611833565b600261084483015260036108648301525af480156102f9576102d6578280f35b81116102e55760405238808280f35b634e487b7160e01b82526041600452602482fd5b6040513d85823e3d90fd5b8480fd5b36601f8301121561035c5760405161031f81611196565b828d018136821161035857918e9391869386905b82821061034857505050815201910190610228565b8135815288959182019101610333565b8d80fd5b8a80fd5b8780fd5b819061036f84611117565b81520191019083906101f7565b8980fd5b8680fd5b8580fd5b36601f8301121561035c5760405161039f81611196565b828d018136821161035857918e93918a9386905b8282106103c85750505081520191019061019c565b813581528c9591820191016103b3565b81906103e384611117565b815201910190869061016c565b634e487b7160e01b84526041600452602484fd5b80fd5b5034610404576020366003190112610404576104216110e6565b6104296112e2565b6001600160a01b039081169081156104745782546001600160a01b0319811683178455167f8be0079c531659141344cd1fd0a4f28419497f9722a3daafe3b4186f6b6457e08380a380f35b604051631e4fbdf760e01b815260048101849052602490fd5b50346104045780600319360112610404576040517f00000000000000000000000000000000000000000000000000000000000000006001600160a01b03168152602090f35b5034610404576104e136611227565b6040516303d1689d60e11b8152600481019490945293929091906020816024817f00000000000000000000000000000000000000000000000000000000000000006001600160a01b03165afa93841561058a578094610553575b60208561054a8887878461146c565b50604051908152f35b909193506020823d8211610582575b8161056f602093836111b2565b810103126104045750519181602061053b565b3d9150610562565b604051903d90823e3d90fd5b50346104045780600319360112610404576040517f00000000000000000000000000000000000000000000000000000000000000006001600160a01b03168152602090f35b50346104045780600319360112610404576040517f00000000000000000000000000000000000000000000000000000000000000006001600160a01b03168152602090f35b5034610404578060031936011261040457546040516001600160a01b039091168152602090f35b5034610404576020601f6106718261065e36611283565b81604051938285809451938492016112bf565b810160028152030190200154604051908152f35b50346104045780600319360112610404576040517f00000000000000000000000000000000000000000000000000000000000000006001600160a01b03168152602090f35b50346104045780600319360112610404576106e36112e2565b80546001600160a01b03198116825581906001600160a01b03167f8be0079c531659141344cd1fd0a4f28419497f9722a3daafe3b4186f6b6457e08280a380f35b50346104045760403660031901126104045761073e6110e6565b610746611101565b9061074f6112e2565b6040516370a0823160e01b8152306004820152906001600160a01b0316602082602481845afa9182156108045784926107c9575b5060405163a9059cbb60e01b60208201526001600160a01b039390931660248401526044808401929092529082526107c691906107c16064836111b2565b611326565b80f35b9291506020833d82116107fc575b816107e4602093836111b2565b810103126107f857915190916107c1610783565b8380fd5b3d91506107d7565b6040513d86823e3d90fd5b503461040457806003193601126104045760206040517f00000000000000000000000000000000000000000000000000000000000000008152f35b503461040457602060ff6108618261065e36611283565b8101600381520301902054166040519015158152f35b503461040457806003193601126104045760206040517f439148f0bbc682ca079e46d6e2c2f0c1e3b820f1a291b069d8882abf8cf18dd98152f35b50346104045760a0366003190112610404576108cc6110e6565b6108d4611101565b9060843567ffffffffffffffff92838211610304573660238301121561030457816004013592848411610384573660248585010111610384577f00000000000000000000000000000000000000000000000000000000000000006001600160a01b0316330361106c57306001600160a01b039091160361105a576001600160a01b037f000000000000000000000000000000000000000000000000000000000000000081169116036110485761098e9160243692016111f0565b6040519161099b8361112b565b838352836020840152836040840152836060840152606060808401528151820160a0838203126103045760208301516001600160a01b03811681036103845760408401519260608501519260808601519160a08701519081116110445760208201603f82890101121561104457602081880101516020610a1a826111d4565b93610a2860405195866111b2565b82855201604082848b0101011161037c57610a77976040610a4f93602086019201016112bf565b6080870152606086015260408501829052602085018390526001600160a01b03168452611449565b6040516363880e0960e11b81526001600160a01b037f000000000000000000000000000000000000000000000000000000000000000081166004830152602090829060249082907f0000000000000000000000000000000000000000000000000000000000000000165afa908115610804578491611012575b5060405163313ce56760e01b8152906020826004817f00000000000000000000000000000000000000000000000000000000000000006001600160a01b03165afa90811561100757610b50610b5692610b5c948891610f9b575b5061180f565b90611820565b82611820565b6040516363880e0960e11b81526001600160a01b037f000000000000000000000000000000000000000000000000000000000000000081166004830152602090829060249082907f0000000000000000000000000000000000000000000000000000000000000000165afa908115611007578591610fd5575b5060405163313ce56760e01b8152906020826004817f00000000000000000000000000000000000000000000000000000000000000006001600160a01b03165afa918215610fca57610c3192610b50918891610f9b575061180f565b908115610f8757606084015191620f424092830191828411610f735790610c59929104611820565b048015610f36576080830151604051631be9861560e21b81526001600160a01b037f0000000000000000000000000000000000000000000000000000000000000000811660048301527f00000000000000000000000000000000000000000000000000000000000000001660248201526044810193909352606483019190915230608483015261014060a483015260209082908190610cfd90610144830190611424565b7f00000000000000000000000000000000000000000000000000000000000000006001600160a01b031660c4830152600260e483015260036101048301527f00000000000000000000000000000000000000000000000000000000000000006101248301520381733BbD619EB2DB0d14f724FD6ee333Cc616c4905495af480156102f957610f07575b50604081810151905163095ea7b360e01b81527f00000000000000000000000000000000000000000000000000000000000000006001600160a01b03166004820152602481019190915260208180604481010381867f00000000000000000000000000000000000000000000000000000000000000006001600160a01b03165af180156102f957610ed8575b506020818101519151604051636e553f6560e01b815260048101939093526001600160a01b0390811660248401528290604490829086907f0000000000000000000000000000000000000000000000000000000000000000165af18015610ecd57610ea2575b60206040517f439148f0bbc682ca079e46d6e2c2f0c1e3b820f1a291b069d8882abf8cf18dd98152f35b602090813d8311610ec6575b610eb881836111b2565b810103126104045780610e78565b503d610eae565b6040513d84823e3d90fd5b610ef99060203d602011610f00575b610ef181836111b2565b81019061130e565b5038610e12565b503d610ee7565b602090813d8311610f2f575b610f1d81836111b2565b81010312610f2b5738610d86565b5080fd5b503d610f13565b60405162461bcd60e51b81526020600482015260156024820152746d6178496e206973206e6f7420706f73697469766560581b6044820152606490fd5b634e487b7160e01b87526011600452602487fd5b634e487b7160e01b85526012600452602485fd5b610fbd915060203d602011610fc3575b610fb581836111b2565b8101906117f6565b38610b4a565b503d610fab565b6040513d88823e3d90fd5b90506020813d602011610fff575b81610ff0602093836111b2565b81010312610304575138610bd5565b3d9150610fe3565b6040513d87823e3d90fd5b90506020813d60201161103c575b8161102d602093836111b2565b810103126107f8575138610af0565b3d9150611020565b8880fd5b604051638698bf3760e01b8152600490fd5b604051634ac321c360e11b8152600490fd5b604051631e4a393d60e31b8152600490fd5b503461040457602061109b61109236611227565b9291909161146c565b604051908152f35b905034610f2b5781600319360112610f2b577f00000000000000000000000000000000000000000000000000000000000000006001600160a01b03168152602090f35b600435906001600160a01b03821682036110fc57565b600080fd5b602435906001600160a01b03821682036110fc57565b35906001600160a01b03821682036110fc57565b60a0810190811067ffffffffffffffff82111761114757604052565b634e487b7160e01b600052604160045260246000fd5b6060810190811067ffffffffffffffff82111761114757604052565b610160810190811067ffffffffffffffff82111761114757604052565b6080810190811067ffffffffffffffff82111761114757604052565b90601f8019910116810190811067ffffffffffffffff82111761114757604052565b67ffffffffffffffff811161114757601f01601f191660200190565b9291926111fc826111d4565b9161120a60405193846111b2565b8294818452818301116110fc578281602093846000960137010152565b9060806003198301126110fc57600435916024356001600160a01b03811681036110fc5791604435916064359067ffffffffffffffff82116110fc57806023830112156110fc57816024611280936004013591016111f0565b90565b60206003198201126110fc576004359067ffffffffffffffff82116110fc57806023830112156110fc57816024611280936004013591016111f0565b60005b8381106112d25750506000910152565b81810151838201526020016112c2565b6000546001600160a01b031633036112f657565b60405163118cdaa760e01b8152336004820152602490fd5b908160209103126110fc575180151581036110fc5790565b6000806113709260018060a01b03169360208151910182865af13d156113b9573d90611351826111d4565b9161135f60405193846111b2565b82523d6000602084013e5b836113c1565b805190811515918261139e575b50506113865750565b60249060405190635274afe760e01b82526004820152fd5b6113b1925060208091830101910161130e565b15388061137d565b60609061136a565b906113e857508051156113d657805190602001fd5b604051630a12f52160e11b8152600490fd5b8151158061141b575b6113f9575090565b604051639996b31560e01b81526001600160a01b039091166004820152602490fd5b50803b156113f1565b9060209161143d815180928185528580860191016112bf565b601f01601f1916010190565b9190820391821161145657565b634e487b7160e01b600052601160045260246000fd5b919260408051946020946323b872dd60e01b868801526024933385890152306044890152816064890152606488526114a38861112b565b6001600160a01b03976114d8907f00000000000000000000000000000000000000000000000000000000000000008a16611326565b877f000000000000000000000000000000000000000000000000000000000000000016928451926348631af960e01b8452600497818986015289858981895afa9485156117eb57918a93918c8996946000986117aa575b5084926115979695608061158996948b948b519161154c8361112b565b169b8c9b8c8352858b84015282015285606082015201528a519788968701528a8601526060850152608084015260a08084015260c0830190611424565b03601f1981018352826111b2565b877f000000000000000000000000000000000000000000000000000000000000000016977f00000000000000000000000000000000000000000000000000000000000000001684519063613255ab60e01b82528088830152888288818d5afa91821561179f57600092611770575b508551996370a0823160e01b93848c52858a8d01528a8c8a818a5afa9b8c156117655760009c611736575b50908860008b61166d8e96958c5198899788968795632e7ff4ef60e11b875230908701528501526044840152608060648401526084830190611424565b03925af1801561172b5791869189949361170e575b50855194859384928352898301525afa948515611703576000956116d2575b5050848411156116b8575050509061128091611449565b908460449492519363f51cd51560e01b8552840152820152fd5b8181969293963d83116116fc575b6116ea81836111b2565b810103126104045750519238806116a1565b503d6116e0565b82513d6000823e3d90fd5b61172490853d8711610f0057610ef181836111b2565b5038611682565b85513d6000823e3d90fd5b909b8b82813d831161175e575b61174d81836111b2565b810103126104045750519a88611630565b503d611743565b88513d6000823e3d90fd5b90918982813d8311611798575b61178781836111b2565b810103126104045750519038611605565b503d61177d565b86513d6000823e3d90fd5b9395809298939597508491503d83116117e4575b6117c881836111b2565b810103126104045750519386938a93909290918c61159761152f565b503d6117be565b87513d6000823e3d90fd5b908160209103126110fc575160ff811681036110fc5790565b60ff16604d811161145657600a0a90565b8181029291811591840414171561145657565b8051600090835b600b83106118a85750505060208181015190600061016085015b6005821061186d575050505060406103e0910151910152565b82845182906000915b6004831061189257505050608060019201940191019092611854565b8151815286936001909301929182019101611876565b81516001600160a01b03168152600192909201916020918201910161183a56fea2646970667358221220088f29702bb02b4990fd023fe17f27aad98be19e6131c3bdf91853d589e6690c64736f6c63430008140033",
  "deployedBytecode": "0x608080604052600436101561001357600080fd5b600090813560e01c9081630cc2f8d2146110a3575080631423feba1461107e57806323e30c8b146108b25780632ae18104146108775780632b4481ca1461084a578063313c9b8d1461080f5780634707d00014610724578063715018a6146106ca5780637158da7c1461068557806382e9dd9e146106475780638da5cb5b14610620578063a104a32f146105db578063a771445814610596578063c77b66c2146104d2578063cda90b881461048d578063f2fde38b146104075763f5a58663146100dc57600080fd5b3461040457610840366003190112610404576040516080919067ffffffffffffffff838201818111838210176103f0576040526101176110e6565b8252610121611101565b916020808201938452610400938460431936011261038457604051946101468661115d565b36606312156103805760405161015b81611179565b806101a49136831161037c57856044915b8483106103d8575050508752366101c312156103605760405161018e8161112b565b806104249236841161035c57905b83821061038857505084880152356040870152604084019586526104431936011261038457604051916101ce8361115d565b36610463121561038057604051906101e582611179565b816105a49236841161037c5782610444915b858310610364575050508452366105c31215610360576040519061021a8261112b565b816108249336851161035c57905b84821061030857505088995084989697980152356040830152606083019182526102506112e2565b73__$f28b1f6ff12e759e9f5435a81d18aeeda6$__803b15610304576102b6610884936102aa604051998a978896631abe72a160e31b885260018060a01b0380925116600489015251166024870152516044860190611833565b51610444840190611833565b600261084483015260036108648301525af480156102f9576102d6578280f35b81116102e55760405238808280f35b634e487b7160e01b82526041600452602482fd5b6040513d85823e3d90fd5b8480fd5b36601f8301121561035c5760405161031f81611196565b828d018136821161035857918e9391869386905b82821061034857505050815201910190610228565b8135815288959182019101610333565b8d80fd5b8a80fd5b8780fd5b819061036f84611117565b81520191019083906101f7565b8980fd5b8680fd5b8580fd5b36601f8301121561035c5760405161039f81611196565b828d018136821161035857918e93918a9386905b8282106103c85750505081520191019061019c565b813581528c9591820191016103b3565b81906103e384611117565b815201910190869061016c565b634e487b7160e01b84526041600452602484fd5b80fd5b5034610404576020366003190112610404576104216110e6565b6104296112e2565b6001600160a01b039081169081156104745782546001600160a01b0319811683178455167f8be0079c531659141344cd1fd0a4f28419497f9722a3daafe3b4186f6b6457e08380a380f35b604051631e4fbdf760e01b815260048101849052602490fd5b50346104045780600319360112610404576040517f00000000000000000000000000000000000000000000000000000000000000006001600160a01b03168152602090f35b5034610404576104e136611227565b6040516303d1689d60e11b8152600481019490945293929091906020816024817f00000000000000000000000000000000000000000000000000000000000000006001600160a01b03165afa93841561058a578094610553575b60208561054a8887878461146c565b50604051908152f35b909193506020823d8211610582575b8161056f602093836111b2565b810103126104045750519181602061053b565b3d9150610562565b604051903d90823e3d90fd5b50346104045780600319360112610404576040517f00000000000000000000000000000000000000000000000000000000000000006001600160a01b03168152602090f35b50346104045780600319360112610404576040517f00000000000000000000000000000000000000000000000000000000000000006001600160a01b03168152602090f35b5034610404578060031936011261040457546040516001600160a01b039091168152602090f35b5034610404576020601f6106718261065e36611283565b81604051938285809451938492016112bf565b810160028152030190200154604051908152f35b50346104045780600319360112610404576040517f00000000000000000000000000000000000000000000000000000000000000006001600160a01b03168152602090f35b50346104045780600319360112610404576106e36112e2565b80546001600160a01b03198116825581906001600160a01b03167f8be0079c531659141344cd1fd0a4f28419497f9722a3daafe3b4186f6b6457e08280a380f35b50346104045760403660031901126104045761073e6110e6565b610746611101565b9061074f6112e2565b6040516370a0823160e01b8152306004820152906001600160a01b0316602082602481845afa9182156108045784926107c9575b5060405163a9059cbb60e01b60208201526001600160a01b039390931660248401526044808401929092529082526107c691906107c16064836111b2565b611326565b80f35b9291506020833d82116107fc575b816107e4602093836111b2565b810103126107f857915190916107c1610783565b8380fd5b3d91506107d7565b6040513d86823e3d90fd5b503461040457806003193601126104045760206040517f00000000000000000000000000000000000000000000000000000000000000008152f35b503461040457602060ff6108618261065e36611283565b8101600381520301902054166040519015158152f35b503461040457806003193601126104045760206040517f439148f0bbc682ca079e46d6e2c2f0c1e3b820f1a291b069d8882abf8cf18dd98152f35b50346104045760a0366003190112610404576108cc6110e6565b6108d4611101565b9060843567ffffffffffffffff92838211610304573660238301121561030457816004013592848411610384573660248585010111610384577f00000000000000000000000000000000000000000000000000000000000000006001600160a01b0316330361106c57306001600160a01b039091160361105a576001600160a01b037f000000000000000000000000000000000000000000000000000000000000000081169116036110485761098e9160243692016111f0565b6040519161099b8361112b565b838352836020840152836040840152836060840152606060808401528151820160a0838203126103045760208301516001600160a01b03811681036103845760408401519260608501519260808601519160a08701519081116110445760208201603f82890101121561104457602081880101516020610a1a826111d4565b93610a2860405195866111b2565b82855201604082848b0101011161037c57610a77976040610a4f93602086019201016112bf565b6080870152606086015260408501829052602085018390526001600160a01b03168452611449565b6040516363880e0960e11b81526001600160a01b037f000000000000000000000000000000000000000000000000000000000000000081166004830152602090829060249082907f0000000000000000000000000000000000000000000000000000000000000000165afa908115610804578491611012575b5060405163313ce56760e01b8152906020826004817f00000000000000000000000000000000000000000000000000000000000000006001600160a01b03165afa90811561100757610b50610b5692610b5c948891610f9b575b5061180f565b90611820565b82611820565b6040516363880e0960e11b81526001600160a01b037f000000000000000000000000000000000000000000000000000000000000000081166004830152602090829060249082907f0000000000000000000000000000000000000000000000000000000000000000165afa908115611007578591610fd5575b5060405163313ce56760e01b8152906020826004817f00000000000000000000000000000000000000000000000000000000000000006001600160a01b03165afa918215610fca57610c3192610b50918891610f9b575061180f565b908115610f8757606084015191620f424092830191828411610f735790610c59929104611820565b048015610f36576080830151604051631be9861560e21b81526001600160a01b037f0000000000000000000000000000000000000000000000000000000000000000811660048301527f00000000000000000000000000000000000000000000000000000000000000001660248201526044810193909352606483019190915230608483015261014060a483015260209082908190610cfd90610144830190611424565b7f00000000000000000000000000000000000000000000000000000000000000006001600160a01b031660c4830152600260e483015260036101048301527f0000000000000000000000000000000000000000000000000000000000000000610124830152038173__$f28b1f6ff12e759e9f5435a81d18aeeda6$__5af480156102f957610f07575b50604081810151905163095ea7b360e01b81527f00000000000000000000000000000000000000000000000000000000000000006001600160a01b03166004820152602481019190915260208180604481010381867f00000000000000000000000000000000000000000000000000000000000000006001600160a01b03165af180156102f957610ed8575b506020818101519151604051636e553f6560e01b815260048101939093526001600160a01b0390811660248401528290604490829086907f0000000000000000000000000000000000000000000000000000000000000000165af18015610ecd57610ea2575b60206040517f439148f0bbc682ca079e46d6e2c2f0c1e3b820f1a291b069d8882abf8cf18dd98152f35b602090813d8311610ec6575b610eb881836111b2565b810103126104045780610e78565b503d610eae565b6040513d84823e3d90fd5b610ef99060203d602011610f00575b610ef181836111b2565b81019061130e565b5038610e12565b503d610ee7565b602090813d8311610f2f575b610f1d81836111b2565b81010312610f2b5738610d86565b5080fd5b503d610f13565b60405162461bcd60e51b81526020600482015260156024820152746d6178496e206973206e6f7420706f73697469766560581b6044820152606490fd5b634e487b7160e01b87526011600452602487fd5b634e487b7160e01b85526012600452602485fd5b610fbd915060203d602011610fc3575b610fb581836111b2565b8101906117f6565b38610b4a565b503d610fab565b6040513d88823e3d90fd5b90506020813d602011610fff575b81610ff0602093836111b2565b81010312610304575138610bd5565b3d9150610fe3565b6040513d87823e3d90fd5b90506020813d60201161103c575b8161102d602093836111b2565b810103126107f8575138610af0565b3d9150611020565b8880fd5b604051638698bf3760e01b8152600490fd5b604051634ac321c360e11b8152600490fd5b604051631e4a393d60e31b8152600490fd5b503461040457602061109b61109236611227565b9291909161146c565b604051908152f35b905034610f2b5781600319360112610f2b577f00000000000000000000000000000000000000000000000000000000000000006001600160a01b03168152602090f35b600435906001600160a01b03821682036110fc57565b600080fd5b602435906001600160a01b03821682036110fc57565b35906001600160a01b03821682036110fc57565b60a0810190811067ffffffffffffffff82111761114757604052565b634e487b7160e01b600052604160045260246000fd5b6060810190811067ffffffffffffffff82111761114757604052565b610160810190811067ffffffffffffffff82111761114757604052565b6080810190811067ffffffffffffffff82111761114757604052565b90601f8019910116810190811067ffffffffffffffff82111761114757604052565b67ffffffffffffffff811161114757601f01601f191660200190565b9291926111fc826111d4565b9161120a60405193846111b2565b8294818452818301116110fc578281602093846000960137010152565b9060806003198301126110fc57600435916024356001600160a01b03811681036110fc5791604435916064359067ffffffffffffffff82116110fc57806023830112156110fc57816024611280936004013591016111f0565b90565b60206003198201126110fc576004359067ffffffffffffffff82116110fc57806023830112156110fc57816024611280936004013591016111f0565b60005b8381106112d25750506000910152565b81810151838201526020016112c2565b6000546001600160a01b031633036112f657565b60405163118cdaa760e01b8152336004820152602490fd5b908160209103126110fc575180151581036110fc5790565b6000806113709260018060a01b03169360208151910182865af13d156113b9573d90611351826111d4565b9161135f60405193846111b2565b82523d6000602084013e5b836113c1565b805190811515918261139e575b50506113865750565b60249060405190635274afe760e01b82526004820152fd5b6113b1925060208091830101910161130e565b15388061137d565b60609061136a565b906113e857508051156113d657805190602001fd5b604051630a12f52160e11b8152600490fd5b8151158061141b575b6113f9575090565b604051639996b31560e01b81526001600160a01b039091166004820152602490fd5b50803b156113f1565b9060209161143d815180928185528580860191016112bf565b601f01601f1916010190565b9190820391821161145657565b634e487b7160e01b600052601160045260246000fd5b919260408051946020946323b872dd60e01b868801526024933385890152306044890152816064890152606488526114a38861112b565b6001600160a01b03976114d8907f00000000000000000000000000000000000000000000000000000000000000008a16611326565b877f000000000000000000000000000000000000000000000000000000000000000016928451926348631af960e01b8452600497818986015289858981895afa9485156117eb57918a93918c8996946000986117aa575b5084926115979695608061158996948b948b519161154c8361112b565b169b8c9b8c8352858b84015282015285606082015201528a519788968701528a8601526060850152608084015260a08084015260c0830190611424565b03601f1981018352826111b2565b877f000000000000000000000000000000000000000000000000000000000000000016977f00000000000000000000000000000000000000000000000000000000000000001684519063613255ab60e01b82528088830152888288818d5afa91821561179f57600092611770575b508551996370a0823160e01b93848c52858a8d01528a8c8a818a5afa9b8c156117655760009c611736575b50908860008b61166d8e96958c5198899788968795632e7ff4ef60e11b875230908701528501526044840152608060648401526084830190611424565b03925af1801561172b5791869189949361170e575b50855194859384928352898301525afa948515611703576000956116d2575b5050848411156116b8575050509061128091611449565b908460449492519363f51cd51560e01b8552840152820152fd5b8181969293963d83116116fc575b6116ea81836111b2565b810103126104045750519238806116a1565b503d6116e0565b82513d6000823e3d90fd5b61172490853d8711610f0057610ef181836111b2565b5038611682565b85513d6000823e3d90fd5b909b8b82813d831161175e575b61174d81836111b2565b810103126104045750519a88611630565b503d611743565b88513d6000823e3d90fd5b90918982813d8311611798575b61178781836111b2565b810103126104045750519038611605565b503d61177d565b86513d6000823e3d90fd5b9395809298939597508491503d83116117e4575b6117c881836111b2565b810103126104045750519386938a93909290918c61159761152f565b503d6117be565b87513d6000823e3d90fd5b908160209103126110fc575160ff811681036110fc5790565b60ff16604d811161145657600a0a90565b8181029291811591840414171561145657565b8051600090835b600b83106118a85750505060208181015190600061016085015b6005821061186d575050505060406103e0910151910152565b82845182906000915b6004831061189257505050608060019201940191019092611854565b8151815286936001909301929182019101611876565b81516001600160a01b03168152600192909201916020918201910161183a56fea2646970667358221220088f29702bb02b4990fd023fe17f27aad98be19e6131c3bdf91853d589e6690c64736f6c63430008140033",
  "libraries": {
    "CurveSwapLogic": "0x3BbD619EB2DB0d14f724FD6ee333Cc616c490549"
  },
  "devdoc": {
    "details": "Implementation of DLoopDepositorBase with Curve swap functionality",
    "errors": {
      "AddressEmptyCode(address)": [
        {
          "details": "There's no code at `target` (it is not a contract)."
        }
      ],
      "AddressInsufficientBalance(address)": [
        {
          "details": "The ETH balance of the account is not enough to perform the operation."
        }
      ],
      "FailedInnerCall()": [
        {
          "details": "A call to an address target failed. The target may have reverted."
        }
      ],
      "OwnableInvalidOwner(address)": [
        {
          "details": "The owner is not a valid owner account. (eg. `address(0)`)"
        }
      ],
      "OwnableUnauthorizedAccount(address)": [
        {
          "details": "The caller account is not authorized to perform an operation."
        }
      ],
      "SafeERC20FailedOperation(address)": [
        {
          "details": "An operation with an ERC20 token failed."
        }
      ]
    },
    "kind": "dev",
    "methods": {
      "constructor": {
        "details": "Constructor for the DLoopDepositorCurve contract",
        "params": {
          "_curveRouter": "Address of the Curve router",
          "_dLoopCore": "Address of the dLoopCore contract",
          "_dStable": "Address of the dStable token",
          "_defaultSwapParamsList": "List of default swap parameters",
          "_flashLender": "Address of the flash loan provider",
          "_maxSlippageSurplusSwapBps": "Maximum slippage for surplus swap in basis points",
          "_swapSlippageTolerance": "Swap slippage tolerance in basis points",
          "_underlyingAsset": "Address of the underlying asset"
        }
      },
      "deposit(uint256,address,uint256,bytes)": {
        "details": "Deposits assets into the core vault",
        "params": {
          "assets": "Amount of assets to deposit",
          "dStableToUnderlyingSwapData": "Swap data from dStable to underlying asset",
          "receiver": "Address to receive the minted shares",
          "slippageTolerance": "Slippage tolerance for the swap"
        },
        "returns": {
          "shares": "Amount of shares minted"
        }
      },
      "mint(uint256,address,uint256,bytes)": {
        "details": "Mints shares to the receiver by depositing assets to the core vault",
        "params": {
          "dStableToUnderlyingSwapData": "Swap data from dStable to underlying asset",
          "receiver": "Address to receive the minted shares",
          "shares": "Amount of shares to mint",
          "slippageTolerance": "Slippage tolerance for the swap"
        },
        "returns": {
          "assets": "Amount of assets deposited"
        }
      },
      "onFlashLoan(address,address,uint256,uint256,bytes)": {
        "details": "Callback function for flash loans",
        "params": {
          "data": "Additional data passed to the flash loan",
          "initiator": "Address that initiated the flash loan",
          "token": "Address of the flash-borrowed token"
        },
        "returns": {
          "_0": "bytes32 The flash loan callback success bytes"
        }
      },
      "owner()": {
        "details": "Returns the address of the current owner."
      },
      "renounceOwnership()": {
        "details": "Leaves the contract without owner. It will not be possible to call `onlyOwner` functions. Can only be called by the current owner. NOTE: Renouncing ownership will leave the contract without an owner, thereby disabling any functionality that is only available to the owner."
      },
      "rescueToken(address,address)": {
        "details": "Rescues tokens accidentally sent to the contract",
        "params": {
          "receiver": "Address to receive the rescued tokens",
          "token": "Address of the token to rescue"
        }
      },
      "setSwapExtraParams((address,address,(address[11],uint256[4][5],uint256),(address[11],uint256[4][5],uint256)))": {
        "details": "Sets the swap extra params for a given input and output token",
        "params": {
          "_swapExtraParamsConfig": "The swap extra params config"
        }
      },
      "transferOwnership(address)": {
        "details": "Transfers ownership of the contract to a new account (`newOwner`). Can only be called by the current owner."
      }
    },
    "title": "DLoopDepositorCurve",
    "version": 1
  },
  "userdoc": {
    "kind": "user",
    "methods": {},
    "version": 1
  },
  "storageLayout": {
    "storage": [
      {
        "astId": 8,
        "contract": "contracts/vault/dLOOP/periphery/venue/curve/DLoopDepositorCurve.sol:DLoopDepositorCurve",
        "label": "_owner",
        "offset": 0,
        "slot": "0",
        "type": "t_address"
      },
      {
        "astId": 6615,
        "contract": "contracts/vault/dLOOP/periphery/venue/curve/DLoopDepositorCurve.sol:DLoopDepositorCurve",
        "label": "_defaultSwapSlippageTolerance",
        "offset": 0,
        "slot": "1",
        "type": "t_uint256"
      },
      {
        "astId": 8336,
        "contract": "contracts/vault/dLOOP/periphery/venue/curve/DLoopDepositorCurve.sol:DLoopDepositorCurve",
        "label": "defaultSwapParams",
        "offset": 0,
        "slot": "2",
        "type": "t_mapping(t_string_memory_ptr,t_struct(CurveSwapExtraParams)4236_storage)"
      },
      {
        "astId": 8340,
        "contract": "contracts/vault/dLOOP/periphery/venue/curve/DLoopDepositorCurve.sol:DLoopDepositorCurve",
        "label": "isSwapParamsSet",
        "offset": 0,
        "slot": "3",
        "type": "t_mapping(t_string_memory_ptr,t_bool)"
      }
    ],
    "types": {
      "t_address": {
        "encoding": "inplace",
        "label": "address",
        "numberOfBytes": "20"
      },
      "t_array(t_address)11_storage": {
        "base": "t_address",
        "encoding": "inplace",
        "label": "address[11]",
        "numberOfBytes": "352"
      },
      "t_array(t_array(t_uint256)4_storage)5_storage": {
        "base": "t_array(t_uint256)4_storage",
        "encoding": "inplace",
        "label": "uint256[4][5]",
        "numberOfBytes": "640"
      },
      "t_array(t_uint256)4_storage": {
        "base": "t_uint256",
        "encoding": "inplace",
        "label": "uint256[4]",
        "numberOfBytes": "128"
      },
      "t_bool": {
        "encoding": "inplace",
        "label": "bool",
        "numberOfBytes": "1"
      },
      "t_mapping(t_string_memory_ptr,t_bool)": {
        "encoding": "mapping",
        "key": "t_string_memory_ptr",
        "label": "mapping(string => bool)",
        "numberOfBytes": "32",
        "value": "t_bool"
      },
      "t_mapping(t_string_memory_ptr,t_struct(CurveSwapExtraParams)4236_storage)": {
        "encoding": "mapping",
        "key": "t_string_memory_ptr",
        "label": "mapping(string => struct CurveHelper.CurveSwapExtraParams)",
        "numberOfBytes": "32",
        "value": "t_struct(CurveSwapExtraParams)4236_storage"
      },
      "t_string_memory_ptr": {
        "encoding": "bytes",
        "label": "string",
        "numberOfBytes": "32"
      },
      "t_struct(CurveSwapExtraParams)4236_storage": {
        "encoding": "inplace",
        "label": "struct CurveHelper.CurveSwapExtraParams",
        "members": [
          {
            "astId": 4227,
            "contract": "contracts/vault/dLOOP/periphery/venue/curve/DLoopDepositorCurve.sol:DLoopDepositorCurve",
            "label": "route",
            "offset": 0,
            "slot": "0",
            "type": "t_array(t_address)11_storage"
          },
          {
            "astId": 4233,
            "contract": "contracts/vault/dLOOP/periphery/venue/curve/DLoopDepositorCurve.sol:DLoopDepositorCurve",
            "label": "swapParams",
            "offset": 0,
            "slot": "11",
            "type": "t_array(t_array(t_uint256)4_storage)5_storage"
          },
          {
            "astId": 4235,
            "contract": "contracts/vault/dLOOP/periphery/venue/curve/DLoopDepositorCurve.sol:DLoopDepositorCurve",
            "label": "swapSlippageBufferBps",
            "offset": 0,
            "slot": "31",
            "type": "t_uint256"
          }
        ],
        "numberOfBytes": "1024"
      },
      "t_uint256": {
        "encoding": "inplace",
        "label": "uint256",
        "numberOfBytes": "32"
      }
    }
  }
}