{
  "address": "0x308dE2Fee4369D4A3FD99B6ad8A339aC85C94D74",
  "abi": [
    {
      "inputs": [
        {
          "internalType": "contract ERC20",
          "name": "_underlyingAsset",
          "type": "address"
        },
        {
          "internalType": "contract ERC20",
          "name": "_dStable",
          "type": "address"
        },
        {
          "internalType": "contract IERC3156FlashLender",
          "name": "_flashLender",
          "type": "address"
        },
        {
          "internalType": "contract DLoopCoreBase",
          "name": "_dLoopCore",
          "type": "address"
        },
        {
          "internalType": "contract ICurveRouterNgPoolsOnlyV1",
          "name": "_curveRouter",
          "type": "address"
        },
        {
          "internalType": "uint256",
          "name": "_swapSlippageTolerance",
          "type": "uint256"
        },
        {
          "internalType": "uint256",
          "name": "_maxSlippageSurplusSwapBps",
          "type": "uint256"
        },
        {
          "components": [
            {
              "internalType": "address",
              "name": "inputToken",
              "type": "address"
            },
            {
              "internalType": "address",
              "name": "outputToken",
              "type": "address"
            },
            {
              "components": [
                {
                  "internalType": "address[11]",
                  "name": "route",
                  "type": "address[11]"
                },
                {
                  "internalType": "uint256[4][5]",
                  "name": "swapParams",
                  "type": "uint256[4][5]"
                },
                {
                  "internalType": "uint256",
                  "name": "swapSlippageBufferBps",
                  "type": "uint256"
                }
              ],
              "internalType": "struct CurveHelper.CurveSwapExtraParams",
              "name": "swapExtraParams",
              "type": "tuple"
            },
            {
              "components": [
                {
                  "internalType": "address[11]",
                  "name": "route",
                  "type": "address[11]"
                },
                {
                  "internalType": "uint256[4][5]",
                  "name": "swapParams",
                  "type": "uint256[4][5]"
                },
                {
                  "internalType": "uint256",
                  "name": "swapSlippageBufferBps",
                  "type": "uint256"
                }
              ],
              "internalType": "struct CurveHelper.CurveSwapExtraParams",
              "name": "reverseSwapExtraParams",
              "type": "tuple"
            }
          ],
          "internalType": "struct CurveSwapLogic.CurveSwapExtraParamsDefaultConfig[]",
          "name": "_defaultSwapParamsList",
          "type": "tuple[]"
        }
      ],
      "stateMutability": "nonpayable",
      "type": "constructor"
    },
    {
      "inputs": [
        {
          "internalType": "address",
          "name": "target",
          "type": "address"
        }
      ],
      "name": "AddressEmptyCode",
      "type": "error"
    },
    {
      "inputs": [
        {
          "internalType": "address",
          "name": "account",
          "type": "address"
        }
      ],
      "name": "AddressInsufficientBalance",
      "type": "error"
    },
    {
      "inputs": [],
      "name": "FailedInnerCall",
      "type": "error"
    },
    {
      "inputs": [
        {
          "internalType": "uint256",
          "name": "received",
          "type": "uint256"
        },
        {
          "internalType": "uint256",
          "name": "expected",
          "type": "uint256"
        }
      ],
      "name": "InsufficientOutput",
      "type": "error"
    },
    {
      "inputs": [
        {
          "internalType": "address",
          "name": "owner",
          "type": "address"
        }
      ],
      "name": "OwnableInvalidOwner",
      "type": "error"
    },
    {
      "inputs": [
        {
          "internalType": "address",
          "name": "account",
          "type": "address"
        }
      ],
      "name": "OwnableUnauthorizedAccount",
      "type": "error"
    },
    {
      "inputs": [
        {
          "internalType": "address",
          "name": "token",
          "type": "address"
        }
      ],
      "name": "SafeERC20FailedOperation",
      "type": "error"
    },
    {
      "inputs": [
        {
          "internalType": "uint256",
          "name": "sharesBeforeWithdraw",
          "type": "uint256"
        },
        {
          "internalType": "uint256",
          "name": "sharesAfterWithdraw",
          "type": "uint256"
        }
      ],
      "name": "SharesNotDecreasedAfterFlashLoan",
      "type": "error"
    },
    {
      "inputs": [
        {
          "internalType": "uint256",
          "name": "underlyingAssetBalanceBefore",
          "type": "uint256"
        },
        {
          "internalType": "uint256",
          "name": "underlyingAssetBalanceAfter",
          "type": "uint256"
        }
      ],
      "name": "UnexpectedDecreaseInUnderlyingAsset",
      "type": "error"
    },
    {
      "inputs": [
        {
          "internalType": "uint256",
          "name": "dStableBalanceBefore",
          "type": "uint256"
        },
        {
          "internalType": "uint256",
          "name": "dStableBalanceAfter",
          "type": "uint256"
        }
      ],
      "name": "UnexpectedIncreaseInDStable",
      "type": "error"
    },
    {
      "inputs": [],
      "name": "UnknownInitiator",
      "type": "error"
    },
    {
      "inputs": [],
      "name": "UnknownLender",
      "type": "error"
    },
    {
      "inputs": [],
      "name": "UnknownToken",
      "type": "error"
    },
    {
      "anonymous": false,
      "inputs": [
        {
          "indexed": true,
          "internalType": "address",
          "name": "previousOwner",
          "type": "address"
        },
        {
          "indexed": true,
          "internalType": "address",
          "name": "newOwner",
          "type": "address"
        }
      ],
      "name": "OwnershipTransferred",
      "type": "event"
    },
    {
      "inputs": [],
      "name": "FLASHLOAN_CALLBACK",
      "outputs": [
        {
          "internalType": "bytes32",
          "name": "",
          "type": "bytes32"
        }
      ],
      "stateMutability": "view",
      "type": "function"
    },
    {
      "inputs": [],
      "name": "TARGET_LEVERAGE_BPS",
      "outputs": [
        {
          "internalType": "uint32",
          "name": "",
          "type": "uint32"
        }
      ],
      "stateMutability": "view",
      "type": "function"
    },
    {
      "inputs": [],
      "name": "curveRouter",
      "outputs": [
        {
          "internalType": "contract ICurveRouterNgPoolsOnlyV1",
          "name": "",
          "type": "address"
        }
      ],
      "stateMutability": "view",
      "type": "function"
    },
    {
      "inputs": [],
      "name": "dLoopCore",
      "outputs": [
        {
          "internalType": "contract DLoopCoreBase",
          "name": "",
          "type": "address"
        }
      ],
      "stateMutability": "view",
      "type": "function"
    },
    {
      "inputs": [],
      "name": "dStable",
      "outputs": [
        {
          "internalType": "contract ERC20",
          "name": "",
          "type": "address"
        }
      ],
      "stateMutability": "view",
      "type": "function"
    },
    {
      "inputs": [
        {
          "internalType": "string",
          "name": "",
          "type": "string"
        }
      ],
      "name": "defaultSwapParams",
      "outputs": [
        {
          "internalType": "uint256",
          "name": "swapSlippageBufferBps",
          "type": "uint256"
        }
      ],
      "stateMutability": "view",
      "type": "function"
    },
    {
      "inputs": [],
      "name": "flashLender",
      "outputs": [
        {
          "internalType": "contract IERC3156FlashLender",
          "name": "",
          "type": "address"
        }
      ],
      "stateMutability": "view",
      "type": "function"
    },
    {
      "inputs": [
        {
          "internalType": "string",
          "name": "",
          "type": "string"
        }
      ],
      "name": "isSwapParamsSet",
      "outputs": [
        {
          "internalType": "bool",
          "name": "",
          "type": "bool"
        }
      ],
      "stateMutability": "view",
      "type": "function"
    },
    {
      "inputs": [],
      "name": "maxSlippageSurplusSwapBps",
      "outputs": [
        {
          "internalType": "uint256",
          "name": "",
          "type": "uint256"
        }
      ],
      "stateMutability": "view",
      "type": "function"
    },
    {
      "inputs": [
        {
          "internalType": "address",
          "name": "initiator",
          "type": "address"
        },
        {
          "internalType": "address",
          "name": "token",
          "type": "address"
        },
        {
          "internalType": "uint256",
          "name": "",
          "type": "uint256"
        },
        {
          "internalType": "uint256",
          "name": "",
          "type": "uint256"
        },
        {
          "internalType": "bytes",
          "name": "data",
          "type": "bytes"
        }
      ],
      "name": "onFlashLoan",
      "outputs": [
        {
          "internalType": "bytes32",
          "name": "",
          "type": "bytes32"
        }
      ],
      "stateMutability": "nonpayable",
      "type": "function"
    },
    {
      "inputs": [],
      "name": "owner",
      "outputs": [
        {
          "internalType": "address",
          "name": "",
          "type": "address"
        }
      ],
      "stateMutability": "view",
      "type": "function"
    },
    {
      "inputs": [
        {
          "internalType": "uint256",
          "name": "shares",
          "type": "uint256"
        },
        {
          "internalType": "address",
          "name": "receiver",
          "type": "address"
        },
        {
          "internalType": "address",
          "name": "owner",
          "type": "address"
        },
        {
          "internalType": "uint256",
          "name": "slippageTolerance",
          "type": "uint256"
        },
        {
          "internalType": "uint256",
          "name": "minReceiveAmount",
          "type": "uint256"
        },
        {
          "internalType": "bytes",
          "name": "underlyingToDStableSwapData",
          "type": "bytes"
        }
      ],
      "name": "redeem",
      "outputs": [
        {
          "internalType": "uint256",
          "name": "assets",
          "type": "uint256"
        }
      ],
      "stateMutability": "nonpayable",
      "type": "function"
    },
    {
      "inputs": [],
      "name": "renounceOwnership",
      "outputs": [],
      "stateMutability": "nonpayable",
      "type": "function"
    },
    {
      "inputs": [
        {
          "internalType": "address",
          "name": "token",
          "type": "address"
        },
        {
          "internalType": "address",
          "name": "receiver",
          "type": "address"
        }
      ],
      "name": "rescueToken",
      "outputs": [],
      "stateMutability": "nonpayable",
      "type": "function"
    },
    {
      "inputs": [
        {
          "components": [
            {
              "internalType": "address",
              "name": "inputToken",
              "type": "address"
            },
            {
              "internalType": "address",
              "name": "outputToken",
              "type": "address"
            },
            {
              "components": [
                {
                  "internalType": "address[11]",
                  "name": "route",
                  "type": "address[11]"
                },
                {
                  "internalType": "uint256[4][5]",
                  "name": "swapParams",
                  "type": "uint256[4][5]"
                },
                {
                  "internalType": "uint256",
                  "name": "swapSlippageBufferBps",
                  "type": "uint256"
                }
              ],
              "internalType": "struct CurveHelper.CurveSwapExtraParams",
              "name": "swapExtraParams",
              "type": "tuple"
            },
            {
              "components": [
                {
                  "internalType": "address[11]",
                  "name": "route",
                  "type": "address[11]"
                },
                {
                  "internalType": "uint256[4][5]",
                  "name": "swapParams",
                  "type": "uint256[4][5]"
                },
                {
                  "internalType": "uint256",
                  "name": "swapSlippageBufferBps",
                  "type": "uint256"
                }
              ],
              "internalType": "struct CurveHelper.CurveSwapExtraParams",
              "name": "reverseSwapExtraParams",
              "type": "tuple"
            }
          ],
          "internalType": "struct CurveSwapLogic.CurveSwapExtraParamsDefaultConfig",
          "name": "_swapExtraParamsConfig",
          "type": "tuple"
        }
      ],
      "name": "setSwapExtraParams",
      "outputs": [],
      "stateMutability": "nonpayable",
      "type": "function"
    },
    {
      "inputs": [
        {
          "internalType": "address",
          "name": "newOwner",
          "type": "address"
        }
      ],
      "name": "transferOwnership",
      "outputs": [],
      "stateMutability": "nonpayable",
      "type": "function"
    },
    {
      "inputs": [],
      "name": "underlyingAsset",
      "outputs": [
        {
          "internalType": "contract ERC20",
          "name": "",
          "type": "address"
        }
      ],
      "stateMutability": "view",
      "type": "function"
    },
    {
      "inputs": [
        {
          "internalType": "uint256",
          "name": "assets",
          "type": "uint256"
        },
        {
          "internalType": "address",
          "name": "receiver",
          "type": "address"
        },
        {
          "internalType": "address",
          "name": "owner",
          "type": "address"
        },
        {
          "internalType": "uint256",
          "name": "slippageTolerance",
          "type": "uint256"
        },
        {
          "internalType": "uint256",
          "name": "minReceiveAmount",
          "type": "uint256"
        },
        {
          "internalType": "bytes",
          "name": "underlyingToDStableSwapData",
          "type": "bytes"
        }
      ],
      "name": "withdraw",
      "outputs": [
        {
          "internalType": "uint256",
          "name": "shares",
          "type": "uint256"
        }
      ],
      "stateMutability": "nonpayable",
      "type": "function"
    }
  ],
  "transactionHash": "0x5cdb64247c8ecc2af5d7aef95fc632fb23651aaa08a91b802d6716b4f3948a1c",
  "args": [
    "0x0Dbf64462FEC588df32FC5C9941421F7d93e0Fb3",
    "0x4D6E79013212F10A026A1FB0b926C9Fd0432b96c",
    "0x4D6E79013212F10A026A1FB0b926C9Fd0432b96c",
    "0x64474f3447911DcA644E62A8EED3c422C5B7eFef",
    "0xF66c3Ef85BceafaEcE9171E25Eee2972b10e1958",
    200000,
    200000,
    [
      {
        "inputToken": "0x4D6E79013212F10A026A1FB0b926C9Fd0432b96c",
        "outputToken": "0x0Dbf64462FEC588df32FC5C9941421F7d93e0Fb3",
        "swapExtraParams": {
          "route": [
            "0x4D6E79013212F10A026A1FB0b926C9Fd0432b96c",
            "0x93f785642837e082ff95bB69E64e5B6967857c74",
            "0x2CAb811d351B4eF492D8C197E09939F1C9f54330",
            "0x6a7173EA306983f3721Cc9A3c6EA7f0a3a2f3c13",
            "0x0Dbf64462FEC588df32FC5C9941421F7d93e0Fb3",
            "0x0000000000000000000000000000000000000000",
            "0x0000000000000000000000000000000000000000",
            "0x0000000000000000000000000000000000000000",
            "0x0000000000000000000000000000000000000000",
            "0x0000000000000000000000000000000000000000",
            "0x0000000000000000000000000000000000000000"
          ],
          "swapParams": [
            [
              0,
              1,
              1,
              2
            ],
            [
              0,
              1,
              1,
              2
            ],
            [
              0,
              0,
              0,
              0
            ],
            [
              0,
              0,
              0,
              0
            ],
            [
              0,
              0,
              0,
              0
            ]
          ],
          "swapSlippageBufferBps": 500000
        },
        "reverseSwapExtraParams": {
          "route": [
            "0x0Dbf64462FEC588df32FC5C9941421F7d93e0Fb3",
            "0x6a7173EA306983f3721Cc9A3c6EA7f0a3a2f3c13",
            "0x2CAb811d351B4eF492D8C197E09939F1C9f54330",
            "0x93f785642837e082ff95bB69E64e5B6967857c74",
            "0x4D6E79013212F10A026A1FB0b926C9Fd0432b96c",
            "0x0000000000000000000000000000000000000000",
            "0x0000000000000000000000000000000000000000",
            "0x0000000000000000000000000000000000000000",
            "0x0000000000000000000000000000000000000000",
            "0x0000000000000000000000000000000000000000",
            "0x0000000000000000000000000000000000000000"
          ],
          "swapParams": [
            [
              1,
              0,
              1,
              2
            ],
            [
              1,
              0,
              1,
              2
            ],
            [
              0,
              0,
              0,
              0
            ],
            [
              0,
              0,
              0,
              0
            ],
            [
              0,
              0,
              0,
              0
            ]
          ],
          "swapSlippageBufferBps": 500000
        }
      }
    ]
  ],
  "numDeployments": 1,
  "solcInputHash": "2d1bff231d9c5ddb6fe0f19f244c2cfb",
  "bytecode": "0x6101608060405234620004f757620024e8803803809162000021828562000512565b8339610100828281010312620004f7576200003c8262000536565b916200004b6020820162000536565b6040820151939092906001600160a01b0385168503620004f7576060830151916001600160a01b0383168303620004f7576080840151956001600160a01b0387168703620004f75760a08501519260c08601519660e08701519360018060401b038511620004f757808801601f868a01011215620004f757878501516001600160401b038111620004fc5760405198620000ec60208360051b018b62000512565b818a5260208a01809784830160206108408602838601010111620004f75790602082840101915b602061084086028286010101831062000451575050505050503315620004385760008054336001600160a01b031982168117835560405192989295602095879560049587959094929392906001600160a01b03167f8be0079c531659141344cd1fd0a4f28419497f9722a3daafe3b4186f6b6457e08e80a360e05260a05260c0526101008190526375ba52c960e01b82526001600160a01b03165afa9081156200042d578491620003e7575b506080526001918255610120958652610140948552733BbD619EB2DB0d14f724FD6ee333Cc616c49054991823b15620003e3576040516319ef805560e11b8152606060048201529451606486018190528493869390926084850192865b8181106200037d5750505050828091600260248301526003604483015203915af48015620003705762000341575b505060405190611dd192836200071784396080518381816106b101526117e9015260a0518381816104f201528181610954015261187f015260c05183818161071301528181610b0401528181610c1001528181610ce601528181610d9b01528181610e070152610f12015260e05183818161099d01528181610b5001528181610c6501528181610d2201528181610e8001528181610f3a0152818161132f01526118a20152610100518381816105370152818161059a01528181610bc601528181610d5401528181610e390152818161176b0152611c5d0152518281816104ad0152610f950152518181816108680152610fd30152f35b6001600160401b0382116200035c575060405238806200024a565b634e487b7160e01b81526041600452602490fd5b50604051903d90823e3d90fd5b9295509281949650610840602091620003d16060895160018060a01b03815116845260018060a01b03868201511686850152620003c3604082015160408601906200067b565b01516104408301906200067b565b0195019101928794928796946200021c565b8380fd5b90506020813d60201162000424575b81620004056020938362000512565b81010312620003e3575163ffffffff81168103620003e35738620001bf565b3d9150620003f6565b6040513d86823e3d90fd5b604051631e4fbdf760e01b815260006004820152602490fd5b610840838786010312620004f7576040516080810192906001600160401b03841181851017620004e25760206108409283928296604052620004938862000536565b8152620004a283890162000536565b83820152620004b78b8a0160408a016200054b565b6040820152620004ce8b8a016104408a016200054b565b606082015281520194019392505062000113565b60246000634e487b7160e01b81526041600452fd5b600080fd5b634e487b7160e01b600052604160045260246000fd5b601f909101601f19168101906001600160401b03821190821017620004fc57604052565b51906001600160a01b0382168203620004f757565b919061040083820312620004f757604080519160608301906001600160401b0380831185841017620004fc578496601f91838383011215620004f7576101c0870185811082821117620004fc57865284610160830195858711620004f75783905b8782106200066057505087528361017f83011215620004f75785519360a0850185811083821117620004fc5787526103e085930195818711620004f757925b86841062000603575050505050602084015251910152565b818585011215620004f7578751608080820182811086821117620004e2578a5281908601848111620004f75786915b8183106200064f57505050816020916080935201930192620005eb565b825181526020928301920162000632565b602080916200066f8462000536565b815201910190620005ac565b8051600090835b600b8310620006f55750505060208181015190600061016085015b60058210620006b7575050505060406103e0910151910152565b82845182906000915b60048310620006de575050506080600192019401910190926200069d565b8151815286936001909301929182019101620006c0565b81516001600160a01b0316815260019290920191602091820191016200068256fe608080604052600436101561001357600080fd5b600090813560e01c9081630cc2f8d21461131b5750806323e30c8b146108f35780632ae18104146108b85780632b4481ca1461088b578063313c9b8d146108505780634707d0001461079c578063715018a6146107425780637158da7c146106fd57806371b9ac8b146106d557806375ba52c91461069457806382e9dd9e146106565780638da5cb5b1461062f5780639c9b904014610566578063a104a32f14610521578063a7714458146104dc578063cda90b8814610497578063f2fde38b146104115763f5a58663146100e757600080fd5b3461040e5761084036600319011261040e57604051608091906001600160401b03838201818111838210176103fa57604052610121611362565b825261012b61137d565b916020808201938452610400938460431936011261038e5760405194610150866113d8565b366063121561038a57604051610165816113f3565b806101a49136831161038657856044915b8483106103e2575050508752366101c3121561036a576040516101988161140f565b806104249236841161036657905b83821061039257505084880152356040870152604084019586526104431936011261038e57604051916101d8836113d8565b36610463121561038a57604051906101ef826113f3565b816105a4923684116103865782610444915b85831061036e575050508452366105c3121561036a57604051906102248261140f565b816108249336851161036657905b848210610312575050889950849896979801523560408301526060830191825261025a611584565b733BbD619EB2DB0d14f724FD6ee333Cc616c490549803b1561030e576102c0610884936102b4604051998a978896631abe72a160e31b885260018060a01b0380925116600489015251166024870152516044860190611d06565b51610444840190611d06565b600261084483015260036108648301525af48015610303576102e0578280f35b81116102ef5760405238808280f35b634e487b7160e01b82526041600452602482fd5b6040513d85823e3d90fd5b8480fd5b36601f83011215610366576040516103298161142a565b828d018136821161036257918e9391869386905b82821061035257505050815201910190610232565b813581528895918201910161033d565b8d80fd5b8a80fd5b8780fd5b819061037984611393565b8152019101908390610201565b8980fd5b8680fd5b8580fd5b36601f83011215610366576040516103a98161142a565b828d018136821161036257918e93918a9386905b8282106103d2575050508152019101906101a6565b813581528c9591820191016103bd565b81906103ed84611393565b8152019101908690610176565b634e487b7160e01b84526041600452602484fd5b80fd5b503461040e57602036600319011261040e5761042b611362565b610433611584565b6001600160a01b0390811690811561047e5782546001600160a01b0319811683178455167f8be0079c531659141344cd1fd0a4f28419497f9722a3daafe3b4186f6b6457e08380a380f35b604051631e4fbdf760e01b815260048101849052602490fd5b503461040e578060031936011261040e576040517f00000000000000000000000000000000000000000000000000000000000000006001600160a01b03168152602090f35b503461040e578060031936011261040e576040517f00000000000000000000000000000000000000000000000000000000000000006001600160a01b03168152602090f35b503461040e578060031936011261040e576040517f00000000000000000000000000000000000000000000000000000000000000006001600160a01b03168152602090f35b503461040e5761057536611519565b6040516363737ac960e11b8152600481019690965295949093919291906020816024817f00000000000000000000000000000000000000000000000000000000000000006001600160a01b03165afa9586156106235780966105ec575b6020876105e38a898989898661174d565b50604051908152f35b909195506020823d821161061b575b8161060860209383611445565b8101031261040e575051938160206105d2565b3d91506105fb565b604051903d90823e3d90fd5b503461040e578060031936011261040e57546040516001600160a01b039091168152602090f35b503461040e576020601f6106808261066d366114b8565b81604051938285809451938492016114f6565b810160028152030190200154604051908152f35b503461040e578060031936011261040e57602060405163ffffffff7f0000000000000000000000000000000000000000000000000000000000000000168152f35b503461040e5760206106f56106e936611519565b9493909392919261174d565b604051908152f35b503461040e578060031936011261040e576040517f00000000000000000000000000000000000000000000000000000000000000006001600160a01b03168152602090f35b503461040e578060031936011261040e5761075b611584565b80546001600160a01b03198116825581906001600160a01b03167f8be0079c531659141344cd1fd0a4f28419497f9722a3daafe3b4186f6b6457e08280a380f35b503461040e57604036600319011261040e576107b6611362565b6107be61137d565b906107c7611584565b6040516370a0823160e01b8152306004820152916001600160a01b039190911690602083602481855afa91821561084557849261080c575b61080993506115b0565b80f35b91506020833d821161083d575b8161082660209383611445565b81010312610839576108099251916107ff565b8380fd5b3d9150610819565b6040513d86823e3d90fd5b503461040e578060031936011261040e5760206040517f00000000000000000000000000000000000000000000000000000000000000008152f35b503461040e57602060ff6108a28261066d366114b8565b8101600381520301902054166040519015158152f35b503461040e578060031936011261040e5760206040517f439148f0bbc682ca079e46d6e2c2f0c1e3b820f1a291b069d8882abf8cf18dd98152f35b503461040e5760a036600319011261040e5761090d611362565b61091561137d565b608435906001600160401b0382116108395736602383011215610839578160040135926001600160401b03841161030e57366024858501011161030e577f00000000000000000000000000000000000000000000000000000000000000006001600160a01b0316330361130957306001600160a01b03909116036112f7576001600160a01b037f000000000000000000000000000000000000000000000000000000000000000081169116036112e5576109d3916024369201611481565b604051906109e0826113a7565b8282528260208301528260408301528260608301528260808301528260a0830152606060c0830152805181019060e08183031261083957610a2360208201611cf2565b91610a3060408301611cf2565b9160608101519160808201519160a08101519160c08201519160e0810151906001600160401b0382116103665760208301603f8383010112156103665760208282010151906020610a8083611466565b94610a8e6040519687611445565b838652016040838584010101116112e1576040610ab193602086019201016114f6565b60c088015260a0870152608086015260608501526040808501919091526001600160a01b039182166020808601919091529282168452516370a0823160e01b8152306004820152929190839060249082907f0000000000000000000000000000000000000000000000000000000000000000165afa9182156103035783926112a9575b506040516370a0823160e01b81523060048201526020816024817f00000000000000000000000000000000000000000000000000000000000000006001600160a01b03165afa908115610845578491611277575b50604082015160018060a01b0383511660405191635d043b2960e11b8352600483015230602483015260448201526020816064818860018060a01b037f0000000000000000000000000000000000000000000000000000000000000000165af1801561114d5761124c575b506040516370a0823160e01b8152306004820152926020846024817f00000000000000000000000000000000000000000000000000000000000000006001600160a01b03165afa93841561114d578594611218575b506040516370a0823160e01b8152306004820152936020856024817f00000000000000000000000000000000000000000000000000000000000000006001600160a01b03165afa9485156111105786956111e4575b508285116111c6578181106111a857610cc09291610cba91611cbb565b93611cbb565b9160a082015180821061118a57506020820151610d0b91906001600160a01b03908116907f0000000000000000000000000000000000000000000000000000000000000000166115b0565b6040516363880e0960e11b81526001600160a01b037f000000000000000000000000000000000000000000000000000000000000000081166004830152602090829060249082907f0000000000000000000000000000000000000000000000000000000000000000165afa908115610845578491611158575b5060405163313ce56760e01b8152906020826004817f00000000000000000000000000000000000000000000000000000000000000006001600160a01b03165afa90811561114d57610de4610dea92610df09488916110e1575b50611ce1565b906116ff565b836116ff565b6040516363880e0960e11b81526001600160a01b037f000000000000000000000000000000000000000000000000000000000000000081166004830152602090829060249082907f0000000000000000000000000000000000000000000000000000000000000000165afa90811561114d57859161111b575b5060405163313ce56760e01b8152906020826004817f00000000000000000000000000000000000000000000000000000000000000006001600160a01b03165afa91821561111057610ec592610de49188916110e15750611ce1565b9081156110cd57608083015191620f4240928301918284116110b95790610eed9291046116ff565b04801561107c5760c09190910151604051631be9861560e21b81526001600160a01b037f0000000000000000000000000000000000000000000000000000000000000000811660048301527f00000000000000000000000000000000000000000000000000000000000000001660248201526044810193909352606483019190915230608483015261014060a483015260209082908190610f9390610144830190611728565b7f00000000000000000000000000000000000000000000000000000000000000006001600160a01b031660c4830152600260e483015260036101048301527f00000000000000000000000000000000000000000000000000000000000000006101248301520381733BbD619EB2DB0d14f724FD6ee333Cc616c4905495af4801561107157611046575b60206040517f439148f0bbc682ca079e46d6e2c2f0c1e3b820f1a291b069d8882abf8cf18dd98152f35b602090813d831161106a575b61105c8183611445565b8101031261040e578061101c565b503d611052565b6040513d84823e3d90fd5b60405162461bcd60e51b81526020600482015260156024820152746d6178496e206973206e6f7420706f73697469766560581b6044820152606490fd5b634e487b7160e01b87526011600452602487fd5b634e487b7160e01b85526012600452602485fd5b611103915060203d602011611109575b6110fb8183611445565b810190611cc8565b38610dde565b503d6110f1565b6040513d88823e3d90fd5b90506020813d602011611145575b8161113660209383611445565b8101031261030e575138610e69565b3d9150611129565b6040513d87823e3d90fd5b90506020813d602011611182575b8161117360209383611445565b81010312610839575138610d84565b3d9150611166565b6044925060405191630583371760e31b835260048301526024820152fd5b6044925060405191636e9b3f0360e11b835260048301526024820152fd5b60448386604051916306c0820760e21b835260048301526024820152fd5b9094506020813d602011611210575b8161120060209383611445565b8101031261038e57519338610c9d565b3d91506111f3565b9093506020813d602011611244575b8161123460209383611445565b8101031261030e57519238610c48565b3d9150611227565b602090813d8311611270575b6112628183611445565b810103126108395738610bf3565b503d611258565b90506020813d6020116112a1575b8161129260209383611445565b81010312610839575138610b88565b3d9150611285565b9091506020813d6020116112d9575b816112c560209383611445565b810103126112d557519038610b34565b8280fd5b3d91506112b8565b8b80fd5b604051638698bf3760e01b8152600490fd5b604051634ac321c360e11b8152600490fd5b604051631e4a393d60e31b8152600490fd5b90503461135e578160031936011261135e577f00000000000000000000000000000000000000000000000000000000000000006001600160a01b03168152602090f35b5080fd5b600435906001600160a01b038216820361137857565b600080fd5b602435906001600160a01b038216820361137857565b35906001600160a01b038216820361137857565b60e081019081106001600160401b038211176113c257604052565b634e487b7160e01b600052604160045260246000fd5b606081019081106001600160401b038211176113c257604052565b61016081019081106001600160401b038211176113c257604052565b60a081019081106001600160401b038211176113c257604052565b608081019081106001600160401b038211176113c257604052565b90601f801991011681019081106001600160401b038211176113c257604052565b6001600160401b0381116113c257601f01601f191660200190565b92919261148d82611466565b9161149b6040519384611445565b829481845281830111611378578281602093846000960137010152565b602060031982011261137857600435906001600160401b0382116113785780602383011215611378578160246114f393600401359101611481565b90565b60005b8381106115095750506000910152565b81810151838201526020016114f9565b9060c060031983011261137857600435916001600160a01b03916024358381168103611378579260443590811681036113785791606435916084359160a435906001600160401b0382116113785780602383011215611378578160246114f393600401359101611481565b6000546001600160a01b0316330361159857565b60405163118cdaa760e01b8152336004820152602490fd5b60405163a9059cbb60e01b602082019081526001600160a01b03939093166024820152604480820194909452928352611633916000918291906115f4606487611445565b60018060a01b031694519082865af13d1561167c573d9061161482611466565b916116226040519384611445565b82523d6000602084013e5b8361169c565b8051908115159182611661575b50506116495750565b60249060405190635274afe760e01b82526004820152fd5b6116749250602080918301019101611684565b153880611640565b60609061162d565b90816020910312611378575180151581036113785790565b906116c357508051156116b157805190602001fd5b604051630a12f52160e11b8152600490fd5b815115806116f6575b6116d4575090565b604051639996b31560e01b81526001600160a01b039091166004820152602490fd5b50803b156116cc565b8181029291811591840414171561171257565b634e487b7160e01b600052601160045260246000fd5b90602091611741815180928185528580860191016114f6565b601f01601f1916010190565b939594909392916001600160a01b0391908216338103611c39575b827f000000000000000000000000000000000000000000000000000000000000000016906040928351998a966303d1689d60e11b8852600499898b8a01526020998a60249a8b818a5afa9d8e15611bb65760009e611bfb575b509361187c938b938f9e9f93878b8560c08f8d9c8d91620f424061180f61186e9d63ffffffff7f000000000000000000000000000000000000000000000000000000000000000016906116ff565b049786519361181d856113a7565b84521694858d8401528201528560608201528660808201528760a082015201528c51998a988901528c8801526060870152608086015260a085015260c084015260e080840152610100830190611728565b03601f198101835282611445565b847f000000000000000000000000000000000000000000000000000000000000000016947f00000000000000000000000000000000000000000000000000000000000000001684519063613255ab60e01b8252808a830152888289818a5afa918215611bf057600092611bc1575b508551966370a0823160e01b93848952858c8a01528a898b818a5afa988915611bb657600099611b75575b508751633676633960e21b81526001600160a01b038416818e01908152602081018690528c90829081906040010381865afa908115611b2957600091611b48575b508401808511611b3457885163095ea7b360e01b81526001600160a01b038416818f019081526020810192909252908c908290819060400103816000885af1908115611b2957600091611b0c575b5015611ab857908960008d6119e68e96958c5198899788968795632e7ff4ef60e11b875230908701528501526044840152608060648401526084830190611728565b03925af18015611aad57918791899493611a80575b508551948593849283528b8301525afa948515611a7557600095611a44575b505081841015611a2c57505050505090565b51632b9e770560e11b81529384015282015260449150fd5b8181969293963d8311611a6e575b611a5c8183611445565b8101031261040e575051923880611a1a565b503d611a52565b82513d6000823e3d90fd5b611a9f90853d8711611aa6575b611a978183611445565b810190611684565b50386119fb565b503d611a8d565b85513d6000823e3d90fd5b875162461bcd60e51b8152808d018c90526029818c01527f617070726f7665206661696c656420666f7220666c617368206c656e64657220604482015268696e2072656465656d60b81b6064820152608490fd5b611b2391508c8d3d10611aa657611a978183611445565b386119a4565b89513d6000823e3d90fd5b8a60118e634e487b7160e01b600052526000fd5b908c82813d8311611b6e575b611b5e8183611445565b8101031261040e57505138611956565b503d611b54565b8b809b9a9f9e9d9c82903d8311611baf575b611b918183611445565b81010312611bab57519c9d509a9b999a9899979883611915565b8e80fd5b503d611b87565b88513d6000823e3d90fd5b90918982813d8311611be9575b611bd88183611445565b8101031261040e57505190386118ea565b503d611bce565b86513d6000823e3d90fd5b9094939d8b82819c9b9e9d3d8311611c32575b611c188183611445565b8101031261040e5750519c999a98999798979293856117c1565b503d611c0e565b60405163095ea7b360e01b81523060048201526024810186905260208160448160007f000000000000000000000000000000000000000000000000000000000000000089165af18015611caf57611c91575b50611768565b611ca89060203d8111611aa657611a978183611445565b5038611c8b565b6040513d6000823e3d90fd5b9190820391821161171257565b90816020910312611378575160ff811681036113785790565b60ff16604d811161171257600a0a90565b51906001600160a01b038216820361137857565b8051600090835b600b8310611d7b5750505060208181015190600061016085015b60058210611d40575050505060406103e0910151910152565b82845182906000915b60048310611d6557505050608060019201940191019092611d27565b8151815286936001909301929182019101611d49565b81516001600160a01b031681526001929092019160209182019101611d0d56fea2646970667358221220b7099bd55156b1f5d3f9e8f6861fc974aba58c9932071f973574677153e7de4064736f6c63430008140033",
  "deployedBytecode": "0x608080604052600436101561001357600080fd5b600090813560e01c9081630cc2f8d21461131b5750806323e30c8b146108f35780632ae18104146108b85780632b4481ca1461088b578063313c9b8d146108505780634707d0001461079c578063715018a6146107425780637158da7c146106fd57806371b9ac8b146106d557806375ba52c91461069457806382e9dd9e146106565780638da5cb5b1461062f5780639c9b904014610566578063a104a32f14610521578063a7714458146104dc578063cda90b8814610497578063f2fde38b146104115763f5a58663146100e757600080fd5b3461040e5761084036600319011261040e57604051608091906001600160401b03838201818111838210176103fa57604052610121611362565b825261012b61137d565b916020808201938452610400938460431936011261038e5760405194610150866113d8565b366063121561038a57604051610165816113f3565b806101a49136831161038657856044915b8483106103e2575050508752366101c3121561036a576040516101988161140f565b806104249236841161036657905b83821061039257505084880152356040870152604084019586526104431936011261038e57604051916101d8836113d8565b36610463121561038a57604051906101ef826113f3565b816105a4923684116103865782610444915b85831061036e575050508452366105c3121561036a57604051906102248261140f565b816108249336851161036657905b848210610312575050889950849896979801523560408301526060830191825261025a611584565b73__$f28b1f6ff12e759e9f5435a81d18aeeda6$__803b1561030e576102c0610884936102b4604051998a978896631abe72a160e31b885260018060a01b0380925116600489015251166024870152516044860190611d06565b51610444840190611d06565b600261084483015260036108648301525af48015610303576102e0578280f35b81116102ef5760405238808280f35b634e487b7160e01b82526041600452602482fd5b6040513d85823e3d90fd5b8480fd5b36601f83011215610366576040516103298161142a565b828d018136821161036257918e9391869386905b82821061035257505050815201910190610232565b813581528895918201910161033d565b8d80fd5b8a80fd5b8780fd5b819061037984611393565b8152019101908390610201565b8980fd5b8680fd5b8580fd5b36601f83011215610366576040516103a98161142a565b828d018136821161036257918e93918a9386905b8282106103d2575050508152019101906101a6565b813581528c9591820191016103bd565b81906103ed84611393565b8152019101908690610176565b634e487b7160e01b84526041600452602484fd5b80fd5b503461040e57602036600319011261040e5761042b611362565b610433611584565b6001600160a01b0390811690811561047e5782546001600160a01b0319811683178455167f8be0079c531659141344cd1fd0a4f28419497f9722a3daafe3b4186f6b6457e08380a380f35b604051631e4fbdf760e01b815260048101849052602490fd5b503461040e578060031936011261040e576040517f00000000000000000000000000000000000000000000000000000000000000006001600160a01b03168152602090f35b503461040e578060031936011261040e576040517f00000000000000000000000000000000000000000000000000000000000000006001600160a01b03168152602090f35b503461040e578060031936011261040e576040517f00000000000000000000000000000000000000000000000000000000000000006001600160a01b03168152602090f35b503461040e5761057536611519565b6040516363737ac960e11b8152600481019690965295949093919291906020816024817f00000000000000000000000000000000000000000000000000000000000000006001600160a01b03165afa9586156106235780966105ec575b6020876105e38a898989898661174d565b50604051908152f35b909195506020823d821161061b575b8161060860209383611445565b8101031261040e575051938160206105d2565b3d91506105fb565b604051903d90823e3d90fd5b503461040e578060031936011261040e57546040516001600160a01b039091168152602090f35b503461040e576020601f6106808261066d366114b8565b81604051938285809451938492016114f6565b810160028152030190200154604051908152f35b503461040e578060031936011261040e57602060405163ffffffff7f0000000000000000000000000000000000000000000000000000000000000000168152f35b503461040e5760206106f56106e936611519565b9493909392919261174d565b604051908152f35b503461040e578060031936011261040e576040517f00000000000000000000000000000000000000000000000000000000000000006001600160a01b03168152602090f35b503461040e578060031936011261040e5761075b611584565b80546001600160a01b03198116825581906001600160a01b03167f8be0079c531659141344cd1fd0a4f28419497f9722a3daafe3b4186f6b6457e08280a380f35b503461040e57604036600319011261040e576107b6611362565b6107be61137d565b906107c7611584565b6040516370a0823160e01b8152306004820152916001600160a01b039190911690602083602481855afa91821561084557849261080c575b61080993506115b0565b80f35b91506020833d821161083d575b8161082660209383611445565b81010312610839576108099251916107ff565b8380fd5b3d9150610819565b6040513d86823e3d90fd5b503461040e578060031936011261040e5760206040517f00000000000000000000000000000000000000000000000000000000000000008152f35b503461040e57602060ff6108a28261066d366114b8565b8101600381520301902054166040519015158152f35b503461040e578060031936011261040e5760206040517f439148f0bbc682ca079e46d6e2c2f0c1e3b820f1a291b069d8882abf8cf18dd98152f35b503461040e5760a036600319011261040e5761090d611362565b61091561137d565b608435906001600160401b0382116108395736602383011215610839578160040135926001600160401b03841161030e57366024858501011161030e577f00000000000000000000000000000000000000000000000000000000000000006001600160a01b0316330361130957306001600160a01b03909116036112f7576001600160a01b037f000000000000000000000000000000000000000000000000000000000000000081169116036112e5576109d3916024369201611481565b604051906109e0826113a7565b8282528260208301528260408301528260608301528260808301528260a0830152606060c0830152805181019060e08183031261083957610a2360208201611cf2565b91610a3060408301611cf2565b9160608101519160808201519160a08101519160c08201519160e0810151906001600160401b0382116103665760208301603f8383010112156103665760208282010151906020610a8083611466565b94610a8e6040519687611445565b838652016040838584010101116112e1576040610ab193602086019201016114f6565b60c088015260a0870152608086015260608501526040808501919091526001600160a01b039182166020808601919091529282168452516370a0823160e01b8152306004820152929190839060249082907f0000000000000000000000000000000000000000000000000000000000000000165afa9182156103035783926112a9575b506040516370a0823160e01b81523060048201526020816024817f00000000000000000000000000000000000000000000000000000000000000006001600160a01b03165afa908115610845578491611277575b50604082015160018060a01b0383511660405191635d043b2960e11b8352600483015230602483015260448201526020816064818860018060a01b037f0000000000000000000000000000000000000000000000000000000000000000165af1801561114d5761124c575b506040516370a0823160e01b8152306004820152926020846024817f00000000000000000000000000000000000000000000000000000000000000006001600160a01b03165afa93841561114d578594611218575b506040516370a0823160e01b8152306004820152936020856024817f00000000000000000000000000000000000000000000000000000000000000006001600160a01b03165afa9485156111105786956111e4575b508285116111c6578181106111a857610cc09291610cba91611cbb565b93611cbb565b9160a082015180821061118a57506020820151610d0b91906001600160a01b03908116907f0000000000000000000000000000000000000000000000000000000000000000166115b0565b6040516363880e0960e11b81526001600160a01b037f000000000000000000000000000000000000000000000000000000000000000081166004830152602090829060249082907f0000000000000000000000000000000000000000000000000000000000000000165afa908115610845578491611158575b5060405163313ce56760e01b8152906020826004817f00000000000000000000000000000000000000000000000000000000000000006001600160a01b03165afa90811561114d57610de4610dea92610df09488916110e1575b50611ce1565b906116ff565b836116ff565b6040516363880e0960e11b81526001600160a01b037f000000000000000000000000000000000000000000000000000000000000000081166004830152602090829060249082907f0000000000000000000000000000000000000000000000000000000000000000165afa90811561114d57859161111b575b5060405163313ce56760e01b8152906020826004817f00000000000000000000000000000000000000000000000000000000000000006001600160a01b03165afa91821561111057610ec592610de49188916110e15750611ce1565b9081156110cd57608083015191620f4240928301918284116110b95790610eed9291046116ff565b04801561107c5760c09190910151604051631be9861560e21b81526001600160a01b037f0000000000000000000000000000000000000000000000000000000000000000811660048301527f00000000000000000000000000000000000000000000000000000000000000001660248201526044810193909352606483019190915230608483015261014060a483015260209082908190610f9390610144830190611728565b7f00000000000000000000000000000000000000000000000000000000000000006001600160a01b031660c4830152600260e483015260036101048301527f0000000000000000000000000000000000000000000000000000000000000000610124830152038173__$f28b1f6ff12e759e9f5435a81d18aeeda6$__5af4801561107157611046575b60206040517f439148f0bbc682ca079e46d6e2c2f0c1e3b820f1a291b069d8882abf8cf18dd98152f35b602090813d831161106a575b61105c8183611445565b8101031261040e578061101c565b503d611052565b6040513d84823e3d90fd5b60405162461bcd60e51b81526020600482015260156024820152746d6178496e206973206e6f7420706f73697469766560581b6044820152606490fd5b634e487b7160e01b87526011600452602487fd5b634e487b7160e01b85526012600452602485fd5b611103915060203d602011611109575b6110fb8183611445565b810190611cc8565b38610dde565b503d6110f1565b6040513d88823e3d90fd5b90506020813d602011611145575b8161113660209383611445565b8101031261030e575138610e69565b3d9150611129565b6040513d87823e3d90fd5b90506020813d602011611182575b8161117360209383611445565b81010312610839575138610d84565b3d9150611166565b6044925060405191630583371760e31b835260048301526024820152fd5b6044925060405191636e9b3f0360e11b835260048301526024820152fd5b60448386604051916306c0820760e21b835260048301526024820152fd5b9094506020813d602011611210575b8161120060209383611445565b8101031261038e57519338610c9d565b3d91506111f3565b9093506020813d602011611244575b8161123460209383611445565b8101031261030e57519238610c48565b3d9150611227565b602090813d8311611270575b6112628183611445565b810103126108395738610bf3565b503d611258565b90506020813d6020116112a1575b8161129260209383611445565b81010312610839575138610b88565b3d9150611285565b9091506020813d6020116112d9575b816112c560209383611445565b810103126112d557519038610b34565b8280fd5b3d91506112b8565b8b80fd5b604051638698bf3760e01b8152600490fd5b604051634ac321c360e11b8152600490fd5b604051631e4a393d60e31b8152600490fd5b90503461135e578160031936011261135e577f00000000000000000000000000000000000000000000000000000000000000006001600160a01b03168152602090f35b5080fd5b600435906001600160a01b038216820361137857565b600080fd5b602435906001600160a01b038216820361137857565b35906001600160a01b038216820361137857565b60e081019081106001600160401b038211176113c257604052565b634e487b7160e01b600052604160045260246000fd5b606081019081106001600160401b038211176113c257604052565b61016081019081106001600160401b038211176113c257604052565b60a081019081106001600160401b038211176113c257604052565b608081019081106001600160401b038211176113c257604052565b90601f801991011681019081106001600160401b038211176113c257604052565b6001600160401b0381116113c257601f01601f191660200190565b92919261148d82611466565b9161149b6040519384611445565b829481845281830111611378578281602093846000960137010152565b602060031982011261137857600435906001600160401b0382116113785780602383011215611378578160246114f393600401359101611481565b90565b60005b8381106115095750506000910152565b81810151838201526020016114f9565b9060c060031983011261137857600435916001600160a01b03916024358381168103611378579260443590811681036113785791606435916084359160a435906001600160401b0382116113785780602383011215611378578160246114f393600401359101611481565b6000546001600160a01b0316330361159857565b60405163118cdaa760e01b8152336004820152602490fd5b60405163a9059cbb60e01b602082019081526001600160a01b03939093166024820152604480820194909452928352611633916000918291906115f4606487611445565b60018060a01b031694519082865af13d1561167c573d9061161482611466565b916116226040519384611445565b82523d6000602084013e5b8361169c565b8051908115159182611661575b50506116495750565b60249060405190635274afe760e01b82526004820152fd5b6116749250602080918301019101611684565b153880611640565b60609061162d565b90816020910312611378575180151581036113785790565b906116c357508051156116b157805190602001fd5b604051630a12f52160e11b8152600490fd5b815115806116f6575b6116d4575090565b604051639996b31560e01b81526001600160a01b039091166004820152602490fd5b50803b156116cc565b8181029291811591840414171561171257565b634e487b7160e01b600052601160045260246000fd5b90602091611741815180928185528580860191016114f6565b601f01601f1916010190565b939594909392916001600160a01b0391908216338103611c39575b827f000000000000000000000000000000000000000000000000000000000000000016906040928351998a966303d1689d60e11b8852600499898b8a01526020998a60249a8b818a5afa9d8e15611bb65760009e611bfb575b509361187c938b938f9e9f93878b8560c08f8d9c8d91620f424061180f61186e9d63ffffffff7f000000000000000000000000000000000000000000000000000000000000000016906116ff565b049786519361181d856113a7565b84521694858d8401528201528560608201528660808201528760a082015201528c51998a988901528c8801526060870152608086015260a085015260c084015260e080840152610100830190611728565b03601f198101835282611445565b847f000000000000000000000000000000000000000000000000000000000000000016947f00000000000000000000000000000000000000000000000000000000000000001684519063613255ab60e01b8252808a830152888289818a5afa918215611bf057600092611bc1575b508551966370a0823160e01b93848952858c8a01528a898b818a5afa988915611bb657600099611b75575b508751633676633960e21b81526001600160a01b038416818e01908152602081018690528c90829081906040010381865afa908115611b2957600091611b48575b508401808511611b3457885163095ea7b360e01b81526001600160a01b038416818f019081526020810192909252908c908290819060400103816000885af1908115611b2957600091611b0c575b5015611ab857908960008d6119e68e96958c5198899788968795632e7ff4ef60e11b875230908701528501526044840152608060648401526084830190611728565b03925af18015611aad57918791899493611a80575b508551948593849283528b8301525afa948515611a7557600095611a44575b505081841015611a2c57505050505090565b51632b9e770560e11b81529384015282015260449150fd5b8181969293963d8311611a6e575b611a5c8183611445565b8101031261040e575051923880611a1a565b503d611a52565b82513d6000823e3d90fd5b611a9f90853d8711611aa6575b611a978183611445565b810190611684565b50386119fb565b503d611a8d565b85513d6000823e3d90fd5b875162461bcd60e51b8152808d018c90526029818c01527f617070726f7665206661696c656420666f7220666c617368206c656e64657220604482015268696e2072656465656d60b81b6064820152608490fd5b611b2391508c8d3d10611aa657611a978183611445565b386119a4565b89513d6000823e3d90fd5b8a60118e634e487b7160e01b600052526000fd5b908c82813d8311611b6e575b611b5e8183611445565b8101031261040e57505138611956565b503d611b54565b8b809b9a9f9e9d9c82903d8311611baf575b611b918183611445565b81010312611bab57519c9d509a9b999a9899979883611915565b8e80fd5b503d611b87565b88513d6000823e3d90fd5b90918982813d8311611be9575b611bd88183611445565b8101031261040e57505190386118ea565b503d611bce565b86513d6000823e3d90fd5b9094939d8b82819c9b9e9d3d8311611c32575b611c188183611445565b8101031261040e5750519c999a98999798979293856117c1565b503d611c0e565b60405163095ea7b360e01b81523060048201526024810186905260208160448160007f000000000000000000000000000000000000000000000000000000000000000089165af18015611caf57611c91575b50611768565b611ca89060203d8111611aa657611a978183611445565b5038611c8b565b6040513d6000823e3d90fd5b9190820391821161171257565b90816020910312611378575160ff811681036113785790565b60ff16604d811161171257600a0a90565b51906001600160a01b038216820361137857565b8051600090835b600b8310611d7b5750505060208181015190600061016085015b60058210611d40575050505060406103e0910151910152565b82845182906000915b60048310611d6557505050608060019201940191019092611d27565b8151815286936001909301929182019101611d49565b81516001600160a01b031681526001929092019160209182019101611d0d56fea2646970667358221220b7099bd55156b1f5d3f9e8f6861fc974aba58c9932071f973574677153e7de4064736f6c63430008140033",
  "libraries": {
    "CurveSwapLogic": "0x3BbD619EB2DB0d14f724FD6ee333Cc616c490549"
  },
  "devdoc": {
    "details": "Implementation of DLoopWithdrawerBase with Curve swap functionality",
    "errors": {
      "AddressEmptyCode(address)": [
        {
          "details": "There's no code at `target` (it is not a contract)."
        }
      ],
      "AddressInsufficientBalance(address)": [
        {
          "details": "The ETH balance of the account is not enough to perform the operation."
        }
      ],
      "FailedInnerCall()": [
        {
          "details": "A call to an address target failed. The target may have reverted."
        }
      ],
      "OwnableInvalidOwner(address)": [
        {
          "details": "The owner is not a valid owner account. (eg. `address(0)`)"
        }
      ],
      "OwnableUnauthorizedAccount(address)": [
        {
          "details": "The caller account is not authorized to perform an operation."
        }
      ],
      "SafeERC20FailedOperation(address)": [
        {
          "details": "An operation with an ERC20 token failed."
        }
      ]
    },
    "kind": "dev",
    "methods": {
      "constructor": {
        "details": "Constructor for the DLoopWithdrawerCurve contract",
        "params": {
          "_curveRouter": "Address of the Curve router",
          "_dLoopCore": "Address of the dLoopCore contract",
          "_dStable": "Address of the dStable token",
          "_defaultSwapParamsList": "List of default swap parameters",
          "_flashLender": "Address of the flash loan provider",
          "_maxSlippageSurplusSwapBps": "Maximum slippage for surplus swap in basis points",
          "_swapSlippageTolerance": "Swap slippage tolerance in basis points",
          "_underlyingAsset": "Address of the underlying asset"
        }
      },
      "onFlashLoan(address,address,uint256,uint256,bytes)": {
        "details": "Callback function for flash loans",
        "params": {
          "data": "Encoded flash loan parameters",
          "initiator": "Address that initiated the flash loan",
          "token": "Address of the flash-borrowed token"
        },
        "returns": {
          "_0": "bytes32 The flash loan callback success bytes"
        }
      },
      "owner()": {
        "details": "Returns the address of the current owner."
      },
      "redeem(uint256,address,address,uint256,uint256,bytes)": {
        "details": "Redeems shares from the core vault",
        "params": {
          "minReceiveAmount": "Minimum amount of assets to receive",
          "owner": "Address that owns the shares",
          "receiver": "Address to receive the assets",
          "shares": "Amount of shares to redeem",
          "slippageTolerance": "Slippage tolerance for the swap",
          "underlyingToDStableSwapData": "Swap data from underlying asset to dStable"
        },
        "returns": {
          "assets": "Amount of assets redeemed"
        }
      },
      "renounceOwnership()": {
        "details": "Leaves the contract without owner. It will not be possible to call `onlyOwner` functions. Can only be called by the current owner. NOTE: Renouncing ownership will leave the contract without an owner, thereby disabling any functionality that is only available to the owner."
      },
      "rescueToken(address,address)": {
        "details": "Rescues tokens accidentally sent to the contract",
        "params": {
          "receiver": "Address to receive the rescued tokens",
          "token": "Address of the token to rescue"
        }
      },
      "setSwapExtraParams((address,address,(address[11],uint256[4][5],uint256),(address[11],uint256[4][5],uint256)))": {
        "details": "Sets the swap extra params for a given input and output token",
        "params": {
          "_swapExtraParamsConfig": "The swap extra params config"
        }
      },
      "transferOwnership(address)": {
        "details": "Transfers ownership of the contract to a new account (`newOwner`). Can only be called by the current owner."
      },
      "withdraw(uint256,address,address,uint256,uint256,bytes)": {
        "details": "Withdraws assets from the core vault",
        "params": {
          "assets": "Amount of assets to withdraw",
          "minReceiveAmount": "Minimum amount of assets to receive",
          "owner": "Address that owns the shares",
          "receiver": "Address to receive the assets",
          "slippageTolerance": "Slippage tolerance for the swap",
          "underlyingToDStableSwapData": "Swap data from underlying asset to dStable"
        },
        "returns": {
          "shares": "Amount of shares burned"
        }
      }
    },
    "title": "DLoopWithdrawerCurve",
    "version": 1
  },
  "userdoc": {
    "kind": "user",
    "methods": {},
    "version": 1
  },
  "storageLayout": {
    "storage": [
      {
        "astId": 8,
        "contract": "contracts/vault/dLOOP/periphery/venue/curve/DLoopWithdrawerCurve.sol:DLoopWithdrawerCurve",
        "label": "_owner",
        "offset": 0,
        "slot": "0",
        "type": "t_address"
      },
      {
        "astId": 7129,
        "contract": "contracts/vault/dLOOP/periphery/venue/curve/DLoopWithdrawerCurve.sol:DLoopWithdrawerCurve",
        "label": "_defaultSwapSlippageTolerance",
        "offset": 0,
        "slot": "1",
        "type": "t_uint256"
      },
      {
        "astId": 8485,
        "contract": "contracts/vault/dLOOP/periphery/venue/curve/DLoopWithdrawerCurve.sol:DLoopWithdrawerCurve",
        "label": "defaultSwapParams",
        "offset": 0,
        "slot": "2",
        "type": "t_mapping(t_string_memory_ptr,t_struct(CurveSwapExtraParams)4236_storage)"
      },
      {
        "astId": 8489,
        "contract": "contracts/vault/dLOOP/periphery/venue/curve/DLoopWithdrawerCurve.sol:DLoopWithdrawerCurve",
        "label": "isSwapParamsSet",
        "offset": 0,
        "slot": "3",
        "type": "t_mapping(t_string_memory_ptr,t_bool)"
      }
    ],
    "types": {
      "t_address": {
        "encoding": "inplace",
        "label": "address",
        "numberOfBytes": "20"
      },
      "t_array(t_address)11_storage": {
        "base": "t_address",
        "encoding": "inplace",
        "label": "address[11]",
        "numberOfBytes": "352"
      },
      "t_array(t_array(t_uint256)4_storage)5_storage": {
        "base": "t_array(t_uint256)4_storage",
        "encoding": "inplace",
        "label": "uint256[4][5]",
        "numberOfBytes": "640"
      },
      "t_array(t_uint256)4_storage": {
        "base": "t_uint256",
        "encoding": "inplace",
        "label": "uint256[4]",
        "numberOfBytes": "128"
      },
      "t_bool": {
        "encoding": "inplace",
        "label": "bool",
        "numberOfBytes": "1"
      },
      "t_mapping(t_string_memory_ptr,t_bool)": {
        "encoding": "mapping",
        "key": "t_string_memory_ptr",
        "label": "mapping(string => bool)",
        "numberOfBytes": "32",
        "value": "t_bool"
      },
      "t_mapping(t_string_memory_ptr,t_struct(CurveSwapExtraParams)4236_storage)": {
        "encoding": "mapping",
        "key": "t_string_memory_ptr",
        "label": "mapping(string => struct CurveHelper.CurveSwapExtraParams)",
        "numberOfBytes": "32",
        "value": "t_struct(CurveSwapExtraParams)4236_storage"
      },
      "t_string_memory_ptr": {
        "encoding": "bytes",
        "label": "string",
        "numberOfBytes": "32"
      },
      "t_struct(CurveSwapExtraParams)4236_storage": {
        "encoding": "inplace",
        "label": "struct CurveHelper.CurveSwapExtraParams",
        "members": [
          {
            "astId": 4227,
            "contract": "contracts/vault/dLOOP/periphery/venue/curve/DLoopWithdrawerCurve.sol:DLoopWithdrawerCurve",
            "label": "route",
            "offset": 0,
            "slot": "0",
            "type": "t_array(t_address)11_storage"
          },
          {
            "astId": 4233,
            "contract": "contracts/vault/dLOOP/periphery/venue/curve/DLoopWithdrawerCurve.sol:DLoopWithdrawerCurve",
            "label": "swapParams",
            "offset": 0,
            "slot": "11",
            "type": "t_array(t_array(t_uint256)4_storage)5_storage"
          },
          {
            "astId": 4235,
            "contract": "contracts/vault/dLOOP/periphery/venue/curve/DLoopWithdrawerCurve.sol:DLoopWithdrawerCurve",
            "label": "swapSlippageBufferBps",
            "offset": 0,
            "slot": "31",
            "type": "t_uint256"
          }
        ],
        "numberOfBytes": "1024"
      },
      "t_uint256": {
        "encoding": "inplace",
        "label": "uint256",
        "numberOfBytes": "32"
      }
    }
  }
}