{
  "address": "0xFFB7952e1e32f053c176Bf0cF0d5f6D9eE6Fc021",
  "abi": [
    {
      "inputs": [
        {
          "internalType": "contract ERC20",
          "name": "_underlyingAsset",
          "type": "address"
        },
        {
          "internalType": "contract ERC20",
          "name": "_dStable",
          "type": "address"
        },
        {
          "internalType": "contract IERC3156FlashLender",
          "name": "_flashLender",
          "type": "address"
        },
        {
          "internalType": "contract DLoopCoreBase",
          "name": "_dLoopCore",
          "type": "address"
        },
        {
          "internalType": "contract IOdosRouterV2",
          "name": "_odosRouter",
          "type": "address"
        },
        {
          "internalType": "uint256",
          "name": "_swapSlippageTolerance",
          "type": "uint256"
        }
      ],
      "stateMutability": "nonpayable",
      "type": "constructor"
    },
    {
      "inputs": [
        {
          "internalType": "address",
          "name": "target",
          "type": "address"
        }
      ],
      "name": "AddressEmptyCode",
      "type": "error"
    },
    {
      "inputs": [
        {
          "internalType": "address",
          "name": "account",
          "type": "address"
        }
      ],
      "name": "AddressInsufficientBalance",
      "type": "error"
    },
    {
      "inputs": [],
      "name": "FailedInnerCall",
      "type": "error"
    },
    {
      "inputs": [
        {
          "internalType": "uint256",
          "name": "received",
          "type": "uint256"
        },
        {
          "internalType": "uint256",
          "name": "expected",
          "type": "uint256"
        }
      ],
      "name": "InsufficientOutput",
      "type": "error"
    },
    {
      "inputs": [
        {
          "internalType": "address",
          "name": "owner",
          "type": "address"
        }
      ],
      "name": "OwnableInvalidOwner",
      "type": "error"
    },
    {
      "inputs": [
        {
          "internalType": "address",
          "name": "account",
          "type": "address"
        }
      ],
      "name": "OwnableUnauthorizedAccount",
      "type": "error"
    },
    {
      "inputs": [
        {
          "internalType": "address",
          "name": "token",
          "type": "address"
        }
      ],
      "name": "SafeERC20FailedOperation",
      "type": "error"
    },
    {
      "inputs": [
        {
          "internalType": "uint256",
          "name": "sharesBeforeWithdraw",
          "type": "uint256"
        },
        {
          "internalType": "uint256",
          "name": "sharesAfterWithdraw",
          "type": "uint256"
        }
      ],
      "name": "SharesNotDecreasedAfterFlashLoan",
      "type": "error"
    },
    {
      "inputs": [
        {
          "internalType": "uint256",
          "name": "underlyingAssetBalanceBefore",
          "type": "uint256"
        },
        {
          "internalType": "uint256",
          "name": "underlyingAssetBalanceAfter",
          "type": "uint256"
        }
      ],
      "name": "UnexpectedDecreaseInUnderlyingAsset",
      "type": "error"
    },
    {
      "inputs": [
        {
          "internalType": "uint256",
          "name": "dStableBalanceBefore",
          "type": "uint256"
        },
        {
          "internalType": "uint256",
          "name": "dStableBalanceAfter",
          "type": "uint256"
        }
      ],
      "name": "UnexpectedIncreaseInDStable",
      "type": "error"
    },
    {
      "inputs": [],
      "name": "UnknownInitiator",
      "type": "error"
    },
    {
      "inputs": [],
      "name": "UnknownLender",
      "type": "error"
    },
    {
      "inputs": [],
      "name": "UnknownToken",
      "type": "error"
    },
    {
      "anonymous": false,
      "inputs": [
        {
          "indexed": true,
          "internalType": "address",
          "name": "previousOwner",
          "type": "address"
        },
        {
          "indexed": true,
          "internalType": "address",
          "name": "newOwner",
          "type": "address"
        }
      ],
      "name": "OwnershipTransferred",
      "type": "event"
    },
    {
      "inputs": [],
      "name": "FLASHLOAN_CALLBACK",
      "outputs": [
        {
          "internalType": "bytes32",
          "name": "",
          "type": "bytes32"
        }
      ],
      "stateMutability": "view",
      "type": "function"
    },
    {
      "inputs": [],
      "name": "TARGET_LEVERAGE_BPS",
      "outputs": [
        {
          "internalType": "uint32",
          "name": "",
          "type": "uint32"
        }
      ],
      "stateMutability": "view",
      "type": "function"
    },
    {
      "inputs": [],
      "name": "dLoopCore",
      "outputs": [
        {
          "internalType": "contract DLoopCoreBase",
          "name": "",
          "type": "address"
        }
      ],
      "stateMutability": "view",
      "type": "function"
    },
    {
      "inputs": [],
      "name": "dStable",
      "outputs": [
        {
          "internalType": "contract ERC20",
          "name": "",
          "type": "address"
        }
      ],
      "stateMutability": "view",
      "type": "function"
    },
    {
      "inputs": [],
      "name": "flashLender",
      "outputs": [
        {
          "internalType": "contract IERC3156FlashLender",
          "name": "",
          "type": "address"
        }
      ],
      "stateMutability": "view",
      "type": "function"
    },
    {
      "inputs": [],
      "name": "odosRouter",
      "outputs": [
        {
          "internalType": "contract IOdosRouterV2",
          "name": "",
          "type": "address"
        }
      ],
      "stateMutability": "view",
      "type": "function"
    },
    {
      "inputs": [
        {
          "internalType": "address",
          "name": "initiator",
          "type": "address"
        },
        {
          "internalType": "address",
          "name": "token",
          "type": "address"
        },
        {
          "internalType": "uint256",
          "name": "",
          "type": "uint256"
        },
        {
          "internalType": "uint256",
          "name": "",
          "type": "uint256"
        },
        {
          "internalType": "bytes",
          "name": "data",
          "type": "bytes"
        }
      ],
      "name": "onFlashLoan",
      "outputs": [
        {
          "internalType": "bytes32",
          "name": "",
          "type": "bytes32"
        }
      ],
      "stateMutability": "nonpayable",
      "type": "function"
    },
    {
      "inputs": [],
      "name": "owner",
      "outputs": [
        {
          "internalType": "address",
          "name": "",
          "type": "address"
        }
      ],
      "stateMutability": "view",
      "type": "function"
    },
    {
      "inputs": [
        {
          "internalType": "uint256",
          "name": "shares",
          "type": "uint256"
        },
        {
          "internalType": "address",
          "name": "receiver",
          "type": "address"
        },
        {
          "internalType": "address",
          "name": "owner",
          "type": "address"
        },
        {
          "internalType": "uint256",
          "name": "slippageTolerance",
          "type": "uint256"
        },
        {
          "internalType": "uint256",
          "name": "minReceiveAmount",
          "type": "uint256"
        },
        {
          "internalType": "bytes",
          "name": "underlyingToDStableSwapData",
          "type": "bytes"
        }
      ],
      "name": "redeem",
      "outputs": [
        {
          "internalType": "uint256",
          "name": "assets",
          "type": "uint256"
        }
      ],
      "stateMutability": "nonpayable",
      "type": "function"
    },
    {
      "inputs": [],
      "name": "renounceOwnership",
      "outputs": [],
      "stateMutability": "nonpayable",
      "type": "function"
    },
    {
      "inputs": [
        {
          "internalType": "address",
          "name": "token",
          "type": "address"
        },
        {
          "internalType": "address",
          "name": "receiver",
          "type": "address"
        }
      ],
      "name": "rescueToken",
      "outputs": [],
      "stateMutability": "nonpayable",
      "type": "function"
    },
    {
      "inputs": [
        {
          "internalType": "address",
          "name": "newOwner",
          "type": "address"
        }
      ],
      "name": "transferOwnership",
      "outputs": [],
      "stateMutability": "nonpayable",
      "type": "function"
    },
    {
      "inputs": [],
      "name": "underlyingAsset",
      "outputs": [
        {
          "internalType": "contract ERC20",
          "name": "",
          "type": "address"
        }
      ],
      "stateMutability": "view",
      "type": "function"
    },
    {
      "inputs": [
        {
          "internalType": "uint256",
          "name": "assets",
          "type": "uint256"
        },
        {
          "internalType": "address",
          "name": "receiver",
          "type": "address"
        },
        {
          "internalType": "address",
          "name": "owner",
          "type": "address"
        },
        {
          "internalType": "uint256",
          "name": "slippageTolerance",
          "type": "uint256"
        },
        {
          "internalType": "uint256",
          "name": "minReceiveAmount",
          "type": "uint256"
        },
        {
          "internalType": "bytes",
          "name": "underlyingToDStableSwapData",
          "type": "bytes"
        }
      ],
      "name": "withdraw",
      "outputs": [
        {
          "internalType": "uint256",
          "name": "shares",
          "type": "uint256"
        }
      ],
      "stateMutability": "nonpayable",
      "type": "function"
    }
  ],
  "transactionHash": "0x36828a69956b1832f5edd6e5aac1012f8bd09ee8bc4f0d5f6bf99d4f8314034c",
  "args": [
    "0x0Dbf64462FEC588df32FC5C9941421F7d93e0Fb3",
    "0x4D6E79013212F10A026A1FB0b926C9Fd0432b96c",
    "0x4D6E79013212F10A026A1FB0b926C9Fd0432b96c",
    "0x64474f3447911DcA644E62A8EED3c422C5B7eFef",
    "0x56c85a254DD12eE8D9C04049a4ab62769Ce98210",
    50000
  ],
  "numDeployments": 1,
  "solcInputHash": "64609726e28d420f3d0a8f47cf2e9061",
  "bytecode": "0x61014060409080825234620002785760c08162001b2780380380916200002682856200027d565b83398101031262000278576200003c81620002b7565b916200004b60208301620002b7565b82820151936001600160a01b039190828616860362000278576060850151958387169384880362000278576080870151968188168803620002785760a001519433156200026057602092916004916000958654943360018060a01b031987161788558a5198899687953391167f8be0079c531659141344cd1fd0a4f28419497f9722a3daafe3b4186f6b6457e08b80a360e05260a05260c0526101009a8b526375ba52c960e01b82525afa9182156200025457819262000204575b5050608052600155610120918252519061185a9283620002cd843960805183818161032d0152611310015260a0518381816101620152818161055101526113a6015260c05183818161038e015281816106ff0152818161080e015281816108e60152818161099c01528181610a0901528181610b140152610bf6015260e05183818161059a0152818161074c015281816108640152818161092201528181610a8301528181610b3c01528181610bcd01528181610f2d01526113c90152518281816101a701528181610207015281816107c40152818161095401528181610a3b0152818161129201526117870152518181816102e10152610ba50152f35b9091506020813d82116200024b575b8162000222602093836200027d565b810103126200024757519063ffffffff82168203620002445750388062000106565b80fd5b5080fd5b3d915062000213565b508351903d90823e3d90fd5b8651631e4fbdf760e01b815260006004820152602490fd5b600080fd5b601f909101601f19168101906001600160401b03821190821017620002a157604052565b634e487b7160e01b600052604160045260246000fd5b51906001600160a01b0382168203620002785756fe608080604052600436101561001357600080fd5b60003560e01c9081630cc2f8d214610f1a5750806323e30c8b146104f55780632ae18104146104ba5780634707d00014610416578063715018a6146103bd5780637158da7c1461037857806371b9ac8b1461035157806375ba52c9146103105780638321928d146102cb5780638da5cb5b146102a25780639c9b9040146101d6578063a104a32f14610191578063a77144581461014c5763f2fde38b146100b957600080fd5b34610147576020366003190112610147576100d2610f5c565b6100da61109e565b6001600160a01b0390811690811561012e57600054826bffffffffffffffffffffffff60a01b821617600055167f8be0079c531659141344cd1fd0a4f28419497f9722a3daafe3b4186f6b6457e0600080a3005b604051631e4fbdf760e01b815260006004820152602490fd5b600080fd5b34610147576000366003190112610147576040517f00000000000000000000000000000000000000000000000000000000000000006001600160a01b03168152602090f35b34610147576000366003190112610147576040517f00000000000000000000000000000000000000000000000000000000000000006001600160a01b03168152602090f35b34610147576101e43661102f565b6040516363737ac960e11b815260048101969096529294939091906020856024817f00000000000000000000000000000000000000000000000000000000000000006001600160a01b03165afa9485156102965760009561025a575b509060209561025194939286611274565b50604051908152f35b9392919094506020843d821161028e575b8161027860209383610fba565b8101031261014757925193919290916020610240565b3d915061026b565b6040513d6000823e3d90fd5b34610147576000366003190112610147576000546040516001600160a01b039091168152602090f35b34610147576000366003190112610147576040517f00000000000000000000000000000000000000000000000000000000000000006001600160a01b03168152602090f35b3461014757600036600319011261014757602060405163ffffffff7f0000000000000000000000000000000000000000000000000000000000000000168152f35b346101475760206103706103643661102f565b94939093929192611274565b604051908152f35b34610147576000366003190112610147576040517f00000000000000000000000000000000000000000000000000000000000000006001600160a01b03168152602090f35b34610147576000366003190112610147576103d661109e565b600080546001600160a01b0319811682556001600160a01b03167f8be0079c531659141344cd1fd0a4f28419497f9722a3daafe3b4186f6b6457e08280a3005b346101475760403660031901126101475761042f610f5c565b610437610f72565b9061044061109e565b6040516370a0823160e01b8152306004820152916001600160a01b039190911690602083602481855afa91821561029657600092610485575b61048393506110ca565b005b91506020833d82116104b2575b8161049f60209383610fba565b8101031261014757610483925191610479565b3d9150610492565b346101475760003660031901126101475760206040517f439148f0bbc682ca079e46d6e2c2f0c1e3b820f1a291b069d8882abf8cf18dd98152f35b346101475760a03660031901126101475761050e610f5c565b610516610f72565b9060843567ffffffffffffffff92838211610147573660238301121561014757816004013592848411610147573660248585010111610147577f00000000000000000000000000000000000000000000000000000000000000006001600160a01b03163303610f0857306001600160a01b0390911603610ef6576001600160a01b037f00000000000000000000000000000000000000000000000000000000000000008116911603610ee4576105d0916024369201610ff8565b604051916105dd83610f88565b6000835260006020840152600060408401526000606084015260006080840152600060a0840152606060c0840152815182019160e0818403126101475761062660208201611810565b9261063360408301611810565b9260608301519260808101519260a08201519260c08301519260e08101519182116101475760208301603f838301011215610147576020828201015190602061067b83610fdc565b946106896040519687610fba565b838652016040838584010101116101475760406106ac936020860192010161122c565b60c088015260a0870152608086015260608501526040808501919091526001600160a01b039182166020808601919091529282168452516370a0823160e01b8152306004820152929190839060249082907f0000000000000000000000000000000000000000000000000000000000000000165afa91821561029657600092610eb0575b506040516370a0823160e01b81523060048201526020816024817f00000000000000000000000000000000000000000000000000000000000000006001600160a01b03165afa90811561029657600091610e7e575b50604082015160018060a01b0383511660405191635d043b2960e11b835260048301523060248301526044820152602081606481600060018060a01b037f0000000000000000000000000000000000000000000000000000000000000000165af1801561029657610e53575b506040516370a0823160e01b8152306004820152926020846024817f00000000000000000000000000000000000000000000000000000000000000006001600160a01b03165afa93841561029657600094610e1f575b506040516370a0823160e01b8152306004820152936020856024817f00000000000000000000000000000000000000000000000000000000000000006001600160a01b03165afa94851561029657600095610deb575b50828511610dcd57818110610daf576108c092916108ba916117d9565b936117d9565b9160a0820151808210610d915750602082015161090b91906001600160a01b03908116907f0000000000000000000000000000000000000000000000000000000000000000166110ca565b6040516363880e0960e11b81526001600160a01b037f000000000000000000000000000000000000000000000000000000000000000081166004830152602090829060249082907f0000000000000000000000000000000000000000000000000000000000000000165afa90811561029657600091610d5f575b5060405163313ce56760e01b8152906020826004817f00000000000000000000000000000000000000000000000000000000000000006001600160a01b03165afa908115610296576109e66109ec926109f294600091610cfe575b506117ff565b90611219565b83611219565b6040516363880e0960e11b81526001600160a01b037f000000000000000000000000000000000000000000000000000000000000000081166004830152602090829060249082907f0000000000000000000000000000000000000000000000000000000000000000165afa90811561029657600091610d2d575b5060405163313ce56760e01b8152906020826004817f00000000000000000000000000000000000000000000000000000000000000006001600160a01b03165afa91821561029657610ac9926109e691600091610cfe57506117ff565b908115610ce857608083015191620f424092830190818411610cd257610aef9204611219565b048015610c955760c091909101516040516348985cbd60e11b81526001600160a01b037f0000000000000000000000000000000000000000000000000000000000000000811660048301527f0000000000000000000000000000000000000000000000000000000000000000166024820152604481019390935260648301919091523060848301524260a483015261014060c483015260209082908190610b9b9061014483019061124f565b6001600160a01b037f0000000000000000000000000000000000000000000000000000000000000000811660e48401527f000000000000000000000000000000000000000000000000000000000000000081166101048401527f000000000000000000000000000000000000000000000000000000000000000016610124830152038173a38D9849dC7aDEE74f5Ff2a939bDcBc31289F5B45af4801561029657610c6a575b60206040517f439148f0bbc682ca079e46d6e2c2f0c1e3b820f1a291b069d8882abf8cf18dd98152f35b602090813d8311610c8e575b610c808183610fba565b810103126101475780610c40565b503d610c76565b60405162461bcd60e51b81526020600482015260156024820152746d6178496e206973206e6f7420706f73697469766560581b6044820152606490fd5b634e487b7160e01b600052601160045260246000fd5b634e487b7160e01b600052601260045260246000fd5b610d20915060203d602011610d26575b610d188183610fba565b8101906117e6565b876109e0565b503d610d0e565b90506020813d602011610d57575b81610d4860209383610fba565b81010312610147575184610a6c565b3d9150610d3b565b90506020813d602011610d89575b81610d7a60209383610fba565b81010312610147575183610985565b3d9150610d6d565b6044925060405191630583371760e31b835260048301526024820152fd5b6044925060405191636e9b3f0360e11b835260048301526024820152fd5b60448386604051916306c0820760e21b835260048301526024820152fd5b9094506020813d602011610e17575b81610e0760209383610fba565b810103126101475751938561089d565b3d9150610dfa565b9093506020813d602011610e4b575b81610e3b60209383610fba565b8101031261014757519284610847565b3d9150610e2e565b602090813d8311610e77575b610e698183610fba565b8101031261014757836107f1565b503d610e5f565b90506020813d602011610ea8575b81610e9960209383610fba565b81010312610147575183610785565b3d9150610e8c565b9091506020813d602011610edc575b81610ecc60209383610fba565b8101031261014757519082610730565b3d9150610ebf565b604051638698bf3760e01b8152600490fd5b604051634ac321c360e11b8152600490fd5b604051631e4a393d60e31b8152600490fd5b34610147576000366003190112610147577f00000000000000000000000000000000000000000000000000000000000000006001600160a01b03168152602090f35b600435906001600160a01b038216820361014757565b602435906001600160a01b038216820361014757565b60e0810190811067ffffffffffffffff821117610fa457604052565b634e487b7160e01b600052604160045260246000fd5b90601f8019910116810190811067ffffffffffffffff821117610fa457604052565b67ffffffffffffffff8111610fa457601f01601f191660200190565b92919261100482610fdc565b916110126040519384610fba565b829481845281830111610147578281602093846000960137010152565b9060c060031983011261014757600435916001600160a01b03916024358381168103610147579260443590811681036101475791606435916084359160a4359067ffffffffffffffff821161014757806023830112156101475781602461109b93600401359101610ff8565b90565b6000546001600160a01b031633036110b257565b60405163118cdaa760e01b8152336004820152602490fd5b60405163a9059cbb60e01b602082019081526001600160a01b0393909316602482015260448082019490945292835261114d9160009182919061110e606487610fba565b60018060a01b031694519082865af13d15611196573d9061112e82610fdc565b9161113c6040519384610fba565b82523d6000602084013e5b836111b6565b805190811515918261117b575b50506111635750565b60249060405190635274afe760e01b82526004820152fd5b61118e925060208091830101910161119e565b15388061115a565b606090611147565b90816020910312610147575180151581036101475790565b906111dd57508051156111cb57805190602001fd5b604051630a12f52160e11b8152600490fd5b81511580611210575b6111ee575090565b604051639996b31560e01b81526001600160a01b039091166004820152602490fd5b50803b156111e6565b81810292918115918404141715610cd257565b60005b83811061123f5750506000910152565b818101518382015260200161122f565b906020916112688151809281855285808601910161122c565b601f01601f1916010190565b939594909392916001600160a01b0391908216338103611763575b827f000000000000000000000000000000000000000000000000000000000000000016906040928351998a966303d1689d60e11b8852600499898b8a01526020998a60249a8b818a5afa9d8e156116e05760009e611725575b50936113a3938b938f9e9f93878b8560c08f8d9c8d91620f42406113366113959d63ffffffff7f00000000000000000000000000000000000000000000000000000000000000001690611219565b049786519361134485610f88565b84521694858d8401528201528560608201528660808201528760a082015201528c51998a988901528c8801526060870152608086015260a085015260c084015260e08084015261010083019061124f565b03601f198101835282610fba565b847f000000000000000000000000000000000000000000000000000000000000000016947f00000000000000000000000000000000000000000000000000000000000000001684519063613255ab60e01b8252808a830152888289818a5afa91821561171a576000926116eb575b508551966370a0823160e01b93848952858c8a01528a898b818a5afa9889156116e05760009961169f575b508751633676633960e21b81526001600160a01b038416818e01908152602081018690528c90829081906040010381865afa90811561165357600091611672575b50840180851161165e57885163095ea7b360e01b81526001600160a01b038416818f019081526020810192909252908c908290819060400103816000885af190811561165357600091611636575b50156115e257908960008d61150d8e96958c5198899788968795632e7ff4ef60e11b87523090870152850152604484015260806064840152608483019061124f565b03925af180156115d7579187918994936115aa575b508551948593849283528b8301525afa94851561159f5760009561156b575b50508184101561155357505050505090565b51632b9e770560e11b81529384015282015260449150fd5b8181969293963d8311611598575b6115838183610fba565b81010312611595575051923880611541565b80fd5b503d611579565b82513d6000823e3d90fd5b6115c990853d87116115d0575b6115c18183610fba565b81019061119e565b5038611522565b503d6115b7565b85513d6000823e3d90fd5b875162461bcd60e51b8152808d018c90526029818c01527f617070726f7665206661696c656420666f7220666c617368206c656e64657220604482015268696e2072656465656d60b81b6064820152608490fd5b61164d91508c8d3d106115d0576115c18183610fba565b386114cb565b89513d6000823e3d90fd5b8a60118e634e487b7160e01b600052526000fd5b908c82813d8311611698575b6116888183610fba565b810103126115955750513861147d565b503d61167e565b8b809b9a9f9e9d9c82903d83116116d9575b6116bb8183610fba565b810103126116d557519c9d509a9b999a989997988361143c565b8e80fd5b503d6116b1565b88513d6000823e3d90fd5b90918982813d8311611713575b6117028183610fba565b810103126115955750519038611411565b503d6116f8565b86513d6000823e3d90fd5b9094939d8b82819c9b9e9d3d831161175c575b6117428183610fba565b810103126115955750519c999a98999798979293856112e8565b503d611738565b60405163095ea7b360e01b81523060048201526024810186905260208160448160007f000000000000000000000000000000000000000000000000000000000000000089165af18015610296576117bb575b5061128f565b6117d29060203d81116115d0576115c18183610fba565b50386117b5565b91908203918211610cd257565b90816020910312610147575160ff811681036101475790565b60ff16604d8111610cd257600a0a90565b51906001600160a01b03821682036101475756fea26469706673582212204eb0d5668f11781435ada35e5934b23afe1d299273ddbf845a4bbc5ba4b6df6f64736f6c63430008140033",
  "deployedBytecode": "0x608080604052600436101561001357600080fd5b60003560e01c9081630cc2f8d214610f1a5750806323e30c8b146104f55780632ae18104146104ba5780634707d00014610416578063715018a6146103bd5780637158da7c1461037857806371b9ac8b1461035157806375ba52c9146103105780638321928d146102cb5780638da5cb5b146102a25780639c9b9040146101d6578063a104a32f14610191578063a77144581461014c5763f2fde38b146100b957600080fd5b34610147576020366003190112610147576100d2610f5c565b6100da61109e565b6001600160a01b0390811690811561012e57600054826bffffffffffffffffffffffff60a01b821617600055167f8be0079c531659141344cd1fd0a4f28419497f9722a3daafe3b4186f6b6457e0600080a3005b604051631e4fbdf760e01b815260006004820152602490fd5b600080fd5b34610147576000366003190112610147576040517f00000000000000000000000000000000000000000000000000000000000000006001600160a01b03168152602090f35b34610147576000366003190112610147576040517f00000000000000000000000000000000000000000000000000000000000000006001600160a01b03168152602090f35b34610147576101e43661102f565b6040516363737ac960e11b815260048101969096529294939091906020856024817f00000000000000000000000000000000000000000000000000000000000000006001600160a01b03165afa9485156102965760009561025a575b509060209561025194939286611274565b50604051908152f35b9392919094506020843d821161028e575b8161027860209383610fba565b8101031261014757925193919290916020610240565b3d915061026b565b6040513d6000823e3d90fd5b34610147576000366003190112610147576000546040516001600160a01b039091168152602090f35b34610147576000366003190112610147576040517f00000000000000000000000000000000000000000000000000000000000000006001600160a01b03168152602090f35b3461014757600036600319011261014757602060405163ffffffff7f0000000000000000000000000000000000000000000000000000000000000000168152f35b346101475760206103706103643661102f565b94939093929192611274565b604051908152f35b34610147576000366003190112610147576040517f00000000000000000000000000000000000000000000000000000000000000006001600160a01b03168152602090f35b34610147576000366003190112610147576103d661109e565b600080546001600160a01b0319811682556001600160a01b03167f8be0079c531659141344cd1fd0a4f28419497f9722a3daafe3b4186f6b6457e08280a3005b346101475760403660031901126101475761042f610f5c565b610437610f72565b9061044061109e565b6040516370a0823160e01b8152306004820152916001600160a01b039190911690602083602481855afa91821561029657600092610485575b61048393506110ca565b005b91506020833d82116104b2575b8161049f60209383610fba565b8101031261014757610483925191610479565b3d9150610492565b346101475760003660031901126101475760206040517f439148f0bbc682ca079e46d6e2c2f0c1e3b820f1a291b069d8882abf8cf18dd98152f35b346101475760a03660031901126101475761050e610f5c565b610516610f72565b9060843567ffffffffffffffff92838211610147573660238301121561014757816004013592848411610147573660248585010111610147577f00000000000000000000000000000000000000000000000000000000000000006001600160a01b03163303610f0857306001600160a01b0390911603610ef6576001600160a01b037f00000000000000000000000000000000000000000000000000000000000000008116911603610ee4576105d0916024369201610ff8565b604051916105dd83610f88565b6000835260006020840152600060408401526000606084015260006080840152600060a0840152606060c0840152815182019160e0818403126101475761062660208201611810565b9261063360408301611810565b9260608301519260808101519260a08201519260c08301519260e08101519182116101475760208301603f838301011215610147576020828201015190602061067b83610fdc565b946106896040519687610fba565b838652016040838584010101116101475760406106ac936020860192010161122c565b60c088015260a0870152608086015260608501526040808501919091526001600160a01b039182166020808601919091529282168452516370a0823160e01b8152306004820152929190839060249082907f0000000000000000000000000000000000000000000000000000000000000000165afa91821561029657600092610eb0575b506040516370a0823160e01b81523060048201526020816024817f00000000000000000000000000000000000000000000000000000000000000006001600160a01b03165afa90811561029657600091610e7e575b50604082015160018060a01b0383511660405191635d043b2960e11b835260048301523060248301526044820152602081606481600060018060a01b037f0000000000000000000000000000000000000000000000000000000000000000165af1801561029657610e53575b506040516370a0823160e01b8152306004820152926020846024817f00000000000000000000000000000000000000000000000000000000000000006001600160a01b03165afa93841561029657600094610e1f575b506040516370a0823160e01b8152306004820152936020856024817f00000000000000000000000000000000000000000000000000000000000000006001600160a01b03165afa94851561029657600095610deb575b50828511610dcd57818110610daf576108c092916108ba916117d9565b936117d9565b9160a0820151808210610d915750602082015161090b91906001600160a01b03908116907f0000000000000000000000000000000000000000000000000000000000000000166110ca565b6040516363880e0960e11b81526001600160a01b037f000000000000000000000000000000000000000000000000000000000000000081166004830152602090829060249082907f0000000000000000000000000000000000000000000000000000000000000000165afa90811561029657600091610d5f575b5060405163313ce56760e01b8152906020826004817f00000000000000000000000000000000000000000000000000000000000000006001600160a01b03165afa908115610296576109e66109ec926109f294600091610cfe575b506117ff565b90611219565b83611219565b6040516363880e0960e11b81526001600160a01b037f000000000000000000000000000000000000000000000000000000000000000081166004830152602090829060249082907f0000000000000000000000000000000000000000000000000000000000000000165afa90811561029657600091610d2d575b5060405163313ce56760e01b8152906020826004817f00000000000000000000000000000000000000000000000000000000000000006001600160a01b03165afa91821561029657610ac9926109e691600091610cfe57506117ff565b908115610ce857608083015191620f424092830190818411610cd257610aef9204611219565b048015610c955760c091909101516040516348985cbd60e11b81526001600160a01b037f0000000000000000000000000000000000000000000000000000000000000000811660048301527f0000000000000000000000000000000000000000000000000000000000000000166024820152604481019390935260648301919091523060848301524260a483015261014060c483015260209082908190610b9b9061014483019061124f565b6001600160a01b037f0000000000000000000000000000000000000000000000000000000000000000811660e48401527f000000000000000000000000000000000000000000000000000000000000000081166101048401527f000000000000000000000000000000000000000000000000000000000000000016610124830152038173__$12180f5cf37829c471e27cca7367accce0$__5af4801561029657610c6a575b60206040517f439148f0bbc682ca079e46d6e2c2f0c1e3b820f1a291b069d8882abf8cf18dd98152f35b602090813d8311610c8e575b610c808183610fba565b810103126101475780610c40565b503d610c76565b60405162461bcd60e51b81526020600482015260156024820152746d6178496e206973206e6f7420706f73697469766560581b6044820152606490fd5b634e487b7160e01b600052601160045260246000fd5b634e487b7160e01b600052601260045260246000fd5b610d20915060203d602011610d26575b610d188183610fba565b8101906117e6565b876109e0565b503d610d0e565b90506020813d602011610d57575b81610d4860209383610fba565b81010312610147575184610a6c565b3d9150610d3b565b90506020813d602011610d89575b81610d7a60209383610fba565b81010312610147575183610985565b3d9150610d6d565b6044925060405191630583371760e31b835260048301526024820152fd5b6044925060405191636e9b3f0360e11b835260048301526024820152fd5b60448386604051916306c0820760e21b835260048301526024820152fd5b9094506020813d602011610e17575b81610e0760209383610fba565b810103126101475751938561089d565b3d9150610dfa565b9093506020813d602011610e4b575b81610e3b60209383610fba565b8101031261014757519284610847565b3d9150610e2e565b602090813d8311610e77575b610e698183610fba565b8101031261014757836107f1565b503d610e5f565b90506020813d602011610ea8575b81610e9960209383610fba565b81010312610147575183610785565b3d9150610e8c565b9091506020813d602011610edc575b81610ecc60209383610fba565b8101031261014757519082610730565b3d9150610ebf565b604051638698bf3760e01b8152600490fd5b604051634ac321c360e11b8152600490fd5b604051631e4a393d60e31b8152600490fd5b34610147576000366003190112610147577f00000000000000000000000000000000000000000000000000000000000000006001600160a01b03168152602090f35b600435906001600160a01b038216820361014757565b602435906001600160a01b038216820361014757565b60e0810190811067ffffffffffffffff821117610fa457604052565b634e487b7160e01b600052604160045260246000fd5b90601f8019910116810190811067ffffffffffffffff821117610fa457604052565b67ffffffffffffffff8111610fa457601f01601f191660200190565b92919261100482610fdc565b916110126040519384610fba565b829481845281830111610147578281602093846000960137010152565b9060c060031983011261014757600435916001600160a01b03916024358381168103610147579260443590811681036101475791606435916084359160a4359067ffffffffffffffff821161014757806023830112156101475781602461109b93600401359101610ff8565b90565b6000546001600160a01b031633036110b257565b60405163118cdaa760e01b8152336004820152602490fd5b60405163a9059cbb60e01b602082019081526001600160a01b0393909316602482015260448082019490945292835261114d9160009182919061110e606487610fba565b60018060a01b031694519082865af13d15611196573d9061112e82610fdc565b9161113c6040519384610fba565b82523d6000602084013e5b836111b6565b805190811515918261117b575b50506111635750565b60249060405190635274afe760e01b82526004820152fd5b61118e925060208091830101910161119e565b15388061115a565b606090611147565b90816020910312610147575180151581036101475790565b906111dd57508051156111cb57805190602001fd5b604051630a12f52160e11b8152600490fd5b81511580611210575b6111ee575090565b604051639996b31560e01b81526001600160a01b039091166004820152602490fd5b50803b156111e6565b81810292918115918404141715610cd257565b60005b83811061123f5750506000910152565b818101518382015260200161122f565b906020916112688151809281855285808601910161122c565b601f01601f1916010190565b939594909392916001600160a01b0391908216338103611763575b827f000000000000000000000000000000000000000000000000000000000000000016906040928351998a966303d1689d60e11b8852600499898b8a01526020998a60249a8b818a5afa9d8e156116e05760009e611725575b50936113a3938b938f9e9f93878b8560c08f8d9c8d91620f42406113366113959d63ffffffff7f00000000000000000000000000000000000000000000000000000000000000001690611219565b049786519361134485610f88565b84521694858d8401528201528560608201528660808201528760a082015201528c51998a988901528c8801526060870152608086015260a085015260c084015260e08084015261010083019061124f565b03601f198101835282610fba565b847f000000000000000000000000000000000000000000000000000000000000000016947f00000000000000000000000000000000000000000000000000000000000000001684519063613255ab60e01b8252808a830152888289818a5afa91821561171a576000926116eb575b508551966370a0823160e01b93848952858c8a01528a898b818a5afa9889156116e05760009961169f575b508751633676633960e21b81526001600160a01b038416818e01908152602081018690528c90829081906040010381865afa90811561165357600091611672575b50840180851161165e57885163095ea7b360e01b81526001600160a01b038416818f019081526020810192909252908c908290819060400103816000885af190811561165357600091611636575b50156115e257908960008d61150d8e96958c5198899788968795632e7ff4ef60e11b87523090870152850152604484015260806064840152608483019061124f565b03925af180156115d7579187918994936115aa575b508551948593849283528b8301525afa94851561159f5760009561156b575b50508184101561155357505050505090565b51632b9e770560e11b81529384015282015260449150fd5b8181969293963d8311611598575b6115838183610fba565b81010312611595575051923880611541565b80fd5b503d611579565b82513d6000823e3d90fd5b6115c990853d87116115d0575b6115c18183610fba565b81019061119e565b5038611522565b503d6115b7565b85513d6000823e3d90fd5b875162461bcd60e51b8152808d018c90526029818c01527f617070726f7665206661696c656420666f7220666c617368206c656e64657220604482015268696e2072656465656d60b81b6064820152608490fd5b61164d91508c8d3d106115d0576115c18183610fba565b386114cb565b89513d6000823e3d90fd5b8a60118e634e487b7160e01b600052526000fd5b908c82813d8311611698575b6116888183610fba565b810103126115955750513861147d565b503d61167e565b8b809b9a9f9e9d9c82903d83116116d9575b6116bb8183610fba565b810103126116d557519c9d509a9b999a989997988361143c565b8e80fd5b503d6116b1565b88513d6000823e3d90fd5b90918982813d8311611713575b6117028183610fba565b810103126115955750519038611411565b503d6116f8565b86513d6000823e3d90fd5b9094939d8b82819c9b9e9d3d831161175c575b6117428183610fba565b810103126115955750519c999a98999798979293856112e8565b503d611738565b60405163095ea7b360e01b81523060048201526024810186905260208160448160007f000000000000000000000000000000000000000000000000000000000000000089165af18015610296576117bb575b5061128f565b6117d29060203d81116115d0576115c18183610fba565b50386117b5565b91908203918211610cd257565b90816020910312610147575160ff811681036101475790565b60ff16604d8111610cd257600a0a90565b51906001600160a01b03821682036101475756fea26469706673582212204eb0d5668f11781435ada35e5934b23afe1d299273ddbf845a4bbc5ba4b6df6f64736f6c63430008140033",
  "libraries": {
    "OdosSwapLogic": "0xa38D9849dC7aDEE74f5Ff2a939bDcBc31289F5B4"
  },
  "devdoc": {
    "details": "Implementation of DLoopWithdrawerBase with Odos swap functionality",
    "errors": {
      "AddressEmptyCode(address)": [
        {
          "details": "There's no code at `target` (it is not a contract)."
        }
      ],
      "AddressInsufficientBalance(address)": [
        {
          "details": "The ETH balance of the account is not enough to perform the operation."
        }
      ],
      "FailedInnerCall()": [
        {
          "details": "A call to an address target failed. The target may have reverted."
        }
      ],
      "OwnableInvalidOwner(address)": [
        {
          "details": "The owner is not a valid owner account. (eg. `address(0)`)"
        }
      ],
      "OwnableUnauthorizedAccount(address)": [
        {
          "details": "The caller account is not authorized to perform an operation."
        }
      ],
      "SafeERC20FailedOperation(address)": [
        {
          "details": "An operation with an ERC20 token failed."
        }
      ]
    },
    "kind": "dev",
    "methods": {
      "constructor": {
        "details": "Constructor for the DLoopWithdrawerOdos contract",
        "params": {
          "_dLoopCore": "Address of the dLoopCore contract",
          "_dStable": "Address of the dStable token",
          "_flashLender": "Address of the flash loan provider",
          "_odosRouter": "Address of the Odos router",
          "_swapSlippageTolerance": "Swap slippage tolerance in basis points",
          "_underlyingAsset": "Address of the underlying asset"
        }
      },
      "onFlashLoan(address,address,uint256,uint256,bytes)": {
        "details": "Callback function for flash loans",
        "params": {
          "data": "Encoded flash loan parameters",
          "initiator": "Address that initiated the flash loan",
          "token": "Address of the flash-borrowed token"
        },
        "returns": {
          "_0": "bytes32 The flash loan callback success bytes"
        }
      },
      "owner()": {
        "details": "Returns the address of the current owner."
      },
      "redeem(uint256,address,address,uint256,uint256,bytes)": {
        "details": "Redeems shares from the core vault",
        "params": {
          "minReceiveAmount": "Minimum amount of assets to receive",
          "owner": "Address that owns the shares",
          "receiver": "Address to receive the assets",
          "shares": "Amount of shares to redeem",
          "slippageTolerance": "Slippage tolerance for the swap",
          "underlyingToDStableSwapData": "Swap data from underlying asset to dStable"
        },
        "returns": {
          "assets": "Amount of assets redeemed"
        }
      },
      "renounceOwnership()": {
        "details": "Leaves the contract without owner. It will not be possible to call `onlyOwner` functions. Can only be called by the current owner. NOTE: Renouncing ownership will leave the contract without an owner, thereby disabling any functionality that is only available to the owner."
      },
      "rescueToken(address,address)": {
        "details": "Rescues tokens accidentally sent to the contract",
        "params": {
          "receiver": "Address to receive the rescued tokens",
          "token": "Address of the token to rescue"
        }
      },
      "transferOwnership(address)": {
        "details": "Transfers ownership of the contract to a new account (`newOwner`). Can only be called by the current owner."
      },
      "withdraw(uint256,address,address,uint256,uint256,bytes)": {
        "details": "Withdraws assets from the core vault",
        "params": {
          "assets": "Amount of assets to withdraw",
          "minReceiveAmount": "Minimum amount of assets to receive",
          "owner": "Address that owns the shares",
          "receiver": "Address to receive the assets",
          "slippageTolerance": "Slippage tolerance for the swap",
          "underlyingToDStableSwapData": "Swap data from underlying asset to dStable"
        },
        "returns": {
          "shares": "Amount of shares burned"
        }
      }
    },
    "title": "DLoopWithdrawerOdos",
    "version": 1
  },
  "userdoc": {
    "kind": "user",
    "methods": {},
    "version": 1
  },
  "storageLayout": {
    "storage": [
      {
        "astId": 8,
        "contract": "contracts/vault/dLOOP/periphery/venue/odos/DLoopWithdrawerOdos.sol:DLoopWithdrawerOdos",
        "label": "_owner",
        "offset": 0,
        "slot": "0",
        "type": "t_address"
      },
      {
        "astId": 6413,
        "contract": "contracts/vault/dLOOP/periphery/venue/odos/DLoopWithdrawerOdos.sol:DLoopWithdrawerOdos",
        "label": "_defaultSwapSlippageTolerance",
        "offset": 0,
        "slot": "1",
        "type": "t_uint256"
      }
    ],
    "types": {
      "t_address": {
        "encoding": "inplace",
        "label": "address",
        "numberOfBytes": "20"
      },
      "t_uint256": {
        "encoding": "inplace",
        "label": "uint256",
        "numberOfBytes": "32"
      }
    }
  }
}