{
  "address": "0x5944187839825FA7C742D9f1cC2bb50993c4A91E",
  "abi": [
    {
      "inputs": [
        {
          "internalType": "string",
          "name": "_name",
          "type": "string"
        },
        {
          "internalType": "string",
          "name": "_symbol",
          "type": "string"
        },
        {
          "internalType": "contract ERC20",
          "name": "_underlyingAsset",
          "type": "address"
        },
        {
          "internalType": "contract ERC20",
          "name": "_dusd",
          "type": "address"
        },
        {
          "internalType": "contract IERC3156FlashLender",
          "name": "_flashLender",
          "type": "address"
        },
        {
          "internalType": "contract ICurveRouterNgPoolsOnlyV1",
          "name": "_curveRouter",
          "type": "address"
        },
        {
          "components": [
            {
              "internalType": "address[11]",
              "name": "route",
              "type": "address[11]"
            },
            {
              "internalType": "uint256[4][5]",
              "name": "swapParams",
              "type": "uint256[4][5]"
            },
            {
              "internalType": "uint256",
              "name": "swapSlippageBufferBps",
              "type": "uint256"
            }
          ],
          "internalType": "struct DLoopVaultCurve.CurveSwapExtraParams",
          "name": "_defaultDUSDToUnderlyingSwapExtraParams",
          "type": "tuple"
        },
        {
          "components": [
            {
              "internalType": "address[11]",
              "name": "route",
              "type": "address[11]"
            },
            {
              "internalType": "uint256[4][5]",
              "name": "swapParams",
              "type": "uint256[4][5]"
            },
            {
              "internalType": "uint256",
              "name": "swapSlippageBufferBps",
              "type": "uint256"
            }
          ],
          "internalType": "struct DLoopVaultCurve.CurveSwapExtraParams",
          "name": "_defaultUnderlyingToDUSDSwapExtraParams",
          "type": "tuple"
        },
        {
          "internalType": "contract IPoolAddressesProvider",
          "name": "_lendingPoolAddressesProvider",
          "type": "address"
        },
        {
          "internalType": "uint32",
          "name": "_targetLeverageBps",
          "type": "uint32"
        },
        {
          "internalType": "uint256",
          "name": "_swapSlippageTolerance",
          "type": "uint256"
        },
        {
          "internalType": "uint256",
          "name": "_maxSubsidyBps",
          "type": "uint256"
        },
        {
          "internalType": "uint256",
          "name": "_maxSlippageSurplusSwapBps",
          "type": "uint256"
        }
      ],
      "stateMutability": "nonpayable",
      "type": "constructor"
    },
    {
      "inputs": [
        {
          "internalType": "address",
          "name": "target",
          "type": "address"
        }
      ],
      "name": "AddressEmptyCode",
      "type": "error"
    },
    {
      "inputs": [
        {
          "internalType": "address",
          "name": "account",
          "type": "address"
        }
      ],
      "name": "AddressInsufficientBalance",
      "type": "error"
    },
    {
      "inputs": [
        {
          "internalType": "uint256",
          "name": "assetPrice",
          "type": "uint256"
        },
        {
          "internalType": "uint256",
          "name": "minPrice",
          "type": "uint256"
        }
      ],
      "name": "BelowMinPrice",
      "type": "error"
    },
    {
      "inputs": [
        {
          "internalType": "uint256",
          "name": "totalCollateralBase",
          "type": "uint256"
        },
        {
          "internalType": "uint256",
          "name": "totalDebtBase",
          "type": "uint256"
        }
      ],
      "name": "CollateralLessThanDebt",
      "type": "error"
    },
    {
      "inputs": [
        {
          "internalType": "uint256",
          "name": "newLeverageBps",
          "type": "uint256"
        },
        {
          "internalType": "uint256",
          "name": "targetLeverageBps",
          "type": "uint256"
        },
        {
          "internalType": "uint256",
          "name": "currentLeverageBps",
          "type": "uint256"
        }
      ],
      "name": "DecreaseLeverageOutOfRange",
      "type": "error"
    },
    {
      "inputs": [
        {
          "internalType": "uint256",
          "name": "currentBalance",
          "type": "uint256"
        },
        {
          "internalType": "uint256",
          "name": "newTotalAssets",
          "type": "uint256"
        }
      ],
      "name": "DepositInsufficientToSupply",
      "type": "error"
    },
    {
      "inputs": [
        {
          "internalType": "address",
          "name": "spender",
          "type": "address"
        },
        {
          "internalType": "uint256",
          "name": "allowance",
          "type": "uint256"
        },
        {
          "internalType": "uint256",
          "name": "needed",
          "type": "uint256"
        }
      ],
      "name": "ERC20InsufficientAllowance",
      "type": "error"
    },
    {
      "inputs": [
        {
          "internalType": "address",
          "name": "sender",
          "type": "address"
        },
        {
          "internalType": "uint256",
          "name": "balance",
          "type": "uint256"
        },
        {
          "internalType": "uint256",
          "name": "needed",
          "type": "uint256"
        }
      ],
      "name": "ERC20InsufficientBalance",
      "type": "error"
    },
    {
      "inputs": [
        {
          "internalType": "address",
          "name": "approver",
          "type": "address"
        }
      ],
      "name": "ERC20InvalidApprover",
      "type": "error"
    },
    {
      "inputs": [
        {
          "internalType": "address",
          "name": "receiver",
          "type": "address"
        }
      ],
      "name": "ERC20InvalidReceiver",
      "type": "error"
    },
    {
      "inputs": [
        {
          "internalType": "address",
          "name": "sender",
          "type": "address"
        }
      ],
      "name": "ERC20InvalidSender",
      "type": "error"
    },
    {
      "inputs": [
        {
          "internalType": "address",
          "name": "spender",
          "type": "address"
        }
      ],
      "name": "ERC20InvalidSpender",
      "type": "error"
    },
    {
      "inputs": [
        {
          "internalType": "address",
          "name": "receiver",
          "type": "address"
        },
        {
          "internalType": "uint256",
          "name": "assets",
          "type": "uint256"
        },
        {
          "internalType": "uint256",
          "name": "max",
          "type": "uint256"
        }
      ],
      "name": "ERC4626ExceededMaxDeposit",
      "type": "error"
    },
    {
      "inputs": [
        {
          "internalType": "address",
          "name": "receiver",
          "type": "address"
        },
        {
          "internalType": "uint256",
          "name": "shares",
          "type": "uint256"
        },
        {
          "internalType": "uint256",
          "name": "max",
          "type": "uint256"
        }
      ],
      "name": "ERC4626ExceededMaxMint",
      "type": "error"
    },
    {
      "inputs": [
        {
          "internalType": "address",
          "name": "owner",
          "type": "address"
        },
        {
          "internalType": "uint256",
          "name": "shares",
          "type": "uint256"
        },
        {
          "internalType": "uint256",
          "name": "max",
          "type": "uint256"
        }
      ],
      "name": "ERC4626ExceededMaxRedeem",
      "type": "error"
    },
    {
      "inputs": [
        {
          "internalType": "address",
          "name": "owner",
          "type": "address"
        },
        {
          "internalType": "uint256",
          "name": "assets",
          "type": "uint256"
        },
        {
          "internalType": "uint256",
          "name": "max",
          "type": "uint256"
        }
      ],
      "name": "ERC4626ExceededMaxWithdraw",
      "type": "error"
    },
    {
      "inputs": [
        {
          "internalType": "uint256",
          "name": "assetPrice",
          "type": "uint256"
        },
        {
          "internalType": "uint256",
          "name": "maxPrice",
          "type": "uint256"
        }
      ],
      "name": "ExceedMaxPrice",
      "type": "error"
    },
    {
      "inputs": [],
      "name": "FailedInnerCall",
      "type": "error"
    },
    {
      "inputs": [
        {
          "internalType": "uint256",
          "name": "newLeverageBps",
          "type": "uint256"
        },
        {
          "internalType": "uint256",
          "name": "targetLeverageBps",
          "type": "uint256"
        },
        {
          "internalType": "uint256",
          "name": "currentLeverageBps",
          "type": "uint256"
        }
      ],
      "name": "IncreaseLeverageOutOfRange",
      "type": "error"
    },
    {
      "inputs": [
        {
          "internalType": "uint256",
          "name": "amountIn",
          "type": "uint256"
        },
        {
          "internalType": "uint256",
          "name": "maxAmountIn",
          "type": "uint256"
        }
      ],
      "name": "InputAmountExceedsMaximum",
      "type": "error"
    },
    {
      "inputs": [
        {
          "internalType": "address",
          "name": "token",
          "type": "address"
        },
        {
          "internalType": "uint256",
          "name": "estimatedInputAmount",
          "type": "uint256"
        },
        {
          "internalType": "uint256",
          "name": "currentBalance",
          "type": "uint256"
        }
      ],
      "name": "InsufficientInputAmount",
      "type": "error"
    },
    {
      "inputs": [
        {
          "internalType": "address",
          "name": "owner",
          "type": "address"
        },
        {
          "internalType": "uint256",
          "name": "sharesToRedeem",
          "type": "uint256"
        },
        {
          "internalType": "uint256",
          "name": "shareBalance",
          "type": "uint256"
        }
      ],
      "name": "InsufficientShareBalanceToRedeem",
      "type": "error"
    },
    {
      "inputs": [
        {
          "internalType": "address",
          "name": "inputToken",
          "type": "address"
        },
        {
          "internalType": "address",
          "name": "outputToken",
          "type": "address"
        }
      ],
      "name": "InvalidInputOutputTokens",
      "type": "error"
    },
    {
      "inputs": [
        {
          "internalType": "address",
          "name": "token",
          "type": "address"
        },
        {
          "internalType": "uint256",
          "name": "maxWithdrawUnderlyingBeforeRepay",
          "type": "uint256"
        },
        {
          "internalType": "uint256",
          "name": "maxWithdrawUnderlyingAfterRepay",
          "type": "uint256"
        }
      ],
      "name": "InvalidMaxWithdrawAfterRepay",
      "type": "error"
    },
    {
      "inputs": [
        {
          "internalType": "uint256",
          "name": "totalAssets",
          "type": "uint256"
        },
        {
          "internalType": "uint256",
          "name": "totalSupply",
          "type": "uint256"
        }
      ],
      "name": "InvalidTotalSupplyAndAssets",
      "type": "error"
    },
    {
      "inputs": [],
      "name": "MathOverflowedMulDiv",
      "type": "error"
    },
    {
      "inputs": [
        {
          "internalType": "address",
          "name": "owner",
          "type": "address"
        }
      ],
      "name": "OwnableInvalidOwner",
      "type": "error"
    },
    {
      "inputs": [
        {
          "internalType": "address",
          "name": "account",
          "type": "address"
        }
      ],
      "name": "OwnableUnauthorizedAccount",
      "type": "error"
    },
    {
      "inputs": [
        {
          "internalType": "uint256",
          "name": "assets",
          "type": "uint256"
        },
        {
          "internalType": "uint256",
          "name": "minAssets",
          "type": "uint256"
        }
      ],
      "name": "RemainingAssetsBelowMinimum",
      "type": "error"
    },
    {
      "inputs": [
        {
          "internalType": "address",
          "name": "token",
          "type": "address"
        }
      ],
      "name": "SafeERC20FailedOperation",
      "type": "error"
    },
    {
      "inputs": [
        {
          "internalType": "uint256",
          "name": "currentLeverageBps",
          "type": "uint256"
        },
        {
          "internalType": "uint256",
          "name": "lowerBoundTargetLeverageBps",
          "type": "uint256"
        },
        {
          "internalType": "uint256",
          "name": "upperBoundTargetLeverageBps",
          "type": "uint256"
        }
      ],
      "name": "TooImbalanced",
      "type": "error"
    },
    {
      "inputs": [
        {
          "internalType": "uint256",
          "name": "principalBefore",
          "type": "uint256"
        },
        {
          "internalType": "uint256",
          "name": "principalAfter",
          "type": "uint256"
        }
      ],
      "name": "UnexpectedLossOfPrincipal",
      "type": "error"
    },
    {
      "inputs": [],
      "name": "UnknownInitiator",
      "type": "error"
    },
    {
      "inputs": [],
      "name": "UnknownLender",
      "type": "error"
    },
    {
      "inputs": [],
      "name": "UnknownToken",
      "type": "error"
    },
    {
      "inputs": [
        {
          "internalType": "address",
          "name": "token",
          "type": "address"
        },
        {
          "internalType": "uint256",
          "name": "assetToRemoveFromLending",
          "type": "uint256"
        },
        {
          "internalType": "uint256",
          "name": "withdrawableAmount",
          "type": "uint256"
        }
      ],
      "name": "WithdrawableIsLessThanRequired",
      "type": "error"
    },
    {
      "anonymous": false,
      "inputs": [
        {
          "indexed": true,
          "internalType": "address",
          "name": "owner",
          "type": "address"
        },
        {
          "indexed": true,
          "internalType": "address",
          "name": "spender",
          "type": "address"
        },
        {
          "indexed": false,
          "internalType": "uint256",
          "name": "value",
          "type": "uint256"
        }
      ],
      "name": "Approval",
      "type": "event"
    },
    {
      "anonymous": false,
      "inputs": [
        {
          "indexed": true,
          "internalType": "address",
          "name": "sender",
          "type": "address"
        },
        {
          "indexed": true,
          "internalType": "address",
          "name": "owner",
          "type": "address"
        },
        {
          "indexed": false,
          "internalType": "uint256",
          "name": "assets",
          "type": "uint256"
        },
        {
          "indexed": false,
          "internalType": "uint256",
          "name": "shares",
          "type": "uint256"
        }
      ],
      "name": "Deposit",
      "type": "event"
    },
    {
      "anonymous": false,
      "inputs": [
        {
          "indexed": true,
          "internalType": "address",
          "name": "previousOwner",
          "type": "address"
        },
        {
          "indexed": true,
          "internalType": "address",
          "name": "newOwner",
          "type": "address"
        }
      ],
      "name": "OwnershipTransferred",
      "type": "event"
    },
    {
      "anonymous": false,
      "inputs": [
        {
          "indexed": true,
          "internalType": "address",
          "name": "from",
          "type": "address"
        },
        {
          "indexed": true,
          "internalType": "address",
          "name": "to",
          "type": "address"
        },
        {
          "indexed": false,
          "internalType": "uint256",
          "name": "value",
          "type": "uint256"
        }
      ],
      "name": "Transfer",
      "type": "event"
    },
    {
      "anonymous": false,
      "inputs": [
        {
          "indexed": true,
          "internalType": "address",
          "name": "sender",
          "type": "address"
        },
        {
          "indexed": true,
          "internalType": "address",
          "name": "receiver",
          "type": "address"
        },
        {
          "indexed": true,
          "internalType": "address",
          "name": "owner",
          "type": "address"
        },
        {
          "indexed": false,
          "internalType": "uint256",
          "name": "assets",
          "type": "uint256"
        },
        {
          "indexed": false,
          "internalType": "uint256",
          "name": "shares",
          "type": "uint256"
        }
      ],
      "name": "Withdraw",
      "type": "event"
    },
    {
      "inputs": [],
      "name": "DEFAULT_DUSD_TO_UNDERLYING_SWAP_EXTRA_PARAMS",
      "outputs": [
        {
          "internalType": "uint256",
          "name": "swapSlippageBufferBps",
          "type": "uint256"
        }
      ],
      "stateMutability": "view",
      "type": "function"
    },
    {
      "inputs": [],
      "name": "DEFAULT_UNDERLYING_TO_DUSD_SWAP_EXTRA_PARAMS",
      "outputs": [
        {
          "internalType": "uint256",
          "name": "swapSlippageBufferBps",
          "type": "uint256"
        }
      ],
      "stateMutability": "view",
      "type": "function"
    },
    {
      "inputs": [],
      "name": "FLASHLOAN_CALLBACK",
      "outputs": [
        {
          "internalType": "bytes32",
          "name": "",
          "type": "bytes32"
        }
      ],
      "stateMutability": "view",
      "type": "function"
    },
    {
      "inputs": [],
      "name": "LOWER_BOUND_TARGET_LEVERAGE_BPS",
      "outputs": [
        {
          "internalType": "uint32",
          "name": "",
          "type": "uint32"
        }
      ],
      "stateMutability": "view",
      "type": "function"
    },
    {
      "inputs": [],
      "name": "TARGET_LEVERAGE_BPS",
      "outputs": [
        {
          "internalType": "uint32",
          "name": "",
          "type": "uint32"
        }
      ],
      "stateMutability": "view",
      "type": "function"
    },
    {
      "inputs": [],
      "name": "UPPER_BOUND_TARGET_LEVERAGE_BPS",
      "outputs": [
        {
          "internalType": "uint32",
          "name": "",
          "type": "uint32"
        }
      ],
      "stateMutability": "view",
      "type": "function"
    },
    {
      "inputs": [],
      "name": "VARIABLE_LENDING_INTERST_RATE_MODE",
      "outputs": [
        {
          "internalType": "uint256",
          "name": "",
          "type": "uint256"
        }
      ],
      "stateMutability": "view",
      "type": "function"
    },
    {
      "inputs": [
        {
          "internalType": "address",
          "name": "owner",
          "type": "address"
        },
        {
          "internalType": "address",
          "name": "spender",
          "type": "address"
        }
      ],
      "name": "allowance",
      "outputs": [
        {
          "internalType": "uint256",
          "name": "",
          "type": "uint256"
        }
      ],
      "stateMutability": "view",
      "type": "function"
    },
    {
      "inputs": [
        {
          "internalType": "address",
          "name": "spender",
          "type": "address"
        },
        {
          "internalType": "uint256",
          "name": "value",
          "type": "uint256"
        }
      ],
      "name": "approve",
      "outputs": [
        {
          "internalType": "bool",
          "name": "",
          "type": "bool"
        }
      ],
      "stateMutability": "nonpayable",
      "type": "function"
    },
    {
      "inputs": [],
      "name": "asset",
      "outputs": [
        {
          "internalType": "address",
          "name": "",
          "type": "address"
        }
      ],
      "stateMutability": "view",
      "type": "function"
    },
    {
      "inputs": [
        {
          "internalType": "address",
          "name": "account",
          "type": "address"
        }
      ],
      "name": "balanceOf",
      "outputs": [
        {
          "internalType": "uint256",
          "name": "",
          "type": "uint256"
        }
      ],
      "stateMutability": "view",
      "type": "function"
    },
    {
      "inputs": [],
      "name": "checkIsTooImbalanced",
      "outputs": [],
      "stateMutability": "view",
      "type": "function"
    },
    {
      "inputs": [
        {
          "internalType": "uint256",
          "name": "shares",
          "type": "uint256"
        }
      ],
      "name": "convertToAssets",
      "outputs": [
        {
          "internalType": "uint256",
          "name": "",
          "type": "uint256"
        }
      ],
      "stateMutability": "view",
      "type": "function"
    },
    {
      "inputs": [
        {
          "internalType": "uint256",
          "name": "assets",
          "type": "uint256"
        }
      ],
      "name": "convertToShares",
      "outputs": [
        {
          "internalType": "uint256",
          "name": "",
          "type": "uint256"
        }
      ],
      "stateMutability": "view",
      "type": "function"
    },
    {
      "inputs": [],
      "name": "curveRouter",
      "outputs": [
        {
          "internalType": "contract ICurveRouterNgPoolsOnlyV1",
          "name": "",
          "type": "address"
        }
      ],
      "stateMutability": "view",
      "type": "function"
    },
    {
      "inputs": [],
      "name": "decimals",
      "outputs": [
        {
          "internalType": "uint8",
          "name": "",
          "type": "uint8"
        }
      ],
      "stateMutability": "view",
      "type": "function"
    },
    {
      "inputs": [
        {
          "internalType": "uint256",
          "name": "dusdAmount",
          "type": "uint256"
        },
        {
          "internalType": "uint256",
          "name": "maxPriceInBase",
          "type": "uint256"
        }
      ],
      "name": "decreaseLeverage",
      "outputs": [],
      "stateMutability": "nonpayable",
      "type": "function"
    },
    {
      "inputs": [
        {
          "internalType": "uint256",
          "name": "assets",
          "type": "uint256"
        },
        {
          "internalType": "address",
          "name": "receiver",
          "type": "address"
        }
      ],
      "name": "deposit",
      "outputs": [
        {
          "internalType": "uint256",
          "name": "shares",
          "type": "uint256"
        }
      ],
      "stateMutability": "nonpayable",
      "type": "function"
    },
    {
      "inputs": [
        {
          "internalType": "uint256",
          "name": "assets",
          "type": "uint256"
        },
        {
          "internalType": "address",
          "name": "receiver",
          "type": "address"
        },
        {
          "internalType": "uint256",
          "name": "slippageTolerance",
          "type": "uint256"
        },
        {
          "internalType": "bytes",
          "name": "dusdToUnderlyingSwapData",
          "type": "bytes"
        }
      ],
      "name": "depositWith",
      "outputs": [
        {
          "internalType": "uint256",
          "name": "shares",
          "type": "uint256"
        }
      ],
      "stateMutability": "nonpayable",
      "type": "function"
    },
    {
      "inputs": [],
      "name": "dusd",
      "outputs": [
        {
          "internalType": "contract ERC20",
          "name": "",
          "type": "address"
        }
      ],
      "stateMutability": "view",
      "type": "function"
    },
    {
      "inputs": [],
      "name": "flashLender",
      "outputs": [
        {
          "internalType": "contract IERC3156FlashLender",
          "name": "",
          "type": "address"
        }
      ],
      "stateMutability": "view",
      "type": "function"
    },
    {
      "inputs": [],
      "name": "getCurrentLeverageBps",
      "outputs": [
        {
          "internalType": "uint256",
          "name": "",
          "type": "uint256"
        }
      ],
      "stateMutability": "view",
      "type": "function"
    },
    {
      "inputs": [
        {
          "internalType": "address",
          "name": "tokenAddress",
          "type": "address"
        }
      ],
      "name": "getDTokenBalance",
      "outputs": [
        {
          "internalType": "uint256",
          "name": "",
          "type": "uint256"
        }
      ],
      "stateMutability": "view",
      "type": "function"
    },
    {
      "inputs": [],
      "name": "getDUSDAddress",
      "outputs": [
        {
          "internalType": "address",
          "name": "",
          "type": "address"
        }
      ],
      "stateMutability": "view",
      "type": "function"
    },
    {
      "inputs": [],
      "name": "getDefaultMaxSlippageSurplusSwapBps",
      "outputs": [
        {
          "internalType": "uint256",
          "name": "",
          "type": "uint256"
        }
      ],
      "stateMutability": "view",
      "type": "function"
    },
    {
      "inputs": [],
      "name": "getDefaultMaxSubsidyBps",
      "outputs": [
        {
          "internalType": "uint256",
          "name": "",
          "type": "uint256"
        }
      ],
      "stateMutability": "view",
      "type": "function"
    },
    {
      "inputs": [],
      "name": "getDefaultSwapSlippageTolerance",
      "outputs": [
        {
          "internalType": "uint256",
          "name": "",
          "type": "uint256"
        }
      ],
      "stateMutability": "view",
      "type": "function"
    },
    {
      "inputs": [],
      "name": "getLendingPoolAddress",
      "outputs": [
        {
          "internalType": "address",
          "name": "",
          "type": "address"
        }
      ],
      "stateMutability": "view",
      "type": "function"
    },
    {
      "inputs": [],
      "name": "getOracleAddress",
      "outputs": [
        {
          "internalType": "address",
          "name": "",
          "type": "address"
        }
      ],
      "stateMutability": "view",
      "type": "function"
    },
    {
      "inputs": [],
      "name": "getUnderlyingAssetAddress",
      "outputs": [
        {
          "internalType": "address",
          "name": "",
          "type": "address"
        }
      ],
      "stateMutability": "view",
      "type": "function"
    },
    {
      "inputs": [
        {
          "internalType": "uint256",
          "name": "assetAmount",
          "type": "uint256"
        },
        {
          "internalType": "uint256",
          "name": "minPriceInBase",
          "type": "uint256"
        }
      ],
      "name": "increaseLeverage",
      "outputs": [],
      "stateMutability": "nonpayable",
      "type": "function"
    },
    {
      "inputs": [],
      "name": "lendingPoolAddressesProvider",
      "outputs": [
        {
          "internalType": "contract IPoolAddressesProvider",
          "name": "",
          "type": "address"
        }
      ],
      "stateMutability": "view",
      "type": "function"
    },
    {
      "inputs": [
        {
          "internalType": "address",
          "name": "",
          "type": "address"
        }
      ],
      "name": "maxDeposit",
      "outputs": [
        {
          "internalType": "uint256",
          "name": "",
          "type": "uint256"
        }
      ],
      "stateMutability": "view",
      "type": "function"
    },
    {
      "inputs": [
        {
          "internalType": "address",
          "name": "",
          "type": "address"
        }
      ],
      "name": "maxMint",
      "outputs": [
        {
          "internalType": "uint256",
          "name": "",
          "type": "uint256"
        }
      ],
      "stateMutability": "view",
      "type": "function"
    },
    {
      "inputs": [
        {
          "internalType": "address",
          "name": "owner",
          "type": "address"
        }
      ],
      "name": "maxRedeem",
      "outputs": [
        {
          "internalType": "uint256",
          "name": "",
          "type": "uint256"
        }
      ],
      "stateMutability": "view",
      "type": "function"
    },
    {
      "inputs": [
        {
          "internalType": "address",
          "name": "owner",
          "type": "address"
        }
      ],
      "name": "maxWithdraw",
      "outputs": [
        {
          "internalType": "uint256",
          "name": "",
          "type": "uint256"
        }
      ],
      "stateMutability": "view",
      "type": "function"
    },
    {
      "inputs": [
        {
          "internalType": "uint256",
          "name": "shares",
          "type": "uint256"
        },
        {
          "internalType": "address",
          "name": "receiver",
          "type": "address"
        }
      ],
      "name": "mint",
      "outputs": [
        {
          "internalType": "uint256",
          "name": "assets",
          "type": "uint256"
        }
      ],
      "stateMutability": "nonpayable",
      "type": "function"
    },
    {
      "inputs": [
        {
          "internalType": "uint256",
          "name": "shares",
          "type": "uint256"
        },
        {
          "internalType": "address",
          "name": "receiver",
          "type": "address"
        },
        {
          "internalType": "uint256",
          "name": "slippageTolerance",
          "type": "uint256"
        },
        {
          "internalType": "bytes",
          "name": "dusdToUnderlyingSwapData",
          "type": "bytes"
        }
      ],
      "name": "mintWith",
      "outputs": [
        {
          "internalType": "uint256",
          "name": "assets",
          "type": "uint256"
        }
      ],
      "stateMutability": "nonpayable",
      "type": "function"
    },
    {
      "inputs": [],
      "name": "name",
      "outputs": [
        {
          "internalType": "string",
          "name": "",
          "type": "string"
        }
      ],
      "stateMutability": "view",
      "type": "function"
    },
    {
      "inputs": [
        {
          "internalType": "address",
          "name": "initiator",
          "type": "address"
        },
        {
          "internalType": "address",
          "name": "token",
          "type": "address"
        },
        {
          "internalType": "uint256",
          "name": "",
          "type": "uint256"
        },
        {
          "internalType": "uint256",
          "name": "",
          "type": "uint256"
        },
        {
          "internalType": "bytes",
          "name": "data",
          "type": "bytes"
        }
      ],
      "name": "onFlashLoan",
      "outputs": [
        {
          "internalType": "bytes32",
          "name": "",
          "type": "bytes32"
        }
      ],
      "stateMutability": "nonpayable",
      "type": "function"
    },
    {
      "inputs": [],
      "name": "owner",
      "outputs": [
        {
          "internalType": "address",
          "name": "",
          "type": "address"
        }
      ],
      "stateMutability": "view",
      "type": "function"
    },
    {
      "inputs": [
        {
          "internalType": "uint256",
          "name": "assets",
          "type": "uint256"
        }
      ],
      "name": "previewDeposit",
      "outputs": [
        {
          "internalType": "uint256",
          "name": "",
          "type": "uint256"
        }
      ],
      "stateMutability": "view",
      "type": "function"
    },
    {
      "inputs": [
        {
          "internalType": "uint256",
          "name": "shares",
          "type": "uint256"
        }
      ],
      "name": "previewMint",
      "outputs": [
        {
          "internalType": "uint256",
          "name": "",
          "type": "uint256"
        }
      ],
      "stateMutability": "view",
      "type": "function"
    },
    {
      "inputs": [
        {
          "internalType": "uint256",
          "name": "shares",
          "type": "uint256"
        }
      ],
      "name": "previewRedeem",
      "outputs": [
        {
          "internalType": "uint256",
          "name": "",
          "type": "uint256"
        }
      ],
      "stateMutability": "view",
      "type": "function"
    },
    {
      "inputs": [
        {
          "internalType": "uint256",
          "name": "assets",
          "type": "uint256"
        }
      ],
      "name": "previewWithdraw",
      "outputs": [
        {
          "internalType": "uint256",
          "name": "",
          "type": "uint256"
        }
      ],
      "stateMutability": "view",
      "type": "function"
    },
    {
      "inputs": [
        {
          "internalType": "uint256",
          "name": "shares",
          "type": "uint256"
        },
        {
          "internalType": "address",
          "name": "receiver",
          "type": "address"
        },
        {
          "internalType": "address",
          "name": "owner",
          "type": "address"
        }
      ],
      "name": "redeem",
      "outputs": [
        {
          "internalType": "uint256",
          "name": "assets",
          "type": "uint256"
        }
      ],
      "stateMutability": "nonpayable",
      "type": "function"
    },
    {
      "inputs": [
        {
          "internalType": "uint256",
          "name": "shares",
          "type": "uint256"
        },
        {
          "internalType": "address",
          "name": "receiver",
          "type": "address"
        },
        {
          "internalType": "address",
          "name": "owner",
          "type": "address"
        },
        {
          "internalType": "uint256",
          "name": "swapSlippageTolerance",
          "type": "uint256"
        },
        {
          "internalType": "uint256",
          "name": "minReceiveAmount",
          "type": "uint256"
        },
        {
          "internalType": "bytes",
          "name": "underlyingToDUSDSwapData",
          "type": "bytes"
        }
      ],
      "name": "redeemWith",
      "outputs": [
        {
          "internalType": "uint256",
          "name": "assets",
          "type": "uint256"
        }
      ],
      "stateMutability": "nonpayable",
      "type": "function"
    },
    {
      "inputs": [],
      "name": "renounceOwnership",
      "outputs": [],
      "stateMutability": "nonpayable",
      "type": "function"
    },
    {
      "inputs": [
        {
          "internalType": "address",
          "name": "token",
          "type": "address"
        },
        {
          "internalType": "address",
          "name": "receiver",
          "type": "address"
        }
      ],
      "name": "rescueToken",
      "outputs": [],
      "stateMutability": "nonpayable",
      "type": "function"
    },
    {
      "inputs": [
        {
          "internalType": "uint256",
          "name": "_maxSlippageSurplusSwapBps",
          "type": "uint256"
        }
      ],
      "name": "setDefaultMaxSlippageSurplusSwapBps",
      "outputs": [],
      "stateMutability": "nonpayable",
      "type": "function"
    },
    {
      "inputs": [
        {
          "internalType": "uint256",
          "name": "_swapSlippageTolerance",
          "type": "uint256"
        }
      ],
      "name": "setDefaultSwapSlippageTolerance",
      "outputs": [],
      "stateMutability": "nonpayable",
      "type": "function"
    },
    {
      "inputs": [
        {
          "internalType": "uint256",
          "name": "_maxSubsidyBps",
          "type": "uint256"
        }
      ],
      "name": "setMaxSubsidyBps",
      "outputs": [],
      "stateMutability": "nonpayable",
      "type": "function"
    },
    {
      "inputs": [],
      "name": "symbol",
      "outputs": [
        {
          "internalType": "string",
          "name": "",
          "type": "string"
        }
      ],
      "stateMutability": "view",
      "type": "function"
    },
    {
      "inputs": [],
      "name": "totalAssets",
      "outputs": [
        {
          "internalType": "uint256",
          "name": "",
          "type": "uint256"
        }
      ],
      "stateMutability": "view",
      "type": "function"
    },
    {
      "inputs": [],
      "name": "totalSupply",
      "outputs": [
        {
          "internalType": "uint256",
          "name": "",
          "type": "uint256"
        }
      ],
      "stateMutability": "view",
      "type": "function"
    },
    {
      "inputs": [
        {
          "internalType": "address",
          "name": "to",
          "type": "address"
        },
        {
          "internalType": "uint256",
          "name": "value",
          "type": "uint256"
        }
      ],
      "name": "transfer",
      "outputs": [
        {
          "internalType": "bool",
          "name": "",
          "type": "bool"
        }
      ],
      "stateMutability": "nonpayable",
      "type": "function"
    },
    {
      "inputs": [
        {
          "internalType": "address",
          "name": "from",
          "type": "address"
        },
        {
          "internalType": "address",
          "name": "to",
          "type": "address"
        },
        {
          "internalType": "uint256",
          "name": "value",
          "type": "uint256"
        }
      ],
      "name": "transferFrom",
      "outputs": [
        {
          "internalType": "bool",
          "name": "",
          "type": "bool"
        }
      ],
      "stateMutability": "nonpayable",
      "type": "function"
    },
    {
      "inputs": [
        {
          "internalType": "address",
          "name": "newOwner",
          "type": "address"
        }
      ],
      "name": "transferOwnership",
      "outputs": [],
      "stateMutability": "nonpayable",
      "type": "function"
    },
    {
      "inputs": [],
      "name": "underlyingAsset",
      "outputs": [
        {
          "internalType": "contract ERC20",
          "name": "",
          "type": "address"
        }
      ],
      "stateMutability": "view",
      "type": "function"
    },
    {
      "inputs": [
        {
          "internalType": "uint256",
          "name": "assets",
          "type": "uint256"
        },
        {
          "internalType": "address",
          "name": "receiver",
          "type": "address"
        },
        {
          "internalType": "address",
          "name": "owner",
          "type": "address"
        }
      ],
      "name": "withdraw",
      "outputs": [
        {
          "internalType": "uint256",
          "name": "shares",
          "type": "uint256"
        }
      ],
      "stateMutability": "nonpayable",
      "type": "function"
    },
    {
      "inputs": [
        {
          "internalType": "uint256",
          "name": "assets",
          "type": "uint256"
        },
        {
          "internalType": "address",
          "name": "receiver",
          "type": "address"
        },
        {
          "internalType": "address",
          "name": "owner",
          "type": "address"
        },
        {
          "internalType": "uint256",
          "name": "swapSlippageTolerance",
          "type": "uint256"
        },
        {
          "internalType": "uint256",
          "name": "minReceiveAmount",
          "type": "uint256"
        },
        {
          "internalType": "bytes",
          "name": "underlyingToDUSDSwapData",
          "type": "bytes"
        }
      ],
      "name": "withdrawWith",
      "outputs": [
        {
          "internalType": "uint256",
          "name": "shares",
          "type": "uint256"
        }
      ],
      "stateMutability": "nonpayable",
      "type": "function"
    }
  ],
  "transactionHash": "0x6307dc425c411c33e06599f1fc66132d5b7a21a413e7ce596e1fab003210eb56",
  "args": [
    "dLOOP 3X sFRAX",
    "3XsFRAX",
    "0x0Dbf64462FEC588df32FC5C9941421F7d93e0Fb3",
    "0x4D6E79013212F10A026A1FB0b926C9Fd0432b96c",
    "0x4D6E79013212F10A026A1FB0b926C9Fd0432b96c",
    "0xF66c3Ef85BceafaEcE9171E25Eee2972b10e1958",
    {
      "route": [
        "0x4D6E79013212F10A026A1FB0b926C9Fd0432b96c",
        "0x93f785642837e082ff95bB69E64e5B6967857c74",
        "0x2CAb811d351B4eF492D8C197E09939F1C9f54330",
        "0x6a7173EA306983f3721Cc9A3c6EA7f0a3a2f3c13",
        "0x0Dbf64462FEC588df32FC5C9941421F7d93e0Fb3",
        "0x0000000000000000000000000000000000000000",
        "0x0000000000000000000000000000000000000000",
        "0x0000000000000000000000000000000000000000",
        "0x0000000000000000000000000000000000000000",
        "0x0000000000000000000000000000000000000000",
        "0x0000000000000000000000000000000000000000"
      ],
      "swapParams": [
        [
          0,
          1,
          1,
          2
        ],
        [
          0,
          1,
          1,
          2
        ],
        [
          0,
          0,
          0,
          0
        ],
        [
          0,
          0,
          0,
          0
        ],
        [
          0,
          0,
          0,
          0
        ]
      ],
      "swapSlippageBufferBps": 500000
    },
    {
      "route": [
        "0x0Dbf64462FEC588df32FC5C9941421F7d93e0Fb3",
        "0x6a7173EA306983f3721Cc9A3c6EA7f0a3a2f3c13",
        "0x2CAb811d351B4eF492D8C197E09939F1C9f54330",
        "0x93f785642837e082ff95bB69E64e5B6967857c74",
        "0x4D6E79013212F10A026A1FB0b926C9Fd0432b96c",
        "0x0000000000000000000000000000000000000000",
        "0x0000000000000000000000000000000000000000",
        "0x0000000000000000000000000000000000000000",
        "0x0000000000000000000000000000000000000000",
        "0x0000000000000000000000000000000000000000",
        "0x0000000000000000000000000000000000000000"
      ],
      "swapParams": [
        [
          1,
          0,
          1,
          2
        ],
        [
          1,
          0,
          1,
          2
        ],
        [
          0,
          0,
          0,
          0
        ],
        [
          0,
          0,
          0,
          0
        ],
        [
          0,
          0,
          0,
          0
        ]
      ],
      "swapSlippageBufferBps": 500000
    },
    "0xC691F14942B37668C9904b701E3118A133611b3c",
    3000000,
    200000,
    20000,
    200000
  ],
  "numDeployments": 15,
  "solcInputHash": "6d1f88d8360ee5b4ff42147d68d0178e",
  "bytecode": "0x6101c080604052346200093257620063c3803803809162000021828562000937565b833981019061096081830312620009325780516001600160401b0392908381116200093257816200005491840162000977565b60208301518481116200093257826200006f91850162000977565b926200007e60408201620009e1565b936200008d60608301620009e1565b6080830151909690956001600160a01b0387168703620009325760a0840151976001600160a01b03891689036200093257620000dd620000d18860c08801620009f6565b976104c08701620009f6565b6108c0860151909890916001600160a01b038316830362000932576108e08701519463ffffffff861686036200093257610900880151966109406109208a015199015199805190838211620008275760035490600182811c9216801562000927575b6020831014620008065781601f849311620008d4575b50602090601f831160011462000849576000926200083d575b50508160011b916000199060031b1c1916176003555b8051918211620008275760045490600182811c921680156200081c575b6020831014620008065781601f849311620007a7575b50602090601f83116001146200071c5760009262000710575b50508160011b916000199060031b1c1916176004555b6001600160a01b038416620001fb8162000b5b565b901562000707575b60a0526080523315620006ee5760058054336001600160a01b0319821681179092556001600160a01b03167f8be0079c531659141344cd1fd0a4f28419497f9722a3daafe3b4186f6b6457e0600080a361018052610120526101405261016052620f424063ffffffff82161062000683578060c052637fffffff8160011c1660e0526401fffffffe8160011b1663fffffffe8260011b16036200066d5760011b63fffffffe16610100526006556007556101a0938452604855805160005b600b81106200064e57505060208101516013906000905b60058210620006155750505060400151602755805160005b600b8110620005f657505060208101516033906000905b60058210620005bd578460408501516047556040516157a1918262000c2283396080518261146b015260a051826114af015260c051828181610da7015281816111b201528181612845015281816137e301528181613b290152818161418e01526148cb015260e05182818161133f0152818161345b01526134b2015261010051828181610bbe0152818161348201526134e60152610120518281816109a90152818161161c015281816138bb01528181613b9f01528181613cd601528181613d2e01528181613e08015281816142040152818161432101526144030152610140518281816107f20152818161496201526149ed015261016051828181610c300152818161120a01528181611795015281816118b2015281816119240152818161198401528181611a1301528181611a7501528181611dba01528181611e0101528181611f150152818161205c015281816120be0152818161217d015281816121e7015281816122a601528181612331015281816123a4015281816124be0152818161250f015281816126eb0152818161368801528181613c4d01528181613e9301528181613ef1015281816142980152818161448e0152818161451901528181614be201528181614f27015261503f01526101805182818161067b01528181610c8d01528181611665015281816117f10152818161185b0152818161194501528181611aee01528181611e5c01528181611ebd01528181611f8f01528181611fea015281816121250152818161223e01528181612310015281816127cc0152818161389101528181613b6601528181613c9601528181613d7501528181613dd0015281816141cb015281816142e101528181614370015281816143cb0152614e390152518181816107a80152818161528701528181615323015281816153b1015281816154ab01528181615515015261559c0152f35b805160005b60048110620005e1575050600460206001920193019101909162000307565b600190602083519301928187015501620005c2565b81516001600160a01b03166028820155602090910190600101620002f0565b805160005b60048110620006395750506004602060019201930191019091620002d8565b6001906020835193019281870155016200061a565b81516001600160a01b03166008820155602090910190600101620002c1565b634e487b7160e01b600052601160045260246000fd5b60405162461bcd60e51b815260206004820152603560248201527f546172676574206c65766572616765206d757374206265206174206c6561737460448201527f203130302520696e20626173697320706f696e747300000000000000000000006064820152608490fd5b604051631e4fbdf760e01b815260006004820152602490fd5b50601262000203565b015190503880620001d0565b600460009081527f8a35acfbc15ff81a39ae7d344fd709f28e8600b4aa8c65c6b64bfe7fe36bd19b9350601f198516905b8181106200078e575090846001959493921062000774575b505050811b01600455620001e6565b015160001960f88460031b161c1916905538808062000765565b929360206001819287860151815501950193016200074d565b6004600052620007f4907f8a35acfbc15ff81a39ae7d344fd709f28e8600b4aa8c65c6b64bfe7fe36bd19b601f850160051c81019160208610620007fb575b601f0160051c019062000b42565b38620001b7565b9091508190620007e6565b634e487b7160e01b600052602260045260246000fd5b91607f1691620001a1565b634e487b7160e01b600052604160045260246000fd5b0151905038806200016e565b600360009081527fc2575a0e9e593c00f959f8c92f12db2869c3395a3b0502d05e2516446f71f85b9350601f198516905b818110620008bb5750908460019594939210620008a1575b505050811b0160035562000184565b015160001960f88460031b161c1916905538808062000892565b929360206001819287860151815501950193016200087a565b600360005262000920907fc2575a0e9e593c00f959f8c92f12db2869c3395a3b0502d05e2516446f71f85b601f850160051c81019160208610620007fb57601f0160051c019062000b42565b3862000155565b91607f16916200013f565b600080fd5b601f909101601f19168101906001600160401b038211908210176200082757604052565b6001600160401b0381116200082757601f01601f191660200190565b919080601f84011215620009325782519062000993826200095b565b91620009a3604051938462000937565b808352602091828287010111620009325760005b818110620009cd57508260009394955001015290565b8581018301518482018401528201620009b7565b51906001600160a01b03821682036200093257565b9190610400838203126200093257604080519160608301906001600160401b038083118584101762000827578496601f9183838301121562000932576101c08701858110828211176200082757865284610160830195858711620009325783905b87821062000b2057505087528361017f83011215620009325785519360a0850185811083821117620008275787526103e0859301958187116200093257925b86841062000aae575050505050602084015251910152565b8185850112156200093257875160808082018281108682111762000b0b578a5281908601848111620009325786915b81831062000afa5750505081602091608093520193019262000a96565b825181526020928301920162000add565b60246000634e487b7160e01b81526041600452fd5b81516001600160a01b0381168103620009325781526020918201910162000a57565b81811062000b4e575050565b6000815560010162000b42565b6040805163313ce56760e01b60208201908152600482529293929181016001600160401b0381118282101762000827576040525160009384928392916001600160a01b03165afa3d1562000c18573d9062000bb6826200095b565b9162000bc6604051938462000937565b82523d84602084013e5b8062000c0b575b62000be2575b508190565b60208180518101031262000c07576020015160ff811162000bdd576001925060ff1690565b8280fd5b5060208151101562000bd7565b60609062000bd056fe6080604052600436101561001257600080fd5b6000803560e01c806301e1d11414612d1a57806306fdde0314612c5857806307a2d13a1461131d578063095ea7b314612ba55780630a28a47714612b865780630f90e61814612b6d578063160a8f3514612b4d57806318160ddd14612b2f5780631dc8d818146126c45780631e3eaccc1461066557806323b872dd1461268b57806323e30c8b146115b857806328e7b3f2146115325780632ae18104146114f7578063313ce5671461149a57806338d52e0f14611455578063402d267d146107d7578063415c50691461143a5780634707d0001461138d57806348eb8a4a14611363578063497a4237146113225780634cdad5061461131d5780635b3f0549146113015780635f36a742146112de5780636e553f651461129757806370a0823114610717578063715018a6146112395780637158da7c146111f457806374614f76146111d657806375ba52c91461119557806375f712f114611177578063776efe4714610c0b5780638da5cb5b14610be2578063946f754714610ba157806394bf804d14610b5957806395d89b4114610a48578063991404a414610a1e578063a0a94526146109fb578063a54bddd8146109d8578063a771445814610993578063a9059cbb14610961578063a931e0b614610943578063b05e077d1461091c578063b18b78dd146108f0578063b3d7f6b914610897578063b460af941461085c578063ba08765214610821578063bba00ba5146107dc578063c63d75b6146107d7578063c6e6f59214610642578063cda90b8814610792578063ce96cb7714610759578063d905777e14610717578063dd62ed3e146106c8578063dde35bfd146106aa578063de1409ce14610665578063ebfd00ac14610647578063ef8b30f714610642578063f2fde38b146105b2578063f6d48ae2146102e15763fad9d122146102bc57600080fd5b346102de5760203660031901126102de576102d5613065565b60043560485580f35b80fd5b50346102de576020806003193601126105ae576102fc612d9b565b9160405161030981612e41565b60405161031581612e5d565b828152815281838201528160408201528160608201528160808201528160a08201528160c08201528160e08201526101009382858301526101209483868401526101409284848201526101609085828201526101809386858301526101a08781840152876101c08094015260018060a01b03958694856103936149cf565b166040519687956335ea6a7560e01b87521660048601528460246101e09889935afa9889156105a3578b9c8b9c9a610441575b5050505050505050602493015116604051928380926370a0823160e01b82523060048301525afa9182156104355791610403575b50604051908152f35b90508181813d831161042e575b61041a8183612eaf565b810103126104295751386103fa565b600080fd5b503d610410565b604051903d90823e3d90fd5b9193959799509193868197999b503d8a1161059c575b6104618183612eaf565b810103978812610598578b604051986104798a612e41565b126105985760405161048a81612e5d565b86518152885261049b8c8701614a23565b8c8901526104ab60408701614a23565b60408901526104bc60608701614a23565b60608901526104cd60808701614a23565b60808901526104de60a08701614a23565b60a089015260c086015164ffffffffff811681036105945760c089015260e086015161ffff811681036105945793879591938997938e9b99956105839760e060249f9d015261052e8b8701614930565b8b8b015261053d818701614930565b908a015261054c818601614930565b9089015261055b818501614930565b9088015261056a818401614a23565b90870152610579818301614a23565b9086015201614a23565b9082015293388080808080806103c6565b8b80fd5b8a80fd5b503d610457565b6040513d8c823e3d90fd5b5080fd5b50346102de5760203660031901126102de576105cc612d9b565b6105d4613065565b6001600160a01b0390811690811561062957600554826bffffffffffffffffffffffff60a01b821617600555167f8be0079c531659141344cd1fd0a4f28419497f9722a3daafe3b4186f6b6457e0600080a380f35b604051631e4fbdf760e01b815260048101849052602490fd5b613047565b50346102de57806003193601126102de576020604754604051908152f35b50346102de57806003193601126102de576040517f00000000000000000000000000000000000000000000000000000000000000006001600160a01b03168152602090f35b50346102de57806003193601126102de576020600754604051908152f35b50346102de5760403660031901126102de576106e2612d9b565b60406106ec612db1565b9260018060a01b03809316815260016020522091166000526020526020604060002054604051908152f35b50346102de5760203660031901126102de576020610751610736612d9b565b6001600160a01b031660009081526020819052604090205490565b604051908152f35b50346102de5760203660031901126102de57602090610751906040906001600160a01b03610785612d9b565b168152808452205461331b565b50346102de57806003193601126102de576040517f00000000000000000000000000000000000000000000000000000000000000006001600160a01b03168152602090f35b612f92565b50346102de57806003193601126102de576040517f00000000000000000000000000000000000000000000000000000000000000006001600160a01b03168152602090f35b50346102de576020906103fa61083636613012565b600694929454916040519361084a85612e5d565b84526108558661331b565b9586613afb565b50346102de576020906103fa61087136613012565b600694929454916040519361088585612e5d565b845261089086614b4c565b8096613afb565b50346102de5760203660031901126102de576108b1614b83565b600181018091116108da5760025490600182018092116108da5760209161075191600435613346565b634e487b7160e01b600052601160045260246000fd5b50346102de57806003193601126102de5760206001600160a01b03610913614944565b16604051908152f35b50346102de57602061075161093036612f32565b9161093c84959461331b565b9485613667565b50346102de57806003193601126102de576020604854604051908152f35b50346102de5760403660031901126102de5761098861097e612d9b565b6024359033613091565b602060405160018152f35b50346102de57806003193601126102de576040517f00000000000000000000000000000000000000000000000000000000000000006001600160a01b03168152602090f35b50346102de5760203660031901126102de576109f2613065565b60043560065580f35b50346102de5760203660031901126102de57610a15613065565b60043560075580f35b50346102de5760206103fa610a3236612fb8565b93610a41869796949294614b4c565b8097614161565b50346102de57806003193601126102de57604051908060045491600183811c92818516948515610b4f575b6020958686108114610b3b57858852879493929187908215610b19575050600114610abf575b5050610aa792500383612eaf565b610abb604051928284938452830190612d58565b0390f35b90859250600482527f8a35acfbc15ff81a39ae7d344fd709f28e8600b4aa8c65c6b64bfe7fe36bd19b5b858310610b01575050610aa793508201013880610a99565b80548389018501528794508693909201918101610ae9565b9250935050610aa794915060ff191682840152151560051b8201013880610a99565b634e487b7160e01b83526022600452602483fd5b93607f1693610a73565b50346102de5760403660031901126102de5760209061075160043591610b7d612db1565b92610b878161331b565b936006549160405193610b9985612e5d565b845285613667565b50346102de57806003193601126102de57602060405163ffffffff7f0000000000000000000000000000000000000000000000000000000000000000168152f35b50346102de57806003193601126102de576005546040516001600160a01b039091168152602090f35b50346102de57610c1a36612f7c565b6001600160a01b039081610c2c614944565b16827f000000000000000000000000000000000000000000000000000000000000000016936040519063b3596f0760e01b928383528660048401526020948584602481855afa93841561116c57899461113d575b5080841161111f575084867f0000000000000000000000000000000000000000000000000000000000000000169460246040518094819382528860048301525afa8015610fd55788906110f0575b610cd9915082613787565b60405163313ce56760e01b80825294918682600481865afa9182156105a357610d1392610d0d918c916110d9575b5061330a565b90613386565b91602460c088610d216149cf565b1660405192838092632fe4a15f60e21b82523060048301525afa9384156105a3578a918b95611097575b5090610d0d610d9c92610d97620f4240610d74610d6e610d696148c1565b61315d565b84613787565b0497610d9289610d8c610d878289613ad5565b61376f565b96613ad5565b613ad5565b61316e565b610da4614a40565b907f00000000000000000000000000000000000000000000000000000000000000009163ffffffff83168210801561108d575b61105d57505050610dea8130338561372d565b610e29868289610df86149cf565b60405163095ea7b360e01b815291166001600160a01b03166004820152602481019190915291829081906044820190565b03818d875af19081156105a3578a91611030575b5015610fe057610e9991869188610e526149cf565b60405163573ade8160e01b81526001600160a01b039094166004850152602484019290925260026044840152306064840152919384929091169082908c9082906084820190565b03925af1908115610fd5578591610fac575b50506040519283528383600481895afa908115610fa157610ed9610edf92610ee4958a91610f74575061330a565b90613787565b613386565b91610eed6149cf565b604051631a4ca37b60e21b81526001600160a01b038616600482015260248101859052306044820152918391839160649183918a91165af18015610f6957610f40575b5050610f3d91339061350e565b80f35b813d8311610f62575b610f538183612eaf565b81010312610429573880610f30565b503d610f49565b6040513d87823e3d90fd5b610f949150873d8911610f9a575b610f8c8183612eaf565b810190613ae2565b38610d07565b503d610f82565b6040513d89823e3d90fd5b813d8311610fce575b610fbf8183612eaf565b81010312610429578338610eab565b503d610fb5565b6040513d8a823e3d90fd5b60405162461bcd60e51b8152600481018790526034602482015260008051602061572c833981519152604482015273696e206465637265617365206c6576657261676560601b6064820152608490fd5b6110509150873d8911611056575b6110488183612eaf565b810190613551565b38610e3d565b503d61103e565b604051636a3f633560e11b8152600481019290925263ffffffff9290921660248201526044810191909152606490fd5b5080821015610dd7565b610d0d919550610d9c92506110c29060c03d81116110d2575b6110ba8183612eaf565b810190614693565b5050505091909195919250610d4b565b503d6110b0565b610f949150893d8b11610f9a57610f8c8183612eaf565b508481813d8311611118575b6111068183612eaf565b8101031261042957610cd99051610cce565b503d6110fc565b8360449160405191631ecf7b4160e01b835260048301526024820152fd5b9093508581813d8311611165575b6111558183612eaf565b8101031261042957519238610c80565b503d61114b565b6040513d8b823e3d90fd5b50346102de57806003193601126102de576020600654604051908152f35b50346102de57806003193601126102de57602060405163ffffffff7f0000000000000000000000000000000000000000000000000000000000000000168152f35b50346102de57806003193601126102de576020602754604051908152f35b50346102de57806003193601126102de576040517f00000000000000000000000000000000000000000000000000000000000000006001600160a01b03168152602090f35b50346102de57806003193601126102de57611252613065565b600580546001600160a01b031981169091556000906001600160a01b03167f8be0079c531659141344cd1fd0a4f28419497f9722a3daafe3b4186f6b6457e08280a380f35b50346102de5760403660031901126102de57602090610751600435916112bb612db1565b60065490604051926112cc84612e5d565b83526112d785614b4c565b8095613667565b50346102de57806003193601126102de5760206001600160a01b036109136149cf565b50346102de57806003193601126102de57602060405160028152f35b612d7d565b50346102de57806003193601126102de57602060405163ffffffff7f0000000000000000000000000000000000000000000000000000000000000000168152f35b50346102de5760206103fa61137736612fb8565b9361138686979694929461331b565b9687614161565b50346102de5760403660031901126102de576113a7612d9b565b6113af612db1565b906113b8613065565b6040516370a0823160e01b8152306004820152916001600160a01b039190911690602083602481855afa91821561142f5784926113fa575b610f3d935061350e565b91506020833d8211611427575b8161141460209383612eaf565b8101031261042957610f3d9251916113f0565b3d9150611407565b6040513d86823e3d90fd5b50346102de57806003193601126102de576020610751614a40565b50346102de57806003193601126102de576040517f00000000000000000000000000000000000000000000000000000000000000006001600160a01b03168152602090f35b50346102de57806003193601126102de5760ff7f0000000000000000000000000000000000000000000000000000000000000000169060ff82116114e357602082604051908152f35b634e487b7160e01b81526011600452602490fd5b50346102de57806003193601126102de5760206040517f439148f0bbc682ca079e46d6e2c2f0c1e3b820f1a291b069d8882abf8cf18dd98152f35b50346102de57806003193601126102de576040516338d52e0f60e01b815290602082600481305afa90811561043557809161157c575b6040516001600160a01b0383168152602090f35b90506020823d82116115b0575b8161159660209383612eaf565b810103126102de57506115aa602091614930565b38611568565b3d9150611589565b50346102de5760a03660031901126102de576115d2612d9b565b6115da612db1565b90608435906001600160401b038211611d365736602383011215611d365781600401356001600160401b038111612651578201926024840191368311612645577f00000000000000000000000000000000000000000000000000000000000000006001600160a01b0316330361267957306001600160a01b0390911603612667576001600160a01b037f00000000000000000000000000000000000000000000000000000000000000008116911603612655576040519161169a83612df0565b848352604081602085019560608752031261265157602481013591821515809303612645576044820135906001600160401b03821161264d5760246116e29285940101612eeb565b808552925215611d3a575051604051906116fb82612e26565b82825282602083015282604083015260608083015280518101608082820312611d36576020820151916040810151916060820151916080810151916001600160401b038311611d325761175592602080920192010161487f565b606085015260408401526020830152815261176e614944565b61177e6020830151835190613ad5565b60405163b3596f0760e01b81526001600160a01b037f0000000000000000000000000000000000000000000000000000000000000000811660048301529192916020908290602490829086165afa908115610f69578591611d00575b5060405163313ce56760e01b8152906020826004817f00000000000000000000000000000000000000000000000000000000000000006001600160a01b03165afa918215611cac5761183e602092610ed9602495611844948b91611ce9575061330a565b85613787565b60405163b3596f0760e01b81526001600160a01b037f00000000000000000000000000000000000000000000000000000000000000008116600483015291949093849290918391165afa908115610f69578591611cb7575b5060405163313ce56760e01b81526020816004817f00000000000000000000000000000000000000000000000000000000000000006001600160a01b03165afa928315611cac57610d0d61190f93610ed9620f424096611902958b91611c93575061330a565b610ed9604086015161315d565b048015611c56576119699160608401519130917f00000000000000000000000000000000000000000000000000000000000000007f0000000000000000000000000000000000000000000000000000000000000000614cf6565b6040516370a0823160e01b81523060048201526020816024817f00000000000000000000000000000000000000000000000000000000000000006001600160a01b03165afa90811561142f578491611c24575b506020830151808210611c0657506001600160a01b0390506119dc6149cf565b60208481015160405163095ea7b360e01b81526001600160a01b0394909316938416600484015260248301528180604481010381887f00000000000000000000000000000000000000000000000000000000000000006001600160a01b03165af1908115610f69578591611be7575b5015611ba157602084930151813b15611b9c5760405163617ba03760e01b81526001600160a01b037f0000000000000000000000000000000000000000000000000000000000000000166004820152602481019190915230604482015260006064820152838160848183865af190811561142f578491611b88575b5050803b15611b845760a48392604051948593849263a415bcad60e01b845260018060a01b037f00000000000000000000000000000000000000000000000000000000000000001660048501526024840152600260448401528160648401523060848401525af18015611b7957611b65575b50505b60206040517f439148f0bbc682ca079e46d6e2c2f0c1e3b820f1a291b069d8882abf8cf18dd98152f35b611b6f8291612dc7565b6102de5780611b38565b6040513d84823e3d90fd5b5050fd5b611b9190612dc7565b611b84578238611ac6565b505050fd5b60405162461bcd60e51b815260206004820152602a602482015260008051602061572c8339815191526044820152691a5b8819195c1bdcda5d60b21b6064820152608490fd5b611c00915060203d602011611056576110488183612eaf565b38611a4b565b6044925060405191635e13771960e01b835260048301526024820152fd5b90506020813d602011611c4e575b81611c3f60209383612eaf565b810103126104295751386119bc565b3d9150611c32565b60405162461bcd60e51b81526020600482015260156024820152746d6178496e206973206e6f7420706f73697469766560581b6044820152606490fd5b610f94915060203d602011610f9a57610f8c8183612eaf565b6040513d88823e3d90fd5b90506020813d602011611ce1575b81611cd260209383612eaf565b8101031261042957513861189c565b3d9150611cc5565b610f949150863d8811610f9a57610f8c8183612eaf565b90506020813d602011611d2a575b81611d1b60209383612eaf565b810103126104295751386117da565b3d9150611d0e565b8780fd5b8380fd5b604051929150611d4983612e0b565b8183528160208401526060604084015280518101606082820312612649576020820151916040810151916060820151906001600160401b03821161264557611d9892602091820192010161487f565b604085015260208401528252611dac6149cf565b90611db5614944565b611de87f00000000000000000000000000000000000000000000000000000000000000006001600160a01b0316306146c1565b845160405163b3596f0760e01b81526001600160a01b037f0000000000000000000000000000000000000000000000000000000000000000811660048301529295926020908290602490829088165afa908115610f69578591612613575b5060405163313ce56760e01b81526020816004817f00000000000000000000000000000000000000000000000000000000000000006001600160a01b03165afa908115611cac5791610ed9610ed992611ea695948991611c93575061330a565b60405163b3596f0760e01b81526001600160a01b037f0000000000000000000000000000000000000000000000000000000000000000811660048301526020908290602490829088165afa908115610f695785916125e1575b5060405163313ce56760e01b81526020816004817f00000000000000000000000000000000000000000000000000000000000000006001600160a01b03165afa908115611cac5791610ed9610d0d92611f5f95948991611c93575061330a565b60405163095ea7b360e01b81526001600160a01b03831660048201526024810182905260208180604481010381887f00000000000000000000000000000000000000000000000000000000000000006001600160a01b03165af1908115610f695785916125c2575b501561257d57612039946020611fdb614a40565b60405163573ade8160e01b81527f00000000000000000000000000000000000000000000000000000000000000006001600160a01b031660048201526024810194909452600260448501523060648501529296879081906084820190565b0381886001600160a01b0388165af1958615610f69578596612549575b5061208a7f00000000000000000000000000000000000000000000000000000000000000006001600160a01b0316306146c1565b908082106124f8579061209d9291614816565b85518082106124a75750604051631a4ca37b60e21b81526001600160a01b037f000000000000000000000000000000000000000000000000000000000000000081166004830152602482019290925230604482015291602091839160649183918891165af1801561243f5761247c575b5060405163b3596f0760e01b81526001600160a01b037f0000000000000000000000000000000000000000000000000000000000000000811660048301526020908290602490829086165afa90811561243f57839161244a575b5060405163313ce56760e01b81526020816004817f00000000000000000000000000000000000000000000000000000000000000006001600160a01b03165afa90811561142f576121ca602493610ed96020946121d0948991611ce9575061330a565b86613787565b60405163b3596f0760e01b81526001600160a01b037f00000000000000000000000000000000000000000000000000000000000000008116600483015291949093849290918391165afa90811561243f57839161240d575b5060405163313ce56760e01b81526020816004817f00000000000000000000000000000000000000000000000000000000000000006001600160a01b03165afa90811561142f5791610ed9610d0d9261228895948791611c93575061330a565b6040516370a0823160e01b81523060048201529091906020816024817f00000000000000000000000000000000000000000000000000000000000000006001600160a01b03165afa91821561043557916123db575b5081811061238d57506122fb620f424091610ed9602086015161315d565b0490811561235b5760406123559301519130917f00000000000000000000000000000000000000000000000000000000000000007f0000000000000000000000000000000000000000000000000000000000000000614cf6565b50611b3b565b60405162461bcd60e51b815260206004820152600a60248201526906d6178496e20697320360b41b6044820152606490fd5b604051630b722aef60e21b81526001600160a01b037f000000000000000000000000000000000000000000000000000000000000000016600482015260248101929092526044820152606490fd5b90506020813d602011612405575b816123f660209383612eaf565b810103126104295751386122dd565b3d91506123e9565b90506020813d602011612437575b8161242860209383612eaf565b81010312610429575138612228565b3d915061241b565b6040513d85823e3d90fd5b90506020813d602011612474575b8161246560209383612eaf565b81010312610429575138612167565b3d9150612458565b602090813d83116124a0575b6124928183612eaf565b81010312610429573861210d565b503d612488565b6040516311d7238d60e21b81526001600160a01b037f000000000000000000000000000000000000000000000000000000000000000016600482015260248101919091526044810191909152606490fd5b604051637d9ebd0360e01b81526001600160a01b037f000000000000000000000000000000000000000000000000000000000000000016600482015260248101919091526044810191909152606490fd5b9095506020813d602011612575575b8161256560209383612eaf565b8101031261042957519438612056565b3d9150612558565b60405162461bcd60e51b8152602060048201526029602482015260008051602061572c833981519152604482015268696e2072656465656d60b81b6064820152608490fd5b6125db915060203d602011611056576110488183612eaf565b38611fc7565b90506020813d60201161260b575b816125fc60209383612eaf565b81010312610429575138611eff565b3d91506125ef565b90506020813d60201161263d575b8161262e60209383612eaf565b81010312610429575138611e46565b3d9150612621565b8580fd5b8280fd5b8680fd5b8480fd5b604051638698bf3760e01b8152600490fd5b604051634ac321c360e11b8152600490fd5b604051631e4a393d60e31b8152600490fd5b50346102de5760603660031901126102de576109886126a8612d9b565b6126b0612db1565b604435916126bf833383613237565b613091565b50346102de576126d336612f7c565b906001600160a01b0390816126e6614944565b1692827f0000000000000000000000000000000000000000000000000000000000000000169160405163b3596f0760e01b928382528460048301526020826024818a5afa918215610fd5578892612afb575b50808210612add575061274b9082613787565b60405163313ce56760e01b815290602082600481885afa918215610fd55761277d92610d0d918a91611c93575061330a565b92602460c08661278b6149cf565b1660405192838092632fe4a15f60e21b82523060048301525afa8015610fd55788918991612ab9575b506127bd6148c1565b6040519586526020866024818b7f0000000000000000000000000000000000000000000000000000000000000000169c8d60048301525afa9586156105a3578a96612a79575b50610d9296610d9261283a9493620f424061282361183e610d0d9661315d565b049983612834610d878d968961316e565b9661316e565b612842614a40565b907f00000000000000000000000000000000000000000000000000000000000000009163ffffffff831682118015612a6f575b612a3f575050506128888230338461372d565b61289760208387610df86149cf565b03818b865af1908115610fd5578891612a20575b50156129d0578690856128bc6149cf565b16803b156126495760405163617ba03760e01b81526001600160a01b03929092166004830152602482019390935230604482015260006064820152918290608490829084905af18015611cac576129bb575b5060405163313ce56760e01b81528592909190602083600481895afa90811561142f57610ed9610edf92612948958791611c93575061330a565b916129516149cf565b16803b156105ae5781809160a46040518094819363a415bcad60e01b8352896004840152886024840152600260448401528160648401523060848401525af18015611b79576129a7575050610f3d91339061350e565b6129b090612dc7565b612649578238610f30565b6129c89095919295612dc7565b93903861290e565b60405162461bcd60e51b8152602060048201526034602482015260008051602061572c833981519152604482015273696e20696e637265617365206c6576657261676560601b6064820152608490fd5b612a39915060203d602011611056576110488183612eaf565b386128ab565b604051630262805f60e11b8152600481019290925263ffffffff9290921660248201526044810191909152606490fd5b5080821115612875565b92919095506020833d602011612ab1575b81612a9760209383612eaf565b81010312612aad57915194909190610d92612803565b8980fd5b3d9150612a8a565b9050612ad3915060c03d81116110d2576110ba8183612eaf565b50505050386127b4565b6044925060405191636f3acc2360e11b835260048301526024820152fd5b9091506020813d602011612b27575b81612b1760209383612eaf565b81010312611d3257519038612738565b3d9150612b0a565b50346102de57806003193601126102de576020600254604051908152f35b50346102de576020610751612b6136612f32565b916112d7849594614b4c565b50346102de57806003193601126102de57610f3d613425565b50346102de5760203660031901126102de576020610751600435614af3565b50346102de5760403660031901126102de57612bbf612d9b565b602435903315612c3f576001600160a01b0316918215612c275760408291338152600160205281812085825260205220556040519081527f8c5be1e5ebec7d5bd14f71427d1e84f3dd0314c0f7b2291e5b200ac8c7c3b92560203392a3602060405160018152f35b60249060405190634a1406b160e11b82526004820152fd5b60405163e602df0560e01b815260048101849052602490fd5b50346102de57806003193601126102de57604051908060035491600183811c92818516948515612d10575b6020958686108114610b3b57858852879493929187908215610b19575050600114612cb6575050610aa792500383612eaf565b90859250600382527fc2575a0e9e593c00f959f8c92f12db2869c3395a3b0502d05e2516446f71f85b5b858310612cf8575050610aa793508201013880610a99565b80548389018501528794508693909201918101612ce0565b93607f1693612c83565b50346102de57806003193601126102de576020610751614b83565b60005b838110612d485750506000910152565b8181015183820152602001612d38565b90602091612d7181518092818552858086019101612d35565b601f01601f1916010190565b3461042957602036600319011261042957602061075160043561331b565b600435906001600160a01b038216820361042957565b602435906001600160a01b038216820361042957565b6001600160401b038111612dda57604052565b634e487b7160e01b600052604160045260246000fd5b604081019081106001600160401b03821117612dda57604052565b606081019081106001600160401b03821117612dda57604052565b608081019081106001600160401b03821117612dda57604052565b6101e081019081106001600160401b03821117612dda57604052565b602081019081106001600160401b03821117612dda57604052565b60a081019081106001600160401b03821117612dda57604052565b61016081019081106001600160401b03821117612dda57604052565b90601f801991011681019081106001600160401b03821117612dda57604052565b6001600160401b038111612dda57601f01601f191660200190565b81601f8201121561042957803590612f0282612ed0565b92612f106040519485612eaf565b8284526020838301011161042957816000926020809301838601378301015290565b90608060031983011261042957600435916024356001600160a01b0381168103610429579160443591606435906001600160401b03821161042957612f7991600401612eeb565b90565b6040906003190112610429576004359060243590565b3461042957602036600319011261042957612fab612d9b565b5060206040516000198152f35b9060c060031983011261042957600435916001600160a01b03916024358381168103610429579260443590811681036104295791606435916084359160a435906001600160401b03821161042957612f7991600401612eeb565b606090600319011261042957600435906001600160a01b03906024358281168103610429579160443590811681036104295790565b34610429576020366003190112610429576020610751600435614b4c565b6005546001600160a01b0316330361307957565b60405163118cdaa760e01b8152336004820152602490fd5b916001600160a01b03808416928315613144571692831561312b57600090838252816020526040822054908382106130f95750916040828260008051602061574c833981519152958760209652828652038282205586815220818154019055604051908152a3565b60405163391434e360e21b81526001600160a01b03919091166004820152602481019190915260448101839052606490fd5b60405163ec442f0560e01b815260006004820152602490fd5b604051634b637e8f60e11b815260006004820152602490fd5b90620f42409182018092116108da57565b919082018092116108da57565b9091906001600160a01b03811690816131c5575060008051602061574c8339815191526020846131b06000959660025461316e565b6002555b8060025403600255604051908152a3565b9260008281528060205260408120549482861061320657508181604060008051602061574c83398151915294600097988760209652838652039120556131b4565b60405163391434e360e21b81526001600160a01b039190911660048201526024810186905260448101839052606490fd5b9160018060a01b038093169160009383855260016020526040938486209183169182875260205284862054926000198403613276575b50505050505050565b8484106132da575080156132c25781156132aa5785526001602052838520908552602052039120553880808080808061326d565b8451634a1406b160e11b815260048101879052602490fd5b845163e602df0560e01b815260048101879052602490fd5b8551637dc7a0d960e11b81526001600160a01b039190911660048201526024810184905260448101859052606490fd5b60ff16604d81116108da57600a0a90565b613323614b83565b600181018091116108da5760025490600182018092116108da57612f7992613390565b9190613353828285613390565b92821561337057096133625790565b600181018091116108da5790565b634e487b7160e01b600052601260045260246000fd5b8115613370570490565b9091828202916000198482099383808610950394808603951461341857848311156134065782910981600003821680920460028082600302188083028203028083028203028083028203028083028203028083028203028092029003029360018380600003040190848311900302920304170290565b60405163227bc15360e01b8152600490fd5b505090612f799250613386565b61342d614a40565b801515806134a9575b61343d5750565b6064906040519063391f5eb560e01b8252600482015263ffffffff807f00000000000000000000000000000000000000000000000000000000000000001660248301527f0000000000000000000000000000000000000000000000000000000000000000166044820152fd5b5063ffffffff807f00000000000000000000000000000000000000000000000000000000000000001682109081156134e2575b50613436565b90507f0000000000000000000000000000000000000000000000000000000000000000168111386134dc565b60405163a9059cbb60e01b60208201526001600160a01b0392909216602483015260448083019390935291815261354f9161354a606483612eaf565b613569565b565b90816020910312610429575180151581036104295790565b6000806135b39260018060a01b03169360208151910182865af13d156135fc573d9061359482612ed0565b916135a26040519384612eaf565b82523d6000602084013e5b83613604565b80519081151591826135e1575b50506135c95750565b60249060405190635274afe760e01b82526004820152fd5b6135f49250602080918301019101613551565b1538806135c0565b6060906135ad565b9061362b575080511561361957805190602001fd5b604051630a12f52160e11b8152600490fd5b8151158061365e575b61363c575090565b604051639996b31560e01b81526001600160a01b039091166004820152602490fd5b50803b15613634565b929190936136b490613677613425565b6001600160a01b03936136ae8630337f0000000000000000000000000000000000000000000000000000000000000000891661372d565b856137cb565b1691821561312b576136c88160025461316e565b600255826000526000602052604060002081815401905582600060008051602061574c8339815191526020604051858152a360405191825260208201527fdcbc1c05240f31ff3ad067ef1ee35ce4997762752e3a095284754544f4c709d760403392a3565b6040516323b872dd60e01b60208201526001600160a01b03928316602482015292909116604483015260648083019390935291815261354f9161354a82612e78565b90620f4240918281029281840414901517156108da57565b818102929181159184041417156108da57565b6001600160a01b039182168152911660208201526040810191909152608060608201819052612f7992910190612d58565b61387b90929192613862620f424061380963ffffffff7f00000000000000000000000000000000000000000000000000000000000000001684613787565b049161385460409586519761381d89612e26565b83895281606060209a888c820152838b820152015287519586948a86015288850152606084015260808084015260a0830190612d58565b03601f198101835282612eaf565b82519061386e82612df0565b6001825284820152614854565b815163613255ab60e01b81526001600160a01b037f00000000000000000000000000000000000000000000000000000000000000008116600483018190527f000000000000000000000000000000000000000000000000000000000000000090911691908582602481865afa918215613aca57600092613a9b575b508451633676633960e21b81526001600160a01b0382166004820152602481018390528681604481875afa908115613a6057908791600091613a6b575b5090613942613971928561316e565b875163095ea7b360e01b81526001600160a01b0387166004820152602481019190915291829081906044820190565b03816000865af1908115613a6057600091613a43575b50156139ec5791849391600087946139b5975197889586948593632e7ff4ef60e11b8552306004860161379a565b03925af19081156139e257506139c9575050565b816139df92903d10611056576110488183612eaf565b50565b513d6000823e3d90fd5b845162461bcd60e51b815260048101879052602a60248201527f617070726f7665206661696c656420666f7220666c617368206c656e646572206044820152691a5b8819195c1bdcda5d60b21b6064820152608490fd5b613a5a9150873d8911611056576110488183612eaf565b38613987565b86513d6000823e3d90fd5b9182813d8311613a94575b613a808183612eaf565b810103126102de5750518690613942613933565b503d613a76565b90918682813d8311613ac3575b613ab28183612eaf565b810103126102de57505190386138f6565b503d613aa8565b85513d6000823e3d90fd5b919082039182116108da57565b90816020910312610429575160ff811681036104295790565b90959493929193613b0a613425565b336001600160a01b03841603614151575b620f4240613b4f63ffffffff7f00000000000000000000000000000000000000000000000000000000000000001684613787565b60405163613255ab60e01b81526001600160a01b037f00000000000000000000000000000000000000000000000000000000000000008116600483015290939290910490602090849060249082907f0000000000000000000000000000000000000000000000000000000000000000165afa928315613fe35760009361411b575b5090613c16613c31928260408051613be781612e0b565b8381528a6020820152015261385460405193849260208401528960408401526060808401526080830190612d58565b60405190613c2382612df0565b600082526020820152614854565b6040516370a0823160e01b8152306004820152916020836024817f00000000000000000000000000000000000000000000000000000000000000006001600160a01b03165afa928315613fe3576000936140e7575b50604051633676633960e21b81527f00000000000000000000000000000000000000000000000000000000000000006001600160a01b0316600482015260248101829052602081806044810103817f00000000000000000000000000000000000000000000000000000000000000006001600160a01b03165afa908115613fe3576000916140b4575b506020613d1f613d6f928461316e565b60405163095ea7b360e01b81527f00000000000000000000000000000000000000000000000000000000000000006001600160a01b03166004820152602481019190915291829081906044820190565b038160007f00000000000000000000000000000000000000000000000000000000000000006001600160a01b03165af1908115613fe357600091614095575b501561403e57604051632e7ff4ef60e11b81529160209183918291613e0291907f00000000000000000000000000000000000000000000000000000000000000006001600160a01b0316306004860161379a565b038160007f00000000000000000000000000000000000000000000000000000000000000006001600160a01b03165af18015613fe35761401f575b506001600160a01b038316600090815260208190526040902054878110613fef57506001600160a01b0383161561314457613e78878461317b565b6040516370a0823160e01b81523060048201526020816024817f00000000000000000000000000000000000000000000000000000000000000006001600160a01b03165afa908115613fe357600091613fb1575b50818110613f935790613ede91613ad5565b92818411613f65575b50613f1e905082847f00000000000000000000000000000000000000000000000000000000000000006001600160a01b031661350e565b8194604051928352602083015260018060a01b03169160018060a01b0316907ffbde797d201c681b91056529119e0b02407c7bb96a4a2c75c01fc9667232c8db60403392a4565b613f7482613f8b939495613ad5565b9060405191613f8283612e5d565b600083526137cb565b903880613ee7565b6044925060405191630cbb578960e31b835260048301526024820152fd5b906020823d602011613fdb575b81613fcb60209383612eaf565b810103126102de57505138613ecc565b3d9150613fbe565b6040513d6000823e3d90fd5b604051631bb4880160e11b81526001600160a01b0385166004820152602481018990526044810191909152606490fd5b6140379060203d602011611056576110488183612eaf565b5038613e3d565b60405162461bcd60e51b815260206004820152602960248201527f617070726f7665206661696c656420666f7220666c617368206c656e64657220604482015268696e2072656465656d60b81b6064820152608490fd5b6140ae915060203d602011611056576110488183612eaf565b38613dae565b906020823d6020116140df575b816140ce60209383612eaf565b810103126102de5750516020613d0f565b3d91506140c1565b90926020823d602011614113575b8161410260209383612eaf565b810103126102de5750519138613c86565b3d91506140f5565b90926020823d602011614149575b8161413660209383612eaf565b810103126102de57505191613c16613bd0565b3d9150614129565b61415c873385613237565b613b1b565b95969290939661416f613425565b336001600160a01b03831603614683575b620f42406141b463ffffffff7f00000000000000000000000000000000000000000000000000000000000000001689613787565b60405163613255ab60e01b81526001600160a01b037f00000000000000000000000000000000000000000000000000000000000000008116600483015290939290910490602090849060249082907f0000000000000000000000000000000000000000000000000000000000000000165afa928315613fe35760009361464d575b5090613c1661427c928260408d81519061424e82612e0b565b8482526020820152015261385460405193849260208401528d60408401526060808401526080830190612d58565b6040516370a0823160e01b8152306004820152916020836024817f00000000000000000000000000000000000000000000000000000000000000006001600160a01b03165afa928315613fe357600093614619575b50604051633676633960e21b81527f00000000000000000000000000000000000000000000000000000000000000006001600160a01b0316600482015260248101829052602081806044810103817f00000000000000000000000000000000000000000000000000000000000000006001600160a01b03165afa908115613fe3576000916145e6575b506020613d1f61436a928461316e565b038160007f00000000000000000000000000000000000000000000000000000000000000006001600160a01b03165af1908115613fe3576000916145c7575b501561403e57604051632e7ff4ef60e11b815291602091839182916143fd91907f00000000000000000000000000000000000000000000000000000000000000006001600160a01b0316306004860161379a565b038160007f00000000000000000000000000000000000000000000000000000000000000006001600160a01b03165af18015613fe3576145a8575b506001600160a01b03821660009081526020819052604090205485811061457857506001600160a01b0382161561314457614473858361317b565b6040516370a0823160e01b81523060048201526020816024817f00000000000000000000000000000000000000000000000000000000000000006001600160a01b03165afa908115613fe357600091614546575b50818110613f9357906144d991613ad5565b9585871015614500576044878760405191630a38061160e21b835260048301526024820152fd5b8092955086949791939611613f655750613f1e905082847f00000000000000000000000000000000000000000000000000000000000000006001600160a01b031661350e565b906020823d602011614570575b8161456060209383612eaf565b810103126102de575051386144c7565b3d9150614553565b604051631bb4880160e11b81526001600160a01b0384166004820152602481018790526044810191909152606490fd5b6145c09060203d602011611056576110488183612eaf565b5038614438565b6145e0915060203d602011611056576110488183612eaf565b386143a9565b906020823d602011614611575b8161460060209383612eaf565b810103126102de575051602061435a565b3d91506145f3565b90926020823d602011614645575b8161463460209383612eaf565b810103126102de57505191386142d1565b3d9150614627565b90926020823d60201161467b575b8161466860209383612eaf565b810103126102de57505191613c16614235565b3d915061465b565b61468e853384613237565b614180565b91908260c09103126104295781519160208101519160408201519160608101519160a0608083015192015190565b6001600160a01b039190826146d46149cf565b169160c084602460409485519687938492632fe4a15f60e21b84521660048301525afa801561480b5760009384916147e3575b5084614711614944565b1693835195869363b3596f0760e01b8552169485600485015283602460209586935afa9586156147d8576000966147a7575b50916147528192600494613ad5565b9484519384809263313ce56760e01b82525afa9283156139e25750610edf92612f79959492610ed99260009261478a575b505061330a565b6147a09250803d10610f9a57610f8c8183612eaf565b3880614783565b90958382813d83116147d1575b6147be8183612eaf565b810103126102de57505194614752614743565b503d6147b4565b84513d6000823e3d90fd5b90506147fe91935060c03d81116110d2576110ba8183612eaf565b5050505092909238614707565b82513d6000823e3d90fd5b61481f91613ad5565b620f424082111561484c578161483491613787565b90620f423f1981019081116108da57612f7991613386565b505060001990565b612f796020825115159201519161385460405193849260208401526040808401526060830190612d58565b81601f8201121561042957805161489581612ed0565b926148a36040519485612eaf565b8184526020828401011161042957612f799160208085019101612d35565b6148c9614a40565b7f000000000000000000000000000000000000000000000000000000000000000063ffffffff168082111561491b57610edf610d878261490894613ad5565b600754808211614916575090565b905090565b610edf610d8761492b9383613ad5565b614908565b51906001600160a01b038216820361042957565b604051631f94a27560e31b81526001600160a01b03906020816004817f000000000000000000000000000000000000000000000000000000000000000086165afa908115613fe35760009161499857501690565b906020823d82116149c7575b816149b160209383612eaf565b810103126102de57506149c390614930565b1690565b3d91506149a4565b60405163026b1d5f60e01b81526001600160a01b03906020816004817f000000000000000000000000000000000000000000000000000000000000000086165afa908115613fe35760009161499857501690565b51906fffffffffffffffffffffffffffffffff8216820361042957565b602460c06001600160a01b03614a546149cf565b1660405192838092632fe4a15f60e21b82523060048301525afa908115613fe3576000908192614ace575b50818110614ab1578015614aaa5781811461484c57610d0d612f7992614aa48361376f565b92613ad5565b5050600090565b604491604051916378ea417b60e11b835260048301526024820152fd5b9050614ae8915060c03d81116110d2576110ba8183612eaf565b505050509038614a7f565b6002548015614b4857614b04614b83565b908115614b2a57600181018091116108da57600182018092116108da57612f7992613346565b604492506040519163287036a960e21b835260048301526024820152fd5b5090565b6002548015614b4857614b5d614b83565b908115614b2a57600181018091116108da57600182018092116108da57612f7992613390565b60246001600160a01b0380614b966149cf565b1660c0604091825194858092632fe4a15f60e21b82523060048301525afa8015614ceb576000938491614cc3575b50808410614ca657614bde90614bd8614944565b94613ad5565b91807f00000000000000000000000000000000000000000000000000000000000000001682519463b3596f0760e01b8652816004870152856024816020958694165afa948515614c9b57600095614c6c575b50908060049284519384809263313ce56760e01b82525afa9283156139e25750610edf92612f79959492610ed99260009261478a57505061330a565b90948282813d8311614c94575b614c838183612eaf565b810103126102de5750519381614c30565b503d614c79565b83513d6000823e3d90fd5b839060449251916378ea417b60e11b835260048301526024820152fd5b9050614cde91935060c03d81116110d2576110ba8183612eaf565b5050505092909238614bc4565b50513d6000823e3d90fd5b939194929092805115600014614d345750612f79946001600160a01b038481169490614d2e908716614d288782614e20565b96614e20565b95615254565b929460405195614d4387612df0565b606087526020870194606086528051810160408260208301920312610429576020820151916001600160401b039283811161042957826020614d879284010161487f565b90604081015193841161042957612f799a614dae614db6946020614d2e978695010161487f565b8a5252615068565b9551615068565b604090815191614dcc83612e0b565b828151614dd881612e93565b61016036823781528151614deb81612e78565b60005b60a08110614e03575060208201526000910152565b6020908451614e1181612e26565b60803682378184015201614dee565b90614e29614dbd565b506001600160a01b0391821691907f000000000000000000000000000000000000000000000000000000000000000082168381148061503b575b15614f2457505090506040805191614e7a83612e0b565b81519060006008835b600b8310614f0c5750505050614e9881612e93565b82528051614ea581612e78565b60136000825b60058210614ec55750505060208301526027549082015290565b8451600084825b60048310614ef657505050602060019282614ee8600494612e26565b815201930191019091614eab565b6001602081928454815201920192019190614ecc565b60016020819286855416815201920192019190614e83565b827f0000000000000000000000000000000000000000000000000000000000000000168414908161502f575b50614f7457604493506040519263ee4caf3d60e01b84526004840152166024820152fd5b5090506040805191614f8583612e0b565b81519060006028835b600b83106150175750505050614fa381612e93565b82528051614fb081612e78565b60336000825b60058210614fd05750505060208301526047549082015290565b8451600084825b6004831061500157505050602060019282614ff3600494612e26565b815201930191019091614fb6565b6001602081928454815201920192019190614fd7565b60016020819286855416815201920192019190614f8e565b90508282161438614f50565b50827f00000000000000000000000000000000000000000000000000000000000000001683831614614e63565b90615071614dbd565b9180518101906020818184019361040093849103126104295783603f82011215610429576040908151946150a486612e93565b610180820191868284116104295785808301915b858310615153575050508161019f82011215610429578351956150da87612e78565b8691019282841161042957905b8382106150fd5750505051908601528401528252565b82601f8301121561042957845161511381612e26565b80608084018581116104295791889285949294905b808210615140575050608093508152019101906150e7565b81518652948401948a9490910190615128565b819061515e84614930565b81520191019086906150b8565b6000915b600b831061517c57505050565b81516001600160a01b03168152600192909201916020918201910161516f565b9060009182915b600583106151b15750505050565b815184825b600482106151d45750505060206080600192019201920191906151a3565b6001908351815260208091019301910190916151b6565b61520f6103e0929594936152048361040081019861516b565b61016083019061519c565b0152565b93909594919261523a6104209461522f8761044081019a61516b565b61016087019061519c565b6103e08501526104008401526001600160a01b0316910152565b94939591909295816020865181880151906152836040519485938493637b5e2c7b60e01b8552600485016151eb565b03817f00000000000000000000000000000000000000000000000000000000000000006001600160a01b03165afa908115613fe3576000916156f7575b506152d6620f424091610ed9604089015161315d565b048781116156d9576040516370a0823160e01b8152306004820152976020896024816001600160a01b038c165afa988915613fe3576000996156a4575b5060405163095ea7b360e01b81527f00000000000000000000000000000000000000000000000000000000000000006001600160a01b03166004820152602481019190915291906020838060448101038160006001600160a01b038d165af1918215613fe3578493602093615687575b506153ab838951990151916040519586948594633f51256760e21b9c8d875260048701615213565b038160007f00000000000000000000000000000000000000000000000000000000000000006001600160a01b03165af1908115613fe357600091615653575b50906153f591613ad5565b928361547c575b50506040516370a0823160e01b8152306004820152926020925083915060249082906001600160a01b03165afa908115613fe35760009161544a575b5081811015614aaa57612f7991613ad5565b906020823d602011615474575b8161546460209383612eaf565b810103126102de57505138615438565b3d9150615457565b815191846020808301948551906154a760405194859384936308f109c360e11b8552600485016151eb565b03817f00000000000000000000000000000000000000000000000000000000000000006001600160a01b03165afa908115613fe357600091615621575b50604854620f42400390620f424082116108da57620f42409161550691613787565b60405163095ea7b360e01b81527f00000000000000000000000000000000000000000000000000000000000000006001600160a01b03166004820152602481018890529591900493906020908690816000816044810103926001600160a01b03165af1918215613fe35760209561559693615604575b505190519360405196879586958652309360048701615213565b038160007f00000000000000000000000000000000000000000000000000000000000000006001600160a01b03165af18015613fe3576155d9575b8080806153fc565b602090813d83116155fd575b6155ef8183612eaf565b8101031261042957386155d1565b503d6155e5565b61561a90873d8911611056576110488183612eaf565b503861557c565b906020823d60201161564b575b8161563b60209383612eaf565b810103126102de575051386154e4565b3d915061562e565b906020823d60201161567f575b8161566d60209383612eaf565b810103126102de5750516153f56153ea565b3d9150615660565b61569d90843d8611611056576110488183612eaf565b5038615383565b90986020823d6020116156d1575b816156bf60209383612eaf565b810103126102de575051976020615313565b3d91506156b2565b60449088604051916334398dcf60e01b835260048301526024820152fd5b906020823d602011615723575b8161571160209383612eaf565b810103126102de5750516152d66152c0565b3d915061570456fe617070726f7665206661696c656420666f72206c656e64696e6720706f6f6c20ddf252ad1be2c89b69c2b068fc378daa952ba7f163c4a11628f55a4df523b3efa2646970667358221220f7bf735b4d7bcb1f69ec4e6d11e1d3ba22b35470303194bc3b5cc1500ec8588964736f6c63430008140033",
  "devdoc": {
    "details": "A leveraged vault contract with CurveFi swap-specific logic",
    "errors": {
      "AddressEmptyCode(address)": [
        {
          "details": "There's no code at `target` (it is not a contract)."
        }
      ],
      "AddressInsufficientBalance(address)": [
        {
          "details": "The ETH balance of the account is not enough to perform the operation."
        }
      ],
      "ERC20InsufficientAllowance(address,uint256,uint256)": [
        {
          "details": "Indicates a failure with the `spender`s `allowance`. Used in transfers.",
          "params": {
            "allowance": "Amount of tokens a `spender` is allowed to operate with.",
            "needed": "Minimum amount required to perform a transfer.",
            "spender": "Address that may be allowed to operate on tokens without being their owner."
          }
        }
      ],
      "ERC20InsufficientBalance(address,uint256,uint256)": [
        {
          "details": "Indicates an error related to the current `balance` of a `sender`. Used in transfers.",
          "params": {
            "balance": "Current balance for the interacting account.",
            "needed": "Minimum amount required to perform a transfer.",
            "sender": "Address whose tokens are being transferred."
          }
        }
      ],
      "ERC20InvalidApprover(address)": [
        {
          "details": "Indicates a failure with the `approver` of a token to be approved. Used in approvals.",
          "params": {
            "approver": "Address initiating an approval operation."
          }
        }
      ],
      "ERC20InvalidReceiver(address)": [
        {
          "details": "Indicates a failure with the token `receiver`. Used in transfers.",
          "params": {
            "receiver": "Address to which tokens are being transferred."
          }
        }
      ],
      "ERC20InvalidSender(address)": [
        {
          "details": "Indicates a failure with the token `sender`. Used in transfers.",
          "params": {
            "sender": "Address whose tokens are being transferred."
          }
        }
      ],
      "ERC20InvalidSpender(address)": [
        {
          "details": "Indicates a failure with the `spender` to be approved. Used in approvals.",
          "params": {
            "spender": "Address that may be allowed to operate on tokens without being their owner."
          }
        }
      ],
      "ERC4626ExceededMaxDeposit(address,uint256,uint256)": [
        {
          "details": "Attempted to deposit more assets than the max amount for `receiver`."
        }
      ],
      "ERC4626ExceededMaxMint(address,uint256,uint256)": [
        {
          "details": "Attempted to mint more shares than the max amount for `receiver`."
        }
      ],
      "ERC4626ExceededMaxRedeem(address,uint256,uint256)": [
        {
          "details": "Attempted to redeem more shares than the max amount for `receiver`."
        }
      ],
      "ERC4626ExceededMaxWithdraw(address,uint256,uint256)": [
        {
          "details": "Attempted to withdraw more assets than the max amount for `receiver`."
        }
      ],
      "FailedInnerCall()": [
        {
          "details": "A call to an address target failed. The target may have reverted."
        }
      ],
      "MathOverflowedMulDiv()": [
        {
          "details": "Muldiv operation overflow."
        }
      ],
      "OwnableInvalidOwner(address)": [
        {
          "details": "The owner is not a valid owner account. (eg. `address(0)`)"
        }
      ],
      "OwnableUnauthorizedAccount(address)": [
        {
          "details": "The caller account is not authorized to perform an operation."
        }
      ],
      "SafeERC20FailedOperation(address)": [
        {
          "details": "An operation with an ERC20 token failed."
        }
      ]
    },
    "events": {
      "Approval(address,address,uint256)": {
        "details": "Emitted when the allowance of a `spender` for an `owner` is set by a call to {approve}. `value` is the new allowance."
      },
      "Transfer(address,address,uint256)": {
        "details": "Emitted when `value` tokens are moved from one account (`from`) to another (`to`). Note that `value` may be zero."
      }
    },
    "kind": "dev",
    "methods": {
      "allowance(address,address)": {
        "details": "See {IERC20-allowance}."
      },
      "approve(address,uint256)": {
        "details": "See {IERC20-approve}. NOTE: If `value` is the maximum `uint256`, the allowance is not updated on `transferFrom`. This is semantically equivalent to an infinite approval. Requirements: - `spender` cannot be the zero address."
      },
      "asset()": {
        "details": "See {IERC4626-asset}. "
      },
      "balanceOf(address)": {
        "details": "See {IERC20-balanceOf}."
      },
      "checkIsTooImbalanced()": {
        "details": "Checks if the current leverage is too imbalanced"
      },
      "constructor": {
        "details": "Constructor for the DLoopVaultCurve contract",
        "params": {
          "_curveRouter": "Address of the Curve router",
          "_defaultDUSDToUnderlyingSwapExtraParams": "Default swap params from dUSD to underlying asset",
          "_defaultUnderlyingToDUSDSwapExtraParams": "Default swap params from underlying asset to dUSD",
          "_dusd": "Address of the dUSD token",
          "_flashLender": "Address of the flash loan provider",
          "_lendingPoolAddressesProvider": "Address of the lending pool addresses provider",
          "_maxSubsidyBps": "Maximum subsidy in basis points",
          "_name": "Name of the vault token",
          "_swapSlippageTolerance": "Swap slippage tolerance in basis points",
          "_symbol": "Symbol of the vault token",
          "_targetLeverageBps": "Target leverage in basis points",
          "_underlyingAsset": "Address of the underlying asset"
        }
      },
      "convertToAssets(uint256)": {
        "details": "See {IERC4626-convertToAssets}. "
      },
      "convertToShares(uint256)": {
        "details": "See {IERC4626-convertToShares}. "
      },
      "decimals()": {
        "details": "Decimals are computed by adding the decimal offset on top of the underlying asset's decimals. This \"original\" value is cached during construction of the vault contract. If this read operation fails (e.g., the asset has not been created yet), a default of 18 is used to represent the underlying asset's decimals. See {IERC20Metadata-decimals}."
      },
      "deposit(uint256,address)": {
        "details": "Deposits assets into the vault",
        "params": {
          "assets": "Amount of assets to deposit",
          "receiver": "Address to receive the minted shares"
        },
        "returns": {
          "shares": "Amount of shares minted"
        }
      },
      "depositWith(uint256,address,uint256,bytes)": {
        "details": "Deposits assets into the vault with custom parameters",
        "params": {
          "assets": "Amount of assets to deposit",
          "dusdToUnderlyingSwapData": "Swap data from dUSD to underlying asset",
          "receiver": "Address to receive the minted shares",
          "slippageTolerance": "Slippage tolerance for the swap"
        },
        "returns": {
          "shares": "Amount of shares minted"
        }
      },
      "maxDeposit(address)": {
        "details": "See {IERC4626-maxDeposit}. "
      },
      "maxMint(address)": {
        "details": "See {IERC4626-maxMint}. "
      },
      "maxRedeem(address)": {
        "details": "See {IERC4626-maxRedeem}. "
      },
      "maxWithdraw(address)": {
        "details": "See {IERC4626-maxWithdraw}. "
      },
      "mint(uint256,address)": {
        "details": "Mints shares to the receiver by depositing assets",
        "params": {
          "receiver": "Address to receive the minted shares",
          "shares": "Amount of shares to mint"
        },
        "returns": {
          "assets": "Amount of assets deposited"
        }
      },
      "mintWith(uint256,address,uint256,bytes)": {
        "details": "Mints shares to the receiver by depositing assets with custom parameters",
        "params": {
          "dusdToUnderlyingSwapData": "Swap data from dUSD to underlying asset",
          "receiver": "Address to receive the minted shares",
          "shares": "Amount of shares to mint",
          "slippageTolerance": "Slippage tolerance for the swap"
        },
        "returns": {
          "assets": "Amount of assets deposited"
        }
      },
      "name()": {
        "details": "Returns the name of the token."
      },
      "onFlashLoan(address,address,uint256,uint256,bytes)": {
        "details": "Callback function for flash loans",
        "params": {
          "data": "Additional data passed to the flash loan",
          "initiator": "Address that initiated the flash loan",
          "token": "Address of the flash-borrowed token"
        },
        "returns": {
          "_0": "bytes32 The flash loan callback success bytes"
        }
      },
      "owner()": {
        "details": "Returns the address of the current owner."
      },
      "previewDeposit(uint256)": {
        "details": "See {IERC4626-previewDeposit}. "
      },
      "previewMint(uint256)": {
        "details": "See {IERC4626-previewMint}. "
      },
      "previewRedeem(uint256)": {
        "details": "See {IERC4626-previewRedeem}. "
      },
      "previewWithdraw(uint256)": {
        "details": "See {IERC4626-previewWithdraw}. "
      },
      "redeem(uint256,address,address)": {
        "details": "Redeems shares from the vault",
        "params": {
          "owner": "Address that owns the shares",
          "receiver": "Address to receive the assets",
          "shares": "Amount of shares to redeem"
        },
        "returns": {
          "assets": "Amount of assets redeemed"
        }
      },
      "redeemWith(uint256,address,address,uint256,uint256,bytes)": {
        "details": "Redeems shares from the vault with custom parameters",
        "params": {
          "minReceiveAmount": "Minimum amount of assets to receive",
          "owner": "Address that owns the shares",
          "receiver": "Address to receive the assets",
          "shares": "Amount of shares to redeem",
          "swapSlippageTolerance": "Slippage tolerance for the swap",
          "underlyingToDUSDSwapData": "Swap data from underlying asset to DUSD"
        },
        "returns": {
          "assets": "Amount of assets redeemed"
        }
      },
      "renounceOwnership()": {
        "details": "Leaves the contract without owner. It will not be possible to call `onlyOwner` functions. Can only be called by the current owner. NOTE: Renouncing ownership will leave the contract without an owner, thereby disabling any functionality that is only available to the owner."
      },
      "rescueToken(address,address)": {
        "details": "Rescues tokens accidentally sent to the contract",
        "params": {
          "receiver": "Address to receive the rescued tokens",
          "token": "Address of the token to rescue"
        }
      },
      "setDefaultSwapSlippageTolerance(uint256)": {
        "details": "Sets the default swap slippage tolerance",
        "params": {
          "_swapSlippageTolerance": "New default swap slippage tolerance"
        }
      },
      "setMaxSubsidyBps(uint256)": {
        "details": "Sets the maximum subsidy in basis points",
        "params": {
          "_maxSubsidyBps": "New maximum subsidy in basis points"
        }
      },
      "symbol()": {
        "details": "Returns the symbol of the token, usually a shorter version of the name."
      },
      "totalAssets()": {
        "details": "See {IERC4626-totalAssets}. "
      },
      "totalSupply()": {
        "details": "See {IERC20-totalSupply}."
      },
      "transfer(address,uint256)": {
        "details": "See {IERC20-transfer}. Requirements: - `to` cannot be the zero address. - the caller must have a balance of at least `value`."
      },
      "transferFrom(address,address,uint256)": {
        "details": "See {IERC20-transferFrom}. Emits an {Approval} event indicating the updated allowance. This is not required by the EIP. See the note at the beginning of {ERC20}. NOTE: Does not update the allowance if the current allowance is the maximum `uint256`. Requirements: - `from` and `to` cannot be the zero address. - `from` must have a balance of at least `value`. - the caller must have allowance for ``from``'s tokens of at least `value`."
      },
      "transferOwnership(address)": {
        "details": "Transfers ownership of the contract to a new account (`newOwner`). Can only be called by the current owner."
      },
      "withdraw(uint256,address,address)": {
        "details": "Withdraws assets from the vault",
        "params": {
          "assets": "Amount of assets to withdraw",
          "owner": "Address that owns the shares",
          "receiver": "Address to receive the assets"
        },
        "returns": {
          "shares": "Amount of shares burned"
        }
      },
      "withdrawWith(uint256,address,address,uint256,uint256,bytes)": {
        "details": "Withdraws assets from the vault with custom parameters",
        "params": {
          "assets": "Amount of assets to withdraw",
          "minReceiveAmount": "Minimum amount of assets to receive",
          "owner": "Address that owns the shares",
          "receiver": "Address to receive the assets",
          "swapSlippageTolerance": "Slippage tolerance for the swap",
          "underlyingToDUSDSwapData": "Swap data from underlying asset to dUSD"
        },
        "returns": {
          "shares": "Amount of shares burned"
        }
      }
    },
    "title": "DLoopVaultCurve",
    "version": 1
  },
  "userdoc": {
    "kind": "user",
    "methods": {},
    "version": 1
  },
  "storageLayout": {
    "storage": [
      {
        "astId": 477,
        "contract": "contracts/vault/DLoopVaultCurve.sol:DLoopVaultCurve",
        "label": "_balances",
        "offset": 0,
        "slot": "0",
        "type": "t_mapping(t_address,t_uint256)"
      },
      {
        "astId": 483,
        "contract": "contracts/vault/DLoopVaultCurve.sol:DLoopVaultCurve",
        "label": "_allowances",
        "offset": 0,
        "slot": "1",
        "type": "t_mapping(t_address,t_mapping(t_address,t_uint256))"
      },
      {
        "astId": 485,
        "contract": "contracts/vault/DLoopVaultCurve.sol:DLoopVaultCurve",
        "label": "_totalSupply",
        "offset": 0,
        "slot": "2",
        "type": "t_uint256"
      },
      {
        "astId": 487,
        "contract": "contracts/vault/DLoopVaultCurve.sol:DLoopVaultCurve",
        "label": "_name",
        "offset": 0,
        "slot": "3",
        "type": "t_string_storage"
      },
      {
        "astId": 489,
        "contract": "contracts/vault/DLoopVaultCurve.sol:DLoopVaultCurve",
        "label": "_symbol",
        "offset": 0,
        "slot": "4",
        "type": "t_string_storage"
      },
      {
        "astId": 8,
        "contract": "contracts/vault/DLoopVaultCurve.sol:DLoopVaultCurve",
        "label": "_owner",
        "offset": 0,
        "slot": "5",
        "type": "t_address"
      },
      {
        "astId": 5376,
        "contract": "contracts/vault/DLoopVaultCurve.sol:DLoopVaultCurve",
        "label": "_defaultSwapSlippageTolerance",
        "offset": 0,
        "slot": "6",
        "type": "t_uint256"
      },
      {
        "astId": 5390,
        "contract": "contracts/vault/DLoopVaultCurve.sol:DLoopVaultCurve",
        "label": "_defaultMaxSubsidyBps",
        "offset": 0,
        "slot": "7",
        "type": "t_uint256"
      },
      {
        "astId": 7882,
        "contract": "contracts/vault/DLoopVaultCurve.sol:DLoopVaultCurve",
        "label": "DEFAULT_DUSD_TO_UNDERLYING_SWAP_EXTRA_PARAMS",
        "offset": 0,
        "slot": "8",
        "type": "t_struct(CurveSwapExtraParams)7871_storage"
      },
      {
        "astId": 7885,
        "contract": "contracts/vault/DLoopVaultCurve.sol:DLoopVaultCurve",
        "label": "DEFAULT_UNDERLYING_TO_DUSD_SWAP_EXTRA_PARAMS",
        "offset": 0,
        "slot": "40",
        "type": "t_struct(CurveSwapExtraParams)7871_storage"
      },
      {
        "astId": 7887,
        "contract": "contracts/vault/DLoopVaultCurve.sol:DLoopVaultCurve",
        "label": "_defaultMaxSlippageSurplusSwapBps",
        "offset": 0,
        "slot": "72",
        "type": "t_uint256"
      }
    ],
    "types": {
      "t_address": {
        "encoding": "inplace",
        "label": "address",
        "numberOfBytes": "20"
      },
      "t_array(t_address)11_storage": {
        "base": "t_address",
        "encoding": "inplace",
        "label": "address[11]",
        "numberOfBytes": "352"
      },
      "t_array(t_array(t_uint256)4_storage)5_storage": {
        "base": "t_array(t_uint256)4_storage",
        "encoding": "inplace",
        "label": "uint256[4][5]",
        "numberOfBytes": "640"
      },
      "t_array(t_uint256)4_storage": {
        "base": "t_uint256",
        "encoding": "inplace",
        "label": "uint256[4]",
        "numberOfBytes": "128"
      },
      "t_mapping(t_address,t_mapping(t_address,t_uint256))": {
        "encoding": "mapping",
        "key": "t_address",
        "label": "mapping(address => mapping(address => uint256))",
        "numberOfBytes": "32",
        "value": "t_mapping(t_address,t_uint256)"
      },
      "t_mapping(t_address,t_uint256)": {
        "encoding": "mapping",
        "key": "t_address",
        "label": "mapping(address => uint256)",
        "numberOfBytes": "32",
        "value": "t_uint256"
      },
      "t_string_storage": {
        "encoding": "bytes",
        "label": "string",
        "numberOfBytes": "32"
      },
      "t_struct(CurveSwapExtraParams)7871_storage": {
        "encoding": "inplace",
        "label": "struct DLoopVaultCurve.CurveSwapExtraParams",
        "members": [
          {
            "astId": 7862,
            "contract": "contracts/vault/DLoopVaultCurve.sol:DLoopVaultCurve",
            "label": "route",
            "offset": 0,
            "slot": "0",
            "type": "t_array(t_address)11_storage"
          },
          {
            "astId": 7868,
            "contract": "contracts/vault/DLoopVaultCurve.sol:DLoopVaultCurve",
            "label": "swapParams",
            "offset": 0,
            "slot": "11",
            "type": "t_array(t_array(t_uint256)4_storage)5_storage"
          },
          {
            "astId": 7870,
            "contract": "contracts/vault/DLoopVaultCurve.sol:DLoopVaultCurve",
            "label": "swapSlippageBufferBps",
            "offset": 0,
            "slot": "31",
            "type": "t_uint256"
          }
        ],
        "numberOfBytes": "1024"
      },
      "t_uint256": {
        "encoding": "inplace",
        "label": "uint256",
        "numberOfBytes": "32"
      }
    }
  }
}