{
  "address": "0xdbcEfdF4be90e9c0179eE461642A041F21353B9A",
  "abi": [
    {
      "inputs": [
        {
          "internalType": "string",
          "name": "_name",
          "type": "string"
        },
        {
          "internalType": "string",
          "name": "_symbol",
          "type": "string"
        },
        {
          "internalType": "contract ERC20",
          "name": "_underlyingAsset",
          "type": "address"
        },
        {
          "internalType": "contract ERC20",
          "name": "_dusd",
          "type": "address"
        },
        {
          "internalType": "contract IERC3156FlashLender",
          "name": "_flashLender",
          "type": "address"
        },
        {
          "internalType": "contract ISwapRouter",
          "name": "_swapRouter",
          "type": "address"
        },
        {
          "internalType": "bytes",
          "name": "_defaultDUSDToUnderlyingSwapPath",
          "type": "bytes"
        },
        {
          "internalType": "bytes",
          "name": "_defaultUnderlyingToDUSDSwapPath",
          "type": "bytes"
        },
        {
          "internalType": "contract IPoolAddressesProvider",
          "name": "_lendingPoolAddressesProvider",
          "type": "address"
        },
        {
          "internalType": "uint32",
          "name": "_targetLeverageBps",
          "type": "uint32"
        },
        {
          "internalType": "uint256",
          "name": "_swapSlippageTolerance",
          "type": "uint256"
        },
        {
          "internalType": "uint256",
          "name": "_maxSubsidyBps",
          "type": "uint256"
        }
      ],
      "stateMutability": "nonpayable",
      "type": "constructor"
    },
    {
      "inputs": [
        {
          "internalType": "address",
          "name": "target",
          "type": "address"
        }
      ],
      "name": "AddressEmptyCode",
      "type": "error"
    },
    {
      "inputs": [
        {
          "internalType": "address",
          "name": "account",
          "type": "address"
        }
      ],
      "name": "AddressInsufficientBalance",
      "type": "error"
    },
    {
      "inputs": [
        {
          "internalType": "uint256",
          "name": "assetPrice",
          "type": "uint256"
        },
        {
          "internalType": "uint256",
          "name": "minPrice",
          "type": "uint256"
        }
      ],
      "name": "BelowMinPrice",
      "type": "error"
    },
    {
      "inputs": [
        {
          "internalType": "uint256",
          "name": "totalCollateralBase",
          "type": "uint256"
        },
        {
          "internalType": "uint256",
          "name": "totalDebtBase",
          "type": "uint256"
        }
      ],
      "name": "CollateralLessThanDebt",
      "type": "error"
    },
    {
      "inputs": [
        {
          "internalType": "uint256",
          "name": "newLeverageBps",
          "type": "uint256"
        },
        {
          "internalType": "uint256",
          "name": "targetLeverageBps",
          "type": "uint256"
        },
        {
          "internalType": "uint256",
          "name": "currentLeverageBps",
          "type": "uint256"
        }
      ],
      "name": "DecreaseLeverageOutOfRange",
      "type": "error"
    },
    {
      "inputs": [
        {
          "internalType": "uint256",
          "name": "currentBalance",
          "type": "uint256"
        },
        {
          "internalType": "uint256",
          "name": "newTotalAssets",
          "type": "uint256"
        }
      ],
      "name": "DepositInsufficientToSupply",
      "type": "error"
    },
    {
      "inputs": [
        {
          "internalType": "address",
          "name": "spender",
          "type": "address"
        },
        {
          "internalType": "uint256",
          "name": "allowance",
          "type": "uint256"
        },
        {
          "internalType": "uint256",
          "name": "needed",
          "type": "uint256"
        }
      ],
      "name": "ERC20InsufficientAllowance",
      "type": "error"
    },
    {
      "inputs": [
        {
          "internalType": "address",
          "name": "sender",
          "type": "address"
        },
        {
          "internalType": "uint256",
          "name": "balance",
          "type": "uint256"
        },
        {
          "internalType": "uint256",
          "name": "needed",
          "type": "uint256"
        }
      ],
      "name": "ERC20InsufficientBalance",
      "type": "error"
    },
    {
      "inputs": [
        {
          "internalType": "address",
          "name": "approver",
          "type": "address"
        }
      ],
      "name": "ERC20InvalidApprover",
      "type": "error"
    },
    {
      "inputs": [
        {
          "internalType": "address",
          "name": "receiver",
          "type": "address"
        }
      ],
      "name": "ERC20InvalidReceiver",
      "type": "error"
    },
    {
      "inputs": [
        {
          "internalType": "address",
          "name": "sender",
          "type": "address"
        }
      ],
      "name": "ERC20InvalidSender",
      "type": "error"
    },
    {
      "inputs": [
        {
          "internalType": "address",
          "name": "spender",
          "type": "address"
        }
      ],
      "name": "ERC20InvalidSpender",
      "type": "error"
    },
    {
      "inputs": [
        {
          "internalType": "address",
          "name": "receiver",
          "type": "address"
        },
        {
          "internalType": "uint256",
          "name": "assets",
          "type": "uint256"
        },
        {
          "internalType": "uint256",
          "name": "max",
          "type": "uint256"
        }
      ],
      "name": "ERC4626ExceededMaxDeposit",
      "type": "error"
    },
    {
      "inputs": [
        {
          "internalType": "address",
          "name": "receiver",
          "type": "address"
        },
        {
          "internalType": "uint256",
          "name": "shares",
          "type": "uint256"
        },
        {
          "internalType": "uint256",
          "name": "max",
          "type": "uint256"
        }
      ],
      "name": "ERC4626ExceededMaxMint",
      "type": "error"
    },
    {
      "inputs": [
        {
          "internalType": "address",
          "name": "owner",
          "type": "address"
        },
        {
          "internalType": "uint256",
          "name": "shares",
          "type": "uint256"
        },
        {
          "internalType": "uint256",
          "name": "max",
          "type": "uint256"
        }
      ],
      "name": "ERC4626ExceededMaxRedeem",
      "type": "error"
    },
    {
      "inputs": [
        {
          "internalType": "address",
          "name": "owner",
          "type": "address"
        },
        {
          "internalType": "uint256",
          "name": "assets",
          "type": "uint256"
        },
        {
          "internalType": "uint256",
          "name": "max",
          "type": "uint256"
        }
      ],
      "name": "ERC4626ExceededMaxWithdraw",
      "type": "error"
    },
    {
      "inputs": [
        {
          "internalType": "uint256",
          "name": "assetPrice",
          "type": "uint256"
        },
        {
          "internalType": "uint256",
          "name": "maxPrice",
          "type": "uint256"
        }
      ],
      "name": "ExceedMaxPrice",
      "type": "error"
    },
    {
      "inputs": [],
      "name": "FailedInnerCall",
      "type": "error"
    },
    {
      "inputs": [
        {
          "internalType": "uint256",
          "name": "newLeverageBps",
          "type": "uint256"
        },
        {
          "internalType": "uint256",
          "name": "targetLeverageBps",
          "type": "uint256"
        },
        {
          "internalType": "uint256",
          "name": "currentLeverageBps",
          "type": "uint256"
        }
      ],
      "name": "IncreaseLeverageOutOfRange",
      "type": "error"
    },
    {
      "inputs": [
        {
          "internalType": "address",
          "name": "token",
          "type": "address"
        },
        {
          "internalType": "uint256",
          "name": "estimatedInputAmount",
          "type": "uint256"
        },
        {
          "internalType": "uint256",
          "name": "currentBalance",
          "type": "uint256"
        }
      ],
      "name": "InsufficientInputAmount",
      "type": "error"
    },
    {
      "inputs": [
        {
          "internalType": "address",
          "name": "owner",
          "type": "address"
        },
        {
          "internalType": "uint256",
          "name": "sharesToRedeem",
          "type": "uint256"
        },
        {
          "internalType": "uint256",
          "name": "shareBalance",
          "type": "uint256"
        }
      ],
      "name": "InsufficientShareBalanceToRedeem",
      "type": "error"
    },
    {
      "inputs": [
        {
          "internalType": "address",
          "name": "inputToken",
          "type": "address"
        },
        {
          "internalType": "address",
          "name": "outputToken",
          "type": "address"
        }
      ],
      "name": "InvalidInputOutputTokens",
      "type": "error"
    },
    {
      "inputs": [
        {
          "internalType": "address",
          "name": "token",
          "type": "address"
        },
        {
          "internalType": "uint256",
          "name": "maxWithdrawUnderlyingBeforeRepay",
          "type": "uint256"
        },
        {
          "internalType": "uint256",
          "name": "maxWithdrawUnderlyingAfterRepay",
          "type": "uint256"
        }
      ],
      "name": "InvalidMaxWithdrawAfterRepay",
      "type": "error"
    },
    {
      "inputs": [
        {
          "internalType": "uint256",
          "name": "totalAssets",
          "type": "uint256"
        },
        {
          "internalType": "uint256",
          "name": "totalSupply",
          "type": "uint256"
        }
      ],
      "name": "InvalidTotalSupplyAndAssets",
      "type": "error"
    },
    {
      "inputs": [],
      "name": "MathOverflowedMulDiv",
      "type": "error"
    },
    {
      "inputs": [
        {
          "internalType": "address",
          "name": "owner",
          "type": "address"
        }
      ],
      "name": "OwnableInvalidOwner",
      "type": "error"
    },
    {
      "inputs": [
        {
          "internalType": "address",
          "name": "account",
          "type": "address"
        }
      ],
      "name": "OwnableUnauthorizedAccount",
      "type": "error"
    },
    {
      "inputs": [
        {
          "internalType": "uint256",
          "name": "assets",
          "type": "uint256"
        },
        {
          "internalType": "uint256",
          "name": "minAssets",
          "type": "uint256"
        }
      ],
      "name": "RemainingAssetsBelowMinimum",
      "type": "error"
    },
    {
      "inputs": [
        {
          "internalType": "address",
          "name": "token",
          "type": "address"
        }
      ],
      "name": "SafeERC20FailedOperation",
      "type": "error"
    },
    {
      "inputs": [
        {
          "internalType": "uint256",
          "name": "currentLeverageBps",
          "type": "uint256"
        },
        {
          "internalType": "uint256",
          "name": "lowerBoundTargetLeverageBps",
          "type": "uint256"
        },
        {
          "internalType": "uint256",
          "name": "upperBoundTargetLeverageBps",
          "type": "uint256"
        }
      ],
      "name": "TooImbalanced",
      "type": "error"
    },
    {
      "inputs": [
        {
          "internalType": "uint256",
          "name": "principalBefore",
          "type": "uint256"
        },
        {
          "internalType": "uint256",
          "name": "principalAfter",
          "type": "uint256"
        }
      ],
      "name": "UnexpectedLossOfPrincipal",
      "type": "error"
    },
    {
      "inputs": [],
      "name": "UnknownInitiator",
      "type": "error"
    },
    {
      "inputs": [],
      "name": "UnknownLender",
      "type": "error"
    },
    {
      "inputs": [],
      "name": "UnknownToken",
      "type": "error"
    },
    {
      "inputs": [
        {
          "internalType": "address",
          "name": "token",
          "type": "address"
        },
        {
          "internalType": "uint256",
          "name": "assetToRemoveFromLending",
          "type": "uint256"
        },
        {
          "internalType": "uint256",
          "name": "withdrawableAmount",
          "type": "uint256"
        }
      ],
      "name": "WithdrawableIsLessThanRequired",
      "type": "error"
    },
    {
      "anonymous": false,
      "inputs": [
        {
          "indexed": true,
          "internalType": "address",
          "name": "owner",
          "type": "address"
        },
        {
          "indexed": true,
          "internalType": "address",
          "name": "spender",
          "type": "address"
        },
        {
          "indexed": false,
          "internalType": "uint256",
          "name": "value",
          "type": "uint256"
        }
      ],
      "name": "Approval",
      "type": "event"
    },
    {
      "anonymous": false,
      "inputs": [
        {
          "indexed": true,
          "internalType": "address",
          "name": "sender",
          "type": "address"
        },
        {
          "indexed": true,
          "internalType": "address",
          "name": "owner",
          "type": "address"
        },
        {
          "indexed": false,
          "internalType": "uint256",
          "name": "assets",
          "type": "uint256"
        },
        {
          "indexed": false,
          "internalType": "uint256",
          "name": "shares",
          "type": "uint256"
        }
      ],
      "name": "Deposit",
      "type": "event"
    },
    {
      "anonymous": false,
      "inputs": [
        {
          "indexed": true,
          "internalType": "address",
          "name": "previousOwner",
          "type": "address"
        },
        {
          "indexed": true,
          "internalType": "address",
          "name": "newOwner",
          "type": "address"
        }
      ],
      "name": "OwnershipTransferred",
      "type": "event"
    },
    {
      "anonymous": false,
      "inputs": [
        {
          "indexed": true,
          "internalType": "address",
          "name": "from",
          "type": "address"
        },
        {
          "indexed": true,
          "internalType": "address",
          "name": "to",
          "type": "address"
        },
        {
          "indexed": false,
          "internalType": "uint256",
          "name": "value",
          "type": "uint256"
        }
      ],
      "name": "Transfer",
      "type": "event"
    },
    {
      "anonymous": false,
      "inputs": [
        {
          "indexed": true,
          "internalType": "address",
          "name": "sender",
          "type": "address"
        },
        {
          "indexed": true,
          "internalType": "address",
          "name": "receiver",
          "type": "address"
        },
        {
          "indexed": true,
          "internalType": "address",
          "name": "owner",
          "type": "address"
        },
        {
          "indexed": false,
          "internalType": "uint256",
          "name": "assets",
          "type": "uint256"
        },
        {
          "indexed": false,
          "internalType": "uint256",
          "name": "shares",
          "type": "uint256"
        }
      ],
      "name": "Withdraw",
      "type": "event"
    },
    {
      "inputs": [],
      "name": "DEFAULT_DUSD_TO_UNDERLYING_SWAP_PATH",
      "outputs": [
        {
          "internalType": "bytes",
          "name": "",
          "type": "bytes"
        }
      ],
      "stateMutability": "view",
      "type": "function"
    },
    {
      "inputs": [],
      "name": "DEFAULT_UNDERLYING_TO_DUSD_SWAP_PATH",
      "outputs": [
        {
          "internalType": "bytes",
          "name": "",
          "type": "bytes"
        }
      ],
      "stateMutability": "view",
      "type": "function"
    },
    {
      "inputs": [],
      "name": "FLASHLOAN_CALLBACK",
      "outputs": [
        {
          "internalType": "bytes32",
          "name": "",
          "type": "bytes32"
        }
      ],
      "stateMutability": "view",
      "type": "function"
    },
    {
      "inputs": [],
      "name": "LOWER_BOUND_TARGET_LEVERAGE_BPS",
      "outputs": [
        {
          "internalType": "uint32",
          "name": "",
          "type": "uint32"
        }
      ],
      "stateMutability": "view",
      "type": "function"
    },
    {
      "inputs": [],
      "name": "TARGET_LEVERAGE_BPS",
      "outputs": [
        {
          "internalType": "uint32",
          "name": "",
          "type": "uint32"
        }
      ],
      "stateMutability": "view",
      "type": "function"
    },
    {
      "inputs": [],
      "name": "UPPER_BOUND_TARGET_LEVERAGE_BPS",
      "outputs": [
        {
          "internalType": "uint32",
          "name": "",
          "type": "uint32"
        }
      ],
      "stateMutability": "view",
      "type": "function"
    },
    {
      "inputs": [],
      "name": "VARIABLE_LENDING_INTERST_RATE_MODE",
      "outputs": [
        {
          "internalType": "uint256",
          "name": "",
          "type": "uint256"
        }
      ],
      "stateMutability": "view",
      "type": "function"
    },
    {
      "inputs": [
        {
          "internalType": "address",
          "name": "owner",
          "type": "address"
        },
        {
          "internalType": "address",
          "name": "spender",
          "type": "address"
        }
      ],
      "name": "allowance",
      "outputs": [
        {
          "internalType": "uint256",
          "name": "",
          "type": "uint256"
        }
      ],
      "stateMutability": "view",
      "type": "function"
    },
    {
      "inputs": [
        {
          "internalType": "address",
          "name": "spender",
          "type": "address"
        },
        {
          "internalType": "uint256",
          "name": "value",
          "type": "uint256"
        }
      ],
      "name": "approve",
      "outputs": [
        {
          "internalType": "bool",
          "name": "",
          "type": "bool"
        }
      ],
      "stateMutability": "nonpayable",
      "type": "function"
    },
    {
      "inputs": [],
      "name": "asset",
      "outputs": [
        {
          "internalType": "address",
          "name": "",
          "type": "address"
        }
      ],
      "stateMutability": "view",
      "type": "function"
    },
    {
      "inputs": [
        {
          "internalType": "address",
          "name": "account",
          "type": "address"
        }
      ],
      "name": "balanceOf",
      "outputs": [
        {
          "internalType": "uint256",
          "name": "",
          "type": "uint256"
        }
      ],
      "stateMutability": "view",
      "type": "function"
    },
    {
      "inputs": [],
      "name": "checkIsTooImbalanced",
      "outputs": [],
      "stateMutability": "view",
      "type": "function"
    },
    {
      "inputs": [
        {
          "internalType": "uint256",
          "name": "shares",
          "type": "uint256"
        }
      ],
      "name": "convertToAssets",
      "outputs": [
        {
          "internalType": "uint256",
          "name": "",
          "type": "uint256"
        }
      ],
      "stateMutability": "view",
      "type": "function"
    },
    {
      "inputs": [
        {
          "internalType": "uint256",
          "name": "assets",
          "type": "uint256"
        }
      ],
      "name": "convertToShares",
      "outputs": [
        {
          "internalType": "uint256",
          "name": "",
          "type": "uint256"
        }
      ],
      "stateMutability": "view",
      "type": "function"
    },
    {
      "inputs": [],
      "name": "decimals",
      "outputs": [
        {
          "internalType": "uint8",
          "name": "",
          "type": "uint8"
        }
      ],
      "stateMutability": "view",
      "type": "function"
    },
    {
      "inputs": [
        {
          "internalType": "uint256",
          "name": "dusdAmount",
          "type": "uint256"
        },
        {
          "internalType": "uint256",
          "name": "maxPriceInBase",
          "type": "uint256"
        }
      ],
      "name": "decreaseLeverage",
      "outputs": [],
      "stateMutability": "nonpayable",
      "type": "function"
    },
    {
      "inputs": [
        {
          "internalType": "uint256",
          "name": "assets",
          "type": "uint256"
        },
        {
          "internalType": "address",
          "name": "receiver",
          "type": "address"
        }
      ],
      "name": "deposit",
      "outputs": [
        {
          "internalType": "uint256",
          "name": "shares",
          "type": "uint256"
        }
      ],
      "stateMutability": "nonpayable",
      "type": "function"
    },
    {
      "inputs": [
        {
          "internalType": "uint256",
          "name": "assets",
          "type": "uint256"
        },
        {
          "internalType": "address",
          "name": "receiver",
          "type": "address"
        },
        {
          "internalType": "uint256",
          "name": "slippageTolerance",
          "type": "uint256"
        },
        {
          "internalType": "bytes",
          "name": "dusdToUnderlyingSwapData",
          "type": "bytes"
        }
      ],
      "name": "depositWith",
      "outputs": [
        {
          "internalType": "uint256",
          "name": "shares",
          "type": "uint256"
        }
      ],
      "stateMutability": "nonpayable",
      "type": "function"
    },
    {
      "inputs": [],
      "name": "dusd",
      "outputs": [
        {
          "internalType": "contract ERC20",
          "name": "",
          "type": "address"
        }
      ],
      "stateMutability": "view",
      "type": "function"
    },
    {
      "inputs": [],
      "name": "flashLender",
      "outputs": [
        {
          "internalType": "contract IERC3156FlashLender",
          "name": "",
          "type": "address"
        }
      ],
      "stateMutability": "view",
      "type": "function"
    },
    {
      "inputs": [],
      "name": "getCurrentLeverageBps",
      "outputs": [
        {
          "internalType": "uint256",
          "name": "",
          "type": "uint256"
        }
      ],
      "stateMutability": "view",
      "type": "function"
    },
    {
      "inputs": [
        {
          "internalType": "address",
          "name": "tokenAddress",
          "type": "address"
        }
      ],
      "name": "getDTokenBalance",
      "outputs": [
        {
          "internalType": "uint256",
          "name": "",
          "type": "uint256"
        }
      ],
      "stateMutability": "view",
      "type": "function"
    },
    {
      "inputs": [],
      "name": "getDUSDAddress",
      "outputs": [
        {
          "internalType": "address",
          "name": "",
          "type": "address"
        }
      ],
      "stateMutability": "view",
      "type": "function"
    },
    {
      "inputs": [],
      "name": "getDefaultMaxSubsidyBps",
      "outputs": [
        {
          "internalType": "uint256",
          "name": "",
          "type": "uint256"
        }
      ],
      "stateMutability": "view",
      "type": "function"
    },
    {
      "inputs": [],
      "name": "getDefaultSwapSlippageTolerance",
      "outputs": [
        {
          "internalType": "uint256",
          "name": "",
          "type": "uint256"
        }
      ],
      "stateMutability": "view",
      "type": "function"
    },
    {
      "inputs": [],
      "name": "getLendingPoolAddress",
      "outputs": [
        {
          "internalType": "address",
          "name": "",
          "type": "address"
        }
      ],
      "stateMutability": "view",
      "type": "function"
    },
    {
      "inputs": [],
      "name": "getOracleAddress",
      "outputs": [
        {
          "internalType": "address",
          "name": "",
          "type": "address"
        }
      ],
      "stateMutability": "view",
      "type": "function"
    },
    {
      "inputs": [],
      "name": "getUnderlyingAssetAddress",
      "outputs": [
        {
          "internalType": "address",
          "name": "",
          "type": "address"
        }
      ],
      "stateMutability": "view",
      "type": "function"
    },
    {
      "inputs": [
        {
          "internalType": "uint256",
          "name": "assetAmount",
          "type": "uint256"
        },
        {
          "internalType": "uint256",
          "name": "minPriceInBase",
          "type": "uint256"
        }
      ],
      "name": "increaseLeverage",
      "outputs": [],
      "stateMutability": "nonpayable",
      "type": "function"
    },
    {
      "inputs": [],
      "name": "lendingPoolAddressesProvider",
      "outputs": [
        {
          "internalType": "contract IPoolAddressesProvider",
          "name": "",
          "type": "address"
        }
      ],
      "stateMutability": "view",
      "type": "function"
    },
    {
      "inputs": [
        {
          "internalType": "address",
          "name": "",
          "type": "address"
        }
      ],
      "name": "maxDeposit",
      "outputs": [
        {
          "internalType": "uint256",
          "name": "",
          "type": "uint256"
        }
      ],
      "stateMutability": "view",
      "type": "function"
    },
    {
      "inputs": [
        {
          "internalType": "address",
          "name": "",
          "type": "address"
        }
      ],
      "name": "maxMint",
      "outputs": [
        {
          "internalType": "uint256",
          "name": "",
          "type": "uint256"
        }
      ],
      "stateMutability": "view",
      "type": "function"
    },
    {
      "inputs": [
        {
          "internalType": "address",
          "name": "owner",
          "type": "address"
        }
      ],
      "name": "maxRedeem",
      "outputs": [
        {
          "internalType": "uint256",
          "name": "",
          "type": "uint256"
        }
      ],
      "stateMutability": "view",
      "type": "function"
    },
    {
      "inputs": [
        {
          "internalType": "address",
          "name": "owner",
          "type": "address"
        }
      ],
      "name": "maxWithdraw",
      "outputs": [
        {
          "internalType": "uint256",
          "name": "",
          "type": "uint256"
        }
      ],
      "stateMutability": "view",
      "type": "function"
    },
    {
      "inputs": [
        {
          "internalType": "uint256",
          "name": "shares",
          "type": "uint256"
        },
        {
          "internalType": "address",
          "name": "receiver",
          "type": "address"
        }
      ],
      "name": "mint",
      "outputs": [
        {
          "internalType": "uint256",
          "name": "assets",
          "type": "uint256"
        }
      ],
      "stateMutability": "nonpayable",
      "type": "function"
    },
    {
      "inputs": [
        {
          "internalType": "uint256",
          "name": "shares",
          "type": "uint256"
        },
        {
          "internalType": "address",
          "name": "receiver",
          "type": "address"
        },
        {
          "internalType": "uint256",
          "name": "slippageTolerance",
          "type": "uint256"
        },
        {
          "internalType": "bytes",
          "name": "dusdToUnderlyingSwapData",
          "type": "bytes"
        }
      ],
      "name": "mintWith",
      "outputs": [
        {
          "internalType": "uint256",
          "name": "assets",
          "type": "uint256"
        }
      ],
      "stateMutability": "nonpayable",
      "type": "function"
    },
    {
      "inputs": [],
      "name": "name",
      "outputs": [
        {
          "internalType": "string",
          "name": "",
          "type": "string"
        }
      ],
      "stateMutability": "view",
      "type": "function"
    },
    {
      "inputs": [
        {
          "internalType": "address",
          "name": "initiator",
          "type": "address"
        },
        {
          "internalType": "address",
          "name": "token",
          "type": "address"
        },
        {
          "internalType": "uint256",
          "name": "",
          "type": "uint256"
        },
        {
          "internalType": "uint256",
          "name": "",
          "type": "uint256"
        },
        {
          "internalType": "bytes",
          "name": "data",
          "type": "bytes"
        }
      ],
      "name": "onFlashLoan",
      "outputs": [
        {
          "internalType": "bytes32",
          "name": "",
          "type": "bytes32"
        }
      ],
      "stateMutability": "nonpayable",
      "type": "function"
    },
    {
      "inputs": [],
      "name": "owner",
      "outputs": [
        {
          "internalType": "address",
          "name": "",
          "type": "address"
        }
      ],
      "stateMutability": "view",
      "type": "function"
    },
    {
      "inputs": [
        {
          "internalType": "uint256",
          "name": "assets",
          "type": "uint256"
        }
      ],
      "name": "previewDeposit",
      "outputs": [
        {
          "internalType": "uint256",
          "name": "",
          "type": "uint256"
        }
      ],
      "stateMutability": "view",
      "type": "function"
    },
    {
      "inputs": [
        {
          "internalType": "uint256",
          "name": "shares",
          "type": "uint256"
        }
      ],
      "name": "previewMint",
      "outputs": [
        {
          "internalType": "uint256",
          "name": "",
          "type": "uint256"
        }
      ],
      "stateMutability": "view",
      "type": "function"
    },
    {
      "inputs": [
        {
          "internalType": "uint256",
          "name": "shares",
          "type": "uint256"
        }
      ],
      "name": "previewRedeem",
      "outputs": [
        {
          "internalType": "uint256",
          "name": "",
          "type": "uint256"
        }
      ],
      "stateMutability": "view",
      "type": "function"
    },
    {
      "inputs": [
        {
          "internalType": "uint256",
          "name": "assets",
          "type": "uint256"
        }
      ],
      "name": "previewWithdraw",
      "outputs": [
        {
          "internalType": "uint256",
          "name": "",
          "type": "uint256"
        }
      ],
      "stateMutability": "view",
      "type": "function"
    },
    {
      "inputs": [
        {
          "internalType": "uint256",
          "name": "shares",
          "type": "uint256"
        },
        {
          "internalType": "address",
          "name": "receiver",
          "type": "address"
        },
        {
          "internalType": "address",
          "name": "owner",
          "type": "address"
        }
      ],
      "name": "redeem",
      "outputs": [
        {
          "internalType": "uint256",
          "name": "assets",
          "type": "uint256"
        }
      ],
      "stateMutability": "nonpayable",
      "type": "function"
    },
    {
      "inputs": [
        {
          "internalType": "uint256",
          "name": "shares",
          "type": "uint256"
        },
        {
          "internalType": "address",
          "name": "receiver",
          "type": "address"
        },
        {
          "internalType": "address",
          "name": "owner",
          "type": "address"
        },
        {
          "internalType": "uint256",
          "name": "swapSlippageTolerance",
          "type": "uint256"
        },
        {
          "internalType": "uint256",
          "name": "minReceiveAmount",
          "type": "uint256"
        },
        {
          "internalType": "bytes",
          "name": "underlyingToDUSDSwapData",
          "type": "bytes"
        }
      ],
      "name": "redeemWith",
      "outputs": [
        {
          "internalType": "uint256",
          "name": "assets",
          "type": "uint256"
        }
      ],
      "stateMutability": "nonpayable",
      "type": "function"
    },
    {
      "inputs": [],
      "name": "renounceOwnership",
      "outputs": [],
      "stateMutability": "nonpayable",
      "type": "function"
    },
    {
      "inputs": [
        {
          "internalType": "address",
          "name": "token",
          "type": "address"
        },
        {
          "internalType": "address",
          "name": "receiver",
          "type": "address"
        }
      ],
      "name": "rescueToken",
      "outputs": [],
      "stateMutability": "nonpayable",
      "type": "function"
    },
    {
      "inputs": [
        {
          "internalType": "uint256",
          "name": "_swapSlippageTolerance",
          "type": "uint256"
        }
      ],
      "name": "setDefaultSwapSlippageTolerance",
      "outputs": [],
      "stateMutability": "nonpayable",
      "type": "function"
    },
    {
      "inputs": [
        {
          "internalType": "uint256",
          "name": "_maxSubsidyBps",
          "type": "uint256"
        }
      ],
      "name": "setMaxSubsidyBps",
      "outputs": [],
      "stateMutability": "nonpayable",
      "type": "function"
    },
    {
      "inputs": [],
      "name": "swapRouter",
      "outputs": [
        {
          "internalType": "contract ISwapRouter",
          "name": "",
          "type": "address"
        }
      ],
      "stateMutability": "view",
      "type": "function"
    },
    {
      "inputs": [],
      "name": "symbol",
      "outputs": [
        {
          "internalType": "string",
          "name": "",
          "type": "string"
        }
      ],
      "stateMutability": "view",
      "type": "function"
    },
    {
      "inputs": [],
      "name": "totalAssets",
      "outputs": [
        {
          "internalType": "uint256",
          "name": "",
          "type": "uint256"
        }
      ],
      "stateMutability": "view",
      "type": "function"
    },
    {
      "inputs": [],
      "name": "totalSupply",
      "outputs": [
        {
          "internalType": "uint256",
          "name": "",
          "type": "uint256"
        }
      ],
      "stateMutability": "view",
      "type": "function"
    },
    {
      "inputs": [
        {
          "internalType": "address",
          "name": "to",
          "type": "address"
        },
        {
          "internalType": "uint256",
          "name": "value",
          "type": "uint256"
        }
      ],
      "name": "transfer",
      "outputs": [
        {
          "internalType": "bool",
          "name": "",
          "type": "bool"
        }
      ],
      "stateMutability": "nonpayable",
      "type": "function"
    },
    {
      "inputs": [
        {
          "internalType": "address",
          "name": "from",
          "type": "address"
        },
        {
          "internalType": "address",
          "name": "to",
          "type": "address"
        },
        {
          "internalType": "uint256",
          "name": "value",
          "type": "uint256"
        }
      ],
      "name": "transferFrom",
      "outputs": [
        {
          "internalType": "bool",
          "name": "",
          "type": "bool"
        }
      ],
      "stateMutability": "nonpayable",
      "type": "function"
    },
    {
      "inputs": [
        {
          "internalType": "address",
          "name": "newOwner",
          "type": "address"
        }
      ],
      "name": "transferOwnership",
      "outputs": [],
      "stateMutability": "nonpayable",
      "type": "function"
    },
    {
      "inputs": [],
      "name": "underlyingAsset",
      "outputs": [
        {
          "internalType": "contract ERC20",
          "name": "",
          "type": "address"
        }
      ],
      "stateMutability": "view",
      "type": "function"
    },
    {
      "inputs": [
        {
          "internalType": "uint256",
          "name": "assets",
          "type": "uint256"
        },
        {
          "internalType": "address",
          "name": "receiver",
          "type": "address"
        },
        {
          "internalType": "address",
          "name": "owner",
          "type": "address"
        }
      ],
      "name": "withdraw",
      "outputs": [
        {
          "internalType": "uint256",
          "name": "shares",
          "type": "uint256"
        }
      ],
      "stateMutability": "nonpayable",
      "type": "function"
    },
    {
      "inputs": [
        {
          "internalType": "uint256",
          "name": "assets",
          "type": "uint256"
        },
        {
          "internalType": "address",
          "name": "receiver",
          "type": "address"
        },
        {
          "internalType": "address",
          "name": "owner",
          "type": "address"
        },
        {
          "internalType": "uint256",
          "name": "swapSlippageTolerance",
          "type": "uint256"
        },
        {
          "internalType": "uint256",
          "name": "minReceiveAmount",
          "type": "uint256"
        },
        {
          "internalType": "bytes",
          "name": "underlyingToDUSDSwapData",
          "type": "bytes"
        }
      ],
      "name": "withdrawWith",
      "outputs": [
        {
          "internalType": "uint256",
          "name": "shares",
          "type": "uint256"
        }
      ],
      "stateMutability": "nonpayable",
      "type": "function"
    }
  ],
  "transactionHash": "0x1c28e4aafdcefcf9f617e8ab8ca7d5557cf8a185d06d2c5e4271ce35f1a1b947",
  "args": [
    "dLOOP 3X sFRAX",
    "3XsFRAX",
    "0x0Dbf64462FEC588df32FC5C9941421F7d93e0Fb3",
    "0x4D6E79013212F10A026A1FB0b926C9Fd0432b96c",
    "0x4D6E79013212F10A026A1FB0b926C9Fd0432b96c",
    "0x86fa24508003ee40FBC34385047b665c0Ec9DC55",
    "0x0dbf64462fec588df32fc5c9941421f7d93e0fb3000bb84d6e79013212f10a026a1fb0b926c9fd0432b96c",
    "0x4d6e79013212f10a026a1fb0b926c9fd0432b96c000bb80dbf64462fec588df32fc5c9941421f7d93e0fb3",
    "0xC691F14942B37668C9904b701E3118A133611b3c",
    3000000,
    50000,
    20000
  ],
  "numDeployments": 3,
  "solcInputHash": "6d1f88d8360ee5b4ff42147d68d0178e",
  "bytecode": "0x6101c06040523462000a2d5762005d99803803809162000022826101c062000a32565b6101c0396101c0016101806101c082031262000a2d576101c0516001600160401b03811162000a2d57816200005b916101c00162000a72565b6101e0516001600160401b03811162000a2d57826200007e916101c00162000a72565b906200008c61020062000adc565b906200009a61022062000adc565b6102405193906001600160a01b038516850362000a2d5761026051936001600160a01b038516850362000a2d57610280516001600160401b03811162000a2d5787620000ea916101c00162000a72565b6102a05190976001600160401b03821162000a2d576200010e916101c00162000a72565b6102c05190966001600160a01b038216820362000a2d576102e0519363ffffffff8516850362000a2d576103005161032051885190989197916001600160401b038211620006d15781906200016560035462000af1565b601f8111620009da575b50602090601f83116001146200094b576000926200093f575b50508160011b916000199060031b1c1916176003555b8051906001600160401b038211620006d1578190620001bf60045462000af1565b601f8111620008ec575b50602090601f83116001146200085d5760009262000851575b50508160011b916000199060031b1c1916176004555b6001600160a01b0384166200020d8162000b47565b901562000848575b60a05260805233156200082f5760058054336001600160a01b0319821681179092556001600160a01b03167f8be0079c531659141344cd1fd0a4f28419497f9722a3daafe3b4186f6b6457e0600080a361018052610120526101405261016052620f424063ffffffff821610620007c4578060c052637fffffff8160011c1660e05260011b6401fffffffe811663fffffffe821603620007ae5763fffffffe16610100526006556007556101a090815282516001600160401b038111620006d157620002e360085462000af1565b601f81116200076c575b506020601f8211600114620006f35781929394600092620006e7575b50508160011b916000199060031b1c1916176008555b81516001600160401b038111620006d1576200033d60095462000af1565b601f811162000672575b50602092601f8211600114620006075792819293600092620005fb575b50508160011b916000199060031b1c1916176009555b60405161516b918262000c0e8339608051826113fc015260a05182611440015260c051828181610d5601528181611161015281816127da015281816138cb01528181613c110152818161427601526149b3015260e0518281816112d00152818161352d0152613584015261010051828181610b490152818161355401526135b8015261012051828181610977015281816115ad015281816139a301528181613c8701528181613dbe01528181613e1601528181613ef0015281816142ec0152818161440901526144eb0152610140518281816107de01528181614a4a0152614ad5015261016051828181610bdf0152818161119b0152818161172601528181611843015281816118b801528181611918015281816119a701528181611a0901528181611d4e01528181611d9501528181611ea901528181611ff001528181612052015281816121110152818161217b0152818161223a015281816122c60152818161233901528181612453015281816124a4015281816126800152818161375a01528181613d3501528181613f7b01528181613fd901528181614380015281816145760152818161460101528181614cca01528181614e6f0152614edf01526101805182818161066701528181610c3c015281816115f601528181611782015281816117ec015281816118d901528181611a8201528181611df001528181611e5101528181611f2301528181611f7e015281816120b9015281816121d2015281816122a5015281816127610152818161397901528181613c4e01528181613d7e01528181613e5d01528181613eb8015281816142b3015281816143c901528181614458015281816144b30152614e290152518181816107990152614f200152f35b01519050388062000364565b601f19821693600960005260206000209160005b8681106200065957508360019596106200063f575b505050811b016009556200037a565b015160001960f88460031b161c1916905538808062000630565b919260206001819286850151815501940192016200061b565b6009600052620006bf907f6e1540171b6c0c960b71a7020d9f60077f6af931a8bbf590da0223dacf75c7af601f840160051c81019160208510620006c6575b601f0160051c019062000b2e565b3862000347565b9091508190620006b1565b634e487b7160e01b600052604160045260246000fd5b01519050388062000309565b6008600090815260008051602062005d798339815191529190601f198416905b818110620007535750958360019596971062000739575b505050811b016008556200031f565b015160001960f88460031b161c191690553880806200072a565b9192602060018192868b01518155019401920162000713565b6008600052620007a79060008051602062005d79833981519152601f840160051c81019160208510620006c657601f0160051c019062000b2e565b38620002ed565b634e487b7160e01b600052601160045260246000fd5b60405162461bcd60e51b815260206004820152603560248201527f546172676574206c65766572616765206d757374206265206174206c6561737460448201527f203130302520696e20626173697320706f696e747300000000000000000000006064820152608490fd5b604051631e4fbdf760e01b815260006004820152602490fd5b50601262000215565b015190503880620001e2565b6004600090815293507f8a35acfbc15ff81a39ae7d344fd709f28e8600b4aa8c65c6b64bfe7fe36bd19b91905b601f1984168510620008d0576001945083601f19811610620008b6575b505050811b01600455620001f8565b015160001960f88460031b161c19169055388080620008a7565b818101518355602094850194600190930192909101906200088a565b600460005262000938907f8a35acfbc15ff81a39ae7d344fd709f28e8600b4aa8c65c6b64bfe7fe36bd19b601f850160051c81019160208610620006c657601f0160051c019062000b2e565b38620001c9565b01519050388062000188565b6003600090815293507fc2575a0e9e593c00f959f8c92f12db2869c3395a3b0502d05e2516446f71f85b91905b601f1984168510620009be576001945083601f19811610620009a4575b505050811b016003556200019e565b015160001960f88460031b161c1916905538808062000995565b8181015183556020948501946001909301929091019062000978565b600360005262000a26907fc2575a0e9e593c00f959f8c92f12db2869c3395a3b0502d05e2516446f71f85b601f850160051c81019160208610620006c657601f0160051c019062000b2e565b386200016f565b600080fd5b601f909101601f19168101906001600160401b03821190821017620006d157604052565b6001600160401b038111620006d157601f01601f191660200190565b919080601f8401121562000a2d5782519062000a8e8262000a56565b9162000a9e604051938462000a32565b80835260209182828701011162000a2d5760005b81811062000ac857508260009394955001015290565b858101830151848201840152820162000ab2565b51906001600160a01b038216820362000a2d57565b90600182811c9216801562000b23575b602083101462000b0d57565b634e487b7160e01b600052602260045260246000fd5b91607f169162000b01565b81811062000b3a575050565b6000815560010162000b2e565b6040805163313ce56760e01b60208201908152600482529293929181016001600160401b03811182821017620006d1576040525160009384928392916001600160a01b03165afa3d1562000c04573d9062000ba28262000a56565b9162000bb2604051938462000a32565b82523d84602084013e5b8062000bf7575b62000bce575b508190565b60208180518101031262000bf3576020015160ff811162000bc9576001925060ff1690565b8280fd5b5060208151101562000bc3565b60609062000bbc56fe6080604052600436101561001257600080fd5b6000803560e01c806301e1d11414612cbe57806306fdde0314612bed57806307a2d13a146112ae578063095ea7b314612b3a5780630a28a47714612b1b5780630f90e61814612b02578063160a8f3514612ae257806318160ddd14612ac45780631dc8d818146126595780631e3eaccc1461065157806323b872dd1461262057806323e30c8b1461154957806328e7b3f2146114c35780632ae1810414611488578063313ce5671461142b57806338d52e0f146113e6578063402d267d1461077e578063415c5069146113cb5780634707d0001461131e57806348eb8a4a146112f4578063497a4237146112b35780634cdad506146112ae5780635b3f0549146112925780635f36a7421461126f5780636e553f651461122857806370a0823114610703578063715018a6146111ca5780637158da7c1461118557806375ba52c91461114457806375f712f114611126578063776efe4714610bba5780638571774a14610b965780638da5cb5b14610b6d578063946f754714610b2c57806394bf804d14610ae457806395d89b4114610a16578063991404a4146109ec578063a0a94526146109c9578063a54bddd8146109a6578063a771445814610961578063a9059cbb1461092f578063b05e077d14610908578063b18b78dd146108dc578063b3d7f6b914610883578063b460af9414610848578063ba0876521461080d578063bba00ba5146107c8578063c31c9c0714610783578063c63d75b61461077e578063c6e6f59214610609578063ce96cb7714610745578063d905777e14610703578063dd62ed3e146106b4578063dde35bfd14610696578063de1409ce14610651578063eb6547031461060e578063ef8b30f714610609578063f2fde38b146105795763f6d48ae2146102a657600080fd5b3461057657602080600319360112610572576102c0612d3f565b916040516102cd81612de5565b6040516102d981612e01565b828152815281838201528160408201528160608201528160808201528160a08201528160c08201528160e08201526101009382858301526101209483868401526101409284848201526101609085828201526101809386858301526101a08781840152876101c08094015260018060a01b0395869485610357614ab7565b166040519687956335ea6a7560e01b87521660048601528460246101e09889935afa988915610567578b9c8b9c9a610405575b5050505050505050602493015116604051928380926370a0823160e01b82523060048301525afa9182156103f957916103c7575b50604051908152f35b90508181813d83116103f2575b6103de8183612e1c565b810103126103ed5751386103be565b600080fd5b503d6103d4565b604051903d90823e3d90fd5b9193959799509193868197999b503d8a11610560575b6104258183612e1c565b81010397881261055c578b6040519861043d8a612de5565b1261055c5760405161044e81612e01565b86518152885261045f8c8701614b0b565b8c89015261046f60408701614b0b565b604089015261048060608701614b0b565b606089015261049160808701614b0b565b60808901526104a260a08701614b0b565b60a089015260c086015164ffffffffff811681036105585760c089015260e086015161ffff811681036105585793879591938997938e9b99956105479760e060249f9d01526104f28b8701614a18565b8b8b0152610501818701614a18565b908a0152610510818601614a18565b9089015261051f818501614a18565b9088015261052e818401614b0b565b9087015261053d818301614b0b565b9086015201614b0b565b90820152933880808080808061038a565b8b80fd5b8a80fd5b503d61041b565b6040513d8c823e3d90fd5b5080fd5b80fd5b503461057657602036600319011261057657610593612d3f565b61059b613137565b6001600160a01b039081169081156105f057600554826bffffffffffffffffffffffff60a01b821617600555167f8be0079c531659141344cd1fd0a4f28419497f9722a3daafe3b4186f6b6457e0600080a380f35b604051631e4fbdf760e01b815260048101849052602490fd5b613119565b503461057657806003193601126105765761064d604051610639816106328161305d565b0382612e1c565b604051918291602083526020830190612cfc565b0390f35b50346105765780600319360112610576576040517f00000000000000000000000000000000000000000000000000000000000000006001600160a01b03168152602090f35b50346105765780600319360112610576576020600754604051908152f35b5034610576576040366003190112610576576106ce612d3f565b60406106d8612d55565b9260018060a01b03809316815260016020522091166000526020526020604060002054604051908152f35b503461057657602036600319011261057657602061073d610722612d3f565b6001600160a01b031660009081526020819052604090205490565b604051908152f35b50346105765760203660031901126105765760209061073d906040906001600160a01b03610771612d3f565b16815280845220546133ed565b612eff565b50346105765780600319360112610576576040517f00000000000000000000000000000000000000000000000000000000000000006001600160a01b03168152602090f35b50346105765780600319360112610576576040517f00000000000000000000000000000000000000000000000000000000000000006001600160a01b03168152602090f35b5034610576576020906103be610822366130e4565b600694929454916040519361083685612e01565b8452610841866133ed565b9586613be3565b5034610576576020906103be61085d366130e4565b600694929454916040519361087185612e01565b845261087c86614c34565b8096613be3565b50346105765760203660031901126105765761089d614c6b565b600181018091116108c65760025490600182018092116108c65760209161073d91600435613418565b634e487b7160e01b600052601160045260246000fd5b503461057657806003193601126105765760206001600160a01b036108ff614a2c565b16604051908152f35b503461057657602061073d61091c36612e9f565b916109288495946133ed565b9485613739565b50346105765760403660031901126105765761095661094c612d3f565b6024359033613163565b602060405160018152f35b50346105765780600319360112610576576040517f00000000000000000000000000000000000000000000000000000000000000006001600160a01b03168152602090f35b5034610576576020366003190112610576576109c0613137565b60043560065580f35b5034610576576020366003190112610576576109e3613137565b60043560075580f35b50346105765760206103be610a0036612f25565b93610a0f869796949294614c34565b8097614249565b50346105765780600319360112610576576040516000600454610a3881612f7f565b80845290600190818116908115610abd5750600114610a62575b61064d8461063981860382612e1c565b6004600090815292507f8a35acfbc15ff81a39ae7d344fd709f28e8600b4aa8c65c6b64bfe7fe36bd19b5b828410610aa557505050810160200161063982610a52565b80546020858701810191909152909301928101610a8d565b60ff191660208087019190915292151560051b850190920192506106399150839050610a52565b50346105765760403660031901126105765760209061073d60043591610b08612d55565b92610b12816133ed565b936006549160405193610b2485612e01565b845285613739565b5034610576578060031936011261057657602060405163ffffffff7f0000000000000000000000000000000000000000000000000000000000000000168152f35b50346105765780600319360112610576576005546040516001600160a01b039091168152602090f35b503461057657806003193601126105765761064d6040516106398161063281612fb9565b503461057657610bc936612ee9565b6001600160a01b039081610bdb614a2c565b16827f000000000000000000000000000000000000000000000000000000000000000016936040519063b3596f0760e01b928383528660048401526020948584602481855afa93841561111b5789946110ec575b508084116110ce575084867f0000000000000000000000000000000000000000000000000000000000000000169460246040518094819382528860048301525afa8015610f8457889061109f575b610c8891508261386f565b60405163313ce56760e01b80825294918682600481865afa91821561056757610cc292610cbc918c91611088575b506133dc565b90613458565b91602460c088610cd0614ab7565b1660405192838092632fe4a15f60e21b82523060048301525afa938415610567578a918b95611046575b5090610cbc610d4b92610d46620f4240610d23610d1d610d186149a9565b61322f565b8461386f565b0497610d4189610d3b610d368289613bbd565b613857565b96613bbd565b613bbd565b613240565b610d53614b28565b907f00000000000000000000000000000000000000000000000000000000000000009163ffffffff83168210801561103c575b61100c57505050610d99813033856137ff565b610dd8868289610da7614ab7565b60405163095ea7b360e01b815291166001600160a01b03166004820152602481019190915291829081906044820190565b03818d875af1908115610567578a91610fdf575b5015610f8f57610e4891869188610e01614ab7565b60405163573ade8160e01b81526001600160a01b039094166004850152602484019290925260026044840152306064840152919384929091169082908c9082906084820190565b03925af1908115610f84578591610f5b575b50506040519283528383600481895afa908115610f5057610e88610e8e92610e93958a91610f2357506133dc565b9061386f565b613458565b91610e9c614ab7565b604051631a4ca37b60e21b81526001600160a01b038616600482015260248101859052306044820152918391839160649183918a91165af18015610f1857610eef575b5050610eec9133906135e0565b80f35b813d8311610f11575b610f028183612e1c565b810103126103ed573880610edf565b503d610ef8565b6040513d87823e3d90fd5b610f439150873d8911610f49575b610f3b8183612e1c565b810190613bca565b38610cb6565b503d610f31565b6040513d89823e3d90fd5b813d8311610f7d575b610f6e8183612e1c565b810103126103ed578338610e5a565b503d610f64565b6040513d8a823e3d90fd5b60405162461bcd60e51b815260048101879052603460248201526000805160206150f6833981519152604482015273696e206465637265617365206c6576657261676560601b6064820152608490fd5b610fff9150873d8911611005575b610ff78183612e1c565b810190613623565b38610dec565b503d610fed565b604051636a3f633560e11b8152600481019290925263ffffffff9290921660248201526044810191909152606490fd5b5080821015610d86565b610cbc919550610d4b92506110719060c03d8111611081575b6110698183612e1c565b81019061477b565b5050505091909195919250610cfa565b503d61105f565b610f439150893d8b11610f4957610f3b8183612e1c565b508481813d83116110c7575b6110b58183612e1c565b810103126103ed57610c889051610c7d565b503d6110ab565b8360449160405191631ecf7b4160e01b835260048301526024820152fd5b9093508581813d8311611114575b6111048183612e1c565b810103126103ed57519238610c2f565b503d6110fa565b6040513d8b823e3d90fd5b50346105765780600319360112610576576020600654604051908152f35b5034610576578060031936011261057657602060405163ffffffff7f0000000000000000000000000000000000000000000000000000000000000000168152f35b50346105765780600319360112610576576040517f00000000000000000000000000000000000000000000000000000000000000006001600160a01b03168152602090f35b50346105765780600319360112610576576111e3613137565b600580546001600160a01b031981169091556000906001600160a01b03167f8be0079c531659141344cd1fd0a4f28419497f9722a3daafe3b4186f6b6457e08280a380f35b50346105765760403660031901126105765760209061073d6004359161124c612d55565b600654906040519261125d84612e01565b835261126885614c34565b8095613739565b503461057657806003193601126105765760206001600160a01b036108ff614ab7565b5034610576578060031936011261057657602060405160028152f35b612d21565b5034610576578060031936011261057657602060405163ffffffff7f0000000000000000000000000000000000000000000000000000000000000000168152f35b50346105765760206103be61130836612f25565b936113178697969492946133ed565b9687614249565b503461057657604036600319011261057657611338612d3f565b611340612d55565b90611349613137565b6040516370a0823160e01b8152306004820152916001600160a01b039190911690602083602481855afa9182156113c057849261138b575b610eec93506135e0565b91506020833d82116113b8575b816113a560209383612e1c565b810103126103ed57610eec925191611381565b3d9150611398565b6040513d86823e3d90fd5b5034610576578060031936011261057657602061073d614b28565b50346105765780600319360112610576576040517f00000000000000000000000000000000000000000000000000000000000000006001600160a01b03168152602090f35b503461057657806003193601126105765760ff7f0000000000000000000000000000000000000000000000000000000000000000169060ff821161147457602082604051908152f35b634e487b7160e01b81526011600452602490fd5b503461057657806003193601126105765760206040517f439148f0bbc682ca079e46d6e2c2f0c1e3b820f1a291b069d8882abf8cf18dd98152f35b50346105765780600319360112610576576040516338d52e0f60e01b815290602082600481305afa9081156103f957809161150d575b6040516001600160a01b0383168152602090f35b90506020823d8211611541575b8161152760209383612e1c565b81010312610576575061153b602091614a18565b386114f9565b3d915061151a565b50346105765760a036600319011261057657611563612d3f565b61156b612d55565b90608435906001600160401b038211611cca5736602383011215611cca5781600401356001600160401b0381116125e65782019260248401913683116125da577f00000000000000000000000000000000000000000000000000000000000000006001600160a01b0316330361260e57306001600160a01b03909116036125fc576001600160a01b037f000000000000000000000000000000000000000000000000000000000000000081169116036125ea576040519161162b83612d94565b84835260408160208501956060875203126125e6576024810135918215158093036125da576044820135906001600160401b0382116125e25760246116739285940101612e58565b808552925215611cce5750516040519061168c82612dca565b82825282602083015282604083015260608083015280518101608082820312611cca576020820151916040810151916060820151916080810151916001600160401b038311611cc6576116e6926020809201920101614967565b60608501526040840152602083015281526116ff614a2c565b61170f6020830151835190613bbd565b60405163b3596f0760e01b81526001600160a01b037f0000000000000000000000000000000000000000000000000000000000000000811660048301529192916020908290602490829086165afa908115610f18578591611c94575b5060405163313ce56760e01b8152906020826004817f00000000000000000000000000000000000000000000000000000000000000006001600160a01b03165afa918215611c40576117cf602092610e886024956117d5948b91611c7d57506133dc565b8561386f565b60405163b3596f0760e01b81526001600160a01b037f00000000000000000000000000000000000000000000000000000000000000008116600483015291949093849290918391165afa908115610f18578591611c4b575b5060405163313ce56760e01b81526020816004817f00000000000000000000000000000000000000000000000000000000000000006001600160a01b03165afa928315611c4057610cbc6118a093610e88620f424096611893958b91611c2757506133dc565b610e88604086015161322f565b04908115611bea576118fd91606084015191429130917f00000000000000000000000000000000000000000000000000000000000000007f0000000000000000000000000000000000000000000000000000000000000000614dde565b6040516370a0823160e01b81523060048201526020816024817f00000000000000000000000000000000000000000000000000000000000000006001600160a01b03165afa9081156113c0578491611bb8575b506020830151808210611b9a57506001600160a01b039050611970614ab7565b60208481015160405163095ea7b360e01b81526001600160a01b0394909316938416600484015260248301528180604481010381887f00000000000000000000000000000000000000000000000000000000000000006001600160a01b03165af1908115610f18578591611b7b575b5015611b3557602084930151813b15611b305760405163617ba03760e01b81526001600160a01b037f0000000000000000000000000000000000000000000000000000000000000000166004820152602481019190915230604482015260006064820152838160848183865af19081156113c0578491611b1c575b5050803b15611b185760a48392604051948593849263a415bcad60e01b845260018060a01b037f00000000000000000000000000000000000000000000000000000000000000001660048501526024840152600260448401528160648401523060848401525af18015611b0d57611af9575b50505b60206040517f439148f0bbc682ca079e46d6e2c2f0c1e3b820f1a291b069d8882abf8cf18dd98152f35b611b038291612d6b565b6105765780611acc565b6040513d84823e3d90fd5b5050fd5b611b2590612d6b565b611b18578238611a5a565b505050fd5b60405162461bcd60e51b815260206004820152602a60248201526000805160206150f68339815191526044820152691a5b8819195c1bdcda5d60b21b6064820152608490fd5b611b94915060203d60201161100557610ff78183612e1c565b386119df565b6044925060405191635e13771960e01b835260048301526024820152fd5b90506020813d602011611be2575b81611bd360209383612e1c565b810103126103ed575138611950565b3d9150611bc6565b60405162461bcd60e51b81526020600482015260156024820152746d6178496e206973206e6f7420706f73697469766560581b6044820152606490fd5b610f43915060203d602011610f4957610f3b8183612e1c565b6040513d88823e3d90fd5b90506020813d602011611c75575b81611c6660209383612e1c565b810103126103ed57513861182d565b3d9150611c59565b610f439150863d8811610f4957610f3b8183612e1c565b90506020813d602011611cbe575b81611caf60209383612e1c565b810103126103ed57513861176b565b3d9150611ca2565b8780fd5b8380fd5b604051929150611cdd83612daf565b81835281602084015260606040840152805181016060828203126125de576020820151916040810151916060820151906001600160401b0382116125da57611d2c926020918201920101614967565b604085015260208401528252611d40614ab7565b90611d49614a2c565b611d7c7f00000000000000000000000000000000000000000000000000000000000000006001600160a01b0316306147a9565b845160405163b3596f0760e01b81526001600160a01b037f0000000000000000000000000000000000000000000000000000000000000000811660048301529295926020908290602490829088165afa908115610f185785916125a8575b5060405163313ce56760e01b81526020816004817f00000000000000000000000000000000000000000000000000000000000000006001600160a01b03165afa908115611c405791610e88610e8892611e3a95948991611c2757506133dc565b60405163b3596f0760e01b81526001600160a01b037f0000000000000000000000000000000000000000000000000000000000000000811660048301526020908290602490829088165afa908115610f18578591612576575b5060405163313ce56760e01b81526020816004817f00000000000000000000000000000000000000000000000000000000000000006001600160a01b03165afa908115611c405791610e88610cbc92611ef395948991611c2757506133dc565b60405163095ea7b360e01b81526001600160a01b03831660048201526024810182905260208180604481010381887f00000000000000000000000000000000000000000000000000000000000000006001600160a01b03165af1908115610f18578591612557575b501561251257611fcd946020611f6f614b28565b60405163573ade8160e01b81527f00000000000000000000000000000000000000000000000000000000000000006001600160a01b031660048201526024810194909452600260448501523060648501529296879081906084820190565b0381886001600160a01b0388165af1958615610f185785966124de575b5061201e7f00000000000000000000000000000000000000000000000000000000000000006001600160a01b0316306147a9565b9080821061248d579061203192916148fe565b855180821061243c5750604051631a4ca37b60e21b81526001600160a01b037f000000000000000000000000000000000000000000000000000000000000000081166004830152602482019290925230604482015291602091839160649183918891165af180156123d457612411575b5060405163b3596f0760e01b81526001600160a01b037f0000000000000000000000000000000000000000000000000000000000000000811660048301526020908290602490829086165afa9081156123d45783916123df575b5060405163313ce56760e01b81526020816004817f00000000000000000000000000000000000000000000000000000000000000006001600160a01b03165afa9081156113c05761215e602493610e88602094612164948991611c7d57506133dc565b8661386f565b60405163b3596f0760e01b81526001600160a01b037f00000000000000000000000000000000000000000000000000000000000000008116600483015291949093849290918391165afa9081156123d45783916123a2575b5060405163313ce56760e01b81526020816004817f00000000000000000000000000000000000000000000000000000000000000006001600160a01b03165afa9081156113c05791610e88610cbc9261221c95948791611c2757506133dc565b6040516370a0823160e01b81523060048201529091906020816024817f00000000000000000000000000000000000000000000000000000000000000006001600160a01b03165afa9182156103f95791612370575b50818110612322575061228f620f424091610e88602086015161322f565b0480156122f05760406122ea93015191429130917f00000000000000000000000000000000000000000000000000000000000000007f0000000000000000000000000000000000000000000000000000000000000000614dde565b50611acf565b60405162461bcd60e51b815260206004820152600a60248201526906d6178496e20697320360b41b6044820152606490fd5b604051630b722aef60e21b81526001600160a01b037f000000000000000000000000000000000000000000000000000000000000000016600482015260248101929092526044820152606490fd5b90506020813d60201161239a575b8161238b60209383612e1c565b810103126103ed575138612271565b3d915061237e565b90506020813d6020116123cc575b816123bd60209383612e1c565b810103126103ed5751386121bc565b3d91506123b0565b6040513d85823e3d90fd5b90506020813d602011612409575b816123fa60209383612e1c565b810103126103ed5751386120fb565b3d91506123ed565b602090813d8311612435575b6124278183612e1c565b810103126103ed57386120a1565b503d61241d565b6040516311d7238d60e21b81526001600160a01b037f000000000000000000000000000000000000000000000000000000000000000016600482015260248101919091526044810191909152606490fd5b604051637d9ebd0360e01b81526001600160a01b037f000000000000000000000000000000000000000000000000000000000000000016600482015260248101919091526044810191909152606490fd5b9095506020813d60201161250a575b816124fa60209383612e1c565b810103126103ed57519438611fea565b3d91506124ed565b60405162461bcd60e51b815260206004820152602960248201526000805160206150f6833981519152604482015268696e2072656465656d60b81b6064820152608490fd5b612570915060203d60201161100557610ff78183612e1c565b38611f5b565b90506020813d6020116125a0575b8161259160209383612e1c565b810103126103ed575138611e93565b3d9150612584565b90506020813d6020116125d2575b816125c360209383612e1c565b810103126103ed575138611dda565b3d91506125b6565b8580fd5b8280fd5b8680fd5b8480fd5b604051638698bf3760e01b8152600490fd5b604051634ac321c360e11b8152600490fd5b604051631e4a393d60e31b8152600490fd5b50346105765760603660031901126105765761095661263d612d3f565b612645612d55565b60443591612654833383613309565b613163565b50346105765761266836612ee9565b906001600160a01b03908161267b614a2c565b1692827f0000000000000000000000000000000000000000000000000000000000000000169160405163b3596f0760e01b928382528460048301526020826024818a5afa918215610f84578892612a90575b50808210612a7257506126e0908261386f565b60405163313ce56760e01b815290602082600481885afa918215610f845761271292610cbc918a91611c2757506133dc565b92602460c086612720614ab7565b1660405192838092632fe4a15f60e21b82523060048301525afa8015610f845788918991612a4e575b506127526149a9565b6040519586526020866024818b7f0000000000000000000000000000000000000000000000000000000000000000169c8d60048301525afa958615610567578a96612a0e575b50610d4196610d416127cf9493620f42406127b86117cf610cbc9661322f565b0499836127c9610d368d9689613240565b96613240565b6127d7614b28565b907f00000000000000000000000000000000000000000000000000000000000000009163ffffffff831682118015612a04575b6129d45750505061281d823033846137ff565b61282c60208387610da7614ab7565b03818b865af1908115610f845788916129b5575b501561296557869085612851614ab7565b16803b156125de5760405163617ba03760e01b81526001600160a01b03929092166004830152602482019390935230604482015260006064820152918290608490829084905af18015611c4057612950575b5060405163313ce56760e01b81528592909190602083600481895afa9081156113c057610e88610e8e926128dd958791611c2757506133dc565b916128e6614ab7565b16803b156105725781809160a46040518094819363a415bcad60e01b8352896004840152886024840152600260448401528160648401523060848401525af18015611b0d5761293c575050610eec9133906135e0565b61294590612d6b565b6125de578238610edf565b61295d9095919295612d6b565b9390386128a3565b60405162461bcd60e51b815260206004820152603460248201526000805160206150f6833981519152604482015273696e20696e637265617365206c6576657261676560601b6064820152608490fd5b6129ce915060203d60201161100557610ff78183612e1c565b38612840565b604051630262805f60e11b8152600481019290925263ffffffff9290921660248201526044810191909152606490fd5b508082111561280a565b92919095506020833d602011612a46575b81612a2c60209383612e1c565b81010312612a4257915194909190610d41612798565b8980fd5b3d9150612a1f565b9050612a68915060c03d8111611081576110698183612e1c565b5050505038612749565b6044925060405191636f3acc2360e11b835260048301526024820152fd5b9091506020813d602011612abc575b81612aac60209383612e1c565b81010312611cc6575190386126cd565b3d9150612a9f565b50346105765780600319360112610576576020600254604051908152f35b503461057657602061073d612af636612e9f565b91611268849594614c34565b5034610576578060031936011261057657610eec6134f7565b503461057657602036600319011261057657602061073d600435614bdb565b503461057657604036600319011261057657612b54612d3f565b602435903315612bd4576001600160a01b0316918215612bbc5760408291338152600160205281812085825260205220556040519081527f8c5be1e5ebec7d5bd14f71427d1e84f3dd0314c0f7b2291e5b200ac8c7c3b92560203392a3602060405160018152f35b60249060405190634a1406b160e11b82526004820152fd5b60405163e602df0560e01b815260048101849052602490fd5b50346105765780600319360112610576576040519080600354612c0f81612f7f565b80855291600191808316908115612c945750600114612c39575b61064d8561063981870382612e1c565b9250600383527fc2575a0e9e593c00f959f8c92f12db2869c3395a3b0502d05e2516446f71f85b5b828410612c7c5750505081016020016106398261064d612c29565b80546020858701810191909152909301928101612c61565b86955061064d9693506020925061063994915060ff191682840152151560051b8201019293612c29565b5034610576578060031936011261057657602061073d614c6b565b60005b838110612cec5750506000910152565b8181015183820152602001612cdc565b90602091612d1581518092818552858086019101612cd9565b601f01601f1916010190565b346103ed5760203660031901126103ed57602061073d6004356133ed565b600435906001600160a01b03821682036103ed57565b602435906001600160a01b03821682036103ed57565b6001600160401b038111612d7e57604052565b634e487b7160e01b600052604160045260246000fd5b604081019081106001600160401b03821117612d7e57604052565b606081019081106001600160401b03821117612d7e57604052565b608081019081106001600160401b03821117612d7e57604052565b6101e081019081106001600160401b03821117612d7e57604052565b602081019081106001600160401b03821117612d7e57604052565b90601f801991011681019081106001600160401b03821117612d7e57604052565b6001600160401b038111612d7e57601f01601f191660200190565b81601f820112156103ed57803590612e6f82612e3d565b92612e7d6040519485612e1c565b828452602083830101116103ed57816000926020809301838601378301015290565b9060806003198301126103ed57600435916024356001600160a01b03811681036103ed579160443591606435906001600160401b0382116103ed57612ee691600401612e58565b90565b60409060031901126103ed576004359060243590565b346103ed5760203660031901126103ed57612f18612d3f565b5060206040516000198152f35b9060c06003198301126103ed57600435916001600160a01b039160243583811681036103ed579260443590811681036103ed5791606435916084359160a435906001600160401b0382116103ed57612ee691600401612e58565b90600182811c92168015612faf575b6020831014612f9957565b634e487b7160e01b600052602260045260246000fd5b91607f1691612f8e565b60085460009291612fc982612f7f565b808252916001908181169081156130405750600114612fe757505050565b9192935060086000527ff3f7a9fe364faab93b216da50a3214154f22a0a2b415b23a84c8169e8b636ee3916000925b84841061302857505060209250010190565b80546020858501810191909152909301928101613016565b915050602093945060ff929192191683830152151560051b010190565b6009546000929161306d82612f7f565b80825291600190818116908115613040575060011461308b57505050565b9192935060096000527f6e1540171b6c0c960b71a7020d9f60077f6af931a8bbf590da0223dacf75c7af916000925b8484106130cc57505060209250010190565b805460208585018101919091529093019281016130ba565b60609060031901126103ed57600435906001600160a01b039060243582811681036103ed579160443590811681036103ed5790565b346103ed5760203660031901126103ed57602061073d600435614c34565b6005546001600160a01b0316330361314b57565b60405163118cdaa760e01b8152336004820152602490fd5b916001600160a01b0380841692831561321657169283156131fd57600090838252816020526040822054908382106131cb57509160408282600080516020615116833981519152958760209652828652038282205586815220818154019055604051908152a3565b60405163391434e360e21b81526001600160a01b03919091166004820152602481019190915260448101839052606490fd5b60405163ec442f0560e01b815260006004820152602490fd5b604051634b637e8f60e11b815260006004820152602490fd5b90620f42409182018092116108c657565b919082018092116108c657565b9091906001600160a01b0381169081613297575060008051602061511683398151915260208461328260009596600254613240565b6002555b8060025403600255604051908152a3565b926000828152806020526040812054948286106132d85750818160406000805160206151168339815191529460009798876020965283865203912055613286565b60405163391434e360e21b81526001600160a01b039190911660048201526024810186905260448101839052606490fd5b9160018060a01b038093169160009383855260016020526040938486209183169182875260205284862054926000198403613348575b50505050505050565b8484106133ac5750801561339457811561337c5785526001602052838520908552602052039120553880808080808061333f565b8451634a1406b160e11b815260048101879052602490fd5b845163e602df0560e01b815260048101879052602490fd5b8551637dc7a0d960e11b81526001600160a01b039190911660048201526024810184905260448101859052606490fd5b60ff16604d81116108c657600a0a90565b6133f5614c6b565b600181018091116108c65760025490600182018092116108c657612ee692613462565b9190613425828285613462565b92821561344257096134345790565b600181018091116108c65790565b634e487b7160e01b600052601260045260246000fd5b8115613442570490565b909182820291600019848209938380861095039480860395146134ea57848311156134d85782910981600003821680920460028082600302188083028203028083028203028083028203028083028203028083028203028092029003029360018380600003040190848311900302920304170290565b60405163227bc15360e01b8152600490fd5b505090612ee69250613458565b6134ff614b28565b8015158061357b575b61350f5750565b6064906040519063391f5eb560e01b8252600482015263ffffffff807f00000000000000000000000000000000000000000000000000000000000000001660248301527f0000000000000000000000000000000000000000000000000000000000000000166044820152fd5b5063ffffffff807f00000000000000000000000000000000000000000000000000000000000000001682109081156135b4575b50613508565b90507f0000000000000000000000000000000000000000000000000000000000000000168111386135ae565b60405163a9059cbb60e01b60208201526001600160a01b039290921660248301526044808301939093529181526136219161361c606483612e1c565b61363b565b565b908160209103126103ed575180151581036103ed5790565b6000806136859260018060a01b03169360208151910182865af13d156136ce573d9061366682612e3d565b916136746040519384612e1c565b82523d6000602084013e5b836136d6565b80519081151591826136b3575b505061369b5750565b60249060405190635274afe760e01b82526004820152fd5b6136c69250602080918301019101613623565b153880613692565b60609061367f565b906136fd57508051156136eb57805190602001fd5b604051630a12f52160e11b8152600490fd5b81511580613730575b61370e575090565b604051639996b31560e01b81526001600160a01b039091166004820152602490fd5b50803b15613706565b92919093613786906137496134f7565b6001600160a01b03936137808630337f000000000000000000000000000000000000000000000000000000000000000089166137ff565b856138b3565b169182156131fd5761379a81600254613240565b60025582600052600060205260406000208181540190558260006000805160206151168339815191526020604051858152a360405191825260208201527fdcbc1c05240f31ff3ad067ef1ee35ce4997762752e3a095284754544f4c709d760403392a3565b6040516323b872dd60e01b60208201526001600160a01b03928316602482015292909116604483015260648083019390935291815260a08101918183106001600160401b03841117612d7e576136219260405261363b565b90620f4240918281029281840414901517156108c657565b818102929181159184041417156108c657565b6001600160a01b039182168152911660208201526040810191909152608060608201819052612ee692910190612cfc565b6139639092919261394a620f42406138f163ffffffff7f0000000000000000000000000000000000000000000000000000000000000000168461386f565b049161393c60409586519761390589612dca565b83895281606060209a888c820152838b820152015287519586948a86015288850152606084015260808084015260a0830190612cfc565b03601f198101835282612e1c565b82519061395682612d94565b600182528482015261493c565b815163613255ab60e01b81526001600160a01b037f00000000000000000000000000000000000000000000000000000000000000008116600483018190527f000000000000000000000000000000000000000000000000000000000000000090911691908582602481865afa918215613bb257600092613b83575b508451633676633960e21b81526001600160a01b0382166004820152602481018390528681604481875afa908115613b4857908791600091613b53575b5090613a2a613a599285613240565b875163095ea7b360e01b81526001600160a01b0387166004820152602481019190915291829081906044820190565b03816000865af1908115613b4857600091613b2b575b5015613ad4579184939160008794613a9d975197889586948593632e7ff4ef60e11b85523060048601613882565b03925af1908115613aca5750613ab1575050565b81613ac792903d1061100557610ff78183612e1c565b50565b513d6000823e3d90fd5b845162461bcd60e51b815260048101879052602a60248201527f617070726f7665206661696c656420666f7220666c617368206c656e646572206044820152691a5b8819195c1bdcda5d60b21b6064820152608490fd5b613b429150873d891161100557610ff78183612e1c565b38613a6f565b86513d6000823e3d90fd5b9182813d8311613b7c575b613b688183612e1c565b810103126105765750518690613a2a613a1b565b503d613b5e565b90918682813d8311613bab575b613b9a8183612e1c565b8101031261057657505190386139de565b503d613b90565b85513d6000823e3d90fd5b919082039182116108c657565b908160209103126103ed575160ff811681036103ed5790565b90959493929193613bf26134f7565b336001600160a01b03841603614239575b620f4240613c3763ffffffff7f0000000000000000000000000000000000000000000000000000000000000000168461386f565b60405163613255ab60e01b81526001600160a01b037f00000000000000000000000000000000000000000000000000000000000000008116600483015290939290910490602090849060249082907f0000000000000000000000000000000000000000000000000000000000000000165afa9283156140cb57600093614203575b5090613cfe613d19928260408051613ccf81612daf565b8381528a6020820152015261393c60405193849260208401528960408401526060808401526080830190612cfc565b60405190613d0b82612d94565b60008252602082015261493c565b6040516370a0823160e01b8152306004820152916020836024817f00000000000000000000000000000000000000000000000000000000000000006001600160a01b03165afa9283156140cb576000936141cf575b50604051633676633960e21b81527f00000000000000000000000000000000000000000000000000000000000000006001600160a01b0316600482015260248101829052602081806044810103817f00000000000000000000000000000000000000000000000000000000000000006001600160a01b03165afa9081156140cb5760009161419c575b506020613e07613e579284613240565b60405163095ea7b360e01b81527f00000000000000000000000000000000000000000000000000000000000000006001600160a01b03166004820152602481019190915291829081906044820190565b038160007f00000000000000000000000000000000000000000000000000000000000000006001600160a01b03165af19081156140cb5760009161417d575b501561412657604051632e7ff4ef60e11b81529160209183918291613eea91907f00000000000000000000000000000000000000000000000000000000000000006001600160a01b03163060048601613882565b038160007f00000000000000000000000000000000000000000000000000000000000000006001600160a01b03165af180156140cb57614107575b506001600160a01b0383166000908152602081905260409020548781106140d757506001600160a01b0383161561321657613f60878461324d565b6040516370a0823160e01b81523060048201526020816024817f00000000000000000000000000000000000000000000000000000000000000006001600160a01b03165afa9081156140cb57600091614099575b5081811061407b5790613fc691613bbd565b9281841161404d575b50614006905082847f00000000000000000000000000000000000000000000000000000000000000006001600160a01b03166135e0565b8194604051928352602083015260018060a01b03169160018060a01b0316907ffbde797d201c681b91056529119e0b02407c7bb96a4a2c75c01fc9667232c8db60403392a4565b61405c82614073939495613bbd565b906040519161406a83612e01565b600083526138b3565b903880613fcf565b6044925060405191630cbb578960e31b835260048301526024820152fd5b906020823d6020116140c3575b816140b360209383612e1c565b8101031261057657505138613fb4565b3d91506140a6565b6040513d6000823e3d90fd5b604051631bb4880160e11b81526001600160a01b0385166004820152602481018990526044810191909152606490fd5b61411f9060203d60201161100557610ff78183612e1c565b5038613f25565b60405162461bcd60e51b815260206004820152602960248201527f617070726f7665206661696c656420666f7220666c617368206c656e64657220604482015268696e2072656465656d60b81b6064820152608490fd5b614196915060203d60201161100557610ff78183612e1c565b38613e96565b906020823d6020116141c7575b816141b660209383612e1c565b810103126105765750516020613df7565b3d91506141a9565b90926020823d6020116141fb575b816141ea60209383612e1c565b810103126105765750519138613d6e565b3d91506141dd565b90926020823d602011614231575b8161421e60209383612e1c565b8101031261057657505191613cfe613cb8565b3d9150614211565b614244873385613309565b613c03565b9596929093966142576134f7565b336001600160a01b0383160361476b575b620f424061429c63ffffffff7f0000000000000000000000000000000000000000000000000000000000000000168961386f565b60405163613255ab60e01b81526001600160a01b037f00000000000000000000000000000000000000000000000000000000000000008116600483015290939290910490602090849060249082907f0000000000000000000000000000000000000000000000000000000000000000165afa9283156140cb57600093614735575b5090613cfe614364928260408d81519061433682612daf565b8482526020820152015261393c60405193849260208401528d60408401526060808401526080830190612cfc565b6040516370a0823160e01b8152306004820152916020836024817f00000000000000000000000000000000000000000000000000000000000000006001600160a01b03165afa9283156140cb57600093614701575b50604051633676633960e21b81527f00000000000000000000000000000000000000000000000000000000000000006001600160a01b0316600482015260248101829052602081806044810103817f00000000000000000000000000000000000000000000000000000000000000006001600160a01b03165afa9081156140cb576000916146ce575b506020613e076144529284613240565b038160007f00000000000000000000000000000000000000000000000000000000000000006001600160a01b03165af19081156140cb576000916146af575b501561412657604051632e7ff4ef60e11b815291602091839182916144e591907f00000000000000000000000000000000000000000000000000000000000000006001600160a01b03163060048601613882565b038160007f00000000000000000000000000000000000000000000000000000000000000006001600160a01b03165af180156140cb57614690575b506001600160a01b03821660009081526020819052604090205485811061466057506001600160a01b038216156132165761455b858361324d565b6040516370a0823160e01b81523060048201526020816024817f00000000000000000000000000000000000000000000000000000000000000006001600160a01b03165afa9081156140cb5760009161462e575b5081811061407b57906145c191613bbd565b95858710156145e8576044878760405191630a38061160e21b835260048301526024820152fd5b809295508694979193961161404d5750614006905082847f00000000000000000000000000000000000000000000000000000000000000006001600160a01b03166135e0565b906020823d602011614658575b8161464860209383612e1c565b81010312610576575051386145af565b3d915061463b565b604051631bb4880160e11b81526001600160a01b0384166004820152602481018790526044810191909152606490fd5b6146a89060203d60201161100557610ff78183612e1c565b5038614520565b6146c8915060203d60201161100557610ff78183612e1c565b38614491565b906020823d6020116146f9575b816146e860209383612e1c565b810103126105765750516020614442565b3d91506146db565b90926020823d60201161472d575b8161471c60209383612e1c565b8101031261057657505191386143b9565b3d915061470f565b90926020823d602011614763575b8161475060209383612e1c565b8101031261057657505191613cfe61431d565b3d9150614743565b614776853384613309565b614268565b91908260c09103126103ed5781519160208101519160408201519160608101519160a0608083015192015190565b6001600160a01b039190826147bc614ab7565b169160c084602460409485519687938492632fe4a15f60e21b84521660048301525afa80156148f35760009384916148cb575b50846147f9614a2c565b1693835195869363b3596f0760e01b8552169485600485015283602460209586935afa9586156148c05760009661488f575b509161483a8192600494613bbd565b9484519384809263313ce56760e01b82525afa928315613aca5750610e8e92612ee6959492610e8892600092614872575b50506133dc565b6148889250803d10610f4957610f3b8183612e1c565b388061486b565b90958382813d83116148b9575b6148a68183612e1c565b810103126105765750519461483a61482b565b503d61489c565b84513d6000823e3d90fd5b90506148e691935060c03d8111611081576110698183612e1c565b50505050929092386147ef565b82513d6000823e3d90fd5b61490791613bbd565b620f4240821115614934578161491c9161386f565b90620f423f1981019081116108c657612ee691613458565b505060001990565b612ee66020825115159201519161393c60405193849260208401526040808401526060830190612cfc565b81601f820112156103ed57805161497d81612e3d565b9261498b6040519485612e1c565b818452602082840101116103ed57612ee69160208085019101612cd9565b6149b1614b28565b7f000000000000000000000000000000000000000000000000000000000000000063ffffffff1680821115614a0357610e8e610d36826149f094613bbd565b6007548082116149fe575090565b905090565b610e8e610d36614a139383613bbd565b6149f0565b51906001600160a01b03821682036103ed57565b604051631f94a27560e31b81526001600160a01b03906020816004817f000000000000000000000000000000000000000000000000000000000000000086165afa9081156140cb57600091614a8057501690565b906020823d8211614aaf575b81614a9960209383612e1c565b810103126105765750614aab90614a18565b1690565b3d9150614a8c565b60405163026b1d5f60e01b81526001600160a01b03906020816004817f000000000000000000000000000000000000000000000000000000000000000086165afa9081156140cb57600091614a8057501690565b51906fffffffffffffffffffffffffffffffff821682036103ed57565b602460c06001600160a01b03614b3c614ab7565b1660405192838092632fe4a15f60e21b82523060048301525afa9081156140cb576000908192614bb6575b50818110614b99578015614b925781811461493457610cbc612ee692614b8c83613857565b92613bbd565b5050600090565b604491604051916378ea417b60e11b835260048301526024820152fd5b9050614bd0915060c03d8111611081576110698183612e1c565b505050509038614b67565b6002548015614c3057614bec614c6b565b908115614c1257600181018091116108c657600182018092116108c657612ee692613418565b604492506040519163287036a960e21b835260048301526024820152fd5b5090565b6002548015614c3057614c45614c6b565b908115614c1257600181018091116108c657600182018092116108c657612ee692613462565b60246001600160a01b0380614c7e614ab7565b1660c0604091825194858092632fe4a15f60e21b82523060048301525afa8015614dd3576000938491614dab575b50808410614d8e57614cc690614cc0614a2c565b94613bbd565b91807f00000000000000000000000000000000000000000000000000000000000000001682519463b3596f0760e01b8652816004870152856024816020958694165afa948515614d8357600095614d54575b50908060049284519384809263313ce56760e01b82525afa928315613aca5750610e8e92612ee6959492610e88926000926148725750506133dc565b90948282813d8311614d7c575b614d6b8183612e1c565b810103126105765750519381614d18565b503d614d61565b83513d6000823e3d90fd5b839060449251916378ea417b60e11b835260048301526024820152fd5b9050614dc691935060c03d8111611081576110698183612e1c565b5050505092909238614cac565b50513d6000823e3d90fd5b949392919095805115600014614e105750612ee695614e0a906001600160a01b03908116908716614e1b565b94614f08565b94612ee69650614f08565b6001600160a01b03908116917f0000000000000000000000000000000000000000000000000000000000000000821683811480614edb575b15614e6c5750505050604051612ee68161063281612fb9565b827f00000000000000000000000000000000000000000000000000000000000000001684149081614ecf575b50614ebc57604493506040519263ee4caf3d60e01b84526004840152166024820152fd5b505050604051612ee6816106328161305d565b90508282161438614e98565b50827f00000000000000000000000000000000000000000000000000000000000000001683831614614e53565b6040805163095ea7b360e01b81526001600160a01b037f0000000000000000000000000000000000000000000000000000000000000000811660048301819052602483018790529298600097602097929694959194909390918890829060449082908d908c165af19081156150eb5789916150ce575b50156150785789519360a085018581106001600160401b0382111761506457928897969592614ff595928b958e52845287898501931683528c84019b8c5260608401908152608084019182528c519b8c9889978896631e51809360e31b88528c60048901525160a0602489015260c4880190612cfc565b94511660448601525160648501525160848401525160a483015203925af193841561505957508193615028575b50505090565b9091809350813d8311615052575b6150408183612e1c565b81010312610576575051388080615022565b503d615036565b51913d9150823e3d90fd5b634e487b7160e01b8a52604160045260248afd5b895162461bcd60e51b815260048101889052602960248201527f617070726f7665206661696c656420666f72207377617020726f7574657220696044820152681b8819195c1bdcda5d60ba1b6064820152608490fd5b6150e59150883d8a1161100557610ff78183612e1c565b38614f7e565b8b513d8b823e3d90fdfe617070726f7665206661696c656420666f72206c656e64696e6720706f6f6c20ddf252ad1be2c89b69c2b068fc378daa952ba7f163c4a11628f55a4df523b3efa2646970667358221220853c174a8246eda53e43660b2ec5745d5af2a7f57bee8f18d2810734418e810a64736f6c63430008140033f3f7a9fe364faab93b216da50a3214154f22a0a2b415b23a84c8169e8b636ee3",
  "devdoc": {
    "details": "A leveraged vault contract with Uniswap V3 swap-specific logic",
    "errors": {
      "AddressEmptyCode(address)": [
        {
          "details": "There's no code at `target` (it is not a contract)."
        }
      ],
      "AddressInsufficientBalance(address)": [
        {
          "details": "The ETH balance of the account is not enough to perform the operation."
        }
      ],
      "ERC20InsufficientAllowance(address,uint256,uint256)": [
        {
          "details": "Indicates a failure with the `spender`s `allowance`. Used in transfers.",
          "params": {
            "allowance": "Amount of tokens a `spender` is allowed to operate with.",
            "needed": "Minimum amount required to perform a transfer.",
            "spender": "Address that may be allowed to operate on tokens without being their owner."
          }
        }
      ],
      "ERC20InsufficientBalance(address,uint256,uint256)": [
        {
          "details": "Indicates an error related to the current `balance` of a `sender`. Used in transfers.",
          "params": {
            "balance": "Current balance for the interacting account.",
            "needed": "Minimum amount required to perform a transfer.",
            "sender": "Address whose tokens are being transferred."
          }
        }
      ],
      "ERC20InvalidApprover(address)": [
        {
          "details": "Indicates a failure with the `approver` of a token to be approved. Used in approvals.",
          "params": {
            "approver": "Address initiating an approval operation."
          }
        }
      ],
      "ERC20InvalidReceiver(address)": [
        {
          "details": "Indicates a failure with the token `receiver`. Used in transfers.",
          "params": {
            "receiver": "Address to which tokens are being transferred."
          }
        }
      ],
      "ERC20InvalidSender(address)": [
        {
          "details": "Indicates a failure with the token `sender`. Used in transfers.",
          "params": {
            "sender": "Address whose tokens are being transferred."
          }
        }
      ],
      "ERC20InvalidSpender(address)": [
        {
          "details": "Indicates a failure with the `spender` to be approved. Used in approvals.",
          "params": {
            "spender": "Address that may be allowed to operate on tokens without being their owner."
          }
        }
      ],
      "ERC4626ExceededMaxDeposit(address,uint256,uint256)": [
        {
          "details": "Attempted to deposit more assets than the max amount for `receiver`."
        }
      ],
      "ERC4626ExceededMaxMint(address,uint256,uint256)": [
        {
          "details": "Attempted to mint more shares than the max amount for `receiver`."
        }
      ],
      "ERC4626ExceededMaxRedeem(address,uint256,uint256)": [
        {
          "details": "Attempted to redeem more shares than the max amount for `receiver`."
        }
      ],
      "ERC4626ExceededMaxWithdraw(address,uint256,uint256)": [
        {
          "details": "Attempted to withdraw more assets than the max amount for `receiver`."
        }
      ],
      "FailedInnerCall()": [
        {
          "details": "A call to an address target failed. The target may have reverted."
        }
      ],
      "MathOverflowedMulDiv()": [
        {
          "details": "Muldiv operation overflow."
        }
      ],
      "OwnableInvalidOwner(address)": [
        {
          "details": "The owner is not a valid owner account. (eg. `address(0)`)"
        }
      ],
      "OwnableUnauthorizedAccount(address)": [
        {
          "details": "The caller account is not authorized to perform an operation."
        }
      ],
      "SafeERC20FailedOperation(address)": [
        {
          "details": "An operation with an ERC20 token failed."
        }
      ]
    },
    "events": {
      "Approval(address,address,uint256)": {
        "details": "Emitted when the allowance of a `spender` for an `owner` is set by a call to {approve}. `value` is the new allowance."
      },
      "Transfer(address,address,uint256)": {
        "details": "Emitted when `value` tokens are moved from one account (`from`) to another (`to`). Note that `value` may be zero."
      }
    },
    "kind": "dev",
    "methods": {
      "allowance(address,address)": {
        "details": "See {IERC20-allowance}."
      },
      "approve(address,uint256)": {
        "details": "See {IERC20-approve}. NOTE: If `value` is the maximum `uint256`, the allowance is not updated on `transferFrom`. This is semantically equivalent to an infinite approval. Requirements: - `spender` cannot be the zero address."
      },
      "asset()": {
        "details": "See {IERC4626-asset}. "
      },
      "balanceOf(address)": {
        "details": "See {IERC20-balanceOf}."
      },
      "checkIsTooImbalanced()": {
        "details": "Checks if the current leverage is too imbalanced"
      },
      "constructor": {
        "details": "Constructor for the DLoopVaultUniswapV3 contract",
        "params": {
          "_defaultDUSDToUnderlyingSwapPath": "Default swap path from dUSD to underlying asset",
          "_defaultUnderlyingToDUSDSwapPath": "Default swap path from underlying asset to dUSD",
          "_dusd": "Address of the dUSD token",
          "_flashLender": "Address of the flash loan provider",
          "_lendingPoolAddressesProvider": "Address of the lending pool addresses provider",
          "_maxSubsidyBps": "Maximum subsidy in basis points",
          "_name": "Name of the vault token",
          "_swapRouter": "Address of the swap router",
          "_swapSlippageTolerance": "Swap slippage tolerance in basis points",
          "_symbol": "Symbol of the vault token",
          "_targetLeverageBps": "Target leverage in basis points",
          "_underlyingAsset": "Address of the underlying asset"
        }
      },
      "convertToAssets(uint256)": {
        "details": "See {IERC4626-convertToAssets}. "
      },
      "convertToShares(uint256)": {
        "details": "See {IERC4626-convertToShares}. "
      },
      "decimals()": {
        "details": "Decimals are computed by adding the decimal offset on top of the underlying asset's decimals. This \"original\" value is cached during construction of the vault contract. If this read operation fails (e.g., the asset has not been created yet), a default of 18 is used to represent the underlying asset's decimals. See {IERC20Metadata-decimals}."
      },
      "deposit(uint256,address)": {
        "details": "Deposits assets into the vault",
        "params": {
          "assets": "Amount of assets to deposit",
          "receiver": "Address to receive the minted shares"
        },
        "returns": {
          "shares": "Amount of shares minted"
        }
      },
      "depositWith(uint256,address,uint256,bytes)": {
        "details": "Deposits assets into the vault with custom parameters",
        "params": {
          "assets": "Amount of assets to deposit",
          "dusdToUnderlyingSwapData": "Swap data from dUSD to underlying asset",
          "receiver": "Address to receive the minted shares",
          "slippageTolerance": "Slippage tolerance for the swap"
        },
        "returns": {
          "shares": "Amount of shares minted"
        }
      },
      "maxDeposit(address)": {
        "details": "See {IERC4626-maxDeposit}. "
      },
      "maxMint(address)": {
        "details": "See {IERC4626-maxMint}. "
      },
      "maxRedeem(address)": {
        "details": "See {IERC4626-maxRedeem}. "
      },
      "maxWithdraw(address)": {
        "details": "See {IERC4626-maxWithdraw}. "
      },
      "mint(uint256,address)": {
        "details": "Mints shares to the receiver by depositing assets",
        "params": {
          "receiver": "Address to receive the minted shares",
          "shares": "Amount of shares to mint"
        },
        "returns": {
          "assets": "Amount of assets deposited"
        }
      },
      "mintWith(uint256,address,uint256,bytes)": {
        "details": "Mints shares to the receiver by depositing assets with custom parameters",
        "params": {
          "dusdToUnderlyingSwapData": "Swap data from dUSD to underlying asset",
          "receiver": "Address to receive the minted shares",
          "shares": "Amount of shares to mint",
          "slippageTolerance": "Slippage tolerance for the swap"
        },
        "returns": {
          "assets": "Amount of assets deposited"
        }
      },
      "name()": {
        "details": "Returns the name of the token."
      },
      "onFlashLoan(address,address,uint256,uint256,bytes)": {
        "details": "Callback function for flash loans",
        "params": {
          "data": "Additional data passed to the flash loan",
          "initiator": "Address that initiated the flash loan",
          "token": "Address of the flash-borrowed token"
        },
        "returns": {
          "_0": "bytes32 The flash loan callback success bytes"
        }
      },
      "owner()": {
        "details": "Returns the address of the current owner."
      },
      "previewDeposit(uint256)": {
        "details": "See {IERC4626-previewDeposit}. "
      },
      "previewMint(uint256)": {
        "details": "See {IERC4626-previewMint}. "
      },
      "previewRedeem(uint256)": {
        "details": "See {IERC4626-previewRedeem}. "
      },
      "previewWithdraw(uint256)": {
        "details": "See {IERC4626-previewWithdraw}. "
      },
      "redeem(uint256,address,address)": {
        "details": "Redeems shares from the vault",
        "params": {
          "owner": "Address that owns the shares",
          "receiver": "Address to receive the assets",
          "shares": "Amount of shares to redeem"
        },
        "returns": {
          "assets": "Amount of assets redeemed"
        }
      },
      "redeemWith(uint256,address,address,uint256,uint256,bytes)": {
        "details": "Redeems shares from the vault with custom parameters",
        "params": {
          "minReceiveAmount": "Minimum amount of assets to receive",
          "owner": "Address that owns the shares",
          "receiver": "Address to receive the assets",
          "shares": "Amount of shares to redeem",
          "swapSlippageTolerance": "Slippage tolerance for the swap",
          "underlyingToDUSDSwapData": "Swap data from underlying asset to DUSD"
        },
        "returns": {
          "assets": "Amount of assets redeemed"
        }
      },
      "renounceOwnership()": {
        "details": "Leaves the contract without owner. It will not be possible to call `onlyOwner` functions. Can only be called by the current owner. NOTE: Renouncing ownership will leave the contract without an owner, thereby disabling any functionality that is only available to the owner."
      },
      "rescueToken(address,address)": {
        "details": "Rescues tokens accidentally sent to the contract",
        "params": {
          "receiver": "Address to receive the rescued tokens",
          "token": "Address of the token to rescue"
        }
      },
      "setDefaultSwapSlippageTolerance(uint256)": {
        "details": "Sets the default swap slippage tolerance",
        "params": {
          "_swapSlippageTolerance": "New default swap slippage tolerance"
        }
      },
      "setMaxSubsidyBps(uint256)": {
        "details": "Sets the maximum subsidy in basis points",
        "params": {
          "_maxSubsidyBps": "New maximum subsidy in basis points"
        }
      },
      "symbol()": {
        "details": "Returns the symbol of the token, usually a shorter version of the name."
      },
      "totalAssets()": {
        "details": "See {IERC4626-totalAssets}. "
      },
      "totalSupply()": {
        "details": "See {IERC20-totalSupply}."
      },
      "transfer(address,uint256)": {
        "details": "See {IERC20-transfer}. Requirements: - `to` cannot be the zero address. - the caller must have a balance of at least `value`."
      },
      "transferFrom(address,address,uint256)": {
        "details": "See {IERC20-transferFrom}. Emits an {Approval} event indicating the updated allowance. This is not required by the EIP. See the note at the beginning of {ERC20}. NOTE: Does not update the allowance if the current allowance is the maximum `uint256`. Requirements: - `from` and `to` cannot be the zero address. - `from` must have a balance of at least `value`. - the caller must have allowance for ``from``'s tokens of at least `value`."
      },
      "transferOwnership(address)": {
        "details": "Transfers ownership of the contract to a new account (`newOwner`). Can only be called by the current owner."
      },
      "withdraw(uint256,address,address)": {
        "details": "Withdraws assets from the vault",
        "params": {
          "assets": "Amount of assets to withdraw",
          "owner": "Address that owns the shares",
          "receiver": "Address to receive the assets"
        },
        "returns": {
          "shares": "Amount of shares burned"
        }
      },
      "withdrawWith(uint256,address,address,uint256,uint256,bytes)": {
        "details": "Withdraws assets from the vault with custom parameters",
        "params": {
          "assets": "Amount of assets to withdraw",
          "minReceiveAmount": "Minimum amount of assets to receive",
          "owner": "Address that owns the shares",
          "receiver": "Address to receive the assets",
          "swapSlippageTolerance": "Slippage tolerance for the swap",
          "underlyingToDUSDSwapData": "Swap data from underlying asset to dUSD"
        },
        "returns": {
          "shares": "Amount of shares burned"
        }
      }
    },
    "title": "DLoopVaultUniswapV3",
    "version": 1
  },
  "userdoc": {
    "kind": "user",
    "methods": {},
    "version": 1
  },
  "storageLayout": {
    "storage": [
      {
        "astId": 477,
        "contract": "contracts/vault/DLoopVaultUniswapV3.sol:DLoopVaultUniswapV3",
        "label": "_balances",
        "offset": 0,
        "slot": "0",
        "type": "t_mapping(t_address,t_uint256)"
      },
      {
        "astId": 483,
        "contract": "contracts/vault/DLoopVaultUniswapV3.sol:DLoopVaultUniswapV3",
        "label": "_allowances",
        "offset": 0,
        "slot": "1",
        "type": "t_mapping(t_address,t_mapping(t_address,t_uint256))"
      },
      {
        "astId": 485,
        "contract": "contracts/vault/DLoopVaultUniswapV3.sol:DLoopVaultUniswapV3",
        "label": "_totalSupply",
        "offset": 0,
        "slot": "2",
        "type": "t_uint256"
      },
      {
        "astId": 487,
        "contract": "contracts/vault/DLoopVaultUniswapV3.sol:DLoopVaultUniswapV3",
        "label": "_name",
        "offset": 0,
        "slot": "3",
        "type": "t_string_storage"
      },
      {
        "astId": 489,
        "contract": "contracts/vault/DLoopVaultUniswapV3.sol:DLoopVaultUniswapV3",
        "label": "_symbol",
        "offset": 0,
        "slot": "4",
        "type": "t_string_storage"
      },
      {
        "astId": 8,
        "contract": "contracts/vault/DLoopVaultUniswapV3.sol:DLoopVaultUniswapV3",
        "label": "_owner",
        "offset": 0,
        "slot": "5",
        "type": "t_address"
      },
      {
        "astId": 5376,
        "contract": "contracts/vault/DLoopVaultUniswapV3.sol:DLoopVaultUniswapV3",
        "label": "_defaultSwapSlippageTolerance",
        "offset": 0,
        "slot": "6",
        "type": "t_uint256"
      },
      {
        "astId": 5390,
        "contract": "contracts/vault/DLoopVaultUniswapV3.sol:DLoopVaultUniswapV3",
        "label": "_defaultMaxSubsidyBps",
        "offset": 0,
        "slot": "7",
        "type": "t_uint256"
      },
      {
        "astId": 8381,
        "contract": "contracts/vault/DLoopVaultUniswapV3.sol:DLoopVaultUniswapV3",
        "label": "DEFAULT_DUSD_TO_UNDERLYING_SWAP_PATH",
        "offset": 0,
        "slot": "8",
        "type": "t_bytes_storage"
      },
      {
        "astId": 8383,
        "contract": "contracts/vault/DLoopVaultUniswapV3.sol:DLoopVaultUniswapV3",
        "label": "DEFAULT_UNDERLYING_TO_DUSD_SWAP_PATH",
        "offset": 0,
        "slot": "9",
        "type": "t_bytes_storage"
      }
    ],
    "types": {
      "t_address": {
        "encoding": "inplace",
        "label": "address",
        "numberOfBytes": "20"
      },
      "t_bytes_storage": {
        "encoding": "bytes",
        "label": "bytes",
        "numberOfBytes": "32"
      },
      "t_mapping(t_address,t_mapping(t_address,t_uint256))": {
        "encoding": "mapping",
        "key": "t_address",
        "label": "mapping(address => mapping(address => uint256))",
        "numberOfBytes": "32",
        "value": "t_mapping(t_address,t_uint256)"
      },
      "t_mapping(t_address,t_uint256)": {
        "encoding": "mapping",
        "key": "t_address",
        "label": "mapping(address => uint256)",
        "numberOfBytes": "32",
        "value": "t_uint256"
      },
      "t_string_storage": {
        "encoding": "bytes",
        "label": "string",
        "numberOfBytes": "32"
      },
      "t_uint256": {
        "encoding": "inplace",
        "label": "uint256",
        "numberOfBytes": "32"
      }
    }
  }
}