{
  "address": "0x5D34D05C4B790e1c5150B933B6E0DE8fc2b6a7Ee",
  "abi": [
    {
      "inputs": [
        {
          "internalType": "string",
          "name": "_name",
          "type": "string"
        },
        {
          "internalType": "string",
          "name": "_symbol",
          "type": "string"
        },
        {
          "internalType": "contract ERC20",
          "name": "_underlyingAsset",
          "type": "address"
        },
        {
          "internalType": "contract ERC20",
          "name": "_dusd",
          "type": "address"
        },
        {
          "internalType": "contract IERC3156FlashLender",
          "name": "_flashLender",
          "type": "address"
        },
        {
          "internalType": "contract ICurveRouterNgPoolsOnlyV1",
          "name": "_curveRouter",
          "type": "address"
        },
        {
          "components": [
            {
              "internalType": "address[11]",
              "name": "route",
              "type": "address[11]"
            },
            {
              "internalType": "uint256[4][5]",
              "name": "swapParams",
              "type": "uint256[4][5]"
            },
            {
              "internalType": "uint256",
              "name": "swapSlippageBufferBps",
              "type": "uint256"
            }
          ],
          "internalType": "struct DLoopVaultCurve.CurveSwapExtraParams",
          "name": "_defaultDUSDToUnderlyingSwapExtraParams",
          "type": "tuple"
        },
        {
          "components": [
            {
              "internalType": "address[11]",
              "name": "route",
              "type": "address[11]"
            },
            {
              "internalType": "uint256[4][5]",
              "name": "swapParams",
              "type": "uint256[4][5]"
            },
            {
              "internalType": "uint256",
              "name": "swapSlippageBufferBps",
              "type": "uint256"
            }
          ],
          "internalType": "struct DLoopVaultCurve.CurveSwapExtraParams",
          "name": "_defaultUnderlyingToDUSDSwapExtraParams",
          "type": "tuple"
        },
        {
          "internalType": "contract IPoolAddressesProvider",
          "name": "_lendingPoolAddressesProvider",
          "type": "address"
        },
        {
          "internalType": "uint32",
          "name": "_targetLeverageBps",
          "type": "uint32"
        },
        {
          "internalType": "uint256",
          "name": "_swapSlippageTolerance",
          "type": "uint256"
        },
        {
          "internalType": "uint256",
          "name": "_maxSubsidyBps",
          "type": "uint256"
        },
        {
          "internalType": "uint256",
          "name": "_maxSlippageSurplusSwapBps",
          "type": "uint256"
        }
      ],
      "stateMutability": "nonpayable",
      "type": "constructor"
    },
    {
      "inputs": [
        {
          "internalType": "address",
          "name": "target",
          "type": "address"
        }
      ],
      "name": "AddressEmptyCode",
      "type": "error"
    },
    {
      "inputs": [
        {
          "internalType": "address",
          "name": "account",
          "type": "address"
        }
      ],
      "name": "AddressInsufficientBalance",
      "type": "error"
    },
    {
      "inputs": [
        {
          "internalType": "uint256",
          "name": "assetPrice",
          "type": "uint256"
        },
        {
          "internalType": "uint256",
          "name": "minPrice",
          "type": "uint256"
        }
      ],
      "name": "BelowMinPrice",
      "type": "error"
    },
    {
      "inputs": [
        {
          "internalType": "uint256",
          "name": "totalCollateralBase",
          "type": "uint256"
        },
        {
          "internalType": "uint256",
          "name": "totalDebtBase",
          "type": "uint256"
        }
      ],
      "name": "CollateralLessThanDebt",
      "type": "error"
    },
    {
      "inputs": [
        {
          "internalType": "uint256",
          "name": "newLeverageBps",
          "type": "uint256"
        },
        {
          "internalType": "uint256",
          "name": "targetLeverageBps",
          "type": "uint256"
        },
        {
          "internalType": "uint256",
          "name": "currentLeverageBps",
          "type": "uint256"
        }
      ],
      "name": "DecreaseLeverageOutOfRange",
      "type": "error"
    },
    {
      "inputs": [
        {
          "internalType": "uint256",
          "name": "currentBalance",
          "type": "uint256"
        },
        {
          "internalType": "uint256",
          "name": "newTotalAssets",
          "type": "uint256"
        }
      ],
      "name": "DepositInsufficientToSupply",
      "type": "error"
    },
    {
      "inputs": [
        {
          "internalType": "address",
          "name": "spender",
          "type": "address"
        },
        {
          "internalType": "uint256",
          "name": "allowance",
          "type": "uint256"
        },
        {
          "internalType": "uint256",
          "name": "needed",
          "type": "uint256"
        }
      ],
      "name": "ERC20InsufficientAllowance",
      "type": "error"
    },
    {
      "inputs": [
        {
          "internalType": "address",
          "name": "sender",
          "type": "address"
        },
        {
          "internalType": "uint256",
          "name": "balance",
          "type": "uint256"
        },
        {
          "internalType": "uint256",
          "name": "needed",
          "type": "uint256"
        }
      ],
      "name": "ERC20InsufficientBalance",
      "type": "error"
    },
    {
      "inputs": [
        {
          "internalType": "address",
          "name": "approver",
          "type": "address"
        }
      ],
      "name": "ERC20InvalidApprover",
      "type": "error"
    },
    {
      "inputs": [
        {
          "internalType": "address",
          "name": "receiver",
          "type": "address"
        }
      ],
      "name": "ERC20InvalidReceiver",
      "type": "error"
    },
    {
      "inputs": [
        {
          "internalType": "address",
          "name": "sender",
          "type": "address"
        }
      ],
      "name": "ERC20InvalidSender",
      "type": "error"
    },
    {
      "inputs": [
        {
          "internalType": "address",
          "name": "spender",
          "type": "address"
        }
      ],
      "name": "ERC20InvalidSpender",
      "type": "error"
    },
    {
      "inputs": [
        {
          "internalType": "address",
          "name": "receiver",
          "type": "address"
        },
        {
          "internalType": "uint256",
          "name": "assets",
          "type": "uint256"
        },
        {
          "internalType": "uint256",
          "name": "max",
          "type": "uint256"
        }
      ],
      "name": "ERC4626ExceededMaxDeposit",
      "type": "error"
    },
    {
      "inputs": [
        {
          "internalType": "address",
          "name": "receiver",
          "type": "address"
        },
        {
          "internalType": "uint256",
          "name": "shares",
          "type": "uint256"
        },
        {
          "internalType": "uint256",
          "name": "max",
          "type": "uint256"
        }
      ],
      "name": "ERC4626ExceededMaxMint",
      "type": "error"
    },
    {
      "inputs": [
        {
          "internalType": "address",
          "name": "owner",
          "type": "address"
        },
        {
          "internalType": "uint256",
          "name": "shares",
          "type": "uint256"
        },
        {
          "internalType": "uint256",
          "name": "max",
          "type": "uint256"
        }
      ],
      "name": "ERC4626ExceededMaxRedeem",
      "type": "error"
    },
    {
      "inputs": [
        {
          "internalType": "address",
          "name": "owner",
          "type": "address"
        },
        {
          "internalType": "uint256",
          "name": "assets",
          "type": "uint256"
        },
        {
          "internalType": "uint256",
          "name": "max",
          "type": "uint256"
        }
      ],
      "name": "ERC4626ExceededMaxWithdraw",
      "type": "error"
    },
    {
      "inputs": [
        {
          "internalType": "uint256",
          "name": "assetPrice",
          "type": "uint256"
        },
        {
          "internalType": "uint256",
          "name": "maxPrice",
          "type": "uint256"
        }
      ],
      "name": "ExceedMaxPrice",
      "type": "error"
    },
    {
      "inputs": [],
      "name": "FailedInnerCall",
      "type": "error"
    },
    {
      "inputs": [
        {
          "internalType": "uint256",
          "name": "newLeverageBps",
          "type": "uint256"
        },
        {
          "internalType": "uint256",
          "name": "targetLeverageBps",
          "type": "uint256"
        },
        {
          "internalType": "uint256",
          "name": "currentLeverageBps",
          "type": "uint256"
        }
      ],
      "name": "IncreaseLeverageOutOfRange",
      "type": "error"
    },
    {
      "inputs": [
        {
          "internalType": "uint256",
          "name": "amountIn",
          "type": "uint256"
        },
        {
          "internalType": "uint256",
          "name": "maxAmountIn",
          "type": "uint256"
        }
      ],
      "name": "InputAmountExceedsMaximum",
      "type": "error"
    },
    {
      "inputs": [
        {
          "internalType": "address",
          "name": "token",
          "type": "address"
        },
        {
          "internalType": "uint256",
          "name": "estimatedInputAmount",
          "type": "uint256"
        },
        {
          "internalType": "uint256",
          "name": "currentBalance",
          "type": "uint256"
        }
      ],
      "name": "InsufficientInputAmount",
      "type": "error"
    },
    {
      "inputs": [
        {
          "internalType": "address",
          "name": "owner",
          "type": "address"
        },
        {
          "internalType": "uint256",
          "name": "sharesToRedeem",
          "type": "uint256"
        },
        {
          "internalType": "uint256",
          "name": "shareBalance",
          "type": "uint256"
        }
      ],
      "name": "InsufficientShareBalanceToRedeem",
      "type": "error"
    },
    {
      "inputs": [
        {
          "internalType": "address",
          "name": "inputToken",
          "type": "address"
        },
        {
          "internalType": "address",
          "name": "outputToken",
          "type": "address"
        }
      ],
      "name": "InvalidInputOutputTokens",
      "type": "error"
    },
    {
      "inputs": [
        {
          "internalType": "address",
          "name": "token",
          "type": "address"
        },
        {
          "internalType": "uint256",
          "name": "maxWithdrawUnderlyingBeforeRepay",
          "type": "uint256"
        },
        {
          "internalType": "uint256",
          "name": "maxWithdrawUnderlyingAfterRepay",
          "type": "uint256"
        }
      ],
      "name": "InvalidMaxWithdrawAfterRepay",
      "type": "error"
    },
    {
      "inputs": [
        {
          "internalType": "uint256",
          "name": "totalAssets",
          "type": "uint256"
        },
        {
          "internalType": "uint256",
          "name": "totalSupply",
          "type": "uint256"
        }
      ],
      "name": "InvalidTotalSupplyAndAssets",
      "type": "error"
    },
    {
      "inputs": [],
      "name": "MathOverflowedMulDiv",
      "type": "error"
    },
    {
      "inputs": [
        {
          "internalType": "address",
          "name": "owner",
          "type": "address"
        }
      ],
      "name": "OwnableInvalidOwner",
      "type": "error"
    },
    {
      "inputs": [
        {
          "internalType": "address",
          "name": "account",
          "type": "address"
        }
      ],
      "name": "OwnableUnauthorizedAccount",
      "type": "error"
    },
    {
      "inputs": [
        {
          "internalType": "uint256",
          "name": "assets",
          "type": "uint256"
        },
        {
          "internalType": "uint256",
          "name": "minAssets",
          "type": "uint256"
        }
      ],
      "name": "RemainingAssetsBelowMinimum",
      "type": "error"
    },
    {
      "inputs": [
        {
          "internalType": "address",
          "name": "token",
          "type": "address"
        }
      ],
      "name": "SafeERC20FailedOperation",
      "type": "error"
    },
    {
      "inputs": [
        {
          "internalType": "uint256",
          "name": "currentLeverageBps",
          "type": "uint256"
        },
        {
          "internalType": "uint256",
          "name": "lowerBoundTargetLeverageBps",
          "type": "uint256"
        },
        {
          "internalType": "uint256",
          "name": "upperBoundTargetLeverageBps",
          "type": "uint256"
        }
      ],
      "name": "TooImbalanced",
      "type": "error"
    },
    {
      "inputs": [
        {
          "internalType": "uint256",
          "name": "principalBefore",
          "type": "uint256"
        },
        {
          "internalType": "uint256",
          "name": "principalAfter",
          "type": "uint256"
        }
      ],
      "name": "UnexpectedLossOfPrincipal",
      "type": "error"
    },
    {
      "inputs": [],
      "name": "UnknownInitiator",
      "type": "error"
    },
    {
      "inputs": [],
      "name": "UnknownLender",
      "type": "error"
    },
    {
      "inputs": [],
      "name": "UnknownToken",
      "type": "error"
    },
    {
      "inputs": [
        {
          "internalType": "address",
          "name": "token",
          "type": "address"
        },
        {
          "internalType": "uint256",
          "name": "assetToRemoveFromLending",
          "type": "uint256"
        },
        {
          "internalType": "uint256",
          "name": "withdrawableAmount",
          "type": "uint256"
        }
      ],
      "name": "WithdrawableIsLessThanRequired",
      "type": "error"
    },
    {
      "anonymous": false,
      "inputs": [
        {
          "indexed": true,
          "internalType": "address",
          "name": "owner",
          "type": "address"
        },
        {
          "indexed": true,
          "internalType": "address",
          "name": "spender",
          "type": "address"
        },
        {
          "indexed": false,
          "internalType": "uint256",
          "name": "value",
          "type": "uint256"
        }
      ],
      "name": "Approval",
      "type": "event"
    },
    {
      "anonymous": false,
      "inputs": [
        {
          "indexed": true,
          "internalType": "address",
          "name": "sender",
          "type": "address"
        },
        {
          "indexed": true,
          "internalType": "address",
          "name": "owner",
          "type": "address"
        },
        {
          "indexed": false,
          "internalType": "uint256",
          "name": "assets",
          "type": "uint256"
        },
        {
          "indexed": false,
          "internalType": "uint256",
          "name": "shares",
          "type": "uint256"
        }
      ],
      "name": "Deposit",
      "type": "event"
    },
    {
      "anonymous": false,
      "inputs": [
        {
          "indexed": true,
          "internalType": "address",
          "name": "previousOwner",
          "type": "address"
        },
        {
          "indexed": true,
          "internalType": "address",
          "name": "newOwner",
          "type": "address"
        }
      ],
      "name": "OwnershipTransferred",
      "type": "event"
    },
    {
      "anonymous": false,
      "inputs": [
        {
          "indexed": true,
          "internalType": "address",
          "name": "from",
          "type": "address"
        },
        {
          "indexed": true,
          "internalType": "address",
          "name": "to",
          "type": "address"
        },
        {
          "indexed": false,
          "internalType": "uint256",
          "name": "value",
          "type": "uint256"
        }
      ],
      "name": "Transfer",
      "type": "event"
    },
    {
      "anonymous": false,
      "inputs": [
        {
          "indexed": true,
          "internalType": "address",
          "name": "sender",
          "type": "address"
        },
        {
          "indexed": true,
          "internalType": "address",
          "name": "receiver",
          "type": "address"
        },
        {
          "indexed": true,
          "internalType": "address",
          "name": "owner",
          "type": "address"
        },
        {
          "indexed": false,
          "internalType": "uint256",
          "name": "assets",
          "type": "uint256"
        },
        {
          "indexed": false,
          "internalType": "uint256",
          "name": "shares",
          "type": "uint256"
        }
      ],
      "name": "Withdraw",
      "type": "event"
    },
    {
      "inputs": [],
      "name": "DEFAULT_DUSD_TO_UNDERLYING_SWAP_EXTRA_PARAMS",
      "outputs": [
        {
          "internalType": "uint256",
          "name": "swapSlippageBufferBps",
          "type": "uint256"
        }
      ],
      "stateMutability": "view",
      "type": "function"
    },
    {
      "inputs": [],
      "name": "DEFAULT_UNDERLYING_TO_DUSD_SWAP_EXTRA_PARAMS",
      "outputs": [
        {
          "internalType": "uint256",
          "name": "swapSlippageBufferBps",
          "type": "uint256"
        }
      ],
      "stateMutability": "view",
      "type": "function"
    },
    {
      "inputs": [],
      "name": "FLASHLOAN_CALLBACK",
      "outputs": [
        {
          "internalType": "bytes32",
          "name": "",
          "type": "bytes32"
        }
      ],
      "stateMutability": "view",
      "type": "function"
    },
    {
      "inputs": [],
      "name": "LOWER_BOUND_TARGET_LEVERAGE_BPS",
      "outputs": [
        {
          "internalType": "uint32",
          "name": "",
          "type": "uint32"
        }
      ],
      "stateMutability": "view",
      "type": "function"
    },
    {
      "inputs": [],
      "name": "SWAP_SLIPPAGE_TOLERANCE",
      "outputs": [
        {
          "internalType": "uint256",
          "name": "",
          "type": "uint256"
        }
      ],
      "stateMutability": "view",
      "type": "function"
    },
    {
      "inputs": [],
      "name": "TARGET_LEVERAGE_BPS",
      "outputs": [
        {
          "internalType": "uint32",
          "name": "",
          "type": "uint32"
        }
      ],
      "stateMutability": "view",
      "type": "function"
    },
    {
      "inputs": [],
      "name": "UPPER_BOUND_TARGET_LEVERAGE_BPS",
      "outputs": [
        {
          "internalType": "uint32",
          "name": "",
          "type": "uint32"
        }
      ],
      "stateMutability": "view",
      "type": "function"
    },
    {
      "inputs": [],
      "name": "VARIABLE_LENDING_INTERST_RATE_MODE",
      "outputs": [
        {
          "internalType": "uint256",
          "name": "",
          "type": "uint256"
        }
      ],
      "stateMutability": "view",
      "type": "function"
    },
    {
      "inputs": [
        {
          "internalType": "address",
          "name": "user",
          "type": "address"
        },
        {
          "internalType": "address",
          "name": "asset",
          "type": "address"
        }
      ],
      "name": "_getMaxWithdrawAmount",
      "outputs": [
        {
          "internalType": "uint256",
          "name": "",
          "type": "uint256"
        }
      ],
      "stateMutability": "view",
      "type": "function"
    },
    {
      "inputs": [
        {
          "components": [
            {
              "internalType": "uint256",
              "name": "depositAssetAmount",
              "type": "uint256"
            },
            {
              "internalType": "uint256",
              "name": "newTotalAssets",
              "type": "uint256"
            },
            {
              "internalType": "address",
              "name": "receiver",
              "type": "address"
            },
            {
              "internalType": "uint256",
              "name": "slippageTolerance",
              "type": "uint256"
            },
            {
              "internalType": "bytes",
              "name": "dusdToUnderlyingSwapData",
              "type": "bytes"
            },
            {
              "internalType": "uint256",
              "name": "breakPoint",
              "type": "uint256"
            }
          ],
          "internalType": "struct DLoopVaultBase.FlashLoanDepositParams",
          "name": "flashLoanParams",
          "type": "tuple"
        }
      ],
      "name": "_onFlashLoanDeposit",
      "outputs": [],
      "stateMutability": "nonpayable",
      "type": "function"
    },
    {
      "inputs": [
        {
          "components": [
            {
              "internalType": "uint256",
              "name": "assetsToRemoveFromLending",
              "type": "uint256"
            },
            {
              "internalType": "uint256",
              "name": "swapSlippageTolerance",
              "type": "uint256"
            },
            {
              "internalType": "bytes",
              "name": "underlyingToDUSDSwapData",
              "type": "bytes"
            }
          ],
          "internalType": "struct DLoopVaultBase.FlashLoanRedeemParams",
          "name": "flashLoanParams",
          "type": "tuple"
        }
      ],
      "name": "_onFlashLoanRedeem",
      "outputs": [],
      "stateMutability": "nonpayable",
      "type": "function"
    },
    {
      "inputs": [
        {
          "internalType": "address",
          "name": "owner",
          "type": "address"
        },
        {
          "internalType": "address",
          "name": "spender",
          "type": "address"
        }
      ],
      "name": "allowance",
      "outputs": [
        {
          "internalType": "uint256",
          "name": "",
          "type": "uint256"
        }
      ],
      "stateMutability": "view",
      "type": "function"
    },
    {
      "inputs": [
        {
          "internalType": "address",
          "name": "spender",
          "type": "address"
        },
        {
          "internalType": "uint256",
          "name": "value",
          "type": "uint256"
        }
      ],
      "name": "approve",
      "outputs": [
        {
          "internalType": "bool",
          "name": "",
          "type": "bool"
        }
      ],
      "stateMutability": "nonpayable",
      "type": "function"
    },
    {
      "inputs": [],
      "name": "asset",
      "outputs": [
        {
          "internalType": "address",
          "name": "",
          "type": "address"
        }
      ],
      "stateMutability": "view",
      "type": "function"
    },
    {
      "inputs": [
        {
          "internalType": "address",
          "name": "account",
          "type": "address"
        }
      ],
      "name": "balanceOf",
      "outputs": [
        {
          "internalType": "uint256",
          "name": "",
          "type": "uint256"
        }
      ],
      "stateMutability": "view",
      "type": "function"
    },
    {
      "inputs": [],
      "name": "checkIsTooImbalanced",
      "outputs": [],
      "stateMutability": "view",
      "type": "function"
    },
    {
      "inputs": [
        {
          "internalType": "uint256",
          "name": "shares",
          "type": "uint256"
        }
      ],
      "name": "convertToAssets",
      "outputs": [
        {
          "internalType": "uint256",
          "name": "",
          "type": "uint256"
        }
      ],
      "stateMutability": "view",
      "type": "function"
    },
    {
      "inputs": [
        {
          "internalType": "uint256",
          "name": "assets",
          "type": "uint256"
        }
      ],
      "name": "convertToShares",
      "outputs": [
        {
          "internalType": "uint256",
          "name": "",
          "type": "uint256"
        }
      ],
      "stateMutability": "view",
      "type": "function"
    },
    {
      "inputs": [],
      "name": "curveRouter",
      "outputs": [
        {
          "internalType": "contract ICurveRouterNgPoolsOnlyV1",
          "name": "",
          "type": "address"
        }
      ],
      "stateMutability": "view",
      "type": "function"
    },
    {
      "inputs": [],
      "name": "decimals",
      "outputs": [
        {
          "internalType": "uint8",
          "name": "",
          "type": "uint8"
        }
      ],
      "stateMutability": "view",
      "type": "function"
    },
    {
      "inputs": [
        {
          "internalType": "uint256",
          "name": "dusdAmount",
          "type": "uint256"
        },
        {
          "internalType": "uint256",
          "name": "maxPriceInBase",
          "type": "uint256"
        }
      ],
      "name": "decreaseLeverage",
      "outputs": [],
      "stateMutability": "nonpayable",
      "type": "function"
    },
    {
      "inputs": [
        {
          "internalType": "uint256",
          "name": "assets",
          "type": "uint256"
        },
        {
          "internalType": "address",
          "name": "receiver",
          "type": "address"
        }
      ],
      "name": "deposit",
      "outputs": [
        {
          "internalType": "uint256",
          "name": "shares",
          "type": "uint256"
        }
      ],
      "stateMutability": "nonpayable",
      "type": "function"
    },
    {
      "inputs": [
        {
          "internalType": "uint256",
          "name": "assets",
          "type": "uint256"
        },
        {
          "internalType": "address",
          "name": "receiver",
          "type": "address"
        },
        {
          "internalType": "uint256",
          "name": "breakPoint",
          "type": "uint256"
        }
      ],
      "name": "depositDebug",
      "outputs": [
        {
          "internalType": "uint256",
          "name": "shares",
          "type": "uint256"
        }
      ],
      "stateMutability": "nonpayable",
      "type": "function"
    },
    {
      "inputs": [
        {
          "internalType": "uint256",
          "name": "assets",
          "type": "uint256"
        },
        {
          "internalType": "address",
          "name": "receiver",
          "type": "address"
        },
        {
          "internalType": "uint256",
          "name": "slippageTolerance",
          "type": "uint256"
        },
        {
          "internalType": "bytes",
          "name": "dusdToUnderlyingSwapData",
          "type": "bytes"
        },
        {
          "internalType": "uint256",
          "name": "breakPoint",
          "type": "uint256"
        }
      ],
      "name": "depositWith",
      "outputs": [
        {
          "internalType": "uint256",
          "name": "shares",
          "type": "uint256"
        }
      ],
      "stateMutability": "nonpayable",
      "type": "function"
    },
    {
      "inputs": [],
      "name": "dusd",
      "outputs": [
        {
          "internalType": "contract ERC20",
          "name": "",
          "type": "address"
        }
      ],
      "stateMutability": "view",
      "type": "function"
    },
    {
      "inputs": [],
      "name": "flashLender",
      "outputs": [
        {
          "internalType": "contract IERC3156FlashLender",
          "name": "",
          "type": "address"
        }
      ],
      "stateMutability": "view",
      "type": "function"
    },
    {
      "inputs": [],
      "name": "getCurrentLeverageBps",
      "outputs": [
        {
          "internalType": "uint256",
          "name": "",
          "type": "uint256"
        }
      ],
      "stateMutability": "view",
      "type": "function"
    },
    {
      "inputs": [
        {
          "internalType": "address",
          "name": "tokenAddress",
          "type": "address"
        }
      ],
      "name": "getDTokenBalance",
      "outputs": [
        {
          "internalType": "uint256",
          "name": "",
          "type": "uint256"
        }
      ],
      "stateMutability": "view",
      "type": "function"
    },
    {
      "inputs": [],
      "name": "getDUSDAddress",
      "outputs": [
        {
          "internalType": "address",
          "name": "",
          "type": "address"
        }
      ],
      "stateMutability": "view",
      "type": "function"
    },
    {
      "inputs": [],
      "name": "getLendingPoolAddress",
      "outputs": [
        {
          "internalType": "address",
          "name": "",
          "type": "address"
        }
      ],
      "stateMutability": "view",
      "type": "function"
    },
    {
      "inputs": [],
      "name": "getOracleAddress",
      "outputs": [
        {
          "internalType": "address",
          "name": "",
          "type": "address"
        }
      ],
      "stateMutability": "view",
      "type": "function"
    },
    {
      "inputs": [],
      "name": "getUnderlyingAssetAddress",
      "outputs": [
        {
          "internalType": "address",
          "name": "",
          "type": "address"
        }
      ],
      "stateMutability": "view",
      "type": "function"
    },
    {
      "inputs": [
        {
          "internalType": "uint256",
          "name": "assetAmount",
          "type": "uint256"
        },
        {
          "internalType": "uint256",
          "name": "minPriceInBase",
          "type": "uint256"
        }
      ],
      "name": "increaseLeverage",
      "outputs": [],
      "stateMutability": "nonpayable",
      "type": "function"
    },
    {
      "inputs": [],
      "name": "lendingPoolAddressesProvider",
      "outputs": [
        {
          "internalType": "contract IPoolAddressesProvider",
          "name": "",
          "type": "address"
        }
      ],
      "stateMutability": "view",
      "type": "function"
    },
    {
      "inputs": [
        {
          "internalType": "address",
          "name": "",
          "type": "address"
        }
      ],
      "name": "maxDeposit",
      "outputs": [
        {
          "internalType": "uint256",
          "name": "",
          "type": "uint256"
        }
      ],
      "stateMutability": "view",
      "type": "function"
    },
    {
      "inputs": [
        {
          "internalType": "address",
          "name": "",
          "type": "address"
        }
      ],
      "name": "maxMint",
      "outputs": [
        {
          "internalType": "uint256",
          "name": "",
          "type": "uint256"
        }
      ],
      "stateMutability": "view",
      "type": "function"
    },
    {
      "inputs": [
        {
          "internalType": "address",
          "name": "owner",
          "type": "address"
        }
      ],
      "name": "maxRedeem",
      "outputs": [
        {
          "internalType": "uint256",
          "name": "",
          "type": "uint256"
        }
      ],
      "stateMutability": "view",
      "type": "function"
    },
    {
      "inputs": [],
      "name": "maxSubsidyBps",
      "outputs": [
        {
          "internalType": "uint256",
          "name": "",
          "type": "uint256"
        }
      ],
      "stateMutability": "view",
      "type": "function"
    },
    {
      "inputs": [
        {
          "internalType": "address",
          "name": "owner",
          "type": "address"
        }
      ],
      "name": "maxWithdraw",
      "outputs": [
        {
          "internalType": "uint256",
          "name": "",
          "type": "uint256"
        }
      ],
      "stateMutability": "view",
      "type": "function"
    },
    {
      "inputs": [
        {
          "internalType": "uint256",
          "name": "shares",
          "type": "uint256"
        },
        {
          "internalType": "address",
          "name": "receiver",
          "type": "address"
        }
      ],
      "name": "mint",
      "outputs": [
        {
          "internalType": "uint256",
          "name": "assets",
          "type": "uint256"
        }
      ],
      "stateMutability": "nonpayable",
      "type": "function"
    },
    {
      "inputs": [
        {
          "internalType": "uint256",
          "name": "shares",
          "type": "uint256"
        },
        {
          "internalType": "address",
          "name": "receiver",
          "type": "address"
        },
        {
          "internalType": "uint256",
          "name": "slippageTolerance",
          "type": "uint256"
        },
        {
          "internalType": "bytes",
          "name": "dusdToUnderlyingSwapData",
          "type": "bytes"
        }
      ],
      "name": "mintWith",
      "outputs": [
        {
          "internalType": "uint256",
          "name": "assets",
          "type": "uint256"
        }
      ],
      "stateMutability": "nonpayable",
      "type": "function"
    },
    {
      "inputs": [],
      "name": "name",
      "outputs": [
        {
          "internalType": "string",
          "name": "",
          "type": "string"
        }
      ],
      "stateMutability": "view",
      "type": "function"
    },
    {
      "inputs": [
        {
          "internalType": "address",
          "name": "initiator",
          "type": "address"
        },
        {
          "internalType": "address",
          "name": "token",
          "type": "address"
        },
        {
          "internalType": "uint256",
          "name": "",
          "type": "uint256"
        },
        {
          "internalType": "uint256",
          "name": "",
          "type": "uint256"
        },
        {
          "internalType": "bytes",
          "name": "data",
          "type": "bytes"
        }
      ],
      "name": "onFlashLoan",
      "outputs": [
        {
          "internalType": "bytes32",
          "name": "",
          "type": "bytes32"
        }
      ],
      "stateMutability": "nonpayable",
      "type": "function"
    },
    {
      "inputs": [],
      "name": "owner",
      "outputs": [
        {
          "internalType": "address",
          "name": "",
          "type": "address"
        }
      ],
      "stateMutability": "view",
      "type": "function"
    },
    {
      "inputs": [
        {
          "internalType": "uint256",
          "name": "assets",
          "type": "uint256"
        }
      ],
      "name": "previewDeposit",
      "outputs": [
        {
          "internalType": "uint256",
          "name": "",
          "type": "uint256"
        }
      ],
      "stateMutability": "view",
      "type": "function"
    },
    {
      "inputs": [
        {
          "internalType": "uint256",
          "name": "shares",
          "type": "uint256"
        }
      ],
      "name": "previewMint",
      "outputs": [
        {
          "internalType": "uint256",
          "name": "",
          "type": "uint256"
        }
      ],
      "stateMutability": "view",
      "type": "function"
    },
    {
      "inputs": [
        {
          "internalType": "uint256",
          "name": "shares",
          "type": "uint256"
        }
      ],
      "name": "previewRedeem",
      "outputs": [
        {
          "internalType": "uint256",
          "name": "",
          "type": "uint256"
        }
      ],
      "stateMutability": "view",
      "type": "function"
    },
    {
      "inputs": [
        {
          "internalType": "uint256",
          "name": "assets",
          "type": "uint256"
        }
      ],
      "name": "previewWithdraw",
      "outputs": [
        {
          "internalType": "uint256",
          "name": "",
          "type": "uint256"
        }
      ],
      "stateMutability": "view",
      "type": "function"
    },
    {
      "inputs": [
        {
          "internalType": "uint256",
          "name": "shares",
          "type": "uint256"
        },
        {
          "internalType": "address",
          "name": "receiver",
          "type": "address"
        },
        {
          "internalType": "address",
          "name": "owner",
          "type": "address"
        }
      ],
      "name": "redeem",
      "outputs": [
        {
          "internalType": "uint256",
          "name": "assets",
          "type": "uint256"
        }
      ],
      "stateMutability": "nonpayable",
      "type": "function"
    },
    {
      "inputs": [
        {
          "internalType": "uint256",
          "name": "shares",
          "type": "uint256"
        },
        {
          "internalType": "address",
          "name": "receiver",
          "type": "address"
        },
        {
          "internalType": "address",
          "name": "owner",
          "type": "address"
        },
        {
          "internalType": "uint256",
          "name": "swapSlippageTolerance",
          "type": "uint256"
        },
        {
          "internalType": "uint256",
          "name": "minReceiveAmount",
          "type": "uint256"
        },
        {
          "internalType": "bytes",
          "name": "underlyingToDUSDSwapData",
          "type": "bytes"
        }
      ],
      "name": "redeemWith",
      "outputs": [
        {
          "internalType": "uint256",
          "name": "assets",
          "type": "uint256"
        }
      ],
      "stateMutability": "nonpayable",
      "type": "function"
    },
    {
      "inputs": [],
      "name": "renounceOwnership",
      "outputs": [],
      "stateMutability": "nonpayable",
      "type": "function"
    },
    {
      "inputs": [
        {
          "internalType": "address",
          "name": "token",
          "type": "address"
        },
        {
          "internalType": "address",
          "name": "receiver",
          "type": "address"
        }
      ],
      "name": "rescueToken",
      "outputs": [],
      "stateMutability": "nonpayable",
      "type": "function"
    },
    {
      "inputs": [
        {
          "internalType": "uint256",
          "name": "_maxSubsidyBps",
          "type": "uint256"
        }
      ],
      "name": "setMaxSubsidyBps",
      "outputs": [],
      "stateMutability": "nonpayable",
      "type": "function"
    },
    {
      "inputs": [],
      "name": "symbol",
      "outputs": [
        {
          "internalType": "string",
          "name": "",
          "type": "string"
        }
      ],
      "stateMutability": "view",
      "type": "function"
    },
    {
      "inputs": [],
      "name": "totalAssets",
      "outputs": [
        {
          "internalType": "uint256",
          "name": "",
          "type": "uint256"
        }
      ],
      "stateMutability": "view",
      "type": "function"
    },
    {
      "inputs": [],
      "name": "totalSupply",
      "outputs": [
        {
          "internalType": "uint256",
          "name": "",
          "type": "uint256"
        }
      ],
      "stateMutability": "view",
      "type": "function"
    },
    {
      "inputs": [
        {
          "internalType": "address",
          "name": "to",
          "type": "address"
        },
        {
          "internalType": "uint256",
          "name": "value",
          "type": "uint256"
        }
      ],
      "name": "transfer",
      "outputs": [
        {
          "internalType": "bool",
          "name": "",
          "type": "bool"
        }
      ],
      "stateMutability": "nonpayable",
      "type": "function"
    },
    {
      "inputs": [
        {
          "internalType": "address",
          "name": "from",
          "type": "address"
        },
        {
          "internalType": "address",
          "name": "to",
          "type": "address"
        },
        {
          "internalType": "uint256",
          "name": "value",
          "type": "uint256"
        }
      ],
      "name": "transferFrom",
      "outputs": [
        {
          "internalType": "bool",
          "name": "",
          "type": "bool"
        }
      ],
      "stateMutability": "nonpayable",
      "type": "function"
    },
    {
      "inputs": [
        {
          "internalType": "address",
          "name": "newOwner",
          "type": "address"
        }
      ],
      "name": "transferOwnership",
      "outputs": [],
      "stateMutability": "nonpayable",
      "type": "function"
    },
    {
      "inputs": [],
      "name": "underlyingAsset",
      "outputs": [
        {
          "internalType": "contract ERC20",
          "name": "",
          "type": "address"
        }
      ],
      "stateMutability": "view",
      "type": "function"
    },
    {
      "inputs": [
        {
          "internalType": "uint256",
          "name": "assets",
          "type": "uint256"
        },
        {
          "internalType": "address",
          "name": "receiver",
          "type": "address"
        },
        {
          "internalType": "address",
          "name": "owner",
          "type": "address"
        }
      ],
      "name": "withdraw",
      "outputs": [
        {
          "internalType": "uint256",
          "name": "shares",
          "type": "uint256"
        }
      ],
      "stateMutability": "nonpayable",
      "type": "function"
    },
    {
      "inputs": [
        {
          "internalType": "uint256",
          "name": "assets",
          "type": "uint256"
        },
        {
          "internalType": "address",
          "name": "receiver",
          "type": "address"
        },
        {
          "internalType": "address",
          "name": "owner",
          "type": "address"
        },
        {
          "internalType": "uint256",
          "name": "swapSlippageTolerance",
          "type": "uint256"
        },
        {
          "internalType": "uint256",
          "name": "minReceiveAmount",
          "type": "uint256"
        },
        {
          "internalType": "bytes",
          "name": "underlyingToDUSDSwapData",
          "type": "bytes"
        }
      ],
      "name": "withdrawWith",
      "outputs": [
        {
          "internalType": "uint256",
          "name": "shares",
          "type": "uint256"
        }
      ],
      "stateMutability": "nonpayable",
      "type": "function"
    }
  ],
  "transactionHash": "0x45d9acb6554c398f4e3fb4879c88163bad96a7b81a20163a56d9a570504a2709",
  "args": [
    "dLOOP 3X FXS",
    "3XFXS",
    "0x98182ec55Be5091d653F9Df016fb1070add7a16E",
    "0x4D6E79013212F10A026A1FB0b926C9Fd0432b96c",
    "0x4D6E79013212F10A026A1FB0b926C9Fd0432b96c",
    "0xF66c3Ef85BceafaEcE9171E25Eee2972b10e1958",
    {
      "route": [
        "0x4D6E79013212F10A026A1FB0b926C9Fd0432b96c",
        "0x1BBB5CAf76868698F00056f48f77ba13cfc5fE8D",
        "0x98182ec55Be5091d653F9Df016fb1070add7a16E",
        "0x0000000000000000000000000000000000000000",
        "0x0000000000000000000000000000000000000000",
        "0x0000000000000000000000000000000000000000",
        "0x0000000000000000000000000000000000000000",
        "0x0000000000000000000000000000000000000000",
        "0x0000000000000000000000000000000000000000",
        "0x0000000000000000000000000000000000000000",
        "0x0000000000000000000000000000000000000000"
      ],
      "swapParams": [
        [
          0,
          1,
          1,
          2
        ],
        [
          0,
          0,
          0,
          0
        ],
        [
          0,
          0,
          0,
          0
        ],
        [
          0,
          0,
          0,
          0
        ],
        [
          0,
          0,
          0,
          0
        ]
      ],
      "swapSlippageBufferBps": 5000
    },
    {
      "route": [
        "0x98182ec55Be5091d653F9Df016fb1070add7a16E",
        "0x1BBB5CAf76868698F00056f48f77ba13cfc5fE8D",
        "0x4D6E79013212F10A026A1FB0b926C9Fd0432b96c",
        "0x0000000000000000000000000000000000000000",
        "0x0000000000000000000000000000000000000000",
        "0x0000000000000000000000000000000000000000",
        "0x0000000000000000000000000000000000000000",
        "0x0000000000000000000000000000000000000000",
        "0x0000000000000000000000000000000000000000",
        "0x0000000000000000000000000000000000000000",
        "0x0000000000000000000000000000000000000000"
      ],
      "swapParams": [
        [
          1,
          0,
          1,
          2
        ],
        [
          0,
          0,
          0,
          0
        ],
        [
          0,
          0,
          0,
          0
        ],
        [
          0,
          0,
          0,
          0
        ],
        [
          0,
          0,
          0,
          0
        ]
      ],
      "swapSlippageBufferBps": 5000
    },
    "0xC691F14942B37668C9904b701E3118A133611b3c",
    3000000,
    50000,
    20000,
    100000
  ],
  "numDeployments": 16,
  "solcInputHash": "64583b6883ce1d7ffdc6521b294ee83f",
  "bytecode": "0x6102008060405234620009225762006710803803809162000021828562000927565b8339810161096082820312620009225781516001600160401b0392908381116200092257826200005391830162000967565b9160208201518481116200092257816200006f91840162000967565b916200007e60408201620009d1565b926200008d60608301620009d1565b6080830151906001600160a01b0382168203620009225760a0840151976001600160a01b03891689036200092257620000da620000ce8760c08801620009e6565b966104c08701620009e6565b6108c08601519097906001600160a01b038116810362000922576108e08701519463ffffffff8616938487036200092257610900890151976109406109208b01519a01519c8051908382116200085757600391825491600183811c9316801562000917575b602084101462000836578190601f93848111620008e3575b5060209084831160011462000879576000926200086d575b50508160011b9160001990851b1c19161782555b8251938411620008575760045492600184811c941680156200084c575b602085101462000836578382869511620007f6575b50602091841160011462000768576000936200075c575b50508260011b92600019911b1c1916176004555b6001600160a01b038316620001f58162000b4b565b901562000753575b60a05260805233156200073a5760058054336001600160a01b031982168117909255620f42409691906001600160a01b03167f8be0079c531659141344cd1fd0a4f28419497f9722a3daafe3b4186f6b6457e0600080a36101a05261014052610160526101805210620006cf578060c052637fffffff8160011c1660e0526401fffffffe8160011b1663fffffffe8260011b1603620006b95760011b63fffffffe1661010052610120526006556101c09384526101e0928352805160005b600b81106200069a57505060208101516012906000905b60058210620006615750505060400151602655805160005b600b81106200064257505060208101516032906000905b6005821062000609575050506040015160465560405190615afe928362000c1284396080518361154b015260a0518361158f015260c051838181610eea0152818161128601528181611c0901528181612b1101528181612e80015281816137b301528181613dba0152614d84015260e0518381816114200152818161284a01526128a1015261010051838181610c4f0152818161287101526128d5015261012051838181610864015281816108bf01528181610a2001528181610c0c01528181610cb8015261139a015261014051838181610a590152818161177301528181612c1201528181612f7e0152818161382501528181613967015281816139c501528181613a8f01528181613e2c01528181613f1a0152613ffc01526101605183818161080101528181614e1b0152614ea6015261018051838181610d78015281816112de01528181611aae01528181612ae101528181612e50015281816132650152818161337b015281816133ee0152818161344e015281816134d101528181613536015281816138e101528181613b1a01528181613b6d01528181613e9401528181614087015281816140e2015281816142c60152818161430d0152818161442a01528181614556015281816145c401528181614679015281816146de0152818161479a0152818161482701528181614896015281816149a3015281816149eb01528181615092015281816157e6015261590001526101a05183818161064b01528181610dd4015281816117a701528181611b8c01528181612be601528181612f52015281816132c0015281816133240152818161340f0152818161358f015281816137f101528181613932015281816139fc01528181613a5701528181613df801528181613ee501528181613f6901528181613fc40152818161436d015281816143cd015281816144a4015281816145090152818161461c0152818161473601528181614806015281816154a701526156f201525182818161075a01528181615226015281816152d001528181615350015281816154700152615507015251816154170152f35b805160005b600481106200062d575050600460206001920193019101909162000301565b6001906020835193019281870155016200060e565b81516001600160a01b03166027820155602090910190600101620002ea565b805160005b60048110620006855750506004602060019201930191019091620002d2565b60019060208351930192818701550162000666565b81516001600160a01b03166007820155602090910190600101620002bb565b634e487b7160e01b600052601160045260246000fd5b60405162461bcd60e51b815260206004820152603560248201527f546172676574206c65766572616765206d757374206265206174206c6561737460448201527f203130302520696e20626173697320706f696e747300000000000000000000006064820152608490fd5b604051631e4fbdf760e01b815260006004820152602490fd5b506012620001fd565b015191503880620001cc565b600460009081527f8a35acfbc15ff81a39ae7d344fd709f28e8600b4aa8c65c6b64bfe7fe36bd19b9450601f198616905b818110620007dd575090856001969594939210620007c2575b50505050811b01600455620001e0565b01519060f884600019921b161c1916905538808080620007b2565b9294602060018192888601518155019601930162000799565b6200082590600460005260206000208480880160051c820192602089106200082c575b0160051c019062000b32565b38620001b5565b9250819262000819565b634e487b7160e01b600052602260045260246000fd5b93607f1693620001a0565b634e487b7160e01b600052604160045260246000fd5b0151905038806200016f565b6000868152602081209350601f198516905b818110620008ca5750908460019594939210620008b1575b505050811b01825562000183565b015160001983871b60f8161c19169055388080620008a3565b929360206001819287860151815501950193016200088b565b62000910908660005260206000208680860160051c820192602087106200082c570160051c019062000b32565b3862000157565b92607f16926200013f565b600080fd5b601f909101601f19168101906001600160401b038211908210176200085757604052565b6001600160401b0381116200085757601f01601f191660200190565b919080601f84011215620009225782519062000983826200094b565b9162000993604051938462000927565b808352602091828287010111620009225760005b818110620009bd57508260009394955001015290565b8581018301518482018401528201620009a7565b51906001600160a01b03821682036200092257565b9190610400838203126200092257604080519160608301906001600160401b038083118584101762000857578496601f9183838301121562000922576101c08701858110828211176200085757865284610160830195858711620009225783905b87821062000b1057505087528361017f83011215620009225785519360a0850185811083821117620008575787526103e0859301958187116200092257925b86841062000a9e575050505050602084015251910152565b8185850112156200092257875160808082018281108682111762000afb578a5281908601848111620009225786915b81831062000aea5750505081602091608093520193019262000a86565b825181526020928301920162000acd565b60246000634e487b7160e01b81526041600452fd5b81516001600160a01b0381168103620009225781526020918201910162000a47565b81811062000b3e575050565b6000815560010162000b32565b6040805163313ce56760e01b60208201908152600482529293929181016001600160401b0381118282101762000857576040525160009384928392916001600160a01b03165afa3d1562000c08573d9062000ba6826200094b565b9162000bb6604051938462000927565b82523d84602084013e5b8062000bfb575b62000bd2575b508190565b60208180518101031262000bf7576020015160ff811162000bcd576001925060ff1690565b8280fd5b5060208151101562000bc7565b60609062000bc056fe608060405260048036101561001357600080fd5b6000803560e01c806301e1d114146120dc57806306fdde031461201557806307a2d13a146113fe578063095ea7b314611f635780630a28a47714611f455780630f90e61814611f2c57806318160ddd14611f0e5780631dc8d81814611a865780631e3eaccc146106355780631e4ea8d3146119e157806323b872dd146119a857806323e30c8b1461170657806328e7b3f2146116825780632ae18104146116595780632ec1ea3b146115d6578063313ce5671461157a57806338d52e0f14611535578063402d267d146107e6578063415c50691461151a5780634707d0001461146e57806348eb8a4a14611444578063497a4237146114035780634cdad506146113fe5780635b3f0549146113e25780635f36a742146113bf5780636e553f651461135957806370a08231146106c9578063715018a61461130d5780637158da7c146112c857806374614f76146112aa57806375ba52c914611269578063776efe4714610d515780637c17e7bc14610d2457806385bf8b7714610d065780638da5cb5b14610cdd578063924f091a14610c73578063946f754714610c3257806394bf804d14610bcc57806395d89b4114610ad4578063991404a414610aaa578063a0a9452614610a88578063a771445814610a43578063a8f8f4eb14610a08578063a9059cbb146109d6578063b05e077d1461097d578063b18b78dd14610951578063b3d7f6b9146108e4578063b460af941461088a578063ba08765214610830578063bba00ba5146107eb578063c63d75b6146107e6578063c6e6f59214610612578063c8a4baf614610789578063cda90b8814610744578063ce96cb771461070b578063d905777e146106c9578063dd62ed3e1461067a578063de1409ce14610635578063ebfd00ac14610617578063ef8b30f714610612578063f2fde38b146105955763f6d48ae2146102c857600080fd5b346105925760209081600319360112610592576102e361215d565b92604051936102f185612219565b6040516102fd81612235565b838152855282848601528260408601528260608601528260808601528260a08601528260c08601528260e08601526101008381870152610120848188015261014092858489015261016097868982015261018087818301526101a0908882840152886101c08094015260018060a01b039a8b9788610379614e88565b166040519d8e976335ea6a7560e01b8952168b8801528660246101e09889935afa968715610587578b97610428575b5050505050505085965094929394015116916024604051809481936370a0823160e01b835230908301525afa91821561041c57916103ea575b50604051908152f35b90508181813d8311610415575b61040181836122a2565b810103126104105751386103e1565b600080fd5b503d6103f7565b604051903d90823e3d90fd5b90919293949596508c873d8911610580575b61044481836122a2565b81010396871261057c578b6040519761045c89612219565b1261057c576104c260a08e8e60405161047481612235565b825181528b52610485818301614edc565b908b015261049560408201614edc565b60408b01526104a660608201614edc565b60608b01526104b760808201614edc565b60808b015201614edc565b60a088015260c08d015164ffffffffff811681036105785760c088015260e08d015161ffff81168103610578579261056495928795928e9f959d9e9c9d60e08b015261050f8b8701614de9565b8b8b015261051e818701614de9565b908a015261052d818601614de9565b9089015261053c818501614de9565b9088015261054b818401614edc565b9087015261055a818301614edc565b9086015201614edc565b90820152388080808080809b9a999b6103a8565b8b80fd5b8a80fd5b503d61043a565b6040513d8d823e3d90fd5b80fd5b50903461060e57602036600319011261060e576105b061215d565b6105b86123fd565b6001600160a01b039081169182156105f65750600580546001600160a01b03198116841790915516600080516020615a09833981519152600080a380f35b604051631e4fbdf760e01b8152908101849052602490fd5b5080fd5b6123df565b50346105925780600319360112610592576020604654604051908152f35b50346105925780600319360112610592576040517f00000000000000000000000000000000000000000000000000000000000000006001600160a01b03168152602090f35b50346105925760403660031901126105925761069461215d565b604061069e612173565b9260018060a01b03809316815260016020522091166000526020526020604060002054604051908152f35b50346105925760203660031901126105925760206107036106e861215d565b6001600160a01b031660009081526020819052604090205490565b604051908152f35b503461059257602036600319011261059257602090610703906040906001600160a01b0361073761215d565b168152808452205461270a565b50346105925780600319360112610592576040517f00000000000000000000000000000000000000000000000000000000000000006001600160a01b03168152602090f35b50903461060e5760a036600319011261060e578035906107a7612173565b92606435906001600160401b0382116105925750926107ce610703926020953691016122e0565b6107d784614ffc565b93608435928560443592612e35565b612327565b50346105925780600319360112610592576040517f00000000000000000000000000000000000000000000000000000000000000006001600160a01b03168152602090f35b5034610592576020906103e1610845366123aa565b604094929194519261085684612235565b83526108618261270a565b947f00000000000000000000000000000000000000000000000000000000000000009286613785565b5034610592576020906103e161089f366123aa565b60409492919451926108b084612235565b83526108bb82614ffc565b94857f000000000000000000000000000000000000000000000000000000000000000093613785565b503461059257602036600319011261059257506108ff615033565b6001810180911161093c57600254906001820180921161092757906107039160209335612735565b601183634e487b7160e01b6000525260246000fd5b601182634e487b7160e01b6000525260246000fd5b503461059257806003193601126105925760206001600160a01b03610974614dfd565b16604051908152f35b50346105925760803660031901126105925781359161099a612173565b91606435906001600160401b0382116105925750926109c1610703926020953691016122e0565b906109cb8161270a565b936044359185612ac6565b5034610592576040366003190112610592576109fd6109f361215d565b6024359033612429565b602060405160018152f35b503461059257806003193601126105925760206040517f00000000000000000000000000000000000000000000000000000000000000008152f35b50346105925780600319360112610592576040517f00000000000000000000000000000000000000000000000000000000000000006001600160a01b03168152602090f35b50903461060e57602036600319011261060e57610aa36123fd565b3560065580f35b50346105925760206103e1610abe3661234d565b93610acd869796949294614ffc565b8097613d8c565b50346105925780600319360112610592576040519080835491600183811c92818516948515610bc2575b6020958686108114610baf579086889992878a98999a529182600014610b8b575050600114610b4f575b505050610b37925003836122a2565b610b4b60405192828493845283019061211a565b0390f35b869350819291528282205b858310610b73575050610b379350820101388080610b28565b80548389018501528794508693909201918101610b5a565b935094505050610b3794915060ff191682840152151560051b820101388080610b28565b634e487b7160e01b835260228952602483fd5b93607f1693610afe565b50903461060e57604036600319011261060e57906107036020923591610bf0612173565b92610bfa8161270a565b9360405192610c0884612235565b83527f00000000000000000000000000000000000000000000000000000000000000009185612ac6565b5034610592578060031936011261059257602060405163ffffffff7f0000000000000000000000000000000000000000000000000000000000000000168152f35b50903461060e57606036600319011261060e57906107036020923591610c97612173565b9060405190610ca582612235565b8152610cb084614ffc565b9360443592857f000000000000000000000000000000000000000000000000000000000000000092612e35565b50346105925780600319360112610592576005546040516001600160a01b039091168152602090f35b50346105925780600319360112610592576020600654604051908152f35b5034610592576040366003190112610592576020610703610d4361215d565b610d4b612173565b90614b4a565b50903461060e57610d6136612189565b6001600160a01b039182610d73614dfd565b1690837f000000000000000000000000000000000000000000000000000000000000000016946040519263b3596f0760e01b9081855287838601526020958686602481855afa95861561125e578a9661122f575b50808611611212575085877f00000000000000000000000000000000000000000000000000000000000000001692602460405180948193825286888301525afa80156112075789906111d8575b610e1f915084612a82565b60405163313ce56760e01b808252929187828681865afa91821561058757610e5892610e52918d916111c1575b506126f9565b90612775565b93602460c089610e66614e88565b1660405192838092632fe4a15f60e21b8252308a8301525afa958615610587578b918c9761117f575b5090610e52610ee092610edb620f4240610eb8610eb2610ead614d7a565b6124fe565b84612a82565b0499610ed68b610ed0610ecb82896131e1565b612a6a565b966131e1565b6131e1565b612525565b610ee8614ef0565b7f000000000000000000000000000000000000000000000000000000000000000063ffffffff811683108015611175575b61115357505050610f2c8130338561319f565b610f5887828c8b610f3b614e88565b60405163095ea7b360e01b815295869485938493168c84016128fd565b0391875af1908115610587578b91611126575b50156110d757868a9695949392610fa5928a610f85614e88565b16908960405180968195829463573ade8160e01b845230918c8501614264565b03925af19081156110cc57879161109d575b5050604051908152858183818b5afa93841561106557610fef61101d94610fe98997610ff4958a9161107057506126f9565b90612a82565b612775565b95610ffd614e88565b1690604051948580948193631a4ca37b60e21b83528a8c3092850161428e565b03925af180156110655761103c575b5050611039913390612918565b80f35b813d831161105e575b61104f81836122a2565b8101031261041057388061102c565b503d611045565b6040513d87823e3d90fd5b6110909150893d8b11611096575b61108881836122a2565b8101906131ee565b38610e4c565b503d61107e565b90809296503d83116110c5575b6110b481836122a2565b810103126104105787938538610fb7565b503d6110aa565b6040513d88823e3d90fd5b60405162461bcd60e51b815280850188905260346024820152600080516020615a29833981519152604482015273696e206465637265617365206c6576657261676560601b6064820152608490fd5b6111469150883d8a1161114c575b61113e81836122a2565b810190612954565b38610f6b565b503d611134565b604051636a3f633560e11b8152928392611171929091848a01614d5e565b0390fd5b5081831015610f19565b610e52919750610ee092506111aa9060c03d81116111ba575b6111a281836122a2565b810190614b1c565b5050505091909197919250610e8f565b503d611198565b61109091508a3d8c116110965761108881836122a2565b508581813d8311611200575b6111ee81836122a2565b8101031261041057610e1f9051610e14565b503d6111e4565b6040513d8b823e3d90fd5b836044918760405192631ecf7b4160e01b84528301526024820152fd5b9095508681813d8311611257575b61124781836122a2565b8101031261041057519438610dc7565b503d61123d565b6040513d8c823e3d90fd5b5034610592578060031936011261059257602060405163ffffffff7f0000000000000000000000000000000000000000000000000000000000000000168152f35b50346105925780600319360112610592576020602654604051908152f35b50346105925780600319360112610592576040517f00000000000000000000000000000000000000000000000000000000000000006001600160a01b03168152602090f35b50346105925780600319360112610592576113266123fd565b600580546001600160a01b031981169091556000906001600160a01b0316600080516020615a098339815191528280a380f35b50903461060e57604036600319011261060e5790610703602092359161137d612173565b926040519161138b83612235565b825261139681614ffc565b93847f000000000000000000000000000000000000000000000000000000000000000092612ac6565b503461059257806003193601126105925760206001600160a01b03610974614e88565b5034610592578060031936011261059257602060405160028152f35b61213f565b5034610592578060031936011261059257602060405163ffffffff7f0000000000000000000000000000000000000000000000000000000000000000168152f35b50346105925760206103e16114583661234d565b9361146786979694929461270a565b9687613d8c565b50903461060e57604036600319011261060e5761148961215d565b611491612173565b9061149a6123fd565b6040516370a0823160e01b815230938101939093526001600160a01b031690602083602481855afa91821561150f5784926114da575b6110399350612918565b91506020833d8211611507575b816114f4602093836122a2565b81010312610410576110399251916114d0565b3d91506114e7565b6040513d86823e3d90fd5b50346105925780600319360112610592576020610703614ef0565b50346105925780600319360112610592576040517f00000000000000000000000000000000000000000000000000000000000000006001600160a01b03168152602090f35b503461059257806003193601126105925760ff7f0000000000000000000000000000000000000000000000000000000000000000169160ff83116115c357602083604051908152f35b634e487b7160e01b825260119052602490fd5b50903461060e57600319602036820112611655578135906001600160401b039081831161164d5760609083360301126116515760405191611616836121fe565b80840135835260248101356020840152604481013591821161164d576110399361164392369201016122e0565b60408201526142b1565b8480fd5b8380fd5b8280fd5b50346105925780600319360112610592576020604051600080516020615a898339815191528152f35b5034610592578060031936011261059257602060405180936338d52e0f60e01b825281305afa90811561041c5780916116ca575b6040516001600160a01b0383168152602090f35b90506020823d82116116fe575b816116e4602093836122a2565b8101031261059257506116f8602091614de9565b386116b6565b3d91506116d7565b50903461060e5760a036600319011261060e5761172161215d565b9061172a612173565b608435906001600160401b03821161164d573660238301121561164d57828201356001600160401b0381116119a4578201926024840191368311611970576001600160a01b03957f0000000000000000000000000000000000000000000000000000000000000000871633036119935786309116036119835785807f0000000000000000000000000000000000000000000000000000000000000000169116036119745750604051906117dc826121e3565b858252602082019260408160609687875203126119705760248101359182151580930361196c576044820135906001600160401b03821161196857602461182692859401016122e0565b8085529252156118f25750519060405192611840846121c8565b84845284602085015260408401858152828501868152608086019084825260a0870195888752805181019260c0828503126118ee5760208201519760408301519783015196871680970361057c57608083015160a08401519b9095906001600160401b038d1161059257506118c26118d69c60208060c0940191870101614d1c565b930151905252525260208301528152613231565b6020604051600080516020615a898339815191528152f35b8980fd5b939192505060405191611904836121fe565b818352602083018281526040840182815285518601938387860312610592576020870151604088015194880151909590916001600160401b038311610592575096602061195992816119639a01920101614d1c565b90525281526142b1565b6118d6565b8880fd5b8780fd5b8680fd5b604051638698bf3760e01b8152fd5b50604051634ac321c360e11b8152fd5b604051631e4a393d60e31b81528390fd5b8580fd5b5034610592576060366003190112610592576109fd6119c561215d565b6119cd612173565b604435916119dc833383612638565b612429565b50903461060e57600319602036820112611655578135906001600160401b039081831161164d5760c09083360301126116515760405191611a21836121c8565b8381013583526024810135602084015260448101356001600160a01b038116810361041057604084015260648101356060840152608481013591821161164d57611a7560a4926110399536918401016122e0565b6080840152013560a0820152613231565b50903461060e57611a9636612189565b916001600160a01b039182611aa9614dfd565b1693837f0000000000000000000000000000000000000000000000000000000000000000169160405163b3596f0760e01b9283825284868301526020826024818b5afa918215611207578992611eda575b50808210611ebc5750611b0d9082612a82565b60405163313ce56760e01b8152906020828781885afa91821561120757611b3e92610e52918b91611d8b57506126f9565b92602460c087611b4c614e88565b1660405192838092632fe4a15f60e21b8252308b8301525afa80156112075789918a91611e98575b50611b7d614d7a565b6040519586526020866024818c7f0000000000000000000000000000000000000000000000000000000000000000169d8e8d8301525afa958615610587578b96611e5c575b50610ed696610ed6611bff9493620f4240611be8611be2610e52966124fe565b85612a82565b049983611bf9610ecb8d9689612525565b96612525565b611c07614ef0565b7f000000000000000000000000000000000000000000000000000000000000000063ffffffff811683118015611e52575b611e3457505050611c4b8230338461319f565b611c7560208388611c5a614e88565b16604051938492839263095ea7b360e01b84528b84016128fd565b03818c865af1908115611207578991611e15575b5015611dc657879086611c9a614e88565b16803b1561165557611cc4938360405180968195829463617ba03760e01b845230918d8501613207565b03925af18015611dbb57611da4575b5060405163313ce56760e01b815286939290919060208385818a5afa90811561106557610fe9610fef92611d0d958891611d8b57506126f9565b92611d16614e88565b1690813b15611655578460a4849283604051958694859363a415bcad60e01b8552840152886024840152600260448401528160648401523060848401525af18015611d8057611d6c575050611039913390612918565b611d759061219f565b61165557823861102c565b6040513d84823e3d90fd5b611090915060203d6020116110965761108881836122a2565b611db290969193929661219f565b94909138611cd3565b6040513d89823e3d90fd5b60405162461bcd60e51b815260208187015260346024820152600080516020615a29833981519152604482015273696e20696e637265617365206c6576657261676560601b6064820152608490fd5b611e2e915060203d60201161114c5761113e81836122a2565b38611c89565b604051630262805f60e11b8152928392611171929091848b01614d5e565b5081831115611c38565b92919095506020833d602011611e90575b81611e7a602093836122a2565b8101031261057c57915194909190610ed6611bc2565b3d9150611e6d565b9050611eb2915060c03d81116111ba576111a281836122a2565b5050505038611b74565b604051636f3acc2360e11b8152808701929092526024820152604490fd5b9091506020813d602011611f06575b81611ef6602093836122a2565b8101031261196857519038611afa565b3d9150611ee9565b50346105925780600319360112610592576020600254604051908152f35b5034610592578060031936011261059257611039612814565b50346105925760203660031901126105925760206107038335614fa3565b503461059257604036600319011261059257611f7d61215d565b90602435913315611ffd576001600160a01b0316928315611fe7575060408291338152600160205281812085825260205220556040519081527f8c5be1e5ebec7d5bd14f71427d1e84f3dd0314c0f7b2291e5b200ac8c7c3b92560203392a3602060405160018152f35b60249160405191634a1406b160e11b8352820152fd5b60405163e602df0560e01b8152808501839052602490fd5b5034610592578060031936011261059257604051908060035491600183811c928185169485156120d2575b6020958686108114610baf578588528794939291879082156120b0575050600114612074575b5050610b37925003836122a2565b90859250600382528282205b858310612098575050610b3793508201018580612066565b80548389018501528794508693909201918101612080565b9250935050610b3794915060ff191682840152151560051b8201018580612066565b93607f1693612040565b50346105925780600319360112610592576020610703615033565b60005b83811061210a5750506000910152565b81810151838201526020016120fa565b90602091612133815180928185528580860191016120f7565b601f01601f1916010190565b3461041057602036600319011261041057602061070360043561270a565b600435906001600160a01b038216820361041057565b602435906001600160a01b038216820361041057565b6040906003190112610410576004359060243590565b6001600160401b0381116121b257604052565b634e487b7160e01b600052604160045260246000fd5b60c081019081106001600160401b038211176121b257604052565b604081019081106001600160401b038211176121b257604052565b606081019081106001600160401b038211176121b257604052565b6101e081019081106001600160401b038211176121b257604052565b602081019081106001600160401b038211176121b257604052565b60a081019081106001600160401b038211176121b257604052565b61016081019081106001600160401b038211176121b257604052565b608081019081106001600160401b038211176121b257604052565b601f909101601f19168101906001600160401b038211908210176121b257604052565b6001600160401b0381116121b257601f01601f191660200190565b81601f82011215610410578035906122f7826122c5565b9261230560405194856122a2565b8284526020838301011161041057816000926020809301838601378301015290565b346104105760203660031901126104105761234061215d565b5060206040516000198152f35b9060c060031983011261041057600435916001600160a01b03916024358381168103610410579260443590811681036104105791606435916084359160a435906001600160401b038211610410576123a7916004016122e0565b90565b606090600319011261041057600435906001600160a01b03906024358281168103610410579160443590811681036104105790565b34610410576020366003190112610410576020610703600435614ffc565b6005546001600160a01b0316330361241157565b60405163118cdaa760e01b8152336004820152602490fd5b916001600160a01b038084169283156124c757169283156124ae576000908382528160205260408220549083821061249157509160408282600080516020615a49833981519152958760209652828652038282205586815220818154019055604051908152a3565b6111718460405193849363391434e360e21b8552600485016124e0565b60405163ec442f0560e01b815260006004820152602490fd5b604051634b637e8f60e11b815260006004820152602490fd5b604091949392606082019560018060a01b0316825260208201520152565b90620f424091820180921161250f57565b634e487b7160e01b600052601160045260246000fd5b9190820180921161250f57565b600080516020615a49833981519152602060009261255285600254612525565b6002556001600160a01b031693841584146125795780600254036002555b604051908152a3565b84845283825260408420818154019055612570565b9091906001600160a01b03811690816125d85750600080516020615a498339815191526020846125c360009596600254612525565b6002555b8060025403600255604051908152a3565b92600082815280602052604081205494828610612619575081816040600080516020615a4983398151915294600097988760209652838652039120556125c7565b85906111718460405193849363391434e360e21b8552600485016124e0565b9160018060a01b038093169160009383855260016020526040938486209183169182875260205284862054926000198403612677575b50505050505050565b8484106126db575080156126c35781156126ab5785526001602052838520908552602052039120553880808080808061266e565b8451634a1406b160e11b815260048101879052602490fd5b845163e602df0560e01b815260048101879052602490fd5b8390611171868851938493637dc7a0d960e11b8552600485016124e0565b60ff16604d811161250f57600a0a90565b612712615033565b6001810180911161250f57600254906001820180921161250f576123a79261277f565b919061274282828561277f565b92821561275f57096127515790565b6001810180911161250f5790565b634e487b7160e01b600052601260045260246000fd5b811561275f570490565b9091828202916000198482099383808610950394808603951461280757848311156127f55782910981600003821680920460028082600302188083028203028083028203028083028203028083028203028083028203028092029003029360018380600003040190848311900302920304170290565b60405163227bc15360e01b8152600490fd5b5050906123a79250612775565b61281c614ef0565b80151580612898575b61282c5750565b6064906040519063391f5eb560e01b8252600482015263ffffffff807f00000000000000000000000000000000000000000000000000000000000000001660248301527f0000000000000000000000000000000000000000000000000000000000000000166044820152fd5b5063ffffffff807f00000000000000000000000000000000000000000000000000000000000000001682109081156128d1575b50612825565b90507f0000000000000000000000000000000000000000000000000000000000000000168111386128cb565b6001600160a01b039091168152602081019190915260400190565b61294d612952939261293f60405194859263a9059cbb60e01b6020850152602484016128fd565b03601f1981018452836122a2565b61296c565b565b90816020910312610410575180151581036104105790565b6000806129b69260018060a01b03169360208151910182865af13d156129ff573d90612997826122c5565b916129a560405193846122a2565b82523d6000602084013e5b83612a07565b80519081151591826129e4575b50506129cc5750565b60249060405190635274afe760e01b82526004820152fd5b6129f79250602080918301019101612954565b1538806129c3565b6060906129b0565b90612a2e5750805115612a1c57805190602001fd5b604051630a12f52160e11b8152600490fd5b81511580612a61575b612a3f575090565b604051639996b31560e01b81526001600160a01b039091166004820152602490fd5b50803b15612a37565b90620f42409182810292818404149015171561250f57565b8181029291811591840414171561250f57565b6001600160a01b0391821681529116602082015260408101919091526080606082018190526123a79291019061211a565b9291612ad0612814565b6001600160a01b0390612b078530337f0000000000000000000000000000000000000000000000000000000000000000861661319f565b612b3763ffffffff7f00000000000000000000000000000000000000000000000000000000000000001686612a82565b620f4240900491604094855190612b4d826121c8565b8782526020948086840152838516998a89850152826060850152806080850152600060a08195015288519283928b898501528a8401528b6060840152608083015260a0820160c0905260e08201612ba39161211a565b8360c083015203601f1981018252612bbb90826122a2565b865190612bc7826121e3565b6001825285820152612bd890614cf1565b865163613255ab60e01b81527f000000000000000000000000000000000000000000000000000000000000000084166004808301829052947f0000000000000000000000000000000000000000000000000000000000000000169190878284815a91602492fa918215612e2b578592612dfc575b508951633676633960e21b8152888180612c6986868c84016128fd565b0381875afa908115612dc35789908792612dcd575b50612c8c612ca59285612525565b8c518093819263095ea7b360e01b8352888c84016128fd565b038189865af1908115612dc3578691612da6575b5015612d625791612ce493918589948c5196879586948593632e7ff4ef60e11b8552308d8601612a95565b03925af18015612d5857612d3b575b508715612d2557505090612d1883600080516020615aa9833981519152959493612532565b82519485528401523392a3565b855163ec442f0560e01b81529182015260249150fd5b612d5190853d871161114c5761113e81836122a2565b5038612cf3565b87513d84823e3d90fd5b895162461bcd60e51b8152808701899052602a6024820152600080516020615a698339815191526044820152691a5b8819195c1bdcda5d60b21b6064820152608490fd5b612dbd9150893d8b1161114c5761113e81836122a2565b38612cb9565b8b513d88823e3d90fd5b809250813d8311612df5575b612de381836122a2565b810103126119a4575188612c8c612c7e565b503d612dd9565b9091508781813d8311612e24575b612e1481836122a2565b8101031261164d57519038612c4c565b503d612e0a565b8a513d87823e3d90fd5b939091612e40612814565b6001600160a01b03612e768630337f0000000000000000000000000000000000000000000000000000000000000000851661319f565b612ea663ffffffff7f00000000000000000000000000000000000000000000000000000000000000001687612a82565b620f4240900494604095865198612ebc8a6121c8565b888a5260209582878c0152818587169b8c8b82015285606082015282608082015260a0015288519384938b898601528a8501528b6060850152608084015260a0830160c0905260e08301612f0f9161211a565b9060c083015203601f1981018252612f2790826122a2565b855190612f33826121e3565b6001825284820152612f4490614cf1565b855163613255ab60e01b81527f000000000000000000000000000000000000000000000000000000000000000083166004808301829052937f0000000000000000000000000000000000000000000000000000000000000000169190868284815a91602492fa91821561319457600092613165575b508851633676633960e21b8152878180612fd686868b84016128fd565b0381875afa90811561312a57908891600091613135575b5090612ffc6130159285612525565b8b518093819263095ea7b360e01b8352888b84016128fd565b03816000865af190811561312a5760009161310d575b50156130c957916130579391600088948b5196879586948593632e7ff4ef60e11b8552308c8601612a95565b03925af180156130be576130a1575b50861561308a575090612d1883600080516020615aa9833981519152959493612532565b602490600086519163ec442f0560e01b8352820152fd5b6130b790843d861161114c5761113e81836122a2565b5038613066565b86513d6000823e3d90fd5b885162461bcd60e51b8152808601889052602a6024820152600080516020615a698339815191526044820152691a5b8819195c1bdcda5d60b21b6064820152608490fd5b6131249150883d8a1161114c5761113e81836122a2565b3861302b565b8a513d6000823e3d90fd5b9182813d831161315e575b61314a81836122a2565b810103126105925750518790612ffc612fed565b503d613140565b90918782813d831161318d575b61317c81836122a2565b810103126105925750519038612fb9565b503d613172565b89513d6000823e3d90fd5b6040516323b872dd60e01b60208201526001600160a01b0392831660248201529290911660448301526064808301939093529181526129529161294d82612250565b9190820391821161250f57565b90816020910312610410575160ff811681036104105790565b6001600160a01b039182168152602081019290925290911660408201526000606082015260800190565b613239614dfd565b9060208101519161324e6000938351906131e1565b60405163b3596f0760e01b81526001600160a01b037f0000000000000000000000000000000000000000000000000000000000000000811660048301529192916020908290602490829086165afa908115611065578591613753575b5060405163313ce56760e01b81526020816004817f00000000000000000000000000000000000000000000000000000000000000006001600160a01b03165afa9081156110cc57611be2602493610fe960209461330d948b9161373c57506126f9565b60405163b3596f0760e01b81526001600160a01b037f00000000000000000000000000000000000000000000000000000000000000008116600483015291949093849290918391165afa90811561106557859161370a575b5060405163313ce56760e01b81526020816004817f00000000000000000000000000000000000000000000000000000000000000006001600160a01b03165afa9081156110cc5792610e526133d993610fe96133cc94620f4240978b91611d8b57506126f9565b610fe960608601516124fe565b0480156136cd576134339160808401519130917f00000000000000000000000000000000000000000000000000000000000000007f00000000000000000000000000000000000000000000000000000000000000006151a6565b6040516370a0823160e01b81523060048201526020816024817f00000000000000000000000000000000000000000000000000000000000000006001600160a01b03165afa90811561150f57849161369b575b50602083015180821061367d57506001600160a01b0390506134a6614e88565b16916134cc6020808301516040518093819263095ea7b360e01b835288600484016128fd565b0381887f00000000000000000000000000000000000000000000000000000000000000006001600160a01b03165af190811561106557859161365e575b50156136185760200151823b156116515760405163617ba03760e01b8152908490829081906135679030907f00000000000000000000000000000000000000000000000000000000000000006001600160a01b031660048501613207565b038183875af1801561150f57613605575b50813b156116555760405163a415bcad60e01b81527f00000000000000000000000000000000000000000000000000000000000000006001600160a01b0316600482015260248101919091526002604482015260648101839052306084820152908290829060a490829084905af18015611d80576135f4575050565b6135fe829161219f565b6105925750565b6136119093919361219f565b9138613578565b60405162461bcd60e51b815260206004820152602a6024820152600080516020615a298339815191526044820152691a5b8819195c1bdcda5d60b21b6064820152608490fd5b613677915060203d60201161114c5761113e81836122a2565b38613509565b6044925060405191635e13771960e01b835260048301526024820152fd5b90506020813d6020116136c5575b816136b6602093836122a2565b81010312611651575138613486565b3d91506136a9565b60405162461bcd60e51b81526020600482015260156024820152746d6178496e206973206e6f7420706f73697469766560581b6044820152606490fd5b90506020813d602011613734575b81613725602093836122a2565b8101031261164d575138613365565b3d9150613718565b6110909150863d88116110965761108881836122a2565b90506020813d60201161377d575b8161376e602093836122a2565b8101031261164d5751386132aa565b3d9150613761565b6137d9620f42409197969395929761379b612814565b336001600160a01b03871603613d7c575b63ffffffff7f00000000000000000000000000000000000000000000000000000000000000001690612a82565b046040519263613255ab60e01b845260018060a01b037f000000000000000000000000000000000000000000000000000000000000000016600485015260208460248160018060a01b037f0000000000000000000000000000000000000000000000000000000000000000165afa938415613c3157600094613d46575b506138c5929161389c826138aa9360408051613871816121fe565b858152876020820152015260405194859360208501526040840152606080840152608083019061211a565b03601f1981018352826122a2565b604051906138b7826121e3565b600082526020820152614cf1565b6040516370a0823160e01b8152306004820152916020836024817f00000000000000000000000000000000000000000000000000000000000000006001600160a01b03165afa928315613c3157600093613d12575b50604051633676633960e21b815260208180613963857f00000000000000000000000000000000000000000000000000000000000000006001600160a01b0316600484016128fd565b03817f00000000000000000000000000000000000000000000000000000000000000006001600160a01b03165afa908115613c3157600091613cdf575b5060206139b06139f69284612525565b60405163095ea7b360e01b81529283918291907f00000000000000000000000000000000000000000000000000000000000000006001600160a01b0316600484016128fd565b038160007f00000000000000000000000000000000000000000000000000000000000000006001600160a01b03165af1908115613c3157600091613cc0575b5015613c7b57604051632e7ff4ef60e11b81529160209183918291613a8991907f00000000000000000000000000000000000000000000000000000000000000006001600160a01b03163060048601612a95565b038160007f00000000000000000000000000000000000000000000000000000000000000006001600160a01b03165af18015613c3157613c5c575b506001600160a01b038216600090815260208190526040902054858110613c3d57506001600160a01b038216156124c757613aff858361258e565b6040516370a0823160e01b81523060048201526020816024817f00000000000000000000000000000000000000000000000000000000000000006001600160a01b03165afa908115613c3157600091613bff575b50818110613be15790613b65916131e1565b90613b9a82847f00000000000000000000000000000000000000000000000000000000000000006001600160a01b0316612918565b8194604051928352602083015260018060a01b03169160018060a01b0316907ffbde797d201c681b91056529119e0b02407c7bb96a4a2c75c01fc9667232c8db60403392a4565b6044925060405191630cbb578960e31b835260048301526024820152fd5b906020823d602011613c29575b81613c19602093836122a2565b8101031261059257505138613b53565b3d9150613c0c565b6040513d6000823e3d90fd5b604051631bb4880160e11b8152908190611171908886600485016124e0565b613c749060203d60201161114c5761113e81836122a2565b5038613ac4565b60405162461bcd60e51b81526020600482015260296024820152600080516020615a69833981519152604482015268696e2072656465656d60b81b6064820152608490fd5b613cd9915060203d60201161114c5761113e81836122a2565b38613a35565b906020823d602011613d0a575b81613cf9602093836122a2565b8101031261059257505160206139a0565b3d9150613cec565b90926020823d602011613d3e575b81613d2d602093836122a2565b81010312610592575051913861391a565b3d9150613d20565b90936020823d602011613d74575b81613d61602093836122a2565b81010312610592575051926138c5613856565b3d9150613d54565b613d87893388612638565b6137ac565b613de0620f42409198979396959298613da3612814565b336001600160a01b038716036142595763ffffffff7f00000000000000000000000000000000000000000000000000000000000000001690612a82565b046040519263613255ab60e01b845260018060a01b037f000000000000000000000000000000000000000000000000000000000000000016600485015260208460248160018060a01b037f0000000000000000000000000000000000000000000000000000000000000000165afa938415613c3157600094614223575b50613e78929161389c826138aa9360408051613871816121fe565b6040516370a0823160e01b8152306004820152916020836024817f00000000000000000000000000000000000000000000000000000000000000006001600160a01b03165afa928315613c31576000936141ef575b50604051633676633960e21b815260208180613f16857f00000000000000000000000000000000000000000000000000000000000000006001600160a01b0316600484016128fd565b03817f00000000000000000000000000000000000000000000000000000000000000006001600160a01b03165afa908115613c31576000916141bc575b5060206139b0613f639284612525565b038160007f00000000000000000000000000000000000000000000000000000000000000006001600160a01b03165af1908115613c315760009161419d575b5015613c7b57604051632e7ff4ef60e11b81529160209183918291613ff691907f00000000000000000000000000000000000000000000000000000000000000006001600160a01b03163060048601612a95565b038160007f00000000000000000000000000000000000000000000000000000000000000006001600160a01b03165af18015613c315761417e575b506001600160a01b03821660009081526020819052604090205486811061415f57506001600160a01b038216156124c75761406c868361258e565b6040516370a0823160e01b81523060048201526020816024817f00000000000000000000000000000000000000000000000000000000000000006001600160a01b03165afa908115613c315760009161412d575b50818110613be157906140d2916131e1565b9180831061410f5750613b9a82847f00000000000000000000000000000000000000000000000000000000000000006001600160a01b0316612918565b8260449160405191630a38061160e21b835260048301526024820152fd5b906020823d602011614157575b81614147602093836122a2565b81010312610592575051386140c0565b3d915061413a565b604051631bb4880160e11b8152908190611171908986600485016124e0565b6141969060203d60201161114c5761113e81836122a2565b5038614031565b6141b6915060203d60201161114c5761113e81836122a2565b38613fa2565b906020823d6020116141e7575b816141d6602093836122a2565b810103126105925750516020613f53565b3d91506141c9565b90926020823d60201161421b575b8161420a602093836122a2565b810103126105925750519138613ecd565b3d91506141fd565b90936020823d602011614251575b8161423e602093836122a2565b8101031261059257505192613e78613e5d565b3d9150614231565b613d878a3388612638565b6001600160a01b039182168152602081019290925260026040830152909116606082015260800190565b6001600160a01b0391821681526020810192909252909116604082015260600190565b6142b9614e88565b6142c1614dfd565b6142f47f00000000000000000000000000000000000000000000000000000000000000006001600160a01b031630614b4a565b835160405163b3596f0760e01b81526001600160a01b037f0000000000000000000000000000000000000000000000000000000000000000811660048301529294929091906020908390602490829088165afa918215613c3157600092614ae8575b5060405163313ce56760e01b8152916020836004817f00000000000000000000000000000000000000000000000000000000000000006001600160a01b03165afa908115613c3157610fe9610fe9926143b695600091611d8b57506126f9565b60405163b3596f0760e01b81526001600160a01b037f0000000000000000000000000000000000000000000000000000000000000000811660048301529091906020908390602490829088165afa918215613c3157600092614ab4575b5060405163313ce56760e01b8152916020836004817f00000000000000000000000000000000000000000000000000000000000000006001600160a01b03165afa908115613c3157610fe9610e529261447395600091611d8b57506126f9565b60405163095ea7b360e01b81526001600160a01b03909216916020818061449e8587600484016128fd565b038160007f00000000000000000000000000000000000000000000000000000000000000006001600160a01b03165af1908115613c3157600091614a95575b5015614a505761453a9360206144f1614ef0565b60405163573ade8160e01b81529690938791829130907f00000000000000000000000000000000000000000000000000000000000000006001600160a01b031660048501614264565b03816000875af1948515613c3157600095614a1c575b506145847f00000000000000000000000000000000000000000000000000000000000000006001600160a01b031630614b4a565b908082106149d457906145979291614cb3565b845180821061498c5750604051631a4ca37b60e21b815291602091839190829060009082906145f59030907f00000000000000000000000000000000000000000000000000000000000000006001600160a01b03166004850161428e565b03925af18015613c3157614961575b5060405163b3596f0760e01b81526001600160a01b037f0000000000000000000000000000000000000000000000000000000000000000811660048301529091906020908390602490829085165afa918215613c315760009261492d575b5060405163313ce56760e01b8152916020836004817f00000000000000000000000000000000000000000000000000000000000000006001600160a01b03165afa928315613c3157611be2602092610fe96024966146c79460009161373c57506126f9565b60405163b3596f0760e01b81526001600160a01b037f000000000000000000000000000000000000000000000000000000000000000081166004830152909491938592918391165afa918215613c31576000926148f9575b5060405163313ce56760e01b8152916020836004817f00000000000000000000000000000000000000000000000000000000000000006001600160a01b03165afa908115613c3157610fe9610e529261477f95600091611d8b57506126f9565b6040516370a0823160e01b81523060048201526020816024817f00000000000000000000000000000000000000000000000000000000000000006001600160a01b03165afa908115613c31576000916148c7575b5081811061488057506147f1620f424091610fe960208601516124fe565b0490811561484e57604061484b9301519130917f00000000000000000000000000000000000000000000000000000000000000007f00000000000000000000000000000000000000000000000000000000000000006151a6565b50565b60405162461bcd60e51b815260206004820152600a60248201526906d6178496e20697320360b41b6044820152606490fd5b604051630b722aef60e21b8152918291611171917f00000000000000000000000000000000000000000000000000000000000000006001600160a01b0316600485016124e0565b906020823d6020116148f1575b816148e1602093836122a2565b81010312610592575051386147d3565b3d91506148d4565b90916020823d602011614925575b81614914602093836122a2565b81010312610592575051903861471f565b3d9150614907565b90916020823d602011614959575b81614948602093836122a2565b810103126105925750519038614662565b3d915061493b565b602090813d8311614985575b61497781836122a2565b810103126104105738614604565b503d61496d565b6040516311d7238d60e21b815291829161117191907f00000000000000000000000000000000000000000000000000000000000000006001600160a01b0316600485016124e0565b604051637d9ebd0360e01b815291829161117191907f00000000000000000000000000000000000000000000000000000000000000006001600160a01b0316600485016124e0565b90946020823d602011614a48575b81614a37602093836122a2565b810103126105925750519338614550565b3d9150614a2a565b60405162461bcd60e51b81526020600482015260296024820152600080516020615a29833981519152604482015268696e2072656465656d60b81b6064820152608490fd5b614aae915060203d60201161114c5761113e81836122a2565b386144dd565b90916020823d602011614ae0575b81614acf602093836122a2565b810103126105925750519038614413565b3d9150614ac2565b90916020823d602011614b14575b81614b03602093836122a2565b810103126105925750519038614356565b3d9150614af6565b91908260c09103126104105781519160208101519160408201519160608101519160a0608083015192015190565b6001600160a01b039081614b5c614e88565b169260c083602460409485519788938492632fe4a15f60e21b84521660048301525afa8015614ca8576000948591614c80575b5083614b99614dfd565b1694835194859363b3596f0760e01b8552169586600485015283602460209586935afa948515614c7557600095614c44575b5091614bda81926004946131e1565b9584519384809263313ce56760e01b82525afa928315614c3a5750614c18926123a7959492614c1292600092614c1d575b50506126f9565b92612775565b612a82565b614c339250803d106110965761108881836122a2565b3880614c0b565b513d6000823e3d90fd5b90948382813d8311614c6e575b614c5b81836122a2565b8101031261059257505193614bda614bcb565b503d614c51565b84513d6000823e3d90fd5b9050614c9b91945060c03d81116111ba576111a281836122a2565b5050505093909338614b8f565b82513d6000823e3d90fd5b614cbc916131e1565b620f4240821115614ce95781614cd191612a82565b90620f423f19810190811161250f576123a791612775565b505060001990565b6123a76020825115159201519161389c6040519384926020840152604080840152606083019061211a565b81601f82011215610410578051614d32816122c5565b92614d4060405194856122a2565b81845260208284010111610410576123a791602080850191016120f7565b63ffffffff604092959493606083019683521660208201520152565b614d82614ef0565b7f000000000000000000000000000000000000000000000000000000000000000063ffffffff1680821115614dd457610fef610ecb82614dc1946131e1565b600654808211614dcf575090565b905090565b610fef610ecb614de493836131e1565b614dc1565b51906001600160a01b038216820361041057565b604051631f94a27560e31b81526001600160a01b03906020816004817f000000000000000000000000000000000000000000000000000000000000000086165afa908115613c3157600091614e5157501690565b906020823d8211614e80575b81614e6a602093836122a2565b810103126105925750614e7c90614de9565b1690565b3d9150614e5d565b60405163026b1d5f60e01b81526001600160a01b03906020816004817f000000000000000000000000000000000000000000000000000000000000000086165afa908115613c3157600091614e5157501690565b51906001600160801b038216820361041057565b602460c06001600160a01b03614f04614e88565b1660405192838092632fe4a15f60e21b82523060048301525afa908115613c31576000908192614f7e575b50818110614f61578015614f5a57818114614ce957610e526123a792614f5483612a6a565b926131e1565b5050600090565b604491604051916378ea417b60e11b835260048301526024820152fd5b9050614f98915060c03d81116111ba576111a281836122a2565b505050509038614f2f565b6002548015614ff857614fb4615033565b908115614fda576001810180911161250f576001820180921161250f576123a792612735565b604492506040519163287036a960e21b835260048301526024820152fd5b5090565b6002548015614ff85761500d615033565b908115614fda576001810180911161250f576001820180921161250f576123a79261277f565b60246001600160a01b0380615046614e88565b1660c0604091825194858092632fe4a15f60e21b82523060048301525afa801561519b576000938491615173575b508084106151565761508e90615088614dfd565b946131e1565b91807f00000000000000000000000000000000000000000000000000000000000000001682519463b3596f0760e01b8652816004870152856024816020958694165afa94851561514b5760009561511c575b50908060049284519384809263313ce56760e01b82525afa928315614c3a5750610fef926123a7959492610fe992600092614c1d5750506126f9565b90948282813d8311615144575b61513381836122a2565b8101031261059257505193816150e0565b503d615129565b83513d6000823e3d90fd5b839060449251916378ea417b60e11b835260048301526024820152fd5b905061518e91935060c03d81116111ba576111a281836122a2565b5050505092909238615074565b50513d6000823e3d90fd5b9594939192935115600014615663576001600160a01b0390811692906151e4906151d3908590891661569a565b936001600160a01b0388169061569a565b918351615215602086015161520a60405193637b5e2c7b60e01b85526004850190615947565b610164830190615978565b6103e48101839052602081610404817f00000000000000000000000000000000000000000000000000000000000000006001600160a01b03165afa908115613c315760009161562f575b50615275620f424091610fe960408801516124fe565b04858111615611576040516370a0823160e01b8152306004820152956020876024816001600160a01b038d165afa968715613c31576000976155dc575b5060405163095ea7b360e01b815292919060209084908190615301907f00000000000000000000000000000000000000000000000000000000000000006001600160a01b0316600484016128fd565b038160006001600160a01b038e165af1918215613c315784936020936155bf575b5061534a838851980151916040519586948594633f51256760e21b9b8c8752600487016159c7565b038160007f00000000000000000000000000000000000000000000000000000000000000006001600160a01b03165af1908115613c315760009161558b575b50615393916131e1565b9182615415575b50506040516370a0823160e01b81523060048201529360209150849060249082906001600160a01b03165afa928315613c31576000936153e1575b50916123a791926131e1565b6020813d60201161540d575b816153fa602093836122a2565b81010312611651575192506123a76153d5565b3d91506153ed565b7f0000000000000000000000000000000000000000000000000000000000000000620f424003620f4240811161250f57615453620f42409185612a82565b60405163095ea7b360e01b8152939190049190602084806154a1887f00000000000000000000000000000000000000000000000000000000000000006001600160a01b0316600484016128fd565b038160007f00000000000000000000000000000000000000000000000000000000000000006001600160a01b03165af1908115613c31576020946155019261556e575b5084815191015193604051968795869586523093600487016159c7565b038160007f00000000000000000000000000000000000000000000000000000000000000006001600160a01b03165af18015613c3157615543575b808061539a565b602090813d8311615567575b61555981836122a2565b81010312610410573861553c565b503d61554f565b61558490863d881161114c5761113e81836122a2565b50386154e4565b906020823d6020116155b7575b816155a5602093836122a2565b81010312610592575051615393615389565b3d9150615598565b6155d590843d861161114c5761113e81836122a2565b5038615322565b90966020823d602011615609575b816155f7602093836122a2565b810103126105925750519560206152b2565b3d91506155ea565b60449086604051916334398dcf60e01b835260048301526024820152fd5b906020823d60201161565b575b81615649602093836122a2565b8101031261059257505161527561525f565b3d915061563c565b60405162461bcd60e51b815260206004820152600f60248201526e139bdd081a5b5c1b195b595b9d1959608a1b6044820152606490fd5b6040908151906156a9826121fe565b82516156b48161226b565b61016036823782528251916156c883612250565b8360005b60a08110615929575060208083019490945260009101526001600160a01b0393908416907f00000000000000000000000000000000000000000000000000000000000000008516828114806158fc575b156157dd57505050815192615730846121fe565b8251906000600784845b600b84106157c45750505050506157508161226b565b835281519061575e82612250565b60126000835b6005821061577c575050508301526026549082015290565b83865180856000915b600483106157ae5750505090600192826157a0600494612287565b815201930191019091615764565b8154815288946001938401939092019101615785565b600191829186855416815201920192019190859061573a565b859492959391937f000000000000000000000000000000000000000000000000000000000000000016861490816158f0575b50615832575060449450519263ee4caf3d60e01b84526004840152166024820152fd5b9150809293505192615843846121fe565b8251906000602784845b600b84106158d75750505050506158638161226b565b835281519061587182612250565b60326000835b6005821061588f575050508301526046549082015290565b83865180856000915b600483106158c15750505090600192826158b3600494612287565b815201930191019091615877565b8154815288946001938401939092019101615898565b600191829186855416815201920192019190859061584d565b9050848416143861580f565b50857f0000000000000000000000000000000000000000000000000000000000000000168683161461571c565b6020915161593681612287565b6080368237818601520184906156cc565b6000915b600b831061595857505050565b81516001600160a01b03168152600192909201916020918201910161594b565b9060009182915b6005831061598d5750505050565b815184825b600482106159b057505050602060806001920192019201919061597f565b600190835181526020809101930191019091615992565b9390959491926159ee610420946159e38761044081019a615947565b610160870190615978565b6103e08501526104008401526001600160a01b031691015256fe8be0079c531659141344cd1fd0a4f28419497f9722a3daafe3b4186f6b6457e0617070726f7665206661696c656420666f72206c656e64696e6720706f6f6c20ddf252ad1be2c89b69c2b068fc378daa952ba7f163c4a11628f55a4df523b3ef617070726f7665206661696c656420666f7220666c617368206c656e64657220439148f0bbc682ca079e46d6e2c2f0c1e3b820f1a291b069d8882abf8cf18dd9dcbc1c05240f31ff3ad067ef1ee35ce4997762752e3a095284754544f4c709d7a26469706673582212200650827417ea9c97841e3f2d6d765a7632ec4a5ba1ddb5d5f6bb870bbc5f558364736f6c63430008140033",
  "devdoc": {
    "details": "A leveraged vault contract with CurveFi swap-specific logic",
    "errors": {
      "AddressEmptyCode(address)": [
        {
          "details": "There's no code at `target` (it is not a contract)."
        }
      ],
      "AddressInsufficientBalance(address)": [
        {
          "details": "The ETH balance of the account is not enough to perform the operation."
        }
      ],
      "ERC20InsufficientAllowance(address,uint256,uint256)": [
        {
          "details": "Indicates a failure with the `spender`s `allowance`. Used in transfers.",
          "params": {
            "allowance": "Amount of tokens a `spender` is allowed to operate with.",
            "needed": "Minimum amount required to perform a transfer.",
            "spender": "Address that may be allowed to operate on tokens without being their owner."
          }
        }
      ],
      "ERC20InsufficientBalance(address,uint256,uint256)": [
        {
          "details": "Indicates an error related to the current `balance` of a `sender`. Used in transfers.",
          "params": {
            "balance": "Current balance for the interacting account.",
            "needed": "Minimum amount required to perform a transfer.",
            "sender": "Address whose tokens are being transferred."
          }
        }
      ],
      "ERC20InvalidApprover(address)": [
        {
          "details": "Indicates a failure with the `approver` of a token to be approved. Used in approvals.",
          "params": {
            "approver": "Address initiating an approval operation."
          }
        }
      ],
      "ERC20InvalidReceiver(address)": [
        {
          "details": "Indicates a failure with the token `receiver`. Used in transfers.",
          "params": {
            "receiver": "Address to which tokens are being transferred."
          }
        }
      ],
      "ERC20InvalidSender(address)": [
        {
          "details": "Indicates a failure with the token `sender`. Used in transfers.",
          "params": {
            "sender": "Address whose tokens are being transferred."
          }
        }
      ],
      "ERC20InvalidSpender(address)": [
        {
          "details": "Indicates a failure with the `spender` to be approved. Used in approvals.",
          "params": {
            "spender": "Address that may be allowed to operate on tokens without being their owner."
          }
        }
      ],
      "ERC4626ExceededMaxDeposit(address,uint256,uint256)": [
        {
          "details": "Attempted to deposit more assets than the max amount for `receiver`."
        }
      ],
      "ERC4626ExceededMaxMint(address,uint256,uint256)": [
        {
          "details": "Attempted to mint more shares than the max amount for `receiver`."
        }
      ],
      "ERC4626ExceededMaxRedeem(address,uint256,uint256)": [
        {
          "details": "Attempted to redeem more shares than the max amount for `receiver`."
        }
      ],
      "ERC4626ExceededMaxWithdraw(address,uint256,uint256)": [
        {
          "details": "Attempted to withdraw more assets than the max amount for `receiver`."
        }
      ],
      "FailedInnerCall()": [
        {
          "details": "A call to an address target failed. The target may have reverted."
        }
      ],
      "MathOverflowedMulDiv()": [
        {
          "details": "Muldiv operation overflow."
        }
      ],
      "OwnableInvalidOwner(address)": [
        {
          "details": "The owner is not a valid owner account. (eg. `address(0)`)"
        }
      ],
      "OwnableUnauthorizedAccount(address)": [
        {
          "details": "The caller account is not authorized to perform an operation."
        }
      ],
      "SafeERC20FailedOperation(address)": [
        {
          "details": "An operation with an ERC20 token failed."
        }
      ]
    },
    "events": {
      "Approval(address,address,uint256)": {
        "details": "Emitted when the allowance of a `spender` for an `owner` is set by a call to {approve}. `value` is the new allowance."
      },
      "Transfer(address,address,uint256)": {
        "details": "Emitted when `value` tokens are moved from one account (`from`) to another (`to`). Note that `value` may be zero."
      }
    },
    "kind": "dev",
    "methods": {
      "_getMaxWithdrawAmount(address,address)": {
        "details": "Gets the maximum withdrawable amount of an asset",
        "params": {
          "asset": "Address of the asset",
          "user": "Address of the user"
        },
        "returns": {
          "_0": "uint256 Maximum withdrawable amount of the asset"
        }
      },
      "_onFlashLoanDeposit((uint256,uint256,address,uint256,bytes,uint256))": {
        "details": "Internal function to handle flash loan deposit",
        "params": {
          "flashLoanParams": "Parameters for the flash loan deposit"
        }
      },
      "_onFlashLoanRedeem((uint256,uint256,bytes))": {
        "details": "Internal function to handle flash loan redeem",
        "params": {
          "flashLoanParams": "Parameters for the flash loan redeem"
        }
      },
      "allowance(address,address)": {
        "details": "See {IERC20-allowance}."
      },
      "approve(address,uint256)": {
        "details": "See {IERC20-approve}. NOTE: If `value` is the maximum `uint256`, the allowance is not updated on `transferFrom`. This is semantically equivalent to an infinite approval. Requirements: - `spender` cannot be the zero address."
      },
      "asset()": {
        "details": "See {IERC4626-asset}. "
      },
      "balanceOf(address)": {
        "details": "See {IERC20-balanceOf}."
      },
      "checkIsTooImbalanced()": {
        "details": "Checks if the current leverage is too imbalanced"
      },
      "constructor": {
        "details": "Constructor for the DLoopVaultCurve contract",
        "params": {
          "_curveRouter": "Address of the Curve router",
          "_defaultDUSDToUnderlyingSwapExtraParams": "Default swap params from dUSD to underlying asset",
          "_defaultUnderlyingToDUSDSwapExtraParams": "Default swap params from underlying asset to dUSD",
          "_dusd": "Address of the dUSD token",
          "_flashLender": "Address of the flash loan provider",
          "_lendingPoolAddressesProvider": "Address of the lending pool addresses provider",
          "_maxSubsidyBps": "Maximum subsidy in basis points",
          "_name": "Name of the vault token",
          "_swapSlippageTolerance": "Swap slippage tolerance in basis points",
          "_symbol": "Symbol of the vault token",
          "_targetLeverageBps": "Target leverage in basis points",
          "_underlyingAsset": "Address of the underlying asset"
        }
      },
      "convertToAssets(uint256)": {
        "details": "See {IERC4626-convertToAssets}. "
      },
      "convertToShares(uint256)": {
        "details": "See {IERC4626-convertToShares}. "
      },
      "decimals()": {
        "details": "Decimals are computed by adding the decimal offset on top of the underlying asset's decimals. This \"original\" value is cached during construction of the vault contract. If this read operation fails (e.g., the asset has not been created yet), a default of 18 is used to represent the underlying asset's decimals. See {IERC20Metadata-decimals}."
      },
      "deposit(uint256,address)": {
        "details": "Deposits assets into the vault",
        "params": {
          "assets": "Amount of assets to deposit",
          "receiver": "Address to receive the minted shares"
        },
        "returns": {
          "shares": "Amount of shares minted"
        }
      },
      "depositWith(uint256,address,uint256,bytes,uint256)": {
        "details": "Deposits assets into the vault with custom parameters",
        "params": {
          "assets": "Amount of assets to deposit",
          "dusdToUnderlyingSwapData": "Swap data from dUSD to underlying asset",
          "receiver": "Address to receive the minted shares",
          "slippageTolerance": "Slippage tolerance for the swap"
        },
        "returns": {
          "shares": "Amount of shares minted"
        }
      },
      "maxDeposit(address)": {
        "details": "See {IERC4626-maxDeposit}. "
      },
      "maxMint(address)": {
        "details": "See {IERC4626-maxMint}. "
      },
      "maxRedeem(address)": {
        "details": "See {IERC4626-maxRedeem}. "
      },
      "maxWithdraw(address)": {
        "details": "See {IERC4626-maxWithdraw}. "
      },
      "mint(uint256,address)": {
        "details": "Mints shares to the receiver by depositing assets",
        "params": {
          "receiver": "Address to receive the minted shares",
          "shares": "Amount of shares to mint"
        },
        "returns": {
          "assets": "Amount of assets deposited"
        }
      },
      "mintWith(uint256,address,uint256,bytes)": {
        "details": "Mints shares to the receiver by depositing assets with custom parameters",
        "params": {
          "dusdToUnderlyingSwapData": "Swap data from dUSD to underlying asset",
          "receiver": "Address to receive the minted shares",
          "shares": "Amount of shares to mint",
          "slippageTolerance": "Slippage tolerance for the swap"
        },
        "returns": {
          "assets": "Amount of assets deposited"
        }
      },
      "name()": {
        "details": "Returns the name of the token."
      },
      "onFlashLoan(address,address,uint256,uint256,bytes)": {
        "details": "Callback function for flash loans",
        "params": {
          "data": "Additional data passed to the flash loan",
          "initiator": "Address that initiated the flash loan",
          "token": "Address of the flash-borrowed token"
        },
        "returns": {
          "_0": "bytes32 The flash loan callback success bytes"
        }
      },
      "owner()": {
        "details": "Returns the address of the current owner."
      },
      "previewDeposit(uint256)": {
        "details": "See {IERC4626-previewDeposit}. "
      },
      "previewMint(uint256)": {
        "details": "See {IERC4626-previewMint}. "
      },
      "previewRedeem(uint256)": {
        "details": "See {IERC4626-previewRedeem}. "
      },
      "previewWithdraw(uint256)": {
        "details": "See {IERC4626-previewWithdraw}. "
      },
      "redeem(uint256,address,address)": {
        "details": "Redeems shares from the vault",
        "params": {
          "owner": "Address that owns the shares",
          "receiver": "Address to receive the assets",
          "shares": "Amount of shares to redeem"
        },
        "returns": {
          "assets": "Amount of assets redeemed"
        }
      },
      "redeemWith(uint256,address,address,uint256,uint256,bytes)": {
        "details": "Redeems shares from the vault with custom parameters",
        "params": {
          "minReceiveAmount": "Minimum amount of assets to receive",
          "owner": "Address that owns the shares",
          "receiver": "Address to receive the assets",
          "shares": "Amount of shares to redeem",
          "swapSlippageTolerance": "Slippage tolerance for the swap",
          "underlyingToDUSDSwapData": "Swap data from underlying asset to DUSD"
        },
        "returns": {
          "assets": "Amount of assets redeemed"
        }
      },
      "renounceOwnership()": {
        "details": "Leaves the contract without owner. It will not be possible to call `onlyOwner` functions. Can only be called by the current owner. NOTE: Renouncing ownership will leave the contract without an owner, thereby disabling any functionality that is only available to the owner."
      },
      "rescueToken(address,address)": {
        "details": "Rescues tokens accidentally sent to the contract",
        "params": {
          "receiver": "Address to receive the rescued tokens",
          "token": "Address of the token to rescue"
        }
      },
      "setMaxSubsidyBps(uint256)": {
        "details": "Sets the maximum subsidy in basis points",
        "params": {
          "_maxSubsidyBps": "New maximum subsidy in basis points"
        }
      },
      "symbol()": {
        "details": "Returns the symbol of the token, usually a shorter version of the name."
      },
      "totalAssets()": {
        "details": "See {IERC4626-totalAssets}. "
      },
      "totalSupply()": {
        "details": "See {IERC20-totalSupply}."
      },
      "transfer(address,uint256)": {
        "details": "See {IERC20-transfer}. Requirements: - `to` cannot be the zero address. - the caller must have a balance of at least `value`."
      },
      "transferFrom(address,address,uint256)": {
        "details": "See {IERC20-transferFrom}. Emits an {Approval} event indicating the updated allowance. This is not required by the EIP. See the note at the beginning of {ERC20}. NOTE: Does not update the allowance if the current allowance is the maximum `uint256`. Requirements: - `from` and `to` cannot be the zero address. - `from` must have a balance of at least `value`. - the caller must have allowance for ``from``'s tokens of at least `value`."
      },
      "transferOwnership(address)": {
        "details": "Transfers ownership of the contract to a new account (`newOwner`). Can only be called by the current owner."
      },
      "withdraw(uint256,address,address)": {
        "details": "Withdraws assets from the vault",
        "params": {
          "assets": "Amount of assets to withdraw",
          "owner": "Address that owns the shares",
          "receiver": "Address to receive the assets"
        },
        "returns": {
          "shares": "Amount of shares burned"
        }
      },
      "withdrawWith(uint256,address,address,uint256,uint256,bytes)": {
        "details": "Withdraws assets from the vault with custom parameters",
        "params": {
          "assets": "Amount of assets to withdraw",
          "minReceiveAmount": "Minimum amount of assets to receive",
          "owner": "Address that owns the shares",
          "receiver": "Address to receive the assets",
          "swapSlippageTolerance": "Slippage tolerance for the swap",
          "underlyingToDUSDSwapData": "Swap data from underlying asset to dUSD"
        },
        "returns": {
          "shares": "Amount of shares burned"
        }
      }
    },
    "title": "DLoopVaultCurve",
    "version": 1
  },
  "userdoc": {
    "kind": "user",
    "methods": {},
    "version": 1
  },
  "storageLayout": {
    "storage": [
      {
        "astId": 477,
        "contract": "contracts/vault/DLoopVaultCurve.sol:DLoopVaultCurve",
        "label": "_balances",
        "offset": 0,
        "slot": "0",
        "type": "t_mapping(t_address,t_uint256)"
      },
      {
        "astId": 483,
        "contract": "contracts/vault/DLoopVaultCurve.sol:DLoopVaultCurve",
        "label": "_allowances",
        "offset": 0,
        "slot": "1",
        "type": "t_mapping(t_address,t_mapping(t_address,t_uint256))"
      },
      {
        "astId": 485,
        "contract": "contracts/vault/DLoopVaultCurve.sol:DLoopVaultCurve",
        "label": "_totalSupply",
        "offset": 0,
        "slot": "2",
        "type": "t_uint256"
      },
      {
        "astId": 487,
        "contract": "contracts/vault/DLoopVaultCurve.sol:DLoopVaultCurve",
        "label": "_name",
        "offset": 0,
        "slot": "3",
        "type": "t_string_storage"
      },
      {
        "astId": 489,
        "contract": "contracts/vault/DLoopVaultCurve.sol:DLoopVaultCurve",
        "label": "_symbol",
        "offset": 0,
        "slot": "4",
        "type": "t_string_storage"
      },
      {
        "astId": 8,
        "contract": "contracts/vault/DLoopVaultCurve.sol:DLoopVaultCurve",
        "label": "_owner",
        "offset": 0,
        "slot": "5",
        "type": "t_address"
      },
      {
        "astId": 5360,
        "contract": "contracts/vault/DLoopVaultCurve.sol:DLoopVaultCurve",
        "label": "maxSubsidyBps",
        "offset": 0,
        "slot": "6",
        "type": "t_uint256"
      },
      {
        "astId": 7841,
        "contract": "contracts/vault/DLoopVaultCurve.sol:DLoopVaultCurve",
        "label": "DEFAULT_DUSD_TO_UNDERLYING_SWAP_EXTRA_PARAMS",
        "offset": 0,
        "slot": "7",
        "type": "t_struct(CurveSwapExtraParams)7830_storage"
      },
      {
        "astId": 7844,
        "contract": "contracts/vault/DLoopVaultCurve.sol:DLoopVaultCurve",
        "label": "DEFAULT_UNDERLYING_TO_DUSD_SWAP_EXTRA_PARAMS",
        "offset": 0,
        "slot": "39",
        "type": "t_struct(CurveSwapExtraParams)7830_storage"
      }
    ],
    "types": {
      "t_address": {
        "encoding": "inplace",
        "label": "address",
        "numberOfBytes": "20"
      },
      "t_array(t_address)11_storage": {
        "base": "t_address",
        "encoding": "inplace",
        "label": "address[11]",
        "numberOfBytes": "352"
      },
      "t_array(t_array(t_uint256)4_storage)5_storage": {
        "base": "t_array(t_uint256)4_storage",
        "encoding": "inplace",
        "label": "uint256[4][5]",
        "numberOfBytes": "640"
      },
      "t_array(t_uint256)4_storage": {
        "base": "t_uint256",
        "encoding": "inplace",
        "label": "uint256[4]",
        "numberOfBytes": "128"
      },
      "t_mapping(t_address,t_mapping(t_address,t_uint256))": {
        "encoding": "mapping",
        "key": "t_address",
        "label": "mapping(address => mapping(address => uint256))",
        "numberOfBytes": "32",
        "value": "t_mapping(t_address,t_uint256)"
      },
      "t_mapping(t_address,t_uint256)": {
        "encoding": "mapping",
        "key": "t_address",
        "label": "mapping(address => uint256)",
        "numberOfBytes": "32",
        "value": "t_uint256"
      },
      "t_string_storage": {
        "encoding": "bytes",
        "label": "string",
        "numberOfBytes": "32"
      },
      "t_struct(CurveSwapExtraParams)7830_storage": {
        "encoding": "inplace",
        "label": "struct DLoopVaultCurve.CurveSwapExtraParams",
        "members": [
          {
            "astId": 7821,
            "contract": "contracts/vault/DLoopVaultCurve.sol:DLoopVaultCurve",
            "label": "route",
            "offset": 0,
            "slot": "0",
            "type": "t_array(t_address)11_storage"
          },
          {
            "astId": 7827,
            "contract": "contracts/vault/DLoopVaultCurve.sol:DLoopVaultCurve",
            "label": "swapParams",
            "offset": 0,
            "slot": "11",
            "type": "t_array(t_array(t_uint256)4_storage)5_storage"
          },
          {
            "astId": 7829,
            "contract": "contracts/vault/DLoopVaultCurve.sol:DLoopVaultCurve",
            "label": "swapSlippageBufferBps",
            "offset": 0,
            "slot": "31",
            "type": "t_uint256"
          }
        ],
        "numberOfBytes": "1024"
      },
      "t_uint256": {
        "encoding": "inplace",
        "label": "uint256",
        "numberOfBytes": "32"
      }
    }
  }
}