{
  "address": "0xA742703A804Fb18FA36e09eB95CeD7FB74D91e55",
  "abi": [
    {
      "inputs": [
        {
          "internalType": "contract IPoolAddressesProvider",
          "name": "addressesProvider",
          "type": "address"
        },
        {
          "internalType": "contract ISwapRouter",
          "name": "swapRouter",
          "type": "address"
        },
        {
          "internalType": "address",
          "name": "owner",
          "type": "address"
        }
      ],
      "stateMutability": "nonpayable",
      "type": "constructor"
    },
    {
      "anonymous": false,
      "inputs": [
        {
          "indexed": true,
          "internalType": "address",
          "name": "fromAsset",
          "type": "address"
        },
        {
          "indexed": true,
          "internalType": "address",
          "name": "toAsset",
          "type": "address"
        },
        {
          "indexed": false,
          "internalType": "uint256",
          "name": "amountSold",
          "type": "uint256"
        },
        {
          "indexed": false,
          "internalType": "uint256",
          "name": "receivedAmount",
          "type": "uint256"
        }
      ],
      "name": "Bought",
      "type": "event"
    },
    {
      "anonymous": false,
      "inputs": [
        {
          "indexed": true,
          "internalType": "address",
          "name": "previousOwner",
          "type": "address"
        },
        {
          "indexed": true,
          "internalType": "address",
          "name": "newOwner",
          "type": "address"
        }
      ],
      "name": "OwnershipTransferred",
      "type": "event"
    },
    {
      "anonymous": false,
      "inputs": [
        {
          "indexed": true,
          "internalType": "address",
          "name": "fromAsset",
          "type": "address"
        },
        {
          "indexed": true,
          "internalType": "address",
          "name": "toAsset",
          "type": "address"
        },
        {
          "indexed": false,
          "internalType": "uint256",
          "name": "fromAmount",
          "type": "uint256"
        },
        {
          "indexed": false,
          "internalType": "uint256",
          "name": "receivedAmount",
          "type": "uint256"
        }
      ],
      "name": "Swapped",
      "type": "event"
    },
    {
      "inputs": [],
      "name": "ADDRESSES_PROVIDER",
      "outputs": [
        {
          "internalType": "contract IPoolAddressesProvider",
          "name": "",
          "type": "address"
        }
      ],
      "stateMutability": "view",
      "type": "function"
    },
    {
      "inputs": [],
      "name": "MAX_SLIPPAGE_PERCENT",
      "outputs": [
        {
          "internalType": "uint256",
          "name": "",
          "type": "uint256"
        }
      ],
      "stateMutability": "view",
      "type": "function"
    },
    {
      "inputs": [],
      "name": "ORACLE",
      "outputs": [
        {
          "internalType": "contract IPriceOracleGetter",
          "name": "",
          "type": "address"
        }
      ],
      "stateMutability": "view",
      "type": "function"
    },
    {
      "inputs": [],
      "name": "POOL",
      "outputs": [
        {
          "internalType": "contract IPool",
          "name": "",
          "type": "address"
        }
      ],
      "stateMutability": "view",
      "type": "function"
    },
    {
      "inputs": [
        {
          "internalType": "address",
          "name": "",
          "type": "address"
        },
        {
          "internalType": "uint256",
          "name": "",
          "type": "uint256"
        },
        {
          "internalType": "uint256",
          "name": "",
          "type": "uint256"
        },
        {
          "internalType": "address",
          "name": "",
          "type": "address"
        },
        {
          "internalType": "bytes",
          "name": "",
          "type": "bytes"
        }
      ],
      "name": "executeOperation",
      "outputs": [
        {
          "internalType": "bool",
          "name": "",
          "type": "bool"
        }
      ],
      "stateMutability": "nonpayable",
      "type": "function"
    },
    {
      "inputs": [],
      "name": "owner",
      "outputs": [
        {
          "internalType": "address",
          "name": "",
          "type": "address"
        }
      ],
      "stateMutability": "view",
      "type": "function"
    },
    {
      "inputs": [],
      "name": "renounceOwnership",
      "outputs": [],
      "stateMutability": "nonpayable",
      "type": "function"
    },
    {
      "inputs": [
        {
          "internalType": "contract IERC20",
          "name": "token",
          "type": "address"
        }
      ],
      "name": "rescueTokens",
      "outputs": [],
      "stateMutability": "nonpayable",
      "type": "function"
    },
    {
      "inputs": [],
      "name": "swapRouter",
      "outputs": [
        {
          "internalType": "contract ISwapRouter",
          "name": "",
          "type": "address"
        }
      ],
      "stateMutability": "view",
      "type": "function"
    },
    {
      "inputs": [
        {
          "internalType": "address",
          "name": "newOwner",
          "type": "address"
        }
      ],
      "name": "transferOwnership",
      "outputs": [],
      "stateMutability": "nonpayable",
      "type": "function"
    },
    {
      "inputs": [
        {
          "internalType": "contract IERC20Detailed",
          "name": "assetToSwapFrom",
          "type": "address"
        },
        {
          "internalType": "contract IERC20Detailed",
          "name": "assetToSwapTo",
          "type": "address"
        },
        {
          "internalType": "uint256",
          "name": "amountToSwap",
          "type": "uint256"
        },
        {
          "internalType": "uint256",
          "name": "minAmountToReceive",
          "type": "uint256"
        },
        {
          "internalType": "uint256",
          "name": "swapAllBalanceOffset",
          "type": "uint256"
        },
        {
          "internalType": "bytes",
          "name": "path",
          "type": "bytes"
        },
        {
          "components": [
            {
              "internalType": "uint256",
              "name": "amount",
              "type": "uint256"
            },
            {
              "internalType": "uint256",
              "name": "deadline",
              "type": "uint256"
            },
            {
              "internalType": "uint8",
              "name": "v",
              "type": "uint8"
            },
            {
              "internalType": "bytes32",
              "name": "r",
              "type": "bytes32"
            },
            {
              "internalType": "bytes32",
              "name": "s",
              "type": "bytes32"
            }
          ],
          "internalType": "struct BaseDSwapAdapter.PermitSignature",
          "name": "permitParams",
          "type": "tuple"
        }
      ],
      "name": "withdrawAndSwap",
      "outputs": [],
      "stateMutability": "nonpayable",
      "type": "function"
    }
  ],
  "transactionHash": "0x423b117195e41c45a9f71f86b32e13f9233e6c1e83dac9d3f5f86f81dd24041e",
  "args": [
    "0xC691F14942B37668C9904b701E3118A133611b3c",
    "0x86fa24508003ee40FBC34385047b665c0Ec9DC55",
    "0x53Ae1433Ab4563d7D5a84d27524784837259f105"
  ],
  "numDeployments": 1,
  "solcInputHash": "8d29cbbf50b4f1a61a3618a32e100435",
  "bytecode": "0x61010060409080825234620001f757606081620016e180380380916200002682856200025a565b833981010312620001f75780516001600160a01b038082169390929190848203620001f75760209384840151938185168503620001f757826200006a910162000294565b92608052815163026b1d5f60e01b815285816004818a5afa9081156200024f579082916000916200020f575b501660a05260018060a01b031992836000541694338617600055835187816004817f8be0079c531659141344cd1fd0a4f28419497f9722a3daafe3b4186f6b6457e09c8d600033918180a3631f94a27560e31b82525afa9081156200020457908491600091620001bf575b501660c05260e05260018055169384156200016e5750839051943390600080a3331617176000556114379081620002aa82396080518161021c015260a05181818161052201528181610b9c0152610cb7015260c051816102e0015260e0518181816105900152610f040152f35b608491519062461bcd60e51b82526004820152602660248201527f4f776e61626c653a206e6577206f776e657220697320746865207a65726f206160448201526564647265737360d01b6064820152fd5b809250898092503d8311620001fc575b620001db81836200025a565b81010312620001f757620001f0849162000294565b3862000101565b600080fd5b503d620001cf565b85513d6000823e3d90fd5b809250878092503d831162000247575b6200022b81836200025a565b81010312620001f75762000240829162000294565b3862000096565b503d6200021f565b83513d6000823e3d90fd5b601f909101601f19168101906001600160401b038211908210176200027e57604052565b634e487b7160e01b600052604160045260246000fd5b51906001600160a01b0382168203620001f75756fe6080604052600436101561001257600080fd5b60003560e01c8062ae3bf8146100c65780630542975c146100c15780631b11d0ff146100bc57806332e4b286146100b757806338013f02146100b25780633c6145aa146100ad578063715018a6146100a85780637535d246146100a35780638da5cb5b1461009e578063c31c9c07146100995763f2fde38b1461009457600080fd5b6105bf565b61057a565b610551565b61050c565b6104ac565b610406565b6102ca565b6102ad565b61024b565b610206565b6100e1565b6001600160a01b038116036100dc57565b600080fd5b346100dc5760203660031901126100dc576004356100fe816100cb565b60018060a01b039060009160246020828554169261011d33851461069e565b6040516370a0823160e01b8152306004820152928391829087165afa9081156101f6578492839260449284916101c7575b506040519163a9059cbb60e01b83526004830152602482015282855af1156101be5761017990611125565b156101815780f35b60405162461bcd60e51b815260206004820152601560248201527423a83b191d103330b4b632b2103a3930b739b332b960591b6044820152606490fd5b503d81803e3d90fd5b6101e9915060203d6020116101ef575b6101e18183610376565b8101906106e9565b3861014e565b503d6101d7565b6106f8565b60009103126100dc57565b346100dc5760003660031901126100dc576040517f00000000000000000000000000000000000000000000000000000000000000006001600160a01b03168152602090f35b346100dc5760a03660031901126100dc576102676004356100cb565b6102726064356100cb565b60843567ffffffffffffffff8082116100dc57366023830112156100dc5781600401359081116100dc57369101602401111561075057600080fd5b346100dc5760003660031901126100dc5760206040516101f48152f35b346100dc5760003660031901126100dc576040517f00000000000000000000000000000000000000000000000000000000000000006001600160a01b03168152602090f35b634e487b7160e01b600052604160045260246000fd5b6020810190811067ffffffffffffffff82111761034157604052565b61030f565b67ffffffffffffffff811161034157604052565b6040810190811067ffffffffffffffff82111761034157604052565b90601f8019910116810190811067ffffffffffffffff82111761034157604052565b604051906101e0820182811067ffffffffffffffff82111761034157604052565b6040519060a0820182811067ffffffffffffffff82111761034157604052565b67ffffffffffffffff811161034157601f01601f191660200190565b60a09060c31901126100dc5760c490565b346100dc576101603660031901126100dc57600435610424816100cb565b602435610430816100cb565b60a4359167ffffffffffffffff83116100dc57366023840112156100dc5782600401359061045d826103d9565b9161046b6040519384610376565b80835236602482870101116100dc5760208160009260246104aa98018387013784010152610498366103f5565b92608435916064359160443591610794565b005b346100dc57600080600319360112610509578054816001600160a01b0382166104d633821461069e565b7f8be0079c531659141344cd1fd0a4f28419497f9722a3daafe3b4186f6b6457e08280a36001600160a01b031916815580f35b80fd5b346100dc5760003660031901126100dc576040517f00000000000000000000000000000000000000000000000000000000000000006001600160a01b03168152602090f35b346100dc5760003660031901126100dc576000546040516001600160a01b039091168152602090f35b346100dc5760003660031901126100dc576040517f00000000000000000000000000000000000000000000000000000000000000006001600160a01b03168152602090f35b346100dc5760203660031901126100dc576004356105dc816100cb565b6000546001600160a01b0390811691906105f733841461069e565b8116801561064a576104aa927f8be0079c531659141344cd1fd0a4f28419497f9722a3daafe3b4186f6b6457e0600080a360018060a01b03166bffffffffffffffffffffffff60a01b6000541617600055565b60405162461bcd60e51b815260206004820152602660248201527f4f776e61626c653a206e6577206f776e657220697320746865207a65726f206160448201526564647265737360d01b6064820152608490fd5b156106a557565b606460405162461bcd60e51b815260206004820152602060248201527f4f776e61626c653a2063616c6c6572206973206e6f7420746865206f776e65726044820152fd5b908160209103126100dc575190565b6040513d6000823e3d90fd5b1561070b57565b60405162461bcd60e51b815260206004820152601f60248201527f5265656e7472616e637947756172643a207265656e7472616e742063616c6c006044820152606490fd5b61075f60026001541415610704565b60405162461bcd60e51b815260206004820152600d60248201526c1393d517d4d5541413d4951151609a1b6044820152606490fd5b9093959492956107a960026001541415610704565b60026001556001600160a01b039582871690846107e86107dc6101006107ce86610af6565b01516001600160a01b031690565b6001600160a01b031690565b9361082c575b509261081385936108189796899461080b6108219d983690610902565b923391610c4c565b610ead565b9133911661101b565b61082a60018055565b565b6040516370a0823160e01b8152336004820152919992969550919390602081602481878d165afa9384156101f6576108219a6108189861080b968b9661081395600092610891575b50610881908211156108b6565b989950945092959a5093506107ee565b6108819192506108af9060203d6020116101ef576101e18183610376565b9190610874565b156108bd57565b60405162461bcd60e51b815260206004820152601b60248201527f494e53554646494349454e545f414d4f554e545f544f5f5357415000000000006044820152606490fd5b91908260a09103126100dc5760405160a0810181811067ffffffffffffffff8211176103415760405280928035825260208101356020830152604081013560ff811681036100dc5760809182916040850152606081013560608501520135910152565b6040519061097282610325565b60008252565b91908260209103126100dc5760405161099081610325565b91518252565b51906fffffffffffffffffffffffffffffffff821682036100dc57565b519064ffffffffff821682036100dc57565b519061ffff821682036100dc57565b519061082a826100cb565b6101e0818303126100dc576109fc6109f5610398565b9282610978565b8252610a0a60208201610996565b6020830152610a1b60408201610996565b6040830152610a2c60608201610996565b6060830152610a3d60808201610996565b6080830152610a4e60a08201610996565b60a0830152610a5f60c082016109b3565b60c0830152610a7060e082016109c5565b60e0830152610100610a838183016109d4565b90830152610120610a958183016109d4565b90830152610140610aa78183016109d4565b90830152610160610ab98183016109d4565b90830152610180610acb818301610996565b908301526101a0610add818301610996565b90830152610aef6101c0809201610996565b9082015290565b6101c090610b02610398565b610b0a610965565b815260009281846020819401528260408201528260608201528260808201528260a08201528260c08201528260e08201528261010082015282610120820152826101408201528261016082015282610180820152826101a08201520152610b98604051916335ea6a7560e01b835282806101e093849360048301919091602081019260018060a01b03169052565b03817f00000000000000000000000000000000000000000000000000000000000000006001600160a01b03165afa9283156101f65792610bd757505090565b610bf69250803d10610bf9575b610bee8183610376565b8101906109df565b90565b503d610be4565b15610c0757565b60405162461bcd60e51b815260206004820152601b60248201527f554e45585045435445445f414d4f554e545f57495448445241574e00000000006044820152606490fd5b9193602081015180610d11575b5050600093602092610c7a85610cb39460018060a01b0394853092166111c2565b604051631a4ca37b60e21b81526001600160a01b0390911660048201526024810185905230604482015294859283919082906064820190565b03927f0000000000000000000000000000000000000000000000000000000000000000165af180156101f65761082a92600091610cf2575b5014610c00565b610d0b915060203d6020116101ef576101e18183610376565b38610ceb565b815160408301519296929091906001600160a01b0385169060ff1691608060608a0151990151823b156100dc5760405163d505accf60e01b81526001600160a01b03871660048201523060248201526044810195909552606485019190915260ff92909216608484015260a483019790975260c482015294600090869060e490829084905af19283156101f657610c7a85610cb394600098602097610dbf575b509450505092819550610c59565b80610dcc610dd292610346565b806101fb565b38610db1565b15610ddf57565b606460405162461bcd60e51b815260206004820152602060248201527f494e53554646494349454e545f42414c414e43455f4245464f52455f535741506044820152fd5b919082519283825260005b848110610e4f575050826000602080949584010152601f8019910116010190565b602081830181015184830182015201610e2e565b6020815260a06080610e80845183602086015260c0850190610e23565b93600180841b03602082015116604085015260408101516060850152606081015182850152015191015290565b6040516370a0823160e01b81523060048201526020969593946001600160a01b0392831694929392918881602481895afa9182156101f657600093610f01898c95610f6d958891610ffe575b501015610dd8565b867f00000000000000000000000000000000000000000000000000000000000000001691610f308a848b6112a9565b610f386103b9565b9182523085830152426040830152896060830152608082015260405194858094819363c04b8d5960e01b835260048301610e63565b03925af19687156101f657600097610fb9575b505060408051948552602085018790529116927fa078c4190abe07940190effc1846be0ccf03ad6007bc9e93f9697d0b460befbb9190a3565b7fa078c4190abe07940190effc1846be0ccf03ad6007bc9e93f9697d0b460befbb939297509081610ff592903d106101ef576101e18183610376565b95909138610f80565b6110159150873d89116101ef576101e18183610376565b38610ef9565b60405163a9059cbb60e01b60208083019182526001600160a01b03949094166024830152604480830195909552938152919290611059606484610376565b60018060a01b0316906040519261106f8461035a565b8484527f5361666545524332303a206c6f772d6c6576656c2063616c6c206661696c656485850152823b156110e0576110bb939260009283809351925af16110b5611261565b906113bd565b805190816110c857505050565b8261082a936110db938301019101611291565b61135e565b60405162461bcd60e51b815260048101869052601d60248201527f416464726573733a2063616c6c20746f206e6f6e2d636f6e74726163740000006044820152606490fd5b3d90811561118057506020146111735762461bcd60e51b6000526020600452601f6024527f475076323a206d616c666f726d6564207472616e7366657220726573756c740060445260646000fd5b3d6000803e600051151590565b90503b1561118d57600190565b62461bcd60e51b600052602060045260146024527311d41d8c8e881b9bdd08184818dbdb9d1c9858dd60621b60445260646000fd5b6040516323b872dd60e01b81526001600160a01b03928316600482015292909116602483015260448201929092526000908190819060649082865af115611259575061120d90611125565b1561121457565b60405162461bcd60e51b815260206004820152601960248201527f475076323a206661696c6564207472616e7366657246726f6d000000000000006044820152606490fd5b3d81803e3d90fd5b3d1561128c573d90611272826103d9565b916112806040519384610376565b82523d6000602084013e565b606090565b908160209103126100dc575180151581036100dc5790565b60405163095ea7b360e01b602082019081526001600160a01b0393909316602482015260448082019490945292835260009283929083906112eb606482610376565b51925af16112f7611261565b8161132f575b501561130557565b60405162461bcd60e51b8152602060048201526002602482015261534160f01b6044820152606490fd5b8051801592508215611344575b5050386112fd565b6113579250602080918301019101611291565b388061133c565b1561136557565b60405162461bcd60e51b815260206004820152602a60248201527f5361666545524332303a204552433230206f7065726174696f6e20646964206e6044820152691bdd081cdd58d8d9595960b21b6064820152608490fd5b909190156113c9575090565b8151156113d95750805190602001fd5b60405162461bcd60e51b8152602060048201529081906113fd906024830190610e23565b0390fdfea2646970667358221220afbccf0c89a280736a365d4052dc37f4c6985f6b2387a073d9e4796ef37ef64b64736f6c63430008180033",
  "devdoc": {
    "kind": "dev",
    "methods": {
      "owner()": {
        "details": "Returns the address of the current owner."
      },
      "renounceOwnership()": {
        "details": "Leaves the contract without owner. It will not be possible to call `onlyOwner` functions anymore. Can only be called by the current owner. NOTE: Renouncing ownership will leave the contract without an owner, thereby removing any functionality that is only available to the owner."
      },
      "rescueTokens(address)": {
        "details": "Emergency rescue for token stucked on this contract, as failsafe mechanism - Funds should never remain in this contract more time than during transactions - Only callable by the owner"
      },
      "transferOwnership(address)": {
        "details": "Transfers ownership of the contract to a new account (`newOwner`). Can only be called by the current owner."
      },
      "withdrawAndSwap(address,address,uint256,uint256,uint256,bytes,(uint256,uint256,uint8,bytes32,bytes32))": {
        "details": "Swaps an amount of an asset to another after a withdraw and transfers the new asset to the user. The user should give this contract allowance to pull the ATokens in order to withdraw the underlying asset and perform the swap.",
        "params": {
          "amountToSwap": "Amount to be swapped, or maximum amount when swapping all balance",
          "assetToSwapFrom": "Address of the underlying asset to be swapped from",
          "assetToSwapTo": "Address of the underlying asset to be swapped to",
          "minAmountToReceive": "Minimum amount to be received from the swap",
          "path": "Multi-hop path of the swap",
          "permitParams": "Struct containing the permit signatures, set to all zeroes if not used",
          "swapAllBalanceOffset": "Set to offset of fromAmount in Augustus calldata if wanting to swap all balance, otherwise 0"
        }
      }
    },
    "title": "DSwapWithdrawSwapAdapter",
    "version": 1
  },
  "userdoc": {
    "kind": "user",
    "methods": {},
    "notice": "Adapter to swap then withdraw using dSwap",
    "version": 1
  },
  "storageLayout": {
    "storage": [
      {
        "astId": 501,
        "contract": "contracts/lending/periphery/adapters/dswap/DSwapWithdrawSwapAdapter.sol:DSwapWithdrawSwapAdapter",
        "label": "_owner",
        "offset": 0,
        "slot": "0",
        "type": "t_address"
      },
      {
        "astId": 4218,
        "contract": "contracts/lending/periphery/adapters/dswap/DSwapWithdrawSwapAdapter.sol:DSwapWithdrawSwapAdapter",
        "label": "_status",
        "offset": 0,
        "slot": "1",
        "type": "t_uint256"
      }
    ],
    "types": {
      "t_address": {
        "encoding": "inplace",
        "label": "address",
        "numberOfBytes": "20"
      },
      "t_uint256": {
        "encoding": "inplace",
        "label": "uint256",
        "numberOfBytes": "32"
      }
    }
  }
}