{
  "address": "0x1B12654B0b9A936eb510A3d13cDd3F5Eb4B6442C",
  "abi": [
    {
      "inputs": [
        {
          "internalType": "address",
          "name": "_collateralVault",
          "type": "address"
        },
        {
          "internalType": "address",
          "name": "_dstable",
          "type": "address"
        },
        {
          "internalType": "contract IPriceOracleGetter",
          "name": "_oracle",
          "type": "address"
        },
        {
          "internalType": "address",
          "name": "_initialFeeReceiver",
          "type": "address"
        },
        {
          "internalType": "uint256",
          "name": "_initialRedemptionFeeBps",
          "type": "uint256"
        }
      ],
      "stateMutability": "nonpayable",
      "type": "constructor"
    },
    {
      "inputs": [],
      "name": "AccessControlBadConfirmation",
      "type": "error"
    },
    {
      "inputs": [
        {
          "internalType": "address",
          "name": "account",
          "type": "address"
        },
        {
          "internalType": "bytes32",
          "name": "neededRole",
          "type": "bytes32"
        }
      ],
      "name": "AccessControlUnauthorizedAccount",
      "type": "error"
    },
    {
      "inputs": [],
      "name": "CannotBeZeroAddress",
      "type": "error"
    },
    {
      "inputs": [
        {
          "internalType": "address",
          "name": "recipient",
          "type": "address"
        },
        {
          "internalType": "uint256",
          "name": "amount",
          "type": "uint256"
        },
        {
          "internalType": "address",
          "name": "token",
          "type": "address"
        }
      ],
      "name": "CollateralTransferFailed",
      "type": "error"
    },
    {
      "inputs": [],
      "name": "DStableTransferFailed",
      "type": "error"
    },
    {
      "inputs": [
        {
          "internalType": "uint256",
          "name": "requestedFeeBps",
          "type": "uint256"
        },
        {
          "internalType": "uint256",
          "name": "maxFeeBps",
          "type": "uint256"
        }
      ],
      "name": "FeeTooHigh",
      "type": "error"
    },
    {
      "inputs": [
        {
          "internalType": "uint256",
          "name": "baseCurrencyUnit",
          "type": "uint256"
        }
      ],
      "name": "IncorrectBaseCurrencyUnit",
      "type": "error"
    },
    {
      "inputs": [],
      "name": "MathOverflowedMulDiv",
      "type": "error"
    },
    {
      "inputs": [
        {
          "internalType": "uint256",
          "name": "actualCollateral",
          "type": "uint256"
        },
        {
          "internalType": "uint256",
          "name": "minCollateral",
          "type": "uint256"
        }
      ],
      "name": "SlippageTooHigh",
      "type": "error"
    },
    {
      "inputs": [
        {
          "internalType": "address",
          "name": "collateralAsset",
          "type": "address"
        }
      ],
      "name": "UnsupportedCollateral",
      "type": "error"
    },
    {
      "anonymous": false,
      "inputs": [
        {
          "indexed": true,
          "internalType": "address",
          "name": "collateralAsset",
          "type": "address"
        },
        {
          "indexed": false,
          "internalType": "uint256",
          "name": "oldFeeBps",
          "type": "uint256"
        },
        {
          "indexed": false,
          "internalType": "uint256",
          "name": "newFeeBps",
          "type": "uint256"
        }
      ],
      "name": "CollateralRedemptionFeeUpdated",
      "type": "event"
    },
    {
      "anonymous": false,
      "inputs": [
        {
          "indexed": false,
          "internalType": "uint256",
          "name": "oldFeeBps",
          "type": "uint256"
        },
        {
          "indexed": false,
          "internalType": "uint256",
          "name": "newFeeBps",
          "type": "uint256"
        }
      ],
      "name": "DefaultRedemptionFeeUpdated",
      "type": "event"
    },
    {
      "anonymous": false,
      "inputs": [
        {
          "indexed": true,
          "internalType": "address",
          "name": "oldFeeReceiver",
          "type": "address"
        },
        {
          "indexed": true,
          "internalType": "address",
          "name": "newFeeReceiver",
          "type": "address"
        }
      ],
      "name": "FeeReceiverUpdated",
      "type": "event"
    },
    {
      "anonymous": false,
      "inputs": [
        {
          "indexed": true,
          "internalType": "address",
          "name": "newOracle",
          "type": "address"
        }
      ],
      "name": "OracleSet",
      "type": "event"
    },
    {
      "anonymous": false,
      "inputs": [
        {
          "indexed": true,
          "internalType": "address",
          "name": "redeemer",
          "type": "address"
        },
        {
          "indexed": true,
          "internalType": "address",
          "name": "collateralAsset",
          "type": "address"
        },
        {
          "indexed": false,
          "internalType": "uint256",
          "name": "dstableAmount",
          "type": "uint256"
        },
        {
          "indexed": false,
          "internalType": "uint256",
          "name": "collateralAmountToRedeemer",
          "type": "uint256"
        },
        {
          "indexed": false,
          "internalType": "uint256",
          "name": "feeAmountCollateral",
          "type": "uint256"
        }
      ],
      "name": "Redemption",
      "type": "event"
    },
    {
      "anonymous": false,
      "inputs": [
        {
          "indexed": true,
          "internalType": "bytes32",
          "name": "role",
          "type": "bytes32"
        },
        {
          "indexed": true,
          "internalType": "bytes32",
          "name": "previousAdminRole",
          "type": "bytes32"
        },
        {
          "indexed": true,
          "internalType": "bytes32",
          "name": "newAdminRole",
          "type": "bytes32"
        }
      ],
      "name": "RoleAdminChanged",
      "type": "event"
    },
    {
      "anonymous": false,
      "inputs": [
        {
          "indexed": true,
          "internalType": "bytes32",
          "name": "role",
          "type": "bytes32"
        },
        {
          "indexed": true,
          "internalType": "address",
          "name": "account",
          "type": "address"
        },
        {
          "indexed": true,
          "internalType": "address",
          "name": "sender",
          "type": "address"
        }
      ],
      "name": "RoleGranted",
      "type": "event"
    },
    {
      "anonymous": false,
      "inputs": [
        {
          "indexed": true,
          "internalType": "bytes32",
          "name": "role",
          "type": "bytes32"
        },
        {
          "indexed": true,
          "internalType": "address",
          "name": "account",
          "type": "address"
        },
        {
          "indexed": true,
          "internalType": "address",
          "name": "sender",
          "type": "address"
        }
      ],
      "name": "RoleRevoked",
      "type": "event"
    },
    {
      "inputs": [],
      "name": "DEFAULT_ADMIN_ROLE",
      "outputs": [
        {
          "internalType": "bytes32",
          "name": "",
          "type": "bytes32"
        }
      ],
      "stateMutability": "view",
      "type": "function"
    },
    {
      "inputs": [],
      "name": "MAX_FEE_BPS",
      "outputs": [
        {
          "internalType": "uint256",
          "name": "",
          "type": "uint256"
        }
      ],
      "stateMutability": "view",
      "type": "function"
    },
    {
      "inputs": [],
      "name": "REDEMPTION_MANAGER_ROLE",
      "outputs": [
        {
          "internalType": "bytes32",
          "name": "",
          "type": "bytes32"
        }
      ],
      "stateMutability": "view",
      "type": "function"
    },
    {
      "inputs": [],
      "name": "baseCurrencyUnit",
      "outputs": [
        {
          "internalType": "uint256",
          "name": "",
          "type": "uint256"
        }
      ],
      "stateMutability": "view",
      "type": "function"
    },
    {
      "inputs": [
        {
          "internalType": "address",
          "name": "",
          "type": "address"
        }
      ],
      "name": "collateralRedemptionFeeBps",
      "outputs": [
        {
          "internalType": "uint256",
          "name": "",
          "type": "uint256"
        }
      ],
      "stateMutability": "view",
      "type": "function"
    },
    {
      "inputs": [],
      "name": "collateralVault",
      "outputs": [
        {
          "internalType": "contract CollateralVault",
          "name": "",
          "type": "address"
        }
      ],
      "stateMutability": "view",
      "type": "function"
    },
    {
      "inputs": [],
      "name": "defaultRedemptionFeeBps",
      "outputs": [
        {
          "internalType": "uint256",
          "name": "",
          "type": "uint256"
        }
      ],
      "stateMutability": "view",
      "type": "function"
    },
    {
      "inputs": [],
      "name": "dstable",
      "outputs": [
        {
          "internalType": "contract IMintableERC20",
          "name": "",
          "type": "address"
        }
      ],
      "stateMutability": "view",
      "type": "function"
    },
    {
      "inputs": [
        {
          "internalType": "uint256",
          "name": "_dstableAmount",
          "type": "uint256"
        }
      ],
      "name": "dstableAmountToBaseValue",
      "outputs": [
        {
          "internalType": "uint256",
          "name": "",
          "type": "uint256"
        }
      ],
      "stateMutability": "view",
      "type": "function"
    },
    {
      "inputs": [],
      "name": "dstableDecimals",
      "outputs": [
        {
          "internalType": "uint8",
          "name": "",
          "type": "uint8"
        }
      ],
      "stateMutability": "view",
      "type": "function"
    },
    {
      "inputs": [],
      "name": "feeReceiver",
      "outputs": [
        {
          "internalType": "address",
          "name": "",
          "type": "address"
        }
      ],
      "stateMutability": "view",
      "type": "function"
    },
    {
      "inputs": [
        {
          "internalType": "bytes32",
          "name": "role",
          "type": "bytes32"
        }
      ],
      "name": "getRoleAdmin",
      "outputs": [
        {
          "internalType": "bytes32",
          "name": "",
          "type": "bytes32"
        }
      ],
      "stateMutability": "view",
      "type": "function"
    },
    {
      "inputs": [
        {
          "internalType": "bytes32",
          "name": "role",
          "type": "bytes32"
        },
        {
          "internalType": "address",
          "name": "account",
          "type": "address"
        }
      ],
      "name": "grantRole",
      "outputs": [],
      "stateMutability": "nonpayable",
      "type": "function"
    },
    {
      "inputs": [
        {
          "internalType": "bytes32",
          "name": "role",
          "type": "bytes32"
        },
        {
          "internalType": "address",
          "name": "account",
          "type": "address"
        }
      ],
      "name": "hasRole",
      "outputs": [
        {
          "internalType": "bool",
          "name": "",
          "type": "bool"
        }
      ],
      "stateMutability": "view",
      "type": "function"
    },
    {
      "inputs": [],
      "name": "oracle",
      "outputs": [
        {
          "internalType": "contract IPriceOracleGetter",
          "name": "",
          "type": "address"
        }
      ],
      "stateMutability": "view",
      "type": "function"
    },
    {
      "inputs": [
        {
          "internalType": "uint256",
          "name": "dstableAmount",
          "type": "uint256"
        },
        {
          "internalType": "address",
          "name": "collateralAsset",
          "type": "address"
        },
        {
          "internalType": "uint256",
          "name": "minNetCollateral",
          "type": "uint256"
        }
      ],
      "name": "redeem",
      "outputs": [],
      "stateMutability": "nonpayable",
      "type": "function"
    },
    {
      "inputs": [
        {
          "internalType": "uint256",
          "name": "dstableAmount",
          "type": "uint256"
        },
        {
          "internalType": "address",
          "name": "collateralAsset",
          "type": "address"
        },
        {
          "internalType": "uint256",
          "name": "minCollateral",
          "type": "uint256"
        }
      ],
      "name": "redeemAsProtocol",
      "outputs": [],
      "stateMutability": "nonpayable",
      "type": "function"
    },
    {
      "inputs": [
        {
          "internalType": "bytes32",
          "name": "role",
          "type": "bytes32"
        },
        {
          "internalType": "address",
          "name": "callerConfirmation",
          "type": "address"
        }
      ],
      "name": "renounceRole",
      "outputs": [],
      "stateMutability": "nonpayable",
      "type": "function"
    },
    {
      "inputs": [
        {
          "internalType": "bytes32",
          "name": "role",
          "type": "bytes32"
        },
        {
          "internalType": "address",
          "name": "account",
          "type": "address"
        }
      ],
      "name": "revokeRole",
      "outputs": [],
      "stateMutability": "nonpayable",
      "type": "function"
    },
    {
      "inputs": [
        {
          "internalType": "uint256",
          "name": "_newBaseCurrencyUnit",
          "type": "uint256"
        }
      ],
      "name": "setBaseCurrencyUnit",
      "outputs": [],
      "stateMutability": "nonpayable",
      "type": "function"
    },
    {
      "inputs": [
        {
          "internalType": "address",
          "name": "_collateralAsset",
          "type": "address"
        },
        {
          "internalType": "uint256",
          "name": "_newFeeBps",
          "type": "uint256"
        }
      ],
      "name": "setCollateralRedemptionFee",
      "outputs": [],
      "stateMutability": "nonpayable",
      "type": "function"
    },
    {
      "inputs": [
        {
          "internalType": "address",
          "name": "_collateralVault",
          "type": "address"
        }
      ],
      "name": "setCollateralVault",
      "outputs": [],
      "stateMutability": "nonpayable",
      "type": "function"
    },
    {
      "inputs": [
        {
          "internalType": "uint256",
          "name": "_newFeeBps",
          "type": "uint256"
        }
      ],
      "name": "setDefaultRedemptionFee",
      "outputs": [],
      "stateMutability": "nonpayable",
      "type": "function"
    },
    {
      "inputs": [
        {
          "internalType": "address",
          "name": "_newFeeReceiver",
          "type": "address"
        }
      ],
      "name": "setFeeReceiver",
      "outputs": [],
      "stateMutability": "nonpayable",
      "type": "function"
    },
    {
      "inputs": [
        {
          "internalType": "contract IPriceOracleGetter",
          "name": "newOracle",
          "type": "address"
        }
      ],
      "name": "setOracle",
      "outputs": [],
      "stateMutability": "nonpayable",
      "type": "function"
    },
    {
      "inputs": [
        {
          "internalType": "bytes4",
          "name": "interfaceId",
          "type": "bytes4"
        }
      ],
      "name": "supportsInterface",
      "outputs": [
        {
          "internalType": "bool",
          "name": "",
          "type": "bool"
        }
      ],
      "stateMutability": "view",
      "type": "function"
    }
  ],
  "transactionHash": "0x96cb988f5531132d48bfb11eb6eb7570be38a8efce5851f731bc2ad0c2d67785",
  "args": [
    "0xDEDdcd6bC95D317Af8B84523E1D8a1345A6C2602",
    "0x4D6E79013212F10A026A1FB0b926C9Fd0432b96c",
    "0xa741BA2830cbF7A3432D96A6e188af0132792Cb9",
    "0x53Ae1433Ab4563d7D5a84d27524784837259f105",
    4000
  ],
  "numDeployments": 1,
  "solcInputHash": "ad5d8cb6d85c1e685986b758c866de4e",
  "bytecode": "0x60c060409080825234620002c05760a081620016158038038091620000258285620002d8565b833981010312620002c0576200003b8162000312565b60206200004a81840162000312565b838501516001600160a01b038082169492939291859003620002c0576080620000766060880162000312565b96015193875196638c89b64f60e01b8852600493858986818b5afa988915620002cd5760009962000293575b50839060018060a01b031999898b6001541617600155600255620000c63362000327565b501696871590811562000287575b81156200027d575b506200026d5782169586156200026d5761c350806080528087116200025157509184939291899796959289855416178455168088600354161760035586519283809263313ce56760e01b82525afa9081156200024657600091620001e3575b50600080516020620015f583398151915295849160a052600554161760055581600655620001693362000327565b506200017533620003a7565b5083519260007fa92ff4390fe6943f0b30e8fe715dde86f85ab79b2b2c640a10fc094cc4036cc88180a360008352820152a15161118b90816200044a8239608051818181610228015281816104b80152818161058a0152610723015260a0518181816109ba0152610cff0152f35b909180949693955081813d83116200023e575b620002028183620002d8565b810103126200023a57519060ff821682036200023757509093859390929091600080516020620015f58339815191526200013b565b80fd5b5080fd5b503d620001f6565b85513d6000823e3d90fd5b84604491888c51926373ab893560e11b84528301526024820152fd5b8851631e7d738760e21b81528490fd5b90501538620000dc565b838516159150620000d4565b9098508581813d8311620002c5575b620002ae8183620002d8565b81010312620002c057519783620000a2565b600080fd5b503d620002a2565b8a513d6000823e3d90fd5b601f909101601f19168101906001600160401b03821190821017620002fc57604052565b634e487b7160e01b600052604160045260246000fd5b51906001600160a01b0382168203620002c057565b6001600160a01b031660008181527fad3228b676f7d3cd4284a5443f17f1962b36e491b30a40b2405849e597ba5fb5602052604081205490919060ff16620003a357818052816020526040822081835260205260408220600160ff198254161790553391600080516020620015d58339815191528180a4600190565b5090565b6001600160a01b031660008181527f44fc73d2262b57a66d75404c7d11906326ef0260bbf18c0d8a6b3309e74a052360205260408120549091907fe5bea7d829f723a95a0c83a655765be37702fa584514c1e2a20867d04b58478e9060ff166200044457808352826020526040832082845260205260408320600160ff19825416179055600080516020620015d5833981519152339380a4600190565b50509056fe608060408181526004918236101561001657600080fd5b600092833560e01c91826301ffc9a714610bfd575081630bece79c14610bd557816314aa112214610a5f5781631cd7ec9214610a405781631d9f78bb14610a08578163248a9ca3146109de57816326663911146109a05781632f2ff15d1461097657816336568abe146109305781634a0bbabb1461090e57816368a806c4146108b85781637adbf973146107c75781637dc0d1d01461079e57816387c0d8e8146107045781638ade91ec146106c957816391d148541461068357816391e5287b1461065957816397fe30ef14610630578163a217fddf14610615578163b3f00674146105ec578163d547741f146105ad578163d55be8c614610572578163d8780161146102ba578163ef8fa40f146101ef578163efdcd97414610164575063f3bddde11461014357600080fd5b346101605781600319360112610160576020906002549051908152f35b5080fd5b9050346101eb5760203660031901126101eb5761017f610c50565b90610188610d66565b6001600160a01b039182169283156101de575050600554826bffffffffffffffffffffffff60a01b821617600555167fa92ff4390fe6943f0b30e8fe715dde86f85ab79b2b2c640a10fc094cc4036cc88380a380f35b51631e7d738760e21b8152fd5b8280fd5b919050346101eb57806003193601126101eb5761020a610c50565b60243590610216610d66565b6001600160a01b03169283156102ac577f0000000000000000000000000000000000000000000000000000000000000000808311610292575050907ff57528c54dc2b58b410fa6141e1c2923da55bf8a7193244e8d60ad07c5e5db7e91838552600760205281852090808254925582519182526020820152a280f35b6044928451926373ab893560e11b84528301526024820152fd5b8251631e7d738760e21b8152fd5b919050346101eb576102cb36610c81565b91929060018060a01b03908186541695835192637d35e97760e11b84528083169788838601526020948581602481855afa908115610568578b9161053b575b501561052457908484610353969594936103238b610cf7565b8951632e11f7b760e11b81528681019182526001600160a01b039093166020820152919788928391829160400190565b03915afa94851561051a578a956104e7575b508996898b5260078552868b205480156104de575b8061048d575b5087860395861161047a5780861061045e57509089916103a286858b33610de4565b876103e0575b5050505082519485528401528201527f4f808f68134f8b72b842a276c2b37b03415d4992c65a94fcee50d33201915b9960603392a380f35b808254169060055416813b1561045a57875163627160f360e11b81526001600160a01b03918216938101938452602084018a905294166040830152839182908490829060600103925af180156104505761043d575b8781806103a8565b61044990979197610cab565b9538610435565b84513d8a823e3d90fd5b8380fd5b8260449187895192633b5d56ed60e11b84528301526024820152fd5b634e487b7160e01b8b526011835260248bfd5b9750610499888761103e565b978689111561038057836044918951916373ab893560e11b83528201527f00000000000000000000000000000000000000000000000000000000000000006024820152fd5b5060065461037a565b9094508381813d8311610513575b6104ff8183610cd5565b8101031261050f57519338610365565b8980fd5b503d6104f5565b86513d8c823e3d90fd5b8551632762993f60e11b81528084018a9052602490fd5b61055b9150863d8811610561575b6105538183610cd5565b810190610d4e565b3861030a565b503d610549565b87513d8d823e3d90fd5b505034610160578160031936011261016057602090517f00000000000000000000000000000000000000000000000000000000000000008152f35b919050346101eb57806003193601126101eb576105e891356105e360016105d2610c6b565b938387528660205286200154610dbe565b610fc9565b5080f35b50503461016057816003193601126101605760055490516001600160a01b039091168152602090f35b50503461016057816003193601126101605751908152602090f35b50503461016057816003193601126101605760035490516001600160a01b039091168152602090f35b828434610680576020366003190112610680575061067960209235610cf7565b9051908152f35b80fd5b9050346101eb57816003193601126101eb578160209360ff926106a4610c6b565b903582528186528282206001600160a01b039091168252855220549151911615158152f35b505034610160578160031936011261016057602090517fe5bea7d829f723a95a0c83a655765be37702fa584514c1e2a20867d04b58478e8152f35b838334610160576020366003190112610160578235610721610d66565b7f00000000000000000000000000000000000000000000000000000000000000008082116107835750907f261a1976409379837155987d2c6a5667d9473be9504ab5387b4dc8ff65da6eb291600654908060065582519182526020820152a180f35b849160449351926373ab893560e11b84528301526024820152fd5b50503461016057816003193601126101605760015490516001600160a01b039091168152602090f35b9050346101eb5760203660031901126101eb5780356001600160a01b038116929083900361045a576107f7610d66565b8051638c89b64f60e01b8152906020828481875afa9182156108ae578592610876575b50600254809203610861575050600180546001600160a01b03191683179055507f3f32684a32a11dabdbb8c0177de80aa3ae36a004d75210335b49e544e48cd0aa8280a280f35b51639b6812b960e01b81529182015260249150fd5b9091506020813d6020116108a6575b8161089260209383610cd5565b810103126108a25751903861081a565b8480fd5b3d9150610885565b81513d87823e3d90fd5b919050346101eb5760203660031901126101eb576108d4610c50565b6108dc610d66565b6001600160a01b03169081156108ff575081546001600160a01b03191617905580f35b51631e7d738760e21b81529050fd5b83903461016057602036600319011261016057610929610d66565b3560025580f35b83833461016057806003193601126101605761094a610c6b565b90336001600160a01b0383160361096757506105e8919235610fc9565b5163334bd91960e11b81528390fd5b919050346101eb57806003193601126101eb576105e8913561099b60016105d2610c6b565b610f4b565b5050346101605781600319360112610160576020905160ff7f0000000000000000000000000000000000000000000000000000000000000000168152f35b9050346101eb5760203660031901126101eb57816020936001923581528085522001549051908152f35b5050346101605760203660031901126101605760209181906001600160a01b03610a30610c50565b1681526007845220549051908152f35b5050346101605781600319360112610160576020906006549051908152f35b919050346101eb57610a7036610c81565b929091937fe5bea7d829f723a95a0c83a655765be37702fa584514c1e2a20867d04b58478e90818752602091878352838820338952835260ff848920541615610bb8575090610afd91610ac287610cf7565b81548551632e11f7b760e11b81528084019283526001600160a01b038089166020850152989095909285928792908b16918391829160400190565b03915afa938415610bae578994610b7b575b50808410610b5f57505090869291610b2982868933610de4565b825196875286015284015216907f4f808f68134f8b72b842a276c2b37b03415d4992c65a94fcee50d33201915b9960603392a380f35b9150916044935192633b5d56ed60e11b84528301526024820152fd5b9093508281813d8311610ba7575b610b938183610cd5565b81010312610ba357519238610b0f565b8880fd5b503d610b89565b85513d8b823e3d90fd5b6044925083519163e2517d3f60e01b835233908301526024820152fd5b9050346101eb57826003193601126101eb575490516001600160a01b03909116815260209150f35b8491346101eb5760203660031901126101eb573563ffffffff60e01b81168091036101eb5760209250637965db0b60e01b8114908115610c3f575b5015158152f35b6301ffc9a760e01b14905083610c38565b600435906001600160a01b0382168203610c6657565b600080fd5b602435906001600160a01b0382168203610c6657565b6060906003190112610c6657600435906024356001600160a01b0381168103610c66579060443590565b67ffffffffffffffff8111610cbf57604052565b634e487b7160e01b600052604160045260246000fd5b90601f8019910116810190811067ffffffffffffffff821117610cbf57604052565b6002549060ff7f00000000000000000000000000000000000000000000000000000000000000001691604d8311610d3857610d3592600a0a916110bb565b90565b634e487b7160e01b600052601160045260246000fd5b90816020910312610c6657518015158103610c665790565b3360009081527fad3228b676f7d3cd4284a5443f17f1962b36e491b30a40b2405849e597ba5fb5602052604081205460ff1615610da05750565b6044906040519063e2517d3f60e01b82523360048301526024820152fd5b80600052600060205260406000203360005260205260ff6040600020541615610da05750565b600354604080516323b872dd60e01b81526001600160a01b03808516600483015230602483015260448201869052600097929695929390929190602090829060649082908c9088165af1908115610f41578891610f22575b5015610f1157816003541690813b15610f0d5787916024839289519485938492630852cd8d60e31b845260048401525af18015610f0357610ef0575b506004541691823b15610eec57845163627160f360e11b81526001600160a01b039182166004820152602481019290925292909216604483015290919083908390606490829084905af1908115610ee35750610ed2575050565b610edc8291610cab565b6106805750565b513d84823e3d90fd5b8580fd5b610efc90969196610cab565b9438610e78565b86513d89823e3d90fd5b8780fd5b8551633375730560e01b8152600490fd5b610f3b915060203d602011610561576105538183610cd5565b38610e3c565b87513d8a823e3d90fd5b9060009180835282602052604083209160018060a01b03169182845260205260ff60408420541615600014610fc457808352826020526040832082845260205260408320600160ff198254161790557f2f8788117e7eff1d82e926ec794901d17c78024a50270940304540a733656f0d339380a4600190565b505090565b9060009180835282602052604083209160018060a01b03169182845260205260ff604084205416600014610fc45780835282602052604083208284526020526040832060ff1981541690557ff6391f5c32d9c69d2a47ea670b442974b53935d1edc7fd64eb21e047a839171b339380a4600190565b9080820290600019818409908280831092039180830392146110af57620f4240908282111561109d577fde8f6cefed634549b62c77574f722e1ac57e23f24d8fd5cb790fb65668c26139940990828211900360fa1b910360061c170290565b60405163227bc15360e01b8152600490fd5b5050620f424091500490565b90918282029160001984820993838086109503948086039514611131578483111561109d5782910981600003821680920460028082600302188083028203028083028203028083028203028083028203028083028203028092029003029360018380600003040190848311900302920304170290565b50508092501561113f570490565b634e487b7160e01b600052601260045260246000fdfea264697066735822122042b90307440071b8614d1cb7c8f4f0edc1ac323a213cb08dd52f7b1bbb0fff1464736f6c634300081800332f8788117e7eff1d82e926ec794901d17c78024a50270940304540a733656f0d261a1976409379837155987d2c6a5667d9473be9504ab5387b4dc8ff65da6eb2",
  "devdoc": {
    "errors": {
      "AccessControlBadConfirmation()": [
        {
          "details": "The caller of a function is not the expected one. NOTE: Don't confuse with {AccessControlUnauthorizedAccount}."
        }
      ],
      "AccessControlUnauthorizedAccount(address,bytes32)": [
        {
          "details": "The `account` is missing a role."
        }
      ],
      "MathOverflowedMulDiv()": [
        {
          "details": "Muldiv operation overflow."
        }
      ]
    },
    "events": {
      "RoleAdminChanged(bytes32,bytes32,bytes32)": {
        "details": "Emitted when `newAdminRole` is set as ``role``'s admin role, replacing `previousAdminRole` `DEFAULT_ADMIN_ROLE` is the starting admin for all roles, despite {RoleAdminChanged} not being emitted signaling this."
      },
      "RoleGranted(bytes32,address,address)": {
        "details": "Emitted when `account` is granted `role`. `sender` is the account that originated the contract call, an admin role bearer except when using {AccessControl-_setupRole}."
      },
      "RoleRevoked(bytes32,address,address)": {
        "details": "Emitted when `account` is revoked `role`. `sender` is the account that originated the contract call:   - if using `revokeRole`, it is the admin role bearer   - if using `renounceRole`, it is the role bearer (i.e. `account`)"
      }
    },
    "kind": "dev",
    "methods": {
      "constructor": {
        "details": "Sets up initial roles and configuration for redemption functionality",
        "params": {
          "_collateralVault": "The address of the collateral vault",
          "_dstable": "The address of the dStable stablecoin",
          "_initialFeeReceiver": "The initial address to receive redemption fees",
          "_initialRedemptionFeeBps": "The initial redemption fee in basis points",
          "_oracle": "The address of the price oracle"
        }
      },
      "dstableAmountToBaseValue(uint256)": {
        "params": {
          "_dstableAmount": "The amount of dStable tokens to convert."
        },
        "returns": {
          "_0": "The equivalent base value."
        }
      },
      "getRoleAdmin(bytes32)": {
        "details": "Returns the admin role that controls `role`. See {grantRole} and {revokeRole}. To change a role's admin, use {_setRoleAdmin}."
      },
      "grantRole(bytes32,address)": {
        "details": "Grants `role` to `account`. If `account` had not been already granted `role`, emits a {RoleGranted} event. Requirements: - the caller must have ``role``'s admin role. May emit a {RoleGranted} event."
      },
      "hasRole(bytes32,address)": {
        "details": "Returns `true` if `account` has been granted `role`."
      },
      "redeem(uint256,address,uint256)": {
        "params": {
          "collateralAsset": "The address of the collateral asset.",
          "dstableAmount": "The amount of dStable to redeem.",
          "minNetCollateral": "The minimum amount of collateral to receive after fees, for slippage protection."
        }
      },
      "redeemAsProtocol(uint256,address,uint256)": {
        "params": {
          "collateralAsset": "The address of the collateral asset.",
          "dstableAmount": "The amount of dStable to redeem.",
          "minCollateral": "The minimum amount of collateral to receive, for slippage protection."
        }
      },
      "renounceRole(bytes32,address)": {
        "details": "Revokes `role` from the calling account. Roles are often managed via {grantRole} and {revokeRole}: this function's purpose is to provide a mechanism for accounts to lose their privileges if they are compromised (such as when a trusted device is misplaced). If the calling account had been revoked `role`, emits a {RoleRevoked} event. Requirements: - the caller must be `callerConfirmation`. May emit a {RoleRevoked} event."
      },
      "revokeRole(bytes32,address)": {
        "details": "Revokes `role` from `account`. If `account` had been granted `role`, emits a {RoleRevoked} event. Requirements: - the caller must have ``role``'s admin role. May emit a {RoleRevoked} event."
      },
      "setBaseCurrencyUnit(uint256)": {
        "details": "Only used if the oracle's base currency unit changes",
        "params": {
          "_newBaseCurrencyUnit": "The new base currency unit to set"
        }
      },
      "setCollateralRedemptionFee(address,uint256)": {
        "params": {
          "_collateralAsset": "The address of the collateral asset.",
          "_newFeeBps": "The new redemption fee for the specified asset (e.g., 10000 for 1%)."
        }
      },
      "setCollateralVault(address)": {
        "params": {
          "_collateralVault": "The address of the new collateral vault."
        }
      },
      "setDefaultRedemptionFee(uint256)": {
        "params": {
          "_newFeeBps": "The new default redemption fee (e.g., 10000 for 1%)."
        }
      },
      "setFeeReceiver(address)": {
        "params": {
          "_newFeeReceiver": "The address of the new fee receiver."
        }
      },
      "setOracle(address)": {
        "params": {
          "newOracle": "The new oracle to use"
        }
      },
      "supportsInterface(bytes4)": {
        "details": "See {IERC165-supportsInterface}."
      }
    },
    "version": 1
  },
  "userdoc": {
    "kind": "user",
    "methods": {
      "constructor": {
        "notice": "Initializes the RedeemerWithFees contract"
      },
      "dstableAmountToBaseValue(uint256)": {
        "notice": "Converts an amount of dStable tokens to its equivalent base value."
      },
      "redeem(uint256,address,uint256)": {
        "notice": "Allows anyone to redeem dStable tokens for collateral, subject to a fee."
      },
      "redeemAsProtocol(uint256,address,uint256)": {
        "notice": "Allows the REDEMPTION_MANAGER_ROLE to redeem dStable tokens for collateral without fees."
      },
      "setBaseCurrencyUnit(uint256)": {
        "notice": "Updates the base currency unit used for price calculations"
      },
      "setCollateralRedemptionFee(address,uint256)": {
        "notice": "Sets the redemption fee for a specific collateral asset in basis points."
      },
      "setCollateralVault(address)": {
        "notice": "Sets the collateral vault address."
      },
      "setDefaultRedemptionFee(uint256)": {
        "notice": "Sets the default redemption fee in basis points."
      },
      "setFeeReceiver(address)": {
        "notice": "Sets the fee receiver address."
      },
      "setOracle(address)": {
        "notice": "Sets the oracle to use for collateral valuation"
      }
    },
    "version": 1
  },
  "storageLayout": {
    "storage": [
      {
        "astId": 193,
        "contract": "contracts/dstable/RedeemerWithFees.sol:RedeemerWithFees",
        "label": "_roles",
        "offset": 0,
        "slot": "0",
        "type": "t_mapping(t_bytes32,t_struct(RoleData)188_storage)"
      },
      {
        "astId": 30092,
        "contract": "contracts/dstable/RedeemerWithFees.sol:RedeemerWithFees",
        "label": "oracle",
        "offset": 0,
        "slot": "1",
        "type": "t_contract(IPriceOracleGetter)38894"
      },
      {
        "astId": 30094,
        "contract": "contracts/dstable/RedeemerWithFees.sol:RedeemerWithFees",
        "label": "baseCurrencyUnit",
        "offset": 0,
        "slot": "2",
        "type": "t_uint256"
      },
      {
        "astId": 26330,
        "contract": "contracts/dstable/RedeemerWithFees.sol:RedeemerWithFees",
        "label": "dstable",
        "offset": 0,
        "slot": "3",
        "type": "t_contract(IMintableERC20)15862"
      },
      {
        "astId": 26335,
        "contract": "contracts/dstable/RedeemerWithFees.sol:RedeemerWithFees",
        "label": "collateralVault",
        "offset": 0,
        "slot": "4",
        "type": "t_contract(CollateralVault)28735"
      },
      {
        "astId": 26337,
        "contract": "contracts/dstable/RedeemerWithFees.sol:RedeemerWithFees",
        "label": "feeReceiver",
        "offset": 0,
        "slot": "5",
        "type": "t_address"
      },
      {
        "astId": 26339,
        "contract": "contracts/dstable/RedeemerWithFees.sol:RedeemerWithFees",
        "label": "defaultRedemptionFeeBps",
        "offset": 0,
        "slot": "6",
        "type": "t_uint256"
      },
      {
        "astId": 26343,
        "contract": "contracts/dstable/RedeemerWithFees.sol:RedeemerWithFees",
        "label": "collateralRedemptionFeeBps",
        "offset": 0,
        "slot": "7",
        "type": "t_mapping(t_address,t_uint256)"
      }
    ],
    "types": {
      "t_address": {
        "encoding": "inplace",
        "label": "address",
        "numberOfBytes": "20"
      },
      "t_bool": {
        "encoding": "inplace",
        "label": "bool",
        "numberOfBytes": "1"
      },
      "t_bytes32": {
        "encoding": "inplace",
        "label": "bytes32",
        "numberOfBytes": "32"
      },
      "t_contract(CollateralVault)28735": {
        "encoding": "inplace",
        "label": "contract CollateralVault",
        "numberOfBytes": "20"
      },
      "t_contract(IMintableERC20)15862": {
        "encoding": "inplace",
        "label": "contract IMintableERC20",
        "numberOfBytes": "20"
      },
      "t_contract(IPriceOracleGetter)38894": {
        "encoding": "inplace",
        "label": "contract IPriceOracleGetter",
        "numberOfBytes": "20"
      },
      "t_mapping(t_address,t_bool)": {
        "encoding": "mapping",
        "key": "t_address",
        "label": "mapping(address => bool)",
        "numberOfBytes": "32",
        "value": "t_bool"
      },
      "t_mapping(t_address,t_uint256)": {
        "encoding": "mapping",
        "key": "t_address",
        "label": "mapping(address => uint256)",
        "numberOfBytes": "32",
        "value": "t_uint256"
      },
      "t_mapping(t_bytes32,t_struct(RoleData)188_storage)": {
        "encoding": "mapping",
        "key": "t_bytes32",
        "label": "mapping(bytes32 => struct AccessControl.RoleData)",
        "numberOfBytes": "32",
        "value": "t_struct(RoleData)188_storage"
      },
      "t_struct(RoleData)188_storage": {
        "encoding": "inplace",
        "label": "struct AccessControl.RoleData",
        "members": [
          {
            "astId": 185,
            "contract": "contracts/dstable/RedeemerWithFees.sol:RedeemerWithFees",
            "label": "hasRole",
            "offset": 0,
            "slot": "0",
            "type": "t_mapping(t_address,t_bool)"
          },
          {
            "astId": 187,
            "contract": "contracts/dstable/RedeemerWithFees.sol:RedeemerWithFees",
            "label": "adminRole",
            "offset": 0,
            "slot": "1",
            "type": "t_bytes32"
          }
        ],
        "numberOfBytes": "64"
      },
      "t_uint256": {
        "encoding": "inplace",
        "label": "uint256",
        "numberOfBytes": "32"
      }
    }
  }
}