{
  "address": "0x17E44D2c40FC9a625eE4ddF5F06F450c115D1144",
  "abi": [
    {
      "inputs": [
        {
          "internalType": "string",
          "name": "_name",
          "type": "string"
        },
        {
          "internalType": "string",
          "name": "_symbol",
          "type": "string"
        },
        {
          "internalType": "address",
          "name": "_dstakeToken",
          "type": "address"
        },
        {
          "internalType": "uint256",
          "name": "_vestingPeriod",
          "type": "uint256"
        },
        {
          "internalType": "uint256",
          "name": "_maxTotalSupply",
          "type": "uint256"
        },
        {
          "internalType": "uint256",
          "name": "_minDepositAmount",
          "type": "uint256"
        },
        {
          "internalType": "address",
          "name": "_initialOwner",
          "type": "address"
        }
      ],
      "stateMutability": "nonpayable",
      "type": "constructor"
    },
    {
      "inputs": [
        {
          "internalType": "address",
          "name": "target",
          "type": "address"
        }
      ],
      "name": "AddressEmptyCode",
      "type": "error"
    },
    {
      "inputs": [
        {
          "internalType": "address",
          "name": "account",
          "type": "address"
        }
      ],
      "name": "AddressInsufficientBalance",
      "type": "error"
    },
    {
      "inputs": [],
      "name": "DepositBelowMinimum",
      "type": "error"
    },
    {
      "inputs": [],
      "name": "DepositsDisabled",
      "type": "error"
    },
    {
      "inputs": [],
      "name": "ERC721EnumerableForbiddenBatchMint",
      "type": "error"
    },
    {
      "inputs": [
        {
          "internalType": "address",
          "name": "sender",
          "type": "address"
        },
        {
          "internalType": "uint256",
          "name": "tokenId",
          "type": "uint256"
        },
        {
          "internalType": "address",
          "name": "owner",
          "type": "address"
        }
      ],
      "name": "ERC721IncorrectOwner",
      "type": "error"
    },
    {
      "inputs": [
        {
          "internalType": "address",
          "name": "operator",
          "type": "address"
        },
        {
          "internalType": "uint256",
          "name": "tokenId",
          "type": "uint256"
        }
      ],
      "name": "ERC721InsufficientApproval",
      "type": "error"
    },
    {
      "inputs": [
        {
          "internalType": "address",
          "name": "approver",
          "type": "address"
        }
      ],
      "name": "ERC721InvalidApprover",
      "type": "error"
    },
    {
      "inputs": [
        {
          "internalType": "address",
          "name": "operator",
          "type": "address"
        }
      ],
      "name": "ERC721InvalidOperator",
      "type": "error"
    },
    {
      "inputs": [
        {
          "internalType": "address",
          "name": "owner",
          "type": "address"
        }
      ],
      "name": "ERC721InvalidOwner",
      "type": "error"
    },
    {
      "inputs": [
        {
          "internalType": "address",
          "name": "receiver",
          "type": "address"
        }
      ],
      "name": "ERC721InvalidReceiver",
      "type": "error"
    },
    {
      "inputs": [
        {
          "internalType": "address",
          "name": "sender",
          "type": "address"
        }
      ],
      "name": "ERC721InvalidSender",
      "type": "error"
    },
    {
      "inputs": [
        {
          "internalType": "uint256",
          "name": "tokenId",
          "type": "uint256"
        }
      ],
      "name": "ERC721NonexistentToken",
      "type": "error"
    },
    {
      "inputs": [
        {
          "internalType": "address",
          "name": "owner",
          "type": "address"
        },
        {
          "internalType": "uint256",
          "name": "index",
          "type": "uint256"
        }
      ],
      "name": "ERC721OutOfBoundsIndex",
      "type": "error"
    },
    {
      "inputs": [],
      "name": "FailedInnerCall",
      "type": "error"
    },
    {
      "inputs": [],
      "name": "MaxSupplyExceeded",
      "type": "error"
    },
    {
      "inputs": [],
      "name": "NotTokenOwner",
      "type": "error"
    },
    {
      "inputs": [
        {
          "internalType": "address",
          "name": "owner",
          "type": "address"
        }
      ],
      "name": "OwnableInvalidOwner",
      "type": "error"
    },
    {
      "inputs": [
        {
          "internalType": "address",
          "name": "account",
          "type": "address"
        }
      ],
      "name": "OwnableUnauthorizedAccount",
      "type": "error"
    },
    {
      "inputs": [],
      "name": "ReentrancyGuardReentrantCall",
      "type": "error"
    },
    {
      "inputs": [
        {
          "internalType": "address",
          "name": "token",
          "type": "address"
        }
      ],
      "name": "SafeERC20FailedOperation",
      "type": "error"
    },
    {
      "inputs": [],
      "name": "TokenAlreadyMatured",
      "type": "error"
    },
    {
      "inputs": [],
      "name": "TokenNotExists",
      "type": "error"
    },
    {
      "inputs": [],
      "name": "TransferOfMaturedToken",
      "type": "error"
    },
    {
      "inputs": [],
      "name": "VestingAlreadyComplete",
      "type": "error"
    },
    {
      "inputs": [],
      "name": "VestingNotComplete",
      "type": "error"
    },
    {
      "inputs": [],
      "name": "ZeroAddress",
      "type": "error"
    },
    {
      "inputs": [],
      "name": "ZeroAmount",
      "type": "error"
    },
    {
      "anonymous": false,
      "inputs": [
        {
          "indexed": true,
          "internalType": "address",
          "name": "owner",
          "type": "address"
        },
        {
          "indexed": true,
          "internalType": "address",
          "name": "approved",
          "type": "address"
        },
        {
          "indexed": true,
          "internalType": "uint256",
          "name": "tokenId",
          "type": "uint256"
        }
      ],
      "name": "Approval",
      "type": "event"
    },
    {
      "anonymous": false,
      "inputs": [
        {
          "indexed": true,
          "internalType": "address",
          "name": "owner",
          "type": "address"
        },
        {
          "indexed": true,
          "internalType": "address",
          "name": "operator",
          "type": "address"
        },
        {
          "indexed": false,
          "internalType": "bool",
          "name": "approved",
          "type": "bool"
        }
      ],
      "name": "ApprovalForAll",
      "type": "event"
    },
    {
      "anonymous": false,
      "inputs": [
        {
          "indexed": true,
          "internalType": "address",
          "name": "user",
          "type": "address"
        },
        {
          "indexed": true,
          "internalType": "uint256",
          "name": "tokenId",
          "type": "uint256"
        },
        {
          "indexed": false,
          "internalType": "uint256",
          "name": "amount",
          "type": "uint256"
        }
      ],
      "name": "Deposited",
      "type": "event"
    },
    {
      "anonymous": false,
      "inputs": [
        {
          "indexed": false,
          "internalType": "bool",
          "name": "enabled",
          "type": "bool"
        }
      ],
      "name": "DepositsToggled",
      "type": "event"
    },
    {
      "anonymous": false,
      "inputs": [
        {
          "indexed": false,
          "internalType": "uint256",
          "name": "newMaxSupply",
          "type": "uint256"
        }
      ],
      "name": "MaxTotalSupplyUpdated",
      "type": "event"
    },
    {
      "anonymous": false,
      "inputs": [
        {
          "indexed": true,
          "internalType": "uint256",
          "name": "tokenId",
          "type": "uint256"
        }
      ],
      "name": "MetadataUpdate",
      "type": "event"
    },
    {
      "anonymous": false,
      "inputs": [
        {
          "indexed": false,
          "internalType": "uint256",
          "name": "newMinDepositAmount",
          "type": "uint256"
        }
      ],
      "name": "MinDepositAmountUpdated",
      "type": "event"
    },
    {
      "anonymous": false,
      "inputs": [
        {
          "indexed": true,
          "internalType": "address",
          "name": "previousOwner",
          "type": "address"
        },
        {
          "indexed": true,
          "internalType": "address",
          "name": "newOwner",
          "type": "address"
        }
      ],
      "name": "OwnershipTransferred",
      "type": "event"
    },
    {
      "anonymous": false,
      "inputs": [
        {
          "indexed": true,
          "internalType": "address",
          "name": "user",
          "type": "address"
        },
        {
          "indexed": true,
          "internalType": "uint256",
          "name": "tokenId",
          "type": "uint256"
        },
        {
          "indexed": false,
          "internalType": "uint256",
          "name": "amount",
          "type": "uint256"
        }
      ],
      "name": "RedeemedEarly",
      "type": "event"
    },
    {
      "anonymous": false,
      "inputs": [
        {
          "indexed": true,
          "internalType": "address",
          "name": "from",
          "type": "address"
        },
        {
          "indexed": true,
          "internalType": "address",
          "name": "to",
          "type": "address"
        },
        {
          "indexed": true,
          "internalType": "uint256",
          "name": "tokenId",
          "type": "uint256"
        }
      ],
      "name": "Transfer",
      "type": "event"
    },
    {
      "anonymous": false,
      "inputs": [
        {
          "indexed": true,
          "internalType": "address",
          "name": "user",
          "type": "address"
        },
        {
          "indexed": true,
          "internalType": "uint256",
          "name": "tokenId",
          "type": "uint256"
        },
        {
          "indexed": false,
          "internalType": "uint256",
          "name": "amount",
          "type": "uint256"
        }
      ],
      "name": "WithdrawnMatured",
      "type": "event"
    },
    {
      "inputs": [
        {
          "internalType": "address",
          "name": "to",
          "type": "address"
        },
        {
          "internalType": "uint256",
          "name": "tokenId",
          "type": "uint256"
        }
      ],
      "name": "approve",
      "outputs": [],
      "stateMutability": "nonpayable",
      "type": "function"
    },
    {
      "inputs": [
        {
          "internalType": "address",
          "name": "owner",
          "type": "address"
        }
      ],
      "name": "balanceOf",
      "outputs": [
        {
          "internalType": "uint256",
          "name": "",
          "type": "uint256"
        }
      ],
      "stateMutability": "view",
      "type": "function"
    },
    {
      "inputs": [
        {
          "internalType": "uint256",
          "name": "amount",
          "type": "uint256"
        }
      ],
      "name": "deposit",
      "outputs": [
        {
          "internalType": "uint256",
          "name": "tokenId",
          "type": "uint256"
        }
      ],
      "stateMutability": "nonpayable",
      "type": "function"
    },
    {
      "inputs": [],
      "name": "depositsEnabled",
      "outputs": [
        {
          "internalType": "bool",
          "name": "",
          "type": "bool"
        }
      ],
      "stateMutability": "view",
      "type": "function"
    },
    {
      "inputs": [],
      "name": "dstakeToken",
      "outputs": [
        {
          "internalType": "contract IERC20",
          "name": "",
          "type": "address"
        }
      ],
      "stateMutability": "view",
      "type": "function"
    },
    {
      "inputs": [
        {
          "internalType": "uint256",
          "name": "tokenId",
          "type": "uint256"
        }
      ],
      "name": "getApproved",
      "outputs": [
        {
          "internalType": "address",
          "name": "",
          "type": "address"
        }
      ],
      "stateMutability": "view",
      "type": "function"
    },
    {
      "inputs": [
        {
          "internalType": "uint256",
          "name": "tokenId",
          "type": "uint256"
        }
      ],
      "name": "getRemainingVestingTime",
      "outputs": [
        {
          "internalType": "uint256",
          "name": "",
          "type": "uint256"
        }
      ],
      "stateMutability": "view",
      "type": "function"
    },
    {
      "inputs": [
        {
          "internalType": "uint256",
          "name": "tokenId",
          "type": "uint256"
        }
      ],
      "name": "getVestingPosition",
      "outputs": [
        {
          "internalType": "uint256",
          "name": "amount",
          "type": "uint256"
        },
        {
          "internalType": "uint256",
          "name": "depositTime",
          "type": "uint256"
        },
        {
          "internalType": "bool",
          "name": "matured",
          "type": "bool"
        },
        {
          "internalType": "bool",
          "name": "vestingComplete",
          "type": "bool"
        }
      ],
      "stateMutability": "view",
      "type": "function"
    },
    {
      "inputs": [
        {
          "internalType": "address",
          "name": "owner",
          "type": "address"
        },
        {
          "internalType": "address",
          "name": "operator",
          "type": "address"
        }
      ],
      "name": "isApprovedForAll",
      "outputs": [
        {
          "internalType": "bool",
          "name": "",
          "type": "bool"
        }
      ],
      "stateMutability": "view",
      "type": "function"
    },
    {
      "inputs": [
        {
          "internalType": "uint256",
          "name": "tokenId",
          "type": "uint256"
        }
      ],
      "name": "isVestingComplete",
      "outputs": [
        {
          "internalType": "bool",
          "name": "",
          "type": "bool"
        }
      ],
      "stateMutability": "view",
      "type": "function"
    },
    {
      "inputs": [],
      "name": "maxTotalSupply",
      "outputs": [
        {
          "internalType": "uint256",
          "name": "",
          "type": "uint256"
        }
      ],
      "stateMutability": "view",
      "type": "function"
    },
    {
      "inputs": [],
      "name": "minDepositAmount",
      "outputs": [
        {
          "internalType": "uint256",
          "name": "",
          "type": "uint256"
        }
      ],
      "stateMutability": "view",
      "type": "function"
    },
    {
      "inputs": [],
      "name": "name",
      "outputs": [
        {
          "internalType": "string",
          "name": "",
          "type": "string"
        }
      ],
      "stateMutability": "view",
      "type": "function"
    },
    {
      "inputs": [],
      "name": "owner",
      "outputs": [
        {
          "internalType": "address",
          "name": "",
          "type": "address"
        }
      ],
      "stateMutability": "view",
      "type": "function"
    },
    {
      "inputs": [
        {
          "internalType": "uint256",
          "name": "tokenId",
          "type": "uint256"
        }
      ],
      "name": "ownerOf",
      "outputs": [
        {
          "internalType": "address",
          "name": "",
          "type": "address"
        }
      ],
      "stateMutability": "view",
      "type": "function"
    },
    {
      "inputs": [
        {
          "internalType": "uint256",
          "name": "tokenId",
          "type": "uint256"
        }
      ],
      "name": "redeemEarly",
      "outputs": [],
      "stateMutability": "nonpayable",
      "type": "function"
    },
    {
      "inputs": [],
      "name": "renounceOwnership",
      "outputs": [],
      "stateMutability": "nonpayable",
      "type": "function"
    },
    {
      "inputs": [
        {
          "internalType": "address",
          "name": "from",
          "type": "address"
        },
        {
          "internalType": "address",
          "name": "to",
          "type": "address"
        },
        {
          "internalType": "uint256",
          "name": "tokenId",
          "type": "uint256"
        }
      ],
      "name": "safeTransferFrom",
      "outputs": [],
      "stateMutability": "nonpayable",
      "type": "function"
    },
    {
      "inputs": [
        {
          "internalType": "address",
          "name": "from",
          "type": "address"
        },
        {
          "internalType": "address",
          "name": "to",
          "type": "address"
        },
        {
          "internalType": "uint256",
          "name": "tokenId",
          "type": "uint256"
        },
        {
          "internalType": "bytes",
          "name": "data",
          "type": "bytes"
        }
      ],
      "name": "safeTransferFrom",
      "outputs": [],
      "stateMutability": "nonpayable",
      "type": "function"
    },
    {
      "inputs": [
        {
          "internalType": "address",
          "name": "operator",
          "type": "address"
        },
        {
          "internalType": "bool",
          "name": "approved",
          "type": "bool"
        }
      ],
      "name": "setApprovalForAll",
      "outputs": [],
      "stateMutability": "nonpayable",
      "type": "function"
    },
    {
      "inputs": [
        {
          "internalType": "bool",
          "name": "enabled",
          "type": "bool"
        }
      ],
      "name": "setDepositsEnabled",
      "outputs": [],
      "stateMutability": "nonpayable",
      "type": "function"
    },
    {
      "inputs": [
        {
          "internalType": "uint256",
          "name": "newMaxSupply",
          "type": "uint256"
        }
      ],
      "name": "setMaxTotalSupply",
      "outputs": [],
      "stateMutability": "nonpayable",
      "type": "function"
    },
    {
      "inputs": [
        {
          "internalType": "uint256",
          "name": "newMinDepositAmount",
          "type": "uint256"
        }
      ],
      "name": "setMinDepositAmount",
      "outputs": [],
      "stateMutability": "nonpayable",
      "type": "function"
    },
    {
      "inputs": [
        {
          "internalType": "bytes4",
          "name": "interfaceId",
          "type": "bytes4"
        }
      ],
      "name": "supportsInterface",
      "outputs": [
        {
          "internalType": "bool",
          "name": "",
          "type": "bool"
        }
      ],
      "stateMutability": "view",
      "type": "function"
    },
    {
      "inputs": [],
      "name": "symbol",
      "outputs": [
        {
          "internalType": "string",
          "name": "",
          "type": "string"
        }
      ],
      "stateMutability": "view",
      "type": "function"
    },
    {
      "inputs": [
        {
          "internalType": "uint256",
          "name": "index",
          "type": "uint256"
        }
      ],
      "name": "tokenByIndex",
      "outputs": [
        {
          "internalType": "uint256",
          "name": "",
          "type": "uint256"
        }
      ],
      "stateMutability": "view",
      "type": "function"
    },
    {
      "inputs": [
        {
          "internalType": "address",
          "name": "owner",
          "type": "address"
        },
        {
          "internalType": "uint256",
          "name": "index",
          "type": "uint256"
        }
      ],
      "name": "tokenOfOwnerByIndex",
      "outputs": [
        {
          "internalType": "uint256",
          "name": "",
          "type": "uint256"
        }
      ],
      "stateMutability": "view",
      "type": "function"
    },
    {
      "inputs": [
        {
          "internalType": "uint256",
          "name": "tokenId",
          "type": "uint256"
        }
      ],
      "name": "tokenURI",
      "outputs": [
        {
          "internalType": "string",
          "name": "",
          "type": "string"
        }
      ],
      "stateMutability": "view",
      "type": "function"
    },
    {
      "inputs": [],
      "name": "totalDeposited",
      "outputs": [
        {
          "internalType": "uint256",
          "name": "",
          "type": "uint256"
        }
      ],
      "stateMutability": "view",
      "type": "function"
    },
    {
      "inputs": [],
      "name": "totalSupply",
      "outputs": [
        {
          "internalType": "uint256",
          "name": "",
          "type": "uint256"
        }
      ],
      "stateMutability": "view",
      "type": "function"
    },
    {
      "inputs": [
        {
          "internalType": "address",
          "name": "from",
          "type": "address"
        },
        {
          "internalType": "address",
          "name": "to",
          "type": "address"
        },
        {
          "internalType": "uint256",
          "name": "tokenId",
          "type": "uint256"
        }
      ],
      "name": "transferFrom",
      "outputs": [],
      "stateMutability": "nonpayable",
      "type": "function"
    },
    {
      "inputs": [
        {
          "internalType": "address",
          "name": "newOwner",
          "type": "address"
        }
      ],
      "name": "transferOwnership",
      "outputs": [],
      "stateMutability": "nonpayable",
      "type": "function"
    },
    {
      "inputs": [],
      "name": "vestingPeriod",
      "outputs": [
        {
          "internalType": "uint256",
          "name": "",
          "type": "uint256"
        }
      ],
      "stateMutability": "view",
      "type": "function"
    },
    {
      "inputs": [
        {
          "internalType": "uint256",
          "name": "",
          "type": "uint256"
        }
      ],
      "name": "vestingPositions",
      "outputs": [
        {
          "internalType": "uint256",
          "name": "amount",
          "type": "uint256"
        },
        {
          "internalType": "uint256",
          "name": "depositTime",
          "type": "uint256"
        },
        {
          "internalType": "bool",
          "name": "matured",
          "type": "bool"
        }
      ],
      "stateMutability": "view",
      "type": "function"
    },
    {
      "inputs": [
        {
          "internalType": "uint256",
          "name": "tokenId",
          "type": "uint256"
        }
      ],
      "name": "withdrawMatured",
      "outputs": [],
      "stateMutability": "nonpayable",
      "type": "function"
    }
  ],
  "transactionHash": "0x462b34446280a52ee72f09c36570eecb076c75df7febc8f7e9ad266e4d84ac3c",
  "args": [
    "dBOOST sdUSD Season 1",
    "sdUSD-S1",
    "0x0aC5Ec7aF3861807185C5b54B75107b70511A308",
    15552000,
    "20000000000000000000000000",
    "250000000000000000000000",
    "0x53Ae1433Ab4563d7D5a84d27524784837259f105"
  ],
  "numDeployments": 1,
  "solcInputHash": "ad5d8cb6d85c1e685986b758c866de4e",
  "bytecode": "0x604060c0815234620004c85762003389803803806200001e81620004cd565b928339810160e082820312620004c85781516001600160401b038111620004c857816200004d918401620004f3565b602083015190916001600160401b038211620004c85762000070918401620004f3565b906200007e84840162000565565b6060840151916080850151936200009d60c060a0880151970162000565565b825190926001600160401b038211620003c05760005490600182811c92168015620004bd575b60208310146200039f5781601f8493116200045a575b50602090601f8311600114620003e257600092620003d6575b50508160011b916000199060031b1c1916176000555b8051906001600160401b038211620003c05760015490600182811c92168015620003b5575b60208310146200039f5781601f8493116200033b575b50602090601f8311600114620002c157600092620002b5575b50508160011b916000199060031b1c1916176001555b6001600160a01b039081169182156200029d57600a80546001600160a01b0319811685179091558751939083167f8be0079c531659141344cd1fd0a4f28419497f9722a3daafe3b4186f6b6457e0600080a36001600b55169081156200028e57508115801562000285575b620002745760805260a052600d55600e55600160ff19600c541617600c55600160105551612dce90816200057b823960805181818161035101528181610e1b0152818161172c015281816118f20152611cd8015260a0518181816103130152818161081701528181610b7201528181610baf015281816115c8015281816118a401528181611b2c0152818161265701526127260152f35b8451631f2a200560e01b8152600490fd5b508215620001dd565b63d92e233d60e01b8152600490fd5b8651631e4fbdf760e01b815260006004820152602490fd5b0151905038806200015c565b60016000908152600080516020620033698339815191529350601f198516905b81811062000322575090846001959493921062000308575b505050811b0160015562000172565b015160001960f88460031b161c19169055388080620002f9565b92936020600181928786015181550195019301620002e1565b600160005290915060008051602062003369833981519152601f840160051c8101916020851062000394575b90601f859493920160051c01905b81811062000384575062000143565b6000815584935060010162000375565b909150819062000367565b634e487b7160e01b600052602260045260246000fd5b91607f16916200012d565b634e487b7160e01b600052604160045260246000fd5b015190503880620000f2565b6000808052600080516020620033498339815191529350601f198516905b81811062000441575090846001959493921062000427575b505050811b0160005562000108565b015160001960f88460031b161c1916905538808062000418565b9293602060018192878601518155019501930162000400565b6000805290915060008051602062003349833981519152601f840160051c81019160208510620004b2575b90601f859493920160051c01905b818110620004a25750620000d9565b6000815584935060010162000493565b909150819062000485565b91607f1691620000c3565b600080fd5b6040519190601f01601f191682016001600160401b03811183821017620003c057604052565b919080601f84011215620004c85782516001600160401b038111620003c05760209062000529601f8201601f19168301620004cd565b92818452828287010111620004c85760005b8181106200055157508260009394955001015290565b85810183015184820184015282016200053b565b51906001600160a01b0382168203620004c85756fe608080604052600436101561001357600080fd5b60003560e01c90816301ffc9a714611fea5750806306fdde0314611fba578063081812fc14611f7c578063095ea7b314611e9557806318160ddd14611e7757806323b872dd14611e605780632706cab414611a925780632a80cda314611a465780632ab4d05214611a285780632f745c59146119a45780633cd636051461182b5780633f3e4c11146117df57806342842e0e146117b15780634f6ccce71461175b5780635133a8d1146117165780635392fd1c146116f357806362325b40146116b95780636352211e14611689578063645006ca1461166b57806370a0823114611648578063715018a6146115eb5780637313ee5a146115b05780637f09d23e146115685780638da5cb5b1461153f57806395d89b411461142e5780639f04586c146113cc578063a22cb4651461131e578063adfde251146112f6578063b6b55f2514610d86578063b88d4fde14610cf0578063bfe455fb14610cca578063c87b56dd146102a2578063e985e9c51461024c578063f2fde38b146101c35763ff50abdc146101a057600080fd5b346101be5760003660031901126101be576020600f54604051908152f35b600080fd5b346101be5760203660031901126101be576101dc6120b7565b6101e4612864565b6001600160a01b0390811690811561023357600a54826001600160601b0360a01b821617600a55167f8be0079c531659141344cd1fd0a4f28419497f9722a3daafe3b4186f6b6457e0600080a3005b604051631e4fbdf760e01b815260006004820152602490fd5b346101be5760403660031901126101be576102656120b7565b61026d6120cd565b9060018060a01b03809116600052600560205260406000209116600052602052602060ff604060002054166040519015158152f35b346101be5760203660031901126101be576102cc6004356000526011602052604060002054151590565b15610cb957600435600052601160205260406000206040516102ed81612118565b8154815260ff6002600184015493846020850152015416151560408201526103386000927f000000000000000000000000000000000000000000000000000000000000000090612594565b804210610ca5575b506040516395d89b4160e01b8152917f00000000000000000000000000000000000000000000000000000000000000006001600160a01b0316600084600481845afa938415610c1657600094610c22575b5060206004916040519283809263313ce56760e01b82525afa908115610c1657600091610bda575b5060ff83519116604d8111610b54576103de916103d991600a0a906127a5565b612a12565b926000908351610b6a575b6103f16121aa565b936103fd600435612a12565b9261040781612a12565b9061014a81029080820461014a1490151715610b54576064900461042a90612a12565b604080517f3c73766720786d6c6e733d22687474703a2f2f7777772e77332e6f72672f32306020808301919091527f30302f737667222077696474683d2233353022206865696768743d2232303022928201929092527f2076696577426f783d223020302033353020323030223e00000000000000000060608201527f3c7374796c653e2e62617365207b2066696c6c3a2077686974653b20666f6e7460778201527f2d66616d696c793a206d6f6e6f73706163653b20666f6e742d73697a653a203160978201526d1a383c1d903e9e17b9ba3cb6329f60911b60b78201527f3c726563742077696474683d223130302522206865696768743d22313030252260c582015270103334b6361e911198b099199bb291179f60791b60e58201527f3c7465787420783d2231302220793d2233302220636c6173733d22626173652260f6820152601f60f91b610116820152885198929690928392610595918b916101178601910161206f565b8882016101170161202360f01b905261011998815191828b8386010191602001916105bf9261206f565b82010197661e17ba32bc3a1f60c91b80918a015261012089017f3c7465787420783d2231302220793d2235352220636c6173733d226261736522905261014089016801f20b6b7bab73a1d160bd1b9052610149968a5160208c019a8b828b83016106289261206f565b0194600160fd1b8099870152875160208901968161014a82019061064c918a61206f565b019261014a84015261015183017f3c7465787420783d2231302220793d2238302220636c6173733d226261736522905261017183016a01f283937b3b932b9b99d160ad1b905261017c928151918285830191602001916106ab9261206f565b67129e17ba32bc3a1f60c11b9101928301527f3c7265637420783d2231302220793d22313030222077696474683d22333330226101848301527f206865696768743d223230222066696c6c3d2223333934396162222f3e0000006101a48301527f3c7265637420783d2231302220793d22313030222077696474683d22000000006101c183015280516101dd92909161074c9083908584019060200161206f565b019081017f22206865696768743d223230222066696c6c3d2223376535376332222f3e000090526101fb8101651e17b9bb339f60d11b9052036101e1810182526102010161079a908261216c565b6107a390612b56565b93604051938460208101967f646174613a696d6167652f7376672b786d6c3b6261736536342c000000000000885280519081603a840191602001916107e79261206f565b810103601a81018652603a016107fd908661216c565b6108056121aa565b97610811600435612a12565b9961083b7f0000000000000000000000000000000000000000000000000000000000000000612a12565b60409096015115610b2d5761086c60405161085581612150565b60048152637472756560e01b602082015299612a12565b956040519b8c809c683d913730b6b2911d1160b91b602083015280516029819301916020019161089b9261206f565b8c016029810161202360f01b905281519182602b830191602001916108bf9261206f565b01602b81017f222c226465736372697074696f6e223a22436f6e7461696e732000000000000090528451908160458201906108fa918a61206f565b0160458101670103bb4ba341030960c51b905281519182604d830191602001916109239261206f565b0190604d82017f207365636f6e642076657374696e6720706572696f642e222c0000000000000090526d2261747472696275746573223a5b60901b6066830152607482017f7b2274726169745f74797065223a22416d6f756e74222c2276616c7565223a2290525191826094830161099a9261206f565b01916094830152519182609583016109b19261206f565b019361227d60f01b94856095820152609781017f2c7b2274726169745f74797065223a224d617475726564222c2276616c7565229052611d1160f11b60b78201528151918260b983019160200191610a089261206f565b018460b982015260bb81017f2c7b2274726169745f74797065223a2252656d61696e696e67205365636f6e6490526b399116113b30b63ab2911d1160a11b60db8201528151918260e783019160200191610a619261206f565b01908360e783015260e9820161174b60f21b9052681134b6b0b3b2911d1160b91b60eb83015251918260f48301610a979261206f565b019060f48201520360d68101825260f601610ab2908261216c565b610abb90612b56565b6040518091602082017f646174613a6170706c69636174696f6e2f6a736f6e3b6261736536342c000000905280519081603d84019160200191610afd9261206f565b810103601d81018252603d01610b13908261216c565b60405180916020825260208201610b2991612092565b0390f35b61086c604051610b3c81612150565b600581526466616c736560d81b602082015299612a12565b634e487b7160e01b600052601160045260246000fd5b9050610b96827f00000000000000000000000000000000000000000000000000000000000000006125a1565b606481029080820460641490151715610b5457610bd4907f0000000000000000000000000000000000000000000000000000000000000000906127a5565b906103e9565b90506020813d602011610c0e575b81610bf56020938361216c565b810103126101be575160ff811681036101be57846103b9565b3d9150610be8565b6040513d6000823e3d90fd5b9093503d806000833e610c35818361216c565b8101906020818303126101be5780519067ffffffffffffffff82116101be57019080601f830112156101be57815190610c6d8261218e565b90610c7b604051928361216c565b828252602083850101116101be57610c9d60209260049484808501910161206f565b949150610391565b610cb291925042906125a1565b9082610340565b604051626f708760e21b8152600490fd5b346101be5760203660031901126101be576020610ce8600435612757565b604051908152f35b346101be5760803660031901126101be57610d096120b7565b610d116120cd565b906044356064359267ffffffffffffffff84116101be57366023850112156101be57836004013592610d428461218e565b93610d50604051958661216c565b80855236602482880101116101be576020816000926024610d8499018389013786010152610d7f838383612293565b6128c0565b005b346101be576020806003193601126101be5760043590610da4612800565b81156112e45760ff600c5416156112d257600e5482106112c057610dca82600f54612594565b600d54106112ae57604051916323b872dd60e01b8284015260249233848201523060448201528160648201526064815260a081019080821067ffffffffffffffff83111761129957610e3f916040527f0000000000000000000000000000000000000000000000000000000000000000612cb3565b60105490600019908183146112845760019182840160105560405190610e6482612134565b60008252331561126c5760008581526002875260409020546001600160a01b03908116151580611265575b61123e575b856000526002875260406000205416908115918215928361120a575b3360005260038952604060002087815401905587600052600289526040600020336001600160601b0360a01b8254161790558733837fddf252ad1be2c89b69c2b068fc378daa952ba7f163c4a11628f55a4df523b3ef600080a41561117357600854876000526009895280604060002055600160401b81101561115e5787610f408289610f5994016008556125ae565b90919082549060031b91821b91600019901b1916179055565b3303611108575b506110f057333b611003575b508290610fbe604051610f7e81612118565b82815260028782014281526040830190600082528660005260118a52604060002093518455518784015551151591019060ff801983541691151516179055565b610fca81600f54612594565b600f556040519081527f73a19dd210f1a7f902193214c0ee91dd35ee5b4d920cba8d519eca65a7b488ca853392a3600b55604051908152f35b60405185818061103b630a85bd0160e11b9586835233600484015260008c840152896044840152608060648401526084830190612092565b03816000335af1600091816110b0575b5061107c57868661105a612890565b8051918261107957604051633250574960e11b81523360048201528490fd5b01fd5b63ffffffff60e09793949596971b160361109b57508392919082610f6c565b604051633250574960e11b8152336004820152fd5b9091508681813d83116110e9575b6110c8818361216c565b810103126101be57516001600160e01b0319811681036101be57908861104b565b503d6110be565b6040516339e3563760e11b8152600060048201528690fd5b61111133612695565b908101908111611149573360005260068752604060002081600052875285604060002055856000526007875260406000205587610f60565b87634e487b7160e01b60005260116004526000fd5b89634e487b7160e01b60005260416004526000fd5b338114610f595761118381612695565b87600052600789526040600020548181036111c4575b5087600052600060408120558160005260068952604060002090600052885260006040812055610f59565b8260005260068a526040600020826000528a526040600020548360005260068b526040600020826000528b528060406000205560005260078a526040600020558a611199565b600088815260046020526040902080546001600160a01b031916905581600052600389526040600020838154019055610eb0565b6011875260ff6002604060002001541615610e945760405163917640c160e01b8152600490fd5b5084610e8f565b604051633250574960e11b8152600060048201528790fd5b84634e487b7160e01b60005260116004526000fd5b84634e487b7160e01b60005260416004526000fd5b604051638a164f6360e01b8152600490fd5b60405163c24b1b6160e01b8152600490fd5b604051630e2f42c960e31b8152600490fd5b604051631f2a200560e01b8152600490fd5b346101be5760203660031901126101be5760206113146004356126ce565b6040519015158152f35b346101be5760403660031901126101be576113376120b7565b60243590811515908183036101be576001600160a01b03169182156113b3576113859033600052600560205260406000208460005260205260406000209060ff801983541691151516179055565b6040519081527f17307eab39ab6107e8899845ad3d59bd9653f200f220920489ca2b5937696c3160203392a3005b604051630b61174360e31b815260048101849052602490fd5b346101be5760203660031901126101be576004358015158091036101be5760207f79a0d73b50e293c1e17b973f07d567c5a14399afb5e2373c44a82e9f9109d71691611416612864565b60ff19600c541660ff821617600c55604051908152a1005b346101be5760003660031901126101be576040516000600190600154918260011c9160018416918215611535575b602094858510841461151f5785879486865291826000146114ff5750506001146114a2575b5061148e9250038361216c565b610b29604051928284938452830190612092565b84915060016000527fb10e2d527612073b26eecdfd717e6a320cf44b4afac2b0732d9fcbe2b7fa0cf6906000915b8583106114e757505061148e935082010185611481565b805483890185015287945086939092019181016114d0565b60ff19168582015261148e95151560051b85010192508791506114819050565b634e487b7160e01b600052602260045260246000fd5b92607f169261145c565b346101be5760003660031901126101be57600a546040516001600160a01b039091168152602090f35b346101be5760203660031901126101be5760043560005260116020526060604060002080549060ff600260018301549201541690604051928352602083015215156040820152f35b346101be5760003660031901126101be5760206040517f00000000000000000000000000000000000000000000000000000000000000008152f35b346101be5760003660031901126101be57611604612864565b600a80546001600160a01b031981169091556000906001600160a01b03167f8be0079c531659141344cd1fd0a4f28419497f9722a3daafe3b4186f6b6457e08280a3005b346101be5760203660031901126101be576020610ce86116666120b7565b612695565b346101be5760003660031901126101be576020600e54604051908152f35b346101be5760203660031901126101be5760206116a76004356127c5565b6040516001600160a01b039091168152f35b346101be5760203660031901126101be5760806116d76004356125fb565b9160405193845260208401521515604083015215156060820152f35b346101be5760003660031901126101be57602060ff600c54166040519015158152f35b346101be5760003660031901126101be576040517f00000000000000000000000000000000000000000000000000000000000000006001600160a01b03168152602090f35b346101be5760203660031901126101be57600435600854811015611792576117846020916125ae565b90546040519160031b1c8152f35b6044906040519063295f44f760e21b8252600060048301526024820152fd5b346101be57610d846117c2366120e3565b90604051926117d084612134565b60008452610d7f838383612293565b346101be5760203660031901126101be577ff2672935fc79f5237559e2e2999dbe743bf65430894ac2b37666890e7c69e1af602060043561181e612864565b80600d55604051908152a1005b346101be5760203660031901126101be57600435611847612800565b61185e816000526011602052604060002054151590565b15610cb95761186c816127c5565b336001600160a01b03909116036119925780600052601160205260406000206002810180549060ff8216611980576118c960018401547f000000000000000000000000000000000000000000000000000000000000000090612594565b421061196e5760018493549260ff19161790556118e881600f546125a1565b600f5561191681337f0000000000000000000000000000000000000000000000000000000000000000612823565b6040519081527fde14d3a993ebba9de27f7a134bdd279ee01d1183b8ec5cf2f39f217ea2ed41ee60203392a37ff8e1a15aba9398e019f0b49df1a4fde98ee17ae345cb5f6b5e2c27f5033e8ce7600080a26001600b55005b604051631393ba7760e31b8152600490fd5b6040516316d2aca560e11b8152600490fd5b6040516359dc379f60e01b8152600490fd5b346101be5760403660031901126101be576119bd6120b7565b602435906119ca81612695565b8210156119fd5760018060a01b031660005260066020526040600020906000526020526020604060002054604051908152f35b60405163295f44f760e21b81526001600160a01b039190911660048201526024810191909152604490fd5b346101be5760003660031901126101be576020600d54604051908152f35b346101be5760203660031901126101be577fb443c8bd39a1b60d415144f9148c6f90c2b68a553eb90c62cef5e44979db009d6020600435611a85612864565b80600e55604051908152a1005b346101be576020806003193601126101be5760043590611ab0612800565b611ac7826000526011602052604060002054151590565b15610cb957611ad5826127c5565b6001600160a01b03919033908316036119925782600052601181526040600020604051611b0181612118565b81548152600182015483820190815260ff60028094015416151580604084015261198057611b5190517f000000000000000000000000000000000000000000000000000000000000000090612594565b421015611e4e57519284600052601183526000826040822082815582600182015501558183528060406000205416151580611e46575b611e20575b846000528183526040600020541680159182159081611ded575b86600052845260406000206001600160601b0360a01b8154169055856000837fddf252ad1be2c89b69c2b068fc378daa952ba7f163c4a11628f55a4df523b3ef8280a48215611d51575050600854846000526009835280604060002055600160401b811015611d3b5784610f40826001611c2394016008556125ae565b60085460001990818101908111610b54578560005260098452611c4b604060002054916125ae565b90549060031b1c611c5f81610f40846125ae565b6000526009845260406000205584600052600060408120556008548015611d2557810190611c8c826125ae565b909182549160031b1b19169055600855611d0c577febf47017a067c68a7c7762b292827c94b5b6b769078ef61648a51e7c9535b28c90611cce83600f546125a1565b600f55611cfc83337f0000000000000000000000000000000000000000000000000000000000000000612823565b6040519283523392a36001600b55005b604051637e27328960e01b815260048101849052602490fd5b634e487b7160e01b600052603160045260246000fd5b634e487b7160e01b600052604160045260246000fd5b611d5c575b50611c23565b611d6581612695565b908560005260078452604060002054828103611da7575b5085600052600060408120556000526006835260406000209060005282526000604081205584611d56565b8160005260068552604060002083600052855260406000205482600052600686526040600020826000528652806040600020556000526007855260406000205586611d7c565b60008781526004602052604080822080546001600160a01b03191690558482526003875290208054600019019055611ba6565b6011835260ff82604060002001541615611b8c5760405163917640c160e01b8152600490fd5b506000611b87565b60405163239debe960e21b8152600490fd5b346101be57610d84611e71366120e3565b91612293565b346101be5760003660031901126101be576020600854604051908152f35b346101be5760403660031901126101be57611eae6120b7565b602435611eba816127c5565b33151580611f69575b80611f3c575b611f24576001600160a01b039283169282918491167f8c5be1e5ebec7d5bd14f71427d1e84f3dd0314c0f7b2291e5b200ac8c7c3b925600080a4600090815260046020526040902080546001600160a01b0319169091179055005b60405163a9fbf51f60e01b8152336004820152602490fd5b5060018060a01b038116600052600560205260406000203360005260205260ff6040600020541615611ec9565b506001600160a01b038116331415611ec3565b346101be5760203660031901126101be57600435611f99816127c5565b506000526004602052602060018060a01b0360406000205416604051908152f35b346101be5760003660031901126101be57610b29611fd66121aa565b604051918291602083526020830190612092565b346101be5760203660031901126101be576004359063ffffffff60e01b82168092036101be5760209163780e9d6360e01b811490811561202c575b5015158152f35b6380ac58cd60e01b81149150811561205e575b811561204d575b5083612025565b6301ffc9a760e01b14905083612046565b635b5e139f60e01b8114915061203f565b60005b8381106120825750506000910152565b8181015183820152602001612072565b906020916120ab8151809281855285808601910161206f565b601f01601f1916010190565b600435906001600160a01b03821682036101be57565b602435906001600160a01b03821682036101be57565b60609060031901126101be576001600160a01b039060043582811681036101be579160243590811681036101be579060443590565b6060810190811067ffffffffffffffff821117611d3b57604052565b6020810190811067ffffffffffffffff821117611d3b57604052565b6040810190811067ffffffffffffffff821117611d3b57604052565b90601f8019910116810190811067ffffffffffffffff821117611d3b57604052565b67ffffffffffffffff8111611d3b57601f01601f191660200190565b60405190600080549060018260011c9060018416938415612289575b6020948584108114612275578388528794939291811561225557506001146121f9575b50506121f79250038361216c565b565b60008080527f290decd9548b62a8d60345a988386fc84ba6bc95484008f6362f93160ef3e56395935091905b81831061223d5750506121f7935082010138806121e9565b85548884018501529485019487945091830191612225565b9150506121f794925060ff191682840152151560051b82010138806121e9565b634e487b7160e01b85526022600452602485fd5b91607f16916121c6565b6001600160a01b038281169391841561257b5760009483865260209560028752604096848883205416151580612573575b61254f575b8582526002815284888320541696331515806124c1575b508715801561248e575b84845260038352898420805460010190558784526002835289842080546001600160a01b0319168617905587858a7fddf252ad1be2c89b69c2b068fc378daa952ba7f163c4a11628f55a4df523b3ef8780a4156124125760085487845260098352808a852055600160401b8110156123fe5787610f4082600161237094016008556125ae565b8388036123ac575b50505050169283830361238b5750505050565b6064945051926364283d7b60e01b8452600484015260248301526044820152fd5b6123b590612695565b6000198101939084116123ea5782916007918a9452600681528383208584528152878484205587835252205538808080612378565b634e487b7160e01b83526011600452602483fd5b634e487b7160e01b84526041600452602484fd5b8784146123705761242288612695565b8784526007835289842054818103612457575b50878452838a8120558884526006835289842090845282528289812055612370565b898552600684528a852082865284528a8520548a8652600685528b86208287528552808c8720558552600784528a85205538612435565b600088815260046020526040902080546001600160a01b03191690558884526003835289842080546000190190556122ea565b8061250e575b156124d257386122e0565b8887896124ef576024915190637e27328960e01b82526004820152fd5b905163177e802f60e01b81523360048201526024810191909152604490fd5b503388148015612533575b806124c757508683526004825233868a85205416146124c7565b5087835260058252888320338452825260ff8984205416612519565b6011815260ff6002898420015416156122c957875163917640c160e01b8152600490fd5b5060016122c4565b604051633250574960e11b815260006004820152602490fd5b91908201809211610b5457565b91908203918211610b5457565b6008548110156125e55760086000527ff3f7a9fe364faab93b216da50a3214154f22a0a2b415b23a84c8169e8b636ee30190600090565b634e487b7160e01b600052603260045260246000fd5b612612816000526011602052604060002054151590565b156126865760005260116020526040806000209181519061263282612118565b83549182815260ff60026001870154968760208501520154161515938491015261267c7f000000000000000000000000000000000000000000000000000000000000000085612594565b4210159193929190565b50600090600090600090600090565b6001600160a01b031680156126b557600052600360205260406000205490565b6040516322718ad960e21b815260006004820152602490fd5b6126e5816000526011602052604060002054151590565b1561275157600052601160205261274b604060002060405161270681612118565b81548152604060ff600260018501549485602086015201541615159101527f000000000000000000000000000000000000000000000000000000000000000090612594565b42101590565b50600090565b61276e816000526011602052604060002054151590565b15610cb957600052601160205261278f604060002060405161270681612118565b80421015612751576127a29042906125a1565b90565b81156127af570490565b634e487b7160e01b600052601260045260246000fd5b6000818152600260205260409020546001600160a01b03169081156127e8575090565b60249060405190637e27328960e01b82526004820152fd5b6002600b5414612811576002600b55565b604051633ee5aeb560e01b8152600490fd5b60405163a9059cbb60e01b60208201526001600160a01b039290921660248301526044808301939093529181526121f79161285f60648361216c565b612cb3565b600a546001600160a01b0316330361287857565b60405163118cdaa760e01b8152336004820152602490fd5b3d156128bb573d906128a18261218e565b916128af604051938461216c565b82523d6000602084013e565b606090565b9190803b6128cf575b50505050565b61291160018060a01b0380921694604051938493630a85bd0160e11b968786523360048701521660248501526044840152608060648401526084830190612092565b03906020816000938185885af190829082612990575b505061295f5782612936612890565b805191908261295857604051633250574960e11b815260048101839052602490fd5b9050602001fd5b6001600160e01b031916036129785750388080806128c9565b60249060405190633250574960e11b82526004820152fd5b909192506020813d6020116129d8575b816129ad6020938361216c565b810103126129d45751906001600160e01b0319821682036129d15750903880612927565b80fd5b5080fd5b3d91506129a0565b906129ea8261218e565b6129f7604051918261216c565b8281528092612a08601f199161218e565b0190602036910137565b806000917a184f03e93ff9f4daa797ed6e38ed64bf6a1f01000000000000000080821015612b48575b506d04ee2d6d415b85acef810000000080831015612b39575b50662386f26fc1000080831015612b2a575b506305f5e10080831015612b1b575b5061271080831015612b0c575b506064821015612afc575b600a80921015612af2575b600190816021612aaa600187016129e0565b95860101905b612abc575b5050505090565b600019019083906f181899199a1a9b1b9c1cb0b131b232b360811b8282061a835304918215612aed57919082612ab0565b612ab5565b9160010191612a98565b9190606460029104910191612a8d565b60049193920491019138612a82565b60089193920491019138612a75565b60109193920491019138612a66565b60209193920491019138612a54565b604093508104915038612a3b565b90815115612c9e5760405191612b6b83612118565b604083527f4142434445464748494a4b4c4d4e4f505152535455565758595a61626364656660208401527f6768696a6b6c6d6e6f707172737475767778797a303132333435363738392b2f604084015280519260029160028501809511610b54576003948590046001600160fe1b0381168103610b5457612bf19060029694961b6129e0565b926020840192829183518401976020890192835194600085525b8a8110612c5157505050506003939495965052510680600114612c3e57600214612c33575090565b603d90600019015390565b50603d9081600019820153600119015390565b836004919b989b019a8b51600190603f9082828260121c16870101518453828282600c1c16870101518385015382828260061c168701015187850153168401015185820153019699612c0b565b9050604051612cac81612134565b6000815290565b60018060a01b031690612cdd600080836020829551910182875af1612cd6612890565b9084612d35565b908151918215159283612d0d575b505050612cf55750565b60249060405190635274afe760e01b82526004820152fd5b8192935090602091810103126129d45760200151908115918215036129d15750388080612ceb565b90612d5c5750805115612d4a57805190602001fd5b604051630a12f52160e11b8152600490fd5b81511580612d8f575b612d6d575090565b604051639996b31560e01b81526001600160a01b039091166004820152602490fd5b50803b15612d6556fea264697066735822122079f4394830bd84b723426361590b2c53c0fa7df5588b9151632d1398d08d40dd64736f6c63430008180033290decd9548b62a8d60345a988386fc84ba6bc95484008f6362f93160ef3e563b10e2d527612073b26eecdfd717e6a320cf44b4afac2b0732d9fcbe2b7fa0cf6",
  "devdoc": {
    "details": "Users deposit dSTAKE tokens and receive NFTs representing their vesting positions.      NFTs can be burned for early exit or become soul-bound after matured withdrawal.",
    "errors": {
      "AddressEmptyCode(address)": [
        {
          "details": "There's no code at `target` (it is not a contract)."
        }
      ],
      "AddressInsufficientBalance(address)": [
        {
          "details": "The ETH balance of the account is not enough to perform the operation."
        }
      ],
      "ERC721EnumerableForbiddenBatchMint()": [
        {
          "details": "Batch mint is not allowed."
        }
      ],
      "ERC721IncorrectOwner(address,uint256,address)": [
        {
          "details": "Indicates an error related to the ownership over a particular token. Used in transfers.",
          "params": {
            "owner": "Address of the current owner of a token.",
            "sender": "Address whose tokens are being transferred.",
            "tokenId": "Identifier number of a token."
          }
        }
      ],
      "ERC721InsufficientApproval(address,uint256)": [
        {
          "details": "Indicates a failure with the `operator`s approval. Used in transfers.",
          "params": {
            "operator": "Address that may be allowed to operate on tokens without being their owner.",
            "tokenId": "Identifier number of a token."
          }
        }
      ],
      "ERC721InvalidApprover(address)": [
        {
          "details": "Indicates a failure with the `approver` of a token to be approved. Used in approvals.",
          "params": {
            "approver": "Address initiating an approval operation."
          }
        }
      ],
      "ERC721InvalidOperator(address)": [
        {
          "details": "Indicates a failure with the `operator` to be approved. Used in approvals.",
          "params": {
            "operator": "Address that may be allowed to operate on tokens without being their owner."
          }
        }
      ],
      "ERC721InvalidOwner(address)": [
        {
          "details": "Indicates that an address can't be an owner. For example, `address(0)` is a forbidden owner in EIP-20. Used in balance queries.",
          "params": {
            "owner": "Address of the current owner of a token."
          }
        }
      ],
      "ERC721InvalidReceiver(address)": [
        {
          "details": "Indicates a failure with the token `receiver`. Used in transfers.",
          "params": {
            "receiver": "Address to which tokens are being transferred."
          }
        }
      ],
      "ERC721InvalidSender(address)": [
        {
          "details": "Indicates a failure with the token `sender`. Used in transfers.",
          "params": {
            "sender": "Address whose tokens are being transferred."
          }
        }
      ],
      "ERC721NonexistentToken(uint256)": [
        {
          "details": "Indicates a `tokenId` whose `owner` is the zero address.",
          "params": {
            "tokenId": "Identifier number of a token."
          }
        }
      ],
      "ERC721OutOfBoundsIndex(address,uint256)": [
        {
          "details": "An `owner`'s token query was out of bounds for `index`. NOTE: The owner being `address(0)` indicates a global out of bounds index."
        }
      ],
      "FailedInnerCall()": [
        {
          "details": "A call to an address target failed. The target may have reverted."
        }
      ],
      "OwnableInvalidOwner(address)": [
        {
          "details": "The owner is not a valid owner account. (eg. `address(0)`)"
        }
      ],
      "OwnableUnauthorizedAccount(address)": [
        {
          "details": "The caller account is not authorized to perform an operation."
        }
      ],
      "ReentrancyGuardReentrantCall()": [
        {
          "details": "Unauthorized reentrant call."
        }
      ],
      "SafeERC20FailedOperation(address)": [
        {
          "details": "An operation with an ERC20 token failed."
        }
      ]
    },
    "events": {
      "Approval(address,address,uint256)": {
        "details": "Emitted when `owner` enables `approved` to manage the `tokenId` token."
      },
      "ApprovalForAll(address,address,bool)": {
        "details": "Emitted when `owner` enables or disables (`approved`) `operator` to manage all of its assets."
      },
      "Transfer(address,address,uint256)": {
        "details": "Emitted when `tokenId` token is transferred from `from` to `to`."
      }
    },
    "kind": "dev",
    "methods": {
      "approve(address,uint256)": {
        "details": "See {IERC721-approve}."
      },
      "balanceOf(address)": {
        "details": "See {IERC721-balanceOf}."
      },
      "constructor": {
        "params": {
          "_dstakeToken": "Address of the dSTAKE token",
          "_initialOwner": "Initial owner of the contract",
          "_maxTotalSupply": "Maximum total dSTAKE that can be deposited",
          "_minDepositAmount": "Minimum deposit amount threshold",
          "_name": "Name of the NFT collection",
          "_symbol": "Symbol of the NFT collection",
          "_vestingPeriod": "Vesting period in seconds (6 months)"
        }
      },
      "deposit(uint256)": {
        "params": {
          "amount": "Amount of dSTAKE tokens to deposit"
        },
        "returns": {
          "tokenId": "The ID of the minted NFT"
        }
      },
      "getApproved(uint256)": {
        "details": "See {IERC721-getApproved}."
      },
      "getRemainingVestingTime(uint256)": {
        "params": {
          "tokenId": "The NFT token ID"
        },
        "returns": {
          "_0": "Remaining time in seconds (0 if vesting complete)"
        }
      },
      "getVestingPosition(uint256)": {
        "params": {
          "tokenId": "The NFT token ID"
        },
        "returns": {
          "amount": "Amount of dSTAKE deposited",
          "depositTime": "Timestamp of deposit",
          "matured": "Whether the NFT is soul-bound",
          "vestingComplete": "Whether vesting period has ended"
        }
      },
      "isApprovedForAll(address,address)": {
        "details": "See {IERC721-isApprovedForAll}."
      },
      "isVestingComplete(uint256)": {
        "params": {
          "tokenId": "The NFT token ID"
        },
        "returns": {
          "_0": "Whether the vesting period has completed"
        }
      },
      "name()": {
        "details": "See {IERC721Metadata-name}."
      },
      "owner()": {
        "details": "Returns the address of the current owner."
      },
      "ownerOf(uint256)": {
        "details": "See {IERC721-ownerOf}."
      },
      "redeemEarly(uint256)": {
        "params": {
          "tokenId": "The ID of the NFT to redeem"
        }
      },
      "renounceOwnership()": {
        "details": "Leaves the contract without owner. It will not be possible to call `onlyOwner` functions. Can only be called by the current owner. NOTE: Renouncing ownership will leave the contract without an owner, thereby disabling any functionality that is only available to the owner."
      },
      "safeTransferFrom(address,address,uint256)": {
        "details": "See {IERC721-safeTransferFrom}."
      },
      "safeTransferFrom(address,address,uint256,bytes)": {
        "details": "See {IERC721-safeTransferFrom}."
      },
      "setApprovalForAll(address,bool)": {
        "details": "See {IERC721-setApprovalForAll}."
      },
      "setDepositsEnabled(bool)": {
        "params": {
          "enabled": "Whether deposits should be enabled"
        }
      },
      "setMaxTotalSupply(uint256)": {
        "details": "Can be set below current totalDeposited to allow withdrawals until cap is reached",
        "params": {
          "newMaxSupply": "New maximum total supply"
        }
      },
      "setMinDepositAmount(uint256)": {
        "params": {
          "newMinDepositAmount": "New minimum deposit amount"
        }
      },
      "symbol()": {
        "details": "See {IERC721Metadata-symbol}."
      },
      "tokenByIndex(uint256)": {
        "details": "See {IERC721Enumerable-tokenByIndex}."
      },
      "tokenOfOwnerByIndex(address,uint256)": {
        "details": "See {IERC721Enumerable-tokenOfOwnerByIndex}."
      },
      "tokenURI(uint256)": {
        "details": "See {IERC721Metadata-tokenURI}."
      },
      "totalSupply()": {
        "details": "See {IERC721Enumerable-totalSupply}."
      },
      "transferFrom(address,address,uint256)": {
        "details": "See {IERC721-transferFrom}."
      },
      "transferOwnership(address)": {
        "details": "Transfers ownership of the contract to a new account (`newOwner`). Can only be called by the current owner."
      },
      "withdrawMatured(uint256)": {
        "params": {
          "tokenId": "The ID of the NFT to withdraw from"
        }
      }
    },
    "title": "ERC20VestingNFT",
    "version": 1
  },
  "userdoc": {
    "kind": "user",
    "methods": {
      "constructor": {
        "notice": "Initialize the vesting NFT contract"
      },
      "deposit(uint256)": {
        "notice": "Deposit dSTAKE tokens and receive a vesting NFT"
      },
      "depositsEnabled()": {
        "notice": "Whether new deposits are enabled"
      },
      "dstakeToken()": {
        "notice": "The dSTAKE token contract"
      },
      "getRemainingVestingTime(uint256)": {
        "notice": "Get the remaining vesting time for a position"
      },
      "getVestingPosition(uint256)": {
        "notice": "Get vesting position details"
      },
      "isVestingComplete(uint256)": {
        "notice": "Check if a vesting position is ready for matured withdrawal"
      },
      "maxTotalSupply()": {
        "notice": "Maximum total dSTAKE supply that can be deposited"
      },
      "minDepositAmount()": {
        "notice": "Minimum deposit amount threshold"
      },
      "redeemEarly(uint256)": {
        "notice": "Redeem dSTAKE tokens early by burning the NFT (before vesting period)"
      },
      "setDepositsEnabled(bool)": {
        "notice": "Toggle whether new deposits are enabled"
      },
      "setMaxTotalSupply(uint256)": {
        "notice": "Update the maximum total supply of dSTAKE that can be deposited"
      },
      "setMinDepositAmount(uint256)": {
        "notice": "Set minimum deposit amount threshold"
      },
      "supportsInterface(bytes4)": {
        "notice": "Override required by Solidity for multiple inheritance"
      },
      "totalDeposited()": {
        "notice": "Current total dSTAKE deposited"
      },
      "vestingPeriod()": {
        "notice": "The vesting period duration (6 months, set at deployment)"
      },
      "vestingPositions(uint256)": {
        "notice": "Mapping from token ID to vesting position"
      },
      "withdrawMatured(uint256)": {
        "notice": "Withdraw dSTAKE tokens after vesting period and make NFT soul-bound"
      }
    },
    "notice": "A soft locker contract for dSTAKE tokens with 6-month vesting period",
    "version": 1
  },
  "storageLayout": {
    "storage": [
      {
        "astId": 3599,
        "contract": "contracts/vaults/vesting/ERC20VestingNFT.sol:ERC20VestingNFT",
        "label": "_name",
        "offset": 0,
        "slot": "0",
        "type": "t_string_storage"
      },
      {
        "astId": 3601,
        "contract": "contracts/vaults/vesting/ERC20VestingNFT.sol:ERC20VestingNFT",
        "label": "_symbol",
        "offset": 0,
        "slot": "1",
        "type": "t_string_storage"
      },
      {
        "astId": 3605,
        "contract": "contracts/vaults/vesting/ERC20VestingNFT.sol:ERC20VestingNFT",
        "label": "_owners",
        "offset": 0,
        "slot": "2",
        "type": "t_mapping(t_uint256,t_address)"
      },
      {
        "astId": 3609,
        "contract": "contracts/vaults/vesting/ERC20VestingNFT.sol:ERC20VestingNFT",
        "label": "_balances",
        "offset": 0,
        "slot": "3",
        "type": "t_mapping(t_address,t_uint256)"
      },
      {
        "astId": 3613,
        "contract": "contracts/vaults/vesting/ERC20VestingNFT.sol:ERC20VestingNFT",
        "label": "_tokenApprovals",
        "offset": 0,
        "slot": "4",
        "type": "t_mapping(t_uint256,t_address)"
      },
      {
        "astId": 3619,
        "contract": "contracts/vaults/vesting/ERC20VestingNFT.sol:ERC20VestingNFT",
        "label": "_operatorApprovals",
        "offset": 0,
        "slot": "5",
        "type": "t_mapping(t_address,t_mapping(t_address,t_bool))"
      },
      {
        "astId": 4729,
        "contract": "contracts/vaults/vesting/ERC20VestingNFT.sol:ERC20VestingNFT",
        "label": "_ownedTokens",
        "offset": 0,
        "slot": "6",
        "type": "t_mapping(t_address,t_mapping(t_uint256,t_uint256))"
      },
      {
        "astId": 4733,
        "contract": "contracts/vaults/vesting/ERC20VestingNFT.sol:ERC20VestingNFT",
        "label": "_ownedTokensIndex",
        "offset": 0,
        "slot": "7",
        "type": "t_mapping(t_uint256,t_uint256)"
      },
      {
        "astId": 4736,
        "contract": "contracts/vaults/vesting/ERC20VestingNFT.sol:ERC20VestingNFT",
        "label": "_allTokens",
        "offset": 0,
        "slot": "8",
        "type": "t_array(t_uint256)dyn_storage"
      },
      {
        "astId": 4740,
        "contract": "contracts/vaults/vesting/ERC20VestingNFT.sol:ERC20VestingNFT",
        "label": "_allTokensIndex",
        "offset": 0,
        "slot": "9",
        "type": "t_mapping(t_uint256,t_uint256)"
      },
      {
        "astId": 554,
        "contract": "contracts/vaults/vesting/ERC20VestingNFT.sol:ERC20VestingNFT",
        "label": "_owner",
        "offset": 0,
        "slot": "10",
        "type": "t_address"
      },
      {
        "astId": 5495,
        "contract": "contracts/vaults/vesting/ERC20VestingNFT.sol:ERC20VestingNFT",
        "label": "_status",
        "offset": 0,
        "slot": "11",
        "type": "t_uint256"
      },
      {
        "astId": 97012,
        "contract": "contracts/vaults/vesting/ERC20VestingNFT.sol:ERC20VestingNFT",
        "label": "depositsEnabled",
        "offset": 0,
        "slot": "12",
        "type": "t_bool"
      },
      {
        "astId": 97015,
        "contract": "contracts/vaults/vesting/ERC20VestingNFT.sol:ERC20VestingNFT",
        "label": "maxTotalSupply",
        "offset": 0,
        "slot": "13",
        "type": "t_uint256"
      },
      {
        "astId": 97018,
        "contract": "contracts/vaults/vesting/ERC20VestingNFT.sol:ERC20VestingNFT",
        "label": "minDepositAmount",
        "offset": 0,
        "slot": "14",
        "type": "t_uint256"
      },
      {
        "astId": 97021,
        "contract": "contracts/vaults/vesting/ERC20VestingNFT.sol:ERC20VestingNFT",
        "label": "totalDeposited",
        "offset": 0,
        "slot": "15",
        "type": "t_uint256"
      },
      {
        "astId": 97024,
        "contract": "contracts/vaults/vesting/ERC20VestingNFT.sol:ERC20VestingNFT",
        "label": "_tokenIdCounter",
        "offset": 0,
        "slot": "16",
        "type": "t_uint256"
      },
      {
        "astId": 97038,
        "contract": "contracts/vaults/vesting/ERC20VestingNFT.sol:ERC20VestingNFT",
        "label": "vestingPositions",
        "offset": 0,
        "slot": "17",
        "type": "t_mapping(t_uint256,t_struct(VestingPosition)97032_storage)"
      }
    ],
    "types": {
      "t_address": {
        "encoding": "inplace",
        "label": "address",
        "numberOfBytes": "20"
      },
      "t_array(t_uint256)dyn_storage": {
        "base": "t_uint256",
        "encoding": "dynamic_array",
        "label": "uint256[]",
        "numberOfBytes": "32"
      },
      "t_bool": {
        "encoding": "inplace",
        "label": "bool",
        "numberOfBytes": "1"
      },
      "t_mapping(t_address,t_bool)": {
        "encoding": "mapping",
        "key": "t_address",
        "label": "mapping(address => bool)",
        "numberOfBytes": "32",
        "value": "t_bool"
      },
      "t_mapping(t_address,t_mapping(t_address,t_bool))": {
        "encoding": "mapping",
        "key": "t_address",
        "label": "mapping(address => mapping(address => bool))",
        "numberOfBytes": "32",
        "value": "t_mapping(t_address,t_bool)"
      },
      "t_mapping(t_address,t_mapping(t_uint256,t_uint256))": {
        "encoding": "mapping",
        "key": "t_address",
        "label": "mapping(address => mapping(uint256 => uint256))",
        "numberOfBytes": "32",
        "value": "t_mapping(t_uint256,t_uint256)"
      },
      "t_mapping(t_address,t_uint256)": {
        "encoding": "mapping",
        "key": "t_address",
        "label": "mapping(address => uint256)",
        "numberOfBytes": "32",
        "value": "t_uint256"
      },
      "t_mapping(t_uint256,t_address)": {
        "encoding": "mapping",
        "key": "t_uint256",
        "label": "mapping(uint256 => address)",
        "numberOfBytes": "32",
        "value": "t_address"
      },
      "t_mapping(t_uint256,t_struct(VestingPosition)97032_storage)": {
        "encoding": "mapping",
        "key": "t_uint256",
        "label": "mapping(uint256 => struct ERC20VestingNFT.VestingPosition)",
        "numberOfBytes": "32",
        "value": "t_struct(VestingPosition)97032_storage"
      },
      "t_mapping(t_uint256,t_uint256)": {
        "encoding": "mapping",
        "key": "t_uint256",
        "label": "mapping(uint256 => uint256)",
        "numberOfBytes": "32",
        "value": "t_uint256"
      },
      "t_string_storage": {
        "encoding": "bytes",
        "label": "string",
        "numberOfBytes": "32"
      },
      "t_struct(VestingPosition)97032_storage": {
        "encoding": "inplace",
        "label": "struct ERC20VestingNFT.VestingPosition",
        "members": [
          {
            "astId": 97027,
            "contract": "contracts/vaults/vesting/ERC20VestingNFT.sol:ERC20VestingNFT",
            "label": "amount",
            "offset": 0,
            "slot": "0",
            "type": "t_uint256"
          },
          {
            "astId": 97029,
            "contract": "contracts/vaults/vesting/ERC20VestingNFT.sol:ERC20VestingNFT",
            "label": "depositTime",
            "offset": 0,
            "slot": "1",
            "type": "t_uint256"
          },
          {
            "astId": 97031,
            "contract": "contracts/vaults/vesting/ERC20VestingNFT.sol:ERC20VestingNFT",
            "label": "matured",
            "offset": 0,
            "slot": "2",
            "type": "t_bool"
          }
        ],
        "numberOfBytes": "96"
      },
      "t_uint256": {
        "encoding": "inplace",
        "label": "uint256",
        "numberOfBytes": "32"
      }
    }
  }
}