{
  "address": "0x0E953bc5AAa098E9b9229be145Ff55D1B7F409b2",
  "abi": [
    {
      "inputs": [
        {
          "internalType": "contract ILendingPool",
          "name": "_flashLoanLender",
          "type": "address"
        },
        {
          "internalType": "contract ILendingPoolAddressesProvider",
          "name": "_addressesProvider",
          "type": "address"
        },
        {
          "internalType": "contract ILendingPool",
          "name": "_liquidateLender",
          "type": "address"
        },
        {
          "internalType": "uint256",
          "name": "_slippageTolerance",
          "type": "uint256"
        },
        {
          "internalType": "contract ICurveRouterNgPoolsOnlyV1",
          "name": "_curveRouter",
          "type": "address"
        },
        {
          "internalType": "uint256",
          "name": "_maxSlippageSurplusSwapBps",
          "type": "uint256"
        },
        {
          "components": [
            {
              "internalType": "address",
              "name": "inputToken",
              "type": "address"
            },
            {
              "internalType": "address",
              "name": "outputToken",
              "type": "address"
            },
            {
              "components": [
                {
                  "internalType": "address[11]",
                  "name": "route",
                  "type": "address[11]"
                },
                {
                  "internalType": "uint256[4][5]",
                  "name": "swapParams",
                  "type": "uint256[4][5]"
                },
                {
                  "internalType": "uint256",
                  "name": "swapSlippageBufferBps",
                  "type": "uint256"
                }
              ],
              "internalType": "struct CurveHelper.CurveSwapExtraParams",
              "name": "swapExtraParams",
              "type": "tuple"
            },
            {
              "components": [
                {
                  "internalType": "address[11]",
                  "name": "route",
                  "type": "address[11]"
                },
                {
                  "internalType": "uint256[4][5]",
                  "name": "swapParams",
                  "type": "uint256[4][5]"
                },
                {
                  "internalType": "uint256",
                  "name": "swapSlippageBufferBps",
                  "type": "uint256"
                }
              ],
              "internalType": "struct CurveHelper.CurveSwapExtraParams",
              "name": "reverseSwapExtraParams",
              "type": "tuple"
            }
          ],
          "internalType": "struct FlashLoanLiquidatorAaveBorrowRepayCurve.CurveSwapExtraParamsDefaultConfig[]",
          "name": "_defaultSwapParamsList",
          "type": "tuple[]"
        }
      ],
      "stateMutability": "nonpayable",
      "type": "constructor"
    },
    {
      "inputs": [
        {
          "internalType": "address",
          "name": "inputToken",
          "type": "address"
        },
        {
          "internalType": "address",
          "name": "outputToken",
          "type": "address"
        },
        {
          "internalType": "string",
          "name": "key",
          "type": "string"
        }
      ],
      "name": "DuplicateKeyForSwapExtraParams",
      "type": "error"
    },
    {
      "inputs": [
        {
          "internalType": "uint256",
          "name": "balance",
          "type": "uint256"
        },
        {
          "internalType": "uint256",
          "name": "totalToRepay",
          "type": "uint256"
        }
      ],
      "name": "InsufficientFlashLoanRepayAmount",
      "type": "error"
    },
    {
      "inputs": [
        {
          "internalType": "uint256",
          "name": "flashLoanAmount",
          "type": "uint256"
        },
        {
          "internalType": "uint256",
          "name": "toLiquidate",
          "type": "uint256"
        }
      ],
      "name": "InvalidFlashLoanAmount",
      "type": "error"
    },
    {
      "inputs": [
        {
          "internalType": "address",
          "name": "tokenIn",
          "type": "address"
        },
        {
          "internalType": "address[11]",
          "name": "route",
          "type": "address[11]"
        }
      ],
      "name": "InvalidInputTokenInRoute",
      "type": "error"
    },
    {
      "inputs": [
        {
          "internalType": "uint256",
          "name": "value",
          "type": "uint256"
        }
      ],
      "name": "InvalidSlippageTolerance",
      "type": "error"
    },
    {
      "inputs": [],
      "name": "NoProfitableLiquidation",
      "type": "error"
    },
    {
      "inputs": [
        {
          "internalType": "address",
          "name": "inputToken",
          "type": "address"
        },
        {
          "internalType": "address",
          "name": "outputToken",
          "type": "address"
        },
        {
          "internalType": "string",
          "name": "key",
          "type": "string"
        }
      ],
      "name": "NotFoundKeyForSwapExtraParams",
      "type": "error"
    },
    {
      "inputs": [
        {
          "internalType": "address",
          "name": "_inputToken",
          "type": "address"
        },
        {
          "internalType": "address",
          "name": "_outputToken",
          "type": "address"
        },
        {
          "internalType": "bytes",
          "name": "_swapData",
          "type": "bytes"
        }
      ],
      "name": "NotSupportedCustomSwapData",
      "type": "error"
    },
    {
      "inputs": [],
      "name": "OnlyLiquidator",
      "type": "error"
    },
    {
      "inputs": [
        {
          "internalType": "uint256",
          "name": "value",
          "type": "uint256"
        },
        {
          "internalType": "uint256",
          "name": "length",
          "type": "uint256"
        }
      ],
      "name": "StringsInsufficientHexLength",
      "type": "error"
    },
    {
      "inputs": [],
      "name": "UnknownInitiator",
      "type": "error"
    },
    {
      "inputs": [],
      "name": "UnknownLender",
      "type": "error"
    },
    {
      "anonymous": false,
      "inputs": [
        {
          "indexed": true,
          "internalType": "address",
          "name": "initiator",
          "type": "address"
        },
        {
          "indexed": false,
          "internalType": "uint256",
          "name": "amount",
          "type": "uint256"
        }
      ],
      "name": "FlashLoan",
      "type": "event"
    },
    {
      "anonymous": false,
      "inputs": [
        {
          "indexed": true,
          "internalType": "address",
          "name": "liquidator",
          "type": "address"
        },
        {
          "indexed": false,
          "internalType": "address",
          "name": "borrower",
          "type": "address"
        },
        {
          "indexed": true,
          "internalType": "address",
          "name": "poolTokenBorrowedAddress",
          "type": "address"
        },
        {
          "indexed": true,
          "internalType": "address",
          "name": "poolTokenCollateralAddress",
          "type": "address"
        },
        {
          "indexed": false,
          "internalType": "uint256",
          "name": "amount",
          "type": "uint256"
        },
        {
          "indexed": false,
          "internalType": "uint256",
          "name": "seized",
          "type": "uint256"
        },
        {
          "indexed": false,
          "internalType": "bool",
          "name": "usingFlashLoan",
          "type": "bool"
        }
      ],
      "name": "Liquidated",
      "type": "event"
    },
    {
      "anonymous": false,
      "inputs": [
        {
          "indexed": true,
          "internalType": "address",
          "name": "_liquidatorAdded",
          "type": "address"
        }
      ],
      "name": "LiquidatorAdded",
      "type": "event"
    },
    {
      "anonymous": false,
      "inputs": [
        {
          "indexed": true,
          "internalType": "address",
          "name": "_liquidatorRemoved",
          "type": "address"
        }
      ],
      "name": "LiquidatorRemoved",
      "type": "event"
    },
    {
      "anonymous": false,
      "inputs": [
        {
          "indexed": true,
          "internalType": "address",
          "name": "previousOwner",
          "type": "address"
        },
        {
          "indexed": true,
          "internalType": "address",
          "name": "newOwner",
          "type": "address"
        }
      ],
      "name": "OwnershipTransferred",
      "type": "event"
    },
    {
      "anonymous": false,
      "inputs": [
        {
          "indexed": false,
          "internalType": "uint256",
          "name": "newTolerance",
          "type": "uint256"
        }
      ],
      "name": "SlippageToleranceSet",
      "type": "event"
    },
    {
      "anonymous": false,
      "inputs": [
        {
          "indexed": true,
          "internalType": "address",
          "name": "sender",
          "type": "address"
        },
        {
          "indexed": true,
          "internalType": "address",
          "name": "receiver",
          "type": "address"
        },
        {
          "indexed": true,
          "internalType": "address",
          "name": "underlyingAddress",
          "type": "address"
        },
        {
          "indexed": false,
          "internalType": "uint256",
          "name": "amount",
          "type": "uint256"
        }
      ],
      "name": "Withdrawn",
      "type": "event"
    },
    {
      "inputs": [],
      "name": "ADDRESSES_PROVIDER",
      "outputs": [
        {
          "internalType": "contract IPoolAddressesProvider",
          "name": "",
          "type": "address"
        }
      ],
      "stateMutability": "view",
      "type": "function"
    },
    {
      "inputs": [],
      "name": "POOL",
      "outputs": [
        {
          "internalType": "contract IPool",
          "name": "",
          "type": "address"
        }
      ],
      "stateMutability": "view",
      "type": "function"
    },
    {
      "inputs": [
        {
          "internalType": "address",
          "name": "_newLiquidator",
          "type": "address"
        }
      ],
      "name": "addLiquidator",
      "outputs": [],
      "stateMutability": "nonpayable",
      "type": "function"
    },
    {
      "inputs": [],
      "name": "addressesProvider",
      "outputs": [
        {
          "internalType": "contract ILendingPoolAddressesProvider",
          "name": "",
          "type": "address"
        }
      ],
      "stateMutability": "view",
      "type": "function"
    },
    {
      "inputs": [],
      "name": "curveRouter",
      "outputs": [
        {
          "internalType": "contract ICurveRouterNgPoolsOnlyV1",
          "name": "",
          "type": "address"
        }
      ],
      "stateMutability": "view",
      "type": "function"
    },
    {
      "inputs": [
        {
          "internalType": "string",
          "name": "",
          "type": "string"
        }
      ],
      "name": "defaultSwapParams",
      "outputs": [
        {
          "internalType": "uint256",
          "name": "swapSlippageBufferBps",
          "type": "uint256"
        }
      ],
      "stateMutability": "view",
      "type": "function"
    },
    {
      "inputs": [
        {
          "internalType": "address",
          "name": "",
          "type": "address"
        },
        {
          "internalType": "uint256",
          "name": "flashLoanAmount",
          "type": "uint256"
        },
        {
          "internalType": "uint256",
          "name": "premium",
          "type": "uint256"
        },
        {
          "internalType": "address",
          "name": "_initiator",
          "type": "address"
        },
        {
          "internalType": "bytes",
          "name": "params",
          "type": "bytes"
        }
      ],
      "name": "executeOperation",
      "outputs": [
        {
          "internalType": "bool",
          "name": "",
          "type": "bool"
        }
      ],
      "stateMutability": "nonpayable",
      "type": "function"
    },
    {
      "inputs": [],
      "name": "flashLoanLender",
      "outputs": [
        {
          "internalType": "contract ILendingPool",
          "name": "",
          "type": "address"
        }
      ],
      "stateMutability": "view",
      "type": "function"
    },
    {
      "inputs": [
        {
          "internalType": "address",
          "name": "_collateralUnderlying",
          "type": "address"
        },
        {
          "internalType": "bool",
          "name": "_isUnstakeCollateralToken",
          "type": "bool"
        }
      ],
      "name": "getActualCollateralToken",
      "outputs": [
        {
          "internalType": "address",
          "name": "actualCollateralToken_",
          "type": "address"
        },
        {
          "internalType": "address",
          "name": "proxyContract_",
          "type": "address"
        }
      ],
      "stateMutability": "view",
      "type": "function"
    },
    {
      "inputs": [
        {
          "internalType": "address",
          "name": "_collateralUnderlying",
          "type": "address"
        }
      ],
      "name": "getProxyContract",
      "outputs": [
        {
          "internalType": "address",
          "name": "",
          "type": "address"
        }
      ],
      "stateMutability": "view",
      "type": "function"
    },
    {
      "inputs": [
        {
          "internalType": "address",
          "name": "",
          "type": "address"
        }
      ],
      "name": "isLiquidator",
      "outputs": [
        {
          "internalType": "bool",
          "name": "",
          "type": "bool"
        }
      ],
      "stateMutability": "view",
      "type": "function"
    },
    {
      "inputs": [
        {
          "internalType": "string",
          "name": "",
          "type": "string"
        }
      ],
      "name": "isSwapParamsSet",
      "outputs": [
        {
          "internalType": "bool",
          "name": "",
          "type": "bool"
        }
      ],
      "stateMutability": "view",
      "type": "function"
    },
    {
      "inputs": [
        {
          "internalType": "address",
          "name": "_poolTokenBorrowedAddress",
          "type": "address"
        },
        {
          "internalType": "address",
          "name": "_poolTokenCollateralAddress",
          "type": "address"
        },
        {
          "internalType": "address",
          "name": "_borrower",
          "type": "address"
        },
        {
          "internalType": "uint256",
          "name": "_repayAmount",
          "type": "uint256"
        },
        {
          "internalType": "bool",
          "name": "_stakeTokens",
          "type": "bool"
        },
        {
          "internalType": "bool",
          "name": "_isUnstakeCollateralToken",
          "type": "bool"
        },
        {
          "internalType": "bytes",
          "name": "_swapData",
          "type": "bytes"
        }
      ],
      "name": "liquidate",
      "outputs": [],
      "stateMutability": "nonpayable",
      "type": "function"
    },
    {
      "inputs": [],
      "name": "liquidateLender",
      "outputs": [
        {
          "internalType": "contract ILendingPool",
          "name": "",
          "type": "address"
        }
      ],
      "stateMutability": "view",
      "type": "function"
    },
    {
      "inputs": [],
      "name": "maxSlippageSurplusSwapBps",
      "outputs": [
        {
          "internalType": "uint256",
          "name": "",
          "type": "uint256"
        }
      ],
      "stateMutability": "view",
      "type": "function"
    },
    {
      "inputs": [],
      "name": "owner",
      "outputs": [
        {
          "internalType": "address",
          "name": "",
          "type": "address"
        }
      ],
      "stateMutability": "view",
      "type": "function"
    },
    {
      "inputs": [
        {
          "internalType": "address",
          "name": "_collateralERC4626Token",
          "type": "address"
        },
        {
          "internalType": "uint256",
          "name": "_amount",
          "type": "uint256"
        },
        {
          "internalType": "address",
          "name": "_recipient",
          "type": "address"
        }
      ],
      "name": "redeemERC4626Token",
      "outputs": [
        {
          "internalType": "uint256",
          "name": "",
          "type": "uint256"
        }
      ],
      "stateMutability": "nonpayable",
      "type": "function"
    },
    {
      "inputs": [
        {
          "internalType": "address",
          "name": "_liquidatorToRemove",
          "type": "address"
        }
      ],
      "name": "removeLiquidator",
      "outputs": [],
      "stateMutability": "nonpayable",
      "type": "function"
    },
    {
      "inputs": [],
      "name": "renounceOwnership",
      "outputs": [],
      "stateMutability": "nonpayable",
      "type": "function"
    },
    {
      "inputs": [
        {
          "internalType": "address",
          "name": "_collateralUnderlying",
          "type": "address"
        },
        {
          "internalType": "address",
          "name": "_proxyContract",
          "type": "address"
        }
      ],
      "name": "setProxyContract",
      "outputs": [],
      "stateMutability": "nonpayable",
      "type": "function"
    },
    {
      "inputs": [
        {
          "internalType": "uint256",
          "name": "_newTolerance",
          "type": "uint256"
        }
      ],
      "name": "setSlippageTolerance",
      "outputs": [],
      "stateMutability": "nonpayable",
      "type": "function"
    },
    {
      "inputs": [
        {
          "components": [
            {
              "internalType": "address",
              "name": "inputToken",
              "type": "address"
            },
            {
              "internalType": "address",
              "name": "outputToken",
              "type": "address"
            },
            {
              "components": [
                {
                  "internalType": "address[11]",
                  "name": "route",
                  "type": "address[11]"
                },
                {
                  "internalType": "uint256[4][5]",
                  "name": "swapParams",
                  "type": "uint256[4][5]"
                },
                {
                  "internalType": "uint256",
                  "name": "swapSlippageBufferBps",
                  "type": "uint256"
                }
              ],
              "internalType": "struct CurveHelper.CurveSwapExtraParams",
              "name": "swapExtraParams",
              "type": "tuple"
            },
            {
              "components": [
                {
                  "internalType": "address[11]",
                  "name": "route",
                  "type": "address[11]"
                },
                {
                  "internalType": "uint256[4][5]",
                  "name": "swapParams",
                  "type": "uint256[4][5]"
                },
                {
                  "internalType": "uint256",
                  "name": "swapSlippageBufferBps",
                  "type": "uint256"
                }
              ],
              "internalType": "struct CurveHelper.CurveSwapExtraParams",
              "name": "reverseSwapExtraParams",
              "type": "tuple"
            }
          ],
          "internalType": "struct FlashLoanLiquidatorAaveBorrowRepayCurve.CurveSwapExtraParamsDefaultConfig",
          "name": "_swapExtraParamsConfig",
          "type": "tuple"
        }
      ],
      "name": "setSwapExtraParams",
      "outputs": [],
      "stateMutability": "nonpayable",
      "type": "function"
    },
    {
      "inputs": [],
      "name": "slippageTolerance",
      "outputs": [
        {
          "internalType": "uint256",
          "name": "",
          "type": "uint256"
        }
      ],
      "stateMutability": "view",
      "type": "function"
    },
    {
      "inputs": [
        {
          "internalType": "address",
          "name": "newOwner",
          "type": "address"
        }
      ],
      "name": "transferOwnership",
      "outputs": [],
      "stateMutability": "nonpayable",
      "type": "function"
    },
    {
      "inputs": [
        {
          "internalType": "address",
          "name": "_underlyingAddress",
          "type": "address"
        },
        {
          "internalType": "address",
          "name": "_receiver",
          "type": "address"
        },
        {
          "internalType": "uint256",
          "name": "_amount",
          "type": "uint256"
        }
      ],
      "name": "withdraw",
      "outputs": [],
      "stateMutability": "nonpayable",
      "type": "function"
    }
  ],
  "transactionHash": "0x1f1116be5fbda27a0ac67ba3edd9548518e5c9174447eb8a208a191515370a21",
  "args": [
    "0xa7e750C73DE7d19f06D956d704A39fdDfE99D9ea",
    "0xC691F14942B37668C9904b701E3118A133611b3c",
    "0xa7e750C73DE7d19f06D956d704A39fdDfE99D9ea",
    500000,
    "0xF66c3Ef85BceafaEcE9171E25Eee2972b10e1958",
    200000,
    [
      {
        "inputToken": "0x4D6E79013212F10A026A1FB0b926C9Fd0432b96c",
        "outputToken": "0x0Dbf64462FEC588df32FC5C9941421F7d93e0Fb3",
        "swapExtraParams": {
          "route": [
            "0x4D6E79013212F10A026A1FB0b926C9Fd0432b96c",
            "0x93f785642837e082ff95bB69E64e5B6967857c74",
            "0x2CAb811d351B4eF492D8C197E09939F1C9f54330",
            "0x6a7173EA306983f3721Cc9A3c6EA7f0a3a2f3c13",
            "0x0Dbf64462FEC588df32FC5C9941421F7d93e0Fb3",
            "0x0000000000000000000000000000000000000000",
            "0x0000000000000000000000000000000000000000",
            "0x0000000000000000000000000000000000000000",
            "0x0000000000000000000000000000000000000000",
            "0x0000000000000000000000000000000000000000",
            "0x0000000000000000000000000000000000000000"
          ],
          "swapParams": [
            [
              0,
              1,
              1,
              2
            ],
            [
              0,
              1,
              1,
              2
            ],
            [
              0,
              0,
              0,
              0
            ],
            [
              0,
              0,
              0,
              0
            ],
            [
              0,
              0,
              0,
              0
            ]
          ],
          "swapSlippageBufferBps": 50000
        },
        "reverseSwapExtraParams": {
          "route": [
            "0x0Dbf64462FEC588df32FC5C9941421F7d93e0Fb3",
            "0x6a7173EA306983f3721Cc9A3c6EA7f0a3a2f3c13",
            "0x2CAb811d351B4eF492D8C197E09939F1C9f54330",
            "0x93f785642837e082ff95bB69E64e5B6967857c74",
            "0x4D6E79013212F10A026A1FB0b926C9Fd0432b96c",
            "0x0000000000000000000000000000000000000000",
            "0x0000000000000000000000000000000000000000",
            "0x0000000000000000000000000000000000000000",
            "0x0000000000000000000000000000000000000000",
            "0x0000000000000000000000000000000000000000",
            "0x0000000000000000000000000000000000000000"
          ],
          "swapParams": [
            [
              1,
              0,
              1,
              2
            ],
            [
              1,
              0,
              1,
              2
            ],
            [
              0,
              0,
              0,
              0
            ],
            [
              0,
              0,
              0,
              0
            ],
            [
              0,
              0,
              0,
              0
            ]
          ],
          "swapSlippageBufferBps": 50000
        }
      }
    ]
  ],
  "numDeployments": 12,
  "solcInputHash": "20ff408f655da67d47f547567fdb02d4",
  "bytecode": "0x61012080604052346200066a576200320b803803809162000021828562000685565b833960e08282810103126200066a576200003b82620006a9565b6020830151906001600160a01b03821682036200066a576200006060408501620006a9565b606085015160808601519390916001600160a01b03851685036200066a5760a087015160c0880151979096906001600160401b0389116200066a57818101601f8a83010112156200066a5780890151906001600160401b0382116200066f5760405199620000d560208460051b018c62000685565b828b5260208b0190848301602061084086028386010101116200066a5790602082840101915b6020610840860282860101018310620005c4578c8c8c7f84cb977e2a9a6a9b1fc0d73c4b02cd51695c09eb0d3008d61019a7c0a7406c4c60208e8e8e8e6001600055600154933360018060a01b031986161760015560405194339060018060a01b03167f8be0079c531659141344cd1fd0a4f28419497f9722a3daafe3b4186f6b6457e0600080a333600052600286526040600020600160ff19825416179055337fb0a258c58bd721bcb64542ee0e4e4c843ae58242f908c0681ad82d40d688f1fa600080a260805260a05260c052806003558152a16001600160a01b031660e0526101005260005b815181101562000555576200022a6001600160a01b03620002068385620007ee565b5151166001600160a01b0360206200021f8587620007ee565b510151169062000884565b60ff604051602081845162000243818385890162000819565b810160068152030190205416620005035760405160208183516200026b818385880162000819565b81016006815203019020600160ff19825416179055620002ac60206040620002948587620007ee565b51015192816040519382858094519384920162000819565b8101600581520301902090805160005b600b8110620004e55750506020810151600b8301906000905b60058210620004a65750505060400151601f9190910155620003286001600160a01b036020620003068486620007ee565b510151166001600160a01b036200031e8486620007ee565b5151169062000884565b60ff604051602081845162000341818385890162000819565b8101600681520301902054166200045057604051602081835162000369818385880162000819565b81016006815203019020600160ff198254161790556200039260206060620002948587620007ee565b8101600581520301902090805160005b600b8110620004325750506020810151600b83016000915b60058310620003f9575050506040601f9101519101556000198114620003e357600101620001e4565b634e487b7160e01b600052601160045260246000fd5b805160005b600481106200041d5750506004602060019201920192019190620003ba565b600190602083519301928186015501620003fe565b81516001600160a01b031681850155602090910190600101620003a2565b91620004a290620004846001600160a01b036020620004708685620007ee565b51015116936001600160a01b0392620007ee565b515116926040519384936372b8027f60e01b8552600485016200083e565b0390fd5b809695965160005b60048110620004d05750506004602060019201930191019091959495620002d5565b600190602083519301928187015501620004ae565b81516001600160a01b031681850155602090910190600101620002bc565b91620004a2906020620005366001600160a01b03620005238685620007ee565b515116946001600160a01b0393620007ee565b51015116926040519384936372b8027f60e01b8552600485016200083e565b60405161280d9081620009fe823960805181818161072301528181611602015281816118550152611c2b015260a05181818161032401526112ae015260c0518181816101c80152611cff015260e051818181610b8801526125ba01526101005181818161058b01526125980152f35b6108408387860103126200066a576040516080810192906001600160401b038411818510176200065557602061084092839282966040526200060688620006a9565b815262000615838901620006a9565b838201526200062a8b8a0160408a01620006be565b6040820152620006418b8a016104408a01620006be565b6060820152815201940193925050620000fb565b60246000634e487b7160e01b81526041600452fd5b600080fd5b634e487b7160e01b600052604160045260246000fd5b601f909101601f19168101906001600160401b038211908210176200066f57604052565b51906001600160a01b03821682036200066a57565b9190610400838203126200066a57604080519160608301906001600160401b03808311858410176200066f578496601f918383830112156200066a576101c08701858110828211176200066f578652846101608301958587116200066a5783905b878210620007d357505087528361017f830112156200066a5785519360a08501858110838211176200066f5787526103e0859301958187116200066a57925b86841062000776575050505050602084015251910152565b8185850112156200066a57875160808082018281108682111762000655578a52819086018481116200066a5786915b818310620007c2575050508160209160809352019301926200075e565b8251815260209283019201620007a5565b60208091620007e284620006a9565b8152019101906200071f565b8051821015620008035760209160051b010190565b634e487b7160e01b600052603260045260246000fd5b60005b8381106200082d5750506000910152565b81810151838201526020016200081c565b91906080939160018060a01b0380921684521660208301526060604083015262000878815180928160608601526020868601910162000819565b601f01601f1916010190565b620008fc90602190620008af906001600160a01b0390620008a7908216620008ff565b9416620008ff565b926040519381620008cb86935180926020808701910162000819565b8201602d60f81b6020820152620008ec825180936020878501910162000819565b0103600181018452018262000685565b90565b6040519080606083016001600160401b038111848210176200066f57604052602a835260208084016040368237845115620008035760309053835190600191821015620008035790607860218601536029915b818311620009855750505062000966575090565b6044906040519063e22e27eb60e01b8252600482015260146024820152fd5b909192600f81166010811015620009e8578651851015620009e8576f181899199a1a9b1b9c1cb0b131b232b360811b901a86850183015360041c928015620009d35760001901919062000952565b60246000634e487b7160e01b81526011600452fd5b60246000634e487b7160e01b81526032600452fdfe6080604052600436101561001257600080fd5b60003560e01c80630542975c14610152578063117da1ee1461019d5780631b11d0ff146101985780632a6b0c24146101935780632b4481ca1461018e578063313c9b8d146101895780634c4e7f6f14610184578063506864791461017f578063529a356f1461017a578063715018a6146101755780637535d2461461016b57806382e9dd9e1461017057806383f49f581461016b578063845a9f78146101665780638da5cb5b14610161578063987762881461015c5780639922595514610157578063c72c4d1014610152578063cda90b881461014d578063d03153aa14610148578063d9caed1214610143578063efb744001461013e578063f2fde38b14610139578063f5a58663146101345763fc4fdd3d1461012f57600080fd5b611042565b610f62565b610d32565b610cbc565b610bd5565b610bb7565b610b72565b6101b2565b610880565b6107f5565b6107cc565b610780565b61070d565b610752565b6106a9565b610667565b610627565b6105ae565b610573565b61054d565b61030e565b610284565b6101f7565b60009103126101ad57565b600080fd5b346101ad5760003660031901126101ad576040517f00000000000000000000000000000000000000000000000000000000000000006001600160a01b03168152602090f35b346101ad5760203660031901126101ad5760043561022060018060a01b0360015416331461107b565b620f4240811161025b576020817f84cb977e2a9a6a9b1fc0d73c4b02cd51695c09eb0d3008d61019a7c0a7406c4c92600355604051908152a1005b6024906040519063295eaa3d60e01b82526004820152fd5b6001600160a01b038116036101ad57565b346101ad5760a03660031901126101ad576102a0600435610273565b6064356102ac81610273565b6084356001600160401b038082116101ad57366023830112156101ad5781600401359081116101ad5736602482840101116101ad5761030a9260246102f8930190604435602435611846565b60405190151581529081906020820190565b0390f35b346101ad5760003660031901126101ad576040517f00000000000000000000000000000000000000000000000000000000000000006001600160a01b03168152602090f35b634e487b7160e01b600052604160045260246000fd5b606081019081106001600160401b0382111761038457604052565b610353565b6001600160401b03811161038457604052565b61012081019081106001600160401b0382111761038457604052565b60a081019081106001600160401b0382111761038457604052565b608081019081106001600160401b0382111761038457604052565b61016081019081106001600160401b0382111761038457604052565b90601f801991011681019081106001600160401b0382111761038457604052565b6040519061010082018281106001600160401b0382111761038457604052565b604051906104588261039c565b565b9291926001600160401b0382116103845760405191610483601f8201601f19166020018461040a565b8294818452818301116101ad578281602093846000960137010152565b60206003198201126101ad57600435906001600160401b0382116101ad57806023830112156101ad578160246104db9360040135910161045a565b90565b60005b8381106104f15750506000910152565b81810151838201526020016104e1565b602061051a9181604051938285809451938492016104de565b8101600681520301902090565b60206105409181604051938285809451938492016104de565b8101600581520301902090565b346101ad57602060ff610567610562366104a0565b610501565b54166040519015158152f35b346101ad5760003660031901126101ad5760206040517f00000000000000000000000000000000000000000000000000000000000000008152f35b346101ad5760203660031901126101ad576004356105cb81610273565b6001546001600160a01b0391906105e5908316331461107b565b166000818152600260205260408120805460ff19166001179055907fb0a258c58bd721bcb64542ee0e4e4c843ae58242f908c0681ad82d40d688f1fa8280a280f35b346101ad5760603660031901126101ad57602061065f60043561064981610273565b6044359061065682610273565b6024359061112a565b604051908152f35b346101ad5760203660031901126101ad5760043561068481610273565b60018060a01b03166000526002602052602060ff604060002054166040519015158152f35b346101ad5760008060031936011261070a5760015481906001600160a01b038116906106d633831461107b565b6001600160a01b0319166001557f8be0079c531659141344cd1fd0a4f28419497f9722a3daafe3b4186f6b6457e08280a380f35b80fd5b346101ad5760003660031901126101ad576040517f00000000000000000000000000000000000000000000000000000000000000006001600160a01b03168152602090f35b346101ad576020601f61076c610767366104a0565b610527565b0154604051908152f35b801515036101ad57565b346101ad5760403660031901126101ad5760406107b46004356107a281610273565b602435906107af82610776565b612079565b82516001600160a01b03928316815291166020820152f35b346101ad5760003660031901126101ad576001546040516001600160a01b039091168152602090f35b346101ad5760403660031901126101ad5760043561081281610273565b6024359061081f82610273565b6001546001600160a01b0391829161083a908316331461107b565b166000526004602052604060002091166bffffffffffffffffffffffff60a01b825416179055600080f35b9080601f830112156101ad578160206104db9335910161045a565b346101ad5760e03660031901126101ad5760043561089d81610273565b6024356108a981610273565b604435916108b683610273565b608435906064356108c683610776565b60a435946108d386610776565b60c4356001600160401b0381116101ad576108f2903690600401610865565b6000966002885414610b2d576002885561090b876117e3565b92610915866117e3565b9561093061092161042b565b6001600160a01b039096168652565b6001600160a01b03968716602086018181529988166040870190815291881660608701908152336080880190815293891660a0880190815260c0880189815286151560e08a0152999b998d9994959094919390929190610997905b6001600160a01b031690565b6040516370a0823160e01b815230600482015290602090829060249082905afa908115610b28578f91610afa575b5010610a0757505050505050506109dd91925061124c565b915b156109f3575b836109f06001600055565b80f35b6109ff923391166111c9565b3880806109e5565b919395975091939551610a1f9060018060a01b031690565b6001600160a01b031697516001600160a01b03166001600160a01b031694516001600160a01b03166001600160a01b031690516001600160a01b03166001600160a01b031691516001600160a01b031692516001600160a01b0316935194610a8561044b565b6001600160a01b0390991689526001600160a01b031660208901526001600160a01b031660408801526001600160a01b031660608701526001600160a01b031660808601526001600160a01b031660a085015260c0840152151560e0830152610100820152610af39061158c565b90916109df565b610b1b915060203d8111610b21575b610b13818361040a565b81019061110f565b386109c5565b503d610b09565b61111e565b60405162461bcd60e51b815260206004820152601f60248201527f5265656e7472616e637947756172643a207265656e7472616e742063616c6c006044820152606490fd5b346101ad5760003660031901126101ad576040517f00000000000000000000000000000000000000000000000000000000000000006001600160a01b03168152602090f35b346101ad5760003660031901126101ad576020600354604051908152f35b346101ad5760603660031901126101ad57600435610bf281610273565b602435610bfe81610273565b6044359160018060a01b038091610c1a8260015416331461107b565b6040516370a0823160e01b8152306004820152911693602082602481885afa908115610b28577fa4195c37c2947bbe89165f03e320b6903116f0b10d8cfdb522330f7ce6f9fa2492600092610c9c575b5081811115610c945750915b610c818385876111c9565b60405192835292909216913391602090a4005b905091610c76565b610cb591925060203d8111610b2157610b13818361040a565b9038610c6a565b346101ad5760203660031901126101ad57600435610cd981610273565b6001546001600160a01b039190610cf3908316331461107b565b166000818152600260205260408120805460ff19169055907f06091797105e9997e06a57873c81a60a419050caf1d0ffedacc53ffc767f84f58280a280f35b346101ad5760203660031901126101ad57600435610d4f81610273565b6001546001600160a01b0390610d68908216331461107b565b811615610d7a57610d78906110c6565b005b60405162461bcd60e51b815260206004820152602660248201527f4f776e61626c653a206e6577206f776e657220697320746865207a65726f206160448201526564647265737360d01b6064820152608490fd5b806105c312156101ad57604090815191610de7836103b8565b82610824918383116101ad576105a4915b838310610e0757505050505090565b84601f840112156101ad578151610e1d816103d3565b80608085018781116101ad5785915b818310610e4757505050816020916080935201920191610df8565b8235815260209283019201610e2c565b806101c312156101ad57604090815191610e70836103b8565b82610424918383116101ad576101a4915b838310610e9057505050505090565b84601f840112156101ad578151610ea6816103d3565b80608085018781116101ad5785915b818310610ed057505050816020916080935201920191610e81565b8235815260209283019201610eb5565b90610400610443198301126101ad57604051610efb81610369565b80928061046312156101ad57604051610f13816103ee565b6105a4818382116101ad57610444905b828210610f48575050508252610f3890610dce565b6020820152604061082435910152565b602080918335610f5781610273565b815201910190610f23565b346101ad576108403660031901126101ad5760408051608081018181106001600160401b03821117610384578252600435610f9c81610273565b815260243591610fab83610273565b602092838301526104006043193601126101ad57805190610fcb82610369565b36606312156101ad578051610fdf816103ee565b6101a4813682116101ad576044905b828210611029575050508252610d789361100736610e57565b90830152610424358183015282015261101f36610ee0565b60608201526120de565b878091833561103781610273565b815201910190610fee565b346101ad5760203660031901126101ad57602061106960043561106481610273565b61118a565b6040516001600160a01b039091168152f35b1561108257565b606460405162461bcd60e51b815260206004820152602060248201527f4f776e61626c653a2063616c6c6572206973206e6f7420746865206f776e65726044820152fd5b600180546001600160a01b039283166001600160a01b0319821681179092559091167f8be0079c531659141344cd1fd0a4f28419497f9722a3daafe3b4186f6b6457e0600080a3565b908160209103126101ad575190565b6040513d6000823e3d90fd5b606460209260006040519586948593635d043b2960e11b8552600485015260018060a01b038092168060248601526044850152165af1908115610b2857600091611172575090565b6104db915060203d8111610b2157610b13818361040a565b6001600160a01b0381811660009081526004602052604090205416806111ae575090565b905090565b634e487b7160e01b600052601160045260246000fd5b600091826044926020956040519363a9059cbb60e01b8552600485015260248401525af13d15601f3d116001600051141617161561120357565b60405162461bcd60e51b815260206004820152600f60248201526e1514905394d1915497d19052531151608a1b6044820152606490fd5b9190820391821161124757565b6111b3565b8051909190611263906001600160a01b031661098b565b6040516370a0823160e01b808252306004830152936020928390839060249082905afa918215610b285760009261149f575b50808301516001600160a01b03169160018060a01b03807f000000000000000000000000000000000000000000000000000000000000000016966112e060c0850195898751916114be565b604084019561130361098b6112fe61098b8a5160018060a01b031690565b6117e3565b94606081019561132261098b6112fe61098b8a5160018060a01b031690565b60a083018051909c919291906001600160a01b0316908a5193813b156101ad5760405162a718a960e01b81526001600160a01b0394851660048201529084166024820152919092166044820152606481019290925260006084830181905290829060a490829084905af18015610b285783926113af9261098b92611486575b50516001600160a01b031690565b604051938452306004850152839060249082905afa938415610b285761098b61141f61141161141f937fe96c57864e490909fadd8ddc506e391bc4946ed905e39f7e71321861c798d3e69861142d9761098b97600092611469575b505061123a565b9b516001600160a01b031690565b96516001600160a01b031690565b9351604080516001600160a01b03909516855260208501919091528301879052600060608401529283169390921691339180608081015b0390a4565b61147f9250803d10610b2157610b13818361040a565b388061140a565b8061149361149992610389565b806101a2565b386113a1565b6114b7919250833d8511610b2157610b13818361040a565b9038611295565b600091826044926020956040519363095ea7b360e01b8552600485015260248401525af13d15601f3d11600160005114161716156114f857565b60405162461bcd60e51b815260206004820152600e60248201526d1054141493d59157d1905253115160921b6044820152606490fd5b90602091611547815180928185528580860191016104de565b601f01601f1916010190565b94936000936115879260809460018060a01b038092168952166020880152604087015260a0606087015260a086019061152e565b930152565b61159581611733565b81519092906115b5906001600160a01b031660e084015115155b90612079565b506040516370a0823160e01b8082523060048301526001600160a01b0395929460209386881692908585602481875afa948515610b2857600095611714575b5060c08301519286015192987f000000000000000000000000000000000000000000000000000000000000000016926001600160a01b031690833b156101ad5761165b938a60008094604051978895869485936310ac2ddf60e21b85523060048601611553565b03925af1918215610b28578592611701575b5060405190815230600482015291829060249082905afa928315610b28576000936116e2575b5050808211156116d8576116a69161123a565b925b60405190815233907f134bde118562a60dcf2d8c52965f586e25cf88a371592e44b78c4aa03bcbac8490602090a2565b50506000926116a8565b6116f9929350803d10610b2157610b13818361040a565b903880611693565b8061149361170e92610389565b3861166d565b61172c919550863d8811610b2157610b13818361040a565b93386115f4565b6104db60018060a01b03916117c08382511691846020820151169480604083015116918160608201511691806080830151169060a08301511660c08301519160e084015115159461010080950151966040519b8c9a60208c015260408b015260608a0152608089015260a088015260c087015260e08601528401526101208084015261014083019061152e565b03601f19810183528261040a565b908160209103126101ad57516104db81610273565b6040516358b50cef60e11b81526001600160a01b03916020908290600490829086165afa908115610b285760009161181a57501690565b61183b915060203d811161183f575b611833818361040a565b8101906117ce565b1690565b503d611829565b94939092916001600160a01b037f0000000000000000000000000000000000000000000000000000000000000000811633036118e257309116036118d05761188d9161198a565b60c0810151938481036118ab57506118a6929350611ae0565b600190565b60405163021652b960e21b8152600481019190915260248101859052604490fd5b0390fd5b604051634ac321c360e11b8152600490fd5b604051631e4a393d60e31b8152600490fd5b91610120838303126101ad57823561190b81610273565b92602081013561191a81610273565b92604082013561192981610273565b92606083013561193881610273565b92608081013561194781610273565b9260a082013561195681610273565b9260c08301359260e081013561196b81610776565b926101008201356001600160401b0381116101ad576104db9201610865565b9190916040519061199a8261039c565b600091828152602081019183835260408201928484526060830194808652608084019581875260a085019382855260c086019183835260e0870193845261010087019660608852809b8301916119f083856118f4565b505050506001600160a01b03918216909552908116909c528b16909752509488169094528693611a1f916118f4565b909c529a151590975298949350611a3592505050565b52166001600160a01b03169052166001600160a01b03169052565b908160209103126101ad57516104db81610776565b908160209103126101ad575160ff811681036101ad5790565b60ff16604d811161124757600a0a90565b8181029291811591840414171561124757565b8115611aac570490565b634e487b7160e01b600052601260045260246000fd5b90620f424091820180921161124757565b9190820180921161124757565b8051602082015160408301805160608501805160808701805160a08901805160c08b015160e08c0151989c929b969a6001600160a01b039081169a979993989597811696919592811694811693918116921690151595611b3e61042b565b6001600160a01b03909b168b526001600160a01b031660208b01526001600160a01b031660408a01526001600160a01b031660608901526001600160a01b031660808801526001600160a01b031660a087015260c0860152151560e0850152611ba68461124c565b602084015184516001600160a01b039692949291908716908716819003611cbe575b50509160c0611c88611c7a611c6c611c5e61146496611c518a99611c27611c1d61098b7fe96c57864e490909fadd8ddc506e391bc4946ed905e39f7e71321861c798d3e69f9e6020015160018060a01b031690565b91898d0151611ad3565b908c7f000000000000000000000000000000000000000000000000000000000000000016906114be565b516001600160a01b031690565b9a516001600160a01b031690565b98516001600160a01b031690565b99516001600160a01b031690565b9301518480604051968796169a169816968460609194936001936080830196858060a01b03168352602083015260408201520152565b611ccf906115af60e0880151151590565b91908592611ce060e0890151151590565b611fdc575b5060405191631f94a27560e31b835260049360208486818d7f0000000000000000000000000000000000000000000000000000000000000000165afa938415610b28578a948591600091611fbd575b50169060405190602082888163313ce56760e01b998a825289165afa918215610b2857611d7392611d6d91600091611f50575b50611a7e565b90611a8f565b60208a81015160405163b3596f0760e01b8082526001600160a01b039092168982019081529194939290918290819003820181865afa8015610b2857602092611dc492600092611f9e575b50611a8f565b6040519384526001600160a01b03861688850190815290939283918290819060200103915afa8015610b28576020611e0d61098b928295611e1c95600092611f7f575b50611aa2565b9401516001600160a01b031690565b93856040518096819382525afa928315610b2857611e55611e6992611e4f611e9596611e6094600091611f505750611a7e565b90611aa2565b611d6d600354611ac2565b620f4240900490565b60208801519091906001600160a01b031661010089015190611e8f8760c08c0151611ad3565b9261252c565b506020850151611eaf9061098b906001600160a01b031681565b6040516370a0823160e01b81523081840190815290929160209184919082908190850103915afa918215610b2857600092611f2f575b50611ef48360c0880151611ad3565b821015611bc8576118cc611f0c8460c0890151611ad3565b604080516265fc7760e51b81529384019485526020850191909152919283920190565b611f4991925060203d602011610b2157610b13818361040a565b9038611ee5565b611f72915060203d602011611f78575b611f6a818361040a565b810190611a65565b38611d67565b503d611f60565b611f97919250843d8611610b2157610b13818361040a565b9038611e07565b611fb6919250843d8611610b2157610b13818361040a565b9038611dbe565b611fd6915060203d60201161183f57611833818361040a565b38611d34565b875191935090611ff69061098b906001600160a01b031681565b60405163095ea7b360e01b81526001600160a01b0383166004820152602481018890529190602090839060449082906000905af1918215610b28576120439261204a575b5086309161112a565b9138611ce5565b61206b9060203d602011612072575b612063818361040a565b810190611a50565b503861203a565b503d612059565b60009291156120da5761208d91925061118a565b6040516338d52e0f60e01b81529091906020816004816001600160a01b0387165afa908115610b28576000916120c257509190565b6120da915060203d811161183f57611833818361040a565b9190565b9060018060a01b03916001926120f881855416331461107b565b8082511690602061211081850193838551169061225b565b9561211a87610501565b8160ff19825416179055612132604086015197610527565b92875160005b600b81106121b4575050505061217c6121af93606093601f60408a61216a61218d976104589c9d0151600b86016121c7565b0151910155516001600160a01b031690565b84516001600160a01b03169061225b565b926121a761219a85610501565b805460ff19166001179055565b015191610527565b612211565b8151831686820155908401908301612138565b9060009081905b600582106121dc5750505050565b8051835b600481106121fd57505060046020600192019401910190926121ce565b6001906020835193019281880155016121e0565b90805160005b600b811061223e5750506040816122376020601f940151600b86016121c7565b0151910155565b81516001600160a01b031681850155602090910190600101612217565b6104db90602190612281906001600160a01b039061227a90821661233a565b941661233a565b92604051938161229b8693518092602080870191016104de565b8201602d60f81b60208201526122ba82518093602087850191016104de565b0103600181018452018261040a565b604051906122d682610369565b602a82526040366020840137565b634e487b7160e01b600052603260045260246000fd5b8051156123075760200190565b6122e4565b8051600110156123075760210190565b908151811015612307570160200190565b8015611247576000190190565b806123436122c9565b91603061234f846122fa565b53607861235b8461230c565b5360295b600181116123915750612370575090565b60405163e22e27eb60e01b8152600481019190915260146024820152604490fd5b90600f8116906010821015612307576123ce916f181899199a1a9b1b9c1cb0b131b232b360811b901a6123c4848761231c565b5360041c9161232d565b61235f565b6001600160a01b039182168152911660208201526060604082018190526104db9291019061152e565b6001600160a01b039182168152610180810193926020916000919083015b600b8310612429575050505050565b83806001928785511681520192019201919061241a565b6000915b600b831061245157505050565b81516001600160a01b031681526001929092019160209182019101612444565b9060009182915b600583106124865750505050565b815184825b600482106124a9575050506020608060019201920192019190612478565b60019083518152602080910193019101909161248b565b9592610840979461250061250b926124f5612516969e9d9c99959e6108608c019f60018060a01b03168c5260208c0190612440565b6101808a0190612471565b610400880190612440565b610560860190612471565b6107e08401526108008301526108208201520152565b92919390938051612629575061254c83612546868261271a565b9561271a565b84518051919490916001600160a01b039081169082160361260d575050906125e260209392855192858701519360408787519701519801516040519889978897633fff811360e01b89527f0000000000000000000000000000000000000000000000000000000000000000947f000000000000000000000000000000000000000000000000000000000000000060048b016124c0565b0381734fc72C7E2e9245D06B77465B6112A2cC4C214f495af4908115610b2857600091611172575090565b6118cc60405192839263cb709ddd60e01b8452600484016123fc565b604051630f3537b560e31b81529081906118cc908787600485016123d3565b90604080519061265782610369565b819381518082906000905b600b82106126fa57505050612676816103ee565b8352815160a081018181106001600160401b03821117610384578352600b82016000825b600582106126b3575050506020840152601f0154910152565b8551600084825b600483106126e4575050506020600192826126d66004946103d3565b81520193019101909161269a565b60016020819284548152019201920191906126ba565b82546001600160a01b031681526001928301929190910190602001612662565b90604091825161272981610369565b8351612734816103ee565b6101603682378152838051612748816103b8565b60005b60a081106127b7575060208301526000910152612768828261225b565b9261278361277f61277886610501565b5460ff1690565b1590565b61279b575050506127966104db91610527565b612648565b5162acf2cf60e51b81529182916118cc918591600485016123d3565b60209192516127c5816103d3565b6080368237818401520190859161274b56fea264697066735822122091fb84c32759cbf34f40ca027094f59d9a10e54b21b5491b5e5acdea79bee59564736f6c63430008140033",
  "deployedBytecode": "0x6080604052600436101561001257600080fd5b60003560e01c80630542975c14610152578063117da1ee1461019d5780631b11d0ff146101985780632a6b0c24146101935780632b4481ca1461018e578063313c9b8d146101895780634c4e7f6f14610184578063506864791461017f578063529a356f1461017a578063715018a6146101755780637535d2461461016b57806382e9dd9e1461017057806383f49f581461016b578063845a9f78146101665780638da5cb5b14610161578063987762881461015c5780639922595514610157578063c72c4d1014610152578063cda90b881461014d578063d03153aa14610148578063d9caed1214610143578063efb744001461013e578063f2fde38b14610139578063f5a58663146101345763fc4fdd3d1461012f57600080fd5b611042565b610f62565b610d32565b610cbc565b610bd5565b610bb7565b610b72565b6101b2565b610880565b6107f5565b6107cc565b610780565b61070d565b610752565b6106a9565b610667565b610627565b6105ae565b610573565b61054d565b61030e565b610284565b6101f7565b60009103126101ad57565b600080fd5b346101ad5760003660031901126101ad576040517f00000000000000000000000000000000000000000000000000000000000000006001600160a01b03168152602090f35b346101ad5760203660031901126101ad5760043561022060018060a01b0360015416331461107b565b620f4240811161025b576020817f84cb977e2a9a6a9b1fc0d73c4b02cd51695c09eb0d3008d61019a7c0a7406c4c92600355604051908152a1005b6024906040519063295eaa3d60e01b82526004820152fd5b6001600160a01b038116036101ad57565b346101ad5760a03660031901126101ad576102a0600435610273565b6064356102ac81610273565b6084356001600160401b038082116101ad57366023830112156101ad5781600401359081116101ad5736602482840101116101ad5761030a9260246102f8930190604435602435611846565b60405190151581529081906020820190565b0390f35b346101ad5760003660031901126101ad576040517f00000000000000000000000000000000000000000000000000000000000000006001600160a01b03168152602090f35b634e487b7160e01b600052604160045260246000fd5b606081019081106001600160401b0382111761038457604052565b610353565b6001600160401b03811161038457604052565b61012081019081106001600160401b0382111761038457604052565b60a081019081106001600160401b0382111761038457604052565b608081019081106001600160401b0382111761038457604052565b61016081019081106001600160401b0382111761038457604052565b90601f801991011681019081106001600160401b0382111761038457604052565b6040519061010082018281106001600160401b0382111761038457604052565b604051906104588261039c565b565b9291926001600160401b0382116103845760405191610483601f8201601f19166020018461040a565b8294818452818301116101ad578281602093846000960137010152565b60206003198201126101ad57600435906001600160401b0382116101ad57806023830112156101ad578160246104db9360040135910161045a565b90565b60005b8381106104f15750506000910152565b81810151838201526020016104e1565b602061051a9181604051938285809451938492016104de565b8101600681520301902090565b60206105409181604051938285809451938492016104de565b8101600581520301902090565b346101ad57602060ff610567610562366104a0565b610501565b54166040519015158152f35b346101ad5760003660031901126101ad5760206040517f00000000000000000000000000000000000000000000000000000000000000008152f35b346101ad5760203660031901126101ad576004356105cb81610273565b6001546001600160a01b0391906105e5908316331461107b565b166000818152600260205260408120805460ff19166001179055907fb0a258c58bd721bcb64542ee0e4e4c843ae58242f908c0681ad82d40d688f1fa8280a280f35b346101ad5760603660031901126101ad57602061065f60043561064981610273565b6044359061065682610273565b6024359061112a565b604051908152f35b346101ad5760203660031901126101ad5760043561068481610273565b60018060a01b03166000526002602052602060ff604060002054166040519015158152f35b346101ad5760008060031936011261070a5760015481906001600160a01b038116906106d633831461107b565b6001600160a01b0319166001557f8be0079c531659141344cd1fd0a4f28419497f9722a3daafe3b4186f6b6457e08280a380f35b80fd5b346101ad5760003660031901126101ad576040517f00000000000000000000000000000000000000000000000000000000000000006001600160a01b03168152602090f35b346101ad576020601f61076c610767366104a0565b610527565b0154604051908152f35b801515036101ad57565b346101ad5760403660031901126101ad5760406107b46004356107a281610273565b602435906107af82610776565b612079565b82516001600160a01b03928316815291166020820152f35b346101ad5760003660031901126101ad576001546040516001600160a01b039091168152602090f35b346101ad5760403660031901126101ad5760043561081281610273565b6024359061081f82610273565b6001546001600160a01b0391829161083a908316331461107b565b166000526004602052604060002091166bffffffffffffffffffffffff60a01b825416179055600080f35b9080601f830112156101ad578160206104db9335910161045a565b346101ad5760e03660031901126101ad5760043561089d81610273565b6024356108a981610273565b604435916108b683610273565b608435906064356108c683610776565b60a435946108d386610776565b60c4356001600160401b0381116101ad576108f2903690600401610865565b6000966002885414610b2d576002885561090b876117e3565b92610915866117e3565b9561093061092161042b565b6001600160a01b039096168652565b6001600160a01b03968716602086018181529988166040870190815291881660608701908152336080880190815293891660a0880190815260c0880189815286151560e08a0152999b998d9994959094919390929190610997905b6001600160a01b031690565b6040516370a0823160e01b815230600482015290602090829060249082905afa908115610b28578f91610afa575b5010610a0757505050505050506109dd91925061124c565b915b156109f3575b836109f06001600055565b80f35b6109ff923391166111c9565b3880806109e5565b919395975091939551610a1f9060018060a01b031690565b6001600160a01b031697516001600160a01b03166001600160a01b031694516001600160a01b03166001600160a01b031690516001600160a01b03166001600160a01b031691516001600160a01b031692516001600160a01b0316935194610a8561044b565b6001600160a01b0390991689526001600160a01b031660208901526001600160a01b031660408801526001600160a01b031660608701526001600160a01b031660808601526001600160a01b031660a085015260c0840152151560e0830152610100820152610af39061158c565b90916109df565b610b1b915060203d8111610b21575b610b13818361040a565b81019061110f565b386109c5565b503d610b09565b61111e565b60405162461bcd60e51b815260206004820152601f60248201527f5265656e7472616e637947756172643a207265656e7472616e742063616c6c006044820152606490fd5b346101ad5760003660031901126101ad576040517f00000000000000000000000000000000000000000000000000000000000000006001600160a01b03168152602090f35b346101ad5760003660031901126101ad576020600354604051908152f35b346101ad5760603660031901126101ad57600435610bf281610273565b602435610bfe81610273565b6044359160018060a01b038091610c1a8260015416331461107b565b6040516370a0823160e01b8152306004820152911693602082602481885afa908115610b28577fa4195c37c2947bbe89165f03e320b6903116f0b10d8cfdb522330f7ce6f9fa2492600092610c9c575b5081811115610c945750915b610c818385876111c9565b60405192835292909216913391602090a4005b905091610c76565b610cb591925060203d8111610b2157610b13818361040a565b9038610c6a565b346101ad5760203660031901126101ad57600435610cd981610273565b6001546001600160a01b039190610cf3908316331461107b565b166000818152600260205260408120805460ff19169055907f06091797105e9997e06a57873c81a60a419050caf1d0ffedacc53ffc767f84f58280a280f35b346101ad5760203660031901126101ad57600435610d4f81610273565b6001546001600160a01b0390610d68908216331461107b565b811615610d7a57610d78906110c6565b005b60405162461bcd60e51b815260206004820152602660248201527f4f776e61626c653a206e6577206f776e657220697320746865207a65726f206160448201526564647265737360d01b6064820152608490fd5b806105c312156101ad57604090815191610de7836103b8565b82610824918383116101ad576105a4915b838310610e0757505050505090565b84601f840112156101ad578151610e1d816103d3565b80608085018781116101ad5785915b818310610e4757505050816020916080935201920191610df8565b8235815260209283019201610e2c565b806101c312156101ad57604090815191610e70836103b8565b82610424918383116101ad576101a4915b838310610e9057505050505090565b84601f840112156101ad578151610ea6816103d3565b80608085018781116101ad5785915b818310610ed057505050816020916080935201920191610e81565b8235815260209283019201610eb5565b90610400610443198301126101ad57604051610efb81610369565b80928061046312156101ad57604051610f13816103ee565b6105a4818382116101ad57610444905b828210610f48575050508252610f3890610dce565b6020820152604061082435910152565b602080918335610f5781610273565b815201910190610f23565b346101ad576108403660031901126101ad5760408051608081018181106001600160401b03821117610384578252600435610f9c81610273565b815260243591610fab83610273565b602092838301526104006043193601126101ad57805190610fcb82610369565b36606312156101ad578051610fdf816103ee565b6101a4813682116101ad576044905b828210611029575050508252610d789361100736610e57565b90830152610424358183015282015261101f36610ee0565b60608201526120de565b878091833561103781610273565b815201910190610fee565b346101ad5760203660031901126101ad57602061106960043561106481610273565b61118a565b6040516001600160a01b039091168152f35b1561108257565b606460405162461bcd60e51b815260206004820152602060248201527f4f776e61626c653a2063616c6c6572206973206e6f7420746865206f776e65726044820152fd5b600180546001600160a01b039283166001600160a01b0319821681179092559091167f8be0079c531659141344cd1fd0a4f28419497f9722a3daafe3b4186f6b6457e0600080a3565b908160209103126101ad575190565b6040513d6000823e3d90fd5b606460209260006040519586948593635d043b2960e11b8552600485015260018060a01b038092168060248601526044850152165af1908115610b2857600091611172575090565b6104db915060203d8111610b2157610b13818361040a565b6001600160a01b0381811660009081526004602052604090205416806111ae575090565b905090565b634e487b7160e01b600052601160045260246000fd5b600091826044926020956040519363a9059cbb60e01b8552600485015260248401525af13d15601f3d116001600051141617161561120357565b60405162461bcd60e51b815260206004820152600f60248201526e1514905394d1915497d19052531151608a1b6044820152606490fd5b9190820391821161124757565b6111b3565b8051909190611263906001600160a01b031661098b565b6040516370a0823160e01b808252306004830152936020928390839060249082905afa918215610b285760009261149f575b50808301516001600160a01b03169160018060a01b03807f000000000000000000000000000000000000000000000000000000000000000016966112e060c0850195898751916114be565b604084019561130361098b6112fe61098b8a5160018060a01b031690565b6117e3565b94606081019561132261098b6112fe61098b8a5160018060a01b031690565b60a083018051909c919291906001600160a01b0316908a5193813b156101ad5760405162a718a960e01b81526001600160a01b0394851660048201529084166024820152919092166044820152606481019290925260006084830181905290829060a490829084905af18015610b285783926113af9261098b92611486575b50516001600160a01b031690565b604051938452306004850152839060249082905afa938415610b285761098b61141f61141161141f937fe96c57864e490909fadd8ddc506e391bc4946ed905e39f7e71321861c798d3e69861142d9761098b97600092611469575b505061123a565b9b516001600160a01b031690565b96516001600160a01b031690565b9351604080516001600160a01b03909516855260208501919091528301879052600060608401529283169390921691339180608081015b0390a4565b61147f9250803d10610b2157610b13818361040a565b388061140a565b8061149361149992610389565b806101a2565b386113a1565b6114b7919250833d8511610b2157610b13818361040a565b9038611295565b600091826044926020956040519363095ea7b360e01b8552600485015260248401525af13d15601f3d11600160005114161716156114f857565b60405162461bcd60e51b815260206004820152600e60248201526d1054141493d59157d1905253115160921b6044820152606490fd5b90602091611547815180928185528580860191016104de565b601f01601f1916010190565b94936000936115879260809460018060a01b038092168952166020880152604087015260a0606087015260a086019061152e565b930152565b61159581611733565b81519092906115b5906001600160a01b031660e084015115155b90612079565b506040516370a0823160e01b8082523060048301526001600160a01b0395929460209386881692908585602481875afa948515610b2857600095611714575b5060c08301519286015192987f000000000000000000000000000000000000000000000000000000000000000016926001600160a01b031690833b156101ad5761165b938a60008094604051978895869485936310ac2ddf60e21b85523060048601611553565b03925af1918215610b28578592611701575b5060405190815230600482015291829060249082905afa928315610b28576000936116e2575b5050808211156116d8576116a69161123a565b925b60405190815233907f134bde118562a60dcf2d8c52965f586e25cf88a371592e44b78c4aa03bcbac8490602090a2565b50506000926116a8565b6116f9929350803d10610b2157610b13818361040a565b903880611693565b8061149361170e92610389565b3861166d565b61172c919550863d8811610b2157610b13818361040a565b93386115f4565b6104db60018060a01b03916117c08382511691846020820151169480604083015116918160608201511691806080830151169060a08301511660c08301519160e084015115159461010080950151966040519b8c9a60208c015260408b015260608a0152608089015260a088015260c087015260e08601528401526101208084015261014083019061152e565b03601f19810183528261040a565b908160209103126101ad57516104db81610273565b6040516358b50cef60e11b81526001600160a01b03916020908290600490829086165afa908115610b285760009161181a57501690565b61183b915060203d811161183f575b611833818361040a565b8101906117ce565b1690565b503d611829565b94939092916001600160a01b037f0000000000000000000000000000000000000000000000000000000000000000811633036118e257309116036118d05761188d9161198a565b60c0810151938481036118ab57506118a6929350611ae0565b600190565b60405163021652b960e21b8152600481019190915260248101859052604490fd5b0390fd5b604051634ac321c360e11b8152600490fd5b604051631e4a393d60e31b8152600490fd5b91610120838303126101ad57823561190b81610273565b92602081013561191a81610273565b92604082013561192981610273565b92606083013561193881610273565b92608081013561194781610273565b9260a082013561195681610273565b9260c08301359260e081013561196b81610776565b926101008201356001600160401b0381116101ad576104db9201610865565b9190916040519061199a8261039c565b600091828152602081019183835260408201928484526060830194808652608084019581875260a085019382855260c086019183835260e0870193845261010087019660608852809b8301916119f083856118f4565b505050506001600160a01b03918216909552908116909c528b16909752509488169094528693611a1f916118f4565b909c529a151590975298949350611a3592505050565b52166001600160a01b03169052166001600160a01b03169052565b908160209103126101ad57516104db81610776565b908160209103126101ad575160ff811681036101ad5790565b60ff16604d811161124757600a0a90565b8181029291811591840414171561124757565b8115611aac570490565b634e487b7160e01b600052601260045260246000fd5b90620f424091820180921161124757565b9190820180921161124757565b8051602082015160408301805160608501805160808701805160a08901805160c08b015160e08c0151989c929b969a6001600160a01b039081169a979993989597811696919592811694811693918116921690151595611b3e61042b565b6001600160a01b03909b168b526001600160a01b031660208b01526001600160a01b031660408a01526001600160a01b031660608901526001600160a01b031660808801526001600160a01b031660a087015260c0860152151560e0850152611ba68461124c565b602084015184516001600160a01b039692949291908716908716819003611cbe575b50509160c0611c88611c7a611c6c611c5e61146496611c518a99611c27611c1d61098b7fe96c57864e490909fadd8ddc506e391bc4946ed905e39f7e71321861c798d3e69f9e6020015160018060a01b031690565b91898d0151611ad3565b908c7f000000000000000000000000000000000000000000000000000000000000000016906114be565b516001600160a01b031690565b9a516001600160a01b031690565b98516001600160a01b031690565b99516001600160a01b031690565b9301518480604051968796169a169816968460609194936001936080830196858060a01b03168352602083015260408201520152565b611ccf906115af60e0880151151590565b91908592611ce060e0890151151590565b611fdc575b5060405191631f94a27560e31b835260049360208486818d7f0000000000000000000000000000000000000000000000000000000000000000165afa938415610b28578a948591600091611fbd575b50169060405190602082888163313ce56760e01b998a825289165afa918215610b2857611d7392611d6d91600091611f50575b50611a7e565b90611a8f565b60208a81015160405163b3596f0760e01b8082526001600160a01b039092168982019081529194939290918290819003820181865afa8015610b2857602092611dc492600092611f9e575b50611a8f565b6040519384526001600160a01b03861688850190815290939283918290819060200103915afa8015610b28576020611e0d61098b928295611e1c95600092611f7f575b50611aa2565b9401516001600160a01b031690565b93856040518096819382525afa928315610b2857611e55611e6992611e4f611e9596611e6094600091611f505750611a7e565b90611aa2565b611d6d600354611ac2565b620f4240900490565b60208801519091906001600160a01b031661010089015190611e8f8760c08c0151611ad3565b9261252c565b506020850151611eaf9061098b906001600160a01b031681565b6040516370a0823160e01b81523081840190815290929160209184919082908190850103915afa918215610b2857600092611f2f575b50611ef48360c0880151611ad3565b821015611bc8576118cc611f0c8460c0890151611ad3565b604080516265fc7760e51b81529384019485526020850191909152919283920190565b611f4991925060203d602011610b2157610b13818361040a565b9038611ee5565b611f72915060203d602011611f78575b611f6a818361040a565b810190611a65565b38611d67565b503d611f60565b611f97919250843d8611610b2157610b13818361040a565b9038611e07565b611fb6919250843d8611610b2157610b13818361040a565b9038611dbe565b611fd6915060203d60201161183f57611833818361040a565b38611d34565b875191935090611ff69061098b906001600160a01b031681565b60405163095ea7b360e01b81526001600160a01b0383166004820152602481018890529190602090839060449082906000905af1918215610b28576120439261204a575b5086309161112a565b9138611ce5565b61206b9060203d602011612072575b612063818361040a565b810190611a50565b503861203a565b503d612059565b60009291156120da5761208d91925061118a565b6040516338d52e0f60e01b81529091906020816004816001600160a01b0387165afa908115610b28576000916120c257509190565b6120da915060203d811161183f57611833818361040a565b9190565b9060018060a01b03916001926120f881855416331461107b565b8082511690602061211081850193838551169061225b565b9561211a87610501565b8160ff19825416179055612132604086015197610527565b92875160005b600b81106121b4575050505061217c6121af93606093601f60408a61216a61218d976104589c9d0151600b86016121c7565b0151910155516001600160a01b031690565b84516001600160a01b03169061225b565b926121a761219a85610501565b805460ff19166001179055565b015191610527565b612211565b8151831686820155908401908301612138565b9060009081905b600582106121dc5750505050565b8051835b600481106121fd57505060046020600192019401910190926121ce565b6001906020835193019281880155016121e0565b90805160005b600b811061223e5750506040816122376020601f940151600b86016121c7565b0151910155565b81516001600160a01b031681850155602090910190600101612217565b6104db90602190612281906001600160a01b039061227a90821661233a565b941661233a565b92604051938161229b8693518092602080870191016104de565b8201602d60f81b60208201526122ba82518093602087850191016104de565b0103600181018452018261040a565b604051906122d682610369565b602a82526040366020840137565b634e487b7160e01b600052603260045260246000fd5b8051156123075760200190565b6122e4565b8051600110156123075760210190565b908151811015612307570160200190565b8015611247576000190190565b806123436122c9565b91603061234f846122fa565b53607861235b8461230c565b5360295b600181116123915750612370575090565b60405163e22e27eb60e01b8152600481019190915260146024820152604490fd5b90600f8116906010821015612307576123ce916f181899199a1a9b1b9c1cb0b131b232b360811b901a6123c4848761231c565b5360041c9161232d565b61235f565b6001600160a01b039182168152911660208201526060604082018190526104db9291019061152e565b6001600160a01b039182168152610180810193926020916000919083015b600b8310612429575050505050565b83806001928785511681520192019201919061241a565b6000915b600b831061245157505050565b81516001600160a01b031681526001929092019160209182019101612444565b9060009182915b600583106124865750505050565b815184825b600482106124a9575050506020608060019201920192019190612478565b60019083518152602080910193019101909161248b565b9592610840979461250061250b926124f5612516969e9d9c99959e6108608c019f60018060a01b03168c5260208c0190612440565b6101808a0190612471565b610400880190612440565b610560860190612471565b6107e08401526108008301526108208201520152565b92919390938051612629575061254c83612546868261271a565b9561271a565b84518051919490916001600160a01b039081169082160361260d575050906125e260209392855192858701519360408787519701519801516040519889978897633fff811360e01b89527f0000000000000000000000000000000000000000000000000000000000000000947f000000000000000000000000000000000000000000000000000000000000000060048b016124c0565b038173__$e2517e438dd7117781925bdc00e57cd357$__5af4908115610b2857600091611172575090565b6118cc60405192839263cb709ddd60e01b8452600484016123fc565b604051630f3537b560e31b81529081906118cc908787600485016123d3565b90604080519061265782610369565b819381518082906000905b600b82106126fa57505050612676816103ee565b8352815160a081018181106001600160401b03821117610384578352600b82016000825b600582106126b3575050506020840152601f0154910152565b8551600084825b600483106126e4575050506020600192826126d66004946103d3565b81520193019101909161269a565b60016020819284548152019201920191906126ba565b82546001600160a01b031681526001928301929190910190602001612662565b90604091825161272981610369565b8351612734816103ee565b6101603682378152838051612748816103b8565b60005b60a081106127b7575060208301526000910152612768828261225b565b9261278361277f61277886610501565b5460ff1690565b1590565b61279b575050506127966104db91610527565b612648565b5162acf2cf60e51b81529182916118cc918591600485016123d3565b60209192516127c5816103d3565b6080368237818401520190859161274b56fea264697066735822122091fb84c32759cbf34f40ca027094f59d9a10e54b21b5491b5e5acdea79bee59564736f6c63430008140033",
  "libraries": {
    "CurveHelper": "0x4fc72C7E2e9245D06B77465B6112A2cC4C214f49"
  },
  "devdoc": {
    "errors": {
      "StringsInsufficientHexLength(uint256,uint256)": [
        {
          "details": "The `value` string doesn't fit in the specified `length`."
        }
      ]
    },
    "kind": "dev",
    "methods": {
      "ADDRESSES_PROVIDER()": {
        "details": "IFlashLoanReceiver required function"
      },
      "POOL()": {
        "details": "IFlashLoanReceiver required function"
      },
      "executeOperation(address,uint256,uint256,address,bytes)": {
        "details": "IFlashLoanSimpleReceiver callback"
      },
      "getActualCollateralToken(address,bool)": {
        "details": "Get the actual collateral token address",
        "params": {
          "_collateralUnderlying": "The underlying collateral token address",
          "_isUnstakeCollateralToken": "Whether the collateral token is unstaked"
        },
        "returns": {
          "actualCollateralToken_": "The actual collateral token address",
          "proxyContract_": "The proxy contract address"
        }
      },
      "owner()": {
        "details": "Returns the address of the current owner."
      },
      "renounceOwnership()": {
        "details": "Leaves the contract without owner. It will not be possible to call `onlyOwner` functions anymore. Can only be called by the current owner. NOTE: Renouncing ownership will leave the contract without an owner, thereby removing any functionality that is only available to the owner."
      },
      "transferOwnership(address)": {
        "details": "Transfers ownership of the contract to a new account (`newOwner`). Can only be called by the current owner."
      }
    },
    "version": 1
  },
  "userdoc": {
    "kind": "user",
    "methods": {},
    "version": 1
  },
  "storageLayout": {
    "storage": [
      {
        "astId": 115,
        "contract": "contracts/lending_liquidator/aave-v3/FlashLoanLiquidatorAaveBorrowRepayCurve.sol:FlashLoanLiquidatorAaveBorrowRepayCurve",
        "label": "_status",
        "offset": 0,
        "slot": "0",
        "type": "t_uint256"
      },
      {
        "astId": 7,
        "contract": "contracts/lending_liquidator/aave-v3/FlashLoanLiquidatorAaveBorrowRepayCurve.sol:FlashLoanLiquidatorAaveBorrowRepayCurve",
        "label": "_owner",
        "offset": 0,
        "slot": "1",
        "type": "t_address"
      },
      {
        "astId": 10390,
        "contract": "contracts/lending_liquidator/aave-v3/FlashLoanLiquidatorAaveBorrowRepayCurve.sol:FlashLoanLiquidatorAaveBorrowRepayCurve",
        "label": "isLiquidator",
        "offset": 0,
        "slot": "2",
        "type": "t_mapping(t_address,t_bool)"
      },
      {
        "astId": 7470,
        "contract": "contracts/lending_liquidator/aave-v3/FlashLoanLiquidatorAaveBorrowRepayCurve.sol:FlashLoanLiquidatorAaveBorrowRepayCurve",
        "label": "slippageTolerance",
        "offset": 0,
        "slot": "3",
        "type": "t_uint256"
      },
      {
        "astId": 7478,
        "contract": "contracts/lending_liquidator/aave-v3/FlashLoanLiquidatorAaveBorrowRepayCurve.sol:FlashLoanLiquidatorAaveBorrowRepayCurve",
        "label": "proxyContractMap",
        "offset": 0,
        "slot": "4",
        "type": "t_mapping(t_address,t_address)"
      },
      {
        "astId": 8102,
        "contract": "contracts/lending_liquidator/aave-v3/FlashLoanLiquidatorAaveBorrowRepayCurve.sol:FlashLoanLiquidatorAaveBorrowRepayCurve",
        "label": "defaultSwapParams",
        "offset": 0,
        "slot": "5",
        "type": "t_mapping(t_string_memory_ptr,t_struct(CurveSwapExtraParams)4488_storage)"
      },
      {
        "astId": 8106,
        "contract": "contracts/lending_liquidator/aave-v3/FlashLoanLiquidatorAaveBorrowRepayCurve.sol:FlashLoanLiquidatorAaveBorrowRepayCurve",
        "label": "isSwapParamsSet",
        "offset": 0,
        "slot": "6",
        "type": "t_mapping(t_string_memory_ptr,t_bool)"
      }
    ],
    "types": {
      "t_address": {
        "encoding": "inplace",
        "label": "address",
        "numberOfBytes": "20"
      },
      "t_array(t_address)11_storage": {
        "base": "t_address",
        "encoding": "inplace",
        "label": "address[11]",
        "numberOfBytes": "352"
      },
      "t_array(t_array(t_uint256)4_storage)5_storage": {
        "base": "t_array(t_uint256)4_storage",
        "encoding": "inplace",
        "label": "uint256[4][5]",
        "numberOfBytes": "640"
      },
      "t_array(t_uint256)4_storage": {
        "base": "t_uint256",
        "encoding": "inplace",
        "label": "uint256[4]",
        "numberOfBytes": "128"
      },
      "t_bool": {
        "encoding": "inplace",
        "label": "bool",
        "numberOfBytes": "1"
      },
      "t_mapping(t_address,t_address)": {
        "encoding": "mapping",
        "key": "t_address",
        "label": "mapping(address => address)",
        "numberOfBytes": "32",
        "value": "t_address"
      },
      "t_mapping(t_address,t_bool)": {
        "encoding": "mapping",
        "key": "t_address",
        "label": "mapping(address => bool)",
        "numberOfBytes": "32",
        "value": "t_bool"
      },
      "t_mapping(t_string_memory_ptr,t_bool)": {
        "encoding": "mapping",
        "key": "t_string_memory_ptr",
        "label": "mapping(string => bool)",
        "numberOfBytes": "32",
        "value": "t_bool"
      },
      "t_mapping(t_string_memory_ptr,t_struct(CurveSwapExtraParams)4488_storage)": {
        "encoding": "mapping",
        "key": "t_string_memory_ptr",
        "label": "mapping(string => struct CurveHelper.CurveSwapExtraParams)",
        "numberOfBytes": "32",
        "value": "t_struct(CurveSwapExtraParams)4488_storage"
      },
      "t_string_memory_ptr": {
        "encoding": "bytes",
        "label": "string",
        "numberOfBytes": "32"
      },
      "t_struct(CurveSwapExtraParams)4488_storage": {
        "encoding": "inplace",
        "label": "struct CurveHelper.CurveSwapExtraParams",
        "members": [
          {
            "astId": 4479,
            "contract": "contracts/lending_liquidator/aave-v3/FlashLoanLiquidatorAaveBorrowRepayCurve.sol:FlashLoanLiquidatorAaveBorrowRepayCurve",
            "label": "route",
            "offset": 0,
            "slot": "0",
            "type": "t_array(t_address)11_storage"
          },
          {
            "astId": 4485,
            "contract": "contracts/lending_liquidator/aave-v3/FlashLoanLiquidatorAaveBorrowRepayCurve.sol:FlashLoanLiquidatorAaveBorrowRepayCurve",
            "label": "swapParams",
            "offset": 0,
            "slot": "11",
            "type": "t_array(t_array(t_uint256)4_storage)5_storage"
          },
          {
            "astId": 4487,
            "contract": "contracts/lending_liquidator/aave-v3/FlashLoanLiquidatorAaveBorrowRepayCurve.sol:FlashLoanLiquidatorAaveBorrowRepayCurve",
            "label": "swapSlippageBufferBps",
            "offset": 0,
            "slot": "31",
            "type": "t_uint256"
          }
        ],
        "numberOfBytes": "1024"
      },
      "t_uint256": {
        "encoding": "inplace",
        "label": "uint256",
        "numberOfBytes": "32"
      }
    }
  }
}