{
  "address": "0x854688cb4472792757Fd3C93B7e639141A128e0D",
  "abi": [
    {
      "inputs": [
        {
          "internalType": "contract IERC3156FlashLender",
          "name": "_flashMinter",
          "type": "address"
        },
        {
          "internalType": "contract ILendingPoolAddressesProvider",
          "name": "_addressesProvider",
          "type": "address"
        },
        {
          "internalType": "contract ILendingPool",
          "name": "_liquidateLender",
          "type": "address"
        },
        {
          "internalType": "contract IAToken",
          "name": "_aDUSD",
          "type": "address"
        },
        {
          "internalType": "uint256",
          "name": "_slippageTolerance",
          "type": "uint256"
        },
        {
          "internalType": "contract ISwapRouter",
          "name": "_uniswapV3Router",
          "type": "address"
        }
      ],
      "stateMutability": "nonpayable",
      "type": "constructor"
    },
    {
      "inputs": [],
      "name": "NoProfitableLiquidation",
      "type": "error"
    },
    {
      "inputs": [
        {
          "internalType": "address",
          "name": "borrowedToken",
          "type": "address"
        },
        {
          "internalType": "string",
          "name": "symbol",
          "type": "string"
        }
      ],
      "name": "NotSupportingNonDUSD",
      "type": "error"
    },
    {
      "inputs": [],
      "name": "OnlyLiquidator",
      "type": "error"
    },
    {
      "inputs": [],
      "name": "UnknownInitiator",
      "type": "error"
    },
    {
      "inputs": [],
      "name": "UnknownLender",
      "type": "error"
    },
    {
      "inputs": [],
      "name": "ValueAboveBasisPoints",
      "type": "error"
    },
    {
      "anonymous": false,
      "inputs": [
        {
          "indexed": true,
          "internalType": "address",
          "name": "initiator",
          "type": "address"
        },
        {
          "indexed": false,
          "internalType": "uint256",
          "name": "amount",
          "type": "uint256"
        }
      ],
      "name": "FlashLoan",
      "type": "event"
    },
    {
      "anonymous": false,
      "inputs": [
        {
          "indexed": true,
          "internalType": "address",
          "name": "liquidator",
          "type": "address"
        },
        {
          "indexed": false,
          "internalType": "address",
          "name": "borrower",
          "type": "address"
        },
        {
          "indexed": true,
          "internalType": "address",
          "name": "poolTokenBorrowedAddress",
          "type": "address"
        },
        {
          "indexed": true,
          "internalType": "address",
          "name": "poolTokenCollateralAddress",
          "type": "address"
        },
        {
          "indexed": false,
          "internalType": "uint256",
          "name": "amount",
          "type": "uint256"
        },
        {
          "indexed": false,
          "internalType": "uint256",
          "name": "seized",
          "type": "uint256"
        },
        {
          "indexed": false,
          "internalType": "bool",
          "name": "usingFlashLoan",
          "type": "bool"
        }
      ],
      "name": "Liquidated",
      "type": "event"
    },
    {
      "anonymous": false,
      "inputs": [
        {
          "indexed": true,
          "internalType": "address",
          "name": "_liquidatorAdded",
          "type": "address"
        }
      ],
      "name": "LiquidatorAdded",
      "type": "event"
    },
    {
      "anonymous": false,
      "inputs": [
        {
          "indexed": true,
          "internalType": "address",
          "name": "_liquidatorRemoved",
          "type": "address"
        }
      ],
      "name": "LiquidatorRemoved",
      "type": "event"
    },
    {
      "anonymous": false,
      "inputs": [
        {
          "indexed": true,
          "internalType": "address",
          "name": "previousOwner",
          "type": "address"
        },
        {
          "indexed": true,
          "internalType": "address",
          "name": "newOwner",
          "type": "address"
        }
      ],
      "name": "OwnershipTransferred",
      "type": "event"
    },
    {
      "anonymous": false,
      "inputs": [
        {
          "indexed": false,
          "internalType": "uint256",
          "name": "newTolerance",
          "type": "uint256"
        }
      ],
      "name": "SlippageToleranceSet",
      "type": "event"
    },
    {
      "anonymous": false,
      "inputs": [
        {
          "indexed": true,
          "internalType": "address",
          "name": "sender",
          "type": "address"
        },
        {
          "indexed": true,
          "internalType": "address",
          "name": "receiver",
          "type": "address"
        },
        {
          "indexed": true,
          "internalType": "address",
          "name": "underlyingAddress",
          "type": "address"
        },
        {
          "indexed": false,
          "internalType": "uint256",
          "name": "amount",
          "type": "uint256"
        }
      ],
      "name": "Withdrawn",
      "type": "event"
    },
    {
      "inputs": [],
      "name": "DUSD_DECIMALS",
      "outputs": [
        {
          "internalType": "uint256",
          "name": "",
          "type": "uint256"
        }
      ],
      "stateMutability": "view",
      "type": "function"
    },
    {
      "inputs": [],
      "name": "FLASHLOAN_CALLBACK",
      "outputs": [
        {
          "internalType": "bytes32",
          "name": "",
          "type": "bytes32"
        }
      ],
      "stateMutability": "view",
      "type": "function"
    },
    {
      "inputs": [],
      "name": "ONE_HUNDER_PCT_BPS",
      "outputs": [
        {
          "internalType": "uint256",
          "name": "",
          "type": "uint256"
        }
      ],
      "stateMutability": "view",
      "type": "function"
    },
    {
      "inputs": [],
      "name": "aDUSD",
      "outputs": [
        {
          "internalType": "contract IAToken",
          "name": "",
          "type": "address"
        }
      ],
      "stateMutability": "view",
      "type": "function"
    },
    {
      "inputs": [
        {
          "internalType": "address",
          "name": "_newLiquidator",
          "type": "address"
        }
      ],
      "name": "addLiquidator",
      "outputs": [],
      "stateMutability": "nonpayable",
      "type": "function"
    },
    {
      "inputs": [],
      "name": "addressesProvider",
      "outputs": [
        {
          "internalType": "contract ILendingPoolAddressesProvider",
          "name": "",
          "type": "address"
        }
      ],
      "stateMutability": "view",
      "type": "function"
    },
    {
      "inputs": [],
      "name": "dusd",
      "outputs": [
        {
          "internalType": "contract ERC20",
          "name": "",
          "type": "address"
        }
      ],
      "stateMutability": "view",
      "type": "function"
    },
    {
      "inputs": [],
      "name": "flashMinter",
      "outputs": [
        {
          "internalType": "contract IERC3156FlashLender",
          "name": "",
          "type": "address"
        }
      ],
      "stateMutability": "view",
      "type": "function"
    },
    {
      "inputs": [
        {
          "internalType": "address",
          "name": "",
          "type": "address"
        }
      ],
      "name": "isLiquidator",
      "outputs": [
        {
          "internalType": "bool",
          "name": "",
          "type": "bool"
        }
      ],
      "stateMutability": "view",
      "type": "function"
    },
    {
      "inputs": [
        {
          "internalType": "address",
          "name": "_poolTokenBorrowedAddress",
          "type": "address"
        },
        {
          "internalType": "address",
          "name": "_poolTokenCollateralAddress",
          "type": "address"
        },
        {
          "internalType": "address",
          "name": "_borrower",
          "type": "address"
        },
        {
          "internalType": "uint256",
          "name": "_repayAmount",
          "type": "uint256"
        },
        {
          "internalType": "bool",
          "name": "_stakeTokens",
          "type": "bool"
        },
        {
          "internalType": "bytes",
          "name": "_path",
          "type": "bytes"
        }
      ],
      "name": "liquidate",
      "outputs": [],
      "stateMutability": "nonpayable",
      "type": "function"
    },
    {
      "inputs": [],
      "name": "liquidateLender",
      "outputs": [
        {
          "internalType": "contract ILendingPool",
          "name": "",
          "type": "address"
        }
      ],
      "stateMutability": "view",
      "type": "function"
    },
    {
      "inputs": [
        {
          "internalType": "address",
          "name": "_initiator",
          "type": "address"
        },
        {
          "internalType": "address",
          "name": "",
          "type": "address"
        },
        {
          "internalType": "uint256",
          "name": "",
          "type": "uint256"
        },
        {
          "internalType": "uint256",
          "name": "",
          "type": "uint256"
        },
        {
          "internalType": "bytes",
          "name": "data",
          "type": "bytes"
        }
      ],
      "name": "onFlashLoan",
      "outputs": [
        {
          "internalType": "bytes32",
          "name": "",
          "type": "bytes32"
        }
      ],
      "stateMutability": "nonpayable",
      "type": "function"
    },
    {
      "inputs": [],
      "name": "owner",
      "outputs": [
        {
          "internalType": "address",
          "name": "",
          "type": "address"
        }
      ],
      "stateMutability": "view",
      "type": "function"
    },
    {
      "inputs": [
        {
          "internalType": "address",
          "name": "_liquidatorToRemove",
          "type": "address"
        }
      ],
      "name": "removeLiquidator",
      "outputs": [],
      "stateMutability": "nonpayable",
      "type": "function"
    },
    {
      "inputs": [],
      "name": "renounceOwnership",
      "outputs": [],
      "stateMutability": "nonpayable",
      "type": "function"
    },
    {
      "inputs": [
        {
          "internalType": "uint256",
          "name": "_newTolerance",
          "type": "uint256"
        }
      ],
      "name": "setSlippageTolerance",
      "outputs": [],
      "stateMutability": "nonpayable",
      "type": "function"
    },
    {
      "inputs": [],
      "name": "slippageTolerance",
      "outputs": [
        {
          "internalType": "uint256",
          "name": "",
          "type": "uint256"
        }
      ],
      "stateMutability": "view",
      "type": "function"
    },
    {
      "inputs": [
        {
          "internalType": "address",
          "name": "newOwner",
          "type": "address"
        }
      ],
      "name": "transferOwnership",
      "outputs": [],
      "stateMutability": "nonpayable",
      "type": "function"
    },
    {
      "inputs": [],
      "name": "uniswapV3Router",
      "outputs": [
        {
          "internalType": "contract ISwapRouter",
          "name": "",
          "type": "address"
        }
      ],
      "stateMutability": "view",
      "type": "function"
    },
    {
      "inputs": [
        {
          "internalType": "address",
          "name": "_underlyingAddress",
          "type": "address"
        },
        {
          "internalType": "address",
          "name": "_receiver",
          "type": "address"
        },
        {
          "internalType": "uint256",
          "name": "_amount",
          "type": "uint256"
        }
      ],
      "name": "withdraw",
      "outputs": [],
      "stateMutability": "nonpayable",
      "type": "function"
    }
  ],
  "transactionHash": "0x4986f06ff5652867610f7b99cfcd8ab5e0e307431f51be02c64c05353fb2a454",
  "args": [
    "0x4D6E79013212F10A026A1FB0b926C9Fd0432b96c",
    "0xC691F14942B37668C9904b701E3118A133611b3c",
    "0xa7e750C73DE7d19f06D956d704A39fdDfE99D9ea",
    "0xD94D2B2E62738e568E97C783446D965AC078bbEA",
    5000,
    "0x86fa24508003ee40FBC34385047b665c0Ec9DC55"
  ],
  "numDeployments": 1,
  "solcInputHash": "65375786c18a7663ff9bec250991068a",
  "bytecode": "0x61016060409080825234620002d85760c081620020b08038038091620000268285620002dd565b833981010312620002d85780516001600160a01b03929091908383168303620002d857602080830151928584168403620002d85782810151948686168603620002d85760608201519680881696878903620002d85760a06080850151940151968288168803620002d8576004869260009a8b9360018555600154923360018060a01b03198516176001558b5198899687958a3391167f8be0079c531659141344cd1fd0a4f28419497f9722a3daafe3b4186f6b6457e08380a3338152600289528d8120600160ff198254161790557fb0a258c58bd721bcb64542ee0e4e4c843ae58242f908c0681ad82d40d688f1fa339180a260a05260c05260e0526101009c8d526358b50cef60e11b82525afa8015620002ce5787906200028a575b600492501695836101209780895286519384809263313ce56760e01b82525afa9182156200027e57819262000225575b50509060ff60008051602062002090833981519152939216608052806003558351908152a16101409182525191611d789384620003188539608051846108db015260a05184818161099f015281816111620152818161139901526114f5015260c0518481816102860152610dd4015260e05184818161095a015261196801525183610830015251828181610ae90152818161112b0152818161136701526117bb0152518181816103060152611cc30152f35b9091508381813d831162000276575b620002408183620002dd565b810103126200027257519060ff821682036200026f575060ff6000805160206200209083398151915262000173565b80fd5b5080fd5b503d62000234565b508451903d90823e3d90fd5b50908381813d8311620002c6575b620002a48183620002dd565b81010312620002c257518181168103620002c2579060049162000143565b8680fd5b503d62000298565b85513d89823e3d90fd5b600080fd5b601f909101601f19168101906001600160401b038211908210176200030157604052565b634e487b7160e01b600052604160045260246000fdfe6080604052600436101561001257600080fd5b60003560e01c8063117da1ee1461015757806323e30c8b146101525780632a6b0c241461014d5780632ae18104146101485780632c76d7a6146101435780634c4e7f6f1461013e578063529a356f146101395780635e45b473146101345780636333b5691461012f578063715018a61461012a57806373d190db146101255780638da5cb5b14610120578063ab42c9b31461011b578063c72c4d1014610116578063cd955ace14610111578063d03153aa1461010c578063d9caed1214610107578063de1409ce14610102578063efb74400146100fd5763f2fde38b146100f857600080fd5b610b8e565b610b18565b610ad3565b6109ec565b6109ce565b610989565b610944565b610927565b6108fe565b6108c3565b61085f565b61081a565b610516565b6103ae565b610335565b6102f0565b6102b5565b610270565b6101e2565b346101cc5760203660031901126101cc5760043561018060018060a01b03600154163314610c2a565b61271081116101ba576020817f84cb977e2a9a6a9b1fc0d73c4b02cd51695c09eb0d3008d61019a7c0a7406c4c92600355604051908152a1005b60405163cf8c412760e01b8152600490fd5b600080fd5b6001600160a01b038116036101cc57565b346101cc5760a03660031901126101cc576004356101ff816101d1565b61020a6024356101d1565b60843567ffffffffffffffff8082116101cc57366023830112156101cc5781600401359081116101cc5736602482840101116101cc576102619260246102519301906114ea565b6040519081529081906020820190565b0390f35b60009103126101cc57565b346101cc5760003660031901126101cc576040517f00000000000000000000000000000000000000000000000000000000000000006001600160a01b03168152602090f35b346101cc5760003660031901126101cc5760206040517f439148f0bbc682ca079e46d6e2c2f0c1e3b820f1a291b069d8882abf8cf18dd98152f35b346101cc5760003660031901126101cc576040517f00000000000000000000000000000000000000000000000000000000000000006001600160a01b03168152602090f35b346101cc5760203660031901126101cc57600435610352816101d1565b6001546001600160a01b03919061036c9083163314610c2a565b166000818152600260205260408120805460ff19166001179055907fb0a258c58bd721bcb64542ee0e4e4c843ae58242f908c0681ad82d40d688f1fa8280a280f35b346101cc5760203660031901126101cc576004356103cb816101d1565b60018060a01b03166000526002602052602060ff604060002054166040519015158152f35b801515036101cc57565b634e487b7160e01b600052604160045260246000fd5b67ffffffffffffffff811161042457604052565b6103fa565b610100810190811067ffffffffffffffff82111761042457604052565b60a0810190811067ffffffffffffffff82111761042457604052565b90601f8019910116810190811067ffffffffffffffff82111761042457604052565b6040519060e0820182811067ffffffffffffffff82111761042457604052565b604051906104b182610429565b565b67ffffffffffffffff811161042457601f01601f191660200190565b81601f820112156101cc578035906104e6826104b3565b926104f46040519485610462565b828452602083830101116101cc57816000926020809301838601378301015290565b346101cc5760c03660031901126101cc57600435610533816101d1565b60243561053f816101d1565b60443561054b816101d1565b606435926084359161055c836103f0565b60a43567ffffffffffffffff81116101cc5761057c9036906004016104cf565b9060009560028754146107d557600287553387526020916002835260ff604089205416156107c3576105ad87611487565b966105b786611487565b956105d26105c3610484565b6001600160a01b03909a168a52565b6001600160a01b03968716858a0190815291871660408a019081529616606089019081529095903360808a01908152916001600160a01b0390931660a08a019081529260c08a01858152885190959061063b906001600160a01b03165b6001600160a01b031690565b6040516370a0823160e01b8152306004820152908890829060249082905afa9081156107be578d91610791575b50106106b357505050505050505061067f82610d72565b905b15610695575b826106926001600055565b80f35b90516106ac919033906001600160a01b0316610cd9565b3880610687565b89516001600160a01b03166001600160a01b031697516001600160a01b03166001600160a01b031690516001600160a01b03166001600160a01b031691516001600160a01b03166001600160a01b031692516001600160a01b031693516001600160a01b03169451956107246104a4565b6001600160a01b0390991689526001600160a01b03909116908801526001600160a01b031660408701526001600160a01b031660608601526001600160a01b031660808501526001600160a01b031660a084015260c083015260e082015261078b90611102565b90610681565b6107b19150883d8a116107b7575b6107a98183610462565b810190610cbe565b38610668565b503d61079f565b610ccd565b6040516399b01c4760e01b8152600490fd5b60405162461bcd60e51b815260206004820152601f60248201527f5265656e7472616e637947756172643a207265656e7472616e742063616c6c006044820152606490fd5b346101cc5760003660031901126101cc576040517f00000000000000000000000000000000000000000000000000000000000000006001600160a01b03168152602090f35b346101cc576000806003193601126108c05760015481906001600160a01b0381169061088c338314610c2a565b6001600160a01b0319166001557f8be0079c531659141344cd1fd0a4f28419497f9722a3daafe3b4186f6b6457e08280a380f35b80fd5b346101cc5760003660031901126101cc5760206040517f00000000000000000000000000000000000000000000000000000000000000008152f35b346101cc5760003660031901126101cc576001546040516001600160a01b039091168152602090f35b346101cc5760003660031901126101cc5760206040516127108152f35b346101cc5760003660031901126101cc576040517f00000000000000000000000000000000000000000000000000000000000000006001600160a01b03168152602090f35b346101cc5760003660031901126101cc576040517f00000000000000000000000000000000000000000000000000000000000000006001600160a01b03168152602090f35b346101cc5760003660031901126101cc576020600354604051908152f35b346101cc5760603660031901126101cc57600435610a09816101d1565b602435610a15816101d1565b6044359160018060a01b038091610a3182600154163314610c2a565b6040516370a0823160e01b8152306004820152911693602082602481885afa9081156107be577fa4195c37c2947bbe89165f03e320b6903116f0b10d8cfdb522330f7ce6f9fa2492600092610ab3575b5081811115610aab5750915b610a98838587610cd9565b60405192835292909216913391602090a4005b905091610a8d565b610acc91925060203d81116107b7576107a98183610462565b9038610a81565b346101cc5760003660031901126101cc576040517f00000000000000000000000000000000000000000000000000000000000000006001600160a01b03168152602090f35b346101cc5760203660031901126101cc57600435610b35816101d1565b6001546001600160a01b039190610b4f9083163314610c2a565b166000818152600260205260408120805460ff19169055907f06091797105e9997e06a57873c81a60a419050caf1d0ffedacc53ffc767f84f58280a280f35b346101cc5760203660031901126101cc57600435610bab816101d1565b6001546001600160a01b0390610bc49082163314610c2a565b811615610bd657610bd490610c75565b005b60405162461bcd60e51b815260206004820152602660248201527f4f776e61626c653a206e6577206f776e657220697320746865207a65726f206160448201526564647265737360d01b6064820152608490fd5b15610c3157565b606460405162461bcd60e51b815260206004820152602060248201527f4f776e61626c653a2063616c6c6572206973206e6f7420746865206f776e65726044820152fd5b600180546001600160a01b039283166001600160a01b0319821681179092559091167f8be0079c531659141344cd1fd0a4f28419497f9722a3daafe3b4186f6b6457e0600080a3565b908160209103126101cc575190565b6040513d6000823e3d90fd5b600091826044926020956040519363a9059cbb60e01b8552600485015260248401525af13d15601f3d1160016000511416171615610d1357565b60405162461bcd60e51b815260206004820152600f60248201526e1514905394d1915497d19052531151608a1b6044820152606490fd5b634e487b7160e01b600052601160045260246000fd5b91908203918211610d6d57565b610d4a565b8051909190610d89906001600160a01b031661062f565b6040516370a0823160e01b808252306004830152936020928390839060249082905afa9182156107be57600092610fc5575b50808301516001600160a01b03169160018060a01b03807f00000000000000000000000000000000000000000000000000000000000000001696610e0660c085019589875191610fe4565b6040840195610e2961062f610e2461062f8a5160018060a01b031690565b611487565b946060810195610e4861062f610e2461062f8a5160018060a01b031690565b60a083018051909c919291906001600160a01b0316908a5193813b156101cc5760405162a718a960e01b81526001600160a01b0394851660048201529084166024820152919092166044820152606481019290925260006084830181905290829060a490829084905af180156107be578392610ed59261062f92610fac575b50516001600160a01b031690565b604051938452306004850152839060249082905afa9384156107be5761062f610f45610f37610f45937fe96c57864e490909fadd8ddc506e391bc4946ed905e39f7e71321861c798d3e698610f539761062f97600092610f8f575b5050610d60565b9b516001600160a01b031690565b96516001600160a01b031690565b9351604080516001600160a01b03909516855260208501919091528301879052600060608401529283169390921691339180608081015b0390a4565b610fa59250803d106107b7576107a98183610462565b3880610f30565b80610fb9610fbf92610410565b80610265565b38610ec7565b610fdd919250833d85116107b7576107a98183610462565b9038610dbb565b600091826044926020956040519363095ea7b360e01b8552600485015260248401525af13d15601f3d116001600051141617161561101e57565b60405162461bcd60e51b815260206004820152600e60248201526d1054141493d59157d1905253115160921b6044820152606490fd5b90612710918201809211610d6d57565b91908201809211610d6d57565b908160209103126101cc5751611086816103f0565b90565b60005b83811061109c5750506000910152565b818101518382015260200161108c565b906020916110c581518092818552858086019101611089565b601f01601f1916010190565b6001600160a01b039182168152911660208201526040810191909152608060608201819052611086929101906110ac565b9061110c826113e5565b611114611350565b604051633676633960e21b81526001600160a01b037f0000000000000000000000000000000000000000000000000000000000000000818116600484018190526024840185905293966020957f00000000000000000000000000000000000000000000000000000000000000009093169390918682604481885afa80156107be576111ad86916111b394600091611333575b508b611064565b91610fe4565b80516111c99061062f906001600160a01b031681565b6040516370a0823160e01b8082523060048301529390918790839060249082905afa9485156107be5789889360009761130d575b50600061122496979860405197889586948593632e7ff4ef60e11b855230600486016110d1565b03925af19182156107be5761062f61124e9261062f9288956112e05750516001600160a01b031690565b604051928352306004840152829060249082905afa9283156107be576000936112c1575b5050808211156112b75761128591610d60565b915b60405190815233907f134bde118562a60dcf2d8c52965f586e25cf88a371592e44b78c4aa03bcbac8490602090a2565b5050600091611287565b6112d8929350803d106107b7576107a98183610462565b903880611272565b6112ff90863d8811611306575b6112f78183610462565b810190611071565b5038610ec7565b503d6112ed565b61122496975061132b600091863d88116107b7576107a98183610462565b9796506111fd565b61134a91508a3d8c116107b7576107a98183610462565b386111a6565b60405163613255ab60e01b81526001600160a01b037f000000000000000000000000000000000000000000000000000000000000000081166004830152602090829060249082907f0000000000000000000000000000000000000000000000000000000000000000165afa9081156107be576000916113cd575090565b611086915060203d81116107b7576107a98183610462565b61108660018060a01b036114648184511691806020860151169481604082015116918060608301511690806080840151169060a0840151169160e060c085015194015194604051998a9860208a015260408901526060880152608087015260a086015260c085015260e0840152610100808401526101208301906110ac565b03601f198101835282610462565b908160209103126101cc5751611086816101d1565b6040516358b50cef60e11b81526001600160a01b03916020908290600490829086165afa9081156107be576000916114be57501690565b6114df915060203d81116114e3575b6114d78183610462565b810190611472565b1690565b503d6114cd565b6001600160a01b03907f00000000000000000000000000000000000000000000000000000000000000008216330361162c57813091160361161a576040519261153284610429565b6000808552826020860191808352604087019581875260608801968288528360808a0198848a5260a08b019685885282808d60c0810198895260e0019a60608c5287019581611581888a61163e565b505050509095166001600160a01b03169097529592166001600160a01b03169052166001600160a01b03169052166001600160a01b031689526115c39161163e565b945095509593509790505252166115e1919060018060a01b03169052565b166001600160a01b031690526115f6906117a5565b7f439148f0bbc682ca079e46d6e2c2f0c1e3b820f1a291b069d8882abf8cf18dd990565b604051634ac321c360e11b8152600490fd5b604051631e4a393d60e31b8152600490fd5b919091610100818403126101cc578035611657816101d1565b926020820135611666816101d1565b926040830135611675816101d1565b926060810135611684816101d1565b926080820135611693816101d1565b9260a08301356116a2816101d1565b9260c08101359260e082013567ffffffffffffffff81116101cc5761108692016104cf565b6020818303126101cc5780519067ffffffffffffffff82116101cc570181601f820112156101cc5780516116fa816104b3565b926117086040519485610462565b818452602082840101116101cc576110869160208085019101611089565b6001600160a01b039091168152604060208201819052611086929101906110ac565b908160209103126101cc575160ff811681036101cc5790565b60ff16604d8111610d6d57600a0a90565b81810292918115918404141715610d6d57565b811561178f570490565b634e487b7160e01b600052601260045260246000fd5b602081810180516001600160a01b0391908216807f000000000000000000000000000000000000000000000000000000000000000084168103611bf4575050835181516040808701805160608901805160808b01805160a08d01805160c08f018051989f929e969d9b909a949896976001600160a01b03918216979582169693959492821693928216928216911661183b610484565b6001600160a01b0390981688526001600160a01b03909616878901908152956001600160a01b0316878b01526001600160a01b031660608701526001600160a01b031660808601526001600160a01b031660a085015260c084015261189f83610d72565b89518251919a916001600160a01b03908116918b16160361194f575b505050505093610f8a91848061191d610f3761190f6119017fe96c57864e490909fadd8ddc506e391bc4946ed905e39f7e71321861c798d3e69b5160018060a01b031690565b9c516001600160a01b031690565b9a516001600160a01b031690565b95519251968796169a169816968460609194936001936080830196858060a01b03168352602083015260408201520152565b86949995939651631f94a27560e31b81528a816004818d7f0000000000000000000000000000000000000000000000000000000000000000165afa80156107be578a91600091611bd7575b50895198519116906119b4906001600160a01b031661062f565b978651908c8260048163313ce56760e01b9d8e82525afa9081156107be576119ee6119f4928f94611a0295600092611bba575b5050611761565b90611772565b92516001600160a01b031690565b865163b3596f0760e01b8082526001600160a01b0392909216600482015292908c84602481865afa9384156107be57611a6f948e93611a4992600092611b9b575b50611772565b855189519283526001600160a01b03166004830152909390928491829081906024820190565b03915afa9081156107be57611a95611aa39261062f928e95600092611b7c575b50611785565b94516001600160a01b031690565b96600486518099819382525afa9889156107be5761190f6119018a95611b4161191d95611b277fe96c57864e490909fadd8ddc506e391bc4946ed905e39f7e71321861c798d3e69f611b148b9a610f8a9f611b1f93611b0e91610f379c600092611b4f575050611761565b90611785565b6119ee600354611054565b612710900490565b815160e0909201518e5191926001600160a01b0316611caa565b50979b5050508496506118bb565b611b6e9250803d10611b75575b611b668183610462565b810190611748565b38806119e7565b503d611b5c565b611b94919250863d88116107b7576107a98183610462565b9038611a8f565b611bb3919250853d87116107b7576107a98183610462565b9038611a43565b611bd09250803d10611b7557611b668183610462565b8f806119e7565b611bee91508c8d3d106114e3576114d78183610462565b3861199a565b906000600492604051938480926395d89b4160e01b82525afa9182156107be57600092611c3d575b50611c39604051928392635620c2dd60e01b845260048401611726565b0390fd5b611c5991923d8091833e611c518183610462565b8101906116c7565b9082611c1c565b6020815260a06080611c7d845183602086015260c08501906110ac565b93600180841b03602082015116604085015260408101516060850152606081015182850152015191015290565b611d2c91600094602094611cec8260018060a01b0395867f00000000000000000000000000000000000000000000000000000000000000001696879116610fe4565b60405192611cf984610446565b8352308684015242604084015260608301526080820152604051948580948193631e51809360e31b835260048301611c60565b03925af19081156107be576000916113cd57509056fea26469706673582212200a5757688d722e1563b97b0d6223447bdec8a01267ae7ef6a9464a74809c8cd764736f6c6343000814003384cb977e2a9a6a9b1fc0d73c4b02cd51695c09eb0d3008d61019a7c0a7406c4c",
  "devdoc": {
    "kind": "dev",
    "methods": {
      "onFlashLoan(address,address,uint256,uint256,bytes)": {
        "details": "ERC-3156 Flash loan callback"
      },
      "owner()": {
        "details": "Returns the address of the current owner."
      },
      "renounceOwnership()": {
        "details": "Leaves the contract without owner. It will not be possible to call `onlyOwner` functions anymore. Can only be called by the current owner. NOTE: Renouncing ownership will leave the contract without an owner, thereby removing any functionality that is only available to the owner."
      },
      "transferOwnership(address)": {
        "details": "Transfers ownership of the contract to a new account (`newOwner`). Can only be called by the current owner."
      }
    },
    "version": 1
  },
  "userdoc": {
    "kind": "user",
    "methods": {},
    "version": 1
  },
  "storageLayout": {
    "storage": [
      {
        "astId": 115,
        "contract": "contracts/lending_liquidator/aave-v3/FlashMintLiquidatorAaveBorrowRepayUniswapV3.sol:FlashMintLiquidatorAaveBorrowRepayUniswapV3",
        "label": "_status",
        "offset": 0,
        "slot": "0",
        "type": "t_uint256"
      },
      {
        "astId": 7,
        "contract": "contracts/lending_liquidator/aave-v3/FlashMintLiquidatorAaveBorrowRepayUniswapV3.sol:FlashMintLiquidatorAaveBorrowRepayUniswapV3",
        "label": "_owner",
        "offset": 0,
        "slot": "1",
        "type": "t_address"
      },
      {
        "astId": 9764,
        "contract": "contracts/lending_liquidator/aave-v3/FlashMintLiquidatorAaveBorrowRepayUniswapV3.sol:FlashMintLiquidatorAaveBorrowRepayUniswapV3",
        "label": "isLiquidator",
        "offset": 0,
        "slot": "2",
        "type": "t_mapping(t_address,t_bool)"
      },
      {
        "astId": 8701,
        "contract": "contracts/lending_liquidator/aave-v3/FlashMintLiquidatorAaveBorrowRepayUniswapV3.sol:FlashMintLiquidatorAaveBorrowRepayUniswapV3",
        "label": "slippageTolerance",
        "offset": 0,
        "slot": "3",
        "type": "t_uint256"
      }
    ],
    "types": {
      "t_address": {
        "encoding": "inplace",
        "label": "address",
        "numberOfBytes": "20"
      },
      "t_bool": {
        "encoding": "inplace",
        "label": "bool",
        "numberOfBytes": "1"
      },
      "t_mapping(t_address,t_bool)": {
        "encoding": "mapping",
        "key": "t_address",
        "label": "mapping(address => bool)",
        "numberOfBytes": "32",
        "value": "t_bool"
      },
      "t_uint256": {
        "encoding": "inplace",
        "label": "uint256",
        "numberOfBytes": "32"
      }
    }
  }
}