{
  "address": "0xcc752b5F7977941299cCC5f5629EcdBbc0910702",
  "abi": [
    {
      "inputs": [
        {
          "internalType": "contract IERC3156FlashLender",
          "name": "_flashMinter",
          "type": "address"
        },
        {
          "internalType": "contract ISwapRouter",
          "name": "_uniswapV3Router",
          "type": "address"
        },
        {
          "internalType": "contract ILendingPoolAddressesProvider",
          "name": "_addressesProvider",
          "type": "address"
        },
        {
          "internalType": "contract ILendingPool",
          "name": "_liquidateLender",
          "type": "address"
        },
        {
          "internalType": "contract IAToken",
          "name": "_aDUSD",
          "type": "address"
        },
        {
          "internalType": "uint256",
          "name": "_slippageTolerance",
          "type": "uint256"
        }
      ],
      "stateMutability": "nonpayable",
      "type": "constructor"
    },
    {
      "inputs": [],
      "name": "NoProfitableLiquidation",
      "type": "error"
    },
    {
      "inputs": [
        {
          "internalType": "address",
          "name": "borrowedToken",
          "type": "address"
        },
        {
          "internalType": "string",
          "name": "symbol",
          "type": "string"
        }
      ],
      "name": "NotSupportingNonDUSD",
      "type": "error"
    },
    {
      "inputs": [],
      "name": "OnlyLiquidator",
      "type": "error"
    },
    {
      "inputs": [],
      "name": "UnknownInitiator",
      "type": "error"
    },
    {
      "inputs": [],
      "name": "UnknownLender",
      "type": "error"
    },
    {
      "inputs": [],
      "name": "ValueAboveBasisPoints",
      "type": "error"
    },
    {
      "anonymous": false,
      "inputs": [
        {
          "indexed": true,
          "internalType": "address",
          "name": "initiator",
          "type": "address"
        },
        {
          "indexed": false,
          "internalType": "uint256",
          "name": "amount",
          "type": "uint256"
        }
      ],
      "name": "FlashLoan",
      "type": "event"
    },
    {
      "anonymous": false,
      "inputs": [
        {
          "indexed": true,
          "internalType": "address",
          "name": "liquidator",
          "type": "address"
        },
        {
          "indexed": false,
          "internalType": "address",
          "name": "borrower",
          "type": "address"
        },
        {
          "indexed": true,
          "internalType": "address",
          "name": "poolTokenBorrowedAddress",
          "type": "address"
        },
        {
          "indexed": true,
          "internalType": "address",
          "name": "poolTokenCollateralAddress",
          "type": "address"
        },
        {
          "indexed": false,
          "internalType": "uint256",
          "name": "amount",
          "type": "uint256"
        },
        {
          "indexed": false,
          "internalType": "uint256",
          "name": "seized",
          "type": "uint256"
        },
        {
          "indexed": false,
          "internalType": "bool",
          "name": "usingFlashLoan",
          "type": "bool"
        }
      ],
      "name": "Liquidated",
      "type": "event"
    },
    {
      "anonymous": false,
      "inputs": [
        {
          "indexed": true,
          "internalType": "address",
          "name": "_liquidatorAdded",
          "type": "address"
        }
      ],
      "name": "LiquidatorAdded",
      "type": "event"
    },
    {
      "anonymous": false,
      "inputs": [
        {
          "indexed": true,
          "internalType": "address",
          "name": "_liquidatorRemoved",
          "type": "address"
        }
      ],
      "name": "LiquidatorRemoved",
      "type": "event"
    },
    {
      "anonymous": false,
      "inputs": [
        {
          "indexed": true,
          "internalType": "address",
          "name": "previousOwner",
          "type": "address"
        },
        {
          "indexed": true,
          "internalType": "address",
          "name": "newOwner",
          "type": "address"
        }
      ],
      "name": "OwnershipTransferred",
      "type": "event"
    },
    {
      "anonymous": false,
      "inputs": [
        {
          "indexed": false,
          "internalType": "uint256",
          "name": "newTolerance",
          "type": "uint256"
        }
      ],
      "name": "SlippageToleranceSet",
      "type": "event"
    },
    {
      "anonymous": false,
      "inputs": [
        {
          "indexed": true,
          "internalType": "address",
          "name": "sender",
          "type": "address"
        },
        {
          "indexed": true,
          "internalType": "address",
          "name": "receiver",
          "type": "address"
        },
        {
          "indexed": true,
          "internalType": "address",
          "name": "underlyingAddress",
          "type": "address"
        },
        {
          "indexed": false,
          "internalType": "uint256",
          "name": "amount",
          "type": "uint256"
        }
      ],
      "name": "Withdrawn",
      "type": "event"
    },
    {
      "inputs": [],
      "name": "DUSD_DECIMALS",
      "outputs": [
        {
          "internalType": "uint256",
          "name": "",
          "type": "uint256"
        }
      ],
      "stateMutability": "view",
      "type": "function"
    },
    {
      "inputs": [],
      "name": "FLASHLOAN_CALLBACK",
      "outputs": [
        {
          "internalType": "bytes32",
          "name": "",
          "type": "bytes32"
        }
      ],
      "stateMutability": "view",
      "type": "function"
    },
    {
      "inputs": [],
      "name": "ONE_HUNDER_PCT_BPS",
      "outputs": [
        {
          "internalType": "uint256",
          "name": "",
          "type": "uint256"
        }
      ],
      "stateMutability": "view",
      "type": "function"
    },
    {
      "inputs": [],
      "name": "aDUSD",
      "outputs": [
        {
          "internalType": "contract IAToken",
          "name": "",
          "type": "address"
        }
      ],
      "stateMutability": "view",
      "type": "function"
    },
    {
      "inputs": [
        {
          "internalType": "address",
          "name": "_newLiquidator",
          "type": "address"
        }
      ],
      "name": "addLiquidator",
      "outputs": [],
      "stateMutability": "nonpayable",
      "type": "function"
    },
    {
      "inputs": [],
      "name": "addressesProvider",
      "outputs": [
        {
          "internalType": "contract ILendingPoolAddressesProvider",
          "name": "",
          "type": "address"
        }
      ],
      "stateMutability": "view",
      "type": "function"
    },
    {
      "inputs": [],
      "name": "dusd",
      "outputs": [
        {
          "internalType": "contract ERC20",
          "name": "",
          "type": "address"
        }
      ],
      "stateMutability": "view",
      "type": "function"
    },
    {
      "inputs": [],
      "name": "flashMinter",
      "outputs": [
        {
          "internalType": "contract IERC3156FlashLender",
          "name": "",
          "type": "address"
        }
      ],
      "stateMutability": "view",
      "type": "function"
    },
    {
      "inputs": [
        {
          "internalType": "address",
          "name": "",
          "type": "address"
        }
      ],
      "name": "isLiquidator",
      "outputs": [
        {
          "internalType": "bool",
          "name": "",
          "type": "bool"
        }
      ],
      "stateMutability": "view",
      "type": "function"
    },
    {
      "inputs": [
        {
          "internalType": "address",
          "name": "_poolTokenBorrowedAddress",
          "type": "address"
        },
        {
          "internalType": "address",
          "name": "_poolTokenCollateralAddress",
          "type": "address"
        },
        {
          "internalType": "address",
          "name": "_borrower",
          "type": "address"
        },
        {
          "internalType": "uint256",
          "name": "_repayAmount",
          "type": "uint256"
        },
        {
          "internalType": "bool",
          "name": "_stakeTokens",
          "type": "bool"
        },
        {
          "internalType": "bytes",
          "name": "_path",
          "type": "bytes"
        }
      ],
      "name": "liquidate",
      "outputs": [],
      "stateMutability": "nonpayable",
      "type": "function"
    },
    {
      "inputs": [],
      "name": "liquidateLender",
      "outputs": [
        {
          "internalType": "contract ILendingPool",
          "name": "",
          "type": "address"
        }
      ],
      "stateMutability": "view",
      "type": "function"
    },
    {
      "inputs": [
        {
          "internalType": "address",
          "name": "_initiator",
          "type": "address"
        },
        {
          "internalType": "address",
          "name": "",
          "type": "address"
        },
        {
          "internalType": "uint256",
          "name": "",
          "type": "uint256"
        },
        {
          "internalType": "uint256",
          "name": "",
          "type": "uint256"
        },
        {
          "internalType": "bytes",
          "name": "data",
          "type": "bytes"
        }
      ],
      "name": "onFlashLoan",
      "outputs": [
        {
          "internalType": "bytes32",
          "name": "",
          "type": "bytes32"
        }
      ],
      "stateMutability": "nonpayable",
      "type": "function"
    },
    {
      "inputs": [],
      "name": "owner",
      "outputs": [
        {
          "internalType": "address",
          "name": "",
          "type": "address"
        }
      ],
      "stateMutability": "view",
      "type": "function"
    },
    {
      "inputs": [
        {
          "internalType": "address",
          "name": "_liquidatorToRemove",
          "type": "address"
        }
      ],
      "name": "removeLiquidator",
      "outputs": [],
      "stateMutability": "nonpayable",
      "type": "function"
    },
    {
      "inputs": [],
      "name": "renounceOwnership",
      "outputs": [],
      "stateMutability": "nonpayable",
      "type": "function"
    },
    {
      "inputs": [
        {
          "internalType": "uint256",
          "name": "_newTolerance",
          "type": "uint256"
        }
      ],
      "name": "setSlippageTolerance",
      "outputs": [],
      "stateMutability": "nonpayable",
      "type": "function"
    },
    {
      "inputs": [],
      "name": "slippageTolerance",
      "outputs": [
        {
          "internalType": "uint256",
          "name": "",
          "type": "uint256"
        }
      ],
      "stateMutability": "view",
      "type": "function"
    },
    {
      "inputs": [
        {
          "internalType": "address",
          "name": "newOwner",
          "type": "address"
        }
      ],
      "name": "transferOwnership",
      "outputs": [],
      "stateMutability": "nonpayable",
      "type": "function"
    },
    {
      "inputs": [],
      "name": "uniswapV3Router",
      "outputs": [
        {
          "internalType": "contract ISwapRouter",
          "name": "",
          "type": "address"
        }
      ],
      "stateMutability": "view",
      "type": "function"
    },
    {
      "inputs": [
        {
          "internalType": "address",
          "name": "_underlyingAddress",
          "type": "address"
        },
        {
          "internalType": "address",
          "name": "_receiver",
          "type": "address"
        },
        {
          "internalType": "uint256",
          "name": "_amount",
          "type": "uint256"
        }
      ],
      "name": "withdraw",
      "outputs": [],
      "stateMutability": "nonpayable",
      "type": "function"
    }
  ],
  "transactionHash": "0x6e23d0ca28170470637292690575fe4f536b64502c6968fce0433a46e54bc40e",
  "args": [
    "0x4D6E79013212F10A026A1FB0b926C9Fd0432b96c",
    "0x86fa24508003ee40FBC34385047b665c0Ec9DC55",
    "0xC691F14942B37668C9904b701E3118A133611b3c",
    "0xa7e750C73DE7d19f06D956d704A39fdDfE99D9ea",
    "0xD94D2B2E62738e568E97C783446D965AC078bbEA",
    500
  ],
  "numDeployments": 1,
  "solcInputHash": "529ad0883e9a03cd72f6da9a11e51a0a",
  "bytecode": "0x6101608060405234620001265760c081620022bc80380380916200002482856200012b565b833981010312620001265780516200008e91620000418262000165565b6020810151620000518162000165565b6040820151620000618162000165565b606083015191620000728362000165565b60a0608085015194620000858662000165565b01519462000177565b604051611f199081620003a3823960805181610936015260a0518181816109fe0152818161123a0152818161145501526115cd015260c0518181816102d00152610e59015260e0518181816109b80152611aaf01526101005181610886015261012051818181610b58015281816111f90152818161142301526118b701526101405181818161035201528181611c300152611e9a0152f35b600080fd5b601f909101601f19168101906001600160401b038211908210176200014f57604052565b634e487b7160e01b600052604160045260246000fd5b6001600160a01b038116036200012657565b9360ff91927f84cb977e2a9a6a9b1fc0d73c4b02cd51695c09eb0d3008d61019a7c0a7406c4c96946200024296620001ae62000312565b60a05260c05260e052806101005260046040516358b50cef60e11b815260209281848185829560018060a01b038096165afa908115620002bf575b6000916200028b575b501680610120526040519283809263313ce56760e01b82525afa9182156200027b575b60009262000247575b505016608052610140526200023281600355565b6040519081529081906020820190565b0390a1565b6200026b9250803d1062000273575b6200026281836200012b565b810190620002f7565b38806200021e565b503d62000256565b62000285620002ea565b62000215565b620002b09150833d8511620002b7575b620002a781836200012b565b810190620002cf565b38620001f2565b503d6200029b565b620002c9620002ea565b620001e9565b90816020910312620001265751620002e78162000165565b90565b506040513d6000823e3d90fd5b9081602091031262000126575160ff81168103620001265790565b600160008181558154336001600160a01b03198216811790935560405192916001600160a01b03909116907f8be0079c531659141344cd1fd0a4f28419497f9722a3daafe3b4186f6b6457e09084a33360005260026020526040600020600160ff198254161790557fb0a258c58bd721bcb64542ee0e4e4c843ae58242f908c0681ad82d40d688f1fa60003392a256fe60806040526004361015610013575b600080fd5b60003560e01c8063117da1ee146101a357806323e30c8b1461019a5780632a6b0c24146101915780632ae18104146101885780632c76d7a61461017f5780634c4e7f6f14610176578063529a356f1461016d5780635e45b473146101645780636333b5691461015b578063715018a61461015257806373d190db146101495780638da5cb5b14610140578063ab42c9b314610137578063c72c4d101461012e578063cd955ace14610125578063d03153aa1461011c578063d9caed1214610113578063de1409ce1461010a578063efb74400146101015763f2fde38b146100f957600080fd5b61000e610bff565b5061000e610b87565b5061000e610b41565b5061000e610a4c565b5061000e610a2d565b5061000e6109e7565b5061000e6109a1565b5061000e610983565b5061000e610959565b5061000e61091d565b5061000e6108b5565b5061000e61086f565b5061000e610561565b5061000e6103fc565b5061000e610381565b5061000e61033b565b5061000e6102ff565b5061000e6102b9565b5061000e61022a565b503461000e57602036600319011261000e576004356101cd60018060a01b03600154163314610c9c565b6127108111610207576020817f84cb977e2a9a6a9b1fc0d73c4b02cd51695c09eb0d3008d61019a7c0a7406c4c92600355604051908152a1005b60405163cf8c412760e01b8152600490fd5b6001600160a01b0381160361000e57565b503461000e5760a036600319011261000e5760043561024881610219565b610253602435610219565b60843567ffffffffffffffff80821161000e573660238301121561000e57816004013590811161000e57366024828401011161000e576102aa92602461029a9301906115c2565b6040519081529081906020820190565b0390f35b600091031261000e57565b503461000e57600036600319011261000e576040517f00000000000000000000000000000000000000000000000000000000000000006001600160a01b03168152602090f35b503461000e57600036600319011261000e5760206040517f439148f0bbc682ca079e46d6e2c2f0c1e3b820f1a291b069d8882abf8cf18dd98152f35b503461000e57600036600319011261000e576040517f00000000000000000000000000000000000000000000000000000000000000006001600160a01b03168152602090f35b503461000e57602036600319011261000e5760006004356103a181610219565b6001546001600160a01b0391906103bb9083163314610c9c565b1680825260026020526040808320805460ff1916600117905551907fb0a258c58bd721bcb64542ee0e4e4c843ae58242f908c0681ad82d40d688f1fa8383a2f35b503461000e57602036600319011261000e5760043561041a81610219565b60018060a01b03166000526002602052602060ff604060002054166040519015158152f35b8015150361000e57565b50634e487b7160e01b600052604160045260246000fd5b67ffffffffffffffff811161047457604052565b61047c610449565b604052565b610100810190811067ffffffffffffffff82111761047457604052565b90601f8019910116810190811067ffffffffffffffff82111761047457604052565b6040519060e0820182811067ffffffffffffffff82111761047457604052565b604051906104ed82610481565b565b60209067ffffffffffffffff811161050d575b601f01601f19160190565b610515610449565b610502565b81601f8201121561000e57803590610531826104ef565b9261053f604051948561049e565b8284526020838301011161000e57816000926020809301838601378301015290565b503461000e5760c036600319011261000e5760043561057f81610219565b60243561058b81610219565b6044359061059882610219565b60643592608435906105a98261043f565b60a43567ffffffffffffffff811161000e576105c990369060040161051a565b600095600287541461082a57600287553387526020906002825260409660ff888a20541615610819576105fb87611551565b9661060586611551565b956106206106116104c0565b6001600160a01b03909a168a52565b6001600160a01b03968716858a019081529187168a8a019081529616606089019081529095903360808a01908152916001600160a01b0390931660a08a019081529260c08a01948086528c8c8861068c6106808d5160018060a01b031690565b6001600160a01b031690565b91516370a0823160e01b815230600482015291829060249082905afa91821561080c575b916107df575b50106107025750505050505050506106cd82610df2565b905b156106e4575b50506106e16001600055565b51f35b90516106fb919033906001600160a01b0316610d53565b38806106d5565b89516001600160a01b03166001600160a01b031697516001600160a01b03166001600160a01b031690516001600160a01b03166001600160a01b031691516001600160a01b03166001600160a01b031692516001600160a01b031693516001600160a01b03169451956107736104e0565b6001600160a01b0390991689526001600160a01b03909116908801526001600160a01b0316868a01526001600160a01b031660608601526001600160a01b031660808501526001600160a01b031660a084015260c083015260e08201526107d9906111d4565b906106cf565b6107ff9150883d8a11610805575b6107f7818361049e565b810190610d37565b386106b6565b503d6107ed565b610814610d46565b6106b0565b87516399b01c4760e01b8152600490fd5b60405162461bcd60e51b815260206004820152601f60248201527f5265656e7472616e637947756172643a207265656e7472616e742063616c6c006044820152606490fd5b503461000e57600036600319011261000e576040517f00000000000000000000000000000000000000000000000000000000000000006001600160a01b03168152602090f35b503461000e5760008060031936011261091a576001546001600160a01b038116906108e1338314610c9c565b6001600160a01b0319166001556040519082907f8be0079c531659141344cd1fd0a4f28419497f9722a3daafe3b4186f6b6457e08284a3f35b80fd5b503461000e57600036600319011261000e5760206040517f00000000000000000000000000000000000000000000000000000000000000008152f35b503461000e57600036600319011261000e576001546040516001600160a01b039091168152602090f35b503461000e57600036600319011261000e5760206040516127108152f35b503461000e57600036600319011261000e576040517f00000000000000000000000000000000000000000000000000000000000000006001600160a01b03168152602090f35b503461000e57600036600319011261000e576040517f00000000000000000000000000000000000000000000000000000000000000006001600160a01b03168152602090f35b503461000e57600036600319011261000e576020600354604051908152f35b503461000e57606036600319011261000e57600435610a6a81610219565b602435610a7681610219565b604435917fa4195c37c2947bbe89165f03e320b6903116f0b10d8cfdb522330f7ce6f9fa2460018060a01b038092610ab382600154163314610c9c565b6040516370a0823160e01b8152306004820152911694602082602481895afa918215610b34575b600092610b14575b5081811115610b0c5750915b610af9838587610d53565b60405192835292909216913391602090a4005b905091610aee565b610b2d91925060203d8111610805576107f7818361049e565b9038610ae2565b610b3c610d46565b610ada565b503461000e57600036600319011261000e576040517f00000000000000000000000000000000000000000000000000000000000000006001600160a01b03168152602090f35b503461000e57602036600319011261000e576000600435610ba781610219565b6001546001600160a01b039190610bc19083163314610c9c565b1680825260026020526040808320805460ff1916905551907f06091797105e9997e06a57873c81a60a419050caf1d0ffedacc53ffc767f84f58383a2f35b503461000e57602036600319011261000e57600435610c1d81610219565b6001546001600160a01b0390610c369082163314610c9c565b811615610c4857610c4690610ce7565b005b60405162461bcd60e51b815260206004820152602660248201527f4f776e61626c653a206e6577206f776e657220697320746865207a65726f206160448201526564647265737360d01b6064820152608490fd5b15610ca357565b606460405162461bcd60e51b815260206004820152602060248201527f4f776e61626c653a2063616c6c6572206973206e6f7420746865206f776e65726044820152fd5b6001549060018060a01b0380911691826bffffffffffffffffffffffff60a01b821617600155167f8be0079c531659141344cd1fd0a4f28419497f9722a3daafe3b4186f6b6457e06000604051a3565b9081602091031261000e575190565b506040513d6000823e3d90fd5b600091826044926020956040519363a9059cbb60e01b8552600485015260248401525af13d15601f3d1160016000511416171615610d8d57565b60405162461bcd60e51b815260206004820152600f60248201526e1514905394d1915497d19052531151608a1b6044820152606490fd5b50634e487b7160e01b600052601160045260246000fd5b818110610de6570390565b610dee610dc4565b0390565b8051909190610e09906001600160a01b0316610680565b6040516370a0823160e01b80825230600483015260209491929091908590849060249082905afa92831561108d575b60009361106e575b50808501516001600160a01b03169160018060a01b03807f00000000000000000000000000000000000000000000000000000000000000001694610e8b60c08501958787519161109a565b6040840195610eae610680610ea96106808a5160018060a01b031690565b611551565b986060860195610ecd610680610ea96106808a5160018060a01b031690565b60a082018051909c919391906001600160a01b0316958a5192863b1561000e577fe96c57864e490909fadd8ddc506e391bc4946ed905e39f7e71321861c798d3e69981610f9a61068061068098610fd4986000610fe29e6106809e610fd49e83610fc69d610f7c6040519788968795869462a718a960e01b86526004860190949360809260009460a084019760018060a01b039283809216865216602085015216604083015260608201520152565b03925af18015611061575b611048575b50516001600160a01b031690565b604051928352306004840152829060249082905afa91821561103b575b60009261101e575b5050610ddb565b9b516001600160a01b031690565b96516001600160a01b031690565b9351604080516001600160a01b03909516855260208501919091528301879052600060608401529283169390921691339180608081015b0390a4565b6110349250803d10610805576107f7818361049e565b3880610fbf565b611043610d46565b610fb7565b8061105561105b92610460565b806102ae565b38610f8c565b611069610d46565b610f87565b611086919350853d8711610805576107f7818361049e565b9138610e40565b611095610d46565b610e38565b600091826044926020956040519363095ea7b360e01b8552600485015260248401525af13d15601f3d11600160005114161716156110d457565b60405162461bcd60e51b815260206004820152600e60248201526d1054141493d59157d1905253115160921b6044820152606490fd5b61271081198111611119570190565b611121610dc4565b0190565b81198111611119570190565b9081602091031261000e57516111468161043f565b90565b918091926000905b828210611169575011611162575050565b6000910152565b91508060209183015181860152018291611151565b9060209161119781518092818552858086019101611149565b601f01601f1916010190565b6001600160a01b0391821681529116602082015260408101919091526080606082018190526111469291019061117e565b9061132c6111e1836114af565b926111ea61140c565b604051633676633960e21b81527f00000000000000000000000000000000000000000000000000000000000000006001600160a01b038181166004840181905260248401859052939793946020947f000000000000000000000000000000000000000000000000000000000000000090921693909261128e918590611288908881604481865afa9081156113ff575b6000916113e2575b508c611125565b9161109a565b81516112a490610680906001600160a01b031681565b6040516370a0823160e01b80825230600483015290969094918a91908790899060249082905afa9788156113d5575b600098611397575b509361130f87610f9a9561068095610680956000849a60405196879586948593632e7ff4ef60e11b855230600486016111a3565b03925af1801561138a575b61135d5750516001600160a01b031690565b6040519283529133907f134bde118562a60dcf2d8c52965f586e25cf88a371592e44b78c4aa03bcbac8490602090a2565b61137c90863d8811611383575b611374818361049e565b810190611131565b5038610f8c565b503d61136a565b611392610d46565b61131a565b878096929950610f9a95610680956106809560006113c461130f96863d8811610805576107f7818361049e565b9d969a5050955095509550506112db565b6113dd610d46565b6112d3565b6113f99150893d8b11610805576107f7818361049e565b38611281565b611407610d46565b611279565b60405163613255ab60e01b81526001600160a01b037f000000000000000000000000000000000000000000000000000000000000000081166004830152602090829060249082907f0000000000000000000000000000000000000000000000000000000000000000165afa9081156114a2575b60009161148a575090565b611146915060203d8111610805576107f7818361049e565b6114aa610d46565b61147f565b61114660018060a01b0361152e8184511691806020860151169481604082015116918060608301511690806080840151169060a0840151169160e060c085015194015194604051998a9860208a015260408901526060880152608087015260a086015260c085015260e08401526101008084015261012083019061117e565b03601f19810183528261049e565b9081602091031261000e575161114681610219565b6040516358b50cef60e11b81526001600160a01b03916020908290600490829086165afa9081156115b5575b60009161158957501690565b6115aa915060203d81116115ae575b6115a2818361049e565b81019061153c565b1690565b503d611598565b6115bd610d46565b61157d565b6001600160a01b03907f0000000000000000000000000000000000000000000000000000000000000000821633036117045781309116036116f2576040519261160a84610481565b6000808552826020860191808352604087019581875260608801968288528360808a0198848a5260a08b019685885282808d60c0810198895260e0019a60608c5287019581611659888a611716565b505050509095166001600160a01b03169097529592166001600160a01b03169052166001600160a01b03169052166001600160a01b0316895261169b91611716565b945095509593509790505252166116b9919060018060a01b03169052565b166001600160a01b031690526116ce90611897565b7f439148f0bbc682ca079e46d6e2c2f0c1e3b820f1a291b069d8882abf8cf18dd990565b604051634ac321c360e11b8152600490fd5b604051631e4a393d60e31b8152600490fd5b9190916101008184031261000e57803561172f81610219565b92602082013561173e81610219565b92604083013561174d81610219565b92606081013561175c81610219565b92608082013561176b81610219565b9260a083013561177a81610219565b9260c08101359260e082013567ffffffffffffffff811161000e57611146920161051a565b60208183031261000e5780519067ffffffffffffffff821161000e570181601f8201121561000e5780516117d2816104ef565b926117e0604051948561049e565b8184526020828401011161000e576111469160208085019101611149565b6001600160a01b0390911681526040602082018190526111469291019061117e565b9081602091031261000e575160ff8116810361000e5790565b60ff16604d811161184b575b600a0a90565b611853610dc4565b611845565b806000190482118115151661186b570290565b611873610dc4565b0290565b8115611881570490565b634e487b7160e01b600052601260045260246000fd5b6020810180519091906001600160a01b03166001600160a01b03818116907f0000000000000000000000000000000000000000000000000000000000000000168103611d795750508051825160408301805160608501805160808701805160a08901805160c08b018051989c929b969a94996001600160a01b039586169991989397969195928316948316939183169291821691166119346104c0565b6001600160a01b03909a168a526001600160a01b031660208a01526001600160a01b031660408901526001600160a01b031660608801526001600160a01b031660808701526001600160a01b031660a086015260c08501528261199685610df2565b83519095906001600160a01b031683516001600160a01b03166001600160a01b031690600160a01b600190031614157fe96c57864e490909fadd8ddc506e391bc4946ed905e39f7e71321861c798d3e69761101995611a2f95611a2195610fd495611a1395611a6b575b505091516001600160a01b031692915050565b98516001600160a01b031690565b97516001600160a01b031690565b9151604080516001600160a01b039788168152602081019290925281019390935260016060840152908416958416949093169281906080820190565b611c0e611c0382611bfd60046020611bd661068082611bc7611bad8d611c689f849060e09f611c169f60405191631f94a27560e31b835284838e8160018060a01b037f0000000000000000000000000000000000000000000000000000000000000000165afa928315611d6c575b600093611d2a575b50611b48611b3a611b8a938f611b349089611b0a610680611b3a9851955160018060a01b031690565b60405163313ce56760e01b815292839182905afa908115611d1d575b600091611d06575b50611839565b90611858565b94516001600160a01b031690565b60405163b3596f0760e01b8082526001600160a01b0392831660048301529594909116938682602481885afa918215611cf9575b600092611cda575b50611858565b6040519283526001600160a01b03168b8301908152919485928391829160200190565b03915afa918215611ccd575b600092611cae575b50611877565b9601516001600160a01b031690565b6040519283809263313ce5678c1b82525afa908115611ca1575b600091611c725750611839565b90611877565b611b3460035461110a565b612710900490565b91611c5e83611c2e610680845160018060a01b031690565b7f00000000000000000000000000000000000000000000000000000000000000006001600160a01b03169061109a565b0151895190611e3d565b5038808881611a00565b611c94915060203d602011611c9a575b611c8c818361049e565b810190611820565b38611b2e565b503d611c82565b611ca9610d46565b611bf0565b611cc6919250843d8611610805576107f7818361049e565b9038611bc1565b611cd5610d46565b611bb9565b611cf2919250873d8911610805576107f7818361049e565b9038611b84565b611d01610d46565b611b7c565b611c9491508a3d8c11611c9a57611c8c818361049e565b611d25610d46565b611b26565b611b3a919350611b3a611b8a938f611b349089611b0a610680611d5c611b4898843d86116115ae576115a2818361049e565b9a98505050505050935050611ae1565b611d74610d46565b611ad9565b906000600492604051938480926395d89b4160e01b82525afa918215611de6575b600092611dc3575b50611dbf604051928392635620c2dd60e01b8452600484016117fe565b0390fd5b611ddf91923d8091833e611dd7818361049e565b81019061179f565b9082611da2565b611dee610d46565b611d9a565b6020815260a06080611e10845183602086015260c085019061117e565b93600180841b03602082015116604085015260408101516060850152606081015182850152015191015290565b611e94926020926040519260a0840184811067ffffffffffffffff821117611ed6575b604052835230848401524260408401526060830152608082015260405180938192631e51809360e31b835260048301611df3565b038160007f00000000000000000000000000000000000000000000000000000000000000006001600160a01b03165af19081156114a25760009161148a575090565b611ede610449565b611e6056fea264697066735822122035d4eb154ed0e858e1741f5c6013ac53d89df3dc3063ce94d96ff39469b08dfb64736f6c634300080d0033",
  "devdoc": {
    "kind": "dev",
    "methods": {
      "onFlashLoan(address,address,uint256,uint256,bytes)": {
        "details": "ERC-3156 Flash loan callback"
      },
      "owner()": {
        "details": "Returns the address of the current owner."
      },
      "renounceOwnership()": {
        "details": "Leaves the contract without owner. It will not be possible to call `onlyOwner` functions anymore. Can only be called by the current owner. NOTE: Renouncing ownership will leave the contract without an owner, thereby removing any functionality that is only available to the owner."
      },
      "transferOwnership(address)": {
        "details": "Transfers ownership of the contract to a new account (`newOwner`). Can only be called by the current owner."
      }
    },
    "version": 1
  },
  "userdoc": {
    "kind": "user",
    "methods": {},
    "version": 1
  },
  "storageLayout": {
    "storage": [
      {
        "astId": 115,
        "contract": "contracts/lending_liquidator/aave-v3/FlashMintLiquidatorBorrowRepayAave.sol:FlashMintLiquidatorBorrowRepayAave",
        "label": "_status",
        "offset": 0,
        "slot": "0",
        "type": "t_uint256"
      },
      {
        "astId": 7,
        "contract": "contracts/lending_liquidator/aave-v3/FlashMintLiquidatorBorrowRepayAave.sol:FlashMintLiquidatorBorrowRepayAave",
        "label": "_owner",
        "offset": 0,
        "slot": "1",
        "type": "t_address"
      },
      {
        "astId": 3256,
        "contract": "contracts/lending_liquidator/aave-v3/FlashMintLiquidatorBorrowRepayAave.sol:FlashMintLiquidatorBorrowRepayAave",
        "label": "isLiquidator",
        "offset": 0,
        "slot": "2",
        "type": "t_mapping(t_address,t_bool)"
      },
      {
        "astId": 2408,
        "contract": "contracts/lending_liquidator/aave-v3/FlashMintLiquidatorBorrowRepayAave.sol:FlashMintLiquidatorBorrowRepayAave",
        "label": "slippageTolerance",
        "offset": 0,
        "slot": "3",
        "type": "t_uint256"
      }
    ],
    "types": {
      "t_address": {
        "encoding": "inplace",
        "label": "address",
        "numberOfBytes": "20"
      },
      "t_bool": {
        "encoding": "inplace",
        "label": "bool",
        "numberOfBytes": "1"
      },
      "t_mapping(t_address,t_bool)": {
        "encoding": "mapping",
        "key": "t_address",
        "label": "mapping(address => bool)",
        "numberOfBytes": "32",
        "value": "t_bool"
      },
      "t_uint256": {
        "encoding": "inplace",
        "label": "uint256",
        "numberOfBytes": "32"
      }
    }
  }
}