{
  "address": "0xEAB6E4F763fAA851A3356a45Ee91Bf3cF8D36045",
  "abi": [
    {
      "inputs": [
        {
          "internalType": "contract IPoolAddressesProvider",
          "name": "provider",
          "type": "address"
        }
      ],
      "stateMutability": "nonpayable",
      "type": "constructor"
    },
    {
      "anonymous": false,
      "inputs": [
        {
          "indexed": false,
          "internalType": "address[]",
          "name": "_assets",
          "type": "address[]"
        },
        {
          "indexed": false,
          "internalType": "uint256[]",
          "name": "_amounts",
          "type": "uint256[]"
        },
        {
          "indexed": false,
          "internalType": "uint256[]",
          "name": "_premiums",
          "type": "uint256[]"
        }
      ],
      "name": "ExecutedWithFail",
      "type": "event"
    },
    {
      "anonymous": false,
      "inputs": [
        {
          "indexed": false,
          "internalType": "address[]",
          "name": "_assets",
          "type": "address[]"
        },
        {
          "indexed": false,
          "internalType": "uint256[]",
          "name": "_amounts",
          "type": "uint256[]"
        },
        {
          "indexed": false,
          "internalType": "uint256[]",
          "name": "_premiums",
          "type": "uint256[]"
        }
      ],
      "name": "ExecutedWithSuccess",
      "type": "event"
    },
    {
      "inputs": [],
      "name": "ADDRESSES_PROVIDER",
      "outputs": [
        {
          "internalType": "contract IPoolAddressesProvider",
          "name": "",
          "type": "address"
        }
      ],
      "stateMutability": "view",
      "type": "function"
    },
    {
      "inputs": [],
      "name": "POOL",
      "outputs": [
        {
          "internalType": "contract IPool",
          "name": "",
          "type": "address"
        }
      ],
      "stateMutability": "view",
      "type": "function"
    },
    {
      "inputs": [
        {
          "internalType": "address[]",
          "name": "assets",
          "type": "address[]"
        },
        {
          "internalType": "uint256[]",
          "name": "amounts",
          "type": "uint256[]"
        },
        {
          "internalType": "uint256[]",
          "name": "premiums",
          "type": "uint256[]"
        },
        {
          "internalType": "address",
          "name": "",
          "type": "address"
        },
        {
          "internalType": "bytes",
          "name": "",
          "type": "bytes"
        }
      ],
      "name": "executeOperation",
      "outputs": [
        {
          "internalType": "bool",
          "name": "",
          "type": "bool"
        }
      ],
      "stateMutability": "nonpayable",
      "type": "function"
    },
    {
      "inputs": [],
      "name": "getAmountToApprove",
      "outputs": [
        {
          "internalType": "uint256",
          "name": "",
          "type": "uint256"
        }
      ],
      "stateMutability": "view",
      "type": "function"
    },
    {
      "inputs": [
        {
          "internalType": "uint256",
          "name": "amountToApprove",
          "type": "uint256"
        }
      ],
      "name": "setAmountToApprove",
      "outputs": [],
      "stateMutability": "nonpayable",
      "type": "function"
    },
    {
      "inputs": [
        {
          "internalType": "bool",
          "name": "fail",
          "type": "bool"
        }
      ],
      "name": "setFailExecutionTransfer",
      "outputs": [],
      "stateMutability": "nonpayable",
      "type": "function"
    },
    {
      "inputs": [
        {
          "internalType": "bool",
          "name": "flag",
          "type": "bool"
        }
      ],
      "name": "setSimulateEOA",
      "outputs": [],
      "stateMutability": "nonpayable",
      "type": "function"
    },
    {
      "inputs": [],
      "name": "simulateEOA",
      "outputs": [
        {
          "internalType": "bool",
          "name": "",
          "type": "bool"
        }
      ],
      "stateMutability": "view",
      "type": "function"
    }
  ],
  "transactionHash": "0xb757ccd90158986c0d76fc4924160c7545fc74bc87ff6862939ff857cdf20fec",
  "args": [
    "0xC691F14942B37668C9904b701E3118A133611b3c"
  ],
  "numDeployments": 1,
  "solcInputHash": "4a6a3ab49a41002471a76f77fc4e04dd",
  "bytecode": "0x60c080604052346100e557602081610920803803809161001f82856100ea565b8339810103126100e557516001600160a01b0390818116908181036100e55760805260405163026b1d5f60e01b815290602090829060049082905afa9081156100d957600091610097575b501660a0526040516107fc90816101248239608051816102f8015260a05181818161024501526104d90152f35b6020813d6020116100d1575b816100b0602093836100ea565b810103126100cd57519082821682036100ca57503861006a565b80fd5b5080fd5b3d91506100a3565b6040513d6000823e3d90fd5b600080fd5b601f909101601f19168101906001600160401b0382119082101761010d57604052565b634e487b7160e01b600052604160045260246000fdfe60806040908082526004908136101561001757600080fd5b600092833560e01c9182630542975c146102e457508163388f70f1146102b75781634444f331146102935781635e76bba3146102745781637535d24614610230578163920f5c84146100c857508063bf443f85146100af5763e9a6a25b1461007e57600080fd5b346100ab5760203660031901126100ab57358015158091036100ab5760ff80196002541691161760025580f35b5080fd5b50346100ab5760203660031901126100ab573560015580f35b90503461022c5760a036600319011261022c5781359167ffffffffffffffff90818411610228573660238501121561022857838101359360249261010b8661035f565b9161011886519384610327565b868352602096858885019160051b830101913683116101e8578601905b828210610205575050508335818111610201576101559036908501610377565b926044358281116101fd5761016d9036908301610377565b946064356001600160a01b038116036101fd57608435918383116101e857366023840112156101e857828101359384116101ec57508651916101b8601f8501601f19168a0184610327565b838352368285830101116101e8579183899a94926101df999a9401848301370101526104c2565b90519015158152f35b8980fd5b634e487b7160e01b8a526041905288fd5b8880fd5b8780fd5b81356001600160a01b0381168103610224578152908801908801610135565b8a80fd5b8480fd5b8280fd5b8390346100ab57816003193601126100ab57517f00000000000000000000000000000000000000000000000000000000000000006001600160a01b03168152602090f35b8390346100ab57816003193601126100ab576020906001549051908152f35b8390346100ab57816003193601126100ab5760209060ff6002541690519015158152f35b5050346100ab5760203660031901126100ab57358015158091036100ab5760ff8019835416911617815580f35b8490346100ab57816003193601126100ab577f00000000000000000000000000000000000000000000000000000000000000006001600160a01b03168152602090f35b90601f8019910116810190811067ffffffffffffffff82111761034957604052565b634e487b7160e01b600052604160045260246000fd5b67ffffffffffffffff81116103495760051b60200190565b9080601f830112156103d75760209082356103918161035f565b9361039f6040519586610327565b81855260208086019260051b8201019283116103d757602001905b8282106103c8575050505090565b813581529083019083016103ba565b600080fd5b90815180825260208080930193019160005b8281106103fc575050505090565b8351855293810193928101926001016103ee565b91939290936060830194606084528051809652608084019560208092019160005b828110610463575050505084610452918461046096970360208601526103dc565b9160408184039101526103dc565b90565b83516001600160a01b031689529781019792810192600101610431565b80518210156104945760209160051b010190565b634e487b7160e01b600052603260045260246000fd5b908160209103126103d7575180151581036103d75790565b60009260ff845416610786576001600160a01b03927f00000000000000000000000000000000000000000000000000000000000000008416855b845181101561074757856105108287610480565b511661051c8285610480565b5190876105298489610480565b51169060409182518080956370a0823160e01b82526004933085840152602097889160249586915afa91821561073b578e92610708575b50116106c7576001548c91869190811561068557506105b090945b610585898d610480565b5187516340c10f1960e01b815230878201908152602081019290925294859384928391604090910190565b03925af1801561067b5791878d8d6105d68a8f6106089a99978c9961065e575b50610480565b51169286519788958694859363095ea7b360e01b8552840160209093929193604081019460018060a01b031681520152565b03925af19081156106555750906001939291610627575b5050016104fc565b8161064692903d1061064e575b61063e8183610327565b8101906104aa565b50388061061f565b503d610634565b513d8b823e3d90fd5b610674908a3d8c1161064e5761063e8183610327565b50386105d0565b84513d8e823e3d90fd5b925050506106938689610480565b519061069f878b610480565b5182018092116106b65750846105b08d929461057b565b634e487b7160e01b8d52601183528cfd5b835162461bcd60e51b815291820185905281018490527f496e76616c69642062616c616e636520666f722074686520636f6e74726163746044820152606490fd5b9091508681813d8311610734575b6107208183610327565b8101031261073057519038610560565b8d80fd5b503d610716565b8e8751903d90823e3d90fd5b505092507fbd6b6bfac59612765a81cc4fdee74ab4859671fa14a562056f9eea438735a78a935061077e9060405193849384610410565b0390a1600190565b7f9972b212e52913783072b960dd41527ae8b6e609d017b64039758dda0ce4127893506107b99060405193849384610410565b0390a160ff60025416159056fea2646970667358221220b5ef6ce599aaba01da0bdab04bd61b570bb9c301a8efd595d0804c0071afe35f64736f6c63430008180033",
  "devdoc": {
    "kind": "dev",
    "methods": {},
    "version": 1
  },
  "userdoc": {
    "kind": "user",
    "methods": {},
    "version": 1
  },
  "storageLayout": {
    "storage": [
      {
        "astId": 18194,
        "contract": "contracts/lending/core/mocks/flashloan/MockFlashLoanReceiver.sol:MockFlashLoanReceiver",
        "label": "_failExecution",
        "offset": 0,
        "slot": "0",
        "type": "t_bool"
      },
      {
        "astId": 18196,
        "contract": "contracts/lending/core/mocks/flashloan/MockFlashLoanReceiver.sol:MockFlashLoanReceiver",
        "label": "_amountToApprove",
        "offset": 0,
        "slot": "1",
        "type": "t_uint256"
      },
      {
        "astId": 18198,
        "contract": "contracts/lending/core/mocks/flashloan/MockFlashLoanReceiver.sol:MockFlashLoanReceiver",
        "label": "_simulateEOA",
        "offset": 0,
        "slot": "2",
        "type": "t_bool"
      }
    ],
    "types": {
      "t_bool": {
        "encoding": "inplace",
        "label": "bool",
        "numberOfBytes": "1"
      },
      "t_uint256": {
        "encoding": "inplace",
        "label": "uint256",
        "numberOfBytes": "32"
      }
    }
  }
}