{
  "address": "0xa7D1C7bB31c07d74B70C3C82258487B3737B10Ea",
  "abi": [
    {
      "inputs": [
        {
          "internalType": "address",
          "name": "_WETH9",
          "type": "address"
        },
        {
          "internalType": "bytes32",
          "name": "_nativeCurrencyLabelBytes",
          "type": "bytes32"
        }
      ],
      "stateMutability": "nonpayable",
      "type": "constructor"
    },
    {
      "inputs": [],
      "name": "WETH9",
      "outputs": [
        {
          "internalType": "address",
          "name": "",
          "type": "address"
        }
      ],
      "stateMutability": "view",
      "type": "function"
    },
    {
      "inputs": [
        {
          "internalType": "address",
          "name": "token0",
          "type": "address"
        },
        {
          "internalType": "address",
          "name": "token1",
          "type": "address"
        },
        {
          "internalType": "uint256",
          "name": "chainId",
          "type": "uint256"
        }
      ],
      "name": "flipRatio",
      "outputs": [
        {
          "internalType": "bool",
          "name": "",
          "type": "bool"
        }
      ],
      "stateMutability": "view",
      "type": "function"
    },
    {
      "inputs": [],
      "name": "nativeCurrencyLabel",
      "outputs": [
        {
          "internalType": "string",
          "name": "",
          "type": "string"
        }
      ],
      "stateMutability": "view",
      "type": "function"
    },
    {
      "inputs": [],
      "name": "nativeCurrencyLabelBytes",
      "outputs": [
        {
          "internalType": "bytes32",
          "name": "",
          "type": "bytes32"
        }
      ],
      "stateMutability": "view",
      "type": "function"
    },
    {
      "inputs": [
        {
          "internalType": "address",
          "name": "token",
          "type": "address"
        },
        {
          "internalType": "uint256",
          "name": "chainId",
          "type": "uint256"
        }
      ],
      "name": "tokenRatioPriority",
      "outputs": [
        {
          "internalType": "int256",
          "name": "",
          "type": "int256"
        }
      ],
      "stateMutability": "view",
      "type": "function"
    },
    {
      "inputs": [
        {
          "internalType": "contract INonfungiblePositionManager",
          "name": "positionManager",
          "type": "address"
        },
        {
          "internalType": "uint256",
          "name": "tokenId",
          "type": "uint256"
        }
      ],
      "name": "tokenURI",
      "outputs": [
        {
          "internalType": "string",
          "name": "",
          "type": "string"
        }
      ],
      "stateMutability": "view",
      "type": "function"
    }
  ],
  "transactionHash": "0xe85ea11161316b411b95724d700ca796cffcdf26d19b160c841d00c8584c9ea7",
  "args": [
    "0xFC00000000000000000000000000000000000006",
    "0x5745544800000000000000000000000000000000000000000000000000000000"
  ],
  "numDeployments": 1,
  "solcInputHash": "1a36b891c9b633e230aadb8f811a780f",
  "bytecode": "0x60c060405234801561001057600080fd5b5060405161150f38038061150f83398101604081905261002f9161004a565b60609190911b6001600160601b03191660805260a052610082565b6000806040838503121561005c578182fd5b82516001600160a01b0381168114610072578283fd5b6020939093015192949293505050565b60805160601c60a05161144f6100c06000398061027f52806102b3528061034f52508060f7528061013c52806105f25280610646525061144f6000f3fe608060405234801561001057600080fd5b50600436106100625760003560e01c80634aa4a4fc146100675780637e5af771146100855780639d7b0ea8146100a5578063a18246e2146100c5578063b7af3cdc146100cd578063e9dc6375146100e2575b600080fd5b61006f6100f5565b60405161007c91906112a1565b60405180910390f35b610098610093366004610fa7565b610119565b60405161007c91906112b5565b6100b86100b3366004610fe7565b610138565b60405161007c91906112c0565b6100b861027d565b6100d56102a1565b60405161007c91906112c9565b6100d56100f0366004610fe7565b6103af565b7f000000000000000000000000000000000000000000000000000000000000000081565b60006101258383610138565b61012f8584610138565b13949350505050565b60007f00000000000000000000000000000000000000000000000000000000000000006001600160a01b0316836001600160a01b0316141561017d5750606319610277565b8160011415610273576001600160a01b03831673a0b86991c6218b36c1d19d4a2e9eb0ce3606eb4814156101b4575061012c610277565b6001600160a01b03831673dac17f958d2ee523a2206206994597c13d831ec714156101e1575060c8610277565b6001600160a01b038316736b175474e89094c44da98b954eedeac495271d0f141561020e57506064610277565b6001600160a01b038316738daebade922df735c38c80c7ebd708af50815faa141561023c575060c719610277565b6001600160a01b038316732260fac5e5542a773aa44fbcfedf7c193bc2c599141561026b575061012b19610277565b506000610277565b5060005b92915050565b7f000000000000000000000000000000000000000000000000000000000000000081565b606060005b6020811080156102ee57507f000000000000000000000000000000000000000000000000000000000000000081602081106102dd57fe5b1a60f81b6001600160f81b03191615155b156102fb576001016102a6565b60008167ffffffffffffffff8111801561031457600080fd5b506040519080825280601f01601f19166020018201604052801561033f576020820181803683370190505b50905060005b828110156103a8577f0000000000000000000000000000000000000000000000000000000000000000816020811061037957fe5b1a60f81b82828151811061038957fe5b60200101906001600160f81b031916908160001a905350600101610345565b5091505090565b60606000806000806000876001600160a01b03166399fbab88886040518263ffffffff1660e01b81526004016103e591906112c0565b6101806040518083038186803b1580156103fe57600080fd5b505afa158015610412573d6000803e3d6000fd5b505050506040513d601f19601f82011682018060405250810190610436919061116c565b505050505096509650965096509650505060006104f4896001600160a01b031663c45a01556040518163ffffffff1660e01b815260040160206040518083038186803b15801561048557600080fd5b505afa158015610499573d6000803e3d6000fd5b505050506040513d601f19601f820116820180604052508101906104bd9190610f84565b6040518060600160405280896001600160a01b03168152602001886001600160a01b031681526020018762ffffff168152506108bf565b9050600061050587876100936109eb565b9050600081156105155787610517565b865b9050600082156105275787610529565b885b90506000846001600160a01b0316633850c7bd6040518163ffffffff1660e01b815260040160e06040518083038186803b15801561056657600080fd5b505afa15801561057a573d6000803e3d6000fd5b505050506040513d601f19601f8201168201806040525081019061059e91906110c3565b505050505091505073e28Da764da925043D2F35d2438C2328fba26413563c49917d7604051806101c001604052808f8152602001866001600160a01b03168152602001856001600160a01b031681526020017f00000000000000000000000000000000000000000000000000000000000000006001600160a01b0316876001600160a01b03161461063757610632876109ef565b61063f565b61063f6102a1565b81526020017f00000000000000000000000000000000000000000000000000000000000000006001600160a01b0316866001600160a01b03161461068b57610686866109ef565b610693565b6106936102a1565b8152602001866001600160a01b031663313ce5676040518163ffffffff1660e01b815260040160206040518083038186803b1580156106d157600080fd5b505afa1580156106e5573d6000803e3d6000fd5b505050506040513d601f19601f820116820180604052508101906107099190611152565b60ff168152602001856001600160a01b031663313ce5676040518163ffffffff1660e01b815260040160206040518083038186803b15801561074a57600080fd5b505afa15801561075e573d6000803e3d6000fd5b505050506040513d601f19601f820116820180604052508101906107829190611152565b60ff16815260200187151581526020018a60020b81526020018960020b81526020018460020b8152602001886001600160a01b031663d0c93a7c6040518163ffffffff1660e01b815260040160206040518083038186803b1580156107e657600080fd5b505afa1580156107fa573d6000803e3d6000fd5b505050506040513d601f19601f8201168201806040525081019061081e9190611012565b60020b81526020018b62ffffff168152602001886001600160a01b03168152506040518263ffffffff1660e01b815260040161085a91906112dc565b60006040518083038186803b15801561087257600080fd5b505af4158015610886573d6000803e3d6000fd5b505050506040513d6000823e601f3d908101601f191682016040526108ae919081019061102c565b9d9c50505050505050505050505050565b600081602001516001600160a01b031682600001516001600160a01b03161061092f576040805162461bcd60e51b815260206004820181905260248201527f506f6f6c416464726573733a20494e56414c49445f544f4b454e5f4f52444552604482015290519081900360640190fd5b50805160208083015160409384015184516001600160a01b0394851681850152939091168385015262ffffff166060808401919091528351808403820181526080840185528051908301206001600160f81b031960a085015294901b6bffffffffffffffffffffffff191660a183015260b58201939093527feee17a48e7dd4fffcce4d79bb50f4f19fb4f3c03d3d7dacd6723eb17b1aef54560d5808301919091528251808303909101815260f5909101909152805191012090565b4690565b60606000610a04836395d89b4160e01b610a29565b9050805160001415610a2157610a1983610c51565b915050610a24565b90505b919050565b60408051600481526024810182526020810180516001600160e01b03166001600160e01b031985161781529151815160609360009384936001600160a01b03891693919290918291908083835b60208310610a955780518252601f199092019160209182019101610a76565b6001836020036101000a038019825116818451168082178552505050505050905001915050600060405180830381855afa9150503d8060008114610af5576040519150601f19603f3d011682016040523d82523d6000602084013e610afa565b606091505b5091509150811580610b0b57508051155b15610b29576040518060200160405280600081525092505050610277565b805160201415610b61576000818060200190516020811015610b4a57600080fd5b50519050610b5781610c5e565b9350505050610277565b604081511115610c3957808060200190516020811015610b8057600080fd5b8101908080516040519392919084640100000000821115610ba057600080fd5b908301906020820185811115610bb557600080fd5b8251640100000000811182820188101715610bcf57600080fd5b82525081516020918201929091019080838360005b83811015610bfc578181015183820152602001610be4565b50505050905090810190601f168015610c295780820380516001836020036101000a031916815260200191505b5060405250505092505050610277565b50506040805160208101909152600081529392505050565b6060610a21826006610d86565b604080516020808252818301909252606091600091906020820181803683370190505090506000805b6020811015610ce8576000858260208110610c9e57fe5b1a60f81b90506001600160f81b0319811615610cdf5780848481518110610cc157fe5b60200101906001600160f81b031916908160001a9053506001909201915b50600101610c87565b5060008167ffffffffffffffff81118015610d0257600080fd5b506040519080825280601f01601f191660200182016040528015610d2d576020820181803683370190505b50905060005b82811015610d7d57838181518110610d4757fe5b602001015160f81c60f81b828281518110610d5e57fe5b60200101906001600160f81b031916908160001a905350600101610d33565b50949350505050565b606060028206158015610d995750600082115b8015610da6575060288211155b610df7576040805162461bcd60e51b815260206004820152601e60248201527f41646472657373537472696e675574696c3a20494e56414c49445f4c454e0000604482015290519081900360640190fd5b60008267ffffffffffffffff81118015610e1057600080fd5b506040519080825280601f01601f191660200182016040528015610e3b576020820181803683370190505b5090506001600160a01b03841660005b60028504811015610edf57600860138290030282901c600f600482901c1660f082168203610e7882610ee9565b868560020281518110610e8757fe5b60200101906001600160f81b031916908160001a905350610ea781610ee9565b868560020260010181518110610eb957fe5b60200101906001600160f81b031916908160001a9053505060019092019150610e4b9050565b5090949350505050565b6000600a8260ff161015610f0457506030810160f81b610a24565b506037810160f81b610a24565b8051610a248161142a565b8051600281900b8114610a2457600080fd5b80516fffffffffffffffffffffffffffffffff81168114610a2457600080fd5b805161ffff81168114610a2457600080fd5b805162ffffff81168114610a2457600080fd5b805160ff81168114610a2457600080fd5b600060208284031215610f95578081fd5b8151610fa08161142a565b9392505050565b600080600060608486031215610fbb578182fd5b8335610fc68161142a565b92506020840135610fd68161142a565b929592945050506040919091013590565b60008060408385031215610ff9578182fd5b82356110048161142a565b946020939093013593505050565b600060208284031215611023578081fd5b610fa082610f1c565b60006020828403121561103d578081fd5b815167ffffffffffffffff80821115611054578283fd5b818401915084601f830112611067578283fd5b81518181111561107357fe5b604051601f8201601f19168101602001838111828210171561109157fe5b6040528181528382016020018710156110a8578485fd5b6110b98260208301602087016113fa565b9695505050505050565b600080600080600080600060e0888a0312156110dd578283fd5b87516110e88161142a565b96506110f660208901610f1c565b955061110460408901610f4e565b945061111260608901610f4e565b935061112060808901610f4e565b925061112e60a08901610f73565b915060c08801518015158114611142578182fd5b8091505092959891949750929550565b600060208284031215611163578081fd5b610fa082610f73565b6000806000806000806000806000806000806101808d8f03121561118e578485fd5b8c516bffffffffffffffffffffffff811681146111a9578586fd5b9b506111b760208e01610f11565b9a506111c560408e01610f11565b99506111d360608e01610f11565b98506111e160808e01610f60565b97506111ef60a08e01610f1c565b96506111fd60c08e01610f1c565b955061120b60e08e01610f2e565b94506101008d015193506101208d0151925061122a6101408e01610f2e565b91506112396101608e01610f2e565b90509295989b509295989b509295989b565b6001600160a01b03169052565b15159052565b60020b9052565b6000815180845261127d8160208601602086016113fa565b601f01601f19169290920160200192915050565b62ffffff169052565b60ff169052565b6001600160a01b0391909116815260200190565b901515815260200190565b90815260200190565b600060208252610fa06020830184611265565b6000602082528251602083015260208301516112fb604084018261124b565b50604083015161130e606084018261124b565b5060608301516101c080608085015261132b6101e0850183611265565b91506080850151601f198584030160a08601526113488382611265565b92505060a085015161135d60c086018261129a565b5060c085015161137060e086018261129a565b5060e085015161010061138581870183611258565b86015190506101206113998682018361125e565b86015190506101406113ad8682018361125e565b86015190506101606113c18682018361125e565b86015190506101806113d58682018361125e565b86015190506101a06113e986820183611291565b8601519050610edf8583018261124b565b60005b838110156114155781810151838201526020016113fd565b83811115611424576000848401525b50505050565b6001600160a01b038116811461143f57600080fd5b5056fea164736f6c6343000706000a",
  "deployedBytecode": "0x608060405234801561001057600080fd5b50600436106100625760003560e01c80634aa4a4fc146100675780637e5af771146100855780639d7b0ea8146100a5578063a18246e2146100c5578063b7af3cdc146100cd578063e9dc6375146100e2575b600080fd5b61006f6100f5565b60405161007c91906112a1565b60405180910390f35b610098610093366004610fa7565b610119565b60405161007c91906112b5565b6100b86100b3366004610fe7565b610138565b60405161007c91906112c0565b6100b861027d565b6100d56102a1565b60405161007c91906112c9565b6100d56100f0366004610fe7565b6103af565b7f000000000000000000000000000000000000000000000000000000000000000081565b60006101258383610138565b61012f8584610138565b13949350505050565b60007f00000000000000000000000000000000000000000000000000000000000000006001600160a01b0316836001600160a01b0316141561017d5750606319610277565b8160011415610273576001600160a01b03831673a0b86991c6218b36c1d19d4a2e9eb0ce3606eb4814156101b4575061012c610277565b6001600160a01b03831673dac17f958d2ee523a2206206994597c13d831ec714156101e1575060c8610277565b6001600160a01b038316736b175474e89094c44da98b954eedeac495271d0f141561020e57506064610277565b6001600160a01b038316738daebade922df735c38c80c7ebd708af50815faa141561023c575060c719610277565b6001600160a01b038316732260fac5e5542a773aa44fbcfedf7c193bc2c599141561026b575061012b19610277565b506000610277565b5060005b92915050565b7f000000000000000000000000000000000000000000000000000000000000000081565b606060005b6020811080156102ee57507f000000000000000000000000000000000000000000000000000000000000000081602081106102dd57fe5b1a60f81b6001600160f81b03191615155b156102fb576001016102a6565b60008167ffffffffffffffff8111801561031457600080fd5b506040519080825280601f01601f19166020018201604052801561033f576020820181803683370190505b50905060005b828110156103a8577f0000000000000000000000000000000000000000000000000000000000000000816020811061037957fe5b1a60f81b82828151811061038957fe5b60200101906001600160f81b031916908160001a905350600101610345565b5091505090565b60606000806000806000876001600160a01b03166399fbab88886040518263ffffffff1660e01b81526004016103e591906112c0565b6101806040518083038186803b1580156103fe57600080fd5b505afa158015610412573d6000803e3d6000fd5b505050506040513d601f19601f82011682018060405250810190610436919061116c565b505050505096509650965096509650505060006104f4896001600160a01b031663c45a01556040518163ffffffff1660e01b815260040160206040518083038186803b15801561048557600080fd5b505afa158015610499573d6000803e3d6000fd5b505050506040513d601f19601f820116820180604052508101906104bd9190610f84565b6040518060600160405280896001600160a01b03168152602001886001600160a01b031681526020018762ffffff168152506108bf565b9050600061050587876100936109eb565b9050600081156105155787610517565b865b9050600082156105275787610529565b885b90506000846001600160a01b0316633850c7bd6040518163ffffffff1660e01b815260040160e06040518083038186803b15801561056657600080fd5b505afa15801561057a573d6000803e3d6000fd5b505050506040513d601f19601f8201168201806040525081019061059e91906110c3565b505050505091505073__$cf33bcd882d89b902d2100256758b43673$__63c49917d7604051806101c001604052808f8152602001866001600160a01b03168152602001856001600160a01b031681526020017f00000000000000000000000000000000000000000000000000000000000000006001600160a01b0316876001600160a01b03161461063757610632876109ef565b61063f565b61063f6102a1565b81526020017f00000000000000000000000000000000000000000000000000000000000000006001600160a01b0316866001600160a01b03161461068b57610686866109ef565b610693565b6106936102a1565b8152602001866001600160a01b031663313ce5676040518163ffffffff1660e01b815260040160206040518083038186803b1580156106d157600080fd5b505afa1580156106e5573d6000803e3d6000fd5b505050506040513d601f19601f820116820180604052508101906107099190611152565b60ff168152602001856001600160a01b031663313ce5676040518163ffffffff1660e01b815260040160206040518083038186803b15801561074a57600080fd5b505afa15801561075e573d6000803e3d6000fd5b505050506040513d601f19601f820116820180604052508101906107829190611152565b60ff16815260200187151581526020018a60020b81526020018960020b81526020018460020b8152602001886001600160a01b031663d0c93a7c6040518163ffffffff1660e01b815260040160206040518083038186803b1580156107e657600080fd5b505afa1580156107fa573d6000803e3d6000fd5b505050506040513d601f19601f8201168201806040525081019061081e9190611012565b60020b81526020018b62ffffff168152602001886001600160a01b03168152506040518263ffffffff1660e01b815260040161085a91906112dc565b60006040518083038186803b15801561087257600080fd5b505af4158015610886573d6000803e3d6000fd5b505050506040513d6000823e601f3d908101601f191682016040526108ae919081019061102c565b9d9c50505050505050505050505050565b600081602001516001600160a01b031682600001516001600160a01b03161061092f576040805162461bcd60e51b815260206004820181905260248201527f506f6f6c416464726573733a20494e56414c49445f544f4b454e5f4f52444552604482015290519081900360640190fd5b50805160208083015160409384015184516001600160a01b0394851681850152939091168385015262ffffff166060808401919091528351808403820181526080840185528051908301206001600160f81b031960a085015294901b6bffffffffffffffffffffffff191660a183015260b58201939093527feee17a48e7dd4fffcce4d79bb50f4f19fb4f3c03d3d7dacd6723eb17b1aef54560d5808301919091528251808303909101815260f5909101909152805191012090565b4690565b60606000610a04836395d89b4160e01b610a29565b9050805160001415610a2157610a1983610c51565b915050610a24565b90505b919050565b60408051600481526024810182526020810180516001600160e01b03166001600160e01b031985161781529151815160609360009384936001600160a01b03891693919290918291908083835b60208310610a955780518252601f199092019160209182019101610a76565b6001836020036101000a038019825116818451168082178552505050505050905001915050600060405180830381855afa9150503d8060008114610af5576040519150601f19603f3d011682016040523d82523d6000602084013e610afa565b606091505b5091509150811580610b0b57508051155b15610b29576040518060200160405280600081525092505050610277565b805160201415610b61576000818060200190516020811015610b4a57600080fd5b50519050610b5781610c5e565b9350505050610277565b604081511115610c3957808060200190516020811015610b8057600080fd5b8101908080516040519392919084640100000000821115610ba057600080fd5b908301906020820185811115610bb557600080fd5b8251640100000000811182820188101715610bcf57600080fd5b82525081516020918201929091019080838360005b83811015610bfc578181015183820152602001610be4565b50505050905090810190601f168015610c295780820380516001836020036101000a031916815260200191505b5060405250505092505050610277565b50506040805160208101909152600081529392505050565b6060610a21826006610d86565b604080516020808252818301909252606091600091906020820181803683370190505090506000805b6020811015610ce8576000858260208110610c9e57fe5b1a60f81b90506001600160f81b0319811615610cdf5780848481518110610cc157fe5b60200101906001600160f81b031916908160001a9053506001909201915b50600101610c87565b5060008167ffffffffffffffff81118015610d0257600080fd5b506040519080825280601f01601f191660200182016040528015610d2d576020820181803683370190505b50905060005b82811015610d7d57838181518110610d4757fe5b602001015160f81c60f81b828281518110610d5e57fe5b60200101906001600160f81b031916908160001a905350600101610d33565b50949350505050565b606060028206158015610d995750600082115b8015610da6575060288211155b610df7576040805162461bcd60e51b815260206004820152601e60248201527f41646472657373537472696e675574696c3a20494e56414c49445f4c454e0000604482015290519081900360640190fd5b60008267ffffffffffffffff81118015610e1057600080fd5b506040519080825280601f01601f191660200182016040528015610e3b576020820181803683370190505b5090506001600160a01b03841660005b60028504811015610edf57600860138290030282901c600f600482901c1660f082168203610e7882610ee9565b868560020281518110610e8757fe5b60200101906001600160f81b031916908160001a905350610ea781610ee9565b868560020260010181518110610eb957fe5b60200101906001600160f81b031916908160001a9053505060019092019150610e4b9050565b5090949350505050565b6000600a8260ff161015610f0457506030810160f81b610a24565b506037810160f81b610a24565b8051610a248161142a565b8051600281900b8114610a2457600080fd5b80516fffffffffffffffffffffffffffffffff81168114610a2457600080fd5b805161ffff81168114610a2457600080fd5b805162ffffff81168114610a2457600080fd5b805160ff81168114610a2457600080fd5b600060208284031215610f95578081fd5b8151610fa08161142a565b9392505050565b600080600060608486031215610fbb578182fd5b8335610fc68161142a565b92506020840135610fd68161142a565b929592945050506040919091013590565b60008060408385031215610ff9578182fd5b82356110048161142a565b946020939093013593505050565b600060208284031215611023578081fd5b610fa082610f1c565b60006020828403121561103d578081fd5b815167ffffffffffffffff80821115611054578283fd5b818401915084601f830112611067578283fd5b81518181111561107357fe5b604051601f8201601f19168101602001838111828210171561109157fe5b6040528181528382016020018710156110a8578485fd5b6110b98260208301602087016113fa565b9695505050505050565b600080600080600080600060e0888a0312156110dd578283fd5b87516110e88161142a565b96506110f660208901610f1c565b955061110460408901610f4e565b945061111260608901610f4e565b935061112060808901610f4e565b925061112e60a08901610f73565b915060c08801518015158114611142578182fd5b8091505092959891949750929550565b600060208284031215611163578081fd5b610fa082610f73565b6000806000806000806000806000806000806101808d8f03121561118e578485fd5b8c516bffffffffffffffffffffffff811681146111a9578586fd5b9b506111b760208e01610f11565b9a506111c560408e01610f11565b99506111d360608e01610f11565b98506111e160808e01610f60565b97506111ef60a08e01610f1c565b96506111fd60c08e01610f1c565b955061120b60e08e01610f2e565b94506101008d015193506101208d0151925061122a6101408e01610f2e565b91506112396101608e01610f2e565b90509295989b509295989b509295989b565b6001600160a01b03169052565b15159052565b60020b9052565b6000815180845261127d8160208601602086016113fa565b601f01601f19169290920160200192915050565b62ffffff169052565b60ff169052565b6001600160a01b0391909116815260200190565b901515815260200190565b90815260200190565b600060208252610fa06020830184611265565b6000602082528251602083015260208301516112fb604084018261124b565b50604083015161130e606084018261124b565b5060608301516101c080608085015261132b6101e0850183611265565b91506080850151601f198584030160a08601526113488382611265565b92505060a085015161135d60c086018261129a565b5060c085015161137060e086018261129a565b5060e085015161010061138581870183611258565b86015190506101206113998682018361125e565b86015190506101406113ad8682018361125e565b86015190506101606113c18682018361125e565b86015190506101806113d58682018361125e565b86015190506101a06113e986820183611291565b8601519050610edf8583018261124b565b60005b838110156114155781810151838201526020016113fd565b83811115611424576000848401525b50505050565b6001600160a01b038116811461143f57600080fd5b5056fea164736f6c6343000706000a",
  "libraries": {
    "NFTDescriptor": "0xe28Da764da925043D2F35d2438C2328fba264135"
  },
  "devdoc": {
    "kind": "dev",
    "methods": {
      "tokenURI(address,uint256)": {
        "details": "Note this URI may be a data: URI with the JSON contents directly inlined",
        "params": {
          "positionManager": "The position manager for which to describe the token",
          "tokenId": "The ID of the token for which to produce a description, which may not be valid"
        },
        "returns": {
          "_0": "The URI of the ERC721-compliant metadata"
        }
      }
    },
    "stateVariables": {
      "nativeCurrencyLabelBytes": {
        "details": "A null-terminated string"
      }
    },
    "title": "Describes NFT token positions",
    "version": 1
  },
  "userdoc": {
    "kind": "user",
    "methods": {
      "nativeCurrencyLabel()": {
        "notice": "Returns the native currency label as a string"
      },
      "tokenURI(address,uint256)": {
        "notice": "Produces the URI describing a particular token ID for a position manager"
      }
    },
    "notice": "Produces a string containing the data URI for a JSON metadata string",
    "version": 1
  },
  "storageLayout": {
    "storage": [],
    "types": null
  }
}