{
  "address": "0x11ACc1dC176210C8Ee3bae6f431c5A1cdDcE6d09",
  "abi": [
    {
      "inputs": [
        {
          "internalType": "contract IPoolAddressesProvider",
          "name": "addressesProvider",
          "type": "address"
        },
        {
          "internalType": "address",
          "name": "pool",
          "type": "address"
        },
        {
          "internalType": "contract IOdosRouterV2",
          "name": "_swapRouter",
          "type": "address"
        },
        {
          "internalType": "address",
          "name": "owner",
          "type": "address"
        }
      ],
      "stateMutability": "nonpayable",
      "type": "constructor"
    },
    {
      "inputs": [
        {
          "internalType": "address",
          "name": "caller",
          "type": "address"
        },
        {
          "internalType": "address",
          "name": "pool",
          "type": "address"
        }
      ],
      "name": "CallerMustBePool",
      "type": "error"
    },
    {
      "inputs": [
        {
          "internalType": "address",
          "name": "initiator",
          "type": "address"
        },
        {
          "internalType": "address",
          "name": "expectedInitiator",
          "type": "address"
        }
      ],
      "name": "InitiatorMustBeThis",
      "type": "error"
    },
    {
      "inputs": [
        {
          "internalType": "uint256",
          "name": "amountReceived",
          "type": "uint256"
        },
        {
          "internalType": "uint256",
          "name": "amountToRepay",
          "type": "uint256"
        }
      ],
      "name": "InsufficientAmountToRepay",
      "type": "error"
    },
    {
      "inputs": [
        {
          "internalType": "uint256",
          "name": "balance",
          "type": "uint256"
        },
        {
          "internalType": "uint256",
          "name": "required",
          "type": "uint256"
        }
      ],
      "name": "InsufficientBalanceBeforeSwap",
      "type": "error"
    },
    {
      "inputs": [
        {
          "internalType": "uint256",
          "name": "expected",
          "type": "uint256"
        },
        {
          "internalType": "uint256",
          "name": "actual",
          "type": "uint256"
        }
      ],
      "name": "InsufficientOutput",
      "type": "error"
    },
    {
      "inputs": [
        {
          "internalType": "uint256",
          "name": "actual",
          "type": "uint256"
        },
        {
          "internalType": "uint256",
          "name": "expected",
          "type": "uint256"
        }
      ],
      "name": "InsufficientOutputAmount",
      "type": "error"
    },
    {
      "inputs": [],
      "name": "SwapFailed",
      "type": "error"
    },
    {
      "anonymous": false,
      "inputs": [
        {
          "indexed": true,
          "internalType": "address",
          "name": "tokenIn",
          "type": "address"
        },
        {
          "indexed": true,
          "internalType": "address",
          "name": "tokenOut",
          "type": "address"
        },
        {
          "indexed": false,
          "internalType": "uint256",
          "name": "amountIn",
          "type": "uint256"
        },
        {
          "indexed": false,
          "internalType": "uint256",
          "name": "amountOut",
          "type": "uint256"
        }
      ],
      "name": "Bought",
      "type": "event"
    },
    {
      "anonymous": false,
      "inputs": [
        {
          "indexed": true,
          "internalType": "address",
          "name": "previousOwner",
          "type": "address"
        },
        {
          "indexed": true,
          "internalType": "address",
          "name": "newOwner",
          "type": "address"
        }
      ],
      "name": "OwnershipTransferred",
      "type": "event"
    },
    {
      "inputs": [],
      "name": "ADDRESSES_PROVIDER",
      "outputs": [
        {
          "internalType": "contract IPoolAddressesProvider",
          "name": "",
          "type": "address"
        }
      ],
      "stateMutability": "view",
      "type": "function"
    },
    {
      "inputs": [],
      "name": "POOL",
      "outputs": [
        {
          "internalType": "contract IPool",
          "name": "",
          "type": "address"
        }
      ],
      "stateMutability": "view",
      "type": "function"
    },
    {
      "inputs": [],
      "name": "owner",
      "outputs": [
        {
          "internalType": "address",
          "name": "",
          "type": "address"
        }
      ],
      "stateMutability": "view",
      "type": "function"
    },
    {
      "inputs": [],
      "name": "renounceOwnership",
      "outputs": [],
      "stateMutability": "nonpayable",
      "type": "function"
    },
    {
      "inputs": [
        {
          "internalType": "contract IERC20",
          "name": "token",
          "type": "address"
        }
      ],
      "name": "rescueTokens",
      "outputs": [],
      "stateMutability": "nonpayable",
      "type": "function"
    },
    {
      "inputs": [
        {
          "components": [
            {
              "internalType": "address",
              "name": "collateralAsset",
              "type": "address"
            },
            {
              "internalType": "uint256",
              "name": "collateralAmount",
              "type": "uint256"
            },
            {
              "internalType": "address",
              "name": "debtAsset",
              "type": "address"
            },
            {
              "internalType": "uint256",
              "name": "repayAmount",
              "type": "uint256"
            },
            {
              "internalType": "uint256",
              "name": "rateMode",
              "type": "uint256"
            },
            {
              "internalType": "address",
              "name": "user",
              "type": "address"
            },
            {
              "internalType": "uint256",
              "name": "minAmountToReceive",
              "type": "uint256"
            },
            {
              "internalType": "bytes",
              "name": "swapData",
              "type": "bytes"
            }
          ],
          "internalType": "struct IOdosRepayAdapter.RepayParams",
          "name": "repayParams",
          "type": "tuple"
        },
        {
          "components": [
            {
              "internalType": "contract IERC20WithPermit",
              "name": "aToken",
              "type": "address"
            },
            {
              "internalType": "uint256",
              "name": "value",
              "type": "uint256"
            },
            {
              "internalType": "uint256",
              "name": "deadline",
              "type": "uint256"
            },
            {
              "internalType": "uint8",
              "name": "v",
              "type": "uint8"
            },
            {
              "internalType": "bytes32",
              "name": "r",
              "type": "bytes32"
            },
            {
              "internalType": "bytes32",
              "name": "s",
              "type": "bytes32"
            }
          ],
          "internalType": "struct IBaseOdosAdapter.PermitInput",
          "name": "permitInput",
          "type": "tuple"
        }
      ],
      "name": "swapAndRepay",
      "outputs": [
        {
          "internalType": "uint256",
          "name": "",
          "type": "uint256"
        }
      ],
      "stateMutability": "nonpayable",
      "type": "function"
    },
    {
      "inputs": [],
      "name": "swapRouter",
      "outputs": [
        {
          "internalType": "contract IOdosRouterV2",
          "name": "",
          "type": "address"
        }
      ],
      "stateMutability": "view",
      "type": "function"
    },
    {
      "inputs": [
        {
          "internalType": "address",
          "name": "newOwner",
          "type": "address"
        }
      ],
      "name": "transferOwnership",
      "outputs": [],
      "stateMutability": "nonpayable",
      "type": "function"
    }
  ],
  "transactionHash": "0x469a59eb52614c90b0d6766f4363ed671718e429d73d4bf7a46770d83f7ffdf6",
  "args": [
    "0xC691F14942B37668C9904b701E3118A133611b3c",
    "0xa7e750C73DE7d19f06D956d704A39fdDfE99D9ea",
    "0x56c85a254DD12eE8D9C04049a4ab62769Ce98210",
    "0x53Ae1433Ab4563d7D5a84d27524784837259f105"
  ],
  "numDeployments": 1,
  "solcInputHash": "d03405c49e1ed8c1fc116b66d62a3b71",
  "bytecode": "0x60e03461017457601f6114a538819003918201601f19168301916001600160401b0383118484101761017957808492608094604052833981010312610174578051906001600160a01b0380831683036101745761005e6020830161018f565b6040830151928284168403610174576060610079910161018f565b9160018060a01b0319926000948285875416947f8be0079c531659141344cd1fd0a4f28419497f9722a3daafe3b4186f6b6457e09833898b8180a36080521660a05260c0521691821561012057826040519533908680a333161717905561130190816101a482396080518161017a015260a05181818161021c0152818161097b01528181610c4101528181610df9015261103e015260c05181818161050f0152610aba0152f35b60405162461bcd60e51b815260206004820152602660248201527f4f776e61626c653a206e6577206f776e657220697320746865207a65726f206160448201526564647265737360d01b6064820152608490fd5b600080fd5b634e487b7160e01b600052604160045260246000fd5b51906001600160a01b03821682036101745756fe6080604052600436101561001257600080fd5b6000803560e01c908162ae3bf814610099575080630542975c14610094578063715018a61461008f5780637535d2461461008a5780638b5a6322146100855780638da5cb5b14610080578063c31c9c071461007b5763f2fde38b1461007657600080fd5b61053e565b6104f9565b6104d0565b6103f3565b610206565b6101a9565b610164565b346101405760203660031901126101405760246004356100b881610143565b82546001600160a01b03908116906020906100d433841461061f565b6040516370a0823160e01b8152306004820152948591829086165afa91821561013b5761010893859361010b575b50610685565b80f35b61012d91935060203d8111610134575b61012581836102b2565b81019061066a565b9185610102565b503d61011b565b610679565b80fd5b6001600160a01b0381160361015457565b600080fd5b600091031261015457565b34610154576000366003190112610154576040517f00000000000000000000000000000000000000000000000000000000000000006001600160a01b03168152602090f35b3461015457600080600319360112610140578054816001600160a01b0382166101d333821461061f565b7f8be0079c531659141344cd1fd0a4f28419497f9722a3daafe3b4186f6b6457e08280a36001600160a01b031916815580f35b34610154576000366003190112610154576040517f00000000000000000000000000000000000000000000000000000000000000006001600160a01b03168152602090f35b634e487b7160e01b600052604160045260246000fd5b67ffffffffffffffff811161027557604052565b61024b565b6040810190811067ffffffffffffffff82111761027557604052565b6080810190811067ffffffffffffffff82111761027557604052565b90601f8019910116810190811067ffffffffffffffff82111761027557604052565b60405190610100820182811067ffffffffffffffff82111761027557604052565b604051906101e0820182811067ffffffffffffffff82111761027557604052565b359061032182610143565b565b67ffffffffffffffff811161027557601f01601f191660200190565b81601f820112156101545780359061035682610323565b9261036460405194856102b2565b8284526020838301011161015457816000926020809301838601378301015290565b60c0906023190112610154576040519060c0820182811067ffffffffffffffff82111761027557604052816024356103bd81610143565b81526044356020820152606435604082015260843560ff8116810361015457606082015260a435608082015260a060c435910152565b346101545760031960e0368201126101545760043567ffffffffffffffff91828211610154576101009082360301126101545761042e6102d4565b61043a82600401610316565b81526024820135602082015261045260448301610316565b6040820152606482013560608201526084820135608082015261047760a48301610316565b60a082015260c482013560c082015260e4820135928311610154576104a86104bc9260046104cc953692010161033f565b60e08201526104b636610386565b906108bd565b6040519081529081906020820190565b0390f35b34610154576000366003190112610154576000546040516001600160a01b039091168152602090f35b34610154576000366003190112610154576040517f00000000000000000000000000000000000000000000000000000000000000006001600160a01b03168152602090f35b346101545760203660031901126101545760043561055b81610143565b6000546001600160a01b03908116919061057633841461061f565b811680156105cb576105c9927f8be0079c531659141344cd1fd0a4f28419497f9722a3daafe3b4186f6b6457e0600080a360018060a01b03166bffffffffffffffffffffffff60a01b6000541617600055565b005b60405162461bcd60e51b815260206004820152602660248201527f4f776e61626c653a206e6577206f776e657220697320746865207a65726f206160448201526564647265737360d01b6064820152608490fd5b1561062657565b606460405162461bcd60e51b815260206004820152602060248201527f4f776e61626c653a2063616c6c6572206973206e6f7420746865206f776e65726044820152fd5b90816020910312610154575190565b6040513d6000823e3d90fd5b60405163a9059cbb60e01b60208201526001600160a01b03929092166024830152604480830193909352918152610321916106c16064836102b2565b61073d565b90816020910312610154575180151581036101545790565b156106e557565b60405162461bcd60e51b815260206004820152602a60248201527f5361666545524332303a204552433230206f7065726174696f6e20646964206e6044820152691bdd081cdd58d8d9595960b21b6064820152608490fd5b6040516001600160a01b0391909116916107568261027a565b6020928383527f5361666545524332303a206c6f772d6c6576656c2063616c6c206661696c656484840152803b156107cd57600082819282876107a89796519301915af16107a2610812565b90610842565b805190816107b557505050565b82610321936107c89383010191016106c6565b6106de565b60405162461bcd60e51b815260048101859052601d60248201527f416464726573733a2063616c6c20746f206e6f6e2d636f6e74726163740000006044820152606490fd5b3d1561083d573d9061082382610323565b9161083160405193846102b2565b82523d6000602084013e565b606090565b9091901561084e575090565b81511561085e5750805190602001fd5b6040519062461bcd60e51b82528160208060048301528251908160248401526000935b8285106108a4575050604492506000838284010152601f80199101168101030190fd5b8481018201518686016044015293810193859350610881565b80516001600160a01b031660408201519092906001600160a01b03166108ea602092838501513387610b65565b60c084015160e08501516001600160a01b03968488169693610910939188908a16610a48565b94606082018051808810610a2757509084929161092d8886610ddc565b51608083015160a09093015160405163573ade8160e01b81526001600160a01b03968716600482015260248101929092526044820193909352939091166064840152829060849082906000907f0000000000000000000000000000000000000000000000000000000000000000165af1801561013b57610a0a575b506040516370a0823160e01b81523060048201528181602481865afa91821561013b576000926109ed575b5050806109df57505090565b6109ea913390610685565b90565b610a039250803d106101345761012581836102b2565b38806109d3565b610a2090823d84116101345761012581836102b2565b50386109a8565b6040516338135d1760e11b8152600481018990526024810191909152604490fd5b6040516370a0823160e01b815230600482015291959492936001600160a01b03918216939192602081602481885afa90811561013b57600091610b24575b50858110610b0357507fbf77fd13a39d14dc0da779342c14105c38d9a5d0c60f2caa22f5fd1d5525416d9291610ade9186867f00000000000000000000000000000000000000000000000000000000000000006111e9565b95610afe8760405193849316968360209093929193604081019481520152565b0390a3565b60405163b6554a4960e01b8152600481019190915260248101869052604490fd5b610b3c915060203d81116101345761012581836102b2565b38610a86565b91908203918211610b4f57565b634e487b7160e01b600052601160045260246000fd5b92604081015180610cce575b5050610b7c83611010565b6040516370a0823160e01b8082523060048301526020966001600160a01b0393841696955092935090918683602481895afa94851561013b578793600096610ca9575b5090610bcd91309088610d83565b60405190815230600482015293849060249082905afa90811561013b57610c038593610c3d936000968791610c8c575b50610b42565b604051631a4ca37b60e21b81526001600160a01b039097166004880152602487018190523060448801529593849283919082906064820190565b03927f0000000000000000000000000000000000000000000000000000000000000000165af1801561013b57610c7257505090565b81610c8892903d106101345761012581836102b2565b5090565b610ca39150863d88116101345761012581836102b2565b38610bfd565b610bcd92919650610cc690853d87116101345761012581836102b2565b959091610bbf565b81516001600160a01b031690602083015191610cee606085015160ff1690565b9160a06080860151950151823b156101545760405163d505accf60e01b81526001600160a01b03881660048201523060248201526044810195909552606485019190915260ff92909216608484015260a483019390935260c482015290600090829060e490829084905af1801561013b57610d6a575b80610b71565b80610d77610d7d92610261565b80610159565b38610d64565b6040516323b872dd60e01b60208201526001600160a01b03928316602482015292909116604483015260648083019390935291815260a081019181831067ffffffffffffffff841117610275576103219260405261073d565b604051636eb1769f60e11b81523060048201526001600160a01b037f000000000000000000000000000000000000000000000000000000000000000081166024830181905292169290602081604481875afa90811561013b57600091610e83575b5010610e47575050565b61032191610e7e60405163095ea7b360e01b60208201528360248201526000604482015260448152610e7881610296565b8261073d565b610ea1565b610e9b915060203d81116101345761012581836102b2565b38610e3d565b604051636eb1769f60e11b81523060048201526001600160a01b0383811660248301529291906020816044818588165afa90811561013b57600091610f7a575b50610f1657610321926040519263095ea7b360e01b60208501521660248301526000196044830152604482526106c182610296565b60405162461bcd60e51b815260206004820152603660248201527f5361666545524332303a20617070726f76652066726f6d206e6f6e2d7a65726f60448201527520746f206e6f6e2d7a65726f20616c6c6f77616e636560501b6064820152608490fd5b610f92915060203d81116101345761012581836102b2565b38610ee1565b9190826020910312610154576040516020810181811067ffffffffffffffff8211176102755760405291518252565b51906fffffffffffffffffffffffffffffffff8216820361015457565b519064ffffffffff8216820361015457565b519061ffff8216820361015457565b519061032182610143565b6040516335ea6a7560e01b81526001600160a01b03918216600482015291906101e0908190849060249082907f0000000000000000000000000000000000000000000000000000000000000000165afa92831561013b576000936110af575b50506101408201516001600160a01b03166101208301519091906110a990610100906001600160a01b03169401516001600160a01b031690565b91929190565b909192823d84116111e2575b6110c581846102b2565b8201928284031261014057506110e36110dc6102f5565b9282610f98565b82526110f160208201610fc7565b602083015261110260408201610fc7565b604083015261111360608201610fc7565b606083015261112460808201610fc7565b608083015261113560a08201610fc7565b60a083015261114660c08201610fe4565b60c083015261115760e08201610ff6565b60e083015261010061116a818301611005565b9083015261012061117c818301611005565b9083015261014061118e818301611005565b908301526101606111a0818301611005565b908301526101806111b2818301610fc7565b908301526101a06111c4818301610fc7565b908301526111d66101c0809201610fc7565b9082015290388061106f565b503d6110bb565b60405163095ea7b360e01b81526001600160a01b03918216600482018190526024820194909452939460209493929091859185916044918391600091165af191821561013b57600093849361129e575b50828583519301915af161124b610812565b90156112815701519080821061125f575090565b604051630583371760e31b815260048101919091526024810191909152604490fd5b8051918261129b5760405163081ceff360e41b8152600490fd5b01fd5b6112bd90863d88116112c4575b6112b581836102b2565b8101906106c6565b5038611239565b503d6112ab56fea2646970667358221220b58ee1db3ddbc08646f7a8f0e68287277e2e1bfd885c0906dc278a8e9739d58464736f6c63430008140033",
  "devdoc": {
    "errors": {
      "CallerMustBePool(address,address)": [
        {
          "details": "Thrown when the caller is not the pool",
          "params": {
            "caller": "The actual caller",
            "pool": "The expected pool"
          }
        }
      ],
      "InitiatorMustBeThis(address,address)": [
        {
          "details": "Thrown when the initiator is not the expected initiator",
          "params": {
            "expectedInitiator": "The expected initiator",
            "initiator": "The actual initiator"
          }
        }
      ],
      "InsufficientAmountToRepay(uint256,uint256)": [
        {
          "details": "Custom error for insufficient amount to repay",
          "params": {
            "amountReceived": "The amount received from the swap",
            "amountToRepay": "The amount needed to repay"
          }
        }
      ],
      "InsufficientBalanceBeforeSwap(uint256,uint256)": [
        {
          "details": "Thrown when the balance before swap is insufficient",
          "params": {
            "balance": "The actual balance",
            "required": "The required balance"
          }
        }
      ],
      "InsufficientOutputAmount(uint256,uint256)": [
        {
          "details": "Thrown when the output amount is less than the minimum expected",
          "params": {
            "actual": "The actual output amount",
            "expected": "The minimum expected output amount"
          }
        }
      ]
    },
    "events": {
      "Bought(address,address,uint256,uint256)": {
        "details": "Emitted when a token is bought on Odos",
        "params": {
          "amountIn": "The amount of tokens sold",
          "amountOut": "The amount of tokens bought",
          "tokenIn": "The address of the token sold",
          "tokenOut": "The address of the token bought"
        }
      }
    },
    "kind": "dev",
    "methods": {
      "owner()": {
        "details": "Returns the address of the current owner."
      },
      "renounceOwnership()": {
        "details": "Leaves the contract without owner. It will not be possible to call `onlyOwner` functions anymore. Can only be called by the current owner. NOTE: Renouncing ownership will leave the contract without an owner, thereby removing any functionality that is only available to the owner."
      },
      "rescueTokens(address)": {
        "details": "Emergency rescue for token stucked on this contract, as failsafe mechanism - Funds should never remain in this contract more time than during transactions - Only callable by the owner"
      },
      "swapAndRepay((address,uint256,address,uint256,uint256,address,uint256,bytes),(address,uint256,uint256,uint8,bytes32,bytes32))": {
        "details": "Swaps collateral for another asset with Odos, and uses that asset to repay a debt.",
        "params": {
          "permitInput": "The parameters of the permit signature, to approve collateral aToken",
          "repayParams": "The parameters of the repay"
        },
        "returns": {
          "_0": "the amount repaid"
        }
      },
      "transferOwnership(address)": {
        "details": "Transfers ownership of the contract to a new account (`newOwner`). Can only be called by the current owner."
      }
    },
    "title": "OdosRepayAdapter",
    "version": 1
  },
  "userdoc": {
    "errors": {
      "InsufficientOutput(uint256,uint256)": [
        {
          "notice": "Custom error when actual output amount is less than expected"
        }
      ],
      "SwapFailed()": [
        {
          "notice": "Custom error for failed swap with no revert reason"
        }
      ]
    },
    "kind": "user",
    "methods": {
      "ADDRESSES_PROVIDER()": {
        "notice": "The address of the Aave PoolAddressesProvider contract"
      },
      "POOL()": {
        "notice": "The address of the Aave Pool contract"
      },
      "swapRouter()": {
        "notice": "The address of the Odos Router"
      }
    },
    "notice": "Implements the logic for repaying a debt using a different asset as source",
    "version": 1
  },
  "storageLayout": {
    "storage": [
      {
        "astId": 6570,
        "contract": "contracts/lending/periphery/adapters/odos/OdosRepayAdapter.sol:OdosRepayAdapter",
        "label": "_owner",
        "offset": 0,
        "slot": "0",
        "type": "t_address"
      }
    ],
    "types": {
      "t_address": {
        "encoding": "inplace",
        "label": "address",
        "numberOfBytes": "20"
      }
    }
  }
}