{
  "address": "0xC952CFBBA956f69Da5aDcb817d9B915C7202a403",
  "abi": [
    {
      "anonymous": false,
      "inputs": [
        {
          "indexed": true,
          "internalType": "address",
          "name": "asset",
          "type": "address"
        },
        {
          "indexed": true,
          "internalType": "address",
          "name": "proxy",
          "type": "address"
        },
        {
          "indexed": true,
          "internalType": "address",
          "name": "implementation",
          "type": "address"
        }
      ],
      "name": "ATokenUpgraded",
      "type": "event"
    },
    {
      "anonymous": false,
      "inputs": [
        {
          "indexed": true,
          "internalType": "address",
          "name": "asset",
          "type": "address"
        },
        {
          "indexed": false,
          "internalType": "uint256",
          "name": "oldBorrowCap",
          "type": "uint256"
        },
        {
          "indexed": false,
          "internalType": "uint256",
          "name": "newBorrowCap",
          "type": "uint256"
        }
      ],
      "name": "BorrowCapChanged",
      "type": "event"
    },
    {
      "anonymous": false,
      "inputs": [
        {
          "indexed": false,
          "internalType": "address",
          "name": "asset",
          "type": "address"
        },
        {
          "indexed": false,
          "internalType": "bool",
          "name": "borrowable",
          "type": "bool"
        }
      ],
      "name": "BorrowableInIsolationChanged",
      "type": "event"
    },
    {
      "anonymous": false,
      "inputs": [
        {
          "indexed": false,
          "internalType": "uint256",
          "name": "oldBridgeProtocolFee",
          "type": "uint256"
        },
        {
          "indexed": false,
          "internalType": "uint256",
          "name": "newBridgeProtocolFee",
          "type": "uint256"
        }
      ],
      "name": "BridgeProtocolFeeUpdated",
      "type": "event"
    },
    {
      "anonymous": false,
      "inputs": [
        {
          "indexed": true,
          "internalType": "address",
          "name": "asset",
          "type": "address"
        },
        {
          "indexed": false,
          "internalType": "uint256",
          "name": "ltv",
          "type": "uint256"
        },
        {
          "indexed": false,
          "internalType": "uint256",
          "name": "liquidationThreshold",
          "type": "uint256"
        },
        {
          "indexed": false,
          "internalType": "uint256",
          "name": "liquidationBonus",
          "type": "uint256"
        }
      ],
      "name": "CollateralConfigurationChanged",
      "type": "event"
    },
    {
      "anonymous": false,
      "inputs": [
        {
          "indexed": true,
          "internalType": "address",
          "name": "asset",
          "type": "address"
        },
        {
          "indexed": false,
          "internalType": "uint256",
          "name": "oldDebtCeiling",
          "type": "uint256"
        },
        {
          "indexed": false,
          "internalType": "uint256",
          "name": "newDebtCeiling",
          "type": "uint256"
        }
      ],
      "name": "DebtCeilingChanged",
      "type": "event"
    },
    {
      "anonymous": false,
      "inputs": [
        {
          "indexed": true,
          "internalType": "address",
          "name": "asset",
          "type": "address"
        },
        {
          "indexed": false,
          "internalType": "uint8",
          "name": "oldCategoryId",
          "type": "uint8"
        },
        {
          "indexed": false,
          "internalType": "uint8",
          "name": "newCategoryId",
          "type": "uint8"
        }
      ],
      "name": "EModeAssetCategoryChanged",
      "type": "event"
    },
    {
      "anonymous": false,
      "inputs": [
        {
          "indexed": true,
          "internalType": "uint8",
          "name": "categoryId",
          "type": "uint8"
        },
        {
          "indexed": false,
          "internalType": "uint256",
          "name": "ltv",
          "type": "uint256"
        },
        {
          "indexed": false,
          "internalType": "uint256",
          "name": "liquidationThreshold",
          "type": "uint256"
        },
        {
          "indexed": false,
          "internalType": "uint256",
          "name": "liquidationBonus",
          "type": "uint256"
        },
        {
          "indexed": false,
          "internalType": "address",
          "name": "oracle",
          "type": "address"
        },
        {
          "indexed": false,
          "internalType": "string",
          "name": "label",
          "type": "string"
        }
      ],
      "name": "EModeCategoryAdded",
      "type": "event"
    },
    {
      "anonymous": false,
      "inputs": [
        {
          "indexed": false,
          "internalType": "uint128",
          "name": "oldFlashloanPremiumToProtocol",
          "type": "uint128"
        },
        {
          "indexed": false,
          "internalType": "uint128",
          "name": "newFlashloanPremiumToProtocol",
          "type": "uint128"
        }
      ],
      "name": "FlashloanPremiumToProtocolUpdated",
      "type": "event"
    },
    {
      "anonymous": false,
      "inputs": [
        {
          "indexed": false,
          "internalType": "uint128",
          "name": "oldFlashloanPremiumTotal",
          "type": "uint128"
        },
        {
          "indexed": false,
          "internalType": "uint128",
          "name": "newFlashloanPremiumTotal",
          "type": "uint128"
        }
      ],
      "name": "FlashloanPremiumTotalUpdated",
      "type": "event"
    },
    {
      "anonymous": false,
      "inputs": [
        {
          "indexed": true,
          "internalType": "address",
          "name": "asset",
          "type": "address"
        },
        {
          "indexed": false,
          "internalType": "uint256",
          "name": "oldFee",
          "type": "uint256"
        },
        {
          "indexed": false,
          "internalType": "uint256",
          "name": "newFee",
          "type": "uint256"
        }
      ],
      "name": "LiquidationProtocolFeeChanged",
      "type": "event"
    },
    {
      "anonymous": false,
      "inputs": [
        {
          "indexed": true,
          "internalType": "address",
          "name": "asset",
          "type": "address"
        },
        {
          "indexed": false,
          "internalType": "bool",
          "name": "active",
          "type": "bool"
        }
      ],
      "name": "ReserveActive",
      "type": "event"
    },
    {
      "anonymous": false,
      "inputs": [
        {
          "indexed": true,
          "internalType": "address",
          "name": "asset",
          "type": "address"
        },
        {
          "indexed": false,
          "internalType": "bool",
          "name": "enabled",
          "type": "bool"
        }
      ],
      "name": "ReserveBorrowing",
      "type": "event"
    },
    {
      "anonymous": false,
      "inputs": [
        {
          "indexed": true,
          "internalType": "address",
          "name": "asset",
          "type": "address"
        }
      ],
      "name": "ReserveDropped",
      "type": "event"
    },
    {
      "anonymous": false,
      "inputs": [
        {
          "indexed": true,
          "internalType": "address",
          "name": "asset",
          "type": "address"
        },
        {
          "indexed": false,
          "internalType": "uint256",
          "name": "oldReserveFactor",
          "type": "uint256"
        },
        {
          "indexed": false,
          "internalType": "uint256",
          "name": "newReserveFactor",
          "type": "uint256"
        }
      ],
      "name": "ReserveFactorChanged",
      "type": "event"
    },
    {
      "anonymous": false,
      "inputs": [
        {
          "indexed": true,
          "internalType": "address",
          "name": "asset",
          "type": "address"
        },
        {
          "indexed": false,
          "internalType": "bool",
          "name": "enabled",
          "type": "bool"
        }
      ],
      "name": "ReserveFlashLoaning",
      "type": "event"
    },
    {
      "anonymous": false,
      "inputs": [
        {
          "indexed": true,
          "internalType": "address",
          "name": "asset",
          "type": "address"
        },
        {
          "indexed": false,
          "internalType": "bool",
          "name": "frozen",
          "type": "bool"
        }
      ],
      "name": "ReserveFrozen",
      "type": "event"
    },
    {
      "anonymous": false,
      "inputs": [
        {
          "indexed": true,
          "internalType": "address",
          "name": "asset",
          "type": "address"
        },
        {
          "indexed": true,
          "internalType": "address",
          "name": "aToken",
          "type": "address"
        },
        {
          "indexed": false,
          "internalType": "address",
          "name": "stableDebtToken",
          "type": "address"
        },
        {
          "indexed": false,
          "internalType": "address",
          "name": "variableDebtToken",
          "type": "address"
        },
        {
          "indexed": false,
          "internalType": "address",
          "name": "interestRateStrategyAddress",
          "type": "address"
        }
      ],
      "name": "ReserveInitialized",
      "type": "event"
    },
    {
      "anonymous": false,
      "inputs": [
        {
          "indexed": true,
          "internalType": "address",
          "name": "asset",
          "type": "address"
        },
        {
          "indexed": false,
          "internalType": "address",
          "name": "oldStrategy",
          "type": "address"
        },
        {
          "indexed": false,
          "internalType": "address",
          "name": "newStrategy",
          "type": "address"
        }
      ],
      "name": "ReserveInterestRateStrategyChanged",
      "type": "event"
    },
    {
      "anonymous": false,
      "inputs": [
        {
          "indexed": true,
          "internalType": "address",
          "name": "asset",
          "type": "address"
        },
        {
          "indexed": false,
          "internalType": "bool",
          "name": "paused",
          "type": "bool"
        }
      ],
      "name": "ReservePaused",
      "type": "event"
    },
    {
      "anonymous": false,
      "inputs": [
        {
          "indexed": true,
          "internalType": "address",
          "name": "asset",
          "type": "address"
        },
        {
          "indexed": false,
          "internalType": "bool",
          "name": "enabled",
          "type": "bool"
        }
      ],
      "name": "ReserveStableRateBorrowing",
      "type": "event"
    },
    {
      "anonymous": false,
      "inputs": [
        {
          "indexed": true,
          "internalType": "address",
          "name": "asset",
          "type": "address"
        },
        {
          "indexed": false,
          "internalType": "bool",
          "name": "oldState",
          "type": "bool"
        },
        {
          "indexed": false,
          "internalType": "bool",
          "name": "newState",
          "type": "bool"
        }
      ],
      "name": "SiloedBorrowingChanged",
      "type": "event"
    },
    {
      "anonymous": false,
      "inputs": [
        {
          "indexed": true,
          "internalType": "address",
          "name": "asset",
          "type": "address"
        },
        {
          "indexed": true,
          "internalType": "address",
          "name": "proxy",
          "type": "address"
        },
        {
          "indexed": true,
          "internalType": "address",
          "name": "implementation",
          "type": "address"
        }
      ],
      "name": "StableDebtTokenUpgraded",
      "type": "event"
    },
    {
      "anonymous": false,
      "inputs": [
        {
          "indexed": true,
          "internalType": "address",
          "name": "asset",
          "type": "address"
        },
        {
          "indexed": false,
          "internalType": "uint256",
          "name": "oldSupplyCap",
          "type": "uint256"
        },
        {
          "indexed": false,
          "internalType": "uint256",
          "name": "newSupplyCap",
          "type": "uint256"
        }
      ],
      "name": "SupplyCapChanged",
      "type": "event"
    },
    {
      "anonymous": false,
      "inputs": [
        {
          "indexed": true,
          "internalType": "address",
          "name": "asset",
          "type": "address"
        },
        {
          "indexed": false,
          "internalType": "uint256",
          "name": "oldUnbackedMintCap",
          "type": "uint256"
        },
        {
          "indexed": false,
          "internalType": "uint256",
          "name": "newUnbackedMintCap",
          "type": "uint256"
        }
      ],
      "name": "UnbackedMintCapChanged",
      "type": "event"
    },
    {
      "anonymous": false,
      "inputs": [
        {
          "indexed": true,
          "internalType": "address",
          "name": "asset",
          "type": "address"
        },
        {
          "indexed": true,
          "internalType": "address",
          "name": "proxy",
          "type": "address"
        },
        {
          "indexed": true,
          "internalType": "address",
          "name": "implementation",
          "type": "address"
        }
      ],
      "name": "VariableDebtTokenUpgraded",
      "type": "event"
    },
    {
      "inputs": [],
      "name": "CONFIGURATOR_REVISION",
      "outputs": [
        {
          "internalType": "uint256",
          "name": "",
          "type": "uint256"
        }
      ],
      "stateMutability": "view",
      "type": "function"
    },
    {
      "inputs": [
        {
          "internalType": "address",
          "name": "asset",
          "type": "address"
        },
        {
          "internalType": "uint256",
          "name": "ltv",
          "type": "uint256"
        },
        {
          "internalType": "uint256",
          "name": "liquidationThreshold",
          "type": "uint256"
        },
        {
          "internalType": "uint256",
          "name": "liquidationBonus",
          "type": "uint256"
        }
      ],
      "name": "configureReserveAsCollateral",
      "outputs": [],
      "stateMutability": "nonpayable",
      "type": "function"
    },
    {
      "inputs": [
        {
          "internalType": "address",
          "name": "asset",
          "type": "address"
        }
      ],
      "name": "dropReserve",
      "outputs": [],
      "stateMutability": "nonpayable",
      "type": "function"
    },
    {
      "inputs": [
        {
          "components": [
            {
              "internalType": "address",
              "name": "aTokenImpl",
              "type": "address"
            },
            {
              "internalType": "address",
              "name": "stableDebtTokenImpl",
              "type": "address"
            },
            {
              "internalType": "address",
              "name": "variableDebtTokenImpl",
              "type": "address"
            },
            {
              "internalType": "uint8",
              "name": "underlyingAssetDecimals",
              "type": "uint8"
            },
            {
              "internalType": "address",
              "name": "interestRateStrategyAddress",
              "type": "address"
            },
            {
              "internalType": "address",
              "name": "underlyingAsset",
              "type": "address"
            },
            {
              "internalType": "address",
              "name": "treasury",
              "type": "address"
            },
            {
              "internalType": "address",
              "name": "incentivesController",
              "type": "address"
            },
            {
              "internalType": "string",
              "name": "aTokenName",
              "type": "string"
            },
            {
              "internalType": "string",
              "name": "aTokenSymbol",
              "type": "string"
            },
            {
              "internalType": "string",
              "name": "variableDebtTokenName",
              "type": "string"
            },
            {
              "internalType": "string",
              "name": "variableDebtTokenSymbol",
              "type": "string"
            },
            {
              "internalType": "string",
              "name": "stableDebtTokenName",
              "type": "string"
            },
            {
              "internalType": "string",
              "name": "stableDebtTokenSymbol",
              "type": "string"
            },
            {
              "internalType": "bytes",
              "name": "params",
              "type": "bytes"
            }
          ],
          "internalType": "struct ConfiguratorInputTypes.InitReserveInput[]",
          "name": "input",
          "type": "tuple[]"
        }
      ],
      "name": "initReserves",
      "outputs": [],
      "stateMutability": "nonpayable",
      "type": "function"
    },
    {
      "inputs": [
        {
          "internalType": "contract IPoolAddressesProvider",
          "name": "provider",
          "type": "address"
        }
      ],
      "name": "initialize",
      "outputs": [],
      "stateMutability": "nonpayable",
      "type": "function"
    },
    {
      "inputs": [
        {
          "internalType": "address",
          "name": "asset",
          "type": "address"
        },
        {
          "internalType": "uint8",
          "name": "newCategoryId",
          "type": "uint8"
        }
      ],
      "name": "setAssetEModeCategory",
      "outputs": [],
      "stateMutability": "nonpayable",
      "type": "function"
    },
    {
      "inputs": [
        {
          "internalType": "address",
          "name": "asset",
          "type": "address"
        },
        {
          "internalType": "uint256",
          "name": "newBorrowCap",
          "type": "uint256"
        }
      ],
      "name": "setBorrowCap",
      "outputs": [],
      "stateMutability": "nonpayable",
      "type": "function"
    },
    {
      "inputs": [
        {
          "internalType": "address",
          "name": "asset",
          "type": "address"
        },
        {
          "internalType": "bool",
          "name": "borrowable",
          "type": "bool"
        }
      ],
      "name": "setBorrowableInIsolation",
      "outputs": [],
      "stateMutability": "nonpayable",
      "type": "function"
    },
    {
      "inputs": [
        {
          "internalType": "address",
          "name": "asset",
          "type": "address"
        },
        {
          "internalType": "uint256",
          "name": "newDebtCeiling",
          "type": "uint256"
        }
      ],
      "name": "setDebtCeiling",
      "outputs": [],
      "stateMutability": "nonpayable",
      "type": "function"
    },
    {
      "inputs": [
        {
          "internalType": "uint8",
          "name": "categoryId",
          "type": "uint8"
        },
        {
          "internalType": "uint16",
          "name": "ltv",
          "type": "uint16"
        },
        {
          "internalType": "uint16",
          "name": "liquidationThreshold",
          "type": "uint16"
        },
        {
          "internalType": "uint16",
          "name": "liquidationBonus",
          "type": "uint16"
        },
        {
          "internalType": "address",
          "name": "oracle",
          "type": "address"
        },
        {
          "internalType": "string",
          "name": "label",
          "type": "string"
        }
      ],
      "name": "setEModeCategory",
      "outputs": [],
      "stateMutability": "nonpayable",
      "type": "function"
    },
    {
      "inputs": [
        {
          "internalType": "address",
          "name": "asset",
          "type": "address"
        },
        {
          "internalType": "uint256",
          "name": "newFee",
          "type": "uint256"
        }
      ],
      "name": "setLiquidationProtocolFee",
      "outputs": [],
      "stateMutability": "nonpayable",
      "type": "function"
    },
    {
      "inputs": [
        {
          "internalType": "bool",
          "name": "paused",
          "type": "bool"
        }
      ],
      "name": "setPoolPause",
      "outputs": [],
      "stateMutability": "nonpayable",
      "type": "function"
    },
    {
      "inputs": [
        {
          "internalType": "address",
          "name": "asset",
          "type": "address"
        },
        {
          "internalType": "bool",
          "name": "active",
          "type": "bool"
        }
      ],
      "name": "setReserveActive",
      "outputs": [],
      "stateMutability": "nonpayable",
      "type": "function"
    },
    {
      "inputs": [
        {
          "internalType": "address",
          "name": "asset",
          "type": "address"
        },
        {
          "internalType": "bool",
          "name": "enabled",
          "type": "bool"
        }
      ],
      "name": "setReserveBorrowing",
      "outputs": [],
      "stateMutability": "nonpayable",
      "type": "function"
    },
    {
      "inputs": [
        {
          "internalType": "address",
          "name": "asset",
          "type": "address"
        },
        {
          "internalType": "uint256",
          "name": "newReserveFactor",
          "type": "uint256"
        }
      ],
      "name": "setReserveFactor",
      "outputs": [],
      "stateMutability": "nonpayable",
      "type": "function"
    },
    {
      "inputs": [
        {
          "internalType": "address",
          "name": "asset",
          "type": "address"
        },
        {
          "internalType": "bool",
          "name": "enabled",
          "type": "bool"
        }
      ],
      "name": "setReserveFlashLoaning",
      "outputs": [],
      "stateMutability": "nonpayable",
      "type": "function"
    },
    {
      "inputs": [
        {
          "internalType": "address",
          "name": "asset",
          "type": "address"
        },
        {
          "internalType": "bool",
          "name": "freeze",
          "type": "bool"
        }
      ],
      "name": "setReserveFreeze",
      "outputs": [],
      "stateMutability": "nonpayable",
      "type": "function"
    },
    {
      "inputs": [
        {
          "internalType": "address",
          "name": "asset",
          "type": "address"
        },
        {
          "internalType": "address",
          "name": "newRateStrategyAddress",
          "type": "address"
        }
      ],
      "name": "setReserveInterestRateStrategyAddress",
      "outputs": [],
      "stateMutability": "nonpayable",
      "type": "function"
    },
    {
      "inputs": [
        {
          "internalType": "address",
          "name": "asset",
          "type": "address"
        },
        {
          "internalType": "bool",
          "name": "paused",
          "type": "bool"
        }
      ],
      "name": "setReservePause",
      "outputs": [],
      "stateMutability": "nonpayable",
      "type": "function"
    },
    {
      "inputs": [
        {
          "internalType": "address",
          "name": "asset",
          "type": "address"
        },
        {
          "internalType": "bool",
          "name": "enabled",
          "type": "bool"
        }
      ],
      "name": "setReserveStableRateBorrowing",
      "outputs": [],
      "stateMutability": "nonpayable",
      "type": "function"
    },
    {
      "inputs": [
        {
          "internalType": "address",
          "name": "asset",
          "type": "address"
        },
        {
          "internalType": "bool",
          "name": "newSiloed",
          "type": "bool"
        }
      ],
      "name": "setSiloedBorrowing",
      "outputs": [],
      "stateMutability": "nonpayable",
      "type": "function"
    },
    {
      "inputs": [
        {
          "internalType": "address",
          "name": "asset",
          "type": "address"
        },
        {
          "internalType": "uint256",
          "name": "newSupplyCap",
          "type": "uint256"
        }
      ],
      "name": "setSupplyCap",
      "outputs": [],
      "stateMutability": "nonpayable",
      "type": "function"
    },
    {
      "inputs": [
        {
          "internalType": "address",
          "name": "asset",
          "type": "address"
        },
        {
          "internalType": "uint256",
          "name": "newUnbackedMintCap",
          "type": "uint256"
        }
      ],
      "name": "setUnbackedMintCap",
      "outputs": [],
      "stateMutability": "nonpayable",
      "type": "function"
    },
    {
      "inputs": [
        {
          "components": [
            {
              "internalType": "address",
              "name": "asset",
              "type": "address"
            },
            {
              "internalType": "address",
              "name": "treasury",
              "type": "address"
            },
            {
              "internalType": "address",
              "name": "incentivesController",
              "type": "address"
            },
            {
              "internalType": "string",
              "name": "name",
              "type": "string"
            },
            {
              "internalType": "string",
              "name": "symbol",
              "type": "string"
            },
            {
              "internalType": "address",
              "name": "implementation",
              "type": "address"
            },
            {
              "internalType": "bytes",
              "name": "params",
              "type": "bytes"
            }
          ],
          "internalType": "struct ConfiguratorInputTypes.UpdateATokenInput",
          "name": "input",
          "type": "tuple"
        }
      ],
      "name": "updateAToken",
      "outputs": [],
      "stateMutability": "nonpayable",
      "type": "function"
    },
    {
      "inputs": [
        {
          "internalType": "uint256",
          "name": "newBridgeProtocolFee",
          "type": "uint256"
        }
      ],
      "name": "updateBridgeProtocolFee",
      "outputs": [],
      "stateMutability": "nonpayable",
      "type": "function"
    },
    {
      "inputs": [
        {
          "internalType": "uint128",
          "name": "newFlashloanPremiumToProtocol",
          "type": "uint128"
        }
      ],
      "name": "updateFlashloanPremiumToProtocol",
      "outputs": [],
      "stateMutability": "nonpayable",
      "type": "function"
    },
    {
      "inputs": [
        {
          "internalType": "uint128",
          "name": "newFlashloanPremiumTotal",
          "type": "uint128"
        }
      ],
      "name": "updateFlashloanPremiumTotal",
      "outputs": [],
      "stateMutability": "nonpayable",
      "type": "function"
    },
    {
      "inputs": [
        {
          "components": [
            {
              "internalType": "address",
              "name": "asset",
              "type": "address"
            },
            {
              "internalType": "address",
              "name": "incentivesController",
              "type": "address"
            },
            {
              "internalType": "string",
              "name": "name",
              "type": "string"
            },
            {
              "internalType": "string",
              "name": "symbol",
              "type": "string"
            },
            {
              "internalType": "address",
              "name": "implementation",
              "type": "address"
            },
            {
              "internalType": "bytes",
              "name": "params",
              "type": "bytes"
            }
          ],
          "internalType": "struct ConfiguratorInputTypes.UpdateDebtTokenInput",
          "name": "input",
          "type": "tuple"
        }
      ],
      "name": "updateStableDebtToken",
      "outputs": [],
      "stateMutability": "nonpayable",
      "type": "function"
    },
    {
      "inputs": [
        {
          "components": [
            {
              "internalType": "address",
              "name": "asset",
              "type": "address"
            },
            {
              "internalType": "address",
              "name": "incentivesController",
              "type": "address"
            },
            {
              "internalType": "string",
              "name": "name",
              "type": "string"
            },
            {
              "internalType": "string",
              "name": "symbol",
              "type": "string"
            },
            {
              "internalType": "address",
              "name": "implementation",
              "type": "address"
            },
            {
              "internalType": "bytes",
              "name": "params",
              "type": "bytes"
            }
          ],
          "internalType": "struct ConfiguratorInputTypes.UpdateDebtTokenInput",
          "name": "input",
          "type": "tuple"
        }
      ],
      "name": "updateVariableDebtToken",
      "outputs": [],
      "stateMutability": "nonpayable",
      "type": "function"
    }
  ],
  "transactionHash": "0x12b46cb19886e4530774b9657ba4a15da8ffaba43935aab867e45c6f73096ccc",
  "args": [],
  "numDeployments": 1,
  "solcInputHash": "1cd9cfd68071fb9d0e3b7e5c91bb726a",
  "bytecode": "0x6080806040523461001a5760008055613e2890816100208239f35b600080fdfe6080604052600436101561001257600080fd5b60003560e01c806302fb45e6146101e7578063145f5892146101e25780631d2118f9146101dd5780631df970bd146101d857806326d2cec2146101d35780633036b439146101ce57806338ae0cc3146101c957806348d9fba9146101c45780634b4e6753146101bf578063571f03e5146101ba57806363c9b860146101b5578063682cf264146101b05780637626cde3146101ab5780637641f3d9146101a65780637af635a6146101a15780637c4e560b1461019c5780638a493676146101975780638a751a601461019257806396e957c41461018d578063a7fa83b714610188578063ad4e643214610183578063aeb4fcc11461017e578063b736aaeb14610179578063bb01c37c14610174578063c19d61e41461016f578063c4d66de81461016a578063d14a098314610165578063d4fe3f99146101605763f213ef0e1461015b57600080fd5b6123da565b612201565b6120c9565b611fdc565b611f4d565b611d96565b611c6d565b611a77565b611a13565b6118c5565b6117b1565b61167c565b611520565b61135a565b61133e565b61124e565b6111c8565b61104e565b610fa9565b610e71565b610d31565b610bf6565b610acc565b610978565b61082d565b610699565b610523565b6103c0565b3461039d5760208060031936011261039d57600435906001600160401b039081831161039d573660238401121561039d57826004013591821161039d573660248360051b8501011161039d576034546004908290610255906001600160a01b03165b6001600160a01b031690565b60405163383e6b8b60e11b815292839182905afa90811561034c57600091610370575b50604051629f719760e51b815233600482015291906001600160a01b03168183602481845afa92831561034c57600093610351575b5082156102d6575b6102d4846024876102ce876102c8613515565b90612a9b565b016127bd565b005b604051637be53ca160e01b815233600482015291949192508490839060249082905afa93841561034c576102d4946024936102ce9260009261031f575b505092508194506102b5565b61033e9250803d10610345575b6103368183612552565b810190613500565b3880610313565b503d61032c565b6127b1565b610369919350823d8411610345576103368183612552565b91386102ad565b6103909150823d8411610396575b6103888183612552565b81019061337a565b38610278565b503d61037e565b600080fd5b6001600160a01b0381160361039d57565b35906103be826103a2565b565b3461039d57604036600319011261039d576004356103dd816103a2565b602435906103e961354f565b6035546103fe906001600160a01b0316610249565b60405163c44b11f760e01b81526001600160a01b038316600482015290929091602083602481875afa92831561034c576000936104f2575b50640fffffffff835160b01c169361044e838561366b565b803b1561039d5760405163f51e435b60e01b81526001600160a01b0383166004820152935160248501526000908490604490829084905af192831561034c577f09808b1fc5abde94edf02fdde393bea0d2e4795999ba31695472848638b5c29f936104d9575b506040805194855260208501929092526001600160a01b03169290819081015b0390a2005b806104e66104ec92612504565b80611333565b386104b4565b61051591935060203d60201161051c575b61050d8183612552565b8101906128bc565b9138610436565b503d610503565b3461039d57604036600319011261039d57600435610540816103a2565b60243561054c816103a2565b61055461354f565b603554610569906001600160a01b0316610249565b6040516335ea6a7560e01b81526001600160a01b03841660048201529091906101e08082602481875afa801561034c576105b9926101609260009261065b575b505001516001600160a01b031690565b92823b1561039d57604051631d2118f960e01b81526001600160a01b03828116600483015283166024820152926000908490604490829084905af192831561034c577fdb8dada53709ce4988154324196790c2e4a60c377e1256790946f83b87db3c3393610648575b50604080516001600160a01b0395861681529285166020840152931692819081016104d4565b806104e661065592612504565b38610622565b61067a9250803d10610681575b6106728183612552565b810190612903565b38806105a9565b503d610668565b6001600160801b0381160361039d57565b3461039d5760208060031936011261039d576004356106b781610688565b6106bf6136cb565b6106de6106ca612a35565b6127106001600160801b0384161115612a9b565b6035546106f3906001600160a01b0316610249565b60405163354ce01b60e11b8152908382600481845afa91821561034c5760009261080e575b5060405163074b2e4360e01b81528481600481855afa94851561034c576000956107df575b5050803b1561039d57604051635e5b729160e11b81526001600160801b03948516600482015293831660248501526000908490604490829084905af192831561034c577fe7e0c75e1fc2d0bd83dc85d59f085b3e763107c392fb368e85572b292f1f5576936107cc575b50604080516001600160801b039283168152929091166020830152819081015b0390a1005b806104e66107d992612504565b386107a7565b6107ff929550803d10610807575b6107f78183612552565b810190612acb565b92388061073d565b503d6107ed565b610826919250843d8611610807576107f78183612552565b9038610718565b3461039d57604036600319011261039d5760043561084a816103a2565b6024359061085661354f565b61086c610861612ae0565b612710841115612a9b565b603554610881906001600160a01b0316610249565b60405163c44b11f760e01b81526001600160a01b038316600482015290929091602083602481875afa92831561034c57600093610957575b5061ffff835160981c16936108ce8385613788565b803b1561039d5760405163f51e435b60e01b81526001600160a01b0383166004820152935160248501526000908490604490829084905af192831561034c577fb5b0a963825337808b6e3154de8e98027595a5cad4219bb3a9bc55b192f4b391936104d957506040805194855260208501929092526001600160a01b03169290819081016104d4565b61097191935060203d60201161051c5761050d8183612552565b91386108b9565b3461039d57602036600319011261039d576004356109946136cb565b6109aa61099f612afe565b612710831115612a9b565b6035546109bf906001600160a01b0316610249565b90604051631396c83960e11b8152602081600481865afa90811561034c57600091610a6b575b50823b1561039d57604051633036b43960e01b815260048101839052926000908490602490829084905af192831561034c577f30b17cb587a89089d003457c432f73e22aeee93de425e92224ba01080260ecd993610a58575b5060408051918252602082019290925290819081016107c7565b806104e6610a6592612504565b38610a3e565b610a8d915060203d602011610a93575b610a858183612552565b810190612b1c565b386109e5565b503d610a7b565b8015150361039d57565b604090600319011261039d57600435610abc816103a2565b90602435610ac981610a9a565b90565b3461039d57610ada36610aa4565b610ae261354f565b603554610af7906001600160a01b0316610249565b60405163c44b11f760e01b81526001600160a01b03841660048201529290602084602481845afa93841561034c57600094610bd5575b50610b3883856137b2565b803b1561039d5760405163f51e435b60e01b81526001600160a01b0383166004820152935160248501526000908490604490829084905af192831561034c577f74adf6aaf58c08bc4f993640385e136522375ea3d1589a10d02adbb906c67d1c93610bc2575b50604080516001600160a01b039092168252911515602082015290819081016107c7565b806104e6610bcf92612504565b38610b9e565b610bef91945060203d60201161051c5761050d8183612552565b9238610b2d565b3461039d57610c0436610aa4565b603454610c19906001600160a01b0316610249565b91604051809363383e6b8b60e11b825281600460209687935afa90811561034c57600091610d14575b50604051637be53ca160e01b8152336004820152936001600160a01b0391909116908085602481855afa94851561034c57600095610cf5575b508415610c99575b5050610c946102d4936102c86137e5565b612c56565b604051631280795b60e11b81523360048201529450908190859060249082905afa801561034c576102d494610c9492600092610cd8575b505093610c83565b610cee9250803d10610345576103368183612552565b3880610cd0565b81610d0d9296503d8711610345576103368183612552565b9338610c7b565b610d2b9150843d8611610396576103888183612552565b38610c42565b3461039d57604036600319011261039d57600435610d4e816103a2565b60243590610d5a61354f565b610d65610861612d58565b603554610d7a906001600160a01b0316610249565b60405163c44b11f760e01b81526001600160a01b038316600482015290929091602083602481875afa92831561034c57600093610e50575b5061ffff835160401c1693610dc78385613835565b803b1561039d5760405163f51e435b60e01b81526001600160a01b0383166004820152935160248501526000908490604490829084905af192831561034c577fb46e2b82b0c2cf3d7d9dece53635e165c53e0eaa7a44f904d61a2b7174826aef936104d957506040805194855260208501929092526001600160a01b03169290819081016104d4565b610e6a91935060203d60201161051c5761050d8183612552565b9138610db2565b3461039d57604036600319011261039d57600435610e8e816103a2565b60243590610e9a61354f565b603554610eaf906001600160a01b0316610249565b60405163c44b11f760e01b81526001600160a01b038316600482015290929091602083602481875afa92831561034c57600093610f88575b50640fffffffff835160741c1693610eff8385613859565b803b1561039d5760405163f51e435b60e01b81526001600160a01b0383166004820152935160248501526000908490604490829084905af192831561034c577f0263602682188540a2d633561c0b4453b7d8566285e99f9f6018b8ef2facef49936104d957506040805194855260208501929092526001600160a01b03169290819081016104d4565b610fa291935060203d60201161051c5761050d8183612552565b9138610ee7565b3461039d57602036600319011261039d57600435610fc6816103a2565b610fce6136cb565b6035546001600160a01b039190821690813b1561039d5760405192839163031e4dc360e51b835216918260048301528160246000958680945af1801561034c5761103b575b507feeec4c06f7adad215cbdb4d2960896c83c26aedce02dde76d36fa28588d62da48280a280f35b806104e661104892612504565b38611013565b3461039d5761105c36610aa4565b9061106561354f565b60355461107a906001600160a01b0316610249565b60405163c44b11f760e01b81526001600160a01b03831660048201529190602083602481845afa92831561034c57600093611176575b50831561115c575b6110c2848461389c565b803b1561039d5760405163f51e435b60e01b81526001600160a01b0383166004820152925160248401526000908390604490829084905af190811561034c577f2443ba28e8d1d88d531a3d90b981816a4f3b3c7f1fd4085c6029e81d1b7a570d926104d492611149575b5060405193151584526001600160a01b0316929081906020820190565b806104e661115692612504565b3861112c565b8251611171906001603b1b16156102c8612d76565b6110b8565b61119091935060203d60201161051c5761050d8183612552565b91386110b0565b6003199060208183011261039d57600435916001600160401b03831161039d578260c09203011261039d5760040190565b3461039d576111d636611197565b6111de6136cb565b603554600091829073eeF0662c96022d3cAfDFab84fB6EBa2072a15dFd803b1561124a57604051630f5b50e760e41b81529384928391829161122c916001600160a01b031660048401612d94565b03915af4801561034c5761123e575080f35b61124790612504565b80f35b8280fd5b3461039d5760208060031936011261039d5760049081359061126f82610a9a565b6034548190611286906001600160a01b0316610249565b60405163383e6b8b60e11b815294859182905afa92831561034c57600093611314575b50604051631280795b60e11b8152336004820152928190849060249082906001600160a01b03165afa801561034c576102d4936112f2926000926112f7575b50506102c86138cb565b612f09565b61130d9250803d10610345576103368183612552565b38806112e8565b8161132c9294503d8511610396576103888183612552565b91386112a9565b600091031261039d57565b3461039d57600036600319011261039d57602060405160018152f35b3461039d57608036600319011261039d57600435611377816103a2565b602435906044356064359161138a61354f565b61139e611395612fb9565b83861115612a9b565b6035546113b3906001600160a01b0316610249565b60405163c44b11f760e01b81526001600160a01b03831660048201529390602085602481845afa94851561034c576000956114ff575b5083156114df5761141d612710611409611401612fb9565b828611612a9b565b6114138487613a6e565b11156102c8612fb9565b6114278686613a8c565b6114318486613ac2565b61143b8286613afe565b803b1561039d5760405163f51e435b60e01b81526001600160a01b0384166004820152945160248601526000908590604490829084905af190811561034c577f637febbda9275aea2e85c0ff690444c8d87eb2e8339bbede9715abcc89cb0995946104d4926114cc575b5060405193849360018060a01b031696846040919493926060820195825260208201520152565b806104e66114d992612504565b386114a5565b6114f16114ea612fb9565b8315612a9b565b6114fa83613961565b61141d565b61151991955060203d60201161051c5761050d8183612552565b93386113e9565b3461039d5760208060031936011261039d5760043561153e81610688565b6115466136cb565b6115516106ca612a35565b603554611566906001600160a01b0316610249565b60405163074b2e4360e01b8152908382600481845afa91821561034c5760009261165d575b5060405163354ce01b60e11b81528481600481855afa94851561034c5760009561163e575b5050803b1561039d57604051635e5b729160e11b81526001600160801b0384811660048301529490941660248501526000908490604490829084905af192831561034c577f71aba182c9d0529b516de7a78bed74d49c207ef7e152f52f7ea5d8730138f643936107cc5750604080516001600160801b039283168152929091166020830152819081016107c7565b611655929550803d10610807576107f78183612552565b9238806115b0565b611675919250843d8611610807576107f78183612552565b903861158b565b3461039d5761168a36610aa4565b9061169361354f565b6035546116a8906001600160a01b0316610249565b60405163c44b11f760e01b81526001600160a01b03831660048201529190602083602481845afa92831561034c578490600094611790575b50611776575b6116f08484613b3c565b803b1561039d5760405163f51e435b60e01b81526001600160a01b0383166004820152925160248401526000908390604490829084905af190811561034c577f0b64d0941719acd363f1a6be3d8525d8ec9d71738f7445aabcd88d7939b472e7926104d492611149575060405193151584526001600160a01b0316929081906020820190565b61178b6001603a1b84511615156102c8612fd7565b6116e6565b6117aa91945060203d60201161051c5761050d8183612552565b92386116e0565b3461039d576117bf36610aa4565b906117c861354f565b6035546117dd906001600160a01b0316610249565b60405163c44b11f760e01b81526001600160a01b03831660048201529190602083602481845afa92831561034c576000936118a4575b5061181e8484613b6b565b803b1561039d5760405163f51e435b60e01b81526001600160a01b0383166004820152925160248401526000908390604490829084905af190811561034c577f0c4443d258a350d27dc50c378b2ebf165e6469725f786d21b30cab16823f5587926104d492611149575060405193151584526001600160a01b0316929081906020820190565b6118be91935060203d60201161051c5761050d8183612552565b9138611813565b3461039d576118d336610aa4565b90816118dd61354f565b611a05575b6035546118f7906001600160a01b0316610249565b60405163c44b11f760e01b81526001600160a01b038316600482015290929091602083602481875afa92831561034c576000936119e4575b506001603e1b8351161515936119458385613c99565b803b1561039d5760405163f51e435b60e01b81526001600160a01b0383166004820152935160248501526000908490604490829084905af192831561034c577f842a280b07e8e502a9101f32a3b768ebaba3655556dd674f0831900861fc674b936119d1575b5060408051941515855291151560208501526001600160a01b03169290819081016104d4565b806104e66119de92612504565b386119ab565b6119fe91935060203d60201161051c5761050d8183612552565b913861192f565b611a0e81613bbc565b6118e2565b3461039d57611a2136611197565b611a296136cb565b603554600091829073eeF0662c96022d3cAfDFab84fB6EBa2072a15dFd803b1561124a5760405163b0f0935560e01b81529384928391829161122c916001600160a01b031660048401612d94565b3461039d57604036600319011261039d57600435611a94816103a2565b60243590611aa061354f565b603554611ab5906001600160a01b0316610249565b60405163c44b11f760e01b81526001600160a01b0383166004820152909290602081602481875afa90811561034c57600091611c4e575b5064ffffffffff815160d41c16938415611c40575b611b0b8383613cc8565b803b1561039d5760405163f51e435b60e01b81526001600160a01b0385166004820152915160248301526000908290604490829084905af1801561034c57611c2d575b508015611b9c575b6040805193845260208401919091526001600160a01b03909116917f6824a6c7fbc10d2979b1f1ccf2dd4ed0436541679a661dedb5c10bd4be83068291819081016104d4565b603554611bb1906001600160a01b0316610249565b91823b1561039d5760405163e43e88a160e01b81526001600160a01b0382166004820152926000908490602490829084905af192831561034c577f6824a6c7fbc10d2979b1f1ccf2dd4ed0436541679a661dedb5c10bd4be83068293611c1a575b509150611b56565b806104e6611c2792612504565b38611c12565b806104e6611c3a92612504565b38611b4e565b611c4984613961565b611b01565b611c67915060203d60201161051c5761050d8183612552565b38611aec565b3461039d57611c7b36610aa4565b90611c846136cb565b8115611d88575b603554611ca0906001600160a01b0316610249565b60405163c44b11f760e01b81526001600160a01b03831660048201529190602083602481845afa92831561034c57600093611d67575b50611ce18484613d0e565b803b1561039d5760405163f51e435b60e01b81526001600160a01b0383166004820152925160248401526000908390604490829084905af190811561034c577fc36c7d11ba01a5869d52aa4a3781939dab851cbc9ee6e7fdcedc7d58898a3f1e926104d492611149575060405193151584526001600160a01b0316929081906020820190565b611d8191935060203d60201161051c5761050d8183612552565b9138611cd6565b611d9181613961565b611c8b565b3461039d5760031960203682011261039d57600435906001600160401b03821161039d5760e08260040191833603011261039d57611dd26136cb565b6035546001600160a01b03908116919073eeF0662c96022d3cAfDFab84fB6EBa2072a15dFd90813b1561039d57600093611ef66040519687958694859463162792d560e31b86526004860152604060248601528135611e30816103a2565b166044850152611e55611e45602484016103b3565b6001600160a01b03166064860152565b611e74611e64604484016103b3565b6001600160a01b03166084860152565b611ee6611e99611e876064850184612573565b60e060a48901526101248801916125a4565b9160c4611ebf611eac6084870184612573565b6043198a88038101858c015296916125a4565b94611edf611ecf60a483016103b3565b6001600160a01b031660e48a0152565b0190612573565b91858403016101048601526125a4565b03915af4801561034c57611f0657005b806104e66102d492612504565b6004359060ff8216820361039d57565b6024359060ff8216820361039d57565b359060ff8216820361039d57565b61ffff81160361039d57565b3461039d5760c036600319011261039d57611f66611f13565b602435611f7281611f41565b60443591611f7f83611f41565b606435611f8b81611f41565b60843590611f98826103a2565b60a435946001600160401b039485871161039d573660238801121561039d57866004013595861161039d57366024878901011161039d5760246102d4970194612ff5565b3461039d57602036600319011261039d57600435611ff9816103a2565b60ff6001541690811591826120c0575b80156120b4575b156120585761202390826120385761338f565b61202957005b6102d460ff1960015416600155565b612049600160ff1981541617600155565b6120536001600055565b61338f565b60405162461bcd60e51b815260206004820152602e60248201527f436f6e747261637420696e7374616e63652068617320616c726561647920626560448201526d195b881a5b9a5d1a585b1a5e995960921b6064820152608490fd5b50600054600111612010565b50303b15612009565b3461039d57604036600319011261039d576004356120e6816103a2565b602435906120f261354f565b603554612107906001600160a01b0316610249565b60405163c44b11f760e01b81526001600160a01b038316600482015290929091602083602481875afa92831561034c576000936121e0575b50640fffffffff835160501c16936121578385613d41565b803b1561039d5760405163f51e435b60e01b81526001600160a01b0383166004820152935160248501526000908490604490829084905af192831561034c577fc51aca575985d521c5072ad11549bad77013bb786d57f30f94b40ed8f8dc9bc4936104d957506040805194855260208501929092526001600160a01b03169290819081016104d4565b6121fa91935060203d60201161051c5761050d8183612552565b913861213f565b3461039d57604036600319011261039d5760043561221e816103a2565b612226611f23565b9061222f61354f565b603554612244906001600160a01b0316610249565b60405163c44b11f760e01b81526001600160a01b038316600482015290929091602083602481875afa92831561034c576000936123b9575b5060ff8216938461233b575b61229a60ff855160a81c169585613d84565b803b1561039d5760405163f51e435b60e01b81526001600160a01b0383166004820152935160248501526000908490604490829084905af192831561034c577f5bb69795b6a2ea222d73a5f8939c23471a1f85a99c7ca43c207f1b71f10c626493612328575b506040805160ff95861681529290941660208301526001600160a01b031692819081016104d4565b806104e661233592612504565b38612300565b604051636c6f6ae160e01b815260ff84166004820152600081602481855afa801561034c57602061237c9161239193600091612396575b50015161ffff1690565b61ffff80875160101c169116116102c86134e2565b612288565b6123b391503d806000833e6123ab8183612552565b810190613448565b38612372565b6123d391935060203d60201161051c5761050d8183612552565b913861227c565b3461039d576123e836610aa4565b906123f161354f565b603554612406906001600160a01b0316610249565b60405163c44b11f760e01b81526001600160a01b03831660048201529190602083602481845afa92831561034c576000936124cd575b506124478484613dbf565b803b1561039d5760405163f51e435b60e01b81526001600160a01b0383166004820152925160248401526000908390604490829084905af190811561034c577fc8ff3cc5b0fddaa3e6ebbbd7438f43393e4ea30e88b80ad016c1bc094655034d926104d492611149575060405193151584526001600160a01b0316929081906020820190565b6124e791935060203d60201161051c5761050d8183612552565b913861243c565b634e487b7160e01b600052604160045260246000fd5b6001600160401b03811161251757604052565b6124ee565b60a081019081106001600160401b0382111761251757604052565b604081019081106001600160401b0382111761251757604052565b90601f801991011681019081106001600160401b0382111761251757604052565b9035601e198236030181121561039d5701602081359101916001600160401b03821161039d57813603831361039d57565b908060209392818452848401376000828201840152601f01601f1916010190565b6001600160a01b03909116815260406020820181905290919082016125e9826103b3565b6001600160a01b03169052612600602082016103b3565b6001600160a01b0316606083015261261a604082016103b3565b6001600160a01b0316608083015261263460608201611f33565b60ff1660a0830152612648608082016103b3565b6001600160a01b031660c083015261266260a082016103b3565b6001600160a01b031660e083015261267c60c082016103b3565b6001600160a01b0316610100808401919091529161269c60e083016103b3565b6001600160a01b0316610120828101919091529282016126bc9083612573565b92906101e0906101409482868601526102208501906126da926125a4565b9482016126e79083612573565b90603f199661016092888783030184880152612702926125a4565b94830161270f9084612573565b9561018096888783030188880152612726926125a4565b9083016127339084612573565b916101a09288878303018488015261274a926125a4565b9483016127579084612573565b956101c09688878303018888015261276e926125a4565b90830161277b9084612573565b909287868403019086015261278f926125a4565b92810161279b91612573565b91909381840301906102000152610ac9926125a4565b6040513d6000823e3d90fd5b60355473eeF0662c96022d3cAfDFab84fB6EBa2072a15dFd9291906001600160a01b031660005b8381106127f2575050505050565b8060051b830135906101de198436030182121561039d57853b1561039d5760006128339260405180948192636facdc5960e11b8352880187600484016125c5565b0381895af491821561034c5760019261284e575b50016127e4565b806104e661285b92612504565b38612847565b604051906101e082018281106001600160401b0382111761251757604052565b604051906103be8261251c565b919082602091031261039d57604051602081018181106001600160401b038211176125175760405291518252565b9060208282031261039d57610ac99161288e565b51906103be82610688565b519064ffffffffff8216820361039d57565b51906103be82611f41565b51906103be826103a2565b6101e08183031261039d57612920612919612861565b928261288e565b825261292e602082016128d0565b602083015261293f604082016128d0565b6040830152612950606082016128d0565b6060830152612961608082016128d0565b608083015261297260a082016128d0565b60a083015261298360c082016128db565b60c083015261299460e082016128ed565b60e08301526101006129a78183016128f8565b908301526101206129b98183016128f8565b908301526101406129cb8183016128f8565b908301526101606129dd8183016128f8565b908301526101806129ef8183016128d0565b908301526101a0612a018183016128d0565b90830152612a136101c08092016128d0565b9082015290565b6001600160401b03811161251757601f01601f191660200190565b60405190612a4282612537565b6002825261313960f01b6020830152565b60005b838110612a665750506000910152565b8181015183820152602001612a56565b90602091612a8f81518092818552858086019101612a53565b601f01601f1916010190565b15612aa35750565b60405162461bcd60e51b815260206004820152908190612ac7906024830190612a76565b0390fd5b9081602091031261039d5751610ac981610688565b60405190612aed82612537565b6002825261037360f41b6020830152565b60405190612b0b82612537565b6002825261191960f11b6020830152565b9081602091031261039d575190565b603454909190612b43906001600160a01b0316610249565b91604051809363383e6b8b60e11b825281600460209687935afa90811561034c57600091612c39575b50604051637be53ca160e01b8152336004820152936001600160a01b0391909116908085602481855afa94851561034c57600095612c1a575b508415612bbe575b5050610c946103be936102c86137e5565b604051631280795b60e11b81523360048201529450908190859060249082905afa801561034c576103be94610c9492600092612bfd575b505093612bad565b612c139250803d10610345576103368183612552565b3880612bf5565b81612c329296503d8711610345576103368183612552565b9338612ba5565b612c509150843d8611610396576103888183612552565b38612b6c565b603554612c6b906001600160a01b0316610249565b60405163c44b11f760e01b81526001600160a01b03831660048201529190602083602481845afa92831561034c57600093612d37575b50612cac8484613802565b803b1561039d5760405163f51e435b60e01b81526001600160a01b0383166004820152925160248401526000908390604490829084905af190811561034c577fe188d542a5f11925d3a3af33703cdd30a43cb3e8066a3cf68b1b57f61a5a94b592612d3292611149575060405193151584526001600160a01b0316929081906020820190565b0390a2565b612d5191935060203d60201161051c5761050d8183612552565b9138612ca1565b60405190612d6582612537565b6002825261363760f01b6020830152565b60405190612d8382612537565b6002825261070760f31b6020830152565b6001600160a01b03918216815260406020820152610ac9929160e09190808435612dbd816103a2565b1660408301526020840135612dd1816103a2565b166060820152612df9612de76040850185612573565b60c060808501526101008401916125a4565b90612e4b612e21612e0d6060870187612573565b603f19858703810160a087015295916125a4565b94612e41612e31608083016103b3565b6001600160a01b031660c0850152565b60a0810190612573565b939092828603019101526125a4565b90602090818382031261039d5782516001600160401b039384821161039d570181601f8201121561039d578051938411612517578360051b9060405194612ea385840187612552565b8552838086019282010192831161039d578301905b828210612ec6575050505090565b8380918351612ed4816103a2565b815201910190612eb8565b8051821015612ef35760209160051b010190565b634e487b7160e01b600052603260045260246000fd5b6035546004906000906001600160a01b03166040516334651b6f60e21b815292839182905afa90811561034c57600091612f96575b5060005b8151811015612f915780612f6b610249612f5e60019486612edf565b516001600160a01b031690565b612f76575b01612f42565b612f8c84612f87612f5e8487612edf565b612b2b565b612f70565b505050565b612fb391503d806000833e612fab8183612552565b810190612e5a565b38612f3e565b60405190612fc682612537565b6002825261032360f41b6020830152565b60405190612fe482612537565b6002825261033360f41b6020830152565b9193959496909261300461354f565b61301b61300f61328d565b61ffff86161515612a9b565b61303261302661328d565b61ffff87161515612a9b565b61304e61303d61328d565b61ffff871661ffff87161115612a9b565b61308361271061307961ffff841661306f61306761328d565b848311612a9b565b61ffff8916613a6e565b11156102c861328d565b603554613098906001600160a01b0316610249565b95604051986334651b6f60e21b8a5260008a6004818b5afa998a1561034c5760009a613270575b5060005b8a5181101561319857806130dd612f5e61310e938e612edf565b60405163c44b11f760e01b81526001600160a01b039091166004820152602092839082908d90829081906024820190565b03915afa90811561034c5760019360009261317b575b5050805160ff808260a81c16908a1614613141575b5050016130c3565b6131749161316161ffff928c848061315761328d565b9316911611612a9b565b5160101c1661ffff8b16116102c861328d565b3880613139565b6131919250803d1061051c5761050d8183612552565b3880613124565b5091939497909298509594956131ac612881565b61ffff891681529561ffff8816602088015261ffff851660408801526001600160a01b03821660608801526131e23685856132ab565b6080880152803b1561039d5760405163d579ea7d60e01b8152966000918891829084908290613215908c600484016132e2565b03925af193841561034c577f0acf8b4a3cace10779798a89a206a0ae73a71b63acdd3be2801d39c2ef7ab3cb9760ff97612d329661325d575b5060405197889716998761333d565b806104e661326a92612504565b3861324e565b613286919a503d806000833e612fab8183612552565b98386130bf565b6040519061329a82612537565b6002825261323160f01b6020830152565b9291926132b782612a1a565b916132c56040519384612552565b82948184528183011161039d578281602093846000960137010152565b906080610ac99360ff60e0931684526040602085015261ffff8082511660408601528060208301511660608601526040820151168285015260018060a01b0360608201511660a085015201519160a060c08201520190612a76565b61ffff9182168152918116602083015290911660408201526001600160a01b03909116606082015260a060808201819052610ac9939101916125a4565b9081602091031261039d5751610ac9816103a2565b603480546001600160a01b039283166001600160a01b0319918216811790925560405163026b1d5f60e01b8152909291602090829060049082905afa90811561034c576000916133e7575b5016906035541617603555565b613400915060203d602011610396576103888183612552565b386133da565b81601f8201121561039d57805161341c81612a1a565b9261342a6040519485612552565b8184526020828401011161039d57610ac99160208085019101612a53565b9060208282031261039d5781516001600160401b039283821161039d57019060a08282031261039d576040519261347e8461251c565b825161348981611f41565b8452602083015161349981611f41565b602085015260408301516134ac81611f41565b604085015260608301516134bf816103a2565b6060850152608083015190811161039d576134da9201613406565b608082015290565b604051906134ef82612537565b6002825261313760f01b6020830152565b9081602091031261039d5751610ac981610a9a565b6040519061352282612537565b60018252603560f81b6020830152565b6040519061353f82612537565b60018252600d60fa1b6020830152565b603454613564906001600160a01b0316610249565b604051809163383e6b8b60e11b825281600460209485935afa90811561034c5760009161364e575b5060405163674b5e4d60e01b8152336004820152906001600160a01b03168282602481845afa91821561034c5760009261362f575b5081156135d7575b506103be91506102c8613532565b604051637be53ca160e01b815233600482015291508290829060249082905afa90811561034c576103be92600092613612575b5050386135c9565b6136289250803d10610345576103368183612552565b388061360a565b613647919250833d8511610345576103368183612552565b90386135c1565b6136659150823d8411610396576103888183612552565b3861358c565b9061369860405161367b81612537565b60028152611b9960f11b6020820152640fffffffff831115612a9b565b640fffffffff60b01b198251169060b01b179052565b604051906136bb82612537565b60018252603160f81b6020830152565b6034546136e0906001600160a01b0316610249565b604051809163383e6b8b60e11b825281600460209485935afa90811561034c5760009161376b575b50604051637be53ca160e01b8152336004820152908290829060249082906001600160a01b03165afa90811561034c576103be9260009261374e575b50506102c86136ae565b6137649250803d10610345576103368183612552565b3880613744565b6137829150823d8411610396576103888183612552565b38613708565b9061379f613794612ae0565b61ffff831115612a9b565b61ffff60981b198251169060981b179052565b9067200000000000000019825116906000146137d95760ff603d1b60015b603d1b16179052565b60ff603d1b60006137d0565b604051906137f282612537565b60018252603360f81b6020830152565b9067100000000000000019825116906000146138295760ff603c1b60015b603c1b16179052565b60ff603c1b6000613820565b90613841613794612d58565b69ffff0000000000000000198251169060401b179052565b9061388660405161386981612537565b6002815261363960f01b6020820152640fffffffff831115612a9b565b640fffffffff60741b198251169060741b179052565b906001603a1b19825116906000146138bf5760ff603a1b60015b603a1b16179052565b60ff603a1b60006138b6565b604051906138d882612537565b60018252601960f91b6020830152565b91908261018091031261039d5781519160208101519160408201519160608101519160808201519160a08101519160c08201519160e0810151916101008201519161012081015191610ac961016061014084015193016128db565b6040519061395082612537565b6002825261062760f31b6020830152565b6034546004919060209061397d906001600160a01b0316610249565b60405163e860accb60e01b815293849182905afa91821561034c57600092613a49575b506040516335ea6a7560e01b81526001600160a01b0390911660048201529061018090819083908180602481015b03916001600160a01b03165afa801561034c576103be92600092600092613a0c575b5050159081613a03575b506102c8613943565b905015386139fa565b613a2f935080919250903d10613a42575b613a278183612552565b8101906138e8565b50505050505050505091509038806139f0565b503d613a1d565b6139ce919250613a679060203d602011610396576103888183612552565b91906139a0565b8161138819048111158215171561039d576127109102611388010490565b90613ab6604051613a9c81612537565b6002815261363360f01b602082015261ffff831115612a9b565b815161ffff1916179052565b90613aec604051613ad281612537565b60028152610d8d60f21b602082015261ffff831115612a9b565b63ffff0000198251169060101b179052565b90613b28604051613b0e81612537565b6002815261363560f01b602082015261ffff831115612a9b565b65ffff00000000198251169060201b179052565b906001603b1b1982511690600014613b5f5760ff603b1b60015b603b1b16179052565b60ff603b1b6000613b56565b906702000000000000001982511690600014613b925760ff60391b60015b60391b16179052565b60ff60391b6000613b89565b60405190613bab82612537565b6002825261039360f41b6020830152565b603454613bd1906001600160a01b0316610249565b90604051809263e860accb60e01b825281600460209586935afa91821561034c57613c2e928492600091613c7c575b50604051634d44ac4f60e01b81526001600160a01b0390921660048301529092839190829081906024820190565b03916001600160a01b03165afa90811561034c576103be92600092613c5f575b5050613c58613b9e565b9015612a9b565b613c759250803d10610a9357610a858183612552565b3880613c4e565b613c939150833d8511610396576103888183612552565b38613c00565b906001603e1b1982511690600014613cbc5760ff603e1b60015b603e1b16179052565b60ff603e1b6000613cb3565b90613cf5604051613cd881612537565b6002815261373360f01b602082015264ffffffffff831115612a9b565b6001650f000000000160d41b038251169060d41b179052565b906701000000000000001982511690600014613d355760ff60381b60015b60381b16179052565b60ff60381b6000613d2c565b90613d6e604051613d5181612537565b600281526106c760f31b6020820152640fffffffff831115612a9b565b640fffffffff60501b198251169060501b179052565b90613dad604051613d9481612537565b6002815261373160f01b602082015260ff831115612a9b565b60ff60a81b198251169060a81b179052565b906780000000000000001982511690600014613de65760ff603f1b60015b603f1b16179052565b60ff603f1b6000613ddd56fea26469706673582212203af5bce192c49b2b035069b7a6ab5693f1bf9561e6a004ef3fb981611d542ed964736f6c63430008180033",
  "deployedBytecode": "0x6080604052600436101561001257600080fd5b60003560e01c806302fb45e6146101e7578063145f5892146101e25780631d2118f9146101dd5780631df970bd146101d857806326d2cec2146101d35780633036b439146101ce57806338ae0cc3146101c957806348d9fba9146101c45780634b4e6753146101bf578063571f03e5146101ba57806363c9b860146101b5578063682cf264146101b05780637626cde3146101ab5780637641f3d9146101a65780637af635a6146101a15780637c4e560b1461019c5780638a493676146101975780638a751a601461019257806396e957c41461018d578063a7fa83b714610188578063ad4e643214610183578063aeb4fcc11461017e578063b736aaeb14610179578063bb01c37c14610174578063c19d61e41461016f578063c4d66de81461016a578063d14a098314610165578063d4fe3f99146101605763f213ef0e1461015b57600080fd5b6123da565b612201565b6120c9565b611fdc565b611f4d565b611d96565b611c6d565b611a77565b611a13565b6118c5565b6117b1565b61167c565b611520565b61135a565b61133e565b61124e565b6111c8565b61104e565b610fa9565b610e71565b610d31565b610bf6565b610acc565b610978565b61082d565b610699565b610523565b6103c0565b3461039d5760208060031936011261039d57600435906001600160401b039081831161039d573660238401121561039d57826004013591821161039d573660248360051b8501011161039d576034546004908290610255906001600160a01b03165b6001600160a01b031690565b60405163383e6b8b60e11b815292839182905afa90811561034c57600091610370575b50604051629f719760e51b815233600482015291906001600160a01b03168183602481845afa92831561034c57600093610351575b5082156102d6575b6102d4846024876102ce876102c8613515565b90612a9b565b016127bd565b005b604051637be53ca160e01b815233600482015291949192508490839060249082905afa93841561034c576102d4946024936102ce9260009261031f575b505092508194506102b5565b61033e9250803d10610345575b6103368183612552565b810190613500565b3880610313565b503d61032c565b6127b1565b610369919350823d8411610345576103368183612552565b91386102ad565b6103909150823d8411610396575b6103888183612552565b81019061337a565b38610278565b503d61037e565b600080fd5b6001600160a01b0381160361039d57565b35906103be826103a2565b565b3461039d57604036600319011261039d576004356103dd816103a2565b602435906103e961354f565b6035546103fe906001600160a01b0316610249565b60405163c44b11f760e01b81526001600160a01b038316600482015290929091602083602481875afa92831561034c576000936104f2575b50640fffffffff835160b01c169361044e838561366b565b803b1561039d5760405163f51e435b60e01b81526001600160a01b0383166004820152935160248501526000908490604490829084905af192831561034c577f09808b1fc5abde94edf02fdde393bea0d2e4795999ba31695472848638b5c29f936104d9575b506040805194855260208501929092526001600160a01b03169290819081015b0390a2005b806104e66104ec92612504565b80611333565b386104b4565b61051591935060203d60201161051c575b61050d8183612552565b8101906128bc565b9138610436565b503d610503565b3461039d57604036600319011261039d57600435610540816103a2565b60243561054c816103a2565b61055461354f565b603554610569906001600160a01b0316610249565b6040516335ea6a7560e01b81526001600160a01b03841660048201529091906101e08082602481875afa801561034c576105b9926101609260009261065b575b505001516001600160a01b031690565b92823b1561039d57604051631d2118f960e01b81526001600160a01b03828116600483015283166024820152926000908490604490829084905af192831561034c577fdb8dada53709ce4988154324196790c2e4a60c377e1256790946f83b87db3c3393610648575b50604080516001600160a01b0395861681529285166020840152931692819081016104d4565b806104e661065592612504565b38610622565b61067a9250803d10610681575b6106728183612552565b810190612903565b38806105a9565b503d610668565b6001600160801b0381160361039d57565b3461039d5760208060031936011261039d576004356106b781610688565b6106bf6136cb565b6106de6106ca612a35565b6127106001600160801b0384161115612a9b565b6035546106f3906001600160a01b0316610249565b60405163354ce01b60e11b8152908382600481845afa91821561034c5760009261080e575b5060405163074b2e4360e01b81528481600481855afa94851561034c576000956107df575b5050803b1561039d57604051635e5b729160e11b81526001600160801b03948516600482015293831660248501526000908490604490829084905af192831561034c577fe7e0c75e1fc2d0bd83dc85d59f085b3e763107c392fb368e85572b292f1f5576936107cc575b50604080516001600160801b039283168152929091166020830152819081015b0390a1005b806104e66107d992612504565b386107a7565b6107ff929550803d10610807575b6107f78183612552565b810190612acb565b92388061073d565b503d6107ed565b610826919250843d8611610807576107f78183612552565b9038610718565b3461039d57604036600319011261039d5760043561084a816103a2565b6024359061085661354f565b61086c610861612ae0565b612710841115612a9b565b603554610881906001600160a01b0316610249565b60405163c44b11f760e01b81526001600160a01b038316600482015290929091602083602481875afa92831561034c57600093610957575b5061ffff835160981c16936108ce8385613788565b803b1561039d5760405163f51e435b60e01b81526001600160a01b0383166004820152935160248501526000908490604490829084905af192831561034c577fb5b0a963825337808b6e3154de8e98027595a5cad4219bb3a9bc55b192f4b391936104d957506040805194855260208501929092526001600160a01b03169290819081016104d4565b61097191935060203d60201161051c5761050d8183612552565b91386108b9565b3461039d57602036600319011261039d576004356109946136cb565b6109aa61099f612afe565b612710831115612a9b565b6035546109bf906001600160a01b0316610249565b90604051631396c83960e11b8152602081600481865afa90811561034c57600091610a6b575b50823b1561039d57604051633036b43960e01b815260048101839052926000908490602490829084905af192831561034c577f30b17cb587a89089d003457c432f73e22aeee93de425e92224ba01080260ecd993610a58575b5060408051918252602082019290925290819081016107c7565b806104e6610a6592612504565b38610a3e565b610a8d915060203d602011610a93575b610a858183612552565b810190612b1c565b386109e5565b503d610a7b565b8015150361039d57565b604090600319011261039d57600435610abc816103a2565b90602435610ac981610a9a565b90565b3461039d57610ada36610aa4565b610ae261354f565b603554610af7906001600160a01b0316610249565b60405163c44b11f760e01b81526001600160a01b03841660048201529290602084602481845afa93841561034c57600094610bd5575b50610b3883856137b2565b803b1561039d5760405163f51e435b60e01b81526001600160a01b0383166004820152935160248501526000908490604490829084905af192831561034c577f74adf6aaf58c08bc4f993640385e136522375ea3d1589a10d02adbb906c67d1c93610bc2575b50604080516001600160a01b039092168252911515602082015290819081016107c7565b806104e6610bcf92612504565b38610b9e565b610bef91945060203d60201161051c5761050d8183612552565b9238610b2d565b3461039d57610c0436610aa4565b603454610c19906001600160a01b0316610249565b91604051809363383e6b8b60e11b825281600460209687935afa90811561034c57600091610d14575b50604051637be53ca160e01b8152336004820152936001600160a01b0391909116908085602481855afa94851561034c57600095610cf5575b508415610c99575b5050610c946102d4936102c86137e5565b612c56565b604051631280795b60e11b81523360048201529450908190859060249082905afa801561034c576102d494610c9492600092610cd8575b505093610c83565b610cee9250803d10610345576103368183612552565b3880610cd0565b81610d0d9296503d8711610345576103368183612552565b9338610c7b565b610d2b9150843d8611610396576103888183612552565b38610c42565b3461039d57604036600319011261039d57600435610d4e816103a2565b60243590610d5a61354f565b610d65610861612d58565b603554610d7a906001600160a01b0316610249565b60405163c44b11f760e01b81526001600160a01b038316600482015290929091602083602481875afa92831561034c57600093610e50575b5061ffff835160401c1693610dc78385613835565b803b1561039d5760405163f51e435b60e01b81526001600160a01b0383166004820152935160248501526000908490604490829084905af192831561034c577fb46e2b82b0c2cf3d7d9dece53635e165c53e0eaa7a44f904d61a2b7174826aef936104d957506040805194855260208501929092526001600160a01b03169290819081016104d4565b610e6a91935060203d60201161051c5761050d8183612552565b9138610db2565b3461039d57604036600319011261039d57600435610e8e816103a2565b60243590610e9a61354f565b603554610eaf906001600160a01b0316610249565b60405163c44b11f760e01b81526001600160a01b038316600482015290929091602083602481875afa92831561034c57600093610f88575b50640fffffffff835160741c1693610eff8385613859565b803b1561039d5760405163f51e435b60e01b81526001600160a01b0383166004820152935160248501526000908490604490829084905af192831561034c577f0263602682188540a2d633561c0b4453b7d8566285e99f9f6018b8ef2facef49936104d957506040805194855260208501929092526001600160a01b03169290819081016104d4565b610fa291935060203d60201161051c5761050d8183612552565b9138610ee7565b3461039d57602036600319011261039d57600435610fc6816103a2565b610fce6136cb565b6035546001600160a01b039190821690813b1561039d5760405192839163031e4dc360e51b835216918260048301528160246000958680945af1801561034c5761103b575b507feeec4c06f7adad215cbdb4d2960896c83c26aedce02dde76d36fa28588d62da48280a280f35b806104e661104892612504565b38611013565b3461039d5761105c36610aa4565b9061106561354f565b60355461107a906001600160a01b0316610249565b60405163c44b11f760e01b81526001600160a01b03831660048201529190602083602481845afa92831561034c57600093611176575b50831561115c575b6110c2848461389c565b803b1561039d5760405163f51e435b60e01b81526001600160a01b0383166004820152925160248401526000908390604490829084905af190811561034c577f2443ba28e8d1d88d531a3d90b981816a4f3b3c7f1fd4085c6029e81d1b7a570d926104d492611149575b5060405193151584526001600160a01b0316929081906020820190565b806104e661115692612504565b3861112c565b8251611171906001603b1b16156102c8612d76565b6110b8565b61119091935060203d60201161051c5761050d8183612552565b91386110b0565b6003199060208183011261039d57600435916001600160401b03831161039d578260c09203011261039d5760040190565b3461039d576111d636611197565b6111de6136cb565b603554600091829073__$da92b9d873c4c35978fd8b2518212a498f$__803b1561124a57604051630f5b50e760e41b81529384928391829161122c916001600160a01b031660048401612d94565b03915af4801561034c5761123e575080f35b61124790612504565b80f35b8280fd5b3461039d5760208060031936011261039d5760049081359061126f82610a9a565b6034548190611286906001600160a01b0316610249565b60405163383e6b8b60e11b815294859182905afa92831561034c57600093611314575b50604051631280795b60e11b8152336004820152928190849060249082906001600160a01b03165afa801561034c576102d4936112f2926000926112f7575b50506102c86138cb565b612f09565b61130d9250803d10610345576103368183612552565b38806112e8565b8161132c9294503d8511610396576103888183612552565b91386112a9565b600091031261039d57565b3461039d57600036600319011261039d57602060405160018152f35b3461039d57608036600319011261039d57600435611377816103a2565b602435906044356064359161138a61354f565b61139e611395612fb9565b83861115612a9b565b6035546113b3906001600160a01b0316610249565b60405163c44b11f760e01b81526001600160a01b03831660048201529390602085602481845afa94851561034c576000956114ff575b5083156114df5761141d612710611409611401612fb9565b828611612a9b565b6114138487613a6e565b11156102c8612fb9565b6114278686613a8c565b6114318486613ac2565b61143b8286613afe565b803b1561039d5760405163f51e435b60e01b81526001600160a01b0384166004820152945160248601526000908590604490829084905af190811561034c577f637febbda9275aea2e85c0ff690444c8d87eb2e8339bbede9715abcc89cb0995946104d4926114cc575b5060405193849360018060a01b031696846040919493926060820195825260208201520152565b806104e66114d992612504565b386114a5565b6114f16114ea612fb9565b8315612a9b565b6114fa83613961565b61141d565b61151991955060203d60201161051c5761050d8183612552565b93386113e9565b3461039d5760208060031936011261039d5760043561153e81610688565b6115466136cb565b6115516106ca612a35565b603554611566906001600160a01b0316610249565b60405163074b2e4360e01b8152908382600481845afa91821561034c5760009261165d575b5060405163354ce01b60e11b81528481600481855afa94851561034c5760009561163e575b5050803b1561039d57604051635e5b729160e11b81526001600160801b0384811660048301529490941660248501526000908490604490829084905af192831561034c577f71aba182c9d0529b516de7a78bed74d49c207ef7e152f52f7ea5d8730138f643936107cc5750604080516001600160801b039283168152929091166020830152819081016107c7565b611655929550803d10610807576107f78183612552565b9238806115b0565b611675919250843d8611610807576107f78183612552565b903861158b565b3461039d5761168a36610aa4565b9061169361354f565b6035546116a8906001600160a01b0316610249565b60405163c44b11f760e01b81526001600160a01b03831660048201529190602083602481845afa92831561034c578490600094611790575b50611776575b6116f08484613b3c565b803b1561039d5760405163f51e435b60e01b81526001600160a01b0383166004820152925160248401526000908390604490829084905af190811561034c577f0b64d0941719acd363f1a6be3d8525d8ec9d71738f7445aabcd88d7939b472e7926104d492611149575060405193151584526001600160a01b0316929081906020820190565b61178b6001603a1b84511615156102c8612fd7565b6116e6565b6117aa91945060203d60201161051c5761050d8183612552565b92386116e0565b3461039d576117bf36610aa4565b906117c861354f565b6035546117dd906001600160a01b0316610249565b60405163c44b11f760e01b81526001600160a01b03831660048201529190602083602481845afa92831561034c576000936118a4575b5061181e8484613b6b565b803b1561039d5760405163f51e435b60e01b81526001600160a01b0383166004820152925160248401526000908390604490829084905af190811561034c577f0c4443d258a350d27dc50c378b2ebf165e6469725f786d21b30cab16823f5587926104d492611149575060405193151584526001600160a01b0316929081906020820190565b6118be91935060203d60201161051c5761050d8183612552565b9138611813565b3461039d576118d336610aa4565b90816118dd61354f565b611a05575b6035546118f7906001600160a01b0316610249565b60405163c44b11f760e01b81526001600160a01b038316600482015290929091602083602481875afa92831561034c576000936119e4575b506001603e1b8351161515936119458385613c99565b803b1561039d5760405163f51e435b60e01b81526001600160a01b0383166004820152935160248501526000908490604490829084905af192831561034c577f842a280b07e8e502a9101f32a3b768ebaba3655556dd674f0831900861fc674b936119d1575b5060408051941515855291151560208501526001600160a01b03169290819081016104d4565b806104e66119de92612504565b386119ab565b6119fe91935060203d60201161051c5761050d8183612552565b913861192f565b611a0e81613bbc565b6118e2565b3461039d57611a2136611197565b611a296136cb565b603554600091829073__$da92b9d873c4c35978fd8b2518212a498f$__803b1561124a5760405163b0f0935560e01b81529384928391829161122c916001600160a01b031660048401612d94565b3461039d57604036600319011261039d57600435611a94816103a2565b60243590611aa061354f565b603554611ab5906001600160a01b0316610249565b60405163c44b11f760e01b81526001600160a01b0383166004820152909290602081602481875afa90811561034c57600091611c4e575b5064ffffffffff815160d41c16938415611c40575b611b0b8383613cc8565b803b1561039d5760405163f51e435b60e01b81526001600160a01b0385166004820152915160248301526000908290604490829084905af1801561034c57611c2d575b508015611b9c575b6040805193845260208401919091526001600160a01b03909116917f6824a6c7fbc10d2979b1f1ccf2dd4ed0436541679a661dedb5c10bd4be83068291819081016104d4565b603554611bb1906001600160a01b0316610249565b91823b1561039d5760405163e43e88a160e01b81526001600160a01b0382166004820152926000908490602490829084905af192831561034c577f6824a6c7fbc10d2979b1f1ccf2dd4ed0436541679a661dedb5c10bd4be83068293611c1a575b509150611b56565b806104e6611c2792612504565b38611c12565b806104e6611c3a92612504565b38611b4e565b611c4984613961565b611b01565b611c67915060203d60201161051c5761050d8183612552565b38611aec565b3461039d57611c7b36610aa4565b90611c846136cb565b8115611d88575b603554611ca0906001600160a01b0316610249565b60405163c44b11f760e01b81526001600160a01b03831660048201529190602083602481845afa92831561034c57600093611d67575b50611ce18484613d0e565b803b1561039d5760405163f51e435b60e01b81526001600160a01b0383166004820152925160248401526000908390604490829084905af190811561034c577fc36c7d11ba01a5869d52aa4a3781939dab851cbc9ee6e7fdcedc7d58898a3f1e926104d492611149575060405193151584526001600160a01b0316929081906020820190565b611d8191935060203d60201161051c5761050d8183612552565b9138611cd6565b611d9181613961565b611c8b565b3461039d5760031960203682011261039d57600435906001600160401b03821161039d5760e08260040191833603011261039d57611dd26136cb565b6035546001600160a01b03908116919073__$da92b9d873c4c35978fd8b2518212a498f$__90813b1561039d57600093611ef66040519687958694859463162792d560e31b86526004860152604060248601528135611e30816103a2565b166044850152611e55611e45602484016103b3565b6001600160a01b03166064860152565b611e74611e64604484016103b3565b6001600160a01b03166084860152565b611ee6611e99611e876064850184612573565b60e060a48901526101248801916125a4565b9160c4611ebf611eac6084870184612573565b6043198a88038101858c015296916125a4565b94611edf611ecf60a483016103b3565b6001600160a01b031660e48a0152565b0190612573565b91858403016101048601526125a4565b03915af4801561034c57611f0657005b806104e66102d492612504565b6004359060ff8216820361039d57565b6024359060ff8216820361039d57565b359060ff8216820361039d57565b61ffff81160361039d57565b3461039d5760c036600319011261039d57611f66611f13565b602435611f7281611f41565b60443591611f7f83611f41565b606435611f8b81611f41565b60843590611f98826103a2565b60a435946001600160401b039485871161039d573660238801121561039d57866004013595861161039d57366024878901011161039d5760246102d4970194612ff5565b3461039d57602036600319011261039d57600435611ff9816103a2565b60ff6001541690811591826120c0575b80156120b4575b156120585761202390826120385761338f565b61202957005b6102d460ff1960015416600155565b612049600160ff1981541617600155565b6120536001600055565b61338f565b60405162461bcd60e51b815260206004820152602e60248201527f436f6e747261637420696e7374616e63652068617320616c726561647920626560448201526d195b881a5b9a5d1a585b1a5e995960921b6064820152608490fd5b50600054600111612010565b50303b15612009565b3461039d57604036600319011261039d576004356120e6816103a2565b602435906120f261354f565b603554612107906001600160a01b0316610249565b60405163c44b11f760e01b81526001600160a01b038316600482015290929091602083602481875afa92831561034c576000936121e0575b50640fffffffff835160501c16936121578385613d41565b803b1561039d5760405163f51e435b60e01b81526001600160a01b0383166004820152935160248501526000908490604490829084905af192831561034c577fc51aca575985d521c5072ad11549bad77013bb786d57f30f94b40ed8f8dc9bc4936104d957506040805194855260208501929092526001600160a01b03169290819081016104d4565b6121fa91935060203d60201161051c5761050d8183612552565b913861213f565b3461039d57604036600319011261039d5760043561221e816103a2565b612226611f23565b9061222f61354f565b603554612244906001600160a01b0316610249565b60405163c44b11f760e01b81526001600160a01b038316600482015290929091602083602481875afa92831561034c576000936123b9575b5060ff8216938461233b575b61229a60ff855160a81c169585613d84565b803b1561039d5760405163f51e435b60e01b81526001600160a01b0383166004820152935160248501526000908490604490829084905af192831561034c577f5bb69795b6a2ea222d73a5f8939c23471a1f85a99c7ca43c207f1b71f10c626493612328575b506040805160ff95861681529290941660208301526001600160a01b031692819081016104d4565b806104e661233592612504565b38612300565b604051636c6f6ae160e01b815260ff84166004820152600081602481855afa801561034c57602061237c9161239193600091612396575b50015161ffff1690565b61ffff80875160101c169116116102c86134e2565b612288565b6123b391503d806000833e6123ab8183612552565b810190613448565b38612372565b6123d391935060203d60201161051c5761050d8183612552565b913861227c565b3461039d576123e836610aa4565b906123f161354f565b603554612406906001600160a01b0316610249565b60405163c44b11f760e01b81526001600160a01b03831660048201529190602083602481845afa92831561034c576000936124cd575b506124478484613dbf565b803b1561039d5760405163f51e435b60e01b81526001600160a01b0383166004820152925160248401526000908390604490829084905af190811561034c577fc8ff3cc5b0fddaa3e6ebbbd7438f43393e4ea30e88b80ad016c1bc094655034d926104d492611149575060405193151584526001600160a01b0316929081906020820190565b6124e791935060203d60201161051c5761050d8183612552565b913861243c565b634e487b7160e01b600052604160045260246000fd5b6001600160401b03811161251757604052565b6124ee565b60a081019081106001600160401b0382111761251757604052565b604081019081106001600160401b0382111761251757604052565b90601f801991011681019081106001600160401b0382111761251757604052565b9035601e198236030181121561039d5701602081359101916001600160401b03821161039d57813603831361039d57565b908060209392818452848401376000828201840152601f01601f1916010190565b6001600160a01b03909116815260406020820181905290919082016125e9826103b3565b6001600160a01b03169052612600602082016103b3565b6001600160a01b0316606083015261261a604082016103b3565b6001600160a01b0316608083015261263460608201611f33565b60ff1660a0830152612648608082016103b3565b6001600160a01b031660c083015261266260a082016103b3565b6001600160a01b031660e083015261267c60c082016103b3565b6001600160a01b0316610100808401919091529161269c60e083016103b3565b6001600160a01b0316610120828101919091529282016126bc9083612573565b92906101e0906101409482868601526102208501906126da926125a4565b9482016126e79083612573565b90603f199661016092888783030184880152612702926125a4565b94830161270f9084612573565b9561018096888783030188880152612726926125a4565b9083016127339084612573565b916101a09288878303018488015261274a926125a4565b9483016127579084612573565b956101c09688878303018888015261276e926125a4565b90830161277b9084612573565b909287868403019086015261278f926125a4565b92810161279b91612573565b91909381840301906102000152610ac9926125a4565b6040513d6000823e3d90fd5b60355473__$da92b9d873c4c35978fd8b2518212a498f$__9291906001600160a01b031660005b8381106127f2575050505050565b8060051b830135906101de198436030182121561039d57853b1561039d5760006128339260405180948192636facdc5960e11b8352880187600484016125c5565b0381895af491821561034c5760019261284e575b50016127e4565b806104e661285b92612504565b38612847565b604051906101e082018281106001600160401b0382111761251757604052565b604051906103be8261251c565b919082602091031261039d57604051602081018181106001600160401b038211176125175760405291518252565b9060208282031261039d57610ac99161288e565b51906103be82610688565b519064ffffffffff8216820361039d57565b51906103be82611f41565b51906103be826103a2565b6101e08183031261039d57612920612919612861565b928261288e565b825261292e602082016128d0565b602083015261293f604082016128d0565b6040830152612950606082016128d0565b6060830152612961608082016128d0565b608083015261297260a082016128d0565b60a083015261298360c082016128db565b60c083015261299460e082016128ed565b60e08301526101006129a78183016128f8565b908301526101206129b98183016128f8565b908301526101406129cb8183016128f8565b908301526101606129dd8183016128f8565b908301526101806129ef8183016128d0565b908301526101a0612a018183016128d0565b90830152612a136101c08092016128d0565b9082015290565b6001600160401b03811161251757601f01601f191660200190565b60405190612a4282612537565b6002825261313960f01b6020830152565b60005b838110612a665750506000910152565b8181015183820152602001612a56565b90602091612a8f81518092818552858086019101612a53565b601f01601f1916010190565b15612aa35750565b60405162461bcd60e51b815260206004820152908190612ac7906024830190612a76565b0390fd5b9081602091031261039d5751610ac981610688565b60405190612aed82612537565b6002825261037360f41b6020830152565b60405190612b0b82612537565b6002825261191960f11b6020830152565b9081602091031261039d575190565b603454909190612b43906001600160a01b0316610249565b91604051809363383e6b8b60e11b825281600460209687935afa90811561034c57600091612c39575b50604051637be53ca160e01b8152336004820152936001600160a01b0391909116908085602481855afa94851561034c57600095612c1a575b508415612bbe575b5050610c946103be936102c86137e5565b604051631280795b60e11b81523360048201529450908190859060249082905afa801561034c576103be94610c9492600092612bfd575b505093612bad565b612c139250803d10610345576103368183612552565b3880612bf5565b81612c329296503d8711610345576103368183612552565b9338612ba5565b612c509150843d8611610396576103888183612552565b38612b6c565b603554612c6b906001600160a01b0316610249565b60405163c44b11f760e01b81526001600160a01b03831660048201529190602083602481845afa92831561034c57600093612d37575b50612cac8484613802565b803b1561039d5760405163f51e435b60e01b81526001600160a01b0383166004820152925160248401526000908390604490829084905af190811561034c577fe188d542a5f11925d3a3af33703cdd30a43cb3e8066a3cf68b1b57f61a5a94b592612d3292611149575060405193151584526001600160a01b0316929081906020820190565b0390a2565b612d5191935060203d60201161051c5761050d8183612552565b9138612ca1565b60405190612d6582612537565b6002825261363760f01b6020830152565b60405190612d8382612537565b6002825261070760f31b6020830152565b6001600160a01b03918216815260406020820152610ac9929160e09190808435612dbd816103a2565b1660408301526020840135612dd1816103a2565b166060820152612df9612de76040850185612573565b60c060808501526101008401916125a4565b90612e4b612e21612e0d6060870187612573565b603f19858703810160a087015295916125a4565b94612e41612e31608083016103b3565b6001600160a01b031660c0850152565b60a0810190612573565b939092828603019101526125a4565b90602090818382031261039d5782516001600160401b039384821161039d570181601f8201121561039d578051938411612517578360051b9060405194612ea385840187612552565b8552838086019282010192831161039d578301905b828210612ec6575050505090565b8380918351612ed4816103a2565b815201910190612eb8565b8051821015612ef35760209160051b010190565b634e487b7160e01b600052603260045260246000fd5b6035546004906000906001600160a01b03166040516334651b6f60e21b815292839182905afa90811561034c57600091612f96575b5060005b8151811015612f915780612f6b610249612f5e60019486612edf565b516001600160a01b031690565b612f76575b01612f42565b612f8c84612f87612f5e8487612edf565b612b2b565b612f70565b505050565b612fb391503d806000833e612fab8183612552565b810190612e5a565b38612f3e565b60405190612fc682612537565b6002825261032360f41b6020830152565b60405190612fe482612537565b6002825261033360f41b6020830152565b9193959496909261300461354f565b61301b61300f61328d565b61ffff86161515612a9b565b61303261302661328d565b61ffff87161515612a9b565b61304e61303d61328d565b61ffff871661ffff87161115612a9b565b61308361271061307961ffff841661306f61306761328d565b848311612a9b565b61ffff8916613a6e565b11156102c861328d565b603554613098906001600160a01b0316610249565b95604051986334651b6f60e21b8a5260008a6004818b5afa998a1561034c5760009a613270575b5060005b8a5181101561319857806130dd612f5e61310e938e612edf565b60405163c44b11f760e01b81526001600160a01b039091166004820152602092839082908d90829081906024820190565b03915afa90811561034c5760019360009261317b575b5050805160ff808260a81c16908a1614613141575b5050016130c3565b6131749161316161ffff928c848061315761328d565b9316911611612a9b565b5160101c1661ffff8b16116102c861328d565b3880613139565b6131919250803d1061051c5761050d8183612552565b3880613124565b5091939497909298509594956131ac612881565b61ffff891681529561ffff8816602088015261ffff851660408801526001600160a01b03821660608801526131e23685856132ab565b6080880152803b1561039d5760405163d579ea7d60e01b8152966000918891829084908290613215908c600484016132e2565b03925af193841561034c577f0acf8b4a3cace10779798a89a206a0ae73a71b63acdd3be2801d39c2ef7ab3cb9760ff97612d329661325d575b5060405197889716998761333d565b806104e661326a92612504565b3861324e565b613286919a503d806000833e612fab8183612552565b98386130bf565b6040519061329a82612537565b6002825261323160f01b6020830152565b9291926132b782612a1a565b916132c56040519384612552565b82948184528183011161039d578281602093846000960137010152565b906080610ac99360ff60e0931684526040602085015261ffff8082511660408601528060208301511660608601526040820151168285015260018060a01b0360608201511660a085015201519160a060c08201520190612a76565b61ffff9182168152918116602083015290911660408201526001600160a01b03909116606082015260a060808201819052610ac9939101916125a4565b9081602091031261039d5751610ac9816103a2565b603480546001600160a01b039283166001600160a01b0319918216811790925560405163026b1d5f60e01b8152909291602090829060049082905afa90811561034c576000916133e7575b5016906035541617603555565b613400915060203d602011610396576103888183612552565b386133da565b81601f8201121561039d57805161341c81612a1a565b9261342a6040519485612552565b8184526020828401011161039d57610ac99160208085019101612a53565b9060208282031261039d5781516001600160401b039283821161039d57019060a08282031261039d576040519261347e8461251c565b825161348981611f41565b8452602083015161349981611f41565b602085015260408301516134ac81611f41565b604085015260608301516134bf816103a2565b6060850152608083015190811161039d576134da9201613406565b608082015290565b604051906134ef82612537565b6002825261313760f01b6020830152565b9081602091031261039d5751610ac981610a9a565b6040519061352282612537565b60018252603560f81b6020830152565b6040519061353f82612537565b60018252600d60fa1b6020830152565b603454613564906001600160a01b0316610249565b604051809163383e6b8b60e11b825281600460209485935afa90811561034c5760009161364e575b5060405163674b5e4d60e01b8152336004820152906001600160a01b03168282602481845afa91821561034c5760009261362f575b5081156135d7575b506103be91506102c8613532565b604051637be53ca160e01b815233600482015291508290829060249082905afa90811561034c576103be92600092613612575b5050386135c9565b6136289250803d10610345576103368183612552565b388061360a565b613647919250833d8511610345576103368183612552565b90386135c1565b6136659150823d8411610396576103888183612552565b3861358c565b9061369860405161367b81612537565b60028152611b9960f11b6020820152640fffffffff831115612a9b565b640fffffffff60b01b198251169060b01b179052565b604051906136bb82612537565b60018252603160f81b6020830152565b6034546136e0906001600160a01b0316610249565b604051809163383e6b8b60e11b825281600460209485935afa90811561034c5760009161376b575b50604051637be53ca160e01b8152336004820152908290829060249082906001600160a01b03165afa90811561034c576103be9260009261374e575b50506102c86136ae565b6137649250803d10610345576103368183612552565b3880613744565b6137829150823d8411610396576103888183612552565b38613708565b9061379f613794612ae0565b61ffff831115612a9b565b61ffff60981b198251169060981b179052565b9067200000000000000019825116906000146137d95760ff603d1b60015b603d1b16179052565b60ff603d1b60006137d0565b604051906137f282612537565b60018252603360f81b6020830152565b9067100000000000000019825116906000146138295760ff603c1b60015b603c1b16179052565b60ff603c1b6000613820565b90613841613794612d58565b69ffff0000000000000000198251169060401b179052565b9061388660405161386981612537565b6002815261363960f01b6020820152640fffffffff831115612a9b565b640fffffffff60741b198251169060741b179052565b906001603a1b19825116906000146138bf5760ff603a1b60015b603a1b16179052565b60ff603a1b60006138b6565b604051906138d882612537565b60018252601960f91b6020830152565b91908261018091031261039d5781519160208101519160408201519160608101519160808201519160a08101519160c08201519160e0810151916101008201519161012081015191610ac961016061014084015193016128db565b6040519061395082612537565b6002825261062760f31b6020830152565b6034546004919060209061397d906001600160a01b0316610249565b60405163e860accb60e01b815293849182905afa91821561034c57600092613a49575b506040516335ea6a7560e01b81526001600160a01b0390911660048201529061018090819083908180602481015b03916001600160a01b03165afa801561034c576103be92600092600092613a0c575b5050159081613a03575b506102c8613943565b905015386139fa565b613a2f935080919250903d10613a42575b613a278183612552565b8101906138e8565b50505050505050505091509038806139f0565b503d613a1d565b6139ce919250613a679060203d602011610396576103888183612552565b91906139a0565b8161138819048111158215171561039d576127109102611388010490565b90613ab6604051613a9c81612537565b6002815261363360f01b602082015261ffff831115612a9b565b815161ffff1916179052565b90613aec604051613ad281612537565b60028152610d8d60f21b602082015261ffff831115612a9b565b63ffff0000198251169060101b179052565b90613b28604051613b0e81612537565b6002815261363560f01b602082015261ffff831115612a9b565b65ffff00000000198251169060201b179052565b906001603b1b1982511690600014613b5f5760ff603b1b60015b603b1b16179052565b60ff603b1b6000613b56565b906702000000000000001982511690600014613b925760ff60391b60015b60391b16179052565b60ff60391b6000613b89565b60405190613bab82612537565b6002825261039360f41b6020830152565b603454613bd1906001600160a01b0316610249565b90604051809263e860accb60e01b825281600460209586935afa91821561034c57613c2e928492600091613c7c575b50604051634d44ac4f60e01b81526001600160a01b0390921660048301529092839190829081906024820190565b03916001600160a01b03165afa90811561034c576103be92600092613c5f575b5050613c58613b9e565b9015612a9b565b613c759250803d10610a9357610a858183612552565b3880613c4e565b613c939150833d8511610396576103888183612552565b38613c00565b906001603e1b1982511690600014613cbc5760ff603e1b60015b603e1b16179052565b60ff603e1b6000613cb3565b90613cf5604051613cd881612537565b6002815261373360f01b602082015264ffffffffff831115612a9b565b6001650f000000000160d41b038251169060d41b179052565b906701000000000000001982511690600014613d355760ff60381b60015b60381b16179052565b60ff60381b6000613d2c565b90613d6e604051613d5181612537565b600281526106c760f31b6020820152640fffffffff831115612a9b565b640fffffffff60501b198251169060501b179052565b90613dad604051613d9481612537565b6002815261373160f01b602082015260ff831115612a9b565b60ff60a81b198251169060a81b179052565b906780000000000000001982511690600014613de65760ff603f1b60015b603f1b16179052565b60ff603f1b6000613ddd56fea26469706673582212203af5bce192c49b2b035069b7a6ab5693f1bf9561e6a004ef3fb981611d542ed964736f6c63430008180033",
  "libraries": {
    "ConfiguratorLogic": "0xeeF0662c96022d3cAfDFab84fB6EBa2072a15dFd"
  },
  "devdoc": {
    "author": "Aave",
    "details": "Implements the configuration methods for the Aave protocol",
    "events": {
      "ATokenUpgraded(address,address,address)": {
        "details": "Emitted when an aToken implementation is upgraded.",
        "params": {
          "asset": "The address of the underlying asset of the reserve",
          "implementation": "The new aToken implementation",
          "proxy": "The aToken proxy address"
        }
      },
      "BorrowCapChanged(address,uint256,uint256)": {
        "details": "Emitted when the borrow cap of a reserve is updated.",
        "params": {
          "asset": "The address of the underlying asset of the reserve",
          "newBorrowCap": "The new borrow cap",
          "oldBorrowCap": "The old borrow cap"
        }
      },
      "BorrowableInIsolationChanged(address,bool)": {
        "details": "Emitted when the reserve is set as borrowable/non borrowable in isolation mode.",
        "params": {
          "asset": "The address of the underlying asset of the reserve",
          "borrowable": "True if the reserve is borrowable in isolation, false otherwise"
        }
      },
      "BridgeProtocolFeeUpdated(uint256,uint256)": {
        "details": "Emitted when the bridge protocol fee is updated.",
        "params": {
          "newBridgeProtocolFee": "The new protocol fee, expressed in bps",
          "oldBridgeProtocolFee": "The old protocol fee, expressed in bps"
        }
      },
      "CollateralConfigurationChanged(address,uint256,uint256,uint256)": {
        "details": "Emitted when the collateralization risk parameters for the specified asset are updated.",
        "params": {
          "asset": "The address of the underlying asset of the reserve",
          "liquidationBonus": "The bonus liquidators receive to liquidate this asset",
          "liquidationThreshold": "The threshold at which loans using this asset as collateral will be considered undercollateralized",
          "ltv": "The loan to value of the asset when used as collateral"
        }
      },
      "DebtCeilingChanged(address,uint256,uint256)": {
        "details": "Emitted when the debt ceiling of an asset is set.",
        "params": {
          "asset": "The address of the underlying asset of the reserve",
          "newDebtCeiling": "The new debt ceiling",
          "oldDebtCeiling": "The old debt ceiling"
        }
      },
      "EModeAssetCategoryChanged(address,uint8,uint8)": {
        "details": "Emitted when the category of an asset in eMode is changed.",
        "params": {
          "asset": "The address of the underlying asset of the reserve",
          "newCategoryId": "The new eMode asset category",
          "oldCategoryId": "The old eMode asset category"
        }
      },
      "EModeCategoryAdded(uint8,uint256,uint256,uint256,address,string)": {
        "details": "Emitted when a new eMode category is added.",
        "params": {
          "categoryId": "The new eMode category id",
          "label": "A human readable identifier for the category",
          "liquidationBonus": "The liquidationBonus for the asset category in eMode",
          "liquidationThreshold": "The liquidationThreshold for the asset category in eMode",
          "ltv": "The ltv for the asset category in eMode",
          "oracle": "The optional address of the price oracle specific for this category"
        }
      },
      "FlashloanPremiumToProtocolUpdated(uint128,uint128)": {
        "details": "Emitted when the part of the premium that goes to protocol is updated.",
        "params": {
          "newFlashloanPremiumToProtocol": "The new premium, expressed in bps",
          "oldFlashloanPremiumToProtocol": "The old premium, expressed in bps"
        }
      },
      "FlashloanPremiumTotalUpdated(uint128,uint128)": {
        "details": "Emitted when the total premium on flashloans is updated.",
        "params": {
          "newFlashloanPremiumTotal": "The new premium, expressed in bps",
          "oldFlashloanPremiumTotal": "The old premium, expressed in bps"
        }
      },
      "LiquidationProtocolFeeChanged(address,uint256,uint256)": {
        "details": "Emitted when the liquidation protocol fee of a reserve is updated.",
        "params": {
          "asset": "The address of the underlying asset of the reserve",
          "newFee": "The new liquidation protocol fee, expressed in bps",
          "oldFee": "The old liquidation protocol fee, expressed in bps"
        }
      },
      "ReserveActive(address,bool)": {
        "details": "Emitted when a reserve is activated or deactivated",
        "params": {
          "active": "True if reserve is active, false otherwise",
          "asset": "The address of the underlying asset of the reserve"
        }
      },
      "ReserveBorrowing(address,bool)": {
        "details": "Emitted when borrowing is enabled or disabled on a reserve.",
        "params": {
          "asset": "The address of the underlying asset of the reserve",
          "enabled": "True if borrowing is enabled, false otherwise"
        }
      },
      "ReserveDropped(address)": {
        "details": "Emitted when a reserve is dropped.",
        "params": {
          "asset": "The address of the underlying asset of the reserve"
        }
      },
      "ReserveFactorChanged(address,uint256,uint256)": {
        "details": "Emitted when a reserve factor is updated.",
        "params": {
          "asset": "The address of the underlying asset of the reserve",
          "newReserveFactor": "The new reserve factor, expressed in bps",
          "oldReserveFactor": "The old reserve factor, expressed in bps"
        }
      },
      "ReserveFlashLoaning(address,bool)": {
        "details": "Emitted when flashloans are enabled or disabled on a reserve.",
        "params": {
          "asset": "The address of the underlying asset of the reserve",
          "enabled": "True if flashloans are enabled, false otherwise"
        }
      },
      "ReserveFrozen(address,bool)": {
        "details": "Emitted when a reserve is frozen or unfrozen",
        "params": {
          "asset": "The address of the underlying asset of the reserve",
          "frozen": "True if reserve is frozen, false otherwise"
        }
      },
      "ReserveInitialized(address,address,address,address,address)": {
        "details": "Emitted when a reserve is initialized.",
        "params": {
          "aToken": "The address of the associated aToken contract",
          "asset": "The address of the underlying asset of the reserve",
          "interestRateStrategyAddress": "The address of the interest rate strategy for the reserve",
          "stableDebtToken": "The address of the associated stable rate debt token",
          "variableDebtToken": "The address of the associated variable rate debt token"
        }
      },
      "ReserveInterestRateStrategyChanged(address,address,address)": {
        "details": "Emitted when a reserve interest strategy contract is updated.",
        "params": {
          "asset": "The address of the underlying asset of the reserve",
          "newStrategy": "The address of the new interest strategy contract",
          "oldStrategy": "The address of the old interest strategy contract"
        }
      },
      "ReservePaused(address,bool)": {
        "details": "Emitted when a reserve is paused or unpaused",
        "params": {
          "asset": "The address of the underlying asset of the reserve",
          "paused": "True if reserve is paused, false otherwise"
        }
      },
      "ReserveStableRateBorrowing(address,bool)": {
        "details": "Emitted when stable rate borrowing is enabled or disabled on a reserve",
        "params": {
          "asset": "The address of the underlying asset of the reserve",
          "enabled": "True if stable rate borrowing is enabled, false otherwise"
        }
      },
      "SiloedBorrowingChanged(address,bool,bool)": {
        "details": "Emitted when the the siloed borrowing state for an asset is changed.",
        "params": {
          "asset": "The address of the underlying asset of the reserve",
          "newState": "The new siloed borrowing state",
          "oldState": "The old siloed borrowing state"
        }
      },
      "StableDebtTokenUpgraded(address,address,address)": {
        "details": "Emitted when the implementation of a stable debt token is upgraded.",
        "params": {
          "asset": "The address of the underlying asset of the reserve",
          "implementation": "The new aToken implementation",
          "proxy": "The stable debt token proxy address"
        }
      },
      "SupplyCapChanged(address,uint256,uint256)": {
        "details": "Emitted when the supply cap of a reserve is updated.",
        "params": {
          "asset": "The address of the underlying asset of the reserve",
          "newSupplyCap": "The new supply cap",
          "oldSupplyCap": "The old supply cap"
        }
      },
      "UnbackedMintCapChanged(address,uint256,uint256)": {
        "details": "Emitted when the unbacked mint cap of a reserve is updated.",
        "params": {
          "asset": "The address of the underlying asset of the reserve",
          "newUnbackedMintCap": "The new unbacked mint cap",
          "oldUnbackedMintCap": "The old unbacked mint cap"
        }
      },
      "VariableDebtTokenUpgraded(address,address,address)": {
        "details": "Emitted when the implementation of a variable debt token is upgraded.",
        "params": {
          "asset": "The address of the underlying asset of the reserve",
          "implementation": "The new aToken implementation",
          "proxy": "The variable debt token proxy address"
        }
      }
    },
    "kind": "dev",
    "methods": {
      "configureReserveAsCollateral(address,uint256,uint256,uint256)": {
        "details": "All the values are expressed in bps. A value of 10000, results in 100.00%The `liquidationBonus` is always above 100%. A value of 105% means the liquidator will receive a 5% bonus",
        "params": {
          "asset": "The address of the underlying asset of the reserve",
          "liquidationBonus": "The bonus liquidators receive to liquidate this asset",
          "liquidationThreshold": "The threshold at which loans using this asset as collateral will be considered undercollateralized",
          "ltv": "The loan to value of the asset when used as collateral"
        }
      },
      "dropReserve(address)": {
        "params": {
          "asset": "The address of the reserve to drop"
        }
      },
      "initReserves((address,address,address,uint8,address,address,address,address,string,string,string,string,string,string,bytes)[])": {
        "params": {
          "input": "The array of initialization parameters"
        }
      },
      "setAssetEModeCategory(address,uint8)": {
        "params": {
          "asset": "The address of the underlying asset of the reserve",
          "newCategoryId": "The new category id of the asset"
        }
      },
      "setBorrowCap(address,uint256)": {
        "params": {
          "asset": "The address of the underlying asset of the reserve",
          "newBorrowCap": "The new borrow cap of the reserve"
        }
      },
      "setBorrowableInIsolation(address,bool)": {
        "details": "When this flag is set to true, the asset will be borrowable against isolated collaterals and the borrowed amount will be accumulated in the isolated collateral's total debt exposureOnly assets of the same family (e.g. USD stablecoins) should be borrowable in isolation mode to keep consistency in the debt ceiling calculations",
        "params": {
          "asset": "The address of the underlying asset of the reserve",
          "borrowable": "True if the asset should be borrowable in isolation, false otherwise"
        }
      },
      "setDebtCeiling(address,uint256)": {
        "params": {
          "newDebtCeiling": "The new debt ceiling"
        }
      },
      "setEModeCategory(uint8,uint16,uint16,uint16,address,string)": {
        "details": "If zero is provided as oracle address, the default asset oracles will be used to compute the overall debt and overcollateralization of the users using this category.The new ltv and liquidation threshold must be greater than the base ltvs and liquidation thresholds of all assets within the eMode category",
        "params": {
          "categoryId": "The id of the category to be configured",
          "label": "A label identifying the category",
          "liquidationBonus": "The liquidation bonus associated with the category",
          "liquidationThreshold": "The liquidation threshold associated with the category",
          "ltv": "The ltv associated with the category",
          "oracle": "The oracle associated with the category"
        }
      },
      "setLiquidationProtocolFee(address,uint256)": {
        "params": {
          "asset": "The address of the underlying asset of the reserve",
          "newFee": "The new liquidation protocol fee of the reserve, expressed in bps"
        }
      },
      "setPoolPause(bool)": {
        "params": {
          "paused": "True if protocol needs to be paused, false otherwise"
        }
      },
      "setReserveActive(address,bool)": {
        "params": {
          "active": "True if the reserve needs to be active, false otherwise",
          "asset": "The address of the underlying asset of the reserve"
        }
      },
      "setReserveBorrowing(address,bool)": {
        "details": "Can only be disabled (set to false) if stable borrowing is disabled",
        "params": {
          "asset": "The address of the underlying asset of the reserve",
          "enabled": "True if borrowing needs to be enabled, false otherwise"
        }
      },
      "setReserveFactor(address,uint256)": {
        "params": {
          "asset": "The address of the underlying asset of the reserve",
          "newReserveFactor": "The new reserve factor of the reserve"
        }
      },
      "setReserveFlashLoaning(address,bool)": {
        "params": {
          "asset": "The address of the underlying asset of the reserve",
          "enabled": "True if flashloans need to be enabled, false otherwise"
        }
      },
      "setReserveFreeze(address,bool)": {
        "params": {
          "asset": "The address of the underlying asset of the reserve",
          "freeze": "True if the reserve needs to be frozen, false otherwise"
        }
      },
      "setReserveInterestRateStrategyAddress(address,address)": {
        "params": {
          "asset": "The address of the underlying asset of the reserve",
          "newRateStrategyAddress": "The address of the new interest strategy contract"
        }
      },
      "setReservePause(address,bool)": {
        "params": {
          "asset": "The address of the underlying asset of the reserve",
          "paused": "True if pausing the reserve, false if unpausing"
        }
      },
      "setReserveStableRateBorrowing(address,bool)": {
        "details": "Can only be enabled (set to true) if borrowing is enabled",
        "params": {
          "asset": "The address of the underlying asset of the reserve",
          "enabled": "True if stable rate borrowing needs to be enabled, false otherwise"
        }
      },
      "setSiloedBorrowing(address,bool)": {
        "params": {
          "siloed": "The new siloed borrowing state"
        }
      },
      "setSupplyCap(address,uint256)": {
        "params": {
          "asset": "The address of the underlying asset of the reserve",
          "newSupplyCap": "The new supply cap of the reserve"
        }
      },
      "setUnbackedMintCap(address,uint256)": {
        "params": {
          "asset": "The address of the underlying asset of the reserve",
          "newUnbackedMintCap": "The new unbacked mint cap of the reserve"
        }
      },
      "updateAToken((address,address,address,string,string,address,bytes))": {
        "details": "Updates the aToken implementation for the reserve.",
        "params": {
          "input": "The aToken update parameters"
        }
      },
      "updateBridgeProtocolFee(uint256)": {
        "params": {
          "newBridgeProtocolFee": "The part of the fee sent to the protocol treasury, expressed in bps"
        }
      },
      "updateFlashloanPremiumToProtocol(uint128)": {
        "details": "Expressed in bpsThe premium to protocol is calculated on the total flashloan premium",
        "params": {
          "newFlashloanPremiumToProtocol": "The part of the flashloan premium sent to the protocol treasury"
        }
      },
      "updateFlashloanPremiumTotal(uint128)": {
        "details": "Expressed in bpsThe premium is calculated on the total amount borrowed",
        "params": {
          "newFlashloanPremiumTotal": "The total flashloan premium"
        }
      },
      "updateStableDebtToken((address,address,string,string,address,bytes))": {
        "params": {
          "input": "The stableDebtToken update parameters"
        }
      },
      "updateVariableDebtToken((address,address,string,string,address,bytes))": {
        "params": {
          "input": "The variableDebtToken update parameters"
        }
      }
    },
    "title": "PoolConfigurator",
    "version": 1
  },
  "userdoc": {
    "kind": "user",
    "methods": {
      "configureReserveAsCollateral(address,uint256,uint256,uint256)": {
        "notice": "Configures the reserve collateralization parameters."
      },
      "dropReserve(address)": {
        "notice": "Drops a reserve entirely."
      },
      "initReserves((address,address,address,uint8,address,address,address,address,string,string,string,string,string,string,bytes)[])": {
        "notice": "Initializes multiple reserves."
      },
      "setAssetEModeCategory(address,uint8)": {
        "notice": "Assign an efficiency mode (eMode) category to asset."
      },
      "setBorrowCap(address,uint256)": {
        "notice": "Updates the borrow cap of a reserve."
      },
      "setBorrowableInIsolation(address,bool)": {
        "notice": "Sets the borrowable in isolation flag for the reserve."
      },
      "setDebtCeiling(address,uint256)": {
        "notice": "Sets the debt ceiling for an asset."
      },
      "setEModeCategory(uint8,uint16,uint16,uint16,address,string)": {
        "notice": "Adds a new efficiency mode (eMode) category."
      },
      "setLiquidationProtocolFee(address,uint256)": {
        "notice": "Updates the liquidation protocol fee of reserve."
      },
      "setPoolPause(bool)": {
        "notice": "Pauses or unpauses all the protocol reserves. In the paused state all the protocol interactions are suspended."
      },
      "setReserveActive(address,bool)": {
        "notice": "Activate or deactivate a reserve"
      },
      "setReserveBorrowing(address,bool)": {
        "notice": "Configures borrowing on a reserve."
      },
      "setReserveFactor(address,uint256)": {
        "notice": "Updates the reserve factor of a reserve."
      },
      "setReserveFlashLoaning(address,bool)": {
        "notice": "Enable or disable flashloans on a reserve"
      },
      "setReserveFreeze(address,bool)": {
        "notice": "Freeze or unfreeze a reserve. A frozen reserve doesn't allow any new supply, borrow or rate swap but allows repayments, liquidations, rate rebalances and withdrawals."
      },
      "setReserveInterestRateStrategyAddress(address,address)": {
        "notice": "Sets the interest rate strategy of a reserve."
      },
      "setReservePause(address,bool)": {
        "notice": "Pauses a reserve. A paused reserve does not allow any interaction (supply, borrow, repay, swap interest rate, liquidate, atoken transfers)."
      },
      "setReserveStableRateBorrowing(address,bool)": {
        "notice": "Enable or disable stable rate borrowing on a reserve."
      },
      "setSiloedBorrowing(address,bool)": {
        "notice": "Sets siloed borrowing for an asset"
      },
      "setSupplyCap(address,uint256)": {
        "notice": "Updates the supply cap of a reserve."
      },
      "setUnbackedMintCap(address,uint256)": {
        "notice": "Updates the unbacked mint cap of reserve."
      },
      "updateBridgeProtocolFee(uint256)": {
        "notice": "Updates the bridge fee collected by the protocol reserves."
      },
      "updateFlashloanPremiumToProtocol(uint128)": {
        "notice": "Updates the flash loan premium collected by protocol reserves"
      },
      "updateFlashloanPremiumTotal(uint128)": {
        "notice": "Updates the total flash loan premium. Total flash loan premium consists of two parts: - A part is sent to aToken holders as extra balance - A part is collected by the protocol reserves"
      },
      "updateStableDebtToken((address,address,string,string,address,bytes))": {
        "notice": "Updates the stable debt token implementation for the reserve."
      },
      "updateVariableDebtToken((address,address,string,string,address,bytes))": {
        "notice": "Updates the variable debt token implementation for the asset."
      }
    },
    "version": 1
  },
  "storageLayout": {
    "storage": [
      {
        "astId": 6027,
        "contract": "contracts/lending/core/protocol/pool/PoolConfigurator.sol:PoolConfigurator",
        "label": "lastInitializedRevision",
        "offset": 0,
        "slot": "0",
        "type": "t_uint256"
      },
      {
        "astId": 6030,
        "contract": "contracts/lending/core/protocol/pool/PoolConfigurator.sol:PoolConfigurator",
        "label": "initializing",
        "offset": 0,
        "slot": "1",
        "type": "t_bool"
      },
      {
        "astId": 6100,
        "contract": "contracts/lending/core/protocol/pool/PoolConfigurator.sol:PoolConfigurator",
        "label": "______gap",
        "offset": 0,
        "slot": "2",
        "type": "t_array(t_uint256)50_storage"
      },
      {
        "astId": 19421,
        "contract": "contracts/lending/core/protocol/pool/PoolConfigurator.sol:PoolConfigurator",
        "label": "_addressesProvider",
        "offset": 0,
        "slot": "52",
        "type": "t_contract(IPoolAddressesProvider)3736"
      },
      {
        "astId": 19424,
        "contract": "contracts/lending/core/protocol/pool/PoolConfigurator.sol:PoolConfigurator",
        "label": "_pool",
        "offset": 0,
        "slot": "53",
        "type": "t_contract(IPool)3527"
      }
    ],
    "types": {
      "t_array(t_uint256)50_storage": {
        "base": "t_uint256",
        "encoding": "inplace",
        "label": "uint256[50]",
        "numberOfBytes": "1600"
      },
      "t_bool": {
        "encoding": "inplace",
        "label": "bool",
        "numberOfBytes": "1"
      },
      "t_contract(IPool)3527": {
        "encoding": "inplace",
        "label": "contract IPool",
        "numberOfBytes": "20"
      },
      "t_contract(IPoolAddressesProvider)3736": {
        "encoding": "inplace",
        "label": "contract IPoolAddressesProvider",
        "numberOfBytes": "20"
      },
      "t_uint256": {
        "encoding": "inplace",
        "label": "uint256",
        "numberOfBytes": "32"
      }
    }
  }
}