{
  "address": "0x5551201CaBA73b6DBfA1d8f443058655125E974d",
  "abi": [
    {
      "inputs": [
        {
          "internalType": "address",
          "name": "incentivesController",
          "type": "address"
        },
        {
          "internalType": "address",
          "name": "rewardsAdmin",
          "type": "address"
        },
        {
          "internalType": "address",
          "name": "rewardsVault",
          "type": "address"
        }
      ],
      "stateMutability": "nonpayable",
      "type": "constructor"
    },
    {
      "anonymous": false,
      "inputs": [
        {
          "indexed": true,
          "internalType": "address",
          "name": "caller",
          "type": "address"
        },
        {
          "indexed": true,
          "internalType": "address",
          "name": "token",
          "type": "address"
        },
        {
          "indexed": true,
          "internalType": "address",
          "name": "to",
          "type": "address"
        },
        {
          "indexed": false,
          "internalType": "uint256",
          "name": "amount",
          "type": "uint256"
        }
      ],
      "name": "EmergencyWithdrawal",
      "type": "event"
    },
    {
      "inputs": [
        {
          "internalType": "address",
          "name": "token",
          "type": "address"
        },
        {
          "internalType": "address",
          "name": "to",
          "type": "address"
        },
        {
          "internalType": "uint256",
          "name": "amount",
          "type": "uint256"
        }
      ],
      "name": "emergencyWithdrawal",
      "outputs": [],
      "stateMutability": "nonpayable",
      "type": "function"
    },
    {
      "inputs": [],
      "name": "getIncentivesController",
      "outputs": [
        {
          "internalType": "address",
          "name": "",
          "type": "address"
        }
      ],
      "stateMutability": "view",
      "type": "function"
    },
    {
      "inputs": [],
      "name": "getRewardsAdmin",
      "outputs": [
        {
          "internalType": "address",
          "name": "",
          "type": "address"
        }
      ],
      "stateMutability": "view",
      "type": "function"
    },
    {
      "inputs": [],
      "name": "getRewardsVault",
      "outputs": [
        {
          "internalType": "address",
          "name": "",
          "type": "address"
        }
      ],
      "stateMutability": "view",
      "type": "function"
    },
    {
      "inputs": [
        {
          "internalType": "address",
          "name": "to",
          "type": "address"
        },
        {
          "internalType": "address",
          "name": "reward",
          "type": "address"
        },
        {
          "internalType": "uint256",
          "name": "amount",
          "type": "uint256"
        }
      ],
      "name": "performTransfer",
      "outputs": [
        {
          "internalType": "bool",
          "name": "",
          "type": "bool"
        }
      ],
      "stateMutability": "nonpayable",
      "type": "function"
    }
  ],
  "transactionHash": "0xfe3538ac71db6e8e7b42e9e6193047749a8e711f22e2f4f4c4e780d24b9b5b2f",
  "args": [
    "0x35Fe3cCF702704d11A83a33317764bc4Cd4aA38a",
    "0x53Ae1433Ab4563d7D5a84d27524784837259f105",
    "0x8be82f6e0e96ef6857a1828223F627a55DCf0fd3"
  ],
  "numDeployments": 1,
  "solcInputHash": "76058931534ddb088c0cc35104d985c0",
  "bytecode": "0x60e0346100a757601f61058138819003918201601f19168301916001600160401b038311848410176100ac578084926060946040528339810103126100a757610047816100c2565b906100606040610059602084016100c2565b92016100c2565b9160805260a05260c0526040516104aa90816100d78239608051818181608501526101ee015260a0518181816102360152610363015260c05181818160bc01526103a80152f35b600080fd5b634e487b7160e01b600052604160045260246000fd5b51906001600160a01b03821682036100a75756fe6080604052600436101561001257600080fd5b6000803560e01c90816316beb9821461006a5750806375d26413146100655780638d8e5da714610060578063c62554431461005b5763e23ddec51461005657600080fd5b610392565b61034d565b61021d565b6101d8565b3461019b576100783661019e565b906001600160a01b0390337f000000000000000000000000000000000000000000000000000000000000000083160361015d578116926323b872dd60e01b608052817f0000000000000000000000000000000000000000000000000000000000000000166084521660a45260c45281806064608082855af115610154576100fe906103d7565b1561010f5760405160018152602090f35b60405162461bcd60e51b815260206004820152601960248201527f475076323a206661696c6564207472616e7366657246726f6d000000000000006044820152606490fd5b503d81803e3d90fd5b62461bcd60e51b6080526020608452602060a4527f43414c4c45525f4e4f545f494e43454e54495645535f434f4e54524f4c4c455260c45260646080fd5b80fd5b60609060031901126101d3576001600160a01b039060043582811681036101d3579160243590811681036101d3579060443590565b600080fd5b346101d35760003660031901126101d3576040517f00000000000000000000000000000000000000000000000000000000000000006001600160a01b03168152602090f35b346101d35761022b3661019e565b6001600160a01b03907f000000000000000000000000000000000000000000000000000000000000000082163303610313578160449416916040519363a9059cbb60e01b8552169283600482015281602482015260008095819282865af11561030a57610297826103d7565b156102cd5760405190815233907f7dc4ea712e6400e67a5abca1a983e5c420c386c19936dc120cd860b50b8e257990602090a480f35b60405162461bcd60e51b815260206004820152601560248201527423a83b191d103330b4b632b2103a3930b739b332b960591b6044820152606490fd5b833d81803e3d90fd5b60405162461bcd60e51b815260206004820152601260248201527127a7262cafa922aba0a92229afa0a226a4a760711b6044820152606490fd5b346101d35760003660031901126101d3576040517f00000000000000000000000000000000000000000000000000000000000000006001600160a01b03168152602090f35b346101d35760003660031901126101d3576040517f00000000000000000000000000000000000000000000000000000000000000006001600160a01b03168152602090f35b3d90811561043257506020146104255762461bcd60e51b6000526020600452601f6024527f475076323a206d616c666f726d6564207472616e7366657220726573756c740060445260646000fd5b3d6000803e600051151590565b90503b1561043f57600190565b62461bcd60e51b600052602060045260146024527311d41d8c8e881b9bdd08184818dbdb9d1c9858dd60621b60445260646000fdfea2646970667358221220e274758b3f18f98a1225d4f7748426eb15366464255217f99d91889058dff7ff64736f6c63430008180033",
  "devdoc": {
    "author": "Aave*",
    "kind": "dev",
    "methods": {
      "emergencyWithdrawal(address,address,uint256)": {
        "details": "Perform an emergency token withdrawal only callable by the Rewards admin",
        "params": {
          "amount": "Amount of the withdrawal",
          "to": "Address of the recipient of the withdrawal",
          "token": "Address of the token to withdraw funds from this contract"
        }
      },
      "getIncentivesController()": {
        "returns": {
          "_0": "Returns the address of the Incentives Controller"
        }
      },
      "getRewardsAdmin()": {
        "returns": {
          "_0": "Returns the address of the Rewards admin"
        }
      },
      "getRewardsVault()": {
        "returns": {
          "_0": "Address of the rewards vault"
        }
      },
      "performTransfer(address,address,uint256)": {
        "details": "Perform custom transfer logic via delegate call from source contract to a TransferStrategy implementation",
        "params": {
          "amount": "Amount to transfer to the \"to\" address parameter",
          "reward": "Address of the reward token",
          "to": "Account to transfer rewards"
        },
        "returns": {
          "_0": "Returns true bool if transfer logic succeeds"
        }
      }
    },
    "title": "PullRewardsTransferStrategy",
    "version": 1
  },
  "userdoc": {
    "kind": "user",
    "methods": {},
    "notice": "Transfer strategy that pulls ERC20 rewards from an external account to the user address. The external account could be a smart contract or EOA that must approve to the PullRewardsTransferStrategy contract address.",
    "version": 1
  },
  "storageLayout": {
    "storage": [],
    "types": null
  }
}