{
  "address": "0x538Cf3b86Cc23fe0c51A4239Fa692E193CbA8ED6",
  "abi": [
    {
      "inputs": [
        {
          "internalType": "address",
          "name": "_collateralVault",
          "type": "address"
        },
        {
          "internalType": "address",
          "name": "_dusd",
          "type": "address"
        },
        {
          "internalType": "contract IPriceOracleGetter",
          "name": "_oracle",
          "type": "address"
        }
      ],
      "stateMutability": "nonpayable",
      "type": "constructor"
    },
    {
      "inputs": [],
      "name": "AccessControlBadConfirmation",
      "type": "error"
    },
    {
      "inputs": [
        {
          "internalType": "address",
          "name": "account",
          "type": "address"
        },
        {
          "internalType": "bytes32",
          "name": "neededRole",
          "type": "bytes32"
        }
      ],
      "name": "AccessControlUnauthorizedAccount",
      "type": "error"
    },
    {
      "inputs": [],
      "name": "DUSDTransferFailed",
      "type": "error"
    },
    {
      "inputs": [
        {
          "internalType": "uint256",
          "name": "baseCurrencyUnit",
          "type": "uint256"
        }
      ],
      "name": "IncorrectBaseCurrencyUnit",
      "type": "error"
    },
    {
      "inputs": [
        {
          "internalType": "uint256",
          "name": "actualCollateral",
          "type": "uint256"
        },
        {
          "internalType": "uint256",
          "name": "minCollateral",
          "type": "uint256"
        }
      ],
      "name": "SlippageTooHigh",
      "type": "error"
    },
    {
      "anonymous": false,
      "inputs": [
        {
          "indexed": true,
          "internalType": "address",
          "name": "newOracle",
          "type": "address"
        }
      ],
      "name": "OracleSet",
      "type": "event"
    },
    {
      "anonymous": false,
      "inputs": [
        {
          "indexed": true,
          "internalType": "bytes32",
          "name": "role",
          "type": "bytes32"
        },
        {
          "indexed": true,
          "internalType": "bytes32",
          "name": "previousAdminRole",
          "type": "bytes32"
        },
        {
          "indexed": true,
          "internalType": "bytes32",
          "name": "newAdminRole",
          "type": "bytes32"
        }
      ],
      "name": "RoleAdminChanged",
      "type": "event"
    },
    {
      "anonymous": false,
      "inputs": [
        {
          "indexed": true,
          "internalType": "bytes32",
          "name": "role",
          "type": "bytes32"
        },
        {
          "indexed": true,
          "internalType": "address",
          "name": "account",
          "type": "address"
        },
        {
          "indexed": true,
          "internalType": "address",
          "name": "sender",
          "type": "address"
        }
      ],
      "name": "RoleGranted",
      "type": "event"
    },
    {
      "anonymous": false,
      "inputs": [
        {
          "indexed": true,
          "internalType": "bytes32",
          "name": "role",
          "type": "bytes32"
        },
        {
          "indexed": true,
          "internalType": "address",
          "name": "account",
          "type": "address"
        },
        {
          "indexed": true,
          "internalType": "address",
          "name": "sender",
          "type": "address"
        }
      ],
      "name": "RoleRevoked",
      "type": "event"
    },
    {
      "inputs": [],
      "name": "DEFAULT_ADMIN_ROLE",
      "outputs": [
        {
          "internalType": "bytes32",
          "name": "",
          "type": "bytes32"
        }
      ],
      "stateMutability": "view",
      "type": "function"
    },
    {
      "inputs": [],
      "name": "REDEMPTION_MANAGER_ROLE",
      "outputs": [
        {
          "internalType": "bytes32",
          "name": "",
          "type": "bytes32"
        }
      ],
      "stateMutability": "view",
      "type": "function"
    },
    {
      "inputs": [],
      "name": "USD_UNIT",
      "outputs": [
        {
          "internalType": "uint256",
          "name": "",
          "type": "uint256"
        }
      ],
      "stateMutability": "view",
      "type": "function"
    },
    {
      "inputs": [],
      "name": "baseCurrencyUnit",
      "outputs": [
        {
          "internalType": "uint256",
          "name": "",
          "type": "uint256"
        }
      ],
      "stateMutability": "view",
      "type": "function"
    },
    {
      "inputs": [],
      "name": "collateralVault",
      "outputs": [
        {
          "internalType": "contract CollateralVault",
          "name": "",
          "type": "address"
        }
      ],
      "stateMutability": "view",
      "type": "function"
    },
    {
      "inputs": [],
      "name": "dusd",
      "outputs": [
        {
          "internalType": "contract IERC20Stablecoin",
          "name": "",
          "type": "address"
        }
      ],
      "stateMutability": "view",
      "type": "function"
    },
    {
      "inputs": [
        {
          "internalType": "uint256",
          "name": "dusdAmount",
          "type": "uint256"
        }
      ],
      "name": "dusdAmountToUsdValue",
      "outputs": [
        {
          "internalType": "uint256",
          "name": "",
          "type": "uint256"
        }
      ],
      "stateMutability": "view",
      "type": "function"
    },
    {
      "inputs": [],
      "name": "dusdDecimals",
      "outputs": [
        {
          "internalType": "uint8",
          "name": "",
          "type": "uint8"
        }
      ],
      "stateMutability": "view",
      "type": "function"
    },
    {
      "inputs": [
        {
          "internalType": "bytes32",
          "name": "role",
          "type": "bytes32"
        }
      ],
      "name": "getRoleAdmin",
      "outputs": [
        {
          "internalType": "bytes32",
          "name": "",
          "type": "bytes32"
        }
      ],
      "stateMutability": "view",
      "type": "function"
    },
    {
      "inputs": [
        {
          "internalType": "bytes32",
          "name": "role",
          "type": "bytes32"
        },
        {
          "internalType": "address",
          "name": "account",
          "type": "address"
        }
      ],
      "name": "grantRole",
      "outputs": [],
      "stateMutability": "nonpayable",
      "type": "function"
    },
    {
      "inputs": [
        {
          "internalType": "bytes32",
          "name": "role",
          "type": "bytes32"
        },
        {
          "internalType": "address",
          "name": "account",
          "type": "address"
        }
      ],
      "name": "hasRole",
      "outputs": [
        {
          "internalType": "bool",
          "name": "",
          "type": "bool"
        }
      ],
      "stateMutability": "view",
      "type": "function"
    },
    {
      "inputs": [],
      "name": "oracle",
      "outputs": [
        {
          "internalType": "contract IPriceOracleGetter",
          "name": "",
          "type": "address"
        }
      ],
      "stateMutability": "view",
      "type": "function"
    },
    {
      "inputs": [
        {
          "internalType": "uint256",
          "name": "dusdAmount",
          "type": "uint256"
        },
        {
          "internalType": "address",
          "name": "collateralAsset",
          "type": "address"
        },
        {
          "internalType": "uint256",
          "name": "minCollateral",
          "type": "uint256"
        }
      ],
      "name": "redeem",
      "outputs": [],
      "stateMutability": "nonpayable",
      "type": "function"
    },
    {
      "inputs": [
        {
          "internalType": "bytes32",
          "name": "role",
          "type": "bytes32"
        },
        {
          "internalType": "address",
          "name": "callerConfirmation",
          "type": "address"
        }
      ],
      "name": "renounceRole",
      "outputs": [],
      "stateMutability": "nonpayable",
      "type": "function"
    },
    {
      "inputs": [
        {
          "internalType": "bytes32",
          "name": "role",
          "type": "bytes32"
        },
        {
          "internalType": "address",
          "name": "account",
          "type": "address"
        }
      ],
      "name": "revokeRole",
      "outputs": [],
      "stateMutability": "nonpayable",
      "type": "function"
    },
    {
      "inputs": [
        {
          "internalType": "uint256",
          "name": "_newBaseCurrencyUnit",
          "type": "uint256"
        }
      ],
      "name": "setBaseCurrencyUnit",
      "outputs": [],
      "stateMutability": "nonpayable",
      "type": "function"
    },
    {
      "inputs": [
        {
          "internalType": "address",
          "name": "_collateralVault",
          "type": "address"
        }
      ],
      "name": "setCollateralVault",
      "outputs": [],
      "stateMutability": "nonpayable",
      "type": "function"
    },
    {
      "inputs": [
        {
          "internalType": "contract IPriceOracleGetter",
          "name": "newOracle",
          "type": "address"
        }
      ],
      "name": "setOracle",
      "outputs": [],
      "stateMutability": "nonpayable",
      "type": "function"
    },
    {
      "inputs": [
        {
          "internalType": "bytes4",
          "name": "interfaceId",
          "type": "bytes4"
        }
      ],
      "name": "supportsInterface",
      "outputs": [
        {
          "internalType": "bool",
          "name": "",
          "type": "bool"
        }
      ],
      "stateMutability": "view",
      "type": "function"
    }
  ],
  "transactionHash": "0xe03369420ce2742131af57c3198f8598952b55916609889ef4a4c4dab68582e8",
  "args": [
    "0xDEDdcd6bC95D317Af8B84523E1D8a1345A6C2602",
    "0x4D6E79013212F10A026A1FB0b926C9Fd0432b96c",
    "0xa741BA2830cbF7A3432D96A6e188af0132792Cb9"
  ],
  "numDeployments": 1,
  "solcInputHash": "8c1b71c0cb2d431669c790fca2357f85",
  "bytecode": "0x60c060409080825234620001c35760608162000e33803803809162000025828562000232565b833981010312620001c3576200003b816200026c565b602091836200004c8483016200026c565b9101516001600160a01b03928382169291839003620001c35783859260049560018060a01b031993868560015416176001556305f5e100600255620000913362000281565b501683875416178655168091600354161760035585519384809263313ce56760e01b82525afa90811562000227578391600090620001db575b6080528451638c89b64f60e01b81529250829060049082905afa908115620001d05760009162000198575b5060a052620001043362000281565b5060008051602062000e1383398151915260005260008152600182600020015490816000528260002090336000525260ff826000205416156200017c57506200014d3362000301565b5051610a609081620003938239608051818181610602015261080b015260a05181818161072101526107d70152f35b604491519063e2517d3f60e01b82523360048301526024820152fd5b90508181813d8311620001c8575b620001b2818362000232565b81010312620001c3575138620000f5565b600080fd5b503d620001a6565b83513d6000823e3d90fd5b9183819492943d83116200021f575b620001f6818362000232565b810103126200021b57519060ff821682036200021857506004918391620000ca565b80fd5b5080fd5b503d620001ea565b84513d6000823e3d90fd5b601f909101601f19168101906001600160401b038211908210176200025657604052565b634e487b7160e01b600052604160045260246000fd5b51906001600160a01b0382168203620001c357565b6001600160a01b031660008181527fad3228b676f7d3cd4284a5443f17f1962b36e491b30a40b2405849e597ba5fb5602052604081205490919060ff16620002fd57818052816020526040822081835260205260408220600160ff19825416179055339160008051602062000df38339815191528180a4600190565b5090565b6001600160a01b031660008181527f44fc73d2262b57a66d75404c7d11906326ef0260bbf18c0d8a6b3309e74a0523602052604081205490919060008051602062000e138339815191529060ff166200038d57808352826020526040832082845260205260408320600160ff1982541617905560008051602062000df3833981519152339380a4600190565b50509056fe608060408181526004918236101561001657600080fd5b600092833560e01c91826301ffc9a71461076c575081630bece79c146107445781631baf72bf146107095781631c364f7f146106e2578163248a9ca3146106b85781632f2ff15d1461068e57816336568abe146106485781634a0bbabb1461062657816352816b68146105e857816368a806c4146105a75781637adbf973146104b25781637dc0d1d0146104895781638ade91ec1461044e57816391d1485414610408578163a217fddf146103ed578163d547741f146103aa578163d87801611461013f57508063de1409ce146101175763f3bddde1146100f657600080fd5b346101135781600319360112610113576020906002549051908152f35b5080fd5b503461011357816003193601126101135760035490516001600160a01b039091168152602090f35b8383346101135760603660031901126101135782359061015d6107bf565b916044928335907fe5bea7d829f723a95a0c83a655765be37702fa584514c1e2a20867d04b58478e91828752602092878452858820338952845260ff86892054161561038d575060035485516323b872dd60e01b815233818b01523060248201528088018690526001600160a01b0395918590829060649082908d908b165af1908115610339578991610357575b5015610347578460035416803b1561034357888260248c838b519586948593630852cd8d60e31b85528401525af1801561033957610324575b5061022e906107d5565b938089541692865195632e11f7b760e11b87528a870152169384602482015283818881865afa93841561031a5788946102e5575b50508083106102ca57508596813b156102c6578660649281958751988996879563627160f360e11b8752339087015260248601528401525af19081156102bd57506102aa5750f35b6102b39061086d565b6102ba5780f35b80fd5b513d84823e3d90fd5b8680fd5b92505085925192633b5d56ed60e11b84528301526024820152fd5b9080929450813d8311610313575b6102fd8183610897565b8101031261030e5751918880610262565b600080fd5b503d6102f3565b86513d8a823e3d90fd5b9761033261022e929961086d565b9790610224565b87513d8b823e3d90fd5b8880fd5b8551634815f5ed60e01b81528990fd5b90508481813d8311610386575b61036e8183610897565b8101031261034357518015158103610343578a6101eb565b503d610364565b855163e2517d3f60e01b815233818b015260248101919091528690fd5b919050346103e957806003193601126103e9576103e591356103e060016103cf6107bf565b938387528660205286200154610911565b6109b5565b5080f35b8280fd5b50503461011357816003193601126101135751908152602090f35b9050346103e957816003193601126103e9578160209360ff926104296107bf565b903582528186528282206001600160a01b039091168252855220549151911615158152f35b505034610113578160031936011261011357602090517fe5bea7d829f723a95a0c83a655765be37702fa584514c1e2a20867d04b58478e8152f35b50503461011357816003193601126101135760015490516001600160a01b039091168152602090f35b9050346103e95760203660031901126103e95780356001600160a01b03811692908390036105a3576104e26108b9565b8051638c89b64f60e01b8152906020828481875afa918215610599578592610561575b5060025480920361054c575050600180546001600160a01b03191683179055507f3f32684a32a11dabdbb8c0177de80aa3ae36a004d75210335b49e544e48cd0aa8280a280f35b51639b6812b960e01b81529182015260249150fd5b9091506020813d602011610591575b8161057d60209383610897565b8101031261058d57519038610505565b8480fd5b3d9150610570565b81513d87823e3d90fd5b8380fd5b8390346101135760203660031901126101135780356001600160a01b038116908190036103e9576105d66108b9565b81546001600160a01b03191617905580f35b5050346101135781600319360112610113576020905160ff7f0000000000000000000000000000000000000000000000000000000000000000168152f35b839034610113576020366003190112610113576106416108b9565b3560025580f35b8383346101135780600319360112610113576106626107bf565b90336001600160a01b0383160361067f57506103e59192356109b5565b5163334bd91960e11b81528390fd5b919050346103e957806003193601126103e9576103e591356106b360016103cf6107bf565b610937565b9050346103e95760203660031901126103e957816020936001923581528085522001549051908152f35b8284346102ba5760203660031901126102ba5750610702602092356107d5565b9051908152f35b505034610113578160031936011261011357602090517f00000000000000000000000000000000000000000000000000000000000000008152f35b9050346103e957826003193601126103e9575490516001600160a01b03909116815260209150f35b8491346103e95760203660031901126103e9573563ffffffff60e01b81168091036103e95760209250637965db0b60e01b81149081156107ae575b5015158152f35b6301ffc9a760e01b149050836107a7565b602435906001600160a01b038216820361030e57565b7f0000000000000000000000000000000000000000000000000000000000000000908181029181830414901517156108575760ff7f000000000000000000000000000000000000000000000000000000000000000016604d811161085757600a0a908115610841570490565b634e487b7160e01b600052601260045260246000fd5b634e487b7160e01b600052601160045260246000fd5b67ffffffffffffffff811161088157604052565b634e487b7160e01b600052604160045260246000fd5b90601f8019910116810190811067ffffffffffffffff82111761088157604052565b3360009081527fad3228b676f7d3cd4284a5443f17f1962b36e491b30a40b2405849e597ba5fb5602052604081205460ff16156108f35750565b6044906040519063e2517d3f60e01b82523360048301526024820152fd5b80600052600060205260406000203360005260205260ff60406000205416156108f35750565b9060009180835282602052604083209160018060a01b03169182845260205260ff604084205416156000146109b057808352826020526040832082845260205260408320600160ff198254161790557f2f8788117e7eff1d82e926ec794901d17c78024a50270940304540a733656f0d339380a4600190565b505090565b9060009180835282602052604083209160018060a01b03169182845260205260ff6040842054166000146109b05780835282602052604083208284526020526040832060ff1981541690557ff6391f5c32d9c69d2a47ea670b442974b53935d1edc7fd64eb21e047a839171b339380a460019056fea2646970667358221220ae49fa6de21378e0d99bdd51e281cc4d7e5955c122c6a072c013ed1439815b5564736f6c634300081800332f8788117e7eff1d82e926ec794901d17c78024a50270940304540a733656f0de5bea7d829f723a95a0c83a655765be37702fa584514c1e2a20867d04b58478e",
  "devdoc": {
    "errors": {
      "AccessControlBadConfirmation()": [
        {
          "details": "The caller of a function is not the expected one. NOTE: Don't confuse with {AccessControlUnauthorizedAccount}."
        }
      ],
      "AccessControlUnauthorizedAccount(address,bytes32)": [
        {
          "details": "The `account` is missing a role."
        }
      ]
    },
    "events": {
      "RoleAdminChanged(bytes32,bytes32,bytes32)": {
        "details": "Emitted when `newAdminRole` is set as ``role``'s admin role, replacing `previousAdminRole` `DEFAULT_ADMIN_ROLE` is the starting admin for all roles, despite {RoleAdminChanged} not being emitted signaling this."
      },
      "RoleGranted(bytes32,address,address)": {
        "details": "Emitted when `account` is granted `role`. `sender` is the account that originated the contract call, an admin role bearer except when using {AccessControl-_setupRole}."
      },
      "RoleRevoked(bytes32,address,address)": {
        "details": "Emitted when `account` is revoked `role`. `sender` is the account that originated the contract call:   - if using `revokeRole`, it is the admin role bearer   - if using `renounceRole`, it is the role bearer (i.e. `account`)"
      }
    },
    "kind": "dev",
    "methods": {
      "constructor": {
        "details": "Sets up initial roles and configuration for redemption functionality",
        "params": {
          "_collateralVault": "The address of the collateral vault",
          "_dusd": "The address of the dUSD stablecoin",
          "_oracle": "The address of the price oracle"
        }
      },
      "dusdAmountToUsdValue(uint256)": {
        "params": {
          "dusdAmount": "The amount of dUSD tokens to convert"
        },
        "returns": {
          "_0": "The equivalent USD value"
        }
      },
      "getRoleAdmin(bytes32)": {
        "details": "Returns the admin role that controls `role`. See {grantRole} and {revokeRole}. To change a role's admin, use {_setRoleAdmin}."
      },
      "grantRole(bytes32,address)": {
        "details": "Grants `role` to `account`. If `account` had not been already granted `role`, emits a {RoleGranted} event. Requirements: - the caller must have ``role``'s admin role. May emit a {RoleGranted} event."
      },
      "hasRole(bytes32,address)": {
        "details": "Returns `true` if `account` has been granted `role`."
      },
      "redeem(uint256,address,uint256)": {
        "params": {
          "collateralAsset": "The address of the collateral asset",
          "dusdAmount": "The amount of dUSD to redeem",
          "minCollateral": "The minimum amount of collateral to receive, used for slippage protection"
        }
      },
      "renounceRole(bytes32,address)": {
        "details": "Revokes `role` from the calling account. Roles are often managed via {grantRole} and {revokeRole}: this function's purpose is to provide a mechanism for accounts to lose their privileges if they are compromised (such as when a trusted device is misplaced). If the calling account had been revoked `role`, emits a {RoleRevoked} event. Requirements: - the caller must be `callerConfirmation`. May emit a {RoleRevoked} event."
      },
      "revokeRole(bytes32,address)": {
        "details": "Revokes `role` from `account`. If `account` had been granted `role`, emits a {RoleRevoked} event. Requirements: - the caller must have ``role``'s admin role. May emit a {RoleRevoked} event."
      },
      "setBaseCurrencyUnit(uint256)": {
        "details": "Only used if the oracle's base currency unit changes",
        "params": {
          "_newBaseCurrencyUnit": "The new base currency unit to set"
        }
      },
      "setCollateralVault(address)": {
        "params": {
          "_collateralVault": "The address of the new collateral vault"
        }
      },
      "setOracle(address)": {
        "params": {
          "newOracle": "The new oracle to use"
        }
      },
      "supportsInterface(bytes4)": {
        "details": "See {IERC165-supportsInterface}."
      }
    },
    "version": 1
  },
  "userdoc": {
    "kind": "user",
    "methods": {
      "constructor": {
        "notice": "Initializes the Redeemer contract"
      },
      "dusdAmountToUsdValue(uint256)": {
        "notice": "Converts an amount of dUSD tokens to its equivalent USD value"
      },
      "redeem(uint256,address,uint256)": {
        "notice": "Redeems dUSD tokens for collateral from the caller"
      },
      "setBaseCurrencyUnit(uint256)": {
        "notice": "Updates the base currency unit used for price calculations"
      },
      "setCollateralVault(address)": {
        "notice": "Sets the collateral vault address"
      },
      "setOracle(address)": {
        "notice": "Sets the oracle to use for collateral valuation"
      }
    },
    "version": 1
  },
  "storageLayout": {
    "storage": [
      {
        "astId": 26,
        "contract": "contracts/dusd/Redeemer.sol:Redeemer",
        "label": "_roles",
        "offset": 0,
        "slot": "0",
        "type": "t_mapping(t_bytes32,t_struct(RoleData)21_storage)"
      },
      {
        "astId": 7017,
        "contract": "contracts/dusd/Redeemer.sol:Redeemer",
        "label": "oracle",
        "offset": 0,
        "slot": "1",
        "type": "t_contract(IPriceOracleGetter)10043"
      },
      {
        "astId": 7019,
        "contract": "contracts/dusd/Redeemer.sol:Redeemer",
        "label": "baseCurrencyUnit",
        "offset": 0,
        "slot": "2",
        "type": "t_uint256"
      },
      {
        "astId": 7113,
        "contract": "contracts/dusd/Redeemer.sol:Redeemer",
        "label": "dusd",
        "offset": 0,
        "slot": "3",
        "type": "t_contract(IERC20Stablecoin)10092"
      },
      {
        "astId": 7118,
        "contract": "contracts/dusd/Redeemer.sol:Redeemer",
        "label": "collateralVault",
        "offset": 0,
        "slot": "4",
        "type": "t_contract(CollateralVault)5660"
      }
    ],
    "types": {
      "t_address": {
        "encoding": "inplace",
        "label": "address",
        "numberOfBytes": "20"
      },
      "t_bool": {
        "encoding": "inplace",
        "label": "bool",
        "numberOfBytes": "1"
      },
      "t_bytes32": {
        "encoding": "inplace",
        "label": "bytes32",
        "numberOfBytes": "32"
      },
      "t_contract(CollateralVault)5660": {
        "encoding": "inplace",
        "label": "contract CollateralVault",
        "numberOfBytes": "20"
      },
      "t_contract(IERC20Stablecoin)10092": {
        "encoding": "inplace",
        "label": "contract IERC20Stablecoin",
        "numberOfBytes": "20"
      },
      "t_contract(IPriceOracleGetter)10043": {
        "encoding": "inplace",
        "label": "contract IPriceOracleGetter",
        "numberOfBytes": "20"
      },
      "t_mapping(t_address,t_bool)": {
        "encoding": "mapping",
        "key": "t_address",
        "label": "mapping(address => bool)",
        "numberOfBytes": "32",
        "value": "t_bool"
      },
      "t_mapping(t_bytes32,t_struct(RoleData)21_storage)": {
        "encoding": "mapping",
        "key": "t_bytes32",
        "label": "mapping(bytes32 => struct AccessControl.RoleData)",
        "numberOfBytes": "32",
        "value": "t_struct(RoleData)21_storage"
      },
      "t_struct(RoleData)21_storage": {
        "encoding": "inplace",
        "label": "struct AccessControl.RoleData",
        "members": [
          {
            "astId": 18,
            "contract": "contracts/dusd/Redeemer.sol:Redeemer",
            "label": "hasRole",
            "offset": 0,
            "slot": "0",
            "type": "t_mapping(t_address,t_bool)"
          },
          {
            "astId": 20,
            "contract": "contracts/dusd/Redeemer.sol:Redeemer",
            "label": "adminRole",
            "offset": 0,
            "slot": "1",
            "type": "t_bytes32"
          }
        ],
        "numberOfBytes": "64"
      },
      "t_uint256": {
        "encoding": "inplace",
        "label": "uint256",
        "numberOfBytes": "32"
      }
    }
  }
}