{
  "address": "0xcD7302D72ea486073efacd74A18D8f791457827D",
  "abi": [
    {
      "inputs": [
        {
          "internalType": "contract IPoolAddressesProvider",
          "name": "provider",
          "type": "address"
        },
        {
          "internalType": "uint256",
          "name": "optimalUsageRatio",
          "type": "uint256"
        },
        {
          "internalType": "uint256",
          "name": "baseVariableBorrowRate",
          "type": "uint256"
        },
        {
          "internalType": "uint256",
          "name": "variableRateSlope1",
          "type": "uint256"
        },
        {
          "internalType": "uint256",
          "name": "variableRateSlope2",
          "type": "uint256"
        },
        {
          "internalType": "uint256",
          "name": "stableRateSlope1",
          "type": "uint256"
        },
        {
          "internalType": "uint256",
          "name": "stableRateSlope2",
          "type": "uint256"
        },
        {
          "internalType": "uint256",
          "name": "baseStableRateOffset",
          "type": "uint256"
        },
        {
          "internalType": "uint256",
          "name": "stableRateExcessOffset",
          "type": "uint256"
        },
        {
          "internalType": "uint256",
          "name": "optimalStableToTotalDebtRatio",
          "type": "uint256"
        }
      ],
      "stateMutability": "nonpayable",
      "type": "constructor"
    },
    {
      "inputs": [],
      "name": "ADDRESSES_PROVIDER",
      "outputs": [
        {
          "internalType": "contract IPoolAddressesProvider",
          "name": "",
          "type": "address"
        }
      ],
      "stateMutability": "view",
      "type": "function"
    },
    {
      "inputs": [],
      "name": "MAX_EXCESS_STABLE_TO_TOTAL_DEBT_RATIO",
      "outputs": [
        {
          "internalType": "uint256",
          "name": "",
          "type": "uint256"
        }
      ],
      "stateMutability": "view",
      "type": "function"
    },
    {
      "inputs": [],
      "name": "MAX_EXCESS_USAGE_RATIO",
      "outputs": [
        {
          "internalType": "uint256",
          "name": "",
          "type": "uint256"
        }
      ],
      "stateMutability": "view",
      "type": "function"
    },
    {
      "inputs": [],
      "name": "OPTIMAL_STABLE_TO_TOTAL_DEBT_RATIO",
      "outputs": [
        {
          "internalType": "uint256",
          "name": "",
          "type": "uint256"
        }
      ],
      "stateMutability": "view",
      "type": "function"
    },
    {
      "inputs": [],
      "name": "OPTIMAL_USAGE_RATIO",
      "outputs": [
        {
          "internalType": "uint256",
          "name": "",
          "type": "uint256"
        }
      ],
      "stateMutability": "view",
      "type": "function"
    },
    {
      "inputs": [
        {
          "components": [
            {
              "internalType": "uint256",
              "name": "unbacked",
              "type": "uint256"
            },
            {
              "internalType": "uint256",
              "name": "liquidityAdded",
              "type": "uint256"
            },
            {
              "internalType": "uint256",
              "name": "liquidityTaken",
              "type": "uint256"
            },
            {
              "internalType": "uint256",
              "name": "totalStableDebt",
              "type": "uint256"
            },
            {
              "internalType": "uint256",
              "name": "totalVariableDebt",
              "type": "uint256"
            },
            {
              "internalType": "uint256",
              "name": "averageStableBorrowRate",
              "type": "uint256"
            },
            {
              "internalType": "uint256",
              "name": "reserveFactor",
              "type": "uint256"
            },
            {
              "internalType": "address",
              "name": "reserve",
              "type": "address"
            },
            {
              "internalType": "address",
              "name": "aToken",
              "type": "address"
            }
          ],
          "internalType": "struct DataTypes.CalculateInterestRatesParams",
          "name": "params",
          "type": "tuple"
        }
      ],
      "name": "calculateInterestRates",
      "outputs": [
        {
          "internalType": "uint256",
          "name": "",
          "type": "uint256"
        },
        {
          "internalType": "uint256",
          "name": "",
          "type": "uint256"
        },
        {
          "internalType": "uint256",
          "name": "",
          "type": "uint256"
        }
      ],
      "stateMutability": "view",
      "type": "function"
    },
    {
      "inputs": [],
      "name": "getBaseStableBorrowRate",
      "outputs": [
        {
          "internalType": "uint256",
          "name": "",
          "type": "uint256"
        }
      ],
      "stateMutability": "view",
      "type": "function"
    },
    {
      "inputs": [],
      "name": "getBaseVariableBorrowRate",
      "outputs": [
        {
          "internalType": "uint256",
          "name": "",
          "type": "uint256"
        }
      ],
      "stateMutability": "view",
      "type": "function"
    },
    {
      "inputs": [],
      "name": "getMaxVariableBorrowRate",
      "outputs": [
        {
          "internalType": "uint256",
          "name": "",
          "type": "uint256"
        }
      ],
      "stateMutability": "view",
      "type": "function"
    },
    {
      "inputs": [],
      "name": "getStableRateExcessOffset",
      "outputs": [
        {
          "internalType": "uint256",
          "name": "",
          "type": "uint256"
        }
      ],
      "stateMutability": "view",
      "type": "function"
    },
    {
      "inputs": [],
      "name": "getStableRateSlope1",
      "outputs": [
        {
          "internalType": "uint256",
          "name": "",
          "type": "uint256"
        }
      ],
      "stateMutability": "view",
      "type": "function"
    },
    {
      "inputs": [],
      "name": "getStableRateSlope2",
      "outputs": [
        {
          "internalType": "uint256",
          "name": "",
          "type": "uint256"
        }
      ],
      "stateMutability": "view",
      "type": "function"
    },
    {
      "inputs": [],
      "name": "getVariableRateSlope1",
      "outputs": [
        {
          "internalType": "uint256",
          "name": "",
          "type": "uint256"
        }
      ],
      "stateMutability": "view",
      "type": "function"
    },
    {
      "inputs": [],
      "name": "getVariableRateSlope2",
      "outputs": [
        {
          "internalType": "uint256",
          "name": "",
          "type": "uint256"
        }
      ],
      "stateMutability": "view",
      "type": "function"
    }
  ],
  "transactionHash": "0x0fa161c10014403301d75d92d69fdce19c733b04d07a000833e40d149aef7c99",
  "args": [
    "0xC691F14942B37668C9904b701E3118A133611b3c",
    "400000000000000000000000000",
    "0",
    "30000000000000000000000000",
    "1970000000000000000000000000",
    "0",
    "0",
    "0",
    "0",
    "0"
  ],
  "numDeployments": 1,
  "solcInputHash": "4a6a3ab49a41002471a76f77fc4e04dd",
  "bytecode": "0x6102003461021757610e6038819003601f8101601f191683016001600160401b0381118482101761021c5783928291604052833961014092839181010312610217578051916001600160a01b038316830361021757602082015190604083015190606084015190608085015160a08601519160c08701519360e088015195610100998a8a015198610120809b01516b033b2e3c9fd0803ce8000000916100be6100a6610232565b6002815261383360f01b602082015282851015610251565b6100e16100c9610232565b60028152610e0d60f21b602082015283851015610251565b8060805282038281116102015760c0528060a05281039081116102015760e0528a52885281526101609182526101809283526101a09384526101c09485526101e095865260405196610ba798896102b98a3960805189818161020a01526106a6015260a05189818161024501526107c6015260c05189818161043201526106eb015260e05189818161054101526108390152518861010d0152518781816101cf0152818161027b015261064f0152518681816101590152818161029c01528181610798015281816108da0152610a3e0152518581816102c60152818161050601526107720152518481816104cb0152818161074301526108ac015251838181610194015261071d01525182610a5f01525181818161049001526108600152f35b634e487b7160e01b600052601160045260246000fd5b600080fd5b634e487b7160e01b600052604160045260246000fd5b60408051919082016001600160401b0381118382101761021c57604052565b156102595750565b6040519062461bcd60e51b82528160208060048301528251908160248401526000935b82851061029f575050604492506000838284010152601f80199101168101030190fd5b848101820151868601604401529381019385935061027c56fe6080604052600436101561001257600080fd5b60003560e01c80630542975c146100f75780630b3429a2146100f257806314e32da4146100ed57806334762ca5146100e857806354c365c6146100e35780636fb92589146100de57806380031e37146100d9578063a5898709146100d4578063a9c622f8146100cf578063acd78686146100ca578063bc626908146100c5578063d5cd7391146100c0578063f4202409146100bb5763fe5fd698146100b657600080fd5b610529565b6104ee565b6104b3565b610478565b610455565b61041a565b610384565b610268565b61022d565b6101f2565b6101b7565b61017c565b610141565b3461013c57600036600319011261013c576040517f00000000000000000000000000000000000000000000000000000000000000006001600160a01b03168152602090f35b600080fd5b3461013c57600036600319011261013c5760206040517f00000000000000000000000000000000000000000000000000000000000000008152f35b3461013c57600036600319011261013c5760206040517f00000000000000000000000000000000000000000000000000000000000000008152f35b3461013c57600036600319011261013c5760206040517f00000000000000000000000000000000000000000000000000000000000000008152f35b3461013c57600036600319011261013c5760206040517f00000000000000000000000000000000000000000000000000000000000000008152f35b3461013c57600036600319011261013c5760206040517f00000000000000000000000000000000000000000000000000000000000000008152f35b3461013c57600036600319011261013c577f00000000000000000000000000000000000000000000000000000000000000007f000000000000000000000000000000000000000000000000000000000000000081018091116102f9577f000000000000000000000000000000000000000000000000000000000000000081018091116102f957602090604051908152f35b610564565b90601f8019910116810190811067ffffffffffffffff82111761032057604052565b634e487b7160e01b600052604160045260246000fd5b60405190610120820182811067ffffffffffffffff82111761032057604052565b60e435906001600160a01b038216820361013c57565b61010435906001600160a01b038216820361013c57565b3461013c5761012036600319011261013c576104166103f96103a4610336565b6004358152602435602082015260443560408201526064356060820152608435608082015260a43560a082015260c43560c08201526103e1610357565b60e08201526103ee61036d565b610100820152610616565b604080519384526020840192909252908201529081906060820190565b0390f35b3461013c57600036600319011261013c5760206040517f00000000000000000000000000000000000000000000000000000000000000008152f35b3461013c57600036600319011261013c576020610470610a3c565b604051908152f35b3461013c57600036600319011261013c5760206040517f00000000000000000000000000000000000000000000000000000000000000008152f35b3461013c57600036600319011261013c5760206040517f00000000000000000000000000000000000000000000000000000000000000008152f35b3461013c57600036600319011261013c5760206040517f00000000000000000000000000000000000000000000000000000000000000008152f35b3461013c57600036600319011261013c5760206040517f00000000000000000000000000000000000000000000000000000000000000008152f35b634e487b7160e01b600052601160045260246000fd5b919082018092116102f957565b60405190610120820182811067ffffffffffffffff82111761032057604052816101006000918281528260208201528260408201528260608201528260808201528260a08201528260c08201528260e08201520152565b9081602091031261013c575190565b6040513d6000823e3d90fd5b906127109182039182116102f957565b919082039182116102f957565b9061061f610587565b9060608301928351610637608083019182519061057a565b916020850192835260808501946000865260408101967f00000000000000000000000000000000000000000000000000000000000000008852610678610a3c565b9460608301958652805180610905575b505061080a8260c06108016108189782958d60a061081299018c81517f0000000000000000000000000000000000000000000000000000000000000000908181116000146108945750610767916107106106e9610796936107bc9651610609565b7f000000000000000000000000000000000000000000000000000000000000000090610a8a565b9061076e610767610741847f0000000000000000000000000000000000000000000000000000000000000000610ab0565b7f000000000000000000000000000000000000000000000000000000000000000061057a565b825161057a565b90527f0000000000000000000000000000000000000000000000000000000000000000610ab0565b7f000000000000000000000000000000000000000000000000000000000000000061057a565b90525b60e08501517f000000000000000000000000000000000000000000000000000000000000000090818111610824575b50505190518d519060a08a015192610aec565b91015190610ab0565b9201516105f9565b90610b3f565b80935251925191929190565b61085e61083761088b9361088493610609565b7f000000000000000000000000000000000000000000000000000000000000000090610a8a565b7f0000000000000000000000000000000000000000000000000000000000000000610ab0565b8c5161057a565b8b5238806107ee565b6108fe93610767936108d5610767856108d06108d0967f0000000000000000000000000000000000000000000000000000000000000000610ab0565b610a8a565b9052517f0000000000000000000000000000000000000000000000000000000000000000610ab0565b90526107bf565b9261091583946109789451610a8a565b60e082015261093f61093361093360e088015160018060a01b031690565b6001600160a01b031690565b610100868101516040516370a0823160e01b81526001600160a01b03909116600482015294909391602091869190829081906024820190565b03915afa908115610a375761081897610812966109f861080a966109f2610801956109d46109c98e60406109c060c09f9c60c09d600091610a08575b5060208401519061057a565b91015190610609565b808b5282519061057a565b80938a015251916109e58184610a8a565b60a08a01528c519061057a565b90610a8a565b8486015295509750505092610688565b610a2a915060203d602011610a30575b610a2281836102fe565b8101906105de565b386109b4565b503d610a18565b6105ed565b7f00000000000000000000000000000000000000000000000000000000000000007f000000000000000000000000000000000000000000000000000000000000000081018091116102f95790565b8160011c906b033b2e3c9fd0803ce80000009081831904811184151761013c5702010490565b816b019d971e4fe8401e7400000019048111158215171561013c576b033b2e3c9fd0803ce800000091026b019d971e4fe8401e74000000010490565b9192818301938484116102f9578415610b3557610b17610b1291610b12610b1d95610b5d565b610ab0565b93610b5d565b81018091116102f9576109f2610b3292610b5d565b90565b5050505050600090565b8161138819048111158215171561013c576127109102611388010490565b90633b9aca00918281029283040361013c5756fea2646970667358221220d6c79becddda24745c679fe066c29063c0845354cbd006fa6bcfa52b47a8f66d64736f6c63430008180033",
  "devdoc": {
    "author": "Aave",
    "details": "The model of interest rate is based on 2 slopes, one before the `OPTIMAL_USAGE_RATIO` point of usage and another from that one to 100%. - An instance of this same contract, can't be used across different Aave markets, due to the caching   of the PoolAddressesProvider",
    "kind": "dev",
    "methods": {
      "calculateInterestRates((uint256,uint256,uint256,uint256,uint256,uint256,uint256,address,address))": {
        "params": {
          "params": "The parameters needed to calculate interest rates"
        },
        "returns": {
          "_0": "liquidityRate The liquidity rate expressed in rays",
          "_1": "stableBorrowRate The stable borrow rate expressed in rays",
          "_2": "variableBorrowRate The variable borrow rate expressed in rays"
        }
      },
      "constructor": {
        "details": "Constructor.",
        "params": {
          "baseStableRateOffset": "The premium on top of variable rate for base stable borrowing rate",
          "baseVariableBorrowRate": "The base variable borrow rate",
          "optimalStableToTotalDebtRatio": "The optimal stable debt to total debt ratio of the reserve",
          "optimalUsageRatio": "The optimal usage ratio",
          "provider": "The address of the PoolAddressesProvider contract",
          "stableRateExcessOffset": "The premium on top of stable rate when there stable debt surpass the threshold",
          "stableRateSlope1": "The stable rate slope below optimal usage ratio",
          "stableRateSlope2": "The stable rate slope above optimal usage ratio",
          "variableRateSlope1": "The variable rate slope below optimal usage ratio",
          "variableRateSlope2": "The variable rate slope above optimal usage ratio"
        }
      },
      "getBaseStableBorrowRate()": {
        "returns": {
          "_0": "The base stable borrow rate, expressed in ray"
        }
      },
      "getBaseVariableBorrowRate()": {
        "returns": {
          "_0": "The base variable borrow rate, expressed in ray"
        }
      },
      "getMaxVariableBorrowRate()": {
        "returns": {
          "_0": "The maximum variable borrow rate, expressed in ray"
        }
      },
      "getStableRateExcessOffset()": {
        "details": "It's an additional premium applied to the stable when stable debt > OPTIMAL_STABLE_TO_TOTAL_DEBT_RATIO",
        "returns": {
          "_0": "The stable rate excess offset, expressed in ray"
        }
      },
      "getStableRateSlope1()": {
        "details": "It's the stable rate when usage ratio > 0 and <= OPTIMAL_USAGE_RATIO",
        "returns": {
          "_0": "The stable rate slope, expressed in ray"
        }
      },
      "getStableRateSlope2()": {
        "details": "It's the variable rate when usage ratio > OPTIMAL_USAGE_RATIO",
        "returns": {
          "_0": "The stable rate slope, expressed in ray"
        }
      },
      "getVariableRateSlope1()": {
        "details": "It's the variable rate when usage ratio > 0 and <= OPTIMAL_USAGE_RATIO",
        "returns": {
          "_0": "The variable rate slope, expressed in ray"
        }
      },
      "getVariableRateSlope2()": {
        "details": "It's the variable rate when usage ratio > OPTIMAL_USAGE_RATIO",
        "returns": {
          "_0": "The variable rate slope, expressed in ray"
        }
      }
    },
    "stateVariables": {
      "ADDRESSES_PROVIDER": {
        "return": "The address of the PoolAddressesProvider contract",
        "returns": {
          "_0": "The address of the PoolAddressesProvider contract"
        }
      },
      "MAX_EXCESS_STABLE_TO_TOTAL_DEBT_RATIO": {
        "details": "It's always equal to 1-optimal stable to total debt ratio (added as constant for gas optimizations)",
        "return": "The max excess stable to total debt ratio, expressed in ray.",
        "returns": {
          "_0": "The max excess stable to total debt ratio, expressed in ray."
        }
      },
      "MAX_EXCESS_USAGE_RATIO": {
        "details": "It's always equal to 1-optimal usage ratio (added as constant for gas optimizations)",
        "return": "The max excess usage ratio, expressed in ray.",
        "returns": {
          "_0": "The max excess usage ratio, expressed in ray."
        }
      },
      "OPTIMAL_STABLE_TO_TOTAL_DEBT_RATIO": {
        "return": "The optimal stable to total debt ratio, expressed in ray.",
        "returns": {
          "_0": "The optimal stable to total debt ratio, expressed in ray."
        }
      },
      "OPTIMAL_USAGE_RATIO": {
        "return": "The optimal usage ratio, expressed in ray.",
        "returns": {
          "_0": "The optimal usage ratio, expressed in ray."
        }
      }
    },
    "title": "DefaultReserveInterestRateStrategy contract",
    "version": 1
  },
  "userdoc": {
    "kind": "user",
    "methods": {
      "ADDRESSES_PROVIDER()": {
        "notice": "Returns the address of the PoolAddressesProvider"
      },
      "MAX_EXCESS_STABLE_TO_TOTAL_DEBT_RATIO()": {
        "notice": "Returns the excess stable debt ratio above the optimal."
      },
      "MAX_EXCESS_USAGE_RATIO()": {
        "notice": "Returns the excess usage ratio above the optimal."
      },
      "OPTIMAL_STABLE_TO_TOTAL_DEBT_RATIO()": {
        "notice": "Returns the optimal stable to total debt ratio of the reserve."
      },
      "OPTIMAL_USAGE_RATIO()": {
        "notice": "Returns the usage ratio at which the pool aims to obtain most competitive borrow rates."
      },
      "calculateInterestRates((uint256,uint256,uint256,uint256,uint256,uint256,uint256,address,address))": {
        "notice": "Calculates the interest rates depending on the reserve's state and configurations"
      },
      "getBaseStableBorrowRate()": {
        "notice": "Returns the base stable borrow rate"
      },
      "getBaseVariableBorrowRate()": {
        "notice": "Returns the base variable borrow rate"
      },
      "getMaxVariableBorrowRate()": {
        "notice": "Returns the maximum variable borrow rate"
      },
      "getStableRateExcessOffset()": {
        "notice": "Returns the stable rate excess offset"
      },
      "getStableRateSlope1()": {
        "notice": "Returns the stable rate slope below optimal usage ratio"
      },
      "getStableRateSlope2()": {
        "notice": "Returns the stable rate slope above optimal usage ratio"
      },
      "getVariableRateSlope1()": {
        "notice": "Returns the variable rate slope below optimal usage ratio"
      },
      "getVariableRateSlope2()": {
        "notice": "Returns the variable rate slope above optimal usage ratio"
      }
    },
    "notice": "Implements the calculation of the interest rates depending on the reserve state",
    "version": 1
  },
  "storageLayout": {
    "storage": [],
    "types": null
  }
}