{
  "address": "0xd95BeAdA78EB50b8791511Df47bAE7a1C59FB360",
  "abi": [
    {
      "inputs": [
        {
          "internalType": "contract IStaticOracle",
          "name": "_STATIC_ORACLE",
          "type": "address"
        },
        {
          "internalType": "address",
          "name": "_quoteToken",
          "type": "address"
        },
        {
          "internalType": "uint128",
          "name": "_quoteTokenAmount",
          "type": "uint128"
        },
        {
          "internalType": "uint32",
          "name": "_quotePeriodSeconds",
          "type": "uint32"
        },
        {
          "internalType": "uint8",
          "name": "_priceDecimals",
          "type": "uint8"
        }
      ],
      "stateMutability": "nonpayable",
      "type": "constructor"
    },
    {
      "inputs": [],
      "name": "BASE_CURRENCY",
      "outputs": [
        {
          "internalType": "address",
          "name": "",
          "type": "address"
        }
      ],
      "stateMutability": "view",
      "type": "function"
    },
    {
      "inputs": [],
      "name": "BASE_CURRENCY_UNIT",
      "outputs": [
        {
          "internalType": "uint256",
          "name": "",
          "type": "uint256"
        }
      ],
      "stateMutability": "view",
      "type": "function"
    },
    {
      "inputs": [],
      "name": "PRICE_DECIMALS",
      "outputs": [
        {
          "internalType": "uint8",
          "name": "",
          "type": "uint8"
        }
      ],
      "stateMutability": "view",
      "type": "function"
    },
    {
      "inputs": [],
      "name": "PRICE_UNIT",
      "outputs": [
        {
          "internalType": "uint256",
          "name": "",
          "type": "uint256"
        }
      ],
      "stateMutability": "view",
      "type": "function"
    },
    {
      "inputs": [],
      "name": "QUOTE_PERIOD_SECONDS",
      "outputs": [
        {
          "internalType": "uint32",
          "name": "",
          "type": "uint32"
        }
      ],
      "stateMutability": "view",
      "type": "function"
    },
    {
      "inputs": [],
      "name": "QUOTE_TOKEN",
      "outputs": [
        {
          "internalType": "address",
          "name": "",
          "type": "address"
        }
      ],
      "stateMutability": "view",
      "type": "function"
    },
    {
      "inputs": [],
      "name": "QUOTE_TOKEN_AMOUNT",
      "outputs": [
        {
          "internalType": "uint128",
          "name": "",
          "type": "uint128"
        }
      ],
      "stateMutability": "view",
      "type": "function"
    },
    {
      "inputs": [],
      "name": "QUOTE_TOKEN_DECIMALS",
      "outputs": [
        {
          "internalType": "uint8",
          "name": "",
          "type": "uint8"
        }
      ],
      "stateMutability": "view",
      "type": "function"
    },
    {
      "inputs": [],
      "name": "QUOTE_TOKEN_UNIT",
      "outputs": [
        {
          "internalType": "uint256",
          "name": "",
          "type": "uint256"
        }
      ],
      "stateMutability": "view",
      "type": "function"
    },
    {
      "inputs": [],
      "name": "STATIC_ORACLE",
      "outputs": [
        {
          "internalType": "contract IStaticOracle",
          "name": "",
          "type": "address"
        }
      ],
      "stateMutability": "view",
      "type": "function"
    },
    {
      "inputs": [
        {
          "internalType": "address",
          "name": "_baseToken",
          "type": "address"
        }
      ],
      "name": "getAssetPrice",
      "outputs": [
        {
          "internalType": "uint256",
          "name": "",
          "type": "uint256"
        }
      ],
      "stateMutability": "view",
      "type": "function"
    }
  ],
  "transactionHash": "0x7d72cdeeb204bcc4134ace5270c0e2e8c510003be2a00480af9b9ce9e3ab01a5",
  "args": [
    "0x0261560D217eBFb575ece90dfbf86659cF2f74cf",
    "0x4D6E79013212F10A026A1FB0b926C9Fd0432b96c",
    "1000000000",
    60,
    8
  ],
  "numDeployments": 1,
  "solcInputHash": "7fa5b64a3eb9eafb03a0cc4bd54c068f",
  "bytecode": "0x6101806040908082523461024b5760a081610a1380380380916100228285610250565b83398101031261024b5780516001600160a01b039290838116810361024b57602080840151948516850361024b5783830151946001600160801b038616860361024b5760608501519463ffffffff8616860361024b5760806100849101610273565b60809390935260a0819052835163313ce56760e01b838201908152600482526001600160401b039291808701848111828210176102355787526000928392839251915afa3d1561022c573d928311610218578551926100ec601f8201601f1916860185610250565b83523d828585013e5b156101c95782828051810103126101c657506101176101219260ff9201610273565b8060c05216610281565b60e05261010093845261012092835261014260ff6101409280845216610281565b91610160928352519261076a94856102a9863960805185818161022f0152610401015260a0518581816102740152610352015260c051856101f7015260e05185818161017f015261050c01525184818161013f015261039801525183818160b601526103d10152518260f70152518181816102c0015281816104e401526107120152f35b80fd5b845162461bcd60e51b815260048101849052602260248201527f4661696c656420746f206765742071756f746520746f6b656e20646563696d616044820152616c7360f01b6064820152608490fd5b634e487b7160e01b82526041600452602482fd5b606092506100f5565b634e487b7160e01b600052604160045260246000fd5b600080fd5b601f909101601f19168101906001600160401b0382119082101761023557604052565b519060ff8216820361024b57565b60ff16604d811161029257600a0a90565b634e487b7160e01b600052601160045260246000fdfe60806040818152600436101561001457600080fd5b600091823560e01c90816312adcebf1461021b57508063329afacd146101de57806378892cea146101635780638c89b64f1461011b578063b3596f07146101a2578063c432505414610168578063e19f470014610163578063eb38eeee14610120578063ed435e581461011b578063f1a640f8146100de5763f5615cea1461009b57600080fd5b346100da57816003193601126100da576020905163ffffffff7f0000000000000000000000000000000000000000000000000000000000000000168152f35b5080fd5b50346100da57816003193601126100da576020905160ff7f0000000000000000000000000000000000000000000000000000000000000000168152f35b6102a8565b50346100da57816003193601126100da57602090516001600160801b037f0000000000000000000000000000000000000000000000000000000000000000168152f35b61025e565b50346100da57816003193601126100da57602090517f00000000000000000000000000000000000000000000000000000000000000008152f35b50346100da5760203660031901126100da57600435916001600160a01b03831683036101db57506101d4602092610344565b9051908152f35b80fd5b50346100da57816003193601126100da576020905160ff7f0000000000000000000000000000000000000000000000000000000000000000168152f35b8390346100da57816003193601126100da577f00000000000000000000000000000000000000000000000000000000000000006001600160a01b03168152602090f35b346102a35760003660031901126102a3576040517f00000000000000000000000000000000000000000000000000000000000000006001600160a01b03168152602090f35b600080fd5b346102a35760003660031901126102a35760206040517f00000000000000000000000000000000000000000000000000000000000000008152f35b90601f8019910116810190811067ffffffffffffffff82111761030557604052565b634e487b7160e01b600052604160045260246000fd5b8181029291811591840414171561032e57565b634e487b7160e01b600052601160045260246000fd5b6001600160a01b03818116917f000000000000000000000000000000000000000000000000000000000000000082169083821461070c57604093845191630757bc8160e01b83526004956001600160801b037f00000000000000000000000000000000000000000000000000000000000000001692838886015260249586860152604485015263ffffffff7f000000000000000000000000000000000000000000000000000000000000000016606485015260009384816084818a7f0000000000000000000000000000000000000000000000000000000000000000165afa908115610702578597869261064c575b505086156106155751156105e15780519060209283830163313ce56760e01b81528984528284019367ffffffffffffffff94818110868211176105cf5784525187928392905afa3d156105c6573d9283116105b45781519261049e601f8201601f19168601856102e3565b83523d868585013e5b156105695750818180518101031261056557015160ff811680910361056157604d811161054f576104e26105319261050992600a0a9061031b565b7f00000000000000000000000000000000000000000000000000000000000000009061031b565b937f00000000000000000000000000000000000000000000000000000000000000009061031b565b93841561053f575050500490565b634e487b7160e01b825260129052fd5b5050634e487b7160e01b815260118452fd5b8280fd5b8380fd5b5162461bcd60e51b81528088018390526021818701527f4661696c656420746f20676574206261736520746f6b656e20646563696d616c6044820152607360f81b6064820152608490fd5b634e487b7160e01b8652604189528686fd5b606092506104a7565b634e487b7160e01b895260418c528989fd5b5162461bcd60e51b81526020818801526010818601526f139bc81c1bdbdb1cc81c5d595c9a595960821b6044820152606490fd5b815162461bcd60e51b81526020818a0152601281880152714e6f20707269636520617661696c61626c6560701b6044820152606490fd5b915096503d8086893e61065f81896102e3565b87019082888303126106fe57875191602091828a015167ffffffffffffffff9a8b82116106f657019082601f830112156106fa5781519a8b116105cf578a60051b9186519b6106b18d878601906102e3565b8c5284808d01938201019384116106f6578401915b8383106106da575050505050953880610433565b825182811681036106f25781529184019184016106c6565b8a80fd5b8980fd5b8880fd5b8580fd5b82513d87823e3d90fd5b505050507f00000000000000000000000000000000000000000000000000000000000000009056fea2646970667358221220efbd09d24cc72b09b1c5ca4f5bb72ec4804beab0d22e0f16a790603f87ed316164736f6c63430008180033",
  "devdoc": {
    "kind": "dev",
    "methods": {
      "BASE_CURRENCY()": {
        "details": "Address 0x0 is reserved for USD as base currency.",
        "returns": {
          "_0": "Returns the base currency address."
        }
      },
      "BASE_CURRENCY_UNIT()": {
        "details": "1 ether for ETH, 1e8 for USD.",
        "returns": {
          "_0": "Returns the base currency unit."
        }
      },
      "getAssetPrice(address)": {
        "params": {
          "asset": "The address of the asset"
        },
        "returns": {
          "_0": "The price of the asset"
        }
      }
    },
    "title": "Uniswap V3 Static Oracle Wrapper",
    "version": 1
  },
  "userdoc": {
    "kind": "user",
    "methods": {
      "BASE_CURRENCY()": {
        "notice": "Returns the base currency address"
      },
      "BASE_CURRENCY_UNIT()": {
        "notice": "Returns the base currency unit"
      },
      "getAssetPrice(address)": {
        "notice": "Returns the asset price in the base currency"
      }
    },
    "notice": "Oracle contract for price quoting against Uniswap V3 pools",
    "version": 1
  },
  "storageLayout": {
    "storage": [],
    "types": null
  }
}