{
  "address": "0x0261560D217eBFb575ece90dfbf86659cF2f74cf",
  "abi": [
    {
      "inputs": [
        {
          "internalType": "contract IUniswapV3Factory",
          "name": "_UNISWAP_V3_FACTORY",
          "type": "address"
        },
        {
          "internalType": "uint8",
          "name": "_CARDINALITY_PER_MINUTE",
          "type": "uint8"
        }
      ],
      "stateMutability": "nonpayable",
      "type": "constructor"
    },
    {
      "inputs": [],
      "name": "CARDINALITY_PER_MINUTE",
      "outputs": [
        {
          "internalType": "uint8",
          "name": "",
          "type": "uint8"
        }
      ],
      "stateMutability": "view",
      "type": "function"
    },
    {
      "inputs": [],
      "name": "UNISWAP_V3_FACTORY",
      "outputs": [
        {
          "internalType": "contract IUniswapV3Factory",
          "name": "",
          "type": "address"
        }
      ],
      "stateMutability": "view",
      "type": "function"
    },
    {
      "inputs": [
        {
          "internalType": "uint24",
          "name": "_feeTier",
          "type": "uint24"
        }
      ],
      "name": "addNewFeeTier",
      "outputs": [],
      "stateMutability": "nonpayable",
      "type": "function"
    },
    {
      "inputs": [
        {
          "internalType": "address",
          "name": "_tokenA",
          "type": "address"
        },
        {
          "internalType": "address",
          "name": "_tokenB",
          "type": "address"
        }
      ],
      "name": "getAllPoolsForPair",
      "outputs": [
        {
          "internalType": "address[]",
          "name": "",
          "type": "address[]"
        }
      ],
      "stateMutability": "view",
      "type": "function"
    },
    {
      "inputs": [
        {
          "internalType": "address",
          "name": "_tokenA",
          "type": "address"
        },
        {
          "internalType": "address",
          "name": "_tokenB",
          "type": "address"
        }
      ],
      "name": "isPairSupported",
      "outputs": [
        {
          "internalType": "bool",
          "name": "",
          "type": "bool"
        }
      ],
      "stateMutability": "view",
      "type": "function"
    },
    {
      "inputs": [
        {
          "internalType": "address",
          "name": "_tokenA",
          "type": "address"
        },
        {
          "internalType": "address",
          "name": "_tokenB",
          "type": "address"
        },
        {
          "internalType": "uint16",
          "name": "_cardinality",
          "type": "uint16"
        }
      ],
      "name": "prepareAllAvailablePoolsWithCardinality",
      "outputs": [
        {
          "internalType": "address[]",
          "name": "_preparedPools",
          "type": "address[]"
        }
      ],
      "stateMutability": "nonpayable",
      "type": "function"
    },
    {
      "inputs": [
        {
          "internalType": "address",
          "name": "_tokenA",
          "type": "address"
        },
        {
          "internalType": "address",
          "name": "_tokenB",
          "type": "address"
        },
        {
          "internalType": "uint32",
          "name": "_period",
          "type": "uint32"
        }
      ],
      "name": "prepareAllAvailablePoolsWithTimePeriod",
      "outputs": [
        {
          "internalType": "address[]",
          "name": "_preparedPools",
          "type": "address[]"
        }
      ],
      "stateMutability": "nonpayable",
      "type": "function"
    },
    {
      "inputs": [
        {
          "internalType": "address",
          "name": "_tokenA",
          "type": "address"
        },
        {
          "internalType": "address",
          "name": "_tokenB",
          "type": "address"
        },
        {
          "internalType": "uint24[]",
          "name": "_feeTiers",
          "type": "uint24[]"
        },
        {
          "internalType": "uint16",
          "name": "_cardinality",
          "type": "uint16"
        }
      ],
      "name": "prepareSpecificFeeTiersWithCardinality",
      "outputs": [
        {
          "internalType": "address[]",
          "name": "_preparedPools",
          "type": "address[]"
        }
      ],
      "stateMutability": "nonpayable",
      "type": "function"
    },
    {
      "inputs": [
        {
          "internalType": "address",
          "name": "_tokenA",
          "type": "address"
        },
        {
          "internalType": "address",
          "name": "_tokenB",
          "type": "address"
        },
        {
          "internalType": "uint24[]",
          "name": "_feeTiers",
          "type": "uint24[]"
        },
        {
          "internalType": "uint32",
          "name": "_period",
          "type": "uint32"
        }
      ],
      "name": "prepareSpecificFeeTiersWithTimePeriod",
      "outputs": [
        {
          "internalType": "address[]",
          "name": "_preparedPools",
          "type": "address[]"
        }
      ],
      "stateMutability": "nonpayable",
      "type": "function"
    },
    {
      "inputs": [
        {
          "internalType": "address[]",
          "name": "_pools",
          "type": "address[]"
        },
        {
          "internalType": "uint16",
          "name": "_cardinality",
          "type": "uint16"
        }
      ],
      "name": "prepareSpecificPoolsWithCardinality",
      "outputs": [],
      "stateMutability": "nonpayable",
      "type": "function"
    },
    {
      "inputs": [
        {
          "internalType": "address[]",
          "name": "_pools",
          "type": "address[]"
        },
        {
          "internalType": "uint32",
          "name": "_period",
          "type": "uint32"
        }
      ],
      "name": "prepareSpecificPoolsWithTimePeriod",
      "outputs": [],
      "stateMutability": "nonpayable",
      "type": "function"
    },
    {
      "inputs": [
        {
          "internalType": "uint128",
          "name": "_baseAmount",
          "type": "uint128"
        },
        {
          "internalType": "address",
          "name": "_baseToken",
          "type": "address"
        },
        {
          "internalType": "address",
          "name": "_quoteToken",
          "type": "address"
        },
        {
          "internalType": "uint32",
          "name": "_period",
          "type": "uint32"
        },
        {
          "internalType": "uint32",
          "name": "_offset",
          "type": "uint32"
        }
      ],
      "name": "quoteAllAvailablePoolsWithOffsetTimePeriod",
      "outputs": [
        {
          "internalType": "uint256",
          "name": "_quoteAmount",
          "type": "uint256"
        },
        {
          "internalType": "address[]",
          "name": "_queriedPools",
          "type": "address[]"
        }
      ],
      "stateMutability": "view",
      "type": "function"
    },
    {
      "inputs": [
        {
          "internalType": "uint128",
          "name": "_baseAmount",
          "type": "uint128"
        },
        {
          "internalType": "address",
          "name": "_baseToken",
          "type": "address"
        },
        {
          "internalType": "address",
          "name": "_quoteToken",
          "type": "address"
        },
        {
          "internalType": "uint32",
          "name": "_period",
          "type": "uint32"
        }
      ],
      "name": "quoteAllAvailablePoolsWithTimePeriod",
      "outputs": [
        {
          "internalType": "uint256",
          "name": "_quoteAmount",
          "type": "uint256"
        },
        {
          "internalType": "address[]",
          "name": "_queriedPools",
          "type": "address[]"
        }
      ],
      "stateMutability": "view",
      "type": "function"
    },
    {
      "inputs": [
        {
          "internalType": "uint128",
          "name": "_baseAmount",
          "type": "uint128"
        },
        {
          "internalType": "address",
          "name": "_baseToken",
          "type": "address"
        },
        {
          "internalType": "address",
          "name": "_quoteToken",
          "type": "address"
        },
        {
          "internalType": "uint24[]",
          "name": "_feeTiers",
          "type": "uint24[]"
        },
        {
          "internalType": "uint32",
          "name": "_period",
          "type": "uint32"
        },
        {
          "internalType": "uint32",
          "name": "_offset",
          "type": "uint32"
        }
      ],
      "name": "quoteSpecificFeeTiersWithOffsetTimePeriod",
      "outputs": [
        {
          "internalType": "uint256",
          "name": "_quoteAmount",
          "type": "uint256"
        },
        {
          "internalType": "address[]",
          "name": "_queriedPools",
          "type": "address[]"
        }
      ],
      "stateMutability": "view",
      "type": "function"
    },
    {
      "inputs": [
        {
          "internalType": "uint128",
          "name": "_baseAmount",
          "type": "uint128"
        },
        {
          "internalType": "address",
          "name": "_baseToken",
          "type": "address"
        },
        {
          "internalType": "address",
          "name": "_quoteToken",
          "type": "address"
        },
        {
          "internalType": "uint24[]",
          "name": "_feeTiers",
          "type": "uint24[]"
        },
        {
          "internalType": "uint32",
          "name": "_period",
          "type": "uint32"
        }
      ],
      "name": "quoteSpecificFeeTiersWithTimePeriod",
      "outputs": [
        {
          "internalType": "uint256",
          "name": "_quoteAmount",
          "type": "uint256"
        },
        {
          "internalType": "address[]",
          "name": "_queriedPools",
          "type": "address[]"
        }
      ],
      "stateMutability": "view",
      "type": "function"
    },
    {
      "inputs": [
        {
          "internalType": "uint128",
          "name": "_baseAmount",
          "type": "uint128"
        },
        {
          "internalType": "address",
          "name": "_baseToken",
          "type": "address"
        },
        {
          "internalType": "address",
          "name": "_quoteToken",
          "type": "address"
        },
        {
          "internalType": "address[]",
          "name": "_pools",
          "type": "address[]"
        },
        {
          "internalType": "uint32",
          "name": "_period",
          "type": "uint32"
        },
        {
          "internalType": "uint32",
          "name": "_offset",
          "type": "uint32"
        }
      ],
      "name": "quoteSpecificPoolsWithOffsettedTimePeriod",
      "outputs": [
        {
          "internalType": "uint256",
          "name": "_quoteAmount",
          "type": "uint256"
        }
      ],
      "stateMutability": "view",
      "type": "function"
    },
    {
      "inputs": [
        {
          "internalType": "uint128",
          "name": "_baseAmount",
          "type": "uint128"
        },
        {
          "internalType": "address",
          "name": "_baseToken",
          "type": "address"
        },
        {
          "internalType": "address",
          "name": "_quoteToken",
          "type": "address"
        },
        {
          "internalType": "address[]",
          "name": "_pools",
          "type": "address[]"
        },
        {
          "internalType": "uint32",
          "name": "_period",
          "type": "uint32"
        }
      ],
      "name": "quoteSpecificPoolsWithTimePeriod",
      "outputs": [
        {
          "internalType": "uint256",
          "name": "_quoteAmount",
          "type": "uint256"
        }
      ],
      "stateMutability": "view",
      "type": "function"
    },
    {
      "inputs": [],
      "name": "supportedFeeTiers",
      "outputs": [
        {
          "internalType": "uint24[]",
          "name": "",
          "type": "uint24[]"
        }
      ],
      "stateMutability": "view",
      "type": "function"
    }
  ],
  "transactionHash": "0x4b75f52a7159639c4cf64b82077a5d3898f3fd4db52027601315079383ff44b1",
  "args": [
    "0xf0BB46d7bB2e8cc6F7BB31d344aE7D365802529e",
    30
  ],
  "numDeployments": 1,
  "solcInputHash": "13e13bb3aba26274e1de8acd0e67d9bb",
  "bytecode": "0x60c06040523480156200001157600080fd5b50604051620025cd380380620025cd83398101604081905262000034916200014f565b60609190911b6001600160601b03191660805260f81b7fff000000000000000000000000000000000000000000000000000000000000001660a05260008054600180820183558280527f290decd9548b62a8d60345a988386fc84ba6bc95484008f6362f93160ef3e563600a8084048201805462ffffff95839006600390810261010090810a888102199093166064909302929092179092558654808601885583810485018054918590068402830a808902199092166101f49092029190911790558654808601885583810485018054918590068402830a80890219909216610bb8909202919091179055865494850190965581840490920180549190930690910290930a918202199092166127109091021790556200019b565b6000806040838503121562000162578182fd5b82516001600160a01b038116811462000179578283fd5b602084015190925060ff8116811462000190578182fd5b809150509250929050565b60805160601c60a05160f81c6123f4620001d9600039806107b852806109555250806103d35280610726528061089d52806109de52506123f46000f3fe608060405234801561001057600080fd5b50600436106101165760003560e01c806362d99119116100a2578063b7604e5311610071578063b7604e5314610252578063bc4389f714610267578063d8045eca1461027c578063e85dd3831461028f578063f73e5aab146102a257610116565b806362d99119146101f95780636397c9851461020c57806390b525081461021f5780639446994a1461023257610116565b806333e4c28e116100e957806333e4c28e14610198578063354b1a7d146101ab57806343dfc58d146101c057806355920640146101d357806355eba792146101e657610116565b80630757bc811461011b57806307f7ca9f146101455780631b2a933c146101655780631c49cbb514610185575b600080fd5b61012e61012936600461210d565b6102b7565b60405161013c9291906123c0565b60405180910390f35b610158610153366004611f9d565b6102d6565b60405161013c91906123b7565b610178610173366004611e6f565b6102f3565b60405161013c919061221e565b610178610193366004611eb1565b610312565b6101786101a6366004611d93565b61032a565b6101be6101b9366004611f33565b6103a9565b005b6101be6101ce3660046121b8565b6103bc565b61012e6101e1366004612020565b610544565b6101be6101f4366004611eea565b6105c5565b610178610207366004611d61565b610603565b61015861021a366004612020565b610693565b61012e61022d366004612160565b6106e4565b610245610240366004611d61565b610711565b60405161013c919061227a565b61025a6107b6565b60405161013c91906123d9565b61026f6107da565b60405161013c9190612231565b61012e61028a3660046120b5565b61085c565b61017861029d366004611e07565b61087f565b6102aa61089b565b60405161013c9190612285565b600060606102c98686868660006106e4565b9150915094509492505050565b60006102e88787878787876000610693565b979650505050505050565b60606102ff8484610603565b905061030b81836108bf565b9392505050565b6060610322848461017385610948565b949350505050565b606061036a868686868080602002602001604051908101604052809392919081815260200183836020028082843760009201919091525061098392505050565b805190915083146103965760405162461bcd60e51b815260040161038d90612337565b60405180910390fd5b6103a081836108bf565b95945050505050565b6103b783836101f484610948565b505050565b6040516322afcccb60e01b81526001600160a01b037f000000000000000000000000000000000000000000000000000000000000000016906322afcccb906104089084906004016123a7565b60206040518083038186803b15801561042057600080fd5b505afa158015610434573d6000803e3d6000fd5b505050506040513d601f19601f820116820180604052508101906104589190611f7c565b60020b6104775760405162461bcd60e51b815260040161038d9061236e565b60005b6000548110156104e7578162ffffff166000828154811061049757fe5b90600052602060002090600a91828204019190066003029054906101000a900462ffffff1662ffffff1614156104df5760405162461bcd60e51b815260040161038d90612299565b60010161047a565b5060008054600181018255908052600a8082047f290decd9548b62a8d60345a988386fc84ba6bc95484008f6362f93160ef3e56301805462ffffff948516600393909406929092026101000a928302939092021916919091179055565b60006060610586888888888080602002602001604051908101604052809392919081815260200183836020028082843760009201919091525061098392505050565b805190915085146105a95760405162461bcd60e51b815260040161038d90612337565b6105b7898989848888610a7b565b915097509795505050505050565b6103b78383808060200260200160405190810160405280939291908181526020018383602002808284376000920191909152508592506108bf915050565b606061068a8383600080548060200260200160405190810160405280929190818152602001828054801561068057602002820191906000526020600020906000905b82829054906101000a900462ffffff1662ffffff16815260200190600301906020826002010492830192600103820291508084116106455790505b5050505050610983565b90505b92915050565b60006106d88888888888808060200260200160405190810160405280939291908181526020018383602002808284376000920191909152508a9250899150610a7b9050565b98975050505050505050565b600060606106f58686868601610c23565b9050610705878787848888610a7b565b91509550959350505050565b60008054815b818110156107ab5760006107867f000000000000000000000000000000000000000000000000000000000000000061078188886000878154811061075757fe5b90600052602060002090600a91828204019190066003029054906101000a900462ffffff16610d28565b610d7e565b905061079181610eaa565b156107a2576001935050505061068d565b50600101610717565b506000949350505050565b7f000000000000000000000000000000000000000000000000000000000000000081565b6060600080548060200260200160405190810160405280929190818152602001828054801561085257602002820191906000526020600020906000905b82829054906101000a900462ffffff1662ffffff16815260200190600301906020826002010492830192600103820291508084116108175790505b5050505050905090565b600060606108708888888888886000610544565b91509150965096945050505050565b6060610891868686866101a687610948565b9695505050505050565b7f000000000000000000000000000000000000000000000000000000000000000081565b60005b82518110156103b7578281815181106108d757fe5b60200260200101516001600160a01b03166332148f67836040518263ffffffff1660e01b815260040161090a9190612398565b600060405180830381600087803b15801561092457600080fd5b505af1158015610938573d6000803e3d6000fd5b5050600190920191506108c29050565b6000603c63ffffffff60ff7f000000000000000000000000000000000000000000000000000000000000000016840216046001019050919050565b6060815167ffffffffffffffff8111801561099d57600080fd5b506040519080825280602002602001820160405280156109c7578160200160208202803683370190505b5090506000805b8351811015610a68576000610a1b7f00000000000000000000000000000000000000000000000000000000000000006107818989898781518110610a0e57fe5b6020026020010151610d28565b9050610a2681610eaa565b15610a5f5780848480600101955081518110610a3e57fe5b60200260200101906001600160a01b031690816001600160a01b0316815250505b506001016109ce565b50610a738282610eb4565b509392505050565b600080845111610a9d5760405162461bcd60e51b815260040161038d906122c9565b63ffffffff82161580610ab6575060008363ffffffff16115b610ad25760405162461bcd60e51b815260040161038d906122f3565b6000845167ffffffffffffffff81118015610aec57600080fd5b50604051908082528060200260200182016040528015610b2657816020015b610b13611c8d565b815260200190600190039081610b0b5790505b50905060005b8551811015610bd45760008563ffffffff1611610b6457610b5f868281518110610b5257fe5b6020026020010151610eca565b610b82565b610b82868281518110610b7357fe5b602002602001015186866111f3565b838381518110610b8e57fe5b6020026020010151600001848481518110610ba557fe5b6020908102919091018101516001600160801b03909316920191909152600291820b90910b9052600101610b2c565b5060008151600114610bee57610be98261152a565b610c08565b81600081518110610bfb57fe5b6020026020010151600001515b9050610c16818a8a8a6115e6565b9998505050505050505050565b60606000610c318585610603565b905063ffffffff8316610c4557905061030b565b805167ffffffffffffffff81118015610c5d57600080fd5b50604051908082528060200260200182016040528015610c87578160200160208202803683370190505b5091506000805b8251811015610d14578463ffffffff16610cba848381518110610cad57fe5b60200260200101516116dd565b63ffffffff1610610d0c57828181518110610cd157fe5b6020026020010151848380600101945081518110610ceb57fe5b60200260200101906001600160a01b031690816001600160a01b0316815250505b600101610c8e565b50610d1f8382610eb4565b50509392505050565b610d30611ca4565b826001600160a01b0316846001600160a01b03161115610d4e579192915b50604080516060810182526001600160a01b03948516815292909316602083015262ffffff169181019190915290565b600081602001516001600160a01b031682600001516001600160a01b031610610dee576040805162461bcd60e51b815260206004820181905260248201527f506f6f6c416464726573733a20494e56414c49445f544f4b454e5f4f52444552604482015290519081900360640190fd5b50805160208083015160409384015184516001600160a01b0394851681850152939091168385015262ffffff166060808401919091528351808403820181526080840185528051908301206001600160f81b031960a085015294901b6bffffffffffffffffffffffff191660a183015260b58201939093527feee17a48e7dd4fffcce4d79bb50f4f19fb4f3c03d3d7dacd6723eb17b1aef54560d5808301919091528251808303909101815260f5909101909152805191012090565b803b15155b919050565b8082511415610ec257610ec6565b8082525b5050565b6000806000806000856001600160a01b0316633850c7bd6040518163ffffffff1660e01b815260040160e06040518083038186803b158015610f0b57600080fd5b505afa158015610f1f573d6000803e3d6000fd5b505050506040513d60e0811015610f3557600080fd5b50602081015160408201516060909201519094509092509050600161ffff821611610f8d576040805162461bcd60e51b81526020600482015260036024820152624e454f60e81b604482015290519081900360640190fd5b6000806000886001600160a01b031663252c09d7866040518263ffffffff1660e01b8152600401808261ffff16815260200191505060806040518083038186803b158015610fda57600080fd5b505afa158015610fee573d6000803e3d6000fd5b505050506040513d608081101561100457600080fd5b508051602082015160409092015190945090925090504263ffffffff908116908416146110a25785896001600160a01b0316631a6865026040518163ffffffff1660e01b815260040160206040518083038186803b15801561106557600080fd5b505afa158015611079573d6000803e3d6000fd5b505050506040513d602081101561108f57600080fd5b505190985096506111ee95505050505050565b60008461ffff1660018661ffff168861ffff160103816110be57fe5b0690506000806000808d6001600160a01b031663252c09d7866040518263ffffffff1660e01b81526004018082815260200191505060806040518083038186803b15801561110b57600080fd5b505afa15801561111f573d6000803e3d6000fd5b505050506040513d608081101561113557600080fd5b50805160208201516040830151606090930151919650945090925090508061118a576040805162461bcd60e51b81526020600482015260036024820152624f4e4960e81b604482015290519081900360640190fd5b83880363ffffffff811684890360060b816111a157fe5b059b506000640100000000600160c01b0384890360201b1663ffffffff83166001600160a01b03026001600160c01b0316816111d957fe5b9d9f50909c049c505050505050505050505050505b915091565b6040805160028082526060820183526000928392839290916020830190803683370190505090508385018160008151811061122a57fe5b602002602001019063ffffffff16908163ffffffff1681525050838160018151811061125257fe5b63ffffffff90921660209283029190910182015260405163883bdbfd60e01b81526004810182815283516024830152835160009384936001600160a01b038c169363883bdbfd9388939192839260449091019185820191028083838b5b838110156112c75781810151838201526020016112af565b505050509050019250505060006040518083038186803b1580156112ea57600080fd5b505afa1580156112fe573d6000803e3d6000fd5b505050506040513d6000823e601f3d908101601f19168201604090815281101561132757600080fd5b810190808051604051939291908464010000000082111561134757600080fd5b90830190602082018581111561135c57600080fd5b825186602082028301116401000000008211171561137957600080fd5b82525081516020918201928201910280838360005b838110156113a657818101518382015260200161138e565b50505050905001604052602001805160405193929190846401000000008211156113cf57600080fd5b9083019060208201858111156113e457600080fd5b825186602082028301116401000000008211171561140157600080fd5b82525081516020918201928201910280838360005b8381101561142e578181015183820152602001611416565b505050509050016040525050509150915060008260008151811061144e57fe5b60200260200101518360018151811061146357fe5b602002602001015103905060008260008151811061147d57fe5b60200260200101518360018151811061149257fe5b60200260200101510390508863ffffffff168260060b816114af57fe5b05965060008260060b1280156114d957508863ffffffff168260060b816114d257fe5b0760060b15155b156114e657600019909601955b63ffffffff89166001600160a01b0302640100000000600160c01b03602083901b166001600160c01b0382168161151957fe5b049650505050505050935093915050565b6000806000805b84518110156115ad5784818151811061154657fe5b6020026020010151602001516001600160801b031685828151811061156757fe5b60200260200101516000015160020b028301925084818151811061158757fe5b6020026020010151602001516001600160801b0316820191508080600101915050611531565b508082816115b757fe5b0592506000821280156115d257508082816115ce57fe5b0715155b156115df57600019909201915b5050919050565b6000806115f2866118ac565b90506001600160801b036001600160a01b03821611611661576001600160a01b03808216800290848116908616106116415761163c600160c01b876001600160801b031683611bde565b611659565b61165981876001600160801b0316600160c01b611bde565b9250506116d4565b60006116806001600160a01b0383168068010000000000000000611bde565b9050836001600160a01b0316856001600160a01b0316106116b8576116b3600160801b876001600160801b031683611bde565b6116d0565b6116d081876001600160801b0316600160801b611bde565b9250505b50949350505050565b6000806000836001600160a01b0316633850c7bd6040518163ffffffff1660e01b815260040160e06040518083038186803b15801561171b57600080fd5b505afa15801561172f573d6000803e3d6000fd5b505050506040513d60e081101561174557600080fd5b506040810151606090910151909250905061ffff8116611791576040805162461bcd60e51b81526020600482015260026024820152614e4960f01b604482015290519081900360640190fd5b600080856001600160a01b031663252c09d78461ffff168660010161ffff16816117b757fe5b066040518263ffffffff1660e01b8152600401808261ffff16815260200191505060806040518083038186803b1580156117f057600080fd5b505afa158015611804573d6000803e3d6000fd5b505050506040513d608081101561181a57600080fd5b5080516060909101519092509050806118a157856001600160a01b031663252c09d760006040518263ffffffff1660e01b81526004018082815260200191505060806040518083038186803b15801561187257600080fd5b505afa158015611886573d6000803e3d6000fd5b505050506040513d608081101561189c57600080fd5b505191505b504203949350505050565b60008060008360020b126118c3578260020b6118cb565b8260020b6000035b9050620d89e8811115611909576040805162461bcd60e51b81526020600482015260016024820152601560fa1b604482015290519081900360640190fd5b60006001821661191d57600160801b61192f565b6ffffcb933bd6fad37aa2d162d1a5940015b70ffffffffffffffffffffffffffffffffff1690506002821615611963576ffff97272373d413259a46990580e213a0260801c5b6004821615611982576ffff2e50f5f656932ef12357cf3c7fdcc0260801c5b60088216156119a1576fffe5caca7e10e4e61c3624eaa0941cd00260801c5b60108216156119c0576fffcb9843d60f6159c9db58835c9266440260801c5b60208216156119df576fff973b41fa98c081472e6896dfb254c00260801c5b60408216156119fe576fff2ea16466c96a3843ec78b326b528610260801c5b6080821615611a1d576ffe5dee046a99a2a811c461f1969c30530260801c5b610100821615611a3d576ffcbe86c7900a88aedcffc83b479aa3a40260801c5b610200821615611a5d576ff987a7253ac413176f2b074cf7815e540260801c5b610400821615611a7d576ff3392b0822b70005940c7a398e4b70f30260801c5b610800821615611a9d576fe7159475a2c29b7443b29c7fa6e889d90260801c5b611000821615611abd576fd097f3bdfd2022b8845ad8f792aa58250260801c5b612000821615611add576fa9f746462d870fdf8a65dc1f90e061e50260801c5b614000821615611afd576f70d869a156d2a1b890bb3df62baf32f70260801c5b618000821615611b1d576f31be135f97d08fd981231505542fcfa60260801c5b62010000821615611b3e576f09aa508b5b7a84e1c677de54f3e99bc90260801c5b62020000821615611b5e576e5d6af8dedb81196699c329225ee6040260801c5b62040000821615611b7d576d2216e584f5fa1ea926041bedfe980260801c5b62080000821615611b9a576b048a170391f7dc42444e8fa20260801c5b60008460020b1315611bb5578060001981611bb157fe5b0490505b640100000000810615611bc9576001611bcc565b60005b60ff16602082901c0192505050919050565b6000808060001985870986860292508281109083900303905080611c145760008411611c0957600080fd5b50829004905061030b565b808411611c2057600080fd5b6000848688096000868103871696879004966002600389028118808a02820302808a02820302808a02820302808a02820302808a02820302808a02909103029181900381900460010186841190950394909402919094039290920491909117919091029150509392505050565b604080518082019091526000808252602082015290565b604080516060810182526000808252602082018190529181019190915290565b80356001600160a01b0381168114610eaf57600080fd5b60008083601f840112611cec578182fd5b50813567ffffffffffffffff811115611d03578182fd5b6020830191508360208083028501011115611d1d57600080fd5b9250929050565b80356001600160801b0381168114610eaf57600080fd5b803561ffff81168114610eaf57600080fd5b803563ffffffff81168114610eaf57600080fd5b60008060408385031215611d73578182fd5b611d7c83611cc4565b9150611d8a60208401611cc4565b90509250929050565b600080600080600060808688031215611daa578081fd5b611db386611cc4565b9450611dc160208701611cc4565b9350604086013567ffffffffffffffff811115611ddc578182fd5b611de888828901611cdb565b9094509250611dfb905060608701611d3b565b90509295509295909350565b600080600080600060808688031215611e1e578081fd5b611e2786611cc4565b9450611e3560208701611cc4565b9350604086013567ffffffffffffffff811115611e50578182fd5b611e5c88828901611cdb565b9094509250611dfb905060608701611d4d565b600080600060608486031215611e83578283fd5b611e8c84611cc4565b9250611e9a60208501611cc4565b9150611ea860408501611d3b565b90509250925092565b600080600060608486031215611ec5578283fd5b611ece84611cc4565b9250611edc60208501611cc4565b9150611ea860408501611d4d565b600080600060408486031215611efe578283fd5b833567ffffffffffffffff811115611f14578384fd5b611f2086828701611cdb565b9094509250611ea8905060208501611d3b565b600080600060408486031215611f47578283fd5b833567ffffffffffffffff811115611f5d578384fd5b611f6986828701611cdb565b9094509250611ea8905060208501611d4d565b600060208284031215611f8d578081fd5b81518060020b811461030b578182fd5b60008060008060008060a08789031215611fb5578081fd5b611fbe87611d24565b9550611fcc60208801611cc4565b9450611fda60408801611cc4565b9350606087013567ffffffffffffffff811115611ff5578182fd5b61200189828a01611cdb565b9094509250612014905060808801611d4d565b90509295509295509295565b600080600080600080600060c0888a03121561203a578081fd5b61204388611d24565b965061205160208901611cc4565b955061205f60408901611cc4565b9450606088013567ffffffffffffffff81111561207a578182fd5b6120868a828b01611cdb565b9095509350612099905060808901611d4d565b91506120a760a08901611d4d565b905092959891949750929550565b60008060008060008060a087890312156120cd578384fd5b6120d687611d24565b95506120e460208801611cc4565b94506120f260408801611cc4565b9350606087013567ffffffffffffffff811115611ff5578283fd5b60008060008060808587031215612122578182fd5b61212b85611d24565b935061213960208601611cc4565b925061214760408601611cc4565b915061215560608601611d4d565b905092959194509250565b600080600080600060a08688031215612177578283fd5b61218086611d24565b945061218e60208701611cc4565b935061219c60408701611cc4565b92506121aa60608701611d4d565b9150611dfb60808701611d4d565b6000602082840312156121c9578081fd5b813562ffffff8116811461030b578182fd5b6000815180845260208085019450808401835b838110156122135781516001600160a01b0316875295820195908201906001016121ee565b509495945050505050565b60006020825261068a60208301846121db565b6020808252825182820181905260009190848201906040850190845b8181101561226e57835162ffffff168352928401929184019160010161224d565b50909695505050505050565b901515815260200190565b6001600160a01b0391909116815260200190565b602080825260169082015275151a595c88185b1c9958591e481cdd5c1c1bdc9d195960521b604082015260600190565b60208082526010908201526f4e6f20646566696e656420706f6f6c7360801b604082015260600190565b60208082526024908201527f43616e6e6f7420717565727920616e206f66667365747465642073706f742071604082015263756f746560e01b606082015260800190565b6020808252601d908201527f476976656e207469657220646f6573206e6f74206861766520706f6f6c000000604082015260600190565b60208082526010908201526f24b73b30b634b2103332b2903a34b2b960811b604082015260600190565b61ffff91909116815260200190565b62ffffff91909116815260200190565b90815260200190565b60008382526040602083015261032260408301846121db565b60ff9190911681526020019056fea164736f6c6343000706000a",
  "devdoc": {
    "kind": "dev",
    "methods": {
      "addNewFeeTier(uint24)": {
        "details": "Will revert if the given tier is invalid, or already supported",
        "params": {
          "feeTier": "The new fee tier to add"
        }
      },
      "getAllPoolsForPair(address,address)": {
        "details": "The pair can be provided in tokenA/tokenB or tokenB/tokenA order",
        "returns": {
          "_0": "All existing pools for the given pair"
        }
      },
      "isPairSupported(address,address)": {
        "details": "The pair can be provided in tokenA/tokenB or tokenB/tokenA order",
        "returns": {
          "_0": "Whether the given pair can be supported by the oracle"
        }
      },
      "prepareAllAvailablePoolsWithCardinality(address,address,uint16)": {
        "details": "Will revert if there are no pools available for the pair and period combination",
        "params": {
          "cardinality": "The cardinality that will be guaranteed when quoting",
          "tokenA": "One of the pair's tokens",
          "tokenB": "The other of the pair's tokens"
        },
        "returns": {
          "_preparedPools": "The pools that were prepared"
        }
      },
      "prepareAllAvailablePoolsWithTimePeriod(address,address,uint32)": {
        "details": "Will revert if there are no pools available for the pair and period combination",
        "params": {
          "period": "The period that will be guaranteed when quoting",
          "tokenA": "One of the pair's tokens",
          "tokenB": "The other of the pair's tokens"
        },
        "returns": {
          "_preparedPools": "The pools that were prepared"
        }
      },
      "prepareSpecificFeeTiersWithCardinality(address,address,uint24[],uint16)": {
        "details": "Will revert if the pair does not have a pool for a given fee tier",
        "params": {
          "cardinality": "The cardinality that will be guaranteed when quoting",
          "feeTiers": "The fee tiers to consider when searching for the pair's pools",
          "tokenA": "One of the pair's tokens",
          "tokenB": "The other of the pair's tokens"
        },
        "returns": {
          "_preparedPools": "The pools that were prepared"
        }
      },
      "prepareSpecificFeeTiersWithTimePeriod(address,address,uint24[],uint32)": {
        "details": "Will revert if the pair does not have a pool for a given fee tier",
        "params": {
          "feeTiers": "The fee tiers to consider when searching for the pair's pools",
          "period": "The period that will be guaranteed when quoting",
          "tokenA": "One of the pair's tokens",
          "tokenB": "The other of the pair's tokens"
        },
        "returns": {
          "_preparedPools": "The pools that were prepared"
        }
      },
      "prepareSpecificPoolsWithCardinality(address[],uint16)": {
        "params": {
          "cardinality": "The cardinality that will be guaranteed when quoting",
          "pools": "The pools to initialize"
        }
      },
      "prepareSpecificPoolsWithTimePeriod(address[],uint32)": {
        "params": {
          "period": "The period that will be guaranteed when quoting",
          "pools": "The pools to initialize"
        }
      },
      "quoteAllAvailablePoolsWithOffsetTimePeriod(uint128,address,address,uint32,uint32)": {
        "details": "If some pools are not configured correctly for the given period + offset, then they will be ignoredWill revert if there are no pools available/configured for the pair and period combination",
        "params": {
          "baseAmount": "Amount of token to be converted",
          "baseToken": "Address of an ERC20 token contract used as the baseAmount denomination",
          "offset": "Number of seconds ago to start the TWAP calculation",
          "period": "Length in seconds of the TWAP calculation length",
          "quoteToken": "Address of an ERC20 token contract used as the quoteAmount denomination"
        },
        "returns": {
          "_queriedPools": "The pools that were queried to calculate the quote",
          "_quoteAmount": "Amount of quoteToken received for baseAmount of baseToken"
        }
      },
      "quoteAllAvailablePoolsWithTimePeriod(uint128,address,address,uint32)": {
        "details": "If some pools are not configured correctly for the given period, then they will be ignoredWill revert if there are no pools available/configured for the pair and period combination",
        "params": {
          "baseAmount": "Amount of token to be converted",
          "baseToken": "Address of an ERC20 token contract used as the baseAmount denomination",
          "period": "Number of seconds from which to calculate the TWAP",
          "quoteToken": "Address of an ERC20 token contract used as the quoteAmount denomination"
        },
        "returns": {
          "_queriedPools": "The pools that were queried to calculate the quote",
          "_quoteAmount": "Amount of quoteToken received for baseAmount of baseToken"
        }
      },
      "quoteSpecificFeeTiersWithOffsetTimePeriod(uint128,address,address,uint24[],uint32,uint32)": {
        "details": "Will revert if the pair does not have a pool for one of the given fee tiersWill revert if one of the pools is not prepared/configured correctly for the given period + offset",
        "params": {
          "baseAmount": "Amount of token to be converted",
          "baseToken": "Address of an ERC20 token contract used as the baseAmount denomination",
          "feeTiers": "The fee tiers to consider when calculating the quote",
          "offset": "Number of seconds ago to start the TWAP calculation",
          "period": "Length in seconds of the TWAP calculation length",
          "quoteToken": "Address of an ERC20 token contract used as the quoteAmount denomination"
        },
        "returns": {
          "_queriedPools": "The pools that were queried to calculate the quote",
          "_quoteAmount": "Amount of quoteToken received for baseAmount of baseToken"
        }
      },
      "quoteSpecificFeeTiersWithTimePeriod(uint128,address,address,uint24[],uint32)": {
        "details": "Will revert if the pair does not have a pool for one of the given fee tiers, or if one of the pools is not prepared/configured correctly for the given period",
        "params": {
          "baseAmount": "Amount of token to be converted",
          "baseToken": "Address of an ERC20 token contract used as the baseAmount denomination",
          "feeTiers": "The fee tiers to consider when calculating the quote",
          "period": "Number of seconds from which to calculate the TWAP",
          "quoteToken": "Address of an ERC20 token contract used as the quoteAmount denomination"
        },
        "returns": {
          "_queriedPools": "The pools that were queried to calculate the quote",
          "_quoteAmount": "Amount of quoteToken received for baseAmount of baseToken"
        }
      },
      "quoteSpecificPoolsWithOffsettedTimePeriod(uint128,address,address,address[],uint32,uint32)": {
        "details": "Will revert if one of the pools is not prepared/configured correctly for the given period",
        "params": {
          "baseAmount": "Amount of token to be converted",
          "baseToken": "Address of an ERC20 token contract used as the baseAmount denomination",
          "offset": "Number of seconds ago to start the TWAP calculation",
          "period": "Length in seconds of the TWAP calculation length",
          "pools": "The pools to consider when calculating the quote",
          "quoteToken": "Address of an ERC20 token contract used as the quoteAmount denomination"
        },
        "returns": {
          "_quoteAmount": "Amount of quoteToken received for baseAmount of baseToken"
        }
      },
      "quoteSpecificPoolsWithTimePeriod(uint128,address,address,address[],uint32)": {
        "details": "Will revert if one of the pools is not prepared/configured correctly for the given period",
        "params": {
          "baseAmount": "Amount of token to be converted",
          "baseToken": "Address of an ERC20 token contract used as the baseAmount denomination",
          "period": "Number of seconds from which to calculate the TWAP",
          "pools": "The pools to consider when calculating the quote",
          "quoteToken": "Address of an ERC20 token contract used as the quoteAmount denomination"
        },
        "returns": {
          "_quoteAmount": "Amount of quoteToken received for baseAmount of baseToken"
        }
      },
      "supportedFeeTiers()": {
        "returns": {
          "_0": "The supported fee tiers"
        }
      }
    },
    "stateVariables": {
      "CARDINALITY_PER_MINUTE": {
        "details": "This value is assigned during deployment and cannot be changed",
        "return": "Number of observation that are needed per minute"
      },
      "UNISWAP_V3_FACTORY": {
        "details": "This value is assigned during deployment and cannot be changed",
        "return": "The address of the Uniswap V3 factory"
      }
    },
    "title": "Uniswap V3 Static Oracle",
    "version": 1
  },
  "userdoc": {
    "kind": "user",
    "methods": {
      "CARDINALITY_PER_MINUTE()": {
        "notice": "Returns how many observations are needed per minute in Uniswap V3 oracles, on the deployed chain"
      },
      "UNISWAP_V3_FACTORY()": {
        "notice": "Returns the address of the Uniswap V3 factory"
      },
      "addNewFeeTier(uint24)": {
        "notice": "Adds support for a new fee tier"
      },
      "getAllPoolsForPair(address,address)": {
        "notice": "Returns all existing pools for the given pair"
      },
      "isPairSupported(address,address)": {
        "notice": "Returns whether a specific pair can be supported by the oracle"
      },
      "prepareAllAvailablePoolsWithCardinality(address,address,uint16)": {
        "notice": "Will increase observations for all existing pools for the given pair, so they start accruing information for twap calculations"
      },
      "prepareAllAvailablePoolsWithTimePeriod(address,address,uint32)": {
        "notice": "Will initialize all existing pools for the given pair, so that they can be queried with the given period in the future"
      },
      "prepareSpecificFeeTiersWithCardinality(address,address,uint24[],uint16)": {
        "notice": "Will increase the pair's pools with the specified fee tiers observations, so they start accruing information for twap calculations"
      },
      "prepareSpecificFeeTiersWithTimePeriod(address,address,uint24[],uint32)": {
        "notice": "Will initialize the pair's pools with the specified fee tiers, so that they can be queried with the given period in the future"
      },
      "prepareSpecificPoolsWithCardinality(address[],uint16)": {
        "notice": "Will increase all given pools observations, so they start accruing information for twap calculations"
      },
      "prepareSpecificPoolsWithTimePeriod(address[],uint32)": {
        "notice": "Will initialize all given pools, so that they can be queried with the given period in the future"
      },
      "quoteAllAvailablePoolsWithOffsetTimePeriod(uint128,address,address,uint32,uint32)": {
        "notice": "Returns a quote, based on the given tokens and amount, by querying all of the pair's pools"
      },
      "quoteAllAvailablePoolsWithTimePeriod(uint128,address,address,uint32)": {
        "notice": "Returns a quote, based on the given tokens and amount, by querying all of the pair's pools"
      },
      "quoteSpecificFeeTiersWithOffsetTimePeriod(uint128,address,address,uint24[],uint32,uint32)": {
        "notice": "Returns a quote, based on the given tokens and amount, by querying only the specified fee tiers"
      },
      "quoteSpecificFeeTiersWithTimePeriod(uint128,address,address,uint24[],uint32)": {
        "notice": "Returns a quote, based on the given tokens and amount, by querying only the specified fee tiers"
      },
      "quoteSpecificPoolsWithOffsettedTimePeriod(uint128,address,address,address[],uint32,uint32)": {
        "notice": "Returns a quote, based on the given tokens and amount, by querying only the specified pools"
      },
      "quoteSpecificPoolsWithTimePeriod(uint128,address,address,address[],uint32)": {
        "notice": "Returns a quote, based on the given tokens and amount, by querying only the specified pools"
      },
      "supportedFeeTiers()": {
        "notice": "Returns all supported fee tiers"
      }
    },
    "notice": "Oracle contract for price quoting against Uniswap V3 pools",
    "version": 1
  },
  "storageLayout": {
    "storage": [
      {
        "astId": 27871,
        "contract": "contracts/dex_oracle/StaticOracle.sol:StaticOracle",
        "label": "_knownFeeTiers",
        "offset": 0,
        "slot": "0",
        "type": "t_array(t_uint24)dyn_storage"
      }
    ],
    "types": {
      "t_array(t_uint24)dyn_storage": {
        "base": "t_uint24",
        "encoding": "dynamic_array",
        "label": "uint24[]",
        "numberOfBytes": "32"
      },
      "t_uint24": {
        "encoding": "inplace",
        "label": "uint24",
        "numberOfBytes": "3"
      }
    }
  }
}