{
  "address": "0xbc4D29cC4EccE3e994483d728e497696A40b94a8",
  "abi": [
    {
      "anonymous": false,
      "inputs": [
        {
          "indexed": false,
          "internalType": "address",
          "name": "previousAdmin",
          "type": "address"
        },
        {
          "indexed": false,
          "internalType": "address",
          "name": "newAdmin",
          "type": "address"
        }
      ],
      "name": "AdminChanged",
      "type": "event"
    },
    {
      "anonymous": false,
      "inputs": [
        {
          "indexed": true,
          "internalType": "address",
          "name": "implementation",
          "type": "address"
        }
      ],
      "name": "Upgraded",
      "type": "event"
    },
    {
      "stateMutability": "payable",
      "type": "fallback"
    },
    {
      "inputs": [],
      "name": "admin",
      "outputs": [
        {
          "internalType": "address",
          "name": "",
          "type": "address"
        }
      ],
      "stateMutability": "nonpayable",
      "type": "function"
    },
    {
      "inputs": [
        {
          "internalType": "address",
          "name": "newAdmin",
          "type": "address"
        }
      ],
      "name": "changeAdmin",
      "outputs": [],
      "stateMutability": "nonpayable",
      "type": "function"
    },
    {
      "inputs": [],
      "name": "implementation",
      "outputs": [
        {
          "internalType": "address",
          "name": "",
          "type": "address"
        }
      ],
      "stateMutability": "nonpayable",
      "type": "function"
    },
    {
      "inputs": [
        {
          "internalType": "address",
          "name": "logic",
          "type": "address"
        },
        {
          "internalType": "address",
          "name": "admin",
          "type": "address"
        },
        {
          "internalType": "bytes",
          "name": "data",
          "type": "bytes"
        }
      ],
      "name": "initialize",
      "outputs": [],
      "stateMutability": "payable",
      "type": "function"
    },
    {
      "inputs": [
        {
          "internalType": "address",
          "name": "_logic",
          "type": "address"
        },
        {
          "internalType": "bytes",
          "name": "_data",
          "type": "bytes"
        }
      ],
      "name": "initialize",
      "outputs": [],
      "stateMutability": "payable",
      "type": "function"
    },
    {
      "inputs": [
        {
          "internalType": "address",
          "name": "newImplementation",
          "type": "address"
        }
      ],
      "name": "upgradeTo",
      "outputs": [],
      "stateMutability": "nonpayable",
      "type": "function"
    },
    {
      "inputs": [
        {
          "internalType": "address",
          "name": "newImplementation",
          "type": "address"
        },
        {
          "internalType": "bytes",
          "name": "data",
          "type": "bytes"
        }
      ],
      "name": "upgradeToAndCall",
      "outputs": [],
      "stateMutability": "payable",
      "type": "function"
    }
  ],
  "transactionHash": "0xd15a15c62d435d0a11d6cc3cf8ac988f62d7fe4385ea2d5c53663a1277ecfd31",
  "args": [],
  "numDeployments": 1,
  "solcInputHash": "1cd9cfd68071fb9d0e3b7e5c91bb726a",
  "bytecode": "0x60808060405234610016576106be908161001c8239f35b600080fdfe6080604052600436106104dd576000803560e01c9081633659cfe61461007f575080634f1ef2861461007a5780635c60da1b146100755780638f28397014610070578063cf7a1d771461006b578063d1f57894146100665763f851a440036104dd57610425565b6103e7565b61036d565b6101d7565b610188565b6100e8565b346100ca5760203660031901126100ca576100986100cd565b60008051602061064983398151915254336001600160a01b03909116036100c5576100c29061058b565b80f35b6104dd565b80fd5b600435906001600160a01b03821682036100e357565b600080fd5b60403660031901126100e3576100fc6100cd565b60243567ffffffffffffffff918282116100e357366023830112156100e35781600401359283116100e35736602484840101116100e35760008051602061064983398151915254336001600160a01b03909116036100c55760246000939284936101658461058b565b80604051938493018337810184815203915af4610180610467565b50156100e357005b346100e35760003660031901126100e357600080516020610649833981519152546001600160a01b039033908216036100c5576000805160206106698339815191525460405191168152602090f35b346100e35760203660031901126100e3576101f06100cd565b60008051602061064983398151915280546001600160a01b0392919033908416036100c55782821690811561026a57610268937f7e644d79422f17c01e4894b5f4f588d331ebfa28653d42ae832dc59e38c9798f9260409254918351921682526020820152a160008051602061064983398151915255565b005b60405162461bcd60e51b815260206004820152603660248201527f43616e6e6f74206368616e6765207468652061646d696e206f6620612070726f604482015275787920746f20746865207a65726f206164647265737360501b6064820152608490fd5b634e487b7160e01b600052604160045260246000fd5b6040519190601f01601f1916820167ffffffffffffffff81118382101761030a57604052565b6102ce565b67ffffffffffffffff811161030a57601f01601f191660200190565b81601f820112156100e35780359061034a6103458361030f565b6102e4565b92828452602083830101116100e357816000926020809301838601378301015290565b60603660031901126100e3576103816100cd565b602435906001600160a01b0380831683036100e35760443567ffffffffffffffff81116100e3576103b690369060040161032b565b9060008051602061066983398151915254166100e3576103d59161048d565b60008051602061064983398151915255005b60403660031901126100e3576103fb6100cd565b6024359067ffffffffffffffff82116100e35761041f61026892369060040161032b565b9061048d565b346100e35760003660031901126100e35760008051602061064983398151915280546001600160a01b039033908216036100c557602091549060405191168152f35b3d15610488573d9061047b6103458361030f565b9182523d6000602084013e565b606090565b600080516020610669833981519152549091906001600160a01b03166100e3576104b6826105c4565b8051806104c257505050565b6000926020849301905af46104d5610467565b50156100e357565b600080516020610649833981519152546001600160a01b0316331461052b57600080516020610669833981519152546000808092368280378136915af43d82803e15610527573d90f35b3d90fd5b60405162461bcd60e51b815260206004820152603260248201527f43616e6e6f742063616c6c2066616c6c6261636b2066756e6374696f6e20667260448201527137b6903a343290383937bc3c9030b236b4b760711b6064820152608490fd5b610594816105c4565b6001600160a01b03167fbc7cd75a20ee27fd9adebab32041f755214dbc6bffa90cc0225b39da2e5c2d3b600080a2565b803b156105dd5760008051602061066983398151915255565b60405162461bcd60e51b815260206004820152603b60248201527f43616e6e6f742073657420612070726f787920696d706c656d656e746174696f60448201527f6e20746f2061206e6f6e2d636f6e7472616374206164647265737300000000006064820152608490fdfeb53127684a568b3173ae13b9f8a6016e243e63b6e8ee1178d6a717850b5d6103360894a13ba1a3210667c828492db98dca3e2076cc3735a920a3ca505d382bbca26469706673582212204acbf00cf91071fe493e1e4772917a4898380b1f8cc42ecb78701cc0e7b1855164736f6c63430008180033",
  "devdoc": {
    "details": "Extends from BaseAdminUpgradeabilityProxy with an initializer for initializing the implementation, admin, and init data.",
    "events": {
      "AdminChanged(address,address)": {
        "details": "Emitted when the administration has been transferred.",
        "params": {
          "newAdmin": "Address of the new admin.",
          "previousAdmin": "Address of the previous admin."
        }
      },
      "Upgraded(address)": {
        "details": "Emitted when the implementation is upgraded.",
        "params": {
          "implementation": "Address of the new implementation."
        }
      }
    },
    "kind": "dev",
    "methods": {
      "admin()": {
        "returns": {
          "_0": "The address of the proxy admin."
        }
      },
      "changeAdmin(address)": {
        "details": "Changes the admin of the proxy. Only the current admin can call this function.",
        "params": {
          "newAdmin": "Address to transfer proxy administration to."
        }
      },
      "implementation()": {
        "returns": {
          "_0": "The address of the implementation."
        }
      },
      "initialize(address,address,bytes)": {
        "params": {
          "admin": "Address of the proxy administrator.",
          "data": "Data to send as msg.data to the implementation to initialize the proxied contract. It should include the signature and the parameters of the function to be called, as described in https://solidity.readthedocs.io/en/v0.4.24/abi-spec.html#function-selector-and-argument-encoding. This parameter is optional, if no data is given the initialization call to proxied contract will be skipped.",
          "logic": "address of the initial implementation."
        }
      },
      "initialize(address,bytes)": {
        "details": "Contract initializer.",
        "params": {
          "_data": "Data to send as msg.data to the implementation to initialize the proxied contract. It should include the signature and the parameters of the function to be called, as described in https://solidity.readthedocs.io/en/v0.4.24/abi-spec.html#function-selector-and-argument-encoding. This parameter is optional, if no data is given the initialization call to proxied contract will be skipped.",
          "_logic": "Address of the initial implementation."
        }
      },
      "upgradeTo(address)": {
        "details": "Upgrade the backing implementation of the proxy. Only the admin can call this function.",
        "params": {
          "newImplementation": "Address of the new implementation."
        }
      },
      "upgradeToAndCall(address,bytes)": {
        "details": "Upgrade the backing implementation of the proxy and call a function on the new implementation. This is useful to initialize the proxied contract.",
        "params": {
          "data": "Data to send as msg.data in the low level call. It should include the signature and the parameters of the function to be called, as described in https://solidity.readthedocs.io/en/v0.4.24/abi-spec.html#function-selector-and-argument-encoding.",
          "newImplementation": "Address of the new implementation."
        }
      }
    },
    "title": "InitializableAdminUpgradeabilityProxy",
    "version": 1
  },
  "userdoc": {
    "kind": "user",
    "methods": {
      "initialize(address,address,bytes)": {
        "notice": "Contract initializer."
      }
    },
    "version": 1
  },
  "storageLayout": {
    "storage": [],
    "types": null
  }
}