{
  "address": "0xf97e103F05B6a58eD581DAdf9a21B9Ed8b778372",
  "abi": [
    {
      "inputs": [
        {
          "internalType": "address",
          "name": "aaveGovShortTimelock",
          "type": "address"
        }
      ],
      "stateMutability": "nonpayable",
      "type": "constructor"
    },
    {
      "anonymous": false,
      "inputs": [
        {
          "indexed": true,
          "internalType": "address",
          "name": "previousOwner",
          "type": "address"
        },
        {
          "indexed": true,
          "internalType": "address",
          "name": "newOwner",
          "type": "address"
        }
      ],
      "name": "OwnershipTransferred",
      "type": "event"
    },
    {
      "inputs": [
        {
          "internalType": "address",
          "name": "collector",
          "type": "address"
        },
        {
          "internalType": "contract IERC20",
          "name": "token",
          "type": "address"
        },
        {
          "internalType": "address",
          "name": "recipient",
          "type": "address"
        },
        {
          "internalType": "uint256",
          "name": "amount",
          "type": "uint256"
        }
      ],
      "name": "approve",
      "outputs": [],
      "stateMutability": "nonpayable",
      "type": "function"
    },
    {
      "inputs": [
        {
          "internalType": "address",
          "name": "collector",
          "type": "address"
        },
        {
          "internalType": "uint256",
          "name": "streamId",
          "type": "uint256"
        }
      ],
      "name": "cancelStream",
      "outputs": [
        {
          "internalType": "bool",
          "name": "",
          "type": "bool"
        }
      ],
      "stateMutability": "nonpayable",
      "type": "function"
    },
    {
      "inputs": [
        {
          "internalType": "address",
          "name": "collector",
          "type": "address"
        },
        {
          "internalType": "address",
          "name": "recipient",
          "type": "address"
        },
        {
          "internalType": "uint256",
          "name": "deposit",
          "type": "uint256"
        },
        {
          "internalType": "contract IERC20",
          "name": "tokenAddress",
          "type": "address"
        },
        {
          "internalType": "uint256",
          "name": "startTime",
          "type": "uint256"
        },
        {
          "internalType": "uint256",
          "name": "stopTime",
          "type": "uint256"
        }
      ],
      "name": "createStream",
      "outputs": [
        {
          "internalType": "uint256",
          "name": "",
          "type": "uint256"
        }
      ],
      "stateMutability": "nonpayable",
      "type": "function"
    },
    {
      "inputs": [],
      "name": "owner",
      "outputs": [
        {
          "internalType": "address",
          "name": "",
          "type": "address"
        }
      ],
      "stateMutability": "view",
      "type": "function"
    },
    {
      "inputs": [],
      "name": "renounceOwnership",
      "outputs": [],
      "stateMutability": "nonpayable",
      "type": "function"
    },
    {
      "inputs": [
        {
          "internalType": "address",
          "name": "collector",
          "type": "address"
        },
        {
          "internalType": "contract IERC20",
          "name": "token",
          "type": "address"
        },
        {
          "internalType": "address",
          "name": "recipient",
          "type": "address"
        },
        {
          "internalType": "uint256",
          "name": "amount",
          "type": "uint256"
        }
      ],
      "name": "transfer",
      "outputs": [],
      "stateMutability": "nonpayable",
      "type": "function"
    },
    {
      "inputs": [
        {
          "internalType": "address",
          "name": "newOwner",
          "type": "address"
        }
      ],
      "name": "transferOwnership",
      "outputs": [],
      "stateMutability": "nonpayable",
      "type": "function"
    },
    {
      "inputs": [
        {
          "internalType": "address",
          "name": "collector",
          "type": "address"
        },
        {
          "internalType": "uint256",
          "name": "streamId",
          "type": "uint256"
        },
        {
          "internalType": "uint256",
          "name": "funds",
          "type": "uint256"
        }
      ],
      "name": "withdrawFromStream",
      "outputs": [
        {
          "internalType": "bool",
          "name": "",
          "type": "bool"
        }
      ],
      "stateMutability": "nonpayable",
      "type": "function"
    }
  ],
  "transactionHash": "0xdfdb26a9cc3462450b75274b64f11ddb3d0dc8eff1e419b44819a909826f88d5",
  "args": [
    "0x53Ae1433Ab4563d7D5a84d27524784837259f105"
  ],
  "numDeployments": 1,
  "solcInputHash": "4a6a3ab49a41002471a76f77fc4e04dd",
  "bytecode": "0x60803461010157601f61074f38819003918201601f19168301916001600160401b038311848410176101065780849260209460405283398101031261010157516001600160a01b0381169081900361010157600080547f8be0079c531659141344cd1fd0a4f28419497f9722a3daafe3b4186f6b6457e092906001600160a01b0319908116903384868180a382156100ad57826040519533908680a3331617179055610632908161011d8239f35b60405162461bcd60e51b815260206004820152602660248201527f4f776e61626c653a206e6577206f776e657220697320746865207a65726f206160448201526564647265737360d01b6064820152608490fd5b600080fd5b634e487b7160e01b600052604160045260246000fdfe60406080815260048036101561001457600080fd5b600091823560e01c80632f436bfa1461048457806359eba454146103f4578063715018a6146103985780637dc14a8e146102ff5780638da5cb5b146102d357838163f18d03cc1461022957508063f2fde38b146101625763fd59e1341461007a57600080fd5b346101475760c0366003190112610147576100936104f6565b6024356001600160a01b038181169182900361015d576064359481861680960361015d5786826020956100cc60a495845416331461054d565b8751988996879563660da5fb60e11b875286015260443560248601526044850152608435606485015284356084850152165af1918215610153578392610117575b6020838351908152f35b9091506020813d60201161014b575b81610133602093836105c2565b81010312610147576020925051903861010d565b8280fd5b3d9150610126565b81513d85823e3d90fd5b600080fd5b5090346101475760203660031901126101475761017d6104f6565b8354916001600160a01b038084169261019733851461054d565b169384156101d757505082907f8be0079c531659141344cd1fd0a4f28419497f9722a3daafe3b4186f6b6457e08580a36001600160a01b03191617815580f35b906020608492519162461bcd60e51b8352820152602660248201527f4f776e61626c653a206e6577206f776e657220697320746865207a65726f206160448201526564647265737360d01b6064820152fd5b808484346102cf5761023a3661050c565b86549095939192916001600160a01b0391610258908316331461054d565b1690813b156102cb5784516317d5759960e31b81526001600160a01b0391821694810194855292166020840152604083019490945292849184919082908490829060600103925af19081156102c257506102af5750f35b6102b890610598565b6102bf5780f35b80fd5b513d84823e3d90fd5b8680fd5b5050fd5b8382346102fb57816003193601126102fb57905490516001600160a01b039091168152602090f35b5080fd5b5034610147578060031936011261014757602061031a6104f6565b84546001600160a01b0394602491610335908716331461054d565b8685519687948593636db9241b60e01b8552853590850152165af19182156101535760209392610369575b50519015158152f35b61038a919250833d8511610391575b61038281836105c2565b8101906105e4565b9038610360565b503d610378565b83346102bf57806003193601126102bf578054816001600160a01b0382166103c133821461054d565b7f8be0079c531659141344cd1fd0a4f28419497f9722a3daafe3b4186f6b6457e08280a36001600160a01b031916815580f35b503461014757826104043661050c565b9591909260018060a01b039061041e82875416331461054d565b1691823b1561048057855163e1f21c6760e01b81526001600160a01b039283169181019182529190931660208401526040830195909552849182908490829060600103925af19081156102c25750610474575080f35b61047d90610598565b80f35b8480fd5b50346101475760603660031901126101475760206104a06104f6565b84546001600160a01b03946044916104bb908716331461054d565b8685519687948593631ea6cb1b60e21b85526024359085015284356024850152165af191821561015357602093926103695750519015158152f35b600435906001600160a01b038216820361015d57565b608090600319011261015d576001600160a01b03600435818116810361015d5791602435828116810361015d5791604435908116810361015d579060643590565b1561055457565b606460405162461bcd60e51b815260206004820152602060248201527f4f776e61626c653a2063616c6c6572206973206e6f7420746865206f776e65726044820152fd5b67ffffffffffffffff81116105ac57604052565b634e487b7160e01b600052604160045260246000fd5b90601f8019910116810190811067ffffffffffffffff8211176105ac57604052565b9081602091031261015d5751801515810361015d579056fea264697066735822122051ddb40b10a98a5343c001c264715cf60468a6e57ab515f7afdab6ebd175efb764736f6c63430008180033",
  "devdoc": {
    "kind": "dev",
    "methods": {
      "approve(address,address,address,uint256)": {
        "params": {
          "amount": "Allowance to approve*",
          "collector": "The collector contract with funds (Aave ecosystem reserve)",
          "recipient": "Allowance's recipient",
          "token": "The asset address"
        }
      },
      "cancelStream(address,uint256)": {
        "params": {
          "collector": "The collector contract with funds (Aave ecosystem reserve)",
          "streamId": "The id of the stream to cancel"
        },
        "returns": {
          "_0": "bool If the cancellation happened correctly*"
        }
      },
      "constructor": {
        "params": {
          "aaveGovShortTimelock": "The address of the Aave's governance executor, owning this contract"
        }
      },
      "createStream(address,address,uint256,address,uint256,uint256)": {
        "params": {
          "collector": "The collector contract with funds (Aave ecosystem reserve)",
          "deposit": "Total amount to be streamed",
          "recipient": "The recipient of the stream of token",
          "startTime": "The unix timestamp for when the stream starts",
          "stopTime": "The unix timestamp for when the stream stops",
          "tokenAddress": "The ERC20 token to use as streaming asset"
        },
        "returns": {
          "_0": "uint256 The stream id created*"
        }
      },
      "owner()": {
        "details": "Returns the address of the current owner."
      },
      "renounceOwnership()": {
        "details": "Leaves the contract without owner. It will not be possible to call `onlyOwner` functions anymore. Can only be called by the current owner. NOTE: Renouncing ownership will leave the contract without an owner, thereby removing any functionality that is only available to the owner."
      },
      "transfer(address,address,address,uint256)": {
        "params": {
          "amount": "Amount to transfer*",
          "collector": "The collector contract with funds (Aave ecosystem reserve)",
          "recipient": "Transfer's recipient",
          "token": "The asset address"
        }
      },
      "transferOwnership(address)": {
        "details": "Transfers ownership of the contract to a new account (`newOwner`). Can only be called by the current owner."
      },
      "withdrawFromStream(address,uint256,uint256)": {
        "params": {
          "collector": "The collector contract with funds (Aave ecosystem reserve)",
          "funds": "Amount to withdraw",
          "streamId": "The id of the stream to withdraw tokens from"
        },
        "returns": {
          "_0": "bool If the withdrawal finished properly*"
        }
      }
    },
    "version": 1
  },
  "userdoc": {
    "kind": "user",
    "methods": {
      "approve(address,address,address,uint256)": {
        "notice": "Proxy function for ERC20's approve(), pointing to a specific collector contract"
      },
      "cancelStream(address,uint256)": {
        "notice": "Proxy function to cancel a stream of token on a specific collector contract"
      },
      "constructor": {
        "notice": "Constructor."
      },
      "createStream(address,address,uint256,address,uint256,uint256)": {
        "notice": "Proxy function to create a stream of token on a specific collector contract"
      },
      "transfer(address,address,address,uint256)": {
        "notice": "Proxy function for ERC20's transfer(), pointing to a specific collector contract"
      },
      "withdrawFromStream(address,uint256,uint256)": {
        "notice": "Proxy function to withdraw from a stream of token on a specific collector contract"
      }
    },
    "version": 1
  },
  "storageLayout": {
    "storage": [
      {
        "astId": 11450,
        "contract": "contracts/lending/periphery/treasury/AaveEcosystemReserveController.sol:AaveEcosystemReserveController",
        "label": "_owner",
        "offset": 0,
        "slot": "0",
        "type": "t_address"
      }
    ],
    "types": {
      "t_address": {
        "encoding": "inplace",
        "label": "address",
        "numberOfBytes": "20"
      }
    }
  }
}