{
  "address": "0x9C7E1513F86B6D38B3E802da9D7E7049DbdbeA97",
  "abi": [
    {
      "inputs": [
        {
          "components": [
            {
              "internalType": "address",
              "name": "permit2",
              "type": "address"
            },
            {
              "internalType": "address",
              "name": "weth9",
              "type": "address"
            },
            {
              "internalType": "address",
              "name": "seaportV1_5",
              "type": "address"
            },
            {
              "internalType": "address",
              "name": "seaportV1_4",
              "type": "address"
            },
            {
              "internalType": "address",
              "name": "openseaConduit",
              "type": "address"
            },
            {
              "internalType": "address",
              "name": "nftxZap",
              "type": "address"
            },
            {
              "internalType": "address",
              "name": "x2y2",
              "type": "address"
            },
            {
              "internalType": "address",
              "name": "foundation",
              "type": "address"
            },
            {
              "internalType": "address",
              "name": "sudoswap",
              "type": "address"
            },
            {
              "internalType": "address",
              "name": "elementMarket",
              "type": "address"
            },
            {
              "internalType": "address",
              "name": "nft20Zap",
              "type": "address"
            },
            {
              "internalType": "address",
              "name": "cryptopunks",
              "type": "address"
            },
            {
              "internalType": "address",
              "name": "looksRareV2",
              "type": "address"
            },
            {
              "internalType": "address",
              "name": "routerRewardsDistributor",
              "type": "address"
            },
            {
              "internalType": "address",
              "name": "looksRareRewardsDistributor",
              "type": "address"
            },
            {
              "internalType": "address",
              "name": "looksRareToken",
              "type": "address"
            },
            {
              "internalType": "address",
              "name": "v3Factory",
              "type": "address"
            },
            {
              "internalType": "bytes32",
              "name": "poolInitCodeHash",
              "type": "bytes32"
            }
          ],
          "internalType": "struct RouterParameters",
          "name": "params",
          "type": "tuple"
        }
      ],
      "stateMutability": "nonpayable",
      "type": "constructor"
    },
    {
      "inputs": [],
      "name": "BalanceTooLow",
      "type": "error"
    },
    {
      "inputs": [],
      "name": "BuyPunkFailed",
      "type": "error"
    },
    {
      "inputs": [],
      "name": "ContractLocked",
      "type": "error"
    },
    {
      "inputs": [],
      "name": "ETHNotAccepted",
      "type": "error"
    },
    {
      "inputs": [
        {
          "internalType": "uint256",
          "name": "commandIndex",
          "type": "uint256"
        },
        {
          "internalType": "bytes",
          "name": "message",
          "type": "bytes"
        }
      ],
      "name": "ExecutionFailed",
      "type": "error"
    },
    {
      "inputs": [],
      "name": "FromAddressIsNotOwner",
      "type": "error"
    },
    {
      "inputs": [],
      "name": "InsufficientETH",
      "type": "error"
    },
    {
      "inputs": [],
      "name": "InsufficientToken",
      "type": "error"
    },
    {
      "inputs": [],
      "name": "InvalidBips",
      "type": "error"
    },
    {
      "inputs": [
        {
          "internalType": "uint256",
          "name": "commandType",
          "type": "uint256"
        }
      ],
      "name": "InvalidCommandType",
      "type": "error"
    },
    {
      "inputs": [],
      "name": "InvalidOwnerERC1155",
      "type": "error"
    },
    {
      "inputs": [],
      "name": "InvalidOwnerERC721",
      "type": "error"
    },
    {
      "inputs": [],
      "name": "InvalidSpender",
      "type": "error"
    },
    {
      "inputs": [],
      "name": "LengthMismatch",
      "type": "error"
    },
    {
      "inputs": [],
      "name": "SliceOutOfBounds",
      "type": "error"
    },
    {
      "inputs": [],
      "name": "TransactionDeadlinePassed",
      "type": "error"
    },
    {
      "inputs": [],
      "name": "UnableToClaim",
      "type": "error"
    },
    {
      "inputs": [],
      "name": "UnsafeCast",
      "type": "error"
    },
    {
      "inputs": [],
      "name": "V3InvalidAmountOut",
      "type": "error"
    },
    {
      "inputs": [],
      "name": "V3InvalidCaller",
      "type": "error"
    },
    {
      "inputs": [],
      "name": "V3InvalidSwap",
      "type": "error"
    },
    {
      "inputs": [],
      "name": "V3TooLittleReceived",
      "type": "error"
    },
    {
      "inputs": [],
      "name": "V3TooMuchRequested",
      "type": "error"
    },
    {
      "anonymous": false,
      "inputs": [
        {
          "indexed": false,
          "internalType": "uint256",
          "name": "amount",
          "type": "uint256"
        }
      ],
      "name": "RewardsSent",
      "type": "event"
    },
    {
      "inputs": [
        {
          "internalType": "bytes",
          "name": "looksRareClaim",
          "type": "bytes"
        }
      ],
      "name": "collectRewards",
      "outputs": [],
      "stateMutability": "nonpayable",
      "type": "function"
    },
    {
      "inputs": [
        {
          "internalType": "bytes",
          "name": "commands",
          "type": "bytes"
        },
        {
          "internalType": "bytes[]",
          "name": "inputs",
          "type": "bytes[]"
        }
      ],
      "name": "execute",
      "outputs": [],
      "stateMutability": "payable",
      "type": "function"
    },
    {
      "inputs": [
        {
          "internalType": "bytes",
          "name": "commands",
          "type": "bytes"
        },
        {
          "internalType": "bytes[]",
          "name": "inputs",
          "type": "bytes[]"
        },
        {
          "internalType": "uint256",
          "name": "deadline",
          "type": "uint256"
        }
      ],
      "name": "execute",
      "outputs": [],
      "stateMutability": "payable",
      "type": "function"
    },
    {
      "inputs": [
        {
          "internalType": "address",
          "name": "",
          "type": "address"
        },
        {
          "internalType": "address",
          "name": "",
          "type": "address"
        },
        {
          "internalType": "uint256[]",
          "name": "",
          "type": "uint256[]"
        },
        {
          "internalType": "uint256[]",
          "name": "",
          "type": "uint256[]"
        },
        {
          "internalType": "bytes",
          "name": "",
          "type": "bytes"
        }
      ],
      "name": "onERC1155BatchReceived",
      "outputs": [
        {
          "internalType": "bytes4",
          "name": "",
          "type": "bytes4"
        }
      ],
      "stateMutability": "pure",
      "type": "function"
    },
    {
      "inputs": [
        {
          "internalType": "address",
          "name": "",
          "type": "address"
        },
        {
          "internalType": "address",
          "name": "",
          "type": "address"
        },
        {
          "internalType": "uint256",
          "name": "",
          "type": "uint256"
        },
        {
          "internalType": "uint256",
          "name": "",
          "type": "uint256"
        },
        {
          "internalType": "bytes",
          "name": "",
          "type": "bytes"
        }
      ],
      "name": "onERC1155Received",
      "outputs": [
        {
          "internalType": "bytes4",
          "name": "",
          "type": "bytes4"
        }
      ],
      "stateMutability": "pure",
      "type": "function"
    },
    {
      "inputs": [
        {
          "internalType": "address",
          "name": "",
          "type": "address"
        },
        {
          "internalType": "address",
          "name": "",
          "type": "address"
        },
        {
          "internalType": "uint256",
          "name": "",
          "type": "uint256"
        },
        {
          "internalType": "bytes",
          "name": "",
          "type": "bytes"
        }
      ],
      "name": "onERC721Received",
      "outputs": [
        {
          "internalType": "bytes4",
          "name": "",
          "type": "bytes4"
        }
      ],
      "stateMutability": "pure",
      "type": "function"
    },
    {
      "inputs": [
        {
          "internalType": "bytes4",
          "name": "interfaceId",
          "type": "bytes4"
        }
      ],
      "name": "supportsInterface",
      "outputs": [
        {
          "internalType": "bool",
          "name": "",
          "type": "bool"
        }
      ],
      "stateMutability": "pure",
      "type": "function"
    },
    {
      "inputs": [
        {
          "internalType": "int256",
          "name": "amount0Delta",
          "type": "int256"
        },
        {
          "internalType": "int256",
          "name": "amount1Delta",
          "type": "int256"
        },
        {
          "internalType": "bytes",
          "name": "data",
          "type": "bytes"
        }
      ],
      "name": "uniswapV3SwapCallback",
      "outputs": [],
      "stateMutability": "nonpayable",
      "type": "function"
    },
    {
      "stateMutability": "payable",
      "type": "receive"
    }
  ],
  "transactionHash": "0x3f9c948ae98a22d507776daf20e1ea953a884dc11265c0d5bd8ae40954d3c33f",
  "args": [
    {
      "permit2": "0x000000000022D473030F116dDEE9F6B43aC78BA3",
      "weth9": "0xFC00000000000000000000000000000000000006",
      "seaportV1_5": "0x0000000000000000000000000000000000000000",
      "seaportV1_4": "0x0000000000000000000000000000000000000000",
      "openseaConduit": "0x0000000000000000000000000000000000000000",
      "nftxZap": "0x0000000000000000000000000000000000000000",
      "x2y2": "0x0000000000000000000000000000000000000000",
      "foundation": "0x0000000000000000000000000000000000000000",
      "sudoswap": "0x0000000000000000000000000000000000000000",
      "elementMarket": "0x0000000000000000000000000000000000000000",
      "nft20Zap": "0x0000000000000000000000000000000000000000",
      "cryptopunks": "0x0000000000000000000000000000000000000000",
      "looksRareV2": "0x0000000000000000000000000000000000000000",
      "routerRewardsDistributor": "0x0000000000000000000000000000000000000000",
      "looksRareRewardsDistributor": "0x0000000000000000000000000000000000000000",
      "looksRareToken": "0x0000000000000000000000000000000000000000",
      "v3Factory": "0xf0BB46d7bB2e8cc6F7BB31d344aE7D365802529e",
      "poolInitCodeHash": "0xeee17a48e7dd4fffcce4d79bb50f4f19fb4f3c03d3d7dacd6723eb17b1aef545"
    }
  ],
  "numDeployments": 1,
  "solcInputHash": "4a6a3ab49a41002471a76f77fc4e04dd",
  "bytecode": "0x346200054457620031e6388190036102c0601f8201601f19168101906001600160401b038211908210176200052e576102409282916040526102c03912620005445760405161024081016001600160401b038111828210176200052e576040526200006c6102c062000549565b808252906200007d6102e062000549565b602082018190526200009161030062000549565b6040830152620000a361032062000549565b6060830152620000b561034062000549565b60808301819052620000c961036062000549565b60a0840152620000db61038062000549565b60c0840152620000ed6103a062000549565b60e0840152620000ff6103c062000549565b610100840181905291620001156103e062000549565b6101208501526200012861040062000549565b6101408501526200013b61042062000549565b6101608501526200014e61044062000549565b6101808501526200016161046062000549565b6101a08501526200017461048062000549565b6101c0850152620001876104a062000549565b6101e08501526200019a6104c062000549565b6102008501526104e05161022085015260405194608086016001600160401b038111878210176200052e5760409081526001600160a01b03918216875291811660208701529182168582015291811660608501526102008301516102208401518351939092919091169083016001600160401b038111848210176200052e576040908152908352602083019190915282810151606084015160a085015160c086015160e08701516101008801516101208901516101408a01516101608b01516101808c01516101a0808e01516101c08f01516101e0909f01519c516001600160a01b039b8c169f909d9c8c169c8c169b9081169a918116999381169894811697958116968116958116948116938116929116908d01808e116001600160401b03909111176200052e5760209e8f8e8e6101a082016040528152015260408d015260608c015260808b015260a08a015260c089015260e088015261010087015261012086015261014085015261016084015261018083015260805260018060a01b03838201511660a05260018060a01b0360408201511660c05260018060a01b0360608201511660e05260018060a01b036080820151166101005260018060a01b0360c0820151166101205260018060a01b0360e0820151166101405260018060a01b03610100820151166101605260018060a01b03610120820151166101805260018060a01b03610180820151166101a05260018060a01b03610160820151166101c05261014060018060a01b03910151166101e05260018060a01b038151166102005201516102205260018060a01b036020820151166102405260018060a01b038151166102605260018060a01b0360408201511661028052606060018060a01b03910151166102a0526000196000556001808060a01b031981541617600155604051612c876200055f82396080518161199f015260a051816121e0015260c05181611a6b015260e051818181611df50152611f29015261010051816120030152610120518161216a01526101405181611ec201526101605181611aab01526101805181611a0801526101a051816103a301526101c0518161036001526101e051816103f8015261020051816126e9015261022051816127180152610240518181816114030152611529015261026051818181610e4601528181610ef4015281816112b7015281816117000152612aca0152610280518161235601526102a051818181611e5e01526123fa0152612c8790f35b634e487b7160e01b600052604160045260246000fd5b600080fd5b51906001600160a01b0382168203620005445756fe6080604081815260049081361015610022575b505050361561002057600080fd5b005b600092833560e01c90816301ffc9a71461069d57508063150b7a021461064757806324856bc3146105bf5780633593564c146104f8578063709a1cc21461031a578063bc197c811461028d578063f23a6e61146102345763fa461e330361001257346102305760603660031901126102305781359060243592604435906001600160401b039182811161022c576100bc903690830161074e565b91909287861390811580610222575b61021257838501868682031261020e57853591821161020e576100ef9186016125ca565b506001600160a01b0360208501358181169591949086900361020e5761011491612b3a565b959097602b89106101fe5786359260178460601c98019561014362ffffff883560601c9660481c16868b612683565b339116036101ee57156101e457508186105b1561016d575050505061016a93503391612765565b80f35b939594509192909190604287106101b757505050836017116101b357600160ff1b8210156101b3576101ad9360161901916101a83391612611565b6127ac565b50505080f35b8480fd5b9196955092939150845484116101d5575061016a9394503391612765565b516339cedf2960e11b81528590fd5b9650858210610155565b82516332b13d9160e01b81528590fd5b8151633b99b53d60e01b81528490fd5b8980fd5b855163316cf0eb60e01b81528390fd5b50888813156100cb565b8680fd5b8280fd5b50823461028a5760a036600319011261028a5761024f610709565b50610258610724565b50608435906001600160401b03821161028a575060209261027b9136910161074e565b50505163f23a6e6160e01b8152f35b80fd5b50823461028a5760a036600319011261028a576102a8610709565b506102b1610724565b506001600160401b0390604435828111610316576102d2903690860161077b565b5050606435828111610316576102eb903690860161077b565b505060843591821161028a57506020926103079136910161074e565b50505163bc197c8160e01b8152f35b5080fd5b503461023057602090816003193601126104f4578383356001600160401b0381116103165761034d82913690870161074e565b90818551928392833781018381520390827f00000000000000000000000000000000000000000000000000000000000000005af1610389612582565b50156104e55780516370a0823160e01b81523084820152907f00000000000000000000000000000000000000000000000000000000000000006001600160a01b03168383602481845afa9283156104db5786936104a6575b50815163a9059cbb60e01b81526001600160a01b037f0000000000000000000000000000000000000000000000000000000000000000169581019586526020860184905294849186918290899082906040015b03925af193841561049c577f1e8f03f716bc104bf7d728131967a0c771e85ab54d09c1e2d6ed9e0bc4e2a16c9461046f575b5051908152a180f35b61048e90843d8611610495575b6104868183612546565b8101906125b2565b5038610466565b503d61047c565b81513d87823e3d90fd5b9092508381813d83116104d4575b6104be8183612546565b810103126104d05751916104346103e1565b8580fd5b503d6104b4565b82513d88823e3d90fd5b51637d52991960e01b81529050fd5b8380fd5b506060366003190112610230576001600160401b0382358181116101b357610523903690850161074e565b916024359081116104d05761053b903690860161077b565b92909160443542116105af573330146105a05760018054909690956000196001600160a01b038816016105935750506001600160a01b03199485163317865585949361058a93909290916107eb565b81541617905580f35b516337affdbf60e11b8152fd5b909192935061016a94506107eb565b8451632dfb7c8b60e11b81528690fd5b5080600319360112610230576001600160401b0382358181116101b3576105e9903690850161074e565b916024359081116104d057610601903690860161077b565b9290913330146105a05760018054909690956000196001600160a01b038816016105935750506001600160a01b03199485163317865585949361058a93909290916107eb565b50823461028a57608036600319011261028a57610662610709565b5061066b610724565b50606435906001600160401b03821161028a575060209261068e9136910161074e565b505051630a85bd0160e11b8152f35b84908434610230576020366003190112610230573563ffffffff60e01b81168091036102305760209250630271189760e51b81149081156106f8575b81156106e7575b5015158152f35b6301ffc9a760e01b149050836106e0565b630a85bd0160e11b811491506106d9565b600435906001600160a01b038216820361071f57565b600080fd5b602435906001600160a01b038216820361071f57565b35906001600160a01b038216820361071f57565b9181601f8401121561071f578235916001600160401b03831161071f576020838186019501011161071f57565b9181601f8401121561071f578235916001600160401b03831161071f576020808501948460051b01011161071f57565b919082519283825260005b8481106107d7575050826000602080949584010152601f8019910116010190565b6020818301810151848301820152016107b6565b90928381036124cd5791906000949394915b85831061080c57505050509050565b838310156117f2578260051b81013590601e1991828236030181121561071f576001600160401b03818301351161071f578082013536036020828401011361071f57606095603f808787013560f81c166001956009821461248857600890818314612443576020831015612193575060108083101561194a575081101561125f5780610bed5750506108a682840135602084860101612b78565b91909860a08486010135600014610be6576001546001600160a01b03169a5b6108d4602086880101356128ea565b9b8686016040013590858d600160ff1b8414610b5d575b50959c9550905b600160ff1b81101561071f5760428610610b565730905b86602b1161071f578d90601782013560601c9260018060a01b03908161093d62ffffff863560481c1687873560601c612683565b169285853560601c10600014610b3b576401000276a4915b8360405198604060208b0152602b60608b0152602b8860808c0137600060ab8b015216604089015260a088528760c08101106001600160401b0360c08a011117610b255760c088016040818152630251596160e31b825291851660c48a0152953560601c871160e4890152610104880191909152911661012486015260a0610144860152919060bf19856109ed6101648201826107ab565b030190600060c08701915af1908115610b19578d906000918293610ad3575b610a2194503560601c1015610acc5750612611565b60428510610a4457309b8560171161071f576017019b60161990950194906108f2565b919b509950606091969795939250979397918801013511610aba575b1580610aa9575b610a7a57506001019394939190926107fd565b60408051632c4029e960e01b8152600481019390935260248301528190610aa59060448301906107ab565b0390fd5b5083820135600160ff1b1615610a67565b604051631ce9aa4b60e11b8152600490fd5b9050612611565b5091506040833d604011610b11575b81610af260409360c08401612546565b8101031261028a5750818d9160e060c0610a2195015192015192610a0c565b3d9150610ae2565b6040513d6000823e3d90fd5b634e487b7160e01b600052604160045260246000fd5b73fffd8963efd1fc6a506488495d951d5263988d2591610955565b8d90610909565b60149192935010610bd4576020602491604051928380926370a0823160e01b82523060048301523560601c5afa908115610b1957600091610ba2575b509038806108eb565b906020823d602011610bcc575b81610bbc60209383612546565b8101031261028a57505138610b99565b3d9150610baf565b604051633b99b53d60e01b8152600490fd5b309a6108c5565b6001819b9a9b9995999896949293979814600014610cc05750604091508781018083013591908990610c2490803590602001612b78565b82840160a0013515610cb1576060610c4d60208660018060a01b0360015416965b0101356128ea565b948d010135600055600160ff1b85101561071f57610c6e936101a886612611565b90919015610ca25750610c8090612611565b03610c9257506000196000555b610a60565b51636a70124760e11b8152600490fd5b610cac9150612611565b610c80565b6060610c4d6020863096610c45565b60028103610cff5750600154610c8d9250888201606081013592916001600160a01b031690602090610cf590604001356128ea565b928b010135612abe565b60038103611008575087810180358101919060409083031261071f576020818a0101356001600160401b03811161071f57606081838c010184031261071f5760405193606085018581106001600160401b03821117610b2557604052602082848d010101356001600160401b03811161071f5782848d0101019060208501908201121561071f576020810135610d9481612659565b91610da26040519384612546565b8183526040602084019260071b8201019060208701821161071f579185939160408f9401915b818310610f9957505050865260609291610de79101820160400161073a565b6020860152828b0101013560408401526040818a010135916001600160401b03831161071f57610e3292602080610e24930191848d0101016125ca565b508801803590602001612b5b565b6001546001600160a01b03908116939291907f0000000000000000000000000000000000000000000000000000000000000000163b1561071f57929091604051938492632a2d80d160e01b845260048401526060602484015260c4830191805192606060648601528351809152602060e486019401906000905b808210610f3e5750505060208101516001600160a01b031660848501526040015160a48401528282036003190160448401526000938392610eef92909190612638565b0381837f00000000000000000000000000000000000000000000000000000000000000006001600160a01b03165af18015610b1957610f2f575b50610a60565b610f38906124e2565b38610f29565b825180516001600160a01b0390811688526020828101519091168189015260408083015165ffffffffffff908116918a0191909152606092830151169188019190915289975060809096019590920191600190910190610eac565b91935091935060806020848903011261071f576020608091604051610fbd816124f5565b610fc68661073a565b8152610fd383870161073a565b83820152610fe360408701612670565b6040820152610ff460608701612670565b606082015281520192018593918e93610dc8565b6004925082810361111a575060409161102583838b0101356128ea565b926001600160a01b036060938b019384013581169360200135168061107957504792831061106c5750508061105c575b5050610a60565b61106591612b95565b3880611055565b51631a84bc4160e21b8152fd5b9391908051936370a0823160e01b85523083860152602085602481895afa94851561110f576000956110db575b5084106110ce575050816110bd575b505050610a60565b6110c692612be0565b3880806110b5565b51630ceb95c760e31b8152fd5b90946020823d602011611107575b816110f660209383612546565b8101031261028a57505193386110a6565b3d91506110e9565b82513d6000823e3d90fd5b6005810361114b5750610c8d9150606081890101359060206111416040838c0101356128ea565b918a010135612a22565b60068103611248575060406060828a0101359061116c81848c0101356128ea565b928215801561123d575b61122d578a01602001356001600160a01b031693846111aa575050610c8d92506111a36127109147612a0f565b0490612b95565b8151906370a0823160e01b82523090820152602081602481885afa91821561122357506000916111ef575b506111e8610c8d94939261271092612a0f565b0491612be0565b906020823d60201161121b575b8161120960209383612546565b8101031261028a5750516111e86111d5565b3d91506111fc565b513d6000823e3d90fd5b8151636f5500f360e11b81528590fd5b506127108311611176565b8260249160405191636bb50f4f60e11b8352820152fd5b600a819b9a9b99959998969492939798146000146113b9575087810160e0810135810192506040916020808501359261129c919086030183612758565b818b0135106113a8576001546001600160a01b0394908516927f000000000000000000000000000000000000000000000000000000000000000086169190823b1561071f5760009461139287938f9360c061132a988a968d89519e8f9c8d9b8c9a6302b67b5760e41b8c5260048c01528261131b60208888010161073a565b1660248c01528585010161073a565b16604489015261133e606084840101612670565b65ffffffffffff80911660648a015261135b608085850101612670565b16608489015261136f60a08484010161073a565b1660a488015201013560c485015261010060e48501528961010485019201612638565b03925af19081156112235750610f2f5750610a60565b8251633b99b53d60e01b8152600490fd5b600b8103611501575087016040818101359250906113da90602001356128ea565b9180600160ff1b81036114e9575050475b806113f857505050610a60565b6001600160a01b03907f00000000000000000000000000000000000000000000000000000000000000008216803b1561071f578351630d0e30db60e41b815260049390600081868187875af180156114de576114cf575b503090861603611461575b50506110b5565b835163a9059cbb60e01b81526001600160a01b0390951692850192835260208381019290925290918491908290600090829060400103925af190811561122357506114b0575b8080808061145a565b6114c89060203d602011610495576104868183612546565b50386114a7565b6114d8906124e2565b3861144f565b86513d6000823e3d90fd5b4710156113eb578151631a84bc4160e21b8152600490fd5b600c810361165557506040915061151d888201602001356128ea565b9160018060a01b0390817f000000000000000000000000000000000000000000000000000000000000000016908051936370a0823160e01b8552600430818701526024916020878481885afa96871561164a578e90600098611609575b500183013586106115fb5785611597575b50505050505050610a60565b833b1561071f5760009186918385519687948593632e1a7d4d60e01b85528401525af190811561122357506115ec575b5030908316036115dc575b808080808061158b565b6115e591612b95565b38806115d2565b6115f5906124e2565b386115c7565b8251631a84bc4160e21b8152fd5b9192939495969790506020823d602011611642575b8161162b60209383612546565b8101031261028a5750519594939291908d8461157a565b3d915061161e565b84513d6000823e3d90fd5b600d810361186a57508781018035810192602080850193919285031261071f576020818b0101356001600160401b03811161071f5783918b0101918201121561071f576020810135906040926116aa83612659565b946116b785519687612546565b838652602086019285849560071b82010192831161071f578501925b82841061180857505060015485516001600160a01b039493509150831660005b8281106117bd57505050817f00000000000000000000000000000000000000000000000000000000000000001691823b1561071f578351630d58b1db60e01b8152602060048201529451602486018190528592604484019290916000915b81831061177957505050509181600081819503925af19081156112235750610f2f5750610a60565b91938395506080602091846060600195975182815116845282868201511686850152828d820151168d85015201511660608201520195019301909187949392611751565b86518110156117f257818560208360051b8a0101515116036117e1576001016116f3565b855163e700287760e01b8152600490fd5b634e487b7160e01b600052603260045260246000fd5b60806020858403011261071f5760206080918751611825816124f5565b61182e8761073a565b815261183b83880161073a565b8382015261184a89880161073a565b8982015261185a6060880161073a565b60608201528152019301926116d3565b9092509050600e81036119325750604080516370a0823160e01b81526001600160a01b03602089850181810135831660048086019190915294959284916024918391890135165afa91821561164a576000926118fd575b5088016060013511801592906118d8575050610a60565b516351940b3960e11b60208201529081529091506118f58161252b565b903880611055565b90916020823d60201161192a575b8161191860209383612546565b8101031261028a5750519060606118c1565b3d915061190b565b60249060405190636bb50f4f60e11b82526004820152fd5b9192505060189a999a989394989795929697808310600014611de1575081036119ce575050506000816020611987839489013582848b0101612b5b565b604051929183918190833781018581520392890101357f00000000000000000000000000000000000000000000000000000000000000005af16119c8612582565b90610a60565b60118103611a315750505060008160206119f0839489013582848b0101612b5b565b604051929183918190833781018581520392890101357f00000000000000000000000000000000000000000000000000000000000000005af16119c8612582565b60128103611a94575050506000816020611a53839489013582848b0101612b5b565b604051929183918190833781018581520392890101357f00000000000000000000000000000000000000000000000000000000000000005af16119c8612582565b60138103611bb957505050602081860101356040917f0000000000000000000000000000000000000000000000000000000000000000928051602081019063104c9fd360e31b82526024858183015280825260608201908282106001600160401b03831117611ba557508352516000918291908b860160600135885af192611b1a612582565b948415611b84576001600160a01b031692611b39908a018301356128ea565b90833b1561071f5782516322dca8bb60e21b81526001600160a01b039290921660048301526024820152916000908390604490829084905af19081156112235750610f2f5750610a60565b50505162ae9bdf60e81b6020820152600481529192506119c890508161252b565b634e487b7160e01b60009081526041600452fd5b9192909160158103611c8f575090508560409160018060a01b038351916331a9108f60e11b835260208360248185898660049a606082820101358c860152010135165afa928315611c8457600093611c44575b50602082918b01013516911614918215611c27575050610a60565b51637dbe7e8960e01b60208201529081529091506118f58161252b565b6020939193813d602011611c7c575b81611c6060209383612546565b81010312610316575190828216820361028a5750916020611c0c565b3d9150611c53565b85513d6000823e3d90fd5b60168103611d58575060408051627eeac760e11b81526001600160a01b03898401602081810135831660048086019190915260608301356024860152949650939492939184916044918391890135165afa91821561164a57600092611d23575b508801608001351180159290611d06575050610a60565b5163483a692960e01b60208201529081529091506118f58161252b565b90916020823d602011611d50575b81611d3e60209383612546565b8101031261028a575051906080611cef565b3d9150611d31565b601714611d655750610a60565b6040611d7581838a0101356128ea565b91888101602001356001600160a01b031690813b1561071f578251632142170760e11b81523060048201526001600160a01b039094166024850152890160600135604484015260009083908183816064810103925af1908115611223575015610f2957610f38906124e2565b9394938214159050611e2357506119c892507f00000000000000000000000000000000000000000000000000000000000000009187018035915060200161294c565b60198103611e8757505060009150806020611e46849389013582848b0101612b5b565b604051929183918190833781018581520392890101357f00000000000000000000000000000000000000000000000000000000000000005af16119c8612582565b601a8103611eeb57505060009150806020611eaa849389013582848b0101612b5b565b604051929183918190833781018581520392890101357f00000000000000000000000000000000000000000000000000000000000000005af16119c8612582565b601b8103611ff35750509050600080611f0c838801356020858a0101612b5b565b92906040938185519283928337810183815203906020868b0101357f00000000000000000000000000000000000000000000000000000000000000005af1918291611f55612582565b92611f63575b505090610a60565b87820160808101356001600160a01b031690611f8290606001356128ea565b825191611f8e83612510565b60008352803b1561071f5760a060008c96611fcd82968851998a9788968795637921219560e11b875260c0818501013593010135903060048701612919565b03925af19081156112235750611fe4575b80611f5b565b611fed906124e2565b38611fde565b601c810361203157506119c892507f00000000000000000000000000000000000000000000000000000000000000009187018035915060200161294c565b909190601d810361212d57506040606082890101359161205582828b0101356128ea565b8251627eeac760e11b815230600480830191909152602482018690529094909290918b82016020908101356001600160a01b0316929087604481865afa9687156114de576000976120f8575b508c016080013586106120e85784516120b981612510565b60008152823b1561071f5760009461139286928851998a9788968795637921219560e11b875230908701612919565b8451630ceb95c760e31b81528490fd5b90966020823d602011612125575b8161211360209383612546565b8101031261028a5750519560806120a1565b3d9150612106565b9092509050601e810361193257506000816020612152839489013582848b0101612b5b565b604051929183918190833781018581520392890101357f00000000000000000000000000000000000000000000000000000000000000005af16119c8612582565b9250506020819b9a9b99959998969397981460001461220957505050600091508060206121c8849389013582848b0101612b5b565b604051929183918190833781018581520392890101357f00000000000000000000000000000000000000000000000000000000000000005af16119c8612582565b60219080820361231e5750509061223d935061222d838901356020858b0101612b3a565b9490938901803590602001612b5b565b9161226560409687519660208801986324856bc360e01b8a5260248901526064880191612638565b91602319868403016044870152808352602083019260208260051b82010195856000915b8483106122bf57505050505050505091816122b160009493859403601f198101835282612546565b519082305af16119c8612582565b9091929394959697601f198582030188528835828436030181121561071f57830190602082359201916001600160401b03811161071f57803603831361071f5761230e60209283928b95612638565b9a01980196959493019190612289565b909293915060228114600014611932575060409182828a010135906000906002831015612430575050808491156000146123f35750507f0000000000000000000000000000000000000000000000000000000000000000915b80519063095ea7b360e01b825260049384830152602060008b602494821986820152828460449889940101355af13d15601f3d118760005114161716156123c15750505050610a60565b91600e6d1054141493d59157d1905253115160921b92602060649695519562461bcd60e51b8752860152840152820152fd5b0361241f577f000000000000000000000000000000000000000000000000000000000000000091612377565b8151635461585f60e01b8152600490fd5b634e487b7160e01b825260045260249150fd5b60405162461bcd60e51b815260206004820152601e60248201527f4e6f7420737570706f72746564205632207377617020657861637420696e00006044820152606490fd5b60405162461bcd60e51b815260206004820152601f60248201527f4e6f7420737570706f727465642056322073776170206578616374206f7574006044820152606490fd5b6040516001621398b960e31b03198152600490fd5b6001600160401b038111610b2557604052565b608081019081106001600160401b03821117610b2557604052565b602081019081106001600160401b03821117610b2557604052565b604081019081106001600160401b03821117610b2557604052565b90601f801991011681019081106001600160401b03821117610b2557604052565b6001600160401b038111610b2557601f01601f191660200190565b3d156125ad573d9061259382612567565b916125a16040519384612546565b82523d6000602084013e565b606090565b9081602091031261071f5751801515810361071f5790565b81601f8201121561071f578035906125e182612567565b926125ef6040519485612546565b8284526020838301011161071f57816000926020809301838601378301015290565b600160ff1b81146126225760000390565b634e487b7160e01b600052601160045260246000fd5b908060209392818452848401376000828201840152601f01601f1916010190565b6001600160401b038111610b255760051b60200190565b359065ffffffffffff8216820361071f57565b6001600160a01b039290919083821684841611612750575b62ffffff908460405193816020860196168652166040840152166060820152606081526126c7816124f5565b519020604051602081019160ff60f81b83526bffffffffffffffffffffffff197f000000000000000000000000000000000000000000000000000000000000000060601b16602183015260358201527f0000000000000000000000000000000000000000000000000000000000000000605582015260558152612749816124f5565b5190201690565b90919061269b565b9190820180921161262257565b9291906001600160a01b03808216300361278657505061278492612a22565b565b808495941161279a57612784941692612abe565b60405163c4bd89a960e01b8152600490fd5b939193602b8410610bd4578462ffffff6000612823946128736128379935988960601c9a8b9a6127f7601789013560601c9d8e109c60018060a01b039e8f998a9460481c1691612683565b16968b86146128cf576401000276a49a5b60409d8e9b8c93845196879560208701526060860191612638565b91168b83015203601f198101835282612546565b848851998a9889978896630251596160e31b88521660048701528c6024870152604486015216606484015260a0608484015260a48301906107ab565b03925af19081156128c45760009360009261288f575b50509192565b8194508092503d83116128bd575b6128a78183612546565b8101031261071f57602082519201513880612889565b503d61289d565b83513d6000823e3d90fd5b73fffd8963efd1fc6a506488495d951d5263988d259a612808565b6001600160a01b0390808216600181036129075750506001541690565b90915060020361291657503090565b90565b919261291695949160a094600180871b0380921685521660208401526040830152606082015281608082015201906107ab565b9192906129599083612b5b565b90938460405195869384378201906000958693838580955203918635905af192612981612582565b928461298b575050565b60608101356001600160a01b03166129a660408301356128ea565b91813b156104f457604051632142170760e11b81523060048201526001600160a01b0393909316602484015260800135604483015290919081908390606490829084905af1908115612a0357506129fa5750565b612784906124e2565b604051903d90823e3d90fd5b8181029291811591840414171561262257565b9091906001600160a01b031680612a3d575061278491612b95565b600160ff1b8214612a53575b9161278492612be0565b6040516370a0823160e01b815230600482015292909150602083602481855afa8015610b1957600090612a8a575b90925090612a49565b506020833d602011612ab6575b81612aa460209383612546565b8101031261071f576127849251612a81565b3d9150612a97565b91926001600160a01b037f0000000000000000000000000000000000000000000000000000000000000000811693909290843b1561071f5760009484869281608496816040519b8c9a8b99631b63c28b60e11b8b521660048a01521660248801521660448601521660648401525af18015610b19576129fa5750565b918235830191612b54602084359581860195030185612758565b11610bd457565b916020830135830191612b54602084359581860195030185612758565b916060830135830191612b54602084359581860195030185612758565b600080809381935af115612ba557565b60405162461bcd60e51b815260206004820152601360248201527211551217d514905394d1915497d19052531151606a1b6044820152606490fd5b600091826044926020956040519363a9059cbb60e01b8552600485015260248401525af13d15601f3d1160016000511416171615612c1a57565b60405162461bcd60e51b815260206004820152600f60248201526e1514905394d1915497d19052531151608a1b6044820152606490fdfea2646970667358221220f3254d36f88143ac7262da0f3546584e667daa827187dca6541d0b07daaae3e264736f6c63430008180033",
  "devdoc": {
    "kind": "dev",
    "methods": {
      "collectRewards(bytes)": {
        "params": {
          "looksRareClaim": "The data required by LooksRare to claim reward tokens"
        }
      },
      "execute(bytes,bytes[])": {
        "params": {
          "commands": "A set of concatenated commands, each 1 byte in length",
          "inputs": "An array of byte strings containing abi encoded inputs for each command"
        }
      },
      "execute(bytes,bytes[],uint256)": {
        "params": {
          "commands": "A set of concatenated commands, each 1 byte in length",
          "deadline": "The deadline by which the transaction must be executed",
          "inputs": "An array of byte strings containing abi encoded inputs for each command"
        }
      },
      "supportsInterface(bytes4)": {
        "details": "Returns true if this contract implements the interface defined by `interfaceId`. See the corresponding https://eips.ethereum.org/EIPS/eip-165#how-interfaces-are-identified[EIP section] to learn more about how these ids are created. This function call must use less than 30 000 gas."
      },
      "uniswapV3SwapCallback(int256,int256,bytes)": {
        "details": "In the implementation you must pay the pool tokens owed for the swap. The caller of this method must be checked to be a UniswapV3Pool deployed by the canonical UniswapV3Factory. amount0Delta and amount1Delta can both be 0 if no tokens were swapped.",
        "params": {
          "amount0Delta": "The amount of token0 that was sent (negative) or must be received (positive) by the pool by the end of the swap. If positive, the callback must send that amount of token0 to the pool.",
          "amount1Delta": "The amount of token1 that was sent (negative) or must be received (positive) by the pool by the end of the swap. If positive, the callback must send that amount of token1 to the pool.",
          "data": "Any data passed through by the caller via the IUniswapV3PoolActions#swap call"
        }
      }
    },
    "version": 1
  },
  "userdoc": {
    "errors": {
      "ETHNotAccepted()": [
        {
          "notice": "Thrown when attempting to send ETH directly to the contract"
        }
      ],
      "ExecutionFailed(uint256,bytes)": [
        {
          "notice": "Thrown when a required command has failed"
        }
      ],
      "LengthMismatch()": [
        {
          "notice": "Thrown when attempting to execute commands and an incorrect number of inputs are provided"
        }
      ],
      "TransactionDeadlinePassed()": [
        {
          "notice": "Thrown when executing commands with an expired deadline"
        }
      ],
      "UnsafeCast()": [
        {
          "notice": "Thrown when a valude greater than type(uint160).max is cast to uint160"
        }
      ]
    },
    "kind": "user",
    "methods": {
      "collectRewards(bytes)": {
        "notice": "Fetches users' LooksRare rewards and sends them to the distributor contract"
      },
      "execute(bytes,bytes[])": {
        "notice": "Executes encoded commands along with provided inputs."
      },
      "execute(bytes,bytes[],uint256)": {
        "notice": "Executes encoded commands along with provided inputs. Reverts if deadline has expired."
      },
      "uniswapV3SwapCallback(int256,int256,bytes)": {
        "notice": "Called to `msg.sender` after executing a swap via IUniswapV3Pool#swap."
      }
    },
    "version": 1
  },
  "storageLayout": {
    "storage": [
      {
        "astId": 8943,
        "contract": "contracts/dex/universal_router/UniversalRouter.sol:UniversalRouter",
        "label": "maxAmountInCached",
        "offset": 0,
        "slot": "0",
        "type": "t_uint256"
      },
      {
        "astId": 7385,
        "contract": "contracts/dex/universal_router/UniversalRouter.sol:UniversalRouter",
        "label": "lockedBy",
        "offset": 0,
        "slot": "1",
        "type": "t_address"
      }
    ],
    "types": {
      "t_address": {
        "encoding": "inplace",
        "label": "address",
        "numberOfBytes": "20"
      },
      "t_uint256": {
        "encoding": "inplace",
        "label": "uint256",
        "numberOfBytes": "32"
      }
    }
  }
}